{
	"Distributor/StakingDistributor.sol": {
		"Distributor": {
			"abi": [
				{
					"inputs": [
						{
							"internalType": "address",
							"name": "_treasury",
							"type": "address"
						},
						{
							"internalType": "address",
							"name": "_exo",
							"type": "address"
						},
						{
							"internalType": "address",
							"name": "_staking",
							"type": "address"
						},
						{
							"internalType": "address",
							"name": "_authority",
							"type": "address"
						}
					],
					"stateMutability": "nonpayable",
					"type": "constructor"
				},
				{
					"anonymous": false,
					"inputs": [
						{
							"indexed": true,
							"internalType": "contract IExodusAuthority",
							"name": "authority",
							"type": "address"
						}
					],
					"name": "AuthorityUpdated",
					"type": "event"
				},
				{
					"inputs": [
						{
							"internalType": "address",
							"name": "_recipient",
							"type": "address"
						},
						{
							"internalType": "uint256",
							"name": "_rewardRate",
							"type": "uint256"
						}
					],
					"name": "addRecipient",
					"outputs": [],
					"stateMutability": "nonpayable",
					"type": "function"
				},
				{
					"inputs": [
						{
							"internalType": "uint256",
							"name": "",
							"type": "uint256"
						}
					],
					"name": "adjustments",
					"outputs": [
						{
							"internalType": "bool",
							"name": "add",
							"type": "bool"
						},
						{
							"internalType": "uint256",
							"name": "rate",
							"type": "uint256"
						},
						{
							"internalType": "uint256",
							"name": "target",
							"type": "uint256"
						}
					],
					"stateMutability": "view",
					"type": "function"
				},
				{
					"inputs": [],
					"name": "authority",
					"outputs": [
						{
							"internalType": "contract IExodusAuthority",
							"name": "",
							"type": "address"
						}
					],
					"stateMutability": "view",
					"type": "function"
				},
				{
					"inputs": [],
					"name": "bounty",
					"outputs": [
						{
							"internalType": "uint256",
							"name": "",
							"type": "uint256"
						}
					],
					"stateMutability": "view",
					"type": "function"
				},
				{
					"inputs": [],
					"name": "distribute",
					"outputs": [],
					"stateMutability": "nonpayable",
					"type": "function"
				},
				{
					"inputs": [
						{
							"internalType": "uint256",
							"name": "",
							"type": "uint256"
						}
					],
					"name": "info",
					"outputs": [
						{
							"internalType": "uint256",
							"name": "rate",
							"type": "uint256"
						},
						{
							"internalType": "address",
							"name": "recipient",
							"type": "address"
						}
					],
					"stateMutability": "view",
					"type": "function"
				},
				{
					"inputs": [
						{
							"internalType": "uint256",
							"name": "_rate",
							"type": "uint256"
						}
					],
					"name": "nextRewardAt",
					"outputs": [
						{
							"internalType": "uint256",
							"name": "",
							"type": "uint256"
						}
					],
					"stateMutability": "view",
					"type": "function"
				},
				{
					"inputs": [
						{
							"internalType": "address",
							"name": "_recipient",
							"type": "address"
						}
					],
					"name": "nextRewardFor",
					"outputs": [
						{
							"internalType": "uint256",
							"name": "",
							"type": "uint256"
						}
					],
					"stateMutability": "view",
					"type": "function"
				},
				{
					"inputs": [
						{
							"internalType": "uint256",
							"name": "_index",
							"type": "uint256"
						}
					],
					"name": "removeRecipient",
					"outputs": [],
					"stateMutability": "nonpayable",
					"type": "function"
				},
				{
					"inputs": [],
					"name": "retrieveBounty",
					"outputs": [
						{
							"internalType": "uint256",
							"name": "",
							"type": "uint256"
						}
					],
					"stateMutability": "nonpayable",
					"type": "function"
				},
				{
					"inputs": [
						{
							"internalType": "uint256",
							"name": "_index",
							"type": "uint256"
						},
						{
							"internalType": "bool",
							"name": "_add",
							"type": "bool"
						},
						{
							"internalType": "uint256",
							"name": "_rate",
							"type": "uint256"
						},
						{
							"internalType": "uint256",
							"name": "_target",
							"type": "uint256"
						}
					],
					"name": "setAdjustment",
					"outputs": [],
					"stateMutability": "nonpayable",
					"type": "function"
				},
				{
					"inputs": [
						{
							"internalType": "contract IExodusAuthority",
							"name": "_newAuthority",
							"type": "address"
						}
					],
					"name": "setAuthority",
					"outputs": [],
					"stateMutability": "nonpayable",
					"type": "function"
				},
				{
					"inputs": [
						{
							"internalType": "uint256",
							"name": "_bounty",
							"type": "uint256"
						}
					],
					"name": "setBounty",
					"outputs": [],
					"stateMutability": "nonpayable",
					"type": "function"
				}
			],
			"devdoc": {
				"kind": "dev",
				"methods": {
					"addRecipient(address,uint256)": {
						"params": {
							"_recipient": "address",
							"_rewardRate": "uint"
						}
					},
					"nextRewardAt(uint256)": {
						"params": {
							"_rate": "uint"
						},
						"returns": {
							"_0": "uint"
						}
					},
					"nextRewardFor(address)": {
						"params": {
							"_recipient": "address"
						},
						"returns": {
							"_0": "uint"
						}
					},
					"removeRecipient(uint256)": {
						"params": {
							"_index": "uint"
						}
					},
					"setAdjustment(uint256,bool,uint256,uint256)": {
						"params": {
							"_add": "bool",
							"_index": "uint",
							"_rate": "uint",
							"_target": "uint"
						}
					},
					"setBounty(uint256)": {
						"params": {
							"_bounty": "uint256"
						}
					}
				},
				"version": 1
			},
			"evm": {
				"assembly": "    /* \"Distributor/OlympusAccessControlled.sol\":255:291  string UNAUTHORIZED = \"UNAUTHORIZED\" */\n  0x0140\n    /* \"Distributor/StakingDistributor.sol\":234:6658  contract Distributor is IDistributor, ExodusAccessControlled {... */\n  0x40\n    /* \"Distributor/OlympusAccessControlled.sol\":255:291  string UNAUTHORIZED = \"UNAUTHORIZED\" */\n  mstore\n  0x0c\n    /* \"Distributor/StakingDistributor.sol\":234:6658  contract Distributor is IDistributor, ExodusAccessControlled {... */\n  0x0100\n    /* \"Distributor/OlympusAccessControlled.sol\":255:291  string UNAUTHORIZED = \"UNAUTHORIZED\" */\n  dup2\n  swap1\n  mstore\n  shl(0xa2, 0x15539055551213d492569151)\n  0x0120\n  swap1\n  dup2\n  mstore\n  tag_1\n  swap2\n  0x00\n  swap2\n  swap1\n  tag_2\n  jump\t// in\ntag_1:\n  pop\n    /* \"Distributor/StakingDistributor.sol\":695:704  1_000_000 */\n  0x0f4240\n    /* \"Distributor/StakingDistributor.sol\":651:704  uint256 private immutable rateDenominator = 1_000_000 */\n  0xe0\n  mstore\n    /* \"Distributor/StakingDistributor.sol\":1008:1478  constructor(... */\n  callvalue\n  dup1\n  iszero\n  tag_3\n  jumpi\n  0x00\n  dup1\n  revert\ntag_3:\n  pop\n  mload(0x40)\n  sub(codesize, bytecodeSize)\n  dup1\n  bytecodeSize\n  dup4\n  codecopy\n  dup2\n  dup2\n  add\n  0x40\n  mstore\n  0x80\n  dup2\n  lt\n  iszero\n  tag_4\n  jumpi\n  0x00\n  dup1\n  revert\ntag_4:\n  pop\n  dup1\n  mload\n  0x20\n  dup3\n  add\n  mload\n  0x40\n  dup1\n  dup5\n  add\n  mload\n  0x60\n  swap1\n  swap5\n  add\n  mload\n    /* \"Distributor/OlympusAccessControlled.sol\":495:504  authority */\n  0x01\n    /* \"Distributor/OlympusAccessControlled.sol\":495:517  authority = _authority */\n  dup1\n  sload\n  not(sub(shl(0xa0, 0x01), 0x01))\n  and\n  sub(shl(0xa0, 0x01), 0x01)\n  dup4\n  and\n  swap1\n  dup2\n  or\n  swap1\n  swap2\n  sstore\n    /* \"Distributor/OlympusAccessControlled.sol\":532:560  AuthorityUpdated(_authority) */\n  swap2\n  mload\n    /* \"Distributor/StakingDistributor.sol\":1008:1478  constructor(... */\n  swap4\n  swap5\n  swap3\n  swap4\n  swap1\n  swap2\n  dup3\n  swap2\n    /* \"Distributor/OlympusAccessControlled.sol\":532:560  AuthorityUpdated(_authority) */\n  0x2f658b440c35314f52658ea8a740e05b284cdc84dc9ae01e891f21b8933e7cad\n  swap1\n  0x00\n  swap1\n  log2\n  pop\n  sub(shl(0xa0, 0x01), 0x01)\n    /* \"Distributor/StakingDistributor.sol\":1200:1223  _treasury != address(0) */\n  dup5\n  and\n    /* \"Distributor/StakingDistributor.sol\":1192:1250  require(_treasury != address(0), \"Zero address: Treasury\") */\n  tag_9\n  jumpi\n  0x40\n  dup1\n  mload\n  shl(0xe5, 0x461bcd)\n  dup2\n  mstore\n  0x20\n  0x04\n  dup3\n  add\n  mstore\n  0x16\n  0x24\n  dup3\n  add\n  mstore\n  0x5a65726f20616464726573733a20547265617375727900000000000000000000\n  0x44\n  dup3\n  add\n  mstore\n  swap1\n  mload\n  swap1\n  dup2\n  swap1\n  sub\n  0x64\n  add\n  swap1\n  revert\ntag_9:\n  not(sub(shl(0x60, 0x01), 0x01))\n    /* \"Distributor/StakingDistributor.sol\":1260:1291  treasury = ITreasury(_treasury) */\n  0x60\n  dup6\n  swap1\n  shl\n  and\n  0xa0\n  mstore\n  sub(shl(0xa0, 0x01), 0x01)\n    /* \"Distributor/StakingDistributor.sol\":1309:1327  _exo != address(0) */\n  dup4\n  and\n    /* \"Distributor/StakingDistributor.sol\":1301:1349  require(_exo != address(0), \"Zero address: EXO\") */\n  tag_10\n  jumpi\n  0x40\n  dup1\n  mload\n  shl(0xe5, 0x461bcd)\n  dup2\n  mstore\n  0x20\n  0x04\n  dup3\n  add\n  mstore\n  0x11\n  0x24\n  dup3\n  add\n  mstore\n  shl(0x78, 0x5a65726f20616464726573733a2045584f)\n  0x44\n  dup3\n  add\n  mstore\n  swap1\n  mload\n  swap1\n  dup2\n  swap1\n  sub\n  0x64\n  add\n  swap1\n  revert\ntag_10:\n  not(sub(shl(0x60, 0x01), 0x01))\n    /* \"Distributor/StakingDistributor.sol\":1359:1377  exo = IERC20(_exo) */\n  0x60\n  dup5\n  swap1\n  shl\n  and\n  0x80\n  mstore\n  sub(shl(0xa0, 0x01), 0x01)\n    /* \"Distributor/StakingDistributor.sol\":1395:1417  _staking != address(0) */\n  dup3\n  and\n    /* \"Distributor/StakingDistributor.sol\":1387:1443  require(_staking != address(0), \"Zero address: Staking\") */\n  tag_11\n  jumpi\n  0x40\n  dup1\n  mload\n  shl(0xe5, 0x461bcd)\n  dup2\n  mstore\n  0x20\n  0x04\n  dup3\n  add\n  mstore\n  0x15\n  0x24\n  dup3\n  add\n  mstore\n  0x5a65726f20616464726573733a205374616b696e670000000000000000000000\n  0x44\n  dup3\n  add\n  mstore\n  swap1\n  mload\n  swap1\n  dup2\n  swap1\n  sub\n  0x64\n  add\n  swap1\n  revert\ntag_11:\n  pop\n    /* \"Distributor/StakingDistributor.sol\":1453:1471  staking = _staking */\n  0x60\n  shl\n  not(sub(shl(0x60, 0x01), 0x01))\n  and\n  0xc0\n  mstore\n  pop\n    /* \"Distributor/StakingDistributor.sol\":234:6658  contract Distributor is IDistributor, ExodusAccessControlled {... */\n  tag_12\n  swap1\n  pop\n  jump\ntag_2:\n  dup3\n  dup1\n  sload\n  0x01\n  dup2\n  0x01\n  and\n  iszero\n  0x0100\n  mul\n  sub\n  and\n  0x02\n  swap1\n  div\n  swap1\n  0x00\n  mstore\n  keccak256(0x00, 0x20)\n  swap1\n  0x1f\n  add\n  0x20\n  swap1\n  div\n  dup2\n  add\n  swap3\n  dup3\n  tag_14\n  jumpi\n  0x00\n  dup6\n  sstore\n  jump(tag_17)\ntag_14:\n  dup3\n  0x1f\n  lt\n  tag_15\n  jumpi\n  dup1\n  mload\n  not(0xff)\n  and\n  dup4\n  dup1\n  add\n  or\n  dup6\n  sstore\n  jump(tag_17)\ntag_15:\n  dup3\n  dup1\n  add\n  0x01\n  add\n  dup6\n  sstore\n  dup3\n  iszero\n  tag_17\n  jumpi\n  swap2\n  dup3\n  add\ntag_16:\n  dup3\n  dup2\n  gt\n  iszero\n  tag_17\n  jumpi\n  dup3\n  mload\n  dup3\n  sstore\n  swap2\n  0x20\n  add\n  swap2\n  swap1\n  0x01\n  add\n  swap1\n  jump(tag_16)\ntag_17:\n  pop\n  tag_18\n  swap3\n  swap2\n  pop\n  tag_19\n  jump\t// in\ntag_18:\n  pop\n  swap1\n  jump\t// out\ntag_19:\ntag_20:\n  dup1\n  dup3\n  gt\n  iszero\n  tag_18\n  jumpi\n  0x00\n  dup2\n  sstore\n  0x01\n  add\n  jump(tag_20)\ntag_12:\n  shr(0x60, mload(0x80))\n  shr(0x60, mload(0xa0))\n  shr(0x60, mload(0xc0))\n  mload(0xe0)\n  codecopy(0x00, dataOffset(sub_0), dataSize(sub_0))\n  assignImmutable(\"0x2d16435b3faa4516e45c961fcfb8946768323ac70484540b7ee099d570719013\")\n  assignImmutable(\"0xe216240695da412145d9df04d3b0c5fca4d43b99b7d0d5386b61bbf0097f7efd\")\n  assignImmutable(\"0x588e5ad3f145f9d841773d4229bac23d743ef980914ad5d2b613712259f67f55\")\n  assignImmutable(\"0x97798a7ce1eedb778fe135ba4f72c5cd61b1904f61f817965236ff22acf6c32a\")\n  return(0x00, dataSize(sub_0))\nstop\n\nsub_0: assembly {\n        /* \"Distributor/StakingDistributor.sol\":234:6658  contract Distributor is IDistributor, ExodusAccessControlled {... */\n      mstore(0x40, 0x80)\n      callvalue\n      dup1\n      iszero\n      tag_1\n      jumpi\n      0x00\n      dup1\n      revert\n    tag_1:\n      pop\n      jumpi(tag_2, lt(calldatasize, 0x04))\n      shr(0xe0, calldataload(0x00))\n      dup1\n      0x943dfef1\n      gt\n      tag_16\n      jumpi\n      dup1\n      0xc9fa8b2a\n      gt\n      tag_17\n      jumpi\n      dup1\n      0xc9fa8b2a\n      eq\n      tag_12\n      jumpi\n      dup1\n      0xe4fc6b6d\n      eq\n      tag_13\n      jumpi\n      dup1\n      0xe7187e8a\n      eq\n      tag_14\n      jumpi\n      dup1\n      0xf7982243\n      eq\n      tag_15\n      jumpi\n      jump(tag_2)\n    tag_17:\n      dup1\n      0x943dfef1\n      eq\n      tag_9\n      jumpi\n      dup1\n      0xbc3b2b12\n      eq\n      tag_10\n      jumpi\n      dup1\n      0xbf7e214f\n      eq\n      tag_11\n      jumpi\n      jump(tag_2)\n    tag_16:\n      dup1\n      0x5db854b0\n      gt\n      tag_18\n      jumpi\n      dup1\n      0x5db854b0\n      eq\n      tag_6\n      jumpi\n      dup1\n      0x7a9e5e4b\n      eq\n      tag_7\n      jumpi\n      dup1\n      0x8e69e255\n      eq\n      tag_8\n      jumpi\n      jump(tag_2)\n    tag_18:\n      dup1\n      0x2e340599\n      eq\n      tag_3\n      jumpi\n      dup1\n      0x36d33f44\n      eq\n      tag_4\n      jumpi\n      dup1\n      0x5d87d363\n      eq\n      tag_5\n      jumpi\n    tag_2:\n      0x00\n      dup1\n      revert\n        /* \"Distributor/StakingDistributor.sol\":855:873  Info[] public info */\n    tag_3:\n      tag_19\n      0x04\n      dup1\n      calldatasize\n      sub\n      0x20\n      dup2\n      lt\n      iszero\n      tag_20\n      jumpi\n      0x00\n      dup1\n      revert\n    tag_20:\n      pop\n      calldataload\n      tag_21\n      jump\t// in\n    tag_19:\n      0x40\n      dup1\n      mload\n      swap3\n      dup4\n      mstore\n      sub(shl(0xa0, 0x01), 0x01)\n      swap1\n      swap2\n      and\n      0x20\n      dup4\n      add\n      mstore\n      dup1\n      mload\n      swap2\n      dup3\n      swap1\n      sub\n      add\n      swap1\n      return\n        /* \"Distributor/StakingDistributor.sol\":4129:4457  function nextRewardFor(address _recipient) public view override returns (uint256) {... */\n    tag_4:\n      tag_22\n      0x04\n      dup1\n      calldatasize\n      sub\n      0x20\n      dup2\n      lt\n      iszero\n      tag_23\n      jumpi\n      0x00\n      dup1\n      revert\n    tag_23:\n      pop\n      calldataload\n      sub(shl(0xa0, 0x01), 0x01)\n      and\n      tag_24\n      jump\t// in\n    tag_22:\n      0x40\n      dup1\n      mload\n      swap2\n      dup3\n      mstore\n      mload\n      swap1\n      dup2\n      swap1\n      sub\n      0x20\n      add\n      swap1\n      return\n        /* \"Distributor/StakingDistributor.sol\":4600:4745  function setBounty(uint256 _bounty) external override onlyGovernor {... */\n    tag_5:\n      tag_25\n      0x04\n      dup1\n      calldatasize\n      sub\n      0x20\n      dup2\n      lt\n      iszero\n      tag_26\n      jumpi\n      0x00\n      dup1\n      revert\n    tag_26:\n      pop\n      calldataload\n      tag_27\n      jump\t// in\n    tag_25:\n      stop\n        /* \"Distributor/StakingDistributor.sol\":5888:6656  function setAdjustment(... */\n    tag_6:\n      tag_25\n      0x04\n      dup1\n      calldatasize\n      sub\n      0x80\n      dup2\n      lt\n      iszero\n      tag_29\n      jumpi\n      0x00\n      dup1\n      revert\n    tag_29:\n      pop\n      dup1\n      calldataload\n      swap1\n      0x20\n      dup2\n      add\n      calldataload\n      iszero\n      iszero\n      swap1\n      0x40\n      dup2\n      add\n      calldataload\n      swap1\n      0x60\n      add\n      calldataload\n      tag_30\n      jump\t// in\n        /* \"Distributor/OlympusAccessControlled.sol\":1108:1272  function setAuthority(IExodusAuthority _newAuthority) external onlyGovernor {... */\n    tag_7:\n      tag_25\n      0x04\n      dup1\n      calldatasize\n      sub\n      0x20\n      dup2\n      lt\n      iszero\n      tag_32\n      jumpi\n      0x00\n      dup1\n      revert\n    tag_32:\n      pop\n      calldataload\n      sub(shl(0xa0, 0x01), 0x01)\n      and\n      tag_33\n      jump\t// in\n        /* \"Distributor/StakingDistributor.sol\":5306:5694  function removeRecipient(uint256 _index) external override {... */\n    tag_8:\n      tag_25\n      0x04\n      dup1\n      calldatasize\n      sub\n      0x20\n      dup2\n      lt\n      iszero\n      tag_35\n      jumpi\n      0x00\n      dup1\n      revert\n    tag_35:\n      pop\n      calldataload\n      tag_36\n      jump\t// in\n        /* \"Distributor/StakingDistributor.sol\":614:644  uint256 public override bounty */\n    tag_9:\n      tag_22\n      tag_38\n      jump\t// in\n        /* \"Distributor/StakingDistributor.sol\":563:608  mapping(uint256 => Adjust) public adjustments */\n    tag_10:\n      tag_39\n      0x04\n      dup1\n      calldatasize\n      sub\n      0x20\n      dup2\n      lt\n      iszero\n      tag_40\n      jumpi\n      0x00\n      dup1\n      revert\n    tag_40:\n      pop\n      calldataload\n      tag_41\n      jump\t// in\n    tag_39:\n      0x40\n      dup1\n      mload\n      swap4\n      iszero\n      iszero\n      dup5\n      mstore\n      0x20\n      dup5\n      add\n      swap3\n      swap1\n      swap3\n      mstore\n      dup3\n      dup3\n      add\n      mstore\n      mload\n      swap1\n      dup2\n      swap1\n      sub\n      0x60\n      add\n      swap1\n      return\n        /* \"Distributor/OlympusAccessControlled.sol\":359:392  IExodusAuthority public authority */\n    tag_11:\n      tag_42\n      tag_43\n      jump\t// in\n    tag_42:\n      0x40\n      dup1\n      mload\n      sub(shl(0xa0, 0x01), 0x01)\n      swap1\n      swap3\n      and\n      dup3\n      mstore\n      mload\n      swap1\n      dup2\n      swap1\n      sub\n      0x20\n      add\n      swap1\n      return\n        /* \"Distributor/StakingDistributor.sol\":3835:3984  function nextRewardAt(uint256 _rate) public view override returns (uint256) {... */\n    tag_12:\n      tag_22\n      0x04\n      dup1\n      calldatasize\n      sub\n      0x20\n      dup2\n      lt\n      iszero\n      tag_45\n      jumpi\n      0x00\n      dup1\n      revert\n    tag_45:\n      pop\n      calldataload\n      tag_46\n      jump\t// in\n        /* \"Distributor/StakingDistributor.sol\":1596:2012  function distribute() external override {... */\n    tag_13:\n      tag_25\n      tag_48\n      jump\t// in\n        /* \"Distributor/StakingDistributor.sol\":2018:2335  function retrieveBounty() external override returns (uint256) {... */\n    tag_14:\n      tag_22\n      tag_50\n      jump\t// in\n        /* \"Distributor/StakingDistributor.sol\":4882:5205  function addRecipient(address _recipient, uint256 _rewardRate) external override onlyGovernor {... */\n    tag_15:\n      tag_25\n      0x04\n      dup1\n      calldatasize\n      sub\n      0x40\n      dup2\n      lt\n      iszero\n      tag_52\n      jumpi\n      0x00\n      dup1\n      revert\n    tag_52:\n      pop\n      sub(shl(0xa0, 0x01), 0x01)\n      dup2\n      calldataload\n      and\n      swap1\n      0x20\n      add\n      calldataload\n      tag_53\n      jump\t// in\n        /* \"Distributor/StakingDistributor.sol\":855:873  Info[] public info */\n    tag_21:\n      0x04\n      dup2\n      dup2\n      sload\n      dup2\n      lt\n      tag_54\n      jumpi\n      0x00\n      dup1\n      revert\n    tag_54:\n      0x00\n      swap2\n      dup3\n      mstore\n      0x20\n      swap1\n      swap2\n      keccak256\n      0x02\n      swap1\n      swap2\n      mul\n      add\n      dup1\n      sload\n      0x01\n      swap1\n      swap2\n      add\n      sload\n      swap1\n      swap2\n      pop\n      sub(shl(0xa0, 0x01), 0x01)\n      and\n      dup3\n      jump\t// out\n        /* \"Distributor/StakingDistributor.sol\":4129:4457  function nextRewardFor(address _recipient) public view override returns (uint256) {... */\n    tag_24:\n        /* \"Distributor/StakingDistributor.sol\":4202:4209  uint256 */\n      0x00\n        /* \"Distributor/StakingDistributor.sol\":4221:4235  uint256 reward */\n      dup1\n        /* \"Distributor/StakingDistributor.sol\":4250:4259  uint256 i */\n      0x00\n        /* \"Distributor/StakingDistributor.sol\":4245:4428  for (uint256 i = 0; i < info.length; i++) {... */\n    tag_57:\n        /* \"Distributor/StakingDistributor.sol\":4269:4273  info */\n      0x04\n        /* \"Distributor/StakingDistributor.sol\":4269:4280  info.length */\n      sload\n        /* \"Distributor/StakingDistributor.sol\":4265:4280  i < info.length */\n      dup2\n      lt\n        /* \"Distributor/StakingDistributor.sol\":4245:4428  for (uint256 i = 0; i < info.length; i++) {... */\n      iszero\n      tag_58\n      jumpi\n        /* \"Distributor/StakingDistributor.sol\":4326:4336  _recipient */\n      dup4\n      sub(shl(0xa0, 0x01), 0x01)\n        /* \"Distributor/StakingDistributor.sol\":4305:4336  info[i].recipient == _recipient */\n      and\n        /* \"Distributor/StakingDistributor.sol\":4305:4309  info */\n      0x04\n        /* \"Distributor/StakingDistributor.sol\":4310:4311  i */\n      dup3\n        /* \"Distributor/StakingDistributor.sol\":4305:4312  info[i] */\n      dup2\n      sload\n      dup2\n      lt\n      tag_60\n      jumpi\n      invalid\n    tag_60:\n      0x00\n      swap2\n      dup3\n      mstore\n      0x20\n      swap1\n      swap2\n      keccak256\n        /* \"Distributor/StakingDistributor.sol\":4305:4322  info[i].recipient */\n      0x01\n        /* \"Distributor/StakingDistributor.sol\":4305:4312  info[i] */\n      0x02\n      swap1\n      swap3\n      mul\n      add\n        /* \"Distributor/StakingDistributor.sol\":4305:4322  info[i].recipient */\n      add\n      sload\n      sub(shl(0xa0, 0x01), 0x01)\n      and\n        /* \"Distributor/StakingDistributor.sol\":4305:4336  info[i].recipient == _recipient */\n      eq\n        /* \"Distributor/StakingDistributor.sol\":4301:4418  if (info[i].recipient == _recipient) {... */\n      iszero\n      tag_62\n      jumpi\n        /* \"Distributor/StakingDistributor.sol\":4365:4403  reward.add(nextRewardAt(info[i].rate)) */\n      tag_63\n        /* \"Distributor/StakingDistributor.sol\":4376:4402  nextRewardAt(info[i].rate) */\n      tag_64\n        /* \"Distributor/StakingDistributor.sol\":4389:4393  info */\n      0x04\n        /* \"Distributor/StakingDistributor.sol\":4394:4395  i */\n      dup4\n        /* \"Distributor/StakingDistributor.sol\":4389:4396  info[i] */\n      dup2\n      sload\n      dup2\n      lt\n      tag_65\n      jumpi\n      invalid\n    tag_65:\n      swap1\n      0x00\n      mstore\n      keccak256(0x00, 0x20)\n      swap1\n      0x02\n      mul\n      add\n        /* \"Distributor/StakingDistributor.sol\":4389:4401  info[i].rate */\n      0x00\n      add\n      sload\n        /* \"Distributor/StakingDistributor.sol\":4376:4388  nextRewardAt */\n      tag_46\n        /* \"Distributor/StakingDistributor.sol\":4376:4402  nextRewardAt(info[i].rate) */\n      jump\t// in\n    tag_64:\n        /* \"Distributor/StakingDistributor.sol\":4365:4371  reward */\n      dup4\n      swap1\n        /* \"Distributor/StakingDistributor.sol\":4365:4375  reward.add */\n      tag_67\n        /* \"Distributor/StakingDistributor.sol\":4365:4403  reward.add(nextRewardAt(info[i].rate)) */\n      jump\t// in\n    tag_63:\n        /* \"Distributor/StakingDistributor.sol\":4356:4403  reward = reward.add(nextRewardAt(info[i].rate)) */\n      swap2\n      pop\n        /* \"Distributor/StakingDistributor.sol\":4301:4418  if (info[i].recipient == _recipient) {... */\n    tag_62:\n        /* \"Distributor/StakingDistributor.sol\":4282:4285  i++ */\n      0x01\n      add\n        /* \"Distributor/StakingDistributor.sol\":4245:4428  for (uint256 i = 0; i < info.length; i++) {... */\n      jump(tag_57)\n    tag_58:\n      pop\n        /* \"Distributor/StakingDistributor.sol\":4444:4450  reward */\n      swap3\n        /* \"Distributor/StakingDistributor.sol\":4129:4457  function nextRewardFor(address _recipient) public view override returns (uint256) {... */\n      swap2\n      pop\n      pop\n      jump\t// out\n        /* \"Distributor/StakingDistributor.sol\":4600:4745  function setBounty(uint256 _bounty) external override onlyGovernor {... */\n    tag_27:\n        /* \"Distributor/OlympusAccessControlled.sol\":672:681  authority */\n      0x01\n      0x00\n      swap1\n      sload\n      swap1\n      0x0100\n      exp\n      swap1\n      div\n      sub(shl(0xa0, 0x01), 0x01)\n      and\n      sub(shl(0xa0, 0x01), 0x01)\n        /* \"Distributor/OlympusAccessControlled.sol\":672:690  authority.governor */\n      and\n      0x0c340a24\n        /* \"Distributor/OlympusAccessControlled.sol\":672:692  authority.governor() */\n      mload(0x40)\n      dup2\n      0xffffffff\n      and\n      0xe0\n      shl\n      dup2\n      mstore\n      0x04\n      add\n      0x20\n      mload(0x40)\n      dup1\n      dup4\n      sub\n      dup2\n      dup7\n      dup1\n      extcodesize\n      iszero\n      dup1\n      iszero\n      tag_69\n      jumpi\n      0x00\n      dup1\n      revert\n    tag_69:\n      pop\n      gas\n      staticcall\n      iszero\n      dup1\n      iszero\n      tag_71\n      jumpi\n      returndatasize\n      0x00\n      dup1\n      returndatacopy\n      revert(0x00, returndatasize)\n    tag_71:\n      pop\n      pop\n      pop\n      pop\n      mload(0x40)\n      returndatasize\n      0x20\n      dup2\n      lt\n      iszero\n      tag_72\n      jumpi\n      0x00\n      dup1\n      revert\n    tag_72:\n      pop\n      mload\n        /* \"Distributor/OlympusAccessControlled.sol\":694:706  UNAUTHORIZED */\n      0x00\n      swap1\n      sub(shl(0xa0, 0x01), 0x01)\n        /* \"Distributor/OlympusAccessControlled.sol\":658:692  msg.sender == authority.governor() */\n      and\n        /* \"Distributor/OlympusAccessControlled.sol\":658:668  msg.sender */\n      caller\n        /* \"Distributor/OlympusAccessControlled.sol\":658:692  msg.sender == authority.governor() */\n      eq\n        /* \"Distributor/OlympusAccessControlled.sol\":650:707  require(msg.sender == authority.governor(), UNAUTHORIZED) */\n      tag_73\n      jumpi\n      mload(0x40)\n      shl(0xe5, 0x461bcd)\n      dup2\n      mstore\n      0x20\n      0x04\n      dup3\n      add\n      swap1\n      dup2\n      mstore\n      dup3\n      sload\n      0x02\n      not(0x00)\n      0x0100\n      0x01\n      dup5\n      and\n      iszero\n      mul\n      add\n      swap1\n      swap2\n      and\n      div\n      0x24\n      dup4\n      add\n      dup2\n      swap1\n      mstore\n      swap1\n      swap2\n      dup3\n      swap2\n      0x44\n      swap1\n      swap2\n      add\n      swap1\n      dup5\n      swap1\n      dup1\n      iszero\n      tag_74\n      jumpi\n      dup1\n      0x1f\n      lt\n      tag_75\n      jumpi\n      0x0100\n      dup1\n      dup4\n      sload\n      div\n      mul\n      dup4\n      mstore\n      swap2\n      0x20\n      add\n      swap2\n      jump(tag_74)\n    tag_75:\n      dup3\n      add\n      swap2\n      swap1\n      0x00\n      mstore\n      keccak256(0x00, 0x20)\n      swap1\n    tag_76:\n      dup2\n      sload\n      dup2\n      mstore\n      swap1\n      0x01\n      add\n      swap1\n      0x20\n      add\n      dup1\n      dup4\n      gt\n      tag_76\n      jumpi\n      dup3\n      swap1\n      sub\n      0x1f\n      and\n      dup3\n      add\n      swap2\n    tag_74:\n      pop\n      pop\n      swap3\n      pop\n      pop\n      pop\n      mload(0x40)\n      dup1\n      swap2\n      sub\n      swap1\n      revert\n    tag_73:\n      pop\n        /* \"Distributor/StakingDistributor.sol\":4696:4699  2e9 */\n      0x77359400\n        /* \"Distributor/StakingDistributor.sol\":4685:4692  _bounty */\n      dup2\n        /* \"Distributor/StakingDistributor.sol\":4685:4699  _bounty <= 2e9 */\n      gt\n      iszero\n        /* \"Distributor/StakingDistributor.sol\":4677:4712  require(_bounty <= 2e9, \"Too much\") */\n      tag_78\n      jumpi\n      0x40\n      dup1\n      mload\n      shl(0xe5, 0x461bcd)\n      dup2\n      mstore\n      0x20\n      0x04\n      dup3\n      add\n      mstore\n      0x08\n      0x24\n      dup3\n      add\n      mstore\n      0x546f6f206d756368000000000000000000000000000000000000000000000000\n      0x44\n      dup3\n      add\n      mstore\n      swap1\n      mload\n      swap1\n      dup2\n      swap1\n      sub\n      0x64\n      add\n      swap1\n      revert\n    tag_78:\n        /* \"Distributor/StakingDistributor.sol\":4722:4728  bounty */\n      0x03\n        /* \"Distributor/StakingDistributor.sol\":4722:4738  bounty = _bounty */\n      sstore\n        /* \"Distributor/StakingDistributor.sol\":4600:4745  function setBounty(uint256 _bounty) external override onlyGovernor {... */\n      jump\t// out\n        /* \"Distributor/StakingDistributor.sol\":5888:6656  function setAdjustment(... */\n    tag_30:\n        /* \"Distributor/StakingDistributor.sol\":6071:6080  authority */\n      0x01\n      0x00\n      swap1\n      sload\n      swap1\n      0x0100\n      exp\n      swap1\n      div\n      sub(shl(0xa0, 0x01), 0x01)\n      and\n      sub(shl(0xa0, 0x01), 0x01)\n        /* \"Distributor/StakingDistributor.sol\":6071:6089  authority.governor */\n      and\n      0x0c340a24\n        /* \"Distributor/StakingDistributor.sol\":6071:6091  authority.governor() */\n      mload(0x40)\n      dup2\n      0xffffffff\n      and\n      0xe0\n      shl\n      dup2\n      mstore\n      0x04\n      add\n      0x20\n      mload(0x40)\n      dup1\n      dup4\n      sub\n      dup2\n      dup7\n      dup1\n      extcodesize\n      iszero\n      dup1\n      iszero\n      tag_80\n      jumpi\n      0x00\n      dup1\n      revert\n    tag_80:\n      pop\n      gas\n      staticcall\n      iszero\n      dup1\n      iszero\n      tag_82\n      jumpi\n      returndatasize\n      0x00\n      dup1\n      returndatacopy\n      revert(0x00, returndatasize)\n    tag_82:\n      pop\n      pop\n      pop\n      pop\n      mload(0x40)\n      returndatasize\n      0x20\n      dup2\n      lt\n      iszero\n      tag_83\n      jumpi\n      0x00\n      dup1\n      revert\n    tag_83:\n      pop\n      mload\n      sub(shl(0xa0, 0x01), 0x01)\n        /* \"Distributor/StakingDistributor.sol\":6057:6091  msg.sender == authority.governor() */\n      and\n        /* \"Distributor/StakingDistributor.sol\":6057:6067  msg.sender */\n      caller\n        /* \"Distributor/StakingDistributor.sol\":6057:6091  msg.sender == authority.governor() */\n      eq\n      dup1\n        /* \"Distributor/StakingDistributor.sol\":6057:6129  msg.sender == authority.governor() || msg.sender == authority.guardian() */\n      tag_84\n      jumpi\n      pop\n        /* \"Distributor/StakingDistributor.sol\":6109:6118  authority */\n      0x01\n      0x00\n      swap1\n      sload\n      swap1\n      0x0100\n      exp\n      swap1\n      div\n      sub(shl(0xa0, 0x01), 0x01)\n      and\n      sub(shl(0xa0, 0x01), 0x01)\n        /* \"Distributor/StakingDistributor.sol\":6109:6127  authority.guardian */\n      and\n      0x452a9320\n        /* \"Distributor/StakingDistributor.sol\":6109:6129  authority.guardian() */\n      mload(0x40)\n      dup2\n      0xffffffff\n      and\n      0xe0\n      shl\n      dup2\n      mstore\n      0x04\n      add\n      0x20\n      mload(0x40)\n      dup1\n      dup4\n      sub\n      dup2\n      dup7\n      dup1\n      extcodesize\n      iszero\n      dup1\n      iszero\n      tag_85\n      jumpi\n      0x00\n      dup1\n      revert\n    tag_85:\n      pop\n      gas\n      staticcall\n      iszero\n      dup1\n      iszero\n      tag_87\n      jumpi\n      returndatasize\n      0x00\n      dup1\n      returndatacopy\n      revert(0x00, returndatasize)\n    tag_87:\n      pop\n      pop\n      pop\n      pop\n      mload(0x40)\n      returndatasize\n      0x20\n      dup2\n      lt\n      iszero\n      tag_88\n      jumpi\n      0x00\n      dup1\n      revert\n    tag_88:\n      pop\n      mload\n      sub(shl(0xa0, 0x01), 0x01)\n        /* \"Distributor/StakingDistributor.sol\":6095:6129  msg.sender == authority.guardian() */\n      and\n        /* \"Distributor/StakingDistributor.sol\":6095:6105  msg.sender */\n      caller\n        /* \"Distributor/StakingDistributor.sol\":6095:6129  msg.sender == authority.guardian() */\n      eq\n        /* \"Distributor/StakingDistributor.sol\":6057:6129  msg.sender == authority.governor() || msg.sender == authority.guardian() */\n    tag_84:\n        /* \"Distributor/StakingDistributor.sol\":6036:6189  require(... */\n      tag_89\n      jumpi\n      mload(0x40)\n      shl(0xe5, 0x461bcd)\n      dup2\n      mstore\n      0x04\n      add\n      dup1\n      dup1\n      0x20\n      add\n      dup3\n      dup2\n      sub\n      dup3\n      mstore\n      0x22\n      dup2\n      mstore\n      0x20\n      add\n      dup1\n      data_69f7f70959a4e39a44e5c1e9758516dc060c05af9d2514644d1e8fb784f16900\n      0x22\n      swap2\n      codecopy\n      0x40\n      add\n      swap2\n      pop\n      pop\n      mload(0x40)\n      dup1\n      swap2\n      sub\n      swap1\n      revert\n    tag_89:\n        /* \"Distributor/StakingDistributor.sol\":6241:6242  0 */\n      0x00\n      sub(shl(0xa0, 0x01), 0x01)\n        /* \"Distributor/StakingDistributor.sol\":6207:6243  info[_index].recipient != address(0) */\n      and\n        /* \"Distributor/StakingDistributor.sol\":6207:6211  info */\n      0x04\n        /* \"Distributor/StakingDistributor.sol\":6212:6218  _index */\n      dup6\n        /* \"Distributor/StakingDistributor.sol\":6207:6219  info[_index] */\n      dup2\n      sload\n      dup2\n      lt\n      tag_90\n      jumpi\n      invalid\n    tag_90:\n      0x00\n      swap2\n      dup3\n      mstore\n      0x20\n      swap1\n      swap2\n      keccak256\n        /* \"Distributor/StakingDistributor.sol\":6207:6229  info[_index].recipient */\n      0x01\n        /* \"Distributor/StakingDistributor.sol\":6207:6219  info[_index] */\n      0x02\n      swap1\n      swap3\n      mul\n      add\n        /* \"Distributor/StakingDistributor.sol\":6207:6229  info[_index].recipient */\n      add\n      sload\n      sub(shl(0xa0, 0x01), 0x01)\n      and\n        /* \"Distributor/StakingDistributor.sol\":6207:6243  info[_index].recipient != address(0) */\n      eq\n      iszero\n        /* \"Distributor/StakingDistributor.sol\":6199:6272  require(info[_index].recipient != address(0), \"Recipient does not exist\") */\n      tag_92\n      jumpi\n      0x40\n      dup1\n      mload\n      shl(0xe5, 0x461bcd)\n      dup2\n      mstore\n      0x20\n      0x04\n      dup3\n      add\n      mstore\n      0x18\n      0x24\n      dup3\n      add\n      mstore\n      0x526563697069656e7420646f6573206e6f742065786973740000000000000000\n      0x44\n      dup3\n      add\n      mstore\n      swap1\n      mload\n      swap1\n      dup2\n      swap1\n      sub\n      0x64\n      add\n      swap1\n      revert\n    tag_92:\n        /* \"Distributor/StakingDistributor.sol\":6301:6310  authority */\n      0x01\n      0x00\n      swap1\n      sload\n      swap1\n      0x0100\n      exp\n      swap1\n      div\n      sub(shl(0xa0, 0x01), 0x01)\n      and\n      sub(shl(0xa0, 0x01), 0x01)\n        /* \"Distributor/StakingDistributor.sol\":6301:6319  authority.guardian */\n      and\n      0x452a9320\n        /* \"Distributor/StakingDistributor.sol\":6301:6321  authority.guardian() */\n      mload(0x40)\n      dup2\n      0xffffffff\n      and\n      0xe0\n      shl\n      dup2\n      mstore\n      0x04\n      add\n      0x20\n      mload(0x40)\n      dup1\n      dup4\n      sub\n      dup2\n      dup7\n      dup1\n      extcodesize\n      iszero\n      dup1\n      iszero\n      tag_93\n      jumpi\n      0x00\n      dup1\n      revert\n    tag_93:\n      pop\n      gas\n      staticcall\n      iszero\n      dup1\n      iszero\n      tag_95\n      jumpi\n      returndatasize\n      0x00\n      dup1\n      returndatacopy\n      revert(0x00, returndatasize)\n    tag_95:\n      pop\n      pop\n      pop\n      pop\n      mload(0x40)\n      returndatasize\n      0x20\n      dup2\n      lt\n      iszero\n      tag_96\n      jumpi\n      0x00\n      dup1\n      revert\n    tag_96:\n      pop\n      mload\n      sub(shl(0xa0, 0x01), 0x01)\n        /* \"Distributor/StakingDistributor.sol\":6287:6321  msg.sender == authority.guardian() */\n      and\n        /* \"Distributor/StakingDistributor.sol\":6287:6297  msg.sender */\n      caller\n        /* \"Distributor/StakingDistributor.sol\":6287:6321  msg.sender == authority.guardian() */\n      eq\n        /* \"Distributor/StakingDistributor.sol\":6283:6436  if (msg.sender == authority.guardian()) {... */\n      iszero\n      tag_104\n      jumpi\n        /* \"Distributor/StakingDistributor.sol\":6354:6389  info[_index].rate.mul(25).div(1000) */\n      tag_98\n        /* \"Distributor/StakingDistributor.sol\":6384:6388  1000 */\n      0x03e8\n        /* \"Distributor/StakingDistributor.sol\":6354:6379  info[_index].rate.mul(25) */\n      tag_99\n        /* \"Distributor/StakingDistributor.sol\":6376:6378  25 */\n      0x19\n        /* \"Distributor/StakingDistributor.sol\":6354:6358  info */\n      0x04\n        /* \"Distributor/StakingDistributor.sol\":6359:6365  _index */\n      dup9\n        /* \"Distributor/StakingDistributor.sol\":6354:6366  info[_index] */\n      dup2\n      sload\n      dup2\n      lt\n      tag_100\n      jumpi\n      invalid\n    tag_100:\n      0x00\n      swap2\n      dup3\n      mstore\n      0x20\n      swap1\n      swap2\n      keccak256\n      0x02\n      swap1\n      swap2\n      mul\n      add\n        /* \"Distributor/StakingDistributor.sol\":6354:6371  info[_index].rate */\n      sload\n      swap1\n        /* \"Distributor/StakingDistributor.sol\":6354:6375  info[_index].rate.mul */\n      tag_102\n        /* \"Distributor/StakingDistributor.sol\":6354:6379  info[_index].rate.mul(25) */\n      jump\t// in\n    tag_99:\n        /* \"Distributor/StakingDistributor.sol\":6354:6383  info[_index].rate.mul(25).div */\n      swap1\n      tag_103\n        /* \"Distributor/StakingDistributor.sol\":6354:6389  info[_index].rate.mul(25).div(1000) */\n      jump\t// in\n    tag_98:\n        /* \"Distributor/StakingDistributor.sol\":6345:6350  _rate */\n      dup3\n        /* \"Distributor/StakingDistributor.sol\":6345:6389  _rate <= info[_index].rate.mul(25).div(1000) */\n      gt\n      iszero\n        /* \"Distributor/StakingDistributor.sol\":6337:6425  require(_rate <= info[_index].rate.mul(25).div(1000), \"Limiter: cannot adjust by >2.5%\") */\n      tag_104\n      jumpi\n      0x40\n      dup1\n      mload\n      shl(0xe5, 0x461bcd)\n      dup2\n      mstore\n      0x20\n      0x04\n      dup3\n      add\n      mstore\n      0x1f\n      0x24\n      dup3\n      add\n      mstore\n      0x4c696d697465723a2063616e6e6f742061646a757374206279203e322e352500\n      0x44\n      dup3\n      add\n      mstore\n      swap1\n      mload\n      swap1\n      dup2\n      swap1\n      sub\n      0x64\n      add\n      swap1\n      revert\n    tag_104:\n        /* \"Distributor/StakingDistributor.sol\":6451:6455  _add */\n      dup3\n        /* \"Distributor/StakingDistributor.sol\":6446:6568  if (!_add) {... */\n      tag_108\n      jumpi\n        /* \"Distributor/StakingDistributor.sol\":6488:6492  info */\n      0x04\n        /* \"Distributor/StakingDistributor.sol\":6493:6499  _index */\n      dup5\n        /* \"Distributor/StakingDistributor.sol\":6488:6500  info[_index] */\n      dup2\n      sload\n      dup2\n      lt\n      tag_106\n      jumpi\n      invalid\n    tag_106:\n      swap1\n      0x00\n      mstore\n      keccak256(0x00, 0x20)\n      swap1\n      0x02\n      mul\n      add\n        /* \"Distributor/StakingDistributor.sol\":6488:6505  info[_index].rate */\n      0x00\n      add\n      sload\n        /* \"Distributor/StakingDistributor.sol\":6479:6484  _rate */\n      dup3\n        /* \"Distributor/StakingDistributor.sol\":6479:6505  _rate <= info[_index].rate */\n      gt\n      iszero\n        /* \"Distributor/StakingDistributor.sol\":6471:6557  require(_rate <= info[_index].rate, \"Cannot decrease rate by more than it already is\") */\n      tag_108\n      jumpi\n      mload(0x40)\n      shl(0xe5, 0x461bcd)\n      dup2\n      mstore\n      0x04\n      add\n      dup1\n      dup1\n      0x20\n      add\n      dup3\n      dup2\n      sub\n      dup3\n      mstore\n      0x2f\n      dup2\n      mstore\n      0x20\n      add\n      dup1\n      data_ed69d779fa32807a0ab0c062194b492cf21fe3fb9f699c4cb98fdb2693ab648a\n      0x2f\n      swap2\n      codecopy\n      0x40\n      add\n      swap2\n      pop\n      pop\n      mload(0x40)\n      dup1\n      swap2\n      sub\n      swap1\n      revert\n    tag_108:\n        /* \"Distributor/StakingDistributor.sol\":6600:6649  Adjust({add: _add, rate: _rate, target: _target}) */\n      0x40\n      dup1\n      mload\n      0x60\n      dup2\n      add\n      dup3\n      mstore\n      swap4\n      iszero\n      iszero\n      dup5\n      mstore\n      0x20\n      dup1\n      dup6\n      add\n      swap4\n      dup5\n      mstore\n      dup5\n      dup3\n      add\n      swap3\n      dup4\n      mstore\n      0x00\n        /* \"Distributor/StakingDistributor.sol\":6578:6597  adjustments[_index] */\n      swap6\n      dup7\n      mstore\n        /* \"Distributor/StakingDistributor.sol\":6578:6589  adjustments */\n      0x02\n        /* \"Distributor/StakingDistributor.sol\":6578:6597  adjustments[_index] */\n      swap1\n      dup2\n      swap1\n      mstore\n      swap5\n      keccak256\n        /* \"Distributor/StakingDistributor.sol\":6578:6649  adjustments[_index] = Adjust({add: _add, rate: _rate, target: _target}) */\n      swap3\n      mload\n      dup4\n      sload\n      not(0xff)\n      and\n      swap1\n      iszero\n      iszero\n      or\n      dup4\n      sstore\n      swap1\n      mload\n      0x01\n      dup4\n      add\n      sstore\n      mload\n      swap2\n      add\n      sstore\n        /* \"Distributor/StakingDistributor.sol\":5888:6656  function setAdjustment(... */\n      jump\t// out\n        /* \"Distributor/OlympusAccessControlled.sol\":1108:1272  function setAuthority(IExodusAuthority _newAuthority) external onlyGovernor {... */\n    tag_33:\n        /* \"Distributor/OlympusAccessControlled.sol\":672:681  authority */\n      0x01\n      0x00\n      swap1\n      sload\n      swap1\n      0x0100\n      exp\n      swap1\n      div\n      sub(shl(0xa0, 0x01), 0x01)\n      and\n      sub(shl(0xa0, 0x01), 0x01)\n        /* \"Distributor/OlympusAccessControlled.sol\":672:690  authority.governor */\n      and\n      0x0c340a24\n        /* \"Distributor/OlympusAccessControlled.sol\":672:692  authority.governor() */\n      mload(0x40)\n      dup2\n      0xffffffff\n      and\n      0xe0\n      shl\n      dup2\n      mstore\n      0x04\n      add\n      0x20\n      mload(0x40)\n      dup1\n      dup4\n      sub\n      dup2\n      dup7\n      dup1\n      extcodesize\n      iszero\n      dup1\n      iszero\n      tag_110\n      jumpi\n      0x00\n      dup1\n      revert\n    tag_110:\n      pop\n      gas\n      staticcall\n      iszero\n      dup1\n      iszero\n      tag_112\n      jumpi\n      returndatasize\n      0x00\n      dup1\n      returndatacopy\n      revert(0x00, returndatasize)\n    tag_112:\n      pop\n      pop\n      pop\n      pop\n      mload(0x40)\n      returndatasize\n      0x20\n      dup2\n      lt\n      iszero\n      tag_113\n      jumpi\n      0x00\n      dup1\n      revert\n    tag_113:\n      pop\n      mload\n        /* \"Distributor/OlympusAccessControlled.sol\":694:706  UNAUTHORIZED */\n      0x00\n      swap1\n      sub(shl(0xa0, 0x01), 0x01)\n        /* \"Distributor/OlympusAccessControlled.sol\":658:692  msg.sender == authority.governor() */\n      and\n        /* \"Distributor/OlympusAccessControlled.sol\":658:668  msg.sender */\n      caller\n        /* \"Distributor/OlympusAccessControlled.sol\":658:692  msg.sender == authority.governor() */\n      eq\n        /* \"Distributor/OlympusAccessControlled.sol\":650:707  require(msg.sender == authority.governor(), UNAUTHORIZED) */\n      tag_114\n      jumpi\n      mload(0x40)\n      shl(0xe5, 0x461bcd)\n      dup2\n      mstore\n      0x20\n      0x04\n      dup3\n      add\n      swap1\n      dup2\n      mstore\n      dup3\n      sload\n      0x02\n      not(0x00)\n      0x0100\n      0x01\n      dup5\n      and\n      iszero\n      mul\n      add\n      swap1\n      swap2\n      and\n      div\n      0x24\n      dup4\n      add\n      dup2\n      swap1\n      mstore\n      swap1\n      swap2\n      dup3\n      swap2\n      0x44\n      swap1\n      swap2\n      add\n      swap1\n      dup5\n      swap1\n      dup1\n      iszero\n      tag_74\n      jumpi\n      dup1\n      0x1f\n      lt\n      tag_75\n      jumpi\n      0x0100\n      dup1\n      dup4\n      sload\n      div\n      mul\n      dup4\n      mstore\n      swap2\n      0x20\n      add\n      swap2\n      jump(tag_74)\n    tag_114:\n      pop\n        /* \"Distributor/OlympusAccessControlled.sol\":1194:1203  authority */\n      0x01\n        /* \"Distributor/OlympusAccessControlled.sol\":1194:1219  authority = _newAuthority */\n      dup1\n      sload\n      not(0xffffffffffffffffffffffffffffffffffffffff)\n      and\n      sub(shl(0xa0, 0x01), 0x01)\n      dup4\n      and\n      swap1\n      dup2\n      or\n      swap1\n      swap2\n      sstore\n        /* \"Distributor/OlympusAccessControlled.sol\":1234:1265  AuthorityUpdated(_newAuthority) */\n      mload(0x40)\n      0x2f658b440c35314f52658ea8a740e05b284cdc84dc9ae01e891f21b8933e7cad\n      swap1\n      0x00\n      swap1\n      log2\n        /* \"Distributor/OlympusAccessControlled.sol\":1108:1272  function setAuthority(IExodusAuthority _newAuthority) external onlyGovernor {... */\n      pop\n      jump\t// out\n        /* \"Distributor/StakingDistributor.sol\":5306:5694  function removeRecipient(uint256 _index) external override {... */\n    tag_36:\n        /* \"Distributor/StakingDistributor.sol\":5410:5419  authority */\n      0x01\n      0x00\n      swap1\n      sload\n      swap1\n      0x0100\n      exp\n      swap1\n      div\n      sub(shl(0xa0, 0x01), 0x01)\n      and\n      sub(shl(0xa0, 0x01), 0x01)\n        /* \"Distributor/StakingDistributor.sol\":5410:5428  authority.governor */\n      and\n      0x0c340a24\n        /* \"Distributor/StakingDistributor.sol\":5410:5430  authority.governor() */\n      mload(0x40)\n      dup2\n      0xffffffff\n      and\n      0xe0\n      shl\n      dup2\n      mstore\n      0x04\n      add\n      0x20\n      mload(0x40)\n      dup1\n      dup4\n      sub\n      dup2\n      dup7\n      dup1\n      extcodesize\n      iszero\n      dup1\n      iszero\n      tag_120\n      jumpi\n      0x00\n      dup1\n      revert\n    tag_120:\n      pop\n      gas\n      staticcall\n      iszero\n      dup1\n      iszero\n      tag_122\n      jumpi\n      returndatasize\n      0x00\n      dup1\n      returndatacopy\n      revert(0x00, returndatasize)\n    tag_122:\n      pop\n      pop\n      pop\n      pop\n      mload(0x40)\n      returndatasize\n      0x20\n      dup2\n      lt\n      iszero\n      tag_123\n      jumpi\n      0x00\n      dup1\n      revert\n    tag_123:\n      pop\n      mload\n      sub(shl(0xa0, 0x01), 0x01)\n        /* \"Distributor/StakingDistributor.sol\":5396:5430  msg.sender == authority.governor() */\n      and\n        /* \"Distributor/StakingDistributor.sol\":5396:5406  msg.sender */\n      caller\n        /* \"Distributor/StakingDistributor.sol\":5396:5430  msg.sender == authority.governor() */\n      eq\n      dup1\n        /* \"Distributor/StakingDistributor.sol\":5396:5468  msg.sender == authority.governor() || msg.sender == authority.guardian() */\n      tag_124\n      jumpi\n      pop\n        /* \"Distributor/StakingDistributor.sol\":5448:5457  authority */\n      0x01\n      0x00\n      swap1\n      sload\n      swap1\n      0x0100\n      exp\n      swap1\n      div\n      sub(shl(0xa0, 0x01), 0x01)\n      and\n      sub(shl(0xa0, 0x01), 0x01)\n        /* \"Distributor/StakingDistributor.sol\":5448:5466  authority.guardian */\n      and\n      0x452a9320\n        /* \"Distributor/StakingDistributor.sol\":5448:5468  authority.guardian() */\n      mload(0x40)\n      dup2\n      0xffffffff\n      and\n      0xe0\n      shl\n      dup2\n      mstore\n      0x04\n      add\n      0x20\n      mload(0x40)\n      dup1\n      dup4\n      sub\n      dup2\n      dup7\n      dup1\n      extcodesize\n      iszero\n      dup1\n      iszero\n      tag_125\n      jumpi\n      0x00\n      dup1\n      revert\n    tag_125:\n      pop\n      gas\n      staticcall\n      iszero\n      dup1\n      iszero\n      tag_127\n      jumpi\n      returndatasize\n      0x00\n      dup1\n      returndatacopy\n      revert(0x00, returndatasize)\n    tag_127:\n      pop\n      pop\n      pop\n      pop\n      mload(0x40)\n      returndatasize\n      0x20\n      dup2\n      lt\n      iszero\n      tag_128\n      jumpi\n      0x00\n      dup1\n      revert\n    tag_128:\n      pop\n      mload\n      sub(shl(0xa0, 0x01), 0x01)\n        /* \"Distributor/StakingDistributor.sol\":5434:5468  msg.sender == authority.guardian() */\n      and\n        /* \"Distributor/StakingDistributor.sol\":5434:5444  msg.sender */\n      caller\n        /* \"Distributor/StakingDistributor.sol\":5434:5468  msg.sender == authority.guardian() */\n      eq\n        /* \"Distributor/StakingDistributor.sol\":5396:5468  msg.sender == authority.governor() || msg.sender == authority.guardian() */\n    tag_124:\n        /* \"Distributor/StakingDistributor.sol\":5375:5528  require(... */\n      tag_129\n      jumpi\n      mload(0x40)\n      shl(0xe5, 0x461bcd)\n      dup2\n      mstore\n      0x04\n      add\n      dup1\n      dup1\n      0x20\n      add\n      dup3\n      dup2\n      sub\n      dup3\n      mstore\n      0x22\n      dup2\n      mstore\n      0x20\n      add\n      dup1\n      data_69f7f70959a4e39a44e5c1e9758516dc060c05af9d2514644d1e8fb784f16900\n      0x22\n      swap2\n      codecopy\n      0x40\n      add\n      swap2\n      pop\n      pop\n      mload(0x40)\n      dup1\n      swap2\n      sub\n      swap1\n      revert\n    tag_129:\n        /* \"Distributor/StakingDistributor.sol\":5580:5581  0 */\n      0x00\n      sub(shl(0xa0, 0x01), 0x01)\n        /* \"Distributor/StakingDistributor.sol\":5546:5582  info[_index].recipient != address(0) */\n      and\n        /* \"Distributor/StakingDistributor.sol\":5546:5550  info */\n      0x04\n        /* \"Distributor/StakingDistributor.sol\":5551:5557  _index */\n      dup3\n        /* \"Distributor/StakingDistributor.sol\":5546:5558  info[_index] */\n      dup2\n      sload\n      dup2\n      lt\n      tag_130\n      jumpi\n      invalid\n    tag_130:\n      0x00\n      swap2\n      dup3\n      mstore\n      0x20\n      swap1\n      swap2\n      keccak256\n        /* \"Distributor/StakingDistributor.sol\":5546:5568  info[_index].recipient */\n      0x01\n        /* \"Distributor/StakingDistributor.sol\":5546:5558  info[_index] */\n      0x02\n      swap1\n      swap3\n      mul\n      add\n        /* \"Distributor/StakingDistributor.sol\":5546:5568  info[_index].recipient */\n      add\n      sload\n      sub(shl(0xa0, 0x01), 0x01)\n      and\n        /* \"Distributor/StakingDistributor.sol\":5546:5582  info[_index].recipient != address(0) */\n      eq\n      iszero\n        /* \"Distributor/StakingDistributor.sol\":5538:5611  require(info[_index].recipient != address(0), \"Recipient does not exist\") */\n      tag_132\n      jumpi\n      0x40\n      dup1\n      mload\n      shl(0xe5, 0x461bcd)\n      dup2\n      mstore\n      0x20\n      0x04\n      dup3\n      add\n      mstore\n      0x18\n      0x24\n      dup3\n      add\n      mstore\n      0x526563697069656e7420646f6573206e6f742065786973740000000000000000\n      0x44\n      dup3\n      add\n      mstore\n      swap1\n      mload\n      swap1\n      dup2\n      swap1\n      sub\n      0x64\n      add\n      swap1\n      revert\n    tag_132:\n        /* \"Distributor/StakingDistributor.sol\":5654:5655  0 */\n      0x00\n        /* \"Distributor/StakingDistributor.sol\":5621:5625  info */\n      0x04\n        /* \"Distributor/StakingDistributor.sol\":5626:5632  _index */\n      dup3\n        /* \"Distributor/StakingDistributor.sol\":5621:5633  info[_index] */\n      dup2\n      sload\n      dup2\n      lt\n      tag_133\n      jumpi\n      invalid\n    tag_133:\n      swap1\n      0x00\n      mstore\n      keccak256(0x00, 0x20)\n      swap1\n      0x02\n      mul\n      add\n        /* \"Distributor/StakingDistributor.sol\":5621:5643  info[_index].recipient */\n      0x01\n      add\n      0x00\n        /* \"Distributor/StakingDistributor.sol\":5621:5656  info[_index].recipient = address(0) */\n      0x0100\n      exp\n      dup2\n      sload\n      dup2\n      sub(shl(0xa0, 0x01), 0x01)\n      mul\n      not\n      and\n      swap1\n      dup4\n      sub(shl(0xa0, 0x01), 0x01)\n      and\n      mul\n      or\n      swap1\n      sstore\n      pop\n        /* \"Distributor/StakingDistributor.sol\":5686:5687  0 */\n      0x00\n        /* \"Distributor/StakingDistributor.sol\":5666:5670  info */\n      0x04\n        /* \"Distributor/StakingDistributor.sol\":5671:5677  _index */\n      dup3\n        /* \"Distributor/StakingDistributor.sol\":5666:5678  info[_index] */\n      dup2\n      sload\n      dup2\n      lt\n      tag_135\n      jumpi\n      invalid\n    tag_135:\n      0x00\n      swap2\n      dup3\n      mstore\n      0x20\n      swap1\n      swap2\n      keccak256\n      0x02\n      swap1\n      swap2\n      mul\n      add\n        /* \"Distributor/StakingDistributor.sol\":5666:5687  info[_index].rate = 0 */\n      sstore\n      pop\n        /* \"Distributor/StakingDistributor.sol\":5306:5694  function removeRecipient(uint256 _index) external override {... */\n      jump\t// out\n        /* \"Distributor/StakingDistributor.sol\":614:644  uint256 public override bounty */\n    tag_38:\n      sload(0x03)\n      dup2\n      jump\t// out\n        /* \"Distributor/StakingDistributor.sol\":563:608  mapping(uint256 => Adjust) public adjustments */\n    tag_41:\n      0x02\n      0x20\n      dup2\n      swap1\n      mstore\n      0x00\n      swap2\n      dup3\n      mstore\n      0x40\n      swap1\n      swap2\n      keccak256\n      dup1\n      sload\n      0x01\n      dup3\n      add\n      sload\n      swap2\n      swap1\n      swap3\n      add\n      sload\n      0xff\n      swap1\n      swap3\n      and\n      swap2\n      dup4\n      jump\t// out\n        /* \"Distributor/OlympusAccessControlled.sol\":359:392  IExodusAuthority public authority */\n    tag_43:\n      and(sub(shl(0xa0, 0x01), 0x01), sload(0x01))\n      dup2\n      jump\t// out\n        /* \"Distributor/StakingDistributor.sol\":3835:3984  function nextRewardAt(uint256 _rate) public view override returns (uint256) {... */\n    tag_46:\n        /* \"Distributor/StakingDistributor.sol\":3902:3909  uint256 */\n      0x00\n        /* \"Distributor/StakingDistributor.sol\":3928:3977  exo.totalSupply().mul(_rate).div(rateDenominator) */\n      tag_138\n        /* \"Distributor/StakingDistributor.sol\":3961:3976  rateDenominator */\n      immutable(\"0x2d16435b3faa4516e45c961fcfb8946768323ac70484540b7ee099d570719013\")\n        /* \"Distributor/StakingDistributor.sol\":3928:3956  exo.totalSupply().mul(_rate) */\n      tag_99\n        /* \"Distributor/StakingDistributor.sol\":3950:3955  _rate */\n      dup5\n        /* \"Distributor/StakingDistributor.sol\":3928:3931  exo */\n      immutable(\"0x97798a7ce1eedb778fe135ba4f72c5cd61b1904f61f817965236ff22acf6c32a\")\n      sub(shl(0xa0, 0x01), 0x01)\n        /* \"Distributor/StakingDistributor.sol\":3928:3943  exo.totalSupply */\n      and\n      0x18160ddd\n        /* \"Distributor/StakingDistributor.sol\":3928:3945  exo.totalSupply() */\n      mload(0x40)\n      dup2\n      0xffffffff\n      and\n      0xe0\n      shl\n      dup2\n      mstore\n      0x04\n      add\n      0x20\n      mload(0x40)\n      dup1\n      dup4\n      sub\n      dup2\n      dup7\n      dup1\n      extcodesize\n      iszero\n      dup1\n      iszero\n      tag_140\n      jumpi\n      0x00\n      dup1\n      revert\n    tag_140:\n      pop\n      gas\n      staticcall\n      iszero\n      dup1\n      iszero\n      tag_142\n      jumpi\n      returndatasize\n      0x00\n      dup1\n      returndatacopy\n      revert(0x00, returndatasize)\n    tag_142:\n      pop\n      pop\n      pop\n      pop\n      mload(0x40)\n      returndatasize\n      0x20\n      dup2\n      lt\n      iszero\n      tag_143\n      jumpi\n      0x00\n      dup1\n      revert\n    tag_143:\n      pop\n      mload\n      swap1\n        /* \"Distributor/StakingDistributor.sol\":3928:3949  exo.totalSupply().mul */\n      tag_102\n        /* \"Distributor/StakingDistributor.sol\":3928:3956  exo.totalSupply().mul(_rate) */\n      jump\t// in\n        /* \"Distributor/StakingDistributor.sol\":3928:3977  exo.totalSupply().mul(_rate).div(rateDenominator) */\n    tag_138:\n        /* \"Distributor/StakingDistributor.sol\":3921:3977  return exo.totalSupply().mul(_rate).div(rateDenominator) */\n      swap3\n        /* \"Distributor/StakingDistributor.sol\":3835:3984  function nextRewardAt(uint256 _rate) public view override returns (uint256) {... */\n      swap2\n      pop\n      pop\n      jump\t// out\n        /* \"Distributor/StakingDistributor.sol\":1596:2012  function distribute() external override {... */\n    tag_48:\n        /* \"Distributor/StakingDistributor.sol\":1654:1664  msg.sender */\n      caller\n      sub(shl(0xa0, 0x01), 0x01)\n        /* \"Distributor/StakingDistributor.sol\":1668:1675  staking */\n      immutable(\"0xe216240695da412145d9df04d3b0c5fca4d43b99b7d0d5386b61bbf0097f7efd\")\n        /* \"Distributor/StakingDistributor.sol\":1654:1675  msg.sender == staking */\n      and\n      eq\n        /* \"Distributor/StakingDistributor.sol\":1646:1692  require(msg.sender == staking, \"Only staking\") */\n      tag_145\n      jumpi\n      0x40\n      dup1\n      mload\n      shl(0xe5, 0x461bcd)\n      dup2\n      mstore\n      0x20\n      0x04\n      dup3\n      add\n      mstore\n      0x0c\n      0x24\n      dup3\n      add\n      mstore\n      shl(0xa0, 0x4f6e6c79207374616b696e67)\n      0x44\n      dup3\n      add\n      mstore\n      swap1\n      mload\n      swap1\n      dup2\n      swap1\n      sub\n      0x64\n      add\n      swap1\n      revert\n    tag_145:\n        /* \"Distributor/StakingDistributor.sol\":1755:1764  uint256 i */\n      0x00\n        /* \"Distributor/StakingDistributor.sol\":1750:2006  for (uint256 i = 0; i < info.length; i++) {... */\n    tag_146:\n        /* \"Distributor/StakingDistributor.sol\":1774:1778  info */\n      0x04\n        /* \"Distributor/StakingDistributor.sol\":1774:1785  info.length */\n      sload\n        /* \"Distributor/StakingDistributor.sol\":1770:1785  i < info.length */\n      dup2\n      lt\n        /* \"Distributor/StakingDistributor.sol\":1750:2006  for (uint256 i = 0; i < info.length; i++) {... */\n      iszero\n      tag_147\n      jumpi\n        /* \"Distributor/StakingDistributor.sol\":1825:1826  0 */\n      0x00\n        /* \"Distributor/StakingDistributor.sol\":1810:1814  info */\n      0x04\n        /* \"Distributor/StakingDistributor.sol\":1815:1816  i */\n      dup3\n        /* \"Distributor/StakingDistributor.sol\":1810:1817  info[i] */\n      dup2\n      sload\n      dup2\n      lt\n      tag_149\n      jumpi\n      invalid\n    tag_149:\n      swap1\n      0x00\n      mstore\n      keccak256(0x00, 0x20)\n      swap1\n      0x02\n      mul\n      add\n        /* \"Distributor/StakingDistributor.sol\":1810:1822  info[i].rate */\n      0x00\n      add\n      sload\n        /* \"Distributor/StakingDistributor.sol\":1810:1826  info[i].rate > 0 */\n      gt\n        /* \"Distributor/StakingDistributor.sol\":1806:1996  if (info[i].rate > 0) {... */\n      iszero\n      tag_160\n      jumpi\n        /* \"Distributor/StakingDistributor.sol\":1846:1854  treasury */\n      immutable(\"0x588e5ad3f145f9d841773d4229bac23d743ef980914ad5d2b613712259f67f55\")\n      sub(shl(0xa0, 0x01), 0x01)\n        /* \"Distributor/StakingDistributor.sol\":1846:1859  treasury.mint */\n      and\n      0x40c10f19\n        /* \"Distributor/StakingDistributor.sol\":1860:1864  info */\n      0x04\n        /* \"Distributor/StakingDistributor.sol\":1865:1866  i */\n      dup4\n        /* \"Distributor/StakingDistributor.sol\":1860:1867  info[i] */\n      dup2\n      sload\n      dup2\n      lt\n      tag_152\n      jumpi\n      invalid\n    tag_152:\n      swap1\n      0x00\n      mstore\n      keccak256(0x00, 0x20)\n      swap1\n      0x02\n      mul\n      add\n        /* \"Distributor/StakingDistributor.sol\":1860:1877  info[i].recipient */\n      0x01\n      add\n      0x00\n      swap1\n      sload\n      swap1\n      0x0100\n      exp\n      swap1\n      div\n      sub(shl(0xa0, 0x01), 0x01)\n      and\n        /* \"Distributor/StakingDistributor.sol\":1879:1905  nextRewardAt(info[i].rate) */\n      tag_154\n        /* \"Distributor/StakingDistributor.sol\":1892:1896  info */\n      0x04\n        /* \"Distributor/StakingDistributor.sol\":1897:1898  i */\n      dup6\n        /* \"Distributor/StakingDistributor.sol\":1892:1899  info[i] */\n      dup2\n      sload\n      dup2\n      lt\n      tag_65\n      jumpi\n      invalid\n        /* \"Distributor/StakingDistributor.sol\":1879:1905  nextRewardAt(info[i].rate) */\n    tag_154:\n        /* \"Distributor/StakingDistributor.sol\":1846:1906  treasury.mint(info[i].recipient, nextRewardAt(info[i].rate)) */\n      mload(0x40)\n      dup4\n      0xffffffff\n      and\n      0xe0\n      shl\n      dup2\n      mstore\n      0x04\n      add\n      dup1\n      dup4\n      sub(shl(0xa0, 0x01), 0x01)\n      and\n      dup2\n      mstore\n      0x20\n      add\n      dup3\n      dup2\n      mstore\n      0x20\n      add\n      swap3\n      pop\n      pop\n      pop\n      0x00\n      mload(0x40)\n      dup1\n      dup4\n      sub\n      dup2\n      0x00\n      dup8\n      dup1\n      extcodesize\n      iszero\n      dup1\n      iszero\n      tag_157\n      jumpi\n      0x00\n      dup1\n      revert\n    tag_157:\n      pop\n      gas\n      call\n      iszero\n      dup1\n      iszero\n      tag_159\n      jumpi\n      returndatasize\n      0x00\n      dup1\n      returndatacopy\n      revert(0x00, returndatasize)\n    tag_159:\n      pop\n      pop\n      pop\n      pop\n        /* \"Distributor/StakingDistributor.sol\":1948:1957  adjust(i) */\n      tag_160\n        /* \"Distributor/StakingDistributor.sol\":1955:1956  i */\n      dup2\n        /* \"Distributor/StakingDistributor.sol\":1948:1954  adjust */\n      tag_161\n        /* \"Distributor/StakingDistributor.sol\":1948:1957  adjust(i) */\n      jump\t// in\n    tag_160:\n        /* \"Distributor/StakingDistributor.sol\":1787:1790  i++ */\n      0x01\n      add\n        /* \"Distributor/StakingDistributor.sol\":1750:2006  for (uint256 i = 0; i < info.length; i++) {... */\n      jump(tag_146)\n    tag_147:\n      pop\n        /* \"Distributor/StakingDistributor.sol\":1596:2012  function distribute() external override {... */\n      jump\t// out\n        /* \"Distributor/StakingDistributor.sol\":2018:2335  function retrieveBounty() external override returns (uint256) {... */\n    tag_50:\n        /* \"Distributor/StakingDistributor.sol\":2071:2078  uint256 */\n      0x00\n        /* \"Distributor/StakingDistributor.sol\":2098:2108  msg.sender */\n      caller\n      sub(shl(0xa0, 0x01), 0x01)\n        /* \"Distributor/StakingDistributor.sol\":2112:2119  staking */\n      immutable(\"0xe216240695da412145d9df04d3b0c5fca4d43b99b7d0d5386b61bbf0097f7efd\")\n        /* \"Distributor/StakingDistributor.sol\":2098:2119  msg.sender == staking */\n      and\n      eq\n        /* \"Distributor/StakingDistributor.sol\":2090:2136  require(msg.sender == staking, \"Only staking\") */\n      tag_163\n      jumpi\n      0x40\n      dup1\n      mload\n      shl(0xe5, 0x461bcd)\n      dup2\n      mstore\n      0x20\n      0x04\n      dup3\n      add\n      mstore\n      0x0c\n      0x24\n      dup3\n      add\n      mstore\n      shl(0xa0, 0x4f6e6c79207374616b696e67)\n      0x44\n      dup3\n      add\n      mstore\n      swap1\n      mload\n      swap1\n      dup2\n      swap1\n      sub\n      0x64\n      add\n      swap1\n      revert\n    tag_163:\n        /* \"Distributor/StakingDistributor.sol\":2229:2235  bounty */\n      sload(0x03)\n        /* \"Distributor/StakingDistributor.sol\":2229:2239  bounty > 0 */\n      iszero\n        /* \"Distributor/StakingDistributor.sol\":2225:2305  if (bounty > 0) {... */\n      tag_164\n      jumpi\n        /* \"Distributor/StakingDistributor.sol\":2255:2263  treasury */\n      immutable(\"0x588e5ad3f145f9d841773d4229bac23d743ef980914ad5d2b613712259f67f55\")\n      sub(shl(0xa0, 0x01), 0x01)\n        /* \"Distributor/StakingDistributor.sol\":2255:2268  treasury.mint */\n      and\n      0x40c10f19\n        /* \"Distributor/StakingDistributor.sol\":2277:2284  staking */\n      immutable(\"0xe216240695da412145d9df04d3b0c5fca4d43b99b7d0d5386b61bbf0097f7efd\")\n        /* \"Distributor/StakingDistributor.sol\":2287:2293  bounty */\n      sload(0x03)\n        /* \"Distributor/StakingDistributor.sol\":2255:2294  treasury.mint(address(staking), bounty) */\n      mload(0x40)\n      dup4\n      0xffffffff\n      and\n      0xe0\n      shl\n      dup2\n      mstore\n      0x04\n      add\n      dup1\n      dup4\n      sub(shl(0xa0, 0x01), 0x01)\n      and\n      dup2\n      mstore\n      0x20\n      add\n      dup3\n      dup2\n      mstore\n      0x20\n      add\n      swap3\n      pop\n      pop\n      pop\n      0x00\n      mload(0x40)\n      dup1\n      dup4\n      sub\n      dup2\n      0x00\n      dup8\n      dup1\n      extcodesize\n      iszero\n      dup1\n      iszero\n      tag_165\n      jumpi\n      0x00\n      dup1\n      revert\n    tag_165:\n      pop\n      gas\n      call\n      iszero\n      dup1\n      iszero\n      tag_167\n      jumpi\n      returndatasize\n      0x00\n      dup1\n      returndatacopy\n      revert(0x00, returndatasize)\n    tag_167:\n      pop\n      pop\n      pop\n      pop\n        /* \"Distributor/StakingDistributor.sol\":2225:2305  if (bounty > 0) {... */\n    tag_164:\n      pop\n        /* \"Distributor/StakingDistributor.sol\":2322:2328  bounty */\n      sload(0x03)\n        /* \"Distributor/StakingDistributor.sol\":2018:2335  function retrieveBounty() external override returns (uint256) {... */\n      swap1\n      jump\t// out\n        /* \"Distributor/StakingDistributor.sol\":4882:5205  function addRecipient(address _recipient, uint256 _rewardRate) external override onlyGovernor {... */\n    tag_53:\n        /* \"Distributor/OlympusAccessControlled.sol\":672:681  authority */\n      0x01\n      0x00\n      swap1\n      sload\n      swap1\n      0x0100\n      exp\n      swap1\n      div\n      sub(shl(0xa0, 0x01), 0x01)\n      and\n      sub(shl(0xa0, 0x01), 0x01)\n        /* \"Distributor/OlympusAccessControlled.sol\":672:690  authority.governor */\n      and\n      0x0c340a24\n        /* \"Distributor/OlympusAccessControlled.sol\":672:692  authority.governor() */\n      mload(0x40)\n      dup2\n      0xffffffff\n      and\n      0xe0\n      shl\n      dup2\n      mstore\n      0x04\n      add\n      0x20\n      mload(0x40)\n      dup1\n      dup4\n      sub\n      dup2\n      dup7\n      dup1\n      extcodesize\n      iszero\n      dup1\n      iszero\n      tag_169\n      jumpi\n      0x00\n      dup1\n      revert\n    tag_169:\n      pop\n      gas\n      staticcall\n      iszero\n      dup1\n      iszero\n      tag_171\n      jumpi\n      returndatasize\n      0x00\n      dup1\n      returndatacopy\n      revert(0x00, returndatasize)\n    tag_171:\n      pop\n      pop\n      pop\n      pop\n      mload(0x40)\n      returndatasize\n      0x20\n      dup2\n      lt\n      iszero\n      tag_172\n      jumpi\n      0x00\n      dup1\n      revert\n    tag_172:\n      pop\n      mload\n        /* \"Distributor/OlympusAccessControlled.sol\":694:706  UNAUTHORIZED */\n      0x00\n      swap1\n      sub(shl(0xa0, 0x01), 0x01)\n        /* \"Distributor/OlympusAccessControlled.sol\":658:692  msg.sender == authority.governor() */\n      and\n        /* \"Distributor/OlympusAccessControlled.sol\":658:668  msg.sender */\n      caller\n        /* \"Distributor/OlympusAccessControlled.sol\":658:692  msg.sender == authority.governor() */\n      eq\n        /* \"Distributor/OlympusAccessControlled.sol\":650:707  require(msg.sender == authority.governor(), UNAUTHORIZED) */\n      tag_173\n      jumpi\n      mload(0x40)\n      shl(0xe5, 0x461bcd)\n      dup2\n      mstore\n      0x20\n      0x04\n      dup3\n      add\n      swap1\n      dup2\n      mstore\n      dup3\n      sload\n      0x02\n      not(0x00)\n      0x0100\n      0x01\n      dup5\n      and\n      iszero\n      mul\n      add\n      swap1\n      swap2\n      and\n      div\n      0x24\n      dup4\n      add\n      dup2\n      swap1\n      mstore\n      swap1\n      swap2\n      dup3\n      swap2\n      0x44\n      swap1\n      swap2\n      add\n      swap1\n      dup5\n      swap1\n      dup1\n      iszero\n      tag_74\n      jumpi\n      dup1\n      0x1f\n      lt\n      tag_75\n      jumpi\n      0x0100\n      dup1\n      dup4\n      sload\n      div\n      mul\n      dup4\n      mstore\n      swap2\n      0x20\n      add\n      swap2\n      jump(tag_74)\n    tag_173:\n      pop\n      sub(shl(0xa0, 0x01), 0x01)\n        /* \"Distributor/StakingDistributor.sol\":4994:5018  _recipient != address(0) */\n      dup3\n      and\n        /* \"Distributor/StakingDistributor.sol\":4986:5046  require(_recipient != address(0), \"Zero address: Recipient\") */\n      tag_178\n      jumpi\n      0x40\n      dup1\n      mload\n      shl(0xe5, 0x461bcd)\n      dup2\n      mstore\n      0x20\n      0x04\n      dup3\n      add\n      mstore\n      0x17\n      0x24\n      dup3\n      add\n      mstore\n      0x5a65726f20616464726573733a20526563697069656e74000000000000000000\n      0x44\n      dup3\n      add\n      mstore\n      swap1\n      mload\n      swap1\n      dup2\n      swap1\n      sub\n      0x64\n      add\n      swap1\n      revert\n    tag_178:\n        /* \"Distributor/StakingDistributor.sol\":5079:5094  rateDenominator */\n      immutable(\"0x2d16435b3faa4516e45c961fcfb8946768323ac70484540b7ee099d570719013\")\n        /* \"Distributor/StakingDistributor.sol\":5064:5075  _rewardRate */\n      dup2\n        /* \"Distributor/StakingDistributor.sol\":5064:5094  _rewardRate <= rateDenominator */\n      gt\n      iszero\n        /* \"Distributor/StakingDistributor.sol\":5056:5129  require(_rewardRate <= rateDenominator, \"Rate cannot exceed denominator\") */\n      tag_179\n      jumpi\n      0x40\n      dup1\n      mload\n      shl(0xe5, 0x461bcd)\n      dup2\n      mstore\n      0x20\n      0x04\n      dup3\n      add\n      mstore\n      0x1e\n      0x24\n      dup3\n      add\n      mstore\n      0x526174652063616e6e6f74206578636565642064656e6f6d696e61746f720000\n      0x44\n      dup3\n      add\n      mstore\n      swap1\n      mload\n      swap1\n      dup2\n      swap1\n      sub\n      0x64\n      add\n      swap1\n      revert\n    tag_179:\n        /* \"Distributor/StakingDistributor.sol\":5149:5197  Info({recipient: _recipient, rate: _rewardRate}) */\n      0x40\n      dup1\n      mload\n      dup1\n      dup3\n      add\n      swap1\n      swap2\n      mstore\n      swap1\n      dup2\n      mstore\n      sub(shl(0xa0, 0x01), 0x01)\n      swap2\n      dup3\n      and\n      0x20\n      dup3\n      add\n      swap1\n      dup2\n      mstore\n        /* \"Distributor/StakingDistributor.sol\":5139:5143  info */\n      0x04\n        /* \"Distributor/StakingDistributor.sol\":5139:5198  info.push(Info({recipient: _recipient, rate: _rewardRate})) */\n      dup1\n      sload\n      0x01\n      dup2\n      add\n      dup3\n      sstore\n      0x00\n      swap2\n      swap1\n      swap2\n      mstore\n      swap2\n      mload\n      0x8a35acfbc15ff81a39ae7d344fd709f28e8600b4aa8c65c6b64bfe7fe36bd19b\n      0x02\n      swap1\n      swap4\n      mul\n      swap3\n      dup4\n      add\n      sstore\n      mload\n      0x8a35acfbc15ff81a39ae7d344fd709f28e8600b4aa8c65c6b64bfe7fe36bd19c\n      swap1\n      swap2\n      add\n      dup1\n      sload\n      not(0xffffffffffffffffffffffffffffffffffffffff)\n      and\n      swap2\n      swap1\n      swap3\n      and\n      or\n      swap1\n      sstore\n        /* \"Distributor/StakingDistributor.sol\":4882:5205  function addRecipient(address _recipient, uint256 _rewardRate) external override onlyGovernor {... */\n      jump\t// out\n        /* \"Distributor/SafeMath.sol\":155:331  function add(uint256 a, uint256 b) internal pure returns (uint256) {... */\n    tag_67:\n        /* \"Distributor/SafeMath.sol\":213:220  uint256 */\n      0x00\n        /* \"Distributor/SafeMath.sol\":244:249  a + b */\n      dup3\n      dup3\n      add\n        /* \"Distributor/SafeMath.sol\":267:273  c >= a */\n      dup4\n      dup2\n      lt\n      iszero\n        /* \"Distributor/SafeMath.sol\":259:305  require(c >= a, \"SafeMath: addition overflow\") */\n      tag_182\n      jumpi\n      0x40\n      dup1\n      mload\n      shl(0xe5, 0x461bcd)\n      dup2\n      mstore\n      0x20\n      0x04\n      dup3\n      add\n      mstore\n      0x1b\n      0x24\n      dup3\n      add\n      mstore\n      0x536166654d6174683a206164646974696f6e206f766572666c6f770000000000\n      0x44\n      dup3\n      add\n      mstore\n      swap1\n      mload\n      swap1\n      dup2\n      swap1\n      sub\n      0x64\n      add\n      swap1\n      revert\n    tag_182:\n        /* \"Distributor/SafeMath.sol\":323:324  c */\n      swap4\n        /* \"Distributor/SafeMath.sol\":155:331  function add(uint256 a, uint256 b) internal pure returns (uint256) {... */\n      swap3\n      pop\n      pop\n      pop\n      jump\t// out\n        /* \"Distributor/SafeMath.sol\":700:941  function mul(uint256 a, uint256 b) internal pure returns (uint256) {... */\n    tag_102:\n        /* \"Distributor/SafeMath.sol\":758:765  uint256 */\n      0x00\n        /* \"Distributor/SafeMath.sol\":781:787  a == 0 */\n      dup3\n        /* \"Distributor/SafeMath.sol\":777:822  if (a == 0) {... */\n      tag_184\n      jumpi\n      pop\n        /* \"Distributor/SafeMath.sol\":810:811  0 */\n      0x00\n        /* \"Distributor/SafeMath.sol\":803:811  return 0 */\n      jump(tag_138)\n        /* \"Distributor/SafeMath.sol\":777:822  if (a == 0) {... */\n    tag_184:\n        /* \"Distributor/SafeMath.sol\":844:849  a * b */\n      dup3\n      dup3\n      mul\n        /* \"Distributor/SafeMath.sol\":848:849  b */\n      dup3\n        /* \"Distributor/SafeMath.sol\":844:845  a */\n      dup5\n        /* \"Distributor/SafeMath.sol\":844:849  a * b */\n      dup3\n        /* \"Distributor/SafeMath.sol\":844:845  a */\n      dup2\n        /* \"Distributor/SafeMath.sol\":867:872  c / a */\n      tag_185\n      jumpi\n      invalid\n    tag_185:\n      div\n        /* \"Distributor/SafeMath.sol\":867:877  c / a == b */\n      eq\n        /* \"Distributor/SafeMath.sol\":859:915  require(c / a == b, \"SafeMath: multiplication overflow\") */\n      tag_182\n      jumpi\n      mload(0x40)\n      shl(0xe5, 0x461bcd)\n      dup2\n      mstore\n      0x04\n      add\n      dup1\n      dup1\n      0x20\n      add\n      dup3\n      dup2\n      sub\n      dup3\n      mstore\n      0x21\n      dup2\n      mstore\n      0x20\n      add\n      dup1\n      data_9113bb53c2876a3805b2c9242029423fc540a728243ce887ab24c82cf119fba3\n      0x21\n      swap2\n      codecopy\n      0x40\n      add\n      swap2\n      pop\n      pop\n      mload(0x40)\n      dup1\n      swap2\n      sub\n      swap1\n      revert\n        /* \"Distributor/SafeMath.sol\":947:1077  function div(uint256 a, uint256 b) internal pure returns (uint256) {... */\n    tag_103:\n        /* \"Distributor/SafeMath.sol\":1005:1012  uint256 */\n      0x00\n        /* \"Distributor/SafeMath.sol\":1031:1070  div(a, b, \"SafeMath: division by zero\") */\n      tag_182\n        /* \"Distributor/SafeMath.sol\":1035:1036  a */\n      dup4\n        /* \"Distributor/SafeMath.sol\":1038:1039  b */\n      dup4\n        /* \"Distributor/SafeMath.sol\":1031:1070  div(a, b, \"SafeMath: division by zero\") */\n      mload(0x40)\n      dup1\n      0x40\n      add\n      0x40\n      mstore\n      dup1\n      0x1a\n      dup2\n      mstore\n      0x20\n      add\n      0x536166654d6174683a206469766973696f6e206279207a65726f000000000000\n      dup2\n      mstore\n      pop\n        /* \"Distributor/SafeMath.sol\":1031:1034  div */\n      tag_189\n        /* \"Distributor/SafeMath.sol\":1031:1070  div(a, b, \"SafeMath: division by zero\") */\n      jump\t// in\n        /* \"Distributor/StakingDistributor.sol\":2453:3666  function adjust(uint256 _index) internal {... */\n    tag_161:\n        /* \"Distributor/StakingDistributor.sol\":2504:2528  Adjust memory adjustment */\n      tag_191\n      tag_192\n      jump\t// in\n    tag_191:\n      pop\n        /* \"Distributor/StakingDistributor.sol\":2531:2550  adjustments[_index] */\n      0x00\n      dup2\n      dup2\n      mstore\n        /* \"Distributor/StakingDistributor.sol\":2531:2542  adjustments */\n      0x02\n        /* \"Distributor/StakingDistributor.sol\":2531:2550  adjustments[_index] */\n      0x20\n      dup2\n      dup2\n      mstore\n      0x40\n      swap3\n      dup4\n      swap1\n      keccak256\n        /* \"Distributor/StakingDistributor.sol\":2504:2550  Adjust memory adjustment = adjustments[_index] */\n      dup4\n      mload\n      0x60\n      dup2\n      add\n      dup6\n      mstore\n      dup2\n      sload\n      0xff\n      and\n      iszero\n      iszero\n      dup2\n      mstore\n      0x01\n      dup3\n      add\n      sload\n      swap3\n      dup2\n      add\n      dup4\n      swap1\n      mstore\n      swap3\n      add\n      sload\n      swap3\n      dup3\n      add\n      swap3\n      swap1\n      swap3\n      mstore\n      swap1\n        /* \"Distributor/StakingDistributor.sol\":2564:2584  adjustment.rate != 0 */\n      iszero\n        /* \"Distributor/StakingDistributor.sol\":2560:3660  if (adjustment.rate != 0) {... */\n      tag_220\n      jumpi\n        /* \"Distributor/StakingDistributor.sol\":2604:2618  adjustment.add */\n      dup1\n      mload\n        /* \"Distributor/StakingDistributor.sol\":2600:3650  if (adjustment.add) {... */\n      iszero\n      tag_194\n      jumpi\n        /* \"Distributor/StakingDistributor.sol\":2701:2739  info[_index].rate.add(adjustment.rate) */\n      tag_195\n        /* \"Distributor/StakingDistributor.sol\":2723:2733  adjustment */\n      dup2\n        /* \"Distributor/StakingDistributor.sol\":2723:2738  adjustment.rate */\n      0x20\n      add\n      mload\n        /* \"Distributor/StakingDistributor.sol\":2701:2705  info */\n      0x04\n        /* \"Distributor/StakingDistributor.sol\":2706:2712  _index */\n      dup5\n        /* \"Distributor/StakingDistributor.sol\":2701:2713  info[_index] */\n      dup2\n      sload\n      dup2\n      lt\n      tag_196\n      jumpi\n      invalid\n    tag_196:\n      0x00\n      swap2\n      dup3\n      mstore\n      0x20\n      swap1\n      swap2\n      keccak256\n      0x02\n      swap1\n      swap2\n      mul\n      add\n        /* \"Distributor/StakingDistributor.sol\":2701:2718  info[_index].rate */\n      sload\n      swap1\n        /* \"Distributor/StakingDistributor.sol\":2701:2722  info[_index].rate.add */\n      tag_67\n        /* \"Distributor/StakingDistributor.sol\":2701:2739  info[_index].rate.add(adjustment.rate) */\n      jump\t// in\n    tag_195:\n        /* \"Distributor/StakingDistributor.sol\":2681:2685  info */\n      0x04\n        /* \"Distributor/StakingDistributor.sol\":2686:2692  _index */\n      dup4\n        /* \"Distributor/StakingDistributor.sol\":2681:2693  info[_index] */\n      dup2\n      sload\n      dup2\n      lt\n      tag_198\n      jumpi\n      invalid\n    tag_198:\n      0x00\n      swap2\n      dup3\n      mstore\n      0x20\n      swap1\n      swap2\n      keccak256\n      0x02\n      swap1\n      swap2\n      mul\n      add\n        /* \"Distributor/StakingDistributor.sol\":2681:2739  info[_index].rate = info[_index].rate.add(adjustment.rate) */\n      sstore\n        /* \"Distributor/StakingDistributor.sol\":2796:2813  adjustment.target */\n      0x40\n      dup2\n      add\n      mload\n        /* \"Distributor/StakingDistributor.sol\":2775:2779  info */\n      0x04\n        /* \"Distributor/StakingDistributor.sol\":2775:2787  info[_index] */\n      dup1\n      sload\n        /* \"Distributor/StakingDistributor.sol\":2780:2786  _index */\n      dup5\n      swap1\n        /* \"Distributor/StakingDistributor.sol\":2775:2787  info[_index] */\n      dup2\n      lt\n      tag_200\n      jumpi\n      invalid\n    tag_200:\n      swap1\n      0x00\n      mstore\n      keccak256(0x00, 0x20)\n      swap1\n      0x02\n      mul\n      add\n        /* \"Distributor/StakingDistributor.sol\":2775:2792  info[_index].rate */\n      0x00\n      add\n      sload\n        /* \"Distributor/StakingDistributor.sol\":2775:2813  info[_index].rate >= adjustment.target */\n      lt\n        /* \"Distributor/StakingDistributor.sol\":2771:3020  if (info[_index].rate >= adjustment.target) {... */\n      tag_202\n      jumpi\n        /* \"Distributor/StakingDistributor.sol\":2901:2902  0 */\n      0x00\n        /* \"Distributor/StakingDistributor.sol\":2874:2893  adjustments[_index] */\n      dup3\n      dup2\n      mstore\n        /* \"Distributor/StakingDistributor.sol\":2874:2885  adjustments */\n      0x02\n        /* \"Distributor/StakingDistributor.sol\":2874:2893  adjustments[_index] */\n      0x20\n      mstore\n      0x40\n      dup1\n      dup3\n      keccak256\n        /* \"Distributor/StakingDistributor.sol\":2874:2898  adjustments[_index].rate */\n      0x01\n      add\n        /* \"Distributor/StakingDistributor.sol\":2874:2902  adjustments[_index].rate = 0 */\n      swap2\n      swap1\n      swap2\n      sstore\n        /* \"Distributor/StakingDistributor.sol\":2967:2984  adjustment.target */\n      dup2\n      add\n      mload\n        /* \"Distributor/StakingDistributor.sol\":2947:2951  info */\n      0x04\n        /* \"Distributor/StakingDistributor.sol\":2947:2959  info[_index] */\n      dup1\n      sload\n        /* \"Distributor/StakingDistributor.sol\":2886:2892  _index */\n      dup5\n      swap1\n        /* \"Distributor/StakingDistributor.sol\":2947:2959  info[_index] */\n      dup2\n      lt\n      tag_203\n      jumpi\n      invalid\n    tag_203:\n      0x00\n      swap2\n      dup3\n      mstore\n      0x20\n      swap1\n      swap2\n      keccak256\n      0x02\n      swap1\n      swap2\n      mul\n      add\n        /* \"Distributor/StakingDistributor.sol\":2947:2984  info[_index].rate = adjustment.target */\n      sstore\n        /* \"Distributor/StakingDistributor.sol\":2771:3020  if (info[_index].rate >= adjustment.target) {... */\n    tag_202:\n        /* \"Distributor/StakingDistributor.sol\":2600:3650  if (adjustment.add) {... */\n      jump(tag_220)\n    tag_194:\n        /* \"Distributor/StakingDistributor.sol\":3125:3135  adjustment */\n      dup1\n        /* \"Distributor/StakingDistributor.sol\":3125:3140  adjustment.rate */\n      0x20\n      add\n      mload\n        /* \"Distributor/StakingDistributor.sol\":3105:3109  info */\n      0x04\n        /* \"Distributor/StakingDistributor.sol\":3110:3116  _index */\n      dup4\n        /* \"Distributor/StakingDistributor.sol\":3105:3117  info[_index] */\n      dup2\n      sload\n      dup2\n      lt\n      tag_206\n      jumpi\n      invalid\n    tag_206:\n      swap1\n      0x00\n      mstore\n      keccak256(0x00, 0x20)\n      swap1\n      0x02\n      mul\n      add\n        /* \"Distributor/StakingDistributor.sol\":3105:3122  info[_index].rate */\n      0x00\n      add\n      sload\n        /* \"Distributor/StakingDistributor.sol\":3105:3140  info[_index].rate > adjustment.rate */\n      gt\n        /* \"Distributor/StakingDistributor.sol\":3101:3369  if (info[_index].rate > adjustment.rate) {... */\n      iszero\n      tag_208\n      jumpi\n        /* \"Distributor/StakingDistributor.sol\":3230:3268  info[_index].rate.sub(adjustment.rate) */\n      tag_209\n        /* \"Distributor/StakingDistributor.sol\":3252:3262  adjustment */\n      dup2\n        /* \"Distributor/StakingDistributor.sol\":3252:3267  adjustment.rate */\n      0x20\n      add\n      mload\n        /* \"Distributor/StakingDistributor.sol\":3230:3234  info */\n      0x04\n        /* \"Distributor/StakingDistributor.sol\":3235:3241  _index */\n      dup5\n        /* \"Distributor/StakingDistributor.sol\":3230:3242  info[_index] */\n      dup2\n      sload\n      dup2\n      lt\n      tag_210\n      jumpi\n      invalid\n    tag_210:\n      0x00\n      swap2\n      dup3\n      mstore\n      0x20\n      swap1\n      swap2\n      keccak256\n      0x02\n      swap1\n      swap2\n      mul\n      add\n        /* \"Distributor/StakingDistributor.sol\":3230:3247  info[_index].rate */\n      sload\n      swap1\n        /* \"Distributor/StakingDistributor.sol\":3230:3251  info[_index].rate.sub */\n      tag_212\n        /* \"Distributor/StakingDistributor.sol\":3230:3268  info[_index].rate.sub(adjustment.rate) */\n      jump\t// in\n    tag_209:\n        /* \"Distributor/StakingDistributor.sol\":3210:3214  info */\n      0x04\n        /* \"Distributor/StakingDistributor.sol\":3215:3221  _index */\n      dup4\n        /* \"Distributor/StakingDistributor.sol\":3210:3222  info[_index] */\n      dup2\n      sload\n      dup2\n      lt\n      tag_213\n      jumpi\n      invalid\n    tag_213:\n      0x00\n      swap2\n      dup3\n      mstore\n      0x20\n      swap1\n      swap2\n      keccak256\n      0x02\n      swap1\n      swap2\n      mul\n      add\n        /* \"Distributor/StakingDistributor.sol\":3210:3268  info[_index].rate = info[_index].rate.sub(adjustment.rate) */\n      sstore\n        /* \"Distributor/StakingDistributor.sol\":3101:3369  if (info[_index].rate > adjustment.rate) {... */\n      jump(tag_215)\n    tag_208:\n        /* \"Distributor/StakingDistributor.sol\":3349:3350  0 */\n      0x00\n        /* \"Distributor/StakingDistributor.sol\":3329:3333  info */\n      0x04\n        /* \"Distributor/StakingDistributor.sol\":3334:3340  _index */\n      dup4\n        /* \"Distributor/StakingDistributor.sol\":3329:3341  info[_index] */\n      dup2\n      sload\n      dup2\n      lt\n      tag_216\n      jumpi\n      invalid\n    tag_216:\n      0x00\n      swap2\n      dup3\n      mstore\n      0x20\n      swap1\n      swap2\n      keccak256\n      0x02\n      swap1\n      swap2\n      mul\n      add\n        /* \"Distributor/StakingDistributor.sol\":3329:3350  info[_index].rate = 0 */\n      sstore\n        /* \"Distributor/StakingDistributor.sol\":3101:3369  if (info[_index].rate > adjustment.rate) {... */\n    tag_215:\n        /* \"Distributor/StakingDistributor.sol\":3412:3422  adjustment */\n      dup1\n        /* \"Distributor/StakingDistributor.sol\":3412:3429  adjustment.target */\n      0x40\n      add\n      mload\n        /* \"Distributor/StakingDistributor.sol\":3391:3395  info */\n      0x04\n        /* \"Distributor/StakingDistributor.sol\":3396:3402  _index */\n      dup4\n        /* \"Distributor/StakingDistributor.sol\":3391:3403  info[_index] */\n      dup2\n      sload\n      dup2\n      lt\n      tag_218\n      jumpi\n      invalid\n    tag_218:\n      swap1\n      0x00\n      mstore\n      keccak256(0x00, 0x20)\n      swap1\n      0x02\n      mul\n      add\n        /* \"Distributor/StakingDistributor.sol\":3391:3408  info[_index].rate */\n      0x00\n      add\n      sload\n        /* \"Distributor/StakingDistributor.sol\":3391:3429  info[_index].rate <= adjustment.target */\n      gt\n        /* \"Distributor/StakingDistributor.sol\":3387:3636  if (info[_index].rate <= adjustment.target) {... */\n      tag_220\n      jumpi\n        /* \"Distributor/StakingDistributor.sol\":3517:3518  0 */\n      0x00\n        /* \"Distributor/StakingDistributor.sol\":3490:3509  adjustments[_index] */\n      dup3\n      dup2\n      mstore\n        /* \"Distributor/StakingDistributor.sol\":3490:3501  adjustments */\n      0x02\n        /* \"Distributor/StakingDistributor.sol\":3490:3509  adjustments[_index] */\n      0x20\n      mstore\n      0x40\n      dup1\n      dup3\n      keccak256\n        /* \"Distributor/StakingDistributor.sol\":3490:3514  adjustments[_index].rate */\n      0x01\n      add\n        /* \"Distributor/StakingDistributor.sol\":3490:3518  adjustments[_index].rate = 0 */\n      swap2\n      swap1\n      swap2\n      sstore\n        /* \"Distributor/StakingDistributor.sol\":3583:3600  adjustment.target */\n      dup2\n      add\n      mload\n        /* \"Distributor/StakingDistributor.sol\":3563:3567  info */\n      0x04\n        /* \"Distributor/StakingDistributor.sol\":3563:3575  info[_index] */\n      dup1\n      sload\n        /* \"Distributor/StakingDistributor.sol\":3502:3508  _index */\n      dup5\n      swap1\n        /* \"Distributor/StakingDistributor.sol\":3563:3575  info[_index] */\n      dup2\n      lt\n      tag_221\n      jumpi\n      invalid\n    tag_221:\n      0x00\n      swap2\n      dup3\n      mstore\n      0x20\n      swap1\n      swap2\n      keccak256\n      0x02\n      swap1\n      swap2\n      mul\n      add\n        /* \"Distributor/StakingDistributor.sol\":3563:3600  info[_index].rate = adjustment.target */\n      sstore\n        /* \"Distributor/StakingDistributor.sol\":3387:3636  if (info[_index].rate <= adjustment.target) {... */\n    tag_220:\n        /* \"Distributor/StakingDistributor.sol\":2453:3666  function adjust(uint256 _index) internal {... */\n      pop\n      pop\n      jump\t// out\n        /* \"Distributor/SafeMath.sol\":1083:1384  function div(... */\n    tag_189:\n        /* \"Distributor/SafeMath.sol\":1199:1206  uint256 */\n      0x00\n        /* \"Distributor/SafeMath.sol\":1233:1245  errorMessage */\n      dup2\n        /* \"Distributor/SafeMath.sol\":1226:1231  b > 0 */\n      dup4\n        /* \"Distributor/SafeMath.sol\":1218:1246  require(b > 0, errorMessage) */\n      tag_224\n      jumpi\n      mload(0x40)\n      shl(0xe5, 0x461bcd)\n      dup2\n      mstore\n      0x04\n      add\n      dup1\n      dup1\n      0x20\n      add\n      dup3\n      dup2\n      sub\n      dup3\n      mstore\n      dup4\n      dup2\n      dup2\n      mload\n      dup2\n      mstore\n      0x20\n      add\n      swap2\n      pop\n      dup1\n      mload\n      swap1\n      0x20\n      add\n      swap1\n      dup1\n      dup4\n      dup4\n      0x00\n    tag_225:\n      dup4\n      dup2\n      lt\n      iszero\n      tag_227\n      jumpi\n      dup2\n      dup2\n      add\n      mload\n      dup4\n      dup3\n      add\n      mstore\n      0x20\n      add\n      jump(tag_225)\n    tag_227:\n      pop\n      pop\n      pop\n      pop\n      swap1\n      pop\n      swap1\n      dup2\n      add\n      swap1\n      0x1f\n      and\n      dup1\n      iszero\n      tag_228\n      jumpi\n      dup1\n      dup3\n      sub\n      dup1\n      mload\n      0x01\n      dup4\n      0x20\n      sub\n      0x0100\n      exp\n      sub\n      not\n      and\n      dup2\n      mstore\n      0x20\n      add\n      swap2\n      pop\n    tag_228:\n      pop\n      swap3\n      pop\n      pop\n      pop\n      mload(0x40)\n      dup1\n      swap2\n      sub\n      swap1\n      revert\n    tag_224:\n      pop\n        /* \"Distributor/SafeMath.sol\":1256:1265  uint256 c */\n      0x00\n        /* \"Distributor/SafeMath.sol\":1272:1273  b */\n      dup4\n        /* \"Distributor/SafeMath.sol\":1268:1269  a */\n      dup6\n        /* \"Distributor/SafeMath.sol\":1268:1273  a / b */\n      dup2\n      tag_229\n      jumpi\n      invalid\n    tag_229:\n      div\n        /* \"Distributor/SafeMath.sol\":1256:1273  uint256 c = a / b */\n      swap1\n      pop\n        /* \"Distributor/SafeMath.sol\":1308:1309  b */\n      dup4\n        /* \"Distributor/SafeMath.sol\":1304:1305  a */\n      dup6\n        /* \"Distributor/SafeMath.sol\":1304:1309  a % b */\n      dup2\n      tag_230\n      jumpi\n      invalid\n    tag_230:\n      mod\n        /* \"Distributor/SafeMath.sol\":1299:1300  c */\n      dup2\n        /* \"Distributor/SafeMath.sol\":1295:1296  b */\n      dup6\n        /* \"Distributor/SafeMath.sol\":1295:1300  b * c */\n      mul\n        /* \"Distributor/SafeMath.sol\":1295:1310  b * c + (a % b) */\n      add\n        /* \"Distributor/SafeMath.sol\":1290:1291  a */\n      dup6\n        /* \"Distributor/SafeMath.sol\":1290:1310  a == b * c + (a % b) */\n      eq\n        /* \"Distributor/SafeMath.sol\":1283:1311  assert(a == b * c + (a % b)) */\n      tag_231\n      jumpi\n      invalid\n    tag_231:\n        /* \"Distributor/SafeMath.sol\":1376:1377  c */\n      swap5\n        /* \"Distributor/SafeMath.sol\":1083:1384  function div(... */\n      swap4\n      pop\n      pop\n      pop\n      pop\n      jump\t// out\n        /* \"Distributor/SafeMath.sol\":337:471  function sub(uint256 a, uint256 b) internal pure returns (uint256) {... */\n    tag_212:\n        /* \"Distributor/SafeMath.sol\":395:402  uint256 */\n      0x00\n        /* \"Distributor/SafeMath.sol\":421:464  sub(a, b, \"SafeMath: subtraction overflow\") */\n      tag_182\n        /* \"Distributor/SafeMath.sol\":425:426  a */\n      dup4\n        /* \"Distributor/SafeMath.sol\":428:429  b */\n      dup4\n        /* \"Distributor/SafeMath.sol\":421:464  sub(a, b, \"SafeMath: subtraction overflow\") */\n      mload(0x40)\n      dup1\n      0x40\n      add\n      0x40\n      mstore\n      dup1\n      0x1e\n      dup2\n      mstore\n      0x20\n      add\n      0x536166654d6174683a207375627472616374696f6e206f766572666c6f770000\n      dup2\n      mstore\n      pop\n        /* \"Distributor/SafeMath.sol\":593:600  uint256 */\n      0x00\n        /* \"Distributor/SafeMath.sol\":628:640  errorMessage */\n      dup2\n        /* \"Distributor/SafeMath.sol\":620:626  b <= a */\n      dup5\n      dup5\n      gt\n      iszero\n        /* \"Distributor/SafeMath.sol\":612:641  require(b <= a, errorMessage) */\n      tag_236\n      jumpi\n      mload(0x40)\n      shl(0xe5, 0x461bcd)\n      dup2\n      mstore\n      0x20\n      0x04\n      dup3\n      add\n      dup2\n      dup2\n      mstore\n      dup4\n      mload\n      0x24\n      dup5\n      add\n      mstore\n      dup4\n      mload\n      swap1\n      swap3\n      dup4\n      swap3\n      0x44\n      swap1\n      swap2\n      add\n      swap2\n      swap1\n      dup6\n      add\n      swap1\n      dup1\n      dup4\n      dup4\n      0x00\n      dup4\n      iszero\n      tag_227\n      jumpi\n      dup2\n      dup2\n      add\n      mload\n      dup4\n      dup3\n      add\n      mstore\n      0x20\n      add\n      jump(tag_225)\n    tag_236:\n      pop\n      pop\n      pop\n        /* \"Distributor/SafeMath.sol\":663:668  a - b */\n      swap1\n      sub\n      swap1\n        /* \"Distributor/SafeMath.sol\":477:694  function sub(... */\n      jump\t// out\n    tag_192:\n      mload(0x40)\n      dup1\n      0x60\n      add\n      0x40\n      mstore\n      dup1\n      iszero(iszero(0x00))\n      dup2\n      mstore\n      0x20\n      add\n      0x00\n      dup2\n      mstore\n      0x20\n      add\n      0x00\n      dup2\n      mstore\n      pop\n      swap1\n      jump\t// out\n    stop\n    data_69f7f70959a4e39a44e5c1e9758516dc060c05af9d2514644d1e8fb784f16900 43616c6c6572206973206e6f7420676f7665726e6f72206f7220677561726469616e\n    data_9113bb53c2876a3805b2c9242029423fc540a728243ce887ab24c82cf119fba3 536166654d6174683a206d756c7469706c69636174696f6e206f766572666c6f77\n    data_ed69d779fa32807a0ab0c062194b492cf21fe3fb9f699c4cb98fdb2693ab648a 43616e6e6f742064656372656173652072617465206279206d6f7265207468616e20697420616c7265616479206973\n\n    auxdata: 0xa2646970667358221220cc6084561fc6c672c74678b3159c4638c3b8f9e92625c360469c8030583d74ca64736f6c63430007050033\n}\n",
				"bytecode": {
					"linkReferences": {},
					"object": "610140604052600c6101008190526b15539055551213d49256915160a21b61012090815262000032916000919062000216565b50620f424060e0523480156200004757600080fd5b5060405162001a3538038062001a35833981810160405260808110156200006d57600080fd5b5080516020820151604080840151606090940151600180546001600160a01b0319166001600160a01b038316908117909155915193949293909182917f2f658b440c35314f52658ea8a740e05b284cdc84dc9ae01e891f21b8933e7cad90600090a2506001600160a01b0384166200012c576040805162461bcd60e51b815260206004820152601660248201527f5a65726f20616464726573733a20547265617375727900000000000000000000604482015290519081900360640190fd5b6001600160601b0319606085901b1660a0526001600160a01b0383166200018e576040805162461bcd60e51b81526020600482015260116024820152705a65726f20616464726573733a2045584f60781b604482015290519081900360640190fd5b6001600160601b0319606084901b166080526001600160a01b038216620001fc576040805162461bcd60e51b815260206004820152601560248201527f5a65726f20616464726573733a205374616b696e670000000000000000000000604482015290519081900360640190fd5b5060601b6001600160601b03191660c05250620002c29050565b828054600181600116156101000203166002900490600052602060002090601f0160209004810192826200024e576000855562000299565b82601f106200026957805160ff191683800117855562000299565b8280016001018555821562000299579182015b82811115620002995782518255916020019190600101906200027c565b50620002a7929150620002ab565b5090565b5b80821115620002a75760008155600101620002ac565b60805160601c60a05160601c60c05160601c60e0516117206200031560003980610c4552806110f4525080610d045280610e895280610f23525080610d9b5280610ef4525080610c6a52506117206000f3fe608060405234801561001057600080fd5b50600436106100df5760003560e01c8063943dfef11161008c578063c9fa8b2a11610066578063c9fa8b2a14610256578063e4fc6b6d14610273578063e7187e8a1461027b578063f798224314610283576100df565b8063943dfef1146101ed578063bc3b2b12146101f5578063bf7e214f14610232576100df565b80635db854b0116100bd5780635db854b0146101795780637a9e5e4b146101aa5780638e69e255146101d0576100df565b80632e340599146100e457806336d33f44146101225780635d87d3631461015a575b600080fd5b610101600480360360208110156100fa57600080fd5b50356102af565b604080519283526001600160a01b0390911660208301528051918290030190f35b6101486004803603602081101561013857600080fd5b50356001600160a01b03166102e6565b60408051918252519081900360200190f35b6101776004803603602081101561017057600080fd5b5035610373565b005b6101776004803603608081101561018f57600080fd5b508035906020810135151590604081013590606001356104f7565b610177600480360360208110156101c057600080fd5b50356001600160a01b0316610885565b610177600480360360208110156101e657600080fd5b50356109c8565b610148610c03565b6102126004803603602081101561020b57600080fd5b5035610c09565b604080519315158452602084019290925282820152519081900360600190f35b61023a610c2f565b604080516001600160a01b039092168252519081900360200190f35b6101486004803603602081101561026c57600080fd5b5035610c3e565b610177610cf9565b610148610e7c565b6101776004803603604081101561029957600080fd5b506001600160a01b038135169060200135610fab565b600481815481106102bf57600080fd5b6000918252602090912060029091020180546001909101549091506001600160a01b031682565b60008060005b60045481101561036c57836001600160a01b03166004828154811061030d57fe5b60009182526020909120600160029092020101546001600160a01b031614156103645761036161035a6004838154811061034357fe5b906000526020600020906002020160000154610c3e565b8390611209565b91505b6001016102ec565b5092915050565b600160009054906101000a90046001600160a01b03166001600160a01b0316630c340a246040518163ffffffff1660e01b815260040160206040518083038186803b1580156103c157600080fd5b505afa1580156103d5573d6000803e3d6000fd5b505050506040513d60208110156103eb57600080fd5b50516000906001600160a01b031633146104985760405162461bcd60e51b81526020600482019081528254600260001961010060018416150201909116046024830181905290918291604490910190849080156104895780601f1061045e57610100808354040283529160200191610489565b820191906000526020600020905b81548152906001019060200180831161046c57829003601f168201915b50509250505060405180910390fd5b5063773594008111156104f2576040805162461bcd60e51b815260206004820152600860248201527f546f6f206d756368000000000000000000000000000000000000000000000000604482015290519081900360640190fd5b600355565b600160009054906101000a90046001600160a01b03166001600160a01b0316630c340a246040518163ffffffff1660e01b815260040160206040518083038186803b15801561054557600080fd5b505afa158015610559573d6000803e3d6000fd5b505050506040513d602081101561056f57600080fd5b50516001600160a01b03163314806106085750600160009054906101000a90046001600160a01b03166001600160a01b031663452a93206040518163ffffffff1660e01b815260040160206040518083038186803b1580156105d057600080fd5b505afa1580156105e4573d6000803e3d6000fd5b505050506040513d60208110156105fa57600080fd5b50516001600160a01b031633145b6106435760405162461bcd60e51b81526004018080602001828103825260228152602001806116796022913960400191505060405180910390fd5b60006001600160a01b03166004858154811061065b57fe5b60009182526020909120600160029092020101546001600160a01b031614156106cb576040805162461bcd60e51b815260206004820152601860248201527f526563697069656e7420646f6573206e6f742065786973740000000000000000604482015290519081900360640190fd5b600160009054906101000a90046001600160a01b03166001600160a01b031663452a93206040518163ffffffff1660e01b815260040160206040518083038186803b15801561071957600080fd5b505afa15801561072d573d6000803e3d6000fd5b505050506040513d602081101561074357600080fd5b50516001600160a01b03163314156107de5761078a6103e861078460196004888154811061076d57fe5b60009182526020909120600290910201549061126a565b906112c3565b8211156107de576040805162461bcd60e51b815260206004820152601f60248201527f4c696d697465723a2063616e6e6f742061646a757374206279203e322e352500604482015290519081900360640190fd5b8261084057600484815481106107f057fe5b9060005260206000209060020201600001548211156108405760405162461bcd60e51b815260040180806020018281038252602f8152602001806116bc602f913960400191505060405180910390fd5b6040805160608101825293151584526020808501938452848201928352600095865260029081905294209251835460ff19169015151783559051600183015551910155565b600160009054906101000a90046001600160a01b03166001600160a01b0316630c340a246040518163ffffffff1660e01b815260040160206040518083038186803b1580156108d357600080fd5b505afa1580156108e7573d6000803e3d6000fd5b505050506040513d60208110156108fd57600080fd5b50516000906001600160a01b031633146109705760405162461bcd60e51b81526020600482019081528254600260001961010060018416150201909116046024830181905290918291604490910190849080156104895780601f1061045e57610100808354040283529160200191610489565b506001805473ffffffffffffffffffffffffffffffffffffffff19166001600160a01b0383169081179091556040517f2f658b440c35314f52658ea8a740e05b284cdc84dc9ae01e891f21b8933e7cad90600090a250565b600160009054906101000a90046001600160a01b03166001600160a01b0316630c340a246040518163ffffffff1660e01b815260040160206040518083038186803b158015610a1657600080fd5b505afa158015610a2a573d6000803e3d6000fd5b505050506040513d6020811015610a4057600080fd5b50516001600160a01b0316331480610ad95750600160009054906101000a90046001600160a01b03166001600160a01b031663452a93206040518163ffffffff1660e01b815260040160206040518083038186803b158015610aa157600080fd5b505afa158015610ab5573d6000803e3d6000fd5b505050506040513d6020811015610acb57600080fd5b50516001600160a01b031633145b610b145760405162461bcd60e51b81526004018080602001828103825260228152602001806116796022913960400191505060405180910390fd5b60006001600160a01b031660048281548110610b2c57fe5b60009182526020909120600160029092020101546001600160a01b03161415610b9c576040805162461bcd60e51b815260206004820152601860248201527f526563697069656e7420646f6573206e6f742065786973740000000000000000604482015290519081900360640190fd5b600060048281548110610bab57fe5b906000526020600020906002020160010160006101000a8154816001600160a01b0302191690836001600160a01b03160217905550600060048281548110610bef57fe5b600091825260209091206002909102015550565b60035481565b600260208190526000918252604090912080546001820154919092015460ff9092169183565b6001546001600160a01b031681565b6000610cf37f0000000000000000000000000000000000000000000000000000000000000000610784847f00000000000000000000000000000000000000000000000000000000000000006001600160a01b03166318160ddd6040518163ffffffff1660e01b815260040160206040518083038186803b158015610cc157600080fd5b505afa158015610cd5573d6000803e3d6000fd5b505050506040513d6020811015610ceb57600080fd5b50519061126a565b92915050565b336001600160a01b037f00000000000000000000000000000000000000000000000000000000000000001614610d65576040805162461bcd60e51b815260206004820152600c60248201526b4f6e6c79207374616b696e6760a01b604482015290519081900360640190fd5b60005b600454811015610e7957600060048281548110610d8157fe5b9060005260206000209060020201600001541115610e71577f00000000000000000000000000000000000000000000000000000000000000006001600160a01b03166340c10f1960048381548110610dd557fe5b906000526020600020906002020160010160009054906101000a90046001600160a01b0316610e0a6004858154811061034357fe5b6040518363ffffffff1660e01b815260040180836001600160a01b0316815260200182815260200192505050600060405180830381600087803b158015610e5057600080fd5b505af1158015610e64573d6000803e3d6000fd5b50505050610e7181611305565b600101610d68565b50565b6000336001600160a01b037f00000000000000000000000000000000000000000000000000000000000000001614610eea576040805162461bcd60e51b815260206004820152600c60248201526b4f6e6c79207374616b696e6760a01b604482015290519081900360640190fd5b60035415610fa4577f00000000000000000000000000000000000000000000000000000000000000006001600160a01b03166340c10f197f00000000000000000000000000000000000000000000000000000000000000006003546040518363ffffffff1660e01b815260040180836001600160a01b0316815260200182815260200192505050600060405180830381600087803b158015610f8b57600080fd5b505af1158015610f9f573d6000803e3d6000fd5b505050505b5060035490565b600160009054906101000a90046001600160a01b03166001600160a01b0316630c340a246040518163ffffffff1660e01b815260040160206040518083038186803b158015610ff957600080fd5b505afa15801561100d573d6000803e3d6000fd5b505050506040513d602081101561102357600080fd5b50516000906001600160a01b031633146110965760405162461bcd60e51b81526020600482019081528254600260001961010060018416150201909116046024830181905290918291604490910190849080156104895780601f1061045e57610100808354040283529160200191610489565b506001600160a01b0382166110f2576040805162461bcd60e51b815260206004820152601760248201527f5a65726f20616464726573733a20526563697069656e74000000000000000000604482015290519081900360640190fd5b7f0000000000000000000000000000000000000000000000000000000000000000811115611167576040805162461bcd60e51b815260206004820152601e60248201527f526174652063616e6e6f74206578636565642064656e6f6d696e61746f720000604482015290519081900360640190fd5b604080518082019091529081526001600160a01b03918216602082019081526004805460018101825560009190915291517f8a35acfbc15ff81a39ae7d344fd709f28e8600b4aa8c65c6b64bfe7fe36bd19b600290930292830155517f8a35acfbc15ff81a39ae7d344fd709f28e8600b4aa8c65c6b64bfe7fe36bd19c909101805473ffffffffffffffffffffffffffffffffffffffff191691909216179055565b600082820183811015611263576040805162461bcd60e51b815260206004820152601b60248201527f536166654d6174683a206164646974696f6e206f766572666c6f770000000000604482015290519081900360640190fd5b9392505050565b60008261127957506000610cf3565b8282028284828161128657fe5b04146112635760405162461bcd60e51b815260040180806020018281038252602181526020018061169b6021913960400191505060405180910390fd5b600061126383836040518060400160405280601a81526020017f536166654d6174683a206469766973696f6e206279207a65726f000000000000815250611505565b61130d611655565b506000818152600260208181526040928390208351606081018552815460ff16151581526001820154928101839052920154928201929092529015611501578051156114055761137f81602001516004848154811061136857fe5b600091825260209091206002909102015490611209565b6004838154811061138c57fe5b6000918252602090912060029091020155604081015160048054849081106113b057fe5b90600052602060002090600202016000015410611400576000828152600260205260408082206001019190915581015160048054849081106113ee57fe5b60009182526020909120600290910201555b611501565b80602001516004838154811061141757fe5b906000526020600020906002020160000154111561147e5761145b81602001516004848154811061144457fe5b6000918252602090912060029091020154906115be565b6004838154811061146857fe5b600091825260209091206002909102015561149f565b60006004838154811061148d57fe5b60009182526020909120600290910201555b8060400151600483815481106114b157fe5b90600052602060002090600202016000015411611501576000828152600260205260408082206001019190915581015160048054849081106114ef57fe5b60009182526020909120600290910201555b5050565b600081836115915760405162461bcd60e51b81526004018080602001828103825283818151815260200191508051906020019080838360005b8381101561155657818101518382015260200161153e565b50505050905090810190601f1680156115835780820380516001836020036101000a031916815260200191505b509250505060405180910390fd5b50600083858161159d57fe5b0490508385816115a957fe5b068185020185146115b657fe5b949350505050565b600061126383836040518060400160405280601e81526020017f536166654d6174683a207375627472616374696f6e206f766572666c6f7700008152506000818484111561164d5760405162461bcd60e51b815260206004820181815283516024840152835190928392604490910191908501908083836000831561155657818101518382015260200161153e565b505050900390565b60405180606001604052806000151581526020016000815260200160008152509056fe43616c6c6572206973206e6f7420676f7665726e6f72206f7220677561726469616e536166654d6174683a206d756c7469706c69636174696f6e206f766572666c6f7743616e6e6f742064656372656173652072617465206279206d6f7265207468616e20697420616c7265616479206973a2646970667358221220cc6084561fc6c672c74678b3159c4638c3b8f9e92625c360469c8030583d74ca64736f6c63430007050033",
					"opcodes": "PUSH2 0x140 PUSH1 0x40 MSTORE PUSH1 0xC PUSH2 0x100 DUP2 SWAP1 MSTORE PUSH12 0x15539055551213D492569151 PUSH1 0xA2 SHL PUSH2 0x120 SWAP1 DUP2 MSTORE PUSH3 0x32 SWAP2 PUSH1 0x0 SWAP2 SWAP1 PUSH3 0x216 JUMP JUMPDEST POP PUSH3 0xF4240 PUSH1 0xE0 MSTORE CALLVALUE DUP1 ISZERO PUSH3 0x47 JUMPI PUSH1 0x0 DUP1 REVERT JUMPDEST POP PUSH1 0x40 MLOAD PUSH3 0x1A35 CODESIZE SUB DUP1 PUSH3 0x1A35 DUP4 CODECOPY DUP2 DUP2 ADD PUSH1 0x40 MSTORE PUSH1 0x80 DUP2 LT ISZERO PUSH3 0x6D JUMPI PUSH1 0x0 DUP1 REVERT JUMPDEST POP DUP1 MLOAD PUSH1 0x20 DUP3 ADD MLOAD PUSH1 0x40 DUP1 DUP5 ADD MLOAD PUSH1 0x60 SWAP1 SWAP5 ADD MLOAD PUSH1 0x1 DUP1 SLOAD PUSH1 0x1 PUSH1 0x1 PUSH1 0xA0 SHL SUB NOT AND PUSH1 0x1 PUSH1 0x1 PUSH1 0xA0 SHL SUB DUP4 AND SWAP1 DUP2 OR SWAP1 SWAP2 SSTORE SWAP2 MLOAD SWAP4 SWAP5 SWAP3 SWAP4 SWAP1 SWAP2 DUP3 SWAP2 PUSH32 0x2F658B440C35314F52658EA8A740E05B284CDC84DC9AE01E891F21B8933E7CAD SWAP1 PUSH1 0x0 SWAP1 LOG2 POP PUSH1 0x1 PUSH1 0x1 PUSH1 0xA0 SHL SUB DUP5 AND PUSH3 0x12C JUMPI PUSH1 0x40 DUP1 MLOAD PUSH3 0x461BCD PUSH1 0xE5 SHL DUP2 MSTORE PUSH1 0x20 PUSH1 0x4 DUP3 ADD MSTORE PUSH1 0x16 PUSH1 0x24 DUP3 ADD MSTORE PUSH32 0x5A65726F20616464726573733A20547265617375727900000000000000000000 PUSH1 0x44 DUP3 ADD MSTORE SWAP1 MLOAD SWAP1 DUP2 SWAP1 SUB PUSH1 0x64 ADD SWAP1 REVERT JUMPDEST PUSH1 0x1 PUSH1 0x1 PUSH1 0x60 SHL SUB NOT PUSH1 0x60 DUP6 SWAP1 SHL AND PUSH1 0xA0 MSTORE PUSH1 0x1 PUSH1 0x1 PUSH1 0xA0 SHL SUB DUP4 AND PUSH3 0x18E JUMPI PUSH1 0x40 DUP1 MLOAD PUSH3 0x461BCD PUSH1 0xE5 SHL DUP2 MSTORE PUSH1 0x20 PUSH1 0x4 DUP3 ADD MSTORE PUSH1 0x11 PUSH1 0x24 DUP3 ADD MSTORE PUSH17 0x5A65726F20616464726573733A2045584F PUSH1 0x78 SHL PUSH1 0x44 DUP3 ADD MSTORE SWAP1 MLOAD SWAP1 DUP2 SWAP1 SUB PUSH1 0x64 ADD SWAP1 REVERT JUMPDEST PUSH1 0x1 PUSH1 0x1 PUSH1 0x60 SHL SUB NOT PUSH1 0x60 DUP5 SWAP1 SHL AND PUSH1 0x80 MSTORE PUSH1 0x1 PUSH1 0x1 PUSH1 0xA0 SHL SUB DUP3 AND PUSH3 0x1FC JUMPI PUSH1 0x40 DUP1 MLOAD PUSH3 0x461BCD PUSH1 0xE5 SHL DUP2 MSTORE PUSH1 0x20 PUSH1 0x4 DUP3 ADD MSTORE PUSH1 0x15 PUSH1 0x24 DUP3 ADD MSTORE PUSH32 0x5A65726F20616464726573733A205374616B696E670000000000000000000000 PUSH1 0x44 DUP3 ADD MSTORE SWAP1 MLOAD SWAP1 DUP2 SWAP1 SUB PUSH1 0x64 ADD SWAP1 REVERT JUMPDEST POP PUSH1 0x60 SHL PUSH1 0x1 PUSH1 0x1 PUSH1 0x60 SHL SUB NOT AND PUSH1 0xC0 MSTORE POP PUSH3 0x2C2 SWAP1 POP JUMP JUMPDEST DUP3 DUP1 SLOAD PUSH1 0x1 DUP2 PUSH1 0x1 AND ISZERO PUSH2 0x100 MUL SUB AND PUSH1 0x2 SWAP1 DIV SWAP1 PUSH1 0x0 MSTORE PUSH1 0x20 PUSH1 0x0 KECCAK256 SWAP1 PUSH1 0x1F ADD PUSH1 0x20 SWAP1 DIV DUP2 ADD SWAP3 DUP3 PUSH3 0x24E JUMPI PUSH1 0x0 DUP6 SSTORE PUSH3 0x299 JUMP JUMPDEST DUP3 PUSH1 0x1F LT PUSH3 0x269 JUMPI DUP1 MLOAD PUSH1 0xFF NOT AND DUP4 DUP1 ADD OR DUP6 SSTORE PUSH3 0x299 JUMP JUMPDEST DUP3 DUP1 ADD PUSH1 0x1 ADD DUP6 SSTORE DUP3 ISZERO PUSH3 0x299 JUMPI SWAP2 DUP3 ADD JUMPDEST DUP3 DUP2 GT ISZERO PUSH3 0x299 JUMPI DUP3 MLOAD DUP3 SSTORE SWAP2 PUSH1 0x20 ADD SWAP2 SWAP1 PUSH1 0x1 ADD SWAP1 PUSH3 0x27C JUMP JUMPDEST POP PUSH3 0x2A7 SWAP3 SWAP2 POP PUSH3 0x2AB JUMP JUMPDEST POP SWAP1 JUMP JUMPDEST JUMPDEST DUP1 DUP3 GT ISZERO PUSH3 0x2A7 JUMPI PUSH1 0x0 DUP2 SSTORE PUSH1 0x1 ADD PUSH3 0x2AC JUMP JUMPDEST PUSH1 0x80 MLOAD PUSH1 0x60 SHR PUSH1 0xA0 MLOAD PUSH1 0x60 SHR PUSH1 0xC0 MLOAD PUSH1 0x60 SHR PUSH1 0xE0 MLOAD PUSH2 0x1720 PUSH3 0x315 PUSH1 0x0 CODECOPY DUP1 PUSH2 0xC45 MSTORE DUP1 PUSH2 0x10F4 MSTORE POP DUP1 PUSH2 0xD04 MSTORE DUP1 PUSH2 0xE89 MSTORE DUP1 PUSH2 0xF23 MSTORE POP DUP1 PUSH2 0xD9B MSTORE DUP1 PUSH2 0xEF4 MSTORE POP DUP1 PUSH2 0xC6A MSTORE POP PUSH2 0x1720 PUSH1 0x0 RETURN INVALID PUSH1 0x80 PUSH1 0x40 MSTORE CALLVALUE DUP1 ISZERO PUSH2 0x10 JUMPI PUSH1 0x0 DUP1 REVERT JUMPDEST POP PUSH1 0x4 CALLDATASIZE LT PUSH2 0xDF JUMPI PUSH1 0x0 CALLDATALOAD PUSH1 0xE0 SHR DUP1 PUSH4 0x943DFEF1 GT PUSH2 0x8C JUMPI DUP1 PUSH4 0xC9FA8B2A GT PUSH2 0x66 JUMPI DUP1 PUSH4 0xC9FA8B2A EQ PUSH2 0x256 JUMPI DUP1 PUSH4 0xE4FC6B6D EQ PUSH2 0x273 JUMPI DUP1 PUSH4 0xE7187E8A EQ PUSH2 0x27B JUMPI DUP1 PUSH4 0xF7982243 EQ PUSH2 0x283 JUMPI PUSH2 0xDF JUMP JUMPDEST DUP1 PUSH4 0x943DFEF1 EQ PUSH2 0x1ED JUMPI DUP1 PUSH4 0xBC3B2B12 EQ PUSH2 0x1F5 JUMPI DUP1 PUSH4 0xBF7E214F EQ PUSH2 0x232 JUMPI PUSH2 0xDF JUMP JUMPDEST DUP1 PUSH4 0x5DB854B0 GT PUSH2 0xBD JUMPI DUP1 PUSH4 0x5DB854B0 EQ PUSH2 0x179 JUMPI DUP1 PUSH4 0x7A9E5E4B EQ PUSH2 0x1AA JUMPI DUP1 PUSH4 0x8E69E255 EQ PUSH2 0x1D0 JUMPI PUSH2 0xDF JUMP JUMPDEST DUP1 PUSH4 0x2E340599 EQ PUSH2 0xE4 JUMPI DUP1 PUSH4 0x36D33F44 EQ PUSH2 0x122 JUMPI DUP1 PUSH4 0x5D87D363 EQ PUSH2 0x15A JUMPI JUMPDEST PUSH1 0x0 DUP1 REVERT JUMPDEST PUSH2 0x101 PUSH1 0x4 DUP1 CALLDATASIZE SUB PUSH1 0x20 DUP2 LT ISZERO PUSH2 0xFA JUMPI PUSH1 0x0 DUP1 REVERT JUMPDEST POP CALLDATALOAD PUSH2 0x2AF JUMP JUMPDEST PUSH1 0x40 DUP1 MLOAD SWAP3 DUP4 MSTORE PUSH1 0x1 PUSH1 0x1 PUSH1 0xA0 SHL SUB SWAP1 SWAP2 AND PUSH1 0x20 DUP4 ADD MSTORE DUP1 MLOAD SWAP2 DUP3 SWAP1 SUB ADD SWAP1 RETURN JUMPDEST PUSH2 0x148 PUSH1 0x4 DUP1 CALLDATASIZE SUB PUSH1 0x20 DUP2 LT ISZERO PUSH2 0x138 JUMPI PUSH1 0x0 DUP1 REVERT JUMPDEST POP CALLDATALOAD PUSH1 0x1 PUSH1 0x1 PUSH1 0xA0 SHL SUB AND PUSH2 0x2E6 JUMP JUMPDEST PUSH1 0x40 DUP1 MLOAD SWAP2 DUP3 MSTORE MLOAD SWAP1 DUP2 SWAP1 SUB PUSH1 0x20 ADD SWAP1 RETURN JUMPDEST PUSH2 0x177 PUSH1 0x4 DUP1 CALLDATASIZE SUB PUSH1 0x20 DUP2 LT ISZERO PUSH2 0x170 JUMPI PUSH1 0x0 DUP1 REVERT JUMPDEST POP CALLDATALOAD PUSH2 0x373 JUMP JUMPDEST STOP JUMPDEST PUSH2 0x177 PUSH1 0x4 DUP1 CALLDATASIZE SUB PUSH1 0x80 DUP2 LT ISZERO PUSH2 0x18F JUMPI PUSH1 0x0 DUP1 REVERT JUMPDEST POP DUP1 CALLDATALOAD SWAP1 PUSH1 0x20 DUP2 ADD CALLDATALOAD ISZERO ISZERO SWAP1 PUSH1 0x40 DUP2 ADD CALLDATALOAD SWAP1 PUSH1 0x60 ADD CALLDATALOAD PUSH2 0x4F7 JUMP JUMPDEST PUSH2 0x177 PUSH1 0x4 DUP1 CALLDATASIZE SUB PUSH1 0x20 DUP2 LT ISZERO PUSH2 0x1C0 JUMPI PUSH1 0x0 DUP1 REVERT JUMPDEST POP CALLDATALOAD PUSH1 0x1 PUSH1 0x1 PUSH1 0xA0 SHL SUB AND PUSH2 0x885 JUMP JUMPDEST PUSH2 0x177 PUSH1 0x4 DUP1 CALLDATASIZE SUB PUSH1 0x20 DUP2 LT ISZERO PUSH2 0x1E6 JUMPI PUSH1 0x0 DUP1 REVERT JUMPDEST POP CALLDATALOAD PUSH2 0x9C8 JUMP JUMPDEST PUSH2 0x148 PUSH2 0xC03 JUMP JUMPDEST PUSH2 0x212 PUSH1 0x4 DUP1 CALLDATASIZE SUB PUSH1 0x20 DUP2 LT ISZERO PUSH2 0x20B JUMPI PUSH1 0x0 DUP1 REVERT JUMPDEST POP CALLDATALOAD PUSH2 0xC09 JUMP JUMPDEST PUSH1 0x40 DUP1 MLOAD SWAP4 ISZERO ISZERO DUP5 MSTORE PUSH1 0x20 DUP5 ADD SWAP3 SWAP1 SWAP3 MSTORE DUP3 DUP3 ADD MSTORE MLOAD SWAP1 DUP2 SWAP1 SUB PUSH1 0x60 ADD SWAP1 RETURN JUMPDEST PUSH2 0x23A PUSH2 0xC2F JUMP JUMPDEST PUSH1 0x40 DUP1 MLOAD PUSH1 0x1 PUSH1 0x1 PUSH1 0xA0 SHL SUB SWAP1 SWAP3 AND DUP3 MSTORE MLOAD SWAP1 DUP2 SWAP1 SUB PUSH1 0x20 ADD SWAP1 RETURN JUMPDEST PUSH2 0x148 PUSH1 0x4 DUP1 CALLDATASIZE SUB PUSH1 0x20 DUP2 LT ISZERO PUSH2 0x26C JUMPI PUSH1 0x0 DUP1 REVERT JUMPDEST POP CALLDATALOAD PUSH2 0xC3E JUMP JUMPDEST PUSH2 0x177 PUSH2 0xCF9 JUMP JUMPDEST PUSH2 0x148 PUSH2 0xE7C JUMP JUMPDEST PUSH2 0x177 PUSH1 0x4 DUP1 CALLDATASIZE SUB PUSH1 0x40 DUP2 LT ISZERO PUSH2 0x299 JUMPI PUSH1 0x0 DUP1 REVERT JUMPDEST POP PUSH1 0x1 PUSH1 0x1 PUSH1 0xA0 SHL SUB DUP2 CALLDATALOAD AND SWAP1 PUSH1 0x20 ADD CALLDATALOAD PUSH2 0xFAB JUMP JUMPDEST PUSH1 0x4 DUP2 DUP2 SLOAD DUP2 LT PUSH2 0x2BF JUMPI PUSH1 0x0 DUP1 REVERT JUMPDEST PUSH1 0x0 SWAP2 DUP3 MSTORE PUSH1 0x20 SWAP1 SWAP2 KECCAK256 PUSH1 0x2 SWAP1 SWAP2 MUL ADD DUP1 SLOAD PUSH1 0x1 SWAP1 SWAP2 ADD SLOAD SWAP1 SWAP2 POP PUSH1 0x1 PUSH1 0x1 PUSH1 0xA0 SHL SUB AND DUP3 JUMP JUMPDEST PUSH1 0x0 DUP1 PUSH1 0x0 JUMPDEST PUSH1 0x4 SLOAD DUP2 LT ISZERO PUSH2 0x36C JUMPI DUP4 PUSH1 0x1 PUSH1 0x1 PUSH1 0xA0 SHL SUB AND PUSH1 0x4 DUP3 DUP2 SLOAD DUP2 LT PUSH2 0x30D JUMPI INVALID JUMPDEST PUSH1 0x0 SWAP2 DUP3 MSTORE PUSH1 0x20 SWAP1 SWAP2 KECCAK256 PUSH1 0x1 PUSH1 0x2 SWAP1 SWAP3 MUL ADD ADD SLOAD PUSH1 0x1 PUSH1 0x1 PUSH1 0xA0 SHL SUB AND EQ ISZERO PUSH2 0x364 JUMPI PUSH2 0x361 PUSH2 0x35A PUSH1 0x4 DUP4 DUP2 SLOAD DUP2 LT PUSH2 0x343 JUMPI INVALID JUMPDEST SWAP1 PUSH1 0x0 MSTORE PUSH1 0x20 PUSH1 0x0 KECCAK256 SWAP1 PUSH1 0x2 MUL ADD PUSH1 0x0 ADD SLOAD PUSH2 0xC3E JUMP JUMPDEST DUP4 SWAP1 PUSH2 0x1209 JUMP JUMPDEST SWAP2 POP JUMPDEST PUSH1 0x1 ADD PUSH2 0x2EC JUMP JUMPDEST POP SWAP3 SWAP2 POP POP JUMP JUMPDEST PUSH1 0x1 PUSH1 0x0 SWAP1 SLOAD SWAP1 PUSH2 0x100 EXP SWAP1 DIV PUSH1 0x1 PUSH1 0x1 PUSH1 0xA0 SHL SUB AND PUSH1 0x1 PUSH1 0x1 PUSH1 0xA0 SHL SUB AND PUSH4 0xC340A24 PUSH1 0x40 MLOAD DUP2 PUSH4 0xFFFFFFFF AND PUSH1 0xE0 SHL DUP2 MSTORE PUSH1 0x4 ADD PUSH1 0x20 PUSH1 0x40 MLOAD DUP1 DUP4 SUB DUP2 DUP7 DUP1 EXTCODESIZE ISZERO DUP1 ISZERO PUSH2 0x3C1 JUMPI PUSH1 0x0 DUP1 REVERT JUMPDEST POP GAS STATICCALL ISZERO DUP1 ISZERO PUSH2 0x3D5 JUMPI RETURNDATASIZE PUSH1 0x0 DUP1 RETURNDATACOPY RETURNDATASIZE PUSH1 0x0 REVERT JUMPDEST POP POP POP POP PUSH1 0x40 MLOAD RETURNDATASIZE PUSH1 0x20 DUP2 LT ISZERO PUSH2 0x3EB JUMPI PUSH1 0x0 DUP1 REVERT JUMPDEST POP MLOAD PUSH1 0x0 SWAP1 PUSH1 0x1 PUSH1 0x1 PUSH1 0xA0 SHL SUB AND CALLER EQ PUSH2 0x498 JUMPI PUSH1 0x40 MLOAD PUSH3 0x461BCD PUSH1 0xE5 SHL DUP2 MSTORE PUSH1 0x20 PUSH1 0x4 DUP3 ADD SWAP1 DUP2 MSTORE DUP3 SLOAD PUSH1 0x2 PUSH1 0x0 NOT PUSH2 0x100 PUSH1 0x1 DUP5 AND ISZERO MUL ADD SWAP1 SWAP2 AND DIV PUSH1 0x24 DUP4 ADD DUP2 SWAP1 MSTORE SWAP1 SWAP2 DUP3 SWAP2 PUSH1 0x44 SWAP1 SWAP2 ADD SWAP1 DUP5 SWAP1 DUP1 ISZERO PUSH2 0x489 JUMPI DUP1 PUSH1 0x1F LT PUSH2 0x45E JUMPI PUSH2 0x100 DUP1 DUP4 SLOAD DIV MUL DUP4 MSTORE SWAP2 PUSH1 0x20 ADD SWAP2 PUSH2 0x489 JUMP JUMPDEST DUP3 ADD SWAP2 SWAP1 PUSH1 0x0 MSTORE PUSH1 0x20 PUSH1 0x0 KECCAK256 SWAP1 JUMPDEST DUP2 SLOAD DUP2 MSTORE SWAP1 PUSH1 0x1 ADD SWAP1 PUSH1 0x20 ADD DUP1 DUP4 GT PUSH2 0x46C JUMPI DUP3 SWAP1 SUB PUSH1 0x1F AND DUP3 ADD SWAP2 JUMPDEST POP POP SWAP3 POP POP POP PUSH1 0x40 MLOAD DUP1 SWAP2 SUB SWAP1 REVERT JUMPDEST POP PUSH4 0x77359400 DUP2 GT ISZERO PUSH2 0x4F2 JUMPI PUSH1 0x40 DUP1 MLOAD PUSH3 0x461BCD PUSH1 0xE5 SHL DUP2 MSTORE PUSH1 0x20 PUSH1 0x4 DUP3 ADD MSTORE PUSH1 0x8 PUSH1 0x24 DUP3 ADD MSTORE PUSH32 0x546F6F206D756368000000000000000000000000000000000000000000000000 PUSH1 0x44 DUP3 ADD MSTORE SWAP1 MLOAD SWAP1 DUP2 SWAP1 SUB PUSH1 0x64 ADD SWAP1 REVERT JUMPDEST PUSH1 0x3 SSTORE JUMP JUMPDEST PUSH1 0x1 PUSH1 0x0 SWAP1 SLOAD SWAP1 PUSH2 0x100 EXP SWAP1 DIV PUSH1 0x1 PUSH1 0x1 PUSH1 0xA0 SHL SUB AND PUSH1 0x1 PUSH1 0x1 PUSH1 0xA0 SHL SUB AND PUSH4 0xC340A24 PUSH1 0x40 MLOAD DUP2 PUSH4 0xFFFFFFFF AND PUSH1 0xE0 SHL DUP2 MSTORE PUSH1 0x4 ADD PUSH1 0x20 PUSH1 0x40 MLOAD DUP1 DUP4 SUB DUP2 DUP7 DUP1 EXTCODESIZE ISZERO DUP1 ISZERO PUSH2 0x545 JUMPI PUSH1 0x0 DUP1 REVERT JUMPDEST POP GAS STATICCALL ISZERO DUP1 ISZERO PUSH2 0x559 JUMPI RETURNDATASIZE PUSH1 0x0 DUP1 RETURNDATACOPY RETURNDATASIZE PUSH1 0x0 REVERT JUMPDEST POP POP POP POP PUSH1 0x40 MLOAD RETURNDATASIZE PUSH1 0x20 DUP2 LT ISZERO PUSH2 0x56F JUMPI PUSH1 0x0 DUP1 REVERT JUMPDEST POP MLOAD PUSH1 0x1 PUSH1 0x1 PUSH1 0xA0 SHL SUB AND CALLER EQ DUP1 PUSH2 0x608 JUMPI POP PUSH1 0x1 PUSH1 0x0 SWAP1 SLOAD SWAP1 PUSH2 0x100 EXP SWAP1 DIV PUSH1 0x1 PUSH1 0x1 PUSH1 0xA0 SHL SUB AND PUSH1 0x1 PUSH1 0x1 PUSH1 0xA0 SHL SUB AND PUSH4 0x452A9320 PUSH1 0x40 MLOAD DUP2 PUSH4 0xFFFFFFFF AND PUSH1 0xE0 SHL DUP2 MSTORE PUSH1 0x4 ADD PUSH1 0x20 PUSH1 0x40 MLOAD DUP1 DUP4 SUB DUP2 DUP7 DUP1 EXTCODESIZE ISZERO DUP1 ISZERO PUSH2 0x5D0 JUMPI PUSH1 0x0 DUP1 REVERT JUMPDEST POP GAS STATICCALL ISZERO DUP1 ISZERO PUSH2 0x5E4 JUMPI RETURNDATASIZE PUSH1 0x0 DUP1 RETURNDATACOPY RETURNDATASIZE PUSH1 0x0 REVERT JUMPDEST POP POP POP POP PUSH1 0x40 MLOAD RETURNDATASIZE PUSH1 0x20 DUP2 LT ISZERO PUSH2 0x5FA JUMPI PUSH1 0x0 DUP1 REVERT JUMPDEST POP MLOAD PUSH1 0x1 PUSH1 0x1 PUSH1 0xA0 SHL SUB AND CALLER EQ JUMPDEST PUSH2 0x643 JUMPI PUSH1 0x40 MLOAD PUSH3 0x461BCD PUSH1 0xE5 SHL DUP2 MSTORE PUSH1 0x4 ADD DUP1 DUP1 PUSH1 0x20 ADD DUP3 DUP2 SUB DUP3 MSTORE PUSH1 0x22 DUP2 MSTORE PUSH1 0x20 ADD DUP1 PUSH2 0x1679 PUSH1 0x22 SWAP2 CODECOPY PUSH1 0x40 ADD SWAP2 POP POP PUSH1 0x40 MLOAD DUP1 SWAP2 SUB SWAP1 REVERT JUMPDEST PUSH1 0x0 PUSH1 0x1 PUSH1 0x1 PUSH1 0xA0 SHL SUB AND PUSH1 0x4 DUP6 DUP2 SLOAD DUP2 LT PUSH2 0x65B JUMPI INVALID JUMPDEST PUSH1 0x0 SWAP2 DUP3 MSTORE PUSH1 0x20 SWAP1 SWAP2 KECCAK256 PUSH1 0x1 PUSH1 0x2 SWAP1 SWAP3 MUL ADD ADD SLOAD PUSH1 0x1 PUSH1 0x1 PUSH1 0xA0 SHL SUB AND EQ ISZERO PUSH2 0x6CB JUMPI PUSH1 0x40 DUP1 MLOAD PUSH3 0x461BCD PUSH1 0xE5 SHL DUP2 MSTORE PUSH1 0x20 PUSH1 0x4 DUP3 ADD MSTORE PUSH1 0x18 PUSH1 0x24 DUP3 ADD MSTORE PUSH32 0x526563697069656E7420646F6573206E6F742065786973740000000000000000 PUSH1 0x44 DUP3 ADD MSTORE SWAP1 MLOAD SWAP1 DUP2 SWAP1 SUB PUSH1 0x64 ADD SWAP1 REVERT JUMPDEST PUSH1 0x1 PUSH1 0x0 SWAP1 SLOAD SWAP1 PUSH2 0x100 EXP SWAP1 DIV PUSH1 0x1 PUSH1 0x1 PUSH1 0xA0 SHL SUB AND PUSH1 0x1 PUSH1 0x1 PUSH1 0xA0 SHL SUB AND PUSH4 0x452A9320 PUSH1 0x40 MLOAD DUP2 PUSH4 0xFFFFFFFF AND PUSH1 0xE0 SHL DUP2 MSTORE PUSH1 0x4 ADD PUSH1 0x20 PUSH1 0x40 MLOAD DUP1 DUP4 SUB DUP2 DUP7 DUP1 EXTCODESIZE ISZERO DUP1 ISZERO PUSH2 0x719 JUMPI PUSH1 0x0 DUP1 REVERT JUMPDEST POP GAS STATICCALL ISZERO DUP1 ISZERO PUSH2 0x72D JUMPI RETURNDATASIZE PUSH1 0x0 DUP1 RETURNDATACOPY RETURNDATASIZE PUSH1 0x0 REVERT JUMPDEST POP POP POP POP PUSH1 0x40 MLOAD RETURNDATASIZE PUSH1 0x20 DUP2 LT ISZERO PUSH2 0x743 JUMPI PUSH1 0x0 DUP1 REVERT JUMPDEST POP MLOAD PUSH1 0x1 PUSH1 0x1 PUSH1 0xA0 SHL SUB AND CALLER EQ ISZERO PUSH2 0x7DE JUMPI PUSH2 0x78A PUSH2 0x3E8 PUSH2 0x784 PUSH1 0x19 PUSH1 0x4 DUP9 DUP2 SLOAD DUP2 LT PUSH2 0x76D JUMPI INVALID JUMPDEST PUSH1 0x0 SWAP2 DUP3 MSTORE PUSH1 0x20 SWAP1 SWAP2 KECCAK256 PUSH1 0x2 SWAP1 SWAP2 MUL ADD SLOAD SWAP1 PUSH2 0x126A JUMP JUMPDEST SWAP1 PUSH2 0x12C3 JUMP JUMPDEST DUP3 GT ISZERO PUSH2 0x7DE JUMPI PUSH1 0x40 DUP1 MLOAD PUSH3 0x461BCD PUSH1 0xE5 SHL DUP2 MSTORE PUSH1 0x20 PUSH1 0x4 DUP3 ADD MSTORE PUSH1 0x1F PUSH1 0x24 DUP3 ADD MSTORE PUSH32 0x4C696D697465723A2063616E6E6F742061646A757374206279203E322E352500 PUSH1 0x44 DUP3 ADD MSTORE SWAP1 MLOAD SWAP1 DUP2 SWAP1 SUB PUSH1 0x64 ADD SWAP1 REVERT JUMPDEST DUP3 PUSH2 0x840 JUMPI PUSH1 0x4 DUP5 DUP2 SLOAD DUP2 LT PUSH2 0x7F0 JUMPI INVALID JUMPDEST SWAP1 PUSH1 0x0 MSTORE PUSH1 0x20 PUSH1 0x0 KECCAK256 SWAP1 PUSH1 0x2 MUL ADD PUSH1 0x0 ADD SLOAD DUP3 GT ISZERO PUSH2 0x840 JUMPI PUSH1 0x40 MLOAD PUSH3 0x461BCD PUSH1 0xE5 SHL DUP2 MSTORE PUSH1 0x4 ADD DUP1 DUP1 PUSH1 0x20 ADD DUP3 DUP2 SUB DUP3 MSTORE PUSH1 0x2F DUP2 MSTORE PUSH1 0x20 ADD DUP1 PUSH2 0x16BC PUSH1 0x2F SWAP2 CODECOPY PUSH1 0x40 ADD SWAP2 POP POP PUSH1 0x40 MLOAD DUP1 SWAP2 SUB SWAP1 REVERT JUMPDEST PUSH1 0x40 DUP1 MLOAD PUSH1 0x60 DUP2 ADD DUP3 MSTORE SWAP4 ISZERO ISZERO DUP5 MSTORE PUSH1 0x20 DUP1 DUP6 ADD SWAP4 DUP5 MSTORE DUP5 DUP3 ADD SWAP3 DUP4 MSTORE PUSH1 0x0 SWAP6 DUP7 MSTORE PUSH1 0x2 SWAP1 DUP2 SWAP1 MSTORE SWAP5 KECCAK256 SWAP3 MLOAD DUP4 SLOAD PUSH1 0xFF NOT AND SWAP1 ISZERO ISZERO OR DUP4 SSTORE SWAP1 MLOAD PUSH1 0x1 DUP4 ADD SSTORE MLOAD SWAP2 ADD SSTORE JUMP JUMPDEST PUSH1 0x1 PUSH1 0x0 SWAP1 SLOAD SWAP1 PUSH2 0x100 EXP SWAP1 DIV PUSH1 0x1 PUSH1 0x1 PUSH1 0xA0 SHL SUB AND PUSH1 0x1 PUSH1 0x1 PUSH1 0xA0 SHL SUB AND PUSH4 0xC340A24 PUSH1 0x40 MLOAD DUP2 PUSH4 0xFFFFFFFF AND PUSH1 0xE0 SHL DUP2 MSTORE PUSH1 0x4 ADD PUSH1 0x20 PUSH1 0x40 MLOAD DUP1 DUP4 SUB DUP2 DUP7 DUP1 EXTCODESIZE ISZERO DUP1 ISZERO PUSH2 0x8D3 JUMPI PUSH1 0x0 DUP1 REVERT JUMPDEST POP GAS STATICCALL ISZERO DUP1 ISZERO PUSH2 0x8E7 JUMPI RETURNDATASIZE PUSH1 0x0 DUP1 RETURNDATACOPY RETURNDATASIZE PUSH1 0x0 REVERT JUMPDEST POP POP POP POP PUSH1 0x40 MLOAD RETURNDATASIZE PUSH1 0x20 DUP2 LT ISZERO PUSH2 0x8FD JUMPI PUSH1 0x0 DUP1 REVERT JUMPDEST POP MLOAD PUSH1 0x0 SWAP1 PUSH1 0x1 PUSH1 0x1 PUSH1 0xA0 SHL SUB AND CALLER EQ PUSH2 0x970 JUMPI PUSH1 0x40 MLOAD PUSH3 0x461BCD PUSH1 0xE5 SHL DUP2 MSTORE PUSH1 0x20 PUSH1 0x4 DUP3 ADD SWAP1 DUP2 MSTORE DUP3 SLOAD PUSH1 0x2 PUSH1 0x0 NOT PUSH2 0x100 PUSH1 0x1 DUP5 AND ISZERO MUL ADD SWAP1 SWAP2 AND DIV PUSH1 0x24 DUP4 ADD DUP2 SWAP1 MSTORE SWAP1 SWAP2 DUP3 SWAP2 PUSH1 0x44 SWAP1 SWAP2 ADD SWAP1 DUP5 SWAP1 DUP1 ISZERO PUSH2 0x489 JUMPI DUP1 PUSH1 0x1F LT PUSH2 0x45E JUMPI PUSH2 0x100 DUP1 DUP4 SLOAD DIV MUL DUP4 MSTORE SWAP2 PUSH1 0x20 ADD SWAP2 PUSH2 0x489 JUMP JUMPDEST POP PUSH1 0x1 DUP1 SLOAD PUSH20 0xFFFFFFFFFFFFFFFFFFFFFFFFFFFFFFFFFFFFFFFF NOT AND PUSH1 0x1 PUSH1 0x1 PUSH1 0xA0 SHL SUB DUP4 AND SWAP1 DUP2 OR SWAP1 SWAP2 SSTORE PUSH1 0x40 MLOAD PUSH32 0x2F658B440C35314F52658EA8A740E05B284CDC84DC9AE01E891F21B8933E7CAD SWAP1 PUSH1 0x0 SWAP1 LOG2 POP JUMP JUMPDEST PUSH1 0x1 PUSH1 0x0 SWAP1 SLOAD SWAP1 PUSH2 0x100 EXP SWAP1 DIV PUSH1 0x1 PUSH1 0x1 PUSH1 0xA0 SHL SUB AND PUSH1 0x1 PUSH1 0x1 PUSH1 0xA0 SHL SUB AND PUSH4 0xC340A24 PUSH1 0x40 MLOAD DUP2 PUSH4 0xFFFFFFFF AND PUSH1 0xE0 SHL DUP2 MSTORE PUSH1 0x4 ADD PUSH1 0x20 PUSH1 0x40 MLOAD DUP1 DUP4 SUB DUP2 DUP7 DUP1 EXTCODESIZE ISZERO DUP1 ISZERO PUSH2 0xA16 JUMPI PUSH1 0x0 DUP1 REVERT JUMPDEST POP GAS STATICCALL ISZERO DUP1 ISZERO PUSH2 0xA2A JUMPI RETURNDATASIZE PUSH1 0x0 DUP1 RETURNDATACOPY RETURNDATASIZE PUSH1 0x0 REVERT JUMPDEST POP POP POP POP PUSH1 0x40 MLOAD RETURNDATASIZE PUSH1 0x20 DUP2 LT ISZERO PUSH2 0xA40 JUMPI PUSH1 0x0 DUP1 REVERT JUMPDEST POP MLOAD PUSH1 0x1 PUSH1 0x1 PUSH1 0xA0 SHL SUB AND CALLER EQ DUP1 PUSH2 0xAD9 JUMPI POP PUSH1 0x1 PUSH1 0x0 SWAP1 SLOAD SWAP1 PUSH2 0x100 EXP SWAP1 DIV PUSH1 0x1 PUSH1 0x1 PUSH1 0xA0 SHL SUB AND PUSH1 0x1 PUSH1 0x1 PUSH1 0xA0 SHL SUB AND PUSH4 0x452A9320 PUSH1 0x40 MLOAD DUP2 PUSH4 0xFFFFFFFF AND PUSH1 0xE0 SHL DUP2 MSTORE PUSH1 0x4 ADD PUSH1 0x20 PUSH1 0x40 MLOAD DUP1 DUP4 SUB DUP2 DUP7 DUP1 EXTCODESIZE ISZERO DUP1 ISZERO PUSH2 0xAA1 JUMPI PUSH1 0x0 DUP1 REVERT JUMPDEST POP GAS STATICCALL ISZERO DUP1 ISZERO PUSH2 0xAB5 JUMPI RETURNDATASIZE PUSH1 0x0 DUP1 RETURNDATACOPY RETURNDATASIZE PUSH1 0x0 REVERT JUMPDEST POP POP POP POP PUSH1 0x40 MLOAD RETURNDATASIZE PUSH1 0x20 DUP2 LT ISZERO PUSH2 0xACB JUMPI PUSH1 0x0 DUP1 REVERT JUMPDEST POP MLOAD PUSH1 0x1 PUSH1 0x1 PUSH1 0xA0 SHL SUB AND CALLER EQ JUMPDEST PUSH2 0xB14 JUMPI PUSH1 0x40 MLOAD PUSH3 0x461BCD PUSH1 0xE5 SHL DUP2 MSTORE PUSH1 0x4 ADD DUP1 DUP1 PUSH1 0x20 ADD DUP3 DUP2 SUB DUP3 MSTORE PUSH1 0x22 DUP2 MSTORE PUSH1 0x20 ADD DUP1 PUSH2 0x1679 PUSH1 0x22 SWAP2 CODECOPY PUSH1 0x40 ADD SWAP2 POP POP PUSH1 0x40 MLOAD DUP1 SWAP2 SUB SWAP1 REVERT JUMPDEST PUSH1 0x0 PUSH1 0x1 PUSH1 0x1 PUSH1 0xA0 SHL SUB AND PUSH1 0x4 DUP3 DUP2 SLOAD DUP2 LT PUSH2 0xB2C JUMPI INVALID JUMPDEST PUSH1 0x0 SWAP2 DUP3 MSTORE PUSH1 0x20 SWAP1 SWAP2 KECCAK256 PUSH1 0x1 PUSH1 0x2 SWAP1 SWAP3 MUL ADD ADD SLOAD PUSH1 0x1 PUSH1 0x1 PUSH1 0xA0 SHL SUB AND EQ ISZERO PUSH2 0xB9C JUMPI PUSH1 0x40 DUP1 MLOAD PUSH3 0x461BCD PUSH1 0xE5 SHL DUP2 MSTORE PUSH1 0x20 PUSH1 0x4 DUP3 ADD MSTORE PUSH1 0x18 PUSH1 0x24 DUP3 ADD MSTORE PUSH32 0x526563697069656E7420646F6573206E6F742065786973740000000000000000 PUSH1 0x44 DUP3 ADD MSTORE SWAP1 MLOAD SWAP1 DUP2 SWAP1 SUB PUSH1 0x64 ADD SWAP1 REVERT JUMPDEST PUSH1 0x0 PUSH1 0x4 DUP3 DUP2 SLOAD DUP2 LT PUSH2 0xBAB JUMPI INVALID JUMPDEST SWAP1 PUSH1 0x0 MSTORE PUSH1 0x20 PUSH1 0x0 KECCAK256 SWAP1 PUSH1 0x2 MUL ADD PUSH1 0x1 ADD PUSH1 0x0 PUSH2 0x100 EXP DUP2 SLOAD DUP2 PUSH1 0x1 PUSH1 0x1 PUSH1 0xA0 SHL SUB MUL NOT AND SWAP1 DUP4 PUSH1 0x1 PUSH1 0x1 PUSH1 0xA0 SHL SUB AND MUL OR SWAP1 SSTORE POP PUSH1 0x0 PUSH1 0x4 DUP3 DUP2 SLOAD DUP2 LT PUSH2 0xBEF JUMPI INVALID JUMPDEST PUSH1 0x0 SWAP2 DUP3 MSTORE PUSH1 0x20 SWAP1 SWAP2 KECCAK256 PUSH1 0x2 SWAP1 SWAP2 MUL ADD SSTORE POP JUMP JUMPDEST PUSH1 0x3 SLOAD DUP2 JUMP JUMPDEST PUSH1 0x2 PUSH1 0x20 DUP2 SWAP1 MSTORE PUSH1 0x0 SWAP2 DUP3 MSTORE PUSH1 0x40 SWAP1 SWAP2 KECCAK256 DUP1 SLOAD PUSH1 0x1 DUP3 ADD SLOAD SWAP2 SWAP1 SWAP3 ADD SLOAD PUSH1 0xFF SWAP1 SWAP3 AND SWAP2 DUP4 JUMP JUMPDEST PUSH1 0x1 SLOAD PUSH1 0x1 PUSH1 0x1 PUSH1 0xA0 SHL SUB AND DUP2 JUMP JUMPDEST PUSH1 0x0 PUSH2 0xCF3 PUSH32 0x0 PUSH2 0x784 DUP5 PUSH32 0x0 PUSH1 0x1 PUSH1 0x1 PUSH1 0xA0 SHL SUB AND PUSH4 0x18160DDD PUSH1 0x40 MLOAD DUP2 PUSH4 0xFFFFFFFF AND PUSH1 0xE0 SHL DUP2 MSTORE PUSH1 0x4 ADD PUSH1 0x20 PUSH1 0x40 MLOAD DUP1 DUP4 SUB DUP2 DUP7 DUP1 EXTCODESIZE ISZERO DUP1 ISZERO PUSH2 0xCC1 JUMPI PUSH1 0x0 DUP1 REVERT JUMPDEST POP GAS STATICCALL ISZERO DUP1 ISZERO PUSH2 0xCD5 JUMPI RETURNDATASIZE PUSH1 0x0 DUP1 RETURNDATACOPY RETURNDATASIZE PUSH1 0x0 REVERT JUMPDEST POP POP POP POP PUSH1 0x40 MLOAD RETURNDATASIZE PUSH1 0x20 DUP2 LT ISZERO PUSH2 0xCEB JUMPI PUSH1 0x0 DUP1 REVERT JUMPDEST POP MLOAD SWAP1 PUSH2 0x126A JUMP JUMPDEST SWAP3 SWAP2 POP POP JUMP JUMPDEST CALLER PUSH1 0x1 PUSH1 0x1 PUSH1 0xA0 SHL SUB PUSH32 0x0 AND EQ PUSH2 0xD65 JUMPI PUSH1 0x40 DUP1 MLOAD PUSH3 0x461BCD PUSH1 0xE5 SHL DUP2 MSTORE PUSH1 0x20 PUSH1 0x4 DUP3 ADD MSTORE PUSH1 0xC PUSH1 0x24 DUP3 ADD MSTORE PUSH12 0x4F6E6C79207374616B696E67 PUSH1 0xA0 SHL PUSH1 0x44 DUP3 ADD MSTORE SWAP1 MLOAD SWAP1 DUP2 SWAP1 SUB PUSH1 0x64 ADD SWAP1 REVERT JUMPDEST PUSH1 0x0 JUMPDEST PUSH1 0x4 SLOAD DUP2 LT ISZERO PUSH2 0xE79 JUMPI PUSH1 0x0 PUSH1 0x4 DUP3 DUP2 SLOAD DUP2 LT PUSH2 0xD81 JUMPI INVALID JUMPDEST SWAP1 PUSH1 0x0 MSTORE PUSH1 0x20 PUSH1 0x0 KECCAK256 SWAP1 PUSH1 0x2 MUL ADD PUSH1 0x0 ADD SLOAD GT ISZERO PUSH2 0xE71 JUMPI PUSH32 0x0 PUSH1 0x1 PUSH1 0x1 PUSH1 0xA0 SHL SUB AND PUSH4 0x40C10F19 PUSH1 0x4 DUP4 DUP2 SLOAD DUP2 LT PUSH2 0xDD5 JUMPI INVALID JUMPDEST SWAP1 PUSH1 0x0 MSTORE PUSH1 0x20 PUSH1 0x0 KECCAK256 SWAP1 PUSH1 0x2 MUL ADD PUSH1 0x1 ADD PUSH1 0x0 SWAP1 SLOAD SWAP1 PUSH2 0x100 EXP SWAP1 DIV PUSH1 0x1 PUSH1 0x1 PUSH1 0xA0 SHL SUB AND PUSH2 0xE0A PUSH1 0x4 DUP6 DUP2 SLOAD DUP2 LT PUSH2 0x343 JUMPI INVALID JUMPDEST PUSH1 0x40 MLOAD DUP4 PUSH4 0xFFFFFFFF AND PUSH1 0xE0 SHL DUP2 MSTORE PUSH1 0x4 ADD DUP1 DUP4 PUSH1 0x1 PUSH1 0x1 PUSH1 0xA0 SHL SUB AND DUP2 MSTORE PUSH1 0x20 ADD DUP3 DUP2 MSTORE PUSH1 0x20 ADD SWAP3 POP POP POP PUSH1 0x0 PUSH1 0x40 MLOAD DUP1 DUP4 SUB DUP2 PUSH1 0x0 DUP8 DUP1 EXTCODESIZE ISZERO DUP1 ISZERO PUSH2 0xE50 JUMPI PUSH1 0x0 DUP1 REVERT JUMPDEST POP GAS CALL ISZERO DUP1 ISZERO PUSH2 0xE64 JUMPI RETURNDATASIZE PUSH1 0x0 DUP1 RETURNDATACOPY RETURNDATASIZE PUSH1 0x0 REVERT JUMPDEST POP POP POP POP PUSH2 0xE71 DUP2 PUSH2 0x1305 JUMP JUMPDEST PUSH1 0x1 ADD PUSH2 0xD68 JUMP JUMPDEST POP JUMP JUMPDEST PUSH1 0x0 CALLER PUSH1 0x1 PUSH1 0x1 PUSH1 0xA0 SHL SUB PUSH32 0x0 AND EQ PUSH2 0xEEA JUMPI PUSH1 0x40 DUP1 MLOAD PUSH3 0x461BCD PUSH1 0xE5 SHL DUP2 MSTORE PUSH1 0x20 PUSH1 0x4 DUP3 ADD MSTORE PUSH1 0xC PUSH1 0x24 DUP3 ADD MSTORE PUSH12 0x4F6E6C79207374616B696E67 PUSH1 0xA0 SHL PUSH1 0x44 DUP3 ADD MSTORE SWAP1 MLOAD SWAP1 DUP2 SWAP1 SUB PUSH1 0x64 ADD SWAP1 REVERT JUMPDEST PUSH1 0x3 SLOAD ISZERO PUSH2 0xFA4 JUMPI PUSH32 0x0 PUSH1 0x1 PUSH1 0x1 PUSH1 0xA0 SHL SUB AND PUSH4 0x40C10F19 PUSH32 0x0 PUSH1 0x3 SLOAD PUSH1 0x40 MLOAD DUP4 PUSH4 0xFFFFFFFF AND PUSH1 0xE0 SHL DUP2 MSTORE PUSH1 0x4 ADD DUP1 DUP4 PUSH1 0x1 PUSH1 0x1 PUSH1 0xA0 SHL SUB AND DUP2 MSTORE PUSH1 0x20 ADD DUP3 DUP2 MSTORE PUSH1 0x20 ADD SWAP3 POP POP POP PUSH1 0x0 PUSH1 0x40 MLOAD DUP1 DUP4 SUB DUP2 PUSH1 0x0 DUP8 DUP1 EXTCODESIZE ISZERO DUP1 ISZERO PUSH2 0xF8B JUMPI PUSH1 0x0 DUP1 REVERT JUMPDEST POP GAS CALL ISZERO DUP1 ISZERO PUSH2 0xF9F JUMPI RETURNDATASIZE PUSH1 0x0 DUP1 RETURNDATACOPY RETURNDATASIZE PUSH1 0x0 REVERT JUMPDEST POP POP POP POP JUMPDEST POP PUSH1 0x3 SLOAD SWAP1 JUMP JUMPDEST PUSH1 0x1 PUSH1 0x0 SWAP1 SLOAD SWAP1 PUSH2 0x100 EXP SWAP1 DIV PUSH1 0x1 PUSH1 0x1 PUSH1 0xA0 SHL SUB AND PUSH1 0x1 PUSH1 0x1 PUSH1 0xA0 SHL SUB AND PUSH4 0xC340A24 PUSH1 0x40 MLOAD DUP2 PUSH4 0xFFFFFFFF AND PUSH1 0xE0 SHL DUP2 MSTORE PUSH1 0x4 ADD PUSH1 0x20 PUSH1 0x40 MLOAD DUP1 DUP4 SUB DUP2 DUP7 DUP1 EXTCODESIZE ISZERO DUP1 ISZERO PUSH2 0xFF9 JUMPI PUSH1 0x0 DUP1 REVERT JUMPDEST POP GAS STATICCALL ISZERO DUP1 ISZERO PUSH2 0x100D JUMPI RETURNDATASIZE PUSH1 0x0 DUP1 RETURNDATACOPY RETURNDATASIZE PUSH1 0x0 REVERT JUMPDEST POP POP POP POP PUSH1 0x40 MLOAD RETURNDATASIZE PUSH1 0x20 DUP2 LT ISZERO PUSH2 0x1023 JUMPI PUSH1 0x0 DUP1 REVERT JUMPDEST POP MLOAD PUSH1 0x0 SWAP1 PUSH1 0x1 PUSH1 0x1 PUSH1 0xA0 SHL SUB AND CALLER EQ PUSH2 0x1096 JUMPI PUSH1 0x40 MLOAD PUSH3 0x461BCD PUSH1 0xE5 SHL DUP2 MSTORE PUSH1 0x20 PUSH1 0x4 DUP3 ADD SWAP1 DUP2 MSTORE DUP3 SLOAD PUSH1 0x2 PUSH1 0x0 NOT PUSH2 0x100 PUSH1 0x1 DUP5 AND ISZERO MUL ADD SWAP1 SWAP2 AND DIV PUSH1 0x24 DUP4 ADD DUP2 SWAP1 MSTORE SWAP1 SWAP2 DUP3 SWAP2 PUSH1 0x44 SWAP1 SWAP2 ADD SWAP1 DUP5 SWAP1 DUP1 ISZERO PUSH2 0x489 JUMPI DUP1 PUSH1 0x1F LT PUSH2 0x45E JUMPI PUSH2 0x100 DUP1 DUP4 SLOAD DIV MUL DUP4 MSTORE SWAP2 PUSH1 0x20 ADD SWAP2 PUSH2 0x489 JUMP JUMPDEST POP PUSH1 0x1 PUSH1 0x1 PUSH1 0xA0 SHL SUB DUP3 AND PUSH2 0x10F2 JUMPI PUSH1 0x40 DUP1 MLOAD PUSH3 0x461BCD PUSH1 0xE5 SHL DUP2 MSTORE PUSH1 0x20 PUSH1 0x4 DUP3 ADD MSTORE PUSH1 0x17 PUSH1 0x24 DUP3 ADD MSTORE PUSH32 0x5A65726F20616464726573733A20526563697069656E74000000000000000000 PUSH1 0x44 DUP3 ADD MSTORE SWAP1 MLOAD SWAP1 DUP2 SWAP1 SUB PUSH1 0x64 ADD SWAP1 REVERT JUMPDEST PUSH32 0x0 DUP2 GT ISZERO PUSH2 0x1167 JUMPI PUSH1 0x40 DUP1 MLOAD PUSH3 0x461BCD PUSH1 0xE5 SHL DUP2 MSTORE PUSH1 0x20 PUSH1 0x4 DUP3 ADD MSTORE PUSH1 0x1E PUSH1 0x24 DUP3 ADD MSTORE PUSH32 0x526174652063616E6E6F74206578636565642064656E6F6D696E61746F720000 PUSH1 0x44 DUP3 ADD MSTORE SWAP1 MLOAD SWAP1 DUP2 SWAP1 SUB PUSH1 0x64 ADD SWAP1 REVERT JUMPDEST PUSH1 0x40 DUP1 MLOAD DUP1 DUP3 ADD SWAP1 SWAP2 MSTORE SWAP1 DUP2 MSTORE PUSH1 0x1 PUSH1 0x1 PUSH1 0xA0 SHL SUB SWAP2 DUP3 AND PUSH1 0x20 DUP3 ADD SWAP1 DUP2 MSTORE PUSH1 0x4 DUP1 SLOAD PUSH1 0x1 DUP2 ADD DUP3 SSTORE PUSH1 0x0 SWAP2 SWAP1 SWAP2 MSTORE SWAP2 MLOAD PUSH32 0x8A35ACFBC15FF81A39AE7D344FD709F28E8600B4AA8C65C6B64BFE7FE36BD19B PUSH1 0x2 SWAP1 SWAP4 MUL SWAP3 DUP4 ADD SSTORE MLOAD PUSH32 0x8A35ACFBC15FF81A39AE7D344FD709F28E8600B4AA8C65C6B64BFE7FE36BD19C SWAP1 SWAP2 ADD DUP1 SLOAD PUSH20 0xFFFFFFFFFFFFFFFFFFFFFFFFFFFFFFFFFFFFFFFF NOT AND SWAP2 SWAP1 SWAP3 AND OR SWAP1 SSTORE JUMP JUMPDEST PUSH1 0x0 DUP3 DUP3 ADD DUP4 DUP2 LT ISZERO PUSH2 0x1263 JUMPI PUSH1 0x40 DUP1 MLOAD PUSH3 0x461BCD PUSH1 0xE5 SHL DUP2 MSTORE PUSH1 0x20 PUSH1 0x4 DUP3 ADD MSTORE PUSH1 0x1B PUSH1 0x24 DUP3 ADD MSTORE PUSH32 0x536166654D6174683A206164646974696F6E206F766572666C6F770000000000 PUSH1 0x44 DUP3 ADD MSTORE SWAP1 MLOAD SWAP1 DUP2 SWAP1 SUB PUSH1 0x64 ADD SWAP1 REVERT JUMPDEST SWAP4 SWAP3 POP POP POP JUMP JUMPDEST PUSH1 0x0 DUP3 PUSH2 0x1279 JUMPI POP PUSH1 0x0 PUSH2 0xCF3 JUMP JUMPDEST DUP3 DUP3 MUL DUP3 DUP5 DUP3 DUP2 PUSH2 0x1286 JUMPI INVALID JUMPDEST DIV EQ PUSH2 0x1263 JUMPI PUSH1 0x40 MLOAD PUSH3 0x461BCD PUSH1 0xE5 SHL DUP2 MSTORE PUSH1 0x4 ADD DUP1 DUP1 PUSH1 0x20 ADD DUP3 DUP2 SUB DUP3 MSTORE PUSH1 0x21 DUP2 MSTORE PUSH1 0x20 ADD DUP1 PUSH2 0x169B PUSH1 0x21 SWAP2 CODECOPY PUSH1 0x40 ADD SWAP2 POP POP PUSH1 0x40 MLOAD DUP1 SWAP2 SUB SWAP1 REVERT JUMPDEST PUSH1 0x0 PUSH2 0x1263 DUP4 DUP4 PUSH1 0x40 MLOAD DUP1 PUSH1 0x40 ADD PUSH1 0x40 MSTORE DUP1 PUSH1 0x1A DUP2 MSTORE PUSH1 0x20 ADD PUSH32 0x536166654D6174683A206469766973696F6E206279207A65726F000000000000 DUP2 MSTORE POP PUSH2 0x1505 JUMP JUMPDEST PUSH2 0x130D PUSH2 0x1655 JUMP JUMPDEST POP PUSH1 0x0 DUP2 DUP2 MSTORE PUSH1 0x2 PUSH1 0x20 DUP2 DUP2 MSTORE PUSH1 0x40 SWAP3 DUP4 SWAP1 KECCAK256 DUP4 MLOAD PUSH1 0x60 DUP2 ADD DUP6 MSTORE DUP2 SLOAD PUSH1 0xFF AND ISZERO ISZERO DUP2 MSTORE PUSH1 0x1 DUP3 ADD SLOAD SWAP3 DUP2 ADD DUP4 SWAP1 MSTORE SWAP3 ADD SLOAD SWAP3 DUP3 ADD SWAP3 SWAP1 SWAP3 MSTORE SWAP1 ISZERO PUSH2 0x1501 JUMPI DUP1 MLOAD ISZERO PUSH2 0x1405 JUMPI PUSH2 0x137F DUP2 PUSH1 0x20 ADD MLOAD PUSH1 0x4 DUP5 DUP2 SLOAD DUP2 LT PUSH2 0x1368 JUMPI INVALID JUMPDEST PUSH1 0x0 SWAP2 DUP3 MSTORE PUSH1 0x20 SWAP1 SWAP2 KECCAK256 PUSH1 0x2 SWAP1 SWAP2 MUL ADD SLOAD SWAP1 PUSH2 0x1209 JUMP JUMPDEST PUSH1 0x4 DUP4 DUP2 SLOAD DUP2 LT PUSH2 0x138C JUMPI INVALID JUMPDEST PUSH1 0x0 SWAP2 DUP3 MSTORE PUSH1 0x20 SWAP1 SWAP2 KECCAK256 PUSH1 0x2 SWAP1 SWAP2 MUL ADD SSTORE PUSH1 0x40 DUP2 ADD MLOAD PUSH1 0x4 DUP1 SLOAD DUP5 SWAP1 DUP2 LT PUSH2 0x13B0 JUMPI INVALID JUMPDEST SWAP1 PUSH1 0x0 MSTORE PUSH1 0x20 PUSH1 0x0 KECCAK256 SWAP1 PUSH1 0x2 MUL ADD PUSH1 0x0 ADD SLOAD LT PUSH2 0x1400 JUMPI PUSH1 0x0 DUP3 DUP2 MSTORE PUSH1 0x2 PUSH1 0x20 MSTORE PUSH1 0x40 DUP1 DUP3 KECCAK256 PUSH1 0x1 ADD SWAP2 SWAP1 SWAP2 SSTORE DUP2 ADD MLOAD PUSH1 0x4 DUP1 SLOAD DUP5 SWAP1 DUP2 LT PUSH2 0x13EE JUMPI INVALID JUMPDEST PUSH1 0x0 SWAP2 DUP3 MSTORE PUSH1 0x20 SWAP1 SWAP2 KECCAK256 PUSH1 0x2 SWAP1 SWAP2 MUL ADD SSTORE JUMPDEST PUSH2 0x1501 JUMP JUMPDEST DUP1 PUSH1 0x20 ADD MLOAD PUSH1 0x4 DUP4 DUP2 SLOAD DUP2 LT PUSH2 0x1417 JUMPI INVALID JUMPDEST SWAP1 PUSH1 0x0 MSTORE PUSH1 0x20 PUSH1 0x0 KECCAK256 SWAP1 PUSH1 0x2 MUL ADD PUSH1 0x0 ADD SLOAD GT ISZERO PUSH2 0x147E JUMPI PUSH2 0x145B DUP2 PUSH1 0x20 ADD MLOAD PUSH1 0x4 DUP5 DUP2 SLOAD DUP2 LT PUSH2 0x1444 JUMPI INVALID JUMPDEST PUSH1 0x0 SWAP2 DUP3 MSTORE PUSH1 0x20 SWAP1 SWAP2 KECCAK256 PUSH1 0x2 SWAP1 SWAP2 MUL ADD SLOAD SWAP1 PUSH2 0x15BE JUMP JUMPDEST PUSH1 0x4 DUP4 DUP2 SLOAD DUP2 LT PUSH2 0x1468 JUMPI INVALID JUMPDEST PUSH1 0x0 SWAP2 DUP3 MSTORE PUSH1 0x20 SWAP1 SWAP2 KECCAK256 PUSH1 0x2 SWAP1 SWAP2 MUL ADD SSTORE PUSH2 0x149F JUMP JUMPDEST PUSH1 0x0 PUSH1 0x4 DUP4 DUP2 SLOAD DUP2 LT PUSH2 0x148D JUMPI INVALID JUMPDEST PUSH1 0x0 SWAP2 DUP3 MSTORE PUSH1 0x20 SWAP1 SWAP2 KECCAK256 PUSH1 0x2 SWAP1 SWAP2 MUL ADD SSTORE JUMPDEST DUP1 PUSH1 0x40 ADD MLOAD PUSH1 0x4 DUP4 DUP2 SLOAD DUP2 LT PUSH2 0x14B1 JUMPI INVALID JUMPDEST SWAP1 PUSH1 0x0 MSTORE PUSH1 0x20 PUSH1 0x0 KECCAK256 SWAP1 PUSH1 0x2 MUL ADD PUSH1 0x0 ADD SLOAD GT PUSH2 0x1501 JUMPI PUSH1 0x0 DUP3 DUP2 MSTORE PUSH1 0x2 PUSH1 0x20 MSTORE PUSH1 0x40 DUP1 DUP3 KECCAK256 PUSH1 0x1 ADD SWAP2 SWAP1 SWAP2 SSTORE DUP2 ADD MLOAD PUSH1 0x4 DUP1 SLOAD DUP5 SWAP1 DUP2 LT PUSH2 0x14EF JUMPI INVALID JUMPDEST PUSH1 0x0 SWAP2 DUP3 MSTORE PUSH1 0x20 SWAP1 SWAP2 KECCAK256 PUSH1 0x2 SWAP1 SWAP2 MUL ADD SSTORE JUMPDEST POP POP JUMP JUMPDEST PUSH1 0x0 DUP2 DUP4 PUSH2 0x1591 JUMPI PUSH1 0x40 MLOAD PUSH3 0x461BCD PUSH1 0xE5 SHL DUP2 MSTORE PUSH1 0x4 ADD DUP1 DUP1 PUSH1 0x20 ADD DUP3 DUP2 SUB DUP3 MSTORE DUP4 DUP2 DUP2 MLOAD DUP2 MSTORE PUSH1 0x20 ADD SWAP2 POP DUP1 MLOAD SWAP1 PUSH1 0x20 ADD SWAP1 DUP1 DUP4 DUP4 PUSH1 0x0 JUMPDEST DUP4 DUP2 LT ISZERO PUSH2 0x1556 JUMPI DUP2 DUP2 ADD MLOAD DUP4 DUP3 ADD MSTORE PUSH1 0x20 ADD PUSH2 0x153E JUMP JUMPDEST POP POP POP POP SWAP1 POP SWAP1 DUP2 ADD SWAP1 PUSH1 0x1F AND DUP1 ISZERO PUSH2 0x1583 JUMPI DUP1 DUP3 SUB DUP1 MLOAD PUSH1 0x1 DUP4 PUSH1 0x20 SUB PUSH2 0x100 EXP SUB NOT AND DUP2 MSTORE PUSH1 0x20 ADD SWAP2 POP JUMPDEST POP SWAP3 POP POP POP PUSH1 0x40 MLOAD DUP1 SWAP2 SUB SWAP1 REVERT JUMPDEST POP PUSH1 0x0 DUP4 DUP6 DUP2 PUSH2 0x159D JUMPI INVALID JUMPDEST DIV SWAP1 POP DUP4 DUP6 DUP2 PUSH2 0x15A9 JUMPI INVALID JUMPDEST MOD DUP2 DUP6 MUL ADD DUP6 EQ PUSH2 0x15B6 JUMPI INVALID JUMPDEST SWAP5 SWAP4 POP POP POP POP JUMP JUMPDEST PUSH1 0x0 PUSH2 0x1263 DUP4 DUP4 PUSH1 0x40 MLOAD DUP1 PUSH1 0x40 ADD PUSH1 0x40 MSTORE DUP1 PUSH1 0x1E DUP2 MSTORE PUSH1 0x20 ADD PUSH32 0x536166654D6174683A207375627472616374696F6E206F766572666C6F770000 DUP2 MSTORE POP PUSH1 0x0 DUP2 DUP5 DUP5 GT ISZERO PUSH2 0x164D JUMPI PUSH1 0x40 MLOAD PUSH3 0x461BCD PUSH1 0xE5 SHL DUP2 MSTORE PUSH1 0x20 PUSH1 0x4 DUP3 ADD DUP2 DUP2 MSTORE DUP4 MLOAD PUSH1 0x24 DUP5 ADD MSTORE DUP4 MLOAD SWAP1 SWAP3 DUP4 SWAP3 PUSH1 0x44 SWAP1 SWAP2 ADD SWAP2 SWAP1 DUP6 ADD SWAP1 DUP1 DUP4 DUP4 PUSH1 0x0 DUP4 ISZERO PUSH2 0x1556 JUMPI DUP2 DUP2 ADD MLOAD DUP4 DUP3 ADD MSTORE PUSH1 0x20 ADD PUSH2 0x153E JUMP JUMPDEST POP POP POP SWAP1 SUB SWAP1 JUMP JUMPDEST PUSH1 0x40 MLOAD DUP1 PUSH1 0x60 ADD PUSH1 0x40 MSTORE DUP1 PUSH1 0x0 ISZERO ISZERO DUP2 MSTORE PUSH1 0x20 ADD PUSH1 0x0 DUP2 MSTORE PUSH1 0x20 ADD PUSH1 0x0 DUP2 MSTORE POP SWAP1 JUMP INVALID NUMBER PUSH2 0x6C6C PUSH6 0x72206973206E PUSH16 0x7420676F7665726E6F72206F72206775 PUSH2 0x7264 PUSH10 0x616E536166654D617468 GASPRICE KECCAK256 PUSH14 0x756C7469706C69636174696F6E20 PUSH16 0x766572666C6F7743616E6E6F74206465 PUSH4 0x72656173 PUSH6 0x207261746520 PUSH3 0x79206D PUSH16 0x7265207468616E20697420616C726561 PUSH5 0x79206973A2 PUSH5 0x6970667358 0x22 SLT KECCAK256 0xCC PUSH1 0x84 JUMP 0x1F 0xC6 0xC6 PUSH19 0xC74678B3159C4638C3B8F9E92625C360469C80 ADDRESS PC RETURNDATASIZE PUSH21 0xCA64736F6C63430007050033000000000000000000 "
				},
				"gasEstimates": {
					"creation": {
						"codeDepositCost": "1184000",
						"executionCost": "infinite",
						"totalCost": "infinite"
					},
					"external": {
						"addRecipient(address,uint256)": "infinite",
						"adjustments(uint256)": "2844",
						"authority()": "1104",
						"bounty()": "1021",
						"distribute()": "infinite",
						"info(uint256)": "2844",
						"nextRewardAt(uint256)": "infinite",
						"nextRewardFor(address)": "infinite",
						"removeRecipient(uint256)": "infinite",
						"retrieveBounty()": "infinite",
						"setAdjustment(uint256,bool,uint256,uint256)": "infinite",
						"setAuthority(address)": "infinite",
						"setBounty(uint256)": "infinite"
					},
					"internal": {
						"adjust(uint256)": "infinite"
					}
				},
				"methodIdentifiers": {
					"addRecipient(address,uint256)": "f7982243",
					"adjustments(uint256)": "bc3b2b12",
					"authority()": "bf7e214f",
					"bounty()": "943dfef1",
					"distribute()": "e4fc6b6d",
					"info(uint256)": "2e340599",
					"nextRewardAt(uint256)": "c9fa8b2a",
					"nextRewardFor(address)": "36d33f44",
					"removeRecipient(uint256)": "8e69e255",
					"retrieveBounty()": "e7187e8a",
					"setAdjustment(uint256,bool,uint256,uint256)": "5db854b0",
					"setAuthority(address)": "7a9e5e4b",
					"setBounty(uint256)": "5d87d363"
				}
			},
			"storageLayout": {
				"storage": [
					{
						"astId": 283,
						"contract": "Distributor/StakingDistributor.sol:Distributor",
						"label": "UNAUTHORIZED",
						"offset": 0,
						"slot": "0",
						"type": "t_string_storage"
					},
					{
						"astId": 285,
						"contract": "Distributor/StakingDistributor.sol:Distributor",
						"label": "authority",
						"offset": 0,
						"slot": "1",
						"type": "t_contract(IExodusAuthority)205"
					},
					{
						"astId": 797,
						"contract": "Distributor/StakingDistributor.sol:Distributor",
						"label": "adjustments",
						"offset": 0,
						"slot": "2",
						"type": "t_mapping(t_uint256,t_struct(Adjust)818_storage)"
					},
					{
						"astId": 800,
						"contract": "Distributor/StakingDistributor.sol:Distributor",
						"label": "bounty",
						"offset": 0,
						"slot": "3",
						"type": "t_uint256"
					},
					{
						"astId": 811,
						"contract": "Distributor/StakingDistributor.sol:Distributor",
						"label": "info",
						"offset": 0,
						"slot": "4",
						"type": "t_array(t_struct(Info)808_storage)dyn_storage"
					}
				],
				"types": {
					"t_address": {
						"encoding": "inplace",
						"label": "address",
						"numberOfBytes": "20"
					},
					"t_array(t_struct(Info)808_storage)dyn_storage": {
						"base": "t_struct(Info)808_storage",
						"encoding": "dynamic_array",
						"label": "struct Distributor.Info[]",
						"numberOfBytes": "32"
					},
					"t_bool": {
						"encoding": "inplace",
						"label": "bool",
						"numberOfBytes": "1"
					},
					"t_contract(IExodusAuthority)205": {
						"encoding": "inplace",
						"label": "contract IExodusAuthority",
						"numberOfBytes": "20"
					},
					"t_mapping(t_uint256,t_struct(Adjust)818_storage)": {
						"encoding": "mapping",
						"key": "t_uint256",
						"label": "mapping(uint256 => struct Distributor.Adjust)",
						"numberOfBytes": "32",
						"value": "t_struct(Adjust)818_storage"
					},
					"t_string_storage": {
						"encoding": "bytes",
						"label": "string",
						"numberOfBytes": "32"
					},
					"t_struct(Adjust)818_storage": {
						"encoding": "inplace",
						"label": "struct Distributor.Adjust",
						"members": [
							{
								"astId": 813,
								"contract": "Distributor/StakingDistributor.sol:Distributor",
								"label": "add",
								"offset": 0,
								"slot": "0",
								"type": "t_bool"
							},
							{
								"astId": 815,
								"contract": "Distributor/StakingDistributor.sol:Distributor",
								"label": "rate",
								"offset": 0,
								"slot": "1",
								"type": "t_uint256"
							},
							{
								"astId": 817,
								"contract": "Distributor/StakingDistributor.sol:Distributor",
								"label": "target",
								"offset": 0,
								"slot": "2",
								"type": "t_uint256"
							}
						],
						"numberOfBytes": "96"
					},
					"t_struct(Info)808_storage": {
						"encoding": "inplace",
						"label": "struct Distributor.Info",
						"members": [
							{
								"astId": 805,
								"contract": "Distributor/StakingDistributor.sol:Distributor",
								"label": "rate",
								"offset": 0,
								"slot": "0",
								"type": "t_uint256"
							},
							{
								"astId": 807,
								"contract": "Distributor/StakingDistributor.sol:Distributor",
								"label": "recipient",
								"offset": 0,
								"slot": "1",
								"type": "t_address"
							}
						],
						"numberOfBytes": "64"
					},
					"t_uint256": {
						"encoding": "inplace",
						"label": "uint256",
						"numberOfBytes": "32"
					}
				}
			},
			"userdoc": {
				"kind": "user",
				"methods": {
					"addRecipient(address,uint256)": {
						"notice": "adds recipient for distributions"
					},
					"distribute()": {
						"notice": "send epoch reward to staking contract"
					},
					"nextRewardAt(uint256)": {
						"notice": "view function for next reward at given rate"
					},
					"nextRewardFor(address)": {
						"notice": "view function for next reward for specified address"
					},
					"removeRecipient(uint256)": {
						"notice": "removes recipient for distributions"
					},
					"setAdjustment(uint256,bool,uint256,uint256)": {
						"notice": "set adjustment info for a collector's reward rate"
					},
					"setBounty(uint256)": {
						"notice": "set bounty to incentivize keepers"
					}
				},
				"version": 1
			}
		}
	}
}