{
	"DAI/DAI.sol": {
		"DAI": {
			"abi": [
				{
					"inputs": [
						{
							"internalType": "uint256",
							"name": "chainId_",
							"type": "uint256"
						}
					],
					"stateMutability": "nonpayable",
					"type": "constructor"
				},
				{
					"anonymous": false,
					"inputs": [
						{
							"indexed": true,
							"internalType": "address",
							"name": "src",
							"type": "address"
						},
						{
							"indexed": true,
							"internalType": "address",
							"name": "guy",
							"type": "address"
						},
						{
							"indexed": false,
							"internalType": "uint256",
							"name": "wad",
							"type": "uint256"
						}
					],
					"name": "Approval",
					"type": "event"
				},
				{
					"anonymous": true,
					"inputs": [
						{
							"indexed": true,
							"internalType": "bytes4",
							"name": "sig",
							"type": "bytes4"
						},
						{
							"indexed": true,
							"internalType": "address",
							"name": "usr",
							"type": "address"
						},
						{
							"indexed": true,
							"internalType": "bytes32",
							"name": "arg1",
							"type": "bytes32"
						},
						{
							"indexed": true,
							"internalType": "bytes32",
							"name": "arg2",
							"type": "bytes32"
						},
						{
							"indexed": false,
							"internalType": "bytes",
							"name": "data",
							"type": "bytes"
						}
					],
					"name": "LogNote",
					"type": "event"
				},
				{
					"anonymous": false,
					"inputs": [
						{
							"indexed": true,
							"internalType": "address",
							"name": "src",
							"type": "address"
						},
						{
							"indexed": true,
							"internalType": "address",
							"name": "dst",
							"type": "address"
						},
						{
							"indexed": false,
							"internalType": "uint256",
							"name": "wad",
							"type": "uint256"
						}
					],
					"name": "Transfer",
					"type": "event"
				},
				{
					"inputs": [],
					"name": "DOMAIN_SEPARATOR",
					"outputs": [
						{
							"internalType": "bytes32",
							"name": "",
							"type": "bytes32"
						}
					],
					"stateMutability": "view",
					"type": "function"
				},
				{
					"inputs": [],
					"name": "PERMIT_TYPEHASH",
					"outputs": [
						{
							"internalType": "bytes32",
							"name": "",
							"type": "bytes32"
						}
					],
					"stateMutability": "view",
					"type": "function"
				},
				{
					"inputs": [
						{
							"internalType": "address",
							"name": "usr",
							"type": "address"
						}
					],
					"name": "addAuth",
					"outputs": [],
					"stateMutability": "nonpayable",
					"type": "function"
				},
				{
					"inputs": [
						{
							"internalType": "uint256",
							"name": "_limit",
							"type": "uint256"
						}
					],
					"name": "adjustDailyDAILimit",
					"outputs": [],
					"stateMutability": "nonpayable",
					"type": "function"
				},
				{
					"inputs": [
						{
							"internalType": "address",
							"name": "account_",
							"type": "address"
						},
						{
							"internalType": "address",
							"name": "sender_",
							"type": "address"
						}
					],
					"name": "allowance",
					"outputs": [
						{
							"internalType": "uint256",
							"name": "",
							"type": "uint256"
						}
					],
					"stateMutability": "view",
					"type": "function"
				},
				{
					"inputs": [
						{
							"internalType": "address",
							"name": "usr_",
							"type": "address"
						},
						{
							"internalType": "uint256",
							"name": "wad_",
							"type": "uint256"
						}
					],
					"name": "approve",
					"outputs": [
						{
							"internalType": "bool",
							"name": "",
							"type": "bool"
						}
					],
					"stateMutability": "nonpayable",
					"type": "function"
				},
				{
					"inputs": [
						{
							"internalType": "address",
							"name": "",
							"type": "address"
						}
					],
					"name": "balanceOf",
					"outputs": [
						{
							"internalType": "uint256",
							"name": "",
							"type": "uint256"
						}
					],
					"stateMutability": "view",
					"type": "function"
				},
				{
					"inputs": [
						{
							"internalType": "address",
							"name": "usr",
							"type": "address"
						},
						{
							"internalType": "uint256",
							"name": "wad",
							"type": "uint256"
						}
					],
					"name": "burn",
					"outputs": [],
					"stateMutability": "nonpayable",
					"type": "function"
				},
				{
					"inputs": [
						{
							"internalType": "address",
							"name": "",
							"type": "address"
						}
					],
					"name": "daiMintedToday",
					"outputs": [
						{
							"internalType": "uint256",
							"name": "",
							"type": "uint256"
						}
					],
					"stateMutability": "view",
					"type": "function"
				},
				{
					"inputs": [],
					"name": "dailyDAILimit",
					"outputs": [
						{
							"internalType": "uint256",
							"name": "",
							"type": "uint256"
						}
					],
					"stateMutability": "view",
					"type": "function"
				},
				{
					"inputs": [],
					"name": "decimals",
					"outputs": [
						{
							"internalType": "uint8",
							"name": "",
							"type": "uint8"
						}
					],
					"stateMutability": "view",
					"type": "function"
				},
				{
					"inputs": [
						{
							"internalType": "address",
							"name": "guy",
							"type": "address"
						}
					],
					"name": "deny",
					"outputs": [],
					"stateMutability": "nonpayable",
					"type": "function"
				},
				{
					"inputs": [
						{
							"internalType": "address",
							"name": "",
							"type": "address"
						}
					],
					"name": "lastMintRestart",
					"outputs": [
						{
							"internalType": "uint256",
							"name": "",
							"type": "uint256"
						}
					],
					"stateMutability": "view",
					"type": "function"
				},
				{
					"inputs": [
						{
							"internalType": "address",
							"name": "usr",
							"type": "address"
						},
						{
							"internalType": "uint256",
							"name": "wad",
							"type": "uint256"
						}
					],
					"name": "mint",
					"outputs": [],
					"stateMutability": "nonpayable",
					"type": "function"
				},
				{
					"inputs": [
						{
							"internalType": "address",
							"name": "src",
							"type": "address"
						},
						{
							"internalType": "address",
							"name": "dst",
							"type": "address"
						},
						{
							"internalType": "uint256",
							"name": "wad",
							"type": "uint256"
						}
					],
					"name": "move",
					"outputs": [],
					"stateMutability": "nonpayable",
					"type": "function"
				},
				{
					"inputs": [],
					"name": "name",
					"outputs": [
						{
							"internalType": "string",
							"name": "",
							"type": "string"
						}
					],
					"stateMutability": "view",
					"type": "function"
				},
				{
					"inputs": [
						{
							"internalType": "address",
							"name": "",
							"type": "address"
						}
					],
					"name": "nonces",
					"outputs": [
						{
							"internalType": "uint256",
							"name": "",
							"type": "uint256"
						}
					],
					"stateMutability": "view",
					"type": "function"
				},
				{
					"inputs": [
						{
							"internalType": "address",
							"name": "holder",
							"type": "address"
						},
						{
							"internalType": "address",
							"name": "spender",
							"type": "address"
						},
						{
							"internalType": "uint256",
							"name": "nonce",
							"type": "uint256"
						},
						{
							"internalType": "uint256",
							"name": "expiry",
							"type": "uint256"
						},
						{
							"internalType": "bool",
							"name": "allowed",
							"type": "bool"
						},
						{
							"internalType": "uint8",
							"name": "v",
							"type": "uint8"
						},
						{
							"internalType": "bytes32",
							"name": "r",
							"type": "bytes32"
						},
						{
							"internalType": "bytes32",
							"name": "s",
							"type": "bytes32"
						}
					],
					"name": "permit",
					"outputs": [],
					"stateMutability": "nonpayable",
					"type": "function"
				},
				{
					"inputs": [
						{
							"internalType": "address",
							"name": "usr",
							"type": "address"
						},
						{
							"internalType": "uint256",
							"name": "wad",
							"type": "uint256"
						}
					],
					"name": "pull",
					"outputs": [],
					"stateMutability": "nonpayable",
					"type": "function"
				},
				{
					"inputs": [
						{
							"internalType": "address",
							"name": "usr",
							"type": "address"
						},
						{
							"internalType": "uint256",
							"name": "wad",
							"type": "uint256"
						}
					],
					"name": "push",
					"outputs": [],
					"stateMutability": "nonpayable",
					"type": "function"
				},
				{
					"inputs": [
						{
							"internalType": "address",
							"name": "guy",
							"type": "address"
						}
					],
					"name": "rely",
					"outputs": [],
					"stateMutability": "nonpayable",
					"type": "function"
				},
				{
					"inputs": [],
					"name": "symbol",
					"outputs": [
						{
							"internalType": "string",
							"name": "",
							"type": "string"
						}
					],
					"stateMutability": "view",
					"type": "function"
				},
				{
					"inputs": [],
					"name": "totalSupply",
					"outputs": [
						{
							"internalType": "uint256",
							"name": "",
							"type": "uint256"
						}
					],
					"stateMutability": "view",
					"type": "function"
				},
				{
					"inputs": [
						{
							"internalType": "address",
							"name": "dst",
							"type": "address"
						},
						{
							"internalType": "uint256",
							"name": "wad",
							"type": "uint256"
						}
					],
					"name": "transfer",
					"outputs": [
						{
							"internalType": "bool",
							"name": "",
							"type": "bool"
						}
					],
					"stateMutability": "nonpayable",
					"type": "function"
				},
				{
					"inputs": [
						{
							"internalType": "address",
							"name": "src",
							"type": "address"
						},
						{
							"internalType": "address",
							"name": "dst",
							"type": "address"
						},
						{
							"internalType": "uint256",
							"name": "wad",
							"type": "uint256"
						}
					],
					"name": "transferFrom",
					"outputs": [
						{
							"internalType": "bool",
							"name": "",
							"type": "bool"
						}
					],
					"stateMutability": "nonpayable",
					"type": "function"
				},
				{
					"inputs": [],
					"name": "version",
					"outputs": [
						{
							"internalType": "string",
							"name": "",
							"type": "string"
						}
					],
					"stateMutability": "view",
					"type": "function"
				},
				{
					"inputs": [
						{
							"internalType": "address",
							"name": "",
							"type": "address"
						}
					],
					"name": "wards",
					"outputs": [
						{
							"internalType": "uint256",
							"name": "",
							"type": "uint256"
						}
					],
					"stateMutability": "view",
					"type": "function"
				}
			],
			"devdoc": {
				"kind": "dev",
				"methods": {},
				"version": 1
			},
			"evm": {
				"assembly": "    /* \"DAI/DAI.sol\":3164:9610  contract DAI is LibNote {... */\n  mstore(0x40, 0x80)\n    /* \"DAI/DAI.sol\":4965:5421  constructor(uint256 chainId_) {... */\n  callvalue\n  dup1\n  iszero\n  tag_1\n  jumpi\n  0x00\n  dup1\n  revert\ntag_1:\n  pop\n  mload(0x40)\n  sub(codesize, bytecodeSize)\n  dup1\n  bytecodeSize\n  dup4\n  codecopy\n  dup2\n  dup2\n  add\n  0x40\n  mstore\n  0x20\n  dup2\n  lt\n  iszero\n  tag_2\n  jumpi\n  0x00\n  dup1\n  revert\ntag_2:\n  pop\n  mload\n    /* \"DAI/DAI.sol\":5011:5021  msg.sender */\n  caller\n    /* \"DAI/DAI.sol\":5005:5010  wards */\n  0x00\n    /* \"DAI/DAI.sol\":5005:5022  wards[msg.sender] */\n  swap1\n  dup2\n  mstore\n    /* \"DAI/DAI.sol\":4965:5421  constructor(uint256 chainId_) {... */\n  0x20\n    /* \"DAI/DAI.sol\":5005:5022  wards[msg.sender] */\n  dup2\n  dup2\n  mstore\n  0x40\n  swap2\n  dup3\n  swap1\n  keccak256\n    /* \"DAI/DAI.sol\":5025:5026  1 */\n  0x01\n    /* \"DAI/DAI.sol\":5005:5026  wards[msg.sender] = 1 */\n  swap1\n  dup2\n  swap1\n  sstore\n    /* \"DAI/DAI.sol\":5235:5239  name */\n  dup3\n  mload\n  dup1\n  dup5\n  add\n  dup5\n  mstore\n  0x0e\n  dup2\n  mstore\n  shl(0x91, 0x2230b49029ba30b13632b1b7b4b7)\n  swap1\n  dup4\n  add\n  mstore\n    /* \"DAI/DAI.sol\":5275:5282  version */\n  dup3\n  mload\n  dup1\n  dup5\n  add\n  dup5\n  mstore\n  swap1\n  dup2\n  mstore\n  shl(0xf8, 0x31)\n  swap1\n  dup3\n  add\n  mstore\n    /* \"DAI/DAI.sol\":5078:5355  abi.encode(... */\n  dup2\n  mload\n    /* \"DAI/DAI.sol\":5106:5201  keccak256(\"EIP712Domain(string name,string version,uint256 chainId,address verifyingContract)\") */\n  0x8b73c3c69bb8fe3d512ecc4cf759cc79239f7b179b0ffacaa9a75d522b39400f\n    /* \"DAI/DAI.sol\":5078:5355  abi.encode(... */\n  dup2\n  dup4\n  add\n  mstore\n    /* \"DAI/DAI.sol\":5219:5241  keccak256(bytes(name)) */\n  0x0b1461ddc0c1d5ded79a1db0f74dae949050a7c0b28728c724b24958c27a328b\n    /* \"DAI/DAI.sol\":5078:5355  abi.encode(... */\n  dup2\n  dup5\n  add\n  mstore\n    /* \"DAI/DAI.sol\":5259:5284  keccak256(bytes(version)) */\n  0xc89efdaa54c0f20c7adf612882df0950f5a951637e0307cdcb4c672f298b8bc6\n    /* \"DAI/DAI.sol\":5078:5355  abi.encode(... */\n  0x60\n  dup3\n  add\n  mstore\n  0x80\n  dup2\n  add\n  swap4\n  swap1\n  swap4\n  mstore\n    /* \"DAI/DAI.sol\":5336:5340  this */\n  address\n    /* \"DAI/DAI.sol\":5078:5355  abi.encode(... */\n  0xa0\n  dup1\n  dup6\n  add\n  swap2\n  swap1\n  swap2\n  mstore\n  dup3\n  mload\n  dup1\n  dup6\n  sub\n  swap1\n  swap2\n  add\n  dup2\n  mstore\n  0xc0\n  swap1\n  swap4\n  add\n  swap1\n  swap2\n  mstore\n    /* \"DAI/DAI.sol\":5055:5365  keccak256(... */\n  dup2\n  mload\n  swap2\n  add\n  keccak256\n    /* \"DAI/DAI.sol\":5036:5052  DOMAIN_SEPARATOR */\n  0x08\n    /* \"DAI/DAI.sol\":5036:5365  DOMAIN_SEPARATOR = keccak256(... */\n  sstore\n    /* \"DAI/DAI.sol\":5391:5414  10000000000000000000000 */\n  0x021e19e0c9bab2400000\n    /* \"DAI/DAI.sol\":5375:5388  dailyDAILimit */\n  0x02\n    /* \"DAI/DAI.sol\":5375:5414  dailyDAILimit = 10000000000000000000000 */\n  sstore\n    /* \"DAI/DAI.sol\":3164:9610  contract DAI is LibNote {... */\n  dataSize(sub_0)\n  dup1\n  dataOffset(sub_0)\n  0x00\n  codecopy\n  0x00\n  return\nstop\n\nsub_0: assembly {\n        /* \"DAI/DAI.sol\":3164:9610  contract DAI is LibNote {... */\n      mstore(0x40, 0x80)\n      callvalue\n      dup1\n      iszero\n      tag_1\n      jumpi\n      0x00\n      dup1\n      revert\n    tag_1:\n      pop\n      jumpi(tag_2, lt(calldatasize, 0x04))\n      shr(0xe0, calldataload(0x00))\n      dup1\n      0x798247ae\n      gt\n      tag_30\n      jumpi\n      dup1\n      0xa9059cbb\n      gt\n      tag_31\n      jumpi\n      dup1\n      0xbf353dbb\n      gt\n      tag_32\n      jumpi\n      dup1\n      0xbf353dbb\n      eq\n      tag_26\n      jumpi\n      dup1\n      0xdd62ed3e\n      eq\n      tag_27\n      jumpi\n      dup1\n      0xef1277e0\n      eq\n      tag_28\n      jumpi\n      dup1\n      0xf2d5d56b\n      eq\n      tag_29\n      jumpi\n      jump(tag_2)\n    tag_32:\n      dup1\n      0xa9059cbb\n      eq\n      tag_23\n      jumpi\n      dup1\n      0xb753a98c\n      eq\n      tag_24\n      jumpi\n      dup1\n      0xbb35783b\n      eq\n      tag_25\n      jumpi\n      jump(tag_2)\n    tag_31:\n      dup1\n      0x92bc513c\n      gt\n      tag_33\n      jumpi\n      dup1\n      0x92bc513c\n      eq\n      tag_19\n      jumpi\n      dup1\n      0x95d89b41\n      eq\n      tag_20\n      jumpi\n      dup1\n      0x9c52a7f1\n      eq\n      tag_21\n      jumpi\n      dup1\n      0x9dc29fac\n      eq\n      tag_22\n      jumpi\n      jump(tag_2)\n    tag_33:\n      dup1\n      0x798247ae\n      eq\n      tag_16\n      jumpi\n      dup1\n      0x7ecebe00\n      eq\n      tag_17\n      jumpi\n      dup1\n      0x8fcbaf0c\n      eq\n      tag_18\n      jumpi\n      jump(tag_2)\n    tag_30:\n      dup1\n      0x33b3cfc6\n      gt\n      tag_34\n      jumpi\n      dup1\n      0x5422224e\n      gt\n      tag_35\n      jumpi\n      dup1\n      0x5422224e\n      eq\n      tag_12\n      jumpi\n      dup1\n      0x54fd4d50\n      eq\n      tag_13\n      jumpi\n      dup1\n      0x65fae35e\n      eq\n      tag_12\n      jumpi\n      dup1\n      0x70a08231\n      eq\n      tag_15\n      jumpi\n      jump(tag_2)\n    tag_35:\n      dup1\n      0x33b3cfc6\n      eq\n      tag_9\n      jumpi\n      dup1\n      0x3644e515\n      eq\n      tag_10\n      jumpi\n      dup1\n      0x40c10f19\n      eq\n      tag_11\n      jumpi\n      jump(tag_2)\n    tag_34:\n      dup1\n      0x23b872dd\n      gt\n      tag_36\n      jumpi\n      dup1\n      0x23b872dd\n      eq\n      tag_6\n      jumpi\n      dup1\n      0x30adf81f\n      eq\n      tag_7\n      jumpi\n      dup1\n      0x313ce567\n      eq\n      tag_8\n      jumpi\n      jump(tag_2)\n    tag_36:\n      dup1\n      0x06fdde03\n      eq\n      tag_3\n      jumpi\n      dup1\n      0x095ea7b3\n      eq\n      tag_4\n      jumpi\n      dup1\n      0x18160ddd\n      eq\n      tag_5\n      jumpi\n    tag_2:\n      0x00\n      dup1\n      revert\n        /* \"DAI/DAI.sol\":3707:3753  string public constant name = \"Dai Stablecoin\" */\n    tag_3:\n      tag_37\n      tag_38\n      jump\t// in\n    tag_37:\n      0x40\n      dup1\n      mload\n      0x20\n      dup1\n      dup3\n      mstore\n      dup4\n      mload\n      dup2\n      dup4\n      add\n      mstore\n      dup4\n      mload\n      swap2\n      swap3\n      dup4\n      swap3\n      swap1\n      dup4\n      add\n      swap2\n      dup6\n      add\n      swap1\n      dup1\n      dup4\n      dup4\n      0x00\n    tag_39:\n      dup4\n      dup2\n      lt\n      iszero\n      tag_41\n      jumpi\n      dup2\n      dup2\n      add\n      mload\n      dup4\n      dup3\n      add\n      mstore\n      0x20\n      add\n      jump(tag_39)\n    tag_41:\n      pop\n      pop\n      pop\n      pop\n      swap1\n      pop\n      swap1\n      dup2\n      add\n      swap1\n      0x1f\n      and\n      dup1\n      iszero\n      tag_42\n      jumpi\n      dup1\n      dup3\n      sub\n      dup1\n      mload\n      0x01\n      dup4\n      0x20\n      sub\n      0x0100\n      exp\n      sub\n      not\n      and\n      dup2\n      mstore\n      0x20\n      add\n      swap2\n      pop\n    tag_42:\n      pop\n      swap3\n      pop\n      pop\n      pop\n      mload(0x40)\n      dup1\n      swap2\n      sub\n      swap1\n      return\n        /* \"DAI/DAI.sol\":8193:8306  function approve(address usr_, uint256 wad_) external returns (bool) {... */\n    tag_4:\n      tag_43\n      0x04\n      dup1\n      calldatasize\n      sub\n      0x40\n      dup2\n      lt\n      iszero\n      tag_44\n      jumpi\n      0x00\n      dup1\n      revert\n    tag_44:\n      pop\n      sub(shl(0xa0, 0x01), 0x01)\n      dup2\n      calldataload\n      and\n      swap1\n      0x20\n      add\n      calldataload\n      tag_45\n      jump\t// in\n    tag_43:\n      0x40\n      dup1\n      mload\n      swap2\n      iszero\n      iszero\n      dup3\n      mstore\n      mload\n      swap1\n      dup2\n      swap1\n      sub\n      0x20\n      add\n      swap1\n      return\n        /* \"DAI/DAI.sol\":3885:3911  uint256 public totalSupply */\n    tag_5:\n      tag_46\n      tag_47\n      jump\t// in\n    tag_46:\n      0x40\n      dup1\n      mload\n      swap2\n      dup3\n      mstore\n      mload\n      swap1\n      dup2\n      swap1\n      sub\n      0x20\n      add\n      swap1\n      return\n        /* \"DAI/DAI.sol\":5871:6477  function transferFrom(... */\n    tag_6:\n      tag_43\n      0x04\n      dup1\n      calldatasize\n      sub\n      0x60\n      dup2\n      lt\n      iszero\n      tag_49\n      jumpi\n      0x00\n      dup1\n      revert\n    tag_49:\n      pop\n      sub(shl(0xa0, 0x01), 0x01)\n      dup2\n      calldataload\n      dup2\n      and\n      swap2\n      0x20\n      dup2\n      add\n      calldataload\n      swap1\n      swap2\n      and\n      swap1\n      0x40\n      add\n      calldataload\n      tag_50\n      jump\t// in\n        /* \"DAI/DAI.sol\":4850:4958  bytes32 public constant PERMIT_TYPEHASH = 0xea2aa0a1be11a07ed86d755c93467f4f82362b452371d1ba94d1715123511acb */\n    tag_7:\n      tag_46\n      tag_52\n      jump\t// in\n        /* \"DAI/DAI.sol\":3844:3879  uint8 public constant decimals = 18 */\n    tag_8:\n      tag_53\n      tag_54\n      jump\t// in\n    tag_53:\n      0x40\n      dup1\n      mload\n      0xff\n      swap1\n      swap3\n      and\n      dup3\n      mstore\n      mload\n      swap1\n      dup2\n      swap1\n      sub\n      0x20\n      add\n      swap1\n      return\n        /* \"DAI/DAI.sol\":6564:6662  function adjustDailyDAILimit(uint256 _limit) external auth {... */\n    tag_9:\n      tag_55\n      0x04\n      dup1\n      calldatasize\n      sub\n      0x20\n      dup2\n      lt\n      iszero\n      tag_56\n      jumpi\n      0x00\n      dup1\n      revert\n    tag_56:\n      pop\n      calldataload\n      tag_57\n      jump\t// in\n    tag_55:\n      stop\n        /* \"DAI/DAI.sol\":4669:4700  bytes32 public DOMAIN_SEPARATOR */\n    tag_10:\n      tag_46\n      tag_59\n      jump\t// in\n        /* \"DAI/DAI.sol\":6668:7468  function mint(address usr, uint256 wad) external {... */\n    tag_11:\n      tag_55\n      0x04\n      dup1\n      calldatasize\n      sub\n      0x40\n      dup2\n      lt\n      iszero\n      tag_61\n      jumpi\n      0x00\n      dup1\n      revert\n    tag_61:\n      pop\n      sub(shl(0xa0, 0x01), 0x01)\n      dup2\n      calldataload\n      and\n      swap1\n      0x20\n      add\n      calldataload\n      tag_62\n      jump\t// in\n        /* \"DAI/DAI.sol\":6483:6558  function addAuth(address usr) external auth {... */\n    tag_12:\n      tag_55\n      0x04\n      dup1\n      calldatasize\n      sub\n      0x20\n      dup2\n      lt\n      iszero\n      tag_64\n      jumpi\n      0x00\n      dup1\n      revert\n    tag_64:\n      pop\n      calldataload\n      sub(shl(0xa0, 0x01), 0x01)\n      and\n      tag_65\n      jump\t// in\n        /* \"DAI/DAI.sol\":3802:3838  string public constant version = \"1\" */\n    tag_13:\n      tag_37\n      tag_67\n      jump\t// in\n        /* \"DAI/DAI.sol\":3952:3996  mapping(address => uint256) public balanceOf */\n    tag_15:\n      tag_46\n      0x04\n      dup1\n      calldatasize\n      sub\n      0x20\n      dup2\n      lt\n      iszero\n      tag_76\n      jumpi\n      0x00\n      dup1\n      revert\n    tag_76:\n      pop\n      calldataload\n      sub(shl(0xa0, 0x01), 0x01)\n      and\n      tag_77\n      jump\t// in\n        /* \"DAI/DAI.sol\":4121:4171  mapping(address => uint256) public lastMintRestart */\n    tag_16:\n      tag_46\n      0x04\n      dup1\n      calldatasize\n      sub\n      0x20\n      dup2\n      lt\n      iszero\n      tag_79\n      jumpi\n      0x00\n      dup1\n      revert\n    tag_79:\n      pop\n      calldataload\n      sub(shl(0xa0, 0x01), 0x01)\n      and\n      tag_80\n      jump\t// in\n        /* \"DAI/DAI.sol\":4074:4115  mapping(address => uint256) public nonces */\n    tag_17:\n      tag_46\n      0x04\n      dup1\n      calldatasize\n      sub\n      0x20\n      dup2\n      lt\n      iszero\n      tag_82\n      jumpi\n      0x00\n      dup1\n      revert\n    tag_82:\n      pop\n      calldataload\n      sub(shl(0xa0, 0x01), 0x01)\n      and\n      tag_83\n      jump\t// in\n        /* \"DAI/DAI.sol\":8723:9608  function permit(... */\n    tag_18:\n      tag_55\n      0x04\n      dup1\n      calldatasize\n      sub\n      0x0100\n      dup2\n      lt\n      iszero\n      tag_85\n      jumpi\n      0x00\n      dup1\n      revert\n    tag_85:\n      pop\n      sub(shl(0xa0, 0x01), 0x01)\n      dup2\n      calldataload\n      dup2\n      and\n      swap2\n      0x20\n      dup2\n      add\n      calldataload\n      swap1\n      swap2\n      and\n      swap1\n      0x40\n      dup2\n      add\n      calldataload\n      swap1\n      0x60\n      dup2\n      add\n      calldataload\n      swap1\n      0x80\n      dup2\n      add\n      calldataload\n      iszero\n      iszero\n      swap1\n      0xff\n      0xa0\n      dup3\n      add\n      calldataload\n      and\n      swap1\n      0xc0\n      dup2\n      add\n      calldataload\n      swap1\n      0xe0\n      add\n      calldataload\n      tag_86\n      jump\t// in\n        /* \"DAI/DAI.sol\":4177:4226  mapping(address => uint256) public daiMintedToday */\n    tag_19:\n      tag_46\n      0x04\n      dup1\n      calldatasize\n      sub\n      0x20\n      dup2\n      lt\n      iszero\n      tag_88\n      jumpi\n      0x00\n      dup1\n      revert\n    tag_88:\n      pop\n      calldataload\n      sub(shl(0xa0, 0x01), 0x01)\n      and\n      tag_89\n      jump\t// in\n        /* \"DAI/DAI.sol\":3759:3796  string public constant symbol = \"DAI\" */\n    tag_20:\n      tag_37\n      tag_91\n      jump\t// in\n        /* \"DAI/DAI.sol\":3495:3572  function deny(address guy) external note auth {... */\n    tag_21:\n      tag_55\n      0x04\n      dup1\n      calldatasize\n      sub\n      0x20\n      dup2\n      lt\n      iszero\n      tag_97\n      jumpi\n      0x00\n      dup1\n      revert\n    tag_97:\n      pop\n      calldataload\n      sub(shl(0xa0, 0x01), 0x01)\n      and\n      tag_98\n      jump\t// in\n        /* \"DAI/DAI.sol\":7474:7996  function burn(address usr, uint256 wad) external {... */\n    tag_22:\n      tag_55\n      0x04\n      dup1\n      calldatasize\n      sub\n      0x40\n      dup2\n      lt\n      iszero\n      tag_100\n      jumpi\n      0x00\n      dup1\n      revert\n    tag_100:\n      pop\n      sub(shl(0xa0, 0x01), 0x01)\n      dup2\n      calldataload\n      and\n      swap1\n      0x20\n      add\n      calldataload\n      tag_101\n      jump\t// in\n        /* \"DAI/DAI.sol\":5739:5865  function transfer(address dst, uint256 wad) external returns (bool) {... */\n    tag_23:\n      tag_43\n      0x04\n      dup1\n      calldatasize\n      sub\n      0x40\n      dup2\n      lt\n      iszero\n      tag_103\n      jumpi\n      0x00\n      dup1\n      revert\n    tag_103:\n      pop\n      sub(shl(0xa0, 0x01), 0x01)\n      dup2\n      calldataload\n      and\n      swap1\n      0x20\n      add\n      calldataload\n      tag_104\n      jump\t// in\n        /* \"DAI/DAI.sol\":8333:8433  function push(address usr, uint256 wad) external {... */\n    tag_24:\n      tag_55\n      0x04\n      dup1\n      calldatasize\n      sub\n      0x40\n      dup2\n      lt\n      iszero\n      tag_106\n      jumpi\n      0x00\n      dup1\n      revert\n    tag_106:\n      pop\n      sub(shl(0xa0, 0x01), 0x01)\n      dup2\n      calldataload\n      and\n      swap1\n      0x20\n      add\n      calldataload\n      tag_107\n      jump\t// in\n        /* \"DAI/DAI.sol\":8545:8681  function move(... */\n    tag_25:\n      tag_55\n      0x04\n      dup1\n      calldatasize\n      sub\n      0x60\n      dup2\n      lt\n      iszero\n      tag_109\n      jumpi\n      0x00\n      dup1\n      revert\n    tag_109:\n      pop\n      sub(shl(0xa0, 0x01), 0x01)\n      dup2\n      calldataload\n      dup2\n      and\n      swap2\n      0x20\n      dup2\n      add\n      calldataload\n      swap1\n      swap2\n      and\n      swap1\n      0x40\n      add\n      calldataload\n      tag_110\n      jump\t// in\n        /* \"DAI/DAI.sol\":3365:3405  mapping(address => uint256) public wards */\n    tag_26:\n      tag_46\n      0x04\n      dup1\n      calldatasize\n      sub\n      0x20\n      dup2\n      lt\n      iszero\n      tag_112\n      jumpi\n      0x00\n      dup1\n      revert\n    tag_112:\n      pop\n      calldataload\n      sub(shl(0xa0, 0x01), 0x01)\n      and\n      tag_113\n      jump\t// in\n        /* \"DAI/DAI.sol\":5427:5566  function allowance(address account_, address sender_) external view returns (uint256) {... */\n    tag_27:\n      tag_46\n      0x04\n      dup1\n      calldatasize\n      sub\n      0x40\n      dup2\n      lt\n      iszero\n      tag_115\n      jumpi\n      0x00\n      dup1\n      revert\n    tag_115:\n      pop\n      sub(shl(0xa0, 0x01), 0x01)\n      dup2\n      calldataload\n      dup2\n      and\n      swap2\n      0x20\n      add\n      calldataload\n      and\n      tag_116\n      jump\t// in\n        /* \"DAI/DAI.sol\":3917:3945  uint256 public dailyDAILimit */\n    tag_28:\n      tag_46\n      tag_118\n      jump\t// in\n        /* \"DAI/DAI.sol\":8439:8539  function pull(address usr, uint256 wad) external {... */\n    tag_29:\n      tag_55\n      0x04\n      dup1\n      calldatasize\n      sub\n      0x40\n      dup2\n      lt\n      iszero\n      tag_120\n      jumpi\n      0x00\n      dup1\n      revert\n    tag_120:\n      pop\n      sub(shl(0xa0, 0x01), 0x01)\n      dup2\n      calldataload\n      and\n      swap1\n      0x20\n      add\n      calldataload\n      tag_121\n      jump\t// in\n        /* \"DAI/DAI.sol\":3707:3753  string public constant name = \"Dai Stablecoin\" */\n    tag_38:\n      mload(0x40)\n      dup1\n      0x40\n      add\n      0x40\n      mstore\n      dup1\n      0x0e\n      dup2\n      mstore\n      0x20\n      add\n      0x44616920537461626c65636f696e000000000000000000000000000000000000\n      dup2\n      mstore\n      pop\n      dup2\n      jump\t// out\n        /* \"DAI/DAI.sol\":8193:8306  function approve(address usr_, uint256 wad_) external returns (bool) {... */\n    tag_45:\n        /* \"DAI/DAI.sol\":8256:8260  bool */\n      0x00\n        /* \"DAI/DAI.sol\":8279:8299  _approve(usr_, wad_) */\n      tag_123\n        /* \"DAI/DAI.sol\":8288:8292  usr_ */\n      dup4\n        /* \"DAI/DAI.sol\":8294:8298  wad_ */\n      dup4\n        /* \"DAI/DAI.sol\":8279:8287  _approve */\n      tag_124\n        /* \"DAI/DAI.sol\":8279:8299  _approve(usr_, wad_) */\n      jump\t// in\n    tag_123:\n        /* \"DAI/DAI.sol\":8272:8299  return _approve(usr_, wad_) */\n      swap1\n      pop\n        /* \"DAI/DAI.sol\":8193:8306  function approve(address usr_, uint256 wad_) external returns (bool) {... */\n    tag_122:\n      swap3\n      swap2\n      pop\n      pop\n      jump\t// out\n        /* \"DAI/DAI.sol\":3885:3911  uint256 public totalSupply */\n    tag_47:\n      sload(0x01)\n      dup2\n      jump\t// out\n        /* \"DAI/DAI.sol\":5871:6477  function transferFrom(... */\n    tag_50:\n      sub(shl(0xa0, 0x01), 0x01)\n        /* \"DAI/DAI.sol\":6002:6016  balanceOf[src] */\n      dup4\n      and\n        /* \"DAI/DAI.sol\":5978:5982  bool */\n      0x00\n        /* \"DAI/DAI.sol\":6002:6016  balanceOf[src] */\n      swap1\n      dup2\n      mstore\n        /* \"DAI/DAI.sol\":6002:6011  balanceOf */\n      0x03\n        /* \"DAI/DAI.sol\":6002:6016  balanceOf[src] */\n      0x20\n      mstore\n      0x40\n      dup2\n      keccak256\n      sload\n        /* \"DAI/DAI.sol\":6002:6023  balanceOf[src] >= wad */\n      dup3\n      gt\n      iszero\n        /* \"DAI/DAI.sol\":5994:6052  require(balanceOf[src] >= wad, \"Dai/insufficient-balance\") */\n      tag_126\n      jumpi\n      0x40\n      dup1\n      mload\n      shl(0xe5, 0x461bcd)\n      dup2\n      mstore\n      0x20\n      0x04\n      dup3\n      add\n      mstore\n      0x18\n      0x24\n      dup3\n      add\n      mstore\n      0x4461692f696e73756666696369656e742d62616c616e63650000000000000000\n      0x44\n      dup3\n      add\n      mstore\n      swap1\n      mload\n      swap1\n      dup2\n      swap1\n      sub\n      0x64\n      add\n      swap1\n      revert\n    tag_126:\n      sub(shl(0xa0, 0x01), 0x01)\n        /* \"DAI/DAI.sol\":6066:6083  src != msg.sender */\n      dup5\n      and\n        /* \"DAI/DAI.sol\":6073:6083  msg.sender */\n      caller\n        /* \"DAI/DAI.sol\":6066:6083  src != msg.sender */\n      eq\n      dup1\n      iszero\n      swap1\n        /* \"DAI/DAI.sol\":6066:6129  src != msg.sender && _allowance(src, msg.sender) != uint256(-1) */\n      tag_127\n      jumpi\n      pop\n      not(0x00)\n        /* \"DAI/DAI.sol\":6087:6114  _allowance(src, msg.sender) */\n      tag_128\n        /* \"DAI/DAI.sol\":6098:6101  src */\n      dup6\n        /* \"DAI/DAI.sol\":6103:6113  msg.sender */\n      caller\n        /* \"DAI/DAI.sol\":6087:6097  _allowance */\n      tag_129\n        /* \"DAI/DAI.sol\":6087:6114  _allowance(src, msg.sender) */\n      jump\t// in\n    tag_128:\n        /* \"DAI/DAI.sol\":6087:6129  _allowance(src, msg.sender) != uint256(-1) */\n      eq\n      iszero\n        /* \"DAI/DAI.sol\":6066:6129  src != msg.sender && _allowance(src, msg.sender) != uint256(-1) */\n    tag_127:\n        /* \"DAI/DAI.sol\":6062:6310  if (src != msg.sender && _allowance(src, msg.sender) != uint256(-1)) {... */\n      iszero\n      tag_130\n      jumpi\n        /* \"DAI/DAI.sol\":6184:6187  wad */\n      dup2\n        /* \"DAI/DAI.sol\":6153:6180  _allowance(src, msg.sender) */\n      tag_131\n        /* \"DAI/DAI.sol\":6164:6167  src */\n      dup6\n        /* \"DAI/DAI.sol\":6169:6179  msg.sender */\n      caller\n        /* \"DAI/DAI.sol\":6153:6163  _allowance */\n      tag_129\n        /* \"DAI/DAI.sol\":6153:6180  _allowance(src, msg.sender) */\n      jump\t// in\n    tag_131:\n        /* \"DAI/DAI.sol\":6153:6187  _allowance(src, msg.sender) >= wad */\n      lt\n      iszero\n        /* \"DAI/DAI.sol\":6145:6218  require(_allowance(src, msg.sender) >= wad, \"Dai/insufficient-allowance\") */\n      tag_132\n      jumpi\n      0x40\n      dup1\n      mload\n      shl(0xe5, 0x461bcd)\n      dup2\n      mstore\n      0x20\n      0x04\n      dup3\n      add\n      mstore\n      0x1a\n      0x24\n      dup3\n      add\n      mstore\n      0x4461692f696e73756666696369656e742d616c6c6f77616e6365000000000000\n      0x44\n      dup3\n      add\n      mstore\n      swap1\n      mload\n      swap1\n      dup2\n      swap1\n      sub\n      0x64\n      add\n      swap1\n      revert\n    tag_132:\n        /* \"DAI/DAI.sol\":6262:6299  sub(_allowance(src, msg.sender), wad) */\n      tag_133\n        /* \"DAI/DAI.sol\":6266:6293  _allowance(src, msg.sender) */\n      tag_134\n        /* \"DAI/DAI.sol\":6277:6280  src */\n      dup6\n        /* \"DAI/DAI.sol\":6282:6292  msg.sender */\n      caller\n        /* \"DAI/DAI.sol\":6266:6276  _allowance */\n      tag_129\n        /* \"DAI/DAI.sol\":6266:6293  _allowance(src, msg.sender) */\n      jump\t// in\n    tag_134:\n        /* \"DAI/DAI.sol\":6295:6298  wad */\n      dup4\n        /* \"DAI/DAI.sol\":6262:6265  sub */\n      tag_135\n        /* \"DAI/DAI.sol\":6262:6299  sub(_allowance(src, msg.sender), wad) */\n      jump\t// in\n    tag_133:\n      sub(shl(0xa0, 0x01), 0x01)\n        /* \"DAI/DAI.sol\":6232:6247  allowances[src] */\n      dup6\n      and\n      0x00\n      swap1\n      dup2\n      mstore\n        /* \"DAI/DAI.sol\":6232:6242  allowances */\n      0x04\n        /* \"DAI/DAI.sol\":6232:6247  allowances[src] */\n      0x20\n      swap1\n      dup2\n      mstore\n      0x40\n      dup1\n      dup4\n      keccak256\n        /* \"DAI/DAI.sol\":6248:6258  msg.sender */\n      caller\n        /* \"DAI/DAI.sol\":6232:6259  allowances[src][msg.sender] */\n      dup5\n      mstore\n      swap1\n      swap2\n      mstore\n      swap1\n      keccak256\n        /* \"DAI/DAI.sol\":6232:6299  allowances[src][msg.sender] = sub(_allowance(src, msg.sender), wad) */\n      sstore\n        /* \"DAI/DAI.sol\":6062:6310  if (src != msg.sender && _allowance(src, msg.sender) != uint256(-1)) {... */\n    tag_130:\n      sub(shl(0xa0, 0x01), 0x01)\n        /* \"DAI/DAI.sol\":6340:6354  balanceOf[src] */\n      dup5\n      and\n      0x00\n      swap1\n      dup2\n      mstore\n        /* \"DAI/DAI.sol\":6340:6349  balanceOf */\n      0x03\n        /* \"DAI/DAI.sol\":6340:6354  balanceOf[src] */\n      0x20\n      mstore\n      0x40\n      swap1\n      keccak256\n      sload\n        /* \"DAI/DAI.sol\":6336:6360  sub(balanceOf[src], wad) */\n      tag_136\n      swap1\n        /* \"DAI/DAI.sol\":6356:6359  wad */\n      dup4\n        /* \"DAI/DAI.sol\":6336:6339  sub */\n      tag_135\n        /* \"DAI/DAI.sol\":6336:6360  sub(balanceOf[src], wad) */\n      jump\t// in\n    tag_136:\n      sub(shl(0xa0, 0x01), 0x01)\n        /* \"DAI/DAI.sol\":6319:6333  balanceOf[src] */\n      dup1\n      dup7\n      and\n      0x00\n      swap1\n      dup2\n      mstore\n        /* \"DAI/DAI.sol\":6319:6328  balanceOf */\n      0x03\n        /* \"DAI/DAI.sol\":6319:6333  balanceOf[src] */\n      0x20\n      mstore\n      0x40\n      dup1\n      dup3\n      keccak256\n        /* \"DAI/DAI.sol\":6319:6360  balanceOf[src] = sub(balanceOf[src], wad) */\n      swap4\n      swap1\n      swap4\n      sstore\n        /* \"DAI/DAI.sol\":6391:6405  balanceOf[dst] */\n      swap1\n      dup6\n      and\n      dup2\n      mstore\n      keccak256\n      sload\n        /* \"DAI/DAI.sol\":6387:6411  add(balanceOf[dst], wad) */\n      tag_137\n      swap1\n        /* \"DAI/DAI.sol\":6407:6410  wad */\n      dup4\n        /* \"DAI/DAI.sol\":6387:6390  add */\n      tag_138\n        /* \"DAI/DAI.sol\":6387:6411  add(balanceOf[dst], wad) */\n      jump\t// in\n    tag_137:\n      sub(shl(0xa0, 0x01), 0x01)\n        /* \"DAI/DAI.sol\":6370:6384  balanceOf[dst] */\n      dup1\n      dup6\n      and\n      0x00\n      dup2\n      dup2\n      mstore\n        /* \"DAI/DAI.sol\":6370:6379  balanceOf */\n      0x03\n        /* \"DAI/DAI.sol\":6370:6384  balanceOf[dst] */\n      0x20\n      swap1\n      dup2\n      mstore\n      0x40\n      swap2\n      dup3\n      swap1\n      keccak256\n        /* \"DAI/DAI.sol\":6370:6411  balanceOf[dst] = add(balanceOf[dst], wad) */\n      swap5\n      swap1\n      swap5\n      sstore\n        /* \"DAI/DAI.sol\":6426:6449  Transfer(src, dst, wad) */\n      dup1\n      mload\n      dup7\n      dup2\n      mstore\n      swap1\n      mload\n        /* \"DAI/DAI.sol\":6370:6384  balanceOf[dst] */\n      swap2\n      swap4\n        /* \"DAI/DAI.sol\":6426:6449  Transfer(src, dst, wad) */\n      swap3\n      dup9\n      and\n      swap3\n      0xddf252ad1be2c89b69c2b068fc378daa952ba7f163c4a11628f55a4df523b3ef\n      swap3\n      swap2\n      dup3\n      swap1\n      sub\n      add\n      swap1\n      log3\n      pop\n        /* \"DAI/DAI.sol\":6466:6470  true */\n      0x01\n        /* \"DAI/DAI.sol\":5871:6477  function transferFrom(... */\n      swap4\n      swap3\n      pop\n      pop\n      pop\n      jump\t// out\n        /* \"DAI/DAI.sol\":4850:4958  bytes32 public constant PERMIT_TYPEHASH = 0xea2aa0a1be11a07ed86d755c93467f4f82362b452371d1ba94d1715123511acb */\n    tag_52:\n        /* \"DAI/DAI.sol\":4892:4958  0xea2aa0a1be11a07ed86d755c93467f4f82362b452371d1ba94d1715123511acb */\n      0xea2aa0a1be11a07ed86d755c93467f4f82362b452371d1ba94d1715123511acb\n        /* \"DAI/DAI.sol\":4850:4958  bytes32 public constant PERMIT_TYPEHASH = 0xea2aa0a1be11a07ed86d755c93467f4f82362b452371d1ba94d1715123511acb */\n      dup2\n      jump\t// out\n        /* \"DAI/DAI.sol\":3844:3879  uint8 public constant decimals = 18 */\n    tag_54:\n        /* \"DAI/DAI.sol\":3877:3879  18 */\n      0x12\n        /* \"DAI/DAI.sol\":3844:3879  uint8 public constant decimals = 18 */\n      dup2\n      jump\t// out\n        /* \"DAI/DAI.sol\":6564:6662  function adjustDailyDAILimit(uint256 _limit) external auth {... */\n    tag_57:\n        /* \"DAI/DAI.sol\":3618:3628  msg.sender */\n      caller\n        /* \"DAI/DAI.sol\":3612:3617  wards */\n      0x00\n        /* \"DAI/DAI.sol\":3612:3629  wards[msg.sender] */\n      swap1\n      dup2\n      mstore\n      0x20\n      dup2\n      swap1\n      mstore\n      0x40\n      swap1\n      keccak256\n      sload\n        /* \"DAI/DAI.sol\":3633:3634  1 */\n      0x01\n        /* \"DAI/DAI.sol\":3612:3634  wards[msg.sender] == 1 */\n      eq\n        /* \"DAI/DAI.sol\":3604:3657  require(wards[msg.sender] == 1, \"Dai/not-authorized\") */\n      tag_140\n      jumpi\n      0x40\n      dup1\n      mload\n      shl(0xe5, 0x461bcd)\n      dup2\n      mstore\n      0x20\n      0x04\n      dup3\n      add\n      mstore\n      0x12\n      0x24\n      dup3\n      add\n      mstore\n      shl(0x72, 0x11185a4bdb9bdd0b585d5d1a1bdc9a5e9959)\n      0x44\n      dup3\n      add\n      mstore\n      swap1\n      mload\n      swap1\n      dup2\n      swap1\n      sub\n      0x64\n      add\n      swap1\n      revert\n    tag_140:\n        /* \"DAI/DAI.sol\":6633:6646  dailyDAILimit */\n      0x02\n        /* \"DAI/DAI.sol\":6633:6655  dailyDAILimit = _limit */\n      sstore\n        /* \"DAI/DAI.sol\":6564:6662  function adjustDailyDAILimit(uint256 _limit) external auth {... */\n      jump\t// out\n        /* \"DAI/DAI.sol\":4669:4700  bytes32 public DOMAIN_SEPARATOR */\n    tag_59:\n      sload(0x08)\n      dup2\n      jump\t// out\n        /* \"DAI/DAI.sol\":6668:7468  function mint(address usr, uint256 wad) external {... */\n    tag_62:\n        /* \"DAI/DAI.sol\":6737:6747  msg.sender */\n      caller\n        /* \"DAI/DAI.sol\":6731:6736  wards */\n      0x00\n        /* \"DAI/DAI.sol\":6731:6748  wards[msg.sender] */\n      swap1\n      dup2\n      mstore\n      0x20\n      dup2\n      swap1\n      mstore\n      0x40\n      swap1\n      keccak256\n      sload\n        /* \"DAI/DAI.sol\":6727:7318  if (wards[msg.sender] == 0) {... */\n      tag_151\n      jumpi\n        /* \"DAI/DAI.sol\":6834:6847  dailyDAILimit */\n      sload(0x02)\n        /* \"DAI/DAI.sol\":6818:6828  msg.sender */\n      caller\n        /* \"DAI/DAI.sol\":6803:6829  daiMintedToday[msg.sender] */\n      0x00\n      swap1\n      dup2\n      mstore\n        /* \"DAI/DAI.sol\":6803:6817  daiMintedToday */\n      0x07\n        /* \"DAI/DAI.sol\":6803:6829  daiMintedToday[msg.sender] */\n      0x20\n      mstore\n      0x40\n      swap1\n      keccak256\n      sload\n        /* \"DAI/DAI.sol\":6794:6830  add(wad, daiMintedToday[msg.sender]) */\n      tag_144\n      swap1\n        /* \"DAI/DAI.sol\":6798:6801  wad */\n      dup4\n      swap1\n        /* \"DAI/DAI.sol\":6794:6797  add */\n      tag_138\n        /* \"DAI/DAI.sol\":6794:6830  add(wad, daiMintedToday[msg.sender]) */\n      jump\t// in\n    tag_144:\n        /* \"DAI/DAI.sol\":6794:6847  add(wad, daiMintedToday[msg.sender]) <= dailyDAILimit */\n      gt\n      iszero\n        /* \"DAI/DAI.sol\":6794:6951  add(wad, daiMintedToday[msg.sender]) <= dailyDAILimit ||... */\n      dup1\n      tag_147\n      jumpi\n      pop\n        /* \"DAI/DAI.sol\":6906:6916  msg.sender */\n      caller\n        /* \"DAI/DAI.sol\":6890:6917  lastMintRestart[msg.sender] */\n      0x00\n      swap1\n      dup2\n      mstore\n        /* \"DAI/DAI.sol\":6890:6905  lastMintRestart */\n      0x06\n        /* \"DAI/DAI.sol\":6890:6917  lastMintRestart[msg.sender] */\n      0x20\n      mstore\n      0x40\n      swap1\n      keccak256\n      sload\n        /* \"DAI/DAI.sol\":6922:6926  6500 */\n      0x1964\n      swap1\n        /* \"DAI/DAI.sol\":6872:6918  sub(block.number, lastMintRestart[msg.sender]) */\n      tag_146\n      swap1\n        /* \"DAI/DAI.sol\":6876:6888  block.number */\n      number\n      swap1\n        /* \"DAI/DAI.sol\":6872:6875  sub */\n      tag_135\n        /* \"DAI/DAI.sol\":6872:6918  sub(block.number, lastMintRestart[msg.sender]) */\n      jump\t// in\n    tag_146:\n        /* \"DAI/DAI.sol\":6872:6926  sub(block.number, lastMintRestart[msg.sender]) >= 6500 */\n      lt\n      iszero\n        /* \"DAI/DAI.sol\":6872:6950  sub(block.number, lastMintRestart[msg.sender]) >= 6500 && wad <= dailyDAILimit */\n      dup1\n      iszero\n      tag_147\n      jumpi\n      pop\n        /* \"DAI/DAI.sol\":6937:6950  dailyDAILimit */\n      sload(0x02)\n        /* \"DAI/DAI.sol\":6930:6933  wad */\n      dup2\n        /* \"DAI/DAI.sol\":6930:6950  wad <= dailyDAILimit */\n      gt\n      iszero\n        /* \"DAI/DAI.sol\":6872:6950  sub(block.number, lastMintRestart[msg.sender]) >= 6500 && wad <= dailyDAILimit */\n    tag_147:\n        /* \"DAI/DAI.sol\":6769:7005  require(... */\n      tag_148\n      jumpi\n      0x40\n      dup1\n      mload\n      shl(0xe5, 0x461bcd)\n      dup2\n      mstore\n      0x20\n      0x04\n      dup3\n      add\n      mstore\n      0x14\n      0x24\n      dup3\n      add\n      mstore\n      0x4f766572206461696c7920444149204c696d6974000000000000000000000000\n      0x44\n      dup3\n      add\n      mstore\n      swap1\n      mload\n      swap1\n      dup2\n      swap1\n      sub\n      0x64\n      add\n      swap1\n      revert\n    tag_148:\n        /* \"DAI/DAI.sol\":7057:7067  msg.sender */\n      caller\n        /* \"DAI/DAI.sol\":7041:7068  lastMintRestart[msg.sender] */\n      0x00\n      swap1\n      dup2\n      mstore\n        /* \"DAI/DAI.sol\":7041:7056  lastMintRestart */\n      0x06\n        /* \"DAI/DAI.sol\":7041:7068  lastMintRestart[msg.sender] */\n      0x20\n      mstore\n      0x40\n      swap1\n      keccak256\n      sload\n        /* \"DAI/DAI.sol\":7073:7077  6500 */\n      0x1964\n      swap1\n        /* \"DAI/DAI.sol\":7023:7069  sub(block.number, lastMintRestart[msg.sender]) */\n      tag_149\n      swap1\n        /* \"DAI/DAI.sol\":7027:7039  block.number */\n      number\n      swap1\n        /* \"DAI/DAI.sol\":7023:7026  sub */\n      tag_135\n        /* \"DAI/DAI.sol\":7023:7069  sub(block.number, lastMintRestart[msg.sender]) */\n      jump\t// in\n    tag_149:\n        /* \"DAI/DAI.sol\":7023:7077  sub(block.number, lastMintRestart[msg.sender]) >= 6500 */\n      lt\n        /* \"DAI/DAI.sol\":7019:7308  if (sub(block.number, lastMintRestart[msg.sender]) >= 6500) {... */\n      tag_150\n      jumpi\n        /* \"DAI/DAI.sol\":7112:7122  msg.sender */\n      caller\n        /* \"DAI/DAI.sol\":7097:7123  daiMintedToday[msg.sender] */\n      0x00\n      swap1\n      dup2\n      mstore\n        /* \"DAI/DAI.sol\":7097:7111  daiMintedToday */\n      0x07\n        /* \"DAI/DAI.sol\":7097:7123  daiMintedToday[msg.sender] */\n      0x20\n      swap1\n      dup2\n      mstore\n      0x40\n      dup1\n      dup4\n      keccak256\n        /* \"DAI/DAI.sol\":7097:7129  daiMintedToday[msg.sender] = wad */\n      dup5\n      swap1\n      sstore\n        /* \"DAI/DAI.sol\":7147:7162  lastMintRestart */\n      0x06\n        /* \"DAI/DAI.sol\":7147:7174  lastMintRestart[msg.sender] */\n      swap1\n      swap2\n      mstore\n      swap1\n      keccak256\n        /* \"DAI/DAI.sol\":7177:7189  block.number */\n      number\n        /* \"DAI/DAI.sol\":7147:7189  lastMintRestart[msg.sender] = block.number */\n      swap1\n      sstore\n        /* \"DAI/DAI.sol\":7019:7308  if (sub(block.number, lastMintRestart[msg.sender]) >= 6500) {... */\n      jump(tag_151)\n    tag_150:\n        /* \"DAI/DAI.sol\":7276:7286  msg.sender */\n      caller\n        /* \"DAI/DAI.sol\":7261:7287  daiMintedToday[msg.sender] */\n      0x00\n      swap1\n      dup2\n      mstore\n        /* \"DAI/DAI.sol\":7261:7275  daiMintedToday */\n      0x07\n        /* \"DAI/DAI.sol\":7261:7287  daiMintedToday[msg.sender] */\n      0x20\n      mstore\n      0x40\n      swap1\n      keccak256\n      sload\n        /* \"DAI/DAI.sol\":7257:7293  add(daiMintedToday[msg.sender], wad) */\n      tag_152\n      swap1\n        /* \"DAI/DAI.sol\":7289:7292  wad */\n      dup3\n        /* \"DAI/DAI.sol\":7257:7260  add */\n      tag_138\n        /* \"DAI/DAI.sol\":7257:7293  add(daiMintedToday[msg.sender], wad) */\n      jump\t// in\n    tag_152:\n        /* \"DAI/DAI.sol\":7243:7253  msg.sender */\n      caller\n        /* \"DAI/DAI.sol\":7228:7254  daiMintedToday[msg.sender] */\n      0x00\n      swap1\n      dup2\n      mstore\n        /* \"DAI/DAI.sol\":7228:7242  daiMintedToday */\n      0x07\n        /* \"DAI/DAI.sol\":7228:7254  daiMintedToday[msg.sender] */\n      0x20\n      mstore\n      0x40\n      swap1\n      keccak256\n        /* \"DAI/DAI.sol\":7228:7293  daiMintedToday[msg.sender] = add(daiMintedToday[msg.sender], wad) */\n      sstore\n        /* \"DAI/DAI.sol\":7019:7308  if (sub(block.number, lastMintRestart[msg.sender]) >= 6500) {... */\n    tag_151:\n      sub(shl(0xa0, 0x01), 0x01)\n        /* \"DAI/DAI.sol\":7349:7363  balanceOf[usr] */\n      dup3\n      and\n      0x00\n      swap1\n      dup2\n      mstore\n        /* \"DAI/DAI.sol\":7349:7358  balanceOf */\n      0x03\n        /* \"DAI/DAI.sol\":7349:7363  balanceOf[usr] */\n      0x20\n      mstore\n      0x40\n      swap1\n      keccak256\n      sload\n        /* \"DAI/DAI.sol\":7345:7369  add(balanceOf[usr], wad) */\n      tag_153\n      swap1\n        /* \"DAI/DAI.sol\":7365:7368  wad */\n      dup3\n        /* \"DAI/DAI.sol\":7345:7348  add */\n      tag_138\n        /* \"DAI/DAI.sol\":7345:7369  add(balanceOf[usr], wad) */\n      jump\t// in\n    tag_153:\n      sub(shl(0xa0, 0x01), 0x01)\n        /* \"DAI/DAI.sol\":7328:7342  balanceOf[usr] */\n      dup4\n      and\n      0x00\n      swap1\n      dup2\n      mstore\n        /* \"DAI/DAI.sol\":7328:7337  balanceOf */\n      0x03\n        /* \"DAI/DAI.sol\":7328:7342  balanceOf[usr] */\n      0x20\n      mstore\n      0x40\n      swap1\n      keccak256\n        /* \"DAI/DAI.sol\":7328:7369  balanceOf[usr] = add(balanceOf[usr], wad) */\n      sstore\n        /* \"DAI/DAI.sol\":7398:7409  totalSupply */\n      sload(0x01)\n        /* \"DAI/DAI.sol\":7394:7415  add(totalSupply, wad) */\n      tag_154\n      swap1\n        /* \"DAI/DAI.sol\":7411:7414  wad */\n      dup3\n        /* \"DAI/DAI.sol\":7394:7397  add */\n      tag_138\n        /* \"DAI/DAI.sol\":7394:7415  add(totalSupply, wad) */\n      jump\t// in\n    tag_154:\n        /* \"DAI/DAI.sol\":7380:7391  totalSupply */\n      0x01\n        /* \"DAI/DAI.sol\":7380:7415  totalSupply = add(totalSupply, wad) */\n      sstore\n        /* \"DAI/DAI.sol\":7431:7461  Transfer(address(0), usr, wad) */\n      0x40\n      dup1\n      mload\n      dup3\n      dup2\n      mstore\n      swap1\n      mload\n      sub(shl(0xa0, 0x01), 0x01)\n      dup5\n      and\n      swap2\n        /* \"DAI/DAI.sol\":7448:7449  0 */\n      0x00\n      swap2\n        /* \"DAI/DAI.sol\":7431:7461  Transfer(address(0), usr, wad) */\n      0xddf252ad1be2c89b69c2b068fc378daa952ba7f163c4a11628f55a4df523b3ef\n      swap2\n      dup2\n      swap1\n      sub\n      0x20\n      add\n      swap1\n      log3\n        /* \"DAI/DAI.sol\":6668:7468  function mint(address usr, uint256 wad) external {... */\n      pop\n      pop\n      jump\t// out\n        /* \"DAI/DAI.sol\":6483:6558  function addAuth(address usr) external auth {... */\n    tag_65:\n        /* \"DAI/DAI.sol\":3618:3628  msg.sender */\n      caller\n        /* \"DAI/DAI.sol\":3612:3617  wards */\n      0x00\n        /* \"DAI/DAI.sol\":3612:3629  wards[msg.sender] */\n      swap1\n      dup2\n      mstore\n      0x20\n      dup2\n      swap1\n      mstore\n      0x40\n      swap1\n      keccak256\n      sload\n        /* \"DAI/DAI.sol\":3633:3634  1 */\n      0x01\n        /* \"DAI/DAI.sol\":3612:3634  wards[msg.sender] == 1 */\n      eq\n        /* \"DAI/DAI.sol\":3604:3657  require(wards[msg.sender] == 1, \"Dai/not-authorized\") */\n      tag_156\n      jumpi\n      0x40\n      dup1\n      mload\n      shl(0xe5, 0x461bcd)\n      dup2\n      mstore\n      0x20\n      0x04\n      dup3\n      add\n      mstore\n      0x12\n      0x24\n      dup3\n      add\n      mstore\n      shl(0x72, 0x11185a4bdb9bdd0b585d5d1a1bdc9a5e9959)\n      0x44\n      dup3\n      add\n      mstore\n      swap1\n      mload\n      swap1\n      dup2\n      swap1\n      sub\n      0x64\n      add\n      swap1\n      revert\n    tag_156:\n      sub(shl(0xa0, 0x01), 0x01)\n        /* \"DAI/DAI.sol\":6537:6547  wards[usr] */\n      and\n        /* \"DAI/DAI.sol\":6537:6542  wards */\n      0x00\n        /* \"DAI/DAI.sol\":6537:6547  wards[usr] */\n      swap1\n      dup2\n      mstore\n      0x20\n      dup2\n      swap1\n      mstore\n      0x40\n      swap1\n      keccak256\n        /* \"DAI/DAI.sol\":6550:6551  1 */\n      0x01\n        /* \"DAI/DAI.sol\":6537:6551  wards[usr] = 1 */\n      swap1\n      sstore\n        /* \"DAI/DAI.sol\":6483:6558  function addAuth(address usr) external auth {... */\n      jump\t// out\n        /* \"DAI/DAI.sol\":3802:3838  string public constant version = \"1\" */\n    tag_67:\n      mload(0x40)\n      dup1\n      0x40\n      add\n      0x40\n      mstore\n      dup1\n      0x01\n      dup2\n      mstore\n      0x20\n      add\n      0x3100000000000000000000000000000000000000000000000000000000000000\n      dup2\n      mstore\n      pop\n      dup2\n      jump\t// out\n        /* \"DAI/DAI.sol\":3952:3996  mapping(address => uint256) public balanceOf */\n    tag_77:\n      mstore(0x20, 0x03)\n      0x00\n      swap1\n      dup2\n      mstore\n      0x40\n      swap1\n      keccak256\n      sload\n      dup2\n      jump\t// out\n        /* \"DAI/DAI.sol\":4121:4171  mapping(address => uint256) public lastMintRestart */\n    tag_80:\n      mstore(0x20, 0x06)\n      0x00\n      swap1\n      dup2\n      mstore\n      0x40\n      swap1\n      keccak256\n      sload\n      dup2\n      jump\t// out\n        /* \"DAI/DAI.sol\":4074:4115  mapping(address => uint256) public nonces */\n    tag_83:\n      mstore(0x20, 0x05)\n      0x00\n      swap1\n      dup2\n      mstore\n      0x40\n      swap1\n      keccak256\n      sload\n      dup2\n      jump\t// out\n        /* \"DAI/DAI.sol\":8723:9608  function permit(... */\n    tag_86:\n        /* \"DAI/DAI.sol\":9039:9055  DOMAIN_SEPARATOR */\n      sload(0x08)\n        /* \"DAI/DAI.sol\":9083:9151  abi.encode(PERMIT_TYPEHASH, holder, spender, nonce, expiry, allowed) */\n      0x40\n      dup1\n      mload\n        /* \"DAI/DAI.sol\":4892:4958  0xea2aa0a1be11a07ed86d755c93467f4f82362b452371d1ba94d1715123511acb */\n      0xea2aa0a1be11a07ed86d755c93467f4f82362b452371d1ba94d1715123511acb\n        /* \"DAI/DAI.sol\":9083:9151  abi.encode(PERMIT_TYPEHASH, holder, spender, nonce, expiry, allowed) */\n      0x20\n      dup1\n      dup4\n      add\n      swap2\n      swap1\n      swap2\n      mstore\n      sub(shl(0xa0, 0x01), 0x01)\n      dup1\n      dup14\n      and\n      dup4\n      dup6\n      add\n      dup2\n      swap1\n      mstore\n      swap1\n      dup13\n      and\n      0x60\n      dup5\n      add\n      mstore\n      0x80\n      dup4\n      add\n      dup12\n      swap1\n      mstore\n      0xa0\n      dup4\n      add\n      dup11\n      swap1\n      mstore\n      dup9\n      iszero\n      iszero\n      0xc0\n      dup1\n      dup6\n      add\n      swap2\n      swap1\n      swap2\n      mstore\n      dup5\n      mload\n      dup1\n      dup6\n      sub\n      swap1\n      swap2\n      add\n      dup2\n      mstore\n      0xe0\n      dup5\n      add\n      dup6\n      mstore\n        /* \"DAI/DAI.sol\":9073:9152  keccak256(abi.encode(PERMIT_TYPEHASH, holder, spender, nonce, expiry, allowed)) */\n      dup1\n      mload\n      swap1\n      dup4\n      add\n      keccak256\n        /* \"DAI/DAI.sol\":8977:9166  abi.encodePacked(... */\n      0x1901000000000000000000000000000000000000000000000000000000000000\n      0x0100\n      dup6\n      add\n      mstore\n      0x0102\n      dup5\n      add\n      swap6\n      swap1\n      swap6\n      mstore\n      0x0122\n      dup1\n      dup5\n      add\n      swap6\n      swap1\n      swap6\n      mstore\n      dup4\n      mload\n      dup1\n      dup5\n      sub\n      swap1\n      swap6\n      add\n      dup6\n      mstore\n      0x0142\n      swap1\n      swap3\n      add\n      swap1\n      swap3\n      mstore\n        /* \"DAI/DAI.sol\":8954:9176  keccak256(... */\n      dup3\n      mload\n      swap3\n      swap1\n      swap2\n      add\n      swap2\n      swap1\n      swap2\n      keccak256\n      swap1\n        /* \"DAI/DAI.sol\":9187:9241  require(holder != address(0), \"Dai/invalid-address-0\") */\n      tag_163\n      jumpi\n      0x40\n      dup1\n      mload\n      shl(0xe5, 0x461bcd)\n      dup2\n      mstore\n      0x20\n      0x04\n      dup3\n      add\n      mstore\n      0x15\n      0x24\n      dup3\n      add\n      mstore\n      0x4461692f696e76616c69642d616464726573732d300000000000000000000000\n      0x44\n      dup3\n      add\n      mstore\n      swap1\n      mload\n      swap1\n      dup2\n      swap1\n      sub\n      0x64\n      add\n      swap1\n      revert\n    tag_163:\n        /* \"DAI/DAI.sol\":9269:9295  ecrecover(digest, v, r, s) */\n      0x01\n        /* \"DAI/DAI.sol\":9279:9285  digest */\n      dup2\n        /* \"DAI/DAI.sol\":9287:9288  v */\n      dup6\n        /* \"DAI/DAI.sol\":9290:9291  r */\n      dup6\n        /* \"DAI/DAI.sol\":9293:9294  s */\n      dup6\n        /* \"DAI/DAI.sol\":9269:9295  ecrecover(digest, v, r, s) */\n      mload(0x40)\n      0x00\n      dup2\n      mstore\n      0x20\n      add\n      0x40\n      mstore\n      mload(0x40)\n      dup1\n      dup6\n      dup2\n      mstore\n      0x20\n      add\n      dup5\n      0xff\n      and\n      dup2\n      mstore\n      0x20\n      add\n      dup4\n      dup2\n      mstore\n      0x20\n      add\n      dup3\n      dup2\n      mstore\n      0x20\n      add\n      swap5\n      pop\n      pop\n      pop\n      pop\n      pop\n      0x20\n      mload(0x40)\n      0x20\n      dup2\n      sub\n      swap1\n      dup1\n      dup5\n      sub\n      swap1\n      dup6\n      gas\n      staticcall\n      iszero\n      dup1\n      iszero\n      tag_165\n      jumpi\n      returndatasize\n      0x00\n      dup1\n      returndatacopy\n      revert(0x00, returndatasize)\n    tag_165:\n      pop\n      pop\n      pop\n      mload(sub(mload(0x40), 0x20))\n      sub(shl(0xa0, 0x01), 0x01)\n        /* \"DAI/DAI.sol\":9259:9295  holder == ecrecover(digest, v, r, s) */\n      and\n        /* \"DAI/DAI.sol\":9259:9265  holder */\n      dup10\n      sub(shl(0xa0, 0x01), 0x01)\n        /* \"DAI/DAI.sol\":9259:9295  holder == ecrecover(digest, v, r, s) */\n      and\n      eq\n        /* \"DAI/DAI.sol\":9251:9318  require(holder == ecrecover(digest, v, r, s), \"Dai/invalid-permit\") */\n      tag_166\n      jumpi\n      0x40\n      dup1\n      mload\n      shl(0xe5, 0x461bcd)\n      dup2\n      mstore\n      0x20\n      0x04\n      dup3\n      add\n      mstore\n      0x12\n      0x24\n      dup3\n      add\n      mstore\n      0x4461692f696e76616c69642d7065726d69740000000000000000000000000000\n      0x44\n      dup3\n      add\n      mstore\n      swap1\n      mload\n      swap1\n      dup2\n      swap1\n      sub\n      0x64\n      add\n      swap1\n      revert\n    tag_166:\n        /* \"DAI/DAI.sol\":9336:9347  expiry == 0 */\n      dup6\n      iszero\n      dup1\n        /* \"DAI/DAI.sol\":9336:9376  expiry == 0 || block.timestamp <= expiry */\n      tag_167\n      jumpi\n      pop\n        /* \"DAI/DAI.sol\":9370:9376  expiry */\n      dup6\n        /* \"DAI/DAI.sol\":9351:9366  block.timestamp */\n      timestamp\n        /* \"DAI/DAI.sol\":9351:9376  block.timestamp <= expiry */\n      gt\n      iszero\n        /* \"DAI/DAI.sol\":9336:9376  expiry == 0 || block.timestamp <= expiry */\n    tag_167:\n        /* \"DAI/DAI.sol\":9328:9399  require(expiry == 0 || block.timestamp <= expiry, \"Dai/permit-expired\") */\n      tag_168\n      jumpi\n      0x40\n      dup1\n      mload\n      shl(0xe5, 0x461bcd)\n      dup2\n      mstore\n      0x20\n      0x04\n      dup3\n      add\n      mstore\n      0x12\n      0x24\n      dup3\n      add\n      mstore\n      0x4461692f7065726d69742d657870697265640000000000000000000000000000\n      0x44\n      dup3\n      add\n      mstore\n      swap1\n      mload\n      swap1\n      dup2\n      swap1\n      sub\n      0x64\n      add\n      swap1\n      revert\n    tag_168:\n      sub(shl(0xa0, 0x01), 0x01)\n        /* \"DAI/DAI.sol\":9426:9440  nonces[holder] */\n      dup10\n      and\n      0x00\n      swap1\n      dup2\n      mstore\n        /* \"DAI/DAI.sol\":9426:9432  nonces */\n      0x05\n        /* \"DAI/DAI.sol\":9426:9440  nonces[holder] */\n      0x20\n      mstore\n      0x40\n      swap1\n      keccak256\n        /* \"DAI/DAI.sol\":9426:9442  nonces[holder]++ */\n      dup1\n      sload\n      0x01\n      dup2\n      add\n      swap1\n      swap2\n      sstore\n        /* \"DAI/DAI.sol\":9417:9442  nonce == nonces[holder]++ */\n      dup8\n      eq\n        /* \"DAI/DAI.sol\":9409:9464  require(nonce == nonces[holder]++, \"Dai/invalid-nonce\") */\n      tag_169\n      jumpi\n      0x40\n      dup1\n      mload\n      shl(0xe5, 0x461bcd)\n      dup2\n      mstore\n      0x20\n      0x04\n      dup3\n      add\n      mstore\n      0x11\n      0x24\n      dup3\n      add\n      mstore\n      0x4461692f696e76616c69642d6e6f6e6365000000000000000000000000000000\n      0x44\n      dup3\n      add\n      mstore\n      swap1\n      mload\n      swap1\n      dup2\n      swap1\n      sub\n      0x64\n      add\n      swap1\n      revert\n    tag_169:\n        /* \"DAI/DAI.sol\":9474:9485  uint256 wad */\n      0x00\n        /* \"DAI/DAI.sol\":9488:9495  allowed */\n      dup6\n        /* \"DAI/DAI.sol\":9488:9513  allowed ? uint256(-1) : 0 */\n      tag_170\n      jumpi\n        /* \"DAI/DAI.sol\":9512:9513  0 */\n      0x00\n        /* \"DAI/DAI.sol\":9488:9513  allowed ? uint256(-1) : 0 */\n      jump(tag_171)\n    tag_170:\n      not(0x00)\n    tag_171:\n      sub(shl(0xa0, 0x01), 0x01)\n        /* \"DAI/DAI.sol\":9523:9541  allowances[holder] */\n      dup1\n      dup13\n      and\n      0x00\n      dup2\n      dup2\n      mstore\n        /* \"DAI/DAI.sol\":9523:9533  allowances */\n      0x04\n        /* \"DAI/DAI.sol\":9523:9541  allowances[holder] */\n      0x20\n      swap1\n      dup2\n      mstore\n      0x40\n      dup1\n      dup4\n      keccak256\n        /* \"DAI/DAI.sol\":9523:9550  allowances[holder][spender] */\n      swap5\n      dup16\n      and\n      dup1\n      dup5\n      mstore\n      swap5\n      dup3\n      mstore\n      swap2\n      dup3\n      swap1\n      keccak256\n        /* \"DAI/DAI.sol\":9523:9556  allowances[holder][spender] = wad */\n      dup6\n      swap1\n      sstore\n        /* \"DAI/DAI.sol\":9571:9601  Approval(holder, spender, wad) */\n      dup2\n      mload\n      dup6\n      dup2\n      mstore\n      swap2\n      mload\n        /* \"DAI/DAI.sol\":9474:9513  uint256 wad = allowed ? uint256(-1) : 0 */\n      swap5\n      swap6\n      pop\n        /* \"DAI/DAI.sol\":9523:9550  allowances[holder][spender] */\n      swap3\n      swap4\n        /* \"DAI/DAI.sol\":9523:9541  allowances[holder] */\n      swap2\n      swap3\n        /* \"DAI/DAI.sol\":9571:9601  Approval(holder, spender, wad) */\n      0x8c5be1e5ebec7d5bd14f71427d1e84f3dd0314c0f7b2291e5b200ac8c7c3b925\n      swap3\n      swap2\n      dup3\n      swap1\n      sub\n      add\n      swap1\n      log3\n        /* \"DAI/DAI.sol\":8723:9608  function permit(... */\n      pop\n      pop\n      pop\n      pop\n      pop\n      pop\n      pop\n      pop\n      pop\n      pop\n      jump\t// out\n        /* \"DAI/DAI.sol\":4177:4226  mapping(address => uint256) public daiMintedToday */\n    tag_89:\n      mstore(0x20, 0x07)\n      0x00\n      swap1\n      dup2\n      mstore\n      0x40\n      swap1\n      keccak256\n      sload\n      dup2\n      jump\t// out\n        /* \"DAI/DAI.sol\":3759:3796  string public constant symbol = \"DAI\" */\n    tag_91:\n      mload(0x40)\n      dup1\n      0x40\n      add\n      0x40\n      mstore\n      dup1\n      0x03\n      dup2\n      mstore\n      0x20\n      add\n      0x4441490000000000000000000000000000000000000000000000000000000000\n      dup2\n      mstore\n      pop\n      dup2\n      jump\t// out\n        /* \"DAI/DAI.sol\":3495:3572  function deny(address guy) external note auth {... */\n    tag_98:\n        /* \"DAI/DAI.sol\":3618:3628  msg.sender */\n      caller\n        /* \"DAI/DAI.sol\":3612:3617  wards */\n      0x00\n        /* \"DAI/DAI.sol\":3612:3629  wards[msg.sender] */\n      swap1\n      dup2\n      mstore\n      0x20\n      dup2\n      swap1\n      mstore\n      0x40\n      swap1\n      keccak256\n      sload\n        /* \"DAI/DAI.sol\":3633:3634  1 */\n      0x01\n        /* \"DAI/DAI.sol\":3612:3634  wards[msg.sender] == 1 */\n      eq\n        /* \"DAI/DAI.sol\":3604:3657  require(wards[msg.sender] == 1, \"Dai/not-authorized\") */\n      tag_174\n      jumpi\n      0x40\n      dup1\n      mload\n      shl(0xe5, 0x461bcd)\n      dup2\n      mstore\n      0x20\n      0x04\n      dup3\n      add\n      mstore\n      0x12\n      0x24\n      dup3\n      add\n      mstore\n      shl(0x72, 0x11185a4bdb9bdd0b585d5d1a1bdc9a5e9959)\n      0x44\n      dup3\n      add\n      mstore\n      swap1\n      mload\n      swap1\n      dup2\n      swap1\n      sub\n      0x64\n      add\n      swap1\n      revert\n    tag_174:\n      sub(shl(0xa0, 0x01), 0x01)\n        /* \"DAI/DAI.sol\":3551:3561  wards[guy] */\n      and\n        /* \"DAI/DAI.sol\":3564:3565  0 */\n      0x00\n        /* \"DAI/DAI.sol\":3551:3561  wards[guy] */\n      swap1\n      dup2\n      mstore\n      0x20\n      dup2\n      swap1\n      mstore\n      0x40\n      dup2\n      keccak256\n        /* \"DAI/DAI.sol\":3551:3565  wards[guy] = 0 */\n      sstore\n        /* \"DAI/DAI.sol\":3495:3572  function deny(address guy) external note auth {... */\n      jump\t// out\n        /* \"DAI/DAI.sol\":7474:7996  function burn(address usr, uint256 wad) external {... */\n    tag_101:\n      sub(shl(0xa0, 0x01), 0x01)\n        /* \"DAI/DAI.sol\":7541:7555  balanceOf[usr] */\n      dup3\n      and\n      0x00\n      swap1\n      dup2\n      mstore\n        /* \"DAI/DAI.sol\":7541:7550  balanceOf */\n      0x03\n        /* \"DAI/DAI.sol\":7541:7555  balanceOf[usr] */\n      0x20\n      mstore\n      0x40\n      swap1\n      keccak256\n      sload\n        /* \"DAI/DAI.sol\":7541:7562  balanceOf[usr] >= wad */\n      dup2\n      gt\n      iszero\n        /* \"DAI/DAI.sol\":7533:7591  require(balanceOf[usr] >= wad, \"Dai/insufficient-balance\") */\n      tag_177\n      jumpi\n      0x40\n      dup1\n      mload\n      shl(0xe5, 0x461bcd)\n      dup2\n      mstore\n      0x20\n      0x04\n      dup3\n      add\n      mstore\n      0x18\n      0x24\n      dup3\n      add\n      mstore\n      0x4461692f696e73756666696369656e742d62616c616e63650000000000000000\n      0x44\n      dup3\n      add\n      mstore\n      swap1\n      mload\n      swap1\n      dup2\n      swap1\n      sub\n      0x64\n      add\n      swap1\n      revert\n    tag_177:\n      sub(shl(0xa0, 0x01), 0x01)\n        /* \"DAI/DAI.sol\":7605:7622  usr != msg.sender */\n      dup3\n      and\n        /* \"DAI/DAI.sol\":7612:7622  msg.sender */\n      caller\n        /* \"DAI/DAI.sol\":7605:7622  usr != msg.sender */\n      eq\n      dup1\n      iszero\n      swap1\n        /* \"DAI/DAI.sol\":7605:7668  usr != msg.sender && _allowance(usr, msg.sender) != uint256(-1) */\n      tag_178\n      jumpi\n      pop\n      not(0x00)\n        /* \"DAI/DAI.sol\":7626:7653  _allowance(usr, msg.sender) */\n      tag_179\n        /* \"DAI/DAI.sol\":7637:7640  usr */\n      dup4\n        /* \"DAI/DAI.sol\":7642:7652  msg.sender */\n      caller\n        /* \"DAI/DAI.sol\":7626:7636  _allowance */\n      tag_129\n        /* \"DAI/DAI.sol\":7626:7653  _allowance(usr, msg.sender) */\n      jump\t// in\n    tag_179:\n        /* \"DAI/DAI.sol\":7626:7668  _allowance(usr, msg.sender) != uint256(-1) */\n      eq\n      iszero\n        /* \"DAI/DAI.sol\":7605:7668  usr != msg.sender && _allowance(usr, msg.sender) != uint256(-1) */\n    tag_178:\n        /* \"DAI/DAI.sol\":7601:7849  if (usr != msg.sender && _allowance(usr, msg.sender) != uint256(-1)) {... */\n      iszero\n      tag_180\n      jumpi\n        /* \"DAI/DAI.sol\":7723:7726  wad */\n      dup1\n        /* \"DAI/DAI.sol\":7692:7719  _allowance(usr, msg.sender) */\n      tag_181\n        /* \"DAI/DAI.sol\":7703:7706  usr */\n      dup4\n        /* \"DAI/DAI.sol\":7708:7718  msg.sender */\n      caller\n        /* \"DAI/DAI.sol\":7692:7702  _allowance */\n      tag_129\n        /* \"DAI/DAI.sol\":7692:7719  _allowance(usr, msg.sender) */\n      jump\t// in\n    tag_181:\n        /* \"DAI/DAI.sol\":7692:7726  _allowance(usr, msg.sender) >= wad */\n      lt\n      iszero\n        /* \"DAI/DAI.sol\":7684:7757  require(_allowance(usr, msg.sender) >= wad, \"Dai/insufficient-allowance\") */\n      tag_182\n      jumpi\n      0x40\n      dup1\n      mload\n      shl(0xe5, 0x461bcd)\n      dup2\n      mstore\n      0x20\n      0x04\n      dup3\n      add\n      mstore\n      0x1a\n      0x24\n      dup3\n      add\n      mstore\n      0x4461692f696e73756666696369656e742d616c6c6f77616e6365000000000000\n      0x44\n      dup3\n      add\n      mstore\n      swap1\n      mload\n      swap1\n      dup2\n      swap1\n      sub\n      0x64\n      add\n      swap1\n      revert\n    tag_182:\n        /* \"DAI/DAI.sol\":7801:7838  sub(_allowance(usr, msg.sender), wad) */\n      tag_183\n        /* \"DAI/DAI.sol\":7805:7832  _allowance(usr, msg.sender) */\n      tag_184\n        /* \"DAI/DAI.sol\":7816:7819  usr */\n      dup4\n        /* \"DAI/DAI.sol\":7821:7831  msg.sender */\n      caller\n        /* \"DAI/DAI.sol\":7805:7815  _allowance */\n      tag_129\n        /* \"DAI/DAI.sol\":7805:7832  _allowance(usr, msg.sender) */\n      jump\t// in\n    tag_184:\n        /* \"DAI/DAI.sol\":7834:7837  wad */\n      dup3\n        /* \"DAI/DAI.sol\":7801:7804  sub */\n      tag_135\n        /* \"DAI/DAI.sol\":7801:7838  sub(_allowance(usr, msg.sender), wad) */\n      jump\t// in\n    tag_183:\n      sub(shl(0xa0, 0x01), 0x01)\n        /* \"DAI/DAI.sol\":7771:7786  allowances[usr] */\n      dup4\n      and\n      0x00\n      swap1\n      dup2\n      mstore\n        /* \"DAI/DAI.sol\":7771:7781  allowances */\n      0x04\n        /* \"DAI/DAI.sol\":7771:7786  allowances[usr] */\n      0x20\n      swap1\n      dup2\n      mstore\n      0x40\n      dup1\n      dup4\n      keccak256\n        /* \"DAI/DAI.sol\":7787:7797  msg.sender */\n      caller\n        /* \"DAI/DAI.sol\":7771:7798  allowances[usr][msg.sender] */\n      dup5\n      mstore\n      swap1\n      swap2\n      mstore\n      swap1\n      keccak256\n        /* \"DAI/DAI.sol\":7771:7838  allowances[usr][msg.sender] = sub(_allowance(usr, msg.sender), wad) */\n      sstore\n        /* \"DAI/DAI.sol\":7601:7849  if (usr != msg.sender && _allowance(usr, msg.sender) != uint256(-1)) {... */\n    tag_180:\n      sub(shl(0xa0, 0x01), 0x01)\n        /* \"DAI/DAI.sol\":7879:7893  balanceOf[usr] */\n      dup3\n      and\n      0x00\n      swap1\n      dup2\n      mstore\n        /* \"DAI/DAI.sol\":7879:7888  balanceOf */\n      0x03\n        /* \"DAI/DAI.sol\":7879:7893  balanceOf[usr] */\n      0x20\n      mstore\n      0x40\n      swap1\n      keccak256\n      sload\n        /* \"DAI/DAI.sol\":7875:7899  sub(balanceOf[usr], wad) */\n      tag_185\n      swap1\n        /* \"DAI/DAI.sol\":7895:7898  wad */\n      dup3\n        /* \"DAI/DAI.sol\":7875:7878  sub */\n      tag_135\n        /* \"DAI/DAI.sol\":7875:7899  sub(balanceOf[usr], wad) */\n      jump\t// in\n    tag_185:\n      sub(shl(0xa0, 0x01), 0x01)\n        /* \"DAI/DAI.sol\":7858:7872  balanceOf[usr] */\n      dup4\n      and\n      0x00\n      swap1\n      dup2\n      mstore\n        /* \"DAI/DAI.sol\":7858:7867  balanceOf */\n      0x03\n        /* \"DAI/DAI.sol\":7858:7872  balanceOf[usr] */\n      0x20\n      mstore\n      0x40\n      swap1\n      keccak256\n        /* \"DAI/DAI.sol\":7858:7899  balanceOf[usr] = sub(balanceOf[usr], wad) */\n      sstore\n        /* \"DAI/DAI.sol\":7927:7938  totalSupply */\n      sload(0x01)\n        /* \"DAI/DAI.sol\":7923:7944  sub(totalSupply, wad) */\n      tag_186\n      swap1\n        /* \"DAI/DAI.sol\":7940:7943  wad */\n      dup3\n        /* \"DAI/DAI.sol\":7923:7926  sub */\n      tag_135\n        /* \"DAI/DAI.sol\":7923:7944  sub(totalSupply, wad) */\n      jump\t// in\n    tag_186:\n        /* \"DAI/DAI.sol\":7909:7920  totalSupply */\n      0x01\n        /* \"DAI/DAI.sol\":7909:7944  totalSupply = sub(totalSupply, wad) */\n      sstore\n        /* \"DAI/DAI.sol\":7959:7989  Transfer(usr, address(0), wad) */\n      0x40\n      dup1\n      mload\n      dup3\n      dup2\n      mstore\n      swap1\n      mload\n        /* \"DAI/DAI.sol\":7981:7982  0 */\n      0x00\n      swap2\n      sub(shl(0xa0, 0x01), 0x01)\n        /* \"DAI/DAI.sol\":7959:7989  Transfer(usr, address(0), wad) */\n      dup6\n      and\n      swap2\n      0xddf252ad1be2c89b69c2b068fc378daa952ba7f163c4a11628f55a4df523b3ef\n      swap2\n      dup2\n      swap1\n      sub\n      0x20\n      add\n      swap1\n      log3\n        /* \"DAI/DAI.sol\":7474:7996  function burn(address usr, uint256 wad) external {... */\n      pop\n      pop\n      jump\t// out\n        /* \"DAI/DAI.sol\":5739:5865  function transfer(address dst, uint256 wad) external returns (bool) {... */\n    tag_104:\n        /* \"DAI/DAI.sol\":5801:5805  bool */\n      0x00\n        /* \"DAI/DAI.sol\":5824:5858  transferFrom(msg.sender, dst, wad) */\n      tag_123\n        /* \"DAI/DAI.sol\":5837:5847  msg.sender */\n      caller\n        /* \"DAI/DAI.sol\":5849:5852  dst */\n      dup5\n        /* \"DAI/DAI.sol\":5854:5857  wad */\n      dup5\n        /* \"DAI/DAI.sol\":5824:5836  transferFrom */\n      tag_50\n        /* \"DAI/DAI.sol\":5824:5858  transferFrom(msg.sender, dst, wad) */\n      jump\t// in\n        /* \"DAI/DAI.sol\":8333:8433  function push(address usr, uint256 wad) external {... */\n    tag_107:\n        /* \"DAI/DAI.sol\":8392:8426  transferFrom(msg.sender, usr, wad) */\n      tag_190\n        /* \"DAI/DAI.sol\":8405:8415  msg.sender */\n      caller\n        /* \"DAI/DAI.sol\":8417:8420  usr */\n      dup4\n        /* \"DAI/DAI.sol\":8422:8425  wad */\n      dup4\n        /* \"DAI/DAI.sol\":8392:8404  transferFrom */\n      tag_50\n        /* \"DAI/DAI.sol\":8392:8426  transferFrom(msg.sender, usr, wad) */\n      jump\t// in\n    tag_190:\n      pop\n        /* \"DAI/DAI.sol\":8333:8433  function push(address usr, uint256 wad) external {... */\n      pop\n      pop\n      jump\t// out\n        /* \"DAI/DAI.sol\":8545:8681  function move(... */\n    tag_110:\n        /* \"DAI/DAI.sol\":8647:8674  transferFrom(src, dst, wad) */\n      tag_192\n        /* \"DAI/DAI.sol\":8660:8663  src */\n      dup4\n        /* \"DAI/DAI.sol\":8665:8668  dst */\n      dup4\n        /* \"DAI/DAI.sol\":8670:8673  wad */\n      dup4\n        /* \"DAI/DAI.sol\":8647:8659  transferFrom */\n      tag_50\n        /* \"DAI/DAI.sol\":8647:8674  transferFrom(src, dst, wad) */\n      jump\t// in\n    tag_192:\n      pop\n        /* \"DAI/DAI.sol\":8545:8681  function move(... */\n      pop\n      pop\n      pop\n      jump\t// out\n        /* \"DAI/DAI.sol\":3365:3405  mapping(address => uint256) public wards */\n    tag_113:\n      0x00\n      0x20\n      dup2\n      swap1\n      mstore\n      swap1\n      dup2\n      mstore\n      0x40\n      swap1\n      keccak256\n      sload\n      dup2\n      jump\t// out\n        /* \"DAI/DAI.sol\":5427:5566  function allowance(address account_, address sender_) external view returns (uint256) {... */\n    tag_116:\n        /* \"DAI/DAI.sol\":5504:5511  uint256 */\n      0x00\n        /* \"DAI/DAI.sol\":5530:5559  _allowance(account_, sender_) */\n      tag_123\n        /* \"DAI/DAI.sol\":5541:5549  account_ */\n      dup4\n        /* \"DAI/DAI.sol\":5551:5558  sender_ */\n      dup4\n        /* \"DAI/DAI.sol\":5530:5540  _allowance */\n      tag_129\n        /* \"DAI/DAI.sol\":5530:5559  _allowance(account_, sender_) */\n      jump\t// in\n        /* \"DAI/DAI.sol\":3917:3945  uint256 public dailyDAILimit */\n    tag_118:\n      sload(0x02)\n      dup2\n      jump\t// out\n        /* \"DAI/DAI.sol\":8439:8539  function pull(address usr, uint256 wad) external {... */\n    tag_121:\n        /* \"DAI/DAI.sol\":8498:8532  transferFrom(usr, msg.sender, wad) */\n      tag_190\n        /* \"DAI/DAI.sol\":8511:8514  usr */\n      dup3\n        /* \"DAI/DAI.sol\":8516:8526  msg.sender */\n      caller\n        /* \"DAI/DAI.sol\":8528:8531  wad */\n      dup4\n        /* \"DAI/DAI.sol\":8498:8510  transferFrom */\n      tag_50\n        /* \"DAI/DAI.sol\":8498:8532  transferFrom(usr, msg.sender, wad) */\n      jump\t// in\n        /* \"DAI/DAI.sol\":8002:8187  function _approve(address usr, uint256 wad) internal returns (bool) {... */\n    tag_124:\n        /* \"DAI/DAI.sol\":8091:8101  msg.sender */\n      caller\n        /* \"DAI/DAI.sol\":8064:8068  bool */\n      0x00\n        /* \"DAI/DAI.sol\":8080:8102  allowances[msg.sender] */\n      dup2\n      dup2\n      mstore\n        /* \"DAI/DAI.sol\":8080:8090  allowances */\n      0x04\n        /* \"DAI/DAI.sol\":8080:8102  allowances[msg.sender] */\n      0x20\n      swap1\n      dup2\n      mstore\n      0x40\n      dup1\n      dup4\n      keccak256\n      sub(shl(0xa0, 0x01), 0x01)\n        /* \"DAI/DAI.sol\":8080:8107  allowances[msg.sender][usr] */\n      dup8\n      and\n      dup1\n      dup6\n      mstore\n      swap1\n      dup4\n      mstore\n      dup2\n      dup5\n      keccak256\n        /* \"DAI/DAI.sol\":8080:8113  allowances[msg.sender][usr] = wad */\n      dup7\n      swap1\n      sstore\n        /* \"DAI/DAI.sol\":8129:8159  Approval(msg.sender, usr, wad) */\n      dup2\n      mload\n      dup7\n      dup2\n      mstore\n      swap2\n      mload\n        /* \"DAI/DAI.sol\":8064:8068  bool */\n      swap4\n      swap5\n        /* \"DAI/DAI.sol\":8080:8107  allowances[msg.sender][usr] */\n      swap1\n      swap4\n        /* \"DAI/DAI.sol\":8091:8101  msg.sender */\n      swap1\n      swap3\n        /* \"DAI/DAI.sol\":8129:8159  Approval(msg.sender, usr, wad) */\n      0x8c5be1e5ebec7d5bd14f71427d1e84f3dd0314c0f7b2291e5b200ac8c7c3b925\n      swap3\n      dup3\n      swap1\n      sub\n      add\n      swap1\n      log3\n      pop\n        /* \"DAI/DAI.sol\":8176:8180  true */\n      0x01\n        /* \"DAI/DAI.sol\":8002:8187  function _approve(address usr, uint256 wad) internal returns (bool) {... */\n      swap3\n      swap2\n      pop\n      pop\n      jump\t// out\n        /* \"DAI/DAI.sol\":5572:5712  function _allowance(address account_, address sender_) internal view returns (uint256) {... */\n    tag_129:\n      sub(shl(0xa0, 0x01), 0x01)\n        /* \"DAI/DAI.sol\":5676:5696  allowances[account_] */\n      swap2\n      dup3\n      and\n        /* \"DAI/DAI.sol\":5650:5657  uint256 */\n      0x00\n        /* \"DAI/DAI.sol\":5676:5696  allowances[account_] */\n      swap1\n      dup2\n      mstore\n        /* \"DAI/DAI.sol\":5676:5686  allowances */\n      0x04\n        /* \"DAI/DAI.sol\":5676:5696  allowances[account_] */\n      0x20\n      swap1\n      dup2\n      mstore\n      0x40\n      dup1\n      dup4\n      keccak256\n        /* \"DAI/DAI.sol\":5676:5705  allowances[account_][sender_] */\n      swap4\n      swap1\n      swap5\n      and\n      dup3\n      mstore\n      swap2\n      swap1\n      swap2\n      mstore\n      keccak256\n      sload\n      swap1\n        /* \"DAI/DAI.sol\":5572:5712  function _allowance(address account_, address sender_) internal view returns (uint256) {... */\n      jump\t// out\n        /* \"DAI/DAI.sol\":4521:4632  function sub(uint256 x, uint256 y) internal pure returns (uint256 z) {... */\n    tag_135:\n        /* \"DAI/DAI.sol\":4613:4618  x - y */\n      dup1\n      dup3\n      sub\n        /* \"DAI/DAI.sol\":4608:4624  (z = x - y) <= x */\n      dup3\n      dup2\n      gt\n      iszero\n        /* \"DAI/DAI.sol\":4600:4625  require((z = x - y) <= x) */\n      tag_122\n      jumpi\n      0x00\n      dup1\n      revert\n        /* \"DAI/DAI.sol\":4404:4515  function add(uint256 x, uint256 y) internal pure returns (uint256 z) {... */\n    tag_138:\n        /* \"DAI/DAI.sol\":4496:4501  x + y */\n      dup1\n      dup3\n      add\n        /* \"DAI/DAI.sol\":4491:4507  (z = x + y) >= x */\n      dup3\n      dup2\n      lt\n      iszero\n        /* \"DAI/DAI.sol\":4483:4508  require((z = x + y) >= x) */\n      tag_122\n      jumpi\n      0x00\n      dup1\n      revert\n\n    auxdata: 0xa26469706673582212206c98da56381fd175400968844e3ad0b30934141908a9771a8288f586140ca1df64736f6c63430007050033\n}\n",
				"bytecode": {
					"linkReferences": {},
					"object": "608060405234801561001057600080fd5b506040516113703803806113708339818101604052602081101561003357600080fd5b5051336000908152602081815260409182902060019081905582518084018452600e81526d2230b49029ba30b13632b1b7b4b760911b9083015282518084018452908152603160f81b9082015281517f8b73c3c69bb8fe3d512ecc4cf759cc79239f7b179b0ffacaa9a75d522b39400f818301527f0b1461ddc0c1d5ded79a1db0f74dae949050a7c0b28728c724b24958c27a328b818401527fc89efdaa54c0f20c7adf612882df0950f5a951637e0307cdcb4c672f298b8bc6606082015260808101939093523060a0808501919091528251808503909101815260c0909301909152815191012060085569021e19e0c9bab24000006002556112358061013b6000396000f3fe608060405234801561001057600080fd5b50600436106101b95760003560e01c8063798247ae116100f9578063a9059cbb11610097578063bf353dbb11610071578063bf353dbb1461054c578063dd62ed3e14610572578063ef1277e0146105a0578063f2d5d56b146105a8576101b9565b8063a9059cbb146104be578063b753a98c146104ea578063bb35783b14610516576101b9565b806392bc513c116100d357806392bc513c1461043e57806395d89b41146104645780639c52a7f11461046c5780639dc29fac14610492576101b9565b8063798247ae146103985780637ecebe00146103be5780638fcbaf0c146103e4576101b9565b806333b3cfc6116101665780635422224e116101405780635422224e1461034457806354fd4d501461036a57806365fae35e1461034457806370a0823114610372576101b9565b806333b3cfc6146102f15780633644e5151461031057806340c10f1914610318576101b9565b806323b872dd1161019757806323b872dd1461029557806330adf81f146102cb578063313ce567146102d3576101b9565b806306fdde03146101be578063095ea7b31461023b57806318160ddd1461027b575b600080fd5b6101c66105d4565b6040805160208082528351818301528351919283929083019185019080838360005b838110156102005781810151838201526020016101e8565b50505050905090810190601f16801561022d5780820380516001836020036101000a031916815260200191505b509250505060405180910390f35b6102676004803603604081101561025157600080fd5b506001600160a01b03813516906020013561060d565b604080519115158252519081900360200190f35b610283610622565b60408051918252519081900360200190f35b610267600480360360608110156102ab57600080fd5b506001600160a01b03813581169160208101359091169060400135610628565b610283610807565b6102db61082b565b6040805160ff9092168252519081900360200190f35b61030e6004803603602081101561030757600080fd5b5035610830565b005b61028361088e565b61030e6004803603604081101561032e57600080fd5b506001600160a01b038135169060200135610894565b61030e6004803603602081101561035a57600080fd5b50356001600160a01b0316610a52565b6101c6610ac8565b6102836004803603602081101561038857600080fd5b50356001600160a01b0316610b01565b610283600480360360208110156103ae57600080fd5b50356001600160a01b0316610b13565b610283600480360360208110156103d457600080fd5b50356001600160a01b0316610b25565b61030e60048036036101008110156103fb57600080fd5b506001600160a01b038135811691602081013590911690604081013590606081013590608081013515159060ff60a0820135169060c08101359060e00135610b37565b6102836004803603602081101561045457600080fd5b50356001600160a01b0316610e76565b6101c6610e88565b61030e6004803603602081101561048257600080fd5b50356001600160a01b0316610ec1565b61030e600480360360408110156104a857600080fd5b506001600160a01b038135169060200135610f34565b610267600480360360408110156104d457600080fd5b506001600160a01b0381351690602001356110f1565b61030e6004803603604081101561050057600080fd5b506001600160a01b0381351690602001356110fe565b61030e6004803603606081101561052c57600080fd5b506001600160a01b0381358116916020810135909116906040013561110e565b6102836004803603602081101561056257600080fd5b50356001600160a01b031661111f565b6102836004803603604081101561058857600080fd5b506001600160a01b0381358116916020013516611131565b61028361113d565b61030e600480360360408110156105be57600080fd5b506001600160a01b038135169060200135611143565b6040518060400160405280600e81526020017f44616920537461626c65636f696e00000000000000000000000000000000000081525081565b6000610619838361114e565b90505b92915050565b60015481565b6001600160a01b038316600090815260036020526040812054821115610695576040805162461bcd60e51b815260206004820152601860248201527f4461692f696e73756666696369656e742d62616c616e63650000000000000000604482015290519081900360640190fd5b6001600160a01b03841633148015906106b957506000196106b685336111b4565b14155b1561075457816106c985336111b4565b101561071c576040805162461bcd60e51b815260206004820152601a60248201527f4461692f696e73756666696369656e742d616c6c6f77616e6365000000000000604482015290519081900360640190fd5b61072f61072985336111b4565b836111df565b6001600160a01b03851660009081526004602090815260408083203384529091529020555b6001600160a01b03841660009081526003602052604090205461077790836111df565b6001600160a01b0380861660009081526003602052604080822093909355908516815220546107a690836111ef565b6001600160a01b0380851660008181526003602090815260409182902094909455805186815290519193928816927fddf252ad1be2c89b69c2b068fc378daa952ba7f163c4a11628f55a4df523b3ef92918290030190a35060019392505050565b7fea2aa0a1be11a07ed86d755c93467f4f82362b452371d1ba94d1715123511acb81565b601281565b33600090815260208190526040902054600114610889576040805162461bcd60e51b815260206004820152601260248201527111185a4bdb9bdd0b585d5d1a1bdc9a5e995960721b604482015290519081900360640190fd5b600255565b60085481565b336000908152602081905260409020546109c157600254336000908152600760205260409020546108c69083906111ef565b1115806108fd575033600090815260066020526040902054611964906108ed9043906111df565b101580156108fd57506002548111155b61094e576040805162461bcd60e51b815260206004820152601460248201527f4f766572206461696c7920444149204c696d6974000000000000000000000000604482015290519081900360640190fd5b336000908152600660205260409020546119649061096d9043906111df565b1061099657336000908152600760209081526040808320849055600690915290204390556109c1565b336000908152600760205260409020546109b090826111ef565b336000908152600760205260409020555b6001600160a01b0382166000908152600360205260409020546109e490826111ef565b6001600160a01b038316600090815260036020526040902055600154610a0a90826111ef565b6001556040805182815290516001600160a01b038416916000917fddf252ad1be2c89b69c2b068fc378daa952ba7f163c4a11628f55a4df523b3ef9181900360200190a35050565b33600090815260208190526040902054600114610aab576040805162461bcd60e51b815260206004820152601260248201527111185a4bdb9bdd0b585d5d1a1bdc9a5e995960721b604482015290519081900360640190fd5b6001600160a01b0316600090815260208190526040902060019055565b6040518060400160405280600181526020017f310000000000000000000000000000000000000000000000000000000000000081525081565b60036020526000908152604090205481565b60066020526000908152604090205481565b60056020526000908152604090205481565b600854604080517fea2aa0a1be11a07ed86d755c93467f4f82362b452371d1ba94d1715123511acb6020808301919091526001600160a01b03808d16838501819052908c166060840152608083018b905260a083018a905288151560c0808501919091528451808503909101815260e0840185528051908301207f190100000000000000000000000000000000000000000000000000000000000061010085015261010284019590955261012280840195909552835180840390950185526101429092019092528251929091019190912090610c5a576040805162461bcd60e51b815260206004820152601560248201527f4461692f696e76616c69642d616464726573732d300000000000000000000000604482015290519081900360640190fd5b60018185858560405160008152602001604052604051808581526020018460ff1681526020018381526020018281526020019450505050506020604051602081039080840390855afa158015610cb4573d6000803e3d6000fd5b505050602060405103516001600160a01b0316896001600160a01b031614610d23576040805162461bcd60e51b815260206004820152601260248201527f4461692f696e76616c69642d7065726d69740000000000000000000000000000604482015290519081900360640190fd5b851580610d305750854211155b610d81576040805162461bcd60e51b815260206004820152601260248201527f4461692f7065726d69742d657870697265640000000000000000000000000000604482015290519081900360640190fd5b6001600160a01b03891660009081526005602052604090208054600181019091558714610df5576040805162461bcd60e51b815260206004820152601160248201527f4461692f696e76616c69642d6e6f6e6365000000000000000000000000000000604482015290519081900360640190fd5b600085610e03576000610e07565b6000195b6001600160a01b03808c166000818152600460209081526040808320948f168084529482529182902085905581518581529151949550929391927f8c5be1e5ebec7d5bd14f71427d1e84f3dd0314c0f7b2291e5b200ac8c7c3b92592918290030190a350505050505050505050565b60076020526000908152604090205481565b6040518060400160405280600381526020017f444149000000000000000000000000000000000000000000000000000000000081525081565b33600090815260208190526040902054600114610f1a576040805162461bcd60e51b815260206004820152601260248201527111185a4bdb9bdd0b585d5d1a1bdc9a5e995960721b604482015290519081900360640190fd5b6001600160a01b0316600090815260208190526040812055565b6001600160a01b038216600090815260036020526040902054811115610fa1576040805162461bcd60e51b815260206004820152601860248201527f4461692f696e73756666696369656e742d62616c616e63650000000000000000604482015290519081900360640190fd5b6001600160a01b0382163314801590610fc55750600019610fc283336111b4565b14155b156110605780610fd583336111b4565b1015611028576040805162461bcd60e51b815260206004820152601a60248201527f4461692f696e73756666696369656e742d616c6c6f77616e6365000000000000604482015290519081900360640190fd5b61103b61103583336111b4565b826111df565b6001600160a01b03831660009081526004602090815260408083203384529091529020555b6001600160a01b03821660009081526003602052604090205461108390826111df565b6001600160a01b0383166000908152600360205260409020556001546110a990826111df565b6001556040805182815290516000916001600160a01b038516917fddf252ad1be2c89b69c2b068fc378daa952ba7f163c4a11628f55a4df523b3ef9181900360200190a35050565b6000610619338484610628565b611109338383610628565b505050565b611119838383610628565b50505050565b60006020819052908152604090205481565b600061061983836111b4565b60025481565b611109823383610628565b3360008181526004602090815260408083206001600160a01b038716808552908352818420869055815186815291519394909390927f8c5be1e5ebec7d5bd14f71427d1e84f3dd0314c0f7b2291e5b200ac8c7c3b925928290030190a350600192915050565b6001600160a01b03918216600090815260046020908152604080832093909416825291909152205490565b8082038281111561061c57600080fd5b8082018281101561061c57600080fdfea26469706673582212206c98da56381fd175400968844e3ad0b30934141908a9771a8288f586140ca1df64736f6c63430007050033",
					"opcodes": "PUSH1 0x80 PUSH1 0x40 MSTORE CALLVALUE DUP1 ISZERO PUSH2 0x10 JUMPI PUSH1 0x0 DUP1 REVERT JUMPDEST POP PUSH1 0x40 MLOAD PUSH2 0x1370 CODESIZE SUB DUP1 PUSH2 0x1370 DUP4 CODECOPY DUP2 DUP2 ADD PUSH1 0x40 MSTORE PUSH1 0x20 DUP2 LT ISZERO PUSH2 0x33 JUMPI PUSH1 0x0 DUP1 REVERT JUMPDEST POP MLOAD CALLER PUSH1 0x0 SWAP1 DUP2 MSTORE PUSH1 0x20 DUP2 DUP2 MSTORE PUSH1 0x40 SWAP2 DUP3 SWAP1 KECCAK256 PUSH1 0x1 SWAP1 DUP2 SWAP1 SSTORE DUP3 MLOAD DUP1 DUP5 ADD DUP5 MSTORE PUSH1 0xE DUP2 MSTORE PUSH14 0x2230B49029BA30B13632B1B7B4B7 PUSH1 0x91 SHL SWAP1 DUP4 ADD MSTORE DUP3 MLOAD DUP1 DUP5 ADD DUP5 MSTORE SWAP1 DUP2 MSTORE PUSH1 0x31 PUSH1 0xF8 SHL SWAP1 DUP3 ADD MSTORE DUP2 MLOAD PUSH32 0x8B73C3C69BB8FE3D512ECC4CF759CC79239F7B179B0FFACAA9A75D522B39400F DUP2 DUP4 ADD MSTORE PUSH32 0xB1461DDC0C1D5DED79A1DB0F74DAE949050A7C0B28728C724B24958C27A328B DUP2 DUP5 ADD MSTORE PUSH32 0xC89EFDAA54C0F20C7ADF612882DF0950F5A951637E0307CDCB4C672F298B8BC6 PUSH1 0x60 DUP3 ADD MSTORE PUSH1 0x80 DUP2 ADD SWAP4 SWAP1 SWAP4 MSTORE ADDRESS PUSH1 0xA0 DUP1 DUP6 ADD SWAP2 SWAP1 SWAP2 MSTORE DUP3 MLOAD DUP1 DUP6 SUB SWAP1 SWAP2 ADD DUP2 MSTORE PUSH1 0xC0 SWAP1 SWAP4 ADD SWAP1 SWAP2 MSTORE DUP2 MLOAD SWAP2 ADD KECCAK256 PUSH1 0x8 SSTORE PUSH10 0x21E19E0C9BAB2400000 PUSH1 0x2 SSTORE PUSH2 0x1235 DUP1 PUSH2 0x13B PUSH1 0x0 CODECOPY PUSH1 0x0 RETURN INVALID PUSH1 0x80 PUSH1 0x40 MSTORE CALLVALUE DUP1 ISZERO PUSH2 0x10 JUMPI PUSH1 0x0 DUP1 REVERT JUMPDEST POP PUSH1 0x4 CALLDATASIZE LT PUSH2 0x1B9 JUMPI PUSH1 0x0 CALLDATALOAD PUSH1 0xE0 SHR DUP1 PUSH4 0x798247AE GT PUSH2 0xF9 JUMPI DUP1 PUSH4 0xA9059CBB GT PUSH2 0x97 JUMPI DUP1 PUSH4 0xBF353DBB GT PUSH2 0x71 JUMPI DUP1 PUSH4 0xBF353DBB EQ PUSH2 0x54C JUMPI DUP1 PUSH4 0xDD62ED3E EQ PUSH2 0x572 JUMPI DUP1 PUSH4 0xEF1277E0 EQ PUSH2 0x5A0 JUMPI DUP1 PUSH4 0xF2D5D56B EQ PUSH2 0x5A8 JUMPI PUSH2 0x1B9 JUMP JUMPDEST DUP1 PUSH4 0xA9059CBB EQ PUSH2 0x4BE JUMPI DUP1 PUSH4 0xB753A98C EQ PUSH2 0x4EA JUMPI DUP1 PUSH4 0xBB35783B EQ PUSH2 0x516 JUMPI PUSH2 0x1B9 JUMP JUMPDEST DUP1 PUSH4 0x92BC513C GT PUSH2 0xD3 JUMPI DUP1 PUSH4 0x92BC513C EQ PUSH2 0x43E JUMPI DUP1 PUSH4 0x95D89B41 EQ PUSH2 0x464 JUMPI DUP1 PUSH4 0x9C52A7F1 EQ PUSH2 0x46C JUMPI DUP1 PUSH4 0x9DC29FAC EQ PUSH2 0x492 JUMPI PUSH2 0x1B9 JUMP JUMPDEST DUP1 PUSH4 0x798247AE EQ PUSH2 0x398 JUMPI DUP1 PUSH4 0x7ECEBE00 EQ PUSH2 0x3BE JUMPI DUP1 PUSH4 0x8FCBAF0C EQ PUSH2 0x3E4 JUMPI PUSH2 0x1B9 JUMP JUMPDEST DUP1 PUSH4 0x33B3CFC6 GT PUSH2 0x166 JUMPI DUP1 PUSH4 0x5422224E GT PUSH2 0x140 JUMPI DUP1 PUSH4 0x5422224E EQ PUSH2 0x344 JUMPI DUP1 PUSH4 0x54FD4D50 EQ PUSH2 0x36A JUMPI DUP1 PUSH4 0x65FAE35E EQ PUSH2 0x344 JUMPI DUP1 PUSH4 0x70A08231 EQ PUSH2 0x372 JUMPI PUSH2 0x1B9 JUMP JUMPDEST DUP1 PUSH4 0x33B3CFC6 EQ PUSH2 0x2F1 JUMPI DUP1 PUSH4 0x3644E515 EQ PUSH2 0x310 JUMPI DUP1 PUSH4 0x40C10F19 EQ PUSH2 0x318 JUMPI PUSH2 0x1B9 JUMP JUMPDEST DUP1 PUSH4 0x23B872DD GT PUSH2 0x197 JUMPI DUP1 PUSH4 0x23B872DD EQ PUSH2 0x295 JUMPI DUP1 PUSH4 0x30ADF81F EQ PUSH2 0x2CB JUMPI DUP1 PUSH4 0x313CE567 EQ PUSH2 0x2D3 JUMPI PUSH2 0x1B9 JUMP JUMPDEST DUP1 PUSH4 0x6FDDE03 EQ PUSH2 0x1BE JUMPI DUP1 PUSH4 0x95EA7B3 EQ PUSH2 0x23B JUMPI DUP1 PUSH4 0x18160DDD EQ PUSH2 0x27B JUMPI JUMPDEST PUSH1 0x0 DUP1 REVERT JUMPDEST PUSH2 0x1C6 PUSH2 0x5D4 JUMP JUMPDEST PUSH1 0x40 DUP1 MLOAD PUSH1 0x20 DUP1 DUP3 MSTORE DUP4 MLOAD DUP2 DUP4 ADD MSTORE DUP4 MLOAD SWAP2 SWAP3 DUP4 SWAP3 SWAP1 DUP4 ADD SWAP2 DUP6 ADD SWAP1 DUP1 DUP4 DUP4 PUSH1 0x0 JUMPDEST DUP4 DUP2 LT ISZERO PUSH2 0x200 JUMPI DUP2 DUP2 ADD MLOAD DUP4 DUP3 ADD MSTORE PUSH1 0x20 ADD PUSH2 0x1E8 JUMP JUMPDEST POP POP POP POP SWAP1 POP SWAP1 DUP2 ADD SWAP1 PUSH1 0x1F AND DUP1 ISZERO PUSH2 0x22D JUMPI DUP1 DUP3 SUB DUP1 MLOAD PUSH1 0x1 DUP4 PUSH1 0x20 SUB PUSH2 0x100 EXP SUB NOT AND DUP2 MSTORE PUSH1 0x20 ADD SWAP2 POP JUMPDEST POP SWAP3 POP POP POP PUSH1 0x40 MLOAD DUP1 SWAP2 SUB SWAP1 RETURN JUMPDEST PUSH2 0x267 PUSH1 0x4 DUP1 CALLDATASIZE SUB PUSH1 0x40 DUP2 LT ISZERO PUSH2 0x251 JUMPI PUSH1 0x0 DUP1 REVERT JUMPDEST POP PUSH1 0x1 PUSH1 0x1 PUSH1 0xA0 SHL SUB DUP2 CALLDATALOAD AND SWAP1 PUSH1 0x20 ADD CALLDATALOAD PUSH2 0x60D JUMP JUMPDEST PUSH1 0x40 DUP1 MLOAD SWAP2 ISZERO ISZERO DUP3 MSTORE MLOAD SWAP1 DUP2 SWAP1 SUB PUSH1 0x20 ADD SWAP1 RETURN JUMPDEST PUSH2 0x283 PUSH2 0x622 JUMP JUMPDEST PUSH1 0x40 DUP1 MLOAD SWAP2 DUP3 MSTORE MLOAD SWAP1 DUP2 SWAP1 SUB PUSH1 0x20 ADD SWAP1 RETURN JUMPDEST PUSH2 0x267 PUSH1 0x4 DUP1 CALLDATASIZE SUB PUSH1 0x60 DUP2 LT ISZERO PUSH2 0x2AB JUMPI PUSH1 0x0 DUP1 REVERT JUMPDEST POP PUSH1 0x1 PUSH1 0x1 PUSH1 0xA0 SHL SUB DUP2 CALLDATALOAD DUP2 AND SWAP2 PUSH1 0x20 DUP2 ADD CALLDATALOAD SWAP1 SWAP2 AND SWAP1 PUSH1 0x40 ADD CALLDATALOAD PUSH2 0x628 JUMP JUMPDEST PUSH2 0x283 PUSH2 0x807 JUMP JUMPDEST PUSH2 0x2DB PUSH2 0x82B JUMP JUMPDEST PUSH1 0x40 DUP1 MLOAD PUSH1 0xFF SWAP1 SWAP3 AND DUP3 MSTORE MLOAD SWAP1 DUP2 SWAP1 SUB PUSH1 0x20 ADD SWAP1 RETURN JUMPDEST PUSH2 0x30E PUSH1 0x4 DUP1 CALLDATASIZE SUB PUSH1 0x20 DUP2 LT ISZERO PUSH2 0x307 JUMPI PUSH1 0x0 DUP1 REVERT JUMPDEST POP CALLDATALOAD PUSH2 0x830 JUMP JUMPDEST STOP JUMPDEST PUSH2 0x283 PUSH2 0x88E JUMP JUMPDEST PUSH2 0x30E PUSH1 0x4 DUP1 CALLDATASIZE SUB PUSH1 0x40 DUP2 LT ISZERO PUSH2 0x32E JUMPI PUSH1 0x0 DUP1 REVERT JUMPDEST POP PUSH1 0x1 PUSH1 0x1 PUSH1 0xA0 SHL SUB DUP2 CALLDATALOAD AND SWAP1 PUSH1 0x20 ADD CALLDATALOAD PUSH2 0x894 JUMP JUMPDEST PUSH2 0x30E PUSH1 0x4 DUP1 CALLDATASIZE SUB PUSH1 0x20 DUP2 LT ISZERO PUSH2 0x35A JUMPI PUSH1 0x0 DUP1 REVERT JUMPDEST POP CALLDATALOAD PUSH1 0x1 PUSH1 0x1 PUSH1 0xA0 SHL SUB AND PUSH2 0xA52 JUMP JUMPDEST PUSH2 0x1C6 PUSH2 0xAC8 JUMP JUMPDEST PUSH2 0x283 PUSH1 0x4 DUP1 CALLDATASIZE SUB PUSH1 0x20 DUP2 LT ISZERO PUSH2 0x388 JUMPI PUSH1 0x0 DUP1 REVERT JUMPDEST POP CALLDATALOAD PUSH1 0x1 PUSH1 0x1 PUSH1 0xA0 SHL SUB AND PUSH2 0xB01 JUMP JUMPDEST PUSH2 0x283 PUSH1 0x4 DUP1 CALLDATASIZE SUB PUSH1 0x20 DUP2 LT ISZERO PUSH2 0x3AE JUMPI PUSH1 0x0 DUP1 REVERT JUMPDEST POP CALLDATALOAD PUSH1 0x1 PUSH1 0x1 PUSH1 0xA0 SHL SUB AND PUSH2 0xB13 JUMP JUMPDEST PUSH2 0x283 PUSH1 0x4 DUP1 CALLDATASIZE SUB PUSH1 0x20 DUP2 LT ISZERO PUSH2 0x3D4 JUMPI PUSH1 0x0 DUP1 REVERT JUMPDEST POP CALLDATALOAD PUSH1 0x1 PUSH1 0x1 PUSH1 0xA0 SHL SUB AND PUSH2 0xB25 JUMP JUMPDEST PUSH2 0x30E PUSH1 0x4 DUP1 CALLDATASIZE SUB PUSH2 0x100 DUP2 LT ISZERO PUSH2 0x3FB JUMPI PUSH1 0x0 DUP1 REVERT JUMPDEST POP PUSH1 0x1 PUSH1 0x1 PUSH1 0xA0 SHL SUB DUP2 CALLDATALOAD DUP2 AND SWAP2 PUSH1 0x20 DUP2 ADD CALLDATALOAD SWAP1 SWAP2 AND SWAP1 PUSH1 0x40 DUP2 ADD CALLDATALOAD SWAP1 PUSH1 0x60 DUP2 ADD CALLDATALOAD SWAP1 PUSH1 0x80 DUP2 ADD CALLDATALOAD ISZERO ISZERO SWAP1 PUSH1 0xFF PUSH1 0xA0 DUP3 ADD CALLDATALOAD AND SWAP1 PUSH1 0xC0 DUP2 ADD CALLDATALOAD SWAP1 PUSH1 0xE0 ADD CALLDATALOAD PUSH2 0xB37 JUMP JUMPDEST PUSH2 0x283 PUSH1 0x4 DUP1 CALLDATASIZE SUB PUSH1 0x20 DUP2 LT ISZERO PUSH2 0x454 JUMPI PUSH1 0x0 DUP1 REVERT JUMPDEST POP CALLDATALOAD PUSH1 0x1 PUSH1 0x1 PUSH1 0xA0 SHL SUB AND PUSH2 0xE76 JUMP JUMPDEST PUSH2 0x1C6 PUSH2 0xE88 JUMP JUMPDEST PUSH2 0x30E PUSH1 0x4 DUP1 CALLDATASIZE SUB PUSH1 0x20 DUP2 LT ISZERO PUSH2 0x482 JUMPI PUSH1 0x0 DUP1 REVERT JUMPDEST POP CALLDATALOAD PUSH1 0x1 PUSH1 0x1 PUSH1 0xA0 SHL SUB AND PUSH2 0xEC1 JUMP JUMPDEST PUSH2 0x30E PUSH1 0x4 DUP1 CALLDATASIZE SUB PUSH1 0x40 DUP2 LT ISZERO PUSH2 0x4A8 JUMPI PUSH1 0x0 DUP1 REVERT JUMPDEST POP PUSH1 0x1 PUSH1 0x1 PUSH1 0xA0 SHL SUB DUP2 CALLDATALOAD AND SWAP1 PUSH1 0x20 ADD CALLDATALOAD PUSH2 0xF34 JUMP JUMPDEST PUSH2 0x267 PUSH1 0x4 DUP1 CALLDATASIZE SUB PUSH1 0x40 DUP2 LT ISZERO PUSH2 0x4D4 JUMPI PUSH1 0x0 DUP1 REVERT JUMPDEST POP PUSH1 0x1 PUSH1 0x1 PUSH1 0xA0 SHL SUB DUP2 CALLDATALOAD AND SWAP1 PUSH1 0x20 ADD CALLDATALOAD PUSH2 0x10F1 JUMP JUMPDEST PUSH2 0x30E PUSH1 0x4 DUP1 CALLDATASIZE SUB PUSH1 0x40 DUP2 LT ISZERO PUSH2 0x500 JUMPI PUSH1 0x0 DUP1 REVERT JUMPDEST POP PUSH1 0x1 PUSH1 0x1 PUSH1 0xA0 SHL SUB DUP2 CALLDATALOAD AND SWAP1 PUSH1 0x20 ADD CALLDATALOAD PUSH2 0x10FE JUMP JUMPDEST PUSH2 0x30E PUSH1 0x4 DUP1 CALLDATASIZE SUB PUSH1 0x60 DUP2 LT ISZERO PUSH2 0x52C JUMPI PUSH1 0x0 DUP1 REVERT JUMPDEST POP PUSH1 0x1 PUSH1 0x1 PUSH1 0xA0 SHL SUB DUP2 CALLDATALOAD DUP2 AND SWAP2 PUSH1 0x20 DUP2 ADD CALLDATALOAD SWAP1 SWAP2 AND SWAP1 PUSH1 0x40 ADD CALLDATALOAD PUSH2 0x110E JUMP JUMPDEST PUSH2 0x283 PUSH1 0x4 DUP1 CALLDATASIZE SUB PUSH1 0x20 DUP2 LT ISZERO PUSH2 0x562 JUMPI PUSH1 0x0 DUP1 REVERT JUMPDEST POP CALLDATALOAD PUSH1 0x1 PUSH1 0x1 PUSH1 0xA0 SHL SUB AND PUSH2 0x111F JUMP JUMPDEST PUSH2 0x283 PUSH1 0x4 DUP1 CALLDATASIZE SUB PUSH1 0x40 DUP2 LT ISZERO PUSH2 0x588 JUMPI PUSH1 0x0 DUP1 REVERT JUMPDEST POP PUSH1 0x1 PUSH1 0x1 PUSH1 0xA0 SHL SUB DUP2 CALLDATALOAD DUP2 AND SWAP2 PUSH1 0x20 ADD CALLDATALOAD AND PUSH2 0x1131 JUMP JUMPDEST PUSH2 0x283 PUSH2 0x113D JUMP JUMPDEST PUSH2 0x30E PUSH1 0x4 DUP1 CALLDATASIZE SUB PUSH1 0x40 DUP2 LT ISZERO PUSH2 0x5BE JUMPI PUSH1 0x0 DUP1 REVERT JUMPDEST POP PUSH1 0x1 PUSH1 0x1 PUSH1 0xA0 SHL SUB DUP2 CALLDATALOAD AND SWAP1 PUSH1 0x20 ADD CALLDATALOAD PUSH2 0x1143 JUMP JUMPDEST PUSH1 0x40 MLOAD DUP1 PUSH1 0x40 ADD PUSH1 0x40 MSTORE DUP1 PUSH1 0xE DUP2 MSTORE PUSH1 0x20 ADD PUSH32 0x44616920537461626C65636F696E000000000000000000000000000000000000 DUP2 MSTORE POP DUP2 JUMP JUMPDEST PUSH1 0x0 PUSH2 0x619 DUP4 DUP4 PUSH2 0x114E JUMP JUMPDEST SWAP1 POP JUMPDEST SWAP3 SWAP2 POP POP JUMP JUMPDEST PUSH1 0x1 SLOAD DUP2 JUMP JUMPDEST PUSH1 0x1 PUSH1 0x1 PUSH1 0xA0 SHL SUB DUP4 AND PUSH1 0x0 SWAP1 DUP2 MSTORE PUSH1 0x3 PUSH1 0x20 MSTORE PUSH1 0x40 DUP2 KECCAK256 SLOAD DUP3 GT ISZERO PUSH2 0x695 JUMPI PUSH1 0x40 DUP1 MLOAD PUSH3 0x461BCD PUSH1 0xE5 SHL DUP2 MSTORE PUSH1 0x20 PUSH1 0x4 DUP3 ADD MSTORE PUSH1 0x18 PUSH1 0x24 DUP3 ADD MSTORE PUSH32 0x4461692F696E73756666696369656E742D62616C616E63650000000000000000 PUSH1 0x44 DUP3 ADD MSTORE SWAP1 MLOAD SWAP1 DUP2 SWAP1 SUB PUSH1 0x64 ADD SWAP1 REVERT JUMPDEST PUSH1 0x1 PUSH1 0x1 PUSH1 0xA0 SHL SUB DUP5 AND CALLER EQ DUP1 ISZERO SWAP1 PUSH2 0x6B9 JUMPI POP PUSH1 0x0 NOT PUSH2 0x6B6 DUP6 CALLER PUSH2 0x11B4 JUMP JUMPDEST EQ ISZERO JUMPDEST ISZERO PUSH2 0x754 JUMPI DUP2 PUSH2 0x6C9 DUP6 CALLER PUSH2 0x11B4 JUMP JUMPDEST LT ISZERO PUSH2 0x71C JUMPI PUSH1 0x40 DUP1 MLOAD PUSH3 0x461BCD PUSH1 0xE5 SHL DUP2 MSTORE PUSH1 0x20 PUSH1 0x4 DUP3 ADD MSTORE PUSH1 0x1A PUSH1 0x24 DUP3 ADD MSTORE PUSH32 0x4461692F696E73756666696369656E742D616C6C6F77616E6365000000000000 PUSH1 0x44 DUP3 ADD MSTORE SWAP1 MLOAD SWAP1 DUP2 SWAP1 SUB PUSH1 0x64 ADD SWAP1 REVERT JUMPDEST PUSH2 0x72F PUSH2 0x729 DUP6 CALLER PUSH2 0x11B4 JUMP JUMPDEST DUP4 PUSH2 0x11DF JUMP JUMPDEST PUSH1 0x1 PUSH1 0x1 PUSH1 0xA0 SHL SUB DUP6 AND PUSH1 0x0 SWAP1 DUP2 MSTORE PUSH1 0x4 PUSH1 0x20 SWAP1 DUP2 MSTORE PUSH1 0x40 DUP1 DUP4 KECCAK256 CALLER DUP5 MSTORE SWAP1 SWAP2 MSTORE SWAP1 KECCAK256 SSTORE JUMPDEST PUSH1 0x1 PUSH1 0x1 PUSH1 0xA0 SHL SUB DUP5 AND PUSH1 0x0 SWAP1 DUP2 MSTORE PUSH1 0x3 PUSH1 0x20 MSTORE PUSH1 0x40 SWAP1 KECCAK256 SLOAD PUSH2 0x777 SWAP1 DUP4 PUSH2 0x11DF JUMP JUMPDEST PUSH1 0x1 PUSH1 0x1 PUSH1 0xA0 SHL SUB DUP1 DUP7 AND PUSH1 0x0 SWAP1 DUP2 MSTORE PUSH1 0x3 PUSH1 0x20 MSTORE PUSH1 0x40 DUP1 DUP3 KECCAK256 SWAP4 SWAP1 SWAP4 SSTORE SWAP1 DUP6 AND DUP2 MSTORE KECCAK256 SLOAD PUSH2 0x7A6 SWAP1 DUP4 PUSH2 0x11EF JUMP JUMPDEST PUSH1 0x1 PUSH1 0x1 PUSH1 0xA0 SHL SUB DUP1 DUP6 AND PUSH1 0x0 DUP2 DUP2 MSTORE PUSH1 0x3 PUSH1 0x20 SWAP1 DUP2 MSTORE PUSH1 0x40 SWAP2 DUP3 SWAP1 KECCAK256 SWAP5 SWAP1 SWAP5 SSTORE DUP1 MLOAD DUP7 DUP2 MSTORE SWAP1 MLOAD SWAP2 SWAP4 SWAP3 DUP9 AND SWAP3 PUSH32 0xDDF252AD1BE2C89B69C2B068FC378DAA952BA7F163C4A11628F55A4DF523B3EF SWAP3 SWAP2 DUP3 SWAP1 SUB ADD SWAP1 LOG3 POP PUSH1 0x1 SWAP4 SWAP3 POP POP POP JUMP JUMPDEST PUSH32 0xEA2AA0A1BE11A07ED86D755C93467F4F82362B452371D1BA94D1715123511ACB DUP2 JUMP JUMPDEST PUSH1 0x12 DUP2 JUMP JUMPDEST CALLER PUSH1 0x0 SWAP1 DUP2 MSTORE PUSH1 0x20 DUP2 SWAP1 MSTORE PUSH1 0x40 SWAP1 KECCAK256 SLOAD PUSH1 0x1 EQ PUSH2 0x889 JUMPI PUSH1 0x40 DUP1 MLOAD PUSH3 0x461BCD PUSH1 0xE5 SHL DUP2 MSTORE PUSH1 0x20 PUSH1 0x4 DUP3 ADD MSTORE PUSH1 0x12 PUSH1 0x24 DUP3 ADD MSTORE PUSH18 0x11185A4BDB9BDD0B585D5D1A1BDC9A5E9959 PUSH1 0x72 SHL PUSH1 0x44 DUP3 ADD MSTORE SWAP1 MLOAD SWAP1 DUP2 SWAP1 SUB PUSH1 0x64 ADD SWAP1 REVERT JUMPDEST PUSH1 0x2 SSTORE JUMP JUMPDEST PUSH1 0x8 SLOAD DUP2 JUMP JUMPDEST CALLER PUSH1 0x0 SWAP1 DUP2 MSTORE PUSH1 0x20 DUP2 SWAP1 MSTORE PUSH1 0x40 SWAP1 KECCAK256 SLOAD PUSH2 0x9C1 JUMPI PUSH1 0x2 SLOAD CALLER PUSH1 0x0 SWAP1 DUP2 MSTORE PUSH1 0x7 PUSH1 0x20 MSTORE PUSH1 0x40 SWAP1 KECCAK256 SLOAD PUSH2 0x8C6 SWAP1 DUP4 SWAP1 PUSH2 0x11EF JUMP JUMPDEST GT ISZERO DUP1 PUSH2 0x8FD JUMPI POP CALLER PUSH1 0x0 SWAP1 DUP2 MSTORE PUSH1 0x6 PUSH1 0x20 MSTORE PUSH1 0x40 SWAP1 KECCAK256 SLOAD PUSH2 0x1964 SWAP1 PUSH2 0x8ED SWAP1 NUMBER SWAP1 PUSH2 0x11DF JUMP JUMPDEST LT ISZERO DUP1 ISZERO PUSH2 0x8FD JUMPI POP PUSH1 0x2 SLOAD DUP2 GT ISZERO JUMPDEST PUSH2 0x94E JUMPI PUSH1 0x40 DUP1 MLOAD PUSH3 0x461BCD PUSH1 0xE5 SHL DUP2 MSTORE PUSH1 0x20 PUSH1 0x4 DUP3 ADD MSTORE PUSH1 0x14 PUSH1 0x24 DUP3 ADD MSTORE PUSH32 0x4F766572206461696C7920444149204C696D6974000000000000000000000000 PUSH1 0x44 DUP3 ADD MSTORE SWAP1 MLOAD SWAP1 DUP2 SWAP1 SUB PUSH1 0x64 ADD SWAP1 REVERT JUMPDEST CALLER PUSH1 0x0 SWAP1 DUP2 MSTORE PUSH1 0x6 PUSH1 0x20 MSTORE PUSH1 0x40 SWAP1 KECCAK256 SLOAD PUSH2 0x1964 SWAP1 PUSH2 0x96D SWAP1 NUMBER SWAP1 PUSH2 0x11DF JUMP JUMPDEST LT PUSH2 0x996 JUMPI CALLER PUSH1 0x0 SWAP1 DUP2 MSTORE PUSH1 0x7 PUSH1 0x20 SWAP1 DUP2 MSTORE PUSH1 0x40 DUP1 DUP4 KECCAK256 DUP5 SWAP1 SSTORE PUSH1 0x6 SWAP1 SWAP2 MSTORE SWAP1 KECCAK256 NUMBER SWAP1 SSTORE PUSH2 0x9C1 JUMP JUMPDEST CALLER PUSH1 0x0 SWAP1 DUP2 MSTORE PUSH1 0x7 PUSH1 0x20 MSTORE PUSH1 0x40 SWAP1 KECCAK256 SLOAD PUSH2 0x9B0 SWAP1 DUP3 PUSH2 0x11EF JUMP JUMPDEST CALLER PUSH1 0x0 SWAP1 DUP2 MSTORE PUSH1 0x7 PUSH1 0x20 MSTORE PUSH1 0x40 SWAP1 KECCAK256 SSTORE JUMPDEST PUSH1 0x1 PUSH1 0x1 PUSH1 0xA0 SHL SUB DUP3 AND PUSH1 0x0 SWAP1 DUP2 MSTORE PUSH1 0x3 PUSH1 0x20 MSTORE PUSH1 0x40 SWAP1 KECCAK256 SLOAD PUSH2 0x9E4 SWAP1 DUP3 PUSH2 0x11EF JUMP JUMPDEST PUSH1 0x1 PUSH1 0x1 PUSH1 0xA0 SHL SUB DUP4 AND PUSH1 0x0 SWAP1 DUP2 MSTORE PUSH1 0x3 PUSH1 0x20 MSTORE PUSH1 0x40 SWAP1 KECCAK256 SSTORE PUSH1 0x1 SLOAD PUSH2 0xA0A SWAP1 DUP3 PUSH2 0x11EF JUMP JUMPDEST PUSH1 0x1 SSTORE PUSH1 0x40 DUP1 MLOAD DUP3 DUP2 MSTORE SWAP1 MLOAD PUSH1 0x1 PUSH1 0x1 PUSH1 0xA0 SHL SUB DUP5 AND SWAP2 PUSH1 0x0 SWAP2 PUSH32 0xDDF252AD1BE2C89B69C2B068FC378DAA952BA7F163C4A11628F55A4DF523B3EF SWAP2 DUP2 SWAP1 SUB PUSH1 0x20 ADD SWAP1 LOG3 POP POP JUMP JUMPDEST CALLER PUSH1 0x0 SWAP1 DUP2 MSTORE PUSH1 0x20 DUP2 SWAP1 MSTORE PUSH1 0x40 SWAP1 KECCAK256 SLOAD PUSH1 0x1 EQ PUSH2 0xAAB JUMPI PUSH1 0x40 DUP1 MLOAD PUSH3 0x461BCD PUSH1 0xE5 SHL DUP2 MSTORE PUSH1 0x20 PUSH1 0x4 DUP3 ADD MSTORE PUSH1 0x12 PUSH1 0x24 DUP3 ADD MSTORE PUSH18 0x11185A4BDB9BDD0B585D5D1A1BDC9A5E9959 PUSH1 0x72 SHL PUSH1 0x44 DUP3 ADD MSTORE SWAP1 MLOAD SWAP1 DUP2 SWAP1 SUB PUSH1 0x64 ADD SWAP1 REVERT JUMPDEST PUSH1 0x1 PUSH1 0x1 PUSH1 0xA0 SHL SUB AND PUSH1 0x0 SWAP1 DUP2 MSTORE PUSH1 0x20 DUP2 SWAP1 MSTORE PUSH1 0x40 SWAP1 KECCAK256 PUSH1 0x1 SWAP1 SSTORE JUMP JUMPDEST PUSH1 0x40 MLOAD DUP1 PUSH1 0x40 ADD PUSH1 0x40 MSTORE DUP1 PUSH1 0x1 DUP2 MSTORE PUSH1 0x20 ADD PUSH32 0x3100000000000000000000000000000000000000000000000000000000000000 DUP2 MSTORE POP DUP2 JUMP JUMPDEST PUSH1 0x3 PUSH1 0x20 MSTORE PUSH1 0x0 SWAP1 DUP2 MSTORE PUSH1 0x40 SWAP1 KECCAK256 SLOAD DUP2 JUMP JUMPDEST PUSH1 0x6 PUSH1 0x20 MSTORE PUSH1 0x0 SWAP1 DUP2 MSTORE PUSH1 0x40 SWAP1 KECCAK256 SLOAD DUP2 JUMP JUMPDEST PUSH1 0x5 PUSH1 0x20 MSTORE PUSH1 0x0 SWAP1 DUP2 MSTORE PUSH1 0x40 SWAP1 KECCAK256 SLOAD DUP2 JUMP JUMPDEST PUSH1 0x8 SLOAD PUSH1 0x40 DUP1 MLOAD PUSH32 0xEA2AA0A1BE11A07ED86D755C93467F4F82362B452371D1BA94D1715123511ACB PUSH1 0x20 DUP1 DUP4 ADD SWAP2 SWAP1 SWAP2 MSTORE PUSH1 0x1 PUSH1 0x1 PUSH1 0xA0 SHL SUB DUP1 DUP14 AND DUP4 DUP6 ADD DUP2 SWAP1 MSTORE SWAP1 DUP13 AND PUSH1 0x60 DUP5 ADD MSTORE PUSH1 0x80 DUP4 ADD DUP12 SWAP1 MSTORE PUSH1 0xA0 DUP4 ADD DUP11 SWAP1 MSTORE DUP9 ISZERO ISZERO PUSH1 0xC0 DUP1 DUP6 ADD SWAP2 SWAP1 SWAP2 MSTORE DUP5 MLOAD DUP1 DUP6 SUB SWAP1 SWAP2 ADD DUP2 MSTORE PUSH1 0xE0 DUP5 ADD DUP6 MSTORE DUP1 MLOAD SWAP1 DUP4 ADD KECCAK256 PUSH32 0x1901000000000000000000000000000000000000000000000000000000000000 PUSH2 0x100 DUP6 ADD MSTORE PUSH2 0x102 DUP5 ADD SWAP6 SWAP1 SWAP6 MSTORE PUSH2 0x122 DUP1 DUP5 ADD SWAP6 SWAP1 SWAP6 MSTORE DUP4 MLOAD DUP1 DUP5 SUB SWAP1 SWAP6 ADD DUP6 MSTORE PUSH2 0x142 SWAP1 SWAP3 ADD SWAP1 SWAP3 MSTORE DUP3 MLOAD SWAP3 SWAP1 SWAP2 ADD SWAP2 SWAP1 SWAP2 KECCAK256 SWAP1 PUSH2 0xC5A JUMPI PUSH1 0x40 DUP1 MLOAD PUSH3 0x461BCD PUSH1 0xE5 SHL DUP2 MSTORE PUSH1 0x20 PUSH1 0x4 DUP3 ADD MSTORE PUSH1 0x15 PUSH1 0x24 DUP3 ADD MSTORE PUSH32 0x4461692F696E76616C69642D616464726573732D300000000000000000000000 PUSH1 0x44 DUP3 ADD MSTORE SWAP1 MLOAD SWAP1 DUP2 SWAP1 SUB PUSH1 0x64 ADD SWAP1 REVERT JUMPDEST PUSH1 0x1 DUP2 DUP6 DUP6 DUP6 PUSH1 0x40 MLOAD PUSH1 0x0 DUP2 MSTORE PUSH1 0x20 ADD PUSH1 0x40 MSTORE PUSH1 0x40 MLOAD DUP1 DUP6 DUP2 MSTORE PUSH1 0x20 ADD DUP5 PUSH1 0xFF AND DUP2 MSTORE PUSH1 0x20 ADD DUP4 DUP2 MSTORE PUSH1 0x20 ADD DUP3 DUP2 MSTORE PUSH1 0x20 ADD SWAP5 POP POP POP POP POP PUSH1 0x20 PUSH1 0x40 MLOAD PUSH1 0x20 DUP2 SUB SWAP1 DUP1 DUP5 SUB SWAP1 DUP6 GAS STATICCALL ISZERO DUP1 ISZERO PUSH2 0xCB4 JUMPI RETURNDATASIZE PUSH1 0x0 DUP1 RETURNDATACOPY RETURNDATASIZE PUSH1 0x0 REVERT JUMPDEST POP POP POP PUSH1 0x20 PUSH1 0x40 MLOAD SUB MLOAD PUSH1 0x1 PUSH1 0x1 PUSH1 0xA0 SHL SUB AND DUP10 PUSH1 0x1 PUSH1 0x1 PUSH1 0xA0 SHL SUB AND EQ PUSH2 0xD23 JUMPI PUSH1 0x40 DUP1 MLOAD PUSH3 0x461BCD PUSH1 0xE5 SHL DUP2 MSTORE PUSH1 0x20 PUSH1 0x4 DUP3 ADD MSTORE PUSH1 0x12 PUSH1 0x24 DUP3 ADD MSTORE PUSH32 0x4461692F696E76616C69642D7065726D69740000000000000000000000000000 PUSH1 0x44 DUP3 ADD MSTORE SWAP1 MLOAD SWAP1 DUP2 SWAP1 SUB PUSH1 0x64 ADD SWAP1 REVERT JUMPDEST DUP6 ISZERO DUP1 PUSH2 0xD30 JUMPI POP DUP6 TIMESTAMP GT ISZERO JUMPDEST PUSH2 0xD81 JUMPI PUSH1 0x40 DUP1 MLOAD PUSH3 0x461BCD PUSH1 0xE5 SHL DUP2 MSTORE PUSH1 0x20 PUSH1 0x4 DUP3 ADD MSTORE PUSH1 0x12 PUSH1 0x24 DUP3 ADD MSTORE PUSH32 0x4461692F7065726D69742D657870697265640000000000000000000000000000 PUSH1 0x44 DUP3 ADD MSTORE SWAP1 MLOAD SWAP1 DUP2 SWAP1 SUB PUSH1 0x64 ADD SWAP1 REVERT JUMPDEST PUSH1 0x1 PUSH1 0x1 PUSH1 0xA0 SHL SUB DUP10 AND PUSH1 0x0 SWAP1 DUP2 MSTORE PUSH1 0x5 PUSH1 0x20 MSTORE PUSH1 0x40 SWAP1 KECCAK256 DUP1 SLOAD PUSH1 0x1 DUP2 ADD SWAP1 SWAP2 SSTORE DUP8 EQ PUSH2 0xDF5 JUMPI PUSH1 0x40 DUP1 MLOAD PUSH3 0x461BCD PUSH1 0xE5 SHL DUP2 MSTORE PUSH1 0x20 PUSH1 0x4 DUP3 ADD MSTORE PUSH1 0x11 PUSH1 0x24 DUP3 ADD MSTORE PUSH32 0x4461692F696E76616C69642D6E6F6E6365000000000000000000000000000000 PUSH1 0x44 DUP3 ADD MSTORE SWAP1 MLOAD SWAP1 DUP2 SWAP1 SUB PUSH1 0x64 ADD SWAP1 REVERT JUMPDEST PUSH1 0x0 DUP6 PUSH2 0xE03 JUMPI PUSH1 0x0 PUSH2 0xE07 JUMP JUMPDEST PUSH1 0x0 NOT JUMPDEST PUSH1 0x1 PUSH1 0x1 PUSH1 0xA0 SHL SUB DUP1 DUP13 AND PUSH1 0x0 DUP2 DUP2 MSTORE PUSH1 0x4 PUSH1 0x20 SWAP1 DUP2 MSTORE PUSH1 0x40 DUP1 DUP4 KECCAK256 SWAP5 DUP16 AND DUP1 DUP5 MSTORE SWAP5 DUP3 MSTORE SWAP2 DUP3 SWAP1 KECCAK256 DUP6 SWAP1 SSTORE DUP2 MLOAD DUP6 DUP2 MSTORE SWAP2 MLOAD SWAP5 SWAP6 POP SWAP3 SWAP4 SWAP2 SWAP3 PUSH32 0x8C5BE1E5EBEC7D5BD14F71427D1E84F3DD0314C0F7B2291E5B200AC8C7C3B925 SWAP3 SWAP2 DUP3 SWAP1 SUB ADD SWAP1 LOG3 POP POP POP POP POP POP POP POP POP POP JUMP JUMPDEST PUSH1 0x7 PUSH1 0x20 MSTORE PUSH1 0x0 SWAP1 DUP2 MSTORE PUSH1 0x40 SWAP1 KECCAK256 SLOAD DUP2 JUMP JUMPDEST PUSH1 0x40 MLOAD DUP1 PUSH1 0x40 ADD PUSH1 0x40 MSTORE DUP1 PUSH1 0x3 DUP2 MSTORE PUSH1 0x20 ADD PUSH32 0x4441490000000000000000000000000000000000000000000000000000000000 DUP2 MSTORE POP DUP2 JUMP JUMPDEST CALLER PUSH1 0x0 SWAP1 DUP2 MSTORE PUSH1 0x20 DUP2 SWAP1 MSTORE PUSH1 0x40 SWAP1 KECCAK256 SLOAD PUSH1 0x1 EQ PUSH2 0xF1A JUMPI PUSH1 0x40 DUP1 MLOAD PUSH3 0x461BCD PUSH1 0xE5 SHL DUP2 MSTORE PUSH1 0x20 PUSH1 0x4 DUP3 ADD MSTORE PUSH1 0x12 PUSH1 0x24 DUP3 ADD MSTORE PUSH18 0x11185A4BDB9BDD0B585D5D1A1BDC9A5E9959 PUSH1 0x72 SHL PUSH1 0x44 DUP3 ADD MSTORE SWAP1 MLOAD SWAP1 DUP2 SWAP1 SUB PUSH1 0x64 ADD SWAP1 REVERT JUMPDEST PUSH1 0x1 PUSH1 0x1 PUSH1 0xA0 SHL SUB AND PUSH1 0x0 SWAP1 DUP2 MSTORE PUSH1 0x20 DUP2 SWAP1 MSTORE PUSH1 0x40 DUP2 KECCAK256 SSTORE JUMP JUMPDEST PUSH1 0x1 PUSH1 0x1 PUSH1 0xA0 SHL SUB DUP3 AND PUSH1 0x0 SWAP1 DUP2 MSTORE PUSH1 0x3 PUSH1 0x20 MSTORE PUSH1 0x40 SWAP1 KECCAK256 SLOAD DUP2 GT ISZERO PUSH2 0xFA1 JUMPI PUSH1 0x40 DUP1 MLOAD PUSH3 0x461BCD PUSH1 0xE5 SHL DUP2 MSTORE PUSH1 0x20 PUSH1 0x4 DUP3 ADD MSTORE PUSH1 0x18 PUSH1 0x24 DUP3 ADD MSTORE PUSH32 0x4461692F696E73756666696369656E742D62616C616E63650000000000000000 PUSH1 0x44 DUP3 ADD MSTORE SWAP1 MLOAD SWAP1 DUP2 SWAP1 SUB PUSH1 0x64 ADD SWAP1 REVERT JUMPDEST PUSH1 0x1 PUSH1 0x1 PUSH1 0xA0 SHL SUB DUP3 AND CALLER EQ DUP1 ISZERO SWAP1 PUSH2 0xFC5 JUMPI POP PUSH1 0x0 NOT PUSH2 0xFC2 DUP4 CALLER PUSH2 0x11B4 JUMP JUMPDEST EQ ISZERO JUMPDEST ISZERO PUSH2 0x1060 JUMPI DUP1 PUSH2 0xFD5 DUP4 CALLER PUSH2 0x11B4 JUMP JUMPDEST LT ISZERO PUSH2 0x1028 JUMPI PUSH1 0x40 DUP1 MLOAD PUSH3 0x461BCD PUSH1 0xE5 SHL DUP2 MSTORE PUSH1 0x20 PUSH1 0x4 DUP3 ADD MSTORE PUSH1 0x1A PUSH1 0x24 DUP3 ADD MSTORE PUSH32 0x4461692F696E73756666696369656E742D616C6C6F77616E6365000000000000 PUSH1 0x44 DUP3 ADD MSTORE SWAP1 MLOAD SWAP1 DUP2 SWAP1 SUB PUSH1 0x64 ADD SWAP1 REVERT JUMPDEST PUSH2 0x103B PUSH2 0x1035 DUP4 CALLER PUSH2 0x11B4 JUMP JUMPDEST DUP3 PUSH2 0x11DF JUMP JUMPDEST PUSH1 0x1 PUSH1 0x1 PUSH1 0xA0 SHL SUB DUP4 AND PUSH1 0x0 SWAP1 DUP2 MSTORE PUSH1 0x4 PUSH1 0x20 SWAP1 DUP2 MSTORE PUSH1 0x40 DUP1 DUP4 KECCAK256 CALLER DUP5 MSTORE SWAP1 SWAP2 MSTORE SWAP1 KECCAK256 SSTORE JUMPDEST PUSH1 0x1 PUSH1 0x1 PUSH1 0xA0 SHL SUB DUP3 AND PUSH1 0x0 SWAP1 DUP2 MSTORE PUSH1 0x3 PUSH1 0x20 MSTORE PUSH1 0x40 SWAP1 KECCAK256 SLOAD PUSH2 0x1083 SWAP1 DUP3 PUSH2 0x11DF JUMP JUMPDEST PUSH1 0x1 PUSH1 0x1 PUSH1 0xA0 SHL SUB DUP4 AND PUSH1 0x0 SWAP1 DUP2 MSTORE PUSH1 0x3 PUSH1 0x20 MSTORE PUSH1 0x40 SWAP1 KECCAK256 SSTORE PUSH1 0x1 SLOAD PUSH2 0x10A9 SWAP1 DUP3 PUSH2 0x11DF JUMP JUMPDEST PUSH1 0x1 SSTORE PUSH1 0x40 DUP1 MLOAD DUP3 DUP2 MSTORE SWAP1 MLOAD PUSH1 0x0 SWAP2 PUSH1 0x1 PUSH1 0x1 PUSH1 0xA0 SHL SUB DUP6 AND SWAP2 PUSH32 0xDDF252AD1BE2C89B69C2B068FC378DAA952BA7F163C4A11628F55A4DF523B3EF SWAP2 DUP2 SWAP1 SUB PUSH1 0x20 ADD SWAP1 LOG3 POP POP JUMP JUMPDEST PUSH1 0x0 PUSH2 0x619 CALLER DUP5 DUP5 PUSH2 0x628 JUMP JUMPDEST PUSH2 0x1109 CALLER DUP4 DUP4 PUSH2 0x628 JUMP JUMPDEST POP POP POP JUMP JUMPDEST PUSH2 0x1119 DUP4 DUP4 DUP4 PUSH2 0x628 JUMP JUMPDEST POP POP POP POP JUMP JUMPDEST PUSH1 0x0 PUSH1 0x20 DUP2 SWAP1 MSTORE SWAP1 DUP2 MSTORE PUSH1 0x40 SWAP1 KECCAK256 SLOAD DUP2 JUMP JUMPDEST PUSH1 0x0 PUSH2 0x619 DUP4 DUP4 PUSH2 0x11B4 JUMP JUMPDEST PUSH1 0x2 SLOAD DUP2 JUMP JUMPDEST PUSH2 0x1109 DUP3 CALLER DUP4 PUSH2 0x628 JUMP JUMPDEST CALLER PUSH1 0x0 DUP2 DUP2 MSTORE PUSH1 0x4 PUSH1 0x20 SWAP1 DUP2 MSTORE PUSH1 0x40 DUP1 DUP4 KECCAK256 PUSH1 0x1 PUSH1 0x1 PUSH1 0xA0 SHL SUB DUP8 AND DUP1 DUP6 MSTORE SWAP1 DUP4 MSTORE DUP2 DUP5 KECCAK256 DUP7 SWAP1 SSTORE DUP2 MLOAD DUP7 DUP2 MSTORE SWAP2 MLOAD SWAP4 SWAP5 SWAP1 SWAP4 SWAP1 SWAP3 PUSH32 0x8C5BE1E5EBEC7D5BD14F71427D1E84F3DD0314C0F7B2291E5B200AC8C7C3B925 SWAP3 DUP3 SWAP1 SUB ADD SWAP1 LOG3 POP PUSH1 0x1 SWAP3 SWAP2 POP POP JUMP JUMPDEST PUSH1 0x1 PUSH1 0x1 PUSH1 0xA0 SHL SUB SWAP2 DUP3 AND PUSH1 0x0 SWAP1 DUP2 MSTORE PUSH1 0x4 PUSH1 0x20 SWAP1 DUP2 MSTORE PUSH1 0x40 DUP1 DUP4 KECCAK256 SWAP4 SWAP1 SWAP5 AND DUP3 MSTORE SWAP2 SWAP1 SWAP2 MSTORE KECCAK256 SLOAD SWAP1 JUMP JUMPDEST DUP1 DUP3 SUB DUP3 DUP2 GT ISZERO PUSH2 0x61C JUMPI PUSH1 0x0 DUP1 REVERT JUMPDEST DUP1 DUP3 ADD DUP3 DUP2 LT ISZERO PUSH2 0x61C JUMPI PUSH1 0x0 DUP1 REVERT INVALID LOG2 PUSH5 0x6970667358 0x22 SLT KECCAK256 PUSH13 0x98DA56381FD175400968844E3A 0xD0 0xB3 MULMOD CALLVALUE EQ NOT ADDMOD 0xA9 PUSH24 0x1A8288F586140CA1DF64736F6C6343000705003300000000 "
				},
				"gasEstimates": {
					"creation": {
						"codeDepositCost": "932200",
						"executionCost": "infinite",
						"totalCost": "infinite"
					},
					"external": {
						"DOMAIN_SEPARATOR()": "1066",
						"PERMIT_TYPEHASH()": "266",
						"addAuth(address)": "21239",
						"adjustDailyDAILimit(uint256)": "21129",
						"allowance(address,address)": "1365",
						"approve(address,uint256)": "22395",
						"balanceOf(address)": "1235",
						"burn(address,uint256)": "infinite",
						"daiMintedToday(address)": "1169",
						"dailyDAILimit()": "1086",
						"decimals()": "297",
						"deny(address)": "6277",
						"lastMintRestart(address)": "1170",
						"mint(address,uint256)": "infinite",
						"move(address,address,uint256)": "infinite",
						"name()": "infinite",
						"nonces(address)": "1192",
						"permit(address,address,uint256,uint256,bool,uint8,bytes32,bytes32)": "infinite",
						"pull(address,uint256)": "infinite",
						"push(address,uint256)": "infinite",
						"rely(address)": "21283",
						"symbol()": "infinite",
						"totalSupply()": "1089",
						"transfer(address,uint256)": "infinite",
						"transferFrom(address,address,uint256)": "infinite",
						"version()": "infinite",
						"wards(address)": "1171"
					},
					"internal": {
						"_allowance(address,address)": "992",
						"_approve(address,uint256)": "infinite",
						"add(uint256,uint256)": "54",
						"sub(uint256,uint256)": "54"
					}
				},
				"methodIdentifiers": {
					"DOMAIN_SEPARATOR()": "3644e515",
					"PERMIT_TYPEHASH()": "30adf81f",
					"addAuth(address)": "5422224e",
					"adjustDailyDAILimit(uint256)": "33b3cfc6",
					"allowance(address,address)": "dd62ed3e",
					"approve(address,uint256)": "095ea7b3",
					"balanceOf(address)": "70a08231",
					"burn(address,uint256)": "9dc29fac",
					"daiMintedToday(address)": "92bc513c",
					"dailyDAILimit()": "ef1277e0",
					"decimals()": "313ce567",
					"deny(address)": "9c52a7f1",
					"lastMintRestart(address)": "798247ae",
					"mint(address,uint256)": "40c10f19",
					"move(address,address,uint256)": "bb35783b",
					"name()": "06fdde03",
					"nonces(address)": "7ecebe00",
					"permit(address,address,uint256,uint256,bool,uint8,bytes32,bytes32)": "8fcbaf0c",
					"pull(address,uint256)": "f2d5d56b",
					"push(address,uint256)": "b753a98c",
					"rely(address)": "65fae35e",
					"symbol()": "95d89b41",
					"totalSupply()": "18160ddd",
					"transfer(address,uint256)": "a9059cbb",
					"transferFrom(address,address,uint256)": "23b872dd",
					"version()": "54fd4d50",
					"wards(address)": "bf353dbb"
				}
			},
			"storageLayout": {
				"storage": [
					{
						"astId": 141,
						"contract": "DAI/DAI.sol:DAI",
						"label": "wards",
						"offset": 0,
						"slot": "0",
						"type": "t_mapping(t_address,t_uint256)"
					},
					{
						"astId": 201,
						"contract": "DAI/DAI.sol:DAI",
						"label": "totalSupply",
						"offset": 0,
						"slot": "1",
						"type": "t_uint256"
					},
					{
						"astId": 203,
						"contract": "DAI/DAI.sol:DAI",
						"label": "dailyDAILimit",
						"offset": 0,
						"slot": "2",
						"type": "t_uint256"
					},
					{
						"astId": 207,
						"contract": "DAI/DAI.sol:DAI",
						"label": "balanceOf",
						"offset": 0,
						"slot": "3",
						"type": "t_mapping(t_address,t_uint256)"
					},
					{
						"astId": 213,
						"contract": "DAI/DAI.sol:DAI",
						"label": "allowances",
						"offset": 0,
						"slot": "4",
						"type": "t_mapping(t_address,t_mapping(t_address,t_uint256))"
					},
					{
						"astId": 217,
						"contract": "DAI/DAI.sol:DAI",
						"label": "nonces",
						"offset": 0,
						"slot": "5",
						"type": "t_mapping(t_address,t_uint256)"
					},
					{
						"astId": 221,
						"contract": "DAI/DAI.sol:DAI",
						"label": "lastMintRestart",
						"offset": 0,
						"slot": "6",
						"type": "t_mapping(t_address,t_uint256)"
					},
					{
						"astId": 225,
						"contract": "DAI/DAI.sol:DAI",
						"label": "daiMintedToday",
						"offset": 0,
						"slot": "7",
						"type": "t_mapping(t_address,t_uint256)"
					},
					{
						"astId": 269,
						"contract": "DAI/DAI.sol:DAI",
						"label": "DOMAIN_SEPARATOR",
						"offset": 0,
						"slot": "8",
						"type": "t_bytes32"
					}
				],
				"types": {
					"t_address": {
						"encoding": "inplace",
						"label": "address",
						"numberOfBytes": "20"
					},
					"t_bytes32": {
						"encoding": "inplace",
						"label": "bytes32",
						"numberOfBytes": "32"
					},
					"t_mapping(t_address,t_mapping(t_address,t_uint256))": {
						"encoding": "mapping",
						"key": "t_address",
						"label": "mapping(address => mapping(address => uint256))",
						"numberOfBytes": "32",
						"value": "t_mapping(t_address,t_uint256)"
					},
					"t_mapping(t_address,t_uint256)": {
						"encoding": "mapping",
						"key": "t_address",
						"label": "mapping(address => uint256)",
						"numberOfBytes": "32",
						"value": "t_uint256"
					},
					"t_uint256": {
						"encoding": "inplace",
						"label": "uint256",
						"numberOfBytes": "32"
					}
				}
			},
			"userdoc": {
				"kind": "user",
				"methods": {},
				"version": 1
			}
		}
	}
}