{
	"ExodusERC20Token/OlympusERC20.sol": {
		"ExodusERC20Token": {
			"abi": [
				{
					"inputs": [
						{
							"internalType": "address",
							"name": "_authority",
							"type": "address"
						}
					],
					"stateMutability": "nonpayable",
					"type": "constructor"
				},
				{
					"anonymous": false,
					"inputs": [
						{
							"indexed": true,
							"internalType": "address",
							"name": "owner",
							"type": "address"
						},
						{
							"indexed": true,
							"internalType": "address",
							"name": "spender",
							"type": "address"
						},
						{
							"indexed": false,
							"internalType": "uint256",
							"name": "value",
							"type": "uint256"
						}
					],
					"name": "Approval",
					"type": "event"
				},
				{
					"anonymous": false,
					"inputs": [
						{
							"indexed": true,
							"internalType": "contract IExodusAuthority",
							"name": "authority",
							"type": "address"
						}
					],
					"name": "AuthorityUpdated",
					"type": "event"
				},
				{
					"anonymous": false,
					"inputs": [
						{
							"indexed": true,
							"internalType": "address",
							"name": "from",
							"type": "address"
						},
						{
							"indexed": true,
							"internalType": "address",
							"name": "to",
							"type": "address"
						},
						{
							"indexed": false,
							"internalType": "uint256",
							"name": "value",
							"type": "uint256"
						}
					],
					"name": "Transfer",
					"type": "event"
				},
				{
					"inputs": [],
					"name": "DOMAIN_SEPARATOR",
					"outputs": [
						{
							"internalType": "bytes32",
							"name": "",
							"type": "bytes32"
						}
					],
					"stateMutability": "view",
					"type": "function"
				},
				{
					"inputs": [
						{
							"internalType": "address",
							"name": "owner",
							"type": "address"
						},
						{
							"internalType": "address",
							"name": "spender",
							"type": "address"
						}
					],
					"name": "allowance",
					"outputs": [
						{
							"internalType": "uint256",
							"name": "",
							"type": "uint256"
						}
					],
					"stateMutability": "view",
					"type": "function"
				},
				{
					"inputs": [
						{
							"internalType": "address",
							"name": "spender",
							"type": "address"
						},
						{
							"internalType": "uint256",
							"name": "amount",
							"type": "uint256"
						}
					],
					"name": "approve",
					"outputs": [
						{
							"internalType": "bool",
							"name": "",
							"type": "bool"
						}
					],
					"stateMutability": "nonpayable",
					"type": "function"
				},
				{
					"inputs": [],
					"name": "authority",
					"outputs": [
						{
							"internalType": "contract IExodusAuthority",
							"name": "",
							"type": "address"
						}
					],
					"stateMutability": "view",
					"type": "function"
				},
				{
					"inputs": [
						{
							"internalType": "address",
							"name": "account",
							"type": "address"
						}
					],
					"name": "balanceOf",
					"outputs": [
						{
							"internalType": "uint256",
							"name": "",
							"type": "uint256"
						}
					],
					"stateMutability": "view",
					"type": "function"
				},
				{
					"inputs": [
						{
							"internalType": "uint256",
							"name": "amount",
							"type": "uint256"
						}
					],
					"name": "burn",
					"outputs": [],
					"stateMutability": "nonpayable",
					"type": "function"
				},
				{
					"inputs": [
						{
							"internalType": "address",
							"name": "account_",
							"type": "address"
						},
						{
							"internalType": "uint256",
							"name": "amount_",
							"type": "uint256"
						}
					],
					"name": "burnFrom",
					"outputs": [],
					"stateMutability": "nonpayable",
					"type": "function"
				},
				{
					"inputs": [],
					"name": "decimals",
					"outputs": [
						{
							"internalType": "uint8",
							"name": "",
							"type": "uint8"
						}
					],
					"stateMutability": "view",
					"type": "function"
				},
				{
					"inputs": [
						{
							"internalType": "address",
							"name": "spender",
							"type": "address"
						},
						{
							"internalType": "uint256",
							"name": "subtractedValue",
							"type": "uint256"
						}
					],
					"name": "decreaseAllowance",
					"outputs": [
						{
							"internalType": "bool",
							"name": "",
							"type": "bool"
						}
					],
					"stateMutability": "nonpayable",
					"type": "function"
				},
				{
					"inputs": [
						{
							"internalType": "address",
							"name": "spender",
							"type": "address"
						},
						{
							"internalType": "uint256",
							"name": "addedValue",
							"type": "uint256"
						}
					],
					"name": "increaseAllowance",
					"outputs": [
						{
							"internalType": "bool",
							"name": "",
							"type": "bool"
						}
					],
					"stateMutability": "nonpayable",
					"type": "function"
				},
				{
					"inputs": [
						{
							"internalType": "address",
							"name": "account_",
							"type": "address"
						},
						{
							"internalType": "uint256",
							"name": "amount_",
							"type": "uint256"
						}
					],
					"name": "mint",
					"outputs": [],
					"stateMutability": "nonpayable",
					"type": "function"
				},
				{
					"inputs": [],
					"name": "name",
					"outputs": [
						{
							"internalType": "string",
							"name": "",
							"type": "string"
						}
					],
					"stateMutability": "view",
					"type": "function"
				},
				{
					"inputs": [
						{
							"internalType": "address",
							"name": "owner",
							"type": "address"
						}
					],
					"name": "nonces",
					"outputs": [
						{
							"internalType": "uint256",
							"name": "",
							"type": "uint256"
						}
					],
					"stateMutability": "view",
					"type": "function"
				},
				{
					"inputs": [
						{
							"internalType": "address",
							"name": "owner",
							"type": "address"
						},
						{
							"internalType": "address",
							"name": "spender",
							"type": "address"
						},
						{
							"internalType": "uint256",
							"name": "value",
							"type": "uint256"
						},
						{
							"internalType": "uint256",
							"name": "deadline",
							"type": "uint256"
						},
						{
							"internalType": "uint8",
							"name": "v",
							"type": "uint8"
						},
						{
							"internalType": "bytes32",
							"name": "r",
							"type": "bytes32"
						},
						{
							"internalType": "bytes32",
							"name": "s",
							"type": "bytes32"
						}
					],
					"name": "permit",
					"outputs": [],
					"stateMutability": "nonpayable",
					"type": "function"
				},
				{
					"inputs": [
						{
							"internalType": "contract IExodusAuthority",
							"name": "_newAuthority",
							"type": "address"
						}
					],
					"name": "setAuthority",
					"outputs": [],
					"stateMutability": "nonpayable",
					"type": "function"
				},
				{
					"inputs": [],
					"name": "symbol",
					"outputs": [
						{
							"internalType": "string",
							"name": "",
							"type": "string"
						}
					],
					"stateMutability": "view",
					"type": "function"
				},
				{
					"inputs": [],
					"name": "totalSupply",
					"outputs": [
						{
							"internalType": "uint256",
							"name": "",
							"type": "uint256"
						}
					],
					"stateMutability": "view",
					"type": "function"
				},
				{
					"inputs": [
						{
							"internalType": "address",
							"name": "recipient",
							"type": "address"
						},
						{
							"internalType": "uint256",
							"name": "amount",
							"type": "uint256"
						}
					],
					"name": "transfer",
					"outputs": [
						{
							"internalType": "bool",
							"name": "",
							"type": "bool"
						}
					],
					"stateMutability": "nonpayable",
					"type": "function"
				},
				{
					"inputs": [
						{
							"internalType": "address",
							"name": "sender",
							"type": "address"
						},
						{
							"internalType": "address",
							"name": "recipient",
							"type": "address"
						},
						{
							"internalType": "uint256",
							"name": "amount",
							"type": "uint256"
						}
					],
					"name": "transferFrom",
					"outputs": [
						{
							"internalType": "bool",
							"name": "",
							"type": "bool"
						}
					],
					"stateMutability": "nonpayable",
					"type": "function"
				}
			],
			"devdoc": {
				"kind": "dev",
				"methods": {
					"DOMAIN_SEPARATOR()": {
						"details": "See {IERC20Permit-DOMAIN_SEPARATOR}."
					},
					"nonces(address)": {
						"details": "See {IERC20Permit-nonces}."
					},
					"permit(address,address,uint256,uint256,uint8,bytes32,bytes32)": {
						"details": "See {IERC20Permit-permit}."
					}
				},
				"version": 1
			},
			"evm": {
				"assembly": "    /* \"ExodusERC20Token/ERC20Permit.sol\":971:1066  keccak256(\"Permit(address owner,address spender,uint256 value,uint256 nonce,uint256 deadline)\") */\n  0x6e71edae12b1b97f4d1f60370fef10105fa2faae0126114a169c64845d6126c9\n    /* \"ExodusERC20Token/ERC20Permit.sol\":918:1066  bytes32 private immutable _PERMIT_TYPEHASH =... */\n  0x0140\n  mstore\n    /* \"ExodusERC20Token/OlympusAccessControlled.sol\":255:291  string UNAUTHORIZED = \"UNAUTHORIZED\" */\n  0x01a0\n    /* \"ExodusERC20Token/OlympusERC20.sol\":231:1178  contract ExodusERC20Token is ERC20Permit, IEXO, ExodusAccessControlled {... */\n  0x40\n    /* \"ExodusERC20Token/OlympusAccessControlled.sol\":255:291  string UNAUTHORIZED = \"UNAUTHORIZED\" */\n  mstore\n  0x0c\n    /* \"ExodusERC20Token/OlympusERC20.sol\":231:1178  contract ExodusERC20Token is ERC20Permit, IEXO, ExodusAccessControlled {... */\n  0x0160\n    /* \"ExodusERC20Token/OlympusAccessControlled.sol\":255:291  string UNAUTHORIZED = \"UNAUTHORIZED\" */\n  dup2\n  swap1\n  mstore\n  shl(0xa2, 0x15539055551213d492569151)\n  0x0180\n  swap1\n  dup2\n  mstore\n  tag_1\n  swap2\n  0x06\n  swap2\n  swap1\n  tag_2\n  jump\t// in\ntag_1:\n  pop\n    /* \"ExodusERC20Token/OlympusERC20.sol\":341:504  constructor(address _authority)... */\n  callvalue\n  dup1\n  iszero\n  tag_3\n  jumpi\n  0x00\n  dup1\n  revert\ntag_3:\n  pop\n  mload(0x40)\n  sub(codesize, bytecodeSize)\n  dup1\n  bytecodeSize\n  dup4\n  codecopy\n  dup2\n  dup2\n  add\n  0x40\n  mstore\n  0x20\n  dup2\n  lt\n  iszero\n  tag_4\n  jumpi\n  0x00\n  dup1\n  revert\ntag_4:\n  pop\n  mload\n    /* \"ExodusERC20Token/ERC20Permit.sol\":1298:1350  constructor(string memory name) EIP712(name, \"1\") {} */\n  0x40\n  dup1\n  mload\n  dup1\n  dup3\n  add\n  dup3\n  mstore\n  0x06\n  dup1\n  dup3\n  mstore\n  shl(0xd0, 0x45786f647573)\n    /* \"ExodusERC20Token/OlympusERC20.sol\":341:504  constructor(address _authority)... */\n  0x20\n    /* \"ExodusERC20Token/ERC20Permit.sol\":1298:1350  constructor(string memory name) EIP712(name, \"1\") {} */\n  dup4\n  dup2\n  add\n  dup3\n  swap1\n  mstore\n    /* \"ExodusERC20Token/EIP712.sol\":2340:2986  constructor(string memory name, string memory version) {... */\n  dup5\n  mload\n  dup1\n  dup7\n  add\n  dup7\n  mstore\n  0x01\n  dup2\n  mstore\n  shl(0xf8, 0x31)\n  dup2\n  dup4\n  add\n  mstore\n    /* \"ExodusERC20Token/ERC20.sol\":586:777  constructor(... */\n  dup6\n  mload\n  dup1\n  dup8\n  add\n  dup8\n  mstore\n  swap4\n  dup5\n  mstore\n  dup4\n  dup3\n  add\n  swap3\n  dup4\n  mstore\n  dup6\n  mload\n  dup1\n  dup8\n  add\n  swap1\n  swap7\n  mstore\n  0x03\n  dup1\n  dup8\n  mstore\n  shl(0xe8, 0x45584f)\n  swap3\n  dup8\n  add\n  swap3\n  swap1\n  swap3\n  mstore\n    /* \"ExodusERC20Token/ERC20.sol\":699:712  _name = name_ */\n  dup4\n  mload\n    /* \"ExodusERC20Token/OlympusERC20.sol\":341:504  constructor(address _authority)... */\n  dup8\n  swap7\n    /* \"ExodusERC20Token/ERC20Permit.sol\":1298:1350  constructor(string memory name) EIP712(name, \"1\") {} */\n  dup7\n  swap6\n    /* \"ExodusERC20Token/EIP712.sol\":2340:2986  constructor(string memory name, string memory version) {... */\n  swap3\n  swap5\n    /* \"ExodusERC20Token/ERC20.sol\":586:777  constructor(... */\n  swap3\n  swap4\n  swap1\n  swap3\n    /* \"ExodusERC20Token/OlympusERC20.sol\":404:405  9 */\n  0x09\n  swap3\n    /* \"ExodusERC20Token/ERC20.sol\":699:712  _name = name_ */\n  tag_11\n  swap3\n    /* \"ExodusERC20Token/ERC20.sol\":586:777  constructor(... */\n  swap2\n  swap1\n    /* \"ExodusERC20Token/ERC20.sol\":699:712  _name = name_ */\n  tag_2\n  jump\t// in\ntag_11:\n  pop\n    /* \"ExodusERC20Token/ERC20.sol\":722:739  _symbol = symbol_ */\n  dup2\n  mload\n  tag_12\n  swap1\n    /* \"ExodusERC20Token/ERC20.sol\":722:729  _symbol */\n  0x04\n  swap1\n    /* \"ExodusERC20Token/ERC20.sol\":722:739  _symbol = symbol_ */\n  0x20\n  dup6\n  add\n  swap1\n  tag_2\n  jump\t// in\ntag_12:\n  pop\n    /* \"ExodusERC20Token/ERC20.sol\":749:770  _decimals = decimals_ */\n  0xf8\n  shl\n  0xff00000000000000000000000000000000000000000000000000000000000000\n  and\n  0x80\n  mstore\n  pop\n  pop\n    /* \"ExodusERC20Token/EIP712.sol\":2514:2536  keccak256(bytes(name)) */\n  dup2\n  mload\n  0x20\n  dup1\n  dup5\n  add\n  swap2\n  swap1\n  swap2\n  keccak256\n    /* \"ExodusERC20Token/EIP712.sol\":2570:2595  keccak256(bytes(version)) */\n  dup3\n  mload\n  swap2\n  dup4\n  add\n  swap2\n  swap1\n  swap2\n  keccak256\n    /* \"ExodusERC20Token/EIP712.sol\":2751:2776  _HASHED_NAME = hashedName */\n  0xe0\n  dup3\n  swap1\n  mstore\n    /* \"ExodusERC20Token/EIP712.sol\":2786:2817  _HASHED_VERSION = hashedVersion */\n  0x0100\n  dup2\n  swap1\n  mstore\n    /* \"ExodusERC20Token/EIP712.sol\":2464:2473  chainid() */\n  chainid\n    /* \"ExodusERC20Token/EIP712.sol\":2827:2853  _CACHED_CHAIN_ID = chainID */\n  0xc0\n  dup2\n  swap1\n  mstore\n    /* \"ExodusERC20Token/EIP712.sol\":2464:2473  chainid() */\n  swap2\n    /* \"ExodusERC20Token/EIP712.sol\":2514:2536  keccak256(bytes(name)) */\n  swap1\n    /* \"ExodusERC20Token/EIP712.sol\":2624:2741  keccak256(... */\n  0x8b73c3c69bb8fe3d512ecc4cf759cc79239f7b179b0ffacaa9a75d522b39400f\n    /* \"ExodusERC20Token/EIP712.sol\":2890:2948  _buildDomainSeparator(typeHash, hashedName, hashedVersion) */\n  tag_14\n    /* \"ExodusERC20Token/EIP712.sol\":2624:2741  keccak256(... */\n  dup2\n    /* \"ExodusERC20Token/EIP712.sol\":2514:2536  keccak256(bytes(name)) */\n  dup5\n    /* \"ExodusERC20Token/EIP712.sol\":2570:2595  keccak256(bytes(version)) */\n  dup5\n    /* \"ExodusERC20Token/EIP712.sol\":2890:2911  _buildDomainSeparator */\n  tag_15\n    /* \"ExodusERC20Token/EIP712.sol\":2890:2948  _buildDomainSeparator(typeHash, hashedName, hashedVersion) */\n  jump\t// in\ntag_14:\n    /* \"ExodusERC20Token/EIP712.sol\":2863:2948  _CACHED_DOMAIN_SEPARATOR = _buildDomainSeparator(typeHash, hashedName, hashedVersion) */\n  0xa0\n  mstore\n    /* \"ExodusERC20Token/EIP712.sol\":2958:2979  _TYPE_HASH = typeHash */\n  0x0120\n  mstore\n  pop\n  pop\n    /* \"ExodusERC20Token/OlympusAccessControlled.sol\":495:504  authority */\n  0x07\n    /* \"ExodusERC20Token/OlympusAccessControlled.sol\":495:517  authority = _authority */\n  dup1\n  sload\n  not(sub(shl(0xa0, 0x01), 0x01))\n  and\n  sub(shl(0xa0, 0x01), 0x01)\n  dup8\n  and\n  swap1\n  dup2\n  or\n  swap1\n  swap2\n  sstore\n    /* \"ExodusERC20Token/OlympusAccessControlled.sol\":532:560  AuthorityUpdated(_authority) */\n  mload(0x40)\n    /* \"ExodusERC20Token/OlympusAccessControlled.sol\":495:517  authority = _authority */\n  swap1\n  swap5\n  pop\n    /* \"ExodusERC20Token/OlympusAccessControlled.sol\":532:560  AuthorityUpdated(_authority) */\n  0x2f658b440c35314f52658ea8a740e05b284cdc84dc9ae01e891f21b8933e7cad\n  swap4\n  pop\n  0x00\n  swap3\n  pop\n  swap1\n  pop\n  log2\n    /* \"ExodusERC20Token/OlympusAccessControlled.sol\":444:567  constructor(IExodusAuthority _authority) {... */\n  pop\n    /* \"ExodusERC20Token/OlympusERC20.sol\":341:504  constructor(address _authority)... */\n  pop\n    /* \"ExodusERC20Token/OlympusERC20.sol\":231:1178  contract ExodusERC20Token is ERC20Permit, IEXO, ExodusAccessControlled {... */\n  jump(tag_19)\n    /* \"ExodusERC20Token/EIP712.sol\":3435:3774  function _buildDomainSeparator(... */\ntag_15:\n    /* \"ExodusERC20Token/EIP712.sol\":3699:3766  abi.encode(typeHash, nameHash, versionHash, chainID, address(this)) */\n  0x40\n  dup1\n  mload\n  0x20\n  dup1\n  dup3\n  add\n  swap6\n  swap1\n  swap6\n  mstore\n  dup1\n  dup3\n  add\n  swap4\n  swap1\n  swap4\n  mstore\n  0x60\n  dup4\n  add\n  swap2\n  swap1\n  swap2\n  mstore\n    /* \"ExodusERC20Token/EIP712.sol\":3653:3662  chainid() */\n  chainid\n    /* \"ExodusERC20Token/EIP712.sol\":3699:3766  abi.encode(typeHash, nameHash, versionHash, chainID, address(this)) */\n  0x80\n  dup4\n  add\n  mstore\n    /* \"ExodusERC20Token/EIP712.sol\":3760:3764  this */\n  address\n    /* \"ExodusERC20Token/EIP712.sol\":3699:3766  abi.encode(typeHash, nameHash, versionHash, chainID, address(this)) */\n  0xa0\n  dup1\n  dup5\n  add\n  swap2\n  swap1\n  swap2\n  mstore\n  dup2\n  mload\n  dup1\n  dup5\n  sub\n  swap1\n  swap2\n  add\n  dup2\n  mstore\n  0xc0\n  swap1\n  swap3\n  add\n  swap1\n  mstore\n    /* \"ExodusERC20Token/EIP712.sol\":3689:3767  keccak256(abi.encode(typeHash, nameHash, versionHash, chainID, address(this))) */\n  dup1\n  mload\n  swap2\n  add\n  keccak256\n  swap1\n    /* \"ExodusERC20Token/EIP712.sol\":3435:3774  function _buildDomainSeparator(... */\n  jump\t// out\n    /* \"ExodusERC20Token/OlympusERC20.sol\":231:1178  contract ExodusERC20Token is ERC20Permit, IEXO, ExodusAccessControlled {... */\ntag_2:\n  dup3\n  dup1\n  sload\n  0x01\n  dup2\n  0x01\n  and\n  iszero\n  0x0100\n  mul\n  sub\n  and\n  0x02\n  swap1\n  div\n  swap1\n  0x00\n  mstore\n  keccak256(0x00, 0x20)\n  swap1\n  0x1f\n  add\n  0x20\n  swap1\n  div\n  dup2\n  add\n  swap3\n  dup3\n  tag_22\n  jumpi\n  0x00\n  dup6\n  sstore\n  jump(tag_25)\ntag_22:\n  dup3\n  0x1f\n  lt\n  tag_23\n  jumpi\n  dup1\n  mload\n  not(0xff)\n  and\n  dup4\n  dup1\n  add\n  or\n  dup6\n  sstore\n  jump(tag_25)\ntag_23:\n  dup3\n  dup1\n  add\n  0x01\n  add\n  dup6\n  sstore\n  dup3\n  iszero\n  tag_25\n  jumpi\n  swap2\n  dup3\n  add\ntag_24:\n  dup3\n  dup2\n  gt\n  iszero\n  tag_25\n  jumpi\n  dup3\n  mload\n  dup3\n  sstore\n  swap2\n  0x20\n  add\n  swap2\n  swap1\n  0x01\n  add\n  swap1\n  jump(tag_24)\ntag_25:\n  pop\n  tag_26\n  swap3\n  swap2\n  pop\n  tag_27\n  jump\t// in\ntag_26:\n  pop\n  swap1\n  jump\t// out\ntag_27:\ntag_28:\n  dup1\n  dup3\n  gt\n  iszero\n  tag_26\n  jumpi\n  0x00\n  dup2\n  sstore\n  0x01\n  add\n  jump(tag_28)\ntag_19:\n  shr(0xf8, mload(0x80))\n  mload(0xa0)\n  mload(0xc0)\n  mload(0xe0)\n  mload(0x0100)\n  mload(0x0120)\n  mload(0x0140)\n  codecopy(0x00, dataOffset(sub_0), dataSize(sub_0))\n  assignImmutable(\"0xb8c8d0d478c56b61296da8683cc5119d1520a308cf11accdcc3ff14cb1d77999\")\n  assignImmutable(\"0x5ade3da6b1e878dacd678731417229d3052ad3d883d603995a413e3104e44893\")\n  assignImmutable(\"0xd1731c384d2c8ba1eafa1dee7436362fec5c2705b14e910ce09d6ba0a10fd695\")\n  assignImmutable(\"0xa15d3280aa3e4a045ba4928ae092d0b698801fe0fe2e296d74f795d639cb63ba\")\n  assignImmutable(\"0x7ee9b50c980554e091f5df8085692358417b660affc08e545e624793708cbe01\")\n  assignImmutable(\"0x28bbb0207f31d945816623d3302c5bf67e35f3d933c3b03a2cbc30cfa7ce31d8\")\n  assignImmutable(\"0x7c4b9619c581b88a141b2eb4807c7231fe75a5bedaa863d4150e3dabc19d88ab\")\n  return(0x00, dataSize(sub_0))\nstop\n\nsub_0: assembly {\n        /* \"ExodusERC20Token/OlympusERC20.sol\":231:1178  contract ExodusERC20Token is ERC20Permit, IEXO, ExodusAccessControlled {... */\n      mstore(0x40, 0x80)\n      callvalue\n      dup1\n      iszero\n      tag_1\n      jumpi\n      0x00\n      dup1\n      revert\n    tag_1:\n      pop\n      jumpi(tag_2, lt(calldatasize, 0x04))\n      shr(0xe0, calldataload(0x00))\n      dup1\n      0x70a08231\n      gt\n      tag_22\n      jumpi\n      dup1\n      0xa457c2d7\n      gt\n      tag_23\n      jumpi\n      dup1\n      0xbf7e214f\n      gt\n      tag_24\n      jumpi\n      dup1\n      0xbf7e214f\n      eq\n      tag_19\n      jumpi\n      dup1\n      0xd505accf\n      eq\n      tag_20\n      jumpi\n      dup1\n      0xdd62ed3e\n      eq\n      tag_21\n      jumpi\n      jump(tag_2)\n    tag_24:\n      dup1\n      0xa457c2d7\n      eq\n      tag_17\n      jumpi\n      dup1\n      0xa9059cbb\n      eq\n      tag_18\n      jumpi\n      jump(tag_2)\n    tag_23:\n      dup1\n      0x7a9e5e4b\n      gt\n      tag_25\n      jumpi\n      dup1\n      0x7a9e5e4b\n      eq\n      tag_14\n      jumpi\n      dup1\n      0x7ecebe00\n      eq\n      tag_15\n      jumpi\n      dup1\n      0x95d89b41\n      eq\n      tag_16\n      jumpi\n      jump(tag_2)\n    tag_25:\n      dup1\n      0x70a08231\n      eq\n      tag_12\n      jumpi\n      dup1\n      0x79cc6790\n      eq\n      tag_13\n      jumpi\n      jump(tag_2)\n    tag_22:\n      dup1\n      0x313ce567\n      gt\n      tag_26\n      jumpi\n      dup1\n      0x39509351\n      gt\n      tag_27\n      jumpi\n      dup1\n      0x39509351\n      eq\n      tag_9\n      jumpi\n      dup1\n      0x40c10f19\n      eq\n      tag_10\n      jumpi\n      dup1\n      0x42966c68\n      eq\n      tag_11\n      jumpi\n      jump(tag_2)\n    tag_27:\n      dup1\n      0x313ce567\n      eq\n      tag_7\n      jumpi\n      dup1\n      0x3644e515\n      eq\n      tag_8\n      jumpi\n      jump(tag_2)\n    tag_26:\n      dup1\n      0x06fdde03\n      eq\n      tag_3\n      jumpi\n      dup1\n      0x095ea7b3\n      eq\n      tag_4\n      jumpi\n      dup1\n      0x18160ddd\n      eq\n      tag_5\n      jumpi\n      dup1\n      0x23b872dd\n      eq\n      tag_6\n      jumpi\n    tag_2:\n      0x00\n      dup1\n      revert\n        /* \"ExodusERC20Token/ERC20.sol\":783:864  function name() public view returns (string memory) {... */\n    tag_3:\n      tag_28\n      tag_29\n      jump\t// in\n    tag_28:\n      0x40\n      dup1\n      mload\n      0x20\n      dup1\n      dup3\n      mstore\n      dup4\n      mload\n      dup2\n      dup4\n      add\n      mstore\n      dup4\n      mload\n      swap2\n      swap3\n      dup4\n      swap3\n      swap1\n      dup4\n      add\n      swap2\n      dup6\n      add\n      swap1\n      dup1\n      dup4\n      dup4\n      0x00\n    tag_30:\n      dup4\n      dup2\n      lt\n      iszero\n      tag_32\n      jumpi\n      dup2\n      dup2\n      add\n      mload\n      dup4\n      dup3\n      add\n      mstore\n      0x20\n      add\n      jump(tag_30)\n    tag_32:\n      pop\n      pop\n      pop\n      pop\n      swap1\n      pop\n      swap1\n      dup2\n      add\n      swap1\n      0x1f\n      and\n      dup1\n      iszero\n      tag_33\n      jumpi\n      dup1\n      dup3\n      sub\n      dup1\n      mload\n      0x01\n      dup4\n      0x20\n      sub\n      0x0100\n      exp\n      sub\n      not\n      and\n      dup2\n      mstore\n      0x20\n      add\n      swap2\n      pop\n    tag_33:\n      pop\n      swap3\n      pop\n      pop\n      pop\n      mload(0x40)\n      dup1\n      swap2\n      sub\n      swap1\n      return\n        /* \"ExodusERC20Token/ERC20.sol\":1622:1786  function approve(address spender, uint256 amount) public virtual override returns (bool) {... */\n    tag_4:\n      tag_34\n      0x04\n      dup1\n      calldatasize\n      sub\n      0x40\n      dup2\n      lt\n      iszero\n      tag_35\n      jumpi\n      0x00\n      dup1\n      revert\n    tag_35:\n      pop\n      sub(shl(0xa0, 0x01), 0x01)\n      dup2\n      calldataload\n      and\n      swap1\n      0x20\n      add\n      calldataload\n      tag_36\n      jump\t// in\n    tag_34:\n      0x40\n      dup1\n      mload\n      swap2\n      iszero\n      iszero\n      dup3\n      mstore\n      mload\n      swap1\n      dup2\n      swap1\n      sub\n      0x20\n      add\n      swap1\n      return\n        /* \"ExodusERC20Token/ERC20.sol\":1056:1154  function totalSupply() public view override returns (uint256) {... */\n    tag_5:\n      tag_37\n      tag_38\n      jump\t// in\n    tag_37:\n      0x40\n      dup1\n      mload\n      swap2\n      dup3\n      mstore\n      mload\n      swap1\n      dup2\n      swap1\n      sub\n      0x20\n      add\n      swap1\n      return\n        /* \"ExodusERC20Token/ERC20.sol\":1792:2181  function transferFrom(... */\n    tag_6:\n      tag_34\n      0x04\n      dup1\n      calldatasize\n      sub\n      0x60\n      dup2\n      lt\n      iszero\n      tag_40\n      jumpi\n      0x00\n      dup1\n      revert\n    tag_40:\n      pop\n      sub(shl(0xa0, 0x01), 0x01)\n      dup2\n      calldataload\n      dup2\n      and\n      swap2\n      0x20\n      dup2\n      add\n      calldataload\n      swap1\n      swap2\n      and\n      swap1\n      0x40\n      add\n      calldataload\n      tag_41\n      jump\t// in\n        /* \"ExodusERC20Token/ERC20.sol\":961:1050  function decimals() public view virtual returns (uint8) {... */\n    tag_7:\n      tag_42\n      tag_43\n      jump\t// in\n    tag_42:\n      0x40\n      dup1\n      mload\n      0xff\n      swap1\n      swap3\n      and\n      dup3\n      mstore\n      mload\n      swap1\n      dup2\n      swap1\n      sub\n      0x20\n      add\n      swap1\n      return\n        /* \"ExodusERC20Token/ERC20Permit.sol\":2348:2461  function DOMAIN_SEPARATOR() external view override returns (bytes32) {... */\n    tag_8:\n      tag_37\n      tag_45\n      jump\t// in\n        /* \"ExodusERC20Token/ERC20.sol\":2187:2398  function increaseAllowance(address spender, uint256 addedValue) public virtual returns (bool) {... */\n    tag_9:\n      tag_34\n      0x04\n      dup1\n      calldatasize\n      sub\n      0x40\n      dup2\n      lt\n      iszero\n      tag_47\n      jumpi\n      0x00\n      dup1\n      revert\n    tag_47:\n      pop\n      sub(shl(0xa0, 0x01), 0x01)\n      dup2\n      calldataload\n      and\n      swap1\n      0x20\n      add\n      calldataload\n      tag_48\n      jump\t// in\n        /* \"ExodusERC20Token/OlympusERC20.sol\":510:628  function mint(address account_, uint256 amount_) external override onlyVault {... */\n    tag_10:\n      tag_49\n      0x04\n      dup1\n      calldatasize\n      sub\n      0x40\n      dup2\n      lt\n      iszero\n      tag_50\n      jumpi\n      0x00\n      dup1\n      revert\n    tag_50:\n      pop\n      sub(shl(0xa0, 0x01), 0x01)\n      dup2\n      calldataload\n      and\n      swap1\n      0x20\n      add\n      calldataload\n      tag_51\n      jump\t// in\n    tag_49:\n      stop\n        /* \"ExodusERC20Token/OlympusERC20.sol\":634:724  function burn(uint256 amount) external override {... */\n    tag_11:\n      tag_49\n      0x04\n      dup1\n      calldatasize\n      sub\n      0x20\n      dup2\n      lt\n      iszero\n      tag_53\n      jumpi\n      0x00\n      dup1\n      revert\n    tag_53:\n      pop\n      calldataload\n      tag_54\n      jump\t// in\n        /* \"ExodusERC20Token/ERC20.sol\":1160:1285  function balanceOf(address account) public view virtual override returns (uint256) {... */\n    tag_12:\n      tag_37\n      0x04\n      dup1\n      calldatasize\n      sub\n      0x20\n      dup2\n      lt\n      iszero\n      tag_56\n      jumpi\n      0x00\n      dup1\n      revert\n    tag_56:\n      pop\n      calldataload\n      sub(shl(0xa0, 0x01), 0x01)\n      and\n      tag_57\n      jump\t// in\n        /* \"ExodusERC20Token/OlympusERC20.sol\":730:846  function burnFrom(address account_, uint256 amount_) external override {... */\n    tag_13:\n      tag_49\n      0x04\n      dup1\n      calldatasize\n      sub\n      0x40\n      dup2\n      lt\n      iszero\n      tag_59\n      jumpi\n      0x00\n      dup1\n      revert\n    tag_59:\n      pop\n      sub(shl(0xa0, 0x01), 0x01)\n      dup2\n      calldataload\n      and\n      swap1\n      0x20\n      add\n      calldataload\n      tag_60\n      jump\t// in\n        /* \"ExodusERC20Token/OlympusAccessControlled.sol\":1108:1272  function setAuthority(IExodusAuthority _newAuthority) external onlyGovernor {... */\n    tag_14:\n      tag_49\n      0x04\n      dup1\n      calldatasize\n      sub\n      0x20\n      dup2\n      lt\n      iszero\n      tag_62\n      jumpi\n      0x00\n      dup1\n      revert\n    tag_62:\n      pop\n      calldataload\n      sub(shl(0xa0, 0x01), 0x01)\n      and\n      tag_63\n      jump\t// in\n        /* \"ExodusERC20Token/ERC20Permit.sol\":2098:2224  function nonces(address owner) public view virtual override returns (uint256) {... */\n    tag_15:\n      tag_37\n      0x04\n      dup1\n      calldatasize\n      sub\n      0x20\n      dup2\n      lt\n      iszero\n      tag_65\n      jumpi\n      0x00\n      dup1\n      revert\n    tag_65:\n      pop\n      calldataload\n      sub(shl(0xa0, 0x01), 0x01)\n      and\n      tag_66\n      jump\t// in\n        /* \"ExodusERC20Token/ERC20.sol\":870:955  function symbol() public view returns (string memory) {... */\n    tag_16:\n      tag_28\n      tag_68\n      jump\t// in\n        /* \"ExodusERC20Token/ERC20.sol\":2404:2712  function decreaseAllowance(address spender, uint256 subtractedValue) public virtual returns (bool) {... */\n    tag_17:\n      tag_34\n      0x04\n      dup1\n      calldatasize\n      sub\n      0x40\n      dup2\n      lt\n      iszero\n      tag_74\n      jumpi\n      0x00\n      dup1\n      revert\n    tag_74:\n      pop\n      sub(shl(0xa0, 0x01), 0x01)\n      dup2\n      calldataload\n      and\n      swap1\n      0x20\n      add\n      calldataload\n      tag_75\n      jump\t// in\n        /* \"ExodusERC20Token/ERC20.sol\":1291:1461  function transfer(address recipient, uint256 amount) public virtual override returns (bool) {... */\n    tag_18:\n      tag_34\n      0x04\n      dup1\n      calldatasize\n      sub\n      0x40\n      dup2\n      lt\n      iszero\n      tag_77\n      jumpi\n      0x00\n      dup1\n      revert\n    tag_77:\n      pop\n      sub(shl(0xa0, 0x01), 0x01)\n      dup2\n      calldataload\n      and\n      swap1\n      0x20\n      add\n      calldataload\n      tag_78\n      jump\t// in\n        /* \"ExodusERC20Token/OlympusAccessControlled.sol\":359:392  IExodusAuthority public authority */\n    tag_19:\n      tag_79\n      tag_80\n      jump\t// in\n    tag_79:\n      0x40\n      dup1\n      mload\n      sub(shl(0xa0, 0x01), 0x01)\n      swap1\n      swap3\n      and\n      dup3\n      mstore\n      mload\n      swap1\n      dup2\n      swap1\n      sub\n      0x20\n      add\n      swap1\n      return\n        /* \"ExodusERC20Token/ERC20Permit.sol\":1411:2037  function permit(... */\n    tag_20:\n      tag_49\n      0x04\n      dup1\n      calldatasize\n      sub\n      0xe0\n      dup2\n      lt\n      iszero\n      tag_82\n      jumpi\n      0x00\n      dup1\n      revert\n    tag_82:\n      pop\n      sub(shl(0xa0, 0x01), 0x01)\n      dup2\n      calldataload\n      dup2\n      and\n      swap2\n      0x20\n      dup2\n      add\n      calldataload\n      swap1\n      swap2\n      and\n      swap1\n      0x40\n      dup2\n      add\n      calldataload\n      swap1\n      0x60\n      dup2\n      add\n      calldataload\n      swap1\n      0xff\n      0x80\n      dup3\n      add\n      calldataload\n      and\n      swap1\n      0xa0\n      dup2\n      add\n      calldataload\n      swap1\n      0xc0\n      add\n      calldataload\n      tag_83\n      jump\t// in\n        /* \"ExodusERC20Token/ERC20.sol\":1467:1616  function allowance(address owner, address spender) public view virtual override returns (uint256) {... */\n    tag_21:\n      tag_37\n      0x04\n      dup1\n      calldatasize\n      sub\n      0x40\n      dup2\n      lt\n      iszero\n      tag_85\n      jumpi\n      0x00\n      dup1\n      revert\n    tag_85:\n      pop\n      sub(shl(0xa0, 0x01), 0x01)\n      dup2\n      calldataload\n      dup2\n      and\n      swap2\n      0x20\n      add\n      calldataload\n      and\n      tag_86\n      jump\t// in\n        /* \"ExodusERC20Token/ERC20.sol\":783:864  function name() public view returns (string memory) {... */\n    tag_29:\n        /* \"ExodusERC20Token/ERC20.sol\":852:857  _name */\n      0x03\n        /* \"ExodusERC20Token/ERC20.sol\":845:857  return _name */\n      dup1\n      sload\n      0x40\n      dup1\n      mload\n      0x20\n      0x1f\n      0x02\n      not(0x00)\n      0x0100\n      0x01\n      dup9\n      and\n      iszero\n      mul\n      add\n      swap1\n      swap6\n      and\n      swap5\n      swap1\n      swap5\n      div\n      swap4\n      dup5\n      add\n      dup2\n      swap1\n      div\n      dup2\n      mul\n      dup3\n      add\n      dup2\n      add\n      swap1\n      swap3\n      mstore\n      dup3\n      dup2\n      mstore\n        /* \"ExodusERC20Token/ERC20.sol\":820:833  string memory */\n      0x60\n      swap4\n        /* \"ExodusERC20Token/ERC20.sol\":845:857  return _name */\n      swap1\n      swap3\n        /* \"ExodusERC20Token/ERC20.sol\":852:857  _name */\n      swap1\n      swap2\n        /* \"ExodusERC20Token/ERC20.sol\":845:857  return _name */\n      dup4\n      add\n        /* \"ExodusERC20Token/ERC20.sol\":852:857  _name */\n      dup3\n        /* \"ExodusERC20Token/ERC20.sol\":845:857  return _name */\n      dup3\n      dup1\n      iszero\n      tag_88\n      jumpi\n      dup1\n      0x1f\n      lt\n      tag_89\n      jumpi\n      0x0100\n      dup1\n      dup4\n      sload\n      div\n      mul\n      dup4\n      mstore\n      swap2\n      0x20\n      add\n      swap2\n      jump(tag_88)\n    tag_89:\n      dup3\n      add\n      swap2\n      swap1\n      0x00\n      mstore\n      keccak256(0x00, 0x20)\n      swap1\n    tag_90:\n      dup2\n      sload\n      dup2\n      mstore\n      swap1\n      0x01\n      add\n      swap1\n      0x20\n      add\n      dup1\n      dup4\n      gt\n      tag_90\n      jumpi\n      dup3\n      swap1\n      sub\n      0x1f\n      and\n      dup3\n      add\n      swap2\n    tag_88:\n      pop\n      pop\n      pop\n      pop\n      pop\n      swap1\n      pop\n        /* \"ExodusERC20Token/ERC20.sol\":783:864  function name() public view returns (string memory) {... */\n    tag_87:\n      swap1\n      jump\t// out\n        /* \"ExodusERC20Token/ERC20.sol\":1622:1786  function approve(address spender, uint256 amount) public virtual override returns (bool) {... */\n    tag_36:\n        /* \"ExodusERC20Token/ERC20.sol\":1705:1709  bool */\n      0x00\n        /* \"ExodusERC20Token/ERC20.sol\":1721:1758  _approve(msg.sender, spender, amount) */\n      tag_92\n        /* \"ExodusERC20Token/ERC20.sol\":1730:1740  msg.sender */\n      caller\n        /* \"ExodusERC20Token/ERC20.sol\":1742:1749  spender */\n      dup5\n        /* \"ExodusERC20Token/ERC20.sol\":1751:1757  amount */\n      dup5\n        /* \"ExodusERC20Token/ERC20.sol\":1721:1729  _approve */\n      tag_93\n        /* \"ExodusERC20Token/ERC20.sol\":1721:1758  _approve(msg.sender, spender, amount) */\n      jump\t// in\n    tag_92:\n      pop\n        /* \"ExodusERC20Token/ERC20.sol\":1775:1779  true */\n      0x01\n        /* \"ExodusERC20Token/ERC20.sol\":1622:1786  function approve(address spender, uint256 amount) public virtual override returns (bool) {... */\n      swap3\n      swap2\n      pop\n      pop\n      jump\t// out\n        /* \"ExodusERC20Token/ERC20.sol\":1056:1154  function totalSupply() public view override returns (uint256) {... */\n    tag_38:\n        /* \"ExodusERC20Token/ERC20.sol\":1135:1147  _totalSupply */\n      sload(0x02)\n        /* \"ExodusERC20Token/ERC20.sol\":1056:1154  function totalSupply() public view override returns (uint256) {... */\n      swap1\n      jump\t// out\n        /* \"ExodusERC20Token/ERC20.sol\":1792:2181  function transferFrom(... */\n    tag_41:\n        /* \"ExodusERC20Token/ERC20.sol\":1928:1932  bool */\n      0x00\n        /* \"ExodusERC20Token/ERC20.sol\":1944:1980  _transfer(sender, recipient, amount) */\n      tag_96\n        /* \"ExodusERC20Token/ERC20.sol\":1954:1960  sender */\n      dup5\n        /* \"ExodusERC20Token/ERC20.sol\":1962:1971  recipient */\n      dup5\n        /* \"ExodusERC20Token/ERC20.sol\":1973:1979  amount */\n      dup5\n        /* \"ExodusERC20Token/ERC20.sol\":1944:1953  _transfer */\n      tag_97\n        /* \"ExodusERC20Token/ERC20.sol\":1944:1980  _transfer(sender, recipient, amount) */\n      jump\t// in\n    tag_96:\n        /* \"ExodusERC20Token/ERC20.sol\":1990:2153  _approve(... */\n      tag_98\n        /* \"ExodusERC20Token/ERC20.sol\":2012:2018  sender */\n      dup5\n        /* \"ExodusERC20Token/ERC20.sol\":2032:2042  msg.sender */\n      caller\n        /* \"ExodusERC20Token/ERC20.sol\":2056:2143  _allowances[sender][msg.sender].sub(amount, \"ERC20: transfer amount exceeds allowance\") */\n      tag_99\n        /* \"ExodusERC20Token/ERC20.sol\":2092:2098  amount */\n      dup6\n        /* \"ExodusERC20Token/ERC20.sol\":2056:2143  _allowances[sender][msg.sender].sub(amount, \"ERC20: transfer amount exceeds allowance\") */\n      mload(0x40)\n      dup1\n      0x60\n      add\n      0x40\n      mstore\n      dup1\n      0x28\n      dup2\n      mstore\n      0x20\n      add\n      data_974d1b4421da69cc60b481194f0dad36a5bb4e23da810da7a7fb30cdba178330\n      0x28\n      swap2\n      codecopy\n      sub(shl(0xa0, 0x01), 0x01)\n        /* \"ExodusERC20Token/ERC20.sol\":2056:2075  _allowances[sender] */\n      dup11\n      and\n      0x00\n      swap1\n      dup2\n      mstore\n        /* \"ExodusERC20Token/ERC20.sol\":2056:2067  _allowances */\n      0x01\n        /* \"ExodusERC20Token/ERC20.sol\":2056:2075  _allowances[sender] */\n      0x20\n      swap1\n      dup2\n      mstore\n      0x40\n      dup1\n      dup4\n      keccak256\n        /* \"ExodusERC20Token/ERC20.sol\":2076:2086  msg.sender */\n      caller\n        /* \"ExodusERC20Token/ERC20.sol\":2056:2087  _allowances[sender][msg.sender] */\n      dup5\n      mstore\n      swap1\n      swap2\n      mstore\n      swap1\n      keccak256\n      sload\n      swap2\n        /* \"ExodusERC20Token/ERC20.sol\":2056:2143  _allowances[sender][msg.sender].sub(amount, \"ERC20: transfer amount exceeds allowance\") */\n      swap1\n        /* \"ExodusERC20Token/ERC20.sol\":2056:2091  _allowances[sender][msg.sender].sub */\n      tag_100\n        /* \"ExodusERC20Token/ERC20.sol\":2056:2143  _allowances[sender][msg.sender].sub(amount, \"ERC20: transfer amount exceeds allowance\") */\n      jump\t// in\n    tag_99:\n        /* \"ExodusERC20Token/ERC20.sol\":1990:1998  _approve */\n      tag_93\n        /* \"ExodusERC20Token/ERC20.sol\":1990:2153  _approve(... */\n      jump\t// in\n    tag_98:\n      pop\n        /* \"ExodusERC20Token/ERC20.sol\":2170:2174  true */\n      0x01\n        /* \"ExodusERC20Token/ERC20.sol\":1792:2181  function transferFrom(... */\n      swap4\n      swap3\n      pop\n      pop\n      pop\n      jump\t// out\n        /* \"ExodusERC20Token/ERC20.sol\":961:1050  function decimals() public view virtual returns (uint8) {... */\n    tag_43:\n        /* \"ExodusERC20Token/ERC20.sol\":1034:1043  _decimals */\n      immutable(\"0x7c4b9619c581b88a141b2eb4807c7231fe75a5bedaa863d4150e3dabc19d88ab\")\n        /* \"ExodusERC20Token/ERC20.sol\":961:1050  function decimals() public view virtual returns (uint8) {... */\n      swap1\n      jump\t// out\n        /* \"ExodusERC20Token/ERC20Permit.sol\":2348:2461  function DOMAIN_SEPARATOR() external view override returns (bytes32) {... */\n    tag_45:\n        /* \"ExodusERC20Token/ERC20Permit.sol\":2408:2415  bytes32 */\n      0x00\n        /* \"ExodusERC20Token/ERC20Permit.sol\":2434:2454  _domainSeparatorV4() */\n      tag_103\n        /* \"ExodusERC20Token/ERC20Permit.sol\":2434:2452  _domainSeparatorV4 */\n      tag_104\n        /* \"ExodusERC20Token/ERC20Permit.sol\":2434:2454  _domainSeparatorV4() */\n      jump\t// in\n    tag_103:\n        /* \"ExodusERC20Token/ERC20Permit.sol\":2427:2454  return _domainSeparatorV4() */\n      swap1\n      pop\n        /* \"ExodusERC20Token/ERC20Permit.sol\":2348:2461  function DOMAIN_SEPARATOR() external view override returns (bytes32) {... */\n      swap1\n      jump\t// out\n        /* \"ExodusERC20Token/ERC20.sol\":2187:2398  function increaseAllowance(address spender, uint256 addedValue) public virtual returns (bool) {... */\n    tag_48:\n        /* \"ExodusERC20Token/ERC20.sol\":2300:2310  msg.sender */\n      caller\n        /* \"ExodusERC20Token/ERC20.sol\":2275:2279  bool */\n      0x00\n        /* \"ExodusERC20Token/ERC20.sol\":2321:2344  _allowances[msg.sender] */\n      dup2\n      dup2\n      mstore\n        /* \"ExodusERC20Token/ERC20.sol\":2321:2332  _allowances */\n      0x01\n        /* \"ExodusERC20Token/ERC20.sol\":2321:2344  _allowances[msg.sender] */\n      0x20\n      swap1\n      dup2\n      mstore\n      0x40\n      dup1\n      dup4\n      keccak256\n      sub(shl(0xa0, 0x01), 0x01)\n        /* \"ExodusERC20Token/ERC20.sol\":2321:2353  _allowances[msg.sender][spender] */\n      dup8\n      and\n      dup5\n      mstore\n      swap1\n      swap2\n      mstore\n      dup2\n      keccak256\n      sload\n        /* \"ExodusERC20Token/ERC20.sol\":2275:2279  bool */\n      swap1\n      swap2\n        /* \"ExodusERC20Token/ERC20.sol\":2291:2370  _approve(msg.sender, spender, _allowances[msg.sender][spender].add(addedValue)) */\n      tag_92\n      swap2\n        /* \"ExodusERC20Token/ERC20.sol\":2312:2319  spender */\n      dup6\n      swap1\n        /* \"ExodusERC20Token/ERC20.sol\":2321:2369  _allowances[msg.sender][spender].add(addedValue) */\n      tag_99\n      swap1\n        /* \"ExodusERC20Token/ERC20.sol\":2358:2368  addedValue */\n      dup7\n        /* \"ExodusERC20Token/ERC20.sol\":2321:2357  _allowances[msg.sender][spender].add */\n      tag_108\n        /* \"ExodusERC20Token/ERC20.sol\":2321:2369  _allowances[msg.sender][spender].add(addedValue) */\n      jump\t// in\n        /* \"ExodusERC20Token/OlympusERC20.sol\":510:628  function mint(address account_, uint256 amount_) external override onlyVault {... */\n    tag_51:\n        /* \"ExodusERC20Token/OlympusAccessControlled.sol\":1010:1019  authority */\n      0x07\n      0x00\n      swap1\n      sload\n      swap1\n      0x0100\n      exp\n      swap1\n      div\n      sub(shl(0xa0, 0x01), 0x01)\n      and\n      sub(shl(0xa0, 0x01), 0x01)\n        /* \"ExodusERC20Token/OlympusAccessControlled.sol\":1010:1025  authority.vault */\n      and\n      0xfbfa77cf\n        /* \"ExodusERC20Token/OlympusAccessControlled.sol\":1010:1027  authority.vault() */\n      mload(0x40)\n      dup2\n      0xffffffff\n      and\n      0xe0\n      shl\n      dup2\n      mstore\n      0x04\n      add\n      0x20\n      mload(0x40)\n      dup1\n      dup4\n      sub\n      dup2\n      dup7\n      dup1\n      extcodesize\n      iszero\n      dup1\n      iszero\n      tag_110\n      jumpi\n      0x00\n      dup1\n      revert\n    tag_110:\n      pop\n      gas\n      staticcall\n      iszero\n      dup1\n      iszero\n      tag_112\n      jumpi\n      returndatasize\n      0x00\n      dup1\n      returndatacopy\n      revert(0x00, returndatasize)\n    tag_112:\n      pop\n      pop\n      pop\n      pop\n      mload(0x40)\n      returndatasize\n      0x20\n      dup2\n      lt\n      iszero\n      tag_113\n      jumpi\n      0x00\n      dup1\n      revert\n    tag_113:\n      pop\n      mload\n        /* \"ExodusERC20Token/OlympusAccessControlled.sol\":1029:1041  UNAUTHORIZED */\n      0x06\n      swap1\n      sub(shl(0xa0, 0x01), 0x01)\n        /* \"ExodusERC20Token/OlympusAccessControlled.sol\":996:1027  msg.sender == authority.vault() */\n      and\n        /* \"ExodusERC20Token/OlympusAccessControlled.sol\":996:1006  msg.sender */\n      caller\n        /* \"ExodusERC20Token/OlympusAccessControlled.sol\":996:1027  msg.sender == authority.vault() */\n      eq\n        /* \"ExodusERC20Token/OlympusAccessControlled.sol\":988:1042  require(msg.sender == authority.vault(), UNAUTHORIZED) */\n      tag_114\n      jumpi\n      mload(0x40)\n      shl(0xe5, 0x461bcd)\n      dup2\n      mstore\n      0x20\n      0x04\n      dup3\n      add\n      swap1\n      dup2\n      mstore\n      dup3\n      sload\n      0x02\n      not(0x00)\n      0x0100\n      0x01\n      dup5\n      and\n      iszero\n      mul\n      add\n      swap1\n      swap2\n      and\n      div\n      0x24\n      dup4\n      add\n      dup2\n      swap1\n      mstore\n      swap1\n      swap2\n      dup3\n      swap2\n      0x44\n      swap1\n      swap2\n      add\n      swap1\n      dup5\n      swap1\n      dup1\n      iszero\n      tag_115\n      jumpi\n      dup1\n      0x1f\n      lt\n      tag_116\n      jumpi\n      0x0100\n      dup1\n      dup4\n      sload\n      div\n      mul\n      dup4\n      mstore\n      swap2\n      0x20\n      add\n      swap2\n      jump(tag_115)\n    tag_116:\n      dup3\n      add\n      swap2\n      swap1\n      0x00\n      mstore\n      keccak256(0x00, 0x20)\n      swap1\n    tag_117:\n      dup2\n      sload\n      dup2\n      mstore\n      swap1\n      0x01\n      add\n      swap1\n      0x20\n      add\n      dup1\n      dup4\n      gt\n      tag_117\n      jumpi\n      dup3\n      swap1\n      sub\n      0x1f\n      and\n      dup3\n      add\n      swap2\n    tag_115:\n      pop\n      pop\n      swap3\n      pop\n      pop\n      pop\n      mload(0x40)\n      dup1\n      swap2\n      sub\n      swap1\n      revert\n    tag_114:\n      pop\n        /* \"ExodusERC20Token/OlympusERC20.sol\":597:621  _mint(account_, amount_) */\n      tag_119\n        /* \"ExodusERC20Token/OlympusERC20.sol\":603:611  account_ */\n      dup3\n        /* \"ExodusERC20Token/OlympusERC20.sol\":613:620  amount_ */\n      dup3\n        /* \"ExodusERC20Token/OlympusERC20.sol\":597:602  _mint */\n      tag_120\n        /* \"ExodusERC20Token/OlympusERC20.sol\":597:621  _mint(account_, amount_) */\n      jump\t// in\n    tag_119:\n        /* \"ExodusERC20Token/OlympusERC20.sol\":510:628  function mint(address account_, uint256 amount_) external override onlyVault {... */\n      pop\n      pop\n      jump\t// out\n        /* \"ExodusERC20Token/OlympusERC20.sol\":634:724  function burn(uint256 amount) external override {... */\n    tag_54:\n        /* \"ExodusERC20Token/OlympusERC20.sol\":692:717  _burn(msg.sender, amount) */\n      tag_122\n        /* \"ExodusERC20Token/OlympusERC20.sol\":698:708  msg.sender */\n      caller\n        /* \"ExodusERC20Token/OlympusERC20.sol\":710:716  amount */\n      dup3\n        /* \"ExodusERC20Token/OlympusERC20.sol\":692:697  _burn */\n      tag_123\n        /* \"ExodusERC20Token/OlympusERC20.sol\":692:717  _burn(msg.sender, amount) */\n      jump\t// in\n    tag_122:\n        /* \"ExodusERC20Token/OlympusERC20.sol\":634:724  function burn(uint256 amount) external override {... */\n      pop\n      jump\t// out\n        /* \"ExodusERC20Token/ERC20.sol\":1160:1285  function balanceOf(address account) public view virtual override returns (uint256) {... */\n    tag_57:\n      sub(shl(0xa0, 0x01), 0x01)\n        /* \"ExodusERC20Token/ERC20.sol\":1260:1278  _balances[account] */\n      and\n        /* \"ExodusERC20Token/ERC20.sol\":1234:1241  uint256 */\n      0x00\n        /* \"ExodusERC20Token/ERC20.sol\":1260:1278  _balances[account] */\n      swap1\n      dup2\n      mstore\n      0x20\n      dup2\n      swap1\n      mstore\n      0x40\n      swap1\n      keccak256\n      sload\n      swap1\n        /* \"ExodusERC20Token/ERC20.sol\":1160:1285  function balanceOf(address account) public view virtual override returns (uint256) {... */\n      jump\t// out\n        /* \"ExodusERC20Token/OlympusERC20.sol\":730:846  function burnFrom(address account_, uint256 amount_) external override {... */\n    tag_60:\n        /* \"ExodusERC20Token/OlympusERC20.sol\":811:839  _burnFrom(account_, amount_) */\n      tag_119\n        /* \"ExodusERC20Token/OlympusERC20.sol\":821:829  account_ */\n      dup3\n        /* \"ExodusERC20Token/OlympusERC20.sol\":831:838  amount_ */\n      dup3\n        /* \"ExodusERC20Token/OlympusERC20.sol\":811:820  _burnFrom */\n      tag_127\n        /* \"ExodusERC20Token/OlympusERC20.sol\":811:839  _burnFrom(account_, amount_) */\n      jump\t// in\n        /* \"ExodusERC20Token/OlympusAccessControlled.sol\":1108:1272  function setAuthority(IExodusAuthority _newAuthority) external onlyGovernor {... */\n    tag_63:\n        /* \"ExodusERC20Token/OlympusAccessControlled.sol\":672:681  authority */\n      0x07\n      0x00\n      swap1\n      sload\n      swap1\n      0x0100\n      exp\n      swap1\n      div\n      sub(shl(0xa0, 0x01), 0x01)\n      and\n      sub(shl(0xa0, 0x01), 0x01)\n        /* \"ExodusERC20Token/OlympusAccessControlled.sol\":672:690  authority.governor */\n      and\n      0x0c340a24\n        /* \"ExodusERC20Token/OlympusAccessControlled.sol\":672:692  authority.governor() */\n      mload(0x40)\n      dup2\n      0xffffffff\n      and\n      0xe0\n      shl\n      dup2\n      mstore\n      0x04\n      add\n      0x20\n      mload(0x40)\n      dup1\n      dup4\n      sub\n      dup2\n      dup7\n      dup1\n      extcodesize\n      iszero\n      dup1\n      iszero\n      tag_129\n      jumpi\n      0x00\n      dup1\n      revert\n    tag_129:\n      pop\n      gas\n      staticcall\n      iszero\n      dup1\n      iszero\n      tag_131\n      jumpi\n      returndatasize\n      0x00\n      dup1\n      returndatacopy\n      revert(0x00, returndatasize)\n    tag_131:\n      pop\n      pop\n      pop\n      pop\n      mload(0x40)\n      returndatasize\n      0x20\n      dup2\n      lt\n      iszero\n      tag_132\n      jumpi\n      0x00\n      dup1\n      revert\n    tag_132:\n      pop\n      mload\n        /* \"ExodusERC20Token/OlympusAccessControlled.sol\":694:706  UNAUTHORIZED */\n      0x06\n      swap1\n      sub(shl(0xa0, 0x01), 0x01)\n        /* \"ExodusERC20Token/OlympusAccessControlled.sol\":658:692  msg.sender == authority.governor() */\n      and\n        /* \"ExodusERC20Token/OlympusAccessControlled.sol\":658:668  msg.sender */\n      caller\n        /* \"ExodusERC20Token/OlympusAccessControlled.sol\":658:692  msg.sender == authority.governor() */\n      eq\n        /* \"ExodusERC20Token/OlympusAccessControlled.sol\":650:707  require(msg.sender == authority.governor(), UNAUTHORIZED) */\n      tag_133\n      jumpi\n      mload(0x40)\n      shl(0xe5, 0x461bcd)\n      dup2\n      mstore\n      0x20\n      0x04\n      dup3\n      add\n      swap1\n      dup2\n      mstore\n      dup3\n      sload\n      0x02\n      not(0x00)\n      0x0100\n      0x01\n      dup5\n      and\n      iszero\n      mul\n      add\n      swap1\n      swap2\n      and\n      div\n      0x24\n      dup4\n      add\n      dup2\n      swap1\n      mstore\n      swap1\n      swap2\n      dup3\n      swap2\n      0x44\n      swap1\n      swap2\n      add\n      swap1\n      dup5\n      swap1\n      dup1\n      iszero\n      tag_115\n      jumpi\n      dup1\n      0x1f\n      lt\n      tag_116\n      jumpi\n      0x0100\n      dup1\n      dup4\n      sload\n      div\n      mul\n      dup4\n      mstore\n      swap2\n      0x20\n      add\n      swap2\n      jump(tag_115)\n    tag_133:\n      pop\n        /* \"ExodusERC20Token/OlympusAccessControlled.sol\":1194:1203  authority */\n      0x07\n        /* \"ExodusERC20Token/OlympusAccessControlled.sol\":1194:1219  authority = _newAuthority */\n      dup1\n      sload\n      0xffffffffffffffffffffffff0000000000000000000000000000000000000000\n      and\n      sub(shl(0xa0, 0x01), 0x01)\n      dup4\n      and\n      swap1\n      dup2\n      or\n      swap1\n      swap2\n      sstore\n        /* \"ExodusERC20Token/OlympusAccessControlled.sol\":1234:1265  AuthorityUpdated(_newAuthority) */\n      mload(0x40)\n      0x2f658b440c35314f52658ea8a740e05b284cdc84dc9ae01e891f21b8933e7cad\n      swap1\n      0x00\n      swap1\n      log2\n        /* \"ExodusERC20Token/OlympusAccessControlled.sol\":1108:1272  function setAuthority(IExodusAuthority _newAuthority) external onlyGovernor {... */\n      pop\n      jump\t// out\n        /* \"ExodusERC20Token/ERC20Permit.sol\":2098:2224  function nonces(address owner) public view virtual override returns (uint256) {... */\n    tag_66:\n      sub(shl(0xa0, 0x01), 0x01)\n        /* \"ExodusERC20Token/ERC20Permit.sol\":2193:2207  _nonces[owner] */\n      dup2\n      and\n        /* \"ExodusERC20Token/ERC20Permit.sol\":2167:2174  uint256 */\n      0x00\n        /* \"ExodusERC20Token/ERC20Permit.sol\":2193:2207  _nonces[owner] */\n      swap1\n      dup2\n      mstore\n        /* \"ExodusERC20Token/ERC20Permit.sol\":2193:2200  _nonces */\n      0x05\n        /* \"ExodusERC20Token/ERC20Permit.sol\":2193:2207  _nonces[owner] */\n      0x20\n      mstore\n      0x40\n      dup2\n      keccak256\n        /* \"ExodusERC20Token/ERC20Permit.sol\":2193:2217  _nonces[owner].current() */\n      tag_139\n      swap1\n        /* \"ExodusERC20Token/ERC20Permit.sol\":2193:2215  _nonces[owner].current */\n      tag_140\n        /* \"ExodusERC20Token/ERC20Permit.sol\":2193:2217  _nonces[owner].current() */\n      jump\t// in\n    tag_139:\n        /* \"ExodusERC20Token/ERC20Permit.sol\":2186:2217  return _nonces[owner].current() */\n      swap3\n        /* \"ExodusERC20Token/ERC20Permit.sol\":2098:2224  function nonces(address owner) public view virtual override returns (uint256) {... */\n      swap2\n      pop\n      pop\n      jump\t// out\n        /* \"ExodusERC20Token/ERC20.sol\":870:955  function symbol() public view returns (string memory) {... */\n    tag_68:\n        /* \"ExodusERC20Token/ERC20.sol\":941:948  _symbol */\n      0x04\n        /* \"ExodusERC20Token/ERC20.sol\":934:948  return _symbol */\n      dup1\n      sload\n      0x40\n      dup1\n      mload\n      0x20\n      0x1f\n      0x02\n      not(0x00)\n      0x0100\n      0x01\n      dup9\n      and\n      iszero\n      mul\n      add\n      swap1\n      swap6\n      and\n      swap5\n      swap1\n      swap5\n      div\n      swap4\n      dup5\n      add\n      dup2\n      swap1\n      div\n      dup2\n      mul\n      dup3\n      add\n      dup2\n      add\n      swap1\n      swap3\n      mstore\n      dup3\n      dup2\n      mstore\n        /* \"ExodusERC20Token/ERC20.sol\":909:922  string memory */\n      0x60\n      swap4\n        /* \"ExodusERC20Token/ERC20.sol\":934:948  return _symbol */\n      swap1\n      swap3\n        /* \"ExodusERC20Token/ERC20.sol\":941:948  _symbol */\n      swap1\n      swap2\n        /* \"ExodusERC20Token/ERC20.sol\":934:948  return _symbol */\n      dup4\n      add\n        /* \"ExodusERC20Token/ERC20.sol\":941:948  _symbol */\n      dup3\n        /* \"ExodusERC20Token/ERC20.sol\":934:948  return _symbol */\n      dup3\n      dup1\n      iszero\n      tag_88\n      jumpi\n      dup1\n      0x1f\n      lt\n      tag_89\n      jumpi\n      0x0100\n      dup1\n      dup4\n      sload\n      div\n      mul\n      dup4\n      mstore\n      swap2\n      0x20\n      add\n      swap2\n      jump(tag_88)\n        /* \"ExodusERC20Token/ERC20.sol\":2404:2712  function decreaseAllowance(address spender, uint256 subtractedValue) public virtual returns (bool) {... */\n    tag_75:\n        /* \"ExodusERC20Token/ERC20.sol\":2497:2501  bool */\n      0x00\n        /* \"ExodusERC20Token/ERC20.sol\":2513:2684  _approve(... */\n      tag_92\n        /* \"ExodusERC20Token/ERC20.sol\":2535:2545  msg.sender */\n      caller\n        /* \"ExodusERC20Token/ERC20.sol\":2559:2566  spender */\n      dup5\n        /* \"ExodusERC20Token/ERC20.sol\":2580:2674  _allowances[msg.sender][spender].sub(subtractedValue, \"ERC20: decreased allowance below zero\") */\n      tag_99\n        /* \"ExodusERC20Token/ERC20.sol\":2617:2632  subtractedValue */\n      dup6\n        /* \"ExodusERC20Token/ERC20.sol\":2580:2674  _allowances[msg.sender][spender].sub(subtractedValue, \"ERC20: decreased allowance below zero\") */\n      mload(0x40)\n      dup1\n      0x60\n      add\n      0x40\n      mstore\n      dup1\n      0x25\n      dup2\n      mstore\n      0x20\n      add\n      data_f8b476f7d28209d77d4a4ac1fe36b9f8259aa1bb6bddfa6e89de7e51615cf8a8\n      0x25\n      swap2\n      codecopy\n        /* \"ExodusERC20Token/ERC20.sol\":2592:2602  msg.sender */\n      caller\n        /* \"ExodusERC20Token/ERC20.sol\":2580:2603  _allowances[msg.sender] */\n      0x00\n      swap1\n      dup2\n      mstore\n        /* \"ExodusERC20Token/ERC20.sol\":2580:2591  _allowances */\n      0x01\n        /* \"ExodusERC20Token/ERC20.sol\":2580:2603  _allowances[msg.sender] */\n      0x20\n      swap1\n      dup2\n      mstore\n      0x40\n      dup1\n      dup4\n      keccak256\n      sub(shl(0xa0, 0x01), 0x01)\n        /* \"ExodusERC20Token/ERC20.sol\":2580:2612  _allowances[msg.sender][spender] */\n      dup14\n      and\n      dup5\n      mstore\n      swap1\n      swap2\n      mstore\n      swap1\n      keccak256\n      sload\n      swap2\n        /* \"ExodusERC20Token/ERC20.sol\":2580:2674  _allowances[msg.sender][spender].sub(subtractedValue, \"ERC20: decreased allowance below zero\") */\n      swap1\n        /* \"ExodusERC20Token/ERC20.sol\":2580:2616  _allowances[msg.sender][spender].sub */\n      tag_100\n        /* \"ExodusERC20Token/ERC20.sol\":2580:2674  _allowances[msg.sender][spender].sub(subtractedValue, \"ERC20: decreased allowance below zero\") */\n      jump\t// in\n        /* \"ExodusERC20Token/ERC20.sol\":1291:1461  function transfer(address recipient, uint256 amount) public virtual override returns (bool) {... */\n    tag_78:\n        /* \"ExodusERC20Token/ERC20.sol\":1377:1381  bool */\n      0x00\n        /* \"ExodusERC20Token/ERC20.sol\":1393:1433  _transfer(msg.sender, recipient, amount) */\n      tag_92\n        /* \"ExodusERC20Token/ERC20.sol\":1403:1413  msg.sender */\n      caller\n        /* \"ExodusERC20Token/ERC20.sol\":1415:1424  recipient */\n      dup5\n        /* \"ExodusERC20Token/ERC20.sol\":1426:1432  amount */\n      dup5\n        /* \"ExodusERC20Token/ERC20.sol\":1393:1402  _transfer */\n      tag_97\n        /* \"ExodusERC20Token/ERC20.sol\":1393:1433  _transfer(msg.sender, recipient, amount) */\n      jump\t// in\n        /* \"ExodusERC20Token/OlympusAccessControlled.sol\":359:392  IExodusAuthority public authority */\n    tag_80:\n      and(sub(shl(0xa0, 0x01), 0x01), sload(0x07))\n      dup2\n      jump\t// out\n        /* \"ExodusERC20Token/ERC20Permit.sol\":1411:2037  function permit(... */\n    tag_83:\n        /* \"ExodusERC20Token/ERC20Permit.sol\":1646:1654  deadline */\n      dup4\n        /* \"ExodusERC20Token/ERC20Permit.sol\":1627:1642  block.timestamp */\n      timestamp\n        /* \"ExodusERC20Token/ERC20Permit.sol\":1627:1654  block.timestamp <= deadline */\n      gt\n      iszero\n        /* \"ExodusERC20Token/ERC20Permit.sol\":1619:1688  require(block.timestamp <= deadline, \"ERC20Permit: expired deadline\") */\n      tag_151\n      jumpi\n      0x40\n      dup1\n      mload\n      shl(0xe5, 0x461bcd)\n      dup2\n      mstore\n      0x20\n      0x04\n      dup3\n      add\n      mstore\n      0x1d\n      0x24\n      dup3\n      add\n      mstore\n      0x45524332305065726d69743a206578706972656420646561646c696e65000000\n      0x44\n      dup3\n      add\n      mstore\n      swap1\n      mload\n      swap1\n      dup2\n      swap1\n      sub\n      0x64\n      add\n      swap1\n      revert\n    tag_151:\n        /* \"ExodusERC20Token/ERC20Permit.sol\":1699:1717  bytes32 structHash */\n      0x00\n        /* \"ExodusERC20Token/ERC20Permit.sol\":1741:1757  _PERMIT_TYPEHASH */\n      immutable(\"0xb8c8d0d478c56b61296da8683cc5119d1520a308cf11accdcc3ff14cb1d77999\")\n        /* \"ExodusERC20Token/ERC20Permit.sol\":1759:1764  owner */\n      dup9\n        /* \"ExodusERC20Token/ERC20Permit.sol\":1766:1773  spender */\n      dup9\n        /* \"ExodusERC20Token/ERC20Permit.sol\":1775:1780  value */\n      dup9\n        /* \"ExodusERC20Token/ERC20Permit.sol\":1782:1798  _useNonce(owner) */\n      tag_152\n        /* \"ExodusERC20Token/ERC20Permit.sol\":1792:1797  owner */\n      dup13\n        /* \"ExodusERC20Token/ERC20Permit.sol\":1782:1791  _useNonce */\n      tag_153\n        /* \"ExodusERC20Token/ERC20Permit.sol\":1782:1798  _useNonce(owner) */\n      jump\t// in\n    tag_152:\n        /* \"ExodusERC20Token/ERC20Permit.sol\":1800:1808  deadline */\n      dup10\n        /* \"ExodusERC20Token/ERC20Permit.sol\":1730:1809  abi.encode(_PERMIT_TYPEHASH, owner, spender, value, _useNonce(owner), deadline) */\n      add(0x20, mload(0x40))\n      dup1\n      dup8\n      dup2\n      mstore\n      0x20\n      add\n      dup7\n      sub(shl(0xa0, 0x01), 0x01)\n      and\n      dup2\n      mstore\n      0x20\n      add\n      dup6\n      sub(shl(0xa0, 0x01), 0x01)\n      and\n      dup2\n      mstore\n      0x20\n      add\n      dup5\n      dup2\n      mstore\n      0x20\n      add\n      dup4\n      dup2\n      mstore\n      0x20\n      add\n      dup3\n      dup2\n      mstore\n      0x20\n      add\n      swap7\n      pop\n      pop\n      pop\n      pop\n      pop\n      pop\n      pop\n      mload(0x40)\n      0x20\n      dup2\n      dup4\n      sub\n      sub\n      dup2\n      mstore\n      swap1\n      0x40\n      mstore\n        /* \"ExodusERC20Token/ERC20Permit.sol\":1720:1810  keccak256(abi.encode(_PERMIT_TYPEHASH, owner, spender, value, _useNonce(owner), deadline)) */\n      dup1\n      mload\n      swap1\n      0x20\n      add\n      keccak256\n        /* \"ExodusERC20Token/ERC20Permit.sol\":1699:1810  bytes32 structHash = keccak256(abi.encode(_PERMIT_TYPEHASH, owner, spender, value, _useNonce(owner), deadline)) */\n      swap1\n      pop\n        /* \"ExodusERC20Token/ERC20Permit.sol\":1821:1833  bytes32 hash */\n      0x00\n        /* \"ExodusERC20Token/ERC20Permit.sol\":1836:1864  _hashTypedDataV4(structHash) */\n      tag_154\n        /* \"ExodusERC20Token/ERC20Permit.sol\":1853:1863  structHash */\n      dup3\n        /* \"ExodusERC20Token/ERC20Permit.sol\":1836:1852  _hashTypedDataV4 */\n      tag_155\n        /* \"ExodusERC20Token/ERC20Permit.sol\":1836:1864  _hashTypedDataV4(structHash) */\n      jump\t// in\n    tag_154:\n        /* \"ExodusERC20Token/ERC20Permit.sol\":1821:1864  bytes32 hash = _hashTypedDataV4(structHash) */\n      swap1\n      pop\n        /* \"ExodusERC20Token/ERC20Permit.sol\":1875:1889  address signer */\n      0x00\n        /* \"ExodusERC20Token/ERC20Permit.sol\":1892:1920  ECDSA.recover(hash, v, r, s) */\n      tag_156\n        /* \"ExodusERC20Token/ERC20Permit.sol\":1906:1910  hash */\n      dup3\n        /* \"ExodusERC20Token/ERC20Permit.sol\":1912:1913  v */\n      dup8\n        /* \"ExodusERC20Token/ERC20Permit.sol\":1915:1916  r */\n      dup8\n        /* \"ExodusERC20Token/ERC20Permit.sol\":1918:1919  s */\n      dup8\n        /* \"ExodusERC20Token/ERC20Permit.sol\":1892:1905  ECDSA.recover */\n      tag_157\n        /* \"ExodusERC20Token/ERC20Permit.sol\":1892:1920  ECDSA.recover(hash, v, r, s) */\n      jump\t// in\n    tag_156:\n        /* \"ExodusERC20Token/ERC20Permit.sol\":1875:1920  address signer = ECDSA.recover(hash, v, r, s) */\n      swap1\n      pop\n        /* \"ExodusERC20Token/ERC20Permit.sol\":1948:1953  owner */\n      dup10\n      sub(shl(0xa0, 0x01), 0x01)\n        /* \"ExodusERC20Token/ERC20Permit.sol\":1938:1953  signer == owner */\n      and\n        /* \"ExodusERC20Token/ERC20Permit.sol\":1938:1944  signer */\n      dup2\n      sub(shl(0xa0, 0x01), 0x01)\n        /* \"ExodusERC20Token/ERC20Permit.sol\":1938:1953  signer == owner */\n      and\n      eq\n        /* \"ExodusERC20Token/ERC20Permit.sol\":1930:1988  require(signer == owner, \"ERC20Permit: invalid signature\") */\n      tag_158\n      jumpi\n      0x40\n      dup1\n      mload\n      shl(0xe5, 0x461bcd)\n      dup2\n      mstore\n      0x20\n      0x04\n      dup3\n      add\n      mstore\n      0x1e\n      0x24\n      dup3\n      add\n      mstore\n      0x45524332305065726d69743a20696e76616c6964207369676e61747572650000\n      0x44\n      dup3\n      add\n      mstore\n      swap1\n      mload\n      swap1\n      dup2\n      swap1\n      sub\n      0x64\n      add\n      swap1\n      revert\n    tag_158:\n        /* \"ExodusERC20Token/ERC20Permit.sol\":1999:2030  _approve(owner, spender, value) */\n      tag_159\n        /* \"ExodusERC20Token/ERC20Permit.sol\":2008:2013  owner */\n      dup11\n        /* \"ExodusERC20Token/ERC20Permit.sol\":2015:2022  spender */\n      dup11\n        /* \"ExodusERC20Token/ERC20Permit.sol\":2024:2029  value */\n      dup11\n        /* \"ExodusERC20Token/ERC20Permit.sol\":1999:2007  _approve */\n      tag_93\n        /* \"ExodusERC20Token/ERC20Permit.sol\":1999:2030  _approve(owner, spender, value) */\n      jump\t// in\n    tag_159:\n        /* \"ExodusERC20Token/ERC20Permit.sol\":1411:2037  function permit(... */\n      pop\n      pop\n      pop\n      pop\n      pop\n      pop\n      pop\n      pop\n      pop\n      pop\n      jump\t// out\n        /* \"ExodusERC20Token/ERC20.sol\":1467:1616  function allowance(address owner, address spender) public view virtual override returns (uint256) {... */\n    tag_86:\n      sub(shl(0xa0, 0x01), 0x01)\n        /* \"ExodusERC20Token/ERC20.sol\":1582:1600  _allowances[owner] */\n      swap2\n      dup3\n      and\n        /* \"ExodusERC20Token/ERC20.sol\":1556:1563  uint256 */\n      0x00\n        /* \"ExodusERC20Token/ERC20.sol\":1582:1600  _allowances[owner] */\n      swap1\n      dup2\n      mstore\n        /* \"ExodusERC20Token/ERC20.sol\":1582:1593  _allowances */\n      0x01\n        /* \"ExodusERC20Token/ERC20.sol\":1582:1600  _allowances[owner] */\n      0x20\n      swap1\n      dup2\n      mstore\n      0x40\n      dup1\n      dup4\n      keccak256\n        /* \"ExodusERC20Token/ERC20.sol\":1582:1609  _allowances[owner][spender] */\n      swap4\n      swap1\n      swap5\n      and\n      dup3\n      mstore\n      swap2\n      swap1\n      swap2\n      mstore\n      keccak256\n      sload\n      swap1\n        /* \"ExodusERC20Token/ERC20.sol\":1467:1616  function allowance(address owner, address spender) public view virtual override returns (uint256) {... */\n      jump\t// out\n        /* \"ExodusERC20Token/ERC20.sol\":4074:4444  function _approve(... */\n    tag_93:\n      sub(shl(0xa0, 0x01), 0x01)\n        /* \"ExodusERC20Token/ERC20.sol\":4205:4224  owner != address(0) */\n      dup4\n      and\n        /* \"ExodusERC20Token/ERC20.sol\":4197:4265  require(owner != address(0), \"ERC20: approve from the zero address\") */\n      tag_162\n      jumpi\n      mload(0x40)\n      shl(0xe5, 0x461bcd)\n      dup2\n      mstore\n      0x04\n      add\n      dup1\n      dup1\n      0x20\n      add\n      dup3\n      dup2\n      sub\n      dup3\n      mstore\n      0x24\n      dup2\n      mstore\n      0x20\n      add\n      dup1\n      data_c953f4879035ed60e766b34720f656aab5c697b141d924c283124ecedb91c208\n      0x24\n      swap2\n      codecopy\n      0x40\n      add\n      swap2\n      pop\n      pop\n      mload(0x40)\n      dup1\n      swap2\n      sub\n      swap1\n      revert\n    tag_162:\n      sub(shl(0xa0, 0x01), 0x01)\n        /* \"ExodusERC20Token/ERC20.sol\":4283:4304  spender != address(0) */\n      dup3\n      and\n        /* \"ExodusERC20Token/ERC20.sol\":4275:4343  require(spender != address(0), \"ERC20: approve to the zero address\") */\n      tag_163\n      jumpi\n      mload(0x40)\n      shl(0xe5, 0x461bcd)\n      dup2\n      mstore\n      0x04\n      add\n      dup1\n      dup1\n      0x20\n      add\n      dup3\n      dup2\n      sub\n      dup3\n      mstore\n      0x22\n      dup2\n      mstore\n      0x20\n      add\n      dup1\n      data_24883cc5fe64ace9d0df1893501ecb93c77180f0ff69cca79affb3c316dc8029\n      0x22\n      swap2\n      codecopy\n      0x40\n      add\n      swap2\n      pop\n      pop\n      mload(0x40)\n      dup1\n      swap2\n      sub\n      swap1\n      revert\n    tag_163:\n      sub(shl(0xa0, 0x01), 0x01)\n        /* \"ExodusERC20Token/ERC20.sol\":4354:4372  _allowances[owner] */\n      dup1\n      dup5\n      and\n      0x00\n      dup2\n      dup2\n      mstore\n        /* \"ExodusERC20Token/ERC20.sol\":4354:4365  _allowances */\n      0x01\n        /* \"ExodusERC20Token/ERC20.sol\":4354:4372  _allowances[owner] */\n      0x20\n      swap1\n      dup2\n      mstore\n      0x40\n      dup1\n      dup4\n      keccak256\n        /* \"ExodusERC20Token/ERC20.sol\":4354:4381  _allowances[owner][spender] */\n      swap5\n      dup8\n      and\n      dup1\n      dup5\n      mstore\n      swap5\n      dup3\n      mstore\n      swap2\n      dup3\n      swap1\n      keccak256\n        /* \"ExodusERC20Token/ERC20.sol\":4354:4390  _allowances[owner][spender] = amount */\n      dup6\n      swap1\n      sstore\n        /* \"ExodusERC20Token/ERC20.sol\":4405:4437  Approval(owner, spender, amount) */\n      dup2\n      mload\n      dup6\n      dup2\n      mstore\n      swap2\n      mload\n      0x8c5be1e5ebec7d5bd14f71427d1e84f3dd0314c0f7b2291e5b200ac8c7c3b925\n      swap3\n      dup2\n      swap1\n      sub\n      swap1\n      swap2\n      add\n      swap1\n      log3\n        /* \"ExodusERC20Token/ERC20.sol\":4074:4444  function _approve(... */\n      pop\n      pop\n      pop\n      jump\t// out\n        /* \"ExodusERC20Token/ERC20.sol\":2718:3278  function _transfer(... */\n    tag_97:\n      sub(shl(0xa0, 0x01), 0x01)\n        /* \"ExodusERC20Token/ERC20.sol\":2853:2873  sender != address(0) */\n      dup4\n      and\n        /* \"ExodusERC20Token/ERC20.sol\":2845:2915  require(sender != address(0), \"ERC20: transfer from the zero address\") */\n      tag_165\n      jumpi\n      mload(0x40)\n      shl(0xe5, 0x461bcd)\n      dup2\n      mstore\n      0x04\n      add\n      dup1\n      dup1\n      0x20\n      add\n      dup3\n      dup2\n      sub\n      dup3\n      mstore\n      0x25\n      dup2\n      mstore\n      0x20\n      add\n      dup1\n      data_baecc556b46f4ed0f2b4cb599d60785ac8563dd2dc0a5bf12edea1c39e5e1fea\n      0x25\n      swap2\n      codecopy\n      0x40\n      add\n      swap2\n      pop\n      pop\n      mload(0x40)\n      dup1\n      swap2\n      sub\n      swap1\n      revert\n    tag_165:\n      sub(shl(0xa0, 0x01), 0x01)\n        /* \"ExodusERC20Token/ERC20.sol\":2933:2956  recipient != address(0) */\n      dup3\n      and\n        /* \"ExodusERC20Token/ERC20.sol\":2925:2996  require(recipient != address(0), \"ERC20: transfer to the zero address\") */\n      tag_166\n      jumpi\n      mload(0x40)\n      shl(0xe5, 0x461bcd)\n      dup2\n      mstore\n      0x04\n      add\n      dup1\n      dup1\n      0x20\n      add\n      dup3\n      dup2\n      sub\n      dup3\n      mstore\n      0x23\n      dup2\n      mstore\n      0x20\n      add\n      dup1\n      data_0557e210f7a69a685100a7e4e3d0a7024c546085cee28910fd17d0b081d9516f\n      0x23\n      swap2\n      codecopy\n      0x40\n      add\n      swap2\n      pop\n      pop\n      mload(0x40)\n      dup1\n      swap2\n      sub\n      swap1\n      revert\n    tag_166:\n        /* \"ExodusERC20Token/ERC20.sol\":3007:3054  _beforeTokenTransfer(sender, recipient, amount) */\n      tag_167\n        /* \"ExodusERC20Token/ERC20.sol\":3028:3034  sender */\n      dup4\n        /* \"ExodusERC20Token/ERC20.sol\":3036:3045  recipient */\n      dup4\n        /* \"ExodusERC20Token/ERC20.sol\":3047:3053  amount */\n      dup4\n        /* \"ExodusERC20Token/ERC20.sol\":3007:3027  _beforeTokenTransfer */\n      tag_199\n        /* \"ExodusERC20Token/ERC20.sol\":3007:3054  _beforeTokenTransfer(sender, recipient, amount) */\n      jump\t// in\n    tag_167:\n        /* \"ExodusERC20Token/ERC20.sol\":3085:3156  _balances[sender].sub(amount, \"ERC20: transfer amount exceeds balance\") */\n      tag_169\n        /* \"ExodusERC20Token/ERC20.sol\":3107:3113  amount */\n      dup2\n        /* \"ExodusERC20Token/ERC20.sol\":3085:3156  _balances[sender].sub(amount, \"ERC20: transfer amount exceeds balance\") */\n      mload(0x40)\n      dup1\n      0x60\n      add\n      0x40\n      mstore\n      dup1\n      0x26\n      dup2\n      mstore\n      0x20\n      add\n      data_4107e8a8b9e94bf8ff83080ddec1c0bffe897ebc2241b89d44f66b3d274088b6\n      0x26\n      swap2\n      codecopy\n      sub(shl(0xa0, 0x01), 0x01)\n        /* \"ExodusERC20Token/ERC20.sol\":3085:3102  _balances[sender] */\n      dup7\n      and\n        /* \"ExodusERC20Token/ERC20.sol\":3085:3094  _balances */\n      0x00\n        /* \"ExodusERC20Token/ERC20.sol\":3085:3102  _balances[sender] */\n      swap1\n      dup2\n      mstore\n      0x20\n      dup2\n      swap1\n      mstore\n      0x40\n      swap1\n      keccak256\n      sload\n      swap2\n        /* \"ExodusERC20Token/ERC20.sol\":3085:3156  _balances[sender].sub(amount, \"ERC20: transfer amount exceeds balance\") */\n      swap1\n        /* \"ExodusERC20Token/ERC20.sol\":3085:3106  _balances[sender].sub */\n      tag_100\n        /* \"ExodusERC20Token/ERC20.sol\":3085:3156  _balances[sender].sub(amount, \"ERC20: transfer amount exceeds balance\") */\n      jump\t// in\n    tag_169:\n      sub(shl(0xa0, 0x01), 0x01)\n        /* \"ExodusERC20Token/ERC20.sol\":3065:3082  _balances[sender] */\n      dup1\n      dup6\n      and\n        /* \"ExodusERC20Token/ERC20.sol\":3065:3074  _balances */\n      0x00\n        /* \"ExodusERC20Token/ERC20.sol\":3065:3082  _balances[sender] */\n      swap1\n      dup2\n      mstore\n      0x20\n      dup2\n      swap1\n      mstore\n      0x40\n      dup1\n      dup3\n      keccak256\n        /* \"ExodusERC20Token/ERC20.sol\":3065:3156  _balances[sender] = _balances[sender].sub(amount, \"ERC20: transfer amount exceeds balance\") */\n      swap4\n      swap1\n      swap4\n      sstore\n        /* \"ExodusERC20Token/ERC20.sol\":3189:3209  _balances[recipient] */\n      swap1\n      dup5\n      and\n      dup2\n      mstore\n      keccak256\n      sload\n        /* \"ExodusERC20Token/ERC20.sol\":3189:3221  _balances[recipient].add(amount) */\n      tag_170\n      swap1\n        /* \"ExodusERC20Token/ERC20.sol\":3214:3220  amount */\n      dup3\n        /* \"ExodusERC20Token/ERC20.sol\":3189:3213  _balances[recipient].add */\n      tag_108\n        /* \"ExodusERC20Token/ERC20.sol\":3189:3221  _balances[recipient].add(amount) */\n      jump\t// in\n    tag_170:\n      sub(shl(0xa0, 0x01), 0x01)\n        /* \"ExodusERC20Token/ERC20.sol\":3166:3186  _balances[recipient] */\n      dup1\n      dup5\n      and\n        /* \"ExodusERC20Token/ERC20.sol\":3166:3175  _balances */\n      0x00\n        /* \"ExodusERC20Token/ERC20.sol\":3166:3186  _balances[recipient] */\n      dup2\n      dup2\n      mstore\n      0x20\n      dup2\n      dup2\n      mstore\n      0x40\n      swap2\n      dup3\n      swap1\n      keccak256\n        /* \"ExodusERC20Token/ERC20.sol\":3166:3221  _balances[recipient] = _balances[recipient].add(amount) */\n      swap5\n      swap1\n      swap5\n      sstore\n        /* \"ExodusERC20Token/ERC20.sol\":3236:3271  Transfer(sender, recipient, amount) */\n      dup1\n      mload\n      dup6\n      dup2\n      mstore\n      swap1\n      mload\n        /* \"ExodusERC20Token/ERC20.sol\":3166:3186  _balances[recipient] */\n      swap2\n      swap4\n        /* \"ExodusERC20Token/ERC20.sol\":3236:3271  Transfer(sender, recipient, amount) */\n      swap3\n      dup8\n      and\n      swap3\n      0xddf252ad1be2c89b69c2b068fc378daa952ba7f163c4a11628f55a4df523b3ef\n      swap3\n      swap2\n      dup3\n      swap1\n      sub\n      add\n      swap1\n      log3\n        /* \"ExodusERC20Token/ERC20.sol\":2718:3278  function _transfer(... */\n      pop\n      pop\n      pop\n      jump\t// out\n        /* \"ExodusERC20Token/SafeMath.sol\":477:694  function sub(... */\n    tag_100:\n        /* \"ExodusERC20Token/SafeMath.sol\":593:600  uint256 */\n      0x00\n        /* \"ExodusERC20Token/SafeMath.sol\":628:640  errorMessage */\n      dup2\n        /* \"ExodusERC20Token/SafeMath.sol\":620:626  b <= a */\n      dup5\n      dup5\n      gt\n      iszero\n        /* \"ExodusERC20Token/SafeMath.sol\":612:641  require(b <= a, errorMessage) */\n      tag_172\n      jumpi\n      mload(0x40)\n      shl(0xe5, 0x461bcd)\n      dup2\n      mstore\n      0x04\n      add\n      dup1\n      dup1\n      0x20\n      add\n      dup3\n      dup2\n      sub\n      dup3\n      mstore\n      dup4\n      dup2\n      dup2\n      mload\n      dup2\n      mstore\n      0x20\n      add\n      swap2\n      pop\n      dup1\n      mload\n      swap1\n      0x20\n      add\n      swap1\n      dup1\n      dup4\n      dup4\n      0x00\n    tag_173:\n      dup4\n      dup2\n      lt\n      iszero\n      tag_175\n      jumpi\n      dup2\n      dup2\n      add\n      mload\n      dup4\n      dup3\n      add\n      mstore\n      0x20\n      add\n      jump(tag_173)\n    tag_175:\n      pop\n      pop\n      pop\n      pop\n      swap1\n      pop\n      swap1\n      dup2\n      add\n      swap1\n      0x1f\n      and\n      dup1\n      iszero\n      tag_176\n      jumpi\n      dup1\n      dup3\n      sub\n      dup1\n      mload\n      0x01\n      dup4\n      0x20\n      sub\n      0x0100\n      exp\n      sub\n      not\n      and\n      dup2\n      mstore\n      0x20\n      add\n      swap2\n      pop\n    tag_176:\n      pop\n      swap3\n      pop\n      pop\n      pop\n      mload(0x40)\n      dup1\n      swap2\n      sub\n      swap1\n      revert\n    tag_172:\n      pop\n      pop\n      pop\n        /* \"ExodusERC20Token/SafeMath.sol\":663:668  a - b */\n      swap1\n      sub\n      swap1\n        /* \"ExodusERC20Token/SafeMath.sol\":477:694  function sub(... */\n      jump\t// out\n        /* \"ExodusERC20Token/EIP712.sol\":3072:3429  function _domainSeparatorV4() internal view returns (bytes32) {... */\n    tag_104:\n        /* \"ExodusERC20Token/EIP712.sol\":3125:3132  bytes32 */\n      0x00\n        /* \"ExodusERC20Token/EIP712.sol\":3203:3212  chainid() */\n      chainid\n        /* \"ExodusERC20Token/EIP712.sol\":3247:3263  _CACHED_CHAIN_ID */\n      immutable(\"0x7ee9b50c980554e091f5df8085692358417b660affc08e545e624793708cbe01\")\n        /* \"ExodusERC20Token/EIP712.sol\":3236:3263  chainID == _CACHED_CHAIN_ID */\n      dup2\n      eq\n        /* \"ExodusERC20Token/EIP712.sol\":3232:3423  if (chainID == _CACHED_CHAIN_ID) {... */\n      iszero\n      tag_178\n      jumpi\n        /* \"ExodusERC20Token/EIP712.sol\":3286:3310  _CACHED_DOMAIN_SEPARATOR */\n      immutable(\"0x28bbb0207f31d945816623d3302c5bf67e35f3d933c3b03a2cbc30cfa7ce31d8\")\n        /* \"ExodusERC20Token/EIP712.sol\":3279:3310  return _CACHED_DOMAIN_SEPARATOR */\n      swap2\n      pop\n      pop\n      jump(tag_87)\n        /* \"ExodusERC20Token/EIP712.sol\":3232:3423  if (chainID == _CACHED_CHAIN_ID) {... */\n    tag_178:\n        /* \"ExodusERC20Token/EIP712.sol\":3348:3412  _buildDomainSeparator(_TYPE_HASH, _HASHED_NAME, _HASHED_VERSION) */\n      tag_180\n        /* \"ExodusERC20Token/EIP712.sol\":3370:3380  _TYPE_HASH */\n      immutable(\"0x5ade3da6b1e878dacd678731417229d3052ad3d883d603995a413e3104e44893\")\n        /* \"ExodusERC20Token/EIP712.sol\":3382:3394  _HASHED_NAME */\n      immutable(\"0xa15d3280aa3e4a045ba4928ae092d0b698801fe0fe2e296d74f795d639cb63ba\")\n        /* \"ExodusERC20Token/EIP712.sol\":3396:3411  _HASHED_VERSION */\n      immutable(\"0xd1731c384d2c8ba1eafa1dee7436362fec5c2705b14e910ce09d6ba0a10fd695\")\n        /* \"ExodusERC20Token/EIP712.sol\":3348:3369  _buildDomainSeparator */\n      tag_181\n        /* \"ExodusERC20Token/EIP712.sol\":3348:3412  _buildDomainSeparator(_TYPE_HASH, _HASHED_NAME, _HASHED_VERSION) */\n      jump\t// in\n    tag_180:\n        /* \"ExodusERC20Token/EIP712.sol\":3341:3412  return _buildDomainSeparator(_TYPE_HASH, _HASHED_NAME, _HASHED_VERSION) */\n      swap2\n      pop\n      pop\n      jump(tag_87)\n        /* \"ExodusERC20Token/SafeMath.sol\":155:331  function add(uint256 a, uint256 b) internal pure returns (uint256) {... */\n    tag_108:\n        /* \"ExodusERC20Token/SafeMath.sol\":213:220  uint256 */\n      0x00\n        /* \"ExodusERC20Token/SafeMath.sol\":244:249  a + b */\n      dup3\n      dup3\n      add\n        /* \"ExodusERC20Token/SafeMath.sol\":267:273  c >= a */\n      dup4\n      dup2\n      lt\n      iszero\n        /* \"ExodusERC20Token/SafeMath.sol\":259:305  require(c >= a, \"SafeMath: addition overflow\") */\n      tag_183\n      jumpi\n      0x40\n      dup1\n      mload\n      shl(0xe5, 0x461bcd)\n      dup2\n      mstore\n      0x20\n      0x04\n      dup3\n      add\n      mstore\n      0x1b\n      0x24\n      dup3\n      add\n      mstore\n      0x536166654d6174683a206164646974696f6e206f766572666c6f770000000000\n      0x44\n      dup3\n      add\n      mstore\n      swap1\n      mload\n      swap1\n      dup2\n      swap1\n      sub\n      0x64\n      add\n      swap1\n      revert\n    tag_183:\n        /* \"ExodusERC20Token/SafeMath.sol\":323:324  c */\n      swap4\n        /* \"ExodusERC20Token/SafeMath.sol\":155:331  function add(uint256 a, uint256 b) internal pure returns (uint256) {... */\n      swap3\n      pop\n      pop\n      pop\n      jump\t// out\n        /* \"ExodusERC20Token/ERC20.sol\":3284:3652  function _mint(address account, uint256 amount) internal virtual {... */\n    tag_120:\n      sub(shl(0xa0, 0x01), 0x01)\n        /* \"ExodusERC20Token/ERC20.sol\":3367:3388  account != address(0) */\n      dup3\n      and\n        /* \"ExodusERC20Token/ERC20.sol\":3359:3424  require(account != address(0), \"ERC20: mint to the zero address\") */\n      tag_185\n      jumpi\n      0x40\n      dup1\n      mload\n      shl(0xe5, 0x461bcd)\n      dup2\n      mstore\n      0x20\n      0x04\n      dup3\n      add\n      mstore\n      0x1f\n      0x24\n      dup3\n      add\n      mstore\n      0x45524332303a206d696e7420746f20746865207a65726f206164647265737300\n      0x44\n      dup3\n      add\n      mstore\n      swap1\n      mload\n      swap1\n      dup2\n      swap1\n      sub\n      0x64\n      add\n      swap1\n      revert\n    tag_185:\n        /* \"ExodusERC20Token/ERC20.sol\":3434:3483  _beforeTokenTransfer(address(0), account, amount) */\n      tag_186\n        /* \"ExodusERC20Token/ERC20.sol\":3463:3464  0 */\n      0x00\n        /* \"ExodusERC20Token/ERC20.sol\":3467:3474  account */\n      dup4\n        /* \"ExodusERC20Token/ERC20.sol\":3476:3482  amount */\n      dup4\n        /* \"ExodusERC20Token/ERC20.sol\":3434:3454  _beforeTokenTransfer */\n      tag_199\n        /* \"ExodusERC20Token/ERC20.sol\":3434:3483  _beforeTokenTransfer(address(0), account, amount) */\n      jump\t// in\n    tag_186:\n        /* \"ExodusERC20Token/ERC20.sol\":3508:3520  _totalSupply */\n      sload(0x02)\n        /* \"ExodusERC20Token/ERC20.sol\":3508:3532  _totalSupply.add(amount) */\n      tag_187\n      swap1\n        /* \"ExodusERC20Token/ERC20.sol\":3525:3531  amount */\n      dup3\n        /* \"ExodusERC20Token/ERC20.sol\":3508:3524  _totalSupply.add */\n      tag_108\n        /* \"ExodusERC20Token/ERC20.sol\":3508:3532  _totalSupply.add(amount) */\n      jump\t// in\n    tag_187:\n        /* \"ExodusERC20Token/ERC20.sol\":3493:3505  _totalSupply */\n      0x02\n        /* \"ExodusERC20Token/ERC20.sol\":3493:3532  _totalSupply = _totalSupply.add(amount) */\n      sstore\n      sub(shl(0xa0, 0x01), 0x01)\n        /* \"ExodusERC20Token/ERC20.sol\":3563:3581  _balances[account] */\n      dup3\n      and\n        /* \"ExodusERC20Token/ERC20.sol\":3563:3572  _balances */\n      0x00\n        /* \"ExodusERC20Token/ERC20.sol\":3563:3581  _balances[account] */\n      swap1\n      dup2\n      mstore\n      0x20\n      dup2\n      swap1\n      mstore\n      0x40\n      swap1\n      keccak256\n      sload\n        /* \"ExodusERC20Token/ERC20.sol\":3563:3593  _balances[account].add(amount) */\n      tag_188\n      swap1\n        /* \"ExodusERC20Token/ERC20.sol\":3586:3592  amount */\n      dup3\n        /* \"ExodusERC20Token/ERC20.sol\":3563:3585  _balances[account].add */\n      tag_108\n        /* \"ExodusERC20Token/ERC20.sol\":3563:3593  _balances[account].add(amount) */\n      jump\t// in\n    tag_188:\n      sub(shl(0xa0, 0x01), 0x01)\n        /* \"ExodusERC20Token/ERC20.sol\":3542:3560  _balances[account] */\n      dup4\n      and\n        /* \"ExodusERC20Token/ERC20.sol\":3542:3551  _balances */\n      0x00\n        /* \"ExodusERC20Token/ERC20.sol\":3542:3560  _balances[account] */\n      dup2\n      dup2\n      mstore\n      0x20\n      dup2\n      dup2\n      mstore\n      0x40\n      dup1\n      dup4\n      keccak256\n        /* \"ExodusERC20Token/ERC20.sol\":3542:3593  _balances[account] = _balances[account].add(amount) */\n      swap5\n      swap1\n      swap5\n      sstore\n        /* \"ExodusERC20Token/ERC20.sol\":3608:3645  Transfer(address(0), account, amount) */\n      dup4\n      mload\n      dup6\n      dup2\n      mstore\n      swap4\n      mload\n        /* \"ExodusERC20Token/ERC20.sol\":3542:3560  _balances[account] */\n      swap3\n      swap4\n        /* \"ExodusERC20Token/ERC20.sol\":3542:3551  _balances */\n      swap2\n      swap3\n        /* \"ExodusERC20Token/ERC20.sol\":3608:3645  Transfer(address(0), account, amount) */\n      0xddf252ad1be2c89b69c2b068fc378daa952ba7f163c4a11628f55a4df523b3ef\n      swap3\n      dup2\n      swap1\n      sub\n      swap1\n      swap2\n      add\n      swap1\n      log3\n        /* \"ExodusERC20Token/ERC20.sol\":3284:3652  function _mint(address account, uint256 amount) internal virtual {... */\n      pop\n      pop\n      jump\t// out\n        /* \"ExodusERC20Token/ERC20.sol\":3658:4068  function _burn(address account, uint256 amount) internal virtual {... */\n    tag_123:\n      sub(shl(0xa0, 0x01), 0x01)\n        /* \"ExodusERC20Token/ERC20.sol\":3741:3762  account != address(0) */\n      dup3\n      and\n        /* \"ExodusERC20Token/ERC20.sol\":3733:3800  require(account != address(0), \"ERC20: burn from the zero address\") */\n      tag_190\n      jumpi\n      mload(0x40)\n      shl(0xe5, 0x461bcd)\n      dup2\n      mstore\n      0x04\n      add\n      dup1\n      dup1\n      0x20\n      add\n      dup3\n      dup2\n      sub\n      dup3\n      mstore\n      0x21\n      dup2\n      mstore\n      0x20\n      add\n      dup1\n      data_b16788493b576042bb52c50ed56189e0b250db113c7bfb1c3897d25cf9632d7f\n      0x21\n      swap2\n      codecopy\n      0x40\n      add\n      swap2\n      pop\n      pop\n      mload(0x40)\n      dup1\n      swap2\n      sub\n      swap1\n      revert\n    tag_190:\n        /* \"ExodusERC20Token/ERC20.sol\":3811:3860  _beforeTokenTransfer(account, address(0), amount) */\n      tag_191\n        /* \"ExodusERC20Token/ERC20.sol\":3832:3839  account */\n      dup3\n        /* \"ExodusERC20Token/ERC20.sol\":3849:3850  0 */\n      0x00\n        /* \"ExodusERC20Token/ERC20.sol\":3853:3859  amount */\n      dup4\n        /* \"ExodusERC20Token/ERC20.sol\":3811:3831  _beforeTokenTransfer */\n      tag_199\n        /* \"ExodusERC20Token/ERC20.sol\":3811:3860  _beforeTokenTransfer(account, address(0), amount) */\n      jump\t// in\n    tag_191:\n        /* \"ExodusERC20Token/ERC20.sol\":3892:3960  _balances[account].sub(amount, \"ERC20: burn amount exceeds balance\") */\n      tag_192\n        /* \"ExodusERC20Token/ERC20.sol\":3915:3921  amount */\n      dup2\n        /* \"ExodusERC20Token/ERC20.sol\":3892:3960  _balances[account].sub(amount, \"ERC20: burn amount exceeds balance\") */\n      mload(0x40)\n      dup1\n      0x60\n      add\n      0x40\n      mstore\n      dup1\n      0x22\n      dup2\n      mstore\n      0x20\n      add\n      data_149b126e7125232b4200af45303d04fba8b74653b1a295a6a561a528c33fefdd\n      0x22\n      swap2\n      codecopy\n      sub(shl(0xa0, 0x01), 0x01)\n        /* \"ExodusERC20Token/ERC20.sol\":3892:3910  _balances[account] */\n      dup6\n      and\n        /* \"ExodusERC20Token/ERC20.sol\":3892:3901  _balances */\n      0x00\n        /* \"ExodusERC20Token/ERC20.sol\":3892:3910  _balances[account] */\n      swap1\n      dup2\n      mstore\n      0x20\n      dup2\n      swap1\n      mstore\n      0x40\n      swap1\n      keccak256\n      sload\n      swap2\n        /* \"ExodusERC20Token/ERC20.sol\":3892:3960  _balances[account].sub(amount, \"ERC20: burn amount exceeds balance\") */\n      swap1\n        /* \"ExodusERC20Token/ERC20.sol\":3892:3914  _balances[account].sub */\n      tag_100\n        /* \"ExodusERC20Token/ERC20.sol\":3892:3960  _balances[account].sub(amount, \"ERC20: burn amount exceeds balance\") */\n      jump\t// in\n    tag_192:\n      sub(shl(0xa0, 0x01), 0x01)\n        /* \"ExodusERC20Token/ERC20.sol\":3871:3889  _balances[account] */\n      dup4\n      and\n        /* \"ExodusERC20Token/ERC20.sol\":3871:3880  _balances */\n      0x00\n        /* \"ExodusERC20Token/ERC20.sol\":3871:3889  _balances[account] */\n      swap1\n      dup2\n      mstore\n      0x20\n      dup2\n      swap1\n      mstore\n      0x40\n      swap1\n      keccak256\n        /* \"ExodusERC20Token/ERC20.sol\":3871:3960  _balances[account] = _balances[account].sub(amount, \"ERC20: burn amount exceeds balance\") */\n      sstore\n        /* \"ExodusERC20Token/ERC20.sol\":3985:3997  _totalSupply */\n      sload(0x02)\n        /* \"ExodusERC20Token/ERC20.sol\":3985:4009  _totalSupply.sub(amount) */\n      tag_193\n      swap1\n        /* \"ExodusERC20Token/ERC20.sol\":4002:4008  amount */\n      dup3\n        /* \"ExodusERC20Token/ERC20.sol\":3985:4001  _totalSupply.sub */\n      tag_194\n        /* \"ExodusERC20Token/ERC20.sol\":3985:4009  _totalSupply.sub(amount) */\n      jump\t// in\n    tag_193:\n        /* \"ExodusERC20Token/ERC20.sol\":3970:3982  _totalSupply */\n      0x02\n        /* \"ExodusERC20Token/ERC20.sol\":3970:4009  _totalSupply = _totalSupply.sub(amount) */\n      sstore\n        /* \"ExodusERC20Token/ERC20.sol\":4024:4061  Transfer(account, address(0), amount) */\n      0x40\n      dup1\n      mload\n      dup3\n      dup2\n      mstore\n      swap1\n      mload\n        /* \"ExodusERC20Token/ERC20.sol\":4050:4051  0 */\n      0x00\n      swap2\n      sub(shl(0xa0, 0x01), 0x01)\n        /* \"ExodusERC20Token/ERC20.sol\":4024:4061  Transfer(account, address(0), amount) */\n      dup6\n      and\n      swap2\n      0xddf252ad1be2c89b69c2b068fc378daa952ba7f163c4a11628f55a4df523b3ef\n      swap2\n      dup2\n      swap1\n      sub\n      0x20\n      add\n      swap1\n      log3\n        /* \"ExodusERC20Token/ERC20.sol\":3658:4068  function _burn(address account, uint256 amount) internal virtual {... */\n      pop\n      pop\n      jump\t// out\n        /* \"ExodusERC20Token/OlympusERC20.sol\":852:1176  function _burnFrom(address account_, uint256 amount_) internal {... */\n    tag_127:\n        /* \"ExodusERC20Token/OlympusERC20.sol\":925:952  uint256 decreasedAllowance_ */\n      0x00\n        /* \"ExodusERC20Token/OlympusERC20.sol\":955:1073  allowance(account_, msg.sender).sub(... */\n      tag_196\n        /* \"ExodusERC20Token/OlympusERC20.sol\":1004:1011  amount_ */\n      dup3\n        /* \"ExodusERC20Token/OlympusERC20.sol\":955:1073  allowance(account_, msg.sender).sub(... */\n      mload(0x40)\n      dup1\n      0x60\n      add\n      0x40\n      mstore\n      dup1\n      0x24\n      dup2\n      mstore\n      0x20\n      add\n      data_a287c363786607a1457a2d9d12fa61c0073358e02d76b4035fc2c2d86a19c0db\n      0x24\n      swap2\n      codecopy\n        /* \"ExodusERC20Token/OlympusERC20.sol\":955:986  allowance(account_, msg.sender) */\n      tag_197\n        /* \"ExodusERC20Token/OlympusERC20.sol\":965:973  account_ */\n      dup7\n        /* \"ExodusERC20Token/OlympusERC20.sol\":975:985  msg.sender */\n      caller\n        /* \"ExodusERC20Token/OlympusERC20.sol\":955:964  allowance */\n      tag_86\n        /* \"ExodusERC20Token/OlympusERC20.sol\":955:986  allowance(account_, msg.sender) */\n      jump\t// in\n    tag_197:\n        /* \"ExodusERC20Token/OlympusERC20.sol\":955:990  allowance(account_, msg.sender).sub */\n      swap2\n        /* \"ExodusERC20Token/OlympusERC20.sol\":955:1073  allowance(account_, msg.sender).sub(... */\n      swap1\n        /* \"ExodusERC20Token/OlympusERC20.sol\":955:990  allowance(account_, msg.sender).sub */\n      tag_100\n        /* \"ExodusERC20Token/OlympusERC20.sol\":955:1073  allowance(account_, msg.sender).sub(... */\n      jump\t// in\n    tag_196:\n        /* \"ExodusERC20Token/OlympusERC20.sol\":925:1073  uint256 decreasedAllowance_ = allowance(account_, msg.sender).sub(... */\n      swap1\n      pop\n        /* \"ExodusERC20Token/OlympusERC20.sol\":1084:1135  _approve(account_, msg.sender, decreasedAllowance_) */\n      tag_198\n        /* \"ExodusERC20Token/OlympusERC20.sol\":1093:1101  account_ */\n      dup4\n        /* \"ExodusERC20Token/OlympusERC20.sol\":1103:1113  msg.sender */\n      caller\n        /* \"ExodusERC20Token/OlympusERC20.sol\":1115:1134  decreasedAllowance_ */\n      dup4\n        /* \"ExodusERC20Token/OlympusERC20.sol\":1084:1092  _approve */\n      tag_93\n        /* \"ExodusERC20Token/OlympusERC20.sol\":1084:1135  _approve(account_, msg.sender, decreasedAllowance_) */\n      jump\t// in\n    tag_198:\n        /* \"ExodusERC20Token/OlympusERC20.sol\":1145:1169  _burn(account_, amount_) */\n      tag_199\n        /* \"ExodusERC20Token/OlympusERC20.sol\":1151:1159  account_ */\n      dup4\n        /* \"ExodusERC20Token/OlympusERC20.sol\":1161:1168  amount_ */\n      dup4\n        /* \"ExodusERC20Token/OlympusERC20.sol\":1145:1150  _burn */\n      tag_123\n        /* \"ExodusERC20Token/OlympusERC20.sol\":1145:1169  _burn(account_, amount_) */\n      jump\t// in\n    tag_199:\n        /* \"ExodusERC20Token/OlympusERC20.sol\":852:1176  function _burnFrom(address account_, uint256 amount_) internal {... */\n      pop\n      pop\n      pop\n      jump\t// out\n        /* \"ExodusERC20Token/Counters.sol\":524:636  function current(Counter storage counter) internal view returns (uint256) {... */\n    tag_140:\n        /* \"ExodusERC20Token/Counters.sol\":615:629  counter._value */\n      sload\n      swap1\n        /* \"ExodusERC20Token/Counters.sol\":524:636  function current(Counter storage counter) internal view returns (uint256) {... */\n      jump\t// out\n        /* \"ExodusERC20Token/ERC20Permit.sol\":2592:2795  function _useNonce(address owner) internal virtual returns (uint256 current) {... */\n    tag_153:\n      sub(shl(0xa0, 0x01), 0x01)\n        /* \"ExodusERC20Token/ERC20Permit.sol\":2712:2726  _nonces[owner] */\n      dup2\n      and\n        /* \"ExodusERC20Token/ERC20Permit.sol\":2652:2667  uint256 current */\n      0x00\n        /* \"ExodusERC20Token/ERC20Permit.sol\":2712:2726  _nonces[owner] */\n      swap1\n      dup2\n      mstore\n        /* \"ExodusERC20Token/ERC20Permit.sol\":2712:2719  _nonces */\n      0x05\n        /* \"ExodusERC20Token/ERC20Permit.sol\":2712:2726  _nonces[owner] */\n      0x20\n      mstore\n      0x40\n      dup2\n      keccak256\n        /* \"ExodusERC20Token/ERC20Permit.sol\":2746:2761  nonce.current() */\n      tag_202\n        /* \"ExodusERC20Token/ERC20Permit.sol\":2712:2726  _nonces[owner] */\n      dup2\n        /* \"ExodusERC20Token/ERC20Permit.sol\":2746:2759  nonce.current */\n      tag_140\n        /* \"ExodusERC20Token/ERC20Permit.sol\":2746:2761  nonce.current() */\n      jump\t// in\n    tag_202:\n        /* \"ExodusERC20Token/ERC20Permit.sol\":2736:2761  current = nonce.current() */\n      swap2\n      pop\n        /* \"ExodusERC20Token/ERC20Permit.sol\":2771:2788  nonce.increment() */\n      tag_203\n        /* \"ExodusERC20Token/ERC20Permit.sol\":2771:2776  nonce */\n      dup2\n        /* \"ExodusERC20Token/ERC20Permit.sol\":2771:2786  nonce.increment */\n      tag_204\n        /* \"ExodusERC20Token/ERC20Permit.sol\":2771:2788  nonce.increment() */\n      jump\t// in\n    tag_203:\n        /* \"ExodusERC20Token/ERC20Permit.sol\":2592:2795  function _useNonce(address owner) internal virtual returns (uint256 current) {... */\n      pop\n      swap2\n      swap1\n      pop\n      jump\t// out\n        /* \"ExodusERC20Token/EIP712.sol\":4399:4564  function _hashTypedDataV4(bytes32 structHash) internal view virtual returns (bytes32) {... */\n    tag_155:\n        /* \"ExodusERC20Token/EIP712.sol\":4476:4483  bytes32 */\n      0x00\n        /* \"ExodusERC20Token/EIP712.sol\":4502:4557  ECDSA.toTypedDataHash(_domainSeparatorV4(), structHash) */\n      tag_139\n        /* \"ExodusERC20Token/EIP712.sol\":4524:4544  _domainSeparatorV4() */\n      tag_207\n        /* \"ExodusERC20Token/EIP712.sol\":4524:4542  _domainSeparatorV4 */\n      tag_104\n        /* \"ExodusERC20Token/EIP712.sol\":4524:4544  _domainSeparatorV4() */\n      jump\t// in\n    tag_207:\n        /* \"ExodusERC20Token/EIP712.sol\":4546:4556  structHash */\n      dup4\n        /* \"ExodusERC20Token/EIP712.sol\":4502:4523  ECDSA.toTypedDataHash */\n      tag_208\n        /* \"ExodusERC20Token/EIP712.sol\":4502:4557  ECDSA.toTypedDataHash(_domainSeparatorV4(), structHash) */\n      jump\t// in\n        /* \"ExodusERC20Token/ECDSA.sol\":7390:7660  function recover(... */\n    tag_157:\n        /* \"ExodusERC20Token/ECDSA.sol\":7513:7520  address */\n      0x00\n        /* \"ExodusERC20Token/ECDSA.sol\":7533:7550  address recovered */\n      dup1\n        /* \"ExodusERC20Token/ECDSA.sol\":7552:7570  RecoverError error */\n      0x00\n        /* \"ExodusERC20Token/ECDSA.sol\":7574:7599  tryRecover(hash, v, r, s) */\n      tag_210\n        /* \"ExodusERC20Token/ECDSA.sol\":7585:7589  hash */\n      dup8\n        /* \"ExodusERC20Token/ECDSA.sol\":7591:7592  v */\n      dup8\n        /* \"ExodusERC20Token/ECDSA.sol\":7594:7595  r */\n      dup8\n        /* \"ExodusERC20Token/ECDSA.sol\":7597:7598  s */\n      dup8\n        /* \"ExodusERC20Token/ECDSA.sol\":7574:7584  tryRecover */\n      tag_211\n        /* \"ExodusERC20Token/ECDSA.sol\":7574:7599  tryRecover(hash, v, r, s) */\n      jump\t// in\n    tag_210:\n        /* \"ExodusERC20Token/ECDSA.sol\":7532:7599  (address recovered, RecoverError error) = tryRecover(hash, v, r, s) */\n      swap2\n      pop\n      swap2\n      pop\n        /* \"ExodusERC20Token/ECDSA.sol\":7609:7627  _throwError(error) */\n      tag_212\n        /* \"ExodusERC20Token/ECDSA.sol\":7621:7626  error */\n      dup2\n        /* \"ExodusERC20Token/ECDSA.sol\":7609:7620  _throwError */\n      tag_213\n        /* \"ExodusERC20Token/ECDSA.sol\":7609:7627  _throwError(error) */\n      jump\t// in\n    tag_212:\n      pop\n        /* \"ExodusERC20Token/ECDSA.sol\":7644:7653  recovered */\n      swap6\n        /* \"ExodusERC20Token/ECDSA.sol\":7390:7660  function recover(... */\n      swap5\n      pop\n      pop\n      pop\n      pop\n      pop\n      jump\t// out\n        /* \"ExodusERC20Token/EIP712.sol\":3435:3774  function _buildDomainSeparator(... */\n    tag_181:\n        /* \"ExodusERC20Token/EIP712.sol\":3699:3766  abi.encode(typeHash, nameHash, versionHash, chainID, address(this)) */\n      0x40\n      dup1\n      mload\n      0x20\n      dup1\n      dup3\n      add\n      swap6\n      swap1\n      swap6\n      mstore\n      dup1\n      dup3\n      add\n      swap4\n      swap1\n      swap4\n      mstore\n      0x60\n      dup4\n      add\n      swap2\n      swap1\n      swap2\n      mstore\n        /* \"ExodusERC20Token/EIP712.sol\":3653:3662  chainid() */\n      chainid\n        /* \"ExodusERC20Token/EIP712.sol\":3699:3766  abi.encode(typeHash, nameHash, versionHash, chainID, address(this)) */\n      0x80\n      dup4\n      add\n      mstore\n        /* \"ExodusERC20Token/EIP712.sol\":3760:3764  this */\n      address\n        /* \"ExodusERC20Token/EIP712.sol\":3699:3766  abi.encode(typeHash, nameHash, versionHash, chainID, address(this)) */\n      0xa0\n      dup1\n      dup5\n      add\n      swap2\n      swap1\n      swap2\n      mstore\n      dup2\n      mload\n      dup1\n      dup5\n      sub\n      swap1\n      swap2\n      add\n      dup2\n      mstore\n      0xc0\n      swap1\n      swap3\n      add\n      swap1\n      mstore\n        /* \"ExodusERC20Token/EIP712.sol\":3689:3767  keccak256(abi.encode(typeHash, nameHash, versionHash, chainID, address(this))) */\n      dup1\n      mload\n      swap2\n      add\n      keccak256\n      swap1\n        /* \"ExodusERC20Token/EIP712.sol\":3435:3774  function _buildDomainSeparator(... */\n      jump\t// out\n        /* \"ExodusERC20Token/SafeMath.sol\":337:471  function sub(uint256 a, uint256 b) internal pure returns (uint256) {... */\n    tag_194:\n        /* \"ExodusERC20Token/SafeMath.sol\":395:402  uint256 */\n      0x00\n        /* \"ExodusERC20Token/SafeMath.sol\":421:464  sub(a, b, \"SafeMath: subtraction overflow\") */\n      tag_183\n        /* \"ExodusERC20Token/SafeMath.sol\":425:426  a */\n      dup4\n        /* \"ExodusERC20Token/SafeMath.sol\":428:429  b */\n      dup4\n        /* \"ExodusERC20Token/SafeMath.sol\":421:464  sub(a, b, \"SafeMath: subtraction overflow\") */\n      mload(0x40)\n      dup1\n      0x40\n      add\n      0x40\n      mstore\n      dup1\n      0x1e\n      dup2\n      mstore\n      0x20\n      add\n      0x536166654d6174683a207375627472616374696f6e206f766572666c6f770000\n      dup2\n      mstore\n      pop\n        /* \"ExodusERC20Token/SafeMath.sol\":421:424  sub */\n      tag_100\n        /* \"ExodusERC20Token/SafeMath.sol\":421:464  sub(a, b, \"SafeMath: subtraction overflow\") */\n      jump\t// in\n        /* \"ExodusERC20Token/Counters.sol\":642:820  function increment(Counter storage counter) internal {... */\n    tag_204:\n        /* \"ExodusERC20Token/Counters.sol\":794:813  counter._value += 1 */\n      dup1\n      sload\n        /* \"ExodusERC20Token/Counters.sol\":812:813  1 */\n      0x01\n        /* \"ExodusERC20Token/Counters.sol\":794:813  counter._value += 1 */\n      add\n      swap1\n      sstore\n        /* \"ExodusERC20Token/Counters.sol\":642:820  function increment(Counter storage counter) internal {... */\n      jump\t// out\n        /* \"ExodusERC20Token/ECDSA.sol\":8554:8748  function toTypedDataHash(bytes32 domainSeparator, bytes32 structHash) internal pure returns (bytes32) {... */\n    tag_208:\n        /* \"ExodusERC20Token/ECDSA.sol\":8683:8740  abi.encodePacked(\"\\x19\\x01\", domainSeparator, structHash) */\n      0x40\n      dup1\n      mload\n      0x1901000000000000000000000000000000000000000000000000000000000000\n      0x20\n      dup1\n      dup4\n      add\n      swap2\n      swap1\n      swap2\n      mstore\n      0x22\n      dup3\n      add\n      swap5\n      swap1\n      swap5\n      mstore\n      0x42\n      dup1\n      dup3\n      add\n      swap4\n      swap1\n      swap4\n      mstore\n      dup2\n      mload\n      dup1\n      dup3\n      sub\n      swap1\n      swap4\n      add\n      dup4\n      mstore\n      0x62\n      add\n      swap1\n      mstore\n        /* \"ExodusERC20Token/ECDSA.sol\":8673:8741  keccak256(abi.encodePacked(\"\\x19\\x01\", domainSeparator, structHash)) */\n      dup1\n      mload\n      swap2\n      add\n      keccak256\n      swap1\n        /* \"ExodusERC20Token/ECDSA.sol\":8554:8748  function toTypedDataHash(bytes32 domainSeparator, bytes32 structHash) internal pure returns (bytes32) {... */\n      jump\t// out\n        /* \"ExodusERC20Token/ECDSA.sol\":5654:7257  function tryRecover(... */\n    tag_211:\n        /* \"ExodusERC20Token/ECDSA.sol\":5780:5787  address */\n      0x00\n      dup1\n        /* \"ExodusERC20Token/ECDSA.sol\":6704:6770  0x7FFFFFFFFFFFFFFFFFFFFFFFFFFFFFFF5D576E7357A4501DDFE92F46681B20A0 */\n      0x7fffffffffffffffffffffffffffffff5d576e7357a4501ddfe92f46681b20a0\n        /* \"ExodusERC20Token/ECDSA.sol\":6691:6770  uint256(s) > 0x7FFFFFFFFFFFFFFFFFFFFFFFFFFFFFFF5D576E7357A4501DDFE92F46681B20A0 */\n      dup4\n      gt\n        /* \"ExodusERC20Token/ECDSA.sol\":6687:6848  if (uint256(s) > 0x7FFFFFFFFFFFFFFFFFFFFFFFFFFFFFFF5D576E7357A4501DDFE92F46681B20A0) {... */\n      iszero\n      tag_221\n      jumpi\n      pop\n        /* \"ExodusERC20Token/ECDSA.sol\":6802:6803  0 */\n      0x00\n      swap1\n      pop\n        /* \"ExodusERC20Token/ECDSA.sol\":6806:6836  RecoverError.InvalidSignatureS */\n      0x03\n        /* \"ExodusERC20Token/ECDSA.sol\":6786:6837  return (address(0), RecoverError.InvalidSignatureS) */\n      jump(tag_220)\n        /* \"ExodusERC20Token/ECDSA.sol\":6687:6848  if (uint256(s) > 0x7FFFFFFFFFFFFFFFFFFFFFFFFFFFFFFF5D576E7357A4501DDFE92F46681B20A0) {... */\n    tag_221:\n        /* \"ExodusERC20Token/ECDSA.sol\":6861:6862  v */\n      dup5\n        /* \"ExodusERC20Token/ECDSA.sol\":6861:6868  v != 27 */\n      0xff\n      and\n        /* \"ExodusERC20Token/ECDSA.sol\":6866:6868  27 */\n      0x1b\n        /* \"ExodusERC20Token/ECDSA.sol\":6861:6868  v != 27 */\n      eq\n      iszero\n        /* \"ExodusERC20Token/ECDSA.sol\":6861:6879  v != 27 && v != 28 */\n      dup1\n      iszero\n      tag_222\n      jumpi\n      pop\n        /* \"ExodusERC20Token/ECDSA.sol\":6872:6873  v */\n      dup5\n        /* \"ExodusERC20Token/ECDSA.sol\":6872:6879  v != 28 */\n      0xff\n      and\n        /* \"ExodusERC20Token/ECDSA.sol\":6877:6879  28 */\n      0x1c\n        /* \"ExodusERC20Token/ECDSA.sol\":6872:6879  v != 28 */\n      eq\n      iszero\n        /* \"ExodusERC20Token/ECDSA.sol\":6861:6879  v != 27 && v != 28 */\n    tag_222:\n        /* \"ExodusERC20Token/ECDSA.sol\":6857:6957  if (v != 27 && v != 28) {... */\n      iszero\n      tag_223\n      jumpi\n      pop\n        /* \"ExodusERC20Token/ECDSA.sol\":6911:6912  0 */\n      0x00\n      swap1\n      pop\n        /* \"ExodusERC20Token/ECDSA.sol\":6915:6945  RecoverError.InvalidSignatureV */\n      0x04\n        /* \"ExodusERC20Token/ECDSA.sol\":6895:6946  return (address(0), RecoverError.InvalidSignatureV) */\n      jump(tag_220)\n        /* \"ExodusERC20Token/ECDSA.sol\":6857:6957  if (v != 27 && v != 28) {... */\n    tag_223:\n        /* \"ExodusERC20Token/ECDSA.sol\":7051:7065  address signer */\n      0x00\n        /* \"ExodusERC20Token/ECDSA.sol\":7068:7092  ecrecover(hash, v, r, s) */\n      0x01\n        /* \"ExodusERC20Token/ECDSA.sol\":7078:7082  hash */\n      dup8\n        /* \"ExodusERC20Token/ECDSA.sol\":7084:7085  v */\n      dup8\n        /* \"ExodusERC20Token/ECDSA.sol\":7087:7088  r */\n      dup8\n        /* \"ExodusERC20Token/ECDSA.sol\":7090:7091  s */\n      dup8\n        /* \"ExodusERC20Token/ECDSA.sol\":7068:7092  ecrecover(hash, v, r, s) */\n      mload(0x40)\n      0x00\n      dup2\n      mstore\n      0x20\n      add\n      0x40\n      mstore\n      mload(0x40)\n      dup1\n      dup6\n      dup2\n      mstore\n      0x20\n      add\n      dup5\n      0xff\n      and\n      dup2\n      mstore\n      0x20\n      add\n      dup4\n      dup2\n      mstore\n      0x20\n      add\n      dup3\n      dup2\n      mstore\n      0x20\n      add\n      swap5\n      pop\n      pop\n      pop\n      pop\n      pop\n      0x20\n      mload(0x40)\n      0x20\n      dup2\n      sub\n      swap1\n      dup1\n      dup5\n      sub\n      swap1\n      dup6\n      gas\n      staticcall\n      iszero\n      dup1\n      iszero\n      tag_225\n      jumpi\n      returndatasize\n      0x00\n      dup1\n      returndatacopy\n      revert(0x00, returndatasize)\n    tag_225:\n      pop\n      pop\n      mload(add(not(0x1f), mload(0x40)))\n      swap2\n      pop\n      pop\n      sub(shl(0xa0, 0x01), 0x01)\n        /* \"ExodusERC20Token/ECDSA.sol\":7106:7126  signer == address(0) */\n      dup2\n      and\n        /* \"ExodusERC20Token/ECDSA.sol\":7102:7203  if (signer == address(0)) {... */\n      tag_226\n      jumpi\n        /* \"ExodusERC20Token/ECDSA.sol\":7158:7159  0 */\n      0x00\n        /* \"ExodusERC20Token/ECDSA.sol\":7162:7191  RecoverError.InvalidSignature */\n      0x01\n        /* \"ExodusERC20Token/ECDSA.sol\":7142:7192  return (address(0), RecoverError.InvalidSignature) */\n      swap3\n      pop\n      swap3\n      pop\n      pop\n      jump(tag_220)\n        /* \"ExodusERC20Token/ECDSA.sol\":7102:7203  if (signer == address(0)) {... */\n    tag_226:\n        /* \"ExodusERC20Token/ECDSA.sol\":7221:7227  signer */\n      swap2\n      pop\n        /* \"ExodusERC20Token/ECDSA.sol\":7229:7249  RecoverError.NoError */\n      0x00\n      swap1\n      pop\n        /* \"ExodusERC20Token/ECDSA.sol\":5654:7257  function tryRecover(... */\n    tag_220:\n      swap5\n      pop\n      swap5\n      swap3\n      pop\n      pop\n      pop\n      jump\t// out\n        /* \"ExodusERC20Token/ECDSA.sol\":443:1074  function _throwError(RecoverError error) private pure {... */\n    tag_213:\n        /* \"ExodusERC20Token/ECDSA.sol\":520:540  RecoverError.NoError */\n      0x00\n        /* \"ExodusERC20Token/ECDSA.sol\":511:516  error */\n      dup2\n        /* \"ExodusERC20Token/ECDSA.sol\":511:540  error == RecoverError.NoError */\n      0x04\n      dup2\n      gt\n      iszero\n      tag_229\n      jumpi\n      invalid\n    tag_229:\n      eq\n        /* \"ExodusERC20Token/ECDSA.sol\":507:1068  if (error == RecoverError.NoError) {... */\n      iszero\n      tag_230\n      jumpi\n        /* \"ExodusERC20Token/ECDSA.sol\":556:563  return; */\n      jump(tag_122)\n        /* \"ExodusERC20Token/ECDSA.sol\":507:1068  if (error == RecoverError.NoError) {... */\n    tag_230:\n        /* \"ExodusERC20Token/ECDSA.sol\":616:645  RecoverError.InvalidSignature */\n      0x01\n        /* \"ExodusERC20Token/ECDSA.sol\":607:612  error */\n      dup2\n        /* \"ExodusERC20Token/ECDSA.sol\":607:645  error == RecoverError.InvalidSignature */\n      0x04\n      dup2\n      gt\n      iszero\n      tag_233\n      jumpi\n      invalid\n    tag_233:\n      eq\n        /* \"ExodusERC20Token/ECDSA.sol\":603:1068  if (error == RecoverError.InvalidSignature) {... */\n      iszero\n      tag_234\n      jumpi\n        /* \"ExodusERC20Token/ECDSA.sol\":661:695  revert(\"ECDSA: invalid signature\") */\n      0x40\n      dup1\n      mload\n      shl(0xe5, 0x461bcd)\n      dup2\n      mstore\n      0x20\n      0x04\n      dup3\n      add\n      mstore\n      0x18\n      0x24\n      dup3\n      add\n      mstore\n      0x45434453413a20696e76616c6964207369676e61747572650000000000000000\n      0x44\n      dup3\n      add\n      mstore\n      swap1\n      mload\n      swap1\n      dup2\n      swap1\n      sub\n      0x64\n      add\n      swap1\n      revert\n        /* \"ExodusERC20Token/ECDSA.sol\":603:1068  if (error == RecoverError.InvalidSignature) {... */\n    tag_234:\n        /* \"ExodusERC20Token/ECDSA.sol\":725:760  RecoverError.InvalidSignatureLength */\n      0x02\n        /* \"ExodusERC20Token/ECDSA.sol\":716:721  error */\n      dup2\n        /* \"ExodusERC20Token/ECDSA.sol\":716:760  error == RecoverError.InvalidSignatureLength */\n      0x04\n      dup2\n      gt\n      iszero\n      tag_237\n      jumpi\n      invalid\n    tag_237:\n      eq\n        /* \"ExodusERC20Token/ECDSA.sol\":712:1068  if (error == RecoverError.InvalidSignatureLength) {... */\n      iszero\n      tag_238\n      jumpi\n        /* \"ExodusERC20Token/ECDSA.sol\":776:817  revert(\"ECDSA: invalid signature length\") */\n      0x40\n      dup1\n      mload\n      shl(0xe5, 0x461bcd)\n      dup2\n      mstore\n      0x20\n      0x04\n      dup3\n      add\n      mstore\n      0x1f\n      0x24\n      dup3\n      add\n      mstore\n      0x45434453413a20696e76616c6964207369676e6174757265206c656e67746800\n      0x44\n      dup3\n      add\n      mstore\n      swap1\n      mload\n      swap1\n      dup2\n      swap1\n      sub\n      0x64\n      add\n      swap1\n      revert\n        /* \"ExodusERC20Token/ECDSA.sol\":712:1068  if (error == RecoverError.InvalidSignatureLength) {... */\n    tag_238:\n        /* \"ExodusERC20Token/ECDSA.sol\":847:877  RecoverError.InvalidSignatureS */\n      0x03\n        /* \"ExodusERC20Token/ECDSA.sol\":838:843  error */\n      dup2\n        /* \"ExodusERC20Token/ECDSA.sol\":838:877  error == RecoverError.InvalidSignatureS */\n      0x04\n      dup2\n      gt\n      iszero\n      tag_241\n      jumpi\n      invalid\n    tag_241:\n      eq\n        /* \"ExodusERC20Token/ECDSA.sol\":834:1068  if (error == RecoverError.InvalidSignatureS) {... */\n      iszero\n      tag_242\n      jumpi\n        /* \"ExodusERC20Token/ECDSA.sol\":893:937  revert(\"ECDSA: invalid signature 's' value\") */\n      mload(0x40)\n      shl(0xe5, 0x461bcd)\n      dup2\n      mstore\n      0x04\n      add\n      dup1\n      dup1\n      0x20\n      add\n      dup3\n      dup2\n      sub\n      dup3\n      mstore\n      0x22\n      dup2\n      mstore\n      0x20\n      add\n      dup1\n      data_520d1f787dbcafbbfc007fd2c4ecf3d2711ec587f3ee9a1215c0b646c3e530bd\n      0x22\n      swap2\n      codecopy\n      0x40\n      add\n      swap2\n      pop\n      pop\n      mload(0x40)\n      dup1\n      swap2\n      sub\n      swap1\n      revert\n        /* \"ExodusERC20Token/ECDSA.sol\":834:1068  if (error == RecoverError.InvalidSignatureS) {... */\n    tag_242:\n        /* \"ExodusERC20Token/ECDSA.sol\":967:997  RecoverError.InvalidSignatureV */\n      0x04\n        /* \"ExodusERC20Token/ECDSA.sol\":958:963  error */\n      dup2\n        /* \"ExodusERC20Token/ECDSA.sol\":958:997  error == RecoverError.InvalidSignatureV */\n      0x04\n      dup2\n      gt\n      iszero\n      tag_245\n      jumpi\n      invalid\n    tag_245:\n      eq\n        /* \"ExodusERC20Token/ECDSA.sol\":954:1068  if (error == RecoverError.InvalidSignatureV) {... */\n      iszero\n      tag_122\n      jumpi\n        /* \"ExodusERC20Token/ECDSA.sol\":1013:1057  revert(\"ECDSA: invalid signature 'v' value\") */\n      mload(0x40)\n      shl(0xe5, 0x461bcd)\n      dup2\n      mstore\n      0x04\n      add\n      dup1\n      dup1\n      0x20\n      add\n      dup3\n      dup2\n      sub\n      dup3\n      mstore\n      0x22\n      dup2\n      mstore\n      0x20\n      add\n      dup1\n      data_8522ee1b53216f595394db8e80a64d9e7d9bd512c0811c18debe9f40858597e4\n      0x22\n      swap2\n      codecopy\n      0x40\n      add\n      swap2\n      pop\n      pop\n      mload(0x40)\n      dup1\n      swap2\n      sub\n      swap1\n      revert\n    stop\n    data_0557e210f7a69a685100a7e4e3d0a7024c546085cee28910fd17d0b081d9516f 45524332303a207472616e7366657220746f20746865207a65726f2061646472657373\n    data_149b126e7125232b4200af45303d04fba8b74653b1a295a6a561a528c33fefdd 45524332303a206275726e20616d6f756e7420657863656564732062616c616e6365\n    data_24883cc5fe64ace9d0df1893501ecb93c77180f0ff69cca79affb3c316dc8029 45524332303a20617070726f766520746f20746865207a65726f2061646472657373\n    data_4107e8a8b9e94bf8ff83080ddec1c0bffe897ebc2241b89d44f66b3d274088b6 45524332303a207472616e7366657220616d6f756e7420657863656564732062616c616e6365\n    data_520d1f787dbcafbbfc007fd2c4ecf3d2711ec587f3ee9a1215c0b646c3e530bd 45434453413a20696e76616c6964207369676e6174757265202773272076616c7565\n    data_8522ee1b53216f595394db8e80a64d9e7d9bd512c0811c18debe9f40858597e4 45434453413a20696e76616c6964207369676e6174757265202776272076616c7565\n    data_974d1b4421da69cc60b481194f0dad36a5bb4e23da810da7a7fb30cdba178330 45524332303a207472616e7366657220616d6f756e74206578636565647320616c6c6f77616e6365\n    data_a287c363786607a1457a2d9d12fa61c0073358e02d76b4035fc2c2d86a19c0db 45524332303a206275726e20616d6f756e74206578636565647320616c6c6f77616e6365\n    data_b16788493b576042bb52c50ed56189e0b250db113c7bfb1c3897d25cf9632d7f 45524332303a206275726e2066726f6d20746865207a65726f2061646472657373\n    data_baecc556b46f4ed0f2b4cb599d60785ac8563dd2dc0a5bf12edea1c39e5e1fea 45524332303a207472616e736665722066726f6d20746865207a65726f2061646472657373\n    data_c953f4879035ed60e766b34720f656aab5c697b141d924c283124ecedb91c208 45524332303a20617070726f76652066726f6d20746865207a65726f2061646472657373\n    data_f8b476f7d28209d77d4a4ac1fe36b9f8259aa1bb6bddfa6e89de7e51615cf8a8 45524332303a2064656372656173656420616c6c6f77616e63652062656c6f77207a65726f\n\n    auxdata: 0xa2646970667358221220a9925a2003707a9b92a6cd44b17125a2eee1d938be679d9b58ce987133c74aa864736f6c63430007050033\n}\n",
				"bytecode": {
					"linkReferences": {},
					"object": "7f6e71edae12b1b97f4d1f60370fef10105fa2faae0126114a169c64845d6126c9610140526101a0604052600c6101608190526b15539055551213d49256915160a21b61018090815262000057916006919062000242565b503480156200006557600080fd5b5060405162001a9638038062001a96833981810160405260208110156200008b57600080fd5b505160408051808201825260068082526545786f64757360d01b60208381018290528451808601865260018152603160f81b8183015285518087018752938452838201928352855180870190965260038087526245584f60e81b928701929092528351879686959294929390926009926200010892919062000242565b5081516200011e90600490602085019062000242565b5060f81b7fff00000000000000000000000000000000000000000000000000000000000000166080525050815160208084019190912082519183019190912060e08290526101008190524660c081905291907f8b73c3c69bb8fe3d512ecc4cf759cc79239f7b179b0ffacaa9a75d522b39400f6200019e818484620001fd565b60a052610120525050600780546001600160a01b0319166001600160a01b0387169081179091556040519094507f2f658b440c35314f52658ea8a740e05b284cdc84dc9ae01e891f21b8933e7cad9350600092509050a25050620002ee565b604080516020808201959095528082019390935260608301919091524660808301523060a0808401919091528151808403909101815260c09092019052805191012090565b828054600181600116156101000203166002900490600052602060002090601f0160209004810192826200027a5760008555620002c5565b82601f106200029557805160ff1916838001178555620002c5565b82800160010185558215620002c5579182015b82811115620002c5578251825591602001919060010190620002a8565b50620002d3929150620002d7565b5090565b5b80821115620002d35760008155600101620002d8565b60805160f81c60a05160c05160e0516101005161012051610140516117516200034560003980610a26525080610eab525080610eed525080610ecc525080610e57525080610e7f5250806105bf52506117516000f3fe608060405234801561001057600080fd5b50600436106101515760003560e01c806370a08231116100cd578063a457c2d711610081578063bf7e214f11610066578063bf7e214f146103fe578063d505accf14610422578063dd62ed3e1461047357610151565b8063a457c2d7146103a6578063a9059cbb146103d257610151565b80637a9e5e4b116100b25780637a9e5e4b146103525780637ecebe001461037857806395d89b411461039e57610151565b806370a082311461030057806379cc67901461032657610151565b8063313ce567116101245780633950935111610109578063395093511461028957806340c10f19146102b557806342966c68146102e357610151565b8063313ce567146102635780633644e5151461028157610151565b806306fdde0314610156578063095ea7b3146101d357806318160ddd1461021357806323b872dd1461022d575b600080fd5b61015e6104a1565b6040805160208082528351818301528351919283929083019185019080838360005b83811015610198578181015183820152602001610180565b50505050905090810190601f1680156101c55780820380516001836020036101000a031916815260200191505b509250505060405180910390f35b6101ff600480360360408110156101e957600080fd5b506001600160a01b038135169060200135610538565b604080519115158252519081900360200190f35b61021b61054e565b60408051918252519081900360200190f35b6101ff6004803603606081101561024357600080fd5b506001600160a01b03813581169160208101359091169060400135610554565b61026b6105bd565b6040805160ff9092168252519081900360200190f35b61021b6105e1565b6101ff6004803603604081101561029f57600080fd5b506001600160a01b0381351690602001356105f0565b6102e1600480360360408110156102cb57600080fd5b506001600160a01b038135169060200135610626565b005b6102e1600480360360208110156102f957600080fd5b503561075a565b61021b6004803603602081101561031657600080fd5b50356001600160a01b0316610767565b6102e16004803603604081101561033c57600080fd5b506001600160a01b038135169060200135610782565b6102e16004803603602081101561036857600080fd5b50356001600160a01b031661078c565b61021b6004803603602081101561038e57600080fd5b50356001600160a01b03166108da565b61015e610901565b6101ff600480360360408110156103bc57600080fd5b506001600160a01b038135169060200135610962565b6101ff600480360360408110156103e857600080fd5b506001600160a01b0381351690602001356109b1565b6104066109be565b604080516001600160a01b039092168252519081900360200190f35b6102e1600480360360e081101561043857600080fd5b506001600160a01b03813581169160208101359091169060408101359060608101359060ff6080820135169060a08101359060c001356109cd565b61021b6004803603604081101561048957600080fd5b506001600160a01b0381358116916020013516610b49565b60038054604080516020601f600260001961010060018816150201909516949094049384018190048102820181019092528281526060939092909183018282801561052d5780601f106105025761010080835404028352916020019161052d565b820191906000526020600020905b81548152906001019060200180831161051057829003601f168201915b505050505090505b90565b6000610545338484610b74565b50600192915050565b60025490565b6000610561848484610c60565b6105b384336105ae85604051806060016040528060288152602001611641602891396001600160a01b038a1660009081526001602090815260408083203384529091529020549190610dbb565b610b74565b5060019392505050565b7f000000000000000000000000000000000000000000000000000000000000000090565b60006105eb610e52565b905090565b3360008181526001602090815260408083206001600160a01b038716845290915281205490916105459185906105ae9086610f19565b600760009054906101000a90046001600160a01b03166001600160a01b031663fbfa77cf6040518163ffffffff1660e01b815260040160206040518083038186803b15801561067457600080fd5b505afa158015610688573d6000803e3d6000fd5b505050506040513d602081101561069e57600080fd5b50516006906001600160a01b0316331461074b5760405162461bcd60e51b815260206004820190815282546002600019610100600184161502019091160460248301819052909182916044909101908490801561073c5780601f106107115761010080835404028352916020019161073c565b820191906000526020600020905b81548152906001019060200180831161071f57829003601f168201915b50509250505060405180910390fd5b506107568282610f7a565b5050565b610764338261106a565b50565b6001600160a01b031660009081526020819052604090205490565b6107568282611166565b600760009054906101000a90046001600160a01b03166001600160a01b0316630c340a246040518163ffffffff1660e01b815260040160206040518083038186803b1580156107da57600080fd5b505afa1580156107ee573d6000803e3d6000fd5b505050506040513d602081101561080457600080fd5b50516006906001600160a01b031633146108775760405162461bcd60e51b815260206004820190815282546002600019610100600184161502019091160460248301819052909182916044909101908490801561073c5780601f106107115761010080835404028352916020019161073c565b50600780547fffffffffffffffffffffffff0000000000000000000000000000000000000000166001600160a01b0383169081179091556040517f2f658b440c35314f52658ea8a740e05b284cdc84dc9ae01e891f21b8933e7cad90600090a250565b6001600160a01b03811660009081526005602052604081206108fb906111b2565b92915050565b60048054604080516020601f600260001961010060018816150201909516949094049384018190048102820181019092528281526060939092909183018282801561052d5780601f106105025761010080835404028352916020019161052d565b600061054533846105ae856040518060600160405280602581526020016116f7602591393360009081526001602090815260408083206001600160a01b038d1684529091529020549190610dbb565b6000610545338484610c60565b6007546001600160a01b031681565b83421115610a22576040805162461bcd60e51b815260206004820152601d60248201527f45524332305065726d69743a206578706972656420646561646c696e65000000604482015290519081900360640190fd5b60007f0000000000000000000000000000000000000000000000000000000000000000888888610a518c6111b6565b8960405160200180878152602001866001600160a01b03168152602001856001600160a01b0316815260200184815260200183815260200182815260200196505050505050506040516020818303038152906040528051906020012090506000610aba826111e8565b90506000610aca828787876111fb565b9050896001600160a01b0316816001600160a01b031614610b32576040805162461bcd60e51b815260206004820152601e60248201527f45524332305065726d69743a20696e76616c6964207369676e61747572650000604482015290519081900360640190fd5b610b3d8a8a8a610b74565b50505050505050505050565b6001600160a01b03918216600090815260016020908152604080832093909416825291909152205490565b6001600160a01b038316610bb95760405162461bcd60e51b81526004018080602001828103825260248152602001806116d36024913960400191505060405180910390fd5b6001600160a01b038216610bfe5760405162461bcd60e51b81526004018080602001828103825260228152602001806115b56022913960400191505060405180910390fd5b6001600160a01b03808416600081815260016020908152604080832094871680845294825291829020859055815185815291517f8c5be1e5ebec7d5bd14f71427d1e84f3dd0314c0f7b2291e5b200ac8c7c3b9259281900390910190a3505050565b6001600160a01b038316610ca55760405162461bcd60e51b81526004018080602001828103825260258152602001806116ae6025913960400191505060405180910390fd5b6001600160a01b038216610cea5760405162461bcd60e51b81526004018080602001828103825260238152602001806115706023913960400191505060405180910390fd5b610cf58383836111ad565b610d32816040518060600160405280602681526020016115d7602691396001600160a01b0386166000908152602081905260409020549190610dbb565b6001600160a01b038085166000908152602081905260408082209390935590841681522054610d619082610f19565b6001600160a01b038084166000818152602081815260409182902094909455805185815290519193928716927fddf252ad1be2c89b69c2b068fc378daa952ba7f163c4a11628f55a4df523b3ef92918290030190a3505050565b60008184841115610e4a5760405162461bcd60e51b81526004018080602001828103825283818151815260200191508051906020019080838360005b83811015610e0f578181015183820152602001610df7565b50505050905090810190601f168015610e3c5780820380516001836020036101000a031916815260200191505b509250505060405180910390fd5b505050900390565b6000467f0000000000000000000000000000000000000000000000000000000000000000811415610ea6577f0000000000000000000000000000000000000000000000000000000000000000915050610535565b610f117f00000000000000000000000000000000000000000000000000000000000000007f00000000000000000000000000000000000000000000000000000000000000007f0000000000000000000000000000000000000000000000000000000000000000611223565b915050610535565b600082820183811015610f73576040805162461bcd60e51b815260206004820152601b60248201527f536166654d6174683a206164646974696f6e206f766572666c6f770000000000604482015290519081900360640190fd5b9392505050565b6001600160a01b038216610fd5576040805162461bcd60e51b815260206004820152601f60248201527f45524332303a206d696e7420746f20746865207a65726f206164647265737300604482015290519081900360640190fd5b610fe1600083836111ad565b600254610fee9082610f19565b6002556001600160a01b0382166000908152602081905260409020546110149082610f19565b6001600160a01b0383166000818152602081815260408083209490945583518581529351929391927fddf252ad1be2c89b69c2b068fc378daa952ba7f163c4a11628f55a4df523b3ef9281900390910190a35050565b6001600160a01b0382166110af5760405162461bcd60e51b815260040180806020018281038252602181526020018061168d6021913960400191505060405180910390fd5b6110bb826000836111ad565b6110f881604051806060016040528060228152602001611593602291396001600160a01b0385166000908152602081905260409020549190610dbb565b6001600160a01b03831660009081526020819052604090205560025461111e9082611268565b6002556040805182815290516000916001600160a01b038516917fddf252ad1be2c89b69c2b068fc378daa952ba7f163c4a11628f55a4df523b3ef9181900360200190a35050565b6000611196826040518060600160405280602481526020016116696024913961118f8633610b49565b9190610dbb565b90506111a3833383610b74565b6111ad838361106a565b505050565b5490565b6001600160a01b03811660009081526005602052604081206111d7816111b2565b91506111e2816112aa565b50919050565b60006108fb6111f5610e52565b836112b3565b600080600061120c87878787611309565b91509150611219816113fe565b5095945050505050565b604080516020808201959095528082019390935260608301919091524660808301523060a0808401919091528151808403909101815260c09092019052805191012090565b6000610f7383836040518060400160405280601e81526020017f536166654d6174683a207375627472616374696f6e206f766572666c6f770000815250610dbb565b80546001019055565b604080517f19010000000000000000000000000000000000000000000000000000000000006020808301919091526022820194909452604280820193909352815180820390930183526062019052805191012090565b6000807f7fffffffffffffffffffffffffffffff5d576e7357a4501ddfe92f46681b20a083111561134057506000905060036113f5565b8460ff16601b1415801561135857508460ff16601c14155b1561136957506000905060046113f5565b600060018787878760405160008152602001604052604051808581526020018460ff1681526020018381526020018281526020019450505050506020604051602081039080840390855afa1580156113c5573d6000803e3d6000fd5b5050604051601f1901519150506001600160a01b0381166113ee576000600192509250506113f5565b9150600090505b94509492505050565b600081600481111561140c57fe5b141561141757610764565b600181600481111561142557fe5b1415611478576040805162461bcd60e51b815260206004820152601860248201527f45434453413a20696e76616c6964207369676e61747572650000000000000000604482015290519081900360640190fd5b600281600481111561148657fe5b14156114d9576040805162461bcd60e51b815260206004820152601f60248201527f45434453413a20696e76616c6964207369676e6174757265206c656e67746800604482015290519081900360640190fd5b60038160048111156114e757fe5b14156115245760405162461bcd60e51b81526004018080602001828103825260228152602001806115fd6022913960400191505060405180910390fd5b600481600481111561153257fe5b14156107645760405162461bcd60e51b815260040180806020018281038252602281526020018061161f6022913960400191505060405180910390fdfe45524332303a207472616e7366657220746f20746865207a65726f206164647265737345524332303a206275726e20616d6f756e7420657863656564732062616c616e636545524332303a20617070726f766520746f20746865207a65726f206164647265737345524332303a207472616e7366657220616d6f756e7420657863656564732062616c616e636545434453413a20696e76616c6964207369676e6174757265202773272076616c756545434453413a20696e76616c6964207369676e6174757265202776272076616c756545524332303a207472616e7366657220616d6f756e74206578636565647320616c6c6f77616e636545524332303a206275726e20616d6f756e74206578636565647320616c6c6f77616e636545524332303a206275726e2066726f6d20746865207a65726f206164647265737345524332303a207472616e736665722066726f6d20746865207a65726f206164647265737345524332303a20617070726f76652066726f6d20746865207a65726f206164647265737345524332303a2064656372656173656420616c6c6f77616e63652062656c6f77207a65726fa2646970667358221220a9925a2003707a9b92a6cd44b17125a2eee1d938be679d9b58ce987133c74aa864736f6c63430007050033",
					"opcodes": "PUSH32 0x6E71EDAE12B1B97F4D1F60370FEF10105FA2FAAE0126114A169C64845D6126C9 PUSH2 0x140 MSTORE PUSH2 0x1A0 PUSH1 0x40 MSTORE PUSH1 0xC PUSH2 0x160 DUP2 SWAP1 MSTORE PUSH12 0x15539055551213D492569151 PUSH1 0xA2 SHL PUSH2 0x180 SWAP1 DUP2 MSTORE PUSH3 0x57 SWAP2 PUSH1 0x6 SWAP2 SWAP1 PUSH3 0x242 JUMP JUMPDEST POP CALLVALUE DUP1 ISZERO PUSH3 0x65 JUMPI PUSH1 0x0 DUP1 REVERT JUMPDEST POP PUSH1 0x40 MLOAD PUSH3 0x1A96 CODESIZE SUB DUP1 PUSH3 0x1A96 DUP4 CODECOPY DUP2 DUP2 ADD PUSH1 0x40 MSTORE PUSH1 0x20 DUP2 LT ISZERO PUSH3 0x8B JUMPI PUSH1 0x0 DUP1 REVERT JUMPDEST POP MLOAD PUSH1 0x40 DUP1 MLOAD DUP1 DUP3 ADD DUP3 MSTORE PUSH1 0x6 DUP1 DUP3 MSTORE PUSH6 0x45786F647573 PUSH1 0xD0 SHL PUSH1 0x20 DUP4 DUP2 ADD DUP3 SWAP1 MSTORE DUP5 MLOAD DUP1 DUP7 ADD DUP7 MSTORE PUSH1 0x1 DUP2 MSTORE PUSH1 0x31 PUSH1 0xF8 SHL DUP2 DUP4 ADD MSTORE DUP6 MLOAD DUP1 DUP8 ADD DUP8 MSTORE SWAP4 DUP5 MSTORE DUP4 DUP3 ADD SWAP3 DUP4 MSTORE DUP6 MLOAD DUP1 DUP8 ADD SWAP1 SWAP7 MSTORE PUSH1 0x3 DUP1 DUP8 MSTORE PUSH3 0x45584F PUSH1 0xE8 SHL SWAP3 DUP8 ADD SWAP3 SWAP1 SWAP3 MSTORE DUP4 MLOAD DUP8 SWAP7 DUP7 SWAP6 SWAP3 SWAP5 SWAP3 SWAP4 SWAP1 SWAP3 PUSH1 0x9 SWAP3 PUSH3 0x108 SWAP3 SWAP2 SWAP1 PUSH3 0x242 JUMP JUMPDEST POP DUP2 MLOAD PUSH3 0x11E SWAP1 PUSH1 0x4 SWAP1 PUSH1 0x20 DUP6 ADD SWAP1 PUSH3 0x242 JUMP JUMPDEST POP PUSH1 0xF8 SHL PUSH32 0xFF00000000000000000000000000000000000000000000000000000000000000 AND PUSH1 0x80 MSTORE POP POP DUP2 MLOAD PUSH1 0x20 DUP1 DUP5 ADD SWAP2 SWAP1 SWAP2 KECCAK256 DUP3 MLOAD SWAP2 DUP4 ADD SWAP2 SWAP1 SWAP2 KECCAK256 PUSH1 0xE0 DUP3 SWAP1 MSTORE PUSH2 0x100 DUP2 SWAP1 MSTORE CHAINID PUSH1 0xC0 DUP2 SWAP1 MSTORE SWAP2 SWAP1 PUSH32 0x8B73C3C69BB8FE3D512ECC4CF759CC79239F7B179B0FFACAA9A75D522B39400F PUSH3 0x19E DUP2 DUP5 DUP5 PUSH3 0x1FD JUMP JUMPDEST PUSH1 0xA0 MSTORE PUSH2 0x120 MSTORE POP POP PUSH1 0x7 DUP1 SLOAD PUSH1 0x1 PUSH1 0x1 PUSH1 0xA0 SHL SUB NOT AND PUSH1 0x1 PUSH1 0x1 PUSH1 0xA0 SHL SUB DUP8 AND SWAP1 DUP2 OR SWAP1 SWAP2 SSTORE PUSH1 0x40 MLOAD SWAP1 SWAP5 POP PUSH32 0x2F658B440C35314F52658EA8A740E05B284CDC84DC9AE01E891F21B8933E7CAD SWAP4 POP PUSH1 0x0 SWAP3 POP SWAP1 POP LOG2 POP POP PUSH3 0x2EE JUMP JUMPDEST PUSH1 0x40 DUP1 MLOAD PUSH1 0x20 DUP1 DUP3 ADD SWAP6 SWAP1 SWAP6 MSTORE DUP1 DUP3 ADD SWAP4 SWAP1 SWAP4 MSTORE PUSH1 0x60 DUP4 ADD SWAP2 SWAP1 SWAP2 MSTORE CHAINID PUSH1 0x80 DUP4 ADD MSTORE ADDRESS PUSH1 0xA0 DUP1 DUP5 ADD SWAP2 SWAP1 SWAP2 MSTORE DUP2 MLOAD DUP1 DUP5 SUB SWAP1 SWAP2 ADD DUP2 MSTORE PUSH1 0xC0 SWAP1 SWAP3 ADD SWAP1 MSTORE DUP1 MLOAD SWAP2 ADD KECCAK256 SWAP1 JUMP JUMPDEST DUP3 DUP1 SLOAD PUSH1 0x1 DUP2 PUSH1 0x1 AND ISZERO PUSH2 0x100 MUL SUB AND PUSH1 0x2 SWAP1 DIV SWAP1 PUSH1 0x0 MSTORE PUSH1 0x20 PUSH1 0x0 KECCAK256 SWAP1 PUSH1 0x1F ADD PUSH1 0x20 SWAP1 DIV DUP2 ADD SWAP3 DUP3 PUSH3 0x27A JUMPI PUSH1 0x0 DUP6 SSTORE PUSH3 0x2C5 JUMP JUMPDEST DUP3 PUSH1 0x1F LT PUSH3 0x295 JUMPI DUP1 MLOAD PUSH1 0xFF NOT AND DUP4 DUP1 ADD OR DUP6 SSTORE PUSH3 0x2C5 JUMP JUMPDEST DUP3 DUP1 ADD PUSH1 0x1 ADD DUP6 SSTORE DUP3 ISZERO PUSH3 0x2C5 JUMPI SWAP2 DUP3 ADD JUMPDEST DUP3 DUP2 GT ISZERO PUSH3 0x2C5 JUMPI DUP3 MLOAD DUP3 SSTORE SWAP2 PUSH1 0x20 ADD SWAP2 SWAP1 PUSH1 0x1 ADD SWAP1 PUSH3 0x2A8 JUMP JUMPDEST POP PUSH3 0x2D3 SWAP3 SWAP2 POP PUSH3 0x2D7 JUMP JUMPDEST POP SWAP1 JUMP JUMPDEST JUMPDEST DUP1 DUP3 GT ISZERO PUSH3 0x2D3 JUMPI PUSH1 0x0 DUP2 SSTORE PUSH1 0x1 ADD PUSH3 0x2D8 JUMP JUMPDEST PUSH1 0x80 MLOAD PUSH1 0xF8 SHR PUSH1 0xA0 MLOAD PUSH1 0xC0 MLOAD PUSH1 0xE0 MLOAD PUSH2 0x100 MLOAD PUSH2 0x120 MLOAD PUSH2 0x140 MLOAD PUSH2 0x1751 PUSH3 0x345 PUSH1 0x0 CODECOPY DUP1 PUSH2 0xA26 MSTORE POP DUP1 PUSH2 0xEAB MSTORE POP DUP1 PUSH2 0xEED MSTORE POP DUP1 PUSH2 0xECC MSTORE POP DUP1 PUSH2 0xE57 MSTORE POP DUP1 PUSH2 0xE7F MSTORE POP DUP1 PUSH2 0x5BF MSTORE POP PUSH2 0x1751 PUSH1 0x0 RETURN INVALID PUSH1 0x80 PUSH1 0x40 MSTORE CALLVALUE DUP1 ISZERO PUSH2 0x10 JUMPI PUSH1 0x0 DUP1 REVERT JUMPDEST POP PUSH1 0x4 CALLDATASIZE LT PUSH2 0x151 JUMPI PUSH1 0x0 CALLDATALOAD PUSH1 0xE0 SHR DUP1 PUSH4 0x70A08231 GT PUSH2 0xCD JUMPI DUP1 PUSH4 0xA457C2D7 GT PUSH2 0x81 JUMPI DUP1 PUSH4 0xBF7E214F GT PUSH2 0x66 JUMPI DUP1 PUSH4 0xBF7E214F EQ PUSH2 0x3FE JUMPI DUP1 PUSH4 0xD505ACCF EQ PUSH2 0x422 JUMPI DUP1 PUSH4 0xDD62ED3E EQ PUSH2 0x473 JUMPI PUSH2 0x151 JUMP JUMPDEST DUP1 PUSH4 0xA457C2D7 EQ PUSH2 0x3A6 JUMPI DUP1 PUSH4 0xA9059CBB EQ PUSH2 0x3D2 JUMPI PUSH2 0x151 JUMP JUMPDEST DUP1 PUSH4 0x7A9E5E4B GT PUSH2 0xB2 JUMPI DUP1 PUSH4 0x7A9E5E4B EQ PUSH2 0x352 JUMPI DUP1 PUSH4 0x7ECEBE00 EQ PUSH2 0x378 JUMPI DUP1 PUSH4 0x95D89B41 EQ PUSH2 0x39E JUMPI PUSH2 0x151 JUMP JUMPDEST DUP1 PUSH4 0x70A08231 EQ PUSH2 0x300 JUMPI DUP1 PUSH4 0x79CC6790 EQ PUSH2 0x326 JUMPI PUSH2 0x151 JUMP JUMPDEST DUP1 PUSH4 0x313CE567 GT PUSH2 0x124 JUMPI DUP1 PUSH4 0x39509351 GT PUSH2 0x109 JUMPI DUP1 PUSH4 0x39509351 EQ PUSH2 0x289 JUMPI DUP1 PUSH4 0x40C10F19 EQ PUSH2 0x2B5 JUMPI DUP1 PUSH4 0x42966C68 EQ PUSH2 0x2E3 JUMPI PUSH2 0x151 JUMP JUMPDEST DUP1 PUSH4 0x313CE567 EQ PUSH2 0x263 JUMPI DUP1 PUSH4 0x3644E515 EQ PUSH2 0x281 JUMPI PUSH2 0x151 JUMP JUMPDEST DUP1 PUSH4 0x6FDDE03 EQ PUSH2 0x156 JUMPI DUP1 PUSH4 0x95EA7B3 EQ PUSH2 0x1D3 JUMPI DUP1 PUSH4 0x18160DDD EQ PUSH2 0x213 JUMPI DUP1 PUSH4 0x23B872DD EQ PUSH2 0x22D JUMPI JUMPDEST PUSH1 0x0 DUP1 REVERT JUMPDEST PUSH2 0x15E PUSH2 0x4A1 JUMP JUMPDEST PUSH1 0x40 DUP1 MLOAD PUSH1 0x20 DUP1 DUP3 MSTORE DUP4 MLOAD DUP2 DUP4 ADD MSTORE DUP4 MLOAD SWAP2 SWAP3 DUP4 SWAP3 SWAP1 DUP4 ADD SWAP2 DUP6 ADD SWAP1 DUP1 DUP4 DUP4 PUSH1 0x0 JUMPDEST DUP4 DUP2 LT ISZERO PUSH2 0x198 JUMPI DUP2 DUP2 ADD MLOAD DUP4 DUP3 ADD MSTORE PUSH1 0x20 ADD PUSH2 0x180 JUMP JUMPDEST POP POP POP POP SWAP1 POP SWAP1 DUP2 ADD SWAP1 PUSH1 0x1F AND DUP1 ISZERO PUSH2 0x1C5 JUMPI DUP1 DUP3 SUB DUP1 MLOAD PUSH1 0x1 DUP4 PUSH1 0x20 SUB PUSH2 0x100 EXP SUB NOT AND DUP2 MSTORE PUSH1 0x20 ADD SWAP2 POP JUMPDEST POP SWAP3 POP POP POP PUSH1 0x40 MLOAD DUP1 SWAP2 SUB SWAP1 RETURN JUMPDEST PUSH2 0x1FF PUSH1 0x4 DUP1 CALLDATASIZE SUB PUSH1 0x40 DUP2 LT ISZERO PUSH2 0x1E9 JUMPI PUSH1 0x0 DUP1 REVERT JUMPDEST POP PUSH1 0x1 PUSH1 0x1 PUSH1 0xA0 SHL SUB DUP2 CALLDATALOAD AND SWAP1 PUSH1 0x20 ADD CALLDATALOAD PUSH2 0x538 JUMP JUMPDEST PUSH1 0x40 DUP1 MLOAD SWAP2 ISZERO ISZERO DUP3 MSTORE MLOAD SWAP1 DUP2 SWAP1 SUB PUSH1 0x20 ADD SWAP1 RETURN JUMPDEST PUSH2 0x21B PUSH2 0x54E JUMP JUMPDEST PUSH1 0x40 DUP1 MLOAD SWAP2 DUP3 MSTORE MLOAD SWAP1 DUP2 SWAP1 SUB PUSH1 0x20 ADD SWAP1 RETURN JUMPDEST PUSH2 0x1FF PUSH1 0x4 DUP1 CALLDATASIZE SUB PUSH1 0x60 DUP2 LT ISZERO PUSH2 0x243 JUMPI PUSH1 0x0 DUP1 REVERT JUMPDEST POP PUSH1 0x1 PUSH1 0x1 PUSH1 0xA0 SHL SUB DUP2 CALLDATALOAD DUP2 AND SWAP2 PUSH1 0x20 DUP2 ADD CALLDATALOAD SWAP1 SWAP2 AND SWAP1 PUSH1 0x40 ADD CALLDATALOAD PUSH2 0x554 JUMP JUMPDEST PUSH2 0x26B PUSH2 0x5BD JUMP JUMPDEST PUSH1 0x40 DUP1 MLOAD PUSH1 0xFF SWAP1 SWAP3 AND DUP3 MSTORE MLOAD SWAP1 DUP2 SWAP1 SUB PUSH1 0x20 ADD SWAP1 RETURN JUMPDEST PUSH2 0x21B PUSH2 0x5E1 JUMP JUMPDEST PUSH2 0x1FF PUSH1 0x4 DUP1 CALLDATASIZE SUB PUSH1 0x40 DUP2 LT ISZERO PUSH2 0x29F JUMPI PUSH1 0x0 DUP1 REVERT JUMPDEST POP PUSH1 0x1 PUSH1 0x1 PUSH1 0xA0 SHL SUB DUP2 CALLDATALOAD AND SWAP1 PUSH1 0x20 ADD CALLDATALOAD PUSH2 0x5F0 JUMP JUMPDEST PUSH2 0x2E1 PUSH1 0x4 DUP1 CALLDATASIZE SUB PUSH1 0x40 DUP2 LT ISZERO PUSH2 0x2CB JUMPI PUSH1 0x0 DUP1 REVERT JUMPDEST POP PUSH1 0x1 PUSH1 0x1 PUSH1 0xA0 SHL SUB DUP2 CALLDATALOAD AND SWAP1 PUSH1 0x20 ADD CALLDATALOAD PUSH2 0x626 JUMP JUMPDEST STOP JUMPDEST PUSH2 0x2E1 PUSH1 0x4 DUP1 CALLDATASIZE SUB PUSH1 0x20 DUP2 LT ISZERO PUSH2 0x2F9 JUMPI PUSH1 0x0 DUP1 REVERT JUMPDEST POP CALLDATALOAD PUSH2 0x75A JUMP JUMPDEST PUSH2 0x21B PUSH1 0x4 DUP1 CALLDATASIZE SUB PUSH1 0x20 DUP2 LT ISZERO PUSH2 0x316 JUMPI PUSH1 0x0 DUP1 REVERT JUMPDEST POP CALLDATALOAD PUSH1 0x1 PUSH1 0x1 PUSH1 0xA0 SHL SUB AND PUSH2 0x767 JUMP JUMPDEST PUSH2 0x2E1 PUSH1 0x4 DUP1 CALLDATASIZE SUB PUSH1 0x40 DUP2 LT ISZERO PUSH2 0x33C JUMPI PUSH1 0x0 DUP1 REVERT JUMPDEST POP PUSH1 0x1 PUSH1 0x1 PUSH1 0xA0 SHL SUB DUP2 CALLDATALOAD AND SWAP1 PUSH1 0x20 ADD CALLDATALOAD PUSH2 0x782 JUMP JUMPDEST PUSH2 0x2E1 PUSH1 0x4 DUP1 CALLDATASIZE SUB PUSH1 0x20 DUP2 LT ISZERO PUSH2 0x368 JUMPI PUSH1 0x0 DUP1 REVERT JUMPDEST POP CALLDATALOAD PUSH1 0x1 PUSH1 0x1 PUSH1 0xA0 SHL SUB AND PUSH2 0x78C JUMP JUMPDEST PUSH2 0x21B PUSH1 0x4 DUP1 CALLDATASIZE SUB PUSH1 0x20 DUP2 LT ISZERO PUSH2 0x38E JUMPI PUSH1 0x0 DUP1 REVERT JUMPDEST POP CALLDATALOAD PUSH1 0x1 PUSH1 0x1 PUSH1 0xA0 SHL SUB AND PUSH2 0x8DA JUMP JUMPDEST PUSH2 0x15E PUSH2 0x901 JUMP JUMPDEST PUSH2 0x1FF PUSH1 0x4 DUP1 CALLDATASIZE SUB PUSH1 0x40 DUP2 LT ISZERO PUSH2 0x3BC JUMPI PUSH1 0x0 DUP1 REVERT JUMPDEST POP PUSH1 0x1 PUSH1 0x1 PUSH1 0xA0 SHL SUB DUP2 CALLDATALOAD AND SWAP1 PUSH1 0x20 ADD CALLDATALOAD PUSH2 0x962 JUMP JUMPDEST PUSH2 0x1FF PUSH1 0x4 DUP1 CALLDATASIZE SUB PUSH1 0x40 DUP2 LT ISZERO PUSH2 0x3E8 JUMPI PUSH1 0x0 DUP1 REVERT JUMPDEST POP PUSH1 0x1 PUSH1 0x1 PUSH1 0xA0 SHL SUB DUP2 CALLDATALOAD AND SWAP1 PUSH1 0x20 ADD CALLDATALOAD PUSH2 0x9B1 JUMP JUMPDEST PUSH2 0x406 PUSH2 0x9BE JUMP JUMPDEST PUSH1 0x40 DUP1 MLOAD PUSH1 0x1 PUSH1 0x1 PUSH1 0xA0 SHL SUB SWAP1 SWAP3 AND DUP3 MSTORE MLOAD SWAP1 DUP2 SWAP1 SUB PUSH1 0x20 ADD SWAP1 RETURN JUMPDEST PUSH2 0x2E1 PUSH1 0x4 DUP1 CALLDATASIZE SUB PUSH1 0xE0 DUP2 LT ISZERO PUSH2 0x438 JUMPI PUSH1 0x0 DUP1 REVERT JUMPDEST POP PUSH1 0x1 PUSH1 0x1 PUSH1 0xA0 SHL SUB DUP2 CALLDATALOAD DUP2 AND SWAP2 PUSH1 0x20 DUP2 ADD CALLDATALOAD SWAP1 SWAP2 AND SWAP1 PUSH1 0x40 DUP2 ADD CALLDATALOAD SWAP1 PUSH1 0x60 DUP2 ADD CALLDATALOAD SWAP1 PUSH1 0xFF PUSH1 0x80 DUP3 ADD CALLDATALOAD AND SWAP1 PUSH1 0xA0 DUP2 ADD CALLDATALOAD SWAP1 PUSH1 0xC0 ADD CALLDATALOAD PUSH2 0x9CD JUMP JUMPDEST PUSH2 0x21B PUSH1 0x4 DUP1 CALLDATASIZE SUB PUSH1 0x40 DUP2 LT ISZERO PUSH2 0x489 JUMPI PUSH1 0x0 DUP1 REVERT JUMPDEST POP PUSH1 0x1 PUSH1 0x1 PUSH1 0xA0 SHL SUB DUP2 CALLDATALOAD DUP2 AND SWAP2 PUSH1 0x20 ADD CALLDATALOAD AND PUSH2 0xB49 JUMP JUMPDEST PUSH1 0x3 DUP1 SLOAD PUSH1 0x40 DUP1 MLOAD PUSH1 0x20 PUSH1 0x1F PUSH1 0x2 PUSH1 0x0 NOT PUSH2 0x100 PUSH1 0x1 DUP9 AND ISZERO MUL ADD SWAP1 SWAP6 AND SWAP5 SWAP1 SWAP5 DIV SWAP4 DUP5 ADD DUP2 SWAP1 DIV DUP2 MUL DUP3 ADD DUP2 ADD SWAP1 SWAP3 MSTORE DUP3 DUP2 MSTORE PUSH1 0x60 SWAP4 SWAP1 SWAP3 SWAP1 SWAP2 DUP4 ADD DUP3 DUP3 DUP1 ISZERO PUSH2 0x52D JUMPI DUP1 PUSH1 0x1F LT PUSH2 0x502 JUMPI PUSH2 0x100 DUP1 DUP4 SLOAD DIV MUL DUP4 MSTORE SWAP2 PUSH1 0x20 ADD SWAP2 PUSH2 0x52D JUMP JUMPDEST DUP3 ADD SWAP2 SWAP1 PUSH1 0x0 MSTORE PUSH1 0x20 PUSH1 0x0 KECCAK256 SWAP1 JUMPDEST DUP2 SLOAD DUP2 MSTORE SWAP1 PUSH1 0x1 ADD SWAP1 PUSH1 0x20 ADD DUP1 DUP4 GT PUSH2 0x510 JUMPI DUP3 SWAP1 SUB PUSH1 0x1F AND DUP3 ADD SWAP2 JUMPDEST POP POP POP POP POP SWAP1 POP JUMPDEST SWAP1 JUMP JUMPDEST PUSH1 0x0 PUSH2 0x545 CALLER DUP5 DUP5 PUSH2 0xB74 JUMP JUMPDEST POP PUSH1 0x1 SWAP3 SWAP2 POP POP JUMP JUMPDEST PUSH1 0x2 SLOAD SWAP1 JUMP JUMPDEST PUSH1 0x0 PUSH2 0x561 DUP5 DUP5 DUP5 PUSH2 0xC60 JUMP JUMPDEST PUSH2 0x5B3 DUP5 CALLER PUSH2 0x5AE DUP6 PUSH1 0x40 MLOAD DUP1 PUSH1 0x60 ADD PUSH1 0x40 MSTORE DUP1 PUSH1 0x28 DUP2 MSTORE PUSH1 0x20 ADD PUSH2 0x1641 PUSH1 0x28 SWAP2 CODECOPY PUSH1 0x1 PUSH1 0x1 PUSH1 0xA0 SHL SUB DUP11 AND PUSH1 0x0 SWAP1 DUP2 MSTORE PUSH1 0x1 PUSH1 0x20 SWAP1 DUP2 MSTORE PUSH1 0x40 DUP1 DUP4 KECCAK256 CALLER DUP5 MSTORE SWAP1 SWAP2 MSTORE SWAP1 KECCAK256 SLOAD SWAP2 SWAP1 PUSH2 0xDBB JUMP JUMPDEST PUSH2 0xB74 JUMP JUMPDEST POP PUSH1 0x1 SWAP4 SWAP3 POP POP POP JUMP JUMPDEST PUSH32 0x0 SWAP1 JUMP JUMPDEST PUSH1 0x0 PUSH2 0x5EB PUSH2 0xE52 JUMP JUMPDEST SWAP1 POP SWAP1 JUMP JUMPDEST CALLER PUSH1 0x0 DUP2 DUP2 MSTORE PUSH1 0x1 PUSH1 0x20 SWAP1 DUP2 MSTORE PUSH1 0x40 DUP1 DUP4 KECCAK256 PUSH1 0x1 PUSH1 0x1 PUSH1 0xA0 SHL SUB DUP8 AND DUP5 MSTORE SWAP1 SWAP2 MSTORE DUP2 KECCAK256 SLOAD SWAP1 SWAP2 PUSH2 0x545 SWAP2 DUP6 SWAP1 PUSH2 0x5AE SWAP1 DUP7 PUSH2 0xF19 JUMP JUMPDEST PUSH1 0x7 PUSH1 0x0 SWAP1 SLOAD SWAP1 PUSH2 0x100 EXP SWAP1 DIV PUSH1 0x1 PUSH1 0x1 PUSH1 0xA0 SHL SUB AND PUSH1 0x1 PUSH1 0x1 PUSH1 0xA0 SHL SUB AND PUSH4 0xFBFA77CF PUSH1 0x40 MLOAD DUP2 PUSH4 0xFFFFFFFF AND PUSH1 0xE0 SHL DUP2 MSTORE PUSH1 0x4 ADD PUSH1 0x20 PUSH1 0x40 MLOAD DUP1 DUP4 SUB DUP2 DUP7 DUP1 EXTCODESIZE ISZERO DUP1 ISZERO PUSH2 0x674 JUMPI PUSH1 0x0 DUP1 REVERT JUMPDEST POP GAS STATICCALL ISZERO DUP1 ISZERO PUSH2 0x688 JUMPI RETURNDATASIZE PUSH1 0x0 DUP1 RETURNDATACOPY RETURNDATASIZE PUSH1 0x0 REVERT JUMPDEST POP POP POP POP PUSH1 0x40 MLOAD RETURNDATASIZE PUSH1 0x20 DUP2 LT ISZERO PUSH2 0x69E JUMPI PUSH1 0x0 DUP1 REVERT JUMPDEST POP MLOAD PUSH1 0x6 SWAP1 PUSH1 0x1 PUSH1 0x1 PUSH1 0xA0 SHL SUB AND CALLER EQ PUSH2 0x74B JUMPI PUSH1 0x40 MLOAD PUSH3 0x461BCD PUSH1 0xE5 SHL DUP2 MSTORE PUSH1 0x20 PUSH1 0x4 DUP3 ADD SWAP1 DUP2 MSTORE DUP3 SLOAD PUSH1 0x2 PUSH1 0x0 NOT PUSH2 0x100 PUSH1 0x1 DUP5 AND ISZERO MUL ADD SWAP1 SWAP2 AND DIV PUSH1 0x24 DUP4 ADD DUP2 SWAP1 MSTORE SWAP1 SWAP2 DUP3 SWAP2 PUSH1 0x44 SWAP1 SWAP2 ADD SWAP1 DUP5 SWAP1 DUP1 ISZERO PUSH2 0x73C JUMPI DUP1 PUSH1 0x1F LT PUSH2 0x711 JUMPI PUSH2 0x100 DUP1 DUP4 SLOAD DIV MUL DUP4 MSTORE SWAP2 PUSH1 0x20 ADD SWAP2 PUSH2 0x73C JUMP JUMPDEST DUP3 ADD SWAP2 SWAP1 PUSH1 0x0 MSTORE PUSH1 0x20 PUSH1 0x0 KECCAK256 SWAP1 JUMPDEST DUP2 SLOAD DUP2 MSTORE SWAP1 PUSH1 0x1 ADD SWAP1 PUSH1 0x20 ADD DUP1 DUP4 GT PUSH2 0x71F JUMPI DUP3 SWAP1 SUB PUSH1 0x1F AND DUP3 ADD SWAP2 JUMPDEST POP POP SWAP3 POP POP POP PUSH1 0x40 MLOAD DUP1 SWAP2 SUB SWAP1 REVERT JUMPDEST POP PUSH2 0x756 DUP3 DUP3 PUSH2 0xF7A JUMP JUMPDEST POP POP JUMP JUMPDEST PUSH2 0x764 CALLER DUP3 PUSH2 0x106A JUMP JUMPDEST POP JUMP JUMPDEST PUSH1 0x1 PUSH1 0x1 PUSH1 0xA0 SHL SUB AND PUSH1 0x0 SWAP1 DUP2 MSTORE PUSH1 0x20 DUP2 SWAP1 MSTORE PUSH1 0x40 SWAP1 KECCAK256 SLOAD SWAP1 JUMP JUMPDEST PUSH2 0x756 DUP3 DUP3 PUSH2 0x1166 JUMP JUMPDEST PUSH1 0x7 PUSH1 0x0 SWAP1 SLOAD SWAP1 PUSH2 0x100 EXP SWAP1 DIV PUSH1 0x1 PUSH1 0x1 PUSH1 0xA0 SHL SUB AND PUSH1 0x1 PUSH1 0x1 PUSH1 0xA0 SHL SUB AND PUSH4 0xC340A24 PUSH1 0x40 MLOAD DUP2 PUSH4 0xFFFFFFFF AND PUSH1 0xE0 SHL DUP2 MSTORE PUSH1 0x4 ADD PUSH1 0x20 PUSH1 0x40 MLOAD DUP1 DUP4 SUB DUP2 DUP7 DUP1 EXTCODESIZE ISZERO DUP1 ISZERO PUSH2 0x7DA JUMPI PUSH1 0x0 DUP1 REVERT JUMPDEST POP GAS STATICCALL ISZERO DUP1 ISZERO PUSH2 0x7EE JUMPI RETURNDATASIZE PUSH1 0x0 DUP1 RETURNDATACOPY RETURNDATASIZE PUSH1 0x0 REVERT JUMPDEST POP POP POP POP PUSH1 0x40 MLOAD RETURNDATASIZE PUSH1 0x20 DUP2 LT ISZERO PUSH2 0x804 JUMPI PUSH1 0x0 DUP1 REVERT JUMPDEST POP MLOAD PUSH1 0x6 SWAP1 PUSH1 0x1 PUSH1 0x1 PUSH1 0xA0 SHL SUB AND CALLER EQ PUSH2 0x877 JUMPI PUSH1 0x40 MLOAD PUSH3 0x461BCD PUSH1 0xE5 SHL DUP2 MSTORE PUSH1 0x20 PUSH1 0x4 DUP3 ADD SWAP1 DUP2 MSTORE DUP3 SLOAD PUSH1 0x2 PUSH1 0x0 NOT PUSH2 0x100 PUSH1 0x1 DUP5 AND ISZERO MUL ADD SWAP1 SWAP2 AND DIV PUSH1 0x24 DUP4 ADD DUP2 SWAP1 MSTORE SWAP1 SWAP2 DUP3 SWAP2 PUSH1 0x44 SWAP1 SWAP2 ADD SWAP1 DUP5 SWAP1 DUP1 ISZERO PUSH2 0x73C JUMPI DUP1 PUSH1 0x1F LT PUSH2 0x711 JUMPI PUSH2 0x100 DUP1 DUP4 SLOAD DIV MUL DUP4 MSTORE SWAP2 PUSH1 0x20 ADD SWAP2 PUSH2 0x73C JUMP JUMPDEST POP PUSH1 0x7 DUP1 SLOAD PUSH32 0xFFFFFFFFFFFFFFFFFFFFFFFF0000000000000000000000000000000000000000 AND PUSH1 0x1 PUSH1 0x1 PUSH1 0xA0 SHL SUB DUP4 AND SWAP1 DUP2 OR SWAP1 SWAP2 SSTORE PUSH1 0x40 MLOAD PUSH32 0x2F658B440C35314F52658EA8A740E05B284CDC84DC9AE01E891F21B8933E7CAD SWAP1 PUSH1 0x0 SWAP1 LOG2 POP JUMP JUMPDEST PUSH1 0x1 PUSH1 0x1 PUSH1 0xA0 SHL SUB DUP2 AND PUSH1 0x0 SWAP1 DUP2 MSTORE PUSH1 0x5 PUSH1 0x20 MSTORE PUSH1 0x40 DUP2 KECCAK256 PUSH2 0x8FB SWAP1 PUSH2 0x11B2 JUMP JUMPDEST SWAP3 SWAP2 POP POP JUMP JUMPDEST PUSH1 0x4 DUP1 SLOAD PUSH1 0x40 DUP1 MLOAD PUSH1 0x20 PUSH1 0x1F PUSH1 0x2 PUSH1 0x0 NOT PUSH2 0x100 PUSH1 0x1 DUP9 AND ISZERO MUL ADD SWAP1 SWAP6 AND SWAP5 SWAP1 SWAP5 DIV SWAP4 DUP5 ADD DUP2 SWAP1 DIV DUP2 MUL DUP3 ADD DUP2 ADD SWAP1 SWAP3 MSTORE DUP3 DUP2 MSTORE PUSH1 0x60 SWAP4 SWAP1 SWAP3 SWAP1 SWAP2 DUP4 ADD DUP3 DUP3 DUP1 ISZERO PUSH2 0x52D JUMPI DUP1 PUSH1 0x1F LT PUSH2 0x502 JUMPI PUSH2 0x100 DUP1 DUP4 SLOAD DIV MUL DUP4 MSTORE SWAP2 PUSH1 0x20 ADD SWAP2 PUSH2 0x52D JUMP JUMPDEST PUSH1 0x0 PUSH2 0x545 CALLER DUP5 PUSH2 0x5AE DUP6 PUSH1 0x40 MLOAD DUP1 PUSH1 0x60 ADD PUSH1 0x40 MSTORE DUP1 PUSH1 0x25 DUP2 MSTORE PUSH1 0x20 ADD PUSH2 0x16F7 PUSH1 0x25 SWAP2 CODECOPY CALLER PUSH1 0x0 SWAP1 DUP2 MSTORE PUSH1 0x1 PUSH1 0x20 SWAP1 DUP2 MSTORE PUSH1 0x40 DUP1 DUP4 KECCAK256 PUSH1 0x1 PUSH1 0x1 PUSH1 0xA0 SHL SUB DUP14 AND DUP5 MSTORE SWAP1 SWAP2 MSTORE SWAP1 KECCAK256 SLOAD SWAP2 SWAP1 PUSH2 0xDBB JUMP JUMPDEST PUSH1 0x0 PUSH2 0x545 CALLER DUP5 DUP5 PUSH2 0xC60 JUMP JUMPDEST PUSH1 0x7 SLOAD PUSH1 0x1 PUSH1 0x1 PUSH1 0xA0 SHL SUB AND DUP2 JUMP JUMPDEST DUP4 TIMESTAMP GT ISZERO PUSH2 0xA22 JUMPI PUSH1 0x40 DUP1 MLOAD PUSH3 0x461BCD PUSH1 0xE5 SHL DUP2 MSTORE PUSH1 0x20 PUSH1 0x4 DUP3 ADD MSTORE PUSH1 0x1D PUSH1 0x24 DUP3 ADD MSTORE PUSH32 0x45524332305065726D69743A206578706972656420646561646C696E65000000 PUSH1 0x44 DUP3 ADD MSTORE SWAP1 MLOAD SWAP1 DUP2 SWAP1 SUB PUSH1 0x64 ADD SWAP1 REVERT JUMPDEST PUSH1 0x0 PUSH32 0x0 DUP9 DUP9 DUP9 PUSH2 0xA51 DUP13 PUSH2 0x11B6 JUMP JUMPDEST DUP10 PUSH1 0x40 MLOAD PUSH1 0x20 ADD DUP1 DUP8 DUP2 MSTORE PUSH1 0x20 ADD DUP7 PUSH1 0x1 PUSH1 0x1 PUSH1 0xA0 SHL SUB AND DUP2 MSTORE PUSH1 0x20 ADD DUP6 PUSH1 0x1 PUSH1 0x1 PUSH1 0xA0 SHL SUB AND DUP2 MSTORE PUSH1 0x20 ADD DUP5 DUP2 MSTORE PUSH1 0x20 ADD DUP4 DUP2 MSTORE PUSH1 0x20 ADD DUP3 DUP2 MSTORE PUSH1 0x20 ADD SWAP7 POP POP POP POP POP POP POP PUSH1 0x40 MLOAD PUSH1 0x20 DUP2 DUP4 SUB SUB DUP2 MSTORE SWAP1 PUSH1 0x40 MSTORE DUP1 MLOAD SWAP1 PUSH1 0x20 ADD KECCAK256 SWAP1 POP PUSH1 0x0 PUSH2 0xABA DUP3 PUSH2 0x11E8 JUMP JUMPDEST SWAP1 POP PUSH1 0x0 PUSH2 0xACA DUP3 DUP8 DUP8 DUP8 PUSH2 0x11FB JUMP JUMPDEST SWAP1 POP DUP10 PUSH1 0x1 PUSH1 0x1 PUSH1 0xA0 SHL SUB AND DUP2 PUSH1 0x1 PUSH1 0x1 PUSH1 0xA0 SHL SUB AND EQ PUSH2 0xB32 JUMPI PUSH1 0x40 DUP1 MLOAD PUSH3 0x461BCD PUSH1 0xE5 SHL DUP2 MSTORE PUSH1 0x20 PUSH1 0x4 DUP3 ADD MSTORE PUSH1 0x1E PUSH1 0x24 DUP3 ADD MSTORE PUSH32 0x45524332305065726D69743A20696E76616C6964207369676E61747572650000 PUSH1 0x44 DUP3 ADD MSTORE SWAP1 MLOAD SWAP1 DUP2 SWAP1 SUB PUSH1 0x64 ADD SWAP1 REVERT JUMPDEST PUSH2 0xB3D DUP11 DUP11 DUP11 PUSH2 0xB74 JUMP JUMPDEST POP POP POP POP POP POP POP POP POP POP JUMP JUMPDEST PUSH1 0x1 PUSH1 0x1 PUSH1 0xA0 SHL SUB SWAP2 DUP3 AND PUSH1 0x0 SWAP1 DUP2 MSTORE PUSH1 0x1 PUSH1 0x20 SWAP1 DUP2 MSTORE PUSH1 0x40 DUP1 DUP4 KECCAK256 SWAP4 SWAP1 SWAP5 AND DUP3 MSTORE SWAP2 SWAP1 SWAP2 MSTORE KECCAK256 SLOAD SWAP1 JUMP JUMPDEST PUSH1 0x1 PUSH1 0x1 PUSH1 0xA0 SHL SUB DUP4 AND PUSH2 0xBB9 JUMPI PUSH1 0x40 MLOAD PUSH3 0x461BCD PUSH1 0xE5 SHL DUP2 MSTORE PUSH1 0x4 ADD DUP1 DUP1 PUSH1 0x20 ADD DUP3 DUP2 SUB DUP3 MSTORE PUSH1 0x24 DUP2 MSTORE PUSH1 0x20 ADD DUP1 PUSH2 0x16D3 PUSH1 0x24 SWAP2 CODECOPY PUSH1 0x40 ADD SWAP2 POP POP PUSH1 0x40 MLOAD DUP1 SWAP2 SUB SWAP1 REVERT JUMPDEST PUSH1 0x1 PUSH1 0x1 PUSH1 0xA0 SHL SUB DUP3 AND PUSH2 0xBFE JUMPI PUSH1 0x40 MLOAD PUSH3 0x461BCD PUSH1 0xE5 SHL DUP2 MSTORE PUSH1 0x4 ADD DUP1 DUP1 PUSH1 0x20 ADD DUP3 DUP2 SUB DUP3 MSTORE PUSH1 0x22 DUP2 MSTORE PUSH1 0x20 ADD DUP1 PUSH2 0x15B5 PUSH1 0x22 SWAP2 CODECOPY PUSH1 0x40 ADD SWAP2 POP POP PUSH1 0x40 MLOAD DUP1 SWAP2 SUB SWAP1 REVERT JUMPDEST PUSH1 0x1 PUSH1 0x1 PUSH1 0xA0 SHL SUB DUP1 DUP5 AND PUSH1 0x0 DUP2 DUP2 MSTORE PUSH1 0x1 PUSH1 0x20 SWAP1 DUP2 MSTORE PUSH1 0x40 DUP1 DUP4 KECCAK256 SWAP5 DUP8 AND DUP1 DUP5 MSTORE SWAP5 DUP3 MSTORE SWAP2 DUP3 SWAP1 KECCAK256 DUP6 SWAP1 SSTORE DUP2 MLOAD DUP6 DUP2 MSTORE SWAP2 MLOAD PUSH32 0x8C5BE1E5EBEC7D5BD14F71427D1E84F3DD0314C0F7B2291E5B200AC8C7C3B925 SWAP3 DUP2 SWAP1 SUB SWAP1 SWAP2 ADD SWAP1 LOG3 POP POP POP JUMP JUMPDEST PUSH1 0x1 PUSH1 0x1 PUSH1 0xA0 SHL SUB DUP4 AND PUSH2 0xCA5 JUMPI PUSH1 0x40 MLOAD PUSH3 0x461BCD PUSH1 0xE5 SHL DUP2 MSTORE PUSH1 0x4 ADD DUP1 DUP1 PUSH1 0x20 ADD DUP3 DUP2 SUB DUP3 MSTORE PUSH1 0x25 DUP2 MSTORE PUSH1 0x20 ADD DUP1 PUSH2 0x16AE PUSH1 0x25 SWAP2 CODECOPY PUSH1 0x40 ADD SWAP2 POP POP PUSH1 0x40 MLOAD DUP1 SWAP2 SUB SWAP1 REVERT JUMPDEST PUSH1 0x1 PUSH1 0x1 PUSH1 0xA0 SHL SUB DUP3 AND PUSH2 0xCEA JUMPI PUSH1 0x40 MLOAD PUSH3 0x461BCD PUSH1 0xE5 SHL DUP2 MSTORE PUSH1 0x4 ADD DUP1 DUP1 PUSH1 0x20 ADD DUP3 DUP2 SUB DUP3 MSTORE PUSH1 0x23 DUP2 MSTORE PUSH1 0x20 ADD DUP1 PUSH2 0x1570 PUSH1 0x23 SWAP2 CODECOPY PUSH1 0x40 ADD SWAP2 POP POP PUSH1 0x40 MLOAD DUP1 SWAP2 SUB SWAP1 REVERT JUMPDEST PUSH2 0xCF5 DUP4 DUP4 DUP4 PUSH2 0x11AD JUMP JUMPDEST PUSH2 0xD32 DUP2 PUSH1 0x40 MLOAD DUP1 PUSH1 0x60 ADD PUSH1 0x40 MSTORE DUP1 PUSH1 0x26 DUP2 MSTORE PUSH1 0x20 ADD PUSH2 0x15D7 PUSH1 0x26 SWAP2 CODECOPY PUSH1 0x1 PUSH1 0x1 PUSH1 0xA0 SHL SUB DUP7 AND PUSH1 0x0 SWAP1 DUP2 MSTORE PUSH1 0x20 DUP2 SWAP1 MSTORE PUSH1 0x40 SWAP1 KECCAK256 SLOAD SWAP2 SWAP1 PUSH2 0xDBB JUMP JUMPDEST PUSH1 0x1 PUSH1 0x1 PUSH1 0xA0 SHL SUB DUP1 DUP6 AND PUSH1 0x0 SWAP1 DUP2 MSTORE PUSH1 0x20 DUP2 SWAP1 MSTORE PUSH1 0x40 DUP1 DUP3 KECCAK256 SWAP4 SWAP1 SWAP4 SSTORE SWAP1 DUP5 AND DUP2 MSTORE KECCAK256 SLOAD PUSH2 0xD61 SWAP1 DUP3 PUSH2 0xF19 JUMP JUMPDEST PUSH1 0x1 PUSH1 0x1 PUSH1 0xA0 SHL SUB DUP1 DUP5 AND PUSH1 0x0 DUP2 DUP2 MSTORE PUSH1 0x20 DUP2 DUP2 MSTORE PUSH1 0x40 SWAP2 DUP3 SWAP1 KECCAK256 SWAP5 SWAP1 SWAP5 SSTORE DUP1 MLOAD DUP6 DUP2 MSTORE SWAP1 MLOAD SWAP2 SWAP4 SWAP3 DUP8 AND SWAP3 PUSH32 0xDDF252AD1BE2C89B69C2B068FC378DAA952BA7F163C4A11628F55A4DF523B3EF SWAP3 SWAP2 DUP3 SWAP1 SUB ADD SWAP1 LOG3 POP POP POP JUMP JUMPDEST PUSH1 0x0 DUP2 DUP5 DUP5 GT ISZERO PUSH2 0xE4A JUMPI PUSH1 0x40 MLOAD PUSH3 0x461BCD PUSH1 0xE5 SHL DUP2 MSTORE PUSH1 0x4 ADD DUP1 DUP1 PUSH1 0x20 ADD DUP3 DUP2 SUB DUP3 MSTORE DUP4 DUP2 DUP2 MLOAD DUP2 MSTORE PUSH1 0x20 ADD SWAP2 POP DUP1 MLOAD SWAP1 PUSH1 0x20 ADD SWAP1 DUP1 DUP4 DUP4 PUSH1 0x0 JUMPDEST DUP4 DUP2 LT ISZERO PUSH2 0xE0F JUMPI DUP2 DUP2 ADD MLOAD DUP4 DUP3 ADD MSTORE PUSH1 0x20 ADD PUSH2 0xDF7 JUMP JUMPDEST POP POP POP POP SWAP1 POP SWAP1 DUP2 ADD SWAP1 PUSH1 0x1F AND DUP1 ISZERO PUSH2 0xE3C JUMPI DUP1 DUP3 SUB DUP1 MLOAD PUSH1 0x1 DUP4 PUSH1 0x20 SUB PUSH2 0x100 EXP SUB NOT AND DUP2 MSTORE PUSH1 0x20 ADD SWAP2 POP JUMPDEST POP SWAP3 POP POP POP PUSH1 0x40 MLOAD DUP1 SWAP2 SUB SWAP1 REVERT JUMPDEST POP POP POP SWAP1 SUB SWAP1 JUMP JUMPDEST PUSH1 0x0 CHAINID PUSH32 0x0 DUP2 EQ ISZERO PUSH2 0xEA6 JUMPI PUSH32 0x0 SWAP2 POP POP PUSH2 0x535 JUMP JUMPDEST PUSH2 0xF11 PUSH32 0x0 PUSH32 0x0 PUSH32 0x0 PUSH2 0x1223 JUMP JUMPDEST SWAP2 POP POP PUSH2 0x535 JUMP JUMPDEST PUSH1 0x0 DUP3 DUP3 ADD DUP4 DUP2 LT ISZERO PUSH2 0xF73 JUMPI PUSH1 0x40 DUP1 MLOAD PUSH3 0x461BCD PUSH1 0xE5 SHL DUP2 MSTORE PUSH1 0x20 PUSH1 0x4 DUP3 ADD MSTORE PUSH1 0x1B PUSH1 0x24 DUP3 ADD MSTORE PUSH32 0x536166654D6174683A206164646974696F6E206F766572666C6F770000000000 PUSH1 0x44 DUP3 ADD MSTORE SWAP1 MLOAD SWAP1 DUP2 SWAP1 SUB PUSH1 0x64 ADD SWAP1 REVERT JUMPDEST SWAP4 SWAP3 POP POP POP JUMP JUMPDEST PUSH1 0x1 PUSH1 0x1 PUSH1 0xA0 SHL SUB DUP3 AND PUSH2 0xFD5 JUMPI PUSH1 0x40 DUP1 MLOAD PUSH3 0x461BCD PUSH1 0xE5 SHL DUP2 MSTORE PUSH1 0x20 PUSH1 0x4 DUP3 ADD MSTORE PUSH1 0x1F PUSH1 0x24 DUP3 ADD MSTORE PUSH32 0x45524332303A206D696E7420746F20746865207A65726F206164647265737300 PUSH1 0x44 DUP3 ADD MSTORE SWAP1 MLOAD SWAP1 DUP2 SWAP1 SUB PUSH1 0x64 ADD SWAP1 REVERT JUMPDEST PUSH2 0xFE1 PUSH1 0x0 DUP4 DUP4 PUSH2 0x11AD JUMP JUMPDEST PUSH1 0x2 SLOAD PUSH2 0xFEE SWAP1 DUP3 PUSH2 0xF19 JUMP JUMPDEST PUSH1 0x2 SSTORE PUSH1 0x1 PUSH1 0x1 PUSH1 0xA0 SHL SUB DUP3 AND PUSH1 0x0 SWAP1 DUP2 MSTORE PUSH1 0x20 DUP2 SWAP1 MSTORE PUSH1 0x40 SWAP1 KECCAK256 SLOAD PUSH2 0x1014 SWAP1 DUP3 PUSH2 0xF19 JUMP JUMPDEST PUSH1 0x1 PUSH1 0x1 PUSH1 0xA0 SHL SUB DUP4 AND PUSH1 0x0 DUP2 DUP2 MSTORE PUSH1 0x20 DUP2 DUP2 MSTORE PUSH1 0x40 DUP1 DUP4 KECCAK256 SWAP5 SWAP1 SWAP5 SSTORE DUP4 MLOAD DUP6 DUP2 MSTORE SWAP4 MLOAD SWAP3 SWAP4 SWAP2 SWAP3 PUSH32 0xDDF252AD1BE2C89B69C2B068FC378DAA952BA7F163C4A11628F55A4DF523B3EF SWAP3 DUP2 SWAP1 SUB SWAP1 SWAP2 ADD SWAP1 LOG3 POP POP JUMP JUMPDEST PUSH1 0x1 PUSH1 0x1 PUSH1 0xA0 SHL SUB DUP3 AND PUSH2 0x10AF JUMPI PUSH1 0x40 MLOAD PUSH3 0x461BCD PUSH1 0xE5 SHL DUP2 MSTORE PUSH1 0x4 ADD DUP1 DUP1 PUSH1 0x20 ADD DUP3 DUP2 SUB DUP3 MSTORE PUSH1 0x21 DUP2 MSTORE PUSH1 0x20 ADD DUP1 PUSH2 0x168D PUSH1 0x21 SWAP2 CODECOPY PUSH1 0x40 ADD SWAP2 POP POP PUSH1 0x40 MLOAD DUP1 SWAP2 SUB SWAP1 REVERT JUMPDEST PUSH2 0x10BB DUP3 PUSH1 0x0 DUP4 PUSH2 0x11AD JUMP JUMPDEST PUSH2 0x10F8 DUP2 PUSH1 0x40 MLOAD DUP1 PUSH1 0x60 ADD PUSH1 0x40 MSTORE DUP1 PUSH1 0x22 DUP2 MSTORE PUSH1 0x20 ADD PUSH2 0x1593 PUSH1 0x22 SWAP2 CODECOPY PUSH1 0x1 PUSH1 0x1 PUSH1 0xA0 SHL SUB DUP6 AND PUSH1 0x0 SWAP1 DUP2 MSTORE PUSH1 0x20 DUP2 SWAP1 MSTORE PUSH1 0x40 SWAP1 KECCAK256 SLOAD SWAP2 SWAP1 PUSH2 0xDBB JUMP JUMPDEST PUSH1 0x1 PUSH1 0x1 PUSH1 0xA0 SHL SUB DUP4 AND PUSH1 0x0 SWAP1 DUP2 MSTORE PUSH1 0x20 DUP2 SWAP1 MSTORE PUSH1 0x40 SWAP1 KECCAK256 SSTORE PUSH1 0x2 SLOAD PUSH2 0x111E SWAP1 DUP3 PUSH2 0x1268 JUMP JUMPDEST PUSH1 0x2 SSTORE PUSH1 0x40 DUP1 MLOAD DUP3 DUP2 MSTORE SWAP1 MLOAD PUSH1 0x0 SWAP2 PUSH1 0x1 PUSH1 0x1 PUSH1 0xA0 SHL SUB DUP6 AND SWAP2 PUSH32 0xDDF252AD1BE2C89B69C2B068FC378DAA952BA7F163C4A11628F55A4DF523B3EF SWAP2 DUP2 SWAP1 SUB PUSH1 0x20 ADD SWAP1 LOG3 POP POP JUMP JUMPDEST PUSH1 0x0 PUSH2 0x1196 DUP3 PUSH1 0x40 MLOAD DUP1 PUSH1 0x60 ADD PUSH1 0x40 MSTORE DUP1 PUSH1 0x24 DUP2 MSTORE PUSH1 0x20 ADD PUSH2 0x1669 PUSH1 0x24 SWAP2 CODECOPY PUSH2 0x118F DUP7 CALLER PUSH2 0xB49 JUMP JUMPDEST SWAP2 SWAP1 PUSH2 0xDBB JUMP JUMPDEST SWAP1 POP PUSH2 0x11A3 DUP4 CALLER DUP4 PUSH2 0xB74 JUMP JUMPDEST PUSH2 0x11AD DUP4 DUP4 PUSH2 0x106A JUMP JUMPDEST POP POP POP JUMP JUMPDEST SLOAD SWAP1 JUMP JUMPDEST PUSH1 0x1 PUSH1 0x1 PUSH1 0xA0 SHL SUB DUP2 AND PUSH1 0x0 SWAP1 DUP2 MSTORE PUSH1 0x5 PUSH1 0x20 MSTORE PUSH1 0x40 DUP2 KECCAK256 PUSH2 0x11D7 DUP2 PUSH2 0x11B2 JUMP JUMPDEST SWAP2 POP PUSH2 0x11E2 DUP2 PUSH2 0x12AA JUMP JUMPDEST POP SWAP2 SWAP1 POP JUMP JUMPDEST PUSH1 0x0 PUSH2 0x8FB PUSH2 0x11F5 PUSH2 0xE52 JUMP JUMPDEST DUP4 PUSH2 0x12B3 JUMP JUMPDEST PUSH1 0x0 DUP1 PUSH1 0x0 PUSH2 0x120C DUP8 DUP8 DUP8 DUP8 PUSH2 0x1309 JUMP JUMPDEST SWAP2 POP SWAP2 POP PUSH2 0x1219 DUP2 PUSH2 0x13FE JUMP JUMPDEST POP SWAP6 SWAP5 POP POP POP POP POP JUMP JUMPDEST PUSH1 0x40 DUP1 MLOAD PUSH1 0x20 DUP1 DUP3 ADD SWAP6 SWAP1 SWAP6 MSTORE DUP1 DUP3 ADD SWAP4 SWAP1 SWAP4 MSTORE PUSH1 0x60 DUP4 ADD SWAP2 SWAP1 SWAP2 MSTORE CHAINID PUSH1 0x80 DUP4 ADD MSTORE ADDRESS PUSH1 0xA0 DUP1 DUP5 ADD SWAP2 SWAP1 SWAP2 MSTORE DUP2 MLOAD DUP1 DUP5 SUB SWAP1 SWAP2 ADD DUP2 MSTORE PUSH1 0xC0 SWAP1 SWAP3 ADD SWAP1 MSTORE DUP1 MLOAD SWAP2 ADD KECCAK256 SWAP1 JUMP JUMPDEST PUSH1 0x0 PUSH2 0xF73 DUP4 DUP4 PUSH1 0x40 MLOAD DUP1 PUSH1 0x40 ADD PUSH1 0x40 MSTORE DUP1 PUSH1 0x1E DUP2 MSTORE PUSH1 0x20 ADD PUSH32 0x536166654D6174683A207375627472616374696F6E206F766572666C6F770000 DUP2 MSTORE POP PUSH2 0xDBB JUMP JUMPDEST DUP1 SLOAD PUSH1 0x1 ADD SWAP1 SSTORE JUMP JUMPDEST PUSH1 0x40 DUP1 MLOAD PUSH32 0x1901000000000000000000000000000000000000000000000000000000000000 PUSH1 0x20 DUP1 DUP4 ADD SWAP2 SWAP1 SWAP2 MSTORE PUSH1 0x22 DUP3 ADD SWAP5 SWAP1 SWAP5 MSTORE PUSH1 0x42 DUP1 DUP3 ADD SWAP4 SWAP1 SWAP4 MSTORE DUP2 MLOAD DUP1 DUP3 SUB SWAP1 SWAP4 ADD DUP4 MSTORE PUSH1 0x62 ADD SWAP1 MSTORE DUP1 MLOAD SWAP2 ADD KECCAK256 SWAP1 JUMP JUMPDEST PUSH1 0x0 DUP1 PUSH32 0x7FFFFFFFFFFFFFFFFFFFFFFFFFFFFFFF5D576E7357A4501DDFE92F46681B20A0 DUP4 GT ISZERO PUSH2 0x1340 JUMPI POP PUSH1 0x0 SWAP1 POP PUSH1 0x3 PUSH2 0x13F5 JUMP JUMPDEST DUP5 PUSH1 0xFF AND PUSH1 0x1B EQ ISZERO DUP1 ISZERO PUSH2 0x1358 JUMPI POP DUP5 PUSH1 0xFF AND PUSH1 0x1C EQ ISZERO JUMPDEST ISZERO PUSH2 0x1369 JUMPI POP PUSH1 0x0 SWAP1 POP PUSH1 0x4 PUSH2 0x13F5 JUMP JUMPDEST PUSH1 0x0 PUSH1 0x1 DUP8 DUP8 DUP8 DUP8 PUSH1 0x40 MLOAD PUSH1 0x0 DUP2 MSTORE PUSH1 0x20 ADD PUSH1 0x40 MSTORE PUSH1 0x40 MLOAD DUP1 DUP6 DUP2 MSTORE PUSH1 0x20 ADD DUP5 PUSH1 0xFF AND DUP2 MSTORE PUSH1 0x20 ADD DUP4 DUP2 MSTORE PUSH1 0x20 ADD DUP3 DUP2 MSTORE PUSH1 0x20 ADD SWAP5 POP POP POP POP POP PUSH1 0x20 PUSH1 0x40 MLOAD PUSH1 0x20 DUP2 SUB SWAP1 DUP1 DUP5 SUB SWAP1 DUP6 GAS STATICCALL ISZERO DUP1 ISZERO PUSH2 0x13C5 JUMPI RETURNDATASIZE PUSH1 0x0 DUP1 RETURNDATACOPY RETURNDATASIZE PUSH1 0x0 REVERT JUMPDEST POP POP PUSH1 0x40 MLOAD PUSH1 0x1F NOT ADD MLOAD SWAP2 POP POP PUSH1 0x1 PUSH1 0x1 PUSH1 0xA0 SHL SUB DUP2 AND PUSH2 0x13EE JUMPI PUSH1 0x0 PUSH1 0x1 SWAP3 POP SWAP3 POP POP PUSH2 0x13F5 JUMP JUMPDEST SWAP2 POP PUSH1 0x0 SWAP1 POP JUMPDEST SWAP5 POP SWAP5 SWAP3 POP POP POP JUMP JUMPDEST PUSH1 0x0 DUP2 PUSH1 0x4 DUP2 GT ISZERO PUSH2 0x140C JUMPI INVALID JUMPDEST EQ ISZERO PUSH2 0x1417 JUMPI PUSH2 0x764 JUMP JUMPDEST PUSH1 0x1 DUP2 PUSH1 0x4 DUP2 GT ISZERO PUSH2 0x1425 JUMPI INVALID JUMPDEST EQ ISZERO PUSH2 0x1478 JUMPI PUSH1 0x40 DUP1 MLOAD PUSH3 0x461BCD PUSH1 0xE5 SHL DUP2 MSTORE PUSH1 0x20 PUSH1 0x4 DUP3 ADD MSTORE PUSH1 0x18 PUSH1 0x24 DUP3 ADD MSTORE PUSH32 0x45434453413A20696E76616C6964207369676E61747572650000000000000000 PUSH1 0x44 DUP3 ADD MSTORE SWAP1 MLOAD SWAP1 DUP2 SWAP1 SUB PUSH1 0x64 ADD SWAP1 REVERT JUMPDEST PUSH1 0x2 DUP2 PUSH1 0x4 DUP2 GT ISZERO PUSH2 0x1486 JUMPI INVALID JUMPDEST EQ ISZERO PUSH2 0x14D9 JUMPI PUSH1 0x40 DUP1 MLOAD PUSH3 0x461BCD PUSH1 0xE5 SHL DUP2 MSTORE PUSH1 0x20 PUSH1 0x4 DUP3 ADD MSTORE PUSH1 0x1F PUSH1 0x24 DUP3 ADD MSTORE PUSH32 0x45434453413A20696E76616C6964207369676E6174757265206C656E67746800 PUSH1 0x44 DUP3 ADD MSTORE SWAP1 MLOAD SWAP1 DUP2 SWAP1 SUB PUSH1 0x64 ADD SWAP1 REVERT JUMPDEST PUSH1 0x3 DUP2 PUSH1 0x4 DUP2 GT ISZERO PUSH2 0x14E7 JUMPI INVALID JUMPDEST EQ ISZERO PUSH2 0x1524 JUMPI PUSH1 0x40 MLOAD PUSH3 0x461BCD PUSH1 0xE5 SHL DUP2 MSTORE PUSH1 0x4 ADD DUP1 DUP1 PUSH1 0x20 ADD DUP3 DUP2 SUB DUP3 MSTORE PUSH1 0x22 DUP2 MSTORE PUSH1 0x20 ADD DUP1 PUSH2 0x15FD PUSH1 0x22 SWAP2 CODECOPY PUSH1 0x40 ADD SWAP2 POP POP PUSH1 0x40 MLOAD DUP1 SWAP2 SUB SWAP1 REVERT JUMPDEST PUSH1 0x4 DUP2 PUSH1 0x4 DUP2 GT ISZERO PUSH2 0x1532 JUMPI INVALID JUMPDEST EQ ISZERO PUSH2 0x764 JUMPI PUSH1 0x40 MLOAD PUSH3 0x461BCD PUSH1 0xE5 SHL DUP2 MSTORE PUSH1 0x4 ADD DUP1 DUP1 PUSH1 0x20 ADD DUP3 DUP2 SUB DUP3 MSTORE PUSH1 0x22 DUP2 MSTORE PUSH1 0x20 ADD DUP1 PUSH2 0x161F PUSH1 0x22 SWAP2 CODECOPY PUSH1 0x40 ADD SWAP2 POP POP PUSH1 0x40 MLOAD DUP1 SWAP2 SUB SWAP1 REVERT INVALID GASLIMIT MSTORE NUMBER ORIGIN ADDRESS GASPRICE KECCAK256 PUSH21 0x72616E7366657220746F20746865207A65726F2061 PUSH5 0x6472657373 GASLIMIT MSTORE NUMBER ORIGIN ADDRESS GASPRICE KECCAK256 PUSH3 0x75726E KECCAK256 PUSH2 0x6D6F PUSH22 0x6E7420657863656564732062616C616E636545524332 ADDRESS GASPRICE KECCAK256 PUSH2 0x7070 PUSH19 0x6F766520746F20746865207A65726F20616464 PUSH19 0x65737345524332303A207472616E7366657220 PUSH2 0x6D6F PUSH22 0x6E7420657863656564732062616C616E636545434453 COINBASE GASPRICE KECCAK256 PUSH10 0x6E76616C696420736967 PUSH15 0x6174757265202773272076616C7565 GASLIMIT NUMBER DIFFICULTY MSTORE8 COINBASE GASPRICE KECCAK256 PUSH10 0x6E76616C696420736967 PUSH15 0x6174757265202776272076616C7565 GASLIMIT MSTORE NUMBER ORIGIN ADDRESS GASPRICE KECCAK256 PUSH21 0x72616E7366657220616D6F756E7420657863656564 PUSH20 0x20616C6C6F77616E636545524332303A20627572 PUSH15 0x20616D6F756E742065786365656473 KECCAK256 PUSH2 0x6C6C PUSH16 0x77616E636545524332303A206275726E KECCAK256 PUSH7 0x726F6D20746865 KECCAK256 PUSH27 0x65726F206164647265737345524332303A207472616E7366657220 PUSH7 0x726F6D20746865 KECCAK256 PUSH27 0x65726F206164647265737345524332303A20617070726F76652066 PUSH19 0x6F6D20746865207A65726F2061646472657373 GASLIMIT MSTORE NUMBER ORIGIN ADDRESS GASPRICE KECCAK256 PUSH5 0x6563726561 PUSH20 0x656420616C6C6F77616E63652062656C6F77207A PUSH6 0x726FA2646970 PUSH7 0x7358221220A992 GAS KECCAK256 SUB PUSH17 0x7A9B92A6CD44B17125A2EEE1D938BE679D SWAP12 PC 0xCE SWAP9 PUSH18 0x33C74AA864736F6C63430007050033000000 "
				},
				"gasEstimates": {
					"creation": {
						"codeDepositCost": "1193800",
						"executionCost": "infinite",
						"totalCost": "infinite"
					},
					"external": {
						"DOMAIN_SEPARATOR()": "infinite",
						"allowance(address,address)": "1338",
						"approve(address,uint256)": "infinite",
						"authority()": "1081",
						"balanceOf(address)": "1191",
						"burn(uint256)": "infinite",
						"burnFrom(address,uint256)": "infinite",
						"decimals()": "infinite",
						"decreaseAllowance(address,uint256)": "infinite",
						"increaseAllowance(address,uint256)": "infinite",
						"mint(address,uint256)": "infinite",
						"name()": "infinite",
						"nonces(address)": "1249",
						"permit(address,address,uint256,uint256,uint8,bytes32,bytes32)": "infinite",
						"setAuthority(address)": "infinite",
						"symbol()": "infinite",
						"totalSupply()": "1066",
						"transfer(address,uint256)": "infinite",
						"transferFrom(address,address,uint256)": "infinite"
					},
					"internal": {
						"_burnFrom(address,uint256)": "infinite"
					}
				},
				"methodIdentifiers": {
					"DOMAIN_SEPARATOR()": "3644e515",
					"allowance(address,address)": "dd62ed3e",
					"approve(address,uint256)": "095ea7b3",
					"authority()": "bf7e214f",
					"balanceOf(address)": "70a08231",
					"burn(uint256)": "42966c68",
					"burnFrom(address,uint256)": "79cc6790",
					"decimals()": "313ce567",
					"decreaseAllowance(address,uint256)": "a457c2d7",
					"increaseAllowance(address,uint256)": "39509351",
					"mint(address,uint256)": "40c10f19",
					"name()": "06fdde03",
					"nonces(address)": "7ecebe00",
					"permit(address,address,uint256,uint256,uint8,bytes32,bytes32)": "d505accf",
					"setAuthority(address)": "7a9e5e4b",
					"symbol()": "95d89b41",
					"totalSupply()": "18160ddd",
					"transfer(address,uint256)": "a9059cbb",
					"transferFrom(address,address,uint256)": "23b872dd"
				}
			},
			"storageLayout": {
				"storage": [
					{
						"astId": 573,
						"contract": "ExodusERC20Token/OlympusERC20.sol:ExodusERC20Token",
						"label": "_balances",
						"offset": 0,
						"slot": "0",
						"type": "t_mapping(t_address,t_uint256)"
					},
					{
						"astId": 579,
						"contract": "ExodusERC20Token/OlympusERC20.sol:ExodusERC20Token",
						"label": "_allowances",
						"offset": 0,
						"slot": "1",
						"type": "t_mapping(t_address,t_mapping(t_address,t_uint256))"
					},
					{
						"astId": 581,
						"contract": "ExodusERC20Token/OlympusERC20.sol:ExodusERC20Token",
						"label": "_totalSupply",
						"offset": 0,
						"slot": "2",
						"type": "t_uint256"
					},
					{
						"astId": 583,
						"contract": "ExodusERC20Token/OlympusERC20.sol:ExodusERC20Token",
						"label": "_name",
						"offset": 0,
						"slot": "3",
						"type": "t_string_storage"
					},
					{
						"astId": 585,
						"contract": "ExodusERC20Token/OlympusERC20.sol:ExodusERC20Token",
						"label": "_symbol",
						"offset": 0,
						"slot": "4",
						"type": "t_string_storage"
					},
					{
						"astId": 1054,
						"contract": "ExodusERC20Token/OlympusERC20.sol:ExodusERC20Token",
						"label": "_nonces",
						"offset": 0,
						"slot": "5",
						"type": "t_mapping(t_address,t_struct(Counter)8_storage)"
					},
					{
						"astId": 1418,
						"contract": "ExodusERC20Token/OlympusERC20.sol:ExodusERC20Token",
						"label": "UNAUTHORIZED",
						"offset": 0,
						"slot": "6",
						"type": "t_string_storage"
					},
					{
						"astId": 1420,
						"contract": "ExodusERC20Token/OlympusERC20.sol:ExodusERC20Token",
						"label": "authority",
						"offset": 0,
						"slot": "7",
						"type": "t_contract(IExodusAuthority)1408"
					}
				],
				"types": {
					"t_address": {
						"encoding": "inplace",
						"label": "address",
						"numberOfBytes": "20"
					},
					"t_contract(IExodusAuthority)1408": {
						"encoding": "inplace",
						"label": "contract IExodusAuthority",
						"numberOfBytes": "20"
					},
					"t_mapping(t_address,t_mapping(t_address,t_uint256))": {
						"encoding": "mapping",
						"key": "t_address",
						"label": "mapping(address => mapping(address => uint256))",
						"numberOfBytes": "32",
						"value": "t_mapping(t_address,t_uint256)"
					},
					"t_mapping(t_address,t_struct(Counter)8_storage)": {
						"encoding": "mapping",
						"key": "t_address",
						"label": "mapping(address => struct Counters.Counter)",
						"numberOfBytes": "32",
						"value": "t_struct(Counter)8_storage"
					},
					"t_mapping(t_address,t_uint256)": {
						"encoding": "mapping",
						"key": "t_address",
						"label": "mapping(address => uint256)",
						"numberOfBytes": "32",
						"value": "t_uint256"
					},
					"t_string_storage": {
						"encoding": "bytes",
						"label": "string",
						"numberOfBytes": "32"
					},
					"t_struct(Counter)8_storage": {
						"encoding": "inplace",
						"label": "struct Counters.Counter",
						"members": [
							{
								"astId": 7,
								"contract": "ExodusERC20Token/OlympusERC20.sol:ExodusERC20Token",
								"label": "_value",
								"offset": 0,
								"slot": "0",
								"type": "t_uint256"
							}
						],
						"numberOfBytes": "32"
					},
					"t_uint256": {
						"encoding": "inplace",
						"label": "uint256",
						"numberOfBytes": "32"
					}
				}
			},
			"userdoc": {
				"kind": "user",
				"methods": {},
				"version": 1
			}
		}
	}
}