{
	"ExodusTreasury/Treasury.sol": {
		"ExodusTreasury": {
			"abi": [
				{
					"inputs": [
						{
							"internalType": "address",
							"name": "_exo",
							"type": "address"
						},
						{
							"internalType": "uint256",
							"name": "_timelock",
							"type": "uint256"
						},
						{
							"internalType": "address",
							"name": "_authority",
							"type": "address"
						}
					],
					"stateMutability": "nonpayable",
					"type": "constructor"
				},
				{
					"anonymous": false,
					"inputs": [
						{
							"indexed": true,
							"internalType": "contract IExodusAuthority",
							"name": "authority",
							"type": "address"
						}
					],
					"name": "AuthorityUpdated",
					"type": "event"
				},
				{
					"anonymous": false,
					"inputs": [
						{
							"indexed": true,
							"internalType": "address",
							"name": "debtor",
							"type": "address"
						},
						{
							"indexed": true,
							"internalType": "address",
							"name": "token",
							"type": "address"
						},
						{
							"indexed": false,
							"internalType": "uint256",
							"name": "amount",
							"type": "uint256"
						},
						{
							"indexed": false,
							"internalType": "uint256",
							"name": "value",
							"type": "uint256"
						}
					],
					"name": "CreateDebt",
					"type": "event"
				},
				{
					"anonymous": false,
					"inputs": [
						{
							"indexed": true,
							"internalType": "address",
							"name": "token",
							"type": "address"
						},
						{
							"indexed": false,
							"internalType": "uint256",
							"name": "amount",
							"type": "uint256"
						},
						{
							"indexed": false,
							"internalType": "uint256",
							"name": "value",
							"type": "uint256"
						}
					],
					"name": "Deposit",
					"type": "event"
				},
				{
					"anonymous": false,
					"inputs": [
						{
							"indexed": true,
							"internalType": "address",
							"name": "token",
							"type": "address"
						},
						{
							"indexed": false,
							"internalType": "uint256",
							"name": "amount",
							"type": "uint256"
						}
					],
					"name": "Managed",
					"type": "event"
				},
				{
					"anonymous": false,
					"inputs": [
						{
							"indexed": true,
							"internalType": "address",
							"name": "caller",
							"type": "address"
						},
						{
							"indexed": true,
							"internalType": "address",
							"name": "recipient",
							"type": "address"
						},
						{
							"indexed": false,
							"internalType": "uint256",
							"name": "amount",
							"type": "uint256"
						}
					],
					"name": "Minted",
					"type": "event"
				},
				{
					"anonymous": false,
					"inputs": [
						{
							"indexed": true,
							"internalType": "enum ExodusTreasury.STATUS",
							"name": "status",
							"type": "uint8"
						},
						{
							"indexed": false,
							"internalType": "address",
							"name": "queued",
							"type": "address"
						}
					],
					"name": "PermissionQueued",
					"type": "event"
				},
				{
					"anonymous": false,
					"inputs": [
						{
							"indexed": false,
							"internalType": "address",
							"name": "addr",
							"type": "address"
						},
						{
							"indexed": true,
							"internalType": "enum ExodusTreasury.STATUS",
							"name": "status",
							"type": "uint8"
						},
						{
							"indexed": false,
							"internalType": "bool",
							"name": "result",
							"type": "bool"
						}
					],
					"name": "Permissioned",
					"type": "event"
				},
				{
					"anonymous": false,
					"inputs": [
						{
							"indexed": true,
							"internalType": "address",
							"name": "debtor",
							"type": "address"
						},
						{
							"indexed": true,
							"internalType": "address",
							"name": "token",
							"type": "address"
						},
						{
							"indexed": false,
							"internalType": "uint256",
							"name": "amount",
							"type": "uint256"
						},
						{
							"indexed": false,
							"internalType": "uint256",
							"name": "value",
							"type": "uint256"
						}
					],
					"name": "RepayDebt",
					"type": "event"
				},
				{
					"anonymous": false,
					"inputs": [
						{
							"indexed": true,
							"internalType": "uint256",
							"name": "totalReserves",
							"type": "uint256"
						}
					],
					"name": "ReservesAudited",
					"type": "event"
				},
				{
					"anonymous": false,
					"inputs": [
						{
							"indexed": true,
							"internalType": "address",
							"name": "token",
							"type": "address"
						},
						{
							"indexed": false,
							"internalType": "uint256",
							"name": "amount",
							"type": "uint256"
						},
						{
							"indexed": false,
							"internalType": "uint256",
							"name": "value",
							"type": "uint256"
						}
					],
					"name": "Withdrawal",
					"type": "event"
				},
				{
					"inputs": [],
					"name": "EXO",
					"outputs": [
						{
							"internalType": "contract IEXO",
							"name": "",
							"type": "address"
						}
					],
					"stateMutability": "view",
					"type": "function"
				},
				{
					"inputs": [],
					"name": "auditReserves",
					"outputs": [],
					"stateMutability": "nonpayable",
					"type": "function"
				},
				{
					"inputs": [],
					"name": "authority",
					"outputs": [
						{
							"internalType": "contract IExodusAuthority",
							"name": "",
							"type": "address"
						}
					],
					"stateMutability": "view",
					"type": "function"
				},
				{
					"inputs": [],
					"name": "baseSupply",
					"outputs": [
						{
							"internalType": "uint256",
							"name": "",
							"type": "uint256"
						}
					],
					"stateMutability": "view",
					"type": "function"
				},
				{
					"inputs": [],
					"name": "blocksNeededForQueue",
					"outputs": [
						{
							"internalType": "uint256",
							"name": "",
							"type": "uint256"
						}
					],
					"stateMutability": "view",
					"type": "function"
				},
				{
					"inputs": [
						{
							"internalType": "address",
							"name": "",
							"type": "address"
						}
					],
					"name": "bondCalculator",
					"outputs": [
						{
							"internalType": "address",
							"name": "",
							"type": "address"
						}
					],
					"stateMutability": "view",
					"type": "function"
				},
				{
					"inputs": [
						{
							"internalType": "address",
							"name": "",
							"type": "address"
						}
					],
					"name": "debtLimit",
					"outputs": [
						{
							"internalType": "uint256",
							"name": "",
							"type": "uint256"
						}
					],
					"stateMutability": "view",
					"type": "function"
				},
				{
					"inputs": [
						{
							"internalType": "uint256",
							"name": "_amount",
							"type": "uint256"
						},
						{
							"internalType": "address",
							"name": "_token",
							"type": "address"
						},
						{
							"internalType": "uint256",
							"name": "_profit",
							"type": "uint256"
						}
					],
					"name": "deposit",
					"outputs": [
						{
							"internalType": "uint256",
							"name": "send_",
							"type": "uint256"
						}
					],
					"stateMutability": "nonpayable",
					"type": "function"
				},
				{
					"inputs": [
						{
							"internalType": "enum ExodusTreasury.STATUS",
							"name": "_status",
							"type": "uint8"
						},
						{
							"internalType": "address",
							"name": "_toDisable",
							"type": "address"
						}
					],
					"name": "disable",
					"outputs": [],
					"stateMutability": "nonpayable",
					"type": "function"
				},
				{
					"inputs": [],
					"name": "disableTimelock",
					"outputs": [],
					"stateMutability": "nonpayable",
					"type": "function"
				},
				{
					"inputs": [
						{
							"internalType": "enum ExodusTreasury.STATUS",
							"name": "_status",
							"type": "uint8"
						},
						{
							"internalType": "address",
							"name": "_address",
							"type": "address"
						},
						{
							"internalType": "address",
							"name": "_calculator",
							"type": "address"
						}
					],
					"name": "enable",
					"outputs": [],
					"stateMutability": "nonpayable",
					"type": "function"
				},
				{
					"inputs": [],
					"name": "excessReserves",
					"outputs": [
						{
							"internalType": "uint256",
							"name": "",
							"type": "uint256"
						}
					],
					"stateMutability": "view",
					"type": "function"
				},
				{
					"inputs": [
						{
							"internalType": "uint256",
							"name": "_index",
							"type": "uint256"
						}
					],
					"name": "execute",
					"outputs": [],
					"stateMutability": "nonpayable",
					"type": "function"
				},
				{
					"inputs": [],
					"name": "exoDebt",
					"outputs": [
						{
							"internalType": "uint256",
							"name": "",
							"type": "uint256"
						}
					],
					"stateMutability": "view",
					"type": "function"
				},
				{
					"inputs": [
						{
							"internalType": "uint256",
							"name": "_amount",
							"type": "uint256"
						},
						{
							"internalType": "address",
							"name": "_token",
							"type": "address"
						}
					],
					"name": "incurDebt",
					"outputs": [],
					"stateMutability": "nonpayable",
					"type": "function"
				},
				{
					"inputs": [
						{
							"internalType": "address",
							"name": "_address",
							"type": "address"
						},
						{
							"internalType": "enum ExodusTreasury.STATUS",
							"name": "_status",
							"type": "uint8"
						}
					],
					"name": "indexInRegistry",
					"outputs": [
						{
							"internalType": "bool",
							"name": "",
							"type": "bool"
						},
						{
							"internalType": "uint256",
							"name": "",
							"type": "uint256"
						}
					],
					"stateMutability": "view",
					"type": "function"
				},
				{
					"inputs": [],
					"name": "initialize",
					"outputs": [],
					"stateMutability": "nonpayable",
					"type": "function"
				},
				{
					"inputs": [],
					"name": "initialized",
					"outputs": [
						{
							"internalType": "bool",
							"name": "",
							"type": "bool"
						}
					],
					"stateMutability": "view",
					"type": "function"
				},
				{
					"inputs": [
						{
							"internalType": "address",
							"name": "_token",
							"type": "address"
						},
						{
							"internalType": "uint256",
							"name": "_amount",
							"type": "uint256"
						}
					],
					"name": "manage",
					"outputs": [],
					"stateMutability": "nonpayable",
					"type": "function"
				},
				{
					"inputs": [
						{
							"internalType": "address",
							"name": "_recipient",
							"type": "address"
						},
						{
							"internalType": "uint256",
							"name": "_amount",
							"type": "uint256"
						}
					],
					"name": "mint",
					"outputs": [],
					"stateMutability": "nonpayable",
					"type": "function"
				},
				{
					"inputs": [
						{
							"internalType": "uint256",
							"name": "_index",
							"type": "uint256"
						}
					],
					"name": "nullify",
					"outputs": [],
					"stateMutability": "nonpayable",
					"type": "function"
				},
				{
					"inputs": [],
					"name": "onChainGovernanceTimelock",
					"outputs": [
						{
							"internalType": "uint256",
							"name": "",
							"type": "uint256"
						}
					],
					"stateMutability": "view",
					"type": "function"
				},
				{
					"inputs": [
						{
							"internalType": "uint256",
							"name": "",
							"type": "uint256"
						}
					],
					"name": "permissionQueue",
					"outputs": [
						{
							"internalType": "enum ExodusTreasury.STATUS",
							"name": "managing",
							"type": "uint8"
						},
						{
							"internalType": "address",
							"name": "toPermit",
							"type": "address"
						},
						{
							"internalType": "address",
							"name": "calculator",
							"type": "address"
						},
						{
							"internalType": "uint256",
							"name": "timelockEnd",
							"type": "uint256"
						},
						{
							"internalType": "bool",
							"name": "nullify",
							"type": "bool"
						},
						{
							"internalType": "bool",
							"name": "executed",
							"type": "bool"
						}
					],
					"stateMutability": "view",
					"type": "function"
				},
				{
					"inputs": [
						{
							"internalType": "enum ExodusTreasury.STATUS",
							"name": "",
							"type": "uint8"
						},
						{
							"internalType": "address",
							"name": "",
							"type": "address"
						}
					],
					"name": "permissions",
					"outputs": [
						{
							"internalType": "bool",
							"name": "",
							"type": "bool"
						}
					],
					"stateMutability": "view",
					"type": "function"
				},
				{
					"inputs": [
						{
							"internalType": "enum ExodusTreasury.STATUS",
							"name": "_status",
							"type": "uint8"
						},
						{
							"internalType": "address",
							"name": "_address",
							"type": "address"
						},
						{
							"internalType": "address",
							"name": "_calculator",
							"type": "address"
						}
					],
					"name": "queueTimelock",
					"outputs": [],
					"stateMutability": "nonpayable",
					"type": "function"
				},
				{
					"inputs": [
						{
							"internalType": "enum ExodusTreasury.STATUS",
							"name": "",
							"type": "uint8"
						},
						{
							"internalType": "uint256",
							"name": "",
							"type": "uint256"
						}
					],
					"name": "registry",
					"outputs": [
						{
							"internalType": "address",
							"name": "",
							"type": "address"
						}
					],
					"stateMutability": "view",
					"type": "function"
				},
				{
					"inputs": [
						{
							"internalType": "uint256",
							"name": "_amount",
							"type": "uint256"
						}
					],
					"name": "repayDebtWithOHM",
					"outputs": [],
					"stateMutability": "nonpayable",
					"type": "function"
				},
				{
					"inputs": [
						{
							"internalType": "uint256",
							"name": "_amount",
							"type": "uint256"
						},
						{
							"internalType": "address",
							"name": "_token",
							"type": "address"
						}
					],
					"name": "repayDebtWithReserve",
					"outputs": [],
					"stateMutability": "nonpayable",
					"type": "function"
				},
				{
					"inputs": [],
					"name": "sEXO",
					"outputs": [
						{
							"internalType": "contract IsEXO",
							"name": "",
							"type": "address"
						}
					],
					"stateMutability": "view",
					"type": "function"
				},
				{
					"inputs": [
						{
							"internalType": "contract IExodusAuthority",
							"name": "_newAuthority",
							"type": "address"
						}
					],
					"name": "setAuthority",
					"outputs": [],
					"stateMutability": "nonpayable",
					"type": "function"
				},
				{
					"inputs": [
						{
							"internalType": "address",
							"name": "_address",
							"type": "address"
						},
						{
							"internalType": "uint256",
							"name": "_limit",
							"type": "uint256"
						}
					],
					"name": "setDebtLimit",
					"outputs": [],
					"stateMutability": "nonpayable",
					"type": "function"
				},
				{
					"inputs": [],
					"name": "timelockEnabled",
					"outputs": [
						{
							"internalType": "bool",
							"name": "",
							"type": "bool"
						}
					],
					"stateMutability": "view",
					"type": "function"
				},
				{
					"inputs": [
						{
							"internalType": "address",
							"name": "_token",
							"type": "address"
						},
						{
							"internalType": "uint256",
							"name": "_amount",
							"type": "uint256"
						}
					],
					"name": "tokenValue",
					"outputs": [
						{
							"internalType": "uint256",
							"name": "value_",
							"type": "uint256"
						}
					],
					"stateMutability": "view",
					"type": "function"
				},
				{
					"inputs": [],
					"name": "totalDebt",
					"outputs": [
						{
							"internalType": "uint256",
							"name": "",
							"type": "uint256"
						}
					],
					"stateMutability": "view",
					"type": "function"
				},
				{
					"inputs": [],
					"name": "totalReserves",
					"outputs": [
						{
							"internalType": "uint256",
							"name": "",
							"type": "uint256"
						}
					],
					"stateMutability": "view",
					"type": "function"
				},
				{
					"inputs": [
						{
							"internalType": "uint256",
							"name": "_amount",
							"type": "uint256"
						},
						{
							"internalType": "address",
							"name": "_token",
							"type": "address"
						}
					],
					"name": "withdraw",
					"outputs": [],
					"stateMutability": "nonpayable",
					"type": "function"
				}
			],
			"devdoc": {
				"kind": "dev",
				"methods": {
					"baseSupply()": {
						"details": "use this any time you need to query supply",
						"returns": {
							"_0": "uint256"
						}
					},
					"deposit(uint256,address,uint256)": {
						"params": {
							"_amount": "uint256",
							"_profit": "uint256",
							"_token": "address"
						},
						"returns": {
							"send_": "uint256"
						}
					},
					"disable(uint8,address)": {
						"params": {
							"_status": "STATUS",
							"_toDisable": "address"
						}
					},
					"enable(uint8,address,address)": {
						"params": {
							"_address": "address",
							"_calculator": "address",
							"_status": "STATUS"
						}
					},
					"excessReserves()": {
						"returns": {
							"_0": "uint"
						}
					},
					"execute(uint256)": {
						"params": {
							"_index": "uint256"
						}
					},
					"incurDebt(uint256,address)": {
						"params": {
							"_amount": "uint256",
							"_token": "address"
						}
					},
					"indexInRegistry(address,uint8)": {
						"returns": {
							"_0": "(bool, uint256)"
						}
					},
					"manage(address,uint256)": {
						"params": {
							"_amount": "uint256",
							"_token": "address"
						}
					},
					"mint(address,uint256)": {
						"params": {
							"_amount": "uint256",
							"_recipient": "address"
						}
					},
					"nullify(uint256)": {
						"params": {
							"_index": "uint256"
						}
					},
					"queueTimelock(uint8,address,address)": {
						"params": {
							"_address": "address",
							"_calculator": "address",
							"_status": "STATUS"
						}
					},
					"repayDebtWithOHM(uint256)": {
						"params": {
							"_amount": "uint256"
						}
					},
					"repayDebtWithReserve(uint256,address)": {
						"params": {
							"_amount": "uint256",
							"_token": "address"
						}
					},
					"setDebtLimit(address,uint256)": {
						"params": {
							"_address": "address",
							"_limit": "uint256"
						}
					},
					"tokenValue(address,uint256)": {
						"params": {
							"_amount": "uint256",
							"_token": "address"
						},
						"returns": {
							"value_": "uint256"
						}
					},
					"withdraw(uint256,address)": {
						"params": {
							"_amount": "uint256",
							"_token": "address"
						}
					}
				},
				"version": 1
			},
			"evm": {
				"assembly": "    /* \"ExodusTreasury/OlympusAccessControlled.sol\":255:291  string UNAUTHORIZED = \"UNAUTHORIZED\" */\n  0x0100\n    /* \"ExodusTreasury/Treasury.sol\":339:17379  contract ExodusTreasury is ExodusAccessControlled, ITreasury {... */\n  0x40\n    /* \"ExodusTreasury/OlympusAccessControlled.sol\":255:291  string UNAUTHORIZED = \"UNAUTHORIZED\" */\n  mstore\n  0x0c\n    /* \"ExodusTreasury/Treasury.sol\":339:17379  contract ExodusTreasury is ExodusAccessControlled, ITreasury {... */\n  0xc0\n    /* \"ExodusTreasury/OlympusAccessControlled.sol\":255:291  string UNAUTHORIZED = \"UNAUTHORIZED\" */\n  dup2\n  swap1\n  mstore\n  shl(0xa2, 0x15539055551213d492569151)\n  0xe0\n  swap1\n  dup2\n  mstore\n  tag_1\n  swap2\n  0x00\n  swap2\n  swap1\n  tag_2\n  jump\t// in\ntag_1:\n  pop\n    /* \"ExodusTreasury/Treasury.sol\":2373:2427  string internal notAccepted = \"Treasury: not accepted\" */\n  0x40\n  dup1\n  mload\n  dup1\n  dup3\n  add\n  swap1\n  swap2\n  mstore\n  0x16\n  dup1\n  dup3\n  mstore\n  0x54726561737572793a206e6f7420616363657074656400000000000000000000\n  0x20\n  swap1\n  swap3\n  add\n  swap2\n  dup3\n  mstore\n  tag_3\n  swap2\n  0x0d\n  swap2\n  tag_2\n  jump\t// in\ntag_3:\n  pop\n    /* \"ExodusTreasury/Treasury.sol\":2433:2487  string internal notApproved = \"Treasury: not approved\" */\n  0x40\n  dup1\n  mload\n  dup1\n  dup3\n  add\n  swap1\n  swap2\n  mstore\n  0x16\n  dup1\n  dup3\n  mstore\n  0x54726561737572793a206e6f7420617070726f76656400000000000000000000\n  0x20\n  swap1\n  swap3\n  add\n  swap2\n  dup3\n  mstore\n  tag_4\n  swap2\n  0x0e\n  swap2\n  tag_2\n  jump\t// in\ntag_4:\n  pop\n    /* \"ExodusTreasury/Treasury.sol\":2493:2549  string internal invalidToken = \"Treasury: invalid token\" */\n  0x40\n  dup1\n  mload\n  dup1\n  dup3\n  add\n  swap1\n  swap2\n  mstore\n  0x17\n  dup1\n  dup3\n  mstore\n  0x54726561737572793a20696e76616c696420746f6b656e000000000000000000\n  0x20\n  swap1\n  swap3\n  add\n  swap2\n  dup3\n  mstore\n  tag_5\n  swap2\n  0x0f\n  swap2\n  tag_2\n  jump\t// in\ntag_5:\n  pop\n    /* \"ExodusTreasury/Treasury.sol\":2555:2627  string internal insufficientReserves = \"Treasury: insufficient reserves\" */\n  0x40\n  dup1\n  mload\n  dup1\n  dup3\n  add\n  swap1\n  swap2\n  mstore\n  0x1f\n  dup1\n  dup3\n  mstore\n  0x54726561737572793a20696e73756666696369656e7420726573657276657300\n  0x20\n  swap1\n  swap3\n  add\n  swap2\n  dup3\n  mstore\n  tag_6\n  swap2\n  0x10\n  swap2\n  tag_2\n  jump\t// in\ntag_6:\n  pop\n    /* \"ExodusTreasury/Treasury.sol\":2679:3023  constructor(... */\n  callvalue\n  dup1\n  iszero\n  tag_7\n  jumpi\n  0x00\n  dup1\n  revert\ntag_7:\n  pop\n  mload(0x40)\n  sub(codesize, bytecodeSize)\n  dup1\n  bytecodeSize\n  dup4\n  codecopy\n  dup2\n  dup2\n  add\n  0x40\n  mstore\n  0x60\n  dup2\n  lt\n  iszero\n  tag_8\n  jumpi\n  0x00\n  dup1\n  revert\ntag_8:\n  pop\n  dup1\n  mload\n  0x20\n  dup3\n  add\n  mload\n  0x40\n  swap3\n  dup4\n  add\n  mload\n    /* \"ExodusTreasury/OlympusAccessControlled.sol\":495:504  authority */\n  0x01\n    /* \"ExodusTreasury/OlympusAccessControlled.sol\":495:517  authority = _authority */\n  dup1\n  sload\n  not(sub(shl(0xa0, 0x01), 0x01))\n  and\n  sub(shl(0xa0, 0x01), 0x01)\n  dup4\n  and\n  swap1\n  dup2\n  or\n  swap1\n  swap2\n  sstore\n    /* \"ExodusTreasury/OlympusAccessControlled.sol\":532:560  AuthorityUpdated(_authority) */\n  swap4\n  mload\n    /* \"ExodusTreasury/Treasury.sol\":2679:3023  constructor(... */\n  swap3\n  swap4\n  swap2\n  swap3\n  swap1\n  swap2\n  dup3\n  swap2\n    /* \"ExodusTreasury/OlympusAccessControlled.sol\":532:560  AuthorityUpdated(_authority) */\n  0x2f658b440c35314f52658ea8a740e05b284cdc84dc9ae01e891f21b8933e7cad\n  swap1\n  0x00\n  swap1\n  log2\n  pop\n  sub(shl(0xa0, 0x01), 0x01)\n    /* \"ExodusTreasury/Treasury.sol\":2845:2863  _exo != address(0) */\n  dup4\n  and\n    /* \"ExodusTreasury/Treasury.sol\":2837:2885  require(_exo != address(0), \"Zero address: EXO\") */\n  tag_13\n  jumpi\n  0x40\n  dup1\n  mload\n  shl(0xe5, 0x461bcd)\n  dup2\n  mstore\n  0x20\n  0x04\n  dup3\n  add\n  mstore\n  0x11\n  0x24\n  dup3\n  add\n  mstore\n  shl(0x78, 0x5a65726f20616464726573733a2045584f)\n  0x44\n  dup3\n  add\n  mstore\n  swap1\n  mload\n  swap1\n  dup2\n  swap1\n  sub\n  0x64\n  add\n  swap1\n  revert\ntag_13:\n  pop\n    /* \"ExodusTreasury/Treasury.sol\":2895:2911  EXO = IEXO(_exo) */\n  0x60\n  swap2\n  swap1\n  swap2\n  shl\n  not(sub(shl(0x60, 0x01), 0x01))\n  and\n  0x80\n  mstore\n    /* \"ExodusTreasury/Treasury.sol\":2922:2937  timelockEnabled */\n  0x0b\n    /* \"ExodusTreasury/Treasury.sol\":2922:2945  timelockEnabled = false */\n  dup1\n  sload\n  not(0xffff)\n    /* \"ExodusTreasury/Treasury.sol\":2955:2974  initialized = false */\n  and\n  swap1\n  sstore\n    /* \"ExodusTreasury/Treasury.sol\":2984:3016  blocksNeededForQueue = _timelock */\n  0xa0\n  mstore\n    /* \"ExodusTreasury/Treasury.sol\":339:17379  contract ExodusTreasury is ExodusAccessControlled, ITreasury {... */\n  jump(tag_14)\ntag_2:\n  dup3\n  dup1\n  sload\n  0x01\n  dup2\n  0x01\n  and\n  iszero\n  0x0100\n  mul\n  sub\n  and\n  0x02\n  swap1\n  div\n  swap1\n  0x00\n  mstore\n  keccak256(0x00, 0x20)\n  swap1\n  0x1f\n  add\n  0x20\n  swap1\n  div\n  dup2\n  add\n  swap3\n  dup3\n  tag_16\n  jumpi\n  0x00\n  dup6\n  sstore\n  jump(tag_19)\ntag_16:\n  dup3\n  0x1f\n  lt\n  tag_17\n  jumpi\n  dup1\n  mload\n  not(0xff)\n  and\n  dup4\n  dup1\n  add\n  or\n  dup6\n  sstore\n  jump(tag_19)\ntag_17:\n  dup3\n  dup1\n  add\n  0x01\n  add\n  dup6\n  sstore\n  dup3\n  iszero\n  tag_19\n  jumpi\n  swap2\n  dup3\n  add\ntag_18:\n  dup3\n  dup2\n  gt\n  iszero\n  tag_19\n  jumpi\n  dup3\n  mload\n  dup3\n  sstore\n  swap2\n  0x20\n  add\n  swap2\n  swap1\n  0x01\n  add\n  swap1\n  jump(tag_18)\ntag_19:\n  pop\n  tag_20\n  swap3\n  swap2\n  pop\n  tag_21\n  jump\t// in\ntag_20:\n  pop\n  swap1\n  jump\t// out\ntag_21:\ntag_22:\n  dup1\n  dup3\n  gt\n  iszero\n  tag_20\n  jumpi\n  0x00\n  dup2\n  sstore\n  0x01\n  add\n  jump(tag_22)\ntag_14:\n  shr(0x60, mload(0x80))\n  mload(0xa0)\n  codecopy(0x00, dataOffset(sub_0), dataSize(sub_0))\n  assignImmutable(\"0xced2926accb5b65113b9dfa04c89dc1608287373834acba62edea43e130eddaa\")\n  assignImmutable(\"0xa423c60bc1787d67fffc27d03c64206552502a85ae4c5cd0abbc1461b537b9d1\")\n  return(0x00, dataSize(sub_0))\nstop\n\nsub_0: assembly {\n        /* \"ExodusTreasury/Treasury.sol\":339:17379  contract ExodusTreasury is ExodusAccessControlled, ITreasury {... */\n      mstore(0x40, 0x80)\n      callvalue\n      dup1\n      iszero\n      tag_1\n      jumpi\n      0x00\n      dup1\n      revert\n    tag_1:\n      pop\n      jumpi(tag_2, lt(calldatasize, 0x04))\n      shr(0xe0, calldataload(0x00))\n      dup1\n      0x7d921af0\n      gt\n      tag_39\n      jumpi\n      dup1\n      0xb39df88e\n      gt\n      tag_40\n      jumpi\n      dup1\n      0xd796ffb8\n      gt\n      tag_41\n      jumpi\n      dup1\n      0xf1821783\n      gt\n      tag_42\n      jumpi\n      dup1\n      0xf1821783\n      eq\n      tag_36\n      jumpi\n      dup1\n      0xfc7b9c18\n      eq\n      tag_37\n      jumpi\n      dup1\n      0xfe0d94c1\n      eq\n      tag_38\n      jumpi\n      jump(tag_2)\n    tag_42:\n      dup1\n      0xd796ffb8\n      eq\n      tag_34\n      jumpi\n      dup1\n      0xe4e33ef8\n      eq\n      tag_35\n      jumpi\n      jump(tag_2)\n    tag_41:\n      dup1\n      0xb39df88e\n      eq\n      tag_30\n      jumpi\n      dup1\n      0xbc157ac1\n      eq\n      tag_31\n      jumpi\n      dup1\n      0xbf7e214f\n      eq\n      tag_32\n      jumpi\n      dup1\n      0xd07f390f\n      eq\n      tag_33\n      jumpi\n      jump(tag_2)\n    tag_40:\n      dup1\n      0x93988b53\n      gt\n      tag_43\n      jumpi\n      dup1\n      0xa44b8287\n      gt\n      tag_44\n      jumpi\n      dup1\n      0xa44b8287\n      eq\n      tag_27\n      jumpi\n      dup1\n      0xb320f6a9\n      eq\n      tag_28\n      jumpi\n      dup1\n      0xb383daf2\n      eq\n      tag_29\n      jumpi\n      jump(tag_2)\n    tag_44:\n      dup1\n      0x93988b53\n      eq\n      tag_25\n      jumpi\n      dup1\n      0x9edd8d43\n      eq\n      tag_26\n      jumpi\n      jump(tag_2)\n    tag_43:\n      dup1\n      0x7d921af0\n      eq\n      tag_21\n      jumpi\n      dup1\n      0x8129fc1c\n      eq\n      tag_22\n      jumpi\n      dup1\n      0x860f5048\n      eq\n      tag_23\n      jumpi\n      dup1\n      0x8f840ddd\n      eq\n      tag_24\n      jumpi\n      jump(tag_2)\n    tag_39:\n      dup1\n      0x1d6d5f05\n      gt\n      tag_45\n      jumpi\n      dup1\n      0x503edcf0\n      gt\n      tag_46\n      jumpi\n      dup1\n      0x5619004b\n      gt\n      tag_47\n      jumpi\n      dup1\n      0x5619004b\n      eq\n      tag_18\n      jumpi\n      dup1\n      0x71a45c95\n      eq\n      tag_19\n      jumpi\n      dup1\n      0x7a9e5e4b\n      eq\n      tag_20\n      jumpi\n      jump(tag_2)\n    tag_47:\n      dup1\n      0x503edcf0\n      eq\n      tag_16\n      jumpi\n      dup1\n      0x52991831\n      eq\n      tag_17\n      jumpi\n      jump(tag_2)\n    tag_46:\n      dup1\n      0x1d6d5f05\n      eq\n      tag_12\n      jumpi\n      dup1\n      0x2b7ce500\n      eq\n      tag_13\n      jumpi\n      dup1\n      0x330dd345\n      eq\n      tag_14\n      jumpi\n      dup1\n      0x40c10f19\n      eq\n      tag_15\n      jumpi\n      jump(tag_2)\n    tag_45:\n      dup1\n      0x0c3513a8\n      gt\n      tag_48\n      jumpi\n      dup1\n      0x12422d23\n      gt\n      tag_49\n      jumpi\n      dup1\n      0x12422d23\n      eq\n      tag_9\n      jumpi\n      dup1\n      0x158ef93e\n      eq\n      tag_10\n      jumpi\n      dup1\n      0x1af4da70\n      eq\n      tag_11\n      jumpi\n      jump(tag_2)\n    tag_49:\n      dup1\n      0x0c3513a8\n      eq\n      tag_7\n      jumpi\n      dup1\n      0x0f70431f\n      eq\n      tag_8\n      jumpi\n      jump(tag_2)\n    tag_48:\n      dup1\n      0xf714ce\n      eq\n      tag_3\n      jumpi\n      dup1\n      0x06d9cea8\n      eq\n      tag_4\n      jumpi\n      dup1\n      0x0b0eee30\n      eq\n      tag_5\n      jumpi\n      dup1\n      0x0b31693f\n      eq\n      tag_6\n      jumpi\n    tag_2:\n      0x00\n      dup1\n      revert\n        /* \"ExodusTreasury/Treasury.sol\":4298:4824  function withdraw(uint256 _amount, address _token) external override {... */\n    tag_3:\n      tag_50\n      0x04\n      dup1\n      calldatasize\n      sub\n      0x40\n      dup2\n      lt\n      iszero\n      tag_51\n      jumpi\n      0x00\n      dup1\n      revert\n    tag_51:\n      pop\n      dup1\n      calldataload\n      swap1\n      0x20\n      add\n      calldataload\n      sub(shl(0xa0, 0x01), 0x01)\n      and\n      tag_52\n      jump\t// in\n    tag_50:\n      stop\n        /* \"ExodusTreasury/Treasury.sol\":1833:1850  IsEXO public sEXO */\n    tag_4:\n      tag_53\n      tag_54\n      jump\t// in\n    tag_53:\n      0x40\n      dup1\n      mload\n      sub(shl(0xa0, 0x01), 0x01)\n      swap1\n      swap3\n      and\n      dup3\n      mstore\n      mload\n      swap1\n      dup2\n      swap1\n      sub\n      0x20\n      add\n      swap1\n      return\n        /* \"ExodusTreasury/Treasury.sol\":4962:5677  function manage(address _token, uint256 _amount) external override {... */\n    tag_5:\n      tag_50\n      0x04\n      dup1\n      calldatasize\n      sub\n      0x40\n      dup2\n      lt\n      iszero\n      tag_56\n      jumpi\n      0x00\n      dup1\n      revert\n    tag_56:\n      pop\n      sub(shl(0xa0, 0x01), 0x01)\n      dup2\n      calldataload\n      and\n      swap1\n      0x20\n      add\n      calldataload\n      tag_57\n      jump\t// in\n        /* \"ExodusTreasury/Treasury.sol\":2146:2168  uint256 public exoDebt */\n    tag_6:\n      tag_58\n      tag_59\n      jump\t// in\n    tag_58:\n      0x40\n      dup1\n      mload\n      swap2\n      dup3\n      mstore\n      mload\n      swap1\n      dup2\n      swap1\n      sub\n      0x20\n      add\n      swap1\n      return\n        /* \"ExodusTreasury/Treasury.sol\":16409:16549  function excessReserves() public view override returns (uint256) {... */\n    tag_7:\n      tag_58\n      tag_61\n      jump\t// in\n        /* \"ExodusTreasury/Treasury.sol\":8713:9176  function repayDebtWithOHM(uint256 _amount) external {... */\n    tag_8:\n      tag_50\n      0x04\n      dup1\n      calldatasize\n      sub\n      0x20\n      dup2\n      lt\n      iszero\n      tag_63\n      jumpi\n      0x00\n      dup1\n      revert\n    tag_63:\n      pop\n      calldataload\n      tag_64\n      jump\t// in\n        /* \"ExodusTreasury/Treasury.sol\":6818:7857  function incurDebt(uint256 _amount, address _token) external override {... */\n    tag_9:\n      tag_50\n      0x04\n      dup1\n      calldatasize\n      sub\n      0x40\n      dup2\n      lt\n      iszero\n      tag_66\n      jumpi\n      0x00\n      dup1\n      revert\n    tag_66:\n      pop\n      dup1\n      calldataload\n      swap1\n      0x20\n      add\n      calldataload\n      sub(shl(0xa0, 0x01), 0x01)\n      and\n      tag_67\n      jump\t// in\n        /* \"ExodusTreasury/Treasury.sol\":2296:2319  bool public initialized */\n    tag_10:\n      tag_68\n      tag_69\n      jump\t// in\n    tag_68:\n      0x40\n      dup1\n      mload\n      swap2\n      iszero\n      iszero\n      dup3\n      mstore\n      mload\n      swap1\n      dup2\n      swap1\n      sub\n      0x20\n      add\n      swap1\n      return\n        /* \"ExodusTreasury/Treasury.sol\":1975:2024  mapping(address => address) public bondCalculator */\n    tag_11:\n      tag_53\n      0x04\n      dup1\n      calldatasize\n      sub\n      0x20\n      dup2\n      lt\n      iszero\n      tag_71\n      jumpi\n      0x00\n      dup1\n      revert\n    tag_71:\n      pop\n      calldataload\n      sub(shl(0xa0, 0x01), 0x01)\n      and\n      tag_72\n      jump\t// in\n        /* \"ExodusTreasury/Treasury.sol\":12819:13650  function queueTimelock(... */\n    tag_12:\n      tag_50\n      0x04\n      dup1\n      calldatasize\n      sub\n      0x60\n      dup2\n      lt\n      iszero\n      tag_74\n      jumpi\n      0x00\n      dup1\n      revert\n    tag_74:\n      pop\n      0xff\n      dup2\n      calldataload\n      and\n      swap1\n      sub(shl(0xa0, 0x01), 0x01)\n      0x20\n      dup3\n      add\n      calldataload\n      dup2\n      and\n      swap2\n      0x40\n      add\n      calldataload\n      and\n      tag_75\n      jump\t// in\n        /* \"ExodusTreasury/Treasury.sol\":9375:10269  function auditReserves() external onlyGovernor {... */\n    tag_13:\n      tag_50\n      tag_77\n      jump\t// in\n        /* \"ExodusTreasury/Treasury.sol\":1907:1969  mapping(STATUS => mapping(address => bool)) public permissions */\n    tag_14:\n      tag_68\n      0x04\n      dup1\n      calldatasize\n      sub\n      0x40\n      dup2\n      lt\n      iszero\n      tag_79\n      jumpi\n      0x00\n      dup1\n      revert\n    tag_79:\n      pop\n      dup1\n      calldataload\n      0xff\n      and\n      swap1\n      0x20\n      add\n      calldataload\n      sub(shl(0xa0, 0x01), 0x01)\n      and\n      tag_80\n      jump\t// in\n        /* \"ExodusTreasury/Treasury.sol\":5812:6126  function mint(address _recipient, uint256 _amount) external override {... */\n    tag_15:\n      tag_50\n      0x04\n      dup1\n      calldatasize\n      sub\n      0x40\n      dup2\n      lt\n      iszero\n      tag_82\n      jumpi\n      0x00\n      dup1\n      revert\n    tag_82:\n      pop\n      sub(shl(0xa0, 0x01), 0x01)\n      dup2\n      calldataload\n      and\n      swap1\n      0x20\n      add\n      calldataload\n      tag_83\n      jump\t// in\n        /* \"ExodusTreasury/Treasury.sol\":2175:2205  Queue[] public permissionQueue */\n    tag_16:\n      tag_84\n      0x04\n      dup1\n      calldatasize\n      sub\n      0x20\n      dup2\n      lt\n      iszero\n      tag_85\n      jumpi\n      0x00\n      dup1\n      revert\n    tag_85:\n      pop\n      calldataload\n      tag_86\n      jump\t// in\n    tag_84:\n      mload(0x40)\n      dup1\n      dup8\n      0x0a\n      dup2\n      gt\n      iszero\n      tag_87\n      jumpi\n      invalid\n    tag_87:\n      dup2\n      mstore\n      0x20\n      add\n      dup7\n      sub(shl(0xa0, 0x01), 0x01)\n      and\n      dup2\n      mstore\n      0x20\n      add\n      dup6\n      sub(shl(0xa0, 0x01), 0x01)\n      and\n      dup2\n      mstore\n      0x20\n      add\n      dup5\n      dup2\n      mstore\n      0x20\n      add\n      dup4\n      iszero\n      iszero\n      dup2\n      mstore\n      0x20\n      add\n      dup3\n      iszero\n      iszero\n      dup2\n      mstore\n      0x20\n      add\n      swap7\n      pop\n      pop\n      pop\n      pop\n      pop\n      pop\n      pop\n      mload(0x40)\n      dup1\n      swap2\n      sub\n      swap1\n      return\n        /* \"ExodusTreasury/Treasury.sol\":11798:12092  function disable(STATUS _status, address _toDisable) external {... */\n    tag_17:\n      tag_50\n      0x04\n      dup1\n      calldatasize\n      sub\n      0x40\n      dup2\n      lt\n      iszero\n      tag_89\n      jumpi\n      0x00\n      dup1\n      revert\n    tag_89:\n      pop\n      dup1\n      calldataload\n      0xff\n      and\n      swap1\n      0x20\n      add\n      calldataload\n      sub(shl(0xa0, 0x01), 0x01)\n      and\n      tag_90\n      jump\t// in\n        /* \"ExodusTreasury/Treasury.sol\":2031:2075  mapping(address => uint256) public debtLimit */\n    tag_18:\n      tag_58\n      0x04\n      dup1\n      calldatasize\n      sub\n      0x20\n      dup2\n      lt\n      iszero\n      tag_92\n      jumpi\n      0x00\n      dup1\n      revert\n    tag_92:\n      pop\n      calldataload\n      sub(shl(0xa0, 0x01), 0x01)\n      and\n      tag_93\n      jump\t// in\n        /* \"ExodusTreasury/Treasury.sol\":15449:15559  function nullify(uint256 _index) external onlyGovernor {... */\n    tag_19:\n      tag_50\n      0x04\n      dup1\n      calldatasize\n      sub\n      0x20\n      dup2\n      lt\n      iszero\n      tag_95\n      jumpi\n      0x00\n      dup1\n      revert\n    tag_95:\n      pop\n      calldataload\n      tag_96\n      jump\t// in\n        /* \"ExodusTreasury/OlympusAccessControlled.sol\":1108:1272  function setAuthority(IExodusAuthority _newAuthority) external onlyGovernor {... */\n    tag_20:\n      tag_50\n      0x04\n      dup1\n      calldatasize\n      sub\n      0x20\n      dup2\n      lt\n      iszero\n      tag_98\n      jumpi\n      0x00\n      dup1\n      revert\n    tag_98:\n      pop\n      calldataload\n      sub(shl(0xa0, 0x01), 0x01)\n      and\n      tag_99\n      jump\t// in\n        /* \"ExodusTreasury/Treasury.sol\":15626:16013  function disableTimelock() external onlyGovernor {... */\n    tag_21:\n      tag_50\n      tag_101\n      jump\t// in\n        /* \"ExodusTreasury/Treasury.sol\":16088:16261  function initialize() external onlyGovernor {... */\n    tag_22:\n      tag_50\n      tag_103\n      jump\t// in\n        /* \"ExodusTreasury/Treasury.sol\":17263:17377  function baseSupply() external view override returns (uint256) {... */\n    tag_23:\n      tag_58\n      tag_105\n      jump\t// in\n        /* \"ExodusTreasury/Treasury.sol\":2082:2110  uint256 public totalReserves */\n    tag_24:\n      tag_58\n      tag_107\n      jump\t// in\n        /* \"ExodusTreasury/Treasury.sol\":12195:12533  function indexInRegistry(address _address, STATUS _status) public view returns (bool, uint256) {... */\n    tag_25:\n      tag_108\n      0x04\n      dup1\n      calldatasize\n      sub\n      0x40\n      dup2\n      lt\n      iszero\n      tag_109\n      jumpi\n      0x00\n      dup1\n      revert\n    tag_109:\n      pop\n      dup1\n      calldataload\n      sub(shl(0xa0, 0x01), 0x01)\n      and\n      swap1\n      0x20\n      add\n      calldataload\n      0xff\n      and\n      tag_110\n      jump\t// in\n    tag_108:\n      0x40\n      dup1\n      mload\n      swap3\n      iszero\n      iszero\n      dup4\n      mstore\n      0x20\n      dup4\n      add\n      swap2\n      swap1\n      swap2\n      mstore\n      dup1\n      mload\n      swap2\n      dup3\n      swap1\n      sub\n      add\n      swap1\n      return\n        /* \"ExodusTreasury/Treasury.sol\":10391:10514  function setDebtLimit(address _address, uint256 _limit) external onlyGovernor {... */\n    tag_26:\n      tag_50\n      0x04\n      dup1\n      calldatasize\n      sub\n      0x40\n      dup2\n      lt\n      iszero\n      tag_112\n      jumpi\n      0x00\n      dup1\n      revert\n    tag_112:\n      pop\n      sub(shl(0xa0, 0x01), 0x01)\n      dup2\n      calldataload\n      and\n      swap1\n      0x20\n      add\n      calldataload\n      tag_113\n      jump\t// in\n        /* \"ExodusTreasury/Treasury.sol\":1857:1901  mapping(STATUS => address[]) public registry */\n    tag_27:\n      tag_53\n      0x04\n      dup1\n      calldatasize\n      sub\n      0x40\n      dup2\n      lt\n      iszero\n      tag_115\n      jumpi\n      0x00\n      dup1\n      revert\n    tag_115:\n      pop\n      0xff\n      dup2\n      calldataload\n      and\n      swap1\n      0x20\n      add\n      calldataload\n      tag_116\n      jump\t// in\n        /* \"ExodusTreasury/Treasury.sol\":2263:2290  bool public timelockEnabled */\n    tag_28:\n      tag_68\n      tag_118\n      jump\t// in\n        /* \"ExodusTreasury/Treasury.sol\":1802:1827  IEXO public immutable EXO */\n    tag_29:\n      tag_53\n      tag_120\n      jump\t// in\n        /* \"ExodusTreasury/Treasury.sol\":2326:2366  uint256 public onChainGovernanceTimelock */\n    tag_30:\n      tag_58\n      tag_122\n      jump\t// in\n        /* \"ExodusTreasury/Treasury.sol\":3281:4154  function deposit(... */\n    tag_31:\n      tag_58\n      0x04\n      dup1\n      calldatasize\n      sub\n      0x60\n      dup2\n      lt\n      iszero\n      tag_124\n      jumpi\n      0x00\n      dup1\n      revert\n    tag_124:\n      pop\n      dup1\n      calldataload\n      swap1\n      sub(shl(0xa0, 0x01), 0x01)\n      0x20\n      dup3\n      add\n      calldataload\n      and\n      swap1\n      0x40\n      add\n      calldataload\n      tag_125\n      jump\t// in\n        /* \"ExodusTreasury/OlympusAccessControlled.sol\":359:392  IExodusAuthority public authority */\n    tag_32:\n      tag_53\n      tag_127\n      jump\t// in\n        /* \"ExodusTreasury/Treasury.sol\":2211:2256  uint256 public immutable blocksNeededForQueue */\n    tag_33:\n      tag_58\n      tag_129\n      jump\t// in\n        /* \"ExodusTreasury/Treasury.sol\":8017:8587  function repayDebtWithReserve(uint256 _amount, address _token) external override {... */\n    tag_34:\n      tag_50\n      0x04\n      dup1\n      calldatasize\n      sub\n      0x40\n      dup2\n      lt\n      iszero\n      tag_131\n      jumpi\n      0x00\n      dup1\n      revert\n    tag_131:\n      pop\n      dup1\n      calldataload\n      swap1\n      0x20\n      add\n      calldataload\n      sub(shl(0xa0, 0x01), 0x01)\n      and\n      tag_132\n      jump\t// in\n        /* \"ExodusTreasury/Treasury.sol\":10674:11664  function enable(... */\n    tag_35:\n      tag_50\n      0x04\n      dup1\n      calldatasize\n      sub\n      0x60\n      dup2\n      lt\n      iszero\n      tag_134\n      jumpi\n      0x00\n      dup1\n      revert\n    tag_134:\n      pop\n      0xff\n      dup2\n      calldataload\n      and\n      swap1\n      sub(shl(0xa0, 0x01), 0x01)\n      0x20\n      dup3\n      add\n      calldataload\n      dup2\n      and\n      swap2\n      0x40\n      add\n      calldataload\n      and\n      tag_135\n      jump\t// in\n        /* \"ExodusTreasury/Treasury.sol\":16706:17091  function tokenValue(address _token, uint256 _amount) public view override returns (uint256 value_) {... */\n    tag_36:\n      tag_58\n      0x04\n      dup1\n      calldatasize\n      sub\n      0x40\n      dup2\n      lt\n      iszero\n      tag_137\n      jumpi\n      0x00\n      dup1\n      revert\n    tag_137:\n      pop\n      sub(shl(0xa0, 0x01), 0x01)\n      dup2\n      calldataload\n      and\n      swap1\n      0x20\n      add\n      calldataload\n      tag_138\n      jump\t// in\n        /* \"ExodusTreasury/Treasury.sol\":2116:2140  uint256 public totalDebt */\n    tag_37:\n      tag_58\n      tag_140\n      jump\t// in\n        /* \"ExodusTreasury/Treasury.sol\":13743:15358  function execute(uint256 _index) external {... */\n    tag_38:\n      tag_50\n      0x04\n      dup1\n      calldatasize\n      sub\n      0x20\n      dup2\n      lt\n      iszero\n      tag_142\n      jumpi\n      0x00\n      dup1\n      revert\n    tag_142:\n      pop\n      calldataload\n      tag_143\n      jump\t// in\n        /* \"ExodusTreasury/Treasury.sol\":4298:4824  function withdraw(uint256 _amount, address _token) external override {... */\n    tag_52:\n      sub(shl(0xa0, 0x01), 0x01)\n        /* \"ExodusTreasury/Treasury.sol\":4385:4425  permissions[STATUS.RESERVETOKEN][_token] */\n      dup2\n      and\n        /* \"ExodusTreasury/Treasury.sol\":4385:4417  permissions[STATUS.RESERVETOKEN] */\n      0x00\n        /* \"ExodusTreasury/Treasury.sol\":4385:4425  permissions[STATUS.RESERVETOKEN][_token] */\n      swap1\n      dup2\n      mstore\n        /* \"ExodusTreasury/Treasury.sol\":4385:4417  permissions[STATUS.RESERVETOKEN] */\n      0x91da3fd0782e51c6b3986e9e672fd566868e71f3dbc2d6c2cd6fbb3e361af2a7\n      0x20\n        /* \"ExodusTreasury/Treasury.sol\":4385:4425  permissions[STATUS.RESERVETOKEN][_token] */\n      mstore\n        /* \"ExodusTreasury/Treasury.sol\":4385:4417  permissions[STATUS.RESERVETOKEN] */\n      0x40\n        /* \"ExodusTreasury/Treasury.sol\":4385:4425  permissions[STATUS.RESERVETOKEN][_token] */\n      swap1\n      keccak256\n      sload\n        /* \"ExodusTreasury/Treasury.sol\":4427:4438  notAccepted */\n      0x0d\n      swap1\n        /* \"ExodusTreasury/Treasury.sol\":4385:4425  permissions[STATUS.RESERVETOKEN][_token] */\n      0xff\n      and\n        /* \"ExodusTreasury/Treasury.sol\":4377:4439  require(permissions[STATUS.RESERVETOKEN][_token], notAccepted) */\n      tag_147\n      jumpi\n      mload(0x40)\n      shl(0xe5, 0x461bcd)\n      dup2\n      mstore\n      0x20\n      0x04\n      dup3\n      add\n      swap1\n      dup2\n      mstore\n      dup3\n      sload\n      0x02\n      not(0x00)\n      0x0100\n      0x01\n      dup5\n      and\n      iszero\n      mul\n      add\n      swap1\n      swap2\n      and\n      div\n      0x24\n      dup4\n      add\n      dup2\n      swap1\n      mstore\n      swap1\n      swap2\n      dup3\n      swap2\n      0x44\n      swap1\n      swap2\n      add\n      swap1\n      dup5\n      swap1\n      dup1\n      iszero\n      tag_148\n      jumpi\n      dup1\n      0x1f\n      lt\n      tag_149\n      jumpi\n      0x0100\n      dup1\n      dup4\n      sload\n      div\n      mul\n      dup4\n      mstore\n      swap2\n      0x20\n      add\n      swap2\n      jump(tag_148)\n    tag_149:\n      dup3\n      add\n      swap2\n      swap1\n      0x00\n      mstore\n      keccak256(0x00, 0x20)\n      swap1\n    tag_150:\n      dup2\n      sload\n      dup2\n      mstore\n      swap1\n      0x01\n      add\n      swap1\n      0x20\n      add\n      dup1\n      dup4\n      gt\n      tag_150\n      jumpi\n      dup3\n      swap1\n      sub\n      0x1f\n      and\n      dup3\n      add\n      swap2\n    tag_148:\n      pop\n      pop\n      swap3\n      pop\n      pop\n      pop\n      mload(0x40)\n      dup1\n      swap2\n      sub\n      swap1\n      revert\n    tag_147:\n      pop\n        /* \"ExodusTreasury/Treasury.sol\":4537:4547  msg.sender */\n      caller\n        /* \"ExodusTreasury/Treasury.sol\":4502:4536  permissions[STATUS.RESERVESPENDER] */\n      0x00\n        /* \"ExodusTreasury/Treasury.sol\":4502:4548  permissions[STATUS.RESERVESPENDER][msg.sender] */\n      swap1\n      dup2\n      mstore\n        /* \"ExodusTreasury/Treasury.sol\":4502:4536  permissions[STATUS.RESERVESPENDER] */\n      0xabd6e7cb50984ff9c2f3e18a2660c3353dadf4e3291deeb275dae2cd1e44fe05\n      0x20\n        /* \"ExodusTreasury/Treasury.sol\":4502:4548  permissions[STATUS.RESERVESPENDER][msg.sender] */\n      mstore\n        /* \"ExodusTreasury/Treasury.sol\":4502:4536  permissions[STATUS.RESERVESPENDER] */\n      0x40\n        /* \"ExodusTreasury/Treasury.sol\":4502:4548  permissions[STATUS.RESERVESPENDER][msg.sender] */\n      swap1\n      keccak256\n      sload\n        /* \"ExodusTreasury/Treasury.sol\":4550:4561  notApproved */\n      0x0e\n      swap1\n        /* \"ExodusTreasury/Treasury.sol\":4502:4548  permissions[STATUS.RESERVESPENDER][msg.sender] */\n      0xff\n      and\n        /* \"ExodusTreasury/Treasury.sol\":4494:4562  require(permissions[STATUS.RESERVESPENDER][msg.sender], notApproved) */\n      tag_153\n      jumpi\n      mload(0x40)\n      shl(0xe5, 0x461bcd)\n      dup2\n      mstore\n      0x20\n      0x04\n      dup3\n      add\n      swap1\n      dup2\n      mstore\n      dup3\n      sload\n      0x02\n      not(0x00)\n      0x0100\n      0x01\n      dup5\n      and\n      iszero\n      mul\n      add\n      swap1\n      swap2\n      and\n      div\n      0x24\n      dup4\n      add\n      dup2\n      swap1\n      mstore\n      swap1\n      swap2\n      dup3\n      swap2\n      0x44\n      swap1\n      swap2\n      add\n      swap1\n      dup5\n      swap1\n      dup1\n      iszero\n      tag_148\n      jumpi\n      dup1\n      0x1f\n      lt\n      tag_149\n      jumpi\n      0x0100\n      dup1\n      dup4\n      sload\n      div\n      mul\n      dup4\n      mstore\n      swap2\n      0x20\n      add\n      swap2\n      jump(tag_148)\n    tag_153:\n      pop\n        /* \"ExodusTreasury/Treasury.sol\":4573:4586  uint256 value */\n      0x00\n        /* \"ExodusTreasury/Treasury.sol\":4589:4616  tokenValue(_token, _amount) */\n      tag_157\n        /* \"ExodusTreasury/Treasury.sol\":4600:4606  _token */\n      dup3\n        /* \"ExodusTreasury/Treasury.sol\":4608:4615  _amount */\n      dup5\n        /* \"ExodusTreasury/Treasury.sol\":4589:4599  tokenValue */\n      tag_138\n        /* \"ExodusTreasury/Treasury.sol\":4589:4616  tokenValue(_token, _amount) */\n      jump\t// in\n    tag_157:\n        /* \"ExodusTreasury/Treasury.sol\":4573:4616  uint256 value = tokenValue(_token, _amount) */\n      swap1\n      pop\n        /* \"ExodusTreasury/Treasury.sol\":4626:4629  EXO */\n      immutable(\"0xa423c60bc1787d67fffc27d03c64206552502a85ae4c5cd0abbc1461b537b9d1\")\n      sub(shl(0xa0, 0x01), 0x01)\n        /* \"ExodusTreasury/Treasury.sol\":4626:4638  EXO.burnFrom */\n      and\n      0x79cc6790\n        /* \"ExodusTreasury/Treasury.sol\":4639:4649  msg.sender */\n      caller\n        /* \"ExodusTreasury/Treasury.sol\":4651:4656  value */\n      dup4\n        /* \"ExodusTreasury/Treasury.sol\":4626:4657  EXO.burnFrom(msg.sender, value) */\n      mload(0x40)\n      dup4\n      0xffffffff\n      and\n      0xe0\n      shl\n      dup2\n      mstore\n      0x04\n      add\n      dup1\n      dup4\n      sub(shl(0xa0, 0x01), 0x01)\n      and\n      dup2\n      mstore\n      0x20\n      add\n      dup3\n      dup2\n      mstore\n      0x20\n      add\n      swap3\n      pop\n      pop\n      pop\n      0x00\n      mload(0x40)\n      dup1\n      dup4\n      sub\n      dup2\n      0x00\n      dup8\n      dup1\n      extcodesize\n      iszero\n      dup1\n      iszero\n      tag_158\n      jumpi\n      0x00\n      dup1\n      revert\n    tag_158:\n      pop\n      gas\n      call\n      iszero\n      dup1\n      iszero\n      tag_160\n      jumpi\n      returndatasize\n      0x00\n      dup1\n      returndatacopy\n      revert(0x00, returndatasize)\n    tag_160:\n      pop\n      pop\n        /* \"ExodusTreasury/Treasury.sol\":4684:4697  totalReserves */\n      sload(0x07)\n        /* \"ExodusTreasury/Treasury.sol\":4684:4708  totalReserves.sub(value) */\n      tag_161\n      swap3\n      pop\n        /* \"ExodusTreasury/Treasury.sol\":4684:4697  totalReserves */\n      swap1\n      pop\n        /* \"ExodusTreasury/Treasury.sol\":4702:4707  value */\n      dup3\n        /* \"ExodusTreasury/Treasury.sol\":4684:4701  totalReserves.sub */\n      tag_162\n        /* \"ExodusTreasury/Treasury.sol\":4684:4708  totalReserves.sub(value) */\n      jump\t// in\n    tag_161:\n        /* \"ExodusTreasury/Treasury.sol\":4668:4681  totalReserves */\n      0x07\n        /* \"ExodusTreasury/Treasury.sol\":4668:4708  totalReserves = totalReserves.sub(value) */\n      sstore\n        /* \"ExodusTreasury/Treasury.sol\":4719:4767  IERC20(_token).safeTransfer(msg.sender, _amount) */\n      tag_163\n      sub(shl(0xa0, 0x01), 0x01)\n        /* \"ExodusTreasury/Treasury.sol\":4719:4746  IERC20(_token).safeTransfer */\n      dup4\n      and\n        /* \"ExodusTreasury/Treasury.sol\":4747:4757  msg.sender */\n      caller\n        /* \"ExodusTreasury/Treasury.sol\":4759:4766  _amount */\n      dup6\n        /* \"ExodusTreasury/Treasury.sol\":4719:4746  IERC20(_token).safeTransfer */\n      tag_164\n        /* \"ExodusTreasury/Treasury.sol\":4719:4767  IERC20(_token).safeTransfer(msg.sender, _amount) */\n      jump\t// in\n    tag_163:\n        /* \"ExodusTreasury/Treasury.sol\":4783:4817  Withdrawal(_token, _amount, value) */\n      0x40\n      dup1\n      mload\n      dup5\n      dup2\n      mstore\n      0x20\n      dup2\n      add\n      dup4\n      swap1\n      mstore\n      dup2\n      mload\n      sub(shl(0xa0, 0x01), 0x01)\n      dup6\n      and\n      swap3\n      0xdf273cb619d95419a9cd0ec88123a0538c85064229baa6363788f743fff90deb\n      swap3\n      dup3\n      swap1\n      sub\n      add\n      swap1\n      log2\n        /* \"ExodusTreasury/Treasury.sol\":4298:4824  function withdraw(uint256 _amount, address _token) external override {... */\n      pop\n      pop\n      pop\n      jump\t// out\n        /* \"ExodusTreasury/Treasury.sol\":1833:1850  IsEXO public sEXO */\n    tag_54:\n      and(sub(shl(0xa0, 0x01), 0x01), sload(0x02))\n      dup2\n      jump\t// out\n        /* \"ExodusTreasury/Treasury.sol\":4962:5677  function manage(address _token, uint256 _amount) external override {... */\n    tag_57:\n      sub(shl(0xa0, 0x01), 0x01)\n        /* \"ExodusTreasury/Treasury.sol\":5043:5085  permissions[STATUS.LIQUIDITYTOKEN][_token] */\n      dup3\n      and\n        /* \"ExodusTreasury/Treasury.sol\":5043:5077  permissions[STATUS.LIQUIDITYTOKEN] */\n      0x00\n        /* \"ExodusTreasury/Treasury.sol\":5043:5085  permissions[STATUS.LIQUIDITYTOKEN][_token] */\n      swap1\n      dup2\n      mstore\n        /* \"ExodusTreasury/Treasury.sol\":5043:5077  permissions[STATUS.LIQUIDITYTOKEN] */\n      0x04cde762ef08b6b6c5ded8e8c4c0b3f4e5c9ad7342c88fcc93681b4588b73f05\n      0x20\n        /* \"ExodusTreasury/Treasury.sol\":5043:5085  permissions[STATUS.LIQUIDITYTOKEN][_token] */\n      mstore\n        /* \"ExodusTreasury/Treasury.sol\":5043:5077  permissions[STATUS.LIQUIDITYTOKEN] */\n      0x40\n        /* \"ExodusTreasury/Treasury.sol\":5043:5085  permissions[STATUS.LIQUIDITYTOKEN][_token] */\n      swap1\n      keccak256\n      sload\n      0xff\n      and\n        /* \"ExodusTreasury/Treasury.sol\":5039:5281  if (permissions[STATUS.LIQUIDITYTOKEN][_token]) {... */\n      iszero\n      tag_168\n      jumpi\n        /* \"ExodusTreasury/Treasury.sol\":5146:5156  msg.sender */\n      caller\n        /* \"ExodusTreasury/Treasury.sol\":5109:5145  permissions[STATUS.LIQUIDITYMANAGER] */\n      0x00\n        /* \"ExodusTreasury/Treasury.sol\":5109:5157  permissions[STATUS.LIQUIDITYMANAGER][msg.sender] */\n      swap1\n      dup2\n      mstore\n        /* \"ExodusTreasury/Treasury.sol\":5109:5145  permissions[STATUS.LIQUIDITYMANAGER] */\n      0xc59312466997bb42aaaf719ece141047820e6b34531e1670dc1852a453648f0f\n      0x20\n        /* \"ExodusTreasury/Treasury.sol\":5109:5157  permissions[STATUS.LIQUIDITYMANAGER][msg.sender] */\n      mstore\n        /* \"ExodusTreasury/Treasury.sol\":5109:5145  permissions[STATUS.LIQUIDITYMANAGER] */\n      0x40\n        /* \"ExodusTreasury/Treasury.sol\":5109:5157  permissions[STATUS.LIQUIDITYMANAGER][msg.sender] */\n      swap1\n      keccak256\n      sload\n        /* \"ExodusTreasury/Treasury.sol\":5159:5170  notApproved */\n      0x0e\n      swap1\n        /* \"ExodusTreasury/Treasury.sol\":5109:5157  permissions[STATUS.LIQUIDITYMANAGER][msg.sender] */\n      0xff\n      and\n        /* \"ExodusTreasury/Treasury.sol\":5101:5171  require(permissions[STATUS.LIQUIDITYMANAGER][msg.sender], notApproved) */\n      tag_171\n      jumpi\n      mload(0x40)\n      shl(0xe5, 0x461bcd)\n      dup2\n      mstore\n      0x20\n      0x04\n      dup3\n      add\n      swap1\n      dup2\n      mstore\n      dup3\n      sload\n      0x02\n      not(0x00)\n      0x0100\n      0x01\n      dup5\n      and\n      iszero\n      mul\n      add\n      swap1\n      swap2\n      and\n      div\n      0x24\n      dup4\n      add\n      dup2\n      swap1\n      mstore\n      swap1\n      swap2\n      dup3\n      swap2\n      0x44\n      swap1\n      swap2\n      add\n      swap1\n      dup5\n      swap1\n      dup1\n      iszero\n      tag_148\n      jumpi\n      dup1\n      0x1f\n      lt\n      tag_149\n      jumpi\n      0x0100\n      dup1\n      dup4\n      sload\n      div\n      mul\n      dup4\n      mstore\n      swap2\n      0x20\n      add\n      swap2\n      jump(tag_148)\n    tag_171:\n      pop\n        /* \"ExodusTreasury/Treasury.sol\":5039:5281  if (permissions[STATUS.LIQUIDITYTOKEN][_token]) {... */\n      jump(tag_175)\n    tag_168:\n        /* \"ExodusTreasury/Treasury.sol\":5245:5255  msg.sender */\n      caller\n        /* \"ExodusTreasury/Treasury.sol\":5210:5244  permissions[STATUS.RESERVEMANAGER] */\n      0x00\n        /* \"ExodusTreasury/Treasury.sol\":5210:5256  permissions[STATUS.RESERVEMANAGER][msg.sender] */\n      swap1\n      dup2\n      mstore\n        /* \"ExodusTreasury/Treasury.sol\":5210:5244  permissions[STATUS.RESERVEMANAGER] */\n      0x2e174c10e159ea99b867ce3205125c24a42d128804e4070ed6fcc8cc98166aa0\n      0x20\n        /* \"ExodusTreasury/Treasury.sol\":5210:5256  permissions[STATUS.RESERVEMANAGER][msg.sender] */\n      mstore\n        /* \"ExodusTreasury/Treasury.sol\":5210:5244  permissions[STATUS.RESERVEMANAGER] */\n      0x40\n        /* \"ExodusTreasury/Treasury.sol\":5210:5256  permissions[STATUS.RESERVEMANAGER][msg.sender] */\n      swap1\n      keccak256\n      sload\n        /* \"ExodusTreasury/Treasury.sol\":5258:5269  notApproved */\n      0x0e\n      swap1\n        /* \"ExodusTreasury/Treasury.sol\":5210:5256  permissions[STATUS.RESERVEMANAGER][msg.sender] */\n      0xff\n      and\n        /* \"ExodusTreasury/Treasury.sol\":5202:5270  require(permissions[STATUS.RESERVEMANAGER][msg.sender], notApproved) */\n      tag_178\n      jumpi\n      mload(0x40)\n      shl(0xe5, 0x461bcd)\n      dup2\n      mstore\n      0x20\n      0x04\n      dup3\n      add\n      swap1\n      dup2\n      mstore\n      dup3\n      sload\n      0x02\n      not(0x00)\n      0x0100\n      0x01\n      dup5\n      and\n      iszero\n      mul\n      add\n      swap1\n      swap2\n      and\n      div\n      0x24\n      dup4\n      add\n      dup2\n      swap1\n      mstore\n      swap1\n      swap2\n      dup3\n      swap2\n      0x44\n      swap1\n      swap2\n      add\n      swap1\n      dup5\n      swap1\n      dup1\n      iszero\n      tag_148\n      jumpi\n      dup1\n      0x1f\n      lt\n      tag_149\n      jumpi\n      0x0100\n      dup1\n      dup4\n      sload\n      div\n      mul\n      dup4\n      mstore\n      swap2\n      0x20\n      add\n      swap2\n      jump(tag_148)\n    tag_178:\n      pop\n        /* \"ExodusTreasury/Treasury.sol\":5039:5281  if (permissions[STATUS.LIQUIDITYTOKEN][_token]) {... */\n    tag_175:\n      sub(shl(0xa0, 0x01), 0x01)\n        /* \"ExodusTreasury/Treasury.sol\":5294:5334  permissions[STATUS.RESERVETOKEN][_token] */\n      dup3\n      and\n        /* \"ExodusTreasury/Treasury.sol\":5294:5326  permissions[STATUS.RESERVETOKEN] */\n      0x00\n        /* \"ExodusTreasury/Treasury.sol\":5294:5334  permissions[STATUS.RESERVETOKEN][_token] */\n      swap1\n      dup2\n      mstore\n        /* \"ExodusTreasury/Treasury.sol\":5294:5326  permissions[STATUS.RESERVETOKEN] */\n      0x91da3fd0782e51c6b3986e9e672fd566868e71f3dbc2d6c2cd6fbb3e361af2a7\n      0x20\n        /* \"ExodusTreasury/Treasury.sol\":5294:5334  permissions[STATUS.RESERVETOKEN][_token] */\n      mstore\n        /* \"ExodusTreasury/Treasury.sol\":5294:5326  permissions[STATUS.RESERVETOKEN] */\n      0x40\n        /* \"ExodusTreasury/Treasury.sol\":5294:5334  permissions[STATUS.RESERVETOKEN][_token] */\n      swap1\n      keccak256\n      sload\n      0xff\n      and\n      dup1\n        /* \"ExodusTreasury/Treasury.sol\":5294:5380  permissions[STATUS.RESERVETOKEN][_token] || permissions[STATUS.LIQUIDITYTOKEN][_token] */\n      tag_184\n      jumpi\n      pop\n      sub(shl(0xa0, 0x01), 0x01)\n        /* \"ExodusTreasury/Treasury.sol\":5338:5380  permissions[STATUS.LIQUIDITYTOKEN][_token] */\n      dup3\n      and\n        /* \"ExodusTreasury/Treasury.sol\":5338:5372  permissions[STATUS.LIQUIDITYTOKEN] */\n      0x00\n        /* \"ExodusTreasury/Treasury.sol\":5338:5380  permissions[STATUS.LIQUIDITYTOKEN][_token] */\n      swap1\n      dup2\n      mstore\n        /* \"ExodusTreasury/Treasury.sol\":5338:5372  permissions[STATUS.LIQUIDITYTOKEN] */\n      0x04cde762ef08b6b6c5ded8e8c4c0b3f4e5c9ad7342c88fcc93681b4588b73f05\n      0x20\n        /* \"ExodusTreasury/Treasury.sol\":5338:5380  permissions[STATUS.LIQUIDITYTOKEN][_token] */\n      mstore\n        /* \"ExodusTreasury/Treasury.sol\":5338:5372  permissions[STATUS.LIQUIDITYTOKEN] */\n      0x40\n        /* \"ExodusTreasury/Treasury.sol\":5338:5380  permissions[STATUS.LIQUIDITYTOKEN][_token] */\n      swap1\n      keccak256\n      sload\n      0xff\n      and\n        /* \"ExodusTreasury/Treasury.sol\":5294:5380  permissions[STATUS.RESERVETOKEN][_token] || permissions[STATUS.LIQUIDITYTOKEN][_token] */\n    tag_184:\n        /* \"ExodusTreasury/Treasury.sol\":5290:5574  if (permissions[STATUS.RESERVETOKEN][_token] || permissions[STATUS.LIQUIDITYTOKEN][_token]) {... */\n      iszero\n      tag_187\n      jumpi\n        /* \"ExodusTreasury/Treasury.sol\":5396:5409  uint256 value */\n      0x00\n        /* \"ExodusTreasury/Treasury.sol\":5412:5439  tokenValue(_token, _amount) */\n      tag_188\n        /* \"ExodusTreasury/Treasury.sol\":5423:5429  _token */\n      dup4\n        /* \"ExodusTreasury/Treasury.sol\":5431:5438  _amount */\n      dup4\n        /* \"ExodusTreasury/Treasury.sol\":5412:5422  tokenValue */\n      tag_138\n        /* \"ExodusTreasury/Treasury.sol\":5412:5439  tokenValue(_token, _amount) */\n      jump\t// in\n    tag_188:\n        /* \"ExodusTreasury/Treasury.sol\":5396:5439  uint256 value = tokenValue(_token, _amount) */\n      swap1\n      pop\n        /* \"ExodusTreasury/Treasury.sol\":5470:5486  excessReserves() */\n      tag_189\n        /* \"ExodusTreasury/Treasury.sol\":5470:5484  excessReserves */\n      tag_61\n        /* \"ExodusTreasury/Treasury.sol\":5470:5486  excessReserves() */\n      jump\t// in\n    tag_189:\n        /* \"ExodusTreasury/Treasury.sol\":5461:5466  value */\n      dup2\n        /* \"ExodusTreasury/Treasury.sol\":5461:5486  value <= excessReserves() */\n      gt\n      iszero\n        /* \"ExodusTreasury/Treasury.sol\":5488:5508  insufficientReserves */\n      0x10\n        /* \"ExodusTreasury/Treasury.sol\":5453:5509  require(value <= excessReserves(), insufficientReserves) */\n      swap1\n      tag_190\n      jumpi\n      mload(0x40)\n      shl(0xe5, 0x461bcd)\n      dup2\n      mstore\n      0x20\n      0x04\n      dup3\n      add\n      swap1\n      dup2\n      mstore\n      dup3\n      sload\n      0x02\n      not(0x00)\n      0x0100\n      0x01\n      dup5\n      and\n      iszero\n      mul\n      add\n      swap1\n      swap2\n      and\n      div\n      0x24\n      dup4\n      add\n      dup2\n      swap1\n      mstore\n      swap1\n      swap2\n      dup3\n      swap2\n      0x44\n      swap1\n      swap2\n      add\n      swap1\n      dup5\n      swap1\n      dup1\n      iszero\n      tag_148\n      jumpi\n      dup1\n      0x1f\n      lt\n      tag_149\n      jumpi\n      0x0100\n      dup1\n      dup4\n      sload\n      div\n      mul\n      dup4\n      mstore\n      swap2\n      0x20\n      add\n      swap2\n      jump(tag_148)\n    tag_190:\n      pop\n        /* \"ExodusTreasury/Treasury.sol\":5539:5552  totalReserves */\n      sload(0x07)\n        /* \"ExodusTreasury/Treasury.sol\":5539:5563  totalReserves.sub(value) */\n      tag_194\n      swap1\n        /* \"ExodusTreasury/Treasury.sol\":5557:5562  value */\n      dup3\n        /* \"ExodusTreasury/Treasury.sol\":5539:5556  totalReserves.sub */\n      tag_162\n        /* \"ExodusTreasury/Treasury.sol\":5539:5563  totalReserves.sub(value) */\n      jump\t// in\n    tag_194:\n        /* \"ExodusTreasury/Treasury.sol\":5523:5536  totalReserves */\n      0x07\n        /* \"ExodusTreasury/Treasury.sol\":5523:5563  totalReserves = totalReserves.sub(value) */\n      sstore\n      pop\n        /* \"ExodusTreasury/Treasury.sol\":5290:5574  if (permissions[STATUS.RESERVETOKEN][_token] || permissions[STATUS.LIQUIDITYTOKEN][_token]) {... */\n    tag_187:\n        /* \"ExodusTreasury/Treasury.sol\":5583:5631  IERC20(_token).safeTransfer(msg.sender, _amount) */\n      tag_195\n      sub(shl(0xa0, 0x01), 0x01)\n        /* \"ExodusTreasury/Treasury.sol\":5583:5610  IERC20(_token).safeTransfer */\n      dup4\n      and\n        /* \"ExodusTreasury/Treasury.sol\":5611:5621  msg.sender */\n      caller\n        /* \"ExodusTreasury/Treasury.sol\":5623:5630  _amount */\n      dup4\n        /* \"ExodusTreasury/Treasury.sol\":5583:5610  IERC20(_token).safeTransfer */\n      tag_164\n        /* \"ExodusTreasury/Treasury.sol\":5583:5631  IERC20(_token).safeTransfer(msg.sender, _amount) */\n      jump\t// in\n    tag_195:\n        /* \"ExodusTreasury/Treasury.sol\":5646:5670  Managed(_token, _amount) */\n      0x40\n      dup1\n      mload\n      dup3\n      dup2\n      mstore\n      swap1\n      mload\n      sub(shl(0xa0, 0x01), 0x01)\n      dup5\n      and\n      swap2\n      0xb4460e34f1e91c4fa28eb7fac4cbd88cf530ef54a67e1978cd5edd9f77033ead\n      swap2\n      swap1\n      dup2\n      swap1\n      sub\n      0x20\n      add\n      swap1\n      log2\n        /* \"ExodusTreasury/Treasury.sol\":4962:5677  function manage(address _token, uint256 _amount) external override {... */\n      pop\n      pop\n      jump\t// out\n        /* \"ExodusTreasury/Treasury.sol\":2146:2168  uint256 public exoDebt */\n    tag_59:\n      sload(0x09)\n      dup2\n      jump\t// out\n        /* \"ExodusTreasury/Treasury.sol\":16409:16549  function excessReserves() public view override returns (uint256) {... */\n    tag_61:\n        /* \"ExodusTreasury/Treasury.sol\":16465:16472  uint256 */\n      0x00\n        /* \"ExodusTreasury/Treasury.sol\":16491:16542  totalReserves.sub(EXO.totalSupply().sub(totalDebt)) */\n      tag_197\n        /* \"ExodusTreasury/Treasury.sol\":16509:16541  EXO.totalSupply().sub(totalDebt) */\n      tag_198\n        /* \"ExodusTreasury/Treasury.sol\":16531:16540  totalDebt */\n      sload(0x08)\n        /* \"ExodusTreasury/Treasury.sol\":16509:16512  EXO */\n      immutable(\"0xa423c60bc1787d67fffc27d03c64206552502a85ae4c5cd0abbc1461b537b9d1\")\n      sub(shl(0xa0, 0x01), 0x01)\n        /* \"ExodusTreasury/Treasury.sol\":16509:16524  EXO.totalSupply */\n      and\n      0x18160ddd\n        /* \"ExodusTreasury/Treasury.sol\":16509:16526  EXO.totalSupply() */\n      mload(0x40)\n      dup2\n      0xffffffff\n      and\n      0xe0\n      shl\n      dup2\n      mstore\n      0x04\n      add\n      0x20\n      mload(0x40)\n      dup1\n      dup4\n      sub\n      dup2\n      dup7\n      dup1\n      extcodesize\n      iszero\n      dup1\n      iszero\n      tag_199\n      jumpi\n      0x00\n      dup1\n      revert\n    tag_199:\n      pop\n      gas\n      staticcall\n      iszero\n      dup1\n      iszero\n      tag_201\n      jumpi\n      returndatasize\n      0x00\n      dup1\n      returndatacopy\n      revert(0x00, returndatasize)\n    tag_201:\n      pop\n      pop\n      pop\n      pop\n      mload(0x40)\n      returndatasize\n      0x20\n      dup2\n      lt\n      iszero\n      tag_202\n      jumpi\n      0x00\n      dup1\n      revert\n    tag_202:\n      pop\n      mload\n      swap1\n        /* \"ExodusTreasury/Treasury.sol\":16509:16530  EXO.totalSupply().sub */\n      tag_162\n        /* \"ExodusTreasury/Treasury.sol\":16509:16541  EXO.totalSupply().sub(totalDebt) */\n      jump\t// in\n    tag_198:\n        /* \"ExodusTreasury/Treasury.sol\":16491:16504  totalReserves */\n      sload(0x07)\n      swap1\n        /* \"ExodusTreasury/Treasury.sol\":16491:16508  totalReserves.sub */\n      tag_162\n        /* \"ExodusTreasury/Treasury.sol\":16491:16542  totalReserves.sub(EXO.totalSupply().sub(totalDebt)) */\n      jump\t// in\n    tag_197:\n        /* \"ExodusTreasury/Treasury.sol\":16484:16542  return totalReserves.sub(EXO.totalSupply().sub(totalDebt)) */\n      swap1\n      pop\n        /* \"ExodusTreasury/Treasury.sol\":16409:16549  function excessReserves() public view override returns (uint256) {... */\n      swap1\n      jump\t// out\n        /* \"ExodusTreasury/Treasury.sol\":8713:9176  function repayDebtWithOHM(uint256 _amount) external {... */\n    tag_64:\n        /* \"ExodusTreasury/Treasury.sol\":8830:8840  msg.sender */\n      caller\n        /* \"ExodusTreasury/Treasury.sol\":8796:8829  permissions[STATUS.RESERVEDEBTOR] */\n      0x00\n        /* \"ExodusTreasury/Treasury.sol\":8796:8841  permissions[STATUS.RESERVEDEBTOR][msg.sender] */\n      swap1\n      dup2\n      mstore\n        /* \"ExodusTreasury/Treasury.sol\":8796:8829  permissions[STATUS.RESERVEDEBTOR] */\n      0xbeb3bad75134cb432e5707980e3245c52c5998a1125ee30f2f0dbf3925b1e551\n      0x20\n        /* \"ExodusTreasury/Treasury.sol\":8796:8841  permissions[STATUS.RESERVEDEBTOR][msg.sender] */\n      mstore\n        /* \"ExodusTreasury/Treasury.sol\":8796:8829  permissions[STATUS.RESERVEDEBTOR] */\n      0x40\n        /* \"ExodusTreasury/Treasury.sol\":8796:8841  permissions[STATUS.RESERVEDEBTOR][msg.sender] */\n      swap1\n      keccak256\n      sload\n      0xff\n      and\n      dup1\n        /* \"ExodusTreasury/Treasury.sol\":8796:8886  permissions[STATUS.RESERVEDEBTOR][msg.sender] || permissions[STATUS.EXODEBTOR][msg.sender] */\n      tag_206\n      jumpi\n      pop\n        /* \"ExodusTreasury/Treasury.sol\":8875:8885  msg.sender */\n      caller\n        /* \"ExodusTreasury/Treasury.sol\":8845:8874  permissions[STATUS.EXODEBTOR] */\n      0x00\n        /* \"ExodusTreasury/Treasury.sol\":8845:8886  permissions[STATUS.EXODEBTOR][msg.sender] */\n      swap1\n      dup2\n      mstore\n        /* \"ExodusTreasury/Treasury.sol\":8845:8874  permissions[STATUS.EXODEBTOR] */\n      0x5c6b02db8b672415ffad906d7ccee10bd53dbad7d0b29e2bc0e50c93d5f31093\n      0x20\n        /* \"ExodusTreasury/Treasury.sol\":8845:8886  permissions[STATUS.EXODEBTOR][msg.sender] */\n      mstore\n        /* \"ExodusTreasury/Treasury.sol\":8845:8874  permissions[STATUS.EXODEBTOR] */\n      0x40\n        /* \"ExodusTreasury/Treasury.sol\":8845:8886  permissions[STATUS.EXODEBTOR][msg.sender] */\n      swap1\n      keccak256\n      sload\n      0xff\n      and\n        /* \"ExodusTreasury/Treasury.sol\":8796:8886  permissions[STATUS.RESERVEDEBTOR][msg.sender] || permissions[STATUS.EXODEBTOR][msg.sender] */\n    tag_206:\n        /* \"ExodusTreasury/Treasury.sol\":8900:8911  notApproved */\n      0x0e\n        /* \"ExodusTreasury/Treasury.sol\":8775:8921  require(... */\n      swap1\n      tag_209\n      jumpi\n      mload(0x40)\n      shl(0xe5, 0x461bcd)\n      dup2\n      mstore\n      0x20\n      0x04\n      dup3\n      add\n      swap1\n      dup2\n      mstore\n      dup3\n      sload\n      0x02\n      not(0x00)\n      0x0100\n      0x01\n      dup5\n      and\n      iszero\n      mul\n      add\n      swap1\n      swap2\n      and\n      div\n      0x24\n      dup4\n      add\n      dup2\n      swap1\n      mstore\n      swap1\n      swap2\n      dup3\n      swap2\n      0x44\n      swap1\n      swap2\n      add\n      swap1\n      dup5\n      swap1\n      dup1\n      iszero\n      tag_148\n      jumpi\n      dup1\n      0x1f\n      lt\n      tag_149\n      jumpi\n      0x0100\n      dup1\n      dup4\n      sload\n      div\n      mul\n      dup4\n      mstore\n      swap2\n      0x20\n      add\n      swap2\n      jump(tag_148)\n    tag_209:\n      pop\n        /* \"ExodusTreasury/Treasury.sol\":8931:8964  EXO.burnFrom(msg.sender, _amount) */\n      0x40\n      dup1\n      mload\n      0x79cc679000000000000000000000000000000000000000000000000000000000\n      dup2\n      mstore\n        /* \"ExodusTreasury/Treasury.sol\":8944:8954  msg.sender */\n      caller\n        /* \"ExodusTreasury/Treasury.sol\":8931:8964  EXO.burnFrom(msg.sender, _amount) */\n      0x04\n      dup3\n      add\n      mstore\n      0x24\n      dup2\n      add\n      dup4\n      swap1\n      mstore\n      swap1\n      mload\n      sub(shl(0xa0, 0x01), 0x01)\n        /* \"ExodusTreasury/Treasury.sol\":8931:8934  EXO */\n      immutable(\"0xa423c60bc1787d67fffc27d03c64206552502a85ae4c5cd0abbc1461b537b9d1\")\n        /* \"ExodusTreasury/Treasury.sol\":8931:8943  EXO.burnFrom */\n      and\n      swap2\n      0x79cc6790\n      swap2\n        /* \"ExodusTreasury/Treasury.sol\":8931:8964  EXO.burnFrom(msg.sender, _amount) */\n      0x44\n      dup1\n      dup4\n      add\n      swap3\n      0x00\n      swap3\n      swap2\n      swap1\n      dup3\n      swap1\n      sub\n      add\n      dup2\n      dup4\n        /* \"ExodusTreasury/Treasury.sol\":8931:8943  EXO.burnFrom */\n      dup8\n        /* \"ExodusTreasury/Treasury.sol\":8931:8964  EXO.burnFrom(msg.sender, _amount) */\n      dup1\n      extcodesize\n      iszero\n      dup1\n      iszero\n      tag_213\n      jumpi\n      0x00\n      dup1\n      revert\n    tag_213:\n      pop\n      gas\n      call\n      iszero\n      dup1\n      iszero\n      tag_215\n      jumpi\n      returndatasize\n      0x00\n      dup1\n      returndatacopy\n      revert(0x00, returndatasize)\n    tag_215:\n      pop\n      pop\n        /* \"ExodusTreasury/Treasury.sol\":8974:8978  sEXO */\n      sload(0x02)\n        /* \"ExodusTreasury/Treasury.sol\":8974:9017  sEXO.changeDebt(_amount, msg.sender, false) */\n      0x40\n      dup1\n      mload\n      shl(0xe0, 0xae5c6cd3)\n      dup2\n      mstore\n      0x04\n      dup2\n      add\n      dup7\n      swap1\n      mstore\n        /* \"ExodusTreasury/Treasury.sol\":8999:9009  msg.sender */\n      caller\n        /* \"ExodusTreasury/Treasury.sol\":8974:9017  sEXO.changeDebt(_amount, msg.sender, false) */\n      0x24\n      dup3\n      add\n      mstore\n        /* \"ExodusTreasury/Treasury.sol\":8974:8978  sEXO */\n      0x00\n        /* \"ExodusTreasury/Treasury.sol\":8974:9017  sEXO.changeDebt(_amount, msg.sender, false) */\n      0x44\n      dup3\n      add\n      dup2\n      swap1\n      mstore\n      swap2\n      mload\n      sub(shl(0xa0, 0x01), 0x01)\n        /* \"ExodusTreasury/Treasury.sol\":8974:8978  sEXO */\n      swap1\n      swap4\n      and\n      swap5\n      pop\n        /* \"ExodusTreasury/Treasury.sol\":8974:8989  sEXO.changeDebt */\n      0xae5c6cd3\n      swap4\n      pop\n        /* \"ExodusTreasury/Treasury.sol\":8974:9017  sEXO.changeDebt(_amount, msg.sender, false) */\n      0x64\n      dup1\n      dup3\n      add\n      swap4\n      swap2\n      dup3\n      swap1\n      sub\n      add\n      dup2\n        /* \"ExodusTreasury/Treasury.sol\":8974:8978  sEXO */\n      dup4\n      dup8\n        /* \"ExodusTreasury/Treasury.sol\":8974:9017  sEXO.changeDebt(_amount, msg.sender, false) */\n      dup1\n      extcodesize\n      iszero\n      dup1\n      iszero\n      tag_216\n      jumpi\n      0x00\n      dup1\n      revert\n    tag_216:\n      pop\n      gas\n      call\n      iszero\n      dup1\n      iszero\n      tag_218\n      jumpi\n      returndatasize\n      0x00\n      dup1\n      returndatacopy\n      revert(0x00, returndatasize)\n    tag_218:\n      pop\n      pop\n        /* \"ExodusTreasury/Treasury.sol\":9039:9048  totalDebt */\n      sload(0x08)\n        /* \"ExodusTreasury/Treasury.sol\":9039:9061  totalDebt.sub(_amount) */\n      tag_219\n      swap3\n      pop\n        /* \"ExodusTreasury/Treasury.sol\":9039:9048  totalDebt */\n      swap1\n      pop\n        /* \"ExodusTreasury/Treasury.sol\":9053:9060  _amount */\n      dup3\n        /* \"ExodusTreasury/Treasury.sol\":9039:9052  totalDebt.sub */\n      tag_162\n        /* \"ExodusTreasury/Treasury.sol\":9039:9061  totalDebt.sub(_amount) */\n      jump\t// in\n    tag_219:\n        /* \"ExodusTreasury/Treasury.sol\":9027:9036  totalDebt */\n      0x08\n        /* \"ExodusTreasury/Treasury.sol\":9027:9061  totalDebt = totalDebt.sub(_amount) */\n      sstore\n        /* \"ExodusTreasury/Treasury.sol\":9081:9088  exoDebt */\n      sload(0x09)\n        /* \"ExodusTreasury/Treasury.sol\":9081:9101  exoDebt.sub(_amount) */\n      tag_220\n      swap1\n        /* \"ExodusTreasury/Treasury.sol\":9093:9100  _amount */\n      dup3\n        /* \"ExodusTreasury/Treasury.sol\":9081:9092  exoDebt.sub */\n      tag_162\n        /* \"ExodusTreasury/Treasury.sol\":9081:9101  exoDebt.sub(_amount) */\n      jump\t// in\n    tag_220:\n        /* \"ExodusTreasury/Treasury.sol\":9071:9078  exoDebt */\n      0x09\n        /* \"ExodusTreasury/Treasury.sol\":9071:9101  exoDebt = exoDebt.sub(_amount) */\n      sstore\n        /* \"ExodusTreasury/Treasury.sol\":9116:9169  RepayDebt(msg.sender, address(EXO), _amount, _amount) */\n      0x40\n      dup1\n      mload\n      dup3\n      dup2\n      mstore\n      0x20\n      dup2\n      add\n      dup4\n      swap1\n      mstore\n      dup2\n      mload\n      sub(shl(0xa0, 0x01), 0x01)\n        /* \"ExodusTreasury/Treasury.sol\":9146:9149  EXO */\n      immutable(\"0xa423c60bc1787d67fffc27d03c64206552502a85ae4c5cd0abbc1461b537b9d1\")\n        /* \"ExodusTreasury/Treasury.sol\":9116:9169  RepayDebt(msg.sender, address(EXO), _amount, _amount) */\n      and\n      swap3\n        /* \"ExodusTreasury/Treasury.sol\":9126:9136  msg.sender */\n      caller\n      swap3\n        /* \"ExodusTreasury/Treasury.sol\":9116:9169  RepayDebt(msg.sender, address(EXO), _amount, _amount) */\n      0xc6d98eecfc9c78ab62c89a82950079b54874749f1f6f24090f7acc758bc2f309\n      swap3\n      swap1\n      dup2\n      swap1\n      sub\n      swap1\n      swap2\n      add\n      swap1\n      log3\n        /* \"ExodusTreasury/Treasury.sol\":8713:9176  function repayDebtWithOHM(uint256 _amount) external {... */\n      pop\n      jump\t// out\n        /* \"ExodusTreasury/Treasury.sol\":6818:7857  function incurDebt(uint256 _amount, address _token) external override {... */\n    tag_67:\n        /* \"ExodusTreasury/Treasury.sol\":6898:6911  uint256 value */\n      0x00\n        /* \"ExodusTreasury/Treasury.sol\":6943:6946  EXO */\n      immutable(\"0xa423c60bc1787d67fffc27d03c64206552502a85ae4c5cd0abbc1461b537b9d1\")\n      sub(shl(0xa0, 0x01), 0x01)\n        /* \"ExodusTreasury/Treasury.sol\":6925:6947  _token == address(EXO) */\n      and\n        /* \"ExodusTreasury/Treasury.sol\":6925:6931  _token */\n      dup3\n      sub(shl(0xa0, 0x01), 0x01)\n        /* \"ExodusTreasury/Treasury.sol\":6925:6947  _token == address(EXO) */\n      and\n      eq\n        /* \"ExodusTreasury/Treasury.sol\":6921:7289  if (_token == address(EXO)) {... */\n      iszero\n      tag_222\n      jumpi\n        /* \"ExodusTreasury/Treasury.sol\":7001:7011  msg.sender */\n      caller\n        /* \"ExodusTreasury/Treasury.sol\":6971:7000  permissions[STATUS.EXODEBTOR] */\n      0x00\n        /* \"ExodusTreasury/Treasury.sol\":6971:7012  permissions[STATUS.EXODEBTOR][msg.sender] */\n      swap1\n      dup2\n      mstore\n        /* \"ExodusTreasury/Treasury.sol\":6971:7000  permissions[STATUS.EXODEBTOR] */\n      0x5c6b02db8b672415ffad906d7ccee10bd53dbad7d0b29e2bc0e50c93d5f31093\n      0x20\n        /* \"ExodusTreasury/Treasury.sol\":6971:7012  permissions[STATUS.EXODEBTOR][msg.sender] */\n      mstore\n        /* \"ExodusTreasury/Treasury.sol\":6971:7000  permissions[STATUS.EXODEBTOR] */\n      0x40\n        /* \"ExodusTreasury/Treasury.sol\":6971:7012  permissions[STATUS.EXODEBTOR][msg.sender] */\n      swap1\n      keccak256\n      sload\n        /* \"ExodusTreasury/Treasury.sol\":7014:7025  notApproved */\n      0x0e\n      swap1\n        /* \"ExodusTreasury/Treasury.sol\":6971:7012  permissions[STATUS.EXODEBTOR][msg.sender] */\n      0xff\n      and\n        /* \"ExodusTreasury/Treasury.sol\":6963:7026  require(permissions[STATUS.EXODEBTOR][msg.sender], notApproved) */\n      tag_225\n      jumpi\n      mload(0x40)\n      shl(0xe5, 0x461bcd)\n      dup2\n      mstore\n      0x20\n      0x04\n      dup3\n      add\n      swap1\n      dup2\n      mstore\n      dup3\n      sload\n      0x02\n      not(0x00)\n      0x0100\n      0x01\n      dup5\n      and\n      iszero\n      mul\n      add\n      swap1\n      swap2\n      and\n      div\n      0x24\n      dup4\n      add\n      dup2\n      swap1\n      mstore\n      swap1\n      swap2\n      dup3\n      swap2\n      0x44\n      swap1\n      swap2\n      add\n      swap1\n      dup5\n      swap1\n      dup1\n      iszero\n      tag_148\n      jumpi\n      dup1\n      0x1f\n      lt\n      tag_149\n      jumpi\n      0x0100\n      dup1\n      dup4\n      sload\n      div\n      mul\n      dup4\n      mstore\n      swap2\n      0x20\n      add\n      swap2\n      jump(tag_148)\n    tag_225:\n      pop\n        /* \"ExodusTreasury/Treasury.sol\":7048:7055  _amount */\n      dup3\n        /* \"ExodusTreasury/Treasury.sol\":7040:7055  value = _amount */\n      swap1\n      pop\n        /* \"ExodusTreasury/Treasury.sol\":6921:7289  if (_token == address(EXO)) {... */\n      jump(tag_229)\n    tag_222:\n        /* \"ExodusTreasury/Treasury.sol\":7128:7138  msg.sender */\n      caller\n        /* \"ExodusTreasury/Treasury.sol\":7094:7127  permissions[STATUS.RESERVEDEBTOR] */\n      0x00\n        /* \"ExodusTreasury/Treasury.sol\":7094:7139  permissions[STATUS.RESERVEDEBTOR][msg.sender] */\n      swap1\n      dup2\n      mstore\n        /* \"ExodusTreasury/Treasury.sol\":7094:7127  permissions[STATUS.RESERVEDEBTOR] */\n      0xbeb3bad75134cb432e5707980e3245c52c5998a1125ee30f2f0dbf3925b1e551\n      0x20\n        /* \"ExodusTreasury/Treasury.sol\":7094:7139  permissions[STATUS.RESERVEDEBTOR][msg.sender] */\n      mstore\n        /* \"ExodusTreasury/Treasury.sol\":7094:7127  permissions[STATUS.RESERVEDEBTOR] */\n      0x40\n        /* \"ExodusTreasury/Treasury.sol\":7094:7139  permissions[STATUS.RESERVEDEBTOR][msg.sender] */\n      swap1\n      keccak256\n      sload\n        /* \"ExodusTreasury/Treasury.sol\":7141:7152  notApproved */\n      0x0e\n      swap1\n        /* \"ExodusTreasury/Treasury.sol\":7094:7139  permissions[STATUS.RESERVEDEBTOR][msg.sender] */\n      0xff\n      and\n        /* \"ExodusTreasury/Treasury.sol\":7086:7153  require(permissions[STATUS.RESERVEDEBTOR][msg.sender], notApproved) */\n      tag_232\n      jumpi\n      mload(0x40)\n      shl(0xe5, 0x461bcd)\n      dup2\n      mstore\n      0x20\n      0x04\n      dup3\n      add\n      swap1\n      dup2\n      mstore\n      dup3\n      sload\n      0x02\n      not(0x00)\n      0x0100\n      0x01\n      dup5\n      and\n      iszero\n      mul\n      add\n      swap1\n      swap2\n      and\n      div\n      0x24\n      dup4\n      add\n      dup2\n      swap1\n      mstore\n      swap1\n      swap2\n      dup3\n      swap2\n      0x44\n      swap1\n      swap2\n      add\n      swap1\n      dup5\n      swap1\n      dup1\n      iszero\n      tag_148\n      jumpi\n      dup1\n      0x1f\n      lt\n      tag_149\n      jumpi\n      0x0100\n      dup1\n      dup4\n      sload\n      div\n      mul\n      dup4\n      mstore\n      swap2\n      0x20\n      add\n      swap2\n      jump(tag_148)\n    tag_232:\n      pop\n      sub(shl(0xa0, 0x01), 0x01)\n        /* \"ExodusTreasury/Treasury.sol\":7175:7215  permissions[STATUS.RESERVETOKEN][_token] */\n      dup3\n      and\n        /* \"ExodusTreasury/Treasury.sol\":7175:7207  permissions[STATUS.RESERVETOKEN] */\n      0x00\n        /* \"ExodusTreasury/Treasury.sol\":7175:7215  permissions[STATUS.RESERVETOKEN][_token] */\n      swap1\n      dup2\n      mstore\n        /* \"ExodusTreasury/Treasury.sol\":7175:7207  permissions[STATUS.RESERVETOKEN] */\n      0x91da3fd0782e51c6b3986e9e672fd566868e71f3dbc2d6c2cd6fbb3e361af2a7\n      0x20\n        /* \"ExodusTreasury/Treasury.sol\":7175:7215  permissions[STATUS.RESERVETOKEN][_token] */\n      mstore\n        /* \"ExodusTreasury/Treasury.sol\":7175:7207  permissions[STATUS.RESERVETOKEN] */\n      0x40\n        /* \"ExodusTreasury/Treasury.sol\":7175:7215  permissions[STATUS.RESERVETOKEN][_token] */\n      swap1\n      keccak256\n      sload\n        /* \"ExodusTreasury/Treasury.sol\":7217:7228  notAccepted */\n      0x0d\n      swap1\n        /* \"ExodusTreasury/Treasury.sol\":7175:7215  permissions[STATUS.RESERVETOKEN][_token] */\n      0xff\n      and\n        /* \"ExodusTreasury/Treasury.sol\":7167:7229  require(permissions[STATUS.RESERVETOKEN][_token], notAccepted) */\n      tag_238\n      jumpi\n      mload(0x40)\n      shl(0xe5, 0x461bcd)\n      dup2\n      mstore\n      0x20\n      0x04\n      dup3\n      add\n      swap1\n      dup2\n      mstore\n      dup3\n      sload\n      0x02\n      not(0x00)\n      0x0100\n      0x01\n      dup5\n      and\n      iszero\n      mul\n      add\n      swap1\n      swap2\n      and\n      div\n      0x24\n      dup4\n      add\n      dup2\n      swap1\n      mstore\n      swap1\n      swap2\n      dup3\n      swap2\n      0x44\n      swap1\n      swap2\n      add\n      swap1\n      dup5\n      swap1\n      dup1\n      iszero\n      tag_148\n      jumpi\n      dup1\n      0x1f\n      lt\n      tag_149\n      jumpi\n      0x0100\n      dup1\n      dup4\n      sload\n      div\n      mul\n      dup4\n      mstore\n      swap2\n      0x20\n      add\n      swap2\n      jump(tag_148)\n    tag_238:\n      pop\n        /* \"ExodusTreasury/Treasury.sol\":7251:7278  tokenValue(_token, _amount) */\n      tag_242\n        /* \"ExodusTreasury/Treasury.sol\":7262:7268  _token */\n      dup3\n        /* \"ExodusTreasury/Treasury.sol\":7270:7277  _amount */\n      dup5\n        /* \"ExodusTreasury/Treasury.sol\":7251:7261  tokenValue */\n      tag_138\n        /* \"ExodusTreasury/Treasury.sol\":7251:7278  tokenValue(_token, _amount) */\n      jump\t// in\n    tag_242:\n        /* \"ExodusTreasury/Treasury.sol\":7243:7278  value = tokenValue(_token, _amount) */\n      swap1\n      pop\n        /* \"ExodusTreasury/Treasury.sol\":6921:7289  if (_token == address(EXO)) {... */\n    tag_229:\n        /* \"ExodusTreasury/Treasury.sol\":7318:7330  invalidToken */\n      0x0f\n        /* \"ExodusTreasury/Treasury.sol\":7306:7316  value != 0 */\n      dup2\n        /* \"ExodusTreasury/Treasury.sol\":7298:7331  require(value != 0, invalidToken) */\n      tag_243\n      jumpi\n      mload(0x40)\n      shl(0xe5, 0x461bcd)\n      dup2\n      mstore\n      0x20\n      0x04\n      dup3\n      add\n      swap1\n      dup2\n      mstore\n      dup3\n      sload\n      0x02\n      not(0x00)\n      0x0100\n      0x01\n      dup5\n      and\n      iszero\n      mul\n      add\n      swap1\n      swap2\n      and\n      div\n      0x24\n      dup4\n      add\n      dup2\n      swap1\n      mstore\n      swap1\n      swap2\n      dup3\n      swap2\n      0x44\n      swap1\n      swap2\n      add\n      swap1\n      dup5\n      swap1\n      dup1\n      iszero\n      tag_148\n      jumpi\n      dup1\n      0x1f\n      lt\n      tag_149\n      jumpi\n      0x0100\n      dup1\n      dup4\n      sload\n      div\n      mul\n      dup4\n      mstore\n      swap2\n      0x20\n      add\n      swap2\n      jump(tag_148)\n    tag_243:\n      pop\n        /* \"ExodusTreasury/Treasury.sol\":7342:7346  sEXO */\n      sload(0x02)\n        /* \"ExodusTreasury/Treasury.sol\":7342:7382  sEXO.changeDebt(value, msg.sender, true) */\n      0x40\n      dup1\n      mload\n      shl(0xe0, 0xae5c6cd3)\n      dup2\n      mstore\n      0x04\n      dup2\n      add\n      dup5\n      swap1\n      mstore\n        /* \"ExodusTreasury/Treasury.sol\":7365:7375  msg.sender */\n      caller\n        /* \"ExodusTreasury/Treasury.sol\":7342:7382  sEXO.changeDebt(value, msg.sender, true) */\n      0x24\n      dup3\n      add\n      mstore\n        /* \"ExodusTreasury/Treasury.sol\":7342:7346  sEXO */\n      0x01\n        /* \"ExodusTreasury/Treasury.sol\":7342:7382  sEXO.changeDebt(value, msg.sender, true) */\n      0x44\n      dup3\n      add\n      mstore\n      swap1\n      mload\n      sub(shl(0xa0, 0x01), 0x01)\n        /* \"ExodusTreasury/Treasury.sol\":7342:7346  sEXO */\n      swap1\n      swap3\n      and\n      swap2\n        /* \"ExodusTreasury/Treasury.sol\":7342:7357  sEXO.changeDebt */\n      0xae5c6cd3\n      swap2\n        /* \"ExodusTreasury/Treasury.sol\":7342:7382  sEXO.changeDebt(value, msg.sender, true) */\n      0x64\n      dup1\n      dup3\n      add\n      swap3\n        /* \"ExodusTreasury/Treasury.sol\":7342:7346  sEXO */\n      0x00\n      swap3\n        /* \"ExodusTreasury/Treasury.sol\":7342:7382  sEXO.changeDebt(value, msg.sender, true) */\n      swap1\n      swap2\n      swap1\n      dup3\n      swap1\n      sub\n      add\n      dup2\n        /* \"ExodusTreasury/Treasury.sol\":7342:7346  sEXO */\n      dup4\n      dup8\n        /* \"ExodusTreasury/Treasury.sol\":7342:7382  sEXO.changeDebt(value, msg.sender, true) */\n      dup1\n      extcodesize\n      iszero\n      dup1\n      iszero\n      tag_247\n      jumpi\n      0x00\n      dup1\n      revert\n    tag_247:\n      pop\n      gas\n      call\n      iszero\n      dup1\n      iszero\n      tag_249\n      jumpi\n      returndatasize\n      0x00\n      dup1\n      returndatacopy\n      revert(0x00, returndatasize)\n    tag_249:\n      pop\n      pop\n        /* \"ExodusTreasury/Treasury.sol\":7443:7453  msg.sender */\n      caller\n        /* \"ExodusTreasury/Treasury.sol\":7433:7454  debtLimit[msg.sender] */\n      0x00\n      dup2\n      dup2\n      mstore\n        /* \"ExodusTreasury/Treasury.sol\":7433:7442  debtLimit */\n      0x06\n        /* \"ExodusTreasury/Treasury.sol\":7433:7454  debtLimit[msg.sender] */\n      0x20\n      swap1\n      dup2\n      mstore\n      0x40\n      swap2\n      dup3\n      swap1\n      keccak256\n      sload\n        /* \"ExodusTreasury/Treasury.sol\":7400:7404  sEXO */\n      sload(0x02)\n        /* \"ExodusTreasury/Treasury.sol\":7400:7429  sEXO.debtBalances(msg.sender) */\n      dup4\n      mload\n      0xc4ef1c4c00000000000000000000000000000000000000000000000000000000\n      dup2\n      mstore\n      0x04\n      dup2\n      add\n      swap6\n      swap1\n      swap6\n      mstore\n      swap3\n      mload\n        /* \"ExodusTreasury/Treasury.sol\":7433:7454  debtLimit[msg.sender] */\n      swap1\n      swap6\n      pop\n      sub(shl(0xa0, 0x01), 0x01)\n        /* \"ExodusTreasury/Treasury.sol\":7400:7404  sEXO */\n      swap1\n      swap3\n      and\n      swap4\n      pop\n        /* \"ExodusTreasury/Treasury.sol\":7400:7417  sEXO.debtBalances */\n      0xc4ef1c4c\n      swap3\n        /* \"ExodusTreasury/Treasury.sol\":7400:7429  sEXO.debtBalances(msg.sender) */\n      0x24\n      dup1\n      dup3\n      add\n      swap4\n      swap2\n      dup3\n      swap1\n      sub\n      add\n      dup2\n        /* \"ExodusTreasury/Treasury.sol\":7400:7404  sEXO */\n      dup7\n        /* \"ExodusTreasury/Treasury.sol\":7400:7429  sEXO.debtBalances(msg.sender) */\n      dup1\n      extcodesize\n      iszero\n      dup1\n      iszero\n      tag_250\n      jumpi\n      0x00\n      dup1\n      revert\n    tag_250:\n      pop\n      gas\n      staticcall\n      iszero\n      dup1\n      iszero\n      tag_252\n      jumpi\n      returndatasize\n      0x00\n      dup1\n      returndatacopy\n      revert(0x00, returndatasize)\n    tag_252:\n      pop\n      pop\n      pop\n      pop\n      mload(0x40)\n      returndatasize\n      0x20\n      dup2\n      lt\n      iszero\n      tag_253\n      jumpi\n      0x00\n      dup1\n      revert\n    tag_253:\n      pop\n      mload\n        /* \"ExodusTreasury/Treasury.sol\":7400:7454  sEXO.debtBalances(msg.sender) <= debtLimit[msg.sender] */\n      gt\n      iszero\n        /* \"ExodusTreasury/Treasury.sol\":7392:7482  require(sEXO.debtBalances(msg.sender) <= debtLimit[msg.sender], \"Treasury: exceeds limit\") */\n      tag_254\n      jumpi\n      0x40\n      dup1\n      mload\n      shl(0xe5, 0x461bcd)\n      dup2\n      mstore\n      0x20\n      0x04\n      dup3\n      add\n      mstore\n      0x17\n      0x24\n      dup3\n      add\n      mstore\n      0x54726561737572793a2065786365656473206c696d6974000000000000000000\n      0x44\n      dup3\n      add\n      mstore\n      swap1\n      mload\n      swap1\n      dup2\n      swap1\n      sub\n      0x64\n      add\n      swap1\n      revert\n    tag_254:\n        /* \"ExodusTreasury/Treasury.sol\":7504:7513  totalDebt */\n      sload(0x08)\n        /* \"ExodusTreasury/Treasury.sol\":7504:7524  totalDebt.add(value) */\n      tag_255\n      swap1\n        /* \"ExodusTreasury/Treasury.sol\":7518:7523  value */\n      dup3\n        /* \"ExodusTreasury/Treasury.sol\":7504:7517  totalDebt.add */\n      tag_256\n        /* \"ExodusTreasury/Treasury.sol\":7504:7524  totalDebt.add(value) */\n      jump\t// in\n    tag_255:\n        /* \"ExodusTreasury/Treasury.sol\":7492:7501  totalDebt */\n      0x08\n        /* \"ExodusTreasury/Treasury.sol\":7492:7524  totalDebt = totalDebt.add(value) */\n      dup2\n      swap1\n      sstore\n      pop\n        /* \"ExodusTreasury/Treasury.sol\":7557:7560  EXO */\n      immutable(\"0xa423c60bc1787d67fffc27d03c64206552502a85ae4c5cd0abbc1461b537b9d1\")\n      sub(shl(0xa0, 0x01), 0x01)\n        /* \"ExodusTreasury/Treasury.sol\":7539:7561  _token == address(EXO) */\n      and\n        /* \"ExodusTreasury/Treasury.sol\":7539:7545  _token */\n      dup3\n      sub(shl(0xa0, 0x01), 0x01)\n        /* \"ExodusTreasury/Treasury.sol\":7539:7561  _token == address(EXO) */\n      and\n      eq\n        /* \"ExodusTreasury/Treasury.sol\":7535:7790  if (_token == address(EXO)) {... */\n      iszero\n      tag_257\n      jumpi\n        /* \"ExodusTreasury/Treasury.sol\":7577:7604  EXO.mint(msg.sender, value) */\n      0x40\n      dup1\n      mload\n      0x40c10f1900000000000000000000000000000000000000000000000000000000\n      dup2\n      mstore\n        /* \"ExodusTreasury/Treasury.sol\":7586:7596  msg.sender */\n      caller\n        /* \"ExodusTreasury/Treasury.sol\":7577:7604  EXO.mint(msg.sender, value) */\n      0x04\n      dup3\n      add\n      mstore\n      0x24\n      dup2\n      add\n      dup4\n      swap1\n      mstore\n      swap1\n      mload\n      sub(shl(0xa0, 0x01), 0x01)\n        /* \"ExodusTreasury/Treasury.sol\":7577:7580  EXO */\n      immutable(\"0xa423c60bc1787d67fffc27d03c64206552502a85ae4c5cd0abbc1461b537b9d1\")\n        /* \"ExodusTreasury/Treasury.sol\":7577:7585  EXO.mint */\n      and\n      swap2\n      0x40c10f19\n      swap2\n        /* \"ExodusTreasury/Treasury.sol\":7577:7604  EXO.mint(msg.sender, value) */\n      0x44\n      dup1\n      dup4\n      add\n      swap3\n      0x00\n      swap3\n      swap2\n      swap1\n      dup3\n      swap1\n      sub\n      add\n      dup2\n      dup4\n        /* \"ExodusTreasury/Treasury.sol\":7577:7585  EXO.mint */\n      dup8\n        /* \"ExodusTreasury/Treasury.sol\":7577:7604  EXO.mint(msg.sender, value) */\n      dup1\n      extcodesize\n      iszero\n      dup1\n      iszero\n      tag_258\n      jumpi\n      0x00\n      dup1\n      revert\n    tag_258:\n      pop\n      gas\n      call\n      iszero\n      dup1\n      iszero\n      tag_260\n      jumpi\n      returndatasize\n      0x00\n      dup1\n      returndatacopy\n      revert(0x00, returndatasize)\n    tag_260:\n      pop\n      pop\n        /* \"ExodusTreasury/Treasury.sol\":7628:7635  exoDebt */\n      sload(0x09)\n        /* \"ExodusTreasury/Treasury.sol\":7628:7646  exoDebt.add(value) */\n      tag_261\n      swap3\n      pop\n        /* \"ExodusTreasury/Treasury.sol\":7628:7635  exoDebt */\n      swap1\n      pop\n        /* \"ExodusTreasury/Treasury.sol\":7640:7645  value */\n      dup3\n        /* \"ExodusTreasury/Treasury.sol\":7628:7639  exoDebt.add */\n      tag_256\n        /* \"ExodusTreasury/Treasury.sol\":7628:7646  exoDebt.add(value) */\n      jump\t// in\n    tag_261:\n        /* \"ExodusTreasury/Treasury.sol\":7618:7625  exoDebt */\n      0x09\n        /* \"ExodusTreasury/Treasury.sol\":7618:7646  exoDebt = exoDebt.add(value) */\n      sstore\n        /* \"ExodusTreasury/Treasury.sol\":7535:7790  if (_token == address(EXO)) {... */\n      jump(tag_264)\n    tag_257:\n        /* \"ExodusTreasury/Treasury.sol\":7693:7706  totalReserves */\n      sload(0x07)\n        /* \"ExodusTreasury/Treasury.sol\":7693:7717  totalReserves.sub(value) */\n      tag_263\n      swap1\n        /* \"ExodusTreasury/Treasury.sol\":7711:7716  value */\n      dup3\n        /* \"ExodusTreasury/Treasury.sol\":7693:7710  totalReserves.sub */\n      tag_162\n        /* \"ExodusTreasury/Treasury.sol\":7693:7717  totalReserves.sub(value) */\n      jump\t// in\n    tag_263:\n        /* \"ExodusTreasury/Treasury.sol\":7677:7690  totalReserves */\n      0x07\n        /* \"ExodusTreasury/Treasury.sol\":7677:7717  totalReserves = totalReserves.sub(value) */\n      sstore\n        /* \"ExodusTreasury/Treasury.sol\":7731:7779  IERC20(_token).safeTransfer(msg.sender, _amount) */\n      tag_264\n      sub(shl(0xa0, 0x01), 0x01)\n        /* \"ExodusTreasury/Treasury.sol\":7731:7758  IERC20(_token).safeTransfer */\n      dup4\n      and\n        /* \"ExodusTreasury/Treasury.sol\":7759:7769  msg.sender */\n      caller\n        /* \"ExodusTreasury/Treasury.sol\":7771:7778  _amount */\n      dup6\n        /* \"ExodusTreasury/Treasury.sol\":7731:7758  IERC20(_token).safeTransfer */\n      tag_164\n        /* \"ExodusTreasury/Treasury.sol\":7731:7779  IERC20(_token).safeTransfer(msg.sender, _amount) */\n      jump\t// in\n    tag_264:\n        /* \"ExodusTreasury/Treasury.sol\":7804:7850  CreateDebt(msg.sender, _token, _amount, value) */\n      0x40\n      dup1\n      mload\n      dup5\n      dup2\n      mstore\n      0x20\n      dup2\n      add\n      dup4\n      swap1\n      mstore\n      dup2\n      mload\n      sub(shl(0xa0, 0x01), 0x01)\n      dup6\n      and\n      swap3\n        /* \"ExodusTreasury/Treasury.sol\":7815:7825  msg.sender */\n      caller\n      swap3\n        /* \"ExodusTreasury/Treasury.sol\":7804:7850  CreateDebt(msg.sender, _token, _amount, value) */\n      0x7e1a939bed137a819b5d2979822c67f877689f7a863d5e4cb57cdca97b2977d6\n      swap3\n      swap1\n      dup2\n      swap1\n      sub\n      swap1\n      swap2\n      add\n      swap1\n      log3\n        /* \"ExodusTreasury/Treasury.sol\":6818:7857  function incurDebt(uint256 _amount, address _token) external override {... */\n      pop\n      pop\n      pop\n      jump\t// out\n        /* \"ExodusTreasury/Treasury.sol\":2296:2319  bool public initialized */\n    tag_69:\n      sload(0x0b)\n      0x0100\n      swap1\n      div\n      0xff\n      and\n      dup2\n      jump\t// out\n        /* \"ExodusTreasury/Treasury.sol\":1975:2024  mapping(address => address) public bondCalculator */\n    tag_72:\n      mstore(0x20, 0x05)\n      0x00\n      swap1\n      dup2\n      mstore\n      0x40\n      swap1\n      keccak256\n      sload\n      sub(shl(0xa0, 0x01), 0x01)\n      and\n      dup2\n      jump\t// out\n        /* \"ExodusTreasury/Treasury.sol\":12819:13650  function queueTimelock(... */\n    tag_75:\n        /* \"ExodusTreasury/OlympusAccessControlled.sol\":672:681  authority */\n      0x01\n      0x00\n      swap1\n      sload\n      swap1\n      0x0100\n      exp\n      swap1\n      div\n      sub(shl(0xa0, 0x01), 0x01)\n      and\n      sub(shl(0xa0, 0x01), 0x01)\n        /* \"ExodusTreasury/OlympusAccessControlled.sol\":672:690  authority.governor */\n      and\n      0x0c340a24\n        /* \"ExodusTreasury/OlympusAccessControlled.sol\":672:692  authority.governor() */\n      mload(0x40)\n      dup2\n      0xffffffff\n      and\n      0xe0\n      shl\n      dup2\n      mstore\n      0x04\n      add\n      0x20\n      mload(0x40)\n      dup1\n      dup4\n      sub\n      dup2\n      dup7\n      dup1\n      extcodesize\n      iszero\n      dup1\n      iszero\n      tag_266\n      jumpi\n      0x00\n      dup1\n      revert\n    tag_266:\n      pop\n      gas\n      staticcall\n      iszero\n      dup1\n      iszero\n      tag_268\n      jumpi\n      returndatasize\n      0x00\n      dup1\n      returndatacopy\n      revert(0x00, returndatasize)\n    tag_268:\n      pop\n      pop\n      pop\n      pop\n      mload(0x40)\n      returndatasize\n      0x20\n      dup2\n      lt\n      iszero\n      tag_269\n      jumpi\n      0x00\n      dup1\n      revert\n    tag_269:\n      pop\n      mload\n        /* \"ExodusTreasury/OlympusAccessControlled.sol\":694:706  UNAUTHORIZED */\n      0x00\n      swap1\n      sub(shl(0xa0, 0x01), 0x01)\n        /* \"ExodusTreasury/OlympusAccessControlled.sol\":658:692  msg.sender == authority.governor() */\n      and\n        /* \"ExodusTreasury/OlympusAccessControlled.sol\":658:668  msg.sender */\n      caller\n        /* \"ExodusTreasury/OlympusAccessControlled.sol\":658:692  msg.sender == authority.governor() */\n      eq\n        /* \"ExodusTreasury/OlympusAccessControlled.sol\":650:707  require(msg.sender == authority.governor(), UNAUTHORIZED) */\n      tag_270\n      jumpi\n      mload(0x40)\n      shl(0xe5, 0x461bcd)\n      dup2\n      mstore\n      0x20\n      0x04\n      dup3\n      add\n      swap1\n      dup2\n      mstore\n      dup3\n      sload\n      0x02\n      not(0x00)\n      0x0100\n      0x01\n      dup5\n      and\n      iszero\n      mul\n      add\n      swap1\n      swap2\n      and\n      div\n      0x24\n      dup4\n      add\n      dup2\n      swap1\n      mstore\n      swap1\n      swap2\n      dup3\n      swap2\n      0x44\n      swap1\n      swap2\n      add\n      swap1\n      dup5\n      swap1\n      dup1\n      iszero\n      tag_148\n      jumpi\n      dup1\n      0x1f\n      lt\n      tag_149\n      jumpi\n      0x0100\n      dup1\n      dup4\n      sload\n      div\n      mul\n      dup4\n      mstore\n      swap2\n      0x20\n      add\n      swap2\n      jump(tag_148)\n    tag_270:\n      pop\n      sub(shl(0xa0, 0x01), 0x01)\n        /* \"ExodusTreasury/Treasury.sol\":12967:12989  _address != address(0) */\n      dup3\n      and\n        /* \"ExodusTreasury/Treasury.sol\":12959:12990  require(_address != address(0)) */\n      tag_275\n      jumpi\n      0x00\n      dup1\n      revert\n    tag_275:\n        /* \"ExodusTreasury/Treasury.sol\":13008:13023  timelockEnabled */\n      and(0xff, sload(0x0b))\n        /* \"ExodusTreasury/Treasury.sol\":13008:13031  timelockEnabled == true */\n      iszero\n      iszero\n        /* \"ExodusTreasury/Treasury.sol\":13008:13023  timelockEnabled */\n      0x01\n        /* \"ExodusTreasury/Treasury.sol\":13008:13031  timelockEnabled == true */\n      eq\n        /* \"ExodusTreasury/Treasury.sol\":13000:13068  require(timelockEnabled == true, \"Timelock is disabled, use enable\") */\n      tag_276\n      jumpi\n      0x40\n      dup1\n      mload\n      shl(0xe5, 0x461bcd)\n      dup2\n      mstore\n      0x20\n      0x04\n      dup3\n      add\n      dup2\n      swap1\n      mstore\n      0x24\n      dup3\n      add\n      mstore\n      0x54696d656c6f636b2069732064697361626c65642c2075736520656e61626c65\n      0x44\n      dup3\n      add\n      mstore\n      swap1\n      mload\n      swap1\n      dup2\n      swap1\n      sub\n      0x64\n      add\n      swap1\n      revert\n    tag_276:\n        /* \"ExodusTreasury/Treasury.sol\":13079:13095  uint256 timelock */\n      0x00\n        /* \"ExodusTreasury/Treasury.sol\":13098:13136  block.number.add(blocksNeededForQueue) */\n      tag_277\n        /* \"ExodusTreasury/Treasury.sol\":13098:13110  block.number */\n      number\n        /* \"ExodusTreasury/Treasury.sol\":13115:13135  blocksNeededForQueue */\n      immutable(\"0xced2926accb5b65113b9dfa04c89dc1608287373834acba62edea43e130eddaa\")\n        /* \"ExodusTreasury/Treasury.sol\":13098:13114  block.number.add */\n      tag_256\n        /* \"ExodusTreasury/Treasury.sol\":13098:13136  block.number.add(blocksNeededForQueue) */\n      jump\t// in\n    tag_277:\n        /* \"ExodusTreasury/Treasury.sol\":13079:13136  uint256 timelock = block.number.add(blocksNeededForQueue) */\n      swap1\n      pop\n        /* \"ExodusTreasury/Treasury.sol\":13161:13182  STATUS.RESERVEMANAGER */\n      0x03\n        /* \"ExodusTreasury/Treasury.sol\":13150:13157  _status */\n      dup5\n        /* \"ExodusTreasury/Treasury.sol\":13150:13182  _status == STATUS.RESERVEMANAGER */\n      0x0a\n      dup2\n      gt\n      iszero\n      tag_279\n      jumpi\n      invalid\n    tag_279:\n      eq\n        /* \"ExodusTreasury/Treasury.sol\":13150:13220  _status == STATUS.RESERVEMANAGER || _status == STATUS.LIQUIDITYMANAGER */\n      dup1\n      tag_280\n      jumpi\n      pop\n        /* \"ExodusTreasury/Treasury.sol\":13197:13220  STATUS.LIQUIDITYMANAGER */\n      0x06\n        /* \"ExodusTreasury/Treasury.sol\":13186:13193  _status */\n      dup5\n        /* \"ExodusTreasury/Treasury.sol\":13186:13220  _status == STATUS.LIQUIDITYMANAGER */\n      0x0a\n      dup2\n      gt\n      iszero\n      tag_282\n      jumpi\n      invalid\n    tag_282:\n      eq\n        /* \"ExodusTreasury/Treasury.sol\":13150:13220  _status == STATUS.RESERVEMANAGER || _status == STATUS.LIQUIDITYMANAGER */\n    tag_280:\n        /* \"ExodusTreasury/Treasury.sol\":13146:13303  if (_status == STATUS.RESERVEMANAGER || _status == STATUS.LIQUIDITYMANAGER) {... */\n      iszero\n      tag_283\n      jumpi\n        /* \"ExodusTreasury/Treasury.sol\":13247:13292  block.number.add(blocksNeededForQueue.mul(2)) */\n      tag_284\n        /* \"ExodusTreasury/Treasury.sol\":13264:13291  blocksNeededForQueue.mul(2) */\n      tag_285\n        /* \"ExodusTreasury/Treasury.sol\":13264:13284  blocksNeededForQueue */\n      immutable(\"0xced2926accb5b65113b9dfa04c89dc1608287373834acba62edea43e130eddaa\")\n        /* \"ExodusTreasury/Treasury.sol\":13289:13290  2 */\n      0x02\n        /* \"ExodusTreasury/Treasury.sol\":13264:13288  blocksNeededForQueue.mul */\n      tag_286\n        /* \"ExodusTreasury/Treasury.sol\":13264:13291  blocksNeededForQueue.mul(2) */\n      jump\t// in\n    tag_285:\n        /* \"ExodusTreasury/Treasury.sol\":13247:13259  block.number */\n      number\n      swap1\n        /* \"ExodusTreasury/Treasury.sol\":13247:13263  block.number.add */\n      tag_256\n        /* \"ExodusTreasury/Treasury.sol\":13247:13292  block.number.add(blocksNeededForQueue.mul(2)) */\n      jump\t// in\n    tag_284:\n        /* \"ExodusTreasury/Treasury.sol\":13236:13292  timelock = block.number.add(blocksNeededForQueue.mul(2)) */\n      swap1\n      pop\n        /* \"ExodusTreasury/Treasury.sol\":13146:13303  if (_status == STATUS.RESERVEMANAGER || _status == STATUS.LIQUIDITYMANAGER) {... */\n    tag_283:\n        /* \"ExodusTreasury/Treasury.sol\":13312:13327  permissionQueue */\n      0x0a\n        /* \"ExodusTreasury/Treasury.sol\":13346:13583  Queue({... */\n      mload(0x40)\n      dup1\n      0xc0\n      add\n      0x40\n      mstore\n      dup1\n        /* \"ExodusTreasury/Treasury.sol\":13380:13387  _status */\n      dup7\n        /* \"ExodusTreasury/Treasury.sol\":13346:13583  Queue({... */\n      0x0a\n      dup2\n      gt\n      iszero\n      tag_287\n      jumpi\n      invalid\n    tag_287:\n      dup2\n      mstore\n      sub(shl(0xa0, 0x01), 0x01)\n      dup1\n      dup8\n      and\n      0x20\n      dup1\n      dup5\n      add\n      swap2\n      swap1\n      swap2\n      mstore\n      swap1\n      dup7\n      and\n      0x40\n      dup4\n      add\n      mstore\n      0x60\n      dup3\n      add\n      dup6\n      swap1\n      mstore\n      0x00\n      0x80\n      dup4\n      add\n      dup2\n      swap1\n      mstore\n      0xa0\n      swap1\n      swap3\n      add\n      dup3\n      swap1\n      mstore\n        /* \"ExodusTreasury/Treasury.sol\":13312:13593  permissionQueue.push(... */\n      dup4\n      sload\n        /* \"ExodusTreasury/Treasury.sol\":13346:13583  Queue({... */\n      0x01\n        /* \"ExodusTreasury/Treasury.sol\":13312:13593  permissionQueue.push(... */\n      dup2\n      dup2\n      add\n      dup7\n      sstore\n      swap5\n      dup4\n      mstore\n      swap2\n      keccak256\n      dup3\n      mload\n      0x04\n      swap1\n      swap3\n      mul\n      add\n      dup1\n      sload\n      swap3\n      swap4\n      swap1\n      swap3\n      dup4\n      swap2\n      not(0xff)\n      swap1\n      swap2\n      and\n      swap1\n      dup4\n      0x0a\n      dup2\n      gt\n      iszero\n      tag_289\n      jumpi\n      invalid\n    tag_289:\n      mul\n      or\n      swap1\n      sstore\n      pop\n      0x20\n      dup3\n      add\n      mload\n      dup2\n      sload\n      0xffffffffffffffffffffff0000000000000000000000000000000000000000ff\n      and\n      0x0100\n      sub(shl(0xa0, 0x01), 0x01)\n      swap3\n      dup4\n      and\n      dup2\n      mul\n      swap2\n      swap1\n      swap2\n      or\n      dup4\n      sstore\n      0x40\n      dup5\n      add\n      mload\n      0x01\n      dup5\n      add\n      dup1\n      sload\n      not(sub(shl(0xa0, 0x01), 0x01))\n      and\n      swap2\n      swap1\n      swap4\n      and\n      or\n      swap1\n      swap2\n      sstore\n      0x60\n      dup4\n      add\n      mload\n      0x02\n      dup4\n      add\n      sstore\n      0x80\n      dup4\n      add\n      mload\n      0x03\n      swap1\n      swap3\n      add\n      dup1\n      sload\n      0xa0\n      swap1\n      swap5\n      add\n      mload\n      not(0xff)\n      swap1\n      swap5\n      and\n      swap3\n      iszero\n      iszero\n      swap3\n      swap1\n      swap3\n      or\n      not(0xff00)\n      and\n      swap3\n      iszero\n      iszero\n      mul\n      swap2\n      swap1\n      swap2\n      or\n      swap1\n      sstore\n        /* \"ExodusTreasury/Treasury.sol\":13625:13632  _status */\n      dup4\n        /* \"ExodusTreasury/Treasury.sol\":13608:13643  PermissionQueued(_status, _address) */\n      0x0a\n      dup2\n      gt\n      iszero\n      tag_290\n      jumpi\n      invalid\n    tag_290:\n      0x40\n      dup1\n      mload\n      sub(shl(0xa0, 0x01), 0x01)\n      dup7\n      and\n      dup2\n      mstore\n      swap1\n      mload\n      0xc822ff41836a6dc998393c71843db8adcbbf01721f41b32389f6838ecb1ea9c8\n      swap2\n      dup2\n      swap1\n      sub\n      0x20\n      add\n      swap1\n      log2\n        /* \"ExodusTreasury/OlympusAccessControlled.sol\":717:718  _ */\n      pop\n        /* \"ExodusTreasury/Treasury.sol\":12819:13650  function queueTimelock(... */\n      pop\n      pop\n      pop\n      jump\t// out\n        /* \"ExodusTreasury/Treasury.sol\":9375:10269  function auditReserves() external onlyGovernor {... */\n    tag_77:\n        /* \"ExodusTreasury/OlympusAccessControlled.sol\":672:681  authority */\n      0x01\n      0x00\n      swap1\n      sload\n      swap1\n      0x0100\n      exp\n      swap1\n      div\n      sub(shl(0xa0, 0x01), 0x01)\n      and\n      sub(shl(0xa0, 0x01), 0x01)\n        /* \"ExodusTreasury/OlympusAccessControlled.sol\":672:690  authority.governor */\n      and\n      0x0c340a24\n        /* \"ExodusTreasury/OlympusAccessControlled.sol\":672:692  authority.governor() */\n      mload(0x40)\n      dup2\n      0xffffffff\n      and\n      0xe0\n      shl\n      dup2\n      mstore\n      0x04\n      add\n      0x20\n      mload(0x40)\n      dup1\n      dup4\n      sub\n      dup2\n      dup7\n      dup1\n      extcodesize\n      iszero\n      dup1\n      iszero\n      tag_292\n      jumpi\n      0x00\n      dup1\n      revert\n    tag_292:\n      pop\n      gas\n      staticcall\n      iszero\n      dup1\n      iszero\n      tag_294\n      jumpi\n      returndatasize\n      0x00\n      dup1\n      returndatacopy\n      revert(0x00, returndatasize)\n    tag_294:\n      pop\n      pop\n      pop\n      pop\n      mload(0x40)\n      returndatasize\n      0x20\n      dup2\n      lt\n      iszero\n      tag_295\n      jumpi\n      0x00\n      dup1\n      revert\n    tag_295:\n      pop\n      mload\n        /* \"ExodusTreasury/OlympusAccessControlled.sol\":694:706  UNAUTHORIZED */\n      0x00\n      swap1\n      sub(shl(0xa0, 0x01), 0x01)\n        /* \"ExodusTreasury/OlympusAccessControlled.sol\":658:692  msg.sender == authority.governor() */\n      and\n        /* \"ExodusTreasury/OlympusAccessControlled.sol\":658:668  msg.sender */\n      caller\n        /* \"ExodusTreasury/OlympusAccessControlled.sol\":658:692  msg.sender == authority.governor() */\n      eq\n        /* \"ExodusTreasury/OlympusAccessControlled.sol\":650:707  require(msg.sender == authority.governor(), UNAUTHORIZED) */\n      tag_296\n      jumpi\n      mload(0x40)\n      shl(0xe5, 0x461bcd)\n      dup2\n      mstore\n      0x20\n      0x04\n      dup3\n      add\n      swap1\n      dup2\n      mstore\n      dup3\n      sload\n      0x02\n      not(0x00)\n      0x0100\n      0x01\n      dup5\n      and\n      iszero\n      mul\n      add\n      swap1\n      swap2\n      and\n      div\n      0x24\n      dup4\n      add\n      dup2\n      swap1\n      mstore\n      swap1\n      swap2\n      dup3\n      swap2\n      0x44\n      swap1\n      swap2\n      add\n      swap1\n      dup5\n      swap1\n      dup1\n      iszero\n      tag_148\n      jumpi\n      dup1\n      0x1f\n      lt\n      tag_149\n      jumpi\n      0x0100\n      dup1\n      dup4\n      sload\n      div\n      mul\n      dup4\n      mstore\n      swap2\n      0x20\n      add\n      swap2\n      jump(tag_148)\n    tag_296:\n      pop\n        /* \"ExodusTreasury/Treasury.sol\":9499:9518  STATUS.RESERVETOKEN */\n      0x02\n        /* \"ExodusTreasury/Treasury.sol\":9432:9448  uint256 reserves */\n      0x00\n        /* \"ExodusTreasury/Treasury.sol\":9490:9519  registry[STATUS.RESERVETOKEN] */\n      swap1\n      dup2\n      mstore\n        /* \"ExodusTreasury/Treasury.sol\":9490:9498  registry */\n      0x03\n        /* \"ExodusTreasury/Treasury.sol\":9490:9519  registry[STATUS.RESERVETOKEN] */\n      0x20\n      swap1\n      dup2\n      mstore\n      0xc3a24b0501bd2c13a7e57f2db4369ec4c223447539fc0724a9d55ac4a06ebd4d\n        /* \"ExodusTreasury/Treasury.sol\":9458:9519  address[] memory reserveToken = registry[STATUS.RESERVETOKEN] */\n      dup1\n      sload\n        /* \"ExodusTreasury/Treasury.sol\":9490:9519  registry[STATUS.RESERVETOKEN] */\n      0x40\n        /* \"ExodusTreasury/Treasury.sol\":9458:9519  address[] memory reserveToken = registry[STATUS.RESERVETOKEN] */\n      dup1\n      mload\n      dup3\n      dup6\n      mul\n      dup2\n      add\n      dup6\n      add\n      swap1\n      swap2\n      mstore\n      dup2\n      dup2\n      mstore\n        /* \"ExodusTreasury/Treasury.sol\":9458:9487  address[] memory reserveToken */\n      0x60\n      swap4\n        /* \"ExodusTreasury/Treasury.sol\":9458:9519  address[] memory reserveToken = registry[STATUS.RESERVETOKEN] */\n      swap1\n      swap3\n        /* \"ExodusTreasury/Treasury.sol\":9490:9519  registry[STATUS.RESERVETOKEN] */\n      swap2\n        /* \"ExodusTreasury/Treasury.sol\":9458:9519  address[] memory reserveToken = registry[STATUS.RESERVETOKEN] */\n      swap1\n      dup4\n      add\n        /* \"ExodusTreasury/Treasury.sol\":9490:9519  registry[STATUS.RESERVETOKEN] */\n      dup3\n        /* \"ExodusTreasury/Treasury.sol\":9458:9519  address[] memory reserveToken = registry[STATUS.RESERVETOKEN] */\n      dup3\n      dup1\n      iszero\n      tag_303\n      jumpi\n      0x20\n      mul\n      dup3\n      add\n      swap2\n      swap1\n      0x00\n      mstore\n      keccak256(0x00, 0x20)\n      swap1\n    tag_304:\n      dup2\n      sload\n      sub(shl(0xa0, 0x01), 0x01)\n      and\n      dup2\n      mstore\n      0x01\n      swap1\n      swap2\n      add\n      swap1\n      0x20\n      add\n      dup1\n      dup4\n      gt\n      tag_304\n      jumpi\n    tag_303:\n      pop\n      pop\n      pop\n      pop\n      pop\n      swap1\n      pop\n        /* \"ExodusTreasury/Treasury.sol\":9534:9543  uint256 i */\n      0x00\n        /* \"ExodusTreasury/Treasury.sol\":9529:9793  for (uint256 i = 0; i < reserveToken.length; i++) {... */\n    tag_305:\n        /* \"ExodusTreasury/Treasury.sol\":9553:9565  reserveToken */\n      dup2\n        /* \"ExodusTreasury/Treasury.sol\":9553:9572  reserveToken.length */\n      mload\n        /* \"ExodusTreasury/Treasury.sol\":9549:9550  i */\n      dup2\n        /* \"ExodusTreasury/Treasury.sol\":9549:9572  i < reserveToken.length */\n      lt\n        /* \"ExodusTreasury/Treasury.sol\":9529:9793  for (uint256 i = 0; i < reserveToken.length; i++) {... */\n      iszero\n      tag_306\n      jumpi\n        /* \"ExodusTreasury/Treasury.sol\":9609:9628  STATUS.RESERVETOKEN */\n      0x02\n        /* \"ExodusTreasury/Treasury.sol\":9597:9629  permissions[STATUS.RESERVETOKEN] */\n      0x00\n      swap1\n      dup2\n      mstore\n        /* \"ExodusTreasury/Treasury.sol\":9597:9608  permissions */\n      0x04\n        /* \"ExodusTreasury/Treasury.sol\":9597:9629  permissions[STATUS.RESERVETOKEN] */\n      0x20\n      mstore\n        /* \"ExodusTreasury/Treasury.sol\":9630:9645  reserveToken[i] */\n      dup3\n      mload\n        /* \"ExodusTreasury/Treasury.sol\":9597:9629  permissions[STATUS.RESERVETOKEN] */\n      0x91da3fd0782e51c6b3986e9e672fd566868e71f3dbc2d6c2cd6fbb3e361af2a7\n      swap2\n      swap1\n        /* \"ExodusTreasury/Treasury.sol\":9630:9642  reserveToken */\n      dup5\n      swap1\n        /* \"ExodusTreasury/Treasury.sol\":9643:9644  i */\n      dup5\n      swap1\n        /* \"ExodusTreasury/Treasury.sol\":9630:9645  reserveToken[i] */\n      dup2\n      lt\n      tag_310\n      jumpi\n      invalid\n    tag_310:\n      0x20\n      swap1\n      dup2\n      mul\n      swap2\n      swap1\n      swap2\n      add\n      dup2\n      add\n      mload\n      sub(shl(0xa0, 0x01), 0x01)\n        /* \"ExodusTreasury/Treasury.sol\":9597:9646  permissions[STATUS.RESERVETOKEN][reserveToken[i]] */\n      and\n      dup3\n      mstore\n      dup2\n      add\n      swap2\n      swap1\n      swap2\n      mstore\n      0x40\n      add\n      0x00\n      keccak256\n      sload\n      0xff\n      and\n        /* \"ExodusTreasury/Treasury.sol\":9593:9783  if (permissions[STATUS.RESERVETOKEN][reserveToken[i]]) {... */\n      iszero\n      tag_311\n      jumpi\n        /* \"ExodusTreasury/Treasury.sol\":9677:9768  reserves.add(tokenValue(reserveToken[i], IERC20(reserveToken[i]).balanceOf(address(this)))) */\n      tag_312\n        /* \"ExodusTreasury/Treasury.sol\":9690:9767  tokenValue(reserveToken[i], IERC20(reserveToken[i]).balanceOf(address(this))) */\n      tag_313\n        /* \"ExodusTreasury/Treasury.sol\":9701:9713  reserveToken */\n      dup4\n        /* \"ExodusTreasury/Treasury.sol\":9714:9715  i */\n      dup4\n        /* \"ExodusTreasury/Treasury.sol\":9701:9716  reserveToken[i] */\n      dup2\n      mload\n      dup2\n      lt\n      tag_314\n      jumpi\n      invalid\n    tag_314:\n      0x20\n      mul\n      0x20\n      add\n      add\n      mload\n        /* \"ExodusTreasury/Treasury.sol\":9725:9737  reserveToken */\n      dup5\n        /* \"ExodusTreasury/Treasury.sol\":9738:9739  i */\n      dup5\n        /* \"ExodusTreasury/Treasury.sol\":9725:9740  reserveToken[i] */\n      dup2\n      mload\n      dup2\n      lt\n      tag_315\n      jumpi\n      invalid\n    tag_315:\n      0x20\n      mul\n      0x20\n      add\n      add\n      mload\n      sub(shl(0xa0, 0x01), 0x01)\n        /* \"ExodusTreasury/Treasury.sol\":9718:9751  IERC20(reserveToken[i]).balanceOf */\n      and\n      0x70a08231\n        /* \"ExodusTreasury/Treasury.sol\":9760:9764  this */\n      address\n        /* \"ExodusTreasury/Treasury.sol\":9718:9766  IERC20(reserveToken[i]).balanceOf(address(this)) */\n      mload(0x40)\n      dup3\n      0xffffffff\n      and\n      0xe0\n      shl\n      dup2\n      mstore\n      0x04\n      add\n      dup1\n      dup3\n      sub(shl(0xa0, 0x01), 0x01)\n      and\n      dup2\n      mstore\n      0x20\n      add\n      swap2\n      pop\n      pop\n      0x20\n      mload(0x40)\n      dup1\n      dup4\n      sub\n      dup2\n      dup7\n      dup1\n      extcodesize\n      iszero\n      dup1\n      iszero\n      tag_316\n      jumpi\n      0x00\n      dup1\n      revert\n    tag_316:\n      pop\n      gas\n      staticcall\n      iszero\n      dup1\n      iszero\n      tag_318\n      jumpi\n      returndatasize\n      0x00\n      dup1\n      returndatacopy\n      revert(0x00, returndatasize)\n    tag_318:\n      pop\n      pop\n      pop\n      pop\n      mload(0x40)\n      returndatasize\n      0x20\n      dup2\n      lt\n      iszero\n      tag_319\n      jumpi\n      0x00\n      dup1\n      revert\n    tag_319:\n      pop\n      mload\n        /* \"ExodusTreasury/Treasury.sol\":9690:9700  tokenValue */\n      tag_138\n        /* \"ExodusTreasury/Treasury.sol\":9690:9767  tokenValue(reserveToken[i], IERC20(reserveToken[i]).balanceOf(address(this))) */\n      jump\t// in\n    tag_313:\n        /* \"ExodusTreasury/Treasury.sol\":9677:9685  reserves */\n      dup5\n      swap1\n        /* \"ExodusTreasury/Treasury.sol\":9677:9689  reserves.add */\n      tag_256\n        /* \"ExodusTreasury/Treasury.sol\":9677:9768  reserves.add(tokenValue(reserveToken[i], IERC20(reserveToken[i]).balanceOf(address(this)))) */\n      jump\t// in\n    tag_312:\n        /* \"ExodusTreasury/Treasury.sol\":9666:9768  reserves = reserves.add(tokenValue(reserveToken[i], IERC20(reserveToken[i]).balanceOf(address(this)))) */\n      swap3\n      pop\n        /* \"ExodusTreasury/Treasury.sol\":9593:9783  if (permissions[STATUS.RESERVETOKEN][reserveToken[i]]) {... */\n    tag_311:\n        /* \"ExodusTreasury/Treasury.sol\":9574:9577  i++ */\n      0x01\n      add\n        /* \"ExodusTreasury/Treasury.sol\":9529:9793  for (uint256 i = 0; i < reserveToken.length; i++) {... */\n      jump(tag_305)\n    tag_306:\n      pop\n        /* \"ExodusTreasury/Treasury.sol\":9845:9866  STATUS.LIQUIDITYTOKEN */\n      0x05\n        /* \"ExodusTreasury/Treasury.sol\":9836:9867  registry[STATUS.LIQUIDITYTOKEN] */\n      0x00\n      mstore\n        /* \"ExodusTreasury/Treasury.sol\":9836:9844  registry */\n      0x03\n        /* \"ExodusTreasury/Treasury.sol\":9836:9867  registry[STATUS.LIQUIDITYTOKEN] */\n      0x20\n      swap1\n      dup2\n      mstore\n      0x405aad32e1adbac89bb7f176e338b8fc6e994ca210c9bb7bdca249b465942250\n        /* \"ExodusTreasury/Treasury.sol\":9802:9867  address[] memory liquidityToken = registry[STATUS.LIQUIDITYTOKEN] */\n      dup1\n      sload\n        /* \"ExodusTreasury/Treasury.sol\":9836:9867  registry[STATUS.LIQUIDITYTOKEN] */\n      0x40\n        /* \"ExodusTreasury/Treasury.sol\":9802:9867  address[] memory liquidityToken = registry[STATUS.LIQUIDITYTOKEN] */\n      dup1\n      mload\n      dup3\n      dup6\n      mul\n      dup2\n      add\n      dup6\n      add\n      swap1\n      swap2\n      mstore\n      dup2\n      dup2\n      mstore\n        /* \"ExodusTreasury/Treasury.sol\":9802:9833  address[] memory liquidityToken */\n      0x60\n      swap4\n        /* \"ExodusTreasury/Treasury.sol\":9802:9867  address[] memory liquidityToken = registry[STATUS.LIQUIDITYTOKEN] */\n      swap1\n      swap3\n        /* \"ExodusTreasury/Treasury.sol\":9836:9867  registry[STATUS.LIQUIDITYTOKEN] */\n      swap2\n        /* \"ExodusTreasury/Treasury.sol\":9802:9867  address[] memory liquidityToken = registry[STATUS.LIQUIDITYTOKEN] */\n      swap1\n      dup4\n      add\n        /* \"ExodusTreasury/Treasury.sol\":9836:9867  registry[STATUS.LIQUIDITYTOKEN] */\n      dup3\n        /* \"ExodusTreasury/Treasury.sol\":9802:9867  address[] memory liquidityToken = registry[STATUS.LIQUIDITYTOKEN] */\n      dup3\n      dup1\n      iszero\n      tag_322\n      jumpi\n      0x20\n      mul\n      dup3\n      add\n      swap2\n      swap1\n      0x00\n      mstore\n      keccak256(0x00, 0x20)\n      swap1\n    tag_323:\n      dup2\n      sload\n      sub(shl(0xa0, 0x01), 0x01)\n      and\n      dup2\n      mstore\n      0x01\n      swap1\n      swap2\n      add\n      swap1\n      0x20\n      add\n      dup1\n      dup4\n      gt\n      tag_323\n      jumpi\n    tag_322:\n      pop\n      pop\n      pop\n      pop\n      pop\n      swap1\n      pop\n        /* \"ExodusTreasury/Treasury.sol\":9882:9891  uint256 i */\n      0x00\n        /* \"ExodusTreasury/Treasury.sol\":9877:10189  for (uint256 i = 0; i < liquidityToken.length; i++) {... */\n    tag_324:\n        /* \"ExodusTreasury/Treasury.sol\":9901:9915  liquidityToken */\n      dup2\n        /* \"ExodusTreasury/Treasury.sol\":9901:9922  liquidityToken.length */\n      mload\n        /* \"ExodusTreasury/Treasury.sol\":9897:9898  i */\n      dup2\n        /* \"ExodusTreasury/Treasury.sol\":9897:9922  i < liquidityToken.length */\n      lt\n        /* \"ExodusTreasury/Treasury.sol\":9877:10189  for (uint256 i = 0; i < liquidityToken.length; i++) {... */\n      iszero\n      tag_325\n      jumpi\n        /* \"ExodusTreasury/Treasury.sol\":9959:9980  STATUS.LIQUIDITYTOKEN */\n      0x05\n        /* \"ExodusTreasury/Treasury.sol\":9947:9981  permissions[STATUS.LIQUIDITYTOKEN] */\n      0x00\n      swap1\n      dup2\n      mstore\n        /* \"ExodusTreasury/Treasury.sol\":9947:9958  permissions */\n      0x04\n        /* \"ExodusTreasury/Treasury.sol\":9947:9981  permissions[STATUS.LIQUIDITYTOKEN] */\n      0x20\n      mstore\n        /* \"ExodusTreasury/Treasury.sol\":9982:9999  liquidityToken[i] */\n      dup3\n      mload\n        /* \"ExodusTreasury/Treasury.sol\":9947:9981  permissions[STATUS.LIQUIDITYTOKEN] */\n      0x04cde762ef08b6b6c5ded8e8c4c0b3f4e5c9ad7342c88fcc93681b4588b73f05\n      swap2\n      swap1\n        /* \"ExodusTreasury/Treasury.sol\":9982:9996  liquidityToken */\n      dup5\n      swap1\n        /* \"ExodusTreasury/Treasury.sol\":9997:9998  i */\n      dup5\n      swap1\n        /* \"ExodusTreasury/Treasury.sol\":9982:9999  liquidityToken[i] */\n      dup2\n      lt\n      tag_329\n      jumpi\n      invalid\n    tag_329:\n      0x20\n      swap1\n      dup2\n      mul\n      swap2\n      swap1\n      swap2\n      add\n      dup2\n      add\n      mload\n      sub(shl(0xa0, 0x01), 0x01)\n        /* \"ExodusTreasury/Treasury.sol\":9947:10000  permissions[STATUS.LIQUIDITYTOKEN][liquidityToken[i]] */\n      and\n      dup3\n      mstore\n      dup2\n      add\n      swap2\n      swap1\n      swap2\n      mstore\n      0x40\n      add\n      0x00\n      keccak256\n      sload\n      0xff\n      and\n        /* \"ExodusTreasury/Treasury.sol\":9943:10179  if (permissions[STATUS.LIQUIDITYTOKEN][liquidityToken[i]]) {... */\n      iszero\n      tag_330\n      jumpi\n        /* \"ExodusTreasury/Treasury.sol\":10031:10164  reserves.add(... */\n      tag_331\n        /* \"ExodusTreasury/Treasury.sol\":10065:10146  tokenValue(liquidityToken[i], IERC20(liquidityToken[i]).balanceOf(address(this))) */\n      tag_332\n        /* \"ExodusTreasury/Treasury.sol\":10076:10090  liquidityToken */\n      dup4\n        /* \"ExodusTreasury/Treasury.sol\":10091:10092  i */\n      dup4\n        /* \"ExodusTreasury/Treasury.sol\":10076:10093  liquidityToken[i] */\n      dup2\n      mload\n      dup2\n      lt\n      tag_314\n      jumpi\n      invalid\n        /* \"ExodusTreasury/Treasury.sol\":10065:10146  tokenValue(liquidityToken[i], IERC20(liquidityToken[i]).balanceOf(address(this))) */\n    tag_332:\n        /* \"ExodusTreasury/Treasury.sol\":10031:10039  reserves */\n      dup6\n      swap1\n        /* \"ExodusTreasury/Treasury.sol\":10031:10043  reserves.add */\n      tag_256\n        /* \"ExodusTreasury/Treasury.sol\":10031:10164  reserves.add(... */\n      jump\t// in\n    tag_331:\n        /* \"ExodusTreasury/Treasury.sol\":10020:10164  reserves = reserves.add(... */\n      swap4\n      pop\n        /* \"ExodusTreasury/Treasury.sol\":9943:10179  if (permissions[STATUS.LIQUIDITYTOKEN][liquidityToken[i]]) {... */\n    tag_330:\n        /* \"ExodusTreasury/Treasury.sol\":9924:9927  i++ */\n      0x01\n      add\n        /* \"ExodusTreasury/Treasury.sol\":9877:10189  for (uint256 i = 0; i < liquidityToken.length; i++) {... */\n      jump(tag_324)\n    tag_325:\n      pop\n        /* \"ExodusTreasury/Treasury.sol\":10198:10211  totalReserves */\n      0x07\n        /* \"ExodusTreasury/Treasury.sol\":10198:10222  totalReserves = reserves */\n      dup4\n      swap1\n      sstore\n        /* \"ExodusTreasury/Treasury.sol\":10237:10262  ReservesAudited(reserves) */\n      mload(0x40)\n        /* \"ExodusTreasury/Treasury.sol\":10214:10222  reserves */\n      dup4\n      swap1\n        /* \"ExodusTreasury/Treasury.sol\":10237:10262  ReservesAudited(reserves) */\n      0xec691f09f6924b27932253f85caf99bacc30360cc0e50a1cc4d2acc246014466\n      swap1\n      0x00\n      swap1\n      log2\n        /* \"ExodusTreasury/OlympusAccessControlled.sol\":717:718  _ */\n      pop\n      pop\n      pop\n        /* \"ExodusTreasury/Treasury.sol\":9375:10269  function auditReserves() external onlyGovernor {... */\n      jump\t// out\n        /* \"ExodusTreasury/Treasury.sol\":1907:1969  mapping(STATUS => mapping(address => bool)) public permissions */\n    tag_80:\n      0x04\n      0x20\n      swap1\n      dup2\n      mstore\n      0x00\n      swap3\n      dup4\n      mstore\n      0x40\n      dup1\n      dup5\n      keccak256\n      swap1\n      swap2\n      mstore\n      swap1\n      dup3\n      mstore\n      swap1\n      keccak256\n      sload\n      0xff\n      and\n      dup2\n      jump\t// out\n        /* \"ExodusTreasury/Treasury.sol\":5812:6126  function mint(address _recipient, uint256 _amount) external override {... */\n    tag_83:\n        /* \"ExodusTreasury/Treasury.sol\":5933:5943  msg.sender */\n      caller\n        /* \"ExodusTreasury/Treasury.sol\":5899:5932  permissions[STATUS.REWARDMANAGER] */\n      0x00\n        /* \"ExodusTreasury/Treasury.sol\":5899:5944  permissions[STATUS.REWARDMANAGER][msg.sender] */\n      swap1\n      dup2\n      mstore\n        /* \"ExodusTreasury/Treasury.sol\":5899:5932  permissions[STATUS.REWARDMANAGER] */\n      0x2645749a946633740611cfc8178319f0958659d6922e4bf7e3a08b44789f53a4\n      0x20\n        /* \"ExodusTreasury/Treasury.sol\":5899:5944  permissions[STATUS.REWARDMANAGER][msg.sender] */\n      mstore\n        /* \"ExodusTreasury/Treasury.sol\":5899:5932  permissions[STATUS.REWARDMANAGER] */\n      0x40\n        /* \"ExodusTreasury/Treasury.sol\":5899:5944  permissions[STATUS.REWARDMANAGER][msg.sender] */\n      swap1\n      keccak256\n      sload\n        /* \"ExodusTreasury/Treasury.sol\":5946:5957  notApproved */\n      0x0e\n      swap1\n        /* \"ExodusTreasury/Treasury.sol\":5899:5944  permissions[STATUS.REWARDMANAGER][msg.sender] */\n      0xff\n      and\n        /* \"ExodusTreasury/Treasury.sol\":5891:5958  require(permissions[STATUS.REWARDMANAGER][msg.sender], notApproved) */\n      tag_342\n      jumpi\n      mload(0x40)\n      shl(0xe5, 0x461bcd)\n      dup2\n      mstore\n      0x20\n      0x04\n      dup3\n      add\n      swap1\n      dup2\n      mstore\n      dup3\n      sload\n      0x02\n      not(0x00)\n      0x0100\n      0x01\n      dup5\n      and\n      iszero\n      mul\n      add\n      swap1\n      swap2\n      and\n      div\n      0x24\n      dup4\n      add\n      dup2\n      swap1\n      mstore\n      swap1\n      swap2\n      dup3\n      swap2\n      0x44\n      swap1\n      swap2\n      add\n      swap1\n      dup5\n      swap1\n      dup1\n      iszero\n      tag_148\n      jumpi\n      dup1\n      0x1f\n      lt\n      tag_149\n      jumpi\n      0x0100\n      dup1\n      dup4\n      sload\n      div\n      mul\n      dup4\n      mstore\n      swap2\n      0x20\n      add\n      swap2\n      jump(tag_148)\n    tag_342:\n      pop\n        /* \"ExodusTreasury/Treasury.sol\":5987:6003  excessReserves() */\n      tag_346\n        /* \"ExodusTreasury/Treasury.sol\":5987:6001  excessReserves */\n      tag_61\n        /* \"ExodusTreasury/Treasury.sol\":5987:6003  excessReserves() */\n      jump\t// in\n    tag_346:\n        /* \"ExodusTreasury/Treasury.sol\":5976:5983  _amount */\n      dup2\n        /* \"ExodusTreasury/Treasury.sol\":5976:6003  _amount <= excessReserves() */\n      gt\n      iszero\n        /* \"ExodusTreasury/Treasury.sol\":6005:6025  insufficientReserves */\n      0x10\n        /* \"ExodusTreasury/Treasury.sol\":5968:6026  require(_amount <= excessReserves(), insufficientReserves) */\n      swap1\n      tag_347\n      jumpi\n      mload(0x40)\n      shl(0xe5, 0x461bcd)\n      dup2\n      mstore\n      0x20\n      0x04\n      dup3\n      add\n      swap1\n      dup2\n      mstore\n      dup3\n      sload\n      0x02\n      not(0x00)\n      0x0100\n      0x01\n      dup5\n      and\n      iszero\n      mul\n      add\n      swap1\n      swap2\n      and\n      div\n      0x24\n      dup4\n      add\n      dup2\n      swap1\n      mstore\n      swap1\n      swap2\n      dup3\n      swap2\n      0x44\n      swap1\n      swap2\n      add\n      swap1\n      dup5\n      swap1\n      dup1\n      iszero\n      tag_148\n      jumpi\n      dup1\n      0x1f\n      lt\n      tag_149\n      jumpi\n      0x0100\n      dup1\n      dup4\n      sload\n      div\n      mul\n      dup4\n      mstore\n      swap2\n      0x20\n      add\n      swap2\n      jump(tag_148)\n    tag_347:\n      pop\n        /* \"ExodusTreasury/Treasury.sol\":6036:6039  EXO */\n      immutable(\"0xa423c60bc1787d67fffc27d03c64206552502a85ae4c5cd0abbc1461b537b9d1\")\n      sub(shl(0xa0, 0x01), 0x01)\n        /* \"ExodusTreasury/Treasury.sol\":6036:6044  EXO.mint */\n      and\n      0x40c10f19\n        /* \"ExodusTreasury/Treasury.sol\":6045:6055  _recipient */\n      dup4\n        /* \"ExodusTreasury/Treasury.sol\":6057:6064  _amount */\n      dup4\n        /* \"ExodusTreasury/Treasury.sol\":6036:6065  EXO.mint(_recipient, _amount) */\n      mload(0x40)\n      dup4\n      0xffffffff\n      and\n      0xe0\n      shl\n      dup2\n      mstore\n      0x04\n      add\n      dup1\n      dup4\n      sub(shl(0xa0, 0x01), 0x01)\n      and\n      dup2\n      mstore\n      0x20\n      add\n      dup3\n      dup2\n      mstore\n      0x20\n      add\n      swap3\n      pop\n      pop\n      pop\n      0x00\n      mload(0x40)\n      dup1\n      dup4\n      sub\n      dup2\n      0x00\n      dup8\n      dup1\n      extcodesize\n      iszero\n      dup1\n      iszero\n      tag_351\n      jumpi\n      0x00\n      dup1\n      revert\n    tag_351:\n      pop\n      gas\n      call\n      iszero\n      dup1\n      iszero\n      tag_353\n      jumpi\n      returndatasize\n      0x00\n      dup1\n      returndatacopy\n      revert(0x00, returndatasize)\n    tag_353:\n      pop\n      pop\n        /* \"ExodusTreasury/Treasury.sol\":6080:6119  Minted(msg.sender, _recipient, _amount) */\n      0x40\n      dup1\n      mload\n      dup5\n      dup2\n      mstore\n      swap1\n      mload\n      sub(shl(0xa0, 0x01), 0x01)\n      dup7\n      and\n      swap4\n      pop\n        /* \"ExodusTreasury/Treasury.sol\":6087:6097  msg.sender */\n      caller\n      swap3\n      pop\n        /* \"ExodusTreasury/Treasury.sol\":6080:6119  Minted(msg.sender, _recipient, _amount) */\n      0x9d228d69b5fdb8d273a2336f8fb8612d039631024ea9bf09c424a9503aa078f0\n      swap2\n      dup2\n      swap1\n      sub\n      0x20\n      add\n      swap1\n      log3\n        /* \"ExodusTreasury/Treasury.sol\":5812:6126  function mint(address _recipient, uint256 _amount) external override {... */\n      pop\n      pop\n      jump\t// out\n        /* \"ExodusTreasury/Treasury.sol\":2175:2205  Queue[] public permissionQueue */\n    tag_86:\n      0x0a\n      dup2\n      dup2\n      sload\n      dup2\n      lt\n      tag_354\n      jumpi\n      0x00\n      dup1\n      revert\n    tag_354:\n      0x00\n      swap2\n      dup3\n      mstore\n      0x20\n      swap1\n      swap2\n      keccak256\n      0x04\n      swap1\n      swap2\n      mul\n      add\n      dup1\n      sload\n      0x01\n      dup3\n      add\n      sload\n      0x02\n      dup4\n      add\n      sload\n      0x03\n      swap1\n      swap4\n      add\n      sload\n      0xff\n      dup1\n      dup5\n      and\n      swap6\n      pop\n      sub(shl(0xa0, 0x01), 0x01)\n      0x0100\n      swap5\n      dup6\n      swap1\n      div\n      dup2\n      and\n      swap6\n      swap4\n      and\n      swap4\n      dup3\n      dup3\n      and\n      swap3\n      div\n      and\n      dup7\n      jump\t// out\n        /* \"ExodusTreasury/Treasury.sol\":11798:12092  function disable(STATUS _status, address _toDisable) external {... */\n    tag_90:\n        /* \"ExodusTreasury/Treasury.sol\":11892:11901  authority */\n      0x01\n      0x00\n      swap1\n      sload\n      swap1\n      0x0100\n      exp\n      swap1\n      div\n      sub(shl(0xa0, 0x01), 0x01)\n      and\n      sub(shl(0xa0, 0x01), 0x01)\n        /* \"ExodusTreasury/Treasury.sol\":11892:11910  authority.governor */\n      and\n      0x0c340a24\n        /* \"ExodusTreasury/Treasury.sol\":11892:11912  authority.governor() */\n      mload(0x40)\n      dup2\n      0xffffffff\n      and\n      0xe0\n      shl\n      dup2\n      mstore\n      0x04\n      add\n      0x20\n      mload(0x40)\n      dup1\n      dup4\n      sub\n      dup2\n      dup7\n      dup1\n      extcodesize\n      iszero\n      dup1\n      iszero\n      tag_357\n      jumpi\n      0x00\n      dup1\n      revert\n    tag_357:\n      pop\n      gas\n      staticcall\n      iszero\n      dup1\n      iszero\n      tag_359\n      jumpi\n      returndatasize\n      0x00\n      dup1\n      returndatacopy\n      revert(0x00, returndatasize)\n    tag_359:\n      pop\n      pop\n      pop\n      pop\n      mload(0x40)\n      returndatasize\n      0x20\n      dup2\n      lt\n      iszero\n      tag_360\n      jumpi\n      0x00\n      dup1\n      revert\n    tag_360:\n      pop\n      mload\n      sub(shl(0xa0, 0x01), 0x01)\n        /* \"ExodusTreasury/Treasury.sol\":11878:11912  msg.sender == authority.governor() */\n      and\n        /* \"ExodusTreasury/Treasury.sol\":11878:11888  msg.sender */\n      caller\n        /* \"ExodusTreasury/Treasury.sol\":11878:11912  msg.sender == authority.governor() */\n      eq\n      dup1\n        /* \"ExodusTreasury/Treasury.sol\":11878:11950  msg.sender == authority.governor() || msg.sender == authority.guardian() */\n      tag_361\n      jumpi\n      pop\n        /* \"ExodusTreasury/Treasury.sol\":11930:11939  authority */\n      0x01\n      0x00\n      swap1\n      sload\n      swap1\n      0x0100\n      exp\n      swap1\n      div\n      sub(shl(0xa0, 0x01), 0x01)\n      and\n      sub(shl(0xa0, 0x01), 0x01)\n        /* \"ExodusTreasury/Treasury.sol\":11930:11948  authority.guardian */\n      and\n      0x452a9320\n        /* \"ExodusTreasury/Treasury.sol\":11930:11950  authority.guardian() */\n      mload(0x40)\n      dup2\n      0xffffffff\n      and\n      0xe0\n      shl\n      dup2\n      mstore\n      0x04\n      add\n      0x20\n      mload(0x40)\n      dup1\n      dup4\n      sub\n      dup2\n      dup7\n      dup1\n      extcodesize\n      iszero\n      dup1\n      iszero\n      tag_362\n      jumpi\n      0x00\n      dup1\n      revert\n    tag_362:\n      pop\n      gas\n      staticcall\n      iszero\n      dup1\n      iszero\n      tag_364\n      jumpi\n      returndatasize\n      0x00\n      dup1\n      returndatacopy\n      revert(0x00, returndatasize)\n    tag_364:\n      pop\n      pop\n      pop\n      pop\n      mload(0x40)\n      returndatasize\n      0x20\n      dup2\n      lt\n      iszero\n      tag_365\n      jumpi\n      0x00\n      dup1\n      revert\n    tag_365:\n      pop\n      mload\n      sub(shl(0xa0, 0x01), 0x01)\n        /* \"ExodusTreasury/Treasury.sol\":11916:11950  msg.sender == authority.guardian() */\n      and\n        /* \"ExodusTreasury/Treasury.sol\":11916:11926  msg.sender */\n      caller\n        /* \"ExodusTreasury/Treasury.sol\":11916:11950  msg.sender == authority.guardian() */\n      eq\n        /* \"ExodusTreasury/Treasury.sol\":11878:11950  msg.sender == authority.governor() || msg.sender == authority.guardian() */\n    tag_361:\n        /* \"ExodusTreasury/Treasury.sol\":11870:11980  require(msg.sender == authority.governor() || msg.sender == authority.guardian(), \"Only governor or guardian\") */\n      tag_366\n      jumpi\n      0x40\n      dup1\n      mload\n      shl(0xe5, 0x461bcd)\n      dup2\n      mstore\n      0x20\n      0x04\n      dup3\n      add\n      mstore\n      0x19\n      0x24\n      dup3\n      add\n      mstore\n      0x4f6e6c7920676f7665726e6f72206f7220677561726469616e00000000000000\n      0x44\n      dup3\n      add\n      mstore\n      swap1\n      mload\n      swap1\n      dup2\n      swap1\n      sub\n      0x64\n      add\n      swap1\n      revert\n    tag_366:\n        /* \"ExodusTreasury/Treasury.sol\":12025:12030  false */\n      0x00\n        /* \"ExodusTreasury/Treasury.sol\":11990:12001  permissions */\n      0x04\n        /* \"ExodusTreasury/Treasury.sol\":11990:12010  permissions[_status] */\n      0x00\n        /* \"ExodusTreasury/Treasury.sol\":12002:12009  _status */\n      dup5\n        /* \"ExodusTreasury/Treasury.sol\":11990:12010  permissions[_status] */\n      0x0a\n      dup2\n      gt\n      iszero\n      tag_367\n      jumpi\n      invalid\n    tag_367:\n      0x0a\n      dup2\n      gt\n      iszero\n      tag_368\n      jumpi\n      invalid\n    tag_368:\n      dup2\n      mstore\n      0x20\n      dup1\n      dup3\n      add\n      swap3\n      swap1\n      swap3\n      mstore\n      0x40\n      swap1\n      dup2\n      add\n      0x00\n      swap1\n      dup2\n      keccak256\n      sub(shl(0xa0, 0x01), 0x01)\n        /* \"ExodusTreasury/Treasury.sol\":11990:12022  permissions[_status][_toDisable] */\n      dup7\n      and\n      dup3\n      mstore\n      swap1\n      swap3\n      mstore\n      swap1\n      keccak256\n        /* \"ExodusTreasury/Treasury.sol\":11990:12030  permissions[_status][_toDisable] = false */\n      dup1\n      sload\n      not(0xff)\n      and\n      swap2\n      iszero\n      iszero\n      swap2\n      swap1\n      swap2\n      or\n      swap1\n      sstore\n        /* \"ExodusTreasury/Treasury.sol\":12070:12077  _status */\n      dup2\n        /* \"ExodusTreasury/Treasury.sol\":12045:12085  Permissioned(_toDisable, _status, false) */\n      0x0a\n      dup2\n      gt\n      iszero\n      tag_369\n      jumpi\n      invalid\n    tag_369:\n      0x40\n      dup1\n      mload\n      sub(shl(0xa0, 0x01), 0x01)\n      dup5\n      and\n      dup2\n      mstore\n        /* \"ExodusTreasury/Treasury.sol\":12079:12084  false */\n      0x00\n        /* \"ExodusTreasury/Treasury.sol\":12045:12085  Permissioned(_toDisable, _status, false) */\n      0x20\n      dup3\n      add\n      mstore\n      dup2\n      mload\n      0x7531a7aefe3985500c4dec2dcb6049a708f14c6a8a9022b435b8841bdb8e1713\n      swap3\n      swap2\n      dup2\n      swap1\n      sub\n      swap1\n      swap2\n      add\n      swap1\n      log2\n        /* \"ExodusTreasury/Treasury.sol\":11798:12092  function disable(STATUS _status, address _toDisable) external {... */\n      pop\n      pop\n      jump\t// out\n        /* \"ExodusTreasury/Treasury.sol\":2031:2075  mapping(address => uint256) public debtLimit */\n    tag_93:\n      mstore(0x20, 0x06)\n      0x00\n      swap1\n      dup2\n      mstore\n      0x40\n      swap1\n      keccak256\n      sload\n      dup2\n      jump\t// out\n        /* \"ExodusTreasury/Treasury.sol\":15449:15559  function nullify(uint256 _index) external onlyGovernor {... */\n    tag_96:\n        /* \"ExodusTreasury/OlympusAccessControlled.sol\":672:681  authority */\n      0x01\n      0x00\n      swap1\n      sload\n      swap1\n      0x0100\n      exp\n      swap1\n      div\n      sub(shl(0xa0, 0x01), 0x01)\n      and\n      sub(shl(0xa0, 0x01), 0x01)\n        /* \"ExodusTreasury/OlympusAccessControlled.sol\":672:690  authority.governor */\n      and\n      0x0c340a24\n        /* \"ExodusTreasury/OlympusAccessControlled.sol\":672:692  authority.governor() */\n      mload(0x40)\n      dup2\n      0xffffffff\n      and\n      0xe0\n      shl\n      dup2\n      mstore\n      0x04\n      add\n      0x20\n      mload(0x40)\n      dup1\n      dup4\n      sub\n      dup2\n      dup7\n      dup1\n      extcodesize\n      iszero\n      dup1\n      iszero\n      tag_371\n      jumpi\n      0x00\n      dup1\n      revert\n    tag_371:\n      pop\n      gas\n      staticcall\n      iszero\n      dup1\n      iszero\n      tag_373\n      jumpi\n      returndatasize\n      0x00\n      dup1\n      returndatacopy\n      revert(0x00, returndatasize)\n    tag_373:\n      pop\n      pop\n      pop\n      pop\n      mload(0x40)\n      returndatasize\n      0x20\n      dup2\n      lt\n      iszero\n      tag_374\n      jumpi\n      0x00\n      dup1\n      revert\n    tag_374:\n      pop\n      mload\n        /* \"ExodusTreasury/OlympusAccessControlled.sol\":694:706  UNAUTHORIZED */\n      0x00\n      swap1\n      sub(shl(0xa0, 0x01), 0x01)\n        /* \"ExodusTreasury/OlympusAccessControlled.sol\":658:692  msg.sender == authority.governor() */\n      and\n        /* \"ExodusTreasury/OlympusAccessControlled.sol\":658:668  msg.sender */\n      caller\n        /* \"ExodusTreasury/OlympusAccessControlled.sol\":658:692  msg.sender == authority.governor() */\n      eq\n        /* \"ExodusTreasury/OlympusAccessControlled.sol\":650:707  require(msg.sender == authority.governor(), UNAUTHORIZED) */\n      tag_375\n      jumpi\n      mload(0x40)\n      shl(0xe5, 0x461bcd)\n      dup2\n      mstore\n      0x20\n      0x04\n      dup3\n      add\n      swap1\n      dup2\n      mstore\n      dup3\n      sload\n      0x02\n      not(0x00)\n      0x0100\n      0x01\n      dup5\n      and\n      iszero\n      mul\n      add\n      swap1\n      swap2\n      and\n      div\n      0x24\n      dup4\n      add\n      dup2\n      swap1\n      mstore\n      swap1\n      swap2\n      dup3\n      swap2\n      0x44\n      swap1\n      swap2\n      add\n      swap1\n      dup5\n      swap1\n      dup1\n      iszero\n      tag_148\n      jumpi\n      dup1\n      0x1f\n      lt\n      tag_149\n      jumpi\n      0x0100\n      dup1\n      dup4\n      sload\n      div\n      mul\n      dup4\n      mstore\n      swap2\n      0x20\n      add\n      swap2\n      jump(tag_148)\n    tag_375:\n      pop\n        /* \"ExodusTreasury/Treasury.sol\":15548:15552  true */\n      0x01\n        /* \"ExodusTreasury/Treasury.sol\":15514:15529  permissionQueue */\n      0x0a\n        /* \"ExodusTreasury/Treasury.sol\":15530:15536  _index */\n      dup3\n        /* \"ExodusTreasury/Treasury.sol\":15514:15537  permissionQueue[_index] */\n      dup2\n      sload\n      dup2\n      lt\n      tag_380\n      jumpi\n      invalid\n    tag_380:\n      0x00\n      swap2\n      dup3\n      mstore\n      0x20\n      swap1\n      swap2\n      keccak256\n      0x04\n      swap1\n      swap2\n      mul\n      add\n        /* \"ExodusTreasury/Treasury.sol\":15514:15545  permissionQueue[_index].nullify */\n      0x03\n      add\n        /* \"ExodusTreasury/Treasury.sol\":15514:15552  permissionQueue[_index].nullify = true */\n      dup1\n      sload\n      not(0xff)\n      and\n      swap2\n      iszero\n      iszero\n      swap2\n      swap1\n      swap2\n      or\n      swap1\n      sstore\n      pop\n        /* \"ExodusTreasury/Treasury.sol\":15449:15559  function nullify(uint256 _index) external onlyGovernor {... */\n      jump\t// out\n        /* \"ExodusTreasury/OlympusAccessControlled.sol\":1108:1272  function setAuthority(IExodusAuthority _newAuthority) external onlyGovernor {... */\n    tag_99:\n        /* \"ExodusTreasury/OlympusAccessControlled.sol\":672:681  authority */\n      0x01\n      0x00\n      swap1\n      sload\n      swap1\n      0x0100\n      exp\n      swap1\n      div\n      sub(shl(0xa0, 0x01), 0x01)\n      and\n      sub(shl(0xa0, 0x01), 0x01)\n        /* \"ExodusTreasury/OlympusAccessControlled.sol\":672:690  authority.governor */\n      and\n      0x0c340a24\n        /* \"ExodusTreasury/OlympusAccessControlled.sol\":672:692  authority.governor() */\n      mload(0x40)\n      dup2\n      0xffffffff\n      and\n      0xe0\n      shl\n      dup2\n      mstore\n      0x04\n      add\n      0x20\n      mload(0x40)\n      dup1\n      dup4\n      sub\n      dup2\n      dup7\n      dup1\n      extcodesize\n      iszero\n      dup1\n      iszero\n      tag_383\n      jumpi\n      0x00\n      dup1\n      revert\n    tag_383:\n      pop\n      gas\n      staticcall\n      iszero\n      dup1\n      iszero\n      tag_385\n      jumpi\n      returndatasize\n      0x00\n      dup1\n      returndatacopy\n      revert(0x00, returndatasize)\n    tag_385:\n      pop\n      pop\n      pop\n      pop\n      mload(0x40)\n      returndatasize\n      0x20\n      dup2\n      lt\n      iszero\n      tag_386\n      jumpi\n      0x00\n      dup1\n      revert\n    tag_386:\n      pop\n      mload\n        /* \"ExodusTreasury/OlympusAccessControlled.sol\":694:706  UNAUTHORIZED */\n      0x00\n      swap1\n      sub(shl(0xa0, 0x01), 0x01)\n        /* \"ExodusTreasury/OlympusAccessControlled.sol\":658:692  msg.sender == authority.governor() */\n      and\n        /* \"ExodusTreasury/OlympusAccessControlled.sol\":658:668  msg.sender */\n      caller\n        /* \"ExodusTreasury/OlympusAccessControlled.sol\":658:692  msg.sender == authority.governor() */\n      eq\n        /* \"ExodusTreasury/OlympusAccessControlled.sol\":650:707  require(msg.sender == authority.governor(), UNAUTHORIZED) */\n      tag_387\n      jumpi\n      mload(0x40)\n      shl(0xe5, 0x461bcd)\n      dup2\n      mstore\n      0x20\n      0x04\n      dup3\n      add\n      swap1\n      dup2\n      mstore\n      dup3\n      sload\n      0x02\n      not(0x00)\n      0x0100\n      0x01\n      dup5\n      and\n      iszero\n      mul\n      add\n      swap1\n      swap2\n      and\n      div\n      0x24\n      dup4\n      add\n      dup2\n      swap1\n      mstore\n      swap1\n      swap2\n      dup3\n      swap2\n      0x44\n      swap1\n      swap2\n      add\n      swap1\n      dup5\n      swap1\n      dup1\n      iszero\n      tag_148\n      jumpi\n      dup1\n      0x1f\n      lt\n      tag_149\n      jumpi\n      0x0100\n      dup1\n      dup4\n      sload\n      div\n      mul\n      dup4\n      mstore\n      swap2\n      0x20\n      add\n      swap2\n      jump(tag_148)\n    tag_387:\n      pop\n        /* \"ExodusTreasury/OlympusAccessControlled.sol\":1194:1203  authority */\n      0x01\n        /* \"ExodusTreasury/OlympusAccessControlled.sol\":1194:1219  authority = _newAuthority */\n      dup1\n      sload\n      not(sub(shl(0xa0, 0x01), 0x01))\n      and\n      sub(shl(0xa0, 0x01), 0x01)\n      dup4\n      and\n      swap1\n      dup2\n      or\n      swap1\n      swap2\n      sstore\n        /* \"ExodusTreasury/OlympusAccessControlled.sol\":1234:1265  AuthorityUpdated(_newAuthority) */\n      mload(0x40)\n      0x2f658b440c35314f52658ea8a740e05b284cdc84dc9ae01e891f21b8933e7cad\n      swap1\n      0x00\n      swap1\n      log2\n        /* \"ExodusTreasury/OlympusAccessControlled.sol\":1108:1272  function setAuthority(IExodusAuthority _newAuthority) external onlyGovernor {... */\n      pop\n      jump\t// out\n        /* \"ExodusTreasury/Treasury.sol\":15626:16013  function disableTimelock() external onlyGovernor {... */\n    tag_101:\n        /* \"ExodusTreasury/OlympusAccessControlled.sol\":672:681  authority */\n      0x01\n      0x00\n      swap1\n      sload\n      swap1\n      0x0100\n      exp\n      swap1\n      div\n      sub(shl(0xa0, 0x01), 0x01)\n      and\n      sub(shl(0xa0, 0x01), 0x01)\n        /* \"ExodusTreasury/OlympusAccessControlled.sol\":672:690  authority.governor */\n      and\n      0x0c340a24\n        /* \"ExodusTreasury/OlympusAccessControlled.sol\":672:692  authority.governor() */\n      mload(0x40)\n      dup2\n      0xffffffff\n      and\n      0xe0\n      shl\n      dup2\n      mstore\n      0x04\n      add\n      0x20\n      mload(0x40)\n      dup1\n      dup4\n      sub\n      dup2\n      dup7\n      dup1\n      extcodesize\n      iszero\n      dup1\n      iszero\n      tag_393\n      jumpi\n      0x00\n      dup1\n      revert\n    tag_393:\n      pop\n      gas\n      staticcall\n      iszero\n      dup1\n      iszero\n      tag_395\n      jumpi\n      returndatasize\n      0x00\n      dup1\n      returndatacopy\n      revert(0x00, returndatasize)\n    tag_395:\n      pop\n      pop\n      pop\n      pop\n      mload(0x40)\n      returndatasize\n      0x20\n      dup2\n      lt\n      iszero\n      tag_396\n      jumpi\n      0x00\n      dup1\n      revert\n    tag_396:\n      pop\n      mload\n        /* \"ExodusTreasury/OlympusAccessControlled.sol\":694:706  UNAUTHORIZED */\n      0x00\n      swap1\n      sub(shl(0xa0, 0x01), 0x01)\n        /* \"ExodusTreasury/OlympusAccessControlled.sol\":658:692  msg.sender == authority.governor() */\n      and\n        /* \"ExodusTreasury/OlympusAccessControlled.sol\":658:668  msg.sender */\n      caller\n        /* \"ExodusTreasury/OlympusAccessControlled.sol\":658:692  msg.sender == authority.governor() */\n      eq\n        /* \"ExodusTreasury/OlympusAccessControlled.sol\":650:707  require(msg.sender == authority.governor(), UNAUTHORIZED) */\n      tag_397\n      jumpi\n      mload(0x40)\n      shl(0xe5, 0x461bcd)\n      dup2\n      mstore\n      0x20\n      0x04\n      dup3\n      add\n      swap1\n      dup2\n      mstore\n      dup3\n      sload\n      0x02\n      not(0x00)\n      0x0100\n      0x01\n      dup5\n      and\n      iszero\n      mul\n      add\n      swap1\n      swap2\n      and\n      div\n      0x24\n      dup4\n      add\n      dup2\n      swap1\n      mstore\n      swap1\n      swap2\n      dup3\n      swap2\n      0x44\n      swap1\n      swap2\n      add\n      swap1\n      dup5\n      swap1\n      dup1\n      iszero\n      tag_148\n      jumpi\n      dup1\n      0x1f\n      lt\n      tag_149\n      jumpi\n      0x0100\n      dup1\n      dup4\n      sload\n      div\n      mul\n      dup4\n      mstore\n      swap2\n      0x20\n      add\n      swap2\n      jump(tag_148)\n    tag_397:\n      pop\n        /* \"ExodusTreasury/Treasury.sol\":15693:15708  timelockEnabled */\n      and(0xff, sload(0x0b))\n        /* \"ExodusTreasury/Treasury.sol\":15693:15716  timelockEnabled == true */\n      iszero\n      iszero\n        /* \"ExodusTreasury/Treasury.sol\":15693:15708  timelockEnabled */\n      0x01\n        /* \"ExodusTreasury/Treasury.sol\":15693:15716  timelockEnabled == true */\n      eq\n        /* \"ExodusTreasury/Treasury.sol\":15685:15746  require(timelockEnabled == true, \"timelock already disabled\") */\n      tag_402\n      jumpi\n      0x40\n      dup1\n      mload\n      shl(0xe5, 0x461bcd)\n      dup2\n      mstore\n      0x20\n      0x04\n      dup3\n      add\n      mstore\n      0x19\n      0x24\n      dup3\n      add\n      mstore\n      0x74696d656c6f636b20616c72656164792064697361626c656400000000000000\n      0x44\n      dup3\n      add\n      mstore\n      swap1\n      mload\n      swap1\n      dup2\n      swap1\n      sub\n      0x64\n      add\n      swap1\n      revert\n    tag_402:\n        /* \"ExodusTreasury/Treasury.sol\":15760:15785  onChainGovernanceTimelock */\n      sload(0x0c)\n        /* \"ExodusTreasury/Treasury.sol\":15760:15790  onChainGovernanceTimelock != 0 */\n      iszero\n      dup1\n      iszero\n      swap1\n        /* \"ExodusTreasury/Treasury.sol\":15760:15835  onChainGovernanceTimelock != 0 && onChainGovernanceTimelock <= block.number */\n      tag_403\n      jumpi\n      pop\n        /* \"ExodusTreasury/Treasury.sol\":15823:15835  block.number */\n      number\n        /* \"ExodusTreasury/Treasury.sol\":15794:15819  onChainGovernanceTimelock */\n      sload(0x0c)\n        /* \"ExodusTreasury/Treasury.sol\":15794:15835  onChainGovernanceTimelock <= block.number */\n      gt\n      iszero\n        /* \"ExodusTreasury/Treasury.sol\":15760:15835  onChainGovernanceTimelock != 0 && onChainGovernanceTimelock <= block.number */\n    tag_403:\n        /* \"ExodusTreasury/Treasury.sol\":15756:16007  if (onChainGovernanceTimelock != 0 && onChainGovernanceTimelock <= block.number) {... */\n      iszero\n      tag_404\n      jumpi\n        /* \"ExodusTreasury/Treasury.sol\":15851:15866  timelockEnabled */\n      0x0b\n        /* \"ExodusTreasury/Treasury.sol\":15851:15874  timelockEnabled = false */\n      dup1\n      sload\n      not(0xff)\n      and\n      swap1\n      sstore\n        /* \"ExodusTreasury/Treasury.sol\":15756:16007  if (onChainGovernanceTimelock != 0 && onChainGovernanceTimelock <= block.number) {... */\n      jump(tag_405)\n    tag_404:\n        /* \"ExodusTreasury/Treasury.sol\":15933:15978  block.number.add(blocksNeededForQueue.mul(7)) */\n      tag_406\n        /* \"ExodusTreasury/Treasury.sol\":15950:15977  blocksNeededForQueue.mul(7) */\n      tag_285\n        /* \"ExodusTreasury/Treasury.sol\":15950:15970  blocksNeededForQueue */\n      immutable(\"0xced2926accb5b65113b9dfa04c89dc1608287373834acba62edea43e130eddaa\")\n        /* \"ExodusTreasury/Treasury.sol\":15975:15976  7 */\n      0x07\n        /* \"ExodusTreasury/Treasury.sol\":15950:15974  blocksNeededForQueue.mul */\n      tag_286\n        /* \"ExodusTreasury/Treasury.sol\":15950:15977  blocksNeededForQueue.mul(7) */\n      jump\t// in\n        /* \"ExodusTreasury/Treasury.sol\":15933:15978  block.number.add(blocksNeededForQueue.mul(7)) */\n    tag_406:\n        /* \"ExodusTreasury/Treasury.sol\":15905:15930  onChainGovernanceTimelock */\n      0x0c\n        /* \"ExodusTreasury/Treasury.sol\":15905:15978  onChainGovernanceTimelock = block.number.add(blocksNeededForQueue.mul(7)) */\n      sstore\n        /* \"ExodusTreasury/Treasury.sol\":15756:16007  if (onChainGovernanceTimelock != 0 && onChainGovernanceTimelock <= block.number) {... */\n    tag_405:\n        /* \"ExodusTreasury/Treasury.sol\":15626:16013  function disableTimelock() external onlyGovernor {... */\n      jump\t// out\n        /* \"ExodusTreasury/Treasury.sol\":16088:16261  function initialize() external onlyGovernor {... */\n    tag_103:\n        /* \"ExodusTreasury/OlympusAccessControlled.sol\":672:681  authority */\n      0x01\n      0x00\n      swap1\n      sload\n      swap1\n      0x0100\n      exp\n      swap1\n      div\n      sub(shl(0xa0, 0x01), 0x01)\n      and\n      sub(shl(0xa0, 0x01), 0x01)\n        /* \"ExodusTreasury/OlympusAccessControlled.sol\":672:690  authority.governor */\n      and\n      0x0c340a24\n        /* \"ExodusTreasury/OlympusAccessControlled.sol\":672:692  authority.governor() */\n      mload(0x40)\n      dup2\n      0xffffffff\n      and\n      0xe0\n      shl\n      dup2\n      mstore\n      0x04\n      add\n      0x20\n      mload(0x40)\n      dup1\n      dup4\n      sub\n      dup2\n      dup7\n      dup1\n      extcodesize\n      iszero\n      dup1\n      iszero\n      tag_409\n      jumpi\n      0x00\n      dup1\n      revert\n    tag_409:\n      pop\n      gas\n      staticcall\n      iszero\n      dup1\n      iszero\n      tag_411\n      jumpi\n      returndatasize\n      0x00\n      dup1\n      returndatacopy\n      revert(0x00, returndatasize)\n    tag_411:\n      pop\n      pop\n      pop\n      pop\n      mload(0x40)\n      returndatasize\n      0x20\n      dup2\n      lt\n      iszero\n      tag_412\n      jumpi\n      0x00\n      dup1\n      revert\n    tag_412:\n      pop\n      mload\n        /* \"ExodusTreasury/OlympusAccessControlled.sol\":694:706  UNAUTHORIZED */\n      0x00\n      swap1\n      sub(shl(0xa0, 0x01), 0x01)\n        /* \"ExodusTreasury/OlympusAccessControlled.sol\":658:692  msg.sender == authority.governor() */\n      and\n        /* \"ExodusTreasury/OlympusAccessControlled.sol\":658:668  msg.sender */\n      caller\n        /* \"ExodusTreasury/OlympusAccessControlled.sol\":658:692  msg.sender == authority.governor() */\n      eq\n        /* \"ExodusTreasury/OlympusAccessControlled.sol\":650:707  require(msg.sender == authority.governor(), UNAUTHORIZED) */\n      tag_413\n      jumpi\n      mload(0x40)\n      shl(0xe5, 0x461bcd)\n      dup2\n      mstore\n      0x20\n      0x04\n      dup3\n      add\n      swap1\n      dup2\n      mstore\n      dup3\n      sload\n      0x02\n      not(0x00)\n      0x0100\n      0x01\n      dup5\n      and\n      iszero\n      mul\n      add\n      swap1\n      swap2\n      and\n      div\n      0x24\n      dup4\n      add\n      dup2\n      swap1\n      mstore\n      swap1\n      swap2\n      dup3\n      swap2\n      0x44\n      swap1\n      swap2\n      add\n      swap1\n      dup5\n      swap1\n      dup1\n      iszero\n      tag_148\n      jumpi\n      dup1\n      0x1f\n      lt\n      tag_149\n      jumpi\n      0x0100\n      dup1\n      dup4\n      sload\n      div\n      mul\n      dup4\n      mstore\n      swap2\n      0x20\n      add\n      swap2\n      jump(tag_148)\n    tag_413:\n      pop\n        /* \"ExodusTreasury/Treasury.sol\":16150:16161  initialized */\n      sload(0x0b)\n      0x0100\n      swap1\n      div\n      0xff\n      and\n        /* \"ExodusTreasury/Treasury.sol\":16150:16170  initialized == false */\n      iszero\n        /* \"ExodusTreasury/Treasury.sol\":16142:16194  require(initialized == false, \"Already initialized\") */\n      tag_418\n      jumpi\n      0x40\n      dup1\n      mload\n      shl(0xe5, 0x461bcd)\n      dup2\n      mstore\n      0x20\n      0x04\n      dup3\n      add\n      mstore\n      0x13\n      0x24\n      dup3\n      add\n      mstore\n      0x416c726561647920696e697469616c697a656400000000000000000000000000\n      0x44\n      dup3\n      add\n      mstore\n      swap1\n      mload\n      swap1\n      dup2\n      swap1\n      sub\n      0x64\n      add\n      swap1\n      revert\n    tag_418:\n        /* \"ExodusTreasury/Treasury.sol\":16204:16219  timelockEnabled */\n      0x0b\n        /* \"ExodusTreasury/Treasury.sol\":16204:16226  timelockEnabled = true */\n      dup1\n      sload\n      not(0xff00)\n      not(0xff)\n      swap1\n      swap2\n      and\n        /* \"ExodusTreasury/Treasury.sol\":16222:16226  true */\n      0x01\n        /* \"ExodusTreasury/Treasury.sol\":16204:16226  timelockEnabled = true */\n      or\n        /* \"ExodusTreasury/Treasury.sol\":16236:16254  initialized = true */\n      and\n        /* \"ExodusTreasury/Treasury.sol\":16204:16226  timelockEnabled = true */\n      0x0100\n        /* \"ExodusTreasury/Treasury.sol\":16236:16254  initialized = true */\n      or\n      swap1\n      sstore\n        /* \"ExodusTreasury/Treasury.sol\":16088:16261  function initialize() external onlyGovernor {... */\n      jump\t// out\n        /* \"ExodusTreasury/Treasury.sol\":17263:17377  function baseSupply() external view override returns (uint256) {... */\n    tag_105:\n        /* \"ExodusTreasury/Treasury.sol\":17317:17324  uint256 */\n      0x00\n        /* \"ExodusTreasury/Treasury.sol\":17363:17370  exoDebt */\n      sload(0x09)\n        /* \"ExodusTreasury/Treasury.sol\":17343:17346  EXO */\n      immutable(\"0xa423c60bc1787d67fffc27d03c64206552502a85ae4c5cd0abbc1461b537b9d1\")\n      sub(shl(0xa0, 0x01), 0x01)\n        /* \"ExodusTreasury/Treasury.sol\":17343:17358  EXO.totalSupply */\n      and\n      0x18160ddd\n        /* \"ExodusTreasury/Treasury.sol\":17343:17360  EXO.totalSupply() */\n      mload(0x40)\n      dup2\n      0xffffffff\n      and\n      0xe0\n      shl\n      dup2\n      mstore\n      0x04\n      add\n      0x20\n      mload(0x40)\n      dup1\n      dup4\n      sub\n      dup2\n      dup7\n      dup1\n      extcodesize\n      iszero\n      dup1\n      iszero\n      tag_420\n      jumpi\n      0x00\n      dup1\n      revert\n    tag_420:\n      pop\n      gas\n      staticcall\n      iszero\n      dup1\n      iszero\n      tag_422\n      jumpi\n      returndatasize\n      0x00\n      dup1\n      returndatacopy\n      revert(0x00, returndatasize)\n    tag_422:\n      pop\n      pop\n      pop\n      pop\n      mload(0x40)\n      returndatasize\n      0x20\n      dup2\n      lt\n      iszero\n      tag_423\n      jumpi\n      0x00\n      dup1\n      revert\n    tag_423:\n      pop\n      mload\n        /* \"ExodusTreasury/Treasury.sol\":17343:17370  EXO.totalSupply() - exoDebt */\n      sub\n      swap1\n      pop\n        /* \"ExodusTreasury/Treasury.sol\":17263:17377  function baseSupply() external view override returns (uint256) {... */\n      swap1\n      jump\t// out\n        /* \"ExodusTreasury/Treasury.sol\":2082:2110  uint256 public totalReserves */\n    tag_107:\n      sload(0x07)\n      dup2\n      jump\t// out\n        /* \"ExodusTreasury/Treasury.sol\":12195:12533  function indexInRegistry(address _address, STATUS _status) public view returns (bool, uint256) {... */\n    tag_110:\n        /* \"ExodusTreasury/Treasury.sol\":12275:12279  bool */\n      0x00\n        /* \"ExodusTreasury/Treasury.sol\":12281:12288  uint256 */\n      dup1\n        /* \"ExodusTreasury/Treasury.sol\":12300:12324  address[] memory entries */\n      0x60\n        /* \"ExodusTreasury/Treasury.sol\":12327:12335  registry */\n      0x03\n        /* \"ExodusTreasury/Treasury.sol\":12327:12344  registry[_status] */\n      0x00\n        /* \"ExodusTreasury/Treasury.sol\":12336:12343  _status */\n      dup6\n        /* \"ExodusTreasury/Treasury.sol\":12327:12344  registry[_status] */\n      0x0a\n      dup2\n      gt\n      iszero\n      tag_425\n      jumpi\n      invalid\n    tag_425:\n      0x0a\n      dup2\n      gt\n      iszero\n      tag_426\n      jumpi\n      invalid\n    tag_426:\n      dup2\n      mstore\n      0x20\n      add\n      swap1\n      dup2\n      mstore\n      0x20\n      add\n      0x00\n      keccak256\n        /* \"ExodusTreasury/Treasury.sol\":12300:12344  address[] memory entries = registry[_status] */\n      dup1\n      sload\n      dup1\n      0x20\n      mul\n      0x20\n      add\n      mload(0x40)\n      swap1\n      dup2\n      add\n      0x40\n      mstore\n      dup1\n      swap3\n      swap2\n      swap1\n      dup2\n      dup2\n      mstore\n      0x20\n      add\n      dup3\n      dup1\n      sload\n      dup1\n      iszero\n      tag_427\n      jumpi\n      0x20\n      mul\n      dup3\n      add\n      swap2\n      swap1\n      0x00\n      mstore\n      keccak256(0x00, 0x20)\n      swap1\n    tag_428:\n      dup2\n      sload\n      sub(shl(0xa0, 0x01), 0x01)\n      and\n      dup2\n      mstore\n      0x01\n      swap1\n      swap2\n      add\n      swap1\n      0x20\n      add\n      dup1\n      dup4\n      gt\n      tag_428\n      jumpi\n    tag_427:\n      pop\n      pop\n      pop\n      pop\n      pop\n      swap1\n      pop\n        /* \"ExodusTreasury/Treasury.sol\":12359:12368  uint256 i */\n      0x00\n        /* \"ExodusTreasury/Treasury.sol\":12354:12500  for (uint256 i = 0; i < entries.length; i++) {... */\n    tag_429:\n        /* \"ExodusTreasury/Treasury.sol\":12378:12385  entries */\n      dup2\n        /* \"ExodusTreasury/Treasury.sol\":12378:12392  entries.length */\n      mload\n        /* \"ExodusTreasury/Treasury.sol\":12374:12375  i */\n      dup2\n        /* \"ExodusTreasury/Treasury.sol\":12374:12392  i < entries.length */\n      lt\n        /* \"ExodusTreasury/Treasury.sol\":12354:12500  for (uint256 i = 0; i < entries.length; i++) {... */\n      iszero\n      tag_430\n      jumpi\n        /* \"ExodusTreasury/Treasury.sol\":12429:12436  entries */\n      dup2\n        /* \"ExodusTreasury/Treasury.sol\":12437:12438  i */\n      dup2\n        /* \"ExodusTreasury/Treasury.sol\":12429:12439  entries[i] */\n      dup2\n      mload\n      dup2\n      lt\n      tag_432\n      jumpi\n      invalid\n    tag_432:\n      0x20\n      mul\n      0x20\n      add\n      add\n      mload\n      sub(shl(0xa0, 0x01), 0x01)\n        /* \"ExodusTreasury/Treasury.sol\":12417:12439  _address == entries[i] */\n      and\n        /* \"ExodusTreasury/Treasury.sol\":12417:12425  _address */\n      dup7\n      sub(shl(0xa0, 0x01), 0x01)\n        /* \"ExodusTreasury/Treasury.sol\":12417:12439  _address == entries[i] */\n      and\n      eq\n        /* \"ExodusTreasury/Treasury.sol\":12413:12490  if (_address == entries[i]) {... */\n      iszero\n      tag_433\n      jumpi\n        /* \"ExodusTreasury/Treasury.sol\":12467:12471  true */\n      0x01\n      swap4\n      pop\n        /* \"ExodusTreasury/Treasury.sol\":12473:12474  i */\n      swap2\n      pop\n        /* \"ExodusTreasury/Treasury.sol\":12459:12475  return (true, i) */\n      tag_424\n      swap1\n      pop\n      jump\n        /* \"ExodusTreasury/Treasury.sol\":12413:12490  if (_address == entries[i]) {... */\n    tag_433:\n        /* \"ExodusTreasury/Treasury.sol\":12394:12397  i++ */\n      0x01\n      add\n        /* \"ExodusTreasury/Treasury.sol\":12354:12500  for (uint256 i = 0; i < entries.length; i++) {... */\n      jump(tag_429)\n    tag_430:\n      pop\n        /* \"ExodusTreasury/Treasury.sol\":12517:12522  false */\n      0x00\n        /* \"ExodusTreasury/Treasury.sol\":12524:12525  0 */\n      dup1\n        /* \"ExodusTreasury/Treasury.sol\":12509:12526  return (false, 0) */\n      swap3\n      pop\n      swap3\n      pop\n      pop\n        /* \"ExodusTreasury/Treasury.sol\":12195:12533  function indexInRegistry(address _address, STATUS _status) public view returns (bool, uint256) {... */\n    tag_424:\n      swap3\n      pop\n      swap3\n      swap1\n      pop\n      jump\t// out\n        /* \"ExodusTreasury/Treasury.sol\":10391:10514  function setDebtLimit(address _address, uint256 _limit) external onlyGovernor {... */\n    tag_113:\n        /* \"ExodusTreasury/OlympusAccessControlled.sol\":672:681  authority */\n      0x01\n      0x00\n      swap1\n      sload\n      swap1\n      0x0100\n      exp\n      swap1\n      div\n      sub(shl(0xa0, 0x01), 0x01)\n      and\n      sub(shl(0xa0, 0x01), 0x01)\n        /* \"ExodusTreasury/OlympusAccessControlled.sol\":672:690  authority.governor */\n      and\n      0x0c340a24\n        /* \"ExodusTreasury/OlympusAccessControlled.sol\":672:692  authority.governor() */\n      mload(0x40)\n      dup2\n      0xffffffff\n      and\n      0xe0\n      shl\n      dup2\n      mstore\n      0x04\n      add\n      0x20\n      mload(0x40)\n      dup1\n      dup4\n      sub\n      dup2\n      dup7\n      dup1\n      extcodesize\n      iszero\n      dup1\n      iszero\n      tag_435\n      jumpi\n      0x00\n      dup1\n      revert\n    tag_435:\n      pop\n      gas\n      staticcall\n      iszero\n      dup1\n      iszero\n      tag_437\n      jumpi\n      returndatasize\n      0x00\n      dup1\n      returndatacopy\n      revert(0x00, returndatasize)\n    tag_437:\n      pop\n      pop\n      pop\n      pop\n      mload(0x40)\n      returndatasize\n      0x20\n      dup2\n      lt\n      iszero\n      tag_438\n      jumpi\n      0x00\n      dup1\n      revert\n    tag_438:\n      pop\n      mload\n        /* \"ExodusTreasury/OlympusAccessControlled.sol\":694:706  UNAUTHORIZED */\n      0x00\n      swap1\n      sub(shl(0xa0, 0x01), 0x01)\n        /* \"ExodusTreasury/OlympusAccessControlled.sol\":658:692  msg.sender == authority.governor() */\n      and\n        /* \"ExodusTreasury/OlympusAccessControlled.sol\":658:668  msg.sender */\n      caller\n        /* \"ExodusTreasury/OlympusAccessControlled.sol\":658:692  msg.sender == authority.governor() */\n      eq\n        /* \"ExodusTreasury/OlympusAccessControlled.sol\":650:707  require(msg.sender == authority.governor(), UNAUTHORIZED) */\n      tag_439\n      jumpi\n      mload(0x40)\n      shl(0xe5, 0x461bcd)\n      dup2\n      mstore\n      0x20\n      0x04\n      dup3\n      add\n      swap1\n      dup2\n      mstore\n      dup3\n      sload\n      0x02\n      not(0x00)\n      0x0100\n      0x01\n      dup5\n      and\n      iszero\n      mul\n      add\n      swap1\n      swap2\n      and\n      div\n      0x24\n      dup4\n      add\n      dup2\n      swap1\n      mstore\n      swap1\n      swap2\n      dup3\n      swap2\n      0x44\n      swap1\n      swap2\n      add\n      swap1\n      dup5\n      swap1\n      dup1\n      iszero\n      tag_148\n      jumpi\n      dup1\n      0x1f\n      lt\n      tag_149\n      jumpi\n      0x0100\n      dup1\n      dup4\n      sload\n      div\n      mul\n      dup4\n      mstore\n      swap2\n      0x20\n      add\n      swap2\n      jump(tag_148)\n    tag_439:\n      pop\n      sub(shl(0xa0, 0x01), 0x01)\n        /* \"ExodusTreasury/Treasury.sol\":10479:10498  debtLimit[_address] */\n      swap1\n      swap2\n      and\n      0x00\n      swap1\n      dup2\n      mstore\n        /* \"ExodusTreasury/Treasury.sol\":10479:10488  debtLimit */\n      0x06\n        /* \"ExodusTreasury/Treasury.sol\":10479:10498  debtLimit[_address] */\n      0x20\n      mstore\n      0x40\n      swap1\n      keccak256\n        /* \"ExodusTreasury/Treasury.sol\":10479:10507  debtLimit[_address] = _limit */\n      sstore\n        /* \"ExodusTreasury/Treasury.sol\":10391:10514  function setDebtLimit(address _address, uint256 _limit) external onlyGovernor {... */\n      jump\t// out\n        /* \"ExodusTreasury/Treasury.sol\":1857:1901  mapping(STATUS => address[]) public registry */\n    tag_116:\n      mstore(0x20, 0x03)\n      dup2\n      0x00\n      mstore\n      keccak256(0x00, 0x40)\n      dup2\n      dup2\n      sload\n      dup2\n      lt\n      tag_444\n      jumpi\n      0x00\n      dup1\n      revert\n    tag_444:\n      0x00\n      swap2\n      dup3\n      mstore\n      0x20\n      swap1\n      swap2\n      keccak256\n      add\n      sload\n      sub(shl(0xa0, 0x01), 0x01)\n      and\n      swap2\n      pop\n      dup3\n      swap1\n      pop\n      jump\t// out\n        /* \"ExodusTreasury/Treasury.sol\":2263:2290  bool public timelockEnabled */\n    tag_118:\n      and(0xff, sload(0x0b))\n      dup2\n      jump\t// out\n        /* \"ExodusTreasury/Treasury.sol\":1802:1827  IEXO public immutable EXO */\n    tag_120:\n      immutable(\"0xa423c60bc1787d67fffc27d03c64206552502a85ae4c5cd0abbc1461b537b9d1\")\n      dup2\n      jump\t// out\n        /* \"ExodusTreasury/Treasury.sol\":2326:2366  uint256 public onChainGovernanceTimelock */\n    tag_122:\n      sload(0x0c)\n      dup2\n      jump\t// out\n        /* \"ExodusTreasury/Treasury.sol\":3281:4154  function deposit(... */\n    tag_125:\n      sub(shl(0xa0, 0x01), 0x01)\n        /* \"ExodusTreasury/Treasury.sol\":3434:3474  permissions[STATUS.RESERVETOKEN][_token] */\n      dup3\n      and\n        /* \"ExodusTreasury/Treasury.sol\":3405:3418  uint256 send_ */\n      0x00\n        /* \"ExodusTreasury/Treasury.sol\":3434:3474  permissions[STATUS.RESERVETOKEN][_token] */\n      swap1\n      dup2\n      mstore\n        /* \"ExodusTreasury/Treasury.sol\":3434:3466  permissions[STATUS.RESERVETOKEN] */\n      0x91da3fd0782e51c6b3986e9e672fd566868e71f3dbc2d6c2cd6fbb3e361af2a7\n      0x20\n        /* \"ExodusTreasury/Treasury.sol\":3434:3474  permissions[STATUS.RESERVETOKEN][_token] */\n      mstore\n        /* \"ExodusTreasury/Treasury.sol\":3434:3466  permissions[STATUS.RESERVETOKEN] */\n      0x40\n        /* \"ExodusTreasury/Treasury.sol\":3434:3474  permissions[STATUS.RESERVETOKEN][_token] */\n      dup2\n      keccak256\n      sload\n      0xff\n      and\n        /* \"ExodusTreasury/Treasury.sol\":3430:3773  if (permissions[STATUS.RESERVETOKEN][_token]) {... */\n      iszero\n      tag_449\n      jumpi\n        /* \"ExodusTreasury/Treasury.sol\":3498:3509  permissions */\n      0x04\n        /* \"ExodusTreasury/Treasury.sol\":3498:3534  permissions[STATUS.RESERVEDEPOSITOR] */\n      0x00\n      dup1\n    tag_450:\n      0x0a\n      dup2\n      gt\n      iszero\n      tag_451\n      jumpi\n      invalid\n    tag_451:\n      dup2\n      mstore\n      0x20\n      dup1\n      dup3\n      add\n      swap3\n      swap1\n      swap3\n      mstore\n      0x40\n      swap1\n      dup2\n      add\n      0x00\n      swap1\n      dup2\n      keccak256\n        /* \"ExodusTreasury/Treasury.sol\":3535:3545  msg.sender */\n      caller\n        /* \"ExodusTreasury/Treasury.sol\":3498:3546  permissions[STATUS.RESERVEDEPOSITOR][msg.sender] */\n      dup3\n      mstore\n      swap1\n      swap3\n      mstore\n      swap1\n      keccak256\n      sload\n        /* \"ExodusTreasury/Treasury.sol\":3548:3559  notApproved */\n      0x0e\n      swap1\n        /* \"ExodusTreasury/Treasury.sol\":3498:3546  permissions[STATUS.RESERVEDEPOSITOR][msg.sender] */\n      0xff\n      and\n        /* \"ExodusTreasury/Treasury.sol\":3490:3560  require(permissions[STATUS.RESERVEDEPOSITOR][msg.sender], notApproved) */\n      tag_452\n      jumpi\n      mload(0x40)\n      shl(0xe5, 0x461bcd)\n      dup2\n      mstore\n      0x20\n      0x04\n      dup3\n      add\n      swap1\n      dup2\n      mstore\n      dup3\n      sload\n      0x02\n      not(0x00)\n      0x0100\n      0x01\n      dup5\n      and\n      iszero\n      mul\n      add\n      swap1\n      swap2\n      and\n      div\n      0x24\n      dup4\n      add\n      dup2\n      swap1\n      mstore\n      swap1\n      swap2\n      dup3\n      swap2\n      0x44\n      swap1\n      swap2\n      add\n      swap1\n      dup5\n      swap1\n      dup1\n      iszero\n      tag_148\n      jumpi\n      dup1\n      0x1f\n      lt\n      tag_149\n      jumpi\n      0x0100\n      dup1\n      dup4\n      sload\n      div\n      mul\n      dup4\n      mstore\n      swap2\n      0x20\n      add\n      swap2\n      jump(tag_148)\n    tag_452:\n      pop\n        /* \"ExodusTreasury/Treasury.sol\":3430:3773  if (permissions[STATUS.RESERVETOKEN][_token]) {... */\n      jump(tag_466)\n    tag_449:\n      sub(shl(0xa0, 0x01), 0x01)\n        /* \"ExodusTreasury/Treasury.sol\":3581:3623  permissions[STATUS.LIQUIDITYTOKEN][_token] */\n      dup4\n      and\n        /* \"ExodusTreasury/Treasury.sol\":3581:3615  permissions[STATUS.LIQUIDITYTOKEN] */\n      0x00\n        /* \"ExodusTreasury/Treasury.sol\":3581:3623  permissions[STATUS.LIQUIDITYTOKEN][_token] */\n      swap1\n      dup2\n      mstore\n        /* \"ExodusTreasury/Treasury.sol\":3581:3615  permissions[STATUS.LIQUIDITYTOKEN] */\n      0x04cde762ef08b6b6c5ded8e8c4c0b3f4e5c9ad7342c88fcc93681b4588b73f05\n      0x20\n        /* \"ExodusTreasury/Treasury.sol\":3581:3623  permissions[STATUS.LIQUIDITYTOKEN][_token] */\n      mstore\n        /* \"ExodusTreasury/Treasury.sol\":3581:3615  permissions[STATUS.LIQUIDITYTOKEN] */\n      0x40\n        /* \"ExodusTreasury/Treasury.sol\":3581:3623  permissions[STATUS.LIQUIDITYTOKEN][_token] */\n      swap1\n      keccak256\n      sload\n      0xff\n      and\n        /* \"ExodusTreasury/Treasury.sol\":3577:3773  if (permissions[STATUS.LIQUIDITYTOKEN][_token]) {... */\n      iszero\n      tag_459\n      jumpi\n        /* \"ExodusTreasury/Treasury.sol\":3647:3658  permissions */\n      0x04\n        /* \"ExodusTreasury/Treasury.sol\":3647:3685  permissions[STATUS.LIQUIDITYDEPOSITOR] */\n      0x00\n        /* \"ExodusTreasury/Treasury.sol\":3647:3658  permissions */\n      dup2\n        /* \"ExodusTreasury/Treasury.sol\":3647:3685  permissions[STATUS.LIQUIDITYDEPOSITOR] */\n      jump(tag_450)\n        /* \"ExodusTreasury/Treasury.sol\":3577:3773  if (permissions[STATUS.LIQUIDITYTOKEN][_token]) {... */\n    tag_459:\n        /* \"ExodusTreasury/Treasury.sol\":3742:3762  revert(invalidToken) */\n      mload(0x40)\n      shl(0xe5, 0x461bcd)\n      dup2\n      mstore\n      0x20\n      0x04\n      dup3\n      add\n      swap1\n      dup2\n      mstore\n        /* \"ExodusTreasury/Treasury.sol\":3749:3761  invalidToken */\n      0x0f\n        /* \"ExodusTreasury/Treasury.sol\":3742:3762  revert(invalidToken) */\n      dup1\n      sload\n      0x02\n      not(0x00)\n      0x0100\n      0x01\n      dup5\n      and\n      iszero\n      mul\n      add\n      swap1\n      swap2\n      and\n      div\n      0x24\n      dup5\n      add\n      dup2\n      swap1\n      mstore\n        /* \"ExodusTreasury/Treasury.sol\":3749:3761  invalidToken */\n      swap1\n      swap3\n        /* \"ExodusTreasury/Treasury.sol\":3742:3762  revert(invalidToken) */\n      dup3\n      swap2\n      0x44\n      swap1\n      swap2\n      add\n      swap1\n        /* \"ExodusTreasury/Treasury.sol\":3749:3761  invalidToken */\n      dup5\n      swap1\n        /* \"ExodusTreasury/Treasury.sol\":3742:3762  revert(invalidToken) */\n      dup1\n      iszero\n      tag_148\n      jumpi\n      dup1\n      0x1f\n      lt\n      tag_149\n      jumpi\n      0x0100\n      dup1\n      dup4\n      sload\n      div\n      mul\n      dup4\n      mstore\n      swap2\n      0x20\n      add\n      swap2\n      jump(tag_148)\n        /* \"ExodusTreasury/Treasury.sol\":3577:3773  if (permissions[STATUS.LIQUIDITYTOKEN][_token]) {... */\n    tag_466:\n        /* \"ExodusTreasury/Treasury.sol\":3783:3850  IERC20(_token).safeTransferFrom(msg.sender, address(this), _amount) */\n      tag_470\n      sub(shl(0xa0, 0x01), 0x01)\n        /* \"ExodusTreasury/Treasury.sol\":3783:3814  IERC20(_token).safeTransferFrom */\n      dup5\n      and\n        /* \"ExodusTreasury/Treasury.sol\":3815:3825  msg.sender */\n      caller\n        /* \"ExodusTreasury/Treasury.sol\":3835:3839  this */\n      address\n        /* \"ExodusTreasury/Treasury.sol\":3842:3849  _amount */\n      dup8\n        /* \"ExodusTreasury/Treasury.sol\":3783:3814  IERC20(_token).safeTransferFrom */\n      tag_471\n        /* \"ExodusTreasury/Treasury.sol\":3783:3850  IERC20(_token).safeTransferFrom(msg.sender, address(this), _amount) */\n      jump\t// in\n    tag_470:\n        /* \"ExodusTreasury/Treasury.sol\":3861:3874  uint256 value */\n      0x00\n        /* \"ExodusTreasury/Treasury.sol\":3877:3904  tokenValue(_token, _amount) */\n      tag_472\n        /* \"ExodusTreasury/Treasury.sol\":3888:3894  _token */\n      dup5\n        /* \"ExodusTreasury/Treasury.sol\":3896:3903  _amount */\n      dup7\n        /* \"ExodusTreasury/Treasury.sol\":3877:3887  tokenValue */\n      tag_138\n        /* \"ExodusTreasury/Treasury.sol\":3877:3904  tokenValue(_token, _amount) */\n      jump\t// in\n    tag_472:\n        /* \"ExodusTreasury/Treasury.sol\":3861:3904  uint256 value = tokenValue(_token, _amount) */\n      swap1\n      pop\n        /* \"ExodusTreasury/Treasury.sol\":3994:4012  value.sub(_profit) */\n      tag_473\n        /* \"ExodusTreasury/Treasury.sol\":3861:3904  uint256 value = tokenValue(_token, _amount) */\n      dup2\n        /* \"ExodusTreasury/Treasury.sol\":4004:4011  _profit */\n      dup5\n        /* \"ExodusTreasury/Treasury.sol\":3994:4003  value.sub */\n      tag_162\n        /* \"ExodusTreasury/Treasury.sol\":3994:4012  value.sub(_profit) */\n      jump\t// in\n    tag_473:\n        /* \"ExodusTreasury/Treasury.sol\":3986:4012  send_ = value.sub(_profit) */\n      swap2\n      pop\n        /* \"ExodusTreasury/Treasury.sol\":4022:4025  EXO */\n      immutable(\"0xa423c60bc1787d67fffc27d03c64206552502a85ae4c5cd0abbc1461b537b9d1\")\n      sub(shl(0xa0, 0x01), 0x01)\n        /* \"ExodusTreasury/Treasury.sol\":4022:4030  EXO.mint */\n      and\n      0x40c10f19\n        /* \"ExodusTreasury/Treasury.sol\":4031:4041  msg.sender */\n      caller\n        /* \"ExodusTreasury/Treasury.sol\":4043:4048  send_ */\n      dup5\n        /* \"ExodusTreasury/Treasury.sol\":4022:4049  EXO.mint(msg.sender, send_) */\n      mload(0x40)\n      dup4\n      0xffffffff\n      and\n      0xe0\n      shl\n      dup2\n      mstore\n      0x04\n      add\n      dup1\n      dup4\n      sub(shl(0xa0, 0x01), 0x01)\n      and\n      dup2\n      mstore\n      0x20\n      add\n      dup3\n      dup2\n      mstore\n      0x20\n      add\n      swap3\n      pop\n      pop\n      pop\n      0x00\n      mload(0x40)\n      dup1\n      dup4\n      sub\n      dup2\n      0x00\n      dup8\n      dup1\n      extcodesize\n      iszero\n      dup1\n      iszero\n      tag_474\n      jumpi\n      0x00\n      dup1\n      revert\n    tag_474:\n      pop\n      gas\n      call\n      iszero\n      dup1\n      iszero\n      tag_476\n      jumpi\n      returndatasize\n      0x00\n      dup1\n      returndatacopy\n      revert(0x00, returndatasize)\n    tag_476:\n      pop\n      pop\n        /* \"ExodusTreasury/Treasury.sol\":4076:4089  totalReserves */\n      sload(0x07)\n        /* \"ExodusTreasury/Treasury.sol\":4076:4100  totalReserves.add(value) */\n      tag_477\n      swap3\n      pop\n        /* \"ExodusTreasury/Treasury.sol\":4076:4089  totalReserves */\n      swap1\n      pop\n        /* \"ExodusTreasury/Treasury.sol\":4094:4099  value */\n      dup3\n        /* \"ExodusTreasury/Treasury.sol\":4076:4093  totalReserves.add */\n      tag_256\n        /* \"ExodusTreasury/Treasury.sol\":4076:4100  totalReserves.add(value) */\n      jump\t// in\n    tag_477:\n        /* \"ExodusTreasury/Treasury.sol\":4060:4073  totalReserves */\n      0x07\n        /* \"ExodusTreasury/Treasury.sol\":4060:4100  totalReserves = totalReserves.add(value) */\n      sstore\n        /* \"ExodusTreasury/Treasury.sol\":4116:4147  Deposit(_token, _amount, value) */\n      0x40\n      dup1\n      mload\n      dup7\n      dup2\n      mstore\n      0x20\n      dup2\n      add\n      dup4\n      swap1\n      mstore\n      dup2\n      mload\n      sub(shl(0xa0, 0x01), 0x01)\n      dup8\n      and\n      swap3\n      0x90890809c654f11d6e72a28fa60149770a0d11ec6c92319d6ceb2bb0a4ea1a15\n      swap3\n      dup3\n      swap1\n      sub\n      add\n      swap1\n      log2\n        /* \"ExodusTreasury/Treasury.sol\":3281:4154  function deposit(... */\n      pop\n      swap4\n      swap3\n      pop\n      pop\n      pop\n      jump\t// out\n        /* \"ExodusTreasury/OlympusAccessControlled.sol\":359:392  IExodusAuthority public authority */\n    tag_127:\n      and(sub(shl(0xa0, 0x01), 0x01), sload(0x01))\n      dup2\n      jump\t// out\n        /* \"ExodusTreasury/Treasury.sol\":2211:2256  uint256 public immutable blocksNeededForQueue */\n    tag_129:\n      immutable(\"0xced2926accb5b65113b9dfa04c89dc1608287373834acba62edea43e130eddaa\")\n      dup2\n      jump\t// out\n        /* \"ExodusTreasury/Treasury.sol\":8017:8587  function repayDebtWithReserve(uint256 _amount, address _token) external override {... */\n    tag_132:\n        /* \"ExodusTreasury/Treasury.sol\":8150:8160  msg.sender */\n      caller\n        /* \"ExodusTreasury/Treasury.sol\":8116:8149  permissions[STATUS.RESERVEDEBTOR] */\n      0x00\n        /* \"ExodusTreasury/Treasury.sol\":8116:8161  permissions[STATUS.RESERVEDEBTOR][msg.sender] */\n      swap1\n      dup2\n      mstore\n        /* \"ExodusTreasury/Treasury.sol\":8116:8149  permissions[STATUS.RESERVEDEBTOR] */\n      0xbeb3bad75134cb432e5707980e3245c52c5998a1125ee30f2f0dbf3925b1e551\n      0x20\n        /* \"ExodusTreasury/Treasury.sol\":8116:8161  permissions[STATUS.RESERVEDEBTOR][msg.sender] */\n      mstore\n        /* \"ExodusTreasury/Treasury.sol\":8116:8149  permissions[STATUS.RESERVEDEBTOR] */\n      0x40\n        /* \"ExodusTreasury/Treasury.sol\":8116:8161  permissions[STATUS.RESERVEDEBTOR][msg.sender] */\n      swap1\n      keccak256\n      sload\n        /* \"ExodusTreasury/Treasury.sol\":8163:8174  notApproved */\n      0x0e\n      swap1\n        /* \"ExodusTreasury/Treasury.sol\":8116:8161  permissions[STATUS.RESERVEDEBTOR][msg.sender] */\n      0xff\n      and\n        /* \"ExodusTreasury/Treasury.sol\":8108:8175  require(permissions[STATUS.RESERVEDEBTOR][msg.sender], notApproved) */\n      tag_481\n      jumpi\n      mload(0x40)\n      shl(0xe5, 0x461bcd)\n      dup2\n      mstore\n      0x20\n      0x04\n      dup3\n      add\n      swap1\n      dup2\n      mstore\n      dup3\n      sload\n      0x02\n      not(0x00)\n      0x0100\n      0x01\n      dup5\n      and\n      iszero\n      mul\n      add\n      swap1\n      swap2\n      and\n      div\n      0x24\n      dup4\n      add\n      dup2\n      swap1\n      mstore\n      swap1\n      swap2\n      dup3\n      swap2\n      0x44\n      swap1\n      swap2\n      add\n      swap1\n      dup5\n      swap1\n      dup1\n      iszero\n      tag_148\n      jumpi\n      dup1\n      0x1f\n      lt\n      tag_149\n      jumpi\n      0x0100\n      dup1\n      dup4\n      sload\n      div\n      mul\n      dup4\n      mstore\n      swap2\n      0x20\n      add\n      swap2\n      jump(tag_148)\n    tag_481:\n      pop\n      sub(shl(0xa0, 0x01), 0x01)\n        /* \"ExodusTreasury/Treasury.sol\":8193:8233  permissions[STATUS.RESERVETOKEN][_token] */\n      dup2\n      and\n        /* \"ExodusTreasury/Treasury.sol\":8193:8225  permissions[STATUS.RESERVETOKEN] */\n      0x00\n        /* \"ExodusTreasury/Treasury.sol\":8193:8233  permissions[STATUS.RESERVETOKEN][_token] */\n      swap1\n      dup2\n      mstore\n        /* \"ExodusTreasury/Treasury.sol\":8193:8225  permissions[STATUS.RESERVETOKEN] */\n      0x91da3fd0782e51c6b3986e9e672fd566868e71f3dbc2d6c2cd6fbb3e361af2a7\n      0x20\n        /* \"ExodusTreasury/Treasury.sol\":8193:8233  permissions[STATUS.RESERVETOKEN][_token] */\n      mstore\n        /* \"ExodusTreasury/Treasury.sol\":8193:8225  permissions[STATUS.RESERVETOKEN] */\n      0x40\n        /* \"ExodusTreasury/Treasury.sol\":8193:8233  permissions[STATUS.RESERVETOKEN][_token] */\n      swap1\n      keccak256\n      sload\n        /* \"ExodusTreasury/Treasury.sol\":8235:8246  notAccepted */\n      0x0d\n      swap1\n        /* \"ExodusTreasury/Treasury.sol\":8193:8233  permissions[STATUS.RESERVETOKEN][_token] */\n      0xff\n      and\n        /* \"ExodusTreasury/Treasury.sol\":8185:8247  require(permissions[STATUS.RESERVETOKEN][_token], notAccepted) */\n      tag_487\n      jumpi\n      mload(0x40)\n      shl(0xe5, 0x461bcd)\n      dup2\n      mstore\n      0x20\n      0x04\n      dup3\n      add\n      swap1\n      dup2\n      mstore\n      dup3\n      sload\n      0x02\n      not(0x00)\n      0x0100\n      0x01\n      dup5\n      and\n      iszero\n      mul\n      add\n      swap1\n      swap2\n      and\n      div\n      0x24\n      dup4\n      add\n      dup2\n      swap1\n      mstore\n      swap1\n      swap2\n      dup3\n      swap2\n      0x44\n      swap1\n      swap2\n      add\n      swap1\n      dup5\n      swap1\n      dup1\n      iszero\n      tag_148\n      jumpi\n      dup1\n      0x1f\n      lt\n      tag_149\n      jumpi\n      0x0100\n      dup1\n      dup4\n      sload\n      div\n      mul\n      dup4\n      mstore\n      swap2\n      0x20\n      add\n      swap2\n      jump(tag_148)\n    tag_487:\n      pop\n        /* \"ExodusTreasury/Treasury.sol\":8257:8324  IERC20(_token).safeTransferFrom(msg.sender, address(this), _amount) */\n      tag_491\n      sub(shl(0xa0, 0x01), 0x01)\n        /* \"ExodusTreasury/Treasury.sol\":8257:8288  IERC20(_token).safeTransferFrom */\n      dup3\n      and\n        /* \"ExodusTreasury/Treasury.sol\":8289:8299  msg.sender */\n      caller\n        /* \"ExodusTreasury/Treasury.sol\":8309:8313  this */\n      address\n        /* \"ExodusTreasury/Treasury.sol\":8316:8323  _amount */\n      dup6\n        /* \"ExodusTreasury/Treasury.sol\":8257:8288  IERC20(_token).safeTransferFrom */\n      tag_471\n        /* \"ExodusTreasury/Treasury.sol\":8257:8324  IERC20(_token).safeTransferFrom(msg.sender, address(this), _amount) */\n      jump\t// in\n    tag_491:\n        /* \"ExodusTreasury/Treasury.sol\":8334:8347  uint256 value */\n      0x00\n        /* \"ExodusTreasury/Treasury.sol\":8350:8377  tokenValue(_token, _amount) */\n      tag_492\n        /* \"ExodusTreasury/Treasury.sol\":8361:8367  _token */\n      dup3\n        /* \"ExodusTreasury/Treasury.sol\":8369:8376  _amount */\n      dup5\n        /* \"ExodusTreasury/Treasury.sol\":8350:8360  tokenValue */\n      tag_138\n        /* \"ExodusTreasury/Treasury.sol\":8350:8377  tokenValue(_token, _amount) */\n      jump\t// in\n    tag_492:\n        /* \"ExodusTreasury/Treasury.sol\":8387:8391  sEXO */\n      sload(0x02)\n        /* \"ExodusTreasury/Treasury.sol\":8387:8428  sEXO.changeDebt(value, msg.sender, false) */\n      0x40\n      dup1\n      mload\n      shl(0xe0, 0xae5c6cd3)\n      dup2\n      mstore\n      0x04\n      dup2\n      add\n      dup5\n      swap1\n      mstore\n        /* \"ExodusTreasury/Treasury.sol\":8410:8420  msg.sender */\n      caller\n        /* \"ExodusTreasury/Treasury.sol\":8387:8428  sEXO.changeDebt(value, msg.sender, false) */\n      0x24\n      dup3\n      add\n      mstore\n        /* \"ExodusTreasury/Treasury.sol\":8387:8391  sEXO */\n      0x00\n        /* \"ExodusTreasury/Treasury.sol\":8387:8428  sEXO.changeDebt(value, msg.sender, false) */\n      0x44\n      dup3\n      add\n      dup2\n      swap1\n      mstore\n      swap2\n      mload\n        /* \"ExodusTreasury/Treasury.sol\":8334:8377  uint256 value = tokenValue(_token, _amount) */\n      swap4\n      swap5\n      pop\n      sub(shl(0xa0, 0x01), 0x01)\n        /* \"ExodusTreasury/Treasury.sol\":8387:8391  sEXO */\n      swap1\n      swap3\n      and\n      swap3\n        /* \"ExodusTreasury/Treasury.sol\":8387:8402  sEXO.changeDebt */\n      0xae5c6cd3\n      swap3\n        /* \"ExodusTreasury/Treasury.sol\":8387:8428  sEXO.changeDebt(value, msg.sender, false) */\n      0x64\n      dup1\n      dup3\n      add\n      swap4\n        /* \"ExodusTreasury/Treasury.sol\":8387:8391  sEXO */\n      swap3\n        /* \"ExodusTreasury/Treasury.sol\":8387:8428  sEXO.changeDebt(value, msg.sender, false) */\n      swap2\n      dup3\n      swap1\n      sub\n      add\n      dup2\n        /* \"ExodusTreasury/Treasury.sol\":8387:8391  sEXO */\n      dup4\n      dup8\n        /* \"ExodusTreasury/Treasury.sol\":8387:8428  sEXO.changeDebt(value, msg.sender, false) */\n      dup1\n      extcodesize\n      iszero\n      dup1\n      iszero\n      tag_493\n      jumpi\n      0x00\n      dup1\n      revert\n    tag_493:\n      pop\n      gas\n      call\n      iszero\n      dup1\n      iszero\n      tag_495\n      jumpi\n      returndatasize\n      0x00\n      dup1\n      returndatacopy\n      revert(0x00, returndatasize)\n    tag_495:\n      pop\n      pop\n        /* \"ExodusTreasury/Treasury.sol\":8450:8459  totalDebt */\n      sload(0x08)\n        /* \"ExodusTreasury/Treasury.sol\":8450:8470  totalDebt.sub(value) */\n      tag_496\n      swap3\n      pop\n        /* \"ExodusTreasury/Treasury.sol\":8450:8459  totalDebt */\n      swap1\n      pop\n        /* \"ExodusTreasury/Treasury.sol\":8464:8469  value */\n      dup3\n        /* \"ExodusTreasury/Treasury.sol\":8450:8463  totalDebt.sub */\n      tag_162\n        /* \"ExodusTreasury/Treasury.sol\":8450:8470  totalDebt.sub(value) */\n      jump\t// in\n    tag_496:\n        /* \"ExodusTreasury/Treasury.sol\":8438:8447  totalDebt */\n      0x08\n        /* \"ExodusTreasury/Treasury.sol\":8438:8470  totalDebt = totalDebt.sub(value) */\n      sstore\n        /* \"ExodusTreasury/Treasury.sol\":8496:8509  totalReserves */\n      sload(0x07)\n        /* \"ExodusTreasury/Treasury.sol\":8496:8520  totalReserves.add(value) */\n      tag_497\n      swap1\n        /* \"ExodusTreasury/Treasury.sol\":8514:8519  value */\n      dup3\n        /* \"ExodusTreasury/Treasury.sol\":8496:8513  totalReserves.add */\n      tag_256\n        /* \"ExodusTreasury/Treasury.sol\":8496:8520  totalReserves.add(value) */\n      jump\t// in\n    tag_497:\n        /* \"ExodusTreasury/Treasury.sol\":8480:8493  totalReserves */\n      0x07\n        /* \"ExodusTreasury/Treasury.sol\":8480:8520  totalReserves = totalReserves.add(value) */\n      sstore\n        /* \"ExodusTreasury/Treasury.sol\":8535:8580  RepayDebt(msg.sender, _token, _amount, value) */\n      0x40\n      dup1\n      mload\n      dup5\n      dup2\n      mstore\n      0x20\n      dup2\n      add\n      dup4\n      swap1\n      mstore\n      dup2\n      mload\n      sub(shl(0xa0, 0x01), 0x01)\n      dup6\n      and\n      swap3\n        /* \"ExodusTreasury/Treasury.sol\":8545:8555  msg.sender */\n      caller\n      swap3\n        /* \"ExodusTreasury/Treasury.sol\":8535:8580  RepayDebt(msg.sender, _token, _amount, value) */\n      0xc6d98eecfc9c78ab62c89a82950079b54874749f1f6f24090f7acc758bc2f309\n      swap3\n      swap1\n      dup2\n      swap1\n      sub\n      swap1\n      swap2\n      add\n      swap1\n      log3\n        /* \"ExodusTreasury/Treasury.sol\":8017:8587  function repayDebtWithReserve(uint256 _amount, address _token) external override {... */\n      pop\n      pop\n      pop\n      jump\t// out\n        /* \"ExodusTreasury/Treasury.sol\":10674:11664  function enable(... */\n    tag_135:\n        /* \"ExodusTreasury/OlympusAccessControlled.sol\":672:681  authority */\n      0x01\n      0x00\n      swap1\n      sload\n      swap1\n      0x0100\n      exp\n      swap1\n      div\n      sub(shl(0xa0, 0x01), 0x01)\n      and\n      sub(shl(0xa0, 0x01), 0x01)\n        /* \"ExodusTreasury/OlympusAccessControlled.sol\":672:690  authority.governor */\n      and\n      0x0c340a24\n        /* \"ExodusTreasury/OlympusAccessControlled.sol\":672:692  authority.governor() */\n      mload(0x40)\n      dup2\n      0xffffffff\n      and\n      0xe0\n      shl\n      dup2\n      mstore\n      0x04\n      add\n      0x20\n      mload(0x40)\n      dup1\n      dup4\n      sub\n      dup2\n      dup7\n      dup1\n      extcodesize\n      iszero\n      dup1\n      iszero\n      tag_499\n      jumpi\n      0x00\n      dup1\n      revert\n    tag_499:\n      pop\n      gas\n      staticcall\n      iszero\n      dup1\n      iszero\n      tag_501\n      jumpi\n      returndatasize\n      0x00\n      dup1\n      returndatacopy\n      revert(0x00, returndatasize)\n    tag_501:\n      pop\n      pop\n      pop\n      pop\n      mload(0x40)\n      returndatasize\n      0x20\n      dup2\n      lt\n      iszero\n      tag_502\n      jumpi\n      0x00\n      dup1\n      revert\n    tag_502:\n      pop\n      mload\n        /* \"ExodusTreasury/OlympusAccessControlled.sol\":694:706  UNAUTHORIZED */\n      0x00\n      swap1\n      sub(shl(0xa0, 0x01), 0x01)\n        /* \"ExodusTreasury/OlympusAccessControlled.sol\":658:692  msg.sender == authority.governor() */\n      and\n        /* \"ExodusTreasury/OlympusAccessControlled.sol\":658:668  msg.sender */\n      caller\n        /* \"ExodusTreasury/OlympusAccessControlled.sol\":658:692  msg.sender == authority.governor() */\n      eq\n        /* \"ExodusTreasury/OlympusAccessControlled.sol\":650:707  require(msg.sender == authority.governor(), UNAUTHORIZED) */\n      tag_503\n      jumpi\n      mload(0x40)\n      shl(0xe5, 0x461bcd)\n      dup2\n      mstore\n      0x20\n      0x04\n      dup3\n      add\n      swap1\n      dup2\n      mstore\n      dup3\n      sload\n      0x02\n      not(0x00)\n      0x0100\n      0x01\n      dup5\n      and\n      iszero\n      mul\n      add\n      swap1\n      swap2\n      and\n      div\n      0x24\n      dup4\n      add\n      dup2\n      swap1\n      mstore\n      swap1\n      swap2\n      dup3\n      swap2\n      0x44\n      swap1\n      swap2\n      add\n      swap1\n      dup5\n      swap1\n      dup1\n      iszero\n      tag_148\n      jumpi\n      dup1\n      0x1f\n      lt\n      tag_149\n      jumpi\n      0x0100\n      dup1\n      dup4\n      sload\n      div\n      mul\n      dup4\n      mstore\n      swap2\n      0x20\n      add\n      swap2\n      jump(tag_148)\n    tag_503:\n      pop\n        /* \"ExodusTreasury/Treasury.sol\":10815:10830  timelockEnabled */\n      and(0xff, sload(0x0b))\n        /* \"ExodusTreasury/Treasury.sol\":10815:10839  timelockEnabled == false */\n      iszero\n        /* \"ExodusTreasury/Treasury.sol\":10807:10861  require(timelockEnabled == false, \"Use queueTimelock\") */\n      tag_508\n      jumpi\n      0x40\n      dup1\n      mload\n      shl(0xe5, 0x461bcd)\n      dup2\n      mstore\n      0x20\n      0x04\n      dup3\n      add\n      mstore\n      0x11\n      0x24\n      dup3\n      add\n      mstore\n      0x55736520717565756554696d656c6f636b000000000000000000000000000000\n      0x44\n      dup3\n      add\n      mstore\n      swap1\n      mload\n      swap1\n      dup2\n      swap1\n      sub\n      0x64\n      add\n      swap1\n      revert\n    tag_508:\n        /* \"ExodusTreasury/Treasury.sol\":10886:10897  STATUS.SEXO */\n      0x09\n        /* \"ExodusTreasury/Treasury.sol\":10875:10882  _status */\n      dup4\n        /* \"ExodusTreasury/Treasury.sol\":10875:10897  _status == STATUS.SEXO */\n      0x0a\n      dup2\n      gt\n      iszero\n      tag_510\n      jumpi\n      invalid\n    tag_510:\n      eq\n        /* \"ExodusTreasury/Treasury.sol\":10871:11606  if (_status == STATUS.SEXO) {... */\n      iszero\n      tag_511\n      jumpi\n        /* \"ExodusTreasury/Treasury.sol\":10913:10917  sEXO */\n      0x02\n        /* \"ExodusTreasury/Treasury.sol\":10913:10935  sEXO = IsEXO(_address) */\n      dup1\n      sload\n      not(sub(shl(0xa0, 0x01), 0x01))\n      and\n      sub(shl(0xa0, 0x01), 0x01)\n      dup5\n      and\n      or\n      swap1\n      sstore\n        /* \"ExodusTreasury/Treasury.sol\":10871:11606  if (_status == STATUS.SEXO) {... */\n      jump(tag_512)\n    tag_511:\n        /* \"ExodusTreasury/Treasury.sol\":10999:11003  true */\n      0x01\n        /* \"ExodusTreasury/Treasury.sol\":10966:10977  permissions */\n      0x04\n        /* \"ExodusTreasury/Treasury.sol\":10966:10986  permissions[_status] */\n      0x00\n        /* \"ExodusTreasury/Treasury.sol\":10978:10985  _status */\n      dup6\n        /* \"ExodusTreasury/Treasury.sol\":10966:10986  permissions[_status] */\n      0x0a\n      dup2\n      gt\n      iszero\n      tag_513\n      jumpi\n      invalid\n    tag_513:\n      0x0a\n      dup2\n      gt\n      iszero\n      tag_514\n      jumpi\n      invalid\n    tag_514:\n      dup2\n      mstore\n      0x20\n      dup1\n      dup3\n      add\n      swap3\n      swap1\n      swap3\n      mstore\n      0x40\n      swap1\n      dup2\n      add\n      0x00\n      swap1\n      dup2\n      keccak256\n      sub(shl(0xa0, 0x01), 0x01)\n        /* \"ExodusTreasury/Treasury.sol\":10966:10996  permissions[_status][_address] */\n      dup8\n      and\n      dup3\n      mstore\n      swap1\n      swap3\n      mstore\n      swap1\n      keccak256\n        /* \"ExodusTreasury/Treasury.sol\":10966:11003  permissions[_status][_address] = true */\n      dup1\n      sload\n      not(0xff)\n      and\n      swap2\n      iszero\n      iszero\n      swap2\n      swap1\n      swap2\n      or\n      swap1\n      sstore\n        /* \"ExodusTreasury/Treasury.sol\":11033:11054  STATUS.LIQUIDITYTOKEN */\n      0x05\n        /* \"ExodusTreasury/Treasury.sol\":11022:11029  _status */\n      dup4\n        /* \"ExodusTreasury/Treasury.sol\":11022:11054  _status == STATUS.LIQUIDITYTOKEN */\n      0x0a\n      dup2\n      gt\n      iszero\n      tag_516\n      jumpi\n      invalid\n    tag_516:\n      eq\n        /* \"ExodusTreasury/Treasury.sol\":11018:11127  if (_status == STATUS.LIQUIDITYTOKEN) {... */\n      iszero\n      tag_517\n      jumpi\n      sub(shl(0xa0, 0x01), 0x01)\n        /* \"ExodusTreasury/Treasury.sol\":11074:11098  bondCalculator[_address] */\n      dup3\n      dup2\n      and\n      0x00\n      swap1\n      dup2\n      mstore\n        /* \"ExodusTreasury/Treasury.sol\":11074:11088  bondCalculator */\n      0x05\n        /* \"ExodusTreasury/Treasury.sol\":11074:11098  bondCalculator[_address] */\n      0x20\n      mstore\n      0x40\n      swap1\n      keccak256\n        /* \"ExodusTreasury/Treasury.sol\":11074:11112  bondCalculator[_address] = _calculator */\n      dup1\n      sload\n      not(sub(shl(0xa0, 0x01), 0x01))\n      and\n      swap2\n      dup4\n      and\n      swap2\n      swap1\n      swap2\n      or\n      swap1\n      sstore\n        /* \"ExodusTreasury/Treasury.sol\":11018:11127  if (_status == STATUS.LIQUIDITYTOKEN) {... */\n    tag_517:\n        /* \"ExodusTreasury/Treasury.sol\":11142:11157  bool registered */\n      0x00\n        /* \"ExodusTreasury/Treasury.sol\":11163:11197  indexInRegistry(_address, _status) */\n      tag_518\n        /* \"ExodusTreasury/Treasury.sol\":11179:11187  _address */\n      dup4\n        /* \"ExodusTreasury/Treasury.sol\":11189:11196  _status */\n      dup6\n        /* \"ExodusTreasury/Treasury.sol\":11163:11178  indexInRegistry */\n      tag_110\n        /* \"ExodusTreasury/Treasury.sol\":11163:11197  indexInRegistry(_address, _status) */\n      jump\t// in\n    tag_518:\n        /* \"ExodusTreasury/Treasury.sol\":11141:11197  (bool registered, ) = indexInRegistry(_address, _status) */\n      pop\n      swap1\n      pop\n        /* \"ExodusTreasury/Treasury.sol\":11216:11226  registered */\n      dup1\n        /* \"ExodusTreasury/Treasury.sol\":11211:11596  if (!registered) {... */\n      tag_528\n      jumpi\n        /* \"ExodusTreasury/Treasury.sol\":11246:11254  registry */\n      0x03\n        /* \"ExodusTreasury/Treasury.sol\":11246:11263  registry[_status] */\n      0x00\n        /* \"ExodusTreasury/Treasury.sol\":11255:11262  _status */\n      dup6\n        /* \"ExodusTreasury/Treasury.sol\":11246:11263  registry[_status] */\n      0x0a\n      dup2\n      gt\n      iszero\n      tag_520\n      jumpi\n      invalid\n    tag_520:\n      0x0a\n      dup2\n      gt\n      iszero\n      tag_521\n      jumpi\n      invalid\n    tag_521:\n      dup2\n      mstore\n      0x20\n      dup1\n      dup3\n      add\n      swap3\n      swap1\n      swap3\n      mstore\n      0x40\n      add\n      0x00\n      swap1\n      dup2\n      keccak256\n        /* \"ExodusTreasury/Treasury.sol\":11246:11278  registry[_status].push(_address) */\n      dup1\n      sload\n      0x01\n      dup2\n      add\n      dup3\n      sstore\n      swap1\n      dup3\n      mstore\n      swap2\n      swap1\n      keccak256\n      add\n      dup1\n      sload\n      not(sub(shl(0xa0, 0x01), 0x01))\n      and\n      sub(shl(0xa0, 0x01), 0x01)\n      dup6\n      and\n      or\n      swap1\n      sstore\n        /* \"ExodusTreasury/Treasury.sol\":11312:11333  STATUS.LIQUIDITYTOKEN */\n      0x05\n        /* \"ExodusTreasury/Treasury.sol\":11301:11308  _status */\n      dup5\n        /* \"ExodusTreasury/Treasury.sol\":11301:11333  _status == STATUS.LIQUIDITYTOKEN */\n      0x0a\n      dup2\n      gt\n      iszero\n      tag_524\n      jumpi\n      invalid\n    tag_524:\n      eq\n        /* \"ExodusTreasury/Treasury.sol\":11301:11367  _status == STATUS.LIQUIDITYTOKEN || _status == STATUS.RESERVETOKEN */\n      dup1\n      tag_525\n      jumpi\n      pop\n        /* \"ExodusTreasury/Treasury.sol\":11348:11367  STATUS.RESERVETOKEN */\n      0x02\n        /* \"ExodusTreasury/Treasury.sol\":11337:11344  _status */\n      dup5\n        /* \"ExodusTreasury/Treasury.sol\":11337:11367  _status == STATUS.RESERVETOKEN */\n      0x0a\n      dup2\n      gt\n      iszero\n      tag_527\n      jumpi\n      invalid\n    tag_527:\n      eq\n        /* \"ExodusTreasury/Treasury.sol\":11301:11367  _status == STATUS.LIQUIDITYTOKEN || _status == STATUS.RESERVETOKEN */\n    tag_525:\n        /* \"ExodusTreasury/Treasury.sol\":11297:11582  if (_status == STATUS.LIQUIDITYTOKEN || _status == STATUS.RESERVETOKEN) {... */\n      iszero\n      tag_528\n      jumpi\n        /* \"ExodusTreasury/Treasury.sol\":11392:11400  bool reg */\n      0x00\n        /* \"ExodusTreasury/Treasury.sol\":11402:11415  uint256 index */\n      dup1\n        /* \"ExodusTreasury/Treasury.sol\":11419:11453  indexInRegistry(_address, _status) */\n      tag_529\n        /* \"ExodusTreasury/Treasury.sol\":11435:11443  _address */\n      dup6\n        /* \"ExodusTreasury/Treasury.sol\":11445:11452  _status */\n      dup8\n        /* \"ExodusTreasury/Treasury.sol\":11419:11434  indexInRegistry */\n      tag_110\n        /* \"ExodusTreasury/Treasury.sol\":11419:11453  indexInRegistry(_address, _status) */\n      jump\t// in\n    tag_529:\n        /* \"ExodusTreasury/Treasury.sol\":11391:11453  (bool reg, uint256 index) = indexInRegistry(_address, _status) */\n      swap2\n      pop\n      swap2\n      pop\n        /* \"ExodusTreasury/Treasury.sol\":11479:11482  reg */\n      dup2\n        /* \"ExodusTreasury/Treasury.sol\":11475:11564  if (reg) {... */\n      iszero\n      tag_530\n      jumpi\n        /* \"ExodusTreasury/Treasury.sol\":11517:11525  registry */\n      0x03\n        /* \"ExodusTreasury/Treasury.sol\":11517:11534  registry[_status] */\n      0x00\n        /* \"ExodusTreasury/Treasury.sol\":11526:11533  _status */\n      dup8\n        /* \"ExodusTreasury/Treasury.sol\":11517:11534  registry[_status] */\n      0x0a\n      dup2\n      gt\n      iszero\n      tag_531\n      jumpi\n      invalid\n    tag_531:\n      0x0a\n      dup2\n      gt\n      iszero\n      tag_532\n      jumpi\n      invalid\n    tag_532:\n      dup2\n      mstore\n      0x20\n      add\n      swap1\n      dup2\n      mstore\n      0x20\n      add\n      0x00\n      keccak256\n        /* \"ExodusTreasury/Treasury.sol\":11535:11540  index */\n      dup2\n        /* \"ExodusTreasury/Treasury.sol\":11517:11541  registry[_status][index] */\n      dup2\n      sload\n      dup2\n      lt\n      tag_533\n      jumpi\n      invalid\n    tag_533:\n      0x00\n      swap2\n      dup3\n      mstore\n      0x20\n      swap1\n      swap2\n      keccak256\n      add\n        /* \"ExodusTreasury/Treasury.sol\":11510:11541  delete registry[_status][index] */\n      dup1\n      sload\n      not(sub(shl(0xa0, 0x01), 0x01))\n      and\n      swap1\n      sstore\n        /* \"ExodusTreasury/Treasury.sol\":11475:11564  if (reg) {... */\n    tag_530:\n        /* \"ExodusTreasury/Treasury.sol\":11297:11582  if (_status == STATUS.LIQUIDITYTOKEN || _status == STATUS.RESERVETOKEN) {... */\n      pop\n      pop\n    tag_528:\n        /* \"ExodusTreasury/Treasury.sol\":10871:11606  if (_status == STATUS.SEXO) {... */\n      pop\n    tag_512:\n        /* \"ExodusTreasury/Treasury.sol\":11643:11650  _status */\n      dup3\n        /* \"ExodusTreasury/Treasury.sol\":11620:11657  Permissioned(_address, _status, true) */\n      0x0a\n      dup2\n      gt\n      iszero\n      tag_535\n      jumpi\n      invalid\n    tag_535:\n      0x40\n      dup1\n      mload\n      sub(shl(0xa0, 0x01), 0x01)\n      dup6\n      and\n      dup2\n      mstore\n        /* \"ExodusTreasury/Treasury.sol\":11652:11656  true */\n      0x01\n        /* \"ExodusTreasury/Treasury.sol\":11620:11657  Permissioned(_address, _status, true) */\n      0x20\n      dup3\n      add\n      mstore\n      dup2\n      mload\n      0x7531a7aefe3985500c4dec2dcb6049a708f14c6a8a9022b435b8841bdb8e1713\n      swap3\n      swap2\n      dup2\n      swap1\n      sub\n      swap1\n      swap2\n      add\n      swap1\n      log2\n        /* \"ExodusTreasury/Treasury.sol\":10674:11664  function enable(... */\n      pop\n      pop\n      pop\n      jump\t// out\n        /* \"ExodusTreasury/Treasury.sol\":16706:17091  function tokenValue(address _token, uint256 _amount) public view override returns (uint256 value_) {... */\n    tag_138:\n        /* \"ExodusTreasury/Treasury.sol\":16789:16803  uint256 value_ */\n      0x00\n        /* \"ExodusTreasury/Treasury.sol\":16824:16923  _amount.mul(10**IERC20Metadata(address(EXO)).decimals()).div(10**IERC20Metadata(_token).decimals()) */\n      tag_537\n        /* \"ExodusTreasury/Treasury.sol\":16904:16910  _token */\n      dup4\n      sub(shl(0xa0, 0x01), 0x01)\n        /* \"ExodusTreasury/Treasury.sol\":16889:16920  IERC20Metadata(_token).decimals */\n      and\n      0x313ce567\n        /* \"ExodusTreasury/Treasury.sol\":16889:16922  IERC20Metadata(_token).decimals() */\n      mload(0x40)\n      dup2\n      0xffffffff\n      and\n      0xe0\n      shl\n      dup2\n      mstore\n      0x04\n      add\n      0x20\n      mload(0x40)\n      dup1\n      dup4\n      sub\n      dup2\n      dup7\n      dup1\n      extcodesize\n      iszero\n      dup1\n      iszero\n      tag_538\n      jumpi\n      0x00\n      dup1\n      revert\n    tag_538:\n      pop\n      gas\n      staticcall\n      iszero\n      dup1\n      iszero\n      tag_540\n      jumpi\n      returndatasize\n      0x00\n      dup1\n      returndatacopy\n      revert(0x00, returndatasize)\n    tag_540:\n      pop\n      pop\n      pop\n      pop\n      mload(0x40)\n      returndatasize\n      0x20\n      dup2\n      lt\n      iszero\n      tag_541\n      jumpi\n      0x00\n      dup1\n      revert\n    tag_541:\n      pop\n      mload\n        /* \"ExodusTreasury/Treasury.sol\":16840:16879  IERC20Metadata(address(EXO)).decimals() */\n      0x40\n      dup1\n      mload\n      0x313ce56700000000000000000000000000000000000000000000000000000000\n      dup2\n      mstore\n      swap1\n      mload\n        /* \"ExodusTreasury/Treasury.sol\":16885:16922  10**IERC20Metadata(_token).decimals() */\n      0xff\n      swap1\n      swap3\n      and\n        /* \"ExodusTreasury/Treasury.sol\":16885:16887  10 */\n      0x0a\n        /* \"ExodusTreasury/Treasury.sol\":16885:16922  10**IERC20Metadata(_token).decimals() */\n      exp\n      swap2\n        /* \"ExodusTreasury/Treasury.sol\":16824:16880  _amount.mul(10**IERC20Metadata(address(EXO)).decimals()) */\n      tag_542\n      swap2\n      sub(shl(0xa0, 0x01), 0x01)\n        /* \"ExodusTreasury/Treasury.sol\":16863:16866  EXO */\n      immutable(\"0xa423c60bc1787d67fffc27d03c64206552502a85ae4c5cd0abbc1461b537b9d1\")\n        /* \"ExodusTreasury/Treasury.sol\":16840:16877  IERC20Metadata(address(EXO)).decimals */\n      and\n      swap2\n      0x313ce567\n      swap2\n        /* \"ExodusTreasury/Treasury.sol\":16840:16879  IERC20Metadata(address(EXO)).decimals() */\n      0x04\n      dup1\n      dup3\n      add\n      swap3\n        /* \"ExodusTreasury/Treasury.sol\":16889:16922  IERC20Metadata(_token).decimals() */\n      0x20\n      swap3\n        /* \"ExodusTreasury/Treasury.sol\":16840:16879  IERC20Metadata(address(EXO)).decimals() */\n      swap1\n      swap2\n      swap1\n      dup3\n      swap1\n      sub\n      add\n      dup2\n        /* \"ExodusTreasury/Treasury.sol\":16840:16877  IERC20Metadata(address(EXO)).decimals */\n      dup7\n        /* \"ExodusTreasury/Treasury.sol\":16840:16879  IERC20Metadata(address(EXO)).decimals() */\n      dup1\n      extcodesize\n      iszero\n      dup1\n      iszero\n      tag_543\n      jumpi\n      0x00\n      dup1\n      revert\n    tag_543:\n      pop\n      gas\n      staticcall\n      iszero\n      dup1\n      iszero\n      tag_545\n      jumpi\n      returndatasize\n      0x00\n      dup1\n      returndatacopy\n      revert(0x00, returndatasize)\n    tag_545:\n      pop\n      pop\n      pop\n      pop\n      mload(0x40)\n      returndatasize\n      0x20\n      dup2\n      lt\n      iszero\n      tag_546\n      jumpi\n      0x00\n      dup1\n      revert\n    tag_546:\n      pop\n      mload\n        /* \"ExodusTreasury/Treasury.sol\":16824:16831  _amount */\n      dup6\n      swap1\n        /* \"ExodusTreasury/Treasury.sol\":16836:16879  10**IERC20Metadata(address(EXO)).decimals() */\n      0xff\n      and\n        /* \"ExodusTreasury/Treasury.sol\":16836:16838  10 */\n      0x0a\n        /* \"ExodusTreasury/Treasury.sol\":16836:16879  10**IERC20Metadata(address(EXO)).decimals() */\n      exp\n        /* \"ExodusTreasury/Treasury.sol\":16824:16835  _amount.mul */\n      tag_286\n        /* \"ExodusTreasury/Treasury.sol\":16824:16880  _amount.mul(10**IERC20Metadata(address(EXO)).decimals()) */\n      jump\t// in\n    tag_542:\n        /* \"ExodusTreasury/Treasury.sol\":16824:16884  _amount.mul(10**IERC20Metadata(address(EXO)).decimals()).div */\n      swap1\n      tag_547\n        /* \"ExodusTreasury/Treasury.sol\":16824:16923  _amount.mul(10**IERC20Metadata(address(EXO)).decimals()).div(10**IERC20Metadata(_token).decimals()) */\n      jump\t// in\n    tag_537:\n      sub(shl(0xa0, 0x01), 0x01)\n        /* \"ExodusTreasury/Treasury.sol\":16938:16980  permissions[STATUS.LIQUIDITYTOKEN][_token] */\n      dup5\n      and\n        /* \"ExodusTreasury/Treasury.sol\":16938:16972  permissions[STATUS.LIQUIDITYTOKEN] */\n      0x00\n        /* \"ExodusTreasury/Treasury.sol\":16938:16980  permissions[STATUS.LIQUIDITYTOKEN][_token] */\n      swap1\n      dup2\n      mstore\n        /* \"ExodusTreasury/Treasury.sol\":16938:16972  permissions[STATUS.LIQUIDITYTOKEN] */\n      0x04cde762ef08b6b6c5ded8e8c4c0b3f4e5c9ad7342c88fcc93681b4588b73f05\n      0x20\n        /* \"ExodusTreasury/Treasury.sol\":16938:16980  permissions[STATUS.LIQUIDITYTOKEN][_token] */\n      mstore\n        /* \"ExodusTreasury/Treasury.sol\":16938:16972  permissions[STATUS.LIQUIDITYTOKEN] */\n      0x40\n        /* \"ExodusTreasury/Treasury.sol\":16938:16980  permissions[STATUS.LIQUIDITYTOKEN][_token] */\n      swap1\n      keccak256\n      sload\n        /* \"ExodusTreasury/Treasury.sol\":16815:16923  value_ = _amount.mul(10**IERC20Metadata(address(EXO)).decimals()).div(10**IERC20Metadata(_token).decimals()) */\n      swap1\n      swap2\n      pop\n        /* \"ExodusTreasury/Treasury.sol\":16938:16980  permissions[STATUS.LIQUIDITYTOKEN][_token] */\n      0xff\n      and\n        /* \"ExodusTreasury/Treasury.sol\":16934:17085  if (permissions[STATUS.LIQUIDITYTOKEN][_token]) {... */\n      iszero\n      tag_550\n      jumpi\n      sub(shl(0xa0, 0x01), 0x01)\n        /* \"ExodusTreasury/Treasury.sol\":17024:17046  bondCalculator[_token] */\n      dup1\n      dup5\n      and\n      0x00\n      dup2\n      dup2\n      mstore\n        /* \"ExodusTreasury/Treasury.sol\":17024:17038  bondCalculator */\n      0x05\n        /* \"ExodusTreasury/Treasury.sol\":17024:17046  bondCalculator[_token] */\n      0x20\n      swap1\n      dup2\n      mstore\n      0x40\n      swap2\n      dup3\n      swap1\n      keccak256\n      sload\n        /* \"ExodusTreasury/Treasury.sol\":17005:17074  IBondingCalculator(bondCalculator[_token]).valuation(_token, _amount) */\n      dup3\n      mload\n      0x4249719f00000000000000000000000000000000000000000000000000000000\n      dup2\n      mstore\n      0x04\n      dup2\n      add\n      swap5\n      swap1\n      swap5\n      mstore\n      0x24\n      dup5\n      add\n      dup8\n      swap1\n      mstore\n      swap2\n      mload\n        /* \"ExodusTreasury/Treasury.sol\":17024:17046  bondCalculator[_token] */\n      swap2\n      swap1\n      swap4\n      and\n      swap3\n        /* \"ExodusTreasury/Treasury.sol\":17005:17057  IBondingCalculator(bondCalculator[_token]).valuation */\n      0x4249719f\n      swap3\n        /* \"ExodusTreasury/Treasury.sol\":17005:17074  IBondingCalculator(bondCalculator[_token]).valuation(_token, _amount) */\n      0x44\n      dup1\n      dup3\n      add\n      swap4\n      swap2\n      dup3\n      swap1\n      sub\n      add\n      dup2\n        /* \"ExodusTreasury/Treasury.sol\":17024:17046  bondCalculator[_token] */\n      dup7\n        /* \"ExodusTreasury/Treasury.sol\":17005:17074  IBondingCalculator(bondCalculator[_token]).valuation(_token, _amount) */\n      dup1\n      extcodesize\n      iszero\n      dup1\n      iszero\n      tag_551\n      jumpi\n      0x00\n      dup1\n      revert\n    tag_551:\n      pop\n      gas\n      staticcall\n      iszero\n      dup1\n      iszero\n      tag_553\n      jumpi\n      returndatasize\n      0x00\n      dup1\n      returndatacopy\n      revert(0x00, returndatasize)\n    tag_553:\n      pop\n      pop\n      pop\n      pop\n      mload(0x40)\n      returndatasize\n      0x20\n      dup2\n      lt\n      iszero\n      tag_554\n      jumpi\n      0x00\n      dup1\n      revert\n    tag_554:\n      pop\n      mload\n      swap1\n      pop\n        /* \"ExodusTreasury/Treasury.sol\":16934:17085  if (permissions[STATUS.LIQUIDITYTOKEN][_token]) {... */\n    tag_550:\n        /* \"ExodusTreasury/Treasury.sol\":16706:17091  function tokenValue(address _token, uint256 _amount) public view override returns (uint256 value_) {... */\n      swap3\n      swap2\n      pop\n      pop\n      jump\t// out\n        /* \"ExodusTreasury/Treasury.sol\":2116:2140  uint256 public totalDebt */\n    tag_140:\n      sload(0x08)\n      dup2\n      jump\t// out\n        /* \"ExodusTreasury/Treasury.sol\":13743:15358  function execute(uint256 _index) external {... */\n    tag_143:\n        /* \"ExodusTreasury/Treasury.sol\":13803:13818  timelockEnabled */\n      and(0xff, sload(0x0b))\n        /* \"ExodusTreasury/Treasury.sol\":13803:13826  timelockEnabled == true */\n      iszero\n      iszero\n        /* \"ExodusTreasury/Treasury.sol\":13803:13818  timelockEnabled */\n      0x01\n        /* \"ExodusTreasury/Treasury.sol\":13803:13826  timelockEnabled == true */\n      eq\n        /* \"ExodusTreasury/Treasury.sol\":13795:13863  require(timelockEnabled == true, \"Timelock is disabled, use enable\") */\n      tag_556\n      jumpi\n      0x40\n      dup1\n      mload\n      shl(0xe5, 0x461bcd)\n      dup2\n      mstore\n      0x20\n      0x04\n      dup3\n      add\n      dup2\n      swap1\n      mstore\n      0x24\n      dup3\n      add\n      mstore\n      0x54696d656c6f636b2069732064697361626c65642c2075736520656e61626c65\n      0x44\n      dup3\n      add\n      mstore\n      swap1\n      mload\n      swap1\n      dup2\n      swap1\n      sub\n      0x64\n      add\n      swap1\n      revert\n    tag_556:\n        /* \"ExodusTreasury/Treasury.sol\":13874:13891  Queue memory info */\n      tag_557\n      tag_558\n      jump\t// in\n    tag_557:\n        /* \"ExodusTreasury/Treasury.sol\":13894:13909  permissionQueue */\n      0x0a\n        /* \"ExodusTreasury/Treasury.sol\":13910:13916  _index */\n      dup3\n        /* \"ExodusTreasury/Treasury.sol\":13894:13917  permissionQueue[_index] */\n      dup2\n      sload\n      dup2\n      lt\n      tag_559\n      jumpi\n      invalid\n    tag_559:\n      0x00\n      swap2\n      dup3\n      mstore\n      0x20\n      swap1\n      swap2\n      keccak256\n        /* \"ExodusTreasury/Treasury.sol\":13874:13917  Queue memory info = permissionQueue[_index] */\n      0x40\n      dup1\n      mload\n      0xc0\n      dup2\n      add\n      swap1\n      swap2\n      mstore\n        /* \"ExodusTreasury/Treasury.sol\":13894:13917  permissionQueue[_index] */\n      0x04\n      swap1\n      swap3\n      mul\n      add\n        /* \"ExodusTreasury/Treasury.sol\":13874:13917  Queue memory info = permissionQueue[_index] */\n      dup1\n      sload\n      dup3\n      swap1\n      0xff\n      and\n      0x0a\n      dup2\n      gt\n      iszero\n      tag_561\n      jumpi\n      invalid\n    tag_561:\n      0x0a\n      dup2\n      gt\n      iszero\n      tag_562\n      jumpi\n      invalid\n    tag_562:\n      dup2\n      mstore\n      dup2\n      sload\n      sub(shl(0xa0, 0x01), 0x01)\n      0x0100\n      swap2\n      dup3\n      swap1\n      div\n      dup2\n      and\n      0x20\n      dup5\n      add\n      mstore\n      0x01\n      dup5\n      add\n      sload\n      and\n      0x40\n      dup4\n      add\n      mstore\n      0x02\n      dup4\n      add\n      sload\n      0x60\n      dup4\n      add\n      mstore\n      0x03\n      swap1\n      swap3\n      add\n      sload\n      0xff\n      dup1\n      dup3\n      and\n      iszero\n      iszero\n      0x80\n      dup1\n      dup6\n      add\n      swap2\n      swap1\n      swap2\n      mstore\n      swap4\n      swap1\n      swap2\n      div\n      and\n      iszero\n      iszero\n      0xa0\n      swap1\n      swap2\n      add\n      mstore\n        /* \"ExodusTreasury/Treasury.sol\":13937:13949  info.nullify */\n      dup2\n      add\n      mload\n        /* \"ExodusTreasury/Treasury.sol\":13874:13917  Queue memory info = permissionQueue[_index] */\n      swap1\n      swap2\n      pop\n        /* \"ExodusTreasury/Treasury.sol\":13936:13949  !info.nullify */\n      iszero\n        /* \"ExodusTreasury/Treasury.sol\":13928:13979  require(!info.nullify, \"Action has been nullified\") */\n      tag_563\n      jumpi\n      0x40\n      dup1\n      mload\n      shl(0xe5, 0x461bcd)\n      dup2\n      mstore\n      0x20\n      0x04\n      dup3\n      add\n      mstore\n      0x19\n      0x24\n      dup3\n      add\n      mstore\n      0x416374696f6e20686173206265656e206e756c6c696669656400000000000000\n      0x44\n      dup3\n      add\n      mstore\n      swap1\n      mload\n      swap1\n      dup2\n      swap1\n      sub\n      0x64\n      add\n      swap1\n      revert\n    tag_563:\n        /* \"ExodusTreasury/Treasury.sol\":13998:14002  info */\n      dup1\n        /* \"ExodusTreasury/Treasury.sol\":13998:14011  info.executed */\n      0xa0\n      add\n      mload\n        /* \"ExodusTreasury/Treasury.sol\":13997:14011  !info.executed */\n      iszero\n        /* \"ExodusTreasury/Treasury.sol\":13989:14048  require(!info.executed, \"Action has already been executed\") */\n      tag_564\n      jumpi\n      0x40\n      dup1\n      mload\n      shl(0xe5, 0x461bcd)\n      dup2\n      mstore\n      0x20\n      0x04\n      dup3\n      add\n      dup2\n      swap1\n      mstore\n      0x24\n      dup3\n      add\n      mstore\n      0x416374696f6e2068617320616c7265616479206265656e206578656375746564\n      0x44\n      dup3\n      add\n      mstore\n      swap1\n      mload\n      swap1\n      dup2\n      swap1\n      sub\n      0x64\n      add\n      swap1\n      revert\n    tag_564:\n        /* \"ExodusTreasury/Treasury.sol\":14082:14086  info */\n      dup1\n        /* \"ExodusTreasury/Treasury.sol\":14082:14098  info.timelockEnd */\n      0x60\n      add\n      mload\n        /* \"ExodusTreasury/Treasury.sol\":14066:14078  block.number */\n      number\n        /* \"ExodusTreasury/Treasury.sol\":14066:14098  block.number >= info.timelockEnd */\n      lt\n      iszero\n        /* \"ExodusTreasury/Treasury.sol\":14058:14124  require(block.number >= info.timelockEnd, \"Timelock not complete\") */\n      tag_565\n      jumpi\n      0x40\n      dup1\n      mload\n      shl(0xe5, 0x461bcd)\n      dup2\n      mstore\n      0x20\n      0x04\n      dup3\n      add\n      mstore\n      0x15\n      0x24\n      dup3\n      add\n      mstore\n      0x54696d656c6f636b206e6f7420636f6d706c6574650000000000000000000000\n      0x44\n      dup3\n      add\n      mstore\n      swap1\n      mload\n      swap1\n      dup2\n      swap1\n      sub\n      0x64\n      add\n      swap1\n      revert\n    tag_565:\n        /* \"ExodusTreasury/Treasury.sol\":14156:14167  STATUS.SEXO */\n      0x09\n        /* \"ExodusTreasury/Treasury.sol\":14139:14152  info.managing */\n      dup2\n      mload\n        /* \"ExodusTreasury/Treasury.sol\":14139:14167  info.managing == STATUS.SEXO */\n      0x0a\n      dup2\n      gt\n      iszero\n      tag_567\n      jumpi\n      invalid\n    tag_567:\n      eq\n        /* \"ExodusTreasury/Treasury.sol\":14135:15240  if (info.managing == STATUS.SEXO) {... */\n      iszero\n      tag_568\n      jumpi\n        /* \"ExodusTreasury/Treasury.sol\":14213:14226  info.toPermit */\n      0x20\n      dup2\n      add\n      mload\n        /* \"ExodusTreasury/Treasury.sol\":14200:14204  sEXO */\n      0x02\n        /* \"ExodusTreasury/Treasury.sol\":14200:14227  sEXO = IsEXO(info.toPermit) */\n      dup1\n      sload\n      not(sub(shl(0xa0, 0x01), 0x01))\n      and\n      sub(shl(0xa0, 0x01), 0x01)\n      swap1\n      swap3\n      and\n      swap2\n      swap1\n      swap2\n      or\n      swap1\n      sstore\n        /* \"ExodusTreasury/Treasury.sol\":14135:15240  if (info.managing == STATUS.SEXO) {... */\n      jump(tag_569)\n    tag_568:\n        /* \"ExodusTreasury/Treasury.sol\":14302:14306  true */\n      0x01\n        /* \"ExodusTreasury/Treasury.sol\":14258:14269  permissions */\n      0x04\n        /* \"ExodusTreasury/Treasury.sol\":14258:14284  permissions[info.managing] */\n      0x00\n        /* \"ExodusTreasury/Treasury.sol\":14270:14274  info */\n      dup4\n        /* \"ExodusTreasury/Treasury.sol\":14270:14283  info.managing */\n      0x00\n      add\n      mload\n        /* \"ExodusTreasury/Treasury.sol\":14258:14284  permissions[info.managing] */\n      0x0a\n      dup2\n      gt\n      iszero\n      tag_570\n      jumpi\n      invalid\n    tag_570:\n      0x0a\n      dup2\n      gt\n      iszero\n      tag_571\n      jumpi\n      invalid\n    tag_571:\n      dup2\n      mstore\n      0x20\n      dup1\n      dup3\n      add\n      swap3\n      swap1\n      swap3\n      mstore\n      0x40\n      swap1\n      dup2\n      add\n      0x00\n      swap1\n      dup2\n      keccak256\n        /* \"ExodusTreasury/Treasury.sol\":14285:14298  info.toPermit */\n      dup6\n      dup5\n      add\n      mload\n      sub(shl(0xa0, 0x01), 0x01)\n        /* \"ExodusTreasury/Treasury.sol\":14258:14299  permissions[info.managing][info.toPermit] */\n      and\n      dup3\n      mstore\n      swap1\n      swap3\n      mstore\n      swap1\n      keccak256\n        /* \"ExodusTreasury/Treasury.sol\":14258:14306  permissions[info.managing][info.toPermit] = true */\n      dup1\n      sload\n      not(0xff)\n      and\n      swap2\n      iszero\n      iszero\n      swap2\n      swap1\n      swap2\n      or\n      swap1\n      sstore\n        /* \"ExodusTreasury/Treasury.sol\":14342:14363  STATUS.LIQUIDITYTOKEN */\n      0x05\n        /* \"ExodusTreasury/Treasury.sol\":14325:14338  info.managing */\n      dup2\n      mload\n        /* \"ExodusTreasury/Treasury.sol\":14325:14363  info.managing == STATUS.LIQUIDITYTOKEN */\n      0x0a\n      dup2\n      gt\n      iszero\n      tag_573\n      jumpi\n      invalid\n    tag_573:\n      eq\n        /* \"ExodusTreasury/Treasury.sol\":14321:14445  if (info.managing == STATUS.LIQUIDITYTOKEN) {... */\n      iszero\n      tag_574\n      jumpi\n        /* \"ExodusTreasury/Treasury.sol\":14415:14430  info.calculator */\n      0x40\n      dup2\n      dup2\n      add\n      mload\n        /* \"ExodusTreasury/Treasury.sol\":14398:14411  info.toPermit */\n      0x20\n      dup1\n      dup5\n      add\n      mload\n      sub(shl(0xa0, 0x01), 0x01)\n        /* \"ExodusTreasury/Treasury.sol\":14383:14412  bondCalculator[info.toPermit] */\n      swap1\n      dup2\n      and\n      0x00\n      swap1\n      dup2\n      mstore\n        /* \"ExodusTreasury/Treasury.sol\":14383:14397  bondCalculator */\n      0x05\n        /* \"ExodusTreasury/Treasury.sol\":14383:14412  bondCalculator[info.toPermit] */\n      swap1\n      swap3\n      mstore\n      swap3\n      swap1\n      keccak256\n        /* \"ExodusTreasury/Treasury.sol\":14383:14430  bondCalculator[info.toPermit] = info.calculator */\n      dup1\n      sload\n      not(sub(shl(0xa0, 0x01), 0x01))\n      and\n      swap3\n      swap1\n      swap2\n      and\n      swap2\n      swap1\n      swap2\n      or\n      swap1\n      sstore\n        /* \"ExodusTreasury/Treasury.sol\":14321:14445  if (info.managing == STATUS.LIQUIDITYTOKEN) {... */\n    tag_574:\n        /* \"ExodusTreasury/Treasury.sol\":14459:14474  bool registered */\n      0x00\n        /* \"ExodusTreasury/Treasury.sol\":14480:14525  indexInRegistry(info.toPermit, info.managing) */\n      tag_575\n        /* \"ExodusTreasury/Treasury.sol\":14496:14500  info */\n      dup3\n        /* \"ExodusTreasury/Treasury.sol\":14496:14509  info.toPermit */\n      0x20\n      add\n      mload\n        /* \"ExodusTreasury/Treasury.sol\":14511:14515  info */\n      dup4\n        /* \"ExodusTreasury/Treasury.sol\":14511:14524  info.managing */\n      0x00\n      add\n      mload\n        /* \"ExodusTreasury/Treasury.sol\":14480:14495  indexInRegistry */\n      tag_110\n        /* \"ExodusTreasury/Treasury.sol\":14480:14525  indexInRegistry(info.toPermit, info.managing) */\n      jump\t// in\n    tag_575:\n        /* \"ExodusTreasury/Treasury.sol\":14458:14525  (bool registered, ) = indexInRegistry(info.toPermit, info.managing) */\n      pop\n      swap1\n      pop\n        /* \"ExodusTreasury/Treasury.sol\":14544:14554  registered */\n      dup1\n        /* \"ExodusTreasury/Treasury.sol\":14539:15230  if (!registered) {... */\n      tag_592\n      jumpi\n        /* \"ExodusTreasury/Treasury.sol\":14574:14582  registry */\n      0x03\n        /* \"ExodusTreasury/Treasury.sol\":14574:14597  registry[info.managing] */\n      0x00\n        /* \"ExodusTreasury/Treasury.sol\":14583:14587  info */\n      dup4\n        /* \"ExodusTreasury/Treasury.sol\":14583:14596  info.managing */\n      0x00\n      add\n      mload\n        /* \"ExodusTreasury/Treasury.sol\":14574:14597  registry[info.managing] */\n      0x0a\n      dup2\n      gt\n      iszero\n      tag_577\n      jumpi\n      invalid\n    tag_577:\n      0x0a\n      dup2\n      gt\n      iszero\n      tag_578\n      jumpi\n      invalid\n    tag_578:\n      dup2\n      mstore\n      0x20\n      dup1\n      dup3\n      add\n      swap3\n      swap1\n      swap3\n      mstore\n      0x40\n      add\n      0x00\n      swap1\n      dup2\n      keccak256\n        /* \"ExodusTreasury/Treasury.sol\":14603:14616  info.toPermit */\n      dup5\n      dup4\n      add\n      mload\n        /* \"ExodusTreasury/Treasury.sol\":14574:14617  registry[info.managing].push(info.toPermit) */\n      dup2\n      sload\n      0x01\n      dup2\n      add\n      dup4\n      sstore\n      swap2\n      dup4\n      mstore\n      swap3\n      swap1\n      swap2\n      keccak256\n      add\n      dup1\n      sload\n      not(sub(shl(0xa0, 0x01), 0x01))\n      and\n      sub(shl(0xa0, 0x01), 0x01)\n      swap1\n      swap3\n      and\n      swap2\n      swap1\n      swap2\n      or\n      swap1\n      sstore\n        /* \"ExodusTreasury/Treasury.sol\":14657:14678  STATUS.LIQUIDITYTOKEN */\n      0x05\n        /* \"ExodusTreasury/Treasury.sol\":14640:14653  info.managing */\n      dup3\n      mload\n        /* \"ExodusTreasury/Treasury.sol\":14640:14678  info.managing == STATUS.LIQUIDITYTOKEN */\n      0x0a\n      dup2\n      gt\n      iszero\n      tag_581\n      jumpi\n      invalid\n    tag_581:\n      eq\n        /* \"ExodusTreasury/Treasury.sol\":14636:15216  if (info.managing == STATUS.LIQUIDITYTOKEN) {... */\n      iszero\n      tag_582\n      jumpi\n        /* \"ExodusTreasury/Treasury.sol\":14703:14711  bool reg */\n      0x00\n        /* \"ExodusTreasury/Treasury.sol\":14713:14726  uint256 index */\n      dup1\n        /* \"ExodusTreasury/Treasury.sol\":14730:14781  indexInRegistry(info.toPermit, STATUS.RESERVETOKEN) */\n      tag_583\n        /* \"ExodusTreasury/Treasury.sol\":14746:14750  info */\n      dup5\n        /* \"ExodusTreasury/Treasury.sol\":14746:14759  info.toPermit */\n      0x20\n      add\n      mload\n        /* \"ExodusTreasury/Treasury.sol\":14761:14780  STATUS.RESERVETOKEN */\n      0x02\n        /* \"ExodusTreasury/Treasury.sol\":14730:14745  indexInRegistry */\n      tag_110\n        /* \"ExodusTreasury/Treasury.sol\":14730:14781  indexInRegistry(info.toPermit, STATUS.RESERVETOKEN) */\n      jump\t// in\n    tag_583:\n        /* \"ExodusTreasury/Treasury.sol\":14702:14781  (bool reg, uint256 index) = indexInRegistry(info.toPermit, STATUS.RESERVETOKEN) */\n      swap2\n      pop\n      swap2\n      pop\n        /* \"ExodusTreasury/Treasury.sol\":14807:14810  reg */\n      dup2\n        /* \"ExodusTreasury/Treasury.sol\":14803:14904  if (reg) {... */\n      iszero\n      tag_584\n      jumpi\n        /* \"ExodusTreasury/Treasury.sol\":14854:14873  STATUS.RESERVETOKEN */\n      0x02\n        /* \"ExodusTreasury/Treasury.sol\":14845:14874  registry[STATUS.RESERVETOKEN] */\n      0x00\n      mstore\n        /* \"ExodusTreasury/Treasury.sol\":14845:14853  registry */\n      0x03\n        /* \"ExodusTreasury/Treasury.sol\":14845:14874  registry[STATUS.RESERVETOKEN] */\n      0x20\n      mstore\n      0xc3a24b0501bd2c13a7e57f2db4369ec4c223447539fc0724a9d55ac4a06ebd4d\n        /* \"ExodusTreasury/Treasury.sol\":14845:14881  registry[STATUS.RESERVETOKEN][index] */\n      dup1\n      sload\n        /* \"ExodusTreasury/Treasury.sol\":14875:14880  index */\n      dup3\n      swap1\n        /* \"ExodusTreasury/Treasury.sol\":14845:14881  registry[STATUS.RESERVETOKEN][index] */\n      dup2\n      lt\n      tag_587\n      jumpi\n      invalid\n    tag_587:\n      0x00\n      swap2\n      dup3\n      mstore\n      0x20\n      swap1\n      swap2\n      keccak256\n      add\n        /* \"ExodusTreasury/Treasury.sol\":14838:14881  delete registry[STATUS.RESERVETOKEN][index] */\n      dup1\n      sload\n      not(sub(shl(0xa0, 0x01), 0x01))\n      and\n      swap1\n      sstore\n        /* \"ExodusTreasury/Treasury.sol\":14803:14904  if (reg) {... */\n    tag_584:\n        /* \"ExodusTreasury/Treasury.sol\":14636:15216  if (info.managing == STATUS.LIQUIDITYTOKEN) {... */\n      pop\n      pop\n      jump(tag_592)\n    tag_582:\n        /* \"ExodusTreasury/Treasury.sol\":14949:14968  STATUS.RESERVETOKEN */\n      0x02\n        /* \"ExodusTreasury/Treasury.sol\":14932:14945  info.managing */\n      dup3\n      mload\n        /* \"ExodusTreasury/Treasury.sol\":14932:14968  info.managing == STATUS.RESERVETOKEN */\n      0x0a\n      dup2\n      gt\n      iszero\n      tag_591\n      jumpi\n      invalid\n    tag_591:\n      eq\n        /* \"ExodusTreasury/Treasury.sol\":14928:15216  if (info.managing == STATUS.RESERVETOKEN) {... */\n      iszero\n      tag_592\n      jumpi\n        /* \"ExodusTreasury/Treasury.sol\":14993:15001  bool reg */\n      0x00\n        /* \"ExodusTreasury/Treasury.sol\":15003:15016  uint256 index */\n      dup1\n        /* \"ExodusTreasury/Treasury.sol\":15020:15073  indexInRegistry(info.toPermit, STATUS.LIQUIDITYTOKEN) */\n      tag_593\n        /* \"ExodusTreasury/Treasury.sol\":15036:15040  info */\n      dup5\n        /* \"ExodusTreasury/Treasury.sol\":15036:15049  info.toPermit */\n      0x20\n      add\n      mload\n        /* \"ExodusTreasury/Treasury.sol\":15051:15072  STATUS.LIQUIDITYTOKEN */\n      0x05\n        /* \"ExodusTreasury/Treasury.sol\":15020:15035  indexInRegistry */\n      tag_110\n        /* \"ExodusTreasury/Treasury.sol\":15020:15073  indexInRegistry(info.toPermit, STATUS.LIQUIDITYTOKEN) */\n      jump\t// in\n    tag_593:\n        /* \"ExodusTreasury/Treasury.sol\":14992:15073  (bool reg, uint256 index) = indexInRegistry(info.toPermit, STATUS.LIQUIDITYTOKEN) */\n      swap2\n      pop\n      swap2\n      pop\n        /* \"ExodusTreasury/Treasury.sol\":15099:15102  reg */\n      dup2\n        /* \"ExodusTreasury/Treasury.sol\":15095:15198  if (reg) {... */\n      iszero\n      tag_594\n      jumpi\n        /* \"ExodusTreasury/Treasury.sol\":15146:15167  STATUS.LIQUIDITYTOKEN */\n      0x05\n        /* \"ExodusTreasury/Treasury.sol\":15137:15168  registry[STATUS.LIQUIDITYTOKEN] */\n      0x00\n      mstore\n        /* \"ExodusTreasury/Treasury.sol\":15137:15145  registry */\n      0x03\n        /* \"ExodusTreasury/Treasury.sol\":15137:15168  registry[STATUS.LIQUIDITYTOKEN] */\n      0x20\n      mstore\n      0x405aad32e1adbac89bb7f176e338b8fc6e994ca210c9bb7bdca249b465942250\n        /* \"ExodusTreasury/Treasury.sol\":15137:15175  registry[STATUS.LIQUIDITYTOKEN][index] */\n      dup1\n      sload\n        /* \"ExodusTreasury/Treasury.sol\":15169:15174  index */\n      dup3\n      swap1\n        /* \"ExodusTreasury/Treasury.sol\":15137:15175  registry[STATUS.LIQUIDITYTOKEN][index] */\n      dup2\n      lt\n      tag_597\n      jumpi\n      invalid\n    tag_597:\n      0x00\n      swap2\n      dup3\n      mstore\n      0x20\n      swap1\n      swap2\n      keccak256\n      add\n        /* \"ExodusTreasury/Treasury.sol\":15130:15175  delete registry[STATUS.LIQUIDITYTOKEN][index] */\n      dup1\n      sload\n      not(sub(shl(0xa0, 0x01), 0x01))\n      and\n      swap1\n      sstore\n        /* \"ExodusTreasury/Treasury.sol\":15095:15198  if (reg) {... */\n    tag_594:\n        /* \"ExodusTreasury/Treasury.sol\":14928:15216  if (info.managing == STATUS.RESERVETOKEN) {... */\n      pop\n      pop\n    tag_592:\n        /* \"ExodusTreasury/Treasury.sol\":14135:15240  if (info.managing == STATUS.SEXO) {... */\n      pop\n    tag_569:\n        /* \"ExodusTreasury/Treasury.sol\":15284:15288  true */\n      0x01\n        /* \"ExodusTreasury/Treasury.sol\":15249:15264  permissionQueue */\n      0x0a\n        /* \"ExodusTreasury/Treasury.sol\":15265:15271  _index */\n      dup4\n        /* \"ExodusTreasury/Treasury.sol\":15249:15272  permissionQueue[_index] */\n      dup2\n      sload\n      dup2\n      lt\n      tag_599\n      jumpi\n      invalid\n    tag_599:\n      0x00\n      swap2\n      dup3\n      mstore\n      0x20\n      swap1\n      swap2\n      keccak256\n        /* \"ExodusTreasury/Treasury.sol\":15249:15281  permissionQueue[_index].executed */\n      0x03\n        /* \"ExodusTreasury/Treasury.sol\":15249:15272  permissionQueue[_index] */\n      0x04\n      swap1\n      swap3\n      mul\n      add\n        /* \"ExodusTreasury/Treasury.sol\":15249:15281  permissionQueue[_index].executed */\n      add\n        /* \"ExodusTreasury/Treasury.sol\":15249:15288  permissionQueue[_index].executed = true */\n      dup1\n      sload\n      swap2\n      iszero\n      iszero\n      0x0100\n      mul\n      not(0xff00)\n      swap1\n      swap3\n      and\n      swap2\n      swap1\n      swap2\n      or\n      swap1\n      sstore\n        /* \"ExodusTreasury/Treasury.sol\":15331:15344  info.managing */\n      dup1\n      mload\n        /* \"ExodusTreasury/Treasury.sol\":15303:15351  Permissioned(info.toPermit, info.managing, true) */\n      0x0a\n      dup2\n      gt\n      iszero\n      tag_601\n      jumpi\n      invalid\n    tag_601:\n      0x7531a7aefe3985500c4dec2dcb6049a708f14c6a8a9022b435b8841bdb8e1713\n        /* \"ExodusTreasury/Treasury.sol\":15316:15320  info */\n      dup3\n        /* \"ExodusTreasury/Treasury.sol\":15316:15329  info.toPermit */\n      0x20\n      add\n      mload\n        /* \"ExodusTreasury/Treasury.sol\":15346:15350  true */\n      0x01\n        /* \"ExodusTreasury/Treasury.sol\":15303:15351  Permissioned(info.toPermit, info.managing, true) */\n      mload(0x40)\n      dup1\n      dup4\n      sub(shl(0xa0, 0x01), 0x01)\n      and\n      dup2\n      mstore\n      0x20\n      add\n      dup3\n      iszero\n      iszero\n      dup2\n      mstore\n      0x20\n      add\n      swap3\n      pop\n      pop\n      pop\n      mload(0x40)\n      dup1\n      swap2\n      sub\n      swap1\n      log2\n        /* \"ExodusTreasury/Treasury.sol\":13743:15358  function execute(uint256 _index) external {... */\n      pop\n      pop\n      jump\t// out\n        /* \"ExodusTreasury/SafeMath.sol\":337:471  function sub(uint256 a, uint256 b) internal pure returns (uint256) {... */\n    tag_162:\n        /* \"ExodusTreasury/SafeMath.sol\":395:402  uint256 */\n      0x00\n        /* \"ExodusTreasury/SafeMath.sol\":421:464  sub(a, b, \"SafeMath: subtraction overflow\") */\n      tag_603\n        /* \"ExodusTreasury/SafeMath.sol\":425:426  a */\n      dup4\n        /* \"ExodusTreasury/SafeMath.sol\":428:429  b */\n      dup4\n        /* \"ExodusTreasury/SafeMath.sol\":421:464  sub(a, b, \"SafeMath: subtraction overflow\") */\n      mload(0x40)\n      dup1\n      0x40\n      add\n      0x40\n      mstore\n      dup1\n      0x1e\n      dup2\n      mstore\n      0x20\n      add\n      0x536166654d6174683a207375627472616374696f6e206f766572666c6f770000\n      dup2\n      mstore\n      pop\n        /* \"ExodusTreasury/SafeMath.sol\":421:424  sub */\n      tag_604\n        /* \"ExodusTreasury/SafeMath.sol\":421:464  sub(a, b, \"SafeMath: subtraction overflow\") */\n      jump\t// in\n    tag_603:\n        /* \"ExodusTreasury/SafeMath.sol\":414:464  return sub(a, b, \"SafeMath: subtraction overflow\") */\n      swap4\n        /* \"ExodusTreasury/SafeMath.sol\":337:471  function sub(uint256 a, uint256 b) internal pure returns (uint256) {... */\n      swap3\n      pop\n      pop\n      pop\n      jump\t// out\n        /* \"ExodusTreasury/SafeERC20.sol\":780:1135  function safeTransfer(... */\n    tag_164:\n        /* \"ExodusTreasury/SafeERC20.sol\":962:1022  abi.encodeWithSelector(IERC20.transfer.selector, to, amount) */\n      0x40\n      dup1\n      mload\n      sub(shl(0xa0, 0x01), 0x01)\n      dup5\n      dup2\n      and\n      0x24\n      dup4\n      add\n      mstore\n      0x44\n      dup1\n      dup4\n      add\n      dup6\n      swap1\n      mstore\n      dup4\n      mload\n      dup1\n      dup5\n      sub\n      swap1\n      swap2\n      add\n      dup2\n      mstore\n      0x64\n      swap1\n      swap3\n      add\n      dup4\n      mstore\n      0x20\n      dup3\n      add\n      dup1\n      mload\n      0xffffffffffffffffffffffffffffffffffffffffffffffffffffffff\n      and\n        /* \"ExodusTreasury/SafeERC20.sol\":985:1009  IERC20.transfer.selector */\n      0xa9059cbb00000000000000000000000000000000000000000000000000000000\n        /* \"ExodusTreasury/SafeERC20.sol\":962:1022  abi.encodeWithSelector(IERC20.transfer.selector, to, amount) */\n      or\n      dup2\n      mstore\n        /* \"ExodusTreasury/SafeERC20.sol\":929:1032  address(token).call(... */\n      swap3\n      mload\n      dup3\n      mload\n        /* \"ExodusTreasury/SafeERC20.sol\":894:906  bool success */\n      0x00\n      swap5\n        /* \"ExodusTreasury/SafeERC20.sol\":908:925  bytes memory data */\n      0x60\n      swap5\n        /* \"ExodusTreasury/SafeERC20.sol\":929:948  address(token).call */\n      swap4\n      dup10\n      and\n      swap4\n        /* \"ExodusTreasury/SafeERC20.sol\":962:1022  abi.encodeWithSelector(IERC20.transfer.selector, to, amount) */\n      swap3\n        /* \"ExodusTreasury/SafeERC20.sol\":929:1032  address(token).call(... */\n      swap2\n      dup3\n      swap2\n        /* \"ExodusTreasury/SafeERC20.sol\":962:1022  abi.encodeWithSelector(IERC20.transfer.selector, to, amount) */\n      swap1\n        /* \"ExodusTreasury/SafeERC20.sol\":929:1032  address(token).call(... */\n      dup1\n      dup4\n        /* \"ExodusTreasury/SafeERC20.sol\":962:1022  abi.encodeWithSelector(IERC20.transfer.selector, to, amount) */\n      dup4\n        /* \"ExodusTreasury/SafeERC20.sol\":929:1032  address(token).call(... */\n    tag_606:\n      0x20\n      dup4\n      lt\n      tag_608\n      jumpi\n      dup1\n      mload\n      dup3\n      mstore\n      not(0x1f)\n      swap1\n      swap3\n      add\n      swap2\n      0x20\n      swap2\n      dup3\n      add\n      swap2\n      add\n      jump(tag_606)\n    tag_608:\n      0x01\n      dup4\n      0x20\n      sub\n      0x0100\n      exp\n      sub\n      dup1\n      not\n      dup3\n      mload\n      and\n      dup2\n      dup5\n      mload\n      and\n      dup1\n      dup3\n      or\n      dup6\n      mstore\n      pop\n      pop\n      pop\n      pop\n      pop\n      pop\n      swap1\n      pop\n      add\n      swap2\n      pop\n      pop\n      0x00\n      mload(0x40)\n      dup1\n      dup4\n      sub\n      dup2\n      0x00\n      dup7\n      gas\n      call\n      swap2\n      pop\n      pop\n      returndatasize\n      dup1\n      0x00\n      dup2\n      eq\n      tag_611\n      jumpi\n      mload(0x40)\n      swap2\n      pop\n      and(add(returndatasize, 0x3f), not(0x1f))\n      dup3\n      add\n      0x40\n      mstore\n      returndatasize\n      dup3\n      mstore\n      returndatasize\n      0x00\n      0x20\n      dup5\n      add\n      returndatacopy\n      jump(tag_610)\n    tag_611:\n      0x60\n      swap2\n      pop\n    tag_610:\n      pop\n        /* \"ExodusTreasury/SafeERC20.sol\":893:1032  (bool success, bytes memory data) = address(token).call(... */\n      swap2\n      pop\n      swap2\n      pop\n        /* \"ExodusTreasury/SafeERC20.sol\":1051:1058  success */\n      dup2\n        /* \"ExodusTreasury/SafeERC20.sol\":1051:1108  success && (data.length == 0 || abi.decode(data, (bool))) */\n      dup1\n      iszero\n      tag_613\n      jumpi\n      pop\n        /* \"ExodusTreasury/SafeERC20.sol\":1063:1074  data.length */\n      dup1\n      mload\n        /* \"ExodusTreasury/SafeERC20.sol\":1063:1079  data.length == 0 */\n      iszero\n      dup1\n        /* \"ExodusTreasury/SafeERC20.sol\":1063:1107  data.length == 0 || abi.decode(data, (bool)) */\n      tag_613\n      jumpi\n      pop\n        /* \"ExodusTreasury/SafeERC20.sol\":1094:1098  data */\n      dup1\n        /* \"ExodusTreasury/SafeERC20.sol\":1083:1107  abi.decode(data, (bool)) */\n      dup1\n      0x20\n      add\n      swap1\n      mload\n      0x20\n      dup2\n      lt\n      iszero\n      tag_614\n      jumpi\n      0x00\n      dup1\n      revert\n    tag_614:\n      pop\n      mload\n        /* \"ExodusTreasury/SafeERC20.sol\":1063:1107  data.length == 0 || abi.decode(data, (bool)) */\n    tag_613:\n        /* \"ExodusTreasury/SafeERC20.sol\":1043:1128  require(success && (data.length == 0 || abi.decode(data, (bool))), \"TRANSFER_FAILED\") */\n      tag_615\n      jumpi\n      0x40\n      dup1\n      mload\n      shl(0xe5, 0x461bcd)\n      dup2\n      mstore\n      0x20\n      0x04\n      dup3\n      add\n      mstore\n      0x0f\n      0x24\n      dup3\n      add\n      mstore\n      0x5452414e534645525f4641494c45440000000000000000000000000000000000\n      0x44\n      dup3\n      add\n      mstore\n      swap1\n      mload\n      swap1\n      dup2\n      swap1\n      sub\n      0x64\n      add\n      swap1\n      revert\n    tag_615:\n        /* \"ExodusTreasury/SafeERC20.sol\":780:1135  function safeTransfer(... */\n      pop\n      pop\n      pop\n      pop\n      pop\n      jump\t// out\n        /* \"ExodusTreasury/SafeMath.sol\":155:331  function add(uint256 a, uint256 b) internal pure returns (uint256) {... */\n    tag_256:\n        /* \"ExodusTreasury/SafeMath.sol\":213:220  uint256 */\n      0x00\n        /* \"ExodusTreasury/SafeMath.sol\":244:249  a + b */\n      dup3\n      dup3\n      add\n        /* \"ExodusTreasury/SafeMath.sol\":267:273  c >= a */\n      dup4\n      dup2\n      lt\n      iszero\n        /* \"ExodusTreasury/SafeMath.sol\":259:305  require(c >= a, \"SafeMath: addition overflow\") */\n      tag_603\n      jumpi\n      0x40\n      dup1\n      mload\n      shl(0xe5, 0x461bcd)\n      dup2\n      mstore\n      0x20\n      0x04\n      dup3\n      add\n      mstore\n      0x1b\n      0x24\n      dup3\n      add\n      mstore\n      0x536166654d6174683a206164646974696f6e206f766572666c6f770000000000\n      0x44\n      dup3\n      add\n      mstore\n      swap1\n      mload\n      swap1\n      dup2\n      swap1\n      sub\n      0x64\n      add\n      swap1\n      revert\n        /* \"ExodusTreasury/SafeMath.sol\":700:941  function mul(uint256 a, uint256 b) internal pure returns (uint256) {... */\n    tag_286:\n        /* \"ExodusTreasury/SafeMath.sol\":758:765  uint256 */\n      0x00\n        /* \"ExodusTreasury/SafeMath.sol\":781:787  a == 0 */\n      dup3\n        /* \"ExodusTreasury/SafeMath.sol\":777:822  if (a == 0) {... */\n      tag_619\n      jumpi\n      pop\n        /* \"ExodusTreasury/SafeMath.sol\":810:811  0 */\n      0x00\n        /* \"ExodusTreasury/SafeMath.sol\":803:811  return 0 */\n      jump(tag_550)\n        /* \"ExodusTreasury/SafeMath.sol\":777:822  if (a == 0) {... */\n    tag_619:\n        /* \"ExodusTreasury/SafeMath.sol\":844:849  a * b */\n      dup3\n      dup3\n      mul\n        /* \"ExodusTreasury/SafeMath.sol\":848:849  b */\n      dup3\n        /* \"ExodusTreasury/SafeMath.sol\":844:845  a */\n      dup5\n        /* \"ExodusTreasury/SafeMath.sol\":844:849  a * b */\n      dup3\n        /* \"ExodusTreasury/SafeMath.sol\":844:845  a */\n      dup2\n        /* \"ExodusTreasury/SafeMath.sol\":867:872  c / a */\n      tag_620\n      jumpi\n      invalid\n    tag_620:\n      div\n        /* \"ExodusTreasury/SafeMath.sol\":867:877  c / a == b */\n      eq\n        /* \"ExodusTreasury/SafeMath.sol\":859:915  require(c / a == b, \"SafeMath: multiplication overflow\") */\n      tag_603\n      jumpi\n      mload(0x40)\n      shl(0xe5, 0x461bcd)\n      dup2\n      mstore\n      0x04\n      add\n      dup1\n      dup1\n      0x20\n      add\n      dup3\n      dup2\n      sub\n      dup3\n      mstore\n      0x21\n      dup2\n      mstore\n      0x20\n      add\n      dup1\n      data_9113bb53c2876a3805b2c9242029423fc540a728243ce887ab24c82cf119fba3\n      0x21\n      swap2\n      codecopy\n      0x40\n      add\n      swap2\n      pop\n      pop\n      mload(0x40)\n      dup1\n      swap2\n      sub\n      swap1\n      revert\n        /* \"ExodusTreasury/SafeERC20.sol\":378:774  function safeTransferFrom(... */\n    tag_471:\n        /* \"ExodusTreasury/SafeERC20.sol\":586:656  abi.encodeWithSelector(IERC20.transferFrom.selector, from, to, amount) */\n      0x40\n      dup1\n      mload\n      sub(shl(0xa0, 0x01), 0x01)\n      dup6\n      dup2\n      and\n      0x24\n      dup4\n      add\n      mstore\n      dup5\n      dup2\n      and\n      0x44\n      dup4\n      add\n      mstore\n      0x64\n      dup1\n      dup4\n      add\n      dup6\n      swap1\n      mstore\n      dup4\n      mload\n      dup1\n      dup5\n      sub\n      swap1\n      swap2\n      add\n      dup2\n      mstore\n      0x84\n      swap1\n      swap3\n      add\n      dup4\n      mstore\n      0x20\n      dup3\n      add\n      dup1\n      mload\n      0xffffffffffffffffffffffffffffffffffffffffffffffffffffffff\n      and\n        /* \"ExodusTreasury/SafeERC20.sol\":609:637  IERC20.transferFrom.selector */\n      0x23b872dd00000000000000000000000000000000000000000000000000000000\n        /* \"ExodusTreasury/SafeERC20.sol\":586:656  abi.encodeWithSelector(IERC20.transferFrom.selector, from, to, amount) */\n      or\n      dup2\n      mstore\n        /* \"ExodusTreasury/SafeERC20.sol\":553:666  address(token).call(... */\n      swap3\n      mload\n      dup3\n      mload\n        /* \"ExodusTreasury/SafeERC20.sol\":518:530  bool success */\n      0x00\n      swap5\n        /* \"ExodusTreasury/SafeERC20.sol\":532:549  bytes memory data */\n      0x60\n      swap5\n        /* \"ExodusTreasury/SafeERC20.sol\":553:572  address(token).call */\n      swap4\n      dup11\n      and\n      swap4\n        /* \"ExodusTreasury/SafeERC20.sol\":586:656  abi.encodeWithSelector(IERC20.transferFrom.selector, from, to, amount) */\n      swap3\n        /* \"ExodusTreasury/SafeERC20.sol\":553:666  address(token).call(... */\n      swap2\n      dup3\n      swap2\n        /* \"ExodusTreasury/SafeERC20.sol\":586:656  abi.encodeWithSelector(IERC20.transferFrom.selector, from, to, amount) */\n      swap1\n        /* \"ExodusTreasury/SafeERC20.sol\":553:666  address(token).call(... */\n      dup1\n      dup4\n        /* \"ExodusTreasury/SafeERC20.sol\":586:656  abi.encodeWithSelector(IERC20.transferFrom.selector, from, to, amount) */\n      dup4\n        /* \"ExodusTreasury/SafeERC20.sol\":553:666  address(token).call(... */\n    tag_623:\n      0x20\n      dup4\n      lt\n      tag_625\n      jumpi\n      dup1\n      mload\n      dup3\n      mstore\n      not(0x1f)\n      swap1\n      swap3\n      add\n      swap2\n      0x20\n      swap2\n      dup3\n      add\n      swap2\n      add\n      jump(tag_623)\n    tag_625:\n      0x01\n      dup4\n      0x20\n      sub\n      0x0100\n      exp\n      sub\n      dup1\n      not\n      dup3\n      mload\n      and\n      dup2\n      dup5\n      mload\n      and\n      dup1\n      dup3\n      or\n      dup6\n      mstore\n      pop\n      pop\n      pop\n      pop\n      pop\n      pop\n      swap1\n      pop\n      add\n      swap2\n      pop\n      pop\n      0x00\n      mload(0x40)\n      dup1\n      dup4\n      sub\n      dup2\n      0x00\n      dup7\n      gas\n      call\n      swap2\n      pop\n      pop\n      returndatasize\n      dup1\n      0x00\n      dup2\n      eq\n      tag_628\n      jumpi\n      mload(0x40)\n      swap2\n      pop\n      and(add(returndatasize, 0x3f), not(0x1f))\n      dup3\n      add\n      0x40\n      mstore\n      returndatasize\n      dup3\n      mstore\n      returndatasize\n      0x00\n      0x20\n      dup5\n      add\n      returndatacopy\n      jump(tag_627)\n    tag_628:\n      0x60\n      swap2\n      pop\n    tag_627:\n      pop\n        /* \"ExodusTreasury/SafeERC20.sol\":517:666  (bool success, bytes memory data) = address(token).call(... */\n      swap2\n      pop\n      swap2\n      pop\n        /* \"ExodusTreasury/SafeERC20.sol\":685:692  success */\n      dup2\n        /* \"ExodusTreasury/SafeERC20.sol\":685:742  success && (data.length == 0 || abi.decode(data, (bool))) */\n      dup1\n      iszero\n      tag_630\n      jumpi\n      pop\n        /* \"ExodusTreasury/SafeERC20.sol\":697:708  data.length */\n      dup1\n      mload\n        /* \"ExodusTreasury/SafeERC20.sol\":697:713  data.length == 0 */\n      iszero\n      dup1\n        /* \"ExodusTreasury/SafeERC20.sol\":697:741  data.length == 0 || abi.decode(data, (bool)) */\n      tag_630\n      jumpi\n      pop\n        /* \"ExodusTreasury/SafeERC20.sol\":728:732  data */\n      dup1\n        /* \"ExodusTreasury/SafeERC20.sol\":717:741  abi.decode(data, (bool)) */\n      dup1\n      0x20\n      add\n      swap1\n      mload\n      0x20\n      dup2\n      lt\n      iszero\n      tag_631\n      jumpi\n      0x00\n      dup1\n      revert\n    tag_631:\n      pop\n      mload\n        /* \"ExodusTreasury/SafeERC20.sol\":697:741  data.length == 0 || abi.decode(data, (bool)) */\n    tag_630:\n        /* \"ExodusTreasury/SafeERC20.sol\":677:767  require(success && (data.length == 0 || abi.decode(data, (bool))), \"TRANSFER_FROM_FAILED\") */\n      tag_632\n      jumpi\n      0x40\n      dup1\n      mload\n      shl(0xe5, 0x461bcd)\n      dup2\n      mstore\n      0x20\n      0x04\n      dup3\n      add\n      mstore\n      0x14\n      0x24\n      dup3\n      add\n      mstore\n      0x5452414e534645525f46524f4d5f4641494c4544000000000000000000000000\n      0x44\n      dup3\n      add\n      mstore\n      swap1\n      mload\n      swap1\n      dup2\n      swap1\n      sub\n      0x64\n      add\n      swap1\n      revert\n    tag_632:\n        /* \"ExodusTreasury/SafeERC20.sol\":378:774  function safeTransferFrom(... */\n      pop\n      pop\n      pop\n      pop\n      pop\n      pop\n      jump\t// out\n        /* \"ExodusTreasury/SafeMath.sol\":947:1077  function div(uint256 a, uint256 b) internal pure returns (uint256) {... */\n    tag_547:\n        /* \"ExodusTreasury/SafeMath.sol\":1005:1012  uint256 */\n      0x00\n        /* \"ExodusTreasury/SafeMath.sol\":1031:1070  div(a, b, \"SafeMath: division by zero\") */\n      tag_603\n        /* \"ExodusTreasury/SafeMath.sol\":1035:1036  a */\n      dup4\n        /* \"ExodusTreasury/SafeMath.sol\":1038:1039  b */\n      dup4\n        /* \"ExodusTreasury/SafeMath.sol\":1031:1070  div(a, b, \"SafeMath: division by zero\") */\n      mload(0x40)\n      dup1\n      0x40\n      add\n      0x40\n      mstore\n      dup1\n      0x1a\n      dup2\n      mstore\n      0x20\n      add\n      0x536166654d6174683a206469766973696f6e206279207a65726f000000000000\n      dup2\n      mstore\n      pop\n        /* \"ExodusTreasury/SafeMath.sol\":1031:1034  div */\n      tag_635\n        /* \"ExodusTreasury/SafeMath.sol\":1031:1070  div(a, b, \"SafeMath: division by zero\") */\n      jump\t// in\n        /* \"ExodusTreasury/SafeMath.sol\":477:694  function sub(... */\n    tag_604:\n        /* \"ExodusTreasury/SafeMath.sol\":593:600  uint256 */\n      0x00\n        /* \"ExodusTreasury/SafeMath.sol\":628:640  errorMessage */\n      dup2\n        /* \"ExodusTreasury/SafeMath.sol\":620:626  b <= a */\n      dup5\n      dup5\n      gt\n      iszero\n        /* \"ExodusTreasury/SafeMath.sol\":612:641  require(b <= a, errorMessage) */\n      tag_637\n      jumpi\n      mload(0x40)\n      shl(0xe5, 0x461bcd)\n      dup2\n      mstore\n      0x04\n      add\n      dup1\n      dup1\n      0x20\n      add\n      dup3\n      dup2\n      sub\n      dup3\n      mstore\n      dup4\n      dup2\n      dup2\n      mload\n      dup2\n      mstore\n      0x20\n      add\n      swap2\n      pop\n      dup1\n      mload\n      swap1\n      0x20\n      add\n      swap1\n      dup1\n      dup4\n      dup4\n      0x00\n    tag_638:\n      dup4\n      dup2\n      lt\n      iszero\n      tag_640\n      jumpi\n      dup2\n      dup2\n      add\n      mload\n      dup4\n      dup3\n      add\n      mstore\n      0x20\n      add\n      jump(tag_638)\n    tag_640:\n      pop\n      pop\n      pop\n      pop\n      swap1\n      pop\n      swap1\n      dup2\n      add\n      swap1\n      0x1f\n      and\n      dup1\n      iszero\n      tag_641\n      jumpi\n      dup1\n      dup3\n      sub\n      dup1\n      mload\n      0x01\n      dup4\n      0x20\n      sub\n      0x0100\n      exp\n      sub\n      not\n      and\n      dup2\n      mstore\n      0x20\n      add\n      swap2\n      pop\n    tag_641:\n      pop\n      swap3\n      pop\n      pop\n      pop\n      mload(0x40)\n      dup1\n      swap2\n      sub\n      swap1\n      revert\n    tag_637:\n      pop\n      pop\n      pop\n        /* \"ExodusTreasury/SafeMath.sol\":663:668  a - b */\n      swap1\n      sub\n      swap1\n        /* \"ExodusTreasury/SafeMath.sol\":477:694  function sub(... */\n      jump\t// out\n        /* \"ExodusTreasury/SafeMath.sol\":1083:1384  function div(... */\n    tag_635:\n        /* \"ExodusTreasury/SafeMath.sol\":1199:1206  uint256 */\n      0x00\n        /* \"ExodusTreasury/SafeMath.sol\":1233:1245  errorMessage */\n      dup2\n        /* \"ExodusTreasury/SafeMath.sol\":1226:1231  b > 0 */\n      dup4\n        /* \"ExodusTreasury/SafeMath.sol\":1218:1246  require(b > 0, errorMessage) */\n      tag_643\n      jumpi\n      mload(0x40)\n      shl(0xe5, 0x461bcd)\n      dup2\n      mstore\n      0x20\n      0x04\n      dup3\n      add\n      dup2\n      dup2\n      mstore\n      dup4\n      mload\n      0x24\n      dup5\n      add\n      mstore\n      dup4\n      mload\n      swap1\n      swap3\n      dup4\n      swap3\n      0x44\n      swap1\n      swap2\n      add\n      swap2\n      swap1\n      dup6\n      add\n      swap1\n      dup1\n      dup4\n      dup4\n      0x00\n      dup4\n      iszero\n      tag_640\n      jumpi\n      dup2\n      dup2\n      add\n      mload\n      dup4\n      dup3\n      add\n      mstore\n      0x20\n      add\n      jump(tag_638)\n    tag_643:\n      pop\n        /* \"ExodusTreasury/SafeMath.sol\":1256:1265  uint256 c */\n      0x00\n        /* \"ExodusTreasury/SafeMath.sol\":1272:1273  b */\n      dup4\n        /* \"ExodusTreasury/SafeMath.sol\":1268:1269  a */\n      dup6\n        /* \"ExodusTreasury/SafeMath.sol\":1268:1273  a / b */\n      dup2\n      tag_648\n      jumpi\n      invalid\n    tag_648:\n      div\n        /* \"ExodusTreasury/SafeMath.sol\":1256:1273  uint256 c = a / b */\n      swap1\n      pop\n        /* \"ExodusTreasury/SafeMath.sol\":1308:1309  b */\n      dup4\n        /* \"ExodusTreasury/SafeMath.sol\":1304:1305  a */\n      dup6\n        /* \"ExodusTreasury/SafeMath.sol\":1304:1309  a % b */\n      dup2\n      tag_649\n      jumpi\n      invalid\n    tag_649:\n      mod\n        /* \"ExodusTreasury/SafeMath.sol\":1299:1300  c */\n      dup2\n        /* \"ExodusTreasury/SafeMath.sol\":1295:1296  b */\n      dup6\n        /* \"ExodusTreasury/SafeMath.sol\":1295:1300  b * c */\n      mul\n        /* \"ExodusTreasury/SafeMath.sol\":1295:1310  b * c + (a % b) */\n      add\n        /* \"ExodusTreasury/SafeMath.sol\":1290:1291  a */\n      dup6\n        /* \"ExodusTreasury/SafeMath.sol\":1290:1310  a == b * c + (a % b) */\n      eq\n        /* \"ExodusTreasury/SafeMath.sol\":1283:1311  assert(a == b * c + (a % b)) */\n      tag_650\n      jumpi\n      invalid\n    tag_650:\n        /* \"ExodusTreasury/SafeMath.sol\":1376:1377  c */\n      swap5\n        /* \"ExodusTreasury/SafeMath.sol\":1083:1384  function div(... */\n      swap4\n      pop\n      pop\n      pop\n      pop\n      jump\t// out\n    tag_558:\n      0x40\n      dup1\n      mload\n      0xc0\n      dup2\n      add\n      swap1\n      swap2\n      mstore\n      dup1\n      0x00\n      dup2\n      mstore\n      0x00\n      0x20\n      dup3\n      add\n      dup2\n      swap1\n      mstore\n      0x40\n      dup3\n      add\n      dup2\n      swap1\n      mstore\n      0x60\n      dup3\n      add\n      dup2\n      swap1\n      mstore\n      0x80\n      dup3\n      add\n      dup2\n      swap1\n      mstore\n      0xa0\n      swap1\n      swap2\n      add\n      mstore\n      swap1\n      jump\t// out\n    stop\n    data_9113bb53c2876a3805b2c9242029423fc540a728243ce887ab24c82cf119fba3 536166654d6174683a206d756c7469706c69636174696f6e206f766572666c6f77\n\n    auxdata: 0xa26469706673582212209cdb30ddd8e62302c010bdd6b4b10baed784e39f65f50816dd3db4a651ba9b3864736f6c63430007050033\n}\n",
				"bytecode": {
					"linkReferences": {},
					"object": "610100604052600c60c08190526b15539055551213d49256915160a21b60e090815262000030916000919062000255565b506040805180820190915260168082527f54726561737572793a206e6f742061636365707465640000000000000000000060209092019182526200007791600d9162000255565b506040805180820190915260168082527f54726561737572793a206e6f7420617070726f766564000000000000000000006020909201918252620000be91600e9162000255565b506040805180820190915260178082527f54726561737572793a20696e76616c696420746f6b656e00000000000000000060209092019182526200010591600f9162000255565b5060408051808201909152601f8082527f54726561737572793a20696e73756666696369656e742072657365727665730060209092019182526200014c9160109162000255565b503480156200015a57600080fd5b506040516200425138038062004251833981810160405260608110156200018057600080fd5b5080516020820151604092830151600180546001600160a01b0319166001600160a01b038316908117909155935192939192909182917f2f658b440c35314f52658ea8a740e05b284cdc84dc9ae01e891f21b8933e7cad90600090a2506001600160a01b0383166200022d576040805162461bcd60e51b81526020600482015260116024820152705a65726f20616464726573733a2045584f60781b604482015290519081900360640190fd5b5060609190911b6001600160601b031916608052600b805461ffff1916905560a05262000301565b828054600181600116156101000203166002900490600052602060002090601f0160209004810192826200028d5760008555620002d8565b82601f10620002a857805160ff1916838001178555620002d8565b82800160010185558215620002d8579182015b82811115620002d8578251825591602001919060010190620002bb565b50620002e6929150620002ea565b5090565b5b80821115620002e65760008155600101620002eb565b60805160601c60a051613ee36200036e6000398061167652806116ce528061249f5280612bd35250806108835280610c825280610e2b5280610f345280610f89528061138c52806114045280611d90528061263552806128f75280612ad9528061323c5250613ee36000f3fe608060405234801561001057600080fd5b506004361061025b5760003560e01c80637d921af011610145578063b39df88e116100bd578063d796ffb81161008c578063f182178311610071578063f1821783146106ad578063fc7b9c18146106d9578063fe0d94c1146106e15761025b565b8063d796ffb81461064a578063e4e33ef8146106765761025b565b8063b39df88e14610600578063bc157ac114610608578063bf7e214f1461063a578063d07f390f146106425761025b565b806393988b5311610114578063a44b8287116100f9578063a44b8287146105ca578063b320f6a9146105f0578063b383daf2146105f85761025b565b806393988b53146105545780639edd8d431461059e5761025b565b80637d921af0146105345780638129fc1c1461053c578063860f5048146105445780638f840ddd1461054c5761025b565b80631d6d5f05116101d8578063503edcf0116101a75780635619004b1161018c5780635619004b146104cb57806371a45c95146104f15780637a9e5e4b1461050e5761025b565b8063503edcf014610425578063529918311461049c5761025b565b80631d6d5f051461038b5780632b7ce500146103c2578063330dd345146103ca57806340c10f19146103f95761025b565b80630c3513a81161022f57806312422d231161021457806312422d231461031d578063158ef93e146103495780631af4da70146103655761025b565b80630c3513a8146102f85780630f70431f146103005761025b565b8062f714ce1461026057806306d9cea81461028e5780630b0eee30146102b25780630b31693f146102de575b600080fd5b61028c6004803603604081101561027657600080fd5b50803590602001356001600160a01b03166106fe565b005b61029661097d565b604080516001600160a01b039092168252519081900360200190f35b61028c600480360360408110156102c857600080fd5b506001600160a01b03813516906020013561098c565b6102e6610c6f565b60408051918252519081900360200190f35b6102e6610c75565b61028c6004803603602081101561031657600080fd5b5035610d19565b61028c6004803603604081101561033357600080fd5b50803590602001356001600160a01b0316610f85565b6103516114ea565b604080519115158252519081900360200190f35b6102966004803603602081101561037b57600080fd5b50356001600160a01b03166114f8565b61028c600480360360608110156103a157600080fd5b5060ff813516906001600160a01b0360208201358116916040013516611513565b61028c611865565b610351600480360360408110156103e057600080fd5b50803560ff1690602001356001600160a01b0316611c63565b61028c6004803603604081101561040f57600080fd5b506001600160a01b038135169060200135611c83565b6104426004803603602081101561043b57600080fd5b5035611e61565b6040518087600a81111561045257fe5b8152602001866001600160a01b03168152602001856001600160a01b0316815260200184815260200183151581526020018215158152602001965050505050505060405180910390f35b61028c600480360360408110156104b257600080fd5b50803560ff1690602001356001600160a01b0316611eb8565b6102e6600480360360208110156104e157600080fd5b50356001600160a01b03166120c0565b61028c6004803603602081101561050757600080fd5b50356120d2565b61028c6004803603602081101561052457600080fd5b50356001600160a01b03166121f2565b61028c612328565b61028c6124cb565b6102e661262e565b6102e66126be565b6105836004803603604081101561056a57600080fd5b5080356001600160a01b0316906020013560ff166126c4565b60408051921515835260208301919091528051918290030190f35b61028c600480360360408110156105b457600080fd5b506001600160a01b0381351690602001356127ac565b610296600480360360408110156105e057600080fd5b5060ff81351690602001356128b4565b6103516128ec565b6102966128f5565b6102e6612919565b6102e66004803603606081101561061e57600080fd5b508035906001600160a01b03602082013516906040013561291f565b610296612bc2565b6102e6612bd1565b61028c6004803603604081101561066057600080fd5b50803590602001356001600160a01b0316612bf5565b61028c6004803603606081101561068c57600080fd5b5060ff813516906001600160a01b0360208201358116916040013516612e32565b6102e6600480360360408110156106c357600080fd5b506001600160a01b038135169060200135613192565b6102e66133b4565b61028c600480360360208110156106f757600080fd5b50356133ba565b6001600160a01b03811660009081527f91da3fd0782e51c6b3986e9e672fd566868e71f3dbc2d6c2cd6fbb3e361af2a76020526040902054600d9060ff166107d95760405162461bcd60e51b81526020600482019081528254600260001961010060018416150201909116046024830181905290918291604490910190849080156107ca5780601f1061079f576101008083540402835291602001916107ca565b820191906000526020600020905b8154815290600101906020018083116107ad57829003601f168201915b50509250505060405180910390fd5b503360009081527fabd6e7cb50984ff9c2f3e18a2660c3353dadf4e3291deeb275dae2cd1e44fe056020526040902054600e9060ff166108725760405162461bcd60e51b81526020600482019081528254600260001961010060018416150201909116046024830181905290918291604490910190849080156107ca5780601f1061079f576101008083540402835291602001916107ca565b50600061087f8284613192565b90507f00000000000000000000000000000000000000000000000000000000000000006001600160a01b03166379cc679033836040518363ffffffff1660e01b815260040180836001600160a01b0316815260200182815260200192505050600060405180830381600087803b1580156108f857600080fd5b505af115801561090c573d6000803e3d6000fd5b505060075461091e92509050826138cb565b6007556109356001600160a01b0383163385613914565b604080518481526020810183905281516001600160a01b038516927fdf273cb619d95419a9cd0ec88123a0538c85064229baa6363788f743fff90deb928290030190a2505050565b6002546001600160a01b031681565b6001600160a01b03821660009081527f04cde762ef08b6b6c5ded8e8c4c0b3f4e5c9ad7342c88fcc93681b4588b73f05602052604090205460ff1615610a6a573360009081527fc59312466997bb42aaaf719ece141047820e6b34531e1670dc1852a453648f0f6020526040902054600e9060ff16610a645760405162461bcd60e51b81526020600482019081528254600260001961010060018416150201909116046024830181905290918291604490910190849080156107ca5780601f1061079f576101008083540402835291602001916107ca565b50610b04565b3360009081527f2e174c10e159ea99b867ce3205125c24a42d128804e4070ed6fcc8cc98166aa06020526040902054600e9060ff16610b025760405162461bcd60e51b81526020600482019081528254600260001961010060018416150201909116046024830181905290918291604490910190849080156107ca5780601f1061079f576101008083540402835291602001916107ca565b505b6001600160a01b03821660009081527f91da3fd0782e51c6b3986e9e672fd566868e71f3dbc2d6c2cd6fbb3e361af2a7602052604090205460ff1680610b8157506001600160a01b03821660009081527f04cde762ef08b6b6c5ded8e8c4c0b3f4e5c9ad7342c88fcc93681b4588b73f05602052604090205460ff165b15610c18576000610b928383613192565b9050610b9c610c75565b811115601090610c055760405162461bcd60e51b81526020600482019081528254600260001961010060018416150201909116046024830181905290918291604490910190849080156107ca5780601f1061079f576101008083540402835291602001916107ca565b50600754610c1390826138cb565b600755505b610c2c6001600160a01b0383163383613914565b6040805182815290516001600160a01b038416917fb4460e34f1e91c4fa28eb7fac4cbd88cf530ef54a67e1978cd5edd9f77033ead919081900360200190a25050565b60095481565b6000610d14610d0b6008547f00000000000000000000000000000000000000000000000000000000000000006001600160a01b03166318160ddd6040518163ffffffff1660e01b815260040160206040518083038186803b158015610cd957600080fd5b505afa158015610ced573d6000803e3d6000fd5b505050506040513d6020811015610d0357600080fd5b5051906138cb565b600754906138cb565b905090565b3360009081527fbeb3bad75134cb432e5707980e3245c52c5998a1125ee30f2f0dbf3925b1e551602052604090205460ff1680610d8457503360009081527f5c6b02db8b672415ffad906d7ccee10bd53dbad7d0b29e2bc0e50c93d5f31093602052604090205460ff165b600e90610dea5760405162461bcd60e51b81526020600482019081528254600260001961010060018416150201909116046024830181905290918291604490910190849080156107ca5780601f1061079f576101008083540402835291602001916107ca565b50604080517f79cc67900000000000000000000000000000000000000000000000000000000081523360048201526024810183905290516001600160a01b037f000000000000000000000000000000000000000000000000000000000000000016916379cc679091604480830192600092919082900301818387803b158015610e7257600080fd5b505af1158015610e86573d6000803e3d6000fd5b50506002546040805163ae5c6cd360e01b81526004810186905233602482015260006044820181905291516001600160a01b03909316945063ae5c6cd393506064808201939182900301818387803b158015610ee157600080fd5b505af1158015610ef5573d6000803e3d6000fd5b5050600854610f0792509050826138cb565b600855600954610f1790826138cb565b600955604080518281526020810183905281516001600160a01b037f0000000000000000000000000000000000000000000000000000000000000000169233927fc6d98eecfc9c78ab62c89a82950079b54874749f1f6f24090f7acc758bc2f309929081900390910190a350565b60007f00000000000000000000000000000000000000000000000000000000000000006001600160a01b0316826001600160a01b03161415611062573360009081527f5c6b02db8b672415ffad906d7ccee10bd53dbad7d0b29e2bc0e50c93d5f310936020526040902054600e9060ff166110595760405162461bcd60e51b81526020600482019081528254600260001961010060018416150201909116046024830181905290918291604490910190849080156107ca5780601f1061079f576101008083540402835291602001916107ca565b508290506111aa565b3360009081527fbeb3bad75134cb432e5707980e3245c52c5998a1125ee30f2f0dbf3925b1e5516020526040902054600e9060ff166110fa5760405162461bcd60e51b81526020600482019081528254600260001961010060018416150201909116046024830181905290918291604490910190849080156107ca5780601f1061079f576101008083540402835291602001916107ca565b506001600160a01b03821660009081527f91da3fd0782e51c6b3986e9e672fd566868e71f3dbc2d6c2cd6fbb3e361af2a76020526040902054600d9060ff1661119c5760405162461bcd60e51b81526020600482019081528254600260001961010060018416150201909116046024830181905290918291604490910190849080156107ca5780601f1061079f576101008083540402835291602001916107ca565b506111a78284613192565b90505b600f816112105760405162461bcd60e51b81526020600482019081528254600260001961010060018416150201909116046024830181905290918291604490910190849080156107ca5780601f1061079f576101008083540402835291602001916107ca565b506002546040805163ae5c6cd360e01b8152600481018490523360248201526001604482015290516001600160a01b039092169163ae5c6cd39160648082019260009290919082900301818387803b15801561126b57600080fd5b505af115801561127f573d6000803e3d6000fd5b5050336000818152600660209081526040918290205460025483517fc4ef1c4c000000000000000000000000000000000000000000000000000000008152600481019590955292519095506001600160a01b03909216935063c4ef1c4c9260248082019391829003018186803b1580156112f857600080fd5b505afa15801561130c573d6000803e3d6000fd5b505050506040513d602081101561132257600080fd5b50511115611377576040805162461bcd60e51b815260206004820152601760248201527f54726561737572793a2065786365656473206c696d6974000000000000000000604482015290519081900360640190fd5b6008546113849082613aac565b6008819055507f00000000000000000000000000000000000000000000000000000000000000006001600160a01b0316826001600160a01b0316141561147957604080517f40c10f190000000000000000000000000000000000000000000000000000000081523360048201526024810183905290516001600160a01b037f000000000000000000000000000000000000000000000000000000000000000016916340c10f1991604480830192600092919082900301818387803b15801561144b57600080fd5b505af115801561145f573d6000803e3d6000fd5b50506009546114719250905082613aac565b60095561149d565b60075461148690826138cb565b60075561149d6001600160a01b0383163385613914565b604080518481526020810183905281516001600160a01b0385169233927f7e1a939bed137a819b5d2979822c67f877689f7a863d5e4cb57cdca97b2977d6929081900390910190a3505050565b600b54610100900460ff1681565b6005602052600090815260409020546001600160a01b031681565b600160009054906101000a90046001600160a01b03166001600160a01b0316630c340a246040518163ffffffff1660e01b815260040160206040518083038186803b15801561156157600080fd5b505afa158015611575573d6000803e3d6000fd5b505050506040513d602081101561158b57600080fd5b50516000906001600160a01b031633146115fe5760405162461bcd60e51b81526020600482019081528254600260001961010060018416150201909116046024830181905290918291604490910190849080156107ca5780601f1061079f576101008083540402835291602001916107ca565b506001600160a01b03821661161257600080fd5b600b5460ff16151560011461166e576040805162461bcd60e51b815260206004820181905260248201527f54696d656c6f636b2069732064697361626c65642c2075736520656e61626c65604482015290519081900360640190fd5b600061169a437f0000000000000000000000000000000000000000000000000000000000000000613aac565b9050600384600a8111156116aa57fe5b14806116c15750600684600a8111156116bf57fe5b145b156116fe576116fb6116f47f00000000000000000000000000000000000000000000000000000000000000006002613b06565b4390613aac565b90505b600a6040518060c0016040528086600a81111561171757fe5b81526001600160a01b0380871660208084019190915290861660408301526060820185905260006080830181905260a090920182905283546001818101865594835291208251600490920201805492939092839160ff199091169083600a81111561177e57fe5b0217905550602082015181547fffffffffffffffffffffff0000000000000000000000000000000000000000ff166101006001600160a01b03928316810291909117835560408401516001840180546001600160a01b03191691909316179091556060830151600283015560808301516003909201805460a09094015160ff199094169215159290921761ff0019169215150291909117905583600a81111561182357fe5b604080516001600160a01b038616815290517fc822ff41836a6dc998393c71843db8adcbbf01721f41b32389f6838ecb1ea9c89181900360200190a250505050565b600160009054906101000a90046001600160a01b03166001600160a01b0316630c340a246040518163ffffffff1660e01b815260040160206040518083038186803b1580156118b357600080fd5b505afa1580156118c7573d6000803e3d6000fd5b505050506040513d60208110156118dd57600080fd5b50516000906001600160a01b031633146119505760405162461bcd60e51b81526020600482019081528254600260001961010060018416150201909116046024830181905290918291604490910190849080156107ca5780601f1061079f576101008083540402835291602001916107ca565b5060026000908152600360209081527fc3a24b0501bd2c13a7e57f2db4369ec4c223447539fc0724a9d55ac4a06ebd4d80546040805182850281018501909152818152606093909291908301828280156119d357602002820191906000526020600020905b81546001600160a01b031681526001909101906020018083116119b5575b5050505050905060005b8151811015611b0c5760026000908152600460205282517f91da3fd0782e51c6b3986e9e672fd566868e71f3dbc2d6c2cd6fbb3e361af2a79190849084908110611a2357fe5b6020908102919091018101516001600160a01b031682528101919091526040016000205460ff1615611b0457611b01611afa838381518110611a6157fe5b6020026020010151848481518110611a7557fe5b60200260200101516001600160a01b03166370a08231306040518263ffffffff1660e01b815260040180826001600160a01b0316815260200191505060206040518083038186803b158015611ac957600080fd5b505afa158015611add573d6000803e3d6000fd5b505050506040513d6020811015611af357600080fd5b5051613192565b8490613aac565b92505b6001016119dd565b506005600052600360209081527f405aad32e1adbac89bb7f176e338b8fc6e994ca210c9bb7bdca249b4659422508054604080518285028101850190915281815260609390929190830182828015611b8d57602002820191906000526020600020905b81546001600160a01b03168152600190910190602001808311611b6f575b5050505050905060005b8151811015611c2d5760056000908152600460205282517f04cde762ef08b6b6c5ded8e8c4c0b3f4e5c9ad7342c88fcc93681b4588b73f059190849084908110611bdd57fe5b6020908102919091018101516001600160a01b031682528101919091526040016000205460ff1615611c2557611c22611c1b838381518110611a6157fe5b8590613aac565b93505b600101611b97565b50600783905560405183907fec691f09f6924b27932253f85caf99bacc30360cc0e50a1cc4d2acc24601446690600090a2505050565b600460209081526000928352604080842090915290825290205460ff1681565b3360009081527f2645749a946633740611cfc8178319f0958659d6922e4bf7e3a08b44789f53a46020526040902054600e9060ff16611d1b5760405162461bcd60e51b81526020600482019081528254600260001961010060018416150201909116046024830181905290918291604490910190849080156107ca5780601f1061079f576101008083540402835291602001916107ca565b50611d24610c75565b811115601090611d8d5760405162461bcd60e51b81526020600482019081528254600260001961010060018416150201909116046024830181905290918291604490910190849080156107ca5780601f1061079f576101008083540402835291602001916107ca565b507f00000000000000000000000000000000000000000000000000000000000000006001600160a01b03166340c10f1983836040518363ffffffff1660e01b815260040180836001600160a01b0316815260200182815260200192505050600060405180830381600087803b158015611e0557600080fd5b505af1158015611e19573d6000803e3d6000fd5b50506040805184815290516001600160a01b03861693503392507f9d228d69b5fdb8d273a2336f8fb8612d039631024ea9bf09c424a9503aa078f09181900360200190a35050565b600a8181548110611e7157600080fd5b6000918252602090912060049091020180546001820154600283015460039093015460ff80841695506001600160a01b036101009485900481169593169382821692041686565b600160009054906101000a90046001600160a01b03166001600160a01b0316630c340a246040518163ffffffff1660e01b815260040160206040518083038186803b158015611f0657600080fd5b505afa158015611f1a573d6000803e3d6000fd5b505050506040513d6020811015611f3057600080fd5b50516001600160a01b0316331480611fc95750600160009054906101000a90046001600160a01b03166001600160a01b031663452a93206040518163ffffffff1660e01b815260040160206040518083038186803b158015611f9157600080fd5b505afa158015611fa5573d6000803e3d6000fd5b505050506040513d6020811015611fbb57600080fd5b50516001600160a01b031633145b61201a576040805162461bcd60e51b815260206004820152601960248201527f4f6e6c7920676f7665726e6f72206f7220677561726469616e00000000000000604482015290519081900360640190fd5b60006004600084600a81111561202c57fe5b600a81111561203757fe5b8152602080820192909252604090810160009081206001600160a01b03861682529092529020805460ff191691151591909117905581600a81111561207857fe5b604080516001600160a01b03841681526000602082015281517f7531a7aefe3985500c4dec2dcb6049a708f14c6a8a9022b435b8841bdb8e1713929181900390910190a25050565b60066020526000908152604090205481565b600160009054906101000a90046001600160a01b03166001600160a01b0316630c340a246040518163ffffffff1660e01b815260040160206040518083038186803b15801561212057600080fd5b505afa158015612134573d6000803e3d6000fd5b505050506040513d602081101561214a57600080fd5b50516000906001600160a01b031633146121bd5760405162461bcd60e51b81526020600482019081528254600260001961010060018416150201909116046024830181905290918291604490910190849080156107ca5780601f1061079f576101008083540402835291602001916107ca565b506001600a82815481106121cd57fe5b60009182526020909120600490910201600301805460ff191691151591909117905550565b600160009054906101000a90046001600160a01b03166001600160a01b0316630c340a246040518163ffffffff1660e01b815260040160206040518083038186803b15801561224057600080fd5b505afa158015612254573d6000803e3d6000fd5b505050506040513d602081101561226a57600080fd5b50516000906001600160a01b031633146122dd5760405162461bcd60e51b81526020600482019081528254600260001961010060018416150201909116046024830181905290918291604490910190849080156107ca5780601f1061079f576101008083540402835291602001916107ca565b50600180546001600160a01b0319166001600160a01b0383169081179091556040517f2f658b440c35314f52658ea8a740e05b284cdc84dc9ae01e891f21b8933e7cad90600090a250565b600160009054906101000a90046001600160a01b03166001600160a01b0316630c340a246040518163ffffffff1660e01b815260040160206040518083038186803b15801561237657600080fd5b505afa15801561238a573d6000803e3d6000fd5b505050506040513d60208110156123a057600080fd5b50516000906001600160a01b031633146124135760405162461bcd60e51b81526020600482019081528254600260001961010060018416150201909116046024830181905290918291604490910190849080156107ca5780601f1061079f576101008083540402835291602001916107ca565b50600b5460ff161515600114612470576040805162461bcd60e51b815260206004820152601960248201527f74696d656c6f636b20616c72656164792064697361626c656400000000000000604482015290519081900360640190fd5b600c5415801590612483575043600c5411155b1561249757600b805460ff191690556124c9565b6124c56116f47f00000000000000000000000000000000000000000000000000000000000000006007613b06565b600c555b565b600160009054906101000a90046001600160a01b03166001600160a01b0316630c340a246040518163ffffffff1660e01b815260040160206040518083038186803b15801561251957600080fd5b505afa15801561252d573d6000803e3d6000fd5b505050506040513d602081101561254357600080fd5b50516000906001600160a01b031633146125b65760405162461bcd60e51b81526020600482019081528254600260001961010060018416150201909116046024830181905290918291604490910190849080156107ca5780601f1061079f576101008083540402835291602001916107ca565b50600b54610100900460ff1615612614576040805162461bcd60e51b815260206004820152601360248201527f416c726561647920696e697469616c697a656400000000000000000000000000604482015290519081900360640190fd5b600b805461ff001960ff1990911660011716610100179055565b60006009547f00000000000000000000000000000000000000000000000000000000000000006001600160a01b03166318160ddd6040518163ffffffff1660e01b815260040160206040518083038186803b15801561268c57600080fd5b505afa1580156126a0573d6000803e3d6000fd5b505050506040513d60208110156126b657600080fd5b505103905090565b60075481565b60008060606003600085600a8111156126d957fe5b600a8111156126e457fe5b815260200190815260200160002080548060200260200160405190810160405280929190818152602001828054801561274657602002820191906000526020600020905b81546001600160a01b03168152600190910190602001808311612728575b5050505050905060005b815181101561279b5781818151811061276557fe5b60200260200101516001600160a01b0316866001600160a01b03161415612793576001935091506127a59050565b600101612750565b5060008092509250505b9250929050565b600160009054906101000a90046001600160a01b03166001600160a01b0316630c340a246040518163ffffffff1660e01b815260040160206040518083038186803b1580156127fa57600080fd5b505afa15801561280e573d6000803e3d6000fd5b505050506040513d602081101561282457600080fd5b50516000906001600160a01b031633146128975760405162461bcd60e51b81526020600482019081528254600260001961010060018416150201909116046024830181905290918291604490910190849080156107ca5780601f1061079f576101008083540402835291602001916107ca565b506001600160a01b03909116600090815260066020526040902055565b600360205281600052604060002081815481106128d057600080fd5b6000918252602090912001546001600160a01b03169150829050565b600b5460ff1681565b7f000000000000000000000000000000000000000000000000000000000000000081565b600c5481565b6001600160a01b03821660009081527f91da3fd0782e51c6b3986e9e672fd566868e71f3dbc2d6c2cd6fbb3e361af2a7602052604081205460ff16156129fd5760046000805b600a81111561297057fe5b815260208082019290925260409081016000908120338252909252902054600e9060ff166129f75760405162461bcd60e51b81526020600482019081528254600260001961010060018416150201909116046024830181905290918291604490910190849080156107ca5780601f1061079f576101008083540402835291602001916107ca565b50612aa8565b6001600160a01b03831660009081527f04cde762ef08b6b6c5ded8e8c4c0b3f4e5c9ad7342c88fcc93681b4588b73f05602052604090205460ff1615612a47576004600081612965565b60405162461bcd60e51b8152602060048201908152600f8054600260001961010060018416150201909116046024840181905290928291604490910190849080156107ca5780601f1061079f576101008083540402835291602001916107ca565b612abd6001600160a01b038416333087613b5f565b6000612ac98486613192565b9050612ad581846138cb565b91507f00000000000000000000000000000000000000000000000000000000000000006001600160a01b03166340c10f1933846040518363ffffffff1660e01b815260040180836001600160a01b0316815260200182815260200192505050600060405180830381600087803b158015612b4e57600080fd5b505af1158015612b62573d6000803e3d6000fd5b5050600754612b749250905082613aac565b600755604080518681526020810183905281516001600160a01b038716927f90890809c654f11d6e72a28fa60149770a0d11ec6c92319d6ceb2bb0a4ea1a15928290030190a2509392505050565b6001546001600160a01b031681565b7f000000000000000000000000000000000000000000000000000000000000000081565b3360009081527fbeb3bad75134cb432e5707980e3245c52c5998a1125ee30f2f0dbf3925b1e5516020526040902054600e9060ff16612c8d5760405162461bcd60e51b81526020600482019081528254600260001961010060018416150201909116046024830181905290918291604490910190849080156107ca5780601f1061079f576101008083540402835291602001916107ca565b506001600160a01b03811660009081527f91da3fd0782e51c6b3986e9e672fd566868e71f3dbc2d6c2cd6fbb3e361af2a76020526040902054600d9060ff16612d2f5760405162461bcd60e51b81526020600482019081528254600260001961010060018416150201909116046024830181905290918291604490910190849080156107ca5780601f1061079f576101008083540402835291602001916107ca565b50612d456001600160a01b038216333085613b5f565b6000612d518284613192565b6002546040805163ae5c6cd360e01b81526004810184905233602482015260006044820181905291519394506001600160a01b039092169263ae5c6cd392606480820193929182900301818387803b158015612dac57600080fd5b505af1158015612dc0573d6000803e3d6000fd5b5050600854612dd292509050826138cb565b600855600754612de29082613aac565b600755604080518481526020810183905281516001600160a01b0385169233927fc6d98eecfc9c78ab62c89a82950079b54874749f1f6f24090f7acc758bc2f309929081900390910190a3505050565b600160009054906101000a90046001600160a01b03166001600160a01b0316630c340a246040518163ffffffff1660e01b815260040160206040518083038186803b158015612e8057600080fd5b505afa158015612e94573d6000803e3d6000fd5b505050506040513d6020811015612eaa57600080fd5b50516000906001600160a01b03163314612f1d5760405162461bcd60e51b81526020600482019081528254600260001961010060018416150201909116046024830181905290918291604490910190849080156107ca5780601f1061079f576101008083540402835291602001916107ca565b50600b5460ff1615612f76576040805162461bcd60e51b815260206004820152601160248201527f55736520717565756554696d656c6f636b000000000000000000000000000000604482015290519081900360640190fd5b600983600a811115612f8457fe5b1415612faa57600280546001600160a01b0319166001600160a01b03841617905561313d565b60016004600085600a811115612fbc57fe5b600a811115612fc757fe5b8152602080820192909252604090810160009081206001600160a01b03871682529092529020805460ff1916911515919091179055600583600a81111561300a57fe5b141561303f576001600160a01b03828116600090815260056020526040902080546001600160a01b0319169183169190911790555b600061304b83856126c4565b5090508061313b576003600085600a81111561306357fe5b600a81111561306e57fe5b8152602080820192909252604001600090812080546001810182559082529190200180546001600160a01b0319166001600160a01b038516179055600584600a8111156130b757fe5b14806130ce5750600284600a8111156130cc57fe5b145b1561313b576000806130e085876126c4565b915091508115613138576003600087600a8111156130fa57fe5b600a81111561310557fe5b8152602001908152602001600020818154811061311e57fe5b600091825260209091200180546001600160a01b03191690555b50505b505b82600a81111561314957fe5b604080516001600160a01b03851681526001602082015281517f7531a7aefe3985500c4dec2dcb6049a708f14c6a8a9022b435b8841bdb8e1713929181900390910190a2505050565b60006132c2836001600160a01b031663313ce5676040518163ffffffff1660e01b815260040160206040518083038186803b1580156131d057600080fd5b505afa1580156131e4573d6000803e3d6000fd5b505050506040513d60208110156131fa57600080fd5b5051604080517f313ce567000000000000000000000000000000000000000000000000000000008152905160ff909216600a0a916132bc916001600160a01b037f0000000000000000000000000000000000000000000000000000000000000000169163313ce56791600480820192602092909190829003018186803b15801561328357600080fd5b505afa158015613297573d6000803e3d6000fd5b505050506040513d60208110156132ad57600080fd5b5051859060ff16600a0a613b06565b90613d00565b6001600160a01b03841660009081527f04cde762ef08b6b6c5ded8e8c4c0b3f4e5c9ad7342c88fcc93681b4588b73f05602052604090205490915060ff16156133ae576001600160a01b038084166000818152600560209081526040918290205482517f4249719f00000000000000000000000000000000000000000000000000000000815260048101949094526024840187905291519190931692634249719f9260448082019391829003018186803b15801561337f57600080fd5b505afa158015613393573d6000803e3d6000fd5b505050506040513d60208110156133a957600080fd5b505190505b92915050565b60085481565b600b5460ff161515600114613416576040805162461bcd60e51b815260206004820181905260248201527f54696d656c6f636b2069732064697361626c65642c2075736520656e61626c65604482015290519081900360640190fd5b61341e613e55565b600a828154811061342b57fe5b600091825260209091206040805160c081019091526004909202018054829060ff16600a81111561345857fe5b600a81111561346357fe5b815281546001600160a01b03610100918290048116602084015260018401541660408301526002830154606083015260039092015460ff80821615156080808501919091529390910416151560a0909101528101519091501561350d576040805162461bcd60e51b815260206004820152601960248201527f416374696f6e20686173206265656e206e756c6c696669656400000000000000604482015290519081900360640190fd5b8060a0015115613564576040805162461bcd60e51b815260206004820181905260248201527f416374696f6e2068617320616c7265616479206265656e206578656375746564604482015290519081900360640190fd5b80606001514310156135bd576040805162461bcd60e51b815260206004820152601560248201527f54696d656c6f636b206e6f7420636f6d706c6574650000000000000000000000604482015290519081900360640190fd5b60098151600a8111156135cc57fe5b14156135fb576020810151600280546001600160a01b0319166001600160a01b03909216919091179055613833565b6001600460008360000151600a81111561361157fe5b600a81111561361c57fe5b815260208082019290925260409081016000908120858401516001600160a01b031682529092529020805460ff191691151591909117905560058151600a81111561366357fe5b14156136a4576040818101516020808401516001600160a01b039081166000908152600590925292902080546001600160a01b031916929091169190911790555b60006136b8826020015183600001516126c4565b5090508061383157600360008360000151600a8111156136d457fe5b600a8111156136df57fe5b81526020808201929092526040016000908120848301518154600181018355918352929091200180546001600160a01b0319166001600160a01b0390921691909117905560058251600a81111561373257fe5b14156137ac5760008061374a846020015160026126c4565b9150915081156137a557600260005260036020527fc3a24b0501bd2c13a7e57f2db4369ec4c223447539fc0724a9d55ac4a06ebd4d80548290811061378b57fe5b600091825260209091200180546001600160a01b03191690555b5050613831565b60028251600a8111156137bb57fe5b1415613831576000806137d3846020015160056126c4565b91509150811561382e57600560005260036020527f405aad32e1adbac89bb7f176e338b8fc6e994ca210c9bb7bdca249b46594225080548290811061381457fe5b600091825260209091200180546001600160a01b03191690555b50505b505b6001600a838154811061384257fe5b6000918252602090912060036004909202010180549115156101000261ff00199092169190911790558051600a81111561387857fe5b7f7531a7aefe3985500c4dec2dcb6049a708f14c6a8a9022b435b8841bdb8e17138260200151600160405180836001600160a01b0316815260200182151581526020019250505060405180910390a25050565b600061390d83836040518060400160405280601e81526020017f536166654d6174683a207375627472616374696f6e206f766572666c6f770000815250613d42565b9392505050565b604080516001600160a01b038481166024830152604480830185905283518084039091018152606490920183526020820180517bffffffffffffffffffffffffffffffffffffffffffffffffffffffff167fa9059cbb00000000000000000000000000000000000000000000000000000000178152925182516000946060949389169392918291908083835b602083106139bf5780518252601f1990920191602091820191016139a0565b6001836020036101000a0380198251168184511680821785525050505050509050019150506000604051808303816000865af19150503d8060008114613a21576040519150601f19603f3d011682016040523d82523d6000602084013e613a26565b606091505b5091509150818015613a54575080511580613a545750808060200190516020811015613a5157600080fd5b50515b613aa5576040805162461bcd60e51b815260206004820152600f60248201527f5452414e534645525f4641494c45440000000000000000000000000000000000604482015290519081900360640190fd5b5050505050565b60008282018381101561390d576040805162461bcd60e51b815260206004820152601b60248201527f536166654d6174683a206164646974696f6e206f766572666c6f770000000000604482015290519081900360640190fd5b600082613b15575060006133ae565b82820282848281613b2257fe5b041461390d5760405162461bcd60e51b8152600401808060200182810382526021815260200180613e8d6021913960400191505060405180910390fd5b604080516001600160a01b0385811660248301528481166044830152606480830185905283518084039091018152608490920183526020820180517bffffffffffffffffffffffffffffffffffffffffffffffffffffffff167f23b872dd0000000000000000000000000000000000000000000000000000000017815292518251600094606094938a169392918291908083835b60208310613c125780518252601f199092019160209182019101613bf3565b6001836020036101000a0380198251168184511680821785525050505050509050019150506000604051808303816000865af19150503d8060008114613c74576040519150601f19603f3d011682016040523d82523d6000602084013e613c79565b606091505b5091509150818015613ca7575080511580613ca75750808060200190516020811015613ca457600080fd5b50515b613cf8576040805162461bcd60e51b815260206004820152601460248201527f5452414e534645525f46524f4d5f4641494c4544000000000000000000000000604482015290519081900360640190fd5b505050505050565b600061390d83836040518060400160405280601a81526020017f536166654d6174683a206469766973696f6e206279207a65726f000000000000815250613dd9565b60008184841115613dd15760405162461bcd60e51b81526004018080602001828103825283818151815260200191508051906020019080838360005b83811015613d96578181015183820152602001613d7e565b50505050905090810190601f168015613dc35780820380516001836020036101000a031916815260200191505b509250505060405180910390fd5b505050900390565b60008183613e285760405162461bcd60e51b8152602060048201818152835160248401528351909283926044909101919085019080838360008315613d96578181015183820152602001613d7e565b506000838581613e3457fe5b049050838581613e4057fe5b06818502018514613e4d57fe5b949350505050565b6040805160c08101909152806000815260006020820181905260408201819052606082018190526080820181905260a0909101529056fe536166654d6174683a206d756c7469706c69636174696f6e206f766572666c6f77a26469706673582212209cdb30ddd8e62302c010bdd6b4b10baed784e39f65f50816dd3db4a651ba9b3864736f6c63430007050033",
					"opcodes": "PUSH2 0x100 PUSH1 0x40 MSTORE PUSH1 0xC PUSH1 0xC0 DUP2 SWAP1 MSTORE PUSH12 0x15539055551213D492569151 PUSH1 0xA2 SHL PUSH1 0xE0 SWAP1 DUP2 MSTORE PUSH3 0x30 SWAP2 PUSH1 0x0 SWAP2 SWAP1 PUSH3 0x255 JUMP JUMPDEST POP PUSH1 0x40 DUP1 MLOAD DUP1 DUP3 ADD SWAP1 SWAP2 MSTORE PUSH1 0x16 DUP1 DUP3 MSTORE PUSH32 0x54726561737572793A206E6F7420616363657074656400000000000000000000 PUSH1 0x20 SWAP1 SWAP3 ADD SWAP2 DUP3 MSTORE PUSH3 0x77 SWAP2 PUSH1 0xD SWAP2 PUSH3 0x255 JUMP JUMPDEST POP PUSH1 0x40 DUP1 MLOAD DUP1 DUP3 ADD SWAP1 SWAP2 MSTORE PUSH1 0x16 DUP1 DUP3 MSTORE PUSH32 0x54726561737572793A206E6F7420617070726F76656400000000000000000000 PUSH1 0x20 SWAP1 SWAP3 ADD SWAP2 DUP3 MSTORE PUSH3 0xBE SWAP2 PUSH1 0xE SWAP2 PUSH3 0x255 JUMP JUMPDEST POP PUSH1 0x40 DUP1 MLOAD DUP1 DUP3 ADD SWAP1 SWAP2 MSTORE PUSH1 0x17 DUP1 DUP3 MSTORE PUSH32 0x54726561737572793A20696E76616C696420746F6B656E000000000000000000 PUSH1 0x20 SWAP1 SWAP3 ADD SWAP2 DUP3 MSTORE PUSH3 0x105 SWAP2 PUSH1 0xF SWAP2 PUSH3 0x255 JUMP JUMPDEST POP PUSH1 0x40 DUP1 MLOAD DUP1 DUP3 ADD SWAP1 SWAP2 MSTORE PUSH1 0x1F DUP1 DUP3 MSTORE PUSH32 0x54726561737572793A20696E73756666696369656E7420726573657276657300 PUSH1 0x20 SWAP1 SWAP3 ADD SWAP2 DUP3 MSTORE PUSH3 0x14C SWAP2 PUSH1 0x10 SWAP2 PUSH3 0x255 JUMP JUMPDEST POP CALLVALUE DUP1 ISZERO PUSH3 0x15A JUMPI PUSH1 0x0 DUP1 REVERT JUMPDEST POP PUSH1 0x40 MLOAD PUSH3 0x4251 CODESIZE SUB DUP1 PUSH3 0x4251 DUP4 CODECOPY DUP2 DUP2 ADD PUSH1 0x40 MSTORE PUSH1 0x60 DUP2 LT ISZERO PUSH3 0x180 JUMPI PUSH1 0x0 DUP1 REVERT JUMPDEST POP DUP1 MLOAD PUSH1 0x20 DUP3 ADD MLOAD PUSH1 0x40 SWAP3 DUP4 ADD MLOAD PUSH1 0x1 DUP1 SLOAD PUSH1 0x1 PUSH1 0x1 PUSH1 0xA0 SHL SUB NOT AND PUSH1 0x1 PUSH1 0x1 PUSH1 0xA0 SHL SUB DUP4 AND SWAP1 DUP2 OR SWAP1 SWAP2 SSTORE SWAP4 MLOAD SWAP3 SWAP4 SWAP2 SWAP3 SWAP1 SWAP2 DUP3 SWAP2 PUSH32 0x2F658B440C35314F52658EA8A740E05B284CDC84DC9AE01E891F21B8933E7CAD SWAP1 PUSH1 0x0 SWAP1 LOG2 POP PUSH1 0x1 PUSH1 0x1 PUSH1 0xA0 SHL SUB DUP4 AND PUSH3 0x22D JUMPI PUSH1 0x40 DUP1 MLOAD PUSH3 0x461BCD PUSH1 0xE5 SHL DUP2 MSTORE PUSH1 0x20 PUSH1 0x4 DUP3 ADD MSTORE PUSH1 0x11 PUSH1 0x24 DUP3 ADD MSTORE PUSH17 0x5A65726F20616464726573733A2045584F PUSH1 0x78 SHL PUSH1 0x44 DUP3 ADD MSTORE SWAP1 MLOAD SWAP1 DUP2 SWAP1 SUB PUSH1 0x64 ADD SWAP1 REVERT JUMPDEST POP PUSH1 0x60 SWAP2 SWAP1 SWAP2 SHL PUSH1 0x1 PUSH1 0x1 PUSH1 0x60 SHL SUB NOT AND PUSH1 0x80 MSTORE PUSH1 0xB DUP1 SLOAD PUSH2 0xFFFF NOT AND SWAP1 SSTORE PUSH1 0xA0 MSTORE PUSH3 0x301 JUMP JUMPDEST DUP3 DUP1 SLOAD PUSH1 0x1 DUP2 PUSH1 0x1 AND ISZERO PUSH2 0x100 MUL SUB AND PUSH1 0x2 SWAP1 DIV SWAP1 PUSH1 0x0 MSTORE PUSH1 0x20 PUSH1 0x0 KECCAK256 SWAP1 PUSH1 0x1F ADD PUSH1 0x20 SWAP1 DIV DUP2 ADD SWAP3 DUP3 PUSH3 0x28D JUMPI PUSH1 0x0 DUP6 SSTORE PUSH3 0x2D8 JUMP JUMPDEST DUP3 PUSH1 0x1F LT PUSH3 0x2A8 JUMPI DUP1 MLOAD PUSH1 0xFF NOT AND DUP4 DUP1 ADD OR DUP6 SSTORE PUSH3 0x2D8 JUMP JUMPDEST DUP3 DUP1 ADD PUSH1 0x1 ADD DUP6 SSTORE DUP3 ISZERO PUSH3 0x2D8 JUMPI SWAP2 DUP3 ADD JUMPDEST DUP3 DUP2 GT ISZERO PUSH3 0x2D8 JUMPI DUP3 MLOAD DUP3 SSTORE SWAP2 PUSH1 0x20 ADD SWAP2 SWAP1 PUSH1 0x1 ADD SWAP1 PUSH3 0x2BB JUMP JUMPDEST POP PUSH3 0x2E6 SWAP3 SWAP2 POP PUSH3 0x2EA JUMP JUMPDEST POP SWAP1 JUMP JUMPDEST JUMPDEST DUP1 DUP3 GT ISZERO PUSH3 0x2E6 JUMPI PUSH1 0x0 DUP2 SSTORE PUSH1 0x1 ADD PUSH3 0x2EB JUMP JUMPDEST PUSH1 0x80 MLOAD PUSH1 0x60 SHR PUSH1 0xA0 MLOAD PUSH2 0x3EE3 PUSH3 0x36E PUSH1 0x0 CODECOPY DUP1 PUSH2 0x1676 MSTORE DUP1 PUSH2 0x16CE MSTORE DUP1 PUSH2 0x249F MSTORE DUP1 PUSH2 0x2BD3 MSTORE POP DUP1 PUSH2 0x883 MSTORE DUP1 PUSH2 0xC82 MSTORE DUP1 PUSH2 0xE2B MSTORE DUP1 PUSH2 0xF34 MSTORE DUP1 PUSH2 0xF89 MSTORE DUP1 PUSH2 0x138C MSTORE DUP1 PUSH2 0x1404 MSTORE DUP1 PUSH2 0x1D90 MSTORE DUP1 PUSH2 0x2635 MSTORE DUP1 PUSH2 0x28F7 MSTORE DUP1 PUSH2 0x2AD9 MSTORE DUP1 PUSH2 0x323C MSTORE POP PUSH2 0x3EE3 PUSH1 0x0 RETURN INVALID PUSH1 0x80 PUSH1 0x40 MSTORE CALLVALUE DUP1 ISZERO PUSH2 0x10 JUMPI PUSH1 0x0 DUP1 REVERT JUMPDEST POP PUSH1 0x4 CALLDATASIZE LT PUSH2 0x25B JUMPI PUSH1 0x0 CALLDATALOAD PUSH1 0xE0 SHR DUP1 PUSH4 0x7D921AF0 GT PUSH2 0x145 JUMPI DUP1 PUSH4 0xB39DF88E GT PUSH2 0xBD JUMPI DUP1 PUSH4 0xD796FFB8 GT PUSH2 0x8C JUMPI DUP1 PUSH4 0xF1821783 GT PUSH2 0x71 JUMPI DUP1 PUSH4 0xF1821783 EQ PUSH2 0x6AD JUMPI DUP1 PUSH4 0xFC7B9C18 EQ PUSH2 0x6D9 JUMPI DUP1 PUSH4 0xFE0D94C1 EQ PUSH2 0x6E1 JUMPI PUSH2 0x25B JUMP JUMPDEST DUP1 PUSH4 0xD796FFB8 EQ PUSH2 0x64A JUMPI DUP1 PUSH4 0xE4E33EF8 EQ PUSH2 0x676 JUMPI PUSH2 0x25B JUMP JUMPDEST DUP1 PUSH4 0xB39DF88E EQ PUSH2 0x600 JUMPI DUP1 PUSH4 0xBC157AC1 EQ PUSH2 0x608 JUMPI DUP1 PUSH4 0xBF7E214F EQ PUSH2 0x63A JUMPI DUP1 PUSH4 0xD07F390F EQ PUSH2 0x642 JUMPI PUSH2 0x25B JUMP JUMPDEST DUP1 PUSH4 0x93988B53 GT PUSH2 0x114 JUMPI DUP1 PUSH4 0xA44B8287 GT PUSH2 0xF9 JUMPI DUP1 PUSH4 0xA44B8287 EQ PUSH2 0x5CA JUMPI DUP1 PUSH4 0xB320F6A9 EQ PUSH2 0x5F0 JUMPI DUP1 PUSH4 0xB383DAF2 EQ PUSH2 0x5F8 JUMPI PUSH2 0x25B JUMP JUMPDEST DUP1 PUSH4 0x93988B53 EQ PUSH2 0x554 JUMPI DUP1 PUSH4 0x9EDD8D43 EQ PUSH2 0x59E JUMPI PUSH2 0x25B JUMP JUMPDEST DUP1 PUSH4 0x7D921AF0 EQ PUSH2 0x534 JUMPI DUP1 PUSH4 0x8129FC1C EQ PUSH2 0x53C JUMPI DUP1 PUSH4 0x860F5048 EQ PUSH2 0x544 JUMPI DUP1 PUSH4 0x8F840DDD EQ PUSH2 0x54C JUMPI PUSH2 0x25B JUMP JUMPDEST DUP1 PUSH4 0x1D6D5F05 GT PUSH2 0x1D8 JUMPI DUP1 PUSH4 0x503EDCF0 GT PUSH2 0x1A7 JUMPI DUP1 PUSH4 0x5619004B GT PUSH2 0x18C JUMPI DUP1 PUSH4 0x5619004B EQ PUSH2 0x4CB JUMPI DUP1 PUSH4 0x71A45C95 EQ PUSH2 0x4F1 JUMPI DUP1 PUSH4 0x7A9E5E4B EQ PUSH2 0x50E JUMPI PUSH2 0x25B JUMP JUMPDEST DUP1 PUSH4 0x503EDCF0 EQ PUSH2 0x425 JUMPI DUP1 PUSH4 0x52991831 EQ PUSH2 0x49C JUMPI PUSH2 0x25B JUMP JUMPDEST DUP1 PUSH4 0x1D6D5F05 EQ PUSH2 0x38B JUMPI DUP1 PUSH4 0x2B7CE500 EQ PUSH2 0x3C2 JUMPI DUP1 PUSH4 0x330DD345 EQ PUSH2 0x3CA JUMPI DUP1 PUSH4 0x40C10F19 EQ PUSH2 0x3F9 JUMPI PUSH2 0x25B JUMP JUMPDEST DUP1 PUSH4 0xC3513A8 GT PUSH2 0x22F JUMPI DUP1 PUSH4 0x12422D23 GT PUSH2 0x214 JUMPI DUP1 PUSH4 0x12422D23 EQ PUSH2 0x31D JUMPI DUP1 PUSH4 0x158EF93E EQ PUSH2 0x349 JUMPI DUP1 PUSH4 0x1AF4DA70 EQ PUSH2 0x365 JUMPI PUSH2 0x25B JUMP JUMPDEST DUP1 PUSH4 0xC3513A8 EQ PUSH2 0x2F8 JUMPI DUP1 PUSH4 0xF70431F EQ PUSH2 0x300 JUMPI PUSH2 0x25B JUMP JUMPDEST DUP1 PUSH3 0xF714CE EQ PUSH2 0x260 JUMPI DUP1 PUSH4 0x6D9CEA8 EQ PUSH2 0x28E JUMPI DUP1 PUSH4 0xB0EEE30 EQ PUSH2 0x2B2 JUMPI DUP1 PUSH4 0xB31693F EQ PUSH2 0x2DE JUMPI JUMPDEST PUSH1 0x0 DUP1 REVERT JUMPDEST PUSH2 0x28C PUSH1 0x4 DUP1 CALLDATASIZE SUB PUSH1 0x40 DUP2 LT ISZERO PUSH2 0x276 JUMPI PUSH1 0x0 DUP1 REVERT JUMPDEST POP DUP1 CALLDATALOAD SWAP1 PUSH1 0x20 ADD CALLDATALOAD PUSH1 0x1 PUSH1 0x1 PUSH1 0xA0 SHL SUB AND PUSH2 0x6FE JUMP JUMPDEST STOP JUMPDEST PUSH2 0x296 PUSH2 0x97D JUMP JUMPDEST PUSH1 0x40 DUP1 MLOAD PUSH1 0x1 PUSH1 0x1 PUSH1 0xA0 SHL SUB SWAP1 SWAP3 AND DUP3 MSTORE MLOAD SWAP1 DUP2 SWAP1 SUB PUSH1 0x20 ADD SWAP1 RETURN JUMPDEST PUSH2 0x28C PUSH1 0x4 DUP1 CALLDATASIZE SUB PUSH1 0x40 DUP2 LT ISZERO PUSH2 0x2C8 JUMPI PUSH1 0x0 DUP1 REVERT JUMPDEST POP PUSH1 0x1 PUSH1 0x1 PUSH1 0xA0 SHL SUB DUP2 CALLDATALOAD AND SWAP1 PUSH1 0x20 ADD CALLDATALOAD PUSH2 0x98C JUMP JUMPDEST PUSH2 0x2E6 PUSH2 0xC6F JUMP JUMPDEST PUSH1 0x40 DUP1 MLOAD SWAP2 DUP3 MSTORE MLOAD SWAP1 DUP2 SWAP1 SUB PUSH1 0x20 ADD SWAP1 RETURN JUMPDEST PUSH2 0x2E6 PUSH2 0xC75 JUMP JUMPDEST PUSH2 0x28C PUSH1 0x4 DUP1 CALLDATASIZE SUB PUSH1 0x20 DUP2 LT ISZERO PUSH2 0x316 JUMPI PUSH1 0x0 DUP1 REVERT JUMPDEST POP CALLDATALOAD PUSH2 0xD19 JUMP JUMPDEST PUSH2 0x28C PUSH1 0x4 DUP1 CALLDATASIZE SUB PUSH1 0x40 DUP2 LT ISZERO PUSH2 0x333 JUMPI PUSH1 0x0 DUP1 REVERT JUMPDEST POP DUP1 CALLDATALOAD SWAP1 PUSH1 0x20 ADD CALLDATALOAD PUSH1 0x1 PUSH1 0x1 PUSH1 0xA0 SHL SUB AND PUSH2 0xF85 JUMP JUMPDEST PUSH2 0x351 PUSH2 0x14EA JUMP JUMPDEST PUSH1 0x40 DUP1 MLOAD SWAP2 ISZERO ISZERO DUP3 MSTORE MLOAD SWAP1 DUP2 SWAP1 SUB PUSH1 0x20 ADD SWAP1 RETURN JUMPDEST PUSH2 0x296 PUSH1 0x4 DUP1 CALLDATASIZE SUB PUSH1 0x20 DUP2 LT ISZERO PUSH2 0x37B JUMPI PUSH1 0x0 DUP1 REVERT JUMPDEST POP CALLDATALOAD PUSH1 0x1 PUSH1 0x1 PUSH1 0xA0 SHL SUB AND PUSH2 0x14F8 JUMP JUMPDEST PUSH2 0x28C PUSH1 0x4 DUP1 CALLDATASIZE SUB PUSH1 0x60 DUP2 LT ISZERO PUSH2 0x3A1 JUMPI PUSH1 0x0 DUP1 REVERT JUMPDEST POP PUSH1 0xFF DUP2 CALLDATALOAD AND SWAP1 PUSH1 0x1 PUSH1 0x1 PUSH1 0xA0 SHL SUB PUSH1 0x20 DUP3 ADD CALLDATALOAD DUP2 AND SWAP2 PUSH1 0x40 ADD CALLDATALOAD AND PUSH2 0x1513 JUMP JUMPDEST PUSH2 0x28C PUSH2 0x1865 JUMP JUMPDEST PUSH2 0x351 PUSH1 0x4 DUP1 CALLDATASIZE SUB PUSH1 0x40 DUP2 LT ISZERO PUSH2 0x3E0 JUMPI PUSH1 0x0 DUP1 REVERT JUMPDEST POP DUP1 CALLDATALOAD PUSH1 0xFF AND SWAP1 PUSH1 0x20 ADD CALLDATALOAD PUSH1 0x1 PUSH1 0x1 PUSH1 0xA0 SHL SUB AND PUSH2 0x1C63 JUMP JUMPDEST PUSH2 0x28C PUSH1 0x4 DUP1 CALLDATASIZE SUB PUSH1 0x40 DUP2 LT ISZERO PUSH2 0x40F JUMPI PUSH1 0x0 DUP1 REVERT JUMPDEST POP PUSH1 0x1 PUSH1 0x1 PUSH1 0xA0 SHL SUB DUP2 CALLDATALOAD AND SWAP1 PUSH1 0x20 ADD CALLDATALOAD PUSH2 0x1C83 JUMP JUMPDEST PUSH2 0x442 PUSH1 0x4 DUP1 CALLDATASIZE SUB PUSH1 0x20 DUP2 LT ISZERO PUSH2 0x43B JUMPI PUSH1 0x0 DUP1 REVERT JUMPDEST POP CALLDATALOAD PUSH2 0x1E61 JUMP JUMPDEST PUSH1 0x40 MLOAD DUP1 DUP8 PUSH1 0xA DUP2 GT ISZERO PUSH2 0x452 JUMPI INVALID JUMPDEST DUP2 MSTORE PUSH1 0x20 ADD DUP7 PUSH1 0x1 PUSH1 0x1 PUSH1 0xA0 SHL SUB AND DUP2 MSTORE PUSH1 0x20 ADD DUP6 PUSH1 0x1 PUSH1 0x1 PUSH1 0xA0 SHL SUB AND DUP2 MSTORE PUSH1 0x20 ADD DUP5 DUP2 MSTORE PUSH1 0x20 ADD DUP4 ISZERO ISZERO DUP2 MSTORE PUSH1 0x20 ADD DUP3 ISZERO ISZERO DUP2 MSTORE PUSH1 0x20 ADD SWAP7 POP POP POP POP POP POP POP PUSH1 0x40 MLOAD DUP1 SWAP2 SUB SWAP1 RETURN JUMPDEST PUSH2 0x28C PUSH1 0x4 DUP1 CALLDATASIZE SUB PUSH1 0x40 DUP2 LT ISZERO PUSH2 0x4B2 JUMPI PUSH1 0x0 DUP1 REVERT JUMPDEST POP DUP1 CALLDATALOAD PUSH1 0xFF AND SWAP1 PUSH1 0x20 ADD CALLDATALOAD PUSH1 0x1 PUSH1 0x1 PUSH1 0xA0 SHL SUB AND PUSH2 0x1EB8 JUMP JUMPDEST PUSH2 0x2E6 PUSH1 0x4 DUP1 CALLDATASIZE SUB PUSH1 0x20 DUP2 LT ISZERO PUSH2 0x4E1 JUMPI PUSH1 0x0 DUP1 REVERT JUMPDEST POP CALLDATALOAD PUSH1 0x1 PUSH1 0x1 PUSH1 0xA0 SHL SUB AND PUSH2 0x20C0 JUMP JUMPDEST PUSH2 0x28C PUSH1 0x4 DUP1 CALLDATASIZE SUB PUSH1 0x20 DUP2 LT ISZERO PUSH2 0x507 JUMPI PUSH1 0x0 DUP1 REVERT JUMPDEST POP CALLDATALOAD PUSH2 0x20D2 JUMP JUMPDEST PUSH2 0x28C PUSH1 0x4 DUP1 CALLDATASIZE SUB PUSH1 0x20 DUP2 LT ISZERO PUSH2 0x524 JUMPI PUSH1 0x0 DUP1 REVERT JUMPDEST POP CALLDATALOAD PUSH1 0x1 PUSH1 0x1 PUSH1 0xA0 SHL SUB AND PUSH2 0x21F2 JUMP JUMPDEST PUSH2 0x28C PUSH2 0x2328 JUMP JUMPDEST PUSH2 0x28C PUSH2 0x24CB JUMP JUMPDEST PUSH2 0x2E6 PUSH2 0x262E JUMP JUMPDEST PUSH2 0x2E6 PUSH2 0x26BE JUMP JUMPDEST PUSH2 0x583 PUSH1 0x4 DUP1 CALLDATASIZE SUB PUSH1 0x40 DUP2 LT ISZERO PUSH2 0x56A JUMPI PUSH1 0x0 DUP1 REVERT JUMPDEST POP DUP1 CALLDATALOAD PUSH1 0x1 PUSH1 0x1 PUSH1 0xA0 SHL SUB AND SWAP1 PUSH1 0x20 ADD CALLDATALOAD PUSH1 0xFF AND PUSH2 0x26C4 JUMP JUMPDEST PUSH1 0x40 DUP1 MLOAD SWAP3 ISZERO ISZERO DUP4 MSTORE PUSH1 0x20 DUP4 ADD SWAP2 SWAP1 SWAP2 MSTORE DUP1 MLOAD SWAP2 DUP3 SWAP1 SUB ADD SWAP1 RETURN JUMPDEST PUSH2 0x28C PUSH1 0x4 DUP1 CALLDATASIZE SUB PUSH1 0x40 DUP2 LT ISZERO PUSH2 0x5B4 JUMPI PUSH1 0x0 DUP1 REVERT JUMPDEST POP PUSH1 0x1 PUSH1 0x1 PUSH1 0xA0 SHL SUB DUP2 CALLDATALOAD AND SWAP1 PUSH1 0x20 ADD CALLDATALOAD PUSH2 0x27AC JUMP JUMPDEST PUSH2 0x296 PUSH1 0x4 DUP1 CALLDATASIZE SUB PUSH1 0x40 DUP2 LT ISZERO PUSH2 0x5E0 JUMPI PUSH1 0x0 DUP1 REVERT JUMPDEST POP PUSH1 0xFF DUP2 CALLDATALOAD AND SWAP1 PUSH1 0x20 ADD CALLDATALOAD PUSH2 0x28B4 JUMP JUMPDEST PUSH2 0x351 PUSH2 0x28EC JUMP JUMPDEST PUSH2 0x296 PUSH2 0x28F5 JUMP JUMPDEST PUSH2 0x2E6 PUSH2 0x2919 JUMP JUMPDEST PUSH2 0x2E6 PUSH1 0x4 DUP1 CALLDATASIZE SUB PUSH1 0x60 DUP2 LT ISZERO PUSH2 0x61E JUMPI PUSH1 0x0 DUP1 REVERT JUMPDEST POP DUP1 CALLDATALOAD SWAP1 PUSH1 0x1 PUSH1 0x1 PUSH1 0xA0 SHL SUB PUSH1 0x20 DUP3 ADD CALLDATALOAD AND SWAP1 PUSH1 0x40 ADD CALLDATALOAD PUSH2 0x291F JUMP JUMPDEST PUSH2 0x296 PUSH2 0x2BC2 JUMP JUMPDEST PUSH2 0x2E6 PUSH2 0x2BD1 JUMP JUMPDEST PUSH2 0x28C PUSH1 0x4 DUP1 CALLDATASIZE SUB PUSH1 0x40 DUP2 LT ISZERO PUSH2 0x660 JUMPI PUSH1 0x0 DUP1 REVERT JUMPDEST POP DUP1 CALLDATALOAD SWAP1 PUSH1 0x20 ADD CALLDATALOAD PUSH1 0x1 PUSH1 0x1 PUSH1 0xA0 SHL SUB AND PUSH2 0x2BF5 JUMP JUMPDEST PUSH2 0x28C PUSH1 0x4 DUP1 CALLDATASIZE SUB PUSH1 0x60 DUP2 LT ISZERO PUSH2 0x68C JUMPI PUSH1 0x0 DUP1 REVERT JUMPDEST POP PUSH1 0xFF DUP2 CALLDATALOAD AND SWAP1 PUSH1 0x1 PUSH1 0x1 PUSH1 0xA0 SHL SUB PUSH1 0x20 DUP3 ADD CALLDATALOAD DUP2 AND SWAP2 PUSH1 0x40 ADD CALLDATALOAD AND PUSH2 0x2E32 JUMP JUMPDEST PUSH2 0x2E6 PUSH1 0x4 DUP1 CALLDATASIZE SUB PUSH1 0x40 DUP2 LT ISZERO PUSH2 0x6C3 JUMPI PUSH1 0x0 DUP1 REVERT JUMPDEST POP PUSH1 0x1 PUSH1 0x1 PUSH1 0xA0 SHL SUB DUP2 CALLDATALOAD AND SWAP1 PUSH1 0x20 ADD CALLDATALOAD PUSH2 0x3192 JUMP JUMPDEST PUSH2 0x2E6 PUSH2 0x33B4 JUMP JUMPDEST PUSH2 0x28C PUSH1 0x4 DUP1 CALLDATASIZE SUB PUSH1 0x20 DUP2 LT ISZERO PUSH2 0x6F7 JUMPI PUSH1 0x0 DUP1 REVERT JUMPDEST POP CALLDATALOAD PUSH2 0x33BA JUMP JUMPDEST PUSH1 0x1 PUSH1 0x1 PUSH1 0xA0 SHL SUB DUP2 AND PUSH1 0x0 SWAP1 DUP2 MSTORE PUSH32 0x91DA3FD0782E51C6B3986E9E672FD566868E71F3DBC2D6C2CD6FBB3E361AF2A7 PUSH1 0x20 MSTORE PUSH1 0x40 SWAP1 KECCAK256 SLOAD PUSH1 0xD SWAP1 PUSH1 0xFF AND PUSH2 0x7D9 JUMPI PUSH1 0x40 MLOAD PUSH3 0x461BCD PUSH1 0xE5 SHL DUP2 MSTORE PUSH1 0x20 PUSH1 0x4 DUP3 ADD SWAP1 DUP2 MSTORE DUP3 SLOAD PUSH1 0x2 PUSH1 0x0 NOT PUSH2 0x100 PUSH1 0x1 DUP5 AND ISZERO MUL ADD SWAP1 SWAP2 AND DIV PUSH1 0x24 DUP4 ADD DUP2 SWAP1 MSTORE SWAP1 SWAP2 DUP3 SWAP2 PUSH1 0x44 SWAP1 SWAP2 ADD SWAP1 DUP5 SWAP1 DUP1 ISZERO PUSH2 0x7CA JUMPI DUP1 PUSH1 0x1F LT PUSH2 0x79F JUMPI PUSH2 0x100 DUP1 DUP4 SLOAD DIV MUL DUP4 MSTORE SWAP2 PUSH1 0x20 ADD SWAP2 PUSH2 0x7CA JUMP JUMPDEST DUP3 ADD SWAP2 SWAP1 PUSH1 0x0 MSTORE PUSH1 0x20 PUSH1 0x0 KECCAK256 SWAP1 JUMPDEST DUP2 SLOAD DUP2 MSTORE SWAP1 PUSH1 0x1 ADD SWAP1 PUSH1 0x20 ADD DUP1 DUP4 GT PUSH2 0x7AD JUMPI DUP3 SWAP1 SUB PUSH1 0x1F AND DUP3 ADD SWAP2 JUMPDEST POP POP SWAP3 POP POP POP PUSH1 0x40 MLOAD DUP1 SWAP2 SUB SWAP1 REVERT JUMPDEST POP CALLER PUSH1 0x0 SWAP1 DUP2 MSTORE PUSH32 0xABD6E7CB50984FF9C2F3E18A2660C3353DADF4E3291DEEB275DAE2CD1E44FE05 PUSH1 0x20 MSTORE PUSH1 0x40 SWAP1 KECCAK256 SLOAD PUSH1 0xE SWAP1 PUSH1 0xFF AND PUSH2 0x872 JUMPI PUSH1 0x40 MLOAD PUSH3 0x461BCD PUSH1 0xE5 SHL DUP2 MSTORE PUSH1 0x20 PUSH1 0x4 DUP3 ADD SWAP1 DUP2 MSTORE DUP3 SLOAD PUSH1 0x2 PUSH1 0x0 NOT PUSH2 0x100 PUSH1 0x1 DUP5 AND ISZERO MUL ADD SWAP1 SWAP2 AND DIV PUSH1 0x24 DUP4 ADD DUP2 SWAP1 MSTORE SWAP1 SWAP2 DUP3 SWAP2 PUSH1 0x44 SWAP1 SWAP2 ADD SWAP1 DUP5 SWAP1 DUP1 ISZERO PUSH2 0x7CA JUMPI DUP1 PUSH1 0x1F LT PUSH2 0x79F JUMPI PUSH2 0x100 DUP1 DUP4 SLOAD DIV MUL DUP4 MSTORE SWAP2 PUSH1 0x20 ADD SWAP2 PUSH2 0x7CA JUMP JUMPDEST POP PUSH1 0x0 PUSH2 0x87F DUP3 DUP5 PUSH2 0x3192 JUMP JUMPDEST SWAP1 POP PUSH32 0x0 PUSH1 0x1 PUSH1 0x1 PUSH1 0xA0 SHL SUB AND PUSH4 0x79CC6790 CALLER DUP4 PUSH1 0x40 MLOAD DUP4 PUSH4 0xFFFFFFFF AND PUSH1 0xE0 SHL DUP2 MSTORE PUSH1 0x4 ADD DUP1 DUP4 PUSH1 0x1 PUSH1 0x1 PUSH1 0xA0 SHL SUB AND DUP2 MSTORE PUSH1 0x20 ADD DUP3 DUP2 MSTORE PUSH1 0x20 ADD SWAP3 POP POP POP PUSH1 0x0 PUSH1 0x40 MLOAD DUP1 DUP4 SUB DUP2 PUSH1 0x0 DUP8 DUP1 EXTCODESIZE ISZERO DUP1 ISZERO PUSH2 0x8F8 JUMPI PUSH1 0x0 DUP1 REVERT JUMPDEST POP GAS CALL ISZERO DUP1 ISZERO PUSH2 0x90C JUMPI RETURNDATASIZE PUSH1 0x0 DUP1 RETURNDATACOPY RETURNDATASIZE PUSH1 0x0 REVERT JUMPDEST POP POP PUSH1 0x7 SLOAD PUSH2 0x91E SWAP3 POP SWAP1 POP DUP3 PUSH2 0x38CB JUMP JUMPDEST PUSH1 0x7 SSTORE PUSH2 0x935 PUSH1 0x1 PUSH1 0x1 PUSH1 0xA0 SHL SUB DUP4 AND CALLER DUP6 PUSH2 0x3914 JUMP JUMPDEST PUSH1 0x40 DUP1 MLOAD DUP5 DUP2 MSTORE PUSH1 0x20 DUP2 ADD DUP4 SWAP1 MSTORE DUP2 MLOAD PUSH1 0x1 PUSH1 0x1 PUSH1 0xA0 SHL SUB DUP6 AND SWAP3 PUSH32 0xDF273CB619D95419A9CD0EC88123A0538C85064229BAA6363788F743FFF90DEB SWAP3 DUP3 SWAP1 SUB ADD SWAP1 LOG2 POP POP POP JUMP JUMPDEST PUSH1 0x2 SLOAD PUSH1 0x1 PUSH1 0x1 PUSH1 0xA0 SHL SUB AND DUP2 JUMP JUMPDEST PUSH1 0x1 PUSH1 0x1 PUSH1 0xA0 SHL SUB DUP3 AND PUSH1 0x0 SWAP1 DUP2 MSTORE PUSH32 0x4CDE762EF08B6B6C5DED8E8C4C0B3F4E5C9AD7342C88FCC93681B4588B73F05 PUSH1 0x20 MSTORE PUSH1 0x40 SWAP1 KECCAK256 SLOAD PUSH1 0xFF AND ISZERO PUSH2 0xA6A JUMPI CALLER PUSH1 0x0 SWAP1 DUP2 MSTORE PUSH32 0xC59312466997BB42AAAF719ECE141047820E6B34531E1670DC1852A453648F0F PUSH1 0x20 MSTORE PUSH1 0x40 SWAP1 KECCAK256 SLOAD PUSH1 0xE SWAP1 PUSH1 0xFF AND PUSH2 0xA64 JUMPI PUSH1 0x40 MLOAD PUSH3 0x461BCD PUSH1 0xE5 SHL DUP2 MSTORE PUSH1 0x20 PUSH1 0x4 DUP3 ADD SWAP1 DUP2 MSTORE DUP3 SLOAD PUSH1 0x2 PUSH1 0x0 NOT PUSH2 0x100 PUSH1 0x1 DUP5 AND ISZERO MUL ADD SWAP1 SWAP2 AND DIV PUSH1 0x24 DUP4 ADD DUP2 SWAP1 MSTORE SWAP1 SWAP2 DUP3 SWAP2 PUSH1 0x44 SWAP1 SWAP2 ADD SWAP1 DUP5 SWAP1 DUP1 ISZERO PUSH2 0x7CA JUMPI DUP1 PUSH1 0x1F LT PUSH2 0x79F JUMPI PUSH2 0x100 DUP1 DUP4 SLOAD DIV MUL DUP4 MSTORE SWAP2 PUSH1 0x20 ADD SWAP2 PUSH2 0x7CA JUMP JUMPDEST POP PUSH2 0xB04 JUMP JUMPDEST CALLER PUSH1 0x0 SWAP1 DUP2 MSTORE PUSH32 0x2E174C10E159EA99B867CE3205125C24A42D128804E4070ED6FCC8CC98166AA0 PUSH1 0x20 MSTORE PUSH1 0x40 SWAP1 KECCAK256 SLOAD PUSH1 0xE SWAP1 PUSH1 0xFF AND PUSH2 0xB02 JUMPI PUSH1 0x40 MLOAD PUSH3 0x461BCD PUSH1 0xE5 SHL DUP2 MSTORE PUSH1 0x20 PUSH1 0x4 DUP3 ADD SWAP1 DUP2 MSTORE DUP3 SLOAD PUSH1 0x2 PUSH1 0x0 NOT PUSH2 0x100 PUSH1 0x1 DUP5 AND ISZERO MUL ADD SWAP1 SWAP2 AND DIV PUSH1 0x24 DUP4 ADD DUP2 SWAP1 MSTORE SWAP1 SWAP2 DUP3 SWAP2 PUSH1 0x44 SWAP1 SWAP2 ADD SWAP1 DUP5 SWAP1 DUP1 ISZERO PUSH2 0x7CA JUMPI DUP1 PUSH1 0x1F LT PUSH2 0x79F JUMPI PUSH2 0x100 DUP1 DUP4 SLOAD DIV MUL DUP4 MSTORE SWAP2 PUSH1 0x20 ADD SWAP2 PUSH2 0x7CA JUMP JUMPDEST POP JUMPDEST PUSH1 0x1 PUSH1 0x1 PUSH1 0xA0 SHL SUB DUP3 AND PUSH1 0x0 SWAP1 DUP2 MSTORE PUSH32 0x91DA3FD0782E51C6B3986E9E672FD566868E71F3DBC2D6C2CD6FBB3E361AF2A7 PUSH1 0x20 MSTORE PUSH1 0x40 SWAP1 KECCAK256 SLOAD PUSH1 0xFF AND DUP1 PUSH2 0xB81 JUMPI POP PUSH1 0x1 PUSH1 0x1 PUSH1 0xA0 SHL SUB DUP3 AND PUSH1 0x0 SWAP1 DUP2 MSTORE PUSH32 0x4CDE762EF08B6B6C5DED8E8C4C0B3F4E5C9AD7342C88FCC93681B4588B73F05 PUSH1 0x20 MSTORE PUSH1 0x40 SWAP1 KECCAK256 SLOAD PUSH1 0xFF AND JUMPDEST ISZERO PUSH2 0xC18 JUMPI PUSH1 0x0 PUSH2 0xB92 DUP4 DUP4 PUSH2 0x3192 JUMP JUMPDEST SWAP1 POP PUSH2 0xB9C PUSH2 0xC75 JUMP JUMPDEST DUP2 GT ISZERO PUSH1 0x10 SWAP1 PUSH2 0xC05 JUMPI PUSH1 0x40 MLOAD PUSH3 0x461BCD PUSH1 0xE5 SHL DUP2 MSTORE PUSH1 0x20 PUSH1 0x4 DUP3 ADD SWAP1 DUP2 MSTORE DUP3 SLOAD PUSH1 0x2 PUSH1 0x0 NOT PUSH2 0x100 PUSH1 0x1 DUP5 AND ISZERO MUL ADD SWAP1 SWAP2 AND DIV PUSH1 0x24 DUP4 ADD DUP2 SWAP1 MSTORE SWAP1 SWAP2 DUP3 SWAP2 PUSH1 0x44 SWAP1 SWAP2 ADD SWAP1 DUP5 SWAP1 DUP1 ISZERO PUSH2 0x7CA JUMPI DUP1 PUSH1 0x1F LT PUSH2 0x79F JUMPI PUSH2 0x100 DUP1 DUP4 SLOAD DIV MUL DUP4 MSTORE SWAP2 PUSH1 0x20 ADD SWAP2 PUSH2 0x7CA JUMP JUMPDEST POP PUSH1 0x7 SLOAD PUSH2 0xC13 SWAP1 DUP3 PUSH2 0x38CB JUMP JUMPDEST PUSH1 0x7 SSTORE POP JUMPDEST PUSH2 0xC2C PUSH1 0x1 PUSH1 0x1 PUSH1 0xA0 SHL SUB DUP4 AND CALLER DUP4 PUSH2 0x3914 JUMP JUMPDEST PUSH1 0x40 DUP1 MLOAD DUP3 DUP2 MSTORE SWAP1 MLOAD PUSH1 0x1 PUSH1 0x1 PUSH1 0xA0 SHL SUB DUP5 AND SWAP2 PUSH32 0xB4460E34F1E91C4FA28EB7FAC4CBD88CF530EF54A67E1978CD5EDD9F77033EAD SWAP2 SWAP1 DUP2 SWAP1 SUB PUSH1 0x20 ADD SWAP1 LOG2 POP POP JUMP JUMPDEST PUSH1 0x9 SLOAD DUP2 JUMP JUMPDEST PUSH1 0x0 PUSH2 0xD14 PUSH2 0xD0B PUSH1 0x8 SLOAD PUSH32 0x0 PUSH1 0x1 PUSH1 0x1 PUSH1 0xA0 SHL SUB AND PUSH4 0x18160DDD PUSH1 0x40 MLOAD DUP2 PUSH4 0xFFFFFFFF AND PUSH1 0xE0 SHL DUP2 MSTORE PUSH1 0x4 ADD PUSH1 0x20 PUSH1 0x40 MLOAD DUP1 DUP4 SUB DUP2 DUP7 DUP1 EXTCODESIZE ISZERO DUP1 ISZERO PUSH2 0xCD9 JUMPI PUSH1 0x0 DUP1 REVERT JUMPDEST POP GAS STATICCALL ISZERO DUP1 ISZERO PUSH2 0xCED JUMPI RETURNDATASIZE PUSH1 0x0 DUP1 RETURNDATACOPY RETURNDATASIZE PUSH1 0x0 REVERT JUMPDEST POP POP POP POP PUSH1 0x40 MLOAD RETURNDATASIZE PUSH1 0x20 DUP2 LT ISZERO PUSH2 0xD03 JUMPI PUSH1 0x0 DUP1 REVERT JUMPDEST POP MLOAD SWAP1 PUSH2 0x38CB JUMP JUMPDEST PUSH1 0x7 SLOAD SWAP1 PUSH2 0x38CB JUMP JUMPDEST SWAP1 POP SWAP1 JUMP JUMPDEST CALLER PUSH1 0x0 SWAP1 DUP2 MSTORE PUSH32 0xBEB3BAD75134CB432E5707980E3245C52C5998A1125EE30F2F0DBF3925B1E551 PUSH1 0x20 MSTORE PUSH1 0x40 SWAP1 KECCAK256 SLOAD PUSH1 0xFF AND DUP1 PUSH2 0xD84 JUMPI POP CALLER PUSH1 0x0 SWAP1 DUP2 MSTORE PUSH32 0x5C6B02DB8B672415FFAD906D7CCEE10BD53DBAD7D0B29E2BC0E50C93D5F31093 PUSH1 0x20 MSTORE PUSH1 0x40 SWAP1 KECCAK256 SLOAD PUSH1 0xFF AND JUMPDEST PUSH1 0xE SWAP1 PUSH2 0xDEA JUMPI PUSH1 0x40 MLOAD PUSH3 0x461BCD PUSH1 0xE5 SHL DUP2 MSTORE PUSH1 0x20 PUSH1 0x4 DUP3 ADD SWAP1 DUP2 MSTORE DUP3 SLOAD PUSH1 0x2 PUSH1 0x0 NOT PUSH2 0x100 PUSH1 0x1 DUP5 AND ISZERO MUL ADD SWAP1 SWAP2 AND DIV PUSH1 0x24 DUP4 ADD DUP2 SWAP1 MSTORE SWAP1 SWAP2 DUP3 SWAP2 PUSH1 0x44 SWAP1 SWAP2 ADD SWAP1 DUP5 SWAP1 DUP1 ISZERO PUSH2 0x7CA JUMPI DUP1 PUSH1 0x1F LT PUSH2 0x79F JUMPI PUSH2 0x100 DUP1 DUP4 SLOAD DIV MUL DUP4 MSTORE SWAP2 PUSH1 0x20 ADD SWAP2 PUSH2 0x7CA JUMP JUMPDEST POP PUSH1 0x40 DUP1 MLOAD PUSH32 0x79CC679000000000000000000000000000000000000000000000000000000000 DUP2 MSTORE CALLER PUSH1 0x4 DUP3 ADD MSTORE PUSH1 0x24 DUP2 ADD DUP4 SWAP1 MSTORE SWAP1 MLOAD PUSH1 0x1 PUSH1 0x1 PUSH1 0xA0 SHL SUB PUSH32 0x0 AND SWAP2 PUSH4 0x79CC6790 SWAP2 PUSH1 0x44 DUP1 DUP4 ADD SWAP3 PUSH1 0x0 SWAP3 SWAP2 SWAP1 DUP3 SWAP1 SUB ADD DUP2 DUP4 DUP8 DUP1 EXTCODESIZE ISZERO DUP1 ISZERO PUSH2 0xE72 JUMPI PUSH1 0x0 DUP1 REVERT JUMPDEST POP GAS CALL ISZERO DUP1 ISZERO PUSH2 0xE86 JUMPI RETURNDATASIZE PUSH1 0x0 DUP1 RETURNDATACOPY RETURNDATASIZE PUSH1 0x0 REVERT JUMPDEST POP POP PUSH1 0x2 SLOAD PUSH1 0x40 DUP1 MLOAD PUSH4 0xAE5C6CD3 PUSH1 0xE0 SHL DUP2 MSTORE PUSH1 0x4 DUP2 ADD DUP7 SWAP1 MSTORE CALLER PUSH1 0x24 DUP3 ADD MSTORE PUSH1 0x0 PUSH1 0x44 DUP3 ADD DUP2 SWAP1 MSTORE SWAP2 MLOAD PUSH1 0x1 PUSH1 0x1 PUSH1 0xA0 SHL SUB SWAP1 SWAP4 AND SWAP5 POP PUSH4 0xAE5C6CD3 SWAP4 POP PUSH1 0x64 DUP1 DUP3 ADD SWAP4 SWAP2 DUP3 SWAP1 SUB ADD DUP2 DUP4 DUP8 DUP1 EXTCODESIZE ISZERO DUP1 ISZERO PUSH2 0xEE1 JUMPI PUSH1 0x0 DUP1 REVERT JUMPDEST POP GAS CALL ISZERO DUP1 ISZERO PUSH2 0xEF5 JUMPI RETURNDATASIZE PUSH1 0x0 DUP1 RETURNDATACOPY RETURNDATASIZE PUSH1 0x0 REVERT JUMPDEST POP POP PUSH1 0x8 SLOAD PUSH2 0xF07 SWAP3 POP SWAP1 POP DUP3 PUSH2 0x38CB JUMP JUMPDEST PUSH1 0x8 SSTORE PUSH1 0x9 SLOAD PUSH2 0xF17 SWAP1 DUP3 PUSH2 0x38CB JUMP JUMPDEST PUSH1 0x9 SSTORE PUSH1 0x40 DUP1 MLOAD DUP3 DUP2 MSTORE PUSH1 0x20 DUP2 ADD DUP4 SWAP1 MSTORE DUP2 MLOAD PUSH1 0x1 PUSH1 0x1 PUSH1 0xA0 SHL SUB PUSH32 0x0 AND SWAP3 CALLER SWAP3 PUSH32 0xC6D98EECFC9C78AB62C89A82950079B54874749F1F6F24090F7ACC758BC2F309 SWAP3 SWAP1 DUP2 SWAP1 SUB SWAP1 SWAP2 ADD SWAP1 LOG3 POP JUMP JUMPDEST PUSH1 0x0 PUSH32 0x0 PUSH1 0x1 PUSH1 0x1 PUSH1 0xA0 SHL SUB AND DUP3 PUSH1 0x1 PUSH1 0x1 PUSH1 0xA0 SHL SUB AND EQ ISZERO PUSH2 0x1062 JUMPI CALLER PUSH1 0x0 SWAP1 DUP2 MSTORE PUSH32 0x5C6B02DB8B672415FFAD906D7CCEE10BD53DBAD7D0B29E2BC0E50C93D5F31093 PUSH1 0x20 MSTORE PUSH1 0x40 SWAP1 KECCAK256 SLOAD PUSH1 0xE SWAP1 PUSH1 0xFF AND PUSH2 0x1059 JUMPI PUSH1 0x40 MLOAD PUSH3 0x461BCD PUSH1 0xE5 SHL DUP2 MSTORE PUSH1 0x20 PUSH1 0x4 DUP3 ADD SWAP1 DUP2 MSTORE DUP3 SLOAD PUSH1 0x2 PUSH1 0x0 NOT PUSH2 0x100 PUSH1 0x1 DUP5 AND ISZERO MUL ADD SWAP1 SWAP2 AND DIV PUSH1 0x24 DUP4 ADD DUP2 SWAP1 MSTORE SWAP1 SWAP2 DUP3 SWAP2 PUSH1 0x44 SWAP1 SWAP2 ADD SWAP1 DUP5 SWAP1 DUP1 ISZERO PUSH2 0x7CA JUMPI DUP1 PUSH1 0x1F LT PUSH2 0x79F JUMPI PUSH2 0x100 DUP1 DUP4 SLOAD DIV MUL DUP4 MSTORE SWAP2 PUSH1 0x20 ADD SWAP2 PUSH2 0x7CA JUMP JUMPDEST POP DUP3 SWAP1 POP PUSH2 0x11AA JUMP JUMPDEST CALLER PUSH1 0x0 SWAP1 DUP2 MSTORE PUSH32 0xBEB3BAD75134CB432E5707980E3245C52C5998A1125EE30F2F0DBF3925B1E551 PUSH1 0x20 MSTORE PUSH1 0x40 SWAP1 KECCAK256 SLOAD PUSH1 0xE SWAP1 PUSH1 0xFF AND PUSH2 0x10FA JUMPI PUSH1 0x40 MLOAD PUSH3 0x461BCD PUSH1 0xE5 SHL DUP2 MSTORE PUSH1 0x20 PUSH1 0x4 DUP3 ADD SWAP1 DUP2 MSTORE DUP3 SLOAD PUSH1 0x2 PUSH1 0x0 NOT PUSH2 0x100 PUSH1 0x1 DUP5 AND ISZERO MUL ADD SWAP1 SWAP2 AND DIV PUSH1 0x24 DUP4 ADD DUP2 SWAP1 MSTORE SWAP1 SWAP2 DUP3 SWAP2 PUSH1 0x44 SWAP1 SWAP2 ADD SWAP1 DUP5 SWAP1 DUP1 ISZERO PUSH2 0x7CA JUMPI DUP1 PUSH1 0x1F LT PUSH2 0x79F JUMPI PUSH2 0x100 DUP1 DUP4 SLOAD DIV MUL DUP4 MSTORE SWAP2 PUSH1 0x20 ADD SWAP2 PUSH2 0x7CA JUMP JUMPDEST POP PUSH1 0x1 PUSH1 0x1 PUSH1 0xA0 SHL SUB DUP3 AND PUSH1 0x0 SWAP1 DUP2 MSTORE PUSH32 0x91DA3FD0782E51C6B3986E9E672FD566868E71F3DBC2D6C2CD6FBB3E361AF2A7 PUSH1 0x20 MSTORE PUSH1 0x40 SWAP1 KECCAK256 SLOAD PUSH1 0xD SWAP1 PUSH1 0xFF AND PUSH2 0x119C JUMPI PUSH1 0x40 MLOAD PUSH3 0x461BCD PUSH1 0xE5 SHL DUP2 MSTORE PUSH1 0x20 PUSH1 0x4 DUP3 ADD SWAP1 DUP2 MSTORE DUP3 SLOAD PUSH1 0x2 PUSH1 0x0 NOT PUSH2 0x100 PUSH1 0x1 DUP5 AND ISZERO MUL ADD SWAP1 SWAP2 AND DIV PUSH1 0x24 DUP4 ADD DUP2 SWAP1 MSTORE SWAP1 SWAP2 DUP3 SWAP2 PUSH1 0x44 SWAP1 SWAP2 ADD SWAP1 DUP5 SWAP1 DUP1 ISZERO PUSH2 0x7CA JUMPI DUP1 PUSH1 0x1F LT PUSH2 0x79F JUMPI PUSH2 0x100 DUP1 DUP4 SLOAD DIV MUL DUP4 MSTORE SWAP2 PUSH1 0x20 ADD SWAP2 PUSH2 0x7CA JUMP JUMPDEST POP PUSH2 0x11A7 DUP3 DUP5 PUSH2 0x3192 JUMP JUMPDEST SWAP1 POP JUMPDEST PUSH1 0xF DUP2 PUSH2 0x1210 JUMPI PUSH1 0x40 MLOAD PUSH3 0x461BCD PUSH1 0xE5 SHL DUP2 MSTORE PUSH1 0x20 PUSH1 0x4 DUP3 ADD SWAP1 DUP2 MSTORE DUP3 SLOAD PUSH1 0x2 PUSH1 0x0 NOT PUSH2 0x100 PUSH1 0x1 DUP5 AND ISZERO MUL ADD SWAP1 SWAP2 AND DIV PUSH1 0x24 DUP4 ADD DUP2 SWAP1 MSTORE SWAP1 SWAP2 DUP3 SWAP2 PUSH1 0x44 SWAP1 SWAP2 ADD SWAP1 DUP5 SWAP1 DUP1 ISZERO PUSH2 0x7CA JUMPI DUP1 PUSH1 0x1F LT PUSH2 0x79F JUMPI PUSH2 0x100 DUP1 DUP4 SLOAD DIV MUL DUP4 MSTORE SWAP2 PUSH1 0x20 ADD SWAP2 PUSH2 0x7CA JUMP JUMPDEST POP PUSH1 0x2 SLOAD PUSH1 0x40 DUP1 MLOAD PUSH4 0xAE5C6CD3 PUSH1 0xE0 SHL DUP2 MSTORE PUSH1 0x4 DUP2 ADD DUP5 SWAP1 MSTORE CALLER PUSH1 0x24 DUP3 ADD MSTORE PUSH1 0x1 PUSH1 0x44 DUP3 ADD MSTORE SWAP1 MLOAD PUSH1 0x1 PUSH1 0x1 PUSH1 0xA0 SHL SUB SWAP1 SWAP3 AND SWAP2 PUSH4 0xAE5C6CD3 SWAP2 PUSH1 0x64 DUP1 DUP3 ADD SWAP3 PUSH1 0x0 SWAP3 SWAP1 SWAP2 SWAP1 DUP3 SWAP1 SUB ADD DUP2 DUP4 DUP8 DUP1 EXTCODESIZE ISZERO DUP1 ISZERO PUSH2 0x126B JUMPI PUSH1 0x0 DUP1 REVERT JUMPDEST POP GAS CALL ISZERO DUP1 ISZERO PUSH2 0x127F JUMPI RETURNDATASIZE PUSH1 0x0 DUP1 RETURNDATACOPY RETURNDATASIZE PUSH1 0x0 REVERT JUMPDEST POP POP CALLER PUSH1 0x0 DUP2 DUP2 MSTORE PUSH1 0x6 PUSH1 0x20 SWAP1 DUP2 MSTORE PUSH1 0x40 SWAP2 DUP3 SWAP1 KECCAK256 SLOAD PUSH1 0x2 SLOAD DUP4 MLOAD PUSH32 0xC4EF1C4C00000000000000000000000000000000000000000000000000000000 DUP2 MSTORE PUSH1 0x4 DUP2 ADD SWAP6 SWAP1 SWAP6 MSTORE SWAP3 MLOAD SWAP1 SWAP6 POP PUSH1 0x1 PUSH1 0x1 PUSH1 0xA0 SHL SUB SWAP1 SWAP3 AND SWAP4 POP PUSH4 0xC4EF1C4C SWAP3 PUSH1 0x24 DUP1 DUP3 ADD SWAP4 SWAP2 DUP3 SWAP1 SUB ADD DUP2 DUP7 DUP1 EXTCODESIZE ISZERO DUP1 ISZERO PUSH2 0x12F8 JUMPI PUSH1 0x0 DUP1 REVERT JUMPDEST POP GAS STATICCALL ISZERO DUP1 ISZERO PUSH2 0x130C JUMPI RETURNDATASIZE PUSH1 0x0 DUP1 RETURNDATACOPY RETURNDATASIZE PUSH1 0x0 REVERT JUMPDEST POP POP POP POP PUSH1 0x40 MLOAD RETURNDATASIZE PUSH1 0x20 DUP2 LT ISZERO PUSH2 0x1322 JUMPI PUSH1 0x0 DUP1 REVERT JUMPDEST POP MLOAD GT ISZERO PUSH2 0x1377 JUMPI PUSH1 0x40 DUP1 MLOAD PUSH3 0x461BCD PUSH1 0xE5 SHL DUP2 MSTORE PUSH1 0x20 PUSH1 0x4 DUP3 ADD MSTORE PUSH1 0x17 PUSH1 0x24 DUP3 ADD MSTORE PUSH32 0x54726561737572793A2065786365656473206C696D6974000000000000000000 PUSH1 0x44 DUP3 ADD MSTORE SWAP1 MLOAD SWAP1 DUP2 SWAP1 SUB PUSH1 0x64 ADD SWAP1 REVERT JUMPDEST PUSH1 0x8 SLOAD PUSH2 0x1384 SWAP1 DUP3 PUSH2 0x3AAC JUMP JUMPDEST PUSH1 0x8 DUP2 SWAP1 SSTORE POP PUSH32 0x0 PUSH1 0x1 PUSH1 0x1 PUSH1 0xA0 SHL SUB AND DUP3 PUSH1 0x1 PUSH1 0x1 PUSH1 0xA0 SHL SUB AND EQ ISZERO PUSH2 0x1479 JUMPI PUSH1 0x40 DUP1 MLOAD PUSH32 0x40C10F1900000000000000000000000000000000000000000000000000000000 DUP2 MSTORE CALLER PUSH1 0x4 DUP3 ADD MSTORE PUSH1 0x24 DUP2 ADD DUP4 SWAP1 MSTORE SWAP1 MLOAD PUSH1 0x1 PUSH1 0x1 PUSH1 0xA0 SHL SUB PUSH32 0x0 AND SWAP2 PUSH4 0x40C10F19 SWAP2 PUSH1 0x44 DUP1 DUP4 ADD SWAP3 PUSH1 0x0 SWAP3 SWAP2 SWAP1 DUP3 SWAP1 SUB ADD DUP2 DUP4 DUP8 DUP1 EXTCODESIZE ISZERO DUP1 ISZERO PUSH2 0x144B JUMPI PUSH1 0x0 DUP1 REVERT JUMPDEST POP GAS CALL ISZERO DUP1 ISZERO PUSH2 0x145F JUMPI RETURNDATASIZE PUSH1 0x0 DUP1 RETURNDATACOPY RETURNDATASIZE PUSH1 0x0 REVERT JUMPDEST POP POP PUSH1 0x9 SLOAD PUSH2 0x1471 SWAP3 POP SWAP1 POP DUP3 PUSH2 0x3AAC JUMP JUMPDEST PUSH1 0x9 SSTORE PUSH2 0x149D JUMP JUMPDEST PUSH1 0x7 SLOAD PUSH2 0x1486 SWAP1 DUP3 PUSH2 0x38CB JUMP JUMPDEST PUSH1 0x7 SSTORE PUSH2 0x149D PUSH1 0x1 PUSH1 0x1 PUSH1 0xA0 SHL SUB DUP4 AND CALLER DUP6 PUSH2 0x3914 JUMP JUMPDEST PUSH1 0x40 DUP1 MLOAD DUP5 DUP2 MSTORE PUSH1 0x20 DUP2 ADD DUP4 SWAP1 MSTORE DUP2 MLOAD PUSH1 0x1 PUSH1 0x1 PUSH1 0xA0 SHL SUB DUP6 AND SWAP3 CALLER SWAP3 PUSH32 0x7E1A939BED137A819B5D2979822C67F877689F7A863D5E4CB57CDCA97B2977D6 SWAP3 SWAP1 DUP2 SWAP1 SUB SWAP1 SWAP2 ADD SWAP1 LOG3 POP POP POP JUMP JUMPDEST PUSH1 0xB SLOAD PUSH2 0x100 SWAP1 DIV PUSH1 0xFF AND DUP2 JUMP JUMPDEST PUSH1 0x5 PUSH1 0x20 MSTORE PUSH1 0x0 SWAP1 DUP2 MSTORE PUSH1 0x40 SWAP1 KECCAK256 SLOAD PUSH1 0x1 PUSH1 0x1 PUSH1 0xA0 SHL SUB AND DUP2 JUMP JUMPDEST PUSH1 0x1 PUSH1 0x0 SWAP1 SLOAD SWAP1 PUSH2 0x100 EXP SWAP1 DIV PUSH1 0x1 PUSH1 0x1 PUSH1 0xA0 SHL SUB AND PUSH1 0x1 PUSH1 0x1 PUSH1 0xA0 SHL SUB AND PUSH4 0xC340A24 PUSH1 0x40 MLOAD DUP2 PUSH4 0xFFFFFFFF AND PUSH1 0xE0 SHL DUP2 MSTORE PUSH1 0x4 ADD PUSH1 0x20 PUSH1 0x40 MLOAD DUP1 DUP4 SUB DUP2 DUP7 DUP1 EXTCODESIZE ISZERO DUP1 ISZERO PUSH2 0x1561 JUMPI PUSH1 0x0 DUP1 REVERT JUMPDEST POP GAS STATICCALL ISZERO DUP1 ISZERO PUSH2 0x1575 JUMPI RETURNDATASIZE PUSH1 0x0 DUP1 RETURNDATACOPY RETURNDATASIZE PUSH1 0x0 REVERT JUMPDEST POP POP POP POP PUSH1 0x40 MLOAD RETURNDATASIZE PUSH1 0x20 DUP2 LT ISZERO PUSH2 0x158B JUMPI PUSH1 0x0 DUP1 REVERT JUMPDEST POP MLOAD PUSH1 0x0 SWAP1 PUSH1 0x1 PUSH1 0x1 PUSH1 0xA0 SHL SUB AND CALLER EQ PUSH2 0x15FE JUMPI PUSH1 0x40 MLOAD PUSH3 0x461BCD PUSH1 0xE5 SHL DUP2 MSTORE PUSH1 0x20 PUSH1 0x4 DUP3 ADD SWAP1 DUP2 MSTORE DUP3 SLOAD PUSH1 0x2 PUSH1 0x0 NOT PUSH2 0x100 PUSH1 0x1 DUP5 AND ISZERO MUL ADD SWAP1 SWAP2 AND DIV PUSH1 0x24 DUP4 ADD DUP2 SWAP1 MSTORE SWAP1 SWAP2 DUP3 SWAP2 PUSH1 0x44 SWAP1 SWAP2 ADD SWAP1 DUP5 SWAP1 DUP1 ISZERO PUSH2 0x7CA JUMPI DUP1 PUSH1 0x1F LT PUSH2 0x79F JUMPI PUSH2 0x100 DUP1 DUP4 SLOAD DIV MUL DUP4 MSTORE SWAP2 PUSH1 0x20 ADD SWAP2 PUSH2 0x7CA JUMP JUMPDEST POP PUSH1 0x1 PUSH1 0x1 PUSH1 0xA0 SHL SUB DUP3 AND PUSH2 0x1612 JUMPI PUSH1 0x0 DUP1 REVERT JUMPDEST PUSH1 0xB SLOAD PUSH1 0xFF AND ISZERO ISZERO PUSH1 0x1 EQ PUSH2 0x166E JUMPI PUSH1 0x40 DUP1 MLOAD PUSH3 0x461BCD PUSH1 0xE5 SHL DUP2 MSTORE PUSH1 0x20 PUSH1 0x4 DUP3 ADD DUP2 SWAP1 MSTORE PUSH1 0x24 DUP3 ADD MSTORE PUSH32 0x54696D656C6F636B2069732064697361626C65642C2075736520656E61626C65 PUSH1 0x44 DUP3 ADD MSTORE SWAP1 MLOAD SWAP1 DUP2 SWAP1 SUB PUSH1 0x64 ADD SWAP1 REVERT JUMPDEST PUSH1 0x0 PUSH2 0x169A NUMBER PUSH32 0x0 PUSH2 0x3AAC JUMP JUMPDEST SWAP1 POP PUSH1 0x3 DUP5 PUSH1 0xA DUP2 GT ISZERO PUSH2 0x16AA JUMPI INVALID JUMPDEST EQ DUP1 PUSH2 0x16C1 JUMPI POP PUSH1 0x6 DUP5 PUSH1 0xA DUP2 GT ISZERO PUSH2 0x16BF JUMPI INVALID JUMPDEST EQ JUMPDEST ISZERO PUSH2 0x16FE JUMPI PUSH2 0x16FB PUSH2 0x16F4 PUSH32 0x0 PUSH1 0x2 PUSH2 0x3B06 JUMP JUMPDEST NUMBER SWAP1 PUSH2 0x3AAC JUMP JUMPDEST SWAP1 POP JUMPDEST PUSH1 0xA PUSH1 0x40 MLOAD DUP1 PUSH1 0xC0 ADD PUSH1 0x40 MSTORE DUP1 DUP7 PUSH1 0xA DUP2 GT ISZERO PUSH2 0x1717 JUMPI INVALID JUMPDEST DUP2 MSTORE PUSH1 0x1 PUSH1 0x1 PUSH1 0xA0 SHL SUB DUP1 DUP8 AND PUSH1 0x20 DUP1 DUP5 ADD SWAP2 SWAP1 SWAP2 MSTORE SWAP1 DUP7 AND PUSH1 0x40 DUP4 ADD MSTORE PUSH1 0x60 DUP3 ADD DUP6 SWAP1 MSTORE PUSH1 0x0 PUSH1 0x80 DUP4 ADD DUP2 SWAP1 MSTORE PUSH1 0xA0 SWAP1 SWAP3 ADD DUP3 SWAP1 MSTORE DUP4 SLOAD PUSH1 0x1 DUP2 DUP2 ADD DUP7 SSTORE SWAP5 DUP4 MSTORE SWAP2 KECCAK256 DUP3 MLOAD PUSH1 0x4 SWAP1 SWAP3 MUL ADD DUP1 SLOAD SWAP3 SWAP4 SWAP1 SWAP3 DUP4 SWAP2 PUSH1 0xFF NOT SWAP1 SWAP2 AND SWAP1 DUP4 PUSH1 0xA DUP2 GT ISZERO PUSH2 0x177E JUMPI INVALID JUMPDEST MUL OR SWAP1 SSTORE POP PUSH1 0x20 DUP3 ADD MLOAD DUP2 SLOAD PUSH32 0xFFFFFFFFFFFFFFFFFFFFFF0000000000000000000000000000000000000000FF AND PUSH2 0x100 PUSH1 0x1 PUSH1 0x1 PUSH1 0xA0 SHL SUB SWAP3 DUP4 AND DUP2 MUL SWAP2 SWAP1 SWAP2 OR DUP4 SSTORE PUSH1 0x40 DUP5 ADD MLOAD PUSH1 0x1 DUP5 ADD DUP1 SLOAD PUSH1 0x1 PUSH1 0x1 PUSH1 0xA0 SHL SUB NOT AND SWAP2 SWAP1 SWAP4 AND OR SWAP1 SWAP2 SSTORE PUSH1 0x60 DUP4 ADD MLOAD PUSH1 0x2 DUP4 ADD SSTORE PUSH1 0x80 DUP4 ADD MLOAD PUSH1 0x3 SWAP1 SWAP3 ADD DUP1 SLOAD PUSH1 0xA0 SWAP1 SWAP5 ADD MLOAD PUSH1 0xFF NOT SWAP1 SWAP5 AND SWAP3 ISZERO ISZERO SWAP3 SWAP1 SWAP3 OR PUSH2 0xFF00 NOT AND SWAP3 ISZERO ISZERO MUL SWAP2 SWAP1 SWAP2 OR SWAP1 SSTORE DUP4 PUSH1 0xA DUP2 GT ISZERO PUSH2 0x1823 JUMPI INVALID JUMPDEST PUSH1 0x40 DUP1 MLOAD PUSH1 0x1 PUSH1 0x1 PUSH1 0xA0 SHL SUB DUP7 AND DUP2 MSTORE SWAP1 MLOAD PUSH32 0xC822FF41836A6DC998393C71843DB8ADCBBF01721F41B32389F6838ECB1EA9C8 SWAP2 DUP2 SWAP1 SUB PUSH1 0x20 ADD SWAP1 LOG2 POP POP POP POP JUMP JUMPDEST PUSH1 0x1 PUSH1 0x0 SWAP1 SLOAD SWAP1 PUSH2 0x100 EXP SWAP1 DIV PUSH1 0x1 PUSH1 0x1 PUSH1 0xA0 SHL SUB AND PUSH1 0x1 PUSH1 0x1 PUSH1 0xA0 SHL SUB AND PUSH4 0xC340A24 PUSH1 0x40 MLOAD DUP2 PUSH4 0xFFFFFFFF AND PUSH1 0xE0 SHL DUP2 MSTORE PUSH1 0x4 ADD PUSH1 0x20 PUSH1 0x40 MLOAD DUP1 DUP4 SUB DUP2 DUP7 DUP1 EXTCODESIZE ISZERO DUP1 ISZERO PUSH2 0x18B3 JUMPI PUSH1 0x0 DUP1 REVERT JUMPDEST POP GAS STATICCALL ISZERO DUP1 ISZERO PUSH2 0x18C7 JUMPI RETURNDATASIZE PUSH1 0x0 DUP1 RETURNDATACOPY RETURNDATASIZE PUSH1 0x0 REVERT JUMPDEST POP POP POP POP PUSH1 0x40 MLOAD RETURNDATASIZE PUSH1 0x20 DUP2 LT ISZERO PUSH2 0x18DD JUMPI PUSH1 0x0 DUP1 REVERT JUMPDEST POP MLOAD PUSH1 0x0 SWAP1 PUSH1 0x1 PUSH1 0x1 PUSH1 0xA0 SHL SUB AND CALLER EQ PUSH2 0x1950 JUMPI PUSH1 0x40 MLOAD PUSH3 0x461BCD PUSH1 0xE5 SHL DUP2 MSTORE PUSH1 0x20 PUSH1 0x4 DUP3 ADD SWAP1 DUP2 MSTORE DUP3 SLOAD PUSH1 0x2 PUSH1 0x0 NOT PUSH2 0x100 PUSH1 0x1 DUP5 AND ISZERO MUL ADD SWAP1 SWAP2 AND DIV PUSH1 0x24 DUP4 ADD DUP2 SWAP1 MSTORE SWAP1 SWAP2 DUP3 SWAP2 PUSH1 0x44 SWAP1 SWAP2 ADD SWAP1 DUP5 SWAP1 DUP1 ISZERO PUSH2 0x7CA JUMPI DUP1 PUSH1 0x1F LT PUSH2 0x79F JUMPI PUSH2 0x100 DUP1 DUP4 SLOAD DIV MUL DUP4 MSTORE SWAP2 PUSH1 0x20 ADD SWAP2 PUSH2 0x7CA JUMP JUMPDEST POP PUSH1 0x2 PUSH1 0x0 SWAP1 DUP2 MSTORE PUSH1 0x3 PUSH1 0x20 SWAP1 DUP2 MSTORE PUSH32 0xC3A24B0501BD2C13A7E57F2DB4369EC4C223447539FC0724A9D55AC4A06EBD4D DUP1 SLOAD PUSH1 0x40 DUP1 MLOAD DUP3 DUP6 MUL DUP2 ADD DUP6 ADD SWAP1 SWAP2 MSTORE DUP2 DUP2 MSTORE PUSH1 0x60 SWAP4 SWAP1 SWAP3 SWAP2 SWAP1 DUP4 ADD DUP3 DUP3 DUP1 ISZERO PUSH2 0x19D3 JUMPI PUSH1 0x20 MUL DUP3 ADD SWAP2 SWAP1 PUSH1 0x0 MSTORE PUSH1 0x20 PUSH1 0x0 KECCAK256 SWAP1 JUMPDEST DUP2 SLOAD PUSH1 0x1 PUSH1 0x1 PUSH1 0xA0 SHL SUB AND DUP2 MSTORE PUSH1 0x1 SWAP1 SWAP2 ADD SWAP1 PUSH1 0x20 ADD DUP1 DUP4 GT PUSH2 0x19B5 JUMPI JUMPDEST POP POP POP POP POP SWAP1 POP PUSH1 0x0 JUMPDEST DUP2 MLOAD DUP2 LT ISZERO PUSH2 0x1B0C JUMPI PUSH1 0x2 PUSH1 0x0 SWAP1 DUP2 MSTORE PUSH1 0x4 PUSH1 0x20 MSTORE DUP3 MLOAD PUSH32 0x91DA3FD0782E51C6B3986E9E672FD566868E71F3DBC2D6C2CD6FBB3E361AF2A7 SWAP2 SWAP1 DUP5 SWAP1 DUP5 SWAP1 DUP2 LT PUSH2 0x1A23 JUMPI INVALID JUMPDEST PUSH1 0x20 SWAP1 DUP2 MUL SWAP2 SWAP1 SWAP2 ADD DUP2 ADD MLOAD PUSH1 0x1 PUSH1 0x1 PUSH1 0xA0 SHL SUB AND DUP3 MSTORE DUP2 ADD SWAP2 SWAP1 SWAP2 MSTORE PUSH1 0x40 ADD PUSH1 0x0 KECCAK256 SLOAD PUSH1 0xFF AND ISZERO PUSH2 0x1B04 JUMPI PUSH2 0x1B01 PUSH2 0x1AFA DUP4 DUP4 DUP2 MLOAD DUP2 LT PUSH2 0x1A61 JUMPI INVALID JUMPDEST PUSH1 0x20 MUL PUSH1 0x20 ADD ADD MLOAD DUP5 DUP5 DUP2 MLOAD DUP2 LT PUSH2 0x1A75 JUMPI INVALID JUMPDEST PUSH1 0x20 MUL PUSH1 0x20 ADD ADD MLOAD PUSH1 0x1 PUSH1 0x1 PUSH1 0xA0 SHL SUB AND PUSH4 0x70A08231 ADDRESS PUSH1 0x40 MLOAD DUP3 PUSH4 0xFFFFFFFF AND PUSH1 0xE0 SHL DUP2 MSTORE PUSH1 0x4 ADD DUP1 DUP3 PUSH1 0x1 PUSH1 0x1 PUSH1 0xA0 SHL SUB AND DUP2 MSTORE PUSH1 0x20 ADD SWAP2 POP POP PUSH1 0x20 PUSH1 0x40 MLOAD DUP1 DUP4 SUB DUP2 DUP7 DUP1 EXTCODESIZE ISZERO DUP1 ISZERO PUSH2 0x1AC9 JUMPI PUSH1 0x0 DUP1 REVERT JUMPDEST POP GAS STATICCALL ISZERO DUP1 ISZERO PUSH2 0x1ADD JUMPI RETURNDATASIZE PUSH1 0x0 DUP1 RETURNDATACOPY RETURNDATASIZE PUSH1 0x0 REVERT JUMPDEST POP POP POP POP PUSH1 0x40 MLOAD RETURNDATASIZE PUSH1 0x20 DUP2 LT ISZERO PUSH2 0x1AF3 JUMPI PUSH1 0x0 DUP1 REVERT JUMPDEST POP MLOAD PUSH2 0x3192 JUMP JUMPDEST DUP5 SWAP1 PUSH2 0x3AAC JUMP JUMPDEST SWAP3 POP JUMPDEST PUSH1 0x1 ADD PUSH2 0x19DD JUMP JUMPDEST POP PUSH1 0x5 PUSH1 0x0 MSTORE PUSH1 0x3 PUSH1 0x20 SWAP1 DUP2 MSTORE PUSH32 0x405AAD32E1ADBAC89BB7F176E338B8FC6E994CA210C9BB7BDCA249B465942250 DUP1 SLOAD PUSH1 0x40 DUP1 MLOAD DUP3 DUP6 MUL DUP2 ADD DUP6 ADD SWAP1 SWAP2 MSTORE DUP2 DUP2 MSTORE PUSH1 0x60 SWAP4 SWAP1 SWAP3 SWAP2 SWAP1 DUP4 ADD DUP3 DUP3 DUP1 ISZERO PUSH2 0x1B8D JUMPI PUSH1 0x20 MUL DUP3 ADD SWAP2 SWAP1 PUSH1 0x0 MSTORE PUSH1 0x20 PUSH1 0x0 KECCAK256 SWAP1 JUMPDEST DUP2 SLOAD PUSH1 0x1 PUSH1 0x1 PUSH1 0xA0 SHL SUB AND DUP2 MSTORE PUSH1 0x1 SWAP1 SWAP2 ADD SWAP1 PUSH1 0x20 ADD DUP1 DUP4 GT PUSH2 0x1B6F JUMPI JUMPDEST POP POP POP POP POP SWAP1 POP PUSH1 0x0 JUMPDEST DUP2 MLOAD DUP2 LT ISZERO PUSH2 0x1C2D JUMPI PUSH1 0x5 PUSH1 0x0 SWAP1 DUP2 MSTORE PUSH1 0x4 PUSH1 0x20 MSTORE DUP3 MLOAD PUSH32 0x4CDE762EF08B6B6C5DED8E8C4C0B3F4E5C9AD7342C88FCC93681B4588B73F05 SWAP2 SWAP1 DUP5 SWAP1 DUP5 SWAP1 DUP2 LT PUSH2 0x1BDD JUMPI INVALID JUMPDEST PUSH1 0x20 SWAP1 DUP2 MUL SWAP2 SWAP1 SWAP2 ADD DUP2 ADD MLOAD PUSH1 0x1 PUSH1 0x1 PUSH1 0xA0 SHL SUB AND DUP3 MSTORE DUP2 ADD SWAP2 SWAP1 SWAP2 MSTORE PUSH1 0x40 ADD PUSH1 0x0 KECCAK256 SLOAD PUSH1 0xFF AND ISZERO PUSH2 0x1C25 JUMPI PUSH2 0x1C22 PUSH2 0x1C1B DUP4 DUP4 DUP2 MLOAD DUP2 LT PUSH2 0x1A61 JUMPI INVALID JUMPDEST DUP6 SWAP1 PUSH2 0x3AAC JUMP JUMPDEST SWAP4 POP JUMPDEST PUSH1 0x1 ADD PUSH2 0x1B97 JUMP JUMPDEST POP PUSH1 0x7 DUP4 SWAP1 SSTORE PUSH1 0x40 MLOAD DUP4 SWAP1 PUSH32 0xEC691F09F6924B27932253F85CAF99BACC30360CC0E50A1CC4D2ACC246014466 SWAP1 PUSH1 0x0 SWAP1 LOG2 POP POP POP JUMP JUMPDEST PUSH1 0x4 PUSH1 0x20 SWAP1 DUP2 MSTORE PUSH1 0x0 SWAP3 DUP4 MSTORE PUSH1 0x40 DUP1 DUP5 KECCAK256 SWAP1 SWAP2 MSTORE SWAP1 DUP3 MSTORE SWAP1 KECCAK256 SLOAD PUSH1 0xFF AND DUP2 JUMP JUMPDEST CALLER PUSH1 0x0 SWAP1 DUP2 MSTORE PUSH32 0x2645749A946633740611CFC8178319F0958659D6922E4BF7E3A08B44789F53A4 PUSH1 0x20 MSTORE PUSH1 0x40 SWAP1 KECCAK256 SLOAD PUSH1 0xE SWAP1 PUSH1 0xFF AND PUSH2 0x1D1B JUMPI PUSH1 0x40 MLOAD PUSH3 0x461BCD PUSH1 0xE5 SHL DUP2 MSTORE PUSH1 0x20 PUSH1 0x4 DUP3 ADD SWAP1 DUP2 MSTORE DUP3 SLOAD PUSH1 0x2 PUSH1 0x0 NOT PUSH2 0x100 PUSH1 0x1 DUP5 AND ISZERO MUL ADD SWAP1 SWAP2 AND DIV PUSH1 0x24 DUP4 ADD DUP2 SWAP1 MSTORE SWAP1 SWAP2 DUP3 SWAP2 PUSH1 0x44 SWAP1 SWAP2 ADD SWAP1 DUP5 SWAP1 DUP1 ISZERO PUSH2 0x7CA JUMPI DUP1 PUSH1 0x1F LT PUSH2 0x79F JUMPI PUSH2 0x100 DUP1 DUP4 SLOAD DIV MUL DUP4 MSTORE SWAP2 PUSH1 0x20 ADD SWAP2 PUSH2 0x7CA JUMP JUMPDEST POP PUSH2 0x1D24 PUSH2 0xC75 JUMP JUMPDEST DUP2 GT ISZERO PUSH1 0x10 SWAP1 PUSH2 0x1D8D JUMPI PUSH1 0x40 MLOAD PUSH3 0x461BCD PUSH1 0xE5 SHL DUP2 MSTORE PUSH1 0x20 PUSH1 0x4 DUP3 ADD SWAP1 DUP2 MSTORE DUP3 SLOAD PUSH1 0x2 PUSH1 0x0 NOT PUSH2 0x100 PUSH1 0x1 DUP5 AND ISZERO MUL ADD SWAP1 SWAP2 AND DIV PUSH1 0x24 DUP4 ADD DUP2 SWAP1 MSTORE SWAP1 SWAP2 DUP3 SWAP2 PUSH1 0x44 SWAP1 SWAP2 ADD SWAP1 DUP5 SWAP1 DUP1 ISZERO PUSH2 0x7CA JUMPI DUP1 PUSH1 0x1F LT PUSH2 0x79F JUMPI PUSH2 0x100 DUP1 DUP4 SLOAD DIV MUL DUP4 MSTORE SWAP2 PUSH1 0x20 ADD SWAP2 PUSH2 0x7CA JUMP JUMPDEST POP PUSH32 0x0 PUSH1 0x1 PUSH1 0x1 PUSH1 0xA0 SHL SUB AND PUSH4 0x40C10F19 DUP4 DUP4 PUSH1 0x40 MLOAD DUP4 PUSH4 0xFFFFFFFF AND PUSH1 0xE0 SHL DUP2 MSTORE PUSH1 0x4 ADD DUP1 DUP4 PUSH1 0x1 PUSH1 0x1 PUSH1 0xA0 SHL SUB AND DUP2 MSTORE PUSH1 0x20 ADD DUP3 DUP2 MSTORE PUSH1 0x20 ADD SWAP3 POP POP POP PUSH1 0x0 PUSH1 0x40 MLOAD DUP1 DUP4 SUB DUP2 PUSH1 0x0 DUP8 DUP1 EXTCODESIZE ISZERO DUP1 ISZERO PUSH2 0x1E05 JUMPI PUSH1 0x0 DUP1 REVERT JUMPDEST POP GAS CALL ISZERO DUP1 ISZERO PUSH2 0x1E19 JUMPI RETURNDATASIZE PUSH1 0x0 DUP1 RETURNDATACOPY RETURNDATASIZE PUSH1 0x0 REVERT JUMPDEST POP POP PUSH1 0x40 DUP1 MLOAD DUP5 DUP2 MSTORE SWAP1 MLOAD PUSH1 0x1 PUSH1 0x1 PUSH1 0xA0 SHL SUB DUP7 AND SWAP4 POP CALLER SWAP3 POP PUSH32 0x9D228D69B5FDB8D273A2336F8FB8612D039631024EA9BF09C424A9503AA078F0 SWAP2 DUP2 SWAP1 SUB PUSH1 0x20 ADD SWAP1 LOG3 POP POP JUMP JUMPDEST PUSH1 0xA DUP2 DUP2 SLOAD DUP2 LT PUSH2 0x1E71 JUMPI PUSH1 0x0 DUP1 REVERT JUMPDEST PUSH1 0x0 SWAP2 DUP3 MSTORE PUSH1 0x20 SWAP1 SWAP2 KECCAK256 PUSH1 0x4 SWAP1 SWAP2 MUL ADD DUP1 SLOAD PUSH1 0x1 DUP3 ADD SLOAD PUSH1 0x2 DUP4 ADD SLOAD PUSH1 0x3 SWAP1 SWAP4 ADD SLOAD PUSH1 0xFF DUP1 DUP5 AND SWAP6 POP PUSH1 0x1 PUSH1 0x1 PUSH1 0xA0 SHL SUB PUSH2 0x100 SWAP5 DUP6 SWAP1 DIV DUP2 AND SWAP6 SWAP4 AND SWAP4 DUP3 DUP3 AND SWAP3 DIV AND DUP7 JUMP JUMPDEST PUSH1 0x1 PUSH1 0x0 SWAP1 SLOAD SWAP1 PUSH2 0x100 EXP SWAP1 DIV PUSH1 0x1 PUSH1 0x1 PUSH1 0xA0 SHL SUB AND PUSH1 0x1 PUSH1 0x1 PUSH1 0xA0 SHL SUB AND PUSH4 0xC340A24 PUSH1 0x40 MLOAD DUP2 PUSH4 0xFFFFFFFF AND PUSH1 0xE0 SHL DUP2 MSTORE PUSH1 0x4 ADD PUSH1 0x20 PUSH1 0x40 MLOAD DUP1 DUP4 SUB DUP2 DUP7 DUP1 EXTCODESIZE ISZERO DUP1 ISZERO PUSH2 0x1F06 JUMPI PUSH1 0x0 DUP1 REVERT JUMPDEST POP GAS STATICCALL ISZERO DUP1 ISZERO PUSH2 0x1F1A JUMPI RETURNDATASIZE PUSH1 0x0 DUP1 RETURNDATACOPY RETURNDATASIZE PUSH1 0x0 REVERT JUMPDEST POP POP POP POP PUSH1 0x40 MLOAD RETURNDATASIZE PUSH1 0x20 DUP2 LT ISZERO PUSH2 0x1F30 JUMPI PUSH1 0x0 DUP1 REVERT JUMPDEST POP MLOAD PUSH1 0x1 PUSH1 0x1 PUSH1 0xA0 SHL SUB AND CALLER EQ DUP1 PUSH2 0x1FC9 JUMPI POP PUSH1 0x1 PUSH1 0x0 SWAP1 SLOAD SWAP1 PUSH2 0x100 EXP SWAP1 DIV PUSH1 0x1 PUSH1 0x1 PUSH1 0xA0 SHL SUB AND PUSH1 0x1 PUSH1 0x1 PUSH1 0xA0 SHL SUB AND PUSH4 0x452A9320 PUSH1 0x40 MLOAD DUP2 PUSH4 0xFFFFFFFF AND PUSH1 0xE0 SHL DUP2 MSTORE PUSH1 0x4 ADD PUSH1 0x20 PUSH1 0x40 MLOAD DUP1 DUP4 SUB DUP2 DUP7 DUP1 EXTCODESIZE ISZERO DUP1 ISZERO PUSH2 0x1F91 JUMPI PUSH1 0x0 DUP1 REVERT JUMPDEST POP GAS STATICCALL ISZERO DUP1 ISZERO PUSH2 0x1FA5 JUMPI RETURNDATASIZE PUSH1 0x0 DUP1 RETURNDATACOPY RETURNDATASIZE PUSH1 0x0 REVERT JUMPDEST POP POP POP POP PUSH1 0x40 MLOAD RETURNDATASIZE PUSH1 0x20 DUP2 LT ISZERO PUSH2 0x1FBB JUMPI PUSH1 0x0 DUP1 REVERT JUMPDEST POP MLOAD PUSH1 0x1 PUSH1 0x1 PUSH1 0xA0 SHL SUB AND CALLER EQ JUMPDEST PUSH2 0x201A JUMPI PUSH1 0x40 DUP1 MLOAD PUSH3 0x461BCD PUSH1 0xE5 SHL DUP2 MSTORE PUSH1 0x20 PUSH1 0x4 DUP3 ADD MSTORE PUSH1 0x19 PUSH1 0x24 DUP3 ADD MSTORE PUSH32 0x4F6E6C7920676F7665726E6F72206F7220677561726469616E00000000000000 PUSH1 0x44 DUP3 ADD MSTORE SWAP1 MLOAD SWAP1 DUP2 SWAP1 SUB PUSH1 0x64 ADD SWAP1 REVERT JUMPDEST PUSH1 0x0 PUSH1 0x4 PUSH1 0x0 DUP5 PUSH1 0xA DUP2 GT ISZERO PUSH2 0x202C JUMPI INVALID JUMPDEST PUSH1 0xA DUP2 GT ISZERO PUSH2 0x2037 JUMPI INVALID JUMPDEST DUP2 MSTORE PUSH1 0x20 DUP1 DUP3 ADD SWAP3 SWAP1 SWAP3 MSTORE PUSH1 0x40 SWAP1 DUP2 ADD PUSH1 0x0 SWAP1 DUP2 KECCAK256 PUSH1 0x1 PUSH1 0x1 PUSH1 0xA0 SHL SUB DUP7 AND DUP3 MSTORE SWAP1 SWAP3 MSTORE SWAP1 KECCAK256 DUP1 SLOAD PUSH1 0xFF NOT AND SWAP2 ISZERO ISZERO SWAP2 SWAP1 SWAP2 OR SWAP1 SSTORE DUP2 PUSH1 0xA DUP2 GT ISZERO PUSH2 0x2078 JUMPI INVALID JUMPDEST PUSH1 0x40 DUP1 MLOAD PUSH1 0x1 PUSH1 0x1 PUSH1 0xA0 SHL SUB DUP5 AND DUP2 MSTORE PUSH1 0x0 PUSH1 0x20 DUP3 ADD MSTORE DUP2 MLOAD PUSH32 0x7531A7AEFE3985500C4DEC2DCB6049A708F14C6A8A9022B435B8841BDB8E1713 SWAP3 SWAP2 DUP2 SWAP1 SUB SWAP1 SWAP2 ADD SWAP1 LOG2 POP POP JUMP JUMPDEST PUSH1 0x6 PUSH1 0x20 MSTORE PUSH1 0x0 SWAP1 DUP2 MSTORE PUSH1 0x40 SWAP1 KECCAK256 SLOAD DUP2 JUMP JUMPDEST PUSH1 0x1 PUSH1 0x0 SWAP1 SLOAD SWAP1 PUSH2 0x100 EXP SWAP1 DIV PUSH1 0x1 PUSH1 0x1 PUSH1 0xA0 SHL SUB AND PUSH1 0x1 PUSH1 0x1 PUSH1 0xA0 SHL SUB AND PUSH4 0xC340A24 PUSH1 0x40 MLOAD DUP2 PUSH4 0xFFFFFFFF AND PUSH1 0xE0 SHL DUP2 MSTORE PUSH1 0x4 ADD PUSH1 0x20 PUSH1 0x40 MLOAD DUP1 DUP4 SUB DUP2 DUP7 DUP1 EXTCODESIZE ISZERO DUP1 ISZERO PUSH2 0x2120 JUMPI PUSH1 0x0 DUP1 REVERT JUMPDEST POP GAS STATICCALL ISZERO DUP1 ISZERO PUSH2 0x2134 JUMPI RETURNDATASIZE PUSH1 0x0 DUP1 RETURNDATACOPY RETURNDATASIZE PUSH1 0x0 REVERT JUMPDEST POP POP POP POP PUSH1 0x40 MLOAD RETURNDATASIZE PUSH1 0x20 DUP2 LT ISZERO PUSH2 0x214A JUMPI PUSH1 0x0 DUP1 REVERT JUMPDEST POP MLOAD PUSH1 0x0 SWAP1 PUSH1 0x1 PUSH1 0x1 PUSH1 0xA0 SHL SUB AND CALLER EQ PUSH2 0x21BD JUMPI PUSH1 0x40 MLOAD PUSH3 0x461BCD PUSH1 0xE5 SHL DUP2 MSTORE PUSH1 0x20 PUSH1 0x4 DUP3 ADD SWAP1 DUP2 MSTORE DUP3 SLOAD PUSH1 0x2 PUSH1 0x0 NOT PUSH2 0x100 PUSH1 0x1 DUP5 AND ISZERO MUL ADD SWAP1 SWAP2 AND DIV PUSH1 0x24 DUP4 ADD DUP2 SWAP1 MSTORE SWAP1 SWAP2 DUP3 SWAP2 PUSH1 0x44 SWAP1 SWAP2 ADD SWAP1 DUP5 SWAP1 DUP1 ISZERO PUSH2 0x7CA JUMPI DUP1 PUSH1 0x1F LT PUSH2 0x79F JUMPI PUSH2 0x100 DUP1 DUP4 SLOAD DIV MUL DUP4 MSTORE SWAP2 PUSH1 0x20 ADD SWAP2 PUSH2 0x7CA JUMP JUMPDEST POP PUSH1 0x1 PUSH1 0xA DUP3 DUP2 SLOAD DUP2 LT PUSH2 0x21CD JUMPI INVALID JUMPDEST PUSH1 0x0 SWAP2 DUP3 MSTORE PUSH1 0x20 SWAP1 SWAP2 KECCAK256 PUSH1 0x4 SWAP1 SWAP2 MUL ADD PUSH1 0x3 ADD DUP1 SLOAD PUSH1 0xFF NOT AND SWAP2 ISZERO ISZERO SWAP2 SWAP1 SWAP2 OR SWAP1 SSTORE POP JUMP JUMPDEST PUSH1 0x1 PUSH1 0x0 SWAP1 SLOAD SWAP1 PUSH2 0x100 EXP SWAP1 DIV PUSH1 0x1 PUSH1 0x1 PUSH1 0xA0 SHL SUB AND PUSH1 0x1 PUSH1 0x1 PUSH1 0xA0 SHL SUB AND PUSH4 0xC340A24 PUSH1 0x40 MLOAD DUP2 PUSH4 0xFFFFFFFF AND PUSH1 0xE0 SHL DUP2 MSTORE PUSH1 0x4 ADD PUSH1 0x20 PUSH1 0x40 MLOAD DUP1 DUP4 SUB DUP2 DUP7 DUP1 EXTCODESIZE ISZERO DUP1 ISZERO PUSH2 0x2240 JUMPI PUSH1 0x0 DUP1 REVERT JUMPDEST POP GAS STATICCALL ISZERO DUP1 ISZERO PUSH2 0x2254 JUMPI RETURNDATASIZE PUSH1 0x0 DUP1 RETURNDATACOPY RETURNDATASIZE PUSH1 0x0 REVERT JUMPDEST POP POP POP POP PUSH1 0x40 MLOAD RETURNDATASIZE PUSH1 0x20 DUP2 LT ISZERO PUSH2 0x226A JUMPI PUSH1 0x0 DUP1 REVERT JUMPDEST POP MLOAD PUSH1 0x0 SWAP1 PUSH1 0x1 PUSH1 0x1 PUSH1 0xA0 SHL SUB AND CALLER EQ PUSH2 0x22DD JUMPI PUSH1 0x40 MLOAD PUSH3 0x461BCD PUSH1 0xE5 SHL DUP2 MSTORE PUSH1 0x20 PUSH1 0x4 DUP3 ADD SWAP1 DUP2 MSTORE DUP3 SLOAD PUSH1 0x2 PUSH1 0x0 NOT PUSH2 0x100 PUSH1 0x1 DUP5 AND ISZERO MUL ADD SWAP1 SWAP2 AND DIV PUSH1 0x24 DUP4 ADD DUP2 SWAP1 MSTORE SWAP1 SWAP2 DUP3 SWAP2 PUSH1 0x44 SWAP1 SWAP2 ADD SWAP1 DUP5 SWAP1 DUP1 ISZERO PUSH2 0x7CA JUMPI DUP1 PUSH1 0x1F LT PUSH2 0x79F JUMPI PUSH2 0x100 DUP1 DUP4 SLOAD DIV MUL DUP4 MSTORE SWAP2 PUSH1 0x20 ADD SWAP2 PUSH2 0x7CA JUMP JUMPDEST POP PUSH1 0x1 DUP1 SLOAD PUSH1 0x1 PUSH1 0x1 PUSH1 0xA0 SHL SUB NOT AND PUSH1 0x1 PUSH1 0x1 PUSH1 0xA0 SHL SUB DUP4 AND SWAP1 DUP2 OR SWAP1 SWAP2 SSTORE PUSH1 0x40 MLOAD PUSH32 0x2F658B440C35314F52658EA8A740E05B284CDC84DC9AE01E891F21B8933E7CAD SWAP1 PUSH1 0x0 SWAP1 LOG2 POP JUMP JUMPDEST PUSH1 0x1 PUSH1 0x0 SWAP1 SLOAD SWAP1 PUSH2 0x100 EXP SWAP1 DIV PUSH1 0x1 PUSH1 0x1 PUSH1 0xA0 SHL SUB AND PUSH1 0x1 PUSH1 0x1 PUSH1 0xA0 SHL SUB AND PUSH4 0xC340A24 PUSH1 0x40 MLOAD DUP2 PUSH4 0xFFFFFFFF AND PUSH1 0xE0 SHL DUP2 MSTORE PUSH1 0x4 ADD PUSH1 0x20 PUSH1 0x40 MLOAD DUP1 DUP4 SUB DUP2 DUP7 DUP1 EXTCODESIZE ISZERO DUP1 ISZERO PUSH2 0x2376 JUMPI PUSH1 0x0 DUP1 REVERT JUMPDEST POP GAS STATICCALL ISZERO DUP1 ISZERO PUSH2 0x238A JUMPI RETURNDATASIZE PUSH1 0x0 DUP1 RETURNDATACOPY RETURNDATASIZE PUSH1 0x0 REVERT JUMPDEST POP POP POP POP PUSH1 0x40 MLOAD RETURNDATASIZE PUSH1 0x20 DUP2 LT ISZERO PUSH2 0x23A0 JUMPI PUSH1 0x0 DUP1 REVERT JUMPDEST POP MLOAD PUSH1 0x0 SWAP1 PUSH1 0x1 PUSH1 0x1 PUSH1 0xA0 SHL SUB AND CALLER EQ PUSH2 0x2413 JUMPI PUSH1 0x40 MLOAD PUSH3 0x461BCD PUSH1 0xE5 SHL DUP2 MSTORE PUSH1 0x20 PUSH1 0x4 DUP3 ADD SWAP1 DUP2 MSTORE DUP3 SLOAD PUSH1 0x2 PUSH1 0x0 NOT PUSH2 0x100 PUSH1 0x1 DUP5 AND ISZERO MUL ADD SWAP1 SWAP2 AND DIV PUSH1 0x24 DUP4 ADD DUP2 SWAP1 MSTORE SWAP1 SWAP2 DUP3 SWAP2 PUSH1 0x44 SWAP1 SWAP2 ADD SWAP1 DUP5 SWAP1 DUP1 ISZERO PUSH2 0x7CA JUMPI DUP1 PUSH1 0x1F LT PUSH2 0x79F JUMPI PUSH2 0x100 DUP1 DUP4 SLOAD DIV MUL DUP4 MSTORE SWAP2 PUSH1 0x20 ADD SWAP2 PUSH2 0x7CA JUMP JUMPDEST POP PUSH1 0xB SLOAD PUSH1 0xFF AND ISZERO ISZERO PUSH1 0x1 EQ PUSH2 0x2470 JUMPI PUSH1 0x40 DUP1 MLOAD PUSH3 0x461BCD PUSH1 0xE5 SHL DUP2 MSTORE PUSH1 0x20 PUSH1 0x4 DUP3 ADD MSTORE PUSH1 0x19 PUSH1 0x24 DUP3 ADD MSTORE PUSH32 0x74696D656C6F636B20616C72656164792064697361626C656400000000000000 PUSH1 0x44 DUP3 ADD MSTORE SWAP1 MLOAD SWAP1 DUP2 SWAP1 SUB PUSH1 0x64 ADD SWAP1 REVERT JUMPDEST PUSH1 0xC SLOAD ISZERO DUP1 ISZERO SWAP1 PUSH2 0x2483 JUMPI POP NUMBER PUSH1 0xC SLOAD GT ISZERO JUMPDEST ISZERO PUSH2 0x2497 JUMPI PUSH1 0xB DUP1 SLOAD PUSH1 0xFF NOT AND SWAP1 SSTORE PUSH2 0x24C9 JUMP JUMPDEST PUSH2 0x24C5 PUSH2 0x16F4 PUSH32 0x0 PUSH1 0x7 PUSH2 0x3B06 JUMP JUMPDEST PUSH1 0xC SSTORE JUMPDEST JUMP JUMPDEST PUSH1 0x1 PUSH1 0x0 SWAP1 SLOAD SWAP1 PUSH2 0x100 EXP SWAP1 DIV PUSH1 0x1 PUSH1 0x1 PUSH1 0xA0 SHL SUB AND PUSH1 0x1 PUSH1 0x1 PUSH1 0xA0 SHL SUB AND PUSH4 0xC340A24 PUSH1 0x40 MLOAD DUP2 PUSH4 0xFFFFFFFF AND PUSH1 0xE0 SHL DUP2 MSTORE PUSH1 0x4 ADD PUSH1 0x20 PUSH1 0x40 MLOAD DUP1 DUP4 SUB DUP2 DUP7 DUP1 EXTCODESIZE ISZERO DUP1 ISZERO PUSH2 0x2519 JUMPI PUSH1 0x0 DUP1 REVERT JUMPDEST POP GAS STATICCALL ISZERO DUP1 ISZERO PUSH2 0x252D JUMPI RETURNDATASIZE PUSH1 0x0 DUP1 RETURNDATACOPY RETURNDATASIZE PUSH1 0x0 REVERT JUMPDEST POP POP POP POP PUSH1 0x40 MLOAD RETURNDATASIZE PUSH1 0x20 DUP2 LT ISZERO PUSH2 0x2543 JUMPI PUSH1 0x0 DUP1 REVERT JUMPDEST POP MLOAD PUSH1 0x0 SWAP1 PUSH1 0x1 PUSH1 0x1 PUSH1 0xA0 SHL SUB AND CALLER EQ PUSH2 0x25B6 JUMPI PUSH1 0x40 MLOAD PUSH3 0x461BCD PUSH1 0xE5 SHL DUP2 MSTORE PUSH1 0x20 PUSH1 0x4 DUP3 ADD SWAP1 DUP2 MSTORE DUP3 SLOAD PUSH1 0x2 PUSH1 0x0 NOT PUSH2 0x100 PUSH1 0x1 DUP5 AND ISZERO MUL ADD SWAP1 SWAP2 AND DIV PUSH1 0x24 DUP4 ADD DUP2 SWAP1 MSTORE SWAP1 SWAP2 DUP3 SWAP2 PUSH1 0x44 SWAP1 SWAP2 ADD SWAP1 DUP5 SWAP1 DUP1 ISZERO PUSH2 0x7CA JUMPI DUP1 PUSH1 0x1F LT PUSH2 0x79F JUMPI PUSH2 0x100 DUP1 DUP4 SLOAD DIV MUL DUP4 MSTORE SWAP2 PUSH1 0x20 ADD SWAP2 PUSH2 0x7CA JUMP JUMPDEST POP PUSH1 0xB SLOAD PUSH2 0x100 SWAP1 DIV PUSH1 0xFF AND ISZERO PUSH2 0x2614 JUMPI PUSH1 0x40 DUP1 MLOAD PUSH3 0x461BCD PUSH1 0xE5 SHL DUP2 MSTORE PUSH1 0x20 PUSH1 0x4 DUP3 ADD MSTORE PUSH1 0x13 PUSH1 0x24 DUP3 ADD MSTORE PUSH32 0x416C726561647920696E697469616C697A656400000000000000000000000000 PUSH1 0x44 DUP3 ADD MSTORE SWAP1 MLOAD SWAP1 DUP2 SWAP1 SUB PUSH1 0x64 ADD SWAP1 REVERT JUMPDEST PUSH1 0xB DUP1 SLOAD PUSH2 0xFF00 NOT PUSH1 0xFF NOT SWAP1 SWAP2 AND PUSH1 0x1 OR AND PUSH2 0x100 OR SWAP1 SSTORE JUMP JUMPDEST PUSH1 0x0 PUSH1 0x9 SLOAD PUSH32 0x0 PUSH1 0x1 PUSH1 0x1 PUSH1 0xA0 SHL SUB AND PUSH4 0x18160DDD PUSH1 0x40 MLOAD DUP2 PUSH4 0xFFFFFFFF AND PUSH1 0xE0 SHL DUP2 MSTORE PUSH1 0x4 ADD PUSH1 0x20 PUSH1 0x40 MLOAD DUP1 DUP4 SUB DUP2 DUP7 DUP1 EXTCODESIZE ISZERO DUP1 ISZERO PUSH2 0x268C JUMPI PUSH1 0x0 DUP1 REVERT JUMPDEST POP GAS STATICCALL ISZERO DUP1 ISZERO PUSH2 0x26A0 JUMPI RETURNDATASIZE PUSH1 0x0 DUP1 RETURNDATACOPY RETURNDATASIZE PUSH1 0x0 REVERT JUMPDEST POP POP POP POP PUSH1 0x40 MLOAD RETURNDATASIZE PUSH1 0x20 DUP2 LT ISZERO PUSH2 0x26B6 JUMPI PUSH1 0x0 DUP1 REVERT JUMPDEST POP MLOAD SUB SWAP1 POP SWAP1 JUMP JUMPDEST PUSH1 0x7 SLOAD DUP2 JUMP JUMPDEST PUSH1 0x0 DUP1 PUSH1 0x60 PUSH1 0x3 PUSH1 0x0 DUP6 PUSH1 0xA DUP2 GT ISZERO PUSH2 0x26D9 JUMPI INVALID JUMPDEST PUSH1 0xA DUP2 GT ISZERO PUSH2 0x26E4 JUMPI INVALID JUMPDEST DUP2 MSTORE PUSH1 0x20 ADD SWAP1 DUP2 MSTORE PUSH1 0x20 ADD PUSH1 0x0 KECCAK256 DUP1 SLOAD DUP1 PUSH1 0x20 MUL PUSH1 0x20 ADD PUSH1 0x40 MLOAD SWAP1 DUP2 ADD PUSH1 0x40 MSTORE DUP1 SWAP3 SWAP2 SWAP1 DUP2 DUP2 MSTORE PUSH1 0x20 ADD DUP3 DUP1 SLOAD DUP1 ISZERO PUSH2 0x2746 JUMPI PUSH1 0x20 MUL DUP3 ADD SWAP2 SWAP1 PUSH1 0x0 MSTORE PUSH1 0x20 PUSH1 0x0 KECCAK256 SWAP1 JUMPDEST DUP2 SLOAD PUSH1 0x1 PUSH1 0x1 PUSH1 0xA0 SHL SUB AND DUP2 MSTORE PUSH1 0x1 SWAP1 SWAP2 ADD SWAP1 PUSH1 0x20 ADD DUP1 DUP4 GT PUSH2 0x2728 JUMPI JUMPDEST POP POP POP POP POP SWAP1 POP PUSH1 0x0 JUMPDEST DUP2 MLOAD DUP2 LT ISZERO PUSH2 0x279B JUMPI DUP2 DUP2 DUP2 MLOAD DUP2 LT PUSH2 0x2765 JUMPI INVALID JUMPDEST PUSH1 0x20 MUL PUSH1 0x20 ADD ADD MLOAD PUSH1 0x1 PUSH1 0x1 PUSH1 0xA0 SHL SUB AND DUP7 PUSH1 0x1 PUSH1 0x1 PUSH1 0xA0 SHL SUB AND EQ ISZERO PUSH2 0x2793 JUMPI PUSH1 0x1 SWAP4 POP SWAP2 POP PUSH2 0x27A5 SWAP1 POP JUMP JUMPDEST PUSH1 0x1 ADD PUSH2 0x2750 JUMP JUMPDEST POP PUSH1 0x0 DUP1 SWAP3 POP SWAP3 POP POP JUMPDEST SWAP3 POP SWAP3 SWAP1 POP JUMP JUMPDEST PUSH1 0x1 PUSH1 0x0 SWAP1 SLOAD SWAP1 PUSH2 0x100 EXP SWAP1 DIV PUSH1 0x1 PUSH1 0x1 PUSH1 0xA0 SHL SUB AND PUSH1 0x1 PUSH1 0x1 PUSH1 0xA0 SHL SUB AND PUSH4 0xC340A24 PUSH1 0x40 MLOAD DUP2 PUSH4 0xFFFFFFFF AND PUSH1 0xE0 SHL DUP2 MSTORE PUSH1 0x4 ADD PUSH1 0x20 PUSH1 0x40 MLOAD DUP1 DUP4 SUB DUP2 DUP7 DUP1 EXTCODESIZE ISZERO DUP1 ISZERO PUSH2 0x27FA JUMPI PUSH1 0x0 DUP1 REVERT JUMPDEST POP GAS STATICCALL ISZERO DUP1 ISZERO PUSH2 0x280E JUMPI RETURNDATASIZE PUSH1 0x0 DUP1 RETURNDATACOPY RETURNDATASIZE PUSH1 0x0 REVERT JUMPDEST POP POP POP POP PUSH1 0x40 MLOAD RETURNDATASIZE PUSH1 0x20 DUP2 LT ISZERO PUSH2 0x2824 JUMPI PUSH1 0x0 DUP1 REVERT JUMPDEST POP MLOAD PUSH1 0x0 SWAP1 PUSH1 0x1 PUSH1 0x1 PUSH1 0xA0 SHL SUB AND CALLER EQ PUSH2 0x2897 JUMPI PUSH1 0x40 MLOAD PUSH3 0x461BCD PUSH1 0xE5 SHL DUP2 MSTORE PUSH1 0x20 PUSH1 0x4 DUP3 ADD SWAP1 DUP2 MSTORE DUP3 SLOAD PUSH1 0x2 PUSH1 0x0 NOT PUSH2 0x100 PUSH1 0x1 DUP5 AND ISZERO MUL ADD SWAP1 SWAP2 AND DIV PUSH1 0x24 DUP4 ADD DUP2 SWAP1 MSTORE SWAP1 SWAP2 DUP3 SWAP2 PUSH1 0x44 SWAP1 SWAP2 ADD SWAP1 DUP5 SWAP1 DUP1 ISZERO PUSH2 0x7CA JUMPI DUP1 PUSH1 0x1F LT PUSH2 0x79F JUMPI PUSH2 0x100 DUP1 DUP4 SLOAD DIV MUL DUP4 MSTORE SWAP2 PUSH1 0x20 ADD SWAP2 PUSH2 0x7CA JUMP JUMPDEST POP PUSH1 0x1 PUSH1 0x1 PUSH1 0xA0 SHL SUB SWAP1 SWAP2 AND PUSH1 0x0 SWAP1 DUP2 MSTORE PUSH1 0x6 PUSH1 0x20 MSTORE PUSH1 0x40 SWAP1 KECCAK256 SSTORE JUMP JUMPDEST PUSH1 0x3 PUSH1 0x20 MSTORE DUP2 PUSH1 0x0 MSTORE PUSH1 0x40 PUSH1 0x0 KECCAK256 DUP2 DUP2 SLOAD DUP2 LT PUSH2 0x28D0 JUMPI PUSH1 0x0 DUP1 REVERT JUMPDEST PUSH1 0x0 SWAP2 DUP3 MSTORE PUSH1 0x20 SWAP1 SWAP2 KECCAK256 ADD SLOAD PUSH1 0x1 PUSH1 0x1 PUSH1 0xA0 SHL SUB AND SWAP2 POP DUP3 SWAP1 POP JUMP JUMPDEST PUSH1 0xB SLOAD PUSH1 0xFF AND DUP2 JUMP JUMPDEST PUSH32 0x0 DUP2 JUMP JUMPDEST PUSH1 0xC SLOAD DUP2 JUMP JUMPDEST PUSH1 0x1 PUSH1 0x1 PUSH1 0xA0 SHL SUB DUP3 AND PUSH1 0x0 SWAP1 DUP2 MSTORE PUSH32 0x91DA3FD0782E51C6B3986E9E672FD566868E71F3DBC2D6C2CD6FBB3E361AF2A7 PUSH1 0x20 MSTORE PUSH1 0x40 DUP2 KECCAK256 SLOAD PUSH1 0xFF AND ISZERO PUSH2 0x29FD JUMPI PUSH1 0x4 PUSH1 0x0 DUP1 JUMPDEST PUSH1 0xA DUP2 GT ISZERO PUSH2 0x2970 JUMPI INVALID JUMPDEST DUP2 MSTORE PUSH1 0x20 DUP1 DUP3 ADD SWAP3 SWAP1 SWAP3 MSTORE PUSH1 0x40 SWAP1 DUP2 ADD PUSH1 0x0 SWAP1 DUP2 KECCAK256 CALLER DUP3 MSTORE SWAP1 SWAP3 MSTORE SWAP1 KECCAK256 SLOAD PUSH1 0xE SWAP1 PUSH1 0xFF AND PUSH2 0x29F7 JUMPI PUSH1 0x40 MLOAD PUSH3 0x461BCD PUSH1 0xE5 SHL DUP2 MSTORE PUSH1 0x20 PUSH1 0x4 DUP3 ADD SWAP1 DUP2 MSTORE DUP3 SLOAD PUSH1 0x2 PUSH1 0x0 NOT PUSH2 0x100 PUSH1 0x1 DUP5 AND ISZERO MUL ADD SWAP1 SWAP2 AND DIV PUSH1 0x24 DUP4 ADD DUP2 SWAP1 MSTORE SWAP1 SWAP2 DUP3 SWAP2 PUSH1 0x44 SWAP1 SWAP2 ADD SWAP1 DUP5 SWAP1 DUP1 ISZERO PUSH2 0x7CA JUMPI DUP1 PUSH1 0x1F LT PUSH2 0x79F JUMPI PUSH2 0x100 DUP1 DUP4 SLOAD DIV MUL DUP4 MSTORE SWAP2 PUSH1 0x20 ADD SWAP2 PUSH2 0x7CA JUMP JUMPDEST POP PUSH2 0x2AA8 JUMP JUMPDEST PUSH1 0x1 PUSH1 0x1 PUSH1 0xA0 SHL SUB DUP4 AND PUSH1 0x0 SWAP1 DUP2 MSTORE PUSH32 0x4CDE762EF08B6B6C5DED8E8C4C0B3F4E5C9AD7342C88FCC93681B4588B73F05 PUSH1 0x20 MSTORE PUSH1 0x40 SWAP1 KECCAK256 SLOAD PUSH1 0xFF AND ISZERO PUSH2 0x2A47 JUMPI PUSH1 0x4 PUSH1 0x0 DUP2 PUSH2 0x2965 JUMP JUMPDEST PUSH1 0x40 MLOAD PUSH3 0x461BCD PUSH1 0xE5 SHL DUP2 MSTORE PUSH1 0x20 PUSH1 0x4 DUP3 ADD SWAP1 DUP2 MSTORE PUSH1 0xF DUP1 SLOAD PUSH1 0x2 PUSH1 0x0 NOT PUSH2 0x100 PUSH1 0x1 DUP5 AND ISZERO MUL ADD SWAP1 SWAP2 AND DIV PUSH1 0x24 DUP5 ADD DUP2 SWAP1 MSTORE SWAP1 SWAP3 DUP3 SWAP2 PUSH1 0x44 SWAP1 SWAP2 ADD SWAP1 DUP5 SWAP1 DUP1 ISZERO PUSH2 0x7CA JUMPI DUP1 PUSH1 0x1F LT PUSH2 0x79F JUMPI PUSH2 0x100 DUP1 DUP4 SLOAD DIV MUL DUP4 MSTORE SWAP2 PUSH1 0x20 ADD SWAP2 PUSH2 0x7CA JUMP JUMPDEST PUSH2 0x2ABD PUSH1 0x1 PUSH1 0x1 PUSH1 0xA0 SHL SUB DUP5 AND CALLER ADDRESS DUP8 PUSH2 0x3B5F JUMP JUMPDEST PUSH1 0x0 PUSH2 0x2AC9 DUP5 DUP7 PUSH2 0x3192 JUMP JUMPDEST SWAP1 POP PUSH2 0x2AD5 DUP2 DUP5 PUSH2 0x38CB JUMP JUMPDEST SWAP2 POP PUSH32 0x0 PUSH1 0x1 PUSH1 0x1 PUSH1 0xA0 SHL SUB AND PUSH4 0x40C10F19 CALLER DUP5 PUSH1 0x40 MLOAD DUP4 PUSH4 0xFFFFFFFF AND PUSH1 0xE0 SHL DUP2 MSTORE PUSH1 0x4 ADD DUP1 DUP4 PUSH1 0x1 PUSH1 0x1 PUSH1 0xA0 SHL SUB AND DUP2 MSTORE PUSH1 0x20 ADD DUP3 DUP2 MSTORE PUSH1 0x20 ADD SWAP3 POP POP POP PUSH1 0x0 PUSH1 0x40 MLOAD DUP1 DUP4 SUB DUP2 PUSH1 0x0 DUP8 DUP1 EXTCODESIZE ISZERO DUP1 ISZERO PUSH2 0x2B4E JUMPI PUSH1 0x0 DUP1 REVERT JUMPDEST POP GAS CALL ISZERO DUP1 ISZERO PUSH2 0x2B62 JUMPI RETURNDATASIZE PUSH1 0x0 DUP1 RETURNDATACOPY RETURNDATASIZE PUSH1 0x0 REVERT JUMPDEST POP POP PUSH1 0x7 SLOAD PUSH2 0x2B74 SWAP3 POP SWAP1 POP DUP3 PUSH2 0x3AAC JUMP JUMPDEST PUSH1 0x7 SSTORE PUSH1 0x40 DUP1 MLOAD DUP7 DUP2 MSTORE PUSH1 0x20 DUP2 ADD DUP4 SWAP1 MSTORE DUP2 MLOAD PUSH1 0x1 PUSH1 0x1 PUSH1 0xA0 SHL SUB DUP8 AND SWAP3 PUSH32 0x90890809C654F11D6E72A28FA60149770A0D11EC6C92319D6CEB2BB0A4EA1A15 SWAP3 DUP3 SWAP1 SUB ADD SWAP1 LOG2 POP SWAP4 SWAP3 POP POP POP JUMP JUMPDEST PUSH1 0x1 SLOAD PUSH1 0x1 PUSH1 0x1 PUSH1 0xA0 SHL SUB AND DUP2 JUMP JUMPDEST PUSH32 0x0 DUP2 JUMP JUMPDEST CALLER PUSH1 0x0 SWAP1 DUP2 MSTORE PUSH32 0xBEB3BAD75134CB432E5707980E3245C52C5998A1125EE30F2F0DBF3925B1E551 PUSH1 0x20 MSTORE PUSH1 0x40 SWAP1 KECCAK256 SLOAD PUSH1 0xE SWAP1 PUSH1 0xFF AND PUSH2 0x2C8D JUMPI PUSH1 0x40 MLOAD PUSH3 0x461BCD PUSH1 0xE5 SHL DUP2 MSTORE PUSH1 0x20 PUSH1 0x4 DUP3 ADD SWAP1 DUP2 MSTORE DUP3 SLOAD PUSH1 0x2 PUSH1 0x0 NOT PUSH2 0x100 PUSH1 0x1 DUP5 AND ISZERO MUL ADD SWAP1 SWAP2 AND DIV PUSH1 0x24 DUP4 ADD DUP2 SWAP1 MSTORE SWAP1 SWAP2 DUP3 SWAP2 PUSH1 0x44 SWAP1 SWAP2 ADD SWAP1 DUP5 SWAP1 DUP1 ISZERO PUSH2 0x7CA JUMPI DUP1 PUSH1 0x1F LT PUSH2 0x79F JUMPI PUSH2 0x100 DUP1 DUP4 SLOAD DIV MUL DUP4 MSTORE SWAP2 PUSH1 0x20 ADD SWAP2 PUSH2 0x7CA JUMP JUMPDEST POP PUSH1 0x1 PUSH1 0x1 PUSH1 0xA0 SHL SUB DUP2 AND PUSH1 0x0 SWAP1 DUP2 MSTORE PUSH32 0x91DA3FD0782E51C6B3986E9E672FD566868E71F3DBC2D6C2CD6FBB3E361AF2A7 PUSH1 0x20 MSTORE PUSH1 0x40 SWAP1 KECCAK256 SLOAD PUSH1 0xD SWAP1 PUSH1 0xFF AND PUSH2 0x2D2F JUMPI PUSH1 0x40 MLOAD PUSH3 0x461BCD PUSH1 0xE5 SHL DUP2 MSTORE PUSH1 0x20 PUSH1 0x4 DUP3 ADD SWAP1 DUP2 MSTORE DUP3 SLOAD PUSH1 0x2 PUSH1 0x0 NOT PUSH2 0x100 PUSH1 0x1 DUP5 AND ISZERO MUL ADD SWAP1 SWAP2 AND DIV PUSH1 0x24 DUP4 ADD DUP2 SWAP1 MSTORE SWAP1 SWAP2 DUP3 SWAP2 PUSH1 0x44 SWAP1 SWAP2 ADD SWAP1 DUP5 SWAP1 DUP1 ISZERO PUSH2 0x7CA JUMPI DUP1 PUSH1 0x1F LT PUSH2 0x79F JUMPI PUSH2 0x100 DUP1 DUP4 SLOAD DIV MUL DUP4 MSTORE SWAP2 PUSH1 0x20 ADD SWAP2 PUSH2 0x7CA JUMP JUMPDEST POP PUSH2 0x2D45 PUSH1 0x1 PUSH1 0x1 PUSH1 0xA0 SHL SUB DUP3 AND CALLER ADDRESS DUP6 PUSH2 0x3B5F JUMP JUMPDEST PUSH1 0x0 PUSH2 0x2D51 DUP3 DUP5 PUSH2 0x3192 JUMP JUMPDEST PUSH1 0x2 SLOAD PUSH1 0x40 DUP1 MLOAD PUSH4 0xAE5C6CD3 PUSH1 0xE0 SHL DUP2 MSTORE PUSH1 0x4 DUP2 ADD DUP5 SWAP1 MSTORE CALLER PUSH1 0x24 DUP3 ADD MSTORE PUSH1 0x0 PUSH1 0x44 DUP3 ADD DUP2 SWAP1 MSTORE SWAP2 MLOAD SWAP4 SWAP5 POP PUSH1 0x1 PUSH1 0x1 PUSH1 0xA0 SHL SUB SWAP1 SWAP3 AND SWAP3 PUSH4 0xAE5C6CD3 SWAP3 PUSH1 0x64 DUP1 DUP3 ADD SWAP4 SWAP3 SWAP2 DUP3 SWAP1 SUB ADD DUP2 DUP4 DUP8 DUP1 EXTCODESIZE ISZERO DUP1 ISZERO PUSH2 0x2DAC JUMPI PUSH1 0x0 DUP1 REVERT JUMPDEST POP GAS CALL ISZERO DUP1 ISZERO PUSH2 0x2DC0 JUMPI RETURNDATASIZE PUSH1 0x0 DUP1 RETURNDATACOPY RETURNDATASIZE PUSH1 0x0 REVERT JUMPDEST POP POP PUSH1 0x8 SLOAD PUSH2 0x2DD2 SWAP3 POP SWAP1 POP DUP3 PUSH2 0x38CB JUMP JUMPDEST PUSH1 0x8 SSTORE PUSH1 0x7 SLOAD PUSH2 0x2DE2 SWAP1 DUP3 PUSH2 0x3AAC JUMP JUMPDEST PUSH1 0x7 SSTORE PUSH1 0x40 DUP1 MLOAD DUP5 DUP2 MSTORE PUSH1 0x20 DUP2 ADD DUP4 SWAP1 MSTORE DUP2 MLOAD PUSH1 0x1 PUSH1 0x1 PUSH1 0xA0 SHL SUB DUP6 AND SWAP3 CALLER SWAP3 PUSH32 0xC6D98EECFC9C78AB62C89A82950079B54874749F1F6F24090F7ACC758BC2F309 SWAP3 SWAP1 DUP2 SWAP1 SUB SWAP1 SWAP2 ADD SWAP1 LOG3 POP POP POP JUMP JUMPDEST PUSH1 0x1 PUSH1 0x0 SWAP1 SLOAD SWAP1 PUSH2 0x100 EXP SWAP1 DIV PUSH1 0x1 PUSH1 0x1 PUSH1 0xA0 SHL SUB AND PUSH1 0x1 PUSH1 0x1 PUSH1 0xA0 SHL SUB AND PUSH4 0xC340A24 PUSH1 0x40 MLOAD DUP2 PUSH4 0xFFFFFFFF AND PUSH1 0xE0 SHL DUP2 MSTORE PUSH1 0x4 ADD PUSH1 0x20 PUSH1 0x40 MLOAD DUP1 DUP4 SUB DUP2 DUP7 DUP1 EXTCODESIZE ISZERO DUP1 ISZERO PUSH2 0x2E80 JUMPI PUSH1 0x0 DUP1 REVERT JUMPDEST POP GAS STATICCALL ISZERO DUP1 ISZERO PUSH2 0x2E94 JUMPI RETURNDATASIZE PUSH1 0x0 DUP1 RETURNDATACOPY RETURNDATASIZE PUSH1 0x0 REVERT JUMPDEST POP POP POP POP PUSH1 0x40 MLOAD RETURNDATASIZE PUSH1 0x20 DUP2 LT ISZERO PUSH2 0x2EAA JUMPI PUSH1 0x0 DUP1 REVERT JUMPDEST POP MLOAD PUSH1 0x0 SWAP1 PUSH1 0x1 PUSH1 0x1 PUSH1 0xA0 SHL SUB AND CALLER EQ PUSH2 0x2F1D JUMPI PUSH1 0x40 MLOAD PUSH3 0x461BCD PUSH1 0xE5 SHL DUP2 MSTORE PUSH1 0x20 PUSH1 0x4 DUP3 ADD SWAP1 DUP2 MSTORE DUP3 SLOAD PUSH1 0x2 PUSH1 0x0 NOT PUSH2 0x100 PUSH1 0x1 DUP5 AND ISZERO MUL ADD SWAP1 SWAP2 AND DIV PUSH1 0x24 DUP4 ADD DUP2 SWAP1 MSTORE SWAP1 SWAP2 DUP3 SWAP2 PUSH1 0x44 SWAP1 SWAP2 ADD SWAP1 DUP5 SWAP1 DUP1 ISZERO PUSH2 0x7CA JUMPI DUP1 PUSH1 0x1F LT PUSH2 0x79F JUMPI PUSH2 0x100 DUP1 DUP4 SLOAD DIV MUL DUP4 MSTORE SWAP2 PUSH1 0x20 ADD SWAP2 PUSH2 0x7CA JUMP JUMPDEST POP PUSH1 0xB SLOAD PUSH1 0xFF AND ISZERO PUSH2 0x2F76 JUMPI PUSH1 0x40 DUP1 MLOAD PUSH3 0x461BCD PUSH1 0xE5 SHL DUP2 MSTORE PUSH1 0x20 PUSH1 0x4 DUP3 ADD MSTORE PUSH1 0x11 PUSH1 0x24 DUP3 ADD MSTORE PUSH32 0x55736520717565756554696D656C6F636B000000000000000000000000000000 PUSH1 0x44 DUP3 ADD MSTORE SWAP1 MLOAD SWAP1 DUP2 SWAP1 SUB PUSH1 0x64 ADD SWAP1 REVERT JUMPDEST PUSH1 0x9 DUP4 PUSH1 0xA DUP2 GT ISZERO PUSH2 0x2F84 JUMPI INVALID JUMPDEST EQ ISZERO PUSH2 0x2FAA JUMPI PUSH1 0x2 DUP1 SLOAD PUSH1 0x1 PUSH1 0x1 PUSH1 0xA0 SHL SUB NOT AND PUSH1 0x1 PUSH1 0x1 PUSH1 0xA0 SHL SUB DUP5 AND OR SWAP1 SSTORE PUSH2 0x313D JUMP JUMPDEST PUSH1 0x1 PUSH1 0x4 PUSH1 0x0 DUP6 PUSH1 0xA DUP2 GT ISZERO PUSH2 0x2FBC JUMPI INVALID JUMPDEST PUSH1 0xA DUP2 GT ISZERO PUSH2 0x2FC7 JUMPI INVALID JUMPDEST DUP2 MSTORE PUSH1 0x20 DUP1 DUP3 ADD SWAP3 SWAP1 SWAP3 MSTORE PUSH1 0x40 SWAP1 DUP2 ADD PUSH1 0x0 SWAP1 DUP2 KECCAK256 PUSH1 0x1 PUSH1 0x1 PUSH1 0xA0 SHL SUB DUP8 AND DUP3 MSTORE SWAP1 SWAP3 MSTORE SWAP1 KECCAK256 DUP1 SLOAD PUSH1 0xFF NOT AND SWAP2 ISZERO ISZERO SWAP2 SWAP1 SWAP2 OR SWAP1 SSTORE PUSH1 0x5 DUP4 PUSH1 0xA DUP2 GT ISZERO PUSH2 0x300A JUMPI INVALID JUMPDEST EQ ISZERO PUSH2 0x303F JUMPI PUSH1 0x1 PUSH1 0x1 PUSH1 0xA0 SHL SUB DUP3 DUP2 AND PUSH1 0x0 SWAP1 DUP2 MSTORE PUSH1 0x5 PUSH1 0x20 MSTORE PUSH1 0x40 SWAP1 KECCAK256 DUP1 SLOAD PUSH1 0x1 PUSH1 0x1 PUSH1 0xA0 SHL SUB NOT AND SWAP2 DUP4 AND SWAP2 SWAP1 SWAP2 OR SWAP1 SSTORE JUMPDEST PUSH1 0x0 PUSH2 0x304B DUP4 DUP6 PUSH2 0x26C4 JUMP JUMPDEST POP SWAP1 POP DUP1 PUSH2 0x313B JUMPI PUSH1 0x3 PUSH1 0x0 DUP6 PUSH1 0xA DUP2 GT ISZERO PUSH2 0x3063 JUMPI INVALID JUMPDEST PUSH1 0xA DUP2 GT ISZERO PUSH2 0x306E JUMPI INVALID JUMPDEST DUP2 MSTORE PUSH1 0x20 DUP1 DUP3 ADD SWAP3 SWAP1 SWAP3 MSTORE PUSH1 0x40 ADD PUSH1 0x0 SWAP1 DUP2 KECCAK256 DUP1 SLOAD PUSH1 0x1 DUP2 ADD DUP3 SSTORE SWAP1 DUP3 MSTORE SWAP2 SWAP1 KECCAK256 ADD DUP1 SLOAD PUSH1 0x1 PUSH1 0x1 PUSH1 0xA0 SHL SUB NOT AND PUSH1 0x1 PUSH1 0x1 PUSH1 0xA0 SHL SUB DUP6 AND OR SWAP1 SSTORE PUSH1 0x5 DUP5 PUSH1 0xA DUP2 GT ISZERO PUSH2 0x30B7 JUMPI INVALID JUMPDEST EQ DUP1 PUSH2 0x30CE JUMPI POP PUSH1 0x2 DUP5 PUSH1 0xA DUP2 GT ISZERO PUSH2 0x30CC JUMPI INVALID JUMPDEST EQ JUMPDEST ISZERO PUSH2 0x313B JUMPI PUSH1 0x0 DUP1 PUSH2 0x30E0 DUP6 DUP8 PUSH2 0x26C4 JUMP JUMPDEST SWAP2 POP SWAP2 POP DUP2 ISZERO PUSH2 0x3138 JUMPI PUSH1 0x3 PUSH1 0x0 DUP8 PUSH1 0xA DUP2 GT ISZERO PUSH2 0x30FA JUMPI INVALID JUMPDEST PUSH1 0xA DUP2 GT ISZERO PUSH2 0x3105 JUMPI INVALID JUMPDEST DUP2 MSTORE PUSH1 0x20 ADD SWAP1 DUP2 MSTORE PUSH1 0x20 ADD PUSH1 0x0 KECCAK256 DUP2 DUP2 SLOAD DUP2 LT PUSH2 0x311E JUMPI INVALID JUMPDEST PUSH1 0x0 SWAP2 DUP3 MSTORE PUSH1 0x20 SWAP1 SWAP2 KECCAK256 ADD DUP1 SLOAD PUSH1 0x1 PUSH1 0x1 PUSH1 0xA0 SHL SUB NOT AND SWAP1 SSTORE JUMPDEST POP POP JUMPDEST POP JUMPDEST DUP3 PUSH1 0xA DUP2 GT ISZERO PUSH2 0x3149 JUMPI INVALID JUMPDEST PUSH1 0x40 DUP1 MLOAD PUSH1 0x1 PUSH1 0x1 PUSH1 0xA0 SHL SUB DUP6 AND DUP2 MSTORE PUSH1 0x1 PUSH1 0x20 DUP3 ADD MSTORE DUP2 MLOAD PUSH32 0x7531A7AEFE3985500C4DEC2DCB6049A708F14C6A8A9022B435B8841BDB8E1713 SWAP3 SWAP2 DUP2 SWAP1 SUB SWAP1 SWAP2 ADD SWAP1 LOG2 POP POP POP JUMP JUMPDEST PUSH1 0x0 PUSH2 0x32C2 DUP4 PUSH1 0x1 PUSH1 0x1 PUSH1 0xA0 SHL SUB AND PUSH4 0x313CE567 PUSH1 0x40 MLOAD DUP2 PUSH4 0xFFFFFFFF AND PUSH1 0xE0 SHL DUP2 MSTORE PUSH1 0x4 ADD PUSH1 0x20 PUSH1 0x40 MLOAD DUP1 DUP4 SUB DUP2 DUP7 DUP1 EXTCODESIZE ISZERO DUP1 ISZERO PUSH2 0x31D0 JUMPI PUSH1 0x0 DUP1 REVERT JUMPDEST POP GAS STATICCALL ISZERO DUP1 ISZERO PUSH2 0x31E4 JUMPI RETURNDATASIZE PUSH1 0x0 DUP1 RETURNDATACOPY RETURNDATASIZE PUSH1 0x0 REVERT JUMPDEST POP POP POP POP PUSH1 0x40 MLOAD RETURNDATASIZE PUSH1 0x20 DUP2 LT ISZERO PUSH2 0x31FA JUMPI PUSH1 0x0 DUP1 REVERT JUMPDEST POP MLOAD PUSH1 0x40 DUP1 MLOAD PUSH32 0x313CE56700000000000000000000000000000000000000000000000000000000 DUP2 MSTORE SWAP1 MLOAD PUSH1 0xFF SWAP1 SWAP3 AND PUSH1 0xA EXP SWAP2 PUSH2 0x32BC SWAP2 PUSH1 0x1 PUSH1 0x1 PUSH1 0xA0 SHL SUB PUSH32 0x0 AND SWAP2 PUSH4 0x313CE567 SWAP2 PUSH1 0x4 DUP1 DUP3 ADD SWAP3 PUSH1 0x20 SWAP3 SWAP1 SWAP2 SWAP1 DUP3 SWAP1 SUB ADD DUP2 DUP7 DUP1 EXTCODESIZE ISZERO DUP1 ISZERO PUSH2 0x3283 JUMPI PUSH1 0x0 DUP1 REVERT JUMPDEST POP GAS STATICCALL ISZERO DUP1 ISZERO PUSH2 0x3297 JUMPI RETURNDATASIZE PUSH1 0x0 DUP1 RETURNDATACOPY RETURNDATASIZE PUSH1 0x0 REVERT JUMPDEST POP POP POP POP PUSH1 0x40 MLOAD RETURNDATASIZE PUSH1 0x20 DUP2 LT ISZERO PUSH2 0x32AD JUMPI PUSH1 0x0 DUP1 REVERT JUMPDEST POP MLOAD DUP6 SWAP1 PUSH1 0xFF AND PUSH1 0xA EXP PUSH2 0x3B06 JUMP JUMPDEST SWAP1 PUSH2 0x3D00 JUMP JUMPDEST PUSH1 0x1 PUSH1 0x1 PUSH1 0xA0 SHL SUB DUP5 AND PUSH1 0x0 SWAP1 DUP2 MSTORE PUSH32 0x4CDE762EF08B6B6C5DED8E8C4C0B3F4E5C9AD7342C88FCC93681B4588B73F05 PUSH1 0x20 MSTORE PUSH1 0x40 SWAP1 KECCAK256 SLOAD SWAP1 SWAP2 POP PUSH1 0xFF AND ISZERO PUSH2 0x33AE JUMPI PUSH1 0x1 PUSH1 0x1 PUSH1 0xA0 SHL SUB DUP1 DUP5 AND PUSH1 0x0 DUP2 DUP2 MSTORE PUSH1 0x5 PUSH1 0x20 SWAP1 DUP2 MSTORE PUSH1 0x40 SWAP2 DUP3 SWAP1 KECCAK256 SLOAD DUP3 MLOAD PUSH32 0x4249719F00000000000000000000000000000000000000000000000000000000 DUP2 MSTORE PUSH1 0x4 DUP2 ADD SWAP5 SWAP1 SWAP5 MSTORE PUSH1 0x24 DUP5 ADD DUP8 SWAP1 MSTORE SWAP2 MLOAD SWAP2 SWAP1 SWAP4 AND SWAP3 PUSH4 0x4249719F SWAP3 PUSH1 0x44 DUP1 DUP3 ADD SWAP4 SWAP2 DUP3 SWAP1 SUB ADD DUP2 DUP7 DUP1 EXTCODESIZE ISZERO DUP1 ISZERO PUSH2 0x337F JUMPI PUSH1 0x0 DUP1 REVERT JUMPDEST POP GAS STATICCALL ISZERO DUP1 ISZERO PUSH2 0x3393 JUMPI RETURNDATASIZE PUSH1 0x0 DUP1 RETURNDATACOPY RETURNDATASIZE PUSH1 0x0 REVERT JUMPDEST POP POP POP POP PUSH1 0x40 MLOAD RETURNDATASIZE PUSH1 0x20 DUP2 LT ISZERO PUSH2 0x33A9 JUMPI PUSH1 0x0 DUP1 REVERT JUMPDEST POP MLOAD SWAP1 POP JUMPDEST SWAP3 SWAP2 POP POP JUMP JUMPDEST PUSH1 0x8 SLOAD DUP2 JUMP JUMPDEST PUSH1 0xB SLOAD PUSH1 0xFF AND ISZERO ISZERO PUSH1 0x1 EQ PUSH2 0x3416 JUMPI PUSH1 0x40 DUP1 MLOAD PUSH3 0x461BCD PUSH1 0xE5 SHL DUP2 MSTORE PUSH1 0x20 PUSH1 0x4 DUP3 ADD DUP2 SWAP1 MSTORE PUSH1 0x24 DUP3 ADD MSTORE PUSH32 0x54696D656C6F636B2069732064697361626C65642C2075736520656E61626C65 PUSH1 0x44 DUP3 ADD MSTORE SWAP1 MLOAD SWAP1 DUP2 SWAP1 SUB PUSH1 0x64 ADD SWAP1 REVERT JUMPDEST PUSH2 0x341E PUSH2 0x3E55 JUMP JUMPDEST PUSH1 0xA DUP3 DUP2 SLOAD DUP2 LT PUSH2 0x342B JUMPI INVALID JUMPDEST PUSH1 0x0 SWAP2 DUP3 MSTORE PUSH1 0x20 SWAP1 SWAP2 KECCAK256 PUSH1 0x40 DUP1 MLOAD PUSH1 0xC0 DUP2 ADD SWAP1 SWAP2 MSTORE PUSH1 0x4 SWAP1 SWAP3 MUL ADD DUP1 SLOAD DUP3 SWAP1 PUSH1 0xFF AND PUSH1 0xA DUP2 GT ISZERO PUSH2 0x3458 JUMPI INVALID JUMPDEST PUSH1 0xA DUP2 GT ISZERO PUSH2 0x3463 JUMPI INVALID JUMPDEST DUP2 MSTORE DUP2 SLOAD PUSH1 0x1 PUSH1 0x1 PUSH1 0xA0 SHL SUB PUSH2 0x100 SWAP2 DUP3 SWAP1 DIV DUP2 AND PUSH1 0x20 DUP5 ADD MSTORE PUSH1 0x1 DUP5 ADD SLOAD AND PUSH1 0x40 DUP4 ADD MSTORE PUSH1 0x2 DUP4 ADD SLOAD PUSH1 0x60 DUP4 ADD MSTORE PUSH1 0x3 SWAP1 SWAP3 ADD SLOAD PUSH1 0xFF DUP1 DUP3 AND ISZERO ISZERO PUSH1 0x80 DUP1 DUP6 ADD SWAP2 SWAP1 SWAP2 MSTORE SWAP4 SWAP1 SWAP2 DIV AND ISZERO ISZERO PUSH1 0xA0 SWAP1 SWAP2 ADD MSTORE DUP2 ADD MLOAD SWAP1 SWAP2 POP ISZERO PUSH2 0x350D JUMPI PUSH1 0x40 DUP1 MLOAD PUSH3 0x461BCD PUSH1 0xE5 SHL DUP2 MSTORE PUSH1 0x20 PUSH1 0x4 DUP3 ADD MSTORE PUSH1 0x19 PUSH1 0x24 DUP3 ADD MSTORE PUSH32 0x416374696F6E20686173206265656E206E756C6C696669656400000000000000 PUSH1 0x44 DUP3 ADD MSTORE SWAP1 MLOAD SWAP1 DUP2 SWAP1 SUB PUSH1 0x64 ADD SWAP1 REVERT JUMPDEST DUP1 PUSH1 0xA0 ADD MLOAD ISZERO PUSH2 0x3564 JUMPI PUSH1 0x40 DUP1 MLOAD PUSH3 0x461BCD PUSH1 0xE5 SHL DUP2 MSTORE PUSH1 0x20 PUSH1 0x4 DUP3 ADD DUP2 SWAP1 MSTORE PUSH1 0x24 DUP3 ADD MSTORE PUSH32 0x416374696F6E2068617320616C7265616479206265656E206578656375746564 PUSH1 0x44 DUP3 ADD MSTORE SWAP1 MLOAD SWAP1 DUP2 SWAP1 SUB PUSH1 0x64 ADD SWAP1 REVERT JUMPDEST DUP1 PUSH1 0x60 ADD MLOAD NUMBER LT ISZERO PUSH2 0x35BD JUMPI PUSH1 0x40 DUP1 MLOAD PUSH3 0x461BCD PUSH1 0xE5 SHL DUP2 MSTORE PUSH1 0x20 PUSH1 0x4 DUP3 ADD MSTORE PUSH1 0x15 PUSH1 0x24 DUP3 ADD MSTORE PUSH32 0x54696D656C6F636B206E6F7420636F6D706C6574650000000000000000000000 PUSH1 0x44 DUP3 ADD MSTORE SWAP1 MLOAD SWAP1 DUP2 SWAP1 SUB PUSH1 0x64 ADD SWAP1 REVERT JUMPDEST PUSH1 0x9 DUP2 MLOAD PUSH1 0xA DUP2 GT ISZERO PUSH2 0x35CC JUMPI INVALID JUMPDEST EQ ISZERO PUSH2 0x35FB JUMPI PUSH1 0x20 DUP2 ADD MLOAD PUSH1 0x2 DUP1 SLOAD PUSH1 0x1 PUSH1 0x1 PUSH1 0xA0 SHL SUB NOT AND PUSH1 0x1 PUSH1 0x1 PUSH1 0xA0 SHL SUB SWAP1 SWAP3 AND SWAP2 SWAP1 SWAP2 OR SWAP1 SSTORE PUSH2 0x3833 JUMP JUMPDEST PUSH1 0x1 PUSH1 0x4 PUSH1 0x0 DUP4 PUSH1 0x0 ADD MLOAD PUSH1 0xA DUP2 GT ISZERO PUSH2 0x3611 JUMPI INVALID JUMPDEST PUSH1 0xA DUP2 GT ISZERO PUSH2 0x361C JUMPI INVALID JUMPDEST DUP2 MSTORE PUSH1 0x20 DUP1 DUP3 ADD SWAP3 SWAP1 SWAP3 MSTORE PUSH1 0x40 SWAP1 DUP2 ADD PUSH1 0x0 SWAP1 DUP2 KECCAK256 DUP6 DUP5 ADD MLOAD PUSH1 0x1 PUSH1 0x1 PUSH1 0xA0 SHL SUB AND DUP3 MSTORE SWAP1 SWAP3 MSTORE SWAP1 KECCAK256 DUP1 SLOAD PUSH1 0xFF NOT AND SWAP2 ISZERO ISZERO SWAP2 SWAP1 SWAP2 OR SWAP1 SSTORE PUSH1 0x5 DUP2 MLOAD PUSH1 0xA DUP2 GT ISZERO PUSH2 0x3663 JUMPI INVALID JUMPDEST EQ ISZERO PUSH2 0x36A4 JUMPI PUSH1 0x40 DUP2 DUP2 ADD MLOAD PUSH1 0x20 DUP1 DUP5 ADD MLOAD PUSH1 0x1 PUSH1 0x1 PUSH1 0xA0 SHL SUB SWAP1 DUP2 AND PUSH1 0x0 SWAP1 DUP2 MSTORE PUSH1 0x5 SWAP1 SWAP3 MSTORE SWAP3 SWAP1 KECCAK256 DUP1 SLOAD PUSH1 0x1 PUSH1 0x1 PUSH1 0xA0 SHL SUB NOT AND SWAP3 SWAP1 SWAP2 AND SWAP2 SWAP1 SWAP2 OR SWAP1 SSTORE JUMPDEST PUSH1 0x0 PUSH2 0x36B8 DUP3 PUSH1 0x20 ADD MLOAD DUP4 PUSH1 0x0 ADD MLOAD PUSH2 0x26C4 JUMP JUMPDEST POP SWAP1 POP DUP1 PUSH2 0x3831 JUMPI PUSH1 0x3 PUSH1 0x0 DUP4 PUSH1 0x0 ADD MLOAD PUSH1 0xA DUP2 GT ISZERO PUSH2 0x36D4 JUMPI INVALID JUMPDEST PUSH1 0xA DUP2 GT ISZERO PUSH2 0x36DF JUMPI INVALID JUMPDEST DUP2 MSTORE PUSH1 0x20 DUP1 DUP3 ADD SWAP3 SWAP1 SWAP3 MSTORE PUSH1 0x40 ADD PUSH1 0x0 SWAP1 DUP2 KECCAK256 DUP5 DUP4 ADD MLOAD DUP2 SLOAD PUSH1 0x1 DUP2 ADD DUP4 SSTORE SWAP2 DUP4 MSTORE SWAP3 SWAP1 SWAP2 KECCAK256 ADD DUP1 SLOAD PUSH1 0x1 PUSH1 0x1 PUSH1 0xA0 SHL SUB NOT AND PUSH1 0x1 PUSH1 0x1 PUSH1 0xA0 SHL SUB SWAP1 SWAP3 AND SWAP2 SWAP1 SWAP2 OR SWAP1 SSTORE PUSH1 0x5 DUP3 MLOAD PUSH1 0xA DUP2 GT ISZERO PUSH2 0x3732 JUMPI INVALID JUMPDEST EQ ISZERO PUSH2 0x37AC JUMPI PUSH1 0x0 DUP1 PUSH2 0x374A DUP5 PUSH1 0x20 ADD MLOAD PUSH1 0x2 PUSH2 0x26C4 JUMP JUMPDEST SWAP2 POP SWAP2 POP DUP2 ISZERO PUSH2 0x37A5 JUMPI PUSH1 0x2 PUSH1 0x0 MSTORE PUSH1 0x3 PUSH1 0x20 MSTORE PUSH32 0xC3A24B0501BD2C13A7E57F2DB4369EC4C223447539FC0724A9D55AC4A06EBD4D DUP1 SLOAD DUP3 SWAP1 DUP2 LT PUSH2 0x378B JUMPI INVALID JUMPDEST PUSH1 0x0 SWAP2 DUP3 MSTORE PUSH1 0x20 SWAP1 SWAP2 KECCAK256 ADD DUP1 SLOAD PUSH1 0x1 PUSH1 0x1 PUSH1 0xA0 SHL SUB NOT AND SWAP1 SSTORE JUMPDEST POP POP PUSH2 0x3831 JUMP JUMPDEST PUSH1 0x2 DUP3 MLOAD PUSH1 0xA DUP2 GT ISZERO PUSH2 0x37BB JUMPI INVALID JUMPDEST EQ ISZERO PUSH2 0x3831 JUMPI PUSH1 0x0 DUP1 PUSH2 0x37D3 DUP5 PUSH1 0x20 ADD MLOAD PUSH1 0x5 PUSH2 0x26C4 JUMP JUMPDEST SWAP2 POP SWAP2 POP DUP2 ISZERO PUSH2 0x382E JUMPI PUSH1 0x5 PUSH1 0x0 MSTORE PUSH1 0x3 PUSH1 0x20 MSTORE PUSH32 0x405AAD32E1ADBAC89BB7F176E338B8FC6E994CA210C9BB7BDCA249B465942250 DUP1 SLOAD DUP3 SWAP1 DUP2 LT PUSH2 0x3814 JUMPI INVALID JUMPDEST PUSH1 0x0 SWAP2 DUP3 MSTORE PUSH1 0x20 SWAP1 SWAP2 KECCAK256 ADD DUP1 SLOAD PUSH1 0x1 PUSH1 0x1 PUSH1 0xA0 SHL SUB NOT AND SWAP1 SSTORE JUMPDEST POP POP JUMPDEST POP JUMPDEST PUSH1 0x1 PUSH1 0xA DUP4 DUP2 SLOAD DUP2 LT PUSH2 0x3842 JUMPI INVALID JUMPDEST PUSH1 0x0 SWAP2 DUP3 MSTORE PUSH1 0x20 SWAP1 SWAP2 KECCAK256 PUSH1 0x3 PUSH1 0x4 SWAP1 SWAP3 MUL ADD ADD DUP1 SLOAD SWAP2 ISZERO ISZERO PUSH2 0x100 MUL PUSH2 0xFF00 NOT SWAP1 SWAP3 AND SWAP2 SWAP1 SWAP2 OR SWAP1 SSTORE DUP1 MLOAD PUSH1 0xA DUP2 GT ISZERO PUSH2 0x3878 JUMPI INVALID JUMPDEST PUSH32 0x7531A7AEFE3985500C4DEC2DCB6049A708F14C6A8A9022B435B8841BDB8E1713 DUP3 PUSH1 0x20 ADD MLOAD PUSH1 0x1 PUSH1 0x40 MLOAD DUP1 DUP4 PUSH1 0x1 PUSH1 0x1 PUSH1 0xA0 SHL SUB AND DUP2 MSTORE PUSH1 0x20 ADD DUP3 ISZERO ISZERO DUP2 MSTORE PUSH1 0x20 ADD SWAP3 POP POP POP PUSH1 0x40 MLOAD DUP1 SWAP2 SUB SWAP1 LOG2 POP POP JUMP JUMPDEST PUSH1 0x0 PUSH2 0x390D DUP4 DUP4 PUSH1 0x40 MLOAD DUP1 PUSH1 0x40 ADD PUSH1 0x40 MSTORE DUP1 PUSH1 0x1E DUP2 MSTORE PUSH1 0x20 ADD PUSH32 0x536166654D6174683A207375627472616374696F6E206F766572666C6F770000 DUP2 MSTORE POP PUSH2 0x3D42 JUMP JUMPDEST SWAP4 SWAP3 POP POP POP JUMP JUMPDEST PUSH1 0x40 DUP1 MLOAD PUSH1 0x1 PUSH1 0x1 PUSH1 0xA0 SHL SUB DUP5 DUP2 AND PUSH1 0x24 DUP4 ADD MSTORE PUSH1 0x44 DUP1 DUP4 ADD DUP6 SWAP1 MSTORE DUP4 MLOAD DUP1 DUP5 SUB SWAP1 SWAP2 ADD DUP2 MSTORE PUSH1 0x64 SWAP1 SWAP3 ADD DUP4 MSTORE PUSH1 0x20 DUP3 ADD DUP1 MLOAD PUSH28 0xFFFFFFFFFFFFFFFFFFFFFFFFFFFFFFFFFFFFFFFFFFFFFFFFFFFFFFFF AND PUSH32 0xA9059CBB00000000000000000000000000000000000000000000000000000000 OR DUP2 MSTORE SWAP3 MLOAD DUP3 MLOAD PUSH1 0x0 SWAP5 PUSH1 0x60 SWAP5 SWAP4 DUP10 AND SWAP4 SWAP3 SWAP2 DUP3 SWAP2 SWAP1 DUP1 DUP4 DUP4 JUMPDEST PUSH1 0x20 DUP4 LT PUSH2 0x39BF JUMPI DUP1 MLOAD DUP3 MSTORE PUSH1 0x1F NOT SWAP1 SWAP3 ADD SWAP2 PUSH1 0x20 SWAP2 DUP3 ADD SWAP2 ADD PUSH2 0x39A0 JUMP JUMPDEST PUSH1 0x1 DUP4 PUSH1 0x20 SUB PUSH2 0x100 EXP SUB DUP1 NOT DUP3 MLOAD AND DUP2 DUP5 MLOAD AND DUP1 DUP3 OR DUP6 MSTORE POP POP POP POP POP POP SWAP1 POP ADD SWAP2 POP POP PUSH1 0x0 PUSH1 0x40 MLOAD DUP1 DUP4 SUB DUP2 PUSH1 0x0 DUP7 GAS CALL SWAP2 POP POP RETURNDATASIZE DUP1 PUSH1 0x0 DUP2 EQ PUSH2 0x3A21 JUMPI PUSH1 0x40 MLOAD SWAP2 POP PUSH1 0x1F NOT PUSH1 0x3F RETURNDATASIZE ADD AND DUP3 ADD PUSH1 0x40 MSTORE RETURNDATASIZE DUP3 MSTORE RETURNDATASIZE PUSH1 0x0 PUSH1 0x20 DUP5 ADD RETURNDATACOPY PUSH2 0x3A26 JUMP JUMPDEST PUSH1 0x60 SWAP2 POP JUMPDEST POP SWAP2 POP SWAP2 POP DUP2 DUP1 ISZERO PUSH2 0x3A54 JUMPI POP DUP1 MLOAD ISZERO DUP1 PUSH2 0x3A54 JUMPI POP DUP1 DUP1 PUSH1 0x20 ADD SWAP1 MLOAD PUSH1 0x20 DUP2 LT ISZERO PUSH2 0x3A51 JUMPI PUSH1 0x0 DUP1 REVERT JUMPDEST POP MLOAD JUMPDEST PUSH2 0x3AA5 JUMPI PUSH1 0x40 DUP1 MLOAD PUSH3 0x461BCD PUSH1 0xE5 SHL DUP2 MSTORE PUSH1 0x20 PUSH1 0x4 DUP3 ADD MSTORE PUSH1 0xF PUSH1 0x24 DUP3 ADD MSTORE PUSH32 0x5452414E534645525F4641494C45440000000000000000000000000000000000 PUSH1 0x44 DUP3 ADD MSTORE SWAP1 MLOAD SWAP1 DUP2 SWAP1 SUB PUSH1 0x64 ADD SWAP1 REVERT JUMPDEST POP POP POP POP POP JUMP JUMPDEST PUSH1 0x0 DUP3 DUP3 ADD DUP4 DUP2 LT ISZERO PUSH2 0x390D JUMPI PUSH1 0x40 DUP1 MLOAD PUSH3 0x461BCD PUSH1 0xE5 SHL DUP2 MSTORE PUSH1 0x20 PUSH1 0x4 DUP3 ADD MSTORE PUSH1 0x1B PUSH1 0x24 DUP3 ADD MSTORE PUSH32 0x536166654D6174683A206164646974696F6E206F766572666C6F770000000000 PUSH1 0x44 DUP3 ADD MSTORE SWAP1 MLOAD SWAP1 DUP2 SWAP1 SUB PUSH1 0x64 ADD SWAP1 REVERT JUMPDEST PUSH1 0x0 DUP3 PUSH2 0x3B15 JUMPI POP PUSH1 0x0 PUSH2 0x33AE JUMP JUMPDEST DUP3 DUP3 MUL DUP3 DUP5 DUP3 DUP2 PUSH2 0x3B22 JUMPI INVALID JUMPDEST DIV EQ PUSH2 0x390D JUMPI PUSH1 0x40 MLOAD PUSH3 0x461BCD PUSH1 0xE5 SHL DUP2 MSTORE PUSH1 0x4 ADD DUP1 DUP1 PUSH1 0x20 ADD DUP3 DUP2 SUB DUP3 MSTORE PUSH1 0x21 DUP2 MSTORE PUSH1 0x20 ADD DUP1 PUSH2 0x3E8D PUSH1 0x21 SWAP2 CODECOPY PUSH1 0x40 ADD SWAP2 POP POP PUSH1 0x40 MLOAD DUP1 SWAP2 SUB SWAP1 REVERT JUMPDEST PUSH1 0x40 DUP1 MLOAD PUSH1 0x1 PUSH1 0x1 PUSH1 0xA0 SHL SUB DUP6 DUP2 AND PUSH1 0x24 DUP4 ADD MSTORE DUP5 DUP2 AND PUSH1 0x44 DUP4 ADD MSTORE PUSH1 0x64 DUP1 DUP4 ADD DUP6 SWAP1 MSTORE DUP4 MLOAD DUP1 DUP5 SUB SWAP1 SWAP2 ADD DUP2 MSTORE PUSH1 0x84 SWAP1 SWAP3 ADD DUP4 MSTORE PUSH1 0x20 DUP3 ADD DUP1 MLOAD PUSH28 0xFFFFFFFFFFFFFFFFFFFFFFFFFFFFFFFFFFFFFFFFFFFFFFFFFFFFFFFF AND PUSH32 0x23B872DD00000000000000000000000000000000000000000000000000000000 OR DUP2 MSTORE SWAP3 MLOAD DUP3 MLOAD PUSH1 0x0 SWAP5 PUSH1 0x60 SWAP5 SWAP4 DUP11 AND SWAP4 SWAP3 SWAP2 DUP3 SWAP2 SWAP1 DUP1 DUP4 DUP4 JUMPDEST PUSH1 0x20 DUP4 LT PUSH2 0x3C12 JUMPI DUP1 MLOAD DUP3 MSTORE PUSH1 0x1F NOT SWAP1 SWAP3 ADD SWAP2 PUSH1 0x20 SWAP2 DUP3 ADD SWAP2 ADD PUSH2 0x3BF3 JUMP JUMPDEST PUSH1 0x1 DUP4 PUSH1 0x20 SUB PUSH2 0x100 EXP SUB DUP1 NOT DUP3 MLOAD AND DUP2 DUP5 MLOAD AND DUP1 DUP3 OR DUP6 MSTORE POP POP POP POP POP POP SWAP1 POP ADD SWAP2 POP POP PUSH1 0x0 PUSH1 0x40 MLOAD DUP1 DUP4 SUB DUP2 PUSH1 0x0 DUP7 GAS CALL SWAP2 POP POP RETURNDATASIZE DUP1 PUSH1 0x0 DUP2 EQ PUSH2 0x3C74 JUMPI PUSH1 0x40 MLOAD SWAP2 POP PUSH1 0x1F NOT PUSH1 0x3F RETURNDATASIZE ADD AND DUP3 ADD PUSH1 0x40 MSTORE RETURNDATASIZE DUP3 MSTORE RETURNDATASIZE PUSH1 0x0 PUSH1 0x20 DUP5 ADD RETURNDATACOPY PUSH2 0x3C79 JUMP JUMPDEST PUSH1 0x60 SWAP2 POP JUMPDEST POP SWAP2 POP SWAP2 POP DUP2 DUP1 ISZERO PUSH2 0x3CA7 JUMPI POP DUP1 MLOAD ISZERO DUP1 PUSH2 0x3CA7 JUMPI POP DUP1 DUP1 PUSH1 0x20 ADD SWAP1 MLOAD PUSH1 0x20 DUP2 LT ISZERO PUSH2 0x3CA4 JUMPI PUSH1 0x0 DUP1 REVERT JUMPDEST POP MLOAD JUMPDEST PUSH2 0x3CF8 JUMPI PUSH1 0x40 DUP1 MLOAD PUSH3 0x461BCD PUSH1 0xE5 SHL DUP2 MSTORE PUSH1 0x20 PUSH1 0x4 DUP3 ADD MSTORE PUSH1 0x14 PUSH1 0x24 DUP3 ADD MSTORE PUSH32 0x5452414E534645525F46524F4D5F4641494C4544000000000000000000000000 PUSH1 0x44 DUP3 ADD MSTORE SWAP1 MLOAD SWAP1 DUP2 SWAP1 SUB PUSH1 0x64 ADD SWAP1 REVERT JUMPDEST POP POP POP POP POP POP JUMP JUMPDEST PUSH1 0x0 PUSH2 0x390D DUP4 DUP4 PUSH1 0x40 MLOAD DUP1 PUSH1 0x40 ADD PUSH1 0x40 MSTORE DUP1 PUSH1 0x1A DUP2 MSTORE PUSH1 0x20 ADD PUSH32 0x536166654D6174683A206469766973696F6E206279207A65726F000000000000 DUP2 MSTORE POP PUSH2 0x3DD9 JUMP JUMPDEST PUSH1 0x0 DUP2 DUP5 DUP5 GT ISZERO PUSH2 0x3DD1 JUMPI PUSH1 0x40 MLOAD PUSH3 0x461BCD PUSH1 0xE5 SHL DUP2 MSTORE PUSH1 0x4 ADD DUP1 DUP1 PUSH1 0x20 ADD DUP3 DUP2 SUB DUP3 MSTORE DUP4 DUP2 DUP2 MLOAD DUP2 MSTORE PUSH1 0x20 ADD SWAP2 POP DUP1 MLOAD SWAP1 PUSH1 0x20 ADD SWAP1 DUP1 DUP4 DUP4 PUSH1 0x0 JUMPDEST DUP4 DUP2 LT ISZERO PUSH2 0x3D96 JUMPI DUP2 DUP2 ADD MLOAD DUP4 DUP3 ADD MSTORE PUSH1 0x20 ADD PUSH2 0x3D7E JUMP JUMPDEST POP POP POP POP SWAP1 POP SWAP1 DUP2 ADD SWAP1 PUSH1 0x1F AND DUP1 ISZERO PUSH2 0x3DC3 JUMPI DUP1 DUP3 SUB DUP1 MLOAD PUSH1 0x1 DUP4 PUSH1 0x20 SUB PUSH2 0x100 EXP SUB NOT AND DUP2 MSTORE PUSH1 0x20 ADD SWAP2 POP JUMPDEST POP SWAP3 POP POP POP PUSH1 0x40 MLOAD DUP1 SWAP2 SUB SWAP1 REVERT JUMPDEST POP POP POP SWAP1 SUB SWAP1 JUMP JUMPDEST PUSH1 0x0 DUP2 DUP4 PUSH2 0x3E28 JUMPI PUSH1 0x40 MLOAD PUSH3 0x461BCD PUSH1 0xE5 SHL DUP2 MSTORE PUSH1 0x20 PUSH1 0x4 DUP3 ADD DUP2 DUP2 MSTORE DUP4 MLOAD PUSH1 0x24 DUP5 ADD MSTORE DUP4 MLOAD SWAP1 SWAP3 DUP4 SWAP3 PUSH1 0x44 SWAP1 SWAP2 ADD SWAP2 SWAP1 DUP6 ADD SWAP1 DUP1 DUP4 DUP4 PUSH1 0x0 DUP4 ISZERO PUSH2 0x3D96 JUMPI DUP2 DUP2 ADD MLOAD DUP4 DUP3 ADD MSTORE PUSH1 0x20 ADD PUSH2 0x3D7E JUMP JUMPDEST POP PUSH1 0x0 DUP4 DUP6 DUP2 PUSH2 0x3E34 JUMPI INVALID JUMPDEST DIV SWAP1 POP DUP4 DUP6 DUP2 PUSH2 0x3E40 JUMPI INVALID JUMPDEST MOD DUP2 DUP6 MUL ADD DUP6 EQ PUSH2 0x3E4D JUMPI INVALID JUMPDEST SWAP5 SWAP4 POP POP POP POP JUMP JUMPDEST PUSH1 0x40 DUP1 MLOAD PUSH1 0xC0 DUP2 ADD SWAP1 SWAP2 MSTORE DUP1 PUSH1 0x0 DUP2 MSTORE PUSH1 0x0 PUSH1 0x20 DUP3 ADD DUP2 SWAP1 MSTORE PUSH1 0x40 DUP3 ADD DUP2 SWAP1 MSTORE PUSH1 0x60 DUP3 ADD DUP2 SWAP1 MSTORE PUSH1 0x80 DUP3 ADD DUP2 SWAP1 MSTORE PUSH1 0xA0 SWAP1 SWAP2 ADD MSTORE SWAP1 JUMP INVALID MSTORE8 PUSH2 0x6665 0x4D PUSH2 0x7468 GASPRICE KECCAK256 PUSH14 0x756C7469706C69636174696F6E20 PUSH16 0x766572666C6F77A26469706673582212 KECCAK256 SWAP13 0xDB ADDRESS 0xDD 0xD8 0xE6 0x23 MUL 0xC0 LT 0xBD 0xD6 0xB4 0xB1 SIGNEXTEND 0xAE 0xD7 DUP5 0xE3 SWAP16 PUSH6 0xF50816DD3DB4 0xA6 MLOAD 0xBA SWAP12 CODESIZE PUSH5 0x736F6C6343 STOP SMOD SDIV STOP CALLER "
				},
				"gasEstimates": {
					"creation": {
						"codeDepositCost": "3219800",
						"executionCost": "infinite",
						"totalCost": "infinite"
					},
					"external": {
						"EXO()": "infinite",
						"auditReserves()": "infinite",
						"authority()": "1126",
						"baseSupply()": "infinite",
						"blocksNeededForQueue()": "infinite",
						"bondCalculator(address)": "1275",
						"debtLimit(address)": "1191",
						"deposit(uint256,address,uint256)": "infinite",
						"disable(uint8,address)": "infinite",
						"disableTimelock()": "infinite",
						"enable(uint8,address,address)": "infinite",
						"excessReserves()": "infinite",
						"execute(uint256)": "infinite",
						"exoDebt()": "1111",
						"incurDebt(uint256,address)": "infinite",
						"indexInRegistry(address,uint8)": "infinite",
						"initialize()": "infinite",
						"initialized()": "1111",
						"manage(address,uint256)": "infinite",
						"mint(address,uint256)": "infinite",
						"nullify(uint256)": "infinite",
						"onChainGovernanceTimelock()": "1043",
						"permissionQueue(uint256)": "4709",
						"permissions(uint8,address)": "1319",
						"queueTimelock(uint8,address,address)": "infinite",
						"registry(uint8,uint256)": "2126",
						"repayDebtWithOHM(uint256)": "infinite",
						"repayDebtWithReserve(uint256,address)": "infinite",
						"sEXO()": "1106",
						"setAuthority(address)": "infinite",
						"setDebtLimit(address,uint256)": "infinite",
						"timelockEnabled()": "1099",
						"tokenValue(address,uint256)": "infinite",
						"totalDebt()": "1086",
						"totalReserves()": "1110",
						"withdraw(uint256,address)": "infinite"
					}
				},
				"methodIdentifiers": {
					"EXO()": "b383daf2",
					"auditReserves()": "2b7ce500",
					"authority()": "bf7e214f",
					"baseSupply()": "860f5048",
					"blocksNeededForQueue()": "d07f390f",
					"bondCalculator(address)": "1af4da70",
					"debtLimit(address)": "5619004b",
					"deposit(uint256,address,uint256)": "bc157ac1",
					"disable(uint8,address)": "52991831",
					"disableTimelock()": "7d921af0",
					"enable(uint8,address,address)": "e4e33ef8",
					"excessReserves()": "0c3513a8",
					"execute(uint256)": "fe0d94c1",
					"exoDebt()": "0b31693f",
					"incurDebt(uint256,address)": "12422d23",
					"indexInRegistry(address,uint8)": "93988b53",
					"initialize()": "8129fc1c",
					"initialized()": "158ef93e",
					"manage(address,uint256)": "0b0eee30",
					"mint(address,uint256)": "40c10f19",
					"nullify(uint256)": "71a45c95",
					"onChainGovernanceTimelock()": "b39df88e",
					"permissionQueue(uint256)": "503edcf0",
					"permissions(uint8,address)": "330dd345",
					"queueTimelock(uint8,address,address)": "1d6d5f05",
					"registry(uint8,uint256)": "a44b8287",
					"repayDebtWithOHM(uint256)": "0f70431f",
					"repayDebtWithReserve(uint256,address)": "d796ffb8",
					"sEXO()": "06d9cea8",
					"setAuthority(address)": "7a9e5e4b",
					"setDebtLimit(address,uint256)": "9edd8d43",
					"timelockEnabled()": "b320f6a9",
					"tokenValue(address,uint256)": "f1821783",
					"totalDebt()": "fc7b9c18",
					"totalReserves()": "8f840ddd",
					"withdraw(uint256,address)": "00f714ce"
				}
			},
			"storageLayout": {
				"storage": [
					{
						"astId": 378,
						"contract": "ExodusTreasury/Treasury.sol:ExodusTreasury",
						"label": "UNAUTHORIZED",
						"offset": 0,
						"slot": "0",
						"type": "t_string_storage"
					},
					{
						"astId": 380,
						"contract": "ExodusTreasury/Treasury.sol:ExodusTreasury",
						"label": "authority",
						"offset": 0,
						"slot": "1",
						"type": "t_contract(IExodusAuthority)212"
					},
					{
						"astId": 983,
						"contract": "ExodusTreasury/Treasury.sol:ExodusTreasury",
						"label": "sEXO",
						"offset": 0,
						"slot": "2",
						"type": "t_contract(IsEXO)368"
					},
					{
						"astId": 988,
						"contract": "ExodusTreasury/Treasury.sol:ExodusTreasury",
						"label": "registry",
						"offset": 0,
						"slot": "3",
						"type": "t_mapping(t_enum(STATUS)966,t_array(t_address)dyn_storage)"
					},
					{
						"astId": 994,
						"contract": "ExodusTreasury/Treasury.sol:ExodusTreasury",
						"label": "permissions",
						"offset": 0,
						"slot": "4",
						"type": "t_mapping(t_enum(STATUS)966,t_mapping(t_address,t_bool))"
					},
					{
						"astId": 998,
						"contract": "ExodusTreasury/Treasury.sol:ExodusTreasury",
						"label": "bondCalculator",
						"offset": 0,
						"slot": "5",
						"type": "t_mapping(t_address,t_address)"
					},
					{
						"astId": 1002,
						"contract": "ExodusTreasury/Treasury.sol:ExodusTreasury",
						"label": "debtLimit",
						"offset": 0,
						"slot": "6",
						"type": "t_mapping(t_address,t_uint256)"
					},
					{
						"astId": 1004,
						"contract": "ExodusTreasury/Treasury.sol:ExodusTreasury",
						"label": "totalReserves",
						"offset": 0,
						"slot": "7",
						"type": "t_uint256"
					},
					{
						"astId": 1006,
						"contract": "ExodusTreasury/Treasury.sol:ExodusTreasury",
						"label": "totalDebt",
						"offset": 0,
						"slot": "8",
						"type": "t_uint256"
					},
					{
						"astId": 1008,
						"contract": "ExodusTreasury/Treasury.sol:ExodusTreasury",
						"label": "exoDebt",
						"offset": 0,
						"slot": "9",
						"type": "t_uint256"
					},
					{
						"astId": 1011,
						"contract": "ExodusTreasury/Treasury.sol:ExodusTreasury",
						"label": "permissionQueue",
						"offset": 0,
						"slot": "10",
						"type": "t_array(t_struct(Queue)979_storage)dyn_storage"
					},
					{
						"astId": 1015,
						"contract": "ExodusTreasury/Treasury.sol:ExodusTreasury",
						"label": "timelockEnabled",
						"offset": 0,
						"slot": "11",
						"type": "t_bool"
					},
					{
						"astId": 1017,
						"contract": "ExodusTreasury/Treasury.sol:ExodusTreasury",
						"label": "initialized",
						"offset": 1,
						"slot": "11",
						"type": "t_bool"
					},
					{
						"astId": 1019,
						"contract": "ExodusTreasury/Treasury.sol:ExodusTreasury",
						"label": "onChainGovernanceTimelock",
						"offset": 0,
						"slot": "12",
						"type": "t_uint256"
					},
					{
						"astId": 1022,
						"contract": "ExodusTreasury/Treasury.sol:ExodusTreasury",
						"label": "notAccepted",
						"offset": 0,
						"slot": "13",
						"type": "t_string_storage"
					},
					{
						"astId": 1025,
						"contract": "ExodusTreasury/Treasury.sol:ExodusTreasury",
						"label": "notApproved",
						"offset": 0,
						"slot": "14",
						"type": "t_string_storage"
					},
					{
						"astId": 1028,
						"contract": "ExodusTreasury/Treasury.sol:ExodusTreasury",
						"label": "invalidToken",
						"offset": 0,
						"slot": "15",
						"type": "t_string_storage"
					},
					{
						"astId": 1031,
						"contract": "ExodusTreasury/Treasury.sol:ExodusTreasury",
						"label": "insufficientReserves",
						"offset": 0,
						"slot": "16",
						"type": "t_string_storage"
					}
				],
				"types": {
					"t_address": {
						"encoding": "inplace",
						"label": "address",
						"numberOfBytes": "20"
					},
					"t_array(t_address)dyn_storage": {
						"base": "t_address",
						"encoding": "dynamic_array",
						"label": "address[]",
						"numberOfBytes": "32"
					},
					"t_array(t_struct(Queue)979_storage)dyn_storage": {
						"base": "t_struct(Queue)979_storage",
						"encoding": "dynamic_array",
						"label": "struct ExodusTreasury.Queue[]",
						"numberOfBytes": "32"
					},
					"t_bool": {
						"encoding": "inplace",
						"label": "bool",
						"numberOfBytes": "1"
					},
					"t_contract(IExodusAuthority)212": {
						"encoding": "inplace",
						"label": "contract IExodusAuthority",
						"numberOfBytes": "20"
					},
					"t_contract(IsEXO)368": {
						"encoding": "inplace",
						"label": "contract IsEXO",
						"numberOfBytes": "20"
					},
					"t_enum(STATUS)966": {
						"encoding": "inplace",
						"label": "enum ExodusTreasury.STATUS",
						"numberOfBytes": "1"
					},
					"t_mapping(t_address,t_address)": {
						"encoding": "mapping",
						"key": "t_address",
						"label": "mapping(address => address)",
						"numberOfBytes": "32",
						"value": "t_address"
					},
					"t_mapping(t_address,t_bool)": {
						"encoding": "mapping",
						"key": "t_address",
						"label": "mapping(address => bool)",
						"numberOfBytes": "32",
						"value": "t_bool"
					},
					"t_mapping(t_address,t_uint256)": {
						"encoding": "mapping",
						"key": "t_address",
						"label": "mapping(address => uint256)",
						"numberOfBytes": "32",
						"value": "t_uint256"
					},
					"t_mapping(t_enum(STATUS)966,t_array(t_address)dyn_storage)": {
						"encoding": "mapping",
						"key": "t_enum(STATUS)966",
						"label": "mapping(enum ExodusTreasury.STATUS => address[])",
						"numberOfBytes": "32",
						"value": "t_array(t_address)dyn_storage"
					},
					"t_mapping(t_enum(STATUS)966,t_mapping(t_address,t_bool))": {
						"encoding": "mapping",
						"key": "t_enum(STATUS)966",
						"label": "mapping(enum ExodusTreasury.STATUS => mapping(address => bool))",
						"numberOfBytes": "32",
						"value": "t_mapping(t_address,t_bool)"
					},
					"t_string_storage": {
						"encoding": "bytes",
						"label": "string",
						"numberOfBytes": "32"
					},
					"t_struct(Queue)979_storage": {
						"encoding": "inplace",
						"label": "struct ExodusTreasury.Queue",
						"members": [
							{
								"astId": 968,
								"contract": "ExodusTreasury/Treasury.sol:ExodusTreasury",
								"label": "managing",
								"offset": 0,
								"slot": "0",
								"type": "t_enum(STATUS)966"
							},
							{
								"astId": 970,
								"contract": "ExodusTreasury/Treasury.sol:ExodusTreasury",
								"label": "toPermit",
								"offset": 1,
								"slot": "0",
								"type": "t_address"
							},
							{
								"astId": 972,
								"contract": "ExodusTreasury/Treasury.sol:ExodusTreasury",
								"label": "calculator",
								"offset": 0,
								"slot": "1",
								"type": "t_address"
							},
							{
								"astId": 974,
								"contract": "ExodusTreasury/Treasury.sol:ExodusTreasury",
								"label": "timelockEnd",
								"offset": 0,
								"slot": "2",
								"type": "t_uint256"
							},
							{
								"astId": 976,
								"contract": "ExodusTreasury/Treasury.sol:ExodusTreasury",
								"label": "nullify",
								"offset": 0,
								"slot": "3",
								"type": "t_bool"
							},
							{
								"astId": 978,
								"contract": "ExodusTreasury/Treasury.sol:ExodusTreasury",
								"label": "executed",
								"offset": 1,
								"slot": "3",
								"type": "t_bool"
							}
						],
						"numberOfBytes": "128"
					},
					"t_uint256": {
						"encoding": "inplace",
						"label": "uint256",
						"numberOfBytes": "32"
					}
				}
			},
			"userdoc": {
				"kind": "user",
				"methods": {
					"auditReserves()": {
						"notice": "takes inventory of all tracked assetsalways consolidate to recognized reserves before audit"
					},
					"baseSupply()": {
						"notice": "returns supply metric that cannot be manipulated by debt"
					},
					"deposit(uint256,address,uint256)": {
						"notice": "allow approved address to deposit an asset for OHM"
					},
					"disable(uint8,address)": {
						"notice": "disable permission from address"
					},
					"disableTimelock()": {
						"notice": "disables timelocked functions"
					},
					"enable(uint8,address,address)": {
						"notice": "enable permission from queue"
					},
					"excessReserves()": {
						"notice": "returns excess reserves not backing tokens"
					},
					"execute(uint256)": {
						"notice": "enable queued permission"
					},
					"incurDebt(uint256,address)": {
						"notice": "allow approved address to borrow reserves"
					},
					"indexInRegistry(address,uint8)": {
						"notice": "check if registry contains address"
					},
					"initialize()": {
						"notice": "enables timelocks after initilization"
					},
					"manage(address,uint256)": {
						"notice": "allow approved address to withdraw assets"
					},
					"mint(address,uint256)": {
						"notice": "mint new OHM using excess reserves"
					},
					"nullify(uint256)": {
						"notice": "cancel timelocked action"
					},
					"queueTimelock(uint8,address,address)": {
						"notice": "queue address to receive permission"
					},
					"repayDebtWithOHM(uint256)": {
						"notice": "allow approved address to repay borrowed reserves with OHM"
					},
					"repayDebtWithReserve(uint256,address)": {
						"notice": "allow approved address to repay borrowed reserves with reserves"
					},
					"setDebtLimit(address,uint256)": {
						"notice": "set max debt for address"
					},
					"tokenValue(address,uint256)": {
						"notice": "returns OHM valuation of asset"
					},
					"withdraw(uint256,address)": {
						"notice": "allow approved address to burn OHM for reserves"
					}
				},
				"version": 1
			}
		}
	}
}