{
	"ExodusAuthority/ExodusAuthority.sol": {
		"ExodusAuthority": {
			"abi": [
				{
					"inputs": [
						{
							"internalType": "address",
							"name": "_governor",
							"type": "address"
						},
						{
							"internalType": "address",
							"name": "_guardian",
							"type": "address"
						},
						{
							"internalType": "address",
							"name": "_policy",
							"type": "address"
						},
						{
							"internalType": "address",
							"name": "_vault",
							"type": "address"
						}
					],
					"stateMutability": "nonpayable",
					"type": "constructor"
				},
				{
					"anonymous": false,
					"inputs": [
						{
							"indexed": true,
							"internalType": "contract IExodusAuthority",
							"name": "authority",
							"type": "address"
						}
					],
					"name": "AuthorityUpdated",
					"type": "event"
				},
				{
					"anonymous": false,
					"inputs": [
						{
							"indexed": true,
							"internalType": "address",
							"name": "from",
							"type": "address"
						},
						{
							"indexed": true,
							"internalType": "address",
							"name": "to",
							"type": "address"
						}
					],
					"name": "GovernorPulled",
					"type": "event"
				},
				{
					"anonymous": false,
					"inputs": [
						{
							"indexed": true,
							"internalType": "address",
							"name": "from",
							"type": "address"
						},
						{
							"indexed": true,
							"internalType": "address",
							"name": "to",
							"type": "address"
						},
						{
							"indexed": false,
							"internalType": "bool",
							"name": "_effectiveImmediately",
							"type": "bool"
						}
					],
					"name": "GovernorPushed",
					"type": "event"
				},
				{
					"anonymous": false,
					"inputs": [
						{
							"indexed": true,
							"internalType": "address",
							"name": "from",
							"type": "address"
						},
						{
							"indexed": true,
							"internalType": "address",
							"name": "to",
							"type": "address"
						}
					],
					"name": "GuardianPulled",
					"type": "event"
				},
				{
					"anonymous": false,
					"inputs": [
						{
							"indexed": true,
							"internalType": "address",
							"name": "from",
							"type": "address"
						},
						{
							"indexed": true,
							"internalType": "address",
							"name": "to",
							"type": "address"
						},
						{
							"indexed": false,
							"internalType": "bool",
							"name": "_effectiveImmediately",
							"type": "bool"
						}
					],
					"name": "GuardianPushed",
					"type": "event"
				},
				{
					"anonymous": false,
					"inputs": [
						{
							"indexed": true,
							"internalType": "address",
							"name": "from",
							"type": "address"
						},
						{
							"indexed": true,
							"internalType": "address",
							"name": "to",
							"type": "address"
						}
					],
					"name": "PolicyPulled",
					"type": "event"
				},
				{
					"anonymous": false,
					"inputs": [
						{
							"indexed": true,
							"internalType": "address",
							"name": "from",
							"type": "address"
						},
						{
							"indexed": true,
							"internalType": "address",
							"name": "to",
							"type": "address"
						},
						{
							"indexed": false,
							"internalType": "bool",
							"name": "_effectiveImmediately",
							"type": "bool"
						}
					],
					"name": "PolicyPushed",
					"type": "event"
				},
				{
					"anonymous": false,
					"inputs": [
						{
							"indexed": true,
							"internalType": "address",
							"name": "from",
							"type": "address"
						},
						{
							"indexed": true,
							"internalType": "address",
							"name": "to",
							"type": "address"
						}
					],
					"name": "VaultPulled",
					"type": "event"
				},
				{
					"anonymous": false,
					"inputs": [
						{
							"indexed": true,
							"internalType": "address",
							"name": "from",
							"type": "address"
						},
						{
							"indexed": true,
							"internalType": "address",
							"name": "to",
							"type": "address"
						},
						{
							"indexed": false,
							"internalType": "bool",
							"name": "_effectiveImmediately",
							"type": "bool"
						}
					],
					"name": "VaultPushed",
					"type": "event"
				},
				{
					"inputs": [],
					"name": "authority",
					"outputs": [
						{
							"internalType": "contract IExodusAuthority",
							"name": "",
							"type": "address"
						}
					],
					"stateMutability": "view",
					"type": "function"
				},
				{
					"inputs": [],
					"name": "governor",
					"outputs": [
						{
							"internalType": "address",
							"name": "",
							"type": "address"
						}
					],
					"stateMutability": "view",
					"type": "function"
				},
				{
					"inputs": [],
					"name": "guardian",
					"outputs": [
						{
							"internalType": "address",
							"name": "",
							"type": "address"
						}
					],
					"stateMutability": "view",
					"type": "function"
				},
				{
					"inputs": [],
					"name": "newGovernor",
					"outputs": [
						{
							"internalType": "address",
							"name": "",
							"type": "address"
						}
					],
					"stateMutability": "view",
					"type": "function"
				},
				{
					"inputs": [],
					"name": "newGuardian",
					"outputs": [
						{
							"internalType": "address",
							"name": "",
							"type": "address"
						}
					],
					"stateMutability": "view",
					"type": "function"
				},
				{
					"inputs": [],
					"name": "newPolicy",
					"outputs": [
						{
							"internalType": "address",
							"name": "",
							"type": "address"
						}
					],
					"stateMutability": "view",
					"type": "function"
				},
				{
					"inputs": [],
					"name": "newVault",
					"outputs": [
						{
							"internalType": "address",
							"name": "",
							"type": "address"
						}
					],
					"stateMutability": "view",
					"type": "function"
				},
				{
					"inputs": [],
					"name": "policy",
					"outputs": [
						{
							"internalType": "address",
							"name": "",
							"type": "address"
						}
					],
					"stateMutability": "view",
					"type": "function"
				},
				{
					"inputs": [],
					"name": "pullGovernor",
					"outputs": [],
					"stateMutability": "nonpayable",
					"type": "function"
				},
				{
					"inputs": [],
					"name": "pullGuardian",
					"outputs": [],
					"stateMutability": "nonpayable",
					"type": "function"
				},
				{
					"inputs": [],
					"name": "pullPolicy",
					"outputs": [],
					"stateMutability": "nonpayable",
					"type": "function"
				},
				{
					"inputs": [],
					"name": "pullVault",
					"outputs": [],
					"stateMutability": "nonpayable",
					"type": "function"
				},
				{
					"inputs": [
						{
							"internalType": "address",
							"name": "_newGovernor",
							"type": "address"
						},
						{
							"internalType": "bool",
							"name": "_effectiveImmediately",
							"type": "bool"
						}
					],
					"name": "pushGovernor",
					"outputs": [],
					"stateMutability": "nonpayable",
					"type": "function"
				},
				{
					"inputs": [
						{
							"internalType": "address",
							"name": "_newGuardian",
							"type": "address"
						},
						{
							"internalType": "bool",
							"name": "_effectiveImmediately",
							"type": "bool"
						}
					],
					"name": "pushGuardian",
					"outputs": [],
					"stateMutability": "nonpayable",
					"type": "function"
				},
				{
					"inputs": [
						{
							"internalType": "address",
							"name": "_newPolicy",
							"type": "address"
						},
						{
							"internalType": "bool",
							"name": "_effectiveImmediately",
							"type": "bool"
						}
					],
					"name": "pushPolicy",
					"outputs": [],
					"stateMutability": "nonpayable",
					"type": "function"
				},
				{
					"inputs": [
						{
							"internalType": "address",
							"name": "_newVault",
							"type": "address"
						},
						{
							"internalType": "bool",
							"name": "_effectiveImmediately",
							"type": "bool"
						}
					],
					"name": "pushVault",
					"outputs": [],
					"stateMutability": "nonpayable",
					"type": "function"
				},
				{
					"inputs": [
						{
							"internalType": "contract IExodusAuthority",
							"name": "_newAuthority",
							"type": "address"
						}
					],
					"name": "setAuthority",
					"outputs": [],
					"stateMutability": "nonpayable",
					"type": "function"
				},
				{
					"inputs": [],
					"name": "vault",
					"outputs": [
						{
							"internalType": "address",
							"name": "",
							"type": "address"
						}
					],
					"stateMutability": "view",
					"type": "function"
				}
			],
			"devdoc": {
				"kind": "dev",
				"methods": {},
				"version": 1
			},
			"evm": {
				"assembly": "    /* \"ExodusAuthority/ExodusAuthority.sol\":137:2975  contract ExodusAuthority is IExodusAuthority, ExodusAccessControlled {... */\n  mstore(0x40, 0x80)\n    /* \"ExodusAuthority/ExodusAccessControlled.sol\":254:290  string UNAUTHORIZED = \"UNAUTHORIZED\" */\n  mload(0x40)\n  dup1\n  0x40\n  add\n  0x40\n  mstore\n  dup1\n  0x0c\n  dup2\n  mstore\n  0x20\n  add\n  0x554e415554484f52495a45440000000000000000000000000000000000000000\n  dup2\n  mstore\n  pop\n  0x00\n  swap1\n  dup1\n  mload\n  swap1\n  0x20\n  add\n  swap1\n  tag_1\n  swap3\n  swap2\n  swap1\n  tag_2\n  jump\t// in\ntag_1:\n  pop\n    /* \"ExodusAuthority/ExodusAuthority.sol\":584:1096  constructor(... */\n  callvalue\n  dup1\n  iszero\n  tag_3\n  jumpi\n  0x00\n  dup1\n  revert\ntag_3:\n  pop\n  mload(0x40)\n  sub(codesize, bytecodeSize)\n  dup1\n  bytecodeSize\n  dup4\n  codecopy\n  dup2\n  dup2\n  add\n  0x40\n  mstore\n  dup2\n  add\n  swap1\n  tag_4\n  swap2\n  swap1\n  tag_5\n  jump\t// in\ntag_4:\n    /* \"ExodusAuthority/ExodusAuthority.sol\":753:757  this */\n  address\n    /* \"ExodusAuthority/ExodusAccessControlled.sol\":506:516  _authority */\n  dup1\n    /* \"ExodusAuthority/ExodusAccessControlled.sol\":494:503  authority */\n  0x01\n  0x00\n    /* \"ExodusAuthority/ExodusAccessControlled.sol\":494:516  authority = _authority */\n  0x0100\n  exp\n  dup2\n  sload\n  dup2\n  0xffffffffffffffffffffffffffffffffffffffff\n  mul\n  not\n  and\n  swap1\n  dup4\n  0xffffffffffffffffffffffffffffffffffffffff\n  and\n  mul\n  or\n  swap1\n  sstore\n  pop\n    /* \"ExodusAuthority/ExodusAccessControlled.sol\":548:558  _authority */\n  dup1\n    /* \"ExodusAuthority/ExodusAccessControlled.sol\":531:559  AuthorityUpdated(_authority) */\n  0xffffffffffffffffffffffffffffffffffffffff\n  and\n  0x2f658b440c35314f52658ea8a740e05b284cdc84dc9ae01e891f21b8933e7cad\n  mload(0x40)\n  mload(0x40)\n  dup1\n  swap2\n  sub\n  swap1\n  log2\n    /* \"ExodusAuthority/ExodusAccessControlled.sol\":443:566  constructor(IExodusAuthority _authority) {... */\n  pop\n    /* \"ExodusAuthority/ExodusAuthority.sol\":782:791  _governor */\n  dup4\n    /* \"ExodusAuthority/ExodusAuthority.sol\":771:779  governor */\n  0x02\n  0x00\n    /* \"ExodusAuthority/ExodusAuthority.sol\":771:791  governor = _governor */\n  0x0100\n  exp\n  dup2\n  sload\n  dup2\n  0xffffffffffffffffffffffffffffffffffffffff\n  mul\n  not\n  and\n  swap1\n  dup4\n  0xffffffffffffffffffffffffffffffffffffffff\n  and\n  mul\n  or\n  swap1\n  sstore\n  pop\n    /* \"ExodusAuthority/ExodusAuthority.sol\":833:841  governor */\n  0x02\n  0x00\n  swap1\n  sload\n  swap1\n  0x0100\n  exp\n  swap1\n  div\n  0xffffffffffffffffffffffffffffffffffffffff\n  and\n    /* \"ExodusAuthority/ExodusAuthority.sol\":806:848  GovernorPushed(address(0), governor, true) */\n  0xffffffffffffffffffffffffffffffffffffffff\n  and\n    /* \"ExodusAuthority/ExodusAuthority.sol\":829:830  0 */\n  0x00\n    /* \"ExodusAuthority/ExodusAuthority.sol\":806:848  GovernorPushed(address(0), governor, true) */\n  0xffffffffffffffffffffffffffffffffffffffff\n  and\n  0x4f337dcbb2512f18373c1f72d990a2f0a6ee5024b04007c52afd01eb73374a89\n    /* \"ExodusAuthority/ExodusAuthority.sol\":843:847  true */\n  0x01\n    /* \"ExodusAuthority/ExodusAuthority.sol\":806:848  GovernorPushed(address(0), governor, true) */\n  mload(0x40)\n  tag_10\n  swap2\n  swap1\n  tag_11\n  jump\t// in\ntag_10:\n  mload(0x40)\n  dup1\n  swap2\n  sub\n  swap1\n  log3\n    /* \"ExodusAuthority/ExodusAuthority.sol\":869:878  _guardian */\n  dup3\n    /* \"ExodusAuthority/ExodusAuthority.sol\":858:866  guardian */\n  0x03\n  0x00\n    /* \"ExodusAuthority/ExodusAuthority.sol\":858:878  guardian = _guardian */\n  0x0100\n  exp\n  dup2\n  sload\n  dup2\n  0xffffffffffffffffffffffffffffffffffffffff\n  mul\n  not\n  and\n  swap1\n  dup4\n  0xffffffffffffffffffffffffffffffffffffffff\n  and\n  mul\n  or\n  swap1\n  sstore\n  pop\n    /* \"ExodusAuthority/ExodusAuthority.sol\":920:928  guardian */\n  0x03\n  0x00\n  swap1\n  sload\n  swap1\n  0x0100\n  exp\n  swap1\n  div\n  0xffffffffffffffffffffffffffffffffffffffff\n  and\n    /* \"ExodusAuthority/ExodusAuthority.sol\":893:935  GuardianPushed(address(0), guardian, true) */\n  0xffffffffffffffffffffffffffffffffffffffff\n  and\n    /* \"ExodusAuthority/ExodusAuthority.sol\":916:917  0 */\n  0x00\n    /* \"ExodusAuthority/ExodusAuthority.sol\":893:935  GuardianPushed(address(0), guardian, true) */\n  0xffffffffffffffffffffffffffffffffffffffff\n  and\n  0xde655975891e8f09671597b37bd4d663bcc5c21dc6d7641b33cdf85fbe15d08b\n    /* \"ExodusAuthority/ExodusAuthority.sol\":930:934  true */\n  0x01\n    /* \"ExodusAuthority/ExodusAuthority.sol\":893:935  GuardianPushed(address(0), guardian, true) */\n  mload(0x40)\n  tag_12\n  swap2\n  swap1\n  tag_11\n  jump\t// in\ntag_12:\n  mload(0x40)\n  dup1\n  swap2\n  sub\n  swap1\n  log3\n    /* \"ExodusAuthority/ExodusAuthority.sol\":954:961  _policy */\n  dup2\n    /* \"ExodusAuthority/ExodusAuthority.sol\":945:951  policy */\n  0x04\n  0x00\n    /* \"ExodusAuthority/ExodusAuthority.sol\":945:961  policy = _policy */\n  0x0100\n  exp\n  dup2\n  sload\n  dup2\n  0xffffffffffffffffffffffffffffffffffffffff\n  mul\n  not\n  and\n  swap1\n  dup4\n  0xffffffffffffffffffffffffffffffffffffffff\n  and\n  mul\n  or\n  swap1\n  sstore\n  pop\n    /* \"ExodusAuthority/ExodusAuthority.sol\":1001:1007  policy */\n  0x04\n  0x00\n  swap1\n  sload\n  swap1\n  0x0100\n  exp\n  swap1\n  div\n  0xffffffffffffffffffffffffffffffffffffffff\n  and\n    /* \"ExodusAuthority/ExodusAuthority.sol\":976:1014  PolicyPushed(address(0), policy, true) */\n  0xffffffffffffffffffffffffffffffffffffffff\n  and\n    /* \"ExodusAuthority/ExodusAuthority.sol\":997:998  0 */\n  0x00\n    /* \"ExodusAuthority/ExodusAuthority.sol\":976:1014  PolicyPushed(address(0), policy, true) */\n  0xffffffffffffffffffffffffffffffffffffffff\n  and\n  0x90a5902a45c24aae553d5aff384ca16d6560f08d74c9784a4fbd2796d9e13f2b\n    /* \"ExodusAuthority/ExodusAuthority.sol\":1009:1013  true */\n  0x01\n    /* \"ExodusAuthority/ExodusAuthority.sol\":976:1014  PolicyPushed(address(0), policy, true) */\n  mload(0x40)\n  tag_13\n  swap2\n  swap1\n  tag_11\n  jump\t// in\ntag_13:\n  mload(0x40)\n  dup1\n  swap2\n  sub\n  swap1\n  log3\n    /* \"ExodusAuthority/ExodusAuthority.sol\":1032:1038  _vault */\n  dup1\n    /* \"ExodusAuthority/ExodusAuthority.sol\":1024:1029  vault */\n  0x05\n  0x00\n    /* \"ExodusAuthority/ExodusAuthority.sol\":1024:1038  vault = _vault */\n  0x0100\n  exp\n  dup2\n  sload\n  dup2\n  0xffffffffffffffffffffffffffffffffffffffff\n  mul\n  not\n  and\n  swap1\n  dup4\n  0xffffffffffffffffffffffffffffffffffffffff\n  and\n  mul\n  or\n  swap1\n  sstore\n  pop\n    /* \"ExodusAuthority/ExodusAuthority.sol\":1077:1082  vault */\n  0x05\n  0x00\n  swap1\n  sload\n  swap1\n  0x0100\n  exp\n  swap1\n  div\n  0xffffffffffffffffffffffffffffffffffffffff\n  and\n    /* \"ExodusAuthority/ExodusAuthority.sol\":1053:1089  VaultPushed(address(0), vault, true) */\n  0xffffffffffffffffffffffffffffffffffffffff\n  and\n    /* \"ExodusAuthority/ExodusAuthority.sol\":1073:1074  0 */\n  0x00\n    /* \"ExodusAuthority/ExodusAuthority.sol\":1053:1089  VaultPushed(address(0), vault, true) */\n  0xffffffffffffffffffffffffffffffffffffffff\n  and\n  0x05a80f5053574d6a62733e1692e8cbcfaf927dc82df0a7267ea2e489a7cc18ff\n    /* \"ExodusAuthority/ExodusAuthority.sol\":1084:1088  true */\n  0x01\n    /* \"ExodusAuthority/ExodusAuthority.sol\":1053:1089  VaultPushed(address(0), vault, true) */\n  mload(0x40)\n  tag_14\n  swap2\n  swap1\n  tag_11\n  jump\t// in\ntag_14:\n  mload(0x40)\n  dup1\n  swap2\n  sub\n  swap1\n  log3\n    /* \"ExodusAuthority/ExodusAuthority.sol\":584:1096  constructor(... */\n  pop\n  pop\n  pop\n  pop\n    /* \"ExodusAuthority/ExodusAuthority.sol\":137:2975  contract ExodusAuthority is IExodusAuthority, ExodusAccessControlled {... */\n  jump(tag_15)\ntag_2:\n  dup3\n  dup1\n  sload\n  tag_16\n  swap1\n  tag_17\n  jump\t// in\ntag_16:\n  swap1\n  0x00\n  mstore\n  keccak256(0x00, 0x20)\n  swap1\n  0x1f\n  add\n  0x20\n  swap1\n  div\n  dup2\n  add\n  swap3\n  dup3\n  tag_19\n  jumpi\n  0x00\n  dup6\n  sstore\n  jump(tag_18)\ntag_19:\n  dup3\n  0x1f\n  lt\n  tag_20\n  jumpi\n  dup1\n  mload\n  not(0xff)\n  and\n  dup4\n  dup1\n  add\n  or\n  dup6\n  sstore\n  jump(tag_18)\ntag_20:\n  dup3\n  dup1\n  add\n  0x01\n  add\n  dup6\n  sstore\n  dup3\n  iszero\n  tag_18\n  jumpi\n  swap2\n  dup3\n  add\ntag_21:\n  dup3\n  dup2\n  gt\n  iszero\n  tag_22\n  jumpi\n  dup3\n  mload\n  dup3\n  sstore\n  swap2\n  0x20\n  add\n  swap2\n  swap1\n  0x01\n  add\n  swap1\n  jump(tag_21)\ntag_22:\ntag_18:\n  pop\n  swap1\n  pop\n  tag_23\n  swap2\n  swap1\n  tag_24\n  jump\t// in\ntag_23:\n  pop\n  swap1\n  jump\t// out\ntag_24:\ntag_25:\n  dup1\n  dup3\n  gt\n  iszero\n  tag_26\n  jumpi\n  0x00\n  dup2\n  0x00\n  swap1\n  sstore\n  pop\n  0x01\n  add\n  jump(tag_25)\ntag_26:\n  pop\n  swap1\n  jump\t// out\n    /* \"#utility.yul\":7:150   */\ntag_28:\n    /* \"#utility.yul\":64:69   */\n  0x00\n    /* \"#utility.yul\":95:101   */\n  dup2\n    /* \"#utility.yul\":89:102   */\n  mload\n    /* \"#utility.yul\":80:102   */\n  swap1\n  pop\n    /* \"#utility.yul\":111:144   */\n  tag_30\n    /* \"#utility.yul\":138:143   */\n  dup2\n    /* \"#utility.yul\":111:144   */\n  tag_31\n  jump\t// in\ntag_30:\n    /* \"#utility.yul\":7:150   */\n  swap3\n  swap2\n  pop\n  pop\n  jump\t// out\n    /* \"#utility.yul\":156:976   */\ntag_5:\n    /* \"#utility.yul\":253:259   */\n  0x00\n    /* \"#utility.yul\":261:267   */\n  dup1\n    /* \"#utility.yul\":269:275   */\n  0x00\n    /* \"#utility.yul\":277:283   */\n  dup1\n    /* \"#utility.yul\":326:329   */\n  0x80\n    /* \"#utility.yul\":314:323   */\n  dup6\n    /* \"#utility.yul\":305:312   */\n  dup8\n    /* \"#utility.yul\":301:324   */\n  sub\n    /* \"#utility.yul\":297:330   */\n  slt\n    /* \"#utility.yul\":294:414   */\n  iszero\n  tag_33\n  jumpi\n    /* \"#utility.yul\":333:412   */\n  tag_34\n  tag_35\n  jump\t// in\ntag_34:\n    /* \"#utility.yul\":294:414   */\ntag_33:\n    /* \"#utility.yul\":453:454   */\n  0x00\n    /* \"#utility.yul\":478:542   */\n  tag_36\n    /* \"#utility.yul\":534:541   */\n  dup8\n    /* \"#utility.yul\":525:531   */\n  dup3\n    /* \"#utility.yul\":514:523   */\n  dup9\n    /* \"#utility.yul\":510:532   */\n  add\n    /* \"#utility.yul\":478:542   */\n  tag_28\n  jump\t// in\ntag_36:\n    /* \"#utility.yul\":468:542   */\n  swap5\n  pop\n    /* \"#utility.yul\":424:552   */\n  pop\n    /* \"#utility.yul\":591:593   */\n  0x20\n    /* \"#utility.yul\":617:681   */\n  tag_37\n    /* \"#utility.yul\":673:680   */\n  dup8\n    /* \"#utility.yul\":664:670   */\n  dup3\n    /* \"#utility.yul\":653:662   */\n  dup9\n    /* \"#utility.yul\":649:671   */\n  add\n    /* \"#utility.yul\":617:681   */\n  tag_28\n  jump\t// in\ntag_37:\n    /* \"#utility.yul\":607:681   */\n  swap4\n  pop\n    /* \"#utility.yul\":562:691   */\n  pop\n    /* \"#utility.yul\":730:732   */\n  0x40\n    /* \"#utility.yul\":756:820   */\n  tag_38\n    /* \"#utility.yul\":812:819   */\n  dup8\n    /* \"#utility.yul\":803:809   */\n  dup3\n    /* \"#utility.yul\":792:801   */\n  dup9\n    /* \"#utility.yul\":788:810   */\n  add\n    /* \"#utility.yul\":756:820   */\n  tag_28\n  jump\t// in\ntag_38:\n    /* \"#utility.yul\":746:820   */\n  swap3\n  pop\n    /* \"#utility.yul\":701:830   */\n  pop\n    /* \"#utility.yul\":869:871   */\n  0x60\n    /* \"#utility.yul\":895:959   */\n  tag_39\n    /* \"#utility.yul\":951:958   */\n  dup8\n    /* \"#utility.yul\":942:948   */\n  dup3\n    /* \"#utility.yul\":931:940   */\n  dup9\n    /* \"#utility.yul\":927:949   */\n  add\n    /* \"#utility.yul\":895:959   */\n  tag_28\n  jump\t// in\ntag_39:\n    /* \"#utility.yul\":885:959   */\n  swap2\n  pop\n    /* \"#utility.yul\":840:969   */\n  pop\n    /* \"#utility.yul\":156:976   */\n  swap3\n  swap6\n  swap2\n  swap5\n  pop\n  swap3\n  pop\n  jump\t// out\n    /* \"#utility.yul\":982:1091   */\ntag_40:\n    /* \"#utility.yul\":1063:1084   */\n  tag_42\n    /* \"#utility.yul\":1078:1083   */\n  dup2\n    /* \"#utility.yul\":1063:1084   */\n  tag_43\n  jump\t// in\ntag_42:\n    /* \"#utility.yul\":1058:1061   */\n  dup3\n    /* \"#utility.yul\":1051:1085   */\n  mstore\n    /* \"#utility.yul\":982:1091   */\n  pop\n  pop\n  jump\t// out\n    /* \"#utility.yul\":1097:1307   */\ntag_11:\n    /* \"#utility.yul\":1184:1188   */\n  0x00\n    /* \"#utility.yul\":1222:1224   */\n  0x20\n    /* \"#utility.yul\":1211:1220   */\n  dup3\n    /* \"#utility.yul\":1207:1225   */\n  add\n    /* \"#utility.yul\":1199:1225   */\n  swap1\n  pop\n    /* \"#utility.yul\":1235:1300   */\n  tag_45\n    /* \"#utility.yul\":1297:1298   */\n  0x00\n    /* \"#utility.yul\":1286:1295   */\n  dup4\n    /* \"#utility.yul\":1282:1299   */\n  add\n    /* \"#utility.yul\":1273:1279   */\n  dup5\n    /* \"#utility.yul\":1235:1300   */\n  tag_40\n  jump\t// in\ntag_45:\n    /* \"#utility.yul\":1097:1307   */\n  swap3\n  swap2\n  pop\n  pop\n  jump\t// out\n    /* \"#utility.yul\":1394:1490   */\ntag_48:\n    /* \"#utility.yul\":1431:1438   */\n  0x00\n    /* \"#utility.yul\":1460:1484   */\n  tag_50\n    /* \"#utility.yul\":1478:1483   */\n  dup3\n    /* \"#utility.yul\":1460:1484   */\n  tag_51\n  jump\t// in\ntag_50:\n    /* \"#utility.yul\":1449:1484   */\n  swap1\n  pop\n    /* \"#utility.yul\":1394:1490   */\n  swap2\n  swap1\n  pop\n  jump\t// out\n    /* \"#utility.yul\":1496:1586   */\ntag_43:\n    /* \"#utility.yul\":1530:1537   */\n  0x00\n    /* \"#utility.yul\":1573:1578   */\n  dup2\n    /* \"#utility.yul\":1566:1579   */\n  iszero\n    /* \"#utility.yul\":1559:1580   */\n  iszero\n    /* \"#utility.yul\":1548:1580   */\n  swap1\n  pop\n    /* \"#utility.yul\":1496:1586   */\n  swap2\n  swap1\n  pop\n  jump\t// out\n    /* \"#utility.yul\":1592:1718   */\ntag_51:\n    /* \"#utility.yul\":1629:1636   */\n  0x00\n    /* \"#utility.yul\":1669:1711   */\n  0xffffffffffffffffffffffffffffffffffffffff\n    /* \"#utility.yul\":1662:1667   */\n  dup3\n    /* \"#utility.yul\":1658:1712   */\n  and\n    /* \"#utility.yul\":1647:1712   */\n  swap1\n  pop\n    /* \"#utility.yul\":1592:1718   */\n  swap2\n  swap1\n  pop\n  jump\t// out\n    /* \"#utility.yul\":1724:2044   */\ntag_17:\n    /* \"#utility.yul\":1768:1774   */\n  0x00\n    /* \"#utility.yul\":1805:1806   */\n  0x02\n    /* \"#utility.yul\":1799:1803   */\n  dup3\n    /* \"#utility.yul\":1795:1807   */\n  div\n    /* \"#utility.yul\":1785:1807   */\n  swap1\n  pop\n    /* \"#utility.yul\":1852:1853   */\n  0x01\n    /* \"#utility.yul\":1846:1850   */\n  dup3\n    /* \"#utility.yul\":1842:1854   */\n  and\n    /* \"#utility.yul\":1873:1891   */\n  dup1\n    /* \"#utility.yul\":1863:1944   */\n  tag_55\n  jumpi\n    /* \"#utility.yul\":1929:1933   */\n  0x7f\n    /* \"#utility.yul\":1921:1927   */\n  dup3\n    /* \"#utility.yul\":1917:1934   */\n  and\n    /* \"#utility.yul\":1907:1934   */\n  swap2\n  pop\n    /* \"#utility.yul\":1863:1944   */\ntag_55:\n    /* \"#utility.yul\":1991:1993   */\n  0x20\n    /* \"#utility.yul\":1983:1989   */\n  dup3\n    /* \"#utility.yul\":1980:1994   */\n  lt\n    /* \"#utility.yul\":1960:1978   */\n  dup2\n    /* \"#utility.yul\":1957:1995   */\n  eq\n    /* \"#utility.yul\":1954:2038   */\n  iszero\n  tag_56\n  jumpi\n    /* \"#utility.yul\":2010:2028   */\n  tag_57\n  tag_58\n  jump\t// in\ntag_57:\n    /* \"#utility.yul\":1954:2038   */\ntag_56:\n    /* \"#utility.yul\":1775:2044   */\n  pop\n    /* \"#utility.yul\":1724:2044   */\n  swap2\n  swap1\n  pop\n  jump\t// out\n    /* \"#utility.yul\":2050:2230   */\ntag_58:\n    /* \"#utility.yul\":2098:2175   */\n  0x4e487b7100000000000000000000000000000000000000000000000000000000\n    /* \"#utility.yul\":2095:2096   */\n  0x00\n    /* \"#utility.yul\":2088:2176   */\n  mstore\n    /* \"#utility.yul\":2195:2199   */\n  0x22\n    /* \"#utility.yul\":2192:2193   */\n  0x04\n    /* \"#utility.yul\":2185:2200   */\n  mstore\n    /* \"#utility.yul\":2219:2223   */\n  0x24\n    /* \"#utility.yul\":2216:2217   */\n  0x00\n    /* \"#utility.yul\":2209:2224   */\n  revert\n    /* \"#utility.yul\":2359:2476   */\ntag_35:\n    /* \"#utility.yul\":2468:2469   */\n  0x00\n    /* \"#utility.yul\":2465:2466   */\n  dup1\n    /* \"#utility.yul\":2458:2470   */\n  revert\n    /* \"#utility.yul\":2482:2604   */\ntag_31:\n    /* \"#utility.yul\":2555:2579   */\n  tag_64\n    /* \"#utility.yul\":2573:2578   */\n  dup2\n    /* \"#utility.yul\":2555:2579   */\n  tag_48\n  jump\t// in\ntag_64:\n    /* \"#utility.yul\":2548:2553   */\n  dup2\n    /* \"#utility.yul\":2545:2580   */\n  eq\n    /* \"#utility.yul\":2535:2598   */\n  tag_65\n  jumpi\n    /* \"#utility.yul\":2594:2595   */\n  0x00\n    /* \"#utility.yul\":2591:2592   */\n  dup1\n    /* \"#utility.yul\":2584:2596   */\n  revert\n    /* \"#utility.yul\":2535:2598   */\ntag_65:\n    /* \"#utility.yul\":2482:2604   */\n  pop\n  jump\t// out\n    /* \"ExodusAuthority/ExodusAuthority.sol\":137:2975  contract ExodusAuthority is IExodusAuthority, ExodusAccessControlled {... */\ntag_15:\n  dataSize(sub_0)\n  dup1\n  dataOffset(sub_0)\n  0x00\n  codecopy\n  0x00\n  return\nstop\n\nsub_0: assembly {\n        /* \"ExodusAuthority/ExodusAuthority.sol\":137:2975  contract ExodusAuthority is IExodusAuthority, ExodusAccessControlled {... */\n      mstore(0x40, 0x80)\n      callvalue\n      dup1\n      iszero\n      tag_1\n      jumpi\n      0x00\n      dup1\n      revert\n    tag_1:\n      pop\n      jumpi(tag_2, lt(calldatasize, 0x04))\n      shr(0xe0, calldataload(0x00))\n      dup1\n      0x5beede08\n      gt\n      tag_21\n      jumpi\n      dup1\n      0x8fd20577\n      gt\n      tag_22\n      jumpi\n      dup1\n      0x8fd20577\n      eq\n      tag_16\n      jumpi\n      dup1\n      0xbe11f1dd\n      eq\n      tag_17\n      jumpi\n      dup1\n      0xbf7e214f\n      eq\n      tag_18\n      jumpi\n      dup1\n      0xd8a04212\n      eq\n      tag_19\n      jumpi\n      dup1\n      0xfbfa77cf\n      eq\n      tag_20\n      jumpi\n      jump(tag_2)\n    tag_22:\n      dup1\n      0x5beede08\n      eq\n      tag_12\n      jumpi\n      dup1\n      0x6fe72c14\n      eq\n      tag_13\n      jumpi\n      dup1\n      0x7a9e5e4b\n      eq\n      tag_14\n      jumpi\n      dup1\n      0x88aaf0c8\n      eq\n      tag_15\n      jumpi\n      jump(tag_2)\n    tag_21:\n      dup1\n      0x215e92bc\n      gt\n      tag_23\n      jumpi\n      dup1\n      0x215e92bc\n      eq\n      tag_7\n      jumpi\n      dup1\n      0x3bf90c28\n      eq\n      tag_8\n      jumpi\n      dup1\n      0x452a9320\n      eq\n      tag_9\n      jumpi\n      dup1\n      0x52759694\n      eq\n      tag_10\n      jumpi\n      dup1\n      0x54e3d703\n      eq\n      tag_11\n      jumpi\n      jump(tag_2)\n    tag_23:\n      dup1\n      0x0505c8c9\n      eq\n      tag_3\n      jumpi\n      dup1\n      0x0c340a24\n      eq\n      tag_4\n      jumpi\n      dup1\n      0x19859847\n      eq\n      tag_5\n      jumpi\n      dup1\n      0x1afe8714\n      eq\n      tag_6\n      jumpi\n    tag_2:\n      0x00\n      dup1\n      revert\n        /* \"ExodusAuthority/ExodusAuthority.sol\":339:369  address public override policy */\n    tag_3:\n      tag_24\n      tag_25\n      jump\t// in\n    tag_24:\n      mload(0x40)\n      tag_26\n      swap2\n      swap1\n      tag_27\n      jump\t// in\n    tag_26:\n      mload(0x40)\n      dup1\n      swap2\n      sub\n      swap1\n      return\n        /* \"ExodusAuthority/ExodusAuthority.sol\":261:293  address public override governor */\n    tag_4:\n      tag_28\n      tag_29\n      jump\t// in\n    tag_28:\n      mload(0x40)\n      tag_30\n      swap2\n      swap1\n      tag_27\n      jump\t// in\n    tag_30:\n      mload(0x40)\n      dup1\n      swap2\n      sub\n      swap1\n      return\n        /* \"ExodusAuthority/ExodusAuthority.sol\":445:471  address public newGuardian */\n    tag_5:\n      tag_31\n      tag_32\n      jump\t// in\n    tag_31:\n      mload(0x40)\n      tag_33\n      swap2\n      swap1\n      tag_27\n      jump\t// in\n    tag_33:\n      mload(0x40)\n      dup1\n      swap2\n      sub\n      swap1\n      return\n        /* \"ExodusAuthority/ExodusAuthority.sol\":1422:1694  function pushGuardian(address _newGuardian, bool _effectiveImmediately) external onlyGovernor {... */\n    tag_6:\n      tag_34\n      0x04\n      dup1\n      calldatasize\n      sub\n      dup2\n      add\n      swap1\n      tag_35\n      swap2\n      swap1\n      tag_36\n      jump\t// in\n    tag_35:\n      tag_37\n      jump\t// in\n    tag_34:\n      stop\n        /* \"ExodusAuthority/ExodusAuthority.sol\":2813:2973  function pullVault() external {... */\n    tag_7:\n      tag_38\n      tag_39\n      jump\t// in\n    tag_38:\n      stop\n        /* \"ExodusAuthority/ExodusAuthority.sol\":478:502  address public newPolicy */\n    tag_8:\n      tag_40\n      tag_41\n      jump\t// in\n    tag_40:\n      mload(0x40)\n      tag_42\n      swap2\n      swap1\n      tag_27\n      jump\t// in\n    tag_42:\n      mload(0x40)\n      dup1\n      swap2\n      sub\n      swap1\n      return\n        /* \"ExodusAuthority/ExodusAuthority.sol\":300:332  address public override guardian */\n    tag_9:\n      tag_43\n      tag_44\n      jump\t// in\n    tag_43:\n      mload(0x40)\n      tag_45\n      swap2\n      swap1\n      tag_27\n      jump\t// in\n    tag_45:\n      mload(0x40)\n      dup1\n      swap2\n      sub\n      swap1\n      return\n        /* \"ExodusAuthority/ExodusAuthority.sol\":1144:1416  function pushGovernor(address _newGovernor, bool _effectiveImmediately) external onlyGovernor {... */\n    tag_10:\n      tag_46\n      0x04\n      dup1\n      calldatasize\n      sub\n      dup2\n      add\n      swap1\n      tag_47\n      swap2\n      swap1\n      tag_36\n      jump\t// in\n    tag_47:\n      tag_48\n      jump\t// in\n    tag_46:\n      stop\n        /* \"ExodusAuthority/ExodusAuthority.sol\":1700:1954  function pushPolicy(address _newPolicy, bool _effectiveImmediately) external onlyGovernor {... */\n    tag_11:\n      tag_49\n      0x04\n      dup1\n      calldatasize\n      sub\n      dup2\n      add\n      swap1\n      tag_50\n      swap2\n      swap1\n      tag_36\n      jump\t// in\n    tag_50:\n      tag_51\n      jump\t// in\n    tag_49:\n      stop\n        /* \"ExodusAuthority/ExodusAuthority.sol\":2639:2807  function pullPolicy() external {... */\n    tag_12:\n      tag_52\n      tag_53\n      jump\t// in\n    tag_52:\n      stop\n        /* \"ExodusAuthority/ExodusAuthority.sol\":1960:2205  function pushVault(address _newVault, bool _effectiveImmediately) external onlyGovernor {... */\n    tag_13:\n      tag_54\n      0x04\n      dup1\n      calldatasize\n      sub\n      dup2\n      add\n      swap1\n      tag_55\n      swap2\n      swap1\n      tag_36\n      jump\t// in\n    tag_55:\n      tag_56\n      jump\t// in\n    tag_54:\n      stop\n        /* \"ExodusAuthority/ExodusAccessControlled.sol\":1107:1271  function setAuthority(IExodusAuthority _newAuthority) external onlyGovernor {... */\n    tag_14:\n      tag_57\n      0x04\n      dup1\n      calldatasize\n      sub\n      dup2\n      add\n      swap1\n      tag_58\n      swap2\n      swap1\n      tag_59\n      jump\t// in\n    tag_58:\n      tag_60\n      jump\t// in\n    tag_57:\n      stop\n        /* \"ExodusAuthority/ExodusAuthority.sol\":509:532  address public newVault */\n    tag_15:\n      tag_61\n      tag_62\n      jump\t// in\n    tag_61:\n      mload(0x40)\n      tag_63\n      swap2\n      swap1\n      tag_27\n      jump\t// in\n    tag_63:\n      mload(0x40)\n      dup1\n      swap2\n      sub\n      swap1\n      return\n        /* \"ExodusAuthority/ExodusAuthority.sol\":412:438  address public newGovernor */\n    tag_16:\n      tag_64\n      tag_65\n      jump\t// in\n    tag_64:\n      mload(0x40)\n      tag_66\n      swap2\n      swap1\n      tag_27\n      jump\t// in\n    tag_66:\n      mload(0x40)\n      dup1\n      swap2\n      sub\n      swap1\n      return\n        /* \"ExodusAuthority/ExodusAuthority.sol\":2452:2633  function pullGuardian() external {... */\n    tag_17:\n      tag_67\n      tag_68\n      jump\t// in\n    tag_67:\n      stop\n        /* \"ExodusAuthority/ExodusAccessControlled.sol\":358:391  IExodusAuthority public authority */\n    tag_18:\n      tag_69\n      tag_70\n      jump\t// in\n    tag_69:\n      mload(0x40)\n      tag_71\n      swap2\n      swap1\n      tag_72\n      jump\t// in\n    tag_71:\n      mload(0x40)\n      dup1\n      swap2\n      sub\n      swap1\n      return\n        /* \"ExodusAuthority/ExodusAuthority.sol\":2262:2446  function pullGovernor() external {... */\n    tag_19:\n      tag_73\n      tag_74\n      jump\t// in\n    tag_73:\n      stop\n        /* \"ExodusAuthority/ExodusAuthority.sol\":376:405  address public override vault */\n    tag_20:\n      tag_75\n      tag_76\n      jump\t// in\n    tag_75:\n      mload(0x40)\n      tag_77\n      swap2\n      swap1\n      tag_27\n      jump\t// in\n    tag_77:\n      mload(0x40)\n      dup1\n      swap2\n      sub\n      swap1\n      return\n        /* \"ExodusAuthority/ExodusAuthority.sol\":339:369  address public override policy */\n    tag_25:\n      0x04\n      0x00\n      swap1\n      sload\n      swap1\n      0x0100\n      exp\n      swap1\n      div\n      0xffffffffffffffffffffffffffffffffffffffff\n      and\n      dup2\n      jump\t// out\n        /* \"ExodusAuthority/ExodusAuthority.sol\":261:293  address public override governor */\n    tag_29:\n      0x02\n      0x00\n      swap1\n      sload\n      swap1\n      0x0100\n      exp\n      swap1\n      div\n      0xffffffffffffffffffffffffffffffffffffffff\n      and\n      dup2\n      jump\t// out\n        /* \"ExodusAuthority/ExodusAuthority.sol\":445:471  address public newGuardian */\n    tag_32:\n      0x07\n      0x00\n      swap1\n      sload\n      swap1\n      0x0100\n      exp\n      swap1\n      div\n      0xffffffffffffffffffffffffffffffffffffffff\n      and\n      dup2\n      jump\t// out\n        /* \"ExodusAuthority/ExodusAuthority.sol\":1422:1694  function pushGuardian(address _newGuardian, bool _effectiveImmediately) external onlyGovernor {... */\n    tag_37:\n        /* \"ExodusAuthority/ExodusAccessControlled.sol\":671:680  authority */\n      0x01\n      0x00\n      swap1\n      sload\n      swap1\n      0x0100\n      exp\n      swap1\n      div\n      0xffffffffffffffffffffffffffffffffffffffff\n      and\n        /* \"ExodusAuthority/ExodusAccessControlled.sol\":671:689  authority.governor */\n      0xffffffffffffffffffffffffffffffffffffffff\n      and\n      0x0c340a24\n        /* \"ExodusAuthority/ExodusAccessControlled.sol\":671:691  authority.governor() */\n      mload(0x40)\n      dup2\n      0xffffffff\n      and\n      0xe0\n      shl\n      dup2\n      mstore\n      0x04\n      add\n      0x20\n      mload(0x40)\n      dup1\n      dup4\n      sub\n      dup2\n      dup7\n      dup1\n      extcodesize\n      iszero\n      dup1\n      iszero\n      tag_79\n      jumpi\n      0x00\n      dup1\n      revert\n    tag_79:\n      pop\n      gas\n      staticcall\n      iszero\n      dup1\n      iszero\n      tag_81\n      jumpi\n      returndatasize\n      0x00\n      dup1\n      returndatacopy\n      revert(0x00, returndatasize)\n    tag_81:\n      pop\n      pop\n      pop\n      pop\n      mload(0x40)\n      returndatasize\n      not(0x1f)\n      0x1f\n      dup3\n      add\n      and\n      dup3\n      add\n      dup1\n      0x40\n      mstore\n      pop\n      dup2\n      add\n      swap1\n      tag_82\n      swap2\n      swap1\n      tag_83\n      jump\t// in\n    tag_82:\n        /* \"ExodusAuthority/ExodusAccessControlled.sol\":657:691  msg.sender == authority.governor() */\n      0xffffffffffffffffffffffffffffffffffffffff\n      and\n        /* \"ExodusAuthority/ExodusAccessControlled.sol\":657:667  msg.sender */\n      caller\n        /* \"ExodusAuthority/ExodusAccessControlled.sol\":657:691  msg.sender == authority.governor() */\n      0xffffffffffffffffffffffffffffffffffffffff\n      and\n      eq\n        /* \"ExodusAuthority/ExodusAccessControlled.sol\":693:705  UNAUTHORIZED */\n      0x00\n        /* \"ExodusAuthority/ExodusAccessControlled.sol\":649:706  require(msg.sender == authority.governor(), UNAUTHORIZED) */\n      swap1\n      tag_84\n      jumpi\n      mload(0x40)\n      0x08c379a000000000000000000000000000000000000000000000000000000000\n      dup2\n      mstore\n      0x04\n      add\n      tag_85\n      swap2\n      swap1\n      tag_86\n      jump\t// in\n    tag_85:\n      mload(0x40)\n      dup1\n      swap2\n      sub\n      swap1\n      revert\n    tag_84:\n      pop\n        /* \"ExodusAuthority/ExodusAuthority.sol\":1530:1551  _effectiveImmediately */\n      dup1\n        /* \"ExodusAuthority/ExodusAuthority.sol\":1526:1576  if (_effectiveImmediately) guardian = _newGuardian */\n      iszero\n      tag_88\n      jumpi\n        /* \"ExodusAuthority/ExodusAuthority.sol\":1564:1576  _newGuardian */\n      dup2\n        /* \"ExodusAuthority/ExodusAuthority.sol\":1553:1561  guardian */\n      0x03\n      0x00\n        /* \"ExodusAuthority/ExodusAuthority.sol\":1553:1576  guardian = _newGuardian */\n      0x0100\n      exp\n      dup2\n      sload\n      dup2\n      0xffffffffffffffffffffffffffffffffffffffff\n      mul\n      not\n      and\n      swap1\n      dup4\n      0xffffffffffffffffffffffffffffffffffffffff\n      and\n      mul\n      or\n      swap1\n      sstore\n      pop\n        /* \"ExodusAuthority/ExodusAuthority.sol\":1526:1576  if (_effectiveImmediately) guardian = _newGuardian */\n    tag_88:\n        /* \"ExodusAuthority/ExodusAuthority.sol\":1600:1612  _newGuardian */\n      dup2\n        /* \"ExodusAuthority/ExodusAuthority.sol\":1586:1597  newGuardian */\n      0x07\n      0x00\n        /* \"ExodusAuthority/ExodusAuthority.sol\":1586:1612  newGuardian = _newGuardian */\n      0x0100\n      exp\n      dup2\n      sload\n      dup2\n      0xffffffffffffffffffffffffffffffffffffffff\n      mul\n      not\n      and\n      swap1\n      dup4\n      0xffffffffffffffffffffffffffffffffffffffff\n      and\n      mul\n      or\n      swap1\n      sstore\n      pop\n        /* \"ExodusAuthority/ExodusAuthority.sol\":1652:1663  newGuardian */\n      0x07\n      0x00\n      swap1\n      sload\n      swap1\n      0x0100\n      exp\n      swap1\n      div\n      0xffffffffffffffffffffffffffffffffffffffff\n      and\n        /* \"ExodusAuthority/ExodusAuthority.sol\":1627:1687  GuardianPushed(guardian, newGuardian, _effectiveImmediately) */\n      0xffffffffffffffffffffffffffffffffffffffff\n      and\n        /* \"ExodusAuthority/ExodusAuthority.sol\":1642:1650  guardian */\n      0x03\n      0x00\n      swap1\n      sload\n      swap1\n      0x0100\n      exp\n      swap1\n      div\n      0xffffffffffffffffffffffffffffffffffffffff\n      and\n        /* \"ExodusAuthority/ExodusAuthority.sol\":1627:1687  GuardianPushed(guardian, newGuardian, _effectiveImmediately) */\n      0xffffffffffffffffffffffffffffffffffffffff\n      and\n      0xde655975891e8f09671597b37bd4d663bcc5c21dc6d7641b33cdf85fbe15d08b\n        /* \"ExodusAuthority/ExodusAuthority.sol\":1665:1686  _effectiveImmediately */\n      dup4\n        /* \"ExodusAuthority/ExodusAuthority.sol\":1627:1687  GuardianPushed(guardian, newGuardian, _effectiveImmediately) */\n      mload(0x40)\n      tag_89\n      swap2\n      swap1\n      tag_90\n      jump\t// in\n    tag_89:\n      mload(0x40)\n      dup1\n      swap2\n      sub\n      swap1\n      log3\n        /* \"ExodusAuthority/ExodusAuthority.sol\":1422:1694  function pushGuardian(address _newGuardian, bool _effectiveImmediately) external onlyGovernor {... */\n      pop\n      pop\n      jump\t// out\n        /* \"ExodusAuthority/ExodusAuthority.sol\":2813:2973  function pullVault() external {... */\n    tag_39:\n        /* \"ExodusAuthority/ExodusAuthority.sol\":2875:2883  newVault */\n      0x09\n      0x00\n      swap1\n      sload\n      swap1\n      0x0100\n      exp\n      swap1\n      div\n      0xffffffffffffffffffffffffffffffffffffffff\n      and\n        /* \"ExodusAuthority/ExodusAuthority.sol\":2861:2883  msg.sender == newVault */\n      0xffffffffffffffffffffffffffffffffffffffff\n      and\n        /* \"ExodusAuthority/ExodusAuthority.sol\":2861:2871  msg.sender */\n      caller\n        /* \"ExodusAuthority/ExodusAuthority.sol\":2861:2883  msg.sender == newVault */\n      0xffffffffffffffffffffffffffffffffffffffff\n      and\n      eq\n        /* \"ExodusAuthority/ExodusAuthority.sol\":2853:2897  require(msg.sender == newVault, \"!newVault\") */\n      tag_92\n      jumpi\n      mload(0x40)\n      0x08c379a000000000000000000000000000000000000000000000000000000000\n      dup2\n      mstore\n      0x04\n      add\n      tag_93\n      swap1\n      tag_94\n      jump\t// in\n    tag_93:\n      mload(0x40)\n      dup1\n      swap2\n      sub\n      swap1\n      revert\n    tag_92:\n        /* \"ExodusAuthority/ExodusAuthority.sol\":2931:2939  newVault */\n      0x09\n      0x00\n      swap1\n      sload\n      swap1\n      0x0100\n      exp\n      swap1\n      div\n      0xffffffffffffffffffffffffffffffffffffffff\n      and\n        /* \"ExodusAuthority/ExodusAuthority.sol\":2912:2940  VaultPulled(vault, newVault) */\n      0xffffffffffffffffffffffffffffffffffffffff\n      and\n        /* \"ExodusAuthority/ExodusAuthority.sol\":2924:2929  vault */\n      0x05\n      0x00\n      swap1\n      sload\n      swap1\n      0x0100\n      exp\n      swap1\n      div\n      0xffffffffffffffffffffffffffffffffffffffff\n      and\n        /* \"ExodusAuthority/ExodusAuthority.sol\":2912:2940  VaultPulled(vault, newVault) */\n      0xffffffffffffffffffffffffffffffffffffffff\n      and\n      0x3d08e01e3b8340be6ca709db7a9321448661a1f490da4d7f3eb03d84fe730953\n      mload(0x40)\n      mload(0x40)\n      dup1\n      swap2\n      sub\n      swap1\n      log3\n        /* \"ExodusAuthority/ExodusAuthority.sol\":2958:2966  newVault */\n      0x09\n      0x00\n      swap1\n      sload\n      swap1\n      0x0100\n      exp\n      swap1\n      div\n      0xffffffffffffffffffffffffffffffffffffffff\n      and\n        /* \"ExodusAuthority/ExodusAuthority.sol\":2950:2955  vault */\n      0x05\n      0x00\n        /* \"ExodusAuthority/ExodusAuthority.sol\":2950:2966  vault = newVault */\n      0x0100\n      exp\n      dup2\n      sload\n      dup2\n      0xffffffffffffffffffffffffffffffffffffffff\n      mul\n      not\n      and\n      swap1\n      dup4\n      0xffffffffffffffffffffffffffffffffffffffff\n      and\n      mul\n      or\n      swap1\n      sstore\n      pop\n        /* \"ExodusAuthority/ExodusAuthority.sol\":2813:2973  function pullVault() external {... */\n      jump\t// out\n        /* \"ExodusAuthority/ExodusAuthority.sol\":478:502  address public newPolicy */\n    tag_41:\n      0x08\n      0x00\n      swap1\n      sload\n      swap1\n      0x0100\n      exp\n      swap1\n      div\n      0xffffffffffffffffffffffffffffffffffffffff\n      and\n      dup2\n      jump\t// out\n        /* \"ExodusAuthority/ExodusAuthority.sol\":300:332  address public override guardian */\n    tag_44:\n      0x03\n      0x00\n      swap1\n      sload\n      swap1\n      0x0100\n      exp\n      swap1\n      div\n      0xffffffffffffffffffffffffffffffffffffffff\n      and\n      dup2\n      jump\t// out\n        /* \"ExodusAuthority/ExodusAuthority.sol\":1144:1416  function pushGovernor(address _newGovernor, bool _effectiveImmediately) external onlyGovernor {... */\n    tag_48:\n        /* \"ExodusAuthority/ExodusAccessControlled.sol\":671:680  authority */\n      0x01\n      0x00\n      swap1\n      sload\n      swap1\n      0x0100\n      exp\n      swap1\n      div\n      0xffffffffffffffffffffffffffffffffffffffff\n      and\n        /* \"ExodusAuthority/ExodusAccessControlled.sol\":671:689  authority.governor */\n      0xffffffffffffffffffffffffffffffffffffffff\n      and\n      0x0c340a24\n        /* \"ExodusAuthority/ExodusAccessControlled.sol\":671:691  authority.governor() */\n      mload(0x40)\n      dup2\n      0xffffffff\n      and\n      0xe0\n      shl\n      dup2\n      mstore\n      0x04\n      add\n      0x20\n      mload(0x40)\n      dup1\n      dup4\n      sub\n      dup2\n      dup7\n      dup1\n      extcodesize\n      iszero\n      dup1\n      iszero\n      tag_96\n      jumpi\n      0x00\n      dup1\n      revert\n    tag_96:\n      pop\n      gas\n      staticcall\n      iszero\n      dup1\n      iszero\n      tag_98\n      jumpi\n      returndatasize\n      0x00\n      dup1\n      returndatacopy\n      revert(0x00, returndatasize)\n    tag_98:\n      pop\n      pop\n      pop\n      pop\n      mload(0x40)\n      returndatasize\n      not(0x1f)\n      0x1f\n      dup3\n      add\n      and\n      dup3\n      add\n      dup1\n      0x40\n      mstore\n      pop\n      dup2\n      add\n      swap1\n      tag_99\n      swap2\n      swap1\n      tag_83\n      jump\t// in\n    tag_99:\n        /* \"ExodusAuthority/ExodusAccessControlled.sol\":657:691  msg.sender == authority.governor() */\n      0xffffffffffffffffffffffffffffffffffffffff\n      and\n        /* \"ExodusAuthority/ExodusAccessControlled.sol\":657:667  msg.sender */\n      caller\n        /* \"ExodusAuthority/ExodusAccessControlled.sol\":657:691  msg.sender == authority.governor() */\n      0xffffffffffffffffffffffffffffffffffffffff\n      and\n      eq\n        /* \"ExodusAuthority/ExodusAccessControlled.sol\":693:705  UNAUTHORIZED */\n      0x00\n        /* \"ExodusAuthority/ExodusAccessControlled.sol\":649:706  require(msg.sender == authority.governor(), UNAUTHORIZED) */\n      swap1\n      tag_100\n      jumpi\n      mload(0x40)\n      0x08c379a000000000000000000000000000000000000000000000000000000000\n      dup2\n      mstore\n      0x04\n      add\n      tag_101\n      swap2\n      swap1\n      tag_86\n      jump\t// in\n    tag_101:\n      mload(0x40)\n      dup1\n      swap2\n      sub\n      swap1\n      revert\n    tag_100:\n      pop\n        /* \"ExodusAuthority/ExodusAuthority.sol\":1252:1273  _effectiveImmediately */\n      dup1\n        /* \"ExodusAuthority/ExodusAuthority.sol\":1248:1298  if (_effectiveImmediately) governor = _newGovernor */\n      iszero\n      tag_103\n      jumpi\n        /* \"ExodusAuthority/ExodusAuthority.sol\":1286:1298  _newGovernor */\n      dup2\n        /* \"ExodusAuthority/ExodusAuthority.sol\":1275:1283  governor */\n      0x02\n      0x00\n        /* \"ExodusAuthority/ExodusAuthority.sol\":1275:1298  governor = _newGovernor */\n      0x0100\n      exp\n      dup2\n      sload\n      dup2\n      0xffffffffffffffffffffffffffffffffffffffff\n      mul\n      not\n      and\n      swap1\n      dup4\n      0xffffffffffffffffffffffffffffffffffffffff\n      and\n      mul\n      or\n      swap1\n      sstore\n      pop\n        /* \"ExodusAuthority/ExodusAuthority.sol\":1248:1298  if (_effectiveImmediately) governor = _newGovernor */\n    tag_103:\n        /* \"ExodusAuthority/ExodusAuthority.sol\":1322:1334  _newGovernor */\n      dup2\n        /* \"ExodusAuthority/ExodusAuthority.sol\":1308:1319  newGovernor */\n      0x06\n      0x00\n        /* \"ExodusAuthority/ExodusAuthority.sol\":1308:1334  newGovernor = _newGovernor */\n      0x0100\n      exp\n      dup2\n      sload\n      dup2\n      0xffffffffffffffffffffffffffffffffffffffff\n      mul\n      not\n      and\n      swap1\n      dup4\n      0xffffffffffffffffffffffffffffffffffffffff\n      and\n      mul\n      or\n      swap1\n      sstore\n      pop\n        /* \"ExodusAuthority/ExodusAuthority.sol\":1374:1385  newGovernor */\n      0x06\n      0x00\n      swap1\n      sload\n      swap1\n      0x0100\n      exp\n      swap1\n      div\n      0xffffffffffffffffffffffffffffffffffffffff\n      and\n        /* \"ExodusAuthority/ExodusAuthority.sol\":1349:1409  GovernorPushed(governor, newGovernor, _effectiveImmediately) */\n      0xffffffffffffffffffffffffffffffffffffffff\n      and\n        /* \"ExodusAuthority/ExodusAuthority.sol\":1364:1372  governor */\n      0x02\n      0x00\n      swap1\n      sload\n      swap1\n      0x0100\n      exp\n      swap1\n      div\n      0xffffffffffffffffffffffffffffffffffffffff\n      and\n        /* \"ExodusAuthority/ExodusAuthority.sol\":1349:1409  GovernorPushed(governor, newGovernor, _effectiveImmediately) */\n      0xffffffffffffffffffffffffffffffffffffffff\n      and\n      0x4f337dcbb2512f18373c1f72d990a2f0a6ee5024b04007c52afd01eb73374a89\n        /* \"ExodusAuthority/ExodusAuthority.sol\":1387:1408  _effectiveImmediately */\n      dup4\n        /* \"ExodusAuthority/ExodusAuthority.sol\":1349:1409  GovernorPushed(governor, newGovernor, _effectiveImmediately) */\n      mload(0x40)\n      tag_104\n      swap2\n      swap1\n      tag_90\n      jump\t// in\n    tag_104:\n      mload(0x40)\n      dup1\n      swap2\n      sub\n      swap1\n      log3\n        /* \"ExodusAuthority/ExodusAuthority.sol\":1144:1416  function pushGovernor(address _newGovernor, bool _effectiveImmediately) external onlyGovernor {... */\n      pop\n      pop\n      jump\t// out\n        /* \"ExodusAuthority/ExodusAuthority.sol\":1700:1954  function pushPolicy(address _newPolicy, bool _effectiveImmediately) external onlyGovernor {... */\n    tag_51:\n        /* \"ExodusAuthority/ExodusAccessControlled.sol\":671:680  authority */\n      0x01\n      0x00\n      swap1\n      sload\n      swap1\n      0x0100\n      exp\n      swap1\n      div\n      0xffffffffffffffffffffffffffffffffffffffff\n      and\n        /* \"ExodusAuthority/ExodusAccessControlled.sol\":671:689  authority.governor */\n      0xffffffffffffffffffffffffffffffffffffffff\n      and\n      0x0c340a24\n        /* \"ExodusAuthority/ExodusAccessControlled.sol\":671:691  authority.governor() */\n      mload(0x40)\n      dup2\n      0xffffffff\n      and\n      0xe0\n      shl\n      dup2\n      mstore\n      0x04\n      add\n      0x20\n      mload(0x40)\n      dup1\n      dup4\n      sub\n      dup2\n      dup7\n      dup1\n      extcodesize\n      iszero\n      dup1\n      iszero\n      tag_106\n      jumpi\n      0x00\n      dup1\n      revert\n    tag_106:\n      pop\n      gas\n      staticcall\n      iszero\n      dup1\n      iszero\n      tag_108\n      jumpi\n      returndatasize\n      0x00\n      dup1\n      returndatacopy\n      revert(0x00, returndatasize)\n    tag_108:\n      pop\n      pop\n      pop\n      pop\n      mload(0x40)\n      returndatasize\n      not(0x1f)\n      0x1f\n      dup3\n      add\n      and\n      dup3\n      add\n      dup1\n      0x40\n      mstore\n      pop\n      dup2\n      add\n      swap1\n      tag_109\n      swap2\n      swap1\n      tag_83\n      jump\t// in\n    tag_109:\n        /* \"ExodusAuthority/ExodusAccessControlled.sol\":657:691  msg.sender == authority.governor() */\n      0xffffffffffffffffffffffffffffffffffffffff\n      and\n        /* \"ExodusAuthority/ExodusAccessControlled.sol\":657:667  msg.sender */\n      caller\n        /* \"ExodusAuthority/ExodusAccessControlled.sol\":657:691  msg.sender == authority.governor() */\n      0xffffffffffffffffffffffffffffffffffffffff\n      and\n      eq\n        /* \"ExodusAuthority/ExodusAccessControlled.sol\":693:705  UNAUTHORIZED */\n      0x00\n        /* \"ExodusAuthority/ExodusAccessControlled.sol\":649:706  require(msg.sender == authority.governor(), UNAUTHORIZED) */\n      swap1\n      tag_110\n      jumpi\n      mload(0x40)\n      0x08c379a000000000000000000000000000000000000000000000000000000000\n      dup2\n      mstore\n      0x04\n      add\n      tag_111\n      swap2\n      swap1\n      tag_86\n      jump\t// in\n    tag_111:\n      mload(0x40)\n      dup1\n      swap2\n      sub\n      swap1\n      revert\n    tag_110:\n      pop\n        /* \"ExodusAuthority/ExodusAuthority.sol\":1804:1825  _effectiveImmediately */\n      dup1\n        /* \"ExodusAuthority/ExodusAuthority.sol\":1800:1846  if (_effectiveImmediately) policy = _newPolicy */\n      iszero\n      tag_113\n      jumpi\n        /* \"ExodusAuthority/ExodusAuthority.sol\":1836:1846  _newPolicy */\n      dup2\n        /* \"ExodusAuthority/ExodusAuthority.sol\":1827:1833  policy */\n      0x04\n      0x00\n        /* \"ExodusAuthority/ExodusAuthority.sol\":1827:1846  policy = _newPolicy */\n      0x0100\n      exp\n      dup2\n      sload\n      dup2\n      0xffffffffffffffffffffffffffffffffffffffff\n      mul\n      not\n      and\n      swap1\n      dup4\n      0xffffffffffffffffffffffffffffffffffffffff\n      and\n      mul\n      or\n      swap1\n      sstore\n      pop\n        /* \"ExodusAuthority/ExodusAuthority.sol\":1800:1846  if (_effectiveImmediately) policy = _newPolicy */\n    tag_113:\n        /* \"ExodusAuthority/ExodusAuthority.sol\":1868:1878  _newPolicy */\n      dup2\n        /* \"ExodusAuthority/ExodusAuthority.sol\":1856:1865  newPolicy */\n      0x08\n      0x00\n        /* \"ExodusAuthority/ExodusAuthority.sol\":1856:1878  newPolicy = _newPolicy */\n      0x0100\n      exp\n      dup2\n      sload\n      dup2\n      0xffffffffffffffffffffffffffffffffffffffff\n      mul\n      not\n      and\n      swap1\n      dup4\n      0xffffffffffffffffffffffffffffffffffffffff\n      and\n      mul\n      or\n      swap1\n      sstore\n      pop\n        /* \"ExodusAuthority/ExodusAuthority.sol\":1914:1923  newPolicy */\n      0x08\n      0x00\n      swap1\n      sload\n      swap1\n      0x0100\n      exp\n      swap1\n      div\n      0xffffffffffffffffffffffffffffffffffffffff\n      and\n        /* \"ExodusAuthority/ExodusAuthority.sol\":1893:1947  PolicyPushed(policy, newPolicy, _effectiveImmediately) */\n      0xffffffffffffffffffffffffffffffffffffffff\n      and\n        /* \"ExodusAuthority/ExodusAuthority.sol\":1906:1912  policy */\n      0x04\n      0x00\n      swap1\n      sload\n      swap1\n      0x0100\n      exp\n      swap1\n      div\n      0xffffffffffffffffffffffffffffffffffffffff\n      and\n        /* \"ExodusAuthority/ExodusAuthority.sol\":1893:1947  PolicyPushed(policy, newPolicy, _effectiveImmediately) */\n      0xffffffffffffffffffffffffffffffffffffffff\n      and\n      0x90a5902a45c24aae553d5aff384ca16d6560f08d74c9784a4fbd2796d9e13f2b\n        /* \"ExodusAuthority/ExodusAuthority.sol\":1925:1946  _effectiveImmediately */\n      dup4\n        /* \"ExodusAuthority/ExodusAuthority.sol\":1893:1947  PolicyPushed(policy, newPolicy, _effectiveImmediately) */\n      mload(0x40)\n      tag_114\n      swap2\n      swap1\n      tag_90\n      jump\t// in\n    tag_114:\n      mload(0x40)\n      dup1\n      swap2\n      sub\n      swap1\n      log3\n        /* \"ExodusAuthority/ExodusAuthority.sol\":1700:1954  function pushPolicy(address _newPolicy, bool _effectiveImmediately) external onlyGovernor {... */\n      pop\n      pop\n      jump\t// out\n        /* \"ExodusAuthority/ExodusAuthority.sol\":2639:2807  function pullPolicy() external {... */\n    tag_53:\n        /* \"ExodusAuthority/ExodusAuthority.sol\":2702:2711  newPolicy */\n      0x08\n      0x00\n      swap1\n      sload\n      swap1\n      0x0100\n      exp\n      swap1\n      div\n      0xffffffffffffffffffffffffffffffffffffffff\n      and\n        /* \"ExodusAuthority/ExodusAuthority.sol\":2688:2711  msg.sender == newPolicy */\n      0xffffffffffffffffffffffffffffffffffffffff\n      and\n        /* \"ExodusAuthority/ExodusAuthority.sol\":2688:2698  msg.sender */\n      caller\n        /* \"ExodusAuthority/ExodusAuthority.sol\":2688:2711  msg.sender == newPolicy */\n      0xffffffffffffffffffffffffffffffffffffffff\n      and\n      eq\n        /* \"ExodusAuthority/ExodusAuthority.sol\":2680:2726  require(msg.sender == newPolicy, \"!newPolicy\") */\n      tag_116\n      jumpi\n      mload(0x40)\n      0x08c379a000000000000000000000000000000000000000000000000000000000\n      dup2\n      mstore\n      0x04\n      add\n      tag_117\n      swap1\n      tag_118\n      jump\t// in\n    tag_117:\n      mload(0x40)\n      dup1\n      swap2\n      sub\n      swap1\n      revert\n    tag_116:\n        /* \"ExodusAuthority/ExodusAuthority.sol\":2762:2771  newPolicy */\n      0x08\n      0x00\n      swap1\n      sload\n      swap1\n      0x0100\n      exp\n      swap1\n      div\n      0xffffffffffffffffffffffffffffffffffffffff\n      and\n        /* \"ExodusAuthority/ExodusAuthority.sol\":2741:2772  PolicyPulled(policy, newPolicy) */\n      0xffffffffffffffffffffffffffffffffffffffff\n      and\n        /* \"ExodusAuthority/ExodusAuthority.sol\":2754:2760  policy */\n      0x04\n      0x00\n      swap1\n      sload\n      swap1\n      0x0100\n      exp\n      swap1\n      div\n      0xffffffffffffffffffffffffffffffffffffffff\n      and\n        /* \"ExodusAuthority/ExodusAuthority.sol\":2741:2772  PolicyPulled(policy, newPolicy) */\n      0xffffffffffffffffffffffffffffffffffffffff\n      and\n      0x64d2fa522b403ca222efff0c7ad07d2ef45472a45e5770918bdfa9a2845d29a8\n      mload(0x40)\n      mload(0x40)\n      dup1\n      swap2\n      sub\n      swap1\n      log3\n        /* \"ExodusAuthority/ExodusAuthority.sol\":2791:2800  newPolicy */\n      0x08\n      0x00\n      swap1\n      sload\n      swap1\n      0x0100\n      exp\n      swap1\n      div\n      0xffffffffffffffffffffffffffffffffffffffff\n      and\n        /* \"ExodusAuthority/ExodusAuthority.sol\":2782:2788  policy */\n      0x04\n      0x00\n        /* \"ExodusAuthority/ExodusAuthority.sol\":2782:2800  policy = newPolicy */\n      0x0100\n      exp\n      dup2\n      sload\n      dup2\n      0xffffffffffffffffffffffffffffffffffffffff\n      mul\n      not\n      and\n      swap1\n      dup4\n      0xffffffffffffffffffffffffffffffffffffffff\n      and\n      mul\n      or\n      swap1\n      sstore\n      pop\n        /* \"ExodusAuthority/ExodusAuthority.sol\":2639:2807  function pullPolicy() external {... */\n      jump\t// out\n        /* \"ExodusAuthority/ExodusAuthority.sol\":1960:2205  function pushVault(address _newVault, bool _effectiveImmediately) external onlyGovernor {... */\n    tag_56:\n        /* \"ExodusAuthority/ExodusAccessControlled.sol\":671:680  authority */\n      0x01\n      0x00\n      swap1\n      sload\n      swap1\n      0x0100\n      exp\n      swap1\n      div\n      0xffffffffffffffffffffffffffffffffffffffff\n      and\n        /* \"ExodusAuthority/ExodusAccessControlled.sol\":671:689  authority.governor */\n      0xffffffffffffffffffffffffffffffffffffffff\n      and\n      0x0c340a24\n        /* \"ExodusAuthority/ExodusAccessControlled.sol\":671:691  authority.governor() */\n      mload(0x40)\n      dup2\n      0xffffffff\n      and\n      0xe0\n      shl\n      dup2\n      mstore\n      0x04\n      add\n      0x20\n      mload(0x40)\n      dup1\n      dup4\n      sub\n      dup2\n      dup7\n      dup1\n      extcodesize\n      iszero\n      dup1\n      iszero\n      tag_120\n      jumpi\n      0x00\n      dup1\n      revert\n    tag_120:\n      pop\n      gas\n      staticcall\n      iszero\n      dup1\n      iszero\n      tag_122\n      jumpi\n      returndatasize\n      0x00\n      dup1\n      returndatacopy\n      revert(0x00, returndatasize)\n    tag_122:\n      pop\n      pop\n      pop\n      pop\n      mload(0x40)\n      returndatasize\n      not(0x1f)\n      0x1f\n      dup3\n      add\n      and\n      dup3\n      add\n      dup1\n      0x40\n      mstore\n      pop\n      dup2\n      add\n      swap1\n      tag_123\n      swap2\n      swap1\n      tag_83\n      jump\t// in\n    tag_123:\n        /* \"ExodusAuthority/ExodusAccessControlled.sol\":657:691  msg.sender == authority.governor() */\n      0xffffffffffffffffffffffffffffffffffffffff\n      and\n        /* \"ExodusAuthority/ExodusAccessControlled.sol\":657:667  msg.sender */\n      caller\n        /* \"ExodusAuthority/ExodusAccessControlled.sol\":657:691  msg.sender == authority.governor() */\n      0xffffffffffffffffffffffffffffffffffffffff\n      and\n      eq\n        /* \"ExodusAuthority/ExodusAccessControlled.sol\":693:705  UNAUTHORIZED */\n      0x00\n        /* \"ExodusAuthority/ExodusAccessControlled.sol\":649:706  require(msg.sender == authority.governor(), UNAUTHORIZED) */\n      swap1\n      tag_124\n      jumpi\n      mload(0x40)\n      0x08c379a000000000000000000000000000000000000000000000000000000000\n      dup2\n      mstore\n      0x04\n      add\n      tag_125\n      swap2\n      swap1\n      tag_86\n      jump\t// in\n    tag_125:\n      mload(0x40)\n      dup1\n      swap2\n      sub\n      swap1\n      revert\n    tag_124:\n      pop\n        /* \"ExodusAuthority/ExodusAuthority.sol\":2062:2083  _effectiveImmediately */\n      dup1\n        /* \"ExodusAuthority/ExodusAuthority.sol\":2058:2102  if (_effectiveImmediately) vault = _newVault */\n      iszero\n      tag_127\n      jumpi\n        /* \"ExodusAuthority/ExodusAuthority.sol\":2093:2102  _newVault */\n      dup2\n        /* \"ExodusAuthority/ExodusAuthority.sol\":2085:2090  vault */\n      0x05\n      0x00\n        /* \"ExodusAuthority/ExodusAuthority.sol\":2085:2102  vault = _newVault */\n      0x0100\n      exp\n      dup2\n      sload\n      dup2\n      0xffffffffffffffffffffffffffffffffffffffff\n      mul\n      not\n      and\n      swap1\n      dup4\n      0xffffffffffffffffffffffffffffffffffffffff\n      and\n      mul\n      or\n      swap1\n      sstore\n      pop\n        /* \"ExodusAuthority/ExodusAuthority.sol\":2058:2102  if (_effectiveImmediately) vault = _newVault */\n    tag_127:\n        /* \"ExodusAuthority/ExodusAuthority.sol\":2123:2132  _newVault */\n      dup2\n        /* \"ExodusAuthority/ExodusAuthority.sol\":2112:2120  newVault */\n      0x09\n      0x00\n        /* \"ExodusAuthority/ExodusAuthority.sol\":2112:2132  newVault = _newVault */\n      0x0100\n      exp\n      dup2\n      sload\n      dup2\n      0xffffffffffffffffffffffffffffffffffffffff\n      mul\n      not\n      and\n      swap1\n      dup4\n      0xffffffffffffffffffffffffffffffffffffffff\n      and\n      mul\n      or\n      swap1\n      sstore\n      pop\n        /* \"ExodusAuthority/ExodusAuthority.sol\":2166:2174  newVault */\n      0x09\n      0x00\n      swap1\n      sload\n      swap1\n      0x0100\n      exp\n      swap1\n      div\n      0xffffffffffffffffffffffffffffffffffffffff\n      and\n        /* \"ExodusAuthority/ExodusAuthority.sol\":2147:2198  VaultPushed(vault, newVault, _effectiveImmediately) */\n      0xffffffffffffffffffffffffffffffffffffffff\n      and\n        /* \"ExodusAuthority/ExodusAuthority.sol\":2159:2164  vault */\n      0x05\n      0x00\n      swap1\n      sload\n      swap1\n      0x0100\n      exp\n      swap1\n      div\n      0xffffffffffffffffffffffffffffffffffffffff\n      and\n        /* \"ExodusAuthority/ExodusAuthority.sol\":2147:2198  VaultPushed(vault, newVault, _effectiveImmediately) */\n      0xffffffffffffffffffffffffffffffffffffffff\n      and\n      0x05a80f5053574d6a62733e1692e8cbcfaf927dc82df0a7267ea2e489a7cc18ff\n        /* \"ExodusAuthority/ExodusAuthority.sol\":2176:2197  _effectiveImmediately */\n      dup4\n        /* \"ExodusAuthority/ExodusAuthority.sol\":2147:2198  VaultPushed(vault, newVault, _effectiveImmediately) */\n      mload(0x40)\n      tag_128\n      swap2\n      swap1\n      tag_90\n      jump\t// in\n    tag_128:\n      mload(0x40)\n      dup1\n      swap2\n      sub\n      swap1\n      log3\n        /* \"ExodusAuthority/ExodusAuthority.sol\":1960:2205  function pushVault(address _newVault, bool _effectiveImmediately) external onlyGovernor {... */\n      pop\n      pop\n      jump\t// out\n        /* \"ExodusAuthority/ExodusAccessControlled.sol\":1107:1271  function setAuthority(IExodusAuthority _newAuthority) external onlyGovernor {... */\n    tag_60:\n        /* \"ExodusAuthority/ExodusAccessControlled.sol\":671:680  authority */\n      0x01\n      0x00\n      swap1\n      sload\n      swap1\n      0x0100\n      exp\n      swap1\n      div\n      0xffffffffffffffffffffffffffffffffffffffff\n      and\n        /* \"ExodusAuthority/ExodusAccessControlled.sol\":671:689  authority.governor */\n      0xffffffffffffffffffffffffffffffffffffffff\n      and\n      0x0c340a24\n        /* \"ExodusAuthority/ExodusAccessControlled.sol\":671:691  authority.governor() */\n      mload(0x40)\n      dup2\n      0xffffffff\n      and\n      0xe0\n      shl\n      dup2\n      mstore\n      0x04\n      add\n      0x20\n      mload(0x40)\n      dup1\n      dup4\n      sub\n      dup2\n      dup7\n      dup1\n      extcodesize\n      iszero\n      dup1\n      iszero\n      tag_130\n      jumpi\n      0x00\n      dup1\n      revert\n    tag_130:\n      pop\n      gas\n      staticcall\n      iszero\n      dup1\n      iszero\n      tag_132\n      jumpi\n      returndatasize\n      0x00\n      dup1\n      returndatacopy\n      revert(0x00, returndatasize)\n    tag_132:\n      pop\n      pop\n      pop\n      pop\n      mload(0x40)\n      returndatasize\n      not(0x1f)\n      0x1f\n      dup3\n      add\n      and\n      dup3\n      add\n      dup1\n      0x40\n      mstore\n      pop\n      dup2\n      add\n      swap1\n      tag_133\n      swap2\n      swap1\n      tag_83\n      jump\t// in\n    tag_133:\n        /* \"ExodusAuthority/ExodusAccessControlled.sol\":657:691  msg.sender == authority.governor() */\n      0xffffffffffffffffffffffffffffffffffffffff\n      and\n        /* \"ExodusAuthority/ExodusAccessControlled.sol\":657:667  msg.sender */\n      caller\n        /* \"ExodusAuthority/ExodusAccessControlled.sol\":657:691  msg.sender == authority.governor() */\n      0xffffffffffffffffffffffffffffffffffffffff\n      and\n      eq\n        /* \"ExodusAuthority/ExodusAccessControlled.sol\":693:705  UNAUTHORIZED */\n      0x00\n        /* \"ExodusAuthority/ExodusAccessControlled.sol\":649:706  require(msg.sender == authority.governor(), UNAUTHORIZED) */\n      swap1\n      tag_134\n      jumpi\n      mload(0x40)\n      0x08c379a000000000000000000000000000000000000000000000000000000000\n      dup2\n      mstore\n      0x04\n      add\n      tag_135\n      swap2\n      swap1\n      tag_86\n      jump\t// in\n    tag_135:\n      mload(0x40)\n      dup1\n      swap2\n      sub\n      swap1\n      revert\n    tag_134:\n      pop\n        /* \"ExodusAuthority/ExodusAccessControlled.sol\":1205:1218  _newAuthority */\n      dup1\n        /* \"ExodusAuthority/ExodusAccessControlled.sol\":1193:1202  authority */\n      0x01\n      0x00\n        /* \"ExodusAuthority/ExodusAccessControlled.sol\":1193:1218  authority = _newAuthority */\n      0x0100\n      exp\n      dup2\n      sload\n      dup2\n      0xffffffffffffffffffffffffffffffffffffffff\n      mul\n      not\n      and\n      swap1\n      dup4\n      0xffffffffffffffffffffffffffffffffffffffff\n      and\n      mul\n      or\n      swap1\n      sstore\n      pop\n        /* \"ExodusAuthority/ExodusAccessControlled.sol\":1250:1263  _newAuthority */\n      dup1\n        /* \"ExodusAuthority/ExodusAccessControlled.sol\":1233:1264  AuthorityUpdated(_newAuthority) */\n      0xffffffffffffffffffffffffffffffffffffffff\n      and\n      0x2f658b440c35314f52658ea8a740e05b284cdc84dc9ae01e891f21b8933e7cad\n      mload(0x40)\n      mload(0x40)\n      dup1\n      swap2\n      sub\n      swap1\n      log2\n        /* \"ExodusAuthority/ExodusAccessControlled.sol\":1107:1271  function setAuthority(IExodusAuthority _newAuthority) external onlyGovernor {... */\n      pop\n      jump\t// out\n        /* \"ExodusAuthority/ExodusAuthority.sol\":509:532  address public newVault */\n    tag_62:\n      0x09\n      0x00\n      swap1\n      sload\n      swap1\n      0x0100\n      exp\n      swap1\n      div\n      0xffffffffffffffffffffffffffffffffffffffff\n      and\n      dup2\n      jump\t// out\n        /* \"ExodusAuthority/ExodusAuthority.sol\":412:438  address public newGovernor */\n    tag_65:\n      0x06\n      0x00\n      swap1\n      sload\n      swap1\n      0x0100\n      exp\n      swap1\n      div\n      0xffffffffffffffffffffffffffffffffffffffff\n      and\n      dup2\n      jump\t// out\n        /* \"ExodusAuthority/ExodusAuthority.sol\":2452:2633  function pullGuardian() external {... */\n    tag_68:\n        /* \"ExodusAuthority/ExodusAuthority.sol\":2517:2528  newGuardian */\n      0x07\n      0x00\n      swap1\n      sload\n      swap1\n      0x0100\n      exp\n      swap1\n      div\n      0xffffffffffffffffffffffffffffffffffffffff\n      and\n        /* \"ExodusAuthority/ExodusAuthority.sol\":2503:2528  msg.sender == newGuardian */\n      0xffffffffffffffffffffffffffffffffffffffff\n      and\n        /* \"ExodusAuthority/ExodusAuthority.sol\":2503:2513  msg.sender */\n      caller\n        /* \"ExodusAuthority/ExodusAuthority.sol\":2503:2528  msg.sender == newGuardian */\n      0xffffffffffffffffffffffffffffffffffffffff\n      and\n      eq\n        /* \"ExodusAuthority/ExodusAuthority.sol\":2495:2542  require(msg.sender == newGuardian, \"!newGuard\") */\n      tag_138\n      jumpi\n      mload(0x40)\n      0x08c379a000000000000000000000000000000000000000000000000000000000\n      dup2\n      mstore\n      0x04\n      add\n      tag_139\n      swap1\n      tag_140\n      jump\t// in\n    tag_139:\n      mload(0x40)\n      dup1\n      swap2\n      sub\n      swap1\n      revert\n    tag_138:\n        /* \"ExodusAuthority/ExodusAuthority.sol\":2582:2593  newGuardian */\n      0x07\n      0x00\n      swap1\n      sload\n      swap1\n      0x0100\n      exp\n      swap1\n      div\n      0xffffffffffffffffffffffffffffffffffffffff\n      and\n        /* \"ExodusAuthority/ExodusAuthority.sol\":2557:2594  GuardianPulled(guardian, newGuardian) */\n      0xffffffffffffffffffffffffffffffffffffffff\n      and\n        /* \"ExodusAuthority/ExodusAuthority.sol\":2572:2580  guardian */\n      0x03\n      0x00\n      swap1\n      sload\n      swap1\n      0x0100\n      exp\n      swap1\n      div\n      0xffffffffffffffffffffffffffffffffffffffff\n      and\n        /* \"ExodusAuthority/ExodusAuthority.sol\":2557:2594  GuardianPulled(guardian, newGuardian) */\n      0xffffffffffffffffffffffffffffffffffffffff\n      and\n      0x0960fb9900fb8096216606c4f7fc2fce5d08cc0c82da55cec8619b66b5238481\n      mload(0x40)\n      mload(0x40)\n      dup1\n      swap2\n      sub\n      swap1\n      log3\n        /* \"ExodusAuthority/ExodusAuthority.sol\":2615:2626  newGuardian */\n      0x07\n      0x00\n      swap1\n      sload\n      swap1\n      0x0100\n      exp\n      swap1\n      div\n      0xffffffffffffffffffffffffffffffffffffffff\n      and\n        /* \"ExodusAuthority/ExodusAuthority.sol\":2604:2612  guardian */\n      0x03\n      0x00\n        /* \"ExodusAuthority/ExodusAuthority.sol\":2604:2626  guardian = newGuardian */\n      0x0100\n      exp\n      dup2\n      sload\n      dup2\n      0xffffffffffffffffffffffffffffffffffffffff\n      mul\n      not\n      and\n      swap1\n      dup4\n      0xffffffffffffffffffffffffffffffffffffffff\n      and\n      mul\n      or\n      swap1\n      sstore\n      pop\n        /* \"ExodusAuthority/ExodusAuthority.sol\":2452:2633  function pullGuardian() external {... */\n      jump\t// out\n        /* \"ExodusAuthority/ExodusAccessControlled.sol\":358:391  IExodusAuthority public authority */\n    tag_70:\n      0x01\n      0x00\n      swap1\n      sload\n      swap1\n      0x0100\n      exp\n      swap1\n      div\n      0xffffffffffffffffffffffffffffffffffffffff\n      and\n      dup2\n      jump\t// out\n        /* \"ExodusAuthority/ExodusAuthority.sol\":2262:2446  function pullGovernor() external {... */\n    tag_74:\n        /* \"ExodusAuthority/ExodusAuthority.sol\":2327:2338  newGovernor */\n      0x06\n      0x00\n      swap1\n      sload\n      swap1\n      0x0100\n      exp\n      swap1\n      div\n      0xffffffffffffffffffffffffffffffffffffffff\n      and\n        /* \"ExodusAuthority/ExodusAuthority.sol\":2313:2338  msg.sender == newGovernor */\n      0xffffffffffffffffffffffffffffffffffffffff\n      and\n        /* \"ExodusAuthority/ExodusAuthority.sol\":2313:2323  msg.sender */\n      caller\n        /* \"ExodusAuthority/ExodusAuthority.sol\":2313:2338  msg.sender == newGovernor */\n      0xffffffffffffffffffffffffffffffffffffffff\n      and\n      eq\n        /* \"ExodusAuthority/ExodusAuthority.sol\":2305:2355  require(msg.sender == newGovernor, \"!newGovernor\") */\n      tag_142\n      jumpi\n      mload(0x40)\n      0x08c379a000000000000000000000000000000000000000000000000000000000\n      dup2\n      mstore\n      0x04\n      add\n      tag_143\n      swap1\n      tag_144\n      jump\t// in\n    tag_143:\n      mload(0x40)\n      dup1\n      swap2\n      sub\n      swap1\n      revert\n    tag_142:\n        /* \"ExodusAuthority/ExodusAuthority.sol\":2395:2406  newGovernor */\n      0x06\n      0x00\n      swap1\n      sload\n      swap1\n      0x0100\n      exp\n      swap1\n      div\n      0xffffffffffffffffffffffffffffffffffffffff\n      and\n        /* \"ExodusAuthority/ExodusAuthority.sol\":2370:2407  GovernorPulled(governor, newGovernor) */\n      0xffffffffffffffffffffffffffffffffffffffff\n      and\n        /* \"ExodusAuthority/ExodusAuthority.sol\":2385:2393  governor */\n      0x02\n      0x00\n      swap1\n      sload\n      swap1\n      0x0100\n      exp\n      swap1\n      div\n      0xffffffffffffffffffffffffffffffffffffffff\n      and\n        /* \"ExodusAuthority/ExodusAuthority.sol\":2370:2407  GovernorPulled(governor, newGovernor) */\n      0xffffffffffffffffffffffffffffffffffffffff\n      and\n      0xffd6fed33fe8ec1016718bdd5d04ae6fecd9aba0da6578807daaaa7fc3d16826\n      mload(0x40)\n      mload(0x40)\n      dup1\n      swap2\n      sub\n      swap1\n      log3\n        /* \"ExodusAuthority/ExodusAuthority.sol\":2428:2439  newGovernor */\n      0x06\n      0x00\n      swap1\n      sload\n      swap1\n      0x0100\n      exp\n      swap1\n      div\n      0xffffffffffffffffffffffffffffffffffffffff\n      and\n        /* \"ExodusAuthority/ExodusAuthority.sol\":2417:2425  governor */\n      0x02\n      0x00\n        /* \"ExodusAuthority/ExodusAuthority.sol\":2417:2439  governor = newGovernor */\n      0x0100\n      exp\n      dup2\n      sload\n      dup2\n      0xffffffffffffffffffffffffffffffffffffffff\n      mul\n      not\n      and\n      swap1\n      dup4\n      0xffffffffffffffffffffffffffffffffffffffff\n      and\n      mul\n      or\n      swap1\n      sstore\n      pop\n        /* \"ExodusAuthority/ExodusAuthority.sol\":2262:2446  function pullGovernor() external {... */\n      jump\t// out\n        /* \"ExodusAuthority/ExodusAuthority.sol\":376:405  address public override vault */\n    tag_76:\n      0x05\n      0x00\n      swap1\n      sload\n      swap1\n      0x0100\n      exp\n      swap1\n      div\n      0xffffffffffffffffffffffffffffffffffffffff\n      and\n      dup2\n      jump\t// out\n        /* \"#utility.yul\":7:146   */\n    tag_146:\n        /* \"#utility.yul\":53:58   */\n      0x00\n        /* \"#utility.yul\":91:97   */\n      dup2\n        /* \"#utility.yul\":78:98   */\n      calldataload\n        /* \"#utility.yul\":69:98   */\n      swap1\n      pop\n        /* \"#utility.yul\":107:140   */\n      tag_148\n        /* \"#utility.yul\":134:139   */\n      dup2\n        /* \"#utility.yul\":107:140   */\n      tag_149\n      jump\t// in\n    tag_148:\n        /* \"#utility.yul\":7:146   */\n      swap3\n      swap2\n      pop\n      pop\n      jump\t// out\n        /* \"#utility.yul\":152:295   */\n    tag_150:\n        /* \"#utility.yul\":209:214   */\n      0x00\n        /* \"#utility.yul\":240:246   */\n      dup2\n        /* \"#utility.yul\":234:247   */\n      mload\n        /* \"#utility.yul\":225:247   */\n      swap1\n      pop\n        /* \"#utility.yul\":256:289   */\n      tag_152\n        /* \"#utility.yul\":283:288   */\n      dup2\n        /* \"#utility.yul\":256:289   */\n      tag_149\n      jump\t// in\n    tag_152:\n        /* \"#utility.yul\":152:295   */\n      swap3\n      swap2\n      pop\n      pop\n      jump\t// out\n        /* \"#utility.yul\":301:434   */\n    tag_153:\n        /* \"#utility.yul\":344:349   */\n      0x00\n        /* \"#utility.yul\":382:388   */\n      dup2\n        /* \"#utility.yul\":369:389   */\n      calldataload\n        /* \"#utility.yul\":360:389   */\n      swap1\n      pop\n        /* \"#utility.yul\":398:428   */\n      tag_155\n        /* \"#utility.yul\":422:427   */\n      dup2\n        /* \"#utility.yul\":398:428   */\n      tag_156\n      jump\t// in\n    tag_155:\n        /* \"#utility.yul\":301:434   */\n      swap3\n      swap2\n      pop\n      pop\n      jump\t// out\n        /* \"#utility.yul\":440:627   */\n    tag_157:\n        /* \"#utility.yul\":510:515   */\n      0x00\n        /* \"#utility.yul\":548:554   */\n      dup2\n        /* \"#utility.yul\":535:555   */\n      calldataload\n        /* \"#utility.yul\":526:555   */\n      swap1\n      pop\n        /* \"#utility.yul\":564:621   */\n      tag_159\n        /* \"#utility.yul\":615:620   */\n      dup2\n        /* \"#utility.yul\":564:621   */\n      tag_160\n      jump\t// in\n    tag_159:\n        /* \"#utility.yul\":440:627   */\n      swap3\n      swap2\n      pop\n      pop\n      jump\t// out\n        /* \"#utility.yul\":633:984   */\n    tag_83:\n        /* \"#utility.yul\":703:709   */\n      0x00\n        /* \"#utility.yul\":752:754   */\n      0x20\n        /* \"#utility.yul\":740:749   */\n      dup3\n        /* \"#utility.yul\":731:738   */\n      dup5\n        /* \"#utility.yul\":727:750   */\n      sub\n        /* \"#utility.yul\":723:755   */\n      slt\n        /* \"#utility.yul\":720:839   */\n      iszero\n      tag_162\n      jumpi\n        /* \"#utility.yul\":758:837   */\n      tag_163\n      tag_164\n      jump\t// in\n    tag_163:\n        /* \"#utility.yul\":720:839   */\n    tag_162:\n        /* \"#utility.yul\":878:879   */\n      0x00\n        /* \"#utility.yul\":903:967   */\n      tag_165\n        /* \"#utility.yul\":959:966   */\n      dup5\n        /* \"#utility.yul\":950:956   */\n      dup3\n        /* \"#utility.yul\":939:948   */\n      dup6\n        /* \"#utility.yul\":935:957   */\n      add\n        /* \"#utility.yul\":903:967   */\n      tag_150\n      jump\t// in\n    tag_165:\n        /* \"#utility.yul\":893:967   */\n      swap2\n      pop\n        /* \"#utility.yul\":849:977   */\n      pop\n        /* \"#utility.yul\":633:984   */\n      swap3\n      swap2\n      pop\n      pop\n      jump\t// out\n        /* \"#utility.yul\":990:1458   */\n    tag_36:\n        /* \"#utility.yul\":1055:1061   */\n      0x00\n        /* \"#utility.yul\":1063:1069   */\n      dup1\n        /* \"#utility.yul\":1112:1114   */\n      0x40\n        /* \"#utility.yul\":1100:1109   */\n      dup4\n        /* \"#utility.yul\":1091:1098   */\n      dup6\n        /* \"#utility.yul\":1087:1110   */\n      sub\n        /* \"#utility.yul\":1083:1115   */\n      slt\n        /* \"#utility.yul\":1080:1199   */\n      iszero\n      tag_167\n      jumpi\n        /* \"#utility.yul\":1118:1197   */\n      tag_168\n      tag_164\n      jump\t// in\n    tag_168:\n        /* \"#utility.yul\":1080:1199   */\n    tag_167:\n        /* \"#utility.yul\":1238:1239   */\n      0x00\n        /* \"#utility.yul\":1263:1316   */\n      tag_169\n        /* \"#utility.yul\":1308:1315   */\n      dup6\n        /* \"#utility.yul\":1299:1305   */\n      dup3\n        /* \"#utility.yul\":1288:1297   */\n      dup7\n        /* \"#utility.yul\":1284:1306   */\n      add\n        /* \"#utility.yul\":1263:1316   */\n      tag_146\n      jump\t// in\n    tag_169:\n        /* \"#utility.yul\":1253:1316   */\n      swap3\n      pop\n        /* \"#utility.yul\":1209:1326   */\n      pop\n        /* \"#utility.yul\":1365:1367   */\n      0x20\n        /* \"#utility.yul\":1391:1441   */\n      tag_170\n        /* \"#utility.yul\":1433:1440   */\n      dup6\n        /* \"#utility.yul\":1424:1430   */\n      dup3\n        /* \"#utility.yul\":1413:1422   */\n      dup7\n        /* \"#utility.yul\":1409:1431   */\n      add\n        /* \"#utility.yul\":1391:1441   */\n      tag_153\n      jump\t// in\n    tag_170:\n        /* \"#utility.yul\":1381:1441   */\n      swap2\n      pop\n        /* \"#utility.yul\":1336:1451   */\n      pop\n        /* \"#utility.yul\":990:1458   */\n      swap3\n      pop\n      swap3\n      swap1\n      pop\n      jump\t// out\n        /* \"#utility.yul\":1464:1841   */\n    tag_59:\n        /* \"#utility.yul\":1547:1553   */\n      0x00\n        /* \"#utility.yul\":1596:1598   */\n      0x20\n        /* \"#utility.yul\":1584:1593   */\n      dup3\n        /* \"#utility.yul\":1575:1582   */\n      dup5\n        /* \"#utility.yul\":1571:1594   */\n      sub\n        /* \"#utility.yul\":1567:1599   */\n      slt\n        /* \"#utility.yul\":1564:1683   */\n      iszero\n      tag_172\n      jumpi\n        /* \"#utility.yul\":1602:1681   */\n      tag_173\n      tag_164\n      jump\t// in\n    tag_173:\n        /* \"#utility.yul\":1564:1683   */\n    tag_172:\n        /* \"#utility.yul\":1722:1723   */\n      0x00\n        /* \"#utility.yul\":1747:1824   */\n      tag_174\n        /* \"#utility.yul\":1816:1823   */\n      dup5\n        /* \"#utility.yul\":1807:1813   */\n      dup3\n        /* \"#utility.yul\":1796:1805   */\n      dup6\n        /* \"#utility.yul\":1792:1814   */\n      add\n        /* \"#utility.yul\":1747:1824   */\n      tag_157\n      jump\t// in\n    tag_174:\n        /* \"#utility.yul\":1737:1824   */\n      swap2\n      pop\n        /* \"#utility.yul\":1693:1834   */\n      pop\n        /* \"#utility.yul\":1464:1841   */\n      swap3\n      swap2\n      pop\n      pop\n      jump\t// out\n        /* \"#utility.yul\":1847:1965   */\n    tag_175:\n        /* \"#utility.yul\":1934:1958   */\n      tag_177\n        /* \"#utility.yul\":1952:1957   */\n      dup2\n        /* \"#utility.yul\":1934:1958   */\n      tag_178\n      jump\t// in\n    tag_177:\n        /* \"#utility.yul\":1929:1932   */\n      dup3\n        /* \"#utility.yul\":1922:1959   */\n      mstore\n        /* \"#utility.yul\":1847:1965   */\n      pop\n      pop\n      jump\t// out\n        /* \"#utility.yul\":1971:2080   */\n    tag_179:\n        /* \"#utility.yul\":2052:2073   */\n      tag_181\n        /* \"#utility.yul\":2067:2072   */\n      dup2\n        /* \"#utility.yul\":2052:2073   */\n      tag_182\n      jump\t// in\n    tag_181:\n        /* \"#utility.yul\":2047:2050   */\n      dup3\n        /* \"#utility.yul\":2040:2074   */\n      mstore\n        /* \"#utility.yul\":1971:2080   */\n      pop\n      pop\n      jump\t// out\n        /* \"#utility.yul\":2086:2265   */\n    tag_183:\n        /* \"#utility.yul\":2197:2258   */\n      tag_185\n        /* \"#utility.yul\":2252:2257   */\n      dup2\n        /* \"#utility.yul\":2197:2258   */\n      tag_186\n      jump\t// in\n    tag_185:\n        /* \"#utility.yul\":2192:2195   */\n      dup3\n        /* \"#utility.yul\":2185:2259   */\n      mstore\n        /* \"#utility.yul\":2086:2265   */\n      pop\n      pop\n      jump\t// out\n        /* \"#utility.yul\":2295:3097   */\n    tag_187:\n        /* \"#utility.yul\":2380:2383   */\n      0x00\n        /* \"#utility.yul\":2417:2422   */\n      dup2\n        /* \"#utility.yul\":2411:2423   */\n      sload\n        /* \"#utility.yul\":2446:2482   */\n      tag_189\n        /* \"#utility.yul\":2472:2481   */\n      dup2\n        /* \"#utility.yul\":2446:2482   */\n      tag_190\n      jump\t// in\n    tag_189:\n        /* \"#utility.yul\":2498:2569   */\n      tag_191\n        /* \"#utility.yul\":2562:2568   */\n      dup2\n        /* \"#utility.yul\":2557:2560   */\n      dup7\n        /* \"#utility.yul\":2498:2569   */\n      tag_192\n      jump\t// in\n    tag_191:\n        /* \"#utility.yul\":2491:2569   */\n      swap5\n      pop\n        /* \"#utility.yul\":2600:2601   */\n      0x01\n        /* \"#utility.yul\":2589:2598   */\n      dup3\n        /* \"#utility.yul\":2585:2602   */\n      and\n        /* \"#utility.yul\":2616:2617   */\n      0x00\n        /* \"#utility.yul\":2611:2746   */\n      dup2\n      eq\n      tag_194\n      jumpi\n        /* \"#utility.yul\":2760:2761   */\n      0x01\n        /* \"#utility.yul\":2755:3091   */\n      dup2\n      eq\n      tag_195\n      jumpi\n        /* \"#utility.yul\":2578:3091   */\n      jump(tag_193)\n        /* \"#utility.yul\":2611:2746   */\n    tag_194:\n        /* \"#utility.yul\":2695:2699   */\n      0xff\n        /* \"#utility.yul\":2691:2700   */\n      not\n        /* \"#utility.yul\":2680:2689   */\n      dup4\n        /* \"#utility.yul\":2676:2701   */\n      and\n        /* \"#utility.yul\":2671:2674   */\n      dup7\n        /* \"#utility.yul\":2664:2702   */\n      mstore\n        /* \"#utility.yul\":2731:2735   */\n      0x20\n        /* \"#utility.yul\":2726:2729   */\n      dup7\n        /* \"#utility.yul\":2722:2736   */\n      add\n        /* \"#utility.yul\":2715:2736   */\n      swap4\n      pop\n        /* \"#utility.yul\":2611:2746   */\n      jump(tag_193)\n        /* \"#utility.yul\":2755:3091   */\n    tag_195:\n        /* \"#utility.yul\":2822:2860   */\n      tag_196\n        /* \"#utility.yul\":2854:2859   */\n      dup6\n        /* \"#utility.yul\":2822:2860   */\n      tag_197\n      jump\t// in\n    tag_196:\n        /* \"#utility.yul\":2882:2883   */\n      0x00\n        /* \"#utility.yul\":2896:3050   */\n    tag_198:\n        /* \"#utility.yul\":2910:2916   */\n      dup4\n        /* \"#utility.yul\":2907:2908   */\n      dup2\n        /* \"#utility.yul\":2904:2917   */\n      lt\n        /* \"#utility.yul\":2896:3050   */\n      iszero\n      tag_200\n      jumpi\n        /* \"#utility.yul\":2984:2991   */\n      dup2\n        /* \"#utility.yul\":2978:2992   */\n      sload\n        /* \"#utility.yul\":2974:2975   */\n      dup2\n        /* \"#utility.yul\":2969:2972   */\n      dup10\n        /* \"#utility.yul\":2965:2976   */\n      add\n        /* \"#utility.yul\":2958:2993   */\n      mstore\n        /* \"#utility.yul\":3034:3035   */\n      0x01\n        /* \"#utility.yul\":3025:3032   */\n      dup3\n        /* \"#utility.yul\":3021:3036   */\n      add\n        /* \"#utility.yul\":3010:3036   */\n      swap2\n      pop\n        /* \"#utility.yul\":2932:2936   */\n      0x20\n        /* \"#utility.yul\":2929:2930   */\n      dup2\n        /* \"#utility.yul\":2925:2937   */\n      add\n        /* \"#utility.yul\":2920:2937   */\n      swap1\n      pop\n        /* \"#utility.yul\":2896:3050   */\n      jump(tag_198)\n    tag_200:\n        /* \"#utility.yul\":3079:3080   */\n      dup1\n        /* \"#utility.yul\":3074:3077   */\n      dup9\n        /* \"#utility.yul\":3070:3081   */\n      add\n        /* \"#utility.yul\":3063:3081   */\n      swap6\n      pop\n        /* \"#utility.yul\":2762:3091   */\n      pop\n      pop\n        /* \"#utility.yul\":2578:3091   */\n    tag_193:\n      pop\n        /* \"#utility.yul\":2384:3097   */\n      pop\n      pop\n        /* \"#utility.yul\":2295:3097   */\n      swap3\n      swap2\n      pop\n      pop\n      jump\t// out\n        /* \"#utility.yul\":3103:3468   */\n    tag_201:\n        /* \"#utility.yul\":3245:3248   */\n      0x00\n        /* \"#utility.yul\":3266:3332   */\n      tag_203\n        /* \"#utility.yul\":3330:3331   */\n      0x09\n        /* \"#utility.yul\":3325:3328   */\n      dup4\n        /* \"#utility.yul\":3266:3332   */\n      tag_192\n      jump\t// in\n    tag_203:\n        /* \"#utility.yul\":3259:3332   */\n      swap2\n      pop\n        /* \"#utility.yul\":3341:3434   */\n      tag_204\n        /* \"#utility.yul\":3430:3433   */\n      dup3\n        /* \"#utility.yul\":3341:3434   */\n      tag_205\n      jump\t// in\n    tag_204:\n        /* \"#utility.yul\":3459:3461   */\n      0x20\n        /* \"#utility.yul\":3454:3457   */\n      dup3\n        /* \"#utility.yul\":3450:3462   */\n      add\n        /* \"#utility.yul\":3443:3462   */\n      swap1\n      pop\n        /* \"#utility.yul\":3103:3468   */\n      swap2\n      swap1\n      pop\n      jump\t// out\n        /* \"#utility.yul\":3474:3840   */\n    tag_206:\n        /* \"#utility.yul\":3616:3619   */\n      0x00\n        /* \"#utility.yul\":3637:3704   */\n      tag_208\n        /* \"#utility.yul\":3701:3703   */\n      0x0a\n        /* \"#utility.yul\":3696:3699   */\n      dup4\n        /* \"#utility.yul\":3637:3704   */\n      tag_192\n      jump\t// in\n    tag_208:\n        /* \"#utility.yul\":3630:3704   */\n      swap2\n      pop\n        /* \"#utility.yul\":3713:3806   */\n      tag_209\n        /* \"#utility.yul\":3802:3805   */\n      dup3\n        /* \"#utility.yul\":3713:3806   */\n      tag_210\n      jump\t// in\n    tag_209:\n        /* \"#utility.yul\":3831:3833   */\n      0x20\n        /* \"#utility.yul\":3826:3829   */\n      dup3\n        /* \"#utility.yul\":3822:3834   */\n      add\n        /* \"#utility.yul\":3815:3834   */\n      swap1\n      pop\n        /* \"#utility.yul\":3474:3840   */\n      swap2\n      swap1\n      pop\n      jump\t// out\n        /* \"#utility.yul\":3846:4212   */\n    tag_211:\n        /* \"#utility.yul\":3988:3991   */\n      0x00\n        /* \"#utility.yul\":4009:4076   */\n      tag_213\n        /* \"#utility.yul\":4073:4075   */\n      0x0c\n        /* \"#utility.yul\":4068:4071   */\n      dup4\n        /* \"#utility.yul\":4009:4076   */\n      tag_192\n      jump\t// in\n    tag_213:\n        /* \"#utility.yul\":4002:4076   */\n      swap2\n      pop\n        /* \"#utility.yul\":4085:4178   */\n      tag_214\n        /* \"#utility.yul\":4174:4177   */\n      dup3\n        /* \"#utility.yul\":4085:4178   */\n      tag_215\n      jump\t// in\n    tag_214:\n        /* \"#utility.yul\":4203:4205   */\n      0x20\n        /* \"#utility.yul\":4198:4201   */\n      dup3\n        /* \"#utility.yul\":4194:4206   */\n      add\n        /* \"#utility.yul\":4187:4206   */\n      swap1\n      pop\n        /* \"#utility.yul\":3846:4212   */\n      swap2\n      swap1\n      pop\n      jump\t// out\n        /* \"#utility.yul\":4218:4583   */\n    tag_216:\n        /* \"#utility.yul\":4360:4363   */\n      0x00\n        /* \"#utility.yul\":4381:4447   */\n      tag_218\n        /* \"#utility.yul\":4445:4446   */\n      0x09\n        /* \"#utility.yul\":4440:4443   */\n      dup4\n        /* \"#utility.yul\":4381:4447   */\n      tag_192\n      jump\t// in\n    tag_218:\n        /* \"#utility.yul\":4374:4447   */\n      swap2\n      pop\n        /* \"#utility.yul\":4456:4549   */\n      tag_219\n        /* \"#utility.yul\":4545:4548   */\n      dup3\n        /* \"#utility.yul\":4456:4549   */\n      tag_220\n      jump\t// in\n    tag_219:\n        /* \"#utility.yul\":4574:4576   */\n      0x20\n        /* \"#utility.yul\":4569:4572   */\n      dup3\n        /* \"#utility.yul\":4565:4577   */\n      add\n        /* \"#utility.yul\":4558:4577   */\n      swap1\n      pop\n        /* \"#utility.yul\":4218:4583   */\n      swap2\n      swap1\n      pop\n      jump\t// out\n        /* \"#utility.yul\":4589:4811   */\n    tag_27:\n        /* \"#utility.yul\":4682:4686   */\n      0x00\n        /* \"#utility.yul\":4720:4722   */\n      0x20\n        /* \"#utility.yul\":4709:4718   */\n      dup3\n        /* \"#utility.yul\":4705:4723   */\n      add\n        /* \"#utility.yul\":4697:4723   */\n      swap1\n      pop\n        /* \"#utility.yul\":4733:4804   */\n      tag_222\n        /* \"#utility.yul\":4801:4802   */\n      0x00\n        /* \"#utility.yul\":4790:4799   */\n      dup4\n        /* \"#utility.yul\":4786:4803   */\n      add\n        /* \"#utility.yul\":4777:4783   */\n      dup5\n        /* \"#utility.yul\":4733:4804   */\n      tag_175\n      jump\t// in\n    tag_222:\n        /* \"#utility.yul\":4589:4811   */\n      swap3\n      swap2\n      pop\n      pop\n      jump\t// out\n        /* \"#utility.yul\":4817:5027   */\n    tag_90:\n        /* \"#utility.yul\":4904:4908   */\n      0x00\n        /* \"#utility.yul\":4942:4944   */\n      0x20\n        /* \"#utility.yul\":4931:4940   */\n      dup3\n        /* \"#utility.yul\":4927:4945   */\n      add\n        /* \"#utility.yul\":4919:4945   */\n      swap1\n      pop\n        /* \"#utility.yul\":4955:5020   */\n      tag_224\n        /* \"#utility.yul\":5017:5018   */\n      0x00\n        /* \"#utility.yul\":5006:5015   */\n      dup4\n        /* \"#utility.yul\":5002:5019   */\n      add\n        /* \"#utility.yul\":4993:4999   */\n      dup5\n        /* \"#utility.yul\":4955:5020   */\n      tag_179\n      jump\t// in\n    tag_224:\n        /* \"#utility.yul\":4817:5027   */\n      swap3\n      swap2\n      pop\n      pop\n      jump\t// out\n        /* \"#utility.yul\":5033:5303   */\n    tag_72:\n        /* \"#utility.yul\":5150:5154   */\n      0x00\n        /* \"#utility.yul\":5188:5190   */\n      0x20\n        /* \"#utility.yul\":5177:5186   */\n      dup3\n        /* \"#utility.yul\":5173:5191   */\n      add\n        /* \"#utility.yul\":5165:5191   */\n      swap1\n      pop\n        /* \"#utility.yul\":5201:5296   */\n      tag_226\n        /* \"#utility.yul\":5293:5294   */\n      0x00\n        /* \"#utility.yul\":5282:5291   */\n      dup4\n        /* \"#utility.yul\":5278:5295   */\n      add\n        /* \"#utility.yul\":5269:5275   */\n      dup5\n        /* \"#utility.yul\":5201:5296   */\n      tag_183\n      jump\t// in\n    tag_226:\n        /* \"#utility.yul\":5033:5303   */\n      swap3\n      swap2\n      pop\n      pop\n      jump\t// out\n        /* \"#utility.yul\":5309:5616   */\n    tag_86:\n        /* \"#utility.yul\":5419:5423   */\n      0x00\n        /* \"#utility.yul\":5457:5459   */\n      0x20\n        /* \"#utility.yul\":5446:5455   */\n      dup3\n        /* \"#utility.yul\":5442:5460   */\n      add\n        /* \"#utility.yul\":5434:5460   */\n      swap1\n      pop\n        /* \"#utility.yul\":5506:5515   */\n      dup2\n        /* \"#utility.yul\":5500:5504   */\n      dup2\n        /* \"#utility.yul\":5496:5516   */\n      sub\n        /* \"#utility.yul\":5492:5493   */\n      0x00\n        /* \"#utility.yul\":5481:5490   */\n      dup4\n        /* \"#utility.yul\":5477:5494   */\n      add\n        /* \"#utility.yul\":5470:5517   */\n      mstore\n        /* \"#utility.yul\":5534:5609   */\n      tag_228\n        /* \"#utility.yul\":5604:5608   */\n      dup2\n        /* \"#utility.yul\":5595:5601   */\n      dup5\n        /* \"#utility.yul\":5534:5609   */\n      tag_187\n      jump\t// in\n    tag_228:\n        /* \"#utility.yul\":5526:5609   */\n      swap1\n      pop\n        /* \"#utility.yul\":5309:5616   */\n      swap3\n      swap2\n      pop\n      pop\n      jump\t// out\n        /* \"#utility.yul\":5622:6041   */\n    tag_94:\n        /* \"#utility.yul\":5788:5792   */\n      0x00\n        /* \"#utility.yul\":5826:5828   */\n      0x20\n        /* \"#utility.yul\":5815:5824   */\n      dup3\n        /* \"#utility.yul\":5811:5829   */\n      add\n        /* \"#utility.yul\":5803:5829   */\n      swap1\n      pop\n        /* \"#utility.yul\":5875:5884   */\n      dup2\n        /* \"#utility.yul\":5869:5873   */\n      dup2\n        /* \"#utility.yul\":5865:5885   */\n      sub\n        /* \"#utility.yul\":5861:5862   */\n      0x00\n        /* \"#utility.yul\":5850:5859   */\n      dup4\n        /* \"#utility.yul\":5846:5863   */\n      add\n        /* \"#utility.yul\":5839:5886   */\n      mstore\n        /* \"#utility.yul\":5903:6034   */\n      tag_230\n        /* \"#utility.yul\":6029:6033   */\n      dup2\n        /* \"#utility.yul\":5903:6034   */\n      tag_201\n      jump\t// in\n    tag_230:\n        /* \"#utility.yul\":5895:6034   */\n      swap1\n      pop\n        /* \"#utility.yul\":5622:6041   */\n      swap2\n      swap1\n      pop\n      jump\t// out\n        /* \"#utility.yul\":6047:6466   */\n    tag_118:\n        /* \"#utility.yul\":6213:6217   */\n      0x00\n        /* \"#utility.yul\":6251:6253   */\n      0x20\n        /* \"#utility.yul\":6240:6249   */\n      dup3\n        /* \"#utility.yul\":6236:6254   */\n      add\n        /* \"#utility.yul\":6228:6254   */\n      swap1\n      pop\n        /* \"#utility.yul\":6300:6309   */\n      dup2\n        /* \"#utility.yul\":6294:6298   */\n      dup2\n        /* \"#utility.yul\":6290:6310   */\n      sub\n        /* \"#utility.yul\":6286:6287   */\n      0x00\n        /* \"#utility.yul\":6275:6284   */\n      dup4\n        /* \"#utility.yul\":6271:6288   */\n      add\n        /* \"#utility.yul\":6264:6311   */\n      mstore\n        /* \"#utility.yul\":6328:6459   */\n      tag_232\n        /* \"#utility.yul\":6454:6458   */\n      dup2\n        /* \"#utility.yul\":6328:6459   */\n      tag_206\n      jump\t// in\n    tag_232:\n        /* \"#utility.yul\":6320:6459   */\n      swap1\n      pop\n        /* \"#utility.yul\":6047:6466   */\n      swap2\n      swap1\n      pop\n      jump\t// out\n        /* \"#utility.yul\":6472:6891   */\n    tag_144:\n        /* \"#utility.yul\":6638:6642   */\n      0x00\n        /* \"#utility.yul\":6676:6678   */\n      0x20\n        /* \"#utility.yul\":6665:6674   */\n      dup3\n        /* \"#utility.yul\":6661:6679   */\n      add\n        /* \"#utility.yul\":6653:6679   */\n      swap1\n      pop\n        /* \"#utility.yul\":6725:6734   */\n      dup2\n        /* \"#utility.yul\":6719:6723   */\n      dup2\n        /* \"#utility.yul\":6715:6735   */\n      sub\n        /* \"#utility.yul\":6711:6712   */\n      0x00\n        /* \"#utility.yul\":6700:6709   */\n      dup4\n        /* \"#utility.yul\":6696:6713   */\n      add\n        /* \"#utility.yul\":6689:6736   */\n      mstore\n        /* \"#utility.yul\":6753:6884   */\n      tag_234\n        /* \"#utility.yul\":6879:6883   */\n      dup2\n        /* \"#utility.yul\":6753:6884   */\n      tag_211\n      jump\t// in\n    tag_234:\n        /* \"#utility.yul\":6745:6884   */\n      swap1\n      pop\n        /* \"#utility.yul\":6472:6891   */\n      swap2\n      swap1\n      pop\n      jump\t// out\n        /* \"#utility.yul\":6897:7316   */\n    tag_140:\n        /* \"#utility.yul\":7063:7067   */\n      0x00\n        /* \"#utility.yul\":7101:7103   */\n      0x20\n        /* \"#utility.yul\":7090:7099   */\n      dup3\n        /* \"#utility.yul\":7086:7104   */\n      add\n        /* \"#utility.yul\":7078:7104   */\n      swap1\n      pop\n        /* \"#utility.yul\":7150:7159   */\n      dup2\n        /* \"#utility.yul\":7144:7148   */\n      dup2\n        /* \"#utility.yul\":7140:7160   */\n      sub\n        /* \"#utility.yul\":7136:7137   */\n      0x00\n        /* \"#utility.yul\":7125:7134   */\n      dup4\n        /* \"#utility.yul\":7121:7138   */\n      add\n        /* \"#utility.yul\":7114:7161   */\n      mstore\n        /* \"#utility.yul\":7178:7309   */\n      tag_236\n        /* \"#utility.yul\":7304:7308   */\n      dup2\n        /* \"#utility.yul\":7178:7309   */\n      tag_216\n      jump\t// in\n    tag_236:\n        /* \"#utility.yul\":7170:7309   */\n      swap1\n      pop\n        /* \"#utility.yul\":6897:7316   */\n      swap2\n      swap1\n      pop\n      jump\t// out\n        /* \"#utility.yul\":7403:7544   */\n    tag_197:\n        /* \"#utility.yul\":7452:7456   */\n      0x00\n        /* \"#utility.yul\":7475:7478   */\n      dup2\n        /* \"#utility.yul\":7467:7478   */\n      swap1\n      pop\n        /* \"#utility.yul\":7498:7501   */\n      dup2\n        /* \"#utility.yul\":7495:7496   */\n      0x00\n        /* \"#utility.yul\":7488:7502   */\n      mstore\n        /* \"#utility.yul\":7532:7536   */\n      0x20\n        /* \"#utility.yul\":7529:7530   */\n      0x00\n        /* \"#utility.yul\":7519:7537   */\n      keccak256\n        /* \"#utility.yul\":7511:7537   */\n      swap1\n      pop\n        /* \"#utility.yul\":7403:7544   */\n      swap2\n      swap1\n      pop\n      jump\t// out\n        /* \"#utility.yul\":7550:7719   */\n    tag_192:\n        /* \"#utility.yul\":7634:7645   */\n      0x00\n        /* \"#utility.yul\":7668:7674   */\n      dup3\n        /* \"#utility.yul\":7663:7666   */\n      dup3\n        /* \"#utility.yul\":7656:7675   */\n      mstore\n        /* \"#utility.yul\":7708:7712   */\n      0x20\n        /* \"#utility.yul\":7703:7706   */\n      dup3\n        /* \"#utility.yul\":7699:7713   */\n      add\n        /* \"#utility.yul\":7684:7713   */\n      swap1\n      pop\n        /* \"#utility.yul\":7550:7719   */\n      swap3\n      swap2\n      pop\n      pop\n      jump\t// out\n        /* \"#utility.yul\":7725:7821   */\n    tag_178:\n        /* \"#utility.yul\":7762:7769   */\n      0x00\n        /* \"#utility.yul\":7791:7815   */\n      tag_242\n        /* \"#utility.yul\":7809:7814   */\n      dup3\n        /* \"#utility.yul\":7791:7815   */\n      tag_243\n      jump\t// in\n    tag_242:\n        /* \"#utility.yul\":7780:7815   */\n      swap1\n      pop\n        /* \"#utility.yul\":7725:7821   */\n      swap2\n      swap1\n      pop\n      jump\t// out\n        /* \"#utility.yul\":7827:7917   */\n    tag_182:\n        /* \"#utility.yul\":7861:7868   */\n      0x00\n        /* \"#utility.yul\":7904:7909   */\n      dup2\n        /* \"#utility.yul\":7897:7910   */\n      iszero\n        /* \"#utility.yul\":7890:7911   */\n      iszero\n        /* \"#utility.yul\":7879:7911   */\n      swap1\n      pop\n        /* \"#utility.yul\":7827:7917   */\n      swap2\n      swap1\n      pop\n      jump\t// out\n        /* \"#utility.yul\":7923:8043   */\n    tag_245:\n        /* \"#utility.yul\":7984:7991   */\n      0x00\n        /* \"#utility.yul\":8013:8037   */\n      tag_247\n        /* \"#utility.yul\":8031:8036   */\n      dup3\n        /* \"#utility.yul\":8013:8037   */\n      tag_178\n      jump\t// in\n    tag_247:\n        /* \"#utility.yul\":8002:8037   */\n      swap1\n      pop\n        /* \"#utility.yul\":7923:8043   */\n      swap2\n      swap1\n      pop\n      jump\t// out\n        /* \"#utility.yul\":8049:8175   */\n    tag_243:\n        /* \"#utility.yul\":8086:8093   */\n      0x00\n        /* \"#utility.yul\":8126:8168   */\n      0xffffffffffffffffffffffffffffffffffffffff\n        /* \"#utility.yul\":8119:8124   */\n      dup3\n        /* \"#utility.yul\":8115:8169   */\n      and\n        /* \"#utility.yul\":8104:8169   */\n      swap1\n      pop\n        /* \"#utility.yul\":8049:8175   */\n      swap2\n      swap1\n      pop\n      jump\t// out\n        /* \"#utility.yul\":8181:8331   */\n    tag_186:\n        /* \"#utility.yul\":8255:8264   */\n      0x00\n        /* \"#utility.yul\":8288:8325   */\n      tag_250\n        /* \"#utility.yul\":8319:8324   */\n      dup3\n        /* \"#utility.yul\":8288:8325   */\n      tag_251\n      jump\t// in\n    tag_250:\n        /* \"#utility.yul\":8275:8325   */\n      swap1\n      pop\n        /* \"#utility.yul\":8181:8331   */\n      swap2\n      swap1\n      pop\n      jump\t// out\n        /* \"#utility.yul\":8337:8463   */\n    tag_251:\n        /* \"#utility.yul\":8387:8396   */\n      0x00\n        /* \"#utility.yul\":8420:8457   */\n      tag_253\n        /* \"#utility.yul\":8451:8456   */\n      dup3\n        /* \"#utility.yul\":8420:8457   */\n      tag_254\n      jump\t// in\n    tag_253:\n        /* \"#utility.yul\":8407:8457   */\n      swap1\n      pop\n        /* \"#utility.yul\":8337:8463   */\n      swap2\n      swap1\n      pop\n      jump\t// out\n        /* \"#utility.yul\":8469:8582   */\n    tag_254:\n        /* \"#utility.yul\":8519:8528   */\n      0x00\n        /* \"#utility.yul\":8552:8576   */\n      tag_256\n        /* \"#utility.yul\":8570:8575   */\n      dup3\n        /* \"#utility.yul\":8552:8576   */\n      tag_243\n      jump\t// in\n    tag_256:\n        /* \"#utility.yul\":8539:8576   */\n      swap1\n      pop\n        /* \"#utility.yul\":8469:8582   */\n      swap2\n      swap1\n      pop\n      jump\t// out\n        /* \"#utility.yul\":8588:8908   */\n    tag_190:\n        /* \"#utility.yul\":8632:8638   */\n      0x00\n        /* \"#utility.yul\":8669:8670   */\n      0x02\n        /* \"#utility.yul\":8663:8667   */\n      dup3\n        /* \"#utility.yul\":8659:8671   */\n      div\n        /* \"#utility.yul\":8649:8671   */\n      swap1\n      pop\n        /* \"#utility.yul\":8716:8717   */\n      0x01\n        /* \"#utility.yul\":8710:8714   */\n      dup3\n        /* \"#utility.yul\":8706:8718   */\n      and\n        /* \"#utility.yul\":8737:8755   */\n      dup1\n        /* \"#utility.yul\":8727:8808   */\n      tag_258\n      jumpi\n        /* \"#utility.yul\":8793:8797   */\n      0x7f\n        /* \"#utility.yul\":8785:8791   */\n      dup3\n        /* \"#utility.yul\":8781:8798   */\n      and\n        /* \"#utility.yul\":8771:8798   */\n      swap2\n      pop\n        /* \"#utility.yul\":8727:8808   */\n    tag_258:\n        /* \"#utility.yul\":8855:8857   */\n      0x20\n        /* \"#utility.yul\":8847:8853   */\n      dup3\n        /* \"#utility.yul\":8844:8858   */\n      lt\n        /* \"#utility.yul\":8824:8842   */\n      dup2\n        /* \"#utility.yul\":8821:8859   */\n      eq\n        /* \"#utility.yul\":8818:8902   */\n      iszero\n      tag_259\n      jumpi\n        /* \"#utility.yul\":8874:8892   */\n      tag_260\n      tag_261\n      jump\t// in\n    tag_260:\n        /* \"#utility.yul\":8818:8902   */\n    tag_259:\n        /* \"#utility.yul\":8639:8908   */\n      pop\n        /* \"#utility.yul\":8588:8908   */\n      swap2\n      swap1\n      pop\n      jump\t// out\n        /* \"#utility.yul\":8914:9094   */\n    tag_261:\n        /* \"#utility.yul\":8962:9039   */\n      0x4e487b7100000000000000000000000000000000000000000000000000000000\n        /* \"#utility.yul\":8959:8960   */\n      0x00\n        /* \"#utility.yul\":8952:9040   */\n      mstore\n        /* \"#utility.yul\":9059:9063   */\n      0x22\n        /* \"#utility.yul\":9056:9057   */\n      0x04\n        /* \"#utility.yul\":9049:9064   */\n      mstore\n        /* \"#utility.yul\":9083:9087   */\n      0x24\n        /* \"#utility.yul\":9080:9081   */\n      0x00\n        /* \"#utility.yul\":9073:9088   */\n      revert\n        /* \"#utility.yul\":9223:9340   */\n    tag_164:\n        /* \"#utility.yul\":9332:9333   */\n      0x00\n        /* \"#utility.yul\":9329:9330   */\n      dup1\n        /* \"#utility.yul\":9322:9334   */\n      revert\n        /* \"#utility.yul\":9346:9505   */\n    tag_205:\n        /* \"#utility.yul\":9486:9497   */\n      0x216e65775661756c740000000000000000000000000000000000000000000000\n        /* \"#utility.yul\":9482:9483   */\n      0x00\n        /* \"#utility.yul\":9474:9480   */\n      dup3\n        /* \"#utility.yul\":9470:9484   */\n      add\n        /* \"#utility.yul\":9463:9498   */\n      mstore\n        /* \"#utility.yul\":9346:9505   */\n      pop\n      jump\t// out\n        /* \"#utility.yul\":9511:9671   */\n    tag_210:\n        /* \"#utility.yul\":9651:9663   */\n      0x216e6577506f6c69637900000000000000000000000000000000000000000000\n        /* \"#utility.yul\":9647:9648   */\n      0x00\n        /* \"#utility.yul\":9639:9645   */\n      dup3\n        /* \"#utility.yul\":9635:9649   */\n      add\n        /* \"#utility.yul\":9628:9664   */\n      mstore\n        /* \"#utility.yul\":9511:9671   */\n      pop\n      jump\t// out\n        /* \"#utility.yul\":9677:9839   */\n    tag_215:\n        /* \"#utility.yul\":9817:9831   */\n      0x216e6577476f7665726e6f720000000000000000000000000000000000000000\n        /* \"#utility.yul\":9813:9814   */\n      0x00\n        /* \"#utility.yul\":9805:9811   */\n      dup3\n        /* \"#utility.yul\":9801:9815   */\n      add\n        /* \"#utility.yul\":9794:9832   */\n      mstore\n        /* \"#utility.yul\":9677:9839   */\n      pop\n      jump\t// out\n        /* \"#utility.yul\":9845:10004   */\n    tag_220:\n        /* \"#utility.yul\":9985:9996   */\n      0x216e657747756172640000000000000000000000000000000000000000000000\n        /* \"#utility.yul\":9981:9982   */\n      0x00\n        /* \"#utility.yul\":9973:9979   */\n      dup3\n        /* \"#utility.yul\":9969:9983   */\n      add\n        /* \"#utility.yul\":9962:9997   */\n      mstore\n        /* \"#utility.yul\":9845:10004   */\n      pop\n      jump\t// out\n        /* \"#utility.yul\":10010:10132   */\n    tag_149:\n        /* \"#utility.yul\":10083:10107   */\n      tag_271\n        /* \"#utility.yul\":10101:10106   */\n      dup2\n        /* \"#utility.yul\":10083:10107   */\n      tag_178\n      jump\t// in\n    tag_271:\n        /* \"#utility.yul\":10076:10081   */\n      dup2\n        /* \"#utility.yul\":10073:10108   */\n      eq\n        /* \"#utility.yul\":10063:10126   */\n      tag_272\n      jumpi\n        /* \"#utility.yul\":10122:10123   */\n      0x00\n        /* \"#utility.yul\":10119:10120   */\n      dup1\n        /* \"#utility.yul\":10112:10124   */\n      revert\n        /* \"#utility.yul\":10063:10126   */\n    tag_272:\n        /* \"#utility.yul\":10010:10132   */\n      pop\n      jump\t// out\n        /* \"#utility.yul\":10138:10254   */\n    tag_156:\n        /* \"#utility.yul\":10208:10229   */\n      tag_274\n        /* \"#utility.yul\":10223:10228   */\n      dup2\n        /* \"#utility.yul\":10208:10229   */\n      tag_182\n      jump\t// in\n    tag_274:\n        /* \"#utility.yul\":10201:10206   */\n      dup2\n        /* \"#utility.yul\":10198:10230   */\n      eq\n        /* \"#utility.yul\":10188:10248   */\n      tag_275\n      jumpi\n        /* \"#utility.yul\":10244:10245   */\n      0x00\n        /* \"#utility.yul\":10241:10242   */\n      dup1\n        /* \"#utility.yul\":10234:10246   */\n      revert\n        /* \"#utility.yul\":10188:10248   */\n    tag_275:\n        /* \"#utility.yul\":10138:10254   */\n      pop\n      jump\t// out\n        /* \"#utility.yul\":10260:10430   */\n    tag_160:\n        /* \"#utility.yul\":10357:10405   */\n      tag_277\n        /* \"#utility.yul\":10399:10404   */\n      dup2\n        /* \"#utility.yul\":10357:10405   */\n      tag_245\n      jump\t// in\n    tag_277:\n        /* \"#utility.yul\":10350:10355   */\n      dup2\n        /* \"#utility.yul\":10347:10406   */\n      eq\n        /* \"#utility.yul\":10337:10424   */\n      tag_278\n      jumpi\n        /* \"#utility.yul\":10420:10421   */\n      0x00\n        /* \"#utility.yul\":10417:10418   */\n      dup1\n        /* \"#utility.yul\":10410:10422   */\n      revert\n        /* \"#utility.yul\":10337:10424   */\n    tag_278:\n        /* \"#utility.yul\":10260:10430   */\n      pop\n      jump\t// out\n\n    auxdata: 0xa26469706673582212200bfb5cf1ce62af9a22d9fe30b5cfa5d7d3918f1a268707235fdfce7f753f43e864736f6c63430008070033\n}\n",
				"bytecode": {
					"linkReferences": {},
					"object": "60806040526040518060400160405280600c81526020017f554e415554484f52495a45440000000000000000000000000000000000000000815250600090805190602001906200005192919062000445565b503480156200005f57600080fd5b50604051620021033803806200210383398181016040528101906200008591906200050c565b3080600160006101000a81548173ffffffffffffffffffffffffffffffffffffffff021916908373ffffffffffffffffffffffffffffffffffffffff1602179055508073ffffffffffffffffffffffffffffffffffffffff167f2f658b440c35314f52658ea8a740e05b284cdc84dc9ae01e891f21b8933e7cad60405160405180910390a25083600260006101000a81548173ffffffffffffffffffffffffffffffffffffffff021916908373ffffffffffffffffffffffffffffffffffffffff160217905550600260009054906101000a900473ffffffffffffffffffffffffffffffffffffffff1673ffffffffffffffffffffffffffffffffffffffff16600073ffffffffffffffffffffffffffffffffffffffff167f4f337dcbb2512f18373c1f72d990a2f0a6ee5024b04007c52afd01eb73374a896001604051620001cf91906200058f565b60405180910390a382600360006101000a81548173ffffffffffffffffffffffffffffffffffffffff021916908373ffffffffffffffffffffffffffffffffffffffff160217905550600360009054906101000a900473ffffffffffffffffffffffffffffffffffffffff1673ffffffffffffffffffffffffffffffffffffffff16600073ffffffffffffffffffffffffffffffffffffffff167fde655975891e8f09671597b37bd4d663bcc5c21dc6d7641b33cdf85fbe15d08b60016040516200029b91906200058f565b60405180910390a381600460006101000a81548173ffffffffffffffffffffffffffffffffffffffff021916908373ffffffffffffffffffffffffffffffffffffffff160217905550600460009054906101000a900473ffffffffffffffffffffffffffffffffffffffff1673ffffffffffffffffffffffffffffffffffffffff16600073ffffffffffffffffffffffffffffffffffffffff167f90a5902a45c24aae553d5aff384ca16d6560f08d74c9784a4fbd2796d9e13f2b60016040516200036791906200058f565b60405180910390a380600560006101000a81548173ffffffffffffffffffffffffffffffffffffffff021916908373ffffffffffffffffffffffffffffffffffffffff160217905550600560009054906101000a900473ffffffffffffffffffffffffffffffffffffffff1673ffffffffffffffffffffffffffffffffffffffff16600073ffffffffffffffffffffffffffffffffffffffff167f05a80f5053574d6a62733e1692e8cbcfaf927dc82df0a7267ea2e489a7cc18ff60016040516200043391906200058f565b60405180910390a35050505062000670565b8280546200045390620005ec565b90600052602060002090601f016020900481019282620004775760008555620004c3565b82601f106200049257805160ff1916838001178555620004c3565b82800160010185558215620004c3579182015b82811115620004c2578251825591602001919060010190620004a5565b5b509050620004d29190620004d6565b5090565b5b80821115620004f1576000816000905550600101620004d7565b5090565b600081519050620005068162000656565b92915050565b6000806000806080858703121562000529576200052862000651565b5b60006200053987828801620004f5565b94505060206200054c87828801620004f5565b93505060406200055f87828801620004f5565b92505060606200057287828801620004f5565b91505092959194509250565b6200058981620005c0565b82525050565b6000602082019050620005a660008301846200057e565b92915050565b6000620005b982620005cc565b9050919050565b60008115159050919050565b600073ffffffffffffffffffffffffffffffffffffffff82169050919050565b600060028204905060018216806200060557607f821691505b602082108114156200061c576200061b62000622565b5b50919050565b7f4e487b7100000000000000000000000000000000000000000000000000000000600052602260045260246000fd5b600080fd5b6200066181620005ac565b81146200066d57600080fd5b50565b611a8380620006806000396000f3fe608060405234801561001057600080fd5b50600436106101165760003560e01c80635beede08116100a25780638fd20577116100715780638fd205771461026f578063be11f1dd1461028d578063bf7e214f14610297578063d8a04212146102b5578063fbfa77cf146102bf57610116565b80635beede081461020f5780636fe72c14146102195780637a9e5e4b1461023557806388aaf0c81461025157610116565b8063215e92bc116100e9578063215e92bc146101915780633bf90c281461019b578063452a9320146101b957806352759694146101d757806354e3d703146101f357610116565b80630505c8c91461011b5780630c340a241461013957806319859847146101575780631afe871414610175575b600080fd5b6101236102dd565b604051610130919061175f565b60405180910390f35b610141610303565b60405161014e919061175f565b60405180910390f35b61015f610329565b60405161016c919061175f565b60405180910390f35b61018f600480360381019061018a91906115b9565b61034f565b005b610199610597565b005b6101a361072a565b6040516101b0919061175f565b60405180910390f35b6101c1610750565b6040516101ce919061175f565b60405180910390f35b6101f160048036038101906101ec91906115b9565b610776565b005b61020d600480360381019061020891906115b9565b6109be565b005b610217610c06565b005b610233600480360381019061022e91906115b9565b610d99565b005b61024f600480360381019061024a91906115f9565b610fe1565b005b61025961117a565b604051610266919061175f565b60405180910390f35b6102776111a0565b604051610284919061175f565b60405180910390f35b6102956111c6565b005b61029f611359565b6040516102ac9190611795565b60405180910390f35b6102bd61137f565b005b6102c7611512565b6040516102d4919061175f565b60405180910390f35b600460009054906101000a900473ffffffffffffffffffffffffffffffffffffffff1681565b600260009054906101000a900473ffffffffffffffffffffffffffffffffffffffff1681565b600760009054906101000a900473ffffffffffffffffffffffffffffffffffffffff1681565b600160009054906101000a900473ffffffffffffffffffffffffffffffffffffffff1673ffffffffffffffffffffffffffffffffffffffff16630c340a246040518163ffffffff1660e01b815260040160206040518083038186803b1580156103b757600080fd5b505afa1580156103cb573d6000803e3d6000fd5b505050506040513d601f19601f820116820180604052508101906103ef919061158c565b73ffffffffffffffffffffffffffffffffffffffff163373ffffffffffffffffffffffffffffffffffffffff1614600090610460576040517f08c379a000000000000000000000000000000000000000000000000000000000815260040161045791906117b0565b60405180910390fd5b5080156104a95781600360006101000a81548173ffffffffffffffffffffffffffffffffffffffff021916908373ffffffffffffffffffffffffffffffffffffffff1602179055505b81600760006101000a81548173ffffffffffffffffffffffffffffffffffffffff021916908373ffffffffffffffffffffffffffffffffffffffff160217905550600760009054906101000a900473ffffffffffffffffffffffffffffffffffffffff1673ffffffffffffffffffffffffffffffffffffffff16600360009054906101000a900473ffffffffffffffffffffffffffffffffffffffff1673ffffffffffffffffffffffffffffffffffffffff167fde655975891e8f09671597b37bd4d663bcc5c21dc6d7641b33cdf85fbe15d08b8360405161058b919061177a565b60405180910390a35050565b600960009054906101000a900473ffffffffffffffffffffffffffffffffffffffff1673ffffffffffffffffffffffffffffffffffffffff163373ffffffffffffffffffffffffffffffffffffffff1614610627576040517f08c379a000000000000000000000000000000000000000000000000000000000815260040161061e906117d2565b60405180910390fd5b600960009054906101000a900473ffffffffffffffffffffffffffffffffffffffff1673ffffffffffffffffffffffffffffffffffffffff16600560009054906101000a900473ffffffffffffffffffffffffffffffffffffffff1673ffffffffffffffffffffffffffffffffffffffff167f3d08e01e3b8340be6ca709db7a9321448661a1f490da4d7f3eb03d84fe73095360405160405180910390a3600960009054906101000a900473ffffffffffffffffffffffffffffffffffffffff16600560006101000a81548173ffffffffffffffffffffffffffffffffffffffff021916908373ffffffffffffffffffffffffffffffffffffffff160217905550565b600860009054906101000a900473ffffffffffffffffffffffffffffffffffffffff1681565b600360009054906101000a900473ffffffffffffffffffffffffffffffffffffffff1681565b600160009054906101000a900473ffffffffffffffffffffffffffffffffffffffff1673ffffffffffffffffffffffffffffffffffffffff16630c340a246040518163ffffffff1660e01b815260040160206040518083038186803b1580156107de57600080fd5b505afa1580156107f2573d6000803e3d6000fd5b505050506040513d601f19601f82011682018060405250810190610816919061158c565b73ffffffffffffffffffffffffffffffffffffffff163373ffffffffffffffffffffffffffffffffffffffff1614600090610887576040517f08c379a000000000000000000000000000000000000000000000000000000000815260040161087e91906117b0565b60405180910390fd5b5080156108d05781600260006101000a81548173ffffffffffffffffffffffffffffffffffffffff021916908373ffffffffffffffffffffffffffffffffffffffff1602179055505b81600660006101000a81548173ffffffffffffffffffffffffffffffffffffffff021916908373ffffffffffffffffffffffffffffffffffffffff160217905550600660009054906101000a900473ffffffffffffffffffffffffffffffffffffffff1673ffffffffffffffffffffffffffffffffffffffff16600260009054906101000a900473ffffffffffffffffffffffffffffffffffffffff1673ffffffffffffffffffffffffffffffffffffffff167f4f337dcbb2512f18373c1f72d990a2f0a6ee5024b04007c52afd01eb73374a89836040516109b2919061177a565b60405180910390a35050565b600160009054906101000a900473ffffffffffffffffffffffffffffffffffffffff1673ffffffffffffffffffffffffffffffffffffffff16630c340a246040518163ffffffff1660e01b815260040160206040518083038186803b158015610a2657600080fd5b505afa158015610a3a573d6000803e3d6000fd5b505050506040513d601f19601f82011682018060405250810190610a5e919061158c565b73ffffffffffffffffffffffffffffffffffffffff163373ffffffffffffffffffffffffffffffffffffffff1614600090610acf576040517f08c379a0000000000000000000000000000000000000000000000000000000008152600401610ac691906117b0565b60405180910390fd5b508015610b185781600460006101000a81548173ffffffffffffffffffffffffffffffffffffffff021916908373ffffffffffffffffffffffffffffffffffffffff1602179055505b81600860006101000a81548173ffffffffffffffffffffffffffffffffffffffff021916908373ffffffffffffffffffffffffffffffffffffffff160217905550600860009054906101000a900473ffffffffffffffffffffffffffffffffffffffff1673ffffffffffffffffffffffffffffffffffffffff16600460009054906101000a900473ffffffffffffffffffffffffffffffffffffffff1673ffffffffffffffffffffffffffffffffffffffff167f90a5902a45c24aae553d5aff384ca16d6560f08d74c9784a4fbd2796d9e13f2b83604051610bfa919061177a565b60405180910390a35050565b600860009054906101000a900473ffffffffffffffffffffffffffffffffffffffff1673ffffffffffffffffffffffffffffffffffffffff163373ffffffffffffffffffffffffffffffffffffffff1614610c96576040517f08c379a0000000000000000000000000000000000000000000000000000000008152600401610c8d906117f2565b60405180910390fd5b600860009054906101000a900473ffffffffffffffffffffffffffffffffffffffff1673ffffffffffffffffffffffffffffffffffffffff16600460009054906101000a900473ffffffffffffffffffffffffffffffffffffffff1673ffffffffffffffffffffffffffffffffffffffff167f64d2fa522b403ca222efff0c7ad07d2ef45472a45e5770918bdfa9a2845d29a860405160405180910390a3600860009054906101000a900473ffffffffffffffffffffffffffffffffffffffff16600460006101000a81548173ffffffffffffffffffffffffffffffffffffffff021916908373ffffffffffffffffffffffffffffffffffffffff160217905550565b600160009054906101000a900473ffffffffffffffffffffffffffffffffffffffff1673ffffffffffffffffffffffffffffffffffffffff16630c340a246040518163ffffffff1660e01b815260040160206040518083038186803b158015610e0157600080fd5b505afa158015610e15573d6000803e3d6000fd5b505050506040513d601f19601f82011682018060405250810190610e39919061158c565b73ffffffffffffffffffffffffffffffffffffffff163373ffffffffffffffffffffffffffffffffffffffff1614600090610eaa576040517f08c379a0000000000000000000000000000000000000000000000000000000008152600401610ea191906117b0565b60405180910390fd5b508015610ef35781600560006101000a81548173ffffffffffffffffffffffffffffffffffffffff021916908373ffffffffffffffffffffffffffffffffffffffff1602179055505b81600960006101000a81548173ffffffffffffffffffffffffffffffffffffffff021916908373ffffffffffffffffffffffffffffffffffffffff160217905550600960009054906101000a900473ffffffffffffffffffffffffffffffffffffffff1673ffffffffffffffffffffffffffffffffffffffff16600560009054906101000a900473ffffffffffffffffffffffffffffffffffffffff1673ffffffffffffffffffffffffffffffffffffffff167f05a80f5053574d6a62733e1692e8cbcfaf927dc82df0a7267ea2e489a7cc18ff83604051610fd5919061177a565b60405180910390a35050565b600160009054906101000a900473ffffffffffffffffffffffffffffffffffffffff1673ffffffffffffffffffffffffffffffffffffffff16630c340a246040518163ffffffff1660e01b815260040160206040518083038186803b15801561104957600080fd5b505afa15801561105d573d6000803e3d6000fd5b505050506040513d601f19601f82011682018060405250810190611081919061158c565b73ffffffffffffffffffffffffffffffffffffffff163373ffffffffffffffffffffffffffffffffffffffff16146000906110f2576040517f08c379a00000000000000000000000000000000000000000000000000000000081526004016110e991906117b0565b60405180910390fd5b5080600160006101000a81548173ffffffffffffffffffffffffffffffffffffffff021916908373ffffffffffffffffffffffffffffffffffffffff1602179055508073ffffffffffffffffffffffffffffffffffffffff167f2f658b440c35314f52658ea8a740e05b284cdc84dc9ae01e891f21b8933e7cad60405160405180910390a250565b600960009054906101000a900473ffffffffffffffffffffffffffffffffffffffff1681565b600660009054906101000a900473ffffffffffffffffffffffffffffffffffffffff1681565b600760009054906101000a900473ffffffffffffffffffffffffffffffffffffffff1673ffffffffffffffffffffffffffffffffffffffff163373ffffffffffffffffffffffffffffffffffffffff1614611256576040517f08c379a000000000000000000000000000000000000000000000000000000000815260040161124d90611832565b60405180910390fd5b600760009054906101000a900473ffffffffffffffffffffffffffffffffffffffff1673ffffffffffffffffffffffffffffffffffffffff16600360009054906101000a900473ffffffffffffffffffffffffffffffffffffffff1673ffffffffffffffffffffffffffffffffffffffff167f0960fb9900fb8096216606c4f7fc2fce5d08cc0c82da55cec8619b66b523848160405160405180910390a3600760009054906101000a900473ffffffffffffffffffffffffffffffffffffffff16600360006101000a81548173ffffffffffffffffffffffffffffffffffffffff021916908373ffffffffffffffffffffffffffffffffffffffff160217905550565b600160009054906101000a900473ffffffffffffffffffffffffffffffffffffffff1681565b600660009054906101000a900473ffffffffffffffffffffffffffffffffffffffff1673ffffffffffffffffffffffffffffffffffffffff163373ffffffffffffffffffffffffffffffffffffffff161461140f576040517f08c379a000000000000000000000000000000000000000000000000000000000815260040161140690611812565b60405180910390fd5b600660009054906101000a900473ffffffffffffffffffffffffffffffffffffffff1673ffffffffffffffffffffffffffffffffffffffff16600260009054906101000a900473ffffffffffffffffffffffffffffffffffffffff1673ffffffffffffffffffffffffffffffffffffffff167fffd6fed33fe8ec1016718bdd5d04ae6fecd9aba0da6578807daaaa7fc3d1682660405160405180910390a3600660009054906101000a900473ffffffffffffffffffffffffffffffffffffffff16600260006101000a81548173ffffffffffffffffffffffffffffffffffffffff021916908373ffffffffffffffffffffffffffffffffffffffff160217905550565b600560009054906101000a900473ffffffffffffffffffffffffffffffffffffffff1681565b60008135905061154781611a08565b92915050565b60008151905061155c81611a08565b92915050565b60008135905061157181611a1f565b92915050565b60008135905061158681611a36565b92915050565b6000602082840312156115a2576115a161195f565b5b60006115b08482850161154d565b91505092915050565b600080604083850312156115d0576115cf61195f565b5b60006115de85828601611538565b92505060206115ef85828601611562565b9150509250929050565b60006020828403121561160f5761160e61195f565b5b600061161d84828501611577565b91505092915050565b61162f81611878565b82525050565b61163e8161188a565b82525050565b61164d816118c8565b82525050565b60008154611660816118fe565b61166a8186611867565b945060018216600081146116855760018114611697576116ca565b60ff19831686526020860193506116ca565b6116a085611852565b60005b838110156116c2578154818901526001820191506020810190506116a3565b808801955050505b50505092915050565b60006116e0600983611867565b91506116eb82611964565b602082019050919050565b6000611703600a83611867565b915061170e8261198d565b602082019050919050565b6000611726600c83611867565b9150611731826119b6565b602082019050919050565b6000611749600983611867565b9150611754826119df565b602082019050919050565b60006020820190506117746000830184611626565b92915050565b600060208201905061178f6000830184611635565b92915050565b60006020820190506117aa6000830184611644565b92915050565b600060208201905081810360008301526117ca8184611653565b905092915050565b600060208201905081810360008301526117eb816116d3565b9050919050565b6000602082019050818103600083015261180b816116f6565b9050919050565b6000602082019050818103600083015261182b81611719565b9050919050565b6000602082019050818103600083015261184b8161173c565b9050919050565b60008190508160005260206000209050919050565b600082825260208201905092915050565b6000611883826118a8565b9050919050565b60008115159050919050565b60006118a182611878565b9050919050565b600073ffffffffffffffffffffffffffffffffffffffff82169050919050565b60006118d3826118da565b9050919050565b60006118e5826118ec565b9050919050565b60006118f7826118a8565b9050919050565b6000600282049050600182168061191657607f821691505b6020821081141561192a57611929611930565b5b50919050565b7f4e487b7100000000000000000000000000000000000000000000000000000000600052602260045260246000fd5b600080fd5b7f216e65775661756c740000000000000000000000000000000000000000000000600082015250565b7f216e6577506f6c69637900000000000000000000000000000000000000000000600082015250565b7f216e6577476f7665726e6f720000000000000000000000000000000000000000600082015250565b7f216e657747756172640000000000000000000000000000000000000000000000600082015250565b611a1181611878565b8114611a1c57600080fd5b50565b611a288161188a565b8114611a3357600080fd5b50565b611a3f81611896565b8114611a4a57600080fd5b5056fea26469706673582212200bfb5cf1ce62af9a22d9fe30b5cfa5d7d3918f1a268707235fdfce7f753f43e864736f6c63430008070033",
					"opcodes": "PUSH1 0x80 PUSH1 0x40 MSTORE PUSH1 0x40 MLOAD DUP1 PUSH1 0x40 ADD PUSH1 0x40 MSTORE DUP1 PUSH1 0xC DUP2 MSTORE PUSH1 0x20 ADD PUSH32 0x554E415554484F52495A45440000000000000000000000000000000000000000 DUP2 MSTORE POP PUSH1 0x0 SWAP1 DUP1 MLOAD SWAP1 PUSH1 0x20 ADD SWAP1 PUSH3 0x51 SWAP3 SWAP2 SWAP1 PUSH3 0x445 JUMP JUMPDEST POP CALLVALUE DUP1 ISZERO PUSH3 0x5F JUMPI PUSH1 0x0 DUP1 REVERT JUMPDEST POP PUSH1 0x40 MLOAD PUSH3 0x2103 CODESIZE SUB DUP1 PUSH3 0x2103 DUP4 CODECOPY DUP2 DUP2 ADD PUSH1 0x40 MSTORE DUP2 ADD SWAP1 PUSH3 0x85 SWAP2 SWAP1 PUSH3 0x50C JUMP JUMPDEST ADDRESS DUP1 PUSH1 0x1 PUSH1 0x0 PUSH2 0x100 EXP DUP2 SLOAD DUP2 PUSH20 0xFFFFFFFFFFFFFFFFFFFFFFFFFFFFFFFFFFFFFFFF MUL NOT AND SWAP1 DUP4 PUSH20 0xFFFFFFFFFFFFFFFFFFFFFFFFFFFFFFFFFFFFFFFF AND MUL OR SWAP1 SSTORE POP DUP1 PUSH20 0xFFFFFFFFFFFFFFFFFFFFFFFFFFFFFFFFFFFFFFFF AND PUSH32 0x2F658B440C35314F52658EA8A740E05B284CDC84DC9AE01E891F21B8933E7CAD PUSH1 0x40 MLOAD PUSH1 0x40 MLOAD DUP1 SWAP2 SUB SWAP1 LOG2 POP DUP4 PUSH1 0x2 PUSH1 0x0 PUSH2 0x100 EXP DUP2 SLOAD DUP2 PUSH20 0xFFFFFFFFFFFFFFFFFFFFFFFFFFFFFFFFFFFFFFFF MUL NOT AND SWAP1 DUP4 PUSH20 0xFFFFFFFFFFFFFFFFFFFFFFFFFFFFFFFFFFFFFFFF AND MUL OR SWAP1 SSTORE POP PUSH1 0x2 PUSH1 0x0 SWAP1 SLOAD SWAP1 PUSH2 0x100 EXP SWAP1 DIV PUSH20 0xFFFFFFFFFFFFFFFFFFFFFFFFFFFFFFFFFFFFFFFF AND PUSH20 0xFFFFFFFFFFFFFFFFFFFFFFFFFFFFFFFFFFFFFFFF AND PUSH1 0x0 PUSH20 0xFFFFFFFFFFFFFFFFFFFFFFFFFFFFFFFFFFFFFFFF AND PUSH32 0x4F337DCBB2512F18373C1F72D990A2F0A6EE5024B04007C52AFD01EB73374A89 PUSH1 0x1 PUSH1 0x40 MLOAD PUSH3 0x1CF SWAP2 SWAP1 PUSH3 0x58F JUMP JUMPDEST PUSH1 0x40 MLOAD DUP1 SWAP2 SUB SWAP1 LOG3 DUP3 PUSH1 0x3 PUSH1 0x0 PUSH2 0x100 EXP DUP2 SLOAD DUP2 PUSH20 0xFFFFFFFFFFFFFFFFFFFFFFFFFFFFFFFFFFFFFFFF MUL NOT AND SWAP1 DUP4 PUSH20 0xFFFFFFFFFFFFFFFFFFFFFFFFFFFFFFFFFFFFFFFF AND MUL OR SWAP1 SSTORE POP PUSH1 0x3 PUSH1 0x0 SWAP1 SLOAD SWAP1 PUSH2 0x100 EXP SWAP1 DIV PUSH20 0xFFFFFFFFFFFFFFFFFFFFFFFFFFFFFFFFFFFFFFFF AND PUSH20 0xFFFFFFFFFFFFFFFFFFFFFFFFFFFFFFFFFFFFFFFF AND PUSH1 0x0 PUSH20 0xFFFFFFFFFFFFFFFFFFFFFFFFFFFFFFFFFFFFFFFF AND PUSH32 0xDE655975891E8F09671597B37BD4D663BCC5C21DC6D7641B33CDF85FBE15D08B PUSH1 0x1 PUSH1 0x40 MLOAD PUSH3 0x29B SWAP2 SWAP1 PUSH3 0x58F JUMP JUMPDEST PUSH1 0x40 MLOAD DUP1 SWAP2 SUB SWAP1 LOG3 DUP2 PUSH1 0x4 PUSH1 0x0 PUSH2 0x100 EXP DUP2 SLOAD DUP2 PUSH20 0xFFFFFFFFFFFFFFFFFFFFFFFFFFFFFFFFFFFFFFFF MUL NOT AND SWAP1 DUP4 PUSH20 0xFFFFFFFFFFFFFFFFFFFFFFFFFFFFFFFFFFFFFFFF AND MUL OR SWAP1 SSTORE POP PUSH1 0x4 PUSH1 0x0 SWAP1 SLOAD SWAP1 PUSH2 0x100 EXP SWAP1 DIV PUSH20 0xFFFFFFFFFFFFFFFFFFFFFFFFFFFFFFFFFFFFFFFF AND PUSH20 0xFFFFFFFFFFFFFFFFFFFFFFFFFFFFFFFFFFFFFFFF AND PUSH1 0x0 PUSH20 0xFFFFFFFFFFFFFFFFFFFFFFFFFFFFFFFFFFFFFFFF AND PUSH32 0x90A5902A45C24AAE553D5AFF384CA16D6560F08D74C9784A4FBD2796D9E13F2B PUSH1 0x1 PUSH1 0x40 MLOAD PUSH3 0x367 SWAP2 SWAP1 PUSH3 0x58F JUMP JUMPDEST PUSH1 0x40 MLOAD DUP1 SWAP2 SUB SWAP1 LOG3 DUP1 PUSH1 0x5 PUSH1 0x0 PUSH2 0x100 EXP DUP2 SLOAD DUP2 PUSH20 0xFFFFFFFFFFFFFFFFFFFFFFFFFFFFFFFFFFFFFFFF MUL NOT AND SWAP1 DUP4 PUSH20 0xFFFFFFFFFFFFFFFFFFFFFFFFFFFFFFFFFFFFFFFF AND MUL OR SWAP1 SSTORE POP PUSH1 0x5 PUSH1 0x0 SWAP1 SLOAD SWAP1 PUSH2 0x100 EXP SWAP1 DIV PUSH20 0xFFFFFFFFFFFFFFFFFFFFFFFFFFFFFFFFFFFFFFFF AND PUSH20 0xFFFFFFFFFFFFFFFFFFFFFFFFFFFFFFFFFFFFFFFF AND PUSH1 0x0 PUSH20 0xFFFFFFFFFFFFFFFFFFFFFFFFFFFFFFFFFFFFFFFF AND PUSH32 0x5A80F5053574D6A62733E1692E8CBCFAF927DC82DF0A7267EA2E489A7CC18FF PUSH1 0x1 PUSH1 0x40 MLOAD PUSH3 0x433 SWAP2 SWAP1 PUSH3 0x58F JUMP JUMPDEST PUSH1 0x40 MLOAD DUP1 SWAP2 SUB SWAP1 LOG3 POP POP POP POP PUSH3 0x670 JUMP JUMPDEST DUP3 DUP1 SLOAD PUSH3 0x453 SWAP1 PUSH3 0x5EC JUMP JUMPDEST SWAP1 PUSH1 0x0 MSTORE PUSH1 0x20 PUSH1 0x0 KECCAK256 SWAP1 PUSH1 0x1F ADD PUSH1 0x20 SWAP1 DIV DUP2 ADD SWAP3 DUP3 PUSH3 0x477 JUMPI PUSH1 0x0 DUP6 SSTORE PUSH3 0x4C3 JUMP JUMPDEST DUP3 PUSH1 0x1F LT PUSH3 0x492 JUMPI DUP1 MLOAD PUSH1 0xFF NOT AND DUP4 DUP1 ADD OR DUP6 SSTORE PUSH3 0x4C3 JUMP JUMPDEST DUP3 DUP1 ADD PUSH1 0x1 ADD DUP6 SSTORE DUP3 ISZERO PUSH3 0x4C3 JUMPI SWAP2 DUP3 ADD JUMPDEST DUP3 DUP2 GT ISZERO PUSH3 0x4C2 JUMPI DUP3 MLOAD DUP3 SSTORE SWAP2 PUSH1 0x20 ADD SWAP2 SWAP1 PUSH1 0x1 ADD SWAP1 PUSH3 0x4A5 JUMP JUMPDEST JUMPDEST POP SWAP1 POP PUSH3 0x4D2 SWAP2 SWAP1 PUSH3 0x4D6 JUMP JUMPDEST POP SWAP1 JUMP JUMPDEST JUMPDEST DUP1 DUP3 GT ISZERO PUSH3 0x4F1 JUMPI PUSH1 0x0 DUP2 PUSH1 0x0 SWAP1 SSTORE POP PUSH1 0x1 ADD PUSH3 0x4D7 JUMP JUMPDEST POP SWAP1 JUMP JUMPDEST PUSH1 0x0 DUP2 MLOAD SWAP1 POP PUSH3 0x506 DUP2 PUSH3 0x656 JUMP JUMPDEST SWAP3 SWAP2 POP POP JUMP JUMPDEST PUSH1 0x0 DUP1 PUSH1 0x0 DUP1 PUSH1 0x80 DUP6 DUP8 SUB SLT ISZERO PUSH3 0x529 JUMPI PUSH3 0x528 PUSH3 0x651 JUMP JUMPDEST JUMPDEST PUSH1 0x0 PUSH3 0x539 DUP8 DUP3 DUP9 ADD PUSH3 0x4F5 JUMP JUMPDEST SWAP5 POP POP PUSH1 0x20 PUSH3 0x54C DUP8 DUP3 DUP9 ADD PUSH3 0x4F5 JUMP JUMPDEST SWAP4 POP POP PUSH1 0x40 PUSH3 0x55F DUP8 DUP3 DUP9 ADD PUSH3 0x4F5 JUMP JUMPDEST SWAP3 POP POP PUSH1 0x60 PUSH3 0x572 DUP8 DUP3 DUP9 ADD PUSH3 0x4F5 JUMP JUMPDEST SWAP2 POP POP SWAP3 SWAP6 SWAP2 SWAP5 POP SWAP3 POP JUMP JUMPDEST PUSH3 0x589 DUP2 PUSH3 0x5C0 JUMP JUMPDEST DUP3 MSTORE POP POP JUMP JUMPDEST PUSH1 0x0 PUSH1 0x20 DUP3 ADD SWAP1 POP PUSH3 0x5A6 PUSH1 0x0 DUP4 ADD DUP5 PUSH3 0x57E JUMP JUMPDEST SWAP3 SWAP2 POP POP JUMP JUMPDEST PUSH1 0x0 PUSH3 0x5B9 DUP3 PUSH3 0x5CC JUMP JUMPDEST SWAP1 POP SWAP2 SWAP1 POP JUMP JUMPDEST PUSH1 0x0 DUP2 ISZERO ISZERO SWAP1 POP SWAP2 SWAP1 POP JUMP JUMPDEST PUSH1 0x0 PUSH20 0xFFFFFFFFFFFFFFFFFFFFFFFFFFFFFFFFFFFFFFFF DUP3 AND SWAP1 POP SWAP2 SWAP1 POP JUMP JUMPDEST PUSH1 0x0 PUSH1 0x2 DUP3 DIV SWAP1 POP PUSH1 0x1 DUP3 AND DUP1 PUSH3 0x605 JUMPI PUSH1 0x7F DUP3 AND SWAP2 POP JUMPDEST PUSH1 0x20 DUP3 LT DUP2 EQ ISZERO PUSH3 0x61C JUMPI PUSH3 0x61B PUSH3 0x622 JUMP JUMPDEST JUMPDEST POP SWAP2 SWAP1 POP JUMP JUMPDEST PUSH32 0x4E487B7100000000000000000000000000000000000000000000000000000000 PUSH1 0x0 MSTORE PUSH1 0x22 PUSH1 0x4 MSTORE PUSH1 0x24 PUSH1 0x0 REVERT JUMPDEST PUSH1 0x0 DUP1 REVERT JUMPDEST PUSH3 0x661 DUP2 PUSH3 0x5AC JUMP JUMPDEST DUP2 EQ PUSH3 0x66D JUMPI PUSH1 0x0 DUP1 REVERT JUMPDEST POP JUMP JUMPDEST PUSH2 0x1A83 DUP1 PUSH3 0x680 PUSH1 0x0 CODECOPY PUSH1 0x0 RETURN INVALID PUSH1 0x80 PUSH1 0x40 MSTORE CALLVALUE DUP1 ISZERO PUSH2 0x10 JUMPI PUSH1 0x0 DUP1 REVERT JUMPDEST POP PUSH1 0x4 CALLDATASIZE LT PUSH2 0x116 JUMPI PUSH1 0x0 CALLDATALOAD PUSH1 0xE0 SHR DUP1 PUSH4 0x5BEEDE08 GT PUSH2 0xA2 JUMPI DUP1 PUSH4 0x8FD20577 GT PUSH2 0x71 JUMPI DUP1 PUSH4 0x8FD20577 EQ PUSH2 0x26F JUMPI DUP1 PUSH4 0xBE11F1DD EQ PUSH2 0x28D JUMPI DUP1 PUSH4 0xBF7E214F EQ PUSH2 0x297 JUMPI DUP1 PUSH4 0xD8A04212 EQ PUSH2 0x2B5 JUMPI DUP1 PUSH4 0xFBFA77CF EQ PUSH2 0x2BF JUMPI PUSH2 0x116 JUMP JUMPDEST DUP1 PUSH4 0x5BEEDE08 EQ PUSH2 0x20F JUMPI DUP1 PUSH4 0x6FE72C14 EQ PUSH2 0x219 JUMPI DUP1 PUSH4 0x7A9E5E4B EQ PUSH2 0x235 JUMPI DUP1 PUSH4 0x88AAF0C8 EQ PUSH2 0x251 JUMPI PUSH2 0x116 JUMP JUMPDEST DUP1 PUSH4 0x215E92BC GT PUSH2 0xE9 JUMPI DUP1 PUSH4 0x215E92BC EQ PUSH2 0x191 JUMPI DUP1 PUSH4 0x3BF90C28 EQ PUSH2 0x19B JUMPI DUP1 PUSH4 0x452A9320 EQ PUSH2 0x1B9 JUMPI DUP1 PUSH4 0x52759694 EQ PUSH2 0x1D7 JUMPI DUP1 PUSH4 0x54E3D703 EQ PUSH2 0x1F3 JUMPI PUSH2 0x116 JUMP JUMPDEST DUP1 PUSH4 0x505C8C9 EQ PUSH2 0x11B JUMPI DUP1 PUSH4 0xC340A24 EQ PUSH2 0x139 JUMPI DUP1 PUSH4 0x19859847 EQ PUSH2 0x157 JUMPI DUP1 PUSH4 0x1AFE8714 EQ PUSH2 0x175 JUMPI JUMPDEST PUSH1 0x0 DUP1 REVERT JUMPDEST PUSH2 0x123 PUSH2 0x2DD JUMP JUMPDEST PUSH1 0x40 MLOAD PUSH2 0x130 SWAP2 SWAP1 PUSH2 0x175F JUMP JUMPDEST PUSH1 0x40 MLOAD DUP1 SWAP2 SUB SWAP1 RETURN JUMPDEST PUSH2 0x141 PUSH2 0x303 JUMP JUMPDEST PUSH1 0x40 MLOAD PUSH2 0x14E SWAP2 SWAP1 PUSH2 0x175F JUMP JUMPDEST PUSH1 0x40 MLOAD DUP1 SWAP2 SUB SWAP1 RETURN JUMPDEST PUSH2 0x15F PUSH2 0x329 JUMP JUMPDEST PUSH1 0x40 MLOAD PUSH2 0x16C SWAP2 SWAP1 PUSH2 0x175F JUMP JUMPDEST PUSH1 0x40 MLOAD DUP1 SWAP2 SUB SWAP1 RETURN JUMPDEST PUSH2 0x18F PUSH1 0x4 DUP1 CALLDATASIZE SUB DUP2 ADD SWAP1 PUSH2 0x18A SWAP2 SWAP1 PUSH2 0x15B9 JUMP JUMPDEST PUSH2 0x34F JUMP JUMPDEST STOP JUMPDEST PUSH2 0x199 PUSH2 0x597 JUMP JUMPDEST STOP JUMPDEST PUSH2 0x1A3 PUSH2 0x72A JUMP JUMPDEST PUSH1 0x40 MLOAD PUSH2 0x1B0 SWAP2 SWAP1 PUSH2 0x175F JUMP JUMPDEST PUSH1 0x40 MLOAD DUP1 SWAP2 SUB SWAP1 RETURN JUMPDEST PUSH2 0x1C1 PUSH2 0x750 JUMP JUMPDEST PUSH1 0x40 MLOAD PUSH2 0x1CE SWAP2 SWAP1 PUSH2 0x175F JUMP JUMPDEST PUSH1 0x40 MLOAD DUP1 SWAP2 SUB SWAP1 RETURN JUMPDEST PUSH2 0x1F1 PUSH1 0x4 DUP1 CALLDATASIZE SUB DUP2 ADD SWAP1 PUSH2 0x1EC SWAP2 SWAP1 PUSH2 0x15B9 JUMP JUMPDEST PUSH2 0x776 JUMP JUMPDEST STOP JUMPDEST PUSH2 0x20D PUSH1 0x4 DUP1 CALLDATASIZE SUB DUP2 ADD SWAP1 PUSH2 0x208 SWAP2 SWAP1 PUSH2 0x15B9 JUMP JUMPDEST PUSH2 0x9BE JUMP JUMPDEST STOP JUMPDEST PUSH2 0x217 PUSH2 0xC06 JUMP JUMPDEST STOP JUMPDEST PUSH2 0x233 PUSH1 0x4 DUP1 CALLDATASIZE SUB DUP2 ADD SWAP1 PUSH2 0x22E SWAP2 SWAP1 PUSH2 0x15B9 JUMP JUMPDEST PUSH2 0xD99 JUMP JUMPDEST STOP JUMPDEST PUSH2 0x24F PUSH1 0x4 DUP1 CALLDATASIZE SUB DUP2 ADD SWAP1 PUSH2 0x24A SWAP2 SWAP1 PUSH2 0x15F9 JUMP JUMPDEST PUSH2 0xFE1 JUMP JUMPDEST STOP JUMPDEST PUSH2 0x259 PUSH2 0x117A JUMP JUMPDEST PUSH1 0x40 MLOAD PUSH2 0x266 SWAP2 SWAP1 PUSH2 0x175F JUMP JUMPDEST PUSH1 0x40 MLOAD DUP1 SWAP2 SUB SWAP1 RETURN JUMPDEST PUSH2 0x277 PUSH2 0x11A0 JUMP JUMPDEST PUSH1 0x40 MLOAD PUSH2 0x284 SWAP2 SWAP1 PUSH2 0x175F JUMP JUMPDEST PUSH1 0x40 MLOAD DUP1 SWAP2 SUB SWAP1 RETURN JUMPDEST PUSH2 0x295 PUSH2 0x11C6 JUMP JUMPDEST STOP JUMPDEST PUSH2 0x29F PUSH2 0x1359 JUMP JUMPDEST PUSH1 0x40 MLOAD PUSH2 0x2AC SWAP2 SWAP1 PUSH2 0x1795 JUMP JUMPDEST PUSH1 0x40 MLOAD DUP1 SWAP2 SUB SWAP1 RETURN JUMPDEST PUSH2 0x2BD PUSH2 0x137F JUMP JUMPDEST STOP JUMPDEST PUSH2 0x2C7 PUSH2 0x1512 JUMP JUMPDEST PUSH1 0x40 MLOAD PUSH2 0x2D4 SWAP2 SWAP1 PUSH2 0x175F JUMP JUMPDEST PUSH1 0x40 MLOAD DUP1 SWAP2 SUB SWAP1 RETURN JUMPDEST PUSH1 0x4 PUSH1 0x0 SWAP1 SLOAD SWAP1 PUSH2 0x100 EXP SWAP1 DIV PUSH20 0xFFFFFFFFFFFFFFFFFFFFFFFFFFFFFFFFFFFFFFFF AND DUP2 JUMP JUMPDEST PUSH1 0x2 PUSH1 0x0 SWAP1 SLOAD SWAP1 PUSH2 0x100 EXP SWAP1 DIV PUSH20 0xFFFFFFFFFFFFFFFFFFFFFFFFFFFFFFFFFFFFFFFF AND DUP2 JUMP JUMPDEST PUSH1 0x7 PUSH1 0x0 SWAP1 SLOAD SWAP1 PUSH2 0x100 EXP SWAP1 DIV PUSH20 0xFFFFFFFFFFFFFFFFFFFFFFFFFFFFFFFFFFFFFFFF AND DUP2 JUMP JUMPDEST PUSH1 0x1 PUSH1 0x0 SWAP1 SLOAD SWAP1 PUSH2 0x100 EXP SWAP1 DIV PUSH20 0xFFFFFFFFFFFFFFFFFFFFFFFFFFFFFFFFFFFFFFFF AND PUSH20 0xFFFFFFFFFFFFFFFFFFFFFFFFFFFFFFFFFFFFFFFF AND PUSH4 0xC340A24 PUSH1 0x40 MLOAD DUP2 PUSH4 0xFFFFFFFF AND PUSH1 0xE0 SHL DUP2 MSTORE PUSH1 0x4 ADD PUSH1 0x20 PUSH1 0x40 MLOAD DUP1 DUP4 SUB DUP2 DUP7 DUP1 EXTCODESIZE ISZERO DUP1 ISZERO PUSH2 0x3B7 JUMPI PUSH1 0x0 DUP1 REVERT JUMPDEST POP GAS STATICCALL ISZERO DUP1 ISZERO PUSH2 0x3CB JUMPI RETURNDATASIZE PUSH1 0x0 DUP1 RETURNDATACOPY RETURNDATASIZE PUSH1 0x0 REVERT JUMPDEST POP POP POP POP PUSH1 0x40 MLOAD RETURNDATASIZE PUSH1 0x1F NOT PUSH1 0x1F DUP3 ADD AND DUP3 ADD DUP1 PUSH1 0x40 MSTORE POP DUP2 ADD SWAP1 PUSH2 0x3EF SWAP2 SWAP1 PUSH2 0x158C JUMP JUMPDEST PUSH20 0xFFFFFFFFFFFFFFFFFFFFFFFFFFFFFFFFFFFFFFFF AND CALLER PUSH20 0xFFFFFFFFFFFFFFFFFFFFFFFFFFFFFFFFFFFFFFFF AND EQ PUSH1 0x0 SWAP1 PUSH2 0x460 JUMPI PUSH1 0x40 MLOAD PUSH32 0x8C379A000000000000000000000000000000000000000000000000000000000 DUP2 MSTORE PUSH1 0x4 ADD PUSH2 0x457 SWAP2 SWAP1 PUSH2 0x17B0 JUMP JUMPDEST PUSH1 0x40 MLOAD DUP1 SWAP2 SUB SWAP1 REVERT JUMPDEST POP DUP1 ISZERO PUSH2 0x4A9 JUMPI DUP2 PUSH1 0x3 PUSH1 0x0 PUSH2 0x100 EXP DUP2 SLOAD DUP2 PUSH20 0xFFFFFFFFFFFFFFFFFFFFFFFFFFFFFFFFFFFFFFFF MUL NOT AND SWAP1 DUP4 PUSH20 0xFFFFFFFFFFFFFFFFFFFFFFFFFFFFFFFFFFFFFFFF AND MUL OR SWAP1 SSTORE POP JUMPDEST DUP2 PUSH1 0x7 PUSH1 0x0 PUSH2 0x100 EXP DUP2 SLOAD DUP2 PUSH20 0xFFFFFFFFFFFFFFFFFFFFFFFFFFFFFFFFFFFFFFFF MUL NOT AND SWAP1 DUP4 PUSH20 0xFFFFFFFFFFFFFFFFFFFFFFFFFFFFFFFFFFFFFFFF AND MUL OR SWAP1 SSTORE POP PUSH1 0x7 PUSH1 0x0 SWAP1 SLOAD SWAP1 PUSH2 0x100 EXP SWAP1 DIV PUSH20 0xFFFFFFFFFFFFFFFFFFFFFFFFFFFFFFFFFFFFFFFF AND PUSH20 0xFFFFFFFFFFFFFFFFFFFFFFFFFFFFFFFFFFFFFFFF AND PUSH1 0x3 PUSH1 0x0 SWAP1 SLOAD SWAP1 PUSH2 0x100 EXP SWAP1 DIV PUSH20 0xFFFFFFFFFFFFFFFFFFFFFFFFFFFFFFFFFFFFFFFF AND PUSH20 0xFFFFFFFFFFFFFFFFFFFFFFFFFFFFFFFFFFFFFFFF AND PUSH32 0xDE655975891E8F09671597B37BD4D663BCC5C21DC6D7641B33CDF85FBE15D08B DUP4 PUSH1 0x40 MLOAD PUSH2 0x58B SWAP2 SWAP1 PUSH2 0x177A JUMP JUMPDEST PUSH1 0x40 MLOAD DUP1 SWAP2 SUB SWAP1 LOG3 POP POP JUMP JUMPDEST PUSH1 0x9 PUSH1 0x0 SWAP1 SLOAD SWAP1 PUSH2 0x100 EXP SWAP1 DIV PUSH20 0xFFFFFFFFFFFFFFFFFFFFFFFFFFFFFFFFFFFFFFFF AND PUSH20 0xFFFFFFFFFFFFFFFFFFFFFFFFFFFFFFFFFFFFFFFF AND CALLER PUSH20 0xFFFFFFFFFFFFFFFFFFFFFFFFFFFFFFFFFFFFFFFF AND EQ PUSH2 0x627 JUMPI PUSH1 0x40 MLOAD PUSH32 0x8C379A000000000000000000000000000000000000000000000000000000000 DUP2 MSTORE PUSH1 0x4 ADD PUSH2 0x61E SWAP1 PUSH2 0x17D2 JUMP JUMPDEST PUSH1 0x40 MLOAD DUP1 SWAP2 SUB SWAP1 REVERT JUMPDEST PUSH1 0x9 PUSH1 0x0 SWAP1 SLOAD SWAP1 PUSH2 0x100 EXP SWAP1 DIV PUSH20 0xFFFFFFFFFFFFFFFFFFFFFFFFFFFFFFFFFFFFFFFF AND PUSH20 0xFFFFFFFFFFFFFFFFFFFFFFFFFFFFFFFFFFFFFFFF AND PUSH1 0x5 PUSH1 0x0 SWAP1 SLOAD SWAP1 PUSH2 0x100 EXP SWAP1 DIV PUSH20 0xFFFFFFFFFFFFFFFFFFFFFFFFFFFFFFFFFFFFFFFF AND PUSH20 0xFFFFFFFFFFFFFFFFFFFFFFFFFFFFFFFFFFFFFFFF AND PUSH32 0x3D08E01E3B8340BE6CA709DB7A9321448661A1F490DA4D7F3EB03D84FE730953 PUSH1 0x40 MLOAD PUSH1 0x40 MLOAD DUP1 SWAP2 SUB SWAP1 LOG3 PUSH1 0x9 PUSH1 0x0 SWAP1 SLOAD SWAP1 PUSH2 0x100 EXP SWAP1 DIV PUSH20 0xFFFFFFFFFFFFFFFFFFFFFFFFFFFFFFFFFFFFFFFF AND PUSH1 0x5 PUSH1 0x0 PUSH2 0x100 EXP DUP2 SLOAD DUP2 PUSH20 0xFFFFFFFFFFFFFFFFFFFFFFFFFFFFFFFFFFFFFFFF MUL NOT AND SWAP1 DUP4 PUSH20 0xFFFFFFFFFFFFFFFFFFFFFFFFFFFFFFFFFFFFFFFF AND MUL OR SWAP1 SSTORE POP JUMP JUMPDEST PUSH1 0x8 PUSH1 0x0 SWAP1 SLOAD SWAP1 PUSH2 0x100 EXP SWAP1 DIV PUSH20 0xFFFFFFFFFFFFFFFFFFFFFFFFFFFFFFFFFFFFFFFF AND DUP2 JUMP JUMPDEST PUSH1 0x3 PUSH1 0x0 SWAP1 SLOAD SWAP1 PUSH2 0x100 EXP SWAP1 DIV PUSH20 0xFFFFFFFFFFFFFFFFFFFFFFFFFFFFFFFFFFFFFFFF AND DUP2 JUMP JUMPDEST PUSH1 0x1 PUSH1 0x0 SWAP1 SLOAD SWAP1 PUSH2 0x100 EXP SWAP1 DIV PUSH20 0xFFFFFFFFFFFFFFFFFFFFFFFFFFFFFFFFFFFFFFFF AND PUSH20 0xFFFFFFFFFFFFFFFFFFFFFFFFFFFFFFFFFFFFFFFF AND PUSH4 0xC340A24 PUSH1 0x40 MLOAD DUP2 PUSH4 0xFFFFFFFF AND PUSH1 0xE0 SHL DUP2 MSTORE PUSH1 0x4 ADD PUSH1 0x20 PUSH1 0x40 MLOAD DUP1 DUP4 SUB DUP2 DUP7 DUP1 EXTCODESIZE ISZERO DUP1 ISZERO PUSH2 0x7DE JUMPI PUSH1 0x0 DUP1 REVERT JUMPDEST POP GAS STATICCALL ISZERO DUP1 ISZERO PUSH2 0x7F2 JUMPI RETURNDATASIZE PUSH1 0x0 DUP1 RETURNDATACOPY RETURNDATASIZE PUSH1 0x0 REVERT JUMPDEST POP POP POP POP PUSH1 0x40 MLOAD RETURNDATASIZE PUSH1 0x1F NOT PUSH1 0x1F DUP3 ADD AND DUP3 ADD DUP1 PUSH1 0x40 MSTORE POP DUP2 ADD SWAP1 PUSH2 0x816 SWAP2 SWAP1 PUSH2 0x158C JUMP JUMPDEST PUSH20 0xFFFFFFFFFFFFFFFFFFFFFFFFFFFFFFFFFFFFFFFF AND CALLER PUSH20 0xFFFFFFFFFFFFFFFFFFFFFFFFFFFFFFFFFFFFFFFF AND EQ PUSH1 0x0 SWAP1 PUSH2 0x887 JUMPI PUSH1 0x40 MLOAD PUSH32 0x8C379A000000000000000000000000000000000000000000000000000000000 DUP2 MSTORE PUSH1 0x4 ADD PUSH2 0x87E SWAP2 SWAP1 PUSH2 0x17B0 JUMP JUMPDEST PUSH1 0x40 MLOAD DUP1 SWAP2 SUB SWAP1 REVERT JUMPDEST POP DUP1 ISZERO PUSH2 0x8D0 JUMPI DUP2 PUSH1 0x2 PUSH1 0x0 PUSH2 0x100 EXP DUP2 SLOAD DUP2 PUSH20 0xFFFFFFFFFFFFFFFFFFFFFFFFFFFFFFFFFFFFFFFF MUL NOT AND SWAP1 DUP4 PUSH20 0xFFFFFFFFFFFFFFFFFFFFFFFFFFFFFFFFFFFFFFFF AND MUL OR SWAP1 SSTORE POP JUMPDEST DUP2 PUSH1 0x6 PUSH1 0x0 PUSH2 0x100 EXP DUP2 SLOAD DUP2 PUSH20 0xFFFFFFFFFFFFFFFFFFFFFFFFFFFFFFFFFFFFFFFF MUL NOT AND SWAP1 DUP4 PUSH20 0xFFFFFFFFFFFFFFFFFFFFFFFFFFFFFFFFFFFFFFFF AND MUL OR SWAP1 SSTORE POP PUSH1 0x6 PUSH1 0x0 SWAP1 SLOAD SWAP1 PUSH2 0x100 EXP SWAP1 DIV PUSH20 0xFFFFFFFFFFFFFFFFFFFFFFFFFFFFFFFFFFFFFFFF AND PUSH20 0xFFFFFFFFFFFFFFFFFFFFFFFFFFFFFFFFFFFFFFFF AND PUSH1 0x2 PUSH1 0x0 SWAP1 SLOAD SWAP1 PUSH2 0x100 EXP SWAP1 DIV PUSH20 0xFFFFFFFFFFFFFFFFFFFFFFFFFFFFFFFFFFFFFFFF AND PUSH20 0xFFFFFFFFFFFFFFFFFFFFFFFFFFFFFFFFFFFFFFFF AND PUSH32 0x4F337DCBB2512F18373C1F72D990A2F0A6EE5024B04007C52AFD01EB73374A89 DUP4 PUSH1 0x40 MLOAD PUSH2 0x9B2 SWAP2 SWAP1 PUSH2 0x177A JUMP JUMPDEST PUSH1 0x40 MLOAD DUP1 SWAP2 SUB SWAP1 LOG3 POP POP JUMP JUMPDEST PUSH1 0x1 PUSH1 0x0 SWAP1 SLOAD SWAP1 PUSH2 0x100 EXP SWAP1 DIV PUSH20 0xFFFFFFFFFFFFFFFFFFFFFFFFFFFFFFFFFFFFFFFF AND PUSH20 0xFFFFFFFFFFFFFFFFFFFFFFFFFFFFFFFFFFFFFFFF AND PUSH4 0xC340A24 PUSH1 0x40 MLOAD DUP2 PUSH4 0xFFFFFFFF AND PUSH1 0xE0 SHL DUP2 MSTORE PUSH1 0x4 ADD PUSH1 0x20 PUSH1 0x40 MLOAD DUP1 DUP4 SUB DUP2 DUP7 DUP1 EXTCODESIZE ISZERO DUP1 ISZERO PUSH2 0xA26 JUMPI PUSH1 0x0 DUP1 REVERT JUMPDEST POP GAS STATICCALL ISZERO DUP1 ISZERO PUSH2 0xA3A JUMPI RETURNDATASIZE PUSH1 0x0 DUP1 RETURNDATACOPY RETURNDATASIZE PUSH1 0x0 REVERT JUMPDEST POP POP POP POP PUSH1 0x40 MLOAD RETURNDATASIZE PUSH1 0x1F NOT PUSH1 0x1F DUP3 ADD AND DUP3 ADD DUP1 PUSH1 0x40 MSTORE POP DUP2 ADD SWAP1 PUSH2 0xA5E SWAP2 SWAP1 PUSH2 0x158C JUMP JUMPDEST PUSH20 0xFFFFFFFFFFFFFFFFFFFFFFFFFFFFFFFFFFFFFFFF AND CALLER PUSH20 0xFFFFFFFFFFFFFFFFFFFFFFFFFFFFFFFFFFFFFFFF AND EQ PUSH1 0x0 SWAP1 PUSH2 0xACF JUMPI PUSH1 0x40 MLOAD PUSH32 0x8C379A000000000000000000000000000000000000000000000000000000000 DUP2 MSTORE PUSH1 0x4 ADD PUSH2 0xAC6 SWAP2 SWAP1 PUSH2 0x17B0 JUMP JUMPDEST PUSH1 0x40 MLOAD DUP1 SWAP2 SUB SWAP1 REVERT JUMPDEST POP DUP1 ISZERO PUSH2 0xB18 JUMPI DUP2 PUSH1 0x4 PUSH1 0x0 PUSH2 0x100 EXP DUP2 SLOAD DUP2 PUSH20 0xFFFFFFFFFFFFFFFFFFFFFFFFFFFFFFFFFFFFFFFF MUL NOT AND SWAP1 DUP4 PUSH20 0xFFFFFFFFFFFFFFFFFFFFFFFFFFFFFFFFFFFFFFFF AND MUL OR SWAP1 SSTORE POP JUMPDEST DUP2 PUSH1 0x8 PUSH1 0x0 PUSH2 0x100 EXP DUP2 SLOAD DUP2 PUSH20 0xFFFFFFFFFFFFFFFFFFFFFFFFFFFFFFFFFFFFFFFF MUL NOT AND SWAP1 DUP4 PUSH20 0xFFFFFFFFFFFFFFFFFFFFFFFFFFFFFFFFFFFFFFFF AND MUL OR SWAP1 SSTORE POP PUSH1 0x8 PUSH1 0x0 SWAP1 SLOAD SWAP1 PUSH2 0x100 EXP SWAP1 DIV PUSH20 0xFFFFFFFFFFFFFFFFFFFFFFFFFFFFFFFFFFFFFFFF AND PUSH20 0xFFFFFFFFFFFFFFFFFFFFFFFFFFFFFFFFFFFFFFFF AND PUSH1 0x4 PUSH1 0x0 SWAP1 SLOAD SWAP1 PUSH2 0x100 EXP SWAP1 DIV PUSH20 0xFFFFFFFFFFFFFFFFFFFFFFFFFFFFFFFFFFFFFFFF AND PUSH20 0xFFFFFFFFFFFFFFFFFFFFFFFFFFFFFFFFFFFFFFFF AND PUSH32 0x90A5902A45C24AAE553D5AFF384CA16D6560F08D74C9784A4FBD2796D9E13F2B DUP4 PUSH1 0x40 MLOAD PUSH2 0xBFA SWAP2 SWAP1 PUSH2 0x177A JUMP JUMPDEST PUSH1 0x40 MLOAD DUP1 SWAP2 SUB SWAP1 LOG3 POP POP JUMP JUMPDEST PUSH1 0x8 PUSH1 0x0 SWAP1 SLOAD SWAP1 PUSH2 0x100 EXP SWAP1 DIV PUSH20 0xFFFFFFFFFFFFFFFFFFFFFFFFFFFFFFFFFFFFFFFF AND PUSH20 0xFFFFFFFFFFFFFFFFFFFFFFFFFFFFFFFFFFFFFFFF AND CALLER PUSH20 0xFFFFFFFFFFFFFFFFFFFFFFFFFFFFFFFFFFFFFFFF AND EQ PUSH2 0xC96 JUMPI PUSH1 0x40 MLOAD PUSH32 0x8C379A000000000000000000000000000000000000000000000000000000000 DUP2 MSTORE PUSH1 0x4 ADD PUSH2 0xC8D SWAP1 PUSH2 0x17F2 JUMP JUMPDEST PUSH1 0x40 MLOAD DUP1 SWAP2 SUB SWAP1 REVERT JUMPDEST PUSH1 0x8 PUSH1 0x0 SWAP1 SLOAD SWAP1 PUSH2 0x100 EXP SWAP1 DIV PUSH20 0xFFFFFFFFFFFFFFFFFFFFFFFFFFFFFFFFFFFFFFFF AND PUSH20 0xFFFFFFFFFFFFFFFFFFFFFFFFFFFFFFFFFFFFFFFF AND PUSH1 0x4 PUSH1 0x0 SWAP1 SLOAD SWAP1 PUSH2 0x100 EXP SWAP1 DIV PUSH20 0xFFFFFFFFFFFFFFFFFFFFFFFFFFFFFFFFFFFFFFFF AND PUSH20 0xFFFFFFFFFFFFFFFFFFFFFFFFFFFFFFFFFFFFFFFF AND PUSH32 0x64D2FA522B403CA222EFFF0C7AD07D2EF45472A45E5770918BDFA9A2845D29A8 PUSH1 0x40 MLOAD PUSH1 0x40 MLOAD DUP1 SWAP2 SUB SWAP1 LOG3 PUSH1 0x8 PUSH1 0x0 SWAP1 SLOAD SWAP1 PUSH2 0x100 EXP SWAP1 DIV PUSH20 0xFFFFFFFFFFFFFFFFFFFFFFFFFFFFFFFFFFFFFFFF AND PUSH1 0x4 PUSH1 0x0 PUSH2 0x100 EXP DUP2 SLOAD DUP2 PUSH20 0xFFFFFFFFFFFFFFFFFFFFFFFFFFFFFFFFFFFFFFFF MUL NOT AND SWAP1 DUP4 PUSH20 0xFFFFFFFFFFFFFFFFFFFFFFFFFFFFFFFFFFFFFFFF AND MUL OR SWAP1 SSTORE POP JUMP JUMPDEST PUSH1 0x1 PUSH1 0x0 SWAP1 SLOAD SWAP1 PUSH2 0x100 EXP SWAP1 DIV PUSH20 0xFFFFFFFFFFFFFFFFFFFFFFFFFFFFFFFFFFFFFFFF AND PUSH20 0xFFFFFFFFFFFFFFFFFFFFFFFFFFFFFFFFFFFFFFFF AND PUSH4 0xC340A24 PUSH1 0x40 MLOAD DUP2 PUSH4 0xFFFFFFFF AND PUSH1 0xE0 SHL DUP2 MSTORE PUSH1 0x4 ADD PUSH1 0x20 PUSH1 0x40 MLOAD DUP1 DUP4 SUB DUP2 DUP7 DUP1 EXTCODESIZE ISZERO DUP1 ISZERO PUSH2 0xE01 JUMPI PUSH1 0x0 DUP1 REVERT JUMPDEST POP GAS STATICCALL ISZERO DUP1 ISZERO PUSH2 0xE15 JUMPI RETURNDATASIZE PUSH1 0x0 DUP1 RETURNDATACOPY RETURNDATASIZE PUSH1 0x0 REVERT JUMPDEST POP POP POP POP PUSH1 0x40 MLOAD RETURNDATASIZE PUSH1 0x1F NOT PUSH1 0x1F DUP3 ADD AND DUP3 ADD DUP1 PUSH1 0x40 MSTORE POP DUP2 ADD SWAP1 PUSH2 0xE39 SWAP2 SWAP1 PUSH2 0x158C JUMP JUMPDEST PUSH20 0xFFFFFFFFFFFFFFFFFFFFFFFFFFFFFFFFFFFFFFFF AND CALLER PUSH20 0xFFFFFFFFFFFFFFFFFFFFFFFFFFFFFFFFFFFFFFFF AND EQ PUSH1 0x0 SWAP1 PUSH2 0xEAA JUMPI PUSH1 0x40 MLOAD PUSH32 0x8C379A000000000000000000000000000000000000000000000000000000000 DUP2 MSTORE PUSH1 0x4 ADD PUSH2 0xEA1 SWAP2 SWAP1 PUSH2 0x17B0 JUMP JUMPDEST PUSH1 0x40 MLOAD DUP1 SWAP2 SUB SWAP1 REVERT JUMPDEST POP DUP1 ISZERO PUSH2 0xEF3 JUMPI DUP2 PUSH1 0x5 PUSH1 0x0 PUSH2 0x100 EXP DUP2 SLOAD DUP2 PUSH20 0xFFFFFFFFFFFFFFFFFFFFFFFFFFFFFFFFFFFFFFFF MUL NOT AND SWAP1 DUP4 PUSH20 0xFFFFFFFFFFFFFFFFFFFFFFFFFFFFFFFFFFFFFFFF AND MUL OR SWAP1 SSTORE POP JUMPDEST DUP2 PUSH1 0x9 PUSH1 0x0 PUSH2 0x100 EXP DUP2 SLOAD DUP2 PUSH20 0xFFFFFFFFFFFFFFFFFFFFFFFFFFFFFFFFFFFFFFFF MUL NOT AND SWAP1 DUP4 PUSH20 0xFFFFFFFFFFFFFFFFFFFFFFFFFFFFFFFFFFFFFFFF AND MUL OR SWAP1 SSTORE POP PUSH1 0x9 PUSH1 0x0 SWAP1 SLOAD SWAP1 PUSH2 0x100 EXP SWAP1 DIV PUSH20 0xFFFFFFFFFFFFFFFFFFFFFFFFFFFFFFFFFFFFFFFF AND PUSH20 0xFFFFFFFFFFFFFFFFFFFFFFFFFFFFFFFFFFFFFFFF AND PUSH1 0x5 PUSH1 0x0 SWAP1 SLOAD SWAP1 PUSH2 0x100 EXP SWAP1 DIV PUSH20 0xFFFFFFFFFFFFFFFFFFFFFFFFFFFFFFFFFFFFFFFF AND PUSH20 0xFFFFFFFFFFFFFFFFFFFFFFFFFFFFFFFFFFFFFFFF AND PUSH32 0x5A80F5053574D6A62733E1692E8CBCFAF927DC82DF0A7267EA2E489A7CC18FF DUP4 PUSH1 0x40 MLOAD PUSH2 0xFD5 SWAP2 SWAP1 PUSH2 0x177A JUMP JUMPDEST PUSH1 0x40 MLOAD DUP1 SWAP2 SUB SWAP1 LOG3 POP POP JUMP JUMPDEST PUSH1 0x1 PUSH1 0x0 SWAP1 SLOAD SWAP1 PUSH2 0x100 EXP SWAP1 DIV PUSH20 0xFFFFFFFFFFFFFFFFFFFFFFFFFFFFFFFFFFFFFFFF AND PUSH20 0xFFFFFFFFFFFFFFFFFFFFFFFFFFFFFFFFFFFFFFFF AND PUSH4 0xC340A24 PUSH1 0x40 MLOAD DUP2 PUSH4 0xFFFFFFFF AND PUSH1 0xE0 SHL DUP2 MSTORE PUSH1 0x4 ADD PUSH1 0x20 PUSH1 0x40 MLOAD DUP1 DUP4 SUB DUP2 DUP7 DUP1 EXTCODESIZE ISZERO DUP1 ISZERO PUSH2 0x1049 JUMPI PUSH1 0x0 DUP1 REVERT JUMPDEST POP GAS STATICCALL ISZERO DUP1 ISZERO PUSH2 0x105D JUMPI RETURNDATASIZE PUSH1 0x0 DUP1 RETURNDATACOPY RETURNDATASIZE PUSH1 0x0 REVERT JUMPDEST POP POP POP POP PUSH1 0x40 MLOAD RETURNDATASIZE PUSH1 0x1F NOT PUSH1 0x1F DUP3 ADD AND DUP3 ADD DUP1 PUSH1 0x40 MSTORE POP DUP2 ADD SWAP1 PUSH2 0x1081 SWAP2 SWAP1 PUSH2 0x158C JUMP JUMPDEST PUSH20 0xFFFFFFFFFFFFFFFFFFFFFFFFFFFFFFFFFFFFFFFF AND CALLER PUSH20 0xFFFFFFFFFFFFFFFFFFFFFFFFFFFFFFFFFFFFFFFF AND EQ PUSH1 0x0 SWAP1 PUSH2 0x10F2 JUMPI PUSH1 0x40 MLOAD PUSH32 0x8C379A000000000000000000000000000000000000000000000000000000000 DUP2 MSTORE PUSH1 0x4 ADD PUSH2 0x10E9 SWAP2 SWAP1 PUSH2 0x17B0 JUMP JUMPDEST PUSH1 0x40 MLOAD DUP1 SWAP2 SUB SWAP1 REVERT JUMPDEST POP DUP1 PUSH1 0x1 PUSH1 0x0 PUSH2 0x100 EXP DUP2 SLOAD DUP2 PUSH20 0xFFFFFFFFFFFFFFFFFFFFFFFFFFFFFFFFFFFFFFFF MUL NOT AND SWAP1 DUP4 PUSH20 0xFFFFFFFFFFFFFFFFFFFFFFFFFFFFFFFFFFFFFFFF AND MUL OR SWAP1 SSTORE POP DUP1 PUSH20 0xFFFFFFFFFFFFFFFFFFFFFFFFFFFFFFFFFFFFFFFF AND PUSH32 0x2F658B440C35314F52658EA8A740E05B284CDC84DC9AE01E891F21B8933E7CAD PUSH1 0x40 MLOAD PUSH1 0x40 MLOAD DUP1 SWAP2 SUB SWAP1 LOG2 POP JUMP JUMPDEST PUSH1 0x9 PUSH1 0x0 SWAP1 SLOAD SWAP1 PUSH2 0x100 EXP SWAP1 DIV PUSH20 0xFFFFFFFFFFFFFFFFFFFFFFFFFFFFFFFFFFFFFFFF AND DUP2 JUMP JUMPDEST PUSH1 0x6 PUSH1 0x0 SWAP1 SLOAD SWAP1 PUSH2 0x100 EXP SWAP1 DIV PUSH20 0xFFFFFFFFFFFFFFFFFFFFFFFFFFFFFFFFFFFFFFFF AND DUP2 JUMP JUMPDEST PUSH1 0x7 PUSH1 0x0 SWAP1 SLOAD SWAP1 PUSH2 0x100 EXP SWAP1 DIV PUSH20 0xFFFFFFFFFFFFFFFFFFFFFFFFFFFFFFFFFFFFFFFF AND PUSH20 0xFFFFFFFFFFFFFFFFFFFFFFFFFFFFFFFFFFFFFFFF AND CALLER PUSH20 0xFFFFFFFFFFFFFFFFFFFFFFFFFFFFFFFFFFFFFFFF AND EQ PUSH2 0x1256 JUMPI PUSH1 0x40 MLOAD PUSH32 0x8C379A000000000000000000000000000000000000000000000000000000000 DUP2 MSTORE PUSH1 0x4 ADD PUSH2 0x124D SWAP1 PUSH2 0x1832 JUMP JUMPDEST PUSH1 0x40 MLOAD DUP1 SWAP2 SUB SWAP1 REVERT JUMPDEST PUSH1 0x7 PUSH1 0x0 SWAP1 SLOAD SWAP1 PUSH2 0x100 EXP SWAP1 DIV PUSH20 0xFFFFFFFFFFFFFFFFFFFFFFFFFFFFFFFFFFFFFFFF AND PUSH20 0xFFFFFFFFFFFFFFFFFFFFFFFFFFFFFFFFFFFFFFFF AND PUSH1 0x3 PUSH1 0x0 SWAP1 SLOAD SWAP1 PUSH2 0x100 EXP SWAP1 DIV PUSH20 0xFFFFFFFFFFFFFFFFFFFFFFFFFFFFFFFFFFFFFFFF AND PUSH20 0xFFFFFFFFFFFFFFFFFFFFFFFFFFFFFFFFFFFFFFFF AND PUSH32 0x960FB9900FB8096216606C4F7FC2FCE5D08CC0C82DA55CEC8619B66B5238481 PUSH1 0x40 MLOAD PUSH1 0x40 MLOAD DUP1 SWAP2 SUB SWAP1 LOG3 PUSH1 0x7 PUSH1 0x0 SWAP1 SLOAD SWAP1 PUSH2 0x100 EXP SWAP1 DIV PUSH20 0xFFFFFFFFFFFFFFFFFFFFFFFFFFFFFFFFFFFFFFFF AND PUSH1 0x3 PUSH1 0x0 PUSH2 0x100 EXP DUP2 SLOAD DUP2 PUSH20 0xFFFFFFFFFFFFFFFFFFFFFFFFFFFFFFFFFFFFFFFF MUL NOT AND SWAP1 DUP4 PUSH20 0xFFFFFFFFFFFFFFFFFFFFFFFFFFFFFFFFFFFFFFFF AND MUL OR SWAP1 SSTORE POP JUMP JUMPDEST PUSH1 0x1 PUSH1 0x0 SWAP1 SLOAD SWAP1 PUSH2 0x100 EXP SWAP1 DIV PUSH20 0xFFFFFFFFFFFFFFFFFFFFFFFFFFFFFFFFFFFFFFFF AND DUP2 JUMP JUMPDEST PUSH1 0x6 PUSH1 0x0 SWAP1 SLOAD SWAP1 PUSH2 0x100 EXP SWAP1 DIV PUSH20 0xFFFFFFFFFFFFFFFFFFFFFFFFFFFFFFFFFFFFFFFF AND PUSH20 0xFFFFFFFFFFFFFFFFFFFFFFFFFFFFFFFFFFFFFFFF AND CALLER PUSH20 0xFFFFFFFFFFFFFFFFFFFFFFFFFFFFFFFFFFFFFFFF AND EQ PUSH2 0x140F JUMPI PUSH1 0x40 MLOAD PUSH32 0x8C379A000000000000000000000000000000000000000000000000000000000 DUP2 MSTORE PUSH1 0x4 ADD PUSH2 0x1406 SWAP1 PUSH2 0x1812 JUMP JUMPDEST PUSH1 0x40 MLOAD DUP1 SWAP2 SUB SWAP1 REVERT JUMPDEST PUSH1 0x6 PUSH1 0x0 SWAP1 SLOAD SWAP1 PUSH2 0x100 EXP SWAP1 DIV PUSH20 0xFFFFFFFFFFFFFFFFFFFFFFFFFFFFFFFFFFFFFFFF AND PUSH20 0xFFFFFFFFFFFFFFFFFFFFFFFFFFFFFFFFFFFFFFFF AND PUSH1 0x2 PUSH1 0x0 SWAP1 SLOAD SWAP1 PUSH2 0x100 EXP SWAP1 DIV PUSH20 0xFFFFFFFFFFFFFFFFFFFFFFFFFFFFFFFFFFFFFFFF AND PUSH20 0xFFFFFFFFFFFFFFFFFFFFFFFFFFFFFFFFFFFFFFFF AND PUSH32 0xFFD6FED33FE8EC1016718BDD5D04AE6FECD9ABA0DA6578807DAAAA7FC3D16826 PUSH1 0x40 MLOAD PUSH1 0x40 MLOAD DUP1 SWAP2 SUB SWAP1 LOG3 PUSH1 0x6 PUSH1 0x0 SWAP1 SLOAD SWAP1 PUSH2 0x100 EXP SWAP1 DIV PUSH20 0xFFFFFFFFFFFFFFFFFFFFFFFFFFFFFFFFFFFFFFFF AND PUSH1 0x2 PUSH1 0x0 PUSH2 0x100 EXP DUP2 SLOAD DUP2 PUSH20 0xFFFFFFFFFFFFFFFFFFFFFFFFFFFFFFFFFFFFFFFF MUL NOT AND SWAP1 DUP4 PUSH20 0xFFFFFFFFFFFFFFFFFFFFFFFFFFFFFFFFFFFFFFFF AND MUL OR SWAP1 SSTORE POP JUMP JUMPDEST PUSH1 0x5 PUSH1 0x0 SWAP1 SLOAD SWAP1 PUSH2 0x100 EXP SWAP1 DIV PUSH20 0xFFFFFFFFFFFFFFFFFFFFFFFFFFFFFFFFFFFFFFFF AND DUP2 JUMP JUMPDEST PUSH1 0x0 DUP2 CALLDATALOAD SWAP1 POP PUSH2 0x1547 DUP2 PUSH2 0x1A08 JUMP JUMPDEST SWAP3 SWAP2 POP POP JUMP JUMPDEST PUSH1 0x0 DUP2 MLOAD SWAP1 POP PUSH2 0x155C DUP2 PUSH2 0x1A08 JUMP JUMPDEST SWAP3 SWAP2 POP POP JUMP JUMPDEST PUSH1 0x0 DUP2 CALLDATALOAD SWAP1 POP PUSH2 0x1571 DUP2 PUSH2 0x1A1F JUMP JUMPDEST SWAP3 SWAP2 POP POP JUMP JUMPDEST PUSH1 0x0 DUP2 CALLDATALOAD SWAP1 POP PUSH2 0x1586 DUP2 PUSH2 0x1A36 JUMP JUMPDEST SWAP3 SWAP2 POP POP JUMP JUMPDEST PUSH1 0x0 PUSH1 0x20 DUP3 DUP5 SUB SLT ISZERO PUSH2 0x15A2 JUMPI PUSH2 0x15A1 PUSH2 0x195F JUMP JUMPDEST JUMPDEST PUSH1 0x0 PUSH2 0x15B0 DUP5 DUP3 DUP6 ADD PUSH2 0x154D JUMP JUMPDEST SWAP2 POP POP SWAP3 SWAP2 POP POP JUMP JUMPDEST PUSH1 0x0 DUP1 PUSH1 0x40 DUP4 DUP6 SUB SLT ISZERO PUSH2 0x15D0 JUMPI PUSH2 0x15CF PUSH2 0x195F JUMP JUMPDEST JUMPDEST PUSH1 0x0 PUSH2 0x15DE DUP6 DUP3 DUP7 ADD PUSH2 0x1538 JUMP JUMPDEST SWAP3 POP POP PUSH1 0x20 PUSH2 0x15EF DUP6 DUP3 DUP7 ADD PUSH2 0x1562 JUMP JUMPDEST SWAP2 POP POP SWAP3 POP SWAP3 SWAP1 POP JUMP JUMPDEST PUSH1 0x0 PUSH1 0x20 DUP3 DUP5 SUB SLT ISZERO PUSH2 0x160F JUMPI PUSH2 0x160E PUSH2 0x195F JUMP JUMPDEST JUMPDEST PUSH1 0x0 PUSH2 0x161D DUP5 DUP3 DUP6 ADD PUSH2 0x1577 JUMP JUMPDEST SWAP2 POP POP SWAP3 SWAP2 POP POP JUMP JUMPDEST PUSH2 0x162F DUP2 PUSH2 0x1878 JUMP JUMPDEST DUP3 MSTORE POP POP JUMP JUMPDEST PUSH2 0x163E DUP2 PUSH2 0x188A JUMP JUMPDEST DUP3 MSTORE POP POP JUMP JUMPDEST PUSH2 0x164D DUP2 PUSH2 0x18C8 JUMP JUMPDEST DUP3 MSTORE POP POP JUMP JUMPDEST PUSH1 0x0 DUP2 SLOAD PUSH2 0x1660 DUP2 PUSH2 0x18FE JUMP JUMPDEST PUSH2 0x166A DUP2 DUP7 PUSH2 0x1867 JUMP JUMPDEST SWAP5 POP PUSH1 0x1 DUP3 AND PUSH1 0x0 DUP2 EQ PUSH2 0x1685 JUMPI PUSH1 0x1 DUP2 EQ PUSH2 0x1697 JUMPI PUSH2 0x16CA JUMP JUMPDEST PUSH1 0xFF NOT DUP4 AND DUP7 MSTORE PUSH1 0x20 DUP7 ADD SWAP4 POP PUSH2 0x16CA JUMP JUMPDEST PUSH2 0x16A0 DUP6 PUSH2 0x1852 JUMP JUMPDEST PUSH1 0x0 JUMPDEST DUP4 DUP2 LT ISZERO PUSH2 0x16C2 JUMPI DUP2 SLOAD DUP2 DUP10 ADD MSTORE PUSH1 0x1 DUP3 ADD SWAP2 POP PUSH1 0x20 DUP2 ADD SWAP1 POP PUSH2 0x16A3 JUMP JUMPDEST DUP1 DUP9 ADD SWAP6 POP POP POP JUMPDEST POP POP POP SWAP3 SWAP2 POP POP JUMP JUMPDEST PUSH1 0x0 PUSH2 0x16E0 PUSH1 0x9 DUP4 PUSH2 0x1867 JUMP JUMPDEST SWAP2 POP PUSH2 0x16EB DUP3 PUSH2 0x1964 JUMP JUMPDEST PUSH1 0x20 DUP3 ADD SWAP1 POP SWAP2 SWAP1 POP JUMP JUMPDEST PUSH1 0x0 PUSH2 0x1703 PUSH1 0xA DUP4 PUSH2 0x1867 JUMP JUMPDEST SWAP2 POP PUSH2 0x170E DUP3 PUSH2 0x198D JUMP JUMPDEST PUSH1 0x20 DUP3 ADD SWAP1 POP SWAP2 SWAP1 POP JUMP JUMPDEST PUSH1 0x0 PUSH2 0x1726 PUSH1 0xC DUP4 PUSH2 0x1867 JUMP JUMPDEST SWAP2 POP PUSH2 0x1731 DUP3 PUSH2 0x19B6 JUMP JUMPDEST PUSH1 0x20 DUP3 ADD SWAP1 POP SWAP2 SWAP1 POP JUMP JUMPDEST PUSH1 0x0 PUSH2 0x1749 PUSH1 0x9 DUP4 PUSH2 0x1867 JUMP JUMPDEST SWAP2 POP PUSH2 0x1754 DUP3 PUSH2 0x19DF JUMP JUMPDEST PUSH1 0x20 DUP3 ADD SWAP1 POP SWAP2 SWAP1 POP JUMP JUMPDEST PUSH1 0x0 PUSH1 0x20 DUP3 ADD SWAP1 POP PUSH2 0x1774 PUSH1 0x0 DUP4 ADD DUP5 PUSH2 0x1626 JUMP JUMPDEST SWAP3 SWAP2 POP POP JUMP JUMPDEST PUSH1 0x0 PUSH1 0x20 DUP3 ADD SWAP1 POP PUSH2 0x178F PUSH1 0x0 DUP4 ADD DUP5 PUSH2 0x1635 JUMP JUMPDEST SWAP3 SWAP2 POP POP JUMP JUMPDEST PUSH1 0x0 PUSH1 0x20 DUP3 ADD SWAP1 POP PUSH2 0x17AA PUSH1 0x0 DUP4 ADD DUP5 PUSH2 0x1644 JUMP JUMPDEST SWAP3 SWAP2 POP POP JUMP JUMPDEST PUSH1 0x0 PUSH1 0x20 DUP3 ADD SWAP1 POP DUP2 DUP2 SUB PUSH1 0x0 DUP4 ADD MSTORE PUSH2 0x17CA DUP2 DUP5 PUSH2 0x1653 JUMP JUMPDEST SWAP1 POP SWAP3 SWAP2 POP POP JUMP JUMPDEST PUSH1 0x0 PUSH1 0x20 DUP3 ADD SWAP1 POP DUP2 DUP2 SUB PUSH1 0x0 DUP4 ADD MSTORE PUSH2 0x17EB DUP2 PUSH2 0x16D3 JUMP JUMPDEST SWAP1 POP SWAP2 SWAP1 POP JUMP JUMPDEST PUSH1 0x0 PUSH1 0x20 DUP3 ADD SWAP1 POP DUP2 DUP2 SUB PUSH1 0x0 DUP4 ADD MSTORE PUSH2 0x180B DUP2 PUSH2 0x16F6 JUMP JUMPDEST SWAP1 POP SWAP2 SWAP1 POP JUMP JUMPDEST PUSH1 0x0 PUSH1 0x20 DUP3 ADD SWAP1 POP DUP2 DUP2 SUB PUSH1 0x0 DUP4 ADD MSTORE PUSH2 0x182B DUP2 PUSH2 0x1719 JUMP JUMPDEST SWAP1 POP SWAP2 SWAP1 POP JUMP JUMPDEST PUSH1 0x0 PUSH1 0x20 DUP3 ADD SWAP1 POP DUP2 DUP2 SUB PUSH1 0x0 DUP4 ADD MSTORE PUSH2 0x184B DUP2 PUSH2 0x173C JUMP JUMPDEST SWAP1 POP SWAP2 SWAP1 POP JUMP JUMPDEST PUSH1 0x0 DUP2 SWAP1 POP DUP2 PUSH1 0x0 MSTORE PUSH1 0x20 PUSH1 0x0 KECCAK256 SWAP1 POP SWAP2 SWAP1 POP JUMP JUMPDEST PUSH1 0x0 DUP3 DUP3 MSTORE PUSH1 0x20 DUP3 ADD SWAP1 POP SWAP3 SWAP2 POP POP JUMP JUMPDEST PUSH1 0x0 PUSH2 0x1883 DUP3 PUSH2 0x18A8 JUMP JUMPDEST SWAP1 POP SWAP2 SWAP1 POP JUMP JUMPDEST PUSH1 0x0 DUP2 ISZERO ISZERO SWAP1 POP SWAP2 SWAP1 POP JUMP JUMPDEST PUSH1 0x0 PUSH2 0x18A1 DUP3 PUSH2 0x1878 JUMP JUMPDEST SWAP1 POP SWAP2 SWAP1 POP JUMP JUMPDEST PUSH1 0x0 PUSH20 0xFFFFFFFFFFFFFFFFFFFFFFFFFFFFFFFFFFFFFFFF DUP3 AND SWAP1 POP SWAP2 SWAP1 POP JUMP JUMPDEST PUSH1 0x0 PUSH2 0x18D3 DUP3 PUSH2 0x18DA JUMP JUMPDEST SWAP1 POP SWAP2 SWAP1 POP JUMP JUMPDEST PUSH1 0x0 PUSH2 0x18E5 DUP3 PUSH2 0x18EC JUMP JUMPDEST SWAP1 POP SWAP2 SWAP1 POP JUMP JUMPDEST PUSH1 0x0 PUSH2 0x18F7 DUP3 PUSH2 0x18A8 JUMP JUMPDEST SWAP1 POP SWAP2 SWAP1 POP JUMP JUMPDEST PUSH1 0x0 PUSH1 0x2 DUP3 DIV SWAP1 POP PUSH1 0x1 DUP3 AND DUP1 PUSH2 0x1916 JUMPI PUSH1 0x7F DUP3 AND SWAP2 POP JUMPDEST PUSH1 0x20 DUP3 LT DUP2 EQ ISZERO PUSH2 0x192A JUMPI PUSH2 0x1929 PUSH2 0x1930 JUMP JUMPDEST JUMPDEST POP SWAP2 SWAP1 POP JUMP JUMPDEST PUSH32 0x4E487B7100000000000000000000000000000000000000000000000000000000 PUSH1 0x0 MSTORE PUSH1 0x22 PUSH1 0x4 MSTORE PUSH1 0x24 PUSH1 0x0 REVERT JUMPDEST PUSH1 0x0 DUP1 REVERT JUMPDEST PUSH32 0x216E65775661756C740000000000000000000000000000000000000000000000 PUSH1 0x0 DUP3 ADD MSTORE POP JUMP JUMPDEST PUSH32 0x216E6577506F6C69637900000000000000000000000000000000000000000000 PUSH1 0x0 DUP3 ADD MSTORE POP JUMP JUMPDEST PUSH32 0x216E6577476F7665726E6F720000000000000000000000000000000000000000 PUSH1 0x0 DUP3 ADD MSTORE POP JUMP JUMPDEST PUSH32 0x216E657747756172640000000000000000000000000000000000000000000000 PUSH1 0x0 DUP3 ADD MSTORE POP JUMP JUMPDEST PUSH2 0x1A11 DUP2 PUSH2 0x1878 JUMP JUMPDEST DUP2 EQ PUSH2 0x1A1C JUMPI PUSH1 0x0 DUP1 REVERT JUMPDEST POP JUMP JUMPDEST PUSH2 0x1A28 DUP2 PUSH2 0x188A JUMP JUMPDEST DUP2 EQ PUSH2 0x1A33 JUMPI PUSH1 0x0 DUP1 REVERT JUMPDEST POP JUMP JUMPDEST PUSH2 0x1A3F DUP2 PUSH2 0x1896 JUMP JUMPDEST DUP2 EQ PUSH2 0x1A4A JUMPI PUSH1 0x0 DUP1 REVERT JUMPDEST POP JUMP INVALID LOG2 PUSH5 0x6970667358 0x22 SLT KECCAK256 SIGNEXTEND 0xFB 0x5C CALL 0xCE PUSH3 0xAF9A22 0xD9 INVALID ADDRESS 0xB5 0xCF 0xA5 0xD7 0xD3 SWAP2 DUP16 BYTE 0x26 DUP8 SMOD 0x23 0x5F 0xDF 0xCE PUSH32 0x753F43E864736F6C634300080700330000000000000000000000000000000000 "
				},
				"gasEstimates": {
					"creation": {
						"codeDepositCost": "1357400",
						"executionCost": "infinite",
						"totalCost": "infinite"
					},
					"external": {
						"authority()": "2666",
						"governor()": "2560",
						"guardian()": "2581",
						"newGovernor()": "2536",
						"newGuardian()": "2582",
						"newPolicy()": "2559",
						"newVault()": "2603",
						"policy()": "2538",
						"pullGovernor()": "34622",
						"pullGuardian()": "34578",
						"pullPolicy()": "34557",
						"pullVault()": "34557",
						"pushGovernor(address,bool)": "infinite",
						"pushGuardian(address,bool)": "infinite",
						"pushPolicy(address,bool)": "infinite",
						"pushVault(address,bool)": "infinite",
						"setAuthority(address)": "infinite",
						"vault()": "2624"
					}
				},
				"methodIdentifiers": {
					"authority()": "bf7e214f",
					"governor()": "0c340a24",
					"guardian()": "452a9320",
					"newGovernor()": "8fd20577",
					"newGuardian()": "19859847",
					"newPolicy()": "3bf90c28",
					"newVault()": "88aaf0c8",
					"policy()": "0505c8c9",
					"pullGovernor()": "d8a04212",
					"pullGuardian()": "be11f1dd",
					"pullPolicy()": "5beede08",
					"pullVault()": "215e92bc",
					"pushGovernor(address,bool)": "52759694",
					"pushGuardian(address,bool)": "1afe8714",
					"pushPolicy(address,bool)": "54e3d703",
					"pushVault(address,bool)": "6fe72c14",
					"setAuthority(address)": "7a9e5e4b",
					"vault()": "fbfa77cf"
				}
			},
			"storageLayout": {
				"storage": [
					{
						"astId": 10,
						"contract": "ExodusAuthority/ExodusAuthority.sol:ExodusAuthority",
						"label": "UNAUTHORIZED",
						"offset": 0,
						"slot": "0",
						"type": "t_string_storage"
					},
					{
						"astId": 13,
						"contract": "ExodusAuthority/ExodusAuthority.sol:ExodusAuthority",
						"label": "authority",
						"offset": 0,
						"slot": "1",
						"type": "t_contract(IExodusAuthority)470"
					},
					{
						"astId": 113,
						"contract": "ExodusAuthority/ExodusAuthority.sol:ExodusAuthority",
						"label": "governor",
						"offset": 0,
						"slot": "2",
						"type": "t_address"
					},
					{
						"astId": 116,
						"contract": "ExodusAuthority/ExodusAuthority.sol:ExodusAuthority",
						"label": "guardian",
						"offset": 0,
						"slot": "3",
						"type": "t_address"
					},
					{
						"astId": 119,
						"contract": "ExodusAuthority/ExodusAuthority.sol:ExodusAuthority",
						"label": "policy",
						"offset": 0,
						"slot": "4",
						"type": "t_address"
					},
					{
						"astId": 122,
						"contract": "ExodusAuthority/ExodusAuthority.sol:ExodusAuthority",
						"label": "vault",
						"offset": 0,
						"slot": "5",
						"type": "t_address"
					},
					{
						"astId": 124,
						"contract": "ExodusAuthority/ExodusAuthority.sol:ExodusAuthority",
						"label": "newGovernor",
						"offset": 0,
						"slot": "6",
						"type": "t_address"
					},
					{
						"astId": 126,
						"contract": "ExodusAuthority/ExodusAuthority.sol:ExodusAuthority",
						"label": "newGuardian",
						"offset": 0,
						"slot": "7",
						"type": "t_address"
					},
					{
						"astId": 128,
						"contract": "ExodusAuthority/ExodusAuthority.sol:ExodusAuthority",
						"label": "newPolicy",
						"offset": 0,
						"slot": "8",
						"type": "t_address"
					},
					{
						"astId": 130,
						"contract": "ExodusAuthority/ExodusAuthority.sol:ExodusAuthority",
						"label": "newVault",
						"offset": 0,
						"slot": "9",
						"type": "t_address"
					}
				],
				"types": {
					"t_address": {
						"encoding": "inplace",
						"label": "address",
						"numberOfBytes": "20"
					},
					"t_contract(IExodusAuthority)470": {
						"encoding": "inplace",
						"label": "contract IExodusAuthority",
						"numberOfBytes": "20"
					},
					"t_string_storage": {
						"encoding": "bytes",
						"label": "string",
						"numberOfBytes": "32"
					}
				}
			},
			"userdoc": {
				"kind": "user",
				"methods": {},
				"version": 1
			}
		}
	}
}