{
	"ExoFaucet/OhmFaucet.sol": {
		"OhmFaucet": {
			"abi": [
				{
					"inputs": [
						{
							"internalType": "address",
							"name": "_ohm",
							"type": "address"
						}
					],
					"stateMutability": "nonpayable",
					"type": "constructor"
				},
				{
					"anonymous": false,
					"inputs": [
						{
							"indexed": true,
							"internalType": "address",
							"name": "previousOwner",
							"type": "address"
						},
						{
							"indexed": true,
							"internalType": "address",
							"name": "newOwner",
							"type": "address"
						}
					],
					"name": "OwnershipPulled",
					"type": "event"
				},
				{
					"anonymous": false,
					"inputs": [
						{
							"indexed": true,
							"internalType": "address",
							"name": "previousOwner",
							"type": "address"
						},
						{
							"indexed": true,
							"internalType": "address",
							"name": "newOwner",
							"type": "address"
						}
					],
					"name": "OwnershipPushed",
					"type": "event"
				},
				{
					"inputs": [],
					"name": "dispense",
					"outputs": [],
					"stateMutability": "nonpayable",
					"type": "function"
				},
				{
					"inputs": [],
					"name": "ohm",
					"outputs": [
						{
							"internalType": "contract IERC20",
							"name": "",
							"type": "address"
						}
					],
					"stateMutability": "view",
					"type": "function"
				},
				{
					"inputs": [],
					"name": "owner",
					"outputs": [
						{
							"internalType": "address",
							"name": "",
							"type": "address"
						}
					],
					"stateMutability": "view",
					"type": "function"
				},
				{
					"inputs": [],
					"name": "pullManagement",
					"outputs": [],
					"stateMutability": "nonpayable",
					"type": "function"
				},
				{
					"inputs": [
						{
							"internalType": "address",
							"name": "newOwner_",
							"type": "address"
						}
					],
					"name": "pushManagement",
					"outputs": [],
					"stateMutability": "nonpayable",
					"type": "function"
				},
				{
					"inputs": [],
					"name": "renounceManagement",
					"outputs": [],
					"stateMutability": "nonpayable",
					"type": "function"
				},
				{
					"inputs": [
						{
							"internalType": "address",
							"name": "_ohm",
							"type": "address"
						}
					],
					"name": "setOhm",
					"outputs": [],
					"stateMutability": "nonpayable",
					"type": "function"
				}
			],
			"devdoc": {
				"kind": "dev",
				"methods": {},
				"version": 1
			},
			"evm": {
				"assembly": "    /* \"ExoFaucet/OhmFaucet.sol\":109:403  contract OhmFaucet is Ownable {... */\n  mstore(0x40, 0x80)\n    /* \"ExoFaucet/OhmFaucet.sol\":169:230  constructor(address _ohm) {... */\n  callvalue\n  dup1\n  iszero\n  tag_1\n  jumpi\n  0x00\n  dup1\n  revert\ntag_1:\n  pop\n  mload(0x40)\n  sub(codesize, bytecodeSize)\n  dup1\n  bytecodeSize\n  dup4\n  codecopy\n  dup2\n  dup2\n  add\n  0x40\n  mstore\n  0x20\n  dup2\n  lt\n  iszero\n  tag_2\n  jumpi\n  0x00\n  dup1\n  revert\ntag_2:\n  pop\n  mload\n    /* \"ExoFaucet/Ownable.sol\":397:403  _owner */\n  0x00\n    /* \"ExoFaucet/Ownable.sol\":397:416  _owner = msg.sender */\n  dup1\n  sload\n  not(sub(shl(0xa0, 0x01), 0x01))\n  and\n    /* \"ExoFaucet/Ownable.sol\":406:416  msg.sender */\n  caller\n    /* \"ExoFaucet/Ownable.sol\":397:416  _owner = msg.sender */\n  or\n  dup1\n  dup3\n  sstore\n    /* \"ExoFaucet/Ownable.sol\":431:466  OwnershipPushed(address(0), _owner) */\n  mload(0x40)\n  sub(shl(0xa0, 0x01), 0x01)\n    /* \"ExoFaucet/Ownable.sol\":459:465  _owner */\n  swap2\n  swap1\n  swap2\n  and\n  swap2\n    /* \"ExoFaucet/Ownable.sol\":397:403  _owner */\n  swap1\n    /* \"ExoFaucet/Ownable.sol\":431:466  OwnershipPushed(address(0), _owner) */\n  0xea8258f2d9ddb679928cf34b78cf645b7feda9acc828e4dd82d014eaae270eba\n  swap1\n    /* \"ExoFaucet/Ownable.sol\":397:403  _owner */\n  dup3\n  swap1\n    /* \"ExoFaucet/Ownable.sol\":431:466  OwnershipPushed(address(0), _owner) */\n  log3\n    /* \"ExoFaucet/OhmFaucet.sol\":205:208  ohm */\n  0x02\n    /* \"ExoFaucet/OhmFaucet.sol\":205:223  ohm = IERC20(_ohm) */\n  dup1\n  sload\n  not(sub(shl(0xa0, 0x01), 0x01))\n  and\n  sub(shl(0xa0, 0x01), 0x01)\n  swap3\n  swap1\n  swap3\n  and\n  swap2\n  swap1\n  swap2\n  or\n  swap1\n  sstore\n    /* \"ExoFaucet/OhmFaucet.sol\":109:403  contract OhmFaucet is Ownable {... */\n  dataSize(sub_0)\n  dup1\n  dataOffset(sub_0)\n  0x00\n  codecopy\n  0x00\n  return\nstop\n\nsub_0: assembly {\n        /* \"ExoFaucet/OhmFaucet.sol\":109:403  contract OhmFaucet is Ownable {... */\n      mstore(0x40, 0x80)\n      callvalue\n      dup1\n      iszero\n      tag_1\n      jumpi\n      0x00\n      dup1\n      revert\n    tag_1:\n      pop\n      jumpi(tag_2, lt(calldatasize, 0x04))\n      shr(0xe0, calldataload(0x00))\n      dup1\n      0x46f68ee9\n      gt\n      tag_10\n      jumpi\n      dup1\n      0x46f68ee9\n      eq\n      tag_6\n      jumpi\n      dup1\n      0x5a96ac0a\n      eq\n      tag_7\n      jumpi\n      dup1\n      0x8da5cb5b\n      eq\n      tag_8\n      jumpi\n      dup1\n      0xf9224d3c\n      eq\n      tag_9\n      jumpi\n      jump(tag_2)\n    tag_10:\n      dup1\n      0x02b1d239\n      eq\n      tag_3\n      jumpi\n      dup1\n      0x089208d8\n      eq\n      tag_4\n      jumpi\n      dup1\n      0x0adb1a9a\n      eq\n      tag_5\n      jumpi\n    tag_2:\n      0x00\n      dup1\n      revert\n        /* \"ExoFaucet/OhmFaucet.sol\":145:162  IERC20 public ohm */\n    tag_3:\n      tag_11\n      tag_12\n      jump\t// in\n    tag_11:\n      0x40\n      dup1\n      mload\n      sub(shl(0xa0, 0x01), 0x01)\n      swap1\n      swap3\n      and\n      dup3\n      mstore\n      mload\n      swap1\n      dup2\n      swap1\n      sub\n      0x20\n      add\n      swap1\n      return\n        /* \"ExoFaucet/Ownable.sol\":691:873  function renounceManagement() public virtual override onlyOwner {... */\n    tag_4:\n      tag_13\n      tag_14\n      jump\t// in\n    tag_13:\n      stop\n        /* \"ExoFaucet/OhmFaucet.sol\":326:401  function dispense() external {... */\n    tag_5:\n      tag_13\n      tag_16\n      jump\t// in\n        /* \"ExoFaucet/Ownable.sol\":879:1043  function pushManagement(address newOwner_) public virtual override onlyOwner {... */\n    tag_6:\n      tag_13\n      0x04\n      dup1\n      calldatasize\n      sub\n      0x20\n      dup2\n      lt\n      iszero\n      tag_18\n      jumpi\n      0x00\n      dup1\n      revert\n    tag_18:\n      pop\n      calldataload\n      sub(shl(0xa0, 0x01), 0x01)\n      and\n      tag_19\n      jump\t// in\n        /* \"ExoFaucet/Ownable.sol\":1049:1295  function pullManagement() public virtual override {... */\n    tag_7:\n      tag_13\n      tag_21\n      jump\t// in\n        /* \"ExoFaucet/Ownable.sol\":479:565  function owner() public view override returns (address) {... */\n    tag_8:\n      tag_11\n      tag_23\n      jump\t// in\n        /* \"ExoFaucet/OhmFaucet.sol\":236:320  function setOhm(address _ohm) external onlyOwner {... */\n    tag_9:\n      tag_13\n      0x04\n      dup1\n      calldatasize\n      sub\n      0x20\n      dup2\n      lt\n      iszero\n      tag_25\n      jumpi\n      0x00\n      dup1\n      revert\n    tag_25:\n      pop\n      calldataload\n      sub(shl(0xa0, 0x01), 0x01)\n      and\n      tag_26\n      jump\t// in\n        /* \"ExoFaucet/OhmFaucet.sol\":145:162  IERC20 public ohm */\n    tag_12:\n      and(sub(shl(0xa0, 0x01), 0x01), sload(0x02))\n      dup2\n      jump\t// out\n        /* \"ExoFaucet/Ownable.sol\":691:873  function renounceManagement() public virtual override onlyOwner {... */\n    tag_14:\n        /* \"ExoFaucet/Ownable.sol\":610:616  _owner */\n      and(sub(shl(0xa0, 0x01), 0x01), sload(0x00))\n        /* \"ExoFaucet/Ownable.sol\":620:630  msg.sender */\n      caller\n        /* \"ExoFaucet/Ownable.sol\":610:630  _owner == msg.sender */\n      eq\n        /* \"ExoFaucet/Ownable.sol\":602:667  require(_owner == msg.sender, \"Ownable: caller is not the owner\") */\n      tag_28\n      jumpi\n      0x40\n      dup1\n      mload\n      shl(0xe5, 0x461bcd)\n      dup2\n      mstore\n      0x20\n      0x04\n      dup3\n      add\n      dup2\n      swap1\n      mstore\n      0x24\n      dup3\n      add\n      mstore\n      0x4f776e61626c653a2063616c6c6572206973206e6f7420746865206f776e6572\n      0x44\n      dup3\n      add\n      mstore\n      swap1\n      mload\n      swap1\n      dup2\n      swap1\n      sub\n      0x64\n      add\n      swap1\n      revert\n    tag_28:\n        /* \"ExoFaucet/Ownable.sol\":802:803  0 */\n      0x00\n        /* \"ExoFaucet/Ownable.sol\":786:792  _owner */\n      dup1\n      sload\n        /* \"ExoFaucet/Ownable.sol\":770:805  OwnershipPulled(_owner, address(0)) */\n      mload(0x40)\n      sub(shl(0xa0, 0x01), 0x01)\n        /* \"ExoFaucet/Ownable.sol\":786:792  _owner */\n      swap1\n      swap2\n      and\n      swap1\n        /* \"ExoFaucet/Ownable.sol\":770:805  OwnershipPulled(_owner, address(0)) */\n      0xaa151555690c956fc3ea32f106bb9f119b5237a061eaa8557cff3e51e3792c8d\n      swap1\n        /* \"ExoFaucet/Ownable.sol\":802:803  0 */\n      dup4\n      swap1\n        /* \"ExoFaucet/Ownable.sol\":770:805  OwnershipPulled(_owner, address(0)) */\n      log3\n        /* \"ExoFaucet/Ownable.sol\":832:833  0 */\n      0x00\n        /* \"ExoFaucet/Ownable.sol\":815:834  _owner = address(0) */\n      dup1\n      sload\n      not(0xffffffffffffffffffffffffffffffffffffffff)\n      swap1\n      dup2\n      and\n      swap1\n      swap2\n      sstore\n      0x01\n        /* \"ExoFaucet/Ownable.sol\":844:866  _newOwner = address(0) */\n      dup1\n      sload\n      swap1\n      swap2\n      and\n      swap1\n      sstore\n        /* \"ExoFaucet/Ownable.sol\":691:873  function renounceManagement() public virtual override onlyOwner {... */\n      jump\t// out\n        /* \"ExoFaucet/OhmFaucet.sol\":326:401  function dispense() external {... */\n    tag_16:\n        /* \"ExoFaucet/OhmFaucet.sol\":365:368  ohm */\n      sload(0x02)\n        /* \"ExoFaucet/OhmFaucet.sol\":365:394  ohm.transfer(msg.sender, 1e9) */\n      0x40\n      dup1\n      mload\n      0xa9059cbb00000000000000000000000000000000000000000000000000000000\n      dup2\n      mstore\n        /* \"ExoFaucet/OhmFaucet.sol\":378:388  msg.sender */\n      caller\n        /* \"ExoFaucet/OhmFaucet.sol\":365:394  ohm.transfer(msg.sender, 1e9) */\n      0x04\n      dup3\n      add\n      mstore\n        /* \"ExoFaucet/OhmFaucet.sol\":390:393  1e9 */\n      0x3b9aca00\n        /* \"ExoFaucet/OhmFaucet.sol\":365:394  ohm.transfer(msg.sender, 1e9) */\n      0x24\n      dup3\n      add\n      mstore\n      swap1\n      mload\n      sub(shl(0xa0, 0x01), 0x01)\n        /* \"ExoFaucet/OhmFaucet.sol\":365:368  ohm */\n      swap1\n      swap3\n      and\n      swap2\n        /* \"ExoFaucet/OhmFaucet.sol\":365:377  ohm.transfer */\n      0xa9059cbb\n      swap2\n        /* \"ExoFaucet/OhmFaucet.sol\":365:394  ohm.transfer(msg.sender, 1e9) */\n      0x44\n      dup1\n      dup3\n      add\n      swap3\n      0x20\n      swap3\n      swap1\n      swap2\n      swap1\n      dup3\n      swap1\n      sub\n      add\n      dup2\n        /* \"ExoFaucet/OhmFaucet.sol\":365:368  ohm */\n      0x00\n      dup8\n        /* \"ExoFaucet/OhmFaucet.sol\":365:394  ohm.transfer(msg.sender, 1e9) */\n      dup1\n      extcodesize\n      iszero\n      dup1\n      iszero\n      tag_31\n      jumpi\n      0x00\n      dup1\n      revert\n    tag_31:\n      pop\n      gas\n      call\n      iszero\n      dup1\n      iszero\n      tag_33\n      jumpi\n      returndatasize\n      0x00\n      dup1\n      returndatacopy\n      revert(0x00, returndatasize)\n    tag_33:\n      pop\n      pop\n      pop\n      pop\n      mload(0x40)\n      returndatasize\n      0x20\n      dup2\n      lt\n      iszero\n      tag_34\n      jumpi\n      0x00\n      dup1\n      revert\n    tag_34:\n      pop\n      pop\n        /* \"ExoFaucet/OhmFaucet.sol\":326:401  function dispense() external {... */\n      jump\t// out\n        /* \"ExoFaucet/Ownable.sol\":879:1043  function pushManagement(address newOwner_) public virtual override onlyOwner {... */\n    tag_19:\n        /* \"ExoFaucet/Ownable.sol\":610:616  _owner */\n      and(sub(shl(0xa0, 0x01), 0x01), sload(0x00))\n        /* \"ExoFaucet/Ownable.sol\":620:630  msg.sender */\n      caller\n        /* \"ExoFaucet/Ownable.sol\":610:630  _owner == msg.sender */\n      eq\n        /* \"ExoFaucet/Ownable.sol\":602:667  require(_owner == msg.sender, \"Ownable: caller is not the owner\") */\n      tag_36\n      jumpi\n      0x40\n      dup1\n      mload\n      shl(0xe5, 0x461bcd)\n      dup2\n      mstore\n      0x20\n      0x04\n      dup3\n      add\n      dup2\n      swap1\n      mstore\n      0x24\n      dup3\n      add\n      mstore\n      0x4f776e61626c653a2063616c6c6572206973206e6f7420746865206f776e6572\n      0x44\n      dup3\n      add\n      mstore\n      swap1\n      mload\n      swap1\n      dup2\n      swap1\n      sub\n      0x64\n      add\n      swap1\n      revert\n    tag_36:\n        /* \"ExoFaucet/Ownable.sol\":987:993  _owner */\n      0x00\n      dup1\n      sload\n        /* \"ExoFaucet/Ownable.sol\":971:1005  OwnershipPushed(_owner, newOwner_) */\n      mload(0x40)\n      sub(shl(0xa0, 0x01), 0x01)\n      dup1\n      dup6\n      and\n      swap4\n        /* \"ExoFaucet/Ownable.sol\":987:993  _owner */\n      swap3\n      and\n      swap2\n        /* \"ExoFaucet/Ownable.sol\":971:1005  OwnershipPushed(_owner, newOwner_) */\n      0xea8258f2d9ddb679928cf34b78cf645b7feda9acc828e4dd82d014eaae270eba\n      swap2\n      log3\n        /* \"ExoFaucet/Ownable.sol\":1015:1024  _newOwner */\n      0x01\n        /* \"ExoFaucet/Ownable.sol\":1015:1036  _newOwner = newOwner_ */\n      dup1\n      sload\n      not(0xffffffffffffffffffffffffffffffffffffffff)\n      and\n      sub(shl(0xa0, 0x01), 0x01)\n      swap3\n      swap1\n      swap3\n      and\n      swap2\n      swap1\n      swap2\n      or\n      swap1\n      sstore\n        /* \"ExoFaucet/Ownable.sol\":879:1043  function pushManagement(address newOwner_) public virtual override onlyOwner {... */\n      jump\t// out\n        /* \"ExoFaucet/Ownable.sol\":1049:1295  function pullManagement() public virtual override {... */\n    tag_21:\n        /* \"ExoFaucet/Ownable.sol\":1131:1140  _newOwner */\n      and(sub(shl(0xa0, 0x01), 0x01), sload(0x01))\n        /* \"ExoFaucet/Ownable.sol\":1117:1127  msg.sender */\n      caller\n        /* \"ExoFaucet/Ownable.sol\":1117:1140  msg.sender == _newOwner */\n      eq\n        /* \"ExoFaucet/Ownable.sol\":1109:1179  require(msg.sender == _newOwner, \"Ownable: must be new owner to pull\") */\n      tag_39\n      jumpi\n      mload(0x40)\n      shl(0xe5, 0x461bcd)\n      dup2\n      mstore\n      0x04\n      add\n      dup1\n      dup1\n      0x20\n      add\n      dup3\n      dup2\n      sub\n      dup3\n      mstore\n      0x22\n      dup2\n      mstore\n      0x20\n      add\n      dup1\n      data_4de71fbd3469e1b7fc89a70805ae86972c680281e629f271ab7471fd6321445c\n      0x22\n      swap2\n      codecopy\n      0x40\n      add\n      swap2\n      pop\n      pop\n      mload(0x40)\n      dup1\n      swap2\n      sub\n      swap1\n      revert\n    tag_39:\n        /* \"ExoFaucet/Ownable.sol\":1218:1227  _newOwner */\n      sload(0x01)\n      0x00\n        /* \"ExoFaucet/Ownable.sol\":1210:1216  _owner */\n      dup1\n      sload\n        /* \"ExoFaucet/Ownable.sol\":1194:1228  OwnershipPulled(_owner, _newOwner) */\n      mload(0x40)\n      sub(shl(0xa0, 0x01), 0x01)\n        /* \"ExoFaucet/Ownable.sol\":1218:1227  _newOwner */\n      swap4\n      dup5\n      and\n      swap4\n        /* \"ExoFaucet/Ownable.sol\":1210:1216  _owner */\n      swap1\n      swap2\n      and\n      swap2\n        /* \"ExoFaucet/Ownable.sol\":1194:1228  OwnershipPulled(_owner, _newOwner) */\n      0xaa151555690c956fc3ea32f106bb9f119b5237a061eaa8557cff3e51e3792c8d\n      swap2\n      log3\n        /* \"ExoFaucet/Ownable.sol\":1247:1256  _newOwner */\n      0x01\n      dup1\n      sload\n      0x00\n        /* \"ExoFaucet/Ownable.sol\":1238:1256  _owner = _newOwner */\n      dup1\n      sload\n      not(0xffffffffffffffffffffffffffffffffffffffff)\n      swap1\n      dup2\n      and\n      sub(shl(0xa0, 0x01), 0x01)\n        /* \"ExoFaucet/Ownable.sol\":1247:1256  _newOwner */\n      dup5\n      and\n        /* \"ExoFaucet/Ownable.sol\":1238:1256  _owner = _newOwner */\n      or\n      swap1\n      swap2\n      sstore\n        /* \"ExoFaucet/Ownable.sol\":1266:1288  _newOwner = address(0) */\n      and\n      swap1\n      sstore\n        /* \"ExoFaucet/Ownable.sol\":1049:1295  function pullManagement() public virtual override {... */\n      jump\t// out\n        /* \"ExoFaucet/Ownable.sol\":479:565  function owner() public view override returns (address) {... */\n    tag_23:\n        /* \"ExoFaucet/Ownable.sol\":526:533  address */\n      0x00\n        /* \"ExoFaucet/Ownable.sol\":552:558  _owner */\n      sload\n      sub(shl(0xa0, 0x01), 0x01)\n      and\n        /* \"ExoFaucet/Ownable.sol\":479:565  function owner() public view override returns (address) {... */\n      swap1\n      jump\t// out\n        /* \"ExoFaucet/OhmFaucet.sol\":236:320  function setOhm(address _ohm) external onlyOwner {... */\n    tag_26:\n        /* \"ExoFaucet/Ownable.sol\":610:616  _owner */\n      and(sub(shl(0xa0, 0x01), 0x01), sload(0x00))\n        /* \"ExoFaucet/Ownable.sol\":620:630  msg.sender */\n      caller\n        /* \"ExoFaucet/Ownable.sol\":610:630  _owner == msg.sender */\n      eq\n        /* \"ExoFaucet/Ownable.sol\":602:667  require(_owner == msg.sender, \"Ownable: caller is not the owner\") */\n      tag_42\n      jumpi\n      0x40\n      dup1\n      mload\n      shl(0xe5, 0x461bcd)\n      dup2\n      mstore\n      0x20\n      0x04\n      dup3\n      add\n      dup2\n      swap1\n      mstore\n      0x24\n      dup3\n      add\n      mstore\n      0x4f776e61626c653a2063616c6c6572206973206e6f7420746865206f776e6572\n      0x44\n      dup3\n      add\n      mstore\n      swap1\n      mload\n      swap1\n      dup2\n      swap1\n      sub\n      0x64\n      add\n      swap1\n      revert\n    tag_42:\n        /* \"ExoFaucet/OhmFaucet.sol\":295:298  ohm */\n      0x02\n        /* \"ExoFaucet/OhmFaucet.sol\":295:313  ohm = IERC20(_ohm) */\n      dup1\n      sload\n      not(0xffffffffffffffffffffffffffffffffffffffff)\n      and\n      sub(shl(0xa0, 0x01), 0x01)\n      swap3\n      swap1\n      swap3\n      and\n      swap2\n      swap1\n      swap2\n      or\n      swap1\n      sstore\n        /* \"ExoFaucet/OhmFaucet.sol\":236:320  function setOhm(address _ohm) external onlyOwner {... */\n      jump\t// out\n    stop\n    data_4de71fbd3469e1b7fc89a70805ae86972c680281e629f271ab7471fd6321445c 4f776e61626c653a206d757374206265206e6577206f776e657220746f2070756c6c\n\n    auxdata: 0xa2646970667358221220120c194d0a7656fb823eb10094b33f520456351e1b26e31db55a2d770111e19b64736f6c63430007050033\n}\n",
				"bytecode": {
					"linkReferences": {},
					"object": "608060405234801561001057600080fd5b506040516105a63803806105a68339818101604052602081101561003357600080fd5b5051600080546001600160a01b03191633178082556040516001600160a01b039190911691907fea8258f2d9ddb679928cf34b78cf645b7feda9acc828e4dd82d014eaae270eba908290a3600280546001600160a01b0319166001600160a01b03929092169190911790556104f9806100ad6000396000f3fe608060405234801561001057600080fd5b506004361061007d5760003560e01c806346f68ee91161005b57806346f68ee9146100b85780635a96ac0a146100de5780638da5cb5b146100e6578063f9224d3c146100ee5761007d565b806302b1d23914610082578063089208d8146100a65780630adb1a9a146100b0575b600080fd5b61008a610114565b604080516001600160a01b039092168252519081900360200190f35b6100ae610123565b005b6100ae6101e5565b6100ae600480360360208110156100ce57600080fd5b50356001600160a01b0316610283565b6100ae61034a565b61008a610404565b6100ae6004803603602081101561010457600080fd5b50356001600160a01b0316610413565b6002546001600160a01b031681565b6000546001600160a01b03163314610182576040805162461bcd60e51b815260206004820181905260248201527f4f776e61626c653a2063616c6c6572206973206e6f7420746865206f776e6572604482015290519081900360640190fd5b600080546040516001600160a01b03909116907faa151555690c956fc3ea32f106bb9f119b5237a061eaa8557cff3e51e3792c8d908390a36000805473ffffffffffffffffffffffffffffffffffffffff19908116909155600180549091169055565b600254604080517fa9059cbb000000000000000000000000000000000000000000000000000000008152336004820152633b9aca00602482015290516001600160a01b039092169163a9059cbb916044808201926020929091908290030181600087803b15801561025557600080fd5b505af1158015610269573d6000803e3d6000fd5b505050506040513d602081101561027f57600080fd5b5050565b6000546001600160a01b031633146102e2576040805162461bcd60e51b815260206004820181905260248201527f4f776e61626c653a2063616c6c6572206973206e6f7420746865206f776e6572604482015290519081900360640190fd5b600080546040516001600160a01b03808516939216917fea8258f2d9ddb679928cf34b78cf645b7feda9acc828e4dd82d014eaae270eba91a36001805473ffffffffffffffffffffffffffffffffffffffff19166001600160a01b0392909216919091179055565b6001546001600160a01b031633146103935760405162461bcd60e51b81526004018080602001828103825260228152602001806104a26022913960400191505060405180910390fd5b600154600080546040516001600160a01b0393841693909116917faa151555690c956fc3ea32f106bb9f119b5237a061eaa8557cff3e51e3792c8d91a3600180546000805473ffffffffffffffffffffffffffffffffffffffff199081166001600160a01b03841617909155169055565b6000546001600160a01b031690565b6000546001600160a01b03163314610472576040805162461bcd60e51b815260206004820181905260248201527f4f776e61626c653a2063616c6c6572206973206e6f7420746865206f776e6572604482015290519081900360640190fd5b6002805473ffffffffffffffffffffffffffffffffffffffff19166001600160a01b039290921691909117905556fe4f776e61626c653a206d757374206265206e6577206f776e657220746f2070756c6ca2646970667358221220120c194d0a7656fb823eb10094b33f520456351e1b26e31db55a2d770111e19b64736f6c63430007050033",
					"opcodes": "PUSH1 0x80 PUSH1 0x40 MSTORE CALLVALUE DUP1 ISZERO PUSH2 0x10 JUMPI PUSH1 0x0 DUP1 REVERT JUMPDEST POP PUSH1 0x40 MLOAD PUSH2 0x5A6 CODESIZE SUB DUP1 PUSH2 0x5A6 DUP4 CODECOPY DUP2 DUP2 ADD PUSH1 0x40 MSTORE PUSH1 0x20 DUP2 LT ISZERO PUSH2 0x33 JUMPI PUSH1 0x0 DUP1 REVERT JUMPDEST POP MLOAD PUSH1 0x0 DUP1 SLOAD PUSH1 0x1 PUSH1 0x1 PUSH1 0xA0 SHL SUB NOT AND CALLER OR DUP1 DUP3 SSTORE PUSH1 0x40 MLOAD PUSH1 0x1 PUSH1 0x1 PUSH1 0xA0 SHL SUB SWAP2 SWAP1 SWAP2 AND SWAP2 SWAP1 PUSH32 0xEA8258F2D9DDB679928CF34B78CF645B7FEDA9ACC828E4DD82D014EAAE270EBA SWAP1 DUP3 SWAP1 LOG3 PUSH1 0x2 DUP1 SLOAD PUSH1 0x1 PUSH1 0x1 PUSH1 0xA0 SHL SUB NOT AND PUSH1 0x1 PUSH1 0x1 PUSH1 0xA0 SHL SUB SWAP3 SWAP1 SWAP3 AND SWAP2 SWAP1 SWAP2 OR SWAP1 SSTORE PUSH2 0x4F9 DUP1 PUSH2 0xAD PUSH1 0x0 CODECOPY PUSH1 0x0 RETURN INVALID PUSH1 0x80 PUSH1 0x40 MSTORE CALLVALUE DUP1 ISZERO PUSH2 0x10 JUMPI PUSH1 0x0 DUP1 REVERT JUMPDEST POP PUSH1 0x4 CALLDATASIZE LT PUSH2 0x7D JUMPI PUSH1 0x0 CALLDATALOAD PUSH1 0xE0 SHR DUP1 PUSH4 0x46F68EE9 GT PUSH2 0x5B JUMPI DUP1 PUSH4 0x46F68EE9 EQ PUSH2 0xB8 JUMPI DUP1 PUSH4 0x5A96AC0A EQ PUSH2 0xDE JUMPI DUP1 PUSH4 0x8DA5CB5B EQ PUSH2 0xE6 JUMPI DUP1 PUSH4 0xF9224D3C EQ PUSH2 0xEE JUMPI PUSH2 0x7D JUMP JUMPDEST DUP1 PUSH4 0x2B1D239 EQ PUSH2 0x82 JUMPI DUP1 PUSH4 0x89208D8 EQ PUSH2 0xA6 JUMPI DUP1 PUSH4 0xADB1A9A EQ PUSH2 0xB0 JUMPI JUMPDEST PUSH1 0x0 DUP1 REVERT JUMPDEST PUSH2 0x8A PUSH2 0x114 JUMP JUMPDEST PUSH1 0x40 DUP1 MLOAD PUSH1 0x1 PUSH1 0x1 PUSH1 0xA0 SHL SUB SWAP1 SWAP3 AND DUP3 MSTORE MLOAD SWAP1 DUP2 SWAP1 SUB PUSH1 0x20 ADD SWAP1 RETURN JUMPDEST PUSH2 0xAE PUSH2 0x123 JUMP JUMPDEST STOP JUMPDEST PUSH2 0xAE PUSH2 0x1E5 JUMP JUMPDEST PUSH2 0xAE PUSH1 0x4 DUP1 CALLDATASIZE SUB PUSH1 0x20 DUP2 LT ISZERO PUSH2 0xCE JUMPI PUSH1 0x0 DUP1 REVERT JUMPDEST POP CALLDATALOAD PUSH1 0x1 PUSH1 0x1 PUSH1 0xA0 SHL SUB AND PUSH2 0x283 JUMP JUMPDEST PUSH2 0xAE PUSH2 0x34A JUMP JUMPDEST PUSH2 0x8A PUSH2 0x404 JUMP JUMPDEST PUSH2 0xAE PUSH1 0x4 DUP1 CALLDATASIZE SUB PUSH1 0x20 DUP2 LT ISZERO PUSH2 0x104 JUMPI PUSH1 0x0 DUP1 REVERT JUMPDEST POP CALLDATALOAD PUSH1 0x1 PUSH1 0x1 PUSH1 0xA0 SHL SUB AND PUSH2 0x413 JUMP JUMPDEST PUSH1 0x2 SLOAD PUSH1 0x1 PUSH1 0x1 PUSH1 0xA0 SHL SUB AND DUP2 JUMP JUMPDEST PUSH1 0x0 SLOAD PUSH1 0x1 PUSH1 0x1 PUSH1 0xA0 SHL SUB AND CALLER EQ PUSH2 0x182 JUMPI PUSH1 0x40 DUP1 MLOAD PUSH3 0x461BCD PUSH1 0xE5 SHL DUP2 MSTORE PUSH1 0x20 PUSH1 0x4 DUP3 ADD DUP2 SWAP1 MSTORE PUSH1 0x24 DUP3 ADD MSTORE PUSH32 0x4F776E61626C653A2063616C6C6572206973206E6F7420746865206F776E6572 PUSH1 0x44 DUP3 ADD MSTORE SWAP1 MLOAD SWAP1 DUP2 SWAP1 SUB PUSH1 0x64 ADD SWAP1 REVERT JUMPDEST PUSH1 0x0 DUP1 SLOAD PUSH1 0x40 MLOAD PUSH1 0x1 PUSH1 0x1 PUSH1 0xA0 SHL SUB SWAP1 SWAP2 AND SWAP1 PUSH32 0xAA151555690C956FC3EA32F106BB9F119B5237A061EAA8557CFF3E51E3792C8D SWAP1 DUP4 SWAP1 LOG3 PUSH1 0x0 DUP1 SLOAD PUSH20 0xFFFFFFFFFFFFFFFFFFFFFFFFFFFFFFFFFFFFFFFF NOT SWAP1 DUP2 AND SWAP1 SWAP2 SSTORE PUSH1 0x1 DUP1 SLOAD SWAP1 SWAP2 AND SWAP1 SSTORE JUMP JUMPDEST PUSH1 0x2 SLOAD PUSH1 0x40 DUP1 MLOAD PUSH32 0xA9059CBB00000000000000000000000000000000000000000000000000000000 DUP2 MSTORE CALLER PUSH1 0x4 DUP3 ADD MSTORE PUSH4 0x3B9ACA00 PUSH1 0x24 DUP3 ADD MSTORE SWAP1 MLOAD PUSH1 0x1 PUSH1 0x1 PUSH1 0xA0 SHL SUB SWAP1 SWAP3 AND SWAP2 PUSH4 0xA9059CBB SWAP2 PUSH1 0x44 DUP1 DUP3 ADD SWAP3 PUSH1 0x20 SWAP3 SWAP1 SWAP2 SWAP1 DUP3 SWAP1 SUB ADD DUP2 PUSH1 0x0 DUP8 DUP1 EXTCODESIZE ISZERO DUP1 ISZERO PUSH2 0x255 JUMPI PUSH1 0x0 DUP1 REVERT JUMPDEST POP GAS CALL ISZERO DUP1 ISZERO PUSH2 0x269 JUMPI RETURNDATASIZE PUSH1 0x0 DUP1 RETURNDATACOPY RETURNDATASIZE PUSH1 0x0 REVERT JUMPDEST POP POP POP POP PUSH1 0x40 MLOAD RETURNDATASIZE PUSH1 0x20 DUP2 LT ISZERO PUSH2 0x27F JUMPI PUSH1 0x0 DUP1 REVERT JUMPDEST POP POP JUMP JUMPDEST PUSH1 0x0 SLOAD PUSH1 0x1 PUSH1 0x1 PUSH1 0xA0 SHL SUB AND CALLER EQ PUSH2 0x2E2 JUMPI PUSH1 0x40 DUP1 MLOAD PUSH3 0x461BCD PUSH1 0xE5 SHL DUP2 MSTORE PUSH1 0x20 PUSH1 0x4 DUP3 ADD DUP2 SWAP1 MSTORE PUSH1 0x24 DUP3 ADD MSTORE PUSH32 0x4F776E61626C653A2063616C6C6572206973206E6F7420746865206F776E6572 PUSH1 0x44 DUP3 ADD MSTORE SWAP1 MLOAD SWAP1 DUP2 SWAP1 SUB PUSH1 0x64 ADD SWAP1 REVERT JUMPDEST PUSH1 0x0 DUP1 SLOAD PUSH1 0x40 MLOAD PUSH1 0x1 PUSH1 0x1 PUSH1 0xA0 SHL SUB DUP1 DUP6 AND SWAP4 SWAP3 AND SWAP2 PUSH32 0xEA8258F2D9DDB679928CF34B78CF645B7FEDA9ACC828E4DD82D014EAAE270EBA SWAP2 LOG3 PUSH1 0x1 DUP1 SLOAD PUSH20 0xFFFFFFFFFFFFFFFFFFFFFFFFFFFFFFFFFFFFFFFF NOT AND PUSH1 0x1 PUSH1 0x1 PUSH1 0xA0 SHL SUB SWAP3 SWAP1 SWAP3 AND SWAP2 SWAP1 SWAP2 OR SWAP1 SSTORE JUMP JUMPDEST PUSH1 0x1 SLOAD PUSH1 0x1 PUSH1 0x1 PUSH1 0xA0 SHL SUB AND CALLER EQ PUSH2 0x393 JUMPI PUSH1 0x40 MLOAD PUSH3 0x461BCD PUSH1 0xE5 SHL DUP2 MSTORE PUSH1 0x4 ADD DUP1 DUP1 PUSH1 0x20 ADD DUP3 DUP2 SUB DUP3 MSTORE PUSH1 0x22 DUP2 MSTORE PUSH1 0x20 ADD DUP1 PUSH2 0x4A2 PUSH1 0x22 SWAP2 CODECOPY PUSH1 0x40 ADD SWAP2 POP POP PUSH1 0x40 MLOAD DUP1 SWAP2 SUB SWAP1 REVERT JUMPDEST PUSH1 0x1 SLOAD PUSH1 0x0 DUP1 SLOAD PUSH1 0x40 MLOAD PUSH1 0x1 PUSH1 0x1 PUSH1 0xA0 SHL SUB SWAP4 DUP5 AND SWAP4 SWAP1 SWAP2 AND SWAP2 PUSH32 0xAA151555690C956FC3EA32F106BB9F119B5237A061EAA8557CFF3E51E3792C8D SWAP2 LOG3 PUSH1 0x1 DUP1 SLOAD PUSH1 0x0 DUP1 SLOAD PUSH20 0xFFFFFFFFFFFFFFFFFFFFFFFFFFFFFFFFFFFFFFFF NOT SWAP1 DUP2 AND PUSH1 0x1 PUSH1 0x1 PUSH1 0xA0 SHL SUB DUP5 AND OR SWAP1 SWAP2 SSTORE AND SWAP1 SSTORE JUMP JUMPDEST PUSH1 0x0 SLOAD PUSH1 0x1 PUSH1 0x1 PUSH1 0xA0 SHL SUB AND SWAP1 JUMP JUMPDEST PUSH1 0x0 SLOAD PUSH1 0x1 PUSH1 0x1 PUSH1 0xA0 SHL SUB AND CALLER EQ PUSH2 0x472 JUMPI PUSH1 0x40 DUP1 MLOAD PUSH3 0x461BCD PUSH1 0xE5 SHL DUP2 MSTORE PUSH1 0x20 PUSH1 0x4 DUP3 ADD DUP2 SWAP1 MSTORE PUSH1 0x24 DUP3 ADD MSTORE PUSH32 0x4F776E61626C653A2063616C6C6572206973206E6F7420746865206F776E6572 PUSH1 0x44 DUP3 ADD MSTORE SWAP1 MLOAD SWAP1 DUP2 SWAP1 SUB PUSH1 0x64 ADD SWAP1 REVERT JUMPDEST PUSH1 0x2 DUP1 SLOAD PUSH20 0xFFFFFFFFFFFFFFFFFFFFFFFFFFFFFFFFFFFFFFFF NOT AND PUSH1 0x1 PUSH1 0x1 PUSH1 0xA0 SHL SUB SWAP3 SWAP1 SWAP3 AND SWAP2 SWAP1 SWAP2 OR SWAP1 SSTORE JUMP INVALID 0x4F PUSH24 0x6E61626C653A206D757374206265206E6577206F776E6572 KECCAK256 PUSH21 0x6F2070756C6CA2646970667358221220120C194D0A PUSH23 0x56FB823EB10094B33F520456351E1B26E31DB55A2D7701 GT 0xE1 SWAP12 PUSH5 0x736F6C6343 STOP SMOD SDIV STOP CALLER "
				},
				"gasEstimates": {
					"creation": {
						"codeDepositCost": "254600",
						"executionCost": "infinite",
						"totalCost": "infinite"
					},
					"external": {
						"dispense()": "infinite",
						"ohm()": "1038",
						"owner()": "1081",
						"pullManagement()": "infinite",
						"pushManagement(address)": "24255",
						"renounceManagement()": "45003",
						"setOhm(address)": "21967"
					}
				},
				"methodIdentifiers": {
					"dispense()": "0adb1a9a",
					"ohm()": "02b1d239",
					"owner()": "8da5cb5b",
					"pullManagement()": "5a96ac0a",
					"pushManagement(address)": "46f68ee9",
					"renounceManagement()": "089208d8",
					"setOhm(address)": "f9224d3c"
				}
			},
			"storageLayout": {
				"storage": [
					{
						"astId": 141,
						"contract": "ExoFaucet/OhmFaucet.sol:OhmFaucet",
						"label": "_owner",
						"offset": 0,
						"slot": "0",
						"type": "t_address"
					},
					{
						"astId": 143,
						"contract": "ExoFaucet/OhmFaucet.sol:OhmFaucet",
						"label": "_newOwner",
						"offset": 0,
						"slot": "1",
						"type": "t_address"
					},
					{
						"astId": 95,
						"contract": "ExoFaucet/OhmFaucet.sol:OhmFaucet",
						"label": "ohm",
						"offset": 0,
						"slot": "2",
						"type": "t_contract(IERC20)68"
					}
				],
				"types": {
					"t_address": {
						"encoding": "inplace",
						"label": "address",
						"numberOfBytes": "20"
					},
					"t_contract(IERC20)68": {
						"encoding": "inplace",
						"label": "contract IERC20",
						"numberOfBytes": "20"
					}
				}
			},
			"userdoc": {
				"kind": "user",
				"methods": {},
				"version": 1
			}
		}
	}
}