{
	"ExodusBondingCalculator/StandardBondingCalculator.sol": {
		"ExodusBondingCalculator": {
			"abi": [
				{
					"inputs": [
						{
							"internalType": "address",
							"name": "_EXO",
							"type": "address"
						}
					],
					"stateMutability": "nonpayable",
					"type": "constructor"
				},
				{
					"inputs": [
						{
							"internalType": "address",
							"name": "_pair",
							"type": "address"
						}
					],
					"name": "getKValue",
					"outputs": [
						{
							"internalType": "uint256",
							"name": "k_",
							"type": "uint256"
						}
					],
					"stateMutability": "view",
					"type": "function"
				},
				{
					"inputs": [
						{
							"internalType": "address",
							"name": "_pair",
							"type": "address"
						}
					],
					"name": "getTotalValue",
					"outputs": [
						{
							"internalType": "uint256",
							"name": "_value",
							"type": "uint256"
						}
					],
					"stateMutability": "view",
					"type": "function"
				},
				{
					"inputs": [
						{
							"internalType": "address",
							"name": "_pair",
							"type": "address"
						}
					],
					"name": "markdown",
					"outputs": [
						{
							"internalType": "uint256",
							"name": "",
							"type": "uint256"
						}
					],
					"stateMutability": "view",
					"type": "function"
				},
				{
					"inputs": [
						{
							"internalType": "address",
							"name": "_pair",
							"type": "address"
						},
						{
							"internalType": "uint256",
							"name": "amount_",
							"type": "uint256"
						}
					],
					"name": "valuation",
					"outputs": [
						{
							"internalType": "uint256",
							"name": "_value",
							"type": "uint256"
						}
					],
					"stateMutability": "view",
					"type": "function"
				}
			],
			"devdoc": {
				"kind": "dev",
				"methods": {},
				"version": 1
			},
			"evm": {
				"assembly": "    /* \"ExodusBondingCalculator/StandardBondingCalculator.sol\":318:2087  contract ExodusBondingCalculator is IBondingCalculator {... */\n  mstore(0x40, 0xa0)\n    /* \"ExodusBondingCalculator/StandardBondingCalculator.sol\":476:595  constructor(address _EXO) {... */\n  callvalue\n  dup1\n  iszero\n  tag_1\n  jumpi\n  0x00\n  dup1\n  revert\ntag_1:\n  pop\n  mload(0x40)\n  sub(codesize, bytecodeSize)\n  dup1\n  bytecodeSize\n  dup4\n  codecopy\n  dup2\n  dup2\n  add\n  0x40\n  mstore\n  0x20\n  dup2\n  lt\n  iszero\n  tag_2\n  jumpi\n  0x00\n  dup1\n  revert\ntag_2:\n  pop\n  mload\n  sub(shl(0xa0, 0x01), 0x01)\n    /* \"ExodusBondingCalculator/StandardBondingCalculator.sol\":520:538  _EXO != address(0) */\n  dup2\n  and\n    /* \"ExodusBondingCalculator/StandardBondingCalculator.sol\":512:560  require(_EXO != address(0), \"Zero address: EXO\") */\n  tag_5\n  jumpi\n  0x40\n  dup1\n  mload\n  shl(0xe5, 0x461bcd)\n  dup2\n  mstore\n  0x20\n  0x04\n  dup3\n  add\n  mstore\n  0x11\n  0x24\n  dup3\n  add\n  mstore\n  shl(0x78, 0x5a65726f20616464726573733a2045584f)\n  0x44\n  dup3\n  add\n  mstore\n  swap1\n  mload\n  swap1\n  dup2\n  swap1\n  sub\n  0x64\n  add\n  swap1\n  revert\ntag_5:\n    /* \"ExodusBondingCalculator/StandardBondingCalculator.sol\":570:588  EXO = IERC20(_EXO) */\n  0x60\n  dup2\n  swap1\n  shl\n  not(sub(shl(0x60, 0x01), 0x01))\n  and\n  0x80\n  mstore\n  sub(shl(0xa0, 0x01), 0x01)\n    /* \"ExodusBondingCalculator/StandardBondingCalculator.sol\":318:2087  contract ExodusBondingCalculator is IBondingCalculator {... */\n  and\n  codecopy(0x00, dataOffset(sub_0), dataSize(sub_0))\n  assignImmutable(\"0x03676a2ac3ceeabe89db91fd8b811fb83ea0844f913fa2a222e3628e7294c895\")\n  return(0x00, dataSize(sub_0))\nstop\n\nsub_0: assembly {\n        /* \"ExodusBondingCalculator/StandardBondingCalculator.sol\":318:2087  contract ExodusBondingCalculator is IBondingCalculator {... */\n      mstore(0x40, 0x80)\n      callvalue\n      dup1\n      iszero\n      tag_1\n      jumpi\n      0x00\n      dup1\n      revert\n    tag_1:\n      pop\n      jumpi(tag_2, lt(calldatasize, 0x04))\n      shr(0xe0, calldataload(0x00))\n      dup1\n      0x32da80a3\n      eq\n      tag_3\n      jumpi\n      dup1\n      0x4249719f\n      eq\n      tag_4\n      jumpi\n      dup1\n      0x490084ef\n      eq\n      tag_5\n      jumpi\n      dup1\n      0x68637549\n      eq\n      tag_6\n      jumpi\n    tag_2:\n      0x00\n      dup1\n      revert\n        /* \"ExodusBondingCalculator/StandardBondingCalculator.sol\":1549:2085  function markdown(address _pair) external view override returns (uint256) {... */\n    tag_3:\n      tag_7\n      0x04\n      dup1\n      calldatasize\n      sub\n      0x20\n      dup2\n      lt\n      iszero\n      tag_8\n      jumpi\n      0x00\n      dup1\n      revert\n    tag_8:\n      pop\n      calldataload\n      sub(shl(0xa0, 0x01), 0x01)\n      and\n      tag_9\n      jump\t// in\n    tag_7:\n      0x40\n      dup1\n      mload\n      swap2\n      dup3\n      mstore\n      mload\n      swap1\n      dup2\n      swap1\n      sub\n      0x20\n      add\n      swap1\n      return\n        /* \"ExodusBondingCalculator/StandardBondingCalculator.sol\":1214:1543  function valuation(address _pair, uint256 amount_) external view override returns (uint256 _value) {... */\n    tag_4:\n      tag_7\n      0x04\n      dup1\n      calldatasize\n      sub\n      0x40\n      dup2\n      lt\n      iszero\n      tag_11\n      jumpi\n      0x00\n      dup1\n      revert\n    tag_11:\n      pop\n      sub(shl(0xa0, 0x01), 0x01)\n      dup2\n      calldataload\n      and\n      swap1\n      0x20\n      add\n      calldataload\n      tag_12\n      jump\t// in\n        /* \"ExodusBondingCalculator/StandardBondingCalculator.sol\":601:1070  function getKValue(address _pair) public view returns (uint256 k_) {... */\n    tag_5:\n      tag_7\n      0x04\n      dup1\n      calldatasize\n      sub\n      0x20\n      dup2\n      lt\n      iszero\n      tag_14\n      jumpi\n      0x00\n      dup1\n      revert\n    tag_14:\n      pop\n      calldataload\n      sub(shl(0xa0, 0x01), 0x01)\n      and\n      tag_15\n      jump\t// in\n        /* \"ExodusBondingCalculator/StandardBondingCalculator.sol\":1076:1208  function getTotalValue(address _pair) public view returns (uint256 _value) {... */\n    tag_6:\n      tag_7\n      0x04\n      dup1\n      calldatasize\n      sub\n      0x20\n      dup2\n      lt\n      iszero\n      tag_17\n      jumpi\n      0x00\n      dup1\n      revert\n    tag_17:\n      pop\n      calldataload\n      sub(shl(0xa0, 0x01), 0x01)\n      and\n      tag_18\n      jump\t// in\n        /* \"ExodusBondingCalculator/StandardBondingCalculator.sol\":1549:2085  function markdown(address _pair) external view override returns (uint256) {... */\n    tag_9:\n        /* \"ExodusBondingCalculator/StandardBondingCalculator.sol\":1614:1621  uint256 */\n      0x00\n        /* \"ExodusBondingCalculator/StandardBondingCalculator.sol\":1634:1650  uint256 reserve0 */\n      dup1\n        /* \"ExodusBondingCalculator/StandardBondingCalculator.sol\":1652:1668  uint256 reserve1 */\n      0x00\n        /* \"ExodusBondingCalculator/StandardBondingCalculator.sol\":1689:1694  _pair */\n      dup4\n      sub(shl(0xa0, 0x01), 0x01)\n        /* \"ExodusBondingCalculator/StandardBondingCalculator.sol\":1674:1707  IUniswapV2Pair(_pair).getReserves */\n      and\n      0x0902f1ac\n        /* \"ExodusBondingCalculator/StandardBondingCalculator.sol\":1674:1709  IUniswapV2Pair(_pair).getReserves() */\n      mload(0x40)\n      dup2\n      0xffffffff\n      and\n      0xe0\n      shl\n      dup2\n      mstore\n      0x04\n      add\n      0x60\n      mload(0x40)\n      dup1\n      dup4\n      sub\n      dup2\n      dup7\n      dup1\n      extcodesize\n      iszero\n      dup1\n      iszero\n      tag_20\n      jumpi\n      0x00\n      dup1\n      revert\n    tag_20:\n      pop\n      gas\n      staticcall\n      iszero\n      dup1\n      iszero\n      tag_22\n      jumpi\n      returndatasize\n      0x00\n      dup1\n      returndatacopy\n      revert(0x00, returndatasize)\n    tag_22:\n      pop\n      pop\n      pop\n      pop\n      mload(0x40)\n      returndatasize\n      0x60\n      dup2\n      lt\n      iszero\n      tag_23\n      jumpi\n      0x00\n      dup1\n      revert\n    tag_23:\n      pop\n      dup1\n      mload\n      0x20\n      swap2\n      dup3\n      add\n      mload\n      0x40\n        /* \"ExodusBondingCalculator/StandardBondingCalculator.sol\":1749:1779  IUniswapV2Pair(_pair).token0() */\n      dup1\n      mload\n      0x0dfe168100000000000000000000000000000000000000000000000000000000\n      dup2\n      mstore\n      swap1\n      mload\n        /* \"ExodusBondingCalculator/StandardBondingCalculator.sol\":1633:1709  (uint256 reserve0, uint256 reserve1, ) = IUniswapV2Pair(_pair).getReserves() */\n      0xffffffffffffffffffffffffffff\n      swap4\n      dup5\n      and\n      swap7\n      pop\n      swap3\n      swap1\n      swap2\n      and\n      swap4\n      pop\n        /* \"ExodusBondingCalculator/StandardBondingCalculator.sol\":1720:1735  uint256 reserve */\n      0x00\n      swap3\n      sub(shl(0xa0, 0x01), 0x01)\n        /* \"ExodusBondingCalculator/StandardBondingCalculator.sol\":1791:1794  EXO */\n      immutable(\"0x03676a2ac3ceeabe89db91fd8b811fb83ea0844f913fa2a222e3628e7294c895\")\n        /* \"ExodusBondingCalculator/StandardBondingCalculator.sol\":1749:1795  IUniswapV2Pair(_pair).token0() == address(EXO) */\n      dup2\n      and\n      swap4\n        /* \"ExodusBondingCalculator/StandardBondingCalculator.sol\":1749:1777  IUniswapV2Pair(_pair).token0 */\n      swap1\n      dup10\n      and\n      swap3\n      0x0dfe1681\n      swap3\n        /* \"ExodusBondingCalculator/StandardBondingCalculator.sol\":1749:1779  IUniswapV2Pair(_pair).token0() */\n      0x04\n      dup1\n      dup4\n      add\n      swap4\n        /* \"ExodusBondingCalculator/StandardBondingCalculator.sol\":1674:1709  IUniswapV2Pair(_pair).getReserves() */\n      swap2\n      swap3\n        /* \"ExodusBondingCalculator/StandardBondingCalculator.sol\":1749:1779  IUniswapV2Pair(_pair).token0() */\n      dup3\n      swap1\n      sub\n      add\n      dup2\n        /* \"ExodusBondingCalculator/StandardBondingCalculator.sol\":1749:1777  IUniswapV2Pair(_pair).token0 */\n      dup7\n        /* \"ExodusBondingCalculator/StandardBondingCalculator.sol\":1749:1779  IUniswapV2Pair(_pair).token0() */\n      dup1\n      extcodesize\n      iszero\n      dup1\n      iszero\n      tag_24\n      jumpi\n      0x00\n      dup1\n      revert\n    tag_24:\n      pop\n      gas\n      staticcall\n      iszero\n      dup1\n      iszero\n      tag_26\n      jumpi\n      returndatasize\n      0x00\n      dup1\n      returndatacopy\n      revert(0x00, returndatasize)\n    tag_26:\n      pop\n      pop\n      pop\n      pop\n      mload(0x40)\n      returndatasize\n      0x20\n      dup2\n      lt\n      iszero\n      tag_27\n      jumpi\n      0x00\n      dup1\n      revert\n    tag_27:\n      pop\n      mload\n      sub(shl(0xa0, 0x01), 0x01)\n        /* \"ExodusBondingCalculator/StandardBondingCalculator.sol\":1749:1795  IUniswapV2Pair(_pair).token0() == address(EXO) */\n      and\n      eq\n        /* \"ExodusBondingCalculator/StandardBondingCalculator.sol\":1745:1974  if (IUniswapV2Pair(_pair).token0() == address(EXO)) {... */\n      iszero\n      tag_28\n      jumpi\n      pop\n        /* \"ExodusBondingCalculator/StandardBondingCalculator.sol\":1821:1829  reserve1 */\n      dup1\n        /* \"ExodusBondingCalculator/StandardBondingCalculator.sol\":1745:1974  if (IUniswapV2Pair(_pair).token0() == address(EXO)) {... */\n      jump(tag_29)\n    tag_28:\n        /* \"ExodusBondingCalculator/StandardBondingCalculator.sol\":1910:1913  EXO */\n      immutable(\"0x03676a2ac3ceeabe89db91fd8b811fb83ea0844f913fa2a222e3628e7294c895\")\n      sub(shl(0xa0, 0x01), 0x01)\n        /* \"ExodusBondingCalculator/StandardBondingCalculator.sol\":1868:1914  IUniswapV2Pair(_pair).token1() == address(EXO) */\n      and\n        /* \"ExodusBondingCalculator/StandardBondingCalculator.sol\":1883:1888  _pair */\n      dup6\n      sub(shl(0xa0, 0x01), 0x01)\n        /* \"ExodusBondingCalculator/StandardBondingCalculator.sol\":1868:1896  IUniswapV2Pair(_pair).token1 */\n      and\n      0xd21220a7\n        /* \"ExodusBondingCalculator/StandardBondingCalculator.sol\":1868:1898  IUniswapV2Pair(_pair).token1() */\n      mload(0x40)\n      dup2\n      0xffffffff\n      and\n      0xe0\n      shl\n      dup2\n      mstore\n      0x04\n      add\n      0x20\n      mload(0x40)\n      dup1\n      dup4\n      sub\n      dup2\n      dup7\n      dup1\n      extcodesize\n      iszero\n      dup1\n      iszero\n      tag_30\n      jumpi\n      0x00\n      dup1\n      revert\n    tag_30:\n      pop\n      gas\n      staticcall\n      iszero\n      dup1\n      iszero\n      tag_32\n      jumpi\n      returndatasize\n      0x00\n      dup1\n      returndatacopy\n      revert(0x00, returndatasize)\n    tag_32:\n      pop\n      pop\n      pop\n      pop\n      mload(0x40)\n      returndatasize\n      0x20\n      dup2\n      lt\n      iszero\n      tag_33\n      jumpi\n      0x00\n      dup1\n      revert\n    tag_33:\n      pop\n      mload\n      sub(shl(0xa0, 0x01), 0x01)\n        /* \"ExodusBondingCalculator/StandardBondingCalculator.sol\":1868:1914  IUniswapV2Pair(_pair).token1() == address(EXO) */\n      and\n      eq\n        /* \"ExodusBondingCalculator/StandardBondingCalculator.sol\":1860:1931  require(IUniswapV2Pair(_pair).token1() == address(EXO), \"Invalid pair\") */\n      tag_34\n      jumpi\n      0x40\n      dup1\n      mload\n      shl(0xe5, 0x461bcd)\n      dup2\n      mstore\n      0x20\n      0x04\n      dup3\n      add\n      mstore\n      0x0c\n      0x24\n      dup3\n      add\n      mstore\n      0x496e76616c696420706169720000000000000000000000000000000000000000\n      0x44\n      dup3\n      add\n      mstore\n      swap1\n      mload\n      swap1\n      dup2\n      swap1\n      sub\n      0x64\n      add\n      swap1\n      revert\n    tag_34:\n      pop\n        /* \"ExodusBondingCalculator/StandardBondingCalculator.sol\":1955:1963  reserve0 */\n      dup2\n        /* \"ExodusBondingCalculator/StandardBondingCalculator.sol\":1745:1974  if (IUniswapV2Pair(_pair).token0() == address(EXO)) {... */\n    tag_29:\n        /* \"ExodusBondingCalculator/StandardBondingCalculator.sol\":1990:2078  reserve.mul(2 * (10**IERC20Metadata(address(EXO)).decimals())).div(getTotalValue(_pair)) */\n      tag_35\n        /* \"ExodusBondingCalculator/StandardBondingCalculator.sol\":2057:2077  getTotalValue(_pair) */\n      tag_36\n        /* \"ExodusBondingCalculator/StandardBondingCalculator.sol\":2071:2076  _pair */\n      dup7\n        /* \"ExodusBondingCalculator/StandardBondingCalculator.sol\":2057:2070  getTotalValue */\n      tag_18\n        /* \"ExodusBondingCalculator/StandardBondingCalculator.sol\":2057:2077  getTotalValue(_pair) */\n      jump\t// in\n    tag_36:\n        /* \"ExodusBondingCalculator/StandardBondingCalculator.sol\":1990:2052  reserve.mul(2 * (10**IERC20Metadata(address(EXO)).decimals())) */\n      tag_37\n        /* \"ExodusBondingCalculator/StandardBondingCalculator.sol\":2034:2037  EXO */\n      immutable(\"0x03676a2ac3ceeabe89db91fd8b811fb83ea0844f913fa2a222e3628e7294c895\")\n      sub(shl(0xa0, 0x01), 0x01)\n        /* \"ExodusBondingCalculator/StandardBondingCalculator.sol\":2011:2048  IERC20Metadata(address(EXO)).decimals */\n      and\n      0x313ce567\n        /* \"ExodusBondingCalculator/StandardBondingCalculator.sol\":2011:2050  IERC20Metadata(address(EXO)).decimals() */\n      mload(0x40)\n      dup2\n      0xffffffff\n      and\n      0xe0\n      shl\n      dup2\n      mstore\n      0x04\n      add\n      0x20\n      mload(0x40)\n      dup1\n      dup4\n      sub\n      dup2\n      dup7\n      dup1\n      extcodesize\n      iszero\n      dup1\n      iszero\n      tag_38\n      jumpi\n      0x00\n      dup1\n      revert\n    tag_38:\n      pop\n      gas\n      staticcall\n      iszero\n      dup1\n      iszero\n      tag_40\n      jumpi\n      returndatasize\n      0x00\n      dup1\n      returndatacopy\n      revert(0x00, returndatasize)\n    tag_40:\n      pop\n      pop\n      pop\n      pop\n      mload(0x40)\n      returndatasize\n      0x20\n      dup2\n      lt\n      iszero\n      tag_41\n      jumpi\n      0x00\n      dup1\n      revert\n    tag_41:\n      pop\n      mload\n        /* \"ExodusBondingCalculator/StandardBondingCalculator.sol\":1990:1997  reserve */\n      dup5\n      swap1\n        /* \"ExodusBondingCalculator/StandardBondingCalculator.sol\":2007:2050  10**IERC20Metadata(address(EXO)).decimals() */\n      0xff\n      and\n        /* \"ExodusBondingCalculator/StandardBondingCalculator.sol\":2007:2009  10 */\n      0x0a\n        /* \"ExodusBondingCalculator/StandardBondingCalculator.sol\":2007:2050  10**IERC20Metadata(address(EXO)).decimals() */\n      exp\n        /* \"ExodusBondingCalculator/StandardBondingCalculator.sol\":2002:2003  2 */\n      0x02\n        /* \"ExodusBondingCalculator/StandardBondingCalculator.sol\":2002:2051  2 * (10**IERC20Metadata(address(EXO)).decimals()) */\n      mul\n        /* \"ExodusBondingCalculator/StandardBondingCalculator.sol\":1990:2001  reserve.mul */\n      tag_42\n        /* \"ExodusBondingCalculator/StandardBondingCalculator.sol\":1990:2052  reserve.mul(2 * (10**IERC20Metadata(address(EXO)).decimals())) */\n      jump\t// in\n    tag_37:\n        /* \"ExodusBondingCalculator/StandardBondingCalculator.sol\":1990:2056  reserve.mul(2 * (10**IERC20Metadata(address(EXO)).decimals())).div */\n      swap1\n      tag_43\n        /* \"ExodusBondingCalculator/StandardBondingCalculator.sol\":1990:2078  reserve.mul(2 * (10**IERC20Metadata(address(EXO)).decimals())).div(getTotalValue(_pair)) */\n      jump\t// in\n    tag_35:\n        /* \"ExodusBondingCalculator/StandardBondingCalculator.sol\":1983:2078  return reserve.mul(2 * (10**IERC20Metadata(address(EXO)).decimals())).div(getTotalValue(_pair)) */\n      swap4\n      pop\n      pop\n      pop\n      pop\n        /* \"ExodusBondingCalculator/StandardBondingCalculator.sol\":1549:2085  function markdown(address _pair) external view override returns (uint256) {... */\n    tag_19:\n      swap2\n      swap1\n      pop\n      jump\t// out\n        /* \"ExodusBondingCalculator/StandardBondingCalculator.sol\":1214:1543  function valuation(address _pair, uint256 amount_) external view override returns (uint256 _value) {... */\n    tag_12:\n        /* \"ExodusBondingCalculator/StandardBondingCalculator.sol\":1297:1311  uint256 _value */\n      0x00\n        /* \"ExodusBondingCalculator/StandardBondingCalculator.sol\":1323:1341  uint256 totalValue */\n      dup1\n        /* \"ExodusBondingCalculator/StandardBondingCalculator.sol\":1344:1364  getTotalValue(_pair) */\n      tag_45\n        /* \"ExodusBondingCalculator/StandardBondingCalculator.sol\":1358:1363  _pair */\n      dup5\n        /* \"ExodusBondingCalculator/StandardBondingCalculator.sol\":1344:1357  getTotalValue */\n      tag_18\n        /* \"ExodusBondingCalculator/StandardBondingCalculator.sol\":1344:1364  getTotalValue(_pair) */\n      jump\t// in\n    tag_45:\n        /* \"ExodusBondingCalculator/StandardBondingCalculator.sol\":1323:1364  uint256 totalValue = getTotalValue(_pair) */\n      swap1\n      pop\n        /* \"ExodusBondingCalculator/StandardBondingCalculator.sol\":1374:1393  uint256 totalSupply */\n      0x00\n        /* \"ExodusBondingCalculator/StandardBondingCalculator.sol\":1411:1416  _pair */\n      dup5\n      sub(shl(0xa0, 0x01), 0x01)\n        /* \"ExodusBondingCalculator/StandardBondingCalculator.sol\":1396:1429  IUniswapV2Pair(_pair).totalSupply */\n      and\n      0x18160ddd\n        /* \"ExodusBondingCalculator/StandardBondingCalculator.sol\":1396:1431  IUniswapV2Pair(_pair).totalSupply() */\n      mload(0x40)\n      dup2\n      0xffffffff\n      and\n      0xe0\n      shl\n      dup2\n      mstore\n      0x04\n      add\n      0x20\n      mload(0x40)\n      dup1\n      dup4\n      sub\n      dup2\n      dup7\n      dup1\n      extcodesize\n      iszero\n      dup1\n      iszero\n      tag_46\n      jumpi\n      0x00\n      dup1\n      revert\n    tag_46:\n      pop\n      gas\n      staticcall\n      iszero\n      dup1\n      iszero\n      tag_48\n      jumpi\n      returndatasize\n      0x00\n      dup1\n      returndatacopy\n      revert(0x00, returndatasize)\n    tag_48:\n      pop\n      pop\n      pop\n      pop\n      mload(0x40)\n      returndatasize\n      0x20\n      dup2\n      lt\n      iszero\n      tag_49\n      jumpi\n      0x00\n      dup1\n      revert\n    tag_49:\n      pop\n      mload\n      swap1\n      pop\n        /* \"ExodusBondingCalculator/StandardBondingCalculator.sol\":1451:1536  totalValue.mul(FixedPoint.fraction(amount_, totalSupply).decode112with18()).div(1e18) */\n      tag_50\n        /* \"ExodusBondingCalculator/StandardBondingCalculator.sol\":1531:1535  1e18 */\n      0x0de0b6b3a7640000\n        /* \"ExodusBondingCalculator/StandardBondingCalculator.sol\":1451:1526  totalValue.mul(FixedPoint.fraction(amount_, totalSupply).decode112with18()) */\n      tag_37\n        /* \"ExodusBondingCalculator/StandardBondingCalculator.sol\":1466:1525  FixedPoint.fraction(amount_, totalSupply).decode112with18() */\n      tag_52\n        /* \"ExodusBondingCalculator/StandardBondingCalculator.sol\":1466:1507  FixedPoint.fraction(amount_, totalSupply) */\n      tag_53\n        /* \"ExodusBondingCalculator/StandardBondingCalculator.sol\":1486:1493  amount_ */\n      dup9\n        /* \"ExodusBondingCalculator/StandardBondingCalculator.sol\":1396:1431  IUniswapV2Pair(_pair).totalSupply() */\n      dup7\n        /* \"ExodusBondingCalculator/StandardBondingCalculator.sol\":1466:1485  FixedPoint.fraction */\n      tag_54\n        /* \"ExodusBondingCalculator/StandardBondingCalculator.sol\":1466:1507  FixedPoint.fraction(amount_, totalSupply) */\n      jump\t// in\n    tag_53:\n        /* \"ExodusBondingCalculator/StandardBondingCalculator.sol\":1466:1523  FixedPoint.fraction(amount_, totalSupply).decode112with18 */\n      tag_55\n        /* \"ExodusBondingCalculator/StandardBondingCalculator.sol\":1466:1525  FixedPoint.fraction(amount_, totalSupply).decode112with18() */\n      jump\t// in\n    tag_52:\n        /* \"ExodusBondingCalculator/StandardBondingCalculator.sol\":1451:1461  totalValue */\n      dup6\n      swap1\n        /* \"ExodusBondingCalculator/StandardBondingCalculator.sol\":1451:1465  totalValue.mul */\n      tag_42\n        /* \"ExodusBondingCalculator/StandardBondingCalculator.sol\":1451:1526  totalValue.mul(FixedPoint.fraction(amount_, totalSupply).decode112with18()) */\n      jump\t// in\n        /* \"ExodusBondingCalculator/StandardBondingCalculator.sol\":1451:1536  totalValue.mul(FixedPoint.fraction(amount_, totalSupply).decode112with18()).div(1e18) */\n    tag_50:\n        /* \"ExodusBondingCalculator/StandardBondingCalculator.sol\":1442:1536  _value = totalValue.mul(FixedPoint.fraction(amount_, totalSupply).decode112with18()).div(1e18) */\n      swap6\n        /* \"ExodusBondingCalculator/StandardBondingCalculator.sol\":1214:1543  function valuation(address _pair, uint256 amount_) external view override returns (uint256 _value) {... */\n      swap5\n      pop\n      pop\n      pop\n      pop\n      pop\n      jump\t// out\n        /* \"ExodusBondingCalculator/StandardBondingCalculator.sol\":601:1070  function getKValue(address _pair) public view returns (uint256 k_) {... */\n    tag_15:\n        /* \"ExodusBondingCalculator/StandardBondingCalculator.sol\":656:666  uint256 k_ */\n      0x00\n        /* \"ExodusBondingCalculator/StandardBondingCalculator.sol\":678:692  uint256 token0 */\n      dup1\n        /* \"ExodusBondingCalculator/StandardBondingCalculator.sol\":725:730  _pair */\n      dup3\n      sub(shl(0xa0, 0x01), 0x01)\n        /* \"ExodusBondingCalculator/StandardBondingCalculator.sol\":710:738  IUniswapV2Pair(_pair).token0 */\n      and\n      0x0dfe1681\n        /* \"ExodusBondingCalculator/StandardBondingCalculator.sol\":710:740  IUniswapV2Pair(_pair).token0() */\n      mload(0x40)\n      dup2\n      0xffffffff\n      and\n      0xe0\n      shl\n      dup2\n      mstore\n      0x04\n      add\n      0x20\n      mload(0x40)\n      dup1\n      dup4\n      sub\n      dup2\n      dup7\n      dup1\n      extcodesize\n      iszero\n      dup1\n      iszero\n      tag_57\n      jumpi\n      0x00\n      dup1\n      revert\n    tag_57:\n      pop\n      gas\n      staticcall\n      iszero\n      dup1\n      iszero\n      tag_59\n      jumpi\n      returndatasize\n      0x00\n      dup1\n      returndatacopy\n      revert(0x00, returndatasize)\n    tag_59:\n      pop\n      pop\n      pop\n      pop\n      mload(0x40)\n      returndatasize\n      0x20\n      dup2\n      lt\n      iszero\n      tag_60\n      jumpi\n      0x00\n      dup1\n      revert\n    tag_60:\n      pop\n      mload\n        /* \"ExodusBondingCalculator/StandardBondingCalculator.sol\":695:752  IERC20Metadata(IUniswapV2Pair(_pair).token0()).decimals() */\n      0x40\n      dup1\n      mload\n      shl(0xe0, 0x313ce567)\n      dup2\n      mstore\n      swap1\n      mload\n      sub(shl(0xa0, 0x01), 0x01)\n        /* \"ExodusBondingCalculator/StandardBondingCalculator.sol\":695:750  IERC20Metadata(IUniswapV2Pair(_pair).token0()).decimals */\n      swap1\n      swap3\n      and\n      swap2\n      0x313ce567\n      swap2\n        /* \"ExodusBondingCalculator/StandardBondingCalculator.sol\":695:752  IERC20Metadata(IUniswapV2Pair(_pair).token0()).decimals() */\n      0x04\n      dup1\n      dup3\n      add\n      swap3\n        /* \"ExodusBondingCalculator/StandardBondingCalculator.sol\":710:740  IUniswapV2Pair(_pair).token0() */\n      0x20\n      swap3\n        /* \"ExodusBondingCalculator/StandardBondingCalculator.sol\":695:752  IERC20Metadata(IUniswapV2Pair(_pair).token0()).decimals() */\n      swap1\n      swap2\n      swap1\n      dup3\n      swap1\n      sub\n      add\n      dup2\n        /* \"ExodusBondingCalculator/StandardBondingCalculator.sol\":695:750  IERC20Metadata(IUniswapV2Pair(_pair).token0()).decimals */\n      dup7\n        /* \"ExodusBondingCalculator/StandardBondingCalculator.sol\":695:752  IERC20Metadata(IUniswapV2Pair(_pair).token0()).decimals() */\n      dup1\n      extcodesize\n      iszero\n      dup1\n      iszero\n      tag_61\n      jumpi\n      0x00\n      dup1\n      revert\n    tag_61:\n      pop\n      gas\n      staticcall\n      iszero\n      dup1\n      iszero\n      tag_63\n      jumpi\n      returndatasize\n      0x00\n      dup1\n      returndatacopy\n      revert(0x00, returndatasize)\n    tag_63:\n      pop\n      pop\n      pop\n      pop\n      mload(0x40)\n      returndatasize\n      0x20\n      dup2\n      lt\n      iszero\n      tag_64\n      jumpi\n      0x00\n      dup1\n      revert\n    tag_64:\n      pop\n      mload\n        /* \"ExodusBondingCalculator/StandardBondingCalculator.sol\":794:824  IUniswapV2Pair(_pair).token1() */\n      0x40\n      dup1\n      mload\n      0xd21220a700000000000000000000000000000000000000000000000000000000\n      dup2\n      mstore\n      swap1\n      mload\n        /* \"ExodusBondingCalculator/StandardBondingCalculator.sol\":678:752  uint256 token0 = IERC20Metadata(IUniswapV2Pair(_pair).token0()).decimals() */\n      0xff\n      swap1\n      swap3\n      and\n      swap3\n      pop\n        /* \"ExodusBondingCalculator/StandardBondingCalculator.sol\":762:776  uint256 token1 */\n      0x00\n      swap2\n      sub(shl(0xa0, 0x01), 0x01)\n        /* \"ExodusBondingCalculator/StandardBondingCalculator.sol\":794:822  IUniswapV2Pair(_pair).token1 */\n      dup7\n      and\n      swap2\n      0xd21220a7\n      swap2\n        /* \"ExodusBondingCalculator/StandardBondingCalculator.sol\":794:824  IUniswapV2Pair(_pair).token1() */\n      0x04\n      dup1\n      dup4\n      add\n      swap3\n        /* \"ExodusBondingCalculator/StandardBondingCalculator.sol\":695:752  IERC20Metadata(IUniswapV2Pair(_pair).token0()).decimals() */\n      0x20\n      swap3\n        /* \"ExodusBondingCalculator/StandardBondingCalculator.sol\":794:824  IUniswapV2Pair(_pair).token1() */\n      swap2\n      swap1\n      dup3\n      swap1\n      sub\n      add\n      dup2\n        /* \"ExodusBondingCalculator/StandardBondingCalculator.sol\":794:822  IUniswapV2Pair(_pair).token1 */\n      dup7\n        /* \"ExodusBondingCalculator/StandardBondingCalculator.sol\":794:824  IUniswapV2Pair(_pair).token1() */\n      dup1\n      extcodesize\n      iszero\n      dup1\n      iszero\n      tag_65\n      jumpi\n      0x00\n      dup1\n      revert\n    tag_65:\n      pop\n      gas\n      staticcall\n      iszero\n      dup1\n      iszero\n      tag_67\n      jumpi\n      returndatasize\n      0x00\n      dup1\n      returndatacopy\n      revert(0x00, returndatasize)\n    tag_67:\n      pop\n      pop\n      pop\n      pop\n      mload(0x40)\n      returndatasize\n      0x20\n      dup2\n      lt\n      iszero\n      tag_68\n      jumpi\n      0x00\n      dup1\n      revert\n    tag_68:\n      pop\n      mload\n        /* \"ExodusBondingCalculator/StandardBondingCalculator.sol\":779:836  IERC20Metadata(IUniswapV2Pair(_pair).token1()).decimals() */\n      0x40\n      dup1\n      mload\n      shl(0xe0, 0x313ce567)\n      dup2\n      mstore\n      swap1\n      mload\n      sub(shl(0xa0, 0x01), 0x01)\n        /* \"ExodusBondingCalculator/StandardBondingCalculator.sol\":779:834  IERC20Metadata(IUniswapV2Pair(_pair).token1()).decimals */\n      swap1\n      swap3\n      and\n      swap2\n      0x313ce567\n      swap2\n        /* \"ExodusBondingCalculator/StandardBondingCalculator.sol\":779:836  IERC20Metadata(IUniswapV2Pair(_pair).token1()).decimals() */\n      0x04\n      dup1\n      dup3\n      add\n      swap3\n        /* \"ExodusBondingCalculator/StandardBondingCalculator.sol\":794:824  IUniswapV2Pair(_pair).token1() */\n      0x20\n      swap3\n        /* \"ExodusBondingCalculator/StandardBondingCalculator.sol\":779:836  IERC20Metadata(IUniswapV2Pair(_pair).token1()).decimals() */\n      swap1\n      swap2\n      swap1\n      dup3\n      swap1\n      sub\n      add\n      dup2\n        /* \"ExodusBondingCalculator/StandardBondingCalculator.sol\":779:834  IERC20Metadata(IUniswapV2Pair(_pair).token1()).decimals */\n      dup7\n        /* \"ExodusBondingCalculator/StandardBondingCalculator.sol\":779:836  IERC20Metadata(IUniswapV2Pair(_pair).token1()).decimals() */\n      dup1\n      extcodesize\n      iszero\n      dup1\n      iszero\n      tag_69\n      jumpi\n      0x00\n      dup1\n      revert\n    tag_69:\n      pop\n      gas\n      staticcall\n      iszero\n      dup1\n      iszero\n      tag_71\n      jumpi\n      returndatasize\n      0x00\n      dup1\n      returndatacopy\n      revert(0x00, returndatasize)\n    tag_71:\n      pop\n      pop\n      pop\n      pop\n      mload(0x40)\n      returndatasize\n      0x20\n      dup2\n      lt\n      iszero\n      tag_72\n      jumpi\n      0x00\n      dup1\n      revert\n    tag_72:\n      pop\n      mload\n        /* \"ExodusBondingCalculator/StandardBondingCalculator.sol\":888:920  IERC20Metadata(_pair).decimals() */\n      0x40\n      dup1\n      mload\n      shl(0xe0, 0x313ce567)\n      dup2\n      mstore\n      swap1\n      mload\n        /* \"ExodusBondingCalculator/StandardBondingCalculator.sol\":762:836  uint256 token1 = IERC20Metadata(IUniswapV2Pair(_pair).token1()).decimals() */\n      0xff\n      swap1\n      swap3\n      and\n      swap3\n      pop\n        /* \"ExodusBondingCalculator/StandardBondingCalculator.sol\":846:862  uint256 decimals */\n      0x00\n      swap2\n        /* \"ExodusBondingCalculator/StandardBondingCalculator.sol\":865:921  token0.add(token1).sub(IERC20Metadata(_pair).decimals()) */\n      tag_73\n      swap2\n      sub(shl(0xa0, 0x01), 0x01)\n        /* \"ExodusBondingCalculator/StandardBondingCalculator.sol\":888:918  IERC20Metadata(_pair).decimals */\n      dup9\n      and\n      swap2\n      0x313ce567\n      swap2\n        /* \"ExodusBondingCalculator/StandardBondingCalculator.sol\":888:920  IERC20Metadata(_pair).decimals() */\n      0x04\n      dup1\n      dup3\n      add\n      swap3\n        /* \"ExodusBondingCalculator/StandardBondingCalculator.sol\":779:836  IERC20Metadata(IUniswapV2Pair(_pair).token1()).decimals() */\n      0x20\n      swap3\n        /* \"ExodusBondingCalculator/StandardBondingCalculator.sol\":888:920  IERC20Metadata(_pair).decimals() */\n      swap1\n      swap2\n      swap1\n      dup3\n      swap1\n      sub\n      add\n      dup2\n        /* \"ExodusBondingCalculator/StandardBondingCalculator.sol\":888:918  IERC20Metadata(_pair).decimals */\n      dup7\n        /* \"ExodusBondingCalculator/StandardBondingCalculator.sol\":888:920  IERC20Metadata(_pair).decimals() */\n      dup1\n      extcodesize\n      iszero\n      dup1\n      iszero\n      tag_74\n      jumpi\n      0x00\n      dup1\n      revert\n    tag_74:\n      pop\n      gas\n      staticcall\n      iszero\n      dup1\n      iszero\n      tag_76\n      jumpi\n      returndatasize\n      0x00\n      dup1\n      returndatacopy\n      revert(0x00, returndatasize)\n    tag_76:\n      pop\n      pop\n      pop\n      pop\n      mload(0x40)\n      returndatasize\n      0x20\n      dup2\n      lt\n      iszero\n      tag_77\n      jumpi\n      0x00\n      dup1\n      revert\n    tag_77:\n      pop\n      mload\n        /* \"ExodusBondingCalculator/StandardBondingCalculator.sol\":865:921  token0.add(token1).sub(IERC20Metadata(_pair).decimals()) */\n      0xff\n      and\n        /* \"ExodusBondingCalculator/StandardBondingCalculator.sol\":865:883  token0.add(token1) */\n      tag_78\n        /* \"ExodusBondingCalculator/StandardBondingCalculator.sol\":865:871  token0 */\n      dup6\n        /* \"ExodusBondingCalculator/StandardBondingCalculator.sol\":876:882  token1 */\n      dup6\n        /* \"ExodusBondingCalculator/StandardBondingCalculator.sol\":865:875  token0.add */\n      tag_79\n        /* \"ExodusBondingCalculator/StandardBondingCalculator.sol\":865:883  token0.add(token1) */\n      jump\t// in\n    tag_78:\n        /* \"ExodusBondingCalculator/StandardBondingCalculator.sol\":865:887  token0.add(token1).sub */\n      swap1\n      tag_80\n        /* \"ExodusBondingCalculator/StandardBondingCalculator.sol\":865:921  token0.add(token1).sub(IERC20Metadata(_pair).decimals()) */\n      jump\t// in\n    tag_73:\n        /* \"ExodusBondingCalculator/StandardBondingCalculator.sol\":846:921  uint256 decimals = token0.add(token1).sub(IERC20Metadata(_pair).decimals()) */\n      swap1\n      pop\n        /* \"ExodusBondingCalculator/StandardBondingCalculator.sol\":933:949  uint256 reserve0 */\n      0x00\n        /* \"ExodusBondingCalculator/StandardBondingCalculator.sol\":951:967  uint256 reserve1 */\n      dup1\n        /* \"ExodusBondingCalculator/StandardBondingCalculator.sol\":988:993  _pair */\n      dup7\n      sub(shl(0xa0, 0x01), 0x01)\n        /* \"ExodusBondingCalculator/StandardBondingCalculator.sol\":973:1006  IUniswapV2Pair(_pair).getReserves */\n      and\n      0x0902f1ac\n        /* \"ExodusBondingCalculator/StandardBondingCalculator.sol\":973:1008  IUniswapV2Pair(_pair).getReserves() */\n      mload(0x40)\n      dup2\n      0xffffffff\n      and\n      0xe0\n      shl\n      dup2\n      mstore\n      0x04\n      add\n      0x60\n      mload(0x40)\n      dup1\n      dup4\n      sub\n      dup2\n      dup7\n      dup1\n      extcodesize\n      iszero\n      dup1\n      iszero\n      tag_81\n      jumpi\n      0x00\n      dup1\n      revert\n    tag_81:\n      pop\n      gas\n      staticcall\n      iszero\n      dup1\n      iszero\n      tag_83\n      jumpi\n      returndatasize\n      0x00\n      dup1\n      returndatacopy\n      revert(0x00, returndatasize)\n    tag_83:\n      pop\n      pop\n      pop\n      pop\n      mload(0x40)\n      returndatasize\n      0x60\n      dup2\n      lt\n      iszero\n      tag_84\n      jumpi\n      0x00\n      dup1\n      revert\n    tag_84:\n      pop\n      dup1\n      mload\n      0x20\n      swap1\n      swap2\n      add\n      mload\n        /* \"ExodusBondingCalculator/StandardBondingCalculator.sol\":932:1008  (uint256 reserve0, uint256 reserve1, ) = IUniswapV2Pair(_pair).getReserves() */\n      0xffffffffffffffffffffffffffff\n      swap2\n      dup3\n      and\n      swap4\n      pop\n      and\n      swap1\n      pop\n        /* \"ExodusBondingCalculator/StandardBondingCalculator.sol\":1023:1063  reserve0.mul(reserve1).div(10**decimals) */\n      tag_85\n        /* \"ExodusBondingCalculator/StandardBondingCalculator.sol\":1050:1052  10 */\n      0x0a\n        /* \"ExodusBondingCalculator/StandardBondingCalculator.sol\":1050:1062  10**decimals */\n      dup5\n      swap1\n      exp\n        /* \"ExodusBondingCalculator/StandardBondingCalculator.sol\":1023:1045  reserve0.mul(reserve1) */\n      tag_37\n        /* \"ExodusBondingCalculator/StandardBondingCalculator.sol\":932:1008  (uint256 reserve0, uint256 reserve1, ) = IUniswapV2Pair(_pair).getReserves() */\n      dup5\n      dup5\n        /* \"ExodusBondingCalculator/StandardBondingCalculator.sol\":1023:1035  reserve0.mul */\n      tag_42\n        /* \"ExodusBondingCalculator/StandardBondingCalculator.sol\":1023:1045  reserve0.mul(reserve1) */\n      jump\t// in\n        /* \"ExodusBondingCalculator/StandardBondingCalculator.sol\":1023:1063  reserve0.mul(reserve1).div(10**decimals) */\n    tag_85:\n        /* \"ExodusBondingCalculator/StandardBondingCalculator.sol\":1018:1063  k_ = reserve0.mul(reserve1).div(10**decimals) */\n      swap8\n        /* \"ExodusBondingCalculator/StandardBondingCalculator.sol\":601:1070  function getKValue(address _pair) public view returns (uint256 k_) {... */\n      swap7\n      pop\n      pop\n      pop\n      pop\n      pop\n      pop\n      pop\n      jump\t// out\n        /* \"ExodusBondingCalculator/StandardBondingCalculator.sol\":1076:1208  function getTotalValue(address _pair) public view returns (uint256 _value) {... */\n    tag_18:\n        /* \"ExodusBondingCalculator/StandardBondingCalculator.sol\":1135:1149  uint256 _value */\n      0x00\n        /* \"ExodusBondingCalculator/StandardBondingCalculator.sol\":1170:1201  getKValue(_pair).sqrrt().mul(2) */\n      tag_88\n        /* \"ExodusBondingCalculator/StandardBondingCalculator.sol\":1199:1200  2 */\n      0x02\n        /* \"ExodusBondingCalculator/StandardBondingCalculator.sol\":1170:1194  getKValue(_pair).sqrrt() */\n      tag_89\n        /* \"ExodusBondingCalculator/StandardBondingCalculator.sol\":1170:1186  getKValue(_pair) */\n      tag_90\n        /* \"ExodusBondingCalculator/StandardBondingCalculator.sol\":1180:1185  _pair */\n      dup6\n        /* \"ExodusBondingCalculator/StandardBondingCalculator.sol\":1170:1179  getKValue */\n      tag_15\n        /* \"ExodusBondingCalculator/StandardBondingCalculator.sol\":1170:1186  getKValue(_pair) */\n      jump\t// in\n    tag_90:\n        /* \"ExodusBondingCalculator/StandardBondingCalculator.sol\":1170:1192  getKValue(_pair).sqrrt */\n      tag_91\n        /* \"ExodusBondingCalculator/StandardBondingCalculator.sol\":1170:1194  getKValue(_pair).sqrrt() */\n      jump\t// in\n    tag_89:\n        /* \"ExodusBondingCalculator/StandardBondingCalculator.sol\":1170:1198  getKValue(_pair).sqrrt().mul */\n      swap1\n      tag_42\n        /* \"ExodusBondingCalculator/StandardBondingCalculator.sol\":1170:1201  getKValue(_pair).sqrrt().mul(2) */\n      jump\t// in\n    tag_88:\n        /* \"ExodusBondingCalculator/StandardBondingCalculator.sol\":1161:1201  _value = getKValue(_pair).sqrrt().mul(2) */\n      swap3\n        /* \"ExodusBondingCalculator/StandardBondingCalculator.sol\":1076:1208  function getTotalValue(address _pair) public view returns (uint256 _value) {... */\n      swap2\n      pop\n      pop\n      jump\t// out\n        /* \"ExodusBondingCalculator/SafeMath.sol\":700:941  function mul(uint256 a, uint256 b) internal pure returns (uint256) {... */\n    tag_42:\n        /* \"ExodusBondingCalculator/SafeMath.sol\":758:765  uint256 */\n      0x00\n        /* \"ExodusBondingCalculator/SafeMath.sol\":781:787  a == 0 */\n      dup3\n        /* \"ExodusBondingCalculator/SafeMath.sol\":777:822  if (a == 0) {... */\n      tag_93\n      jumpi\n      pop\n        /* \"ExodusBondingCalculator/SafeMath.sol\":810:811  0 */\n      0x00\n        /* \"ExodusBondingCalculator/SafeMath.sol\":803:811  return 0 */\n      jump(tag_88)\n        /* \"ExodusBondingCalculator/SafeMath.sol\":777:822  if (a == 0) {... */\n    tag_93:\n        /* \"ExodusBondingCalculator/SafeMath.sol\":844:849  a * b */\n      dup3\n      dup3\n      mul\n        /* \"ExodusBondingCalculator/SafeMath.sol\":848:849  b */\n      dup3\n        /* \"ExodusBondingCalculator/SafeMath.sol\":844:845  a */\n      dup5\n        /* \"ExodusBondingCalculator/SafeMath.sol\":844:849  a * b */\n      dup3\n        /* \"ExodusBondingCalculator/SafeMath.sol\":844:845  a */\n      dup2\n        /* \"ExodusBondingCalculator/SafeMath.sol\":867:872  c / a */\n      tag_94\n      jumpi\n      invalid\n    tag_94:\n      div\n        /* \"ExodusBondingCalculator/SafeMath.sol\":867:877  c / a == b */\n      eq\n        /* \"ExodusBondingCalculator/SafeMath.sol\":859:915  require(c / a == b, \"SafeMath: multiplication overflow\") */\n      tag_95\n      jumpi\n      mload(0x40)\n      shl(0xe5, 0x461bcd)\n      dup2\n      mstore\n      0x04\n      add\n      dup1\n      dup1\n      0x20\n      add\n      dup3\n      dup2\n      sub\n      dup3\n      mstore\n      0x21\n      dup2\n      mstore\n      0x20\n      add\n      dup1\n      data_9113bb53c2876a3805b2c9242029423fc540a728243ce887ab24c82cf119fba3\n      0x21\n      swap2\n      codecopy\n      0x40\n      add\n      swap2\n      pop\n      pop\n      mload(0x40)\n      dup1\n      swap2\n      sub\n      swap1\n      revert\n    tag_95:\n        /* \"ExodusBondingCalculator/SafeMath.sol\":933:934  c */\n      swap4\n        /* \"ExodusBondingCalculator/SafeMath.sol\":700:941  function mul(uint256 a, uint256 b) internal pure returns (uint256) {... */\n      swap3\n      pop\n      pop\n      pop\n      jump\t// out\n        /* \"ExodusBondingCalculator/SafeMath.sol\":947:1077  function div(uint256 a, uint256 b) internal pure returns (uint256) {... */\n    tag_43:\n        /* \"ExodusBondingCalculator/SafeMath.sol\":1005:1012  uint256 */\n      0x00\n        /* \"ExodusBondingCalculator/SafeMath.sol\":1031:1070  div(a, b, \"SafeMath: division by zero\") */\n      tag_95\n        /* \"ExodusBondingCalculator/SafeMath.sol\":1035:1036  a */\n      dup4\n        /* \"ExodusBondingCalculator/SafeMath.sol\":1038:1039  b */\n      dup4\n        /* \"ExodusBondingCalculator/SafeMath.sol\":1031:1070  div(a, b, \"SafeMath: division by zero\") */\n      mload(0x40)\n      dup1\n      0x40\n      add\n      0x40\n      mstore\n      dup1\n      0x1a\n      dup2\n      mstore\n      0x20\n      add\n      0x536166654d6174683a206469766973696f6e206279207a65726f000000000000\n      dup2\n      mstore\n      pop\n        /* \"ExodusBondingCalculator/SafeMath.sol\":1031:1034  div */\n      tag_98\n        /* \"ExodusBondingCalculator/SafeMath.sol\":1031:1070  div(a, b, \"SafeMath: division by zero\") */\n      jump\t// in\n        /* \"ExodusBondingCalculator/FixedPoint.sol\":2683:3389  function fraction(uint256 numerator, uint256 denominator) internal pure returns (uq112x112 memory) {... */\n    tag_54:\n        /* \"ExodusBondingCalculator/FixedPoint.sol\":2764:2780  uq112x112 memory */\n      tag_99\n      tag_100\n      jump\t// in\n    tag_99:\n        /* \"ExodusBondingCalculator/FixedPoint.sol\":2814:2815  0 */\n      0x00\n        /* \"ExodusBondingCalculator/FixedPoint.sol\":2800:2811  denominator */\n      dup3\n        /* \"ExodusBondingCalculator/FixedPoint.sol\":2800:2815  denominator > 0 */\n      gt\n        /* \"ExodusBondingCalculator/FixedPoint.sol\":2792:2858  require(denominator > 0, \"FixedPoint::fraction: division by zero\") */\n      tag_102\n      jumpi\n      mload(0x40)\n      shl(0xe5, 0x461bcd)\n      dup2\n      mstore\n      0x04\n      add\n      dup1\n      dup1\n      0x20\n      add\n      dup3\n      dup2\n      sub\n      dup3\n      mstore\n      0x26\n      dup2\n      mstore\n      0x20\n      add\n      dup1\n      data_5e8a6c8dfacd0a41f2501735d8ee26d996b9e7e81ff5467dfdfd11a3728a15e7\n      0x26\n      swap2\n      codecopy\n      0x40\n      add\n      swap2\n      pop\n      pop\n      mload(0x40)\n      dup1\n      swap2\n      sub\n      swap1\n      revert\n    tag_102:\n        /* \"ExodusBondingCalculator/FixedPoint.sol\":2872:2886  numerator == 0 */\n      dup3\n        /* \"ExodusBondingCalculator/FixedPoint.sol\":2868:2918  if (numerator == 0) return FixedPoint.uq112x112(0) */\n      tag_103\n      jumpi\n      pop\n        /* \"ExodusBondingCalculator/FixedPoint.sol\":2895:2918  FixedPoint.uq112x112(0) */\n      0x40\n      dup1\n      mload\n      0x20\n      dup2\n      add\n      swap1\n      swap2\n      mstore\n      0x00\n      dup2\n      mstore\n        /* \"ExodusBondingCalculator/FixedPoint.sol\":2888:2918  return FixedPoint.uq112x112(0) */\n      jump(tag_88)\n        /* \"ExodusBondingCalculator/FixedPoint.sol\":2868:2918  if (numerator == 0) return FixedPoint.uq112x112(0) */\n    tag_103:\n        /* \"ExodusBondingCalculator/FixedPoint.sol\":2933:2957  numerator <= uint144(-1) */\n      0xffffffffffffffffffffffffffffffffffff\n      dup4\n      gt\n        /* \"ExodusBondingCalculator/FixedPoint.sol\":2929:3383  if (numerator <= uint144(-1)) {... */\n      tag_104\n      jumpi\n        /* \"ExodusBondingCalculator/FixedPoint.sol\":2973:2987  uint256 result */\n      0x00\n        /* \"ExodusBondingCalculator/FixedPoint.sol\":3018:3029  denominator */\n      dup3\n        /* \"ExodusBondingCalculator/FixedPoint.sol\":2118:2121  112 */\n      0x70\n        /* \"ExodusBondingCalculator/FixedPoint.sol\":2991:3014  numerator << RESOLUTION */\n      dup6\n      swap1\n      shl\n        /* \"ExodusBondingCalculator/FixedPoint.sol\":3018:3029  denominator */\n      dup2\n        /* \"ExodusBondingCalculator/FixedPoint.sol\":2990:3029  (numerator << RESOLUTION) / denominator */\n      tag_105\n      jumpi\n      invalid\n    tag_105:\n      div\n      swap1\n      pop\n      sub(shl(0xe0, 0x01), 0x01)\n        /* \"ExodusBondingCalculator/FixedPoint.sol\":3051:3072  result <= uint224(-1) */\n      dup2\n      gt\n      iszero\n        /* \"ExodusBondingCalculator/FixedPoint.sol\":3043:3107  require(result <= uint224(-1), \"FixedPoint::fraction: overflow\") */\n      tag_106\n      jumpi\n      0x40\n      dup1\n      mload\n      shl(0xe5, 0x461bcd)\n      dup2\n      mstore\n      0x20\n      0x04\n      dup3\n      add\n      mstore\n      0x1e\n      0x24\n      dup3\n      add\n      mstore\n      0x4669786564506f696e743a3a6672616374696f6e3a206f766572666c6f770000\n      0x44\n      dup3\n      add\n      mstore\n      swap1\n      mload\n      swap1\n      dup2\n      swap1\n      sub\n      0x64\n      add\n      swap1\n      revert\n    tag_106:\n        /* \"ExodusBondingCalculator/FixedPoint.sol\":3128:3154  uq112x112(uint224(result)) */\n      mload(0x40)\n      dup1\n      0x20\n      add\n      0x40\n      mstore\n      dup1\n        /* \"ExodusBondingCalculator/FixedPoint.sol\":3146:3152  result */\n      dup3\n      sub(shl(0xe0, 0x01), 0x01)\n        /* \"ExodusBondingCalculator/FixedPoint.sol\":3128:3154  uq112x112(uint224(result)) */\n      and\n      dup2\n      mstore\n      pop\n        /* \"ExodusBondingCalculator/FixedPoint.sol\":3121:3154  return uq112x112(uint224(result)) */\n      swap2\n      pop\n      pop\n      jump(tag_88)\n        /* \"ExodusBondingCalculator/FixedPoint.sol\":2929:3383  if (numerator <= uint144(-1)) {... */\n    tag_104:\n        /* \"ExodusBondingCalculator/FixedPoint.sol\":3185:3199  uint256 result */\n      0x00\n        /* \"ExodusBondingCalculator/FixedPoint.sol\":3202:3247  FullMath.mulDiv(numerator, Q112, denominator) */\n      tag_108\n        /* \"ExodusBondingCalculator/FixedPoint.sol\":3218:3227  numerator */\n      dup5\n        /* \"ExodusBondingCalculator/FixedPoint.sol\":2159:2190  0x10000000000000000000000000000 */\n      0x010000000000000000000000000000\n        /* \"ExodusBondingCalculator/FixedPoint.sol\":3235:3246  denominator */\n      dup6\n        /* \"ExodusBondingCalculator/FixedPoint.sol\":3202:3217  FullMath.mulDiv */\n      tag_109\n        /* \"ExodusBondingCalculator/FixedPoint.sol\":3202:3247  FullMath.mulDiv(numerator, Q112, denominator) */\n      jump\t// in\n    tag_108:\n        /* \"ExodusBondingCalculator/FixedPoint.sol\":3185:3247  uint256 result = FullMath.mulDiv(numerator, Q112, denominator) */\n      swap1\n      pop\n      sub(shl(0xe0, 0x01), 0x01)\n        /* \"ExodusBondingCalculator/FixedPoint.sol\":3269:3290  result <= uint224(-1) */\n      dup2\n      gt\n      iszero\n        /* \"ExodusBondingCalculator/FixedPoint.sol\":3261:3325  require(result <= uint224(-1), \"FixedPoint::fraction: overflow\") */\n      tag_106\n      jumpi\n      0x40\n      dup1\n      mload\n      shl(0xe5, 0x461bcd)\n      dup2\n      mstore\n      0x20\n      0x04\n      dup3\n      add\n      mstore\n      0x1e\n      0x24\n      dup3\n      add\n      mstore\n      0x4669786564506f696e743a3a6672616374696f6e3a206f766572666c6f770000\n      0x44\n      dup3\n      add\n      mstore\n      swap1\n      mload\n      swap1\n      dup2\n      swap1\n      sub\n      0x64\n      add\n      swap1\n      revert\n        /* \"ExodusBondingCalculator/FixedPoint.sol\":2538:2677  function decode112with18(uq112x112 memory self) internal pure returns (uint256) {... */\n    tag_55:\n        /* \"ExodusBondingCalculator/FixedPoint.sol\":2643:2650  self._x */\n      mload\n        /* \"ExodusBondingCalculator/FixedPoint.sol\":2654:2670  5192296858534827 */\n      0x12725dd1d243ab\n      sub(shl(0xe0, 0x01), 0x01)\n        /* \"ExodusBondingCalculator/FixedPoint.sol\":2635:2651  uint256(self._x) */\n      swap1\n      swap2\n      and\n        /* \"ExodusBondingCalculator/FixedPoint.sol\":2635:2670  uint256(self._x) / 5192296858534827 */\n      div\n      swap1\n        /* \"ExodusBondingCalculator/FixedPoint.sol\":2538:2677  function decode112with18(uq112x112 memory self) internal pure returns (uint256) {... */\n      jump\t// out\n        /* \"ExodusBondingCalculator/SafeMath.sol\":155:331  function add(uint256 a, uint256 b) internal pure returns (uint256) {... */\n    tag_79:\n        /* \"ExodusBondingCalculator/SafeMath.sol\":213:220  uint256 */\n      0x00\n        /* \"ExodusBondingCalculator/SafeMath.sol\":244:249  a + b */\n      dup3\n      dup3\n      add\n        /* \"ExodusBondingCalculator/SafeMath.sol\":267:273  c >= a */\n      dup4\n      dup2\n      lt\n      iszero\n        /* \"ExodusBondingCalculator/SafeMath.sol\":259:305  require(c >= a, \"SafeMath: addition overflow\") */\n      tag_95\n      jumpi\n      0x40\n      dup1\n      mload\n      shl(0xe5, 0x461bcd)\n      dup2\n      mstore\n      0x20\n      0x04\n      dup3\n      add\n      mstore\n      0x1b\n      0x24\n      dup3\n      add\n      mstore\n      0x536166654d6174683a206164646974696f6e206f766572666c6f770000000000\n      0x44\n      dup3\n      add\n      mstore\n      swap1\n      mload\n      swap1\n      dup2\n      swap1\n      sub\n      0x64\n      add\n      swap1\n      revert\n        /* \"ExodusBondingCalculator/SafeMath.sol\":337:471  function sub(uint256 a, uint256 b) internal pure returns (uint256) {... */\n    tag_80:\n        /* \"ExodusBondingCalculator/SafeMath.sol\":395:402  uint256 */\n      0x00\n        /* \"ExodusBondingCalculator/SafeMath.sol\":421:464  sub(a, b, \"SafeMath: subtraction overflow\") */\n      tag_95\n        /* \"ExodusBondingCalculator/SafeMath.sol\":425:426  a */\n      dup4\n        /* \"ExodusBondingCalculator/SafeMath.sol\":428:429  b */\n      dup4\n        /* \"ExodusBondingCalculator/SafeMath.sol\":421:464  sub(a, b, \"SafeMath: subtraction overflow\") */\n      mload(0x40)\n      dup1\n      0x40\n      add\n      0x40\n      mstore\n      dup1\n      0x1e\n      dup2\n      mstore\n      0x20\n      add\n      0x536166654d6174683a207375627472616374696f6e206f766572666c6f770000\n      dup2\n      mstore\n      pop\n        /* \"ExodusBondingCalculator/SafeMath.sol\":421:424  sub */\n      tag_117\n        /* \"ExodusBondingCalculator/SafeMath.sol\":421:464  sub(a, b, \"SafeMath: subtraction overflow\") */\n      jump\t// in\n        /* \"ExodusBondingCalculator/SafeMath.sol\":1437:1757  function sqrrt(uint256 a) internal pure returns (uint256 c) {... */\n    tag_91:\n        /* \"ExodusBondingCalculator/SafeMath.sol\":1486:1495  uint256 c */\n      0x00\n        /* \"ExodusBondingCalculator/SafeMath.sol\":1515:1516  3 */\n      0x03\n        /* \"ExodusBondingCalculator/SafeMath.sol\":1511:1512  a */\n      dup3\n        /* \"ExodusBondingCalculator/SafeMath.sol\":1511:1516  a > 3 */\n      gt\n        /* \"ExodusBondingCalculator/SafeMath.sol\":1507:1751  if (a > 3) {... */\n      iszero\n      tag_119\n      jumpi\n      pop\n        /* \"ExodusBondingCalculator/SafeMath.sol\":1536:1537  a */\n      dup1\n        /* \"ExodusBondingCalculator/SafeMath.sol\":1551:1560  uint256 b */\n      0x00\n        /* \"ExodusBondingCalculator/SafeMath.sol\":1563:1580  add(div(a, 2), 1) */\n      tag_120\n        /* \"ExodusBondingCalculator/SafeMath.sol\":1567:1576  div(a, 2) */\n      tag_121\n        /* \"ExodusBondingCalculator/SafeMath.sol\":1536:1537  a */\n      dup4\n        /* \"ExodusBondingCalculator/SafeMath.sol\":1574:1575  2 */\n      0x02\n        /* \"ExodusBondingCalculator/SafeMath.sol\":1567:1570  div */\n      tag_43\n        /* \"ExodusBondingCalculator/SafeMath.sol\":1567:1576  div(a, 2) */\n      jump\t// in\n    tag_121:\n        /* \"ExodusBondingCalculator/SafeMath.sol\":1578:1579  1 */\n      0x01\n        /* \"ExodusBondingCalculator/SafeMath.sol\":1563:1566  add */\n      tag_79\n        /* \"ExodusBondingCalculator/SafeMath.sol\":1563:1580  add(div(a, 2), 1) */\n      jump\t// in\n    tag_120:\n        /* \"ExodusBondingCalculator/SafeMath.sol\":1551:1580  uint256 b = add(div(a, 2), 1) */\n      swap1\n      pop\n        /* \"ExodusBondingCalculator/SafeMath.sol\":1594:1693  while (b < c) {... */\n    tag_122:\n        /* \"ExodusBondingCalculator/SafeMath.sol\":1605:1606  c */\n      dup2\n        /* \"ExodusBondingCalculator/SafeMath.sol\":1601:1602  b */\n      dup2\n        /* \"ExodusBondingCalculator/SafeMath.sol\":1601:1606  b < c */\n      lt\n        /* \"ExodusBondingCalculator/SafeMath.sol\":1594:1693  while (b < c) {... */\n      iszero\n      tag_123\n      jumpi\n        /* \"ExodusBondingCalculator/SafeMath.sol\":1630:1631  b */\n      dup1\n        /* \"ExodusBondingCalculator/SafeMath.sol\":1626:1631  c = b */\n      swap2\n      pop\n        /* \"ExodusBondingCalculator/SafeMath.sol\":1653:1678  div(add(div(a, b), b), 2) */\n      tag_124\n        /* \"ExodusBondingCalculator/SafeMath.sol\":1657:1674  add(div(a, b), b) */\n      tag_125\n        /* \"ExodusBondingCalculator/SafeMath.sol\":1661:1670  div(a, b) */\n      tag_126\n        /* \"ExodusBondingCalculator/SafeMath.sol\":1665:1666  a */\n      dup6\n        /* \"ExodusBondingCalculator/SafeMath.sol\":1668:1669  b */\n      dup5\n        /* \"ExodusBondingCalculator/SafeMath.sol\":1661:1664  div */\n      tag_43\n        /* \"ExodusBondingCalculator/SafeMath.sol\":1661:1670  div(a, b) */\n      jump\t// in\n    tag_126:\n        /* \"ExodusBondingCalculator/SafeMath.sol\":1672:1673  b */\n      dup4\n        /* \"ExodusBondingCalculator/SafeMath.sol\":1657:1660  add */\n      tag_79\n        /* \"ExodusBondingCalculator/SafeMath.sol\":1657:1674  add(div(a, b), b) */\n      jump\t// in\n    tag_125:\n        /* \"ExodusBondingCalculator/SafeMath.sol\":1676:1677  2 */\n      0x02\n        /* \"ExodusBondingCalculator/SafeMath.sol\":1653:1656  div */\n      tag_43\n        /* \"ExodusBondingCalculator/SafeMath.sol\":1653:1678  div(add(div(a, b), b), 2) */\n      jump\t// in\n    tag_124:\n        /* \"ExodusBondingCalculator/SafeMath.sol\":1649:1678  b = div(add(div(a, b), b), 2) */\n      swap1\n      pop\n        /* \"ExodusBondingCalculator/SafeMath.sol\":1594:1693  while (b < c) {... */\n      jump(tag_122)\n    tag_123:\n        /* \"ExodusBondingCalculator/SafeMath.sol\":1507:1751  if (a > 3) {... */\n      pop\n      jump(tag_19)\n    tag_119:\n        /* \"ExodusBondingCalculator/SafeMath.sol\":1713:1719  a != 0 */\n      dup2\n      iszero\n        /* \"ExodusBondingCalculator/SafeMath.sol\":1709:1751  if (a != 0) {... */\n      tag_19\n      jumpi\n      pop\n        /* \"ExodusBondingCalculator/SafeMath.sol\":1739:1740  1 */\n      0x01\n        /* \"ExodusBondingCalculator/SafeMath.sol\":1437:1757  function sqrrt(uint256 a) internal pure returns (uint256 c) {... */\n      swap2\n      swap1\n      pop\n      jump\t// out\n        /* \"ExodusBondingCalculator/SafeMath.sol\":1083:1384  function div(... */\n    tag_98:\n        /* \"ExodusBondingCalculator/SafeMath.sol\":1199:1206  uint256 */\n      0x00\n        /* \"ExodusBondingCalculator/SafeMath.sol\":1233:1245  errorMessage */\n      dup2\n        /* \"ExodusBondingCalculator/SafeMath.sol\":1226:1231  b > 0 */\n      dup4\n        /* \"ExodusBondingCalculator/SafeMath.sol\":1218:1246  require(b > 0, errorMessage) */\n      tag_130\n      jumpi\n      mload(0x40)\n      shl(0xe5, 0x461bcd)\n      dup2\n      mstore\n      0x04\n      add\n      dup1\n      dup1\n      0x20\n      add\n      dup3\n      dup2\n      sub\n      dup3\n      mstore\n      dup4\n      dup2\n      dup2\n      mload\n      dup2\n      mstore\n      0x20\n      add\n      swap2\n      pop\n      dup1\n      mload\n      swap1\n      0x20\n      add\n      swap1\n      dup1\n      dup4\n      dup4\n      0x00\n    tag_131:\n      dup4\n      dup2\n      lt\n      iszero\n      tag_133\n      jumpi\n      dup2\n      dup2\n      add\n      mload\n      dup4\n      dup3\n      add\n      mstore\n      0x20\n      add\n      jump(tag_131)\n    tag_133:\n      pop\n      pop\n      pop\n      pop\n      swap1\n      pop\n      swap1\n      dup2\n      add\n      swap1\n      0x1f\n      and\n      dup1\n      iszero\n      tag_134\n      jumpi\n      dup1\n      dup3\n      sub\n      dup1\n      mload\n      0x01\n      dup4\n      0x20\n      sub\n      0x0100\n      exp\n      sub\n      not\n      and\n      dup2\n      mstore\n      0x20\n      add\n      swap2\n      pop\n    tag_134:\n      pop\n      swap3\n      pop\n      pop\n      pop\n      mload(0x40)\n      dup1\n      swap2\n      sub\n      swap1\n      revert\n    tag_130:\n      pop\n        /* \"ExodusBondingCalculator/SafeMath.sol\":1256:1265  uint256 c */\n      0x00\n        /* \"ExodusBondingCalculator/SafeMath.sol\":1272:1273  b */\n      dup4\n        /* \"ExodusBondingCalculator/SafeMath.sol\":1268:1269  a */\n      dup6\n        /* \"ExodusBondingCalculator/SafeMath.sol\":1268:1273  a / b */\n      dup2\n      tag_135\n      jumpi\n      invalid\n    tag_135:\n      div\n        /* \"ExodusBondingCalculator/SafeMath.sol\":1256:1273  uint256 c = a / b */\n      swap1\n      pop\n        /* \"ExodusBondingCalculator/SafeMath.sol\":1308:1309  b */\n      dup4\n        /* \"ExodusBondingCalculator/SafeMath.sol\":1304:1305  a */\n      dup6\n        /* \"ExodusBondingCalculator/SafeMath.sol\":1304:1309  a % b */\n      dup2\n      tag_136\n      jumpi\n      invalid\n    tag_136:\n      mod\n        /* \"ExodusBondingCalculator/SafeMath.sol\":1299:1300  c */\n      dup2\n        /* \"ExodusBondingCalculator/SafeMath.sol\":1295:1296  b */\n      dup6\n        /* \"ExodusBondingCalculator/SafeMath.sol\":1295:1300  b * c */\n      mul\n        /* \"ExodusBondingCalculator/SafeMath.sol\":1295:1310  b * c + (a % b) */\n      add\n        /* \"ExodusBondingCalculator/SafeMath.sol\":1290:1291  a */\n      dup6\n        /* \"ExodusBondingCalculator/SafeMath.sol\":1290:1310  a == b * c + (a % b) */\n      eq\n        /* \"ExodusBondingCalculator/SafeMath.sol\":1283:1311  assert(a == b * c + (a % b)) */\n      tag_137\n      jumpi\n      invalid\n    tag_137:\n        /* \"ExodusBondingCalculator/SafeMath.sol\":1376:1377  c */\n      swap5\n        /* \"ExodusBondingCalculator/SafeMath.sol\":1083:1384  function div(... */\n      swap4\n      pop\n      pop\n      pop\n      pop\n      jump\t// out\n        /* \"ExodusBondingCalculator/FullMath.sol\":765:1138  function mulDiv(... */\n    tag_109:\n        /* \"ExodusBondingCalculator/FullMath.sol\":867:874  uint256 */\n      0x00\n        /* \"ExodusBondingCalculator/FullMath.sol\":887:896  uint256 l */\n      dup1\n        /* \"ExodusBondingCalculator/FullMath.sol\":898:907  uint256 h */\n      0x00\n        /* \"ExodusBondingCalculator/FullMath.sol\":911:924  fullMul(x, y) */\n      tag_139\n        /* \"ExodusBondingCalculator/FullMath.sol\":919:920  x */\n      dup7\n        /* \"ExodusBondingCalculator/FullMath.sol\":922:923  y */\n      dup7\n        /* \"ExodusBondingCalculator/FullMath.sol\":911:918  fullMul */\n      tag_140\n        /* \"ExodusBondingCalculator/FullMath.sol\":911:924  fullMul(x, y) */\n      jump\t// in\n    tag_139:\n        /* \"ExodusBondingCalculator/FullMath.sol\":886:924  (uint256 l, uint256 h) = fullMul(x, y) */\n      swap2\n      pop\n      swap2\n      pop\n        /* \"ExodusBondingCalculator/FullMath.sol\":935:945  uint256 mm */\n      0x00\n        /* \"ExodusBondingCalculator/FullMath.sol\":961:962  d */\n      dup5\n        /* \"ExodusBondingCalculator/FullMath.sol\":948:963  mulmod(x, y, d) */\n      dup1\n      tag_141\n      jumpi\n      invalid\n    tag_141:\n        /* \"ExodusBondingCalculator/FullMath.sol\":958:959  y */\n      dup7\n        /* \"ExodusBondingCalculator/FullMath.sol\":955:956  x */\n      dup9\n        /* \"ExodusBondingCalculator/FullMath.sol\":948:963  mulmod(x, y, d) */\n      mulmod\n        /* \"ExodusBondingCalculator/FullMath.sol\":935:963  uint256 mm = mulmod(x, y, d) */\n      swap1\n      pop\n        /* \"ExodusBondingCalculator/FullMath.sol\":982:983  l */\n      dup3\n        /* \"ExodusBondingCalculator/FullMath.sol\":977:979  mm */\n      dup2\n        /* \"ExodusBondingCalculator/FullMath.sol\":977:983  mm > l */\n      gt\n        /* \"ExodusBondingCalculator/FullMath.sol\":973:991  if (mm > l) h -= 1 */\n      iszero\n      tag_142\n      jumpi\n        /* \"ExodusBondingCalculator/FullMath.sol\":990:991  1 */\n      0x01\n        /* \"ExodusBondingCalculator/FullMath.sol\":985:991  h -= 1 */\n      dup3\n      sub\n      swap2\n      pop\n        /* \"ExodusBondingCalculator/FullMath.sol\":973:991  if (mm > l) h -= 1 */\n    tag_142:\n        /* \"ExodusBondingCalculator/FullMath.sol\":1001:1008  l -= mm */\n      swap2\n      dup3\n      swap1\n      sub\n      swap2\n        /* \"ExodusBondingCalculator/FullMath.sol\":1023:1029  h == 0 */\n      dup2\n        /* \"ExodusBondingCalculator/FullMath.sol\":1019:1043  if (h == 0) return l / d */\n      tag_143\n      jumpi\n        /* \"ExodusBondingCalculator/FullMath.sol\":1042:1043  d */\n      dup5\n        /* \"ExodusBondingCalculator/FullMath.sol\":1038:1039  l */\n      dup4\n        /* \"ExodusBondingCalculator/FullMath.sol\":1038:1043  l / d */\n      dup2\n      tag_144\n      jumpi\n      invalid\n    tag_144:\n      div\n        /* \"ExodusBondingCalculator/FullMath.sol\":1031:1043  return l / d */\n      swap4\n      pop\n      pop\n      pop\n      pop\n      jump(tag_95)\n        /* \"ExodusBondingCalculator/FullMath.sol\":1019:1043  if (h == 0) return l / d */\n    tag_143:\n        /* \"ExodusBondingCalculator/FullMath.sol\":1066:1067  d */\n      dup5\n        /* \"ExodusBondingCalculator/FullMath.sol\":1062:1063  h */\n      dup3\n        /* \"ExodusBondingCalculator/FullMath.sol\":1062:1067  h < d */\n      lt\n        /* \"ExodusBondingCalculator/FullMath.sol\":1054:1098  require(h < d, \"FullMath: FULLDIV_OVERFLOW\") */\n      tag_145\n      jumpi\n      0x40\n      dup1\n      mload\n      shl(0xe5, 0x461bcd)\n      dup2\n      mstore\n      0x20\n      0x04\n      dup3\n      add\n      mstore\n      0x1a\n      0x24\n      dup3\n      add\n      mstore\n      0x46756c6c4d6174683a2046554c4c4449565f4f564552464c4f57000000000000\n      0x44\n      dup3\n      add\n      mstore\n      swap1\n      mload\n      swap1\n      dup2\n      swap1\n      sub\n      0x64\n      add\n      swap1\n      revert\n    tag_145:\n        /* \"ExodusBondingCalculator/FullMath.sol\":1115:1131  fullDiv(l, h, d) */\n      tag_85\n        /* \"ExodusBondingCalculator/FullMath.sol\":1123:1124  l */\n      dup4\n        /* \"ExodusBondingCalculator/FullMath.sol\":1126:1127  h */\n      dup4\n        /* \"ExodusBondingCalculator/FullMath.sol\":1129:1130  d */\n      dup8\n        /* \"ExodusBondingCalculator/FullMath.sol\":1115:1122  fullDiv */\n      tag_147\n        /* \"ExodusBondingCalculator/FullMath.sol\":1115:1131  fullDiv(l, h, d) */\n      jump\t// in\n        /* \"ExodusBondingCalculator/SafeMath.sol\":477:694  function sub(... */\n    tag_117:\n        /* \"ExodusBondingCalculator/SafeMath.sol\":593:600  uint256 */\n      0x00\n        /* \"ExodusBondingCalculator/SafeMath.sol\":628:640  errorMessage */\n      dup2\n        /* \"ExodusBondingCalculator/SafeMath.sol\":620:626  b <= a */\n      dup5\n      dup5\n      gt\n      iszero\n        /* \"ExodusBondingCalculator/SafeMath.sol\":612:641  require(b <= a, errorMessage) */\n      tag_149\n      jumpi\n      mload(0x40)\n      shl(0xe5, 0x461bcd)\n      dup2\n      mstore\n      0x20\n      0x04\n      dup3\n      add\n      dup2\n      dup2\n      mstore\n      dup4\n      mload\n      0x24\n      dup5\n      add\n      mstore\n      dup4\n      mload\n      swap1\n      swap3\n      dup4\n      swap3\n      0x44\n      swap1\n      swap2\n      add\n      swap2\n      swap1\n      dup6\n      add\n      swap1\n      dup1\n      dup4\n      dup4\n      0x00\n      dup4\n      iszero\n      tag_133\n      jumpi\n      dup2\n      dup2\n      add\n      mload\n      dup4\n      dup3\n      add\n      mstore\n      0x20\n      add\n      jump(tag_131)\n    tag_149:\n      pop\n      pop\n      pop\n        /* \"ExodusBondingCalculator/SafeMath.sol\":663:668  a - b */\n      swap1\n      sub\n      swap1\n        /* \"ExodusBondingCalculator/SafeMath.sol\":477:694  function sub(... */\n      jump\t// out\n        /* \"ExodusBondingCalculator/FullMath.sol\":85:290  function fullMul(uint256 x, uint256 y) private pure returns (uint256 l, uint256 h) {... */\n    tag_140:\n        /* \"ExodusBondingCalculator/FullMath.sol\":146:155  uint256 l */\n      0x00\n      dup1\n      dup1\n      not(0x00)\n        /* \"ExodusBondingCalculator/FullMath.sol\":201:202  y */\n      dup5\n        /* \"ExodusBondingCalculator/FullMath.sol\":198:199  x */\n      dup7\n        /* \"ExodusBondingCalculator/FullMath.sol\":191:216  mulmod(x, y, uint256(-1)) */\n      mulmod\n        /* \"ExodusBondingCalculator/FullMath.sol\":178:216  uint256 mm = mulmod(x, y, uint256(-1)) */\n      swap1\n      pop\n        /* \"ExodusBondingCalculator/FullMath.sol\":234:235  y */\n      dup4\n        /* \"ExodusBondingCalculator/FullMath.sol\":230:231  x */\n      dup6\n        /* \"ExodusBondingCalculator/FullMath.sol\":230:235  x * y */\n      mul\n        /* \"ExodusBondingCalculator/FullMath.sol\":226:235  l = x * y */\n      swap3\n      pop\n        /* \"ExodusBondingCalculator/FullMath.sol\":254:255  l */\n      dup3\n        /* \"ExodusBondingCalculator/FullMath.sol\":249:251  mm */\n      dup2\n        /* \"ExodusBondingCalculator/FullMath.sol\":249:255  mm - l */\n      sub\n        /* \"ExodusBondingCalculator/FullMath.sol\":245:255  h = mm - l */\n      swap2\n      pop\n        /* \"ExodusBondingCalculator/FullMath.sol\":274:275  l */\n      dup3\n        /* \"ExodusBondingCalculator/FullMath.sol\":269:271  mm */\n      dup2\n        /* \"ExodusBondingCalculator/FullMath.sol\":269:275  mm < l */\n      lt\n        /* \"ExodusBondingCalculator/FullMath.sol\":265:283  if (mm < l) h -= 1 */\n      iszero\n      tag_156\n      jumpi\n        /* \"ExodusBondingCalculator/FullMath.sol\":282:283  1 */\n      0x01\n        /* \"ExodusBondingCalculator/FullMath.sol\":277:283  h -= 1 */\n      dup3\n      sub\n      swap2\n      pop\n        /* \"ExodusBondingCalculator/FullMath.sol\":265:283  if (mm < l) h -= 1 */\n    tag_156:\n        /* \"ExodusBondingCalculator/FullMath.sol\":85:290  function fullMul(uint256 x, uint256 y) private pure returns (uint256 l, uint256 h) {... */\n      pop\n      swap3\n      pop\n      swap3\n      swap1\n      pop\n      jump\t// out\n        /* \"ExodusBondingCalculator/FullMath.sol\":296:759  function fullDiv(... */\n    tag_147:\n        /* \"ExodusBondingCalculator/FullMath.sol\":398:405  uint256 */\n      0x00\n        /* \"ExodusBondingCalculator/FullMath.sol\":436:438  -d */\n      dup2\n      dup2\n      sub\n        /* \"ExodusBondingCalculator/FullMath.sol\":432:438  d & -d */\n      dup3\n      and\n      dup1\n        /* \"ExodusBondingCalculator/FullMath.sol\":437:438  d */\n      dup4\n        /* \"ExodusBondingCalculator/FullMath.sol\":432:438  d & -d */\n      dup2\n        /* \"ExodusBondingCalculator/FullMath.sol\":448:457  d /= pow2 */\n      tag_158\n      jumpi\n      invalid\n    tag_158:\n      div\n      swap3\n      pop\n        /* \"ExodusBondingCalculator/FullMath.sol\":472:476  pow2 */\n      dup1\n        /* \"ExodusBondingCalculator/FullMath.sol\":467:476  l /= pow2 */\n      dup6\n      dup2\n      tag_159\n      jumpi\n      invalid\n    tag_159:\n      div\n      swap5\n      pop\n        /* \"ExodusBondingCalculator/FullMath.sol\":506:510  pow2 */\n      dup1\n        /* \"ExodusBondingCalculator/FullMath.sol\":498:502  pow2 */\n      dup2\n        /* \"ExodusBondingCalculator/FullMath.sol\":497:502  -pow2 */\n      0x00\n      sub\n        /* \"ExodusBondingCalculator/FullMath.sol\":496:510  (-pow2) / pow2 */\n      dup2\n      tag_160\n      jumpi\n      invalid\n    tag_160:\n        /* \"ExodusBondingCalculator/FullMath.sol\":553:554  2 */\n      0x02\n        /* \"ExodusBondingCalculator/FullMath.sol\":553:562  2 - d * r */\n      dup6\n      dup2\n      sub\n        /* \"ExodusBondingCalculator/FullMath.sol\":581:586  d * r */\n      dup1\n      dup8\n      mul\n        /* \"ExodusBondingCalculator/FullMath.sol\":577:586  2 - d * r */\n      dup3\n      sub\n        /* \"ExodusBondingCalculator/FullMath.sol\":572:586  r *= 2 - d * r */\n      mul\n        /* \"ExodusBondingCalculator/FullMath.sol\":605:610  d * r */\n      dup1\n      dup8\n      mul\n        /* \"ExodusBondingCalculator/FullMath.sol\":601:610  2 - d * r */\n      dup3\n      sub\n        /* \"ExodusBondingCalculator/FullMath.sol\":596:610  r *= 2 - d * r */\n      mul\n        /* \"ExodusBondingCalculator/FullMath.sol\":629:634  d * r */\n      dup1\n      dup8\n      mul\n        /* \"ExodusBondingCalculator/FullMath.sol\":625:634  2 - d * r */\n      dup3\n      sub\n        /* \"ExodusBondingCalculator/FullMath.sol\":620:634  r *= 2 - d * r */\n      mul\n        /* \"ExodusBondingCalculator/FullMath.sol\":653:658  d * r */\n      dup1\n      dup8\n      mul\n        /* \"ExodusBondingCalculator/FullMath.sol\":649:658  2 - d * r */\n      dup3\n      sub\n        /* \"ExodusBondingCalculator/FullMath.sol\":644:658  r *= 2 - d * r */\n      mul\n        /* \"ExodusBondingCalculator/FullMath.sol\":677:682  d * r */\n      dup1\n      dup8\n      mul\n        /* \"ExodusBondingCalculator/FullMath.sol\":673:682  2 - d * r */\n      dup3\n      sub\n        /* \"ExodusBondingCalculator/FullMath.sol\":668:682  r *= 2 - d * r */\n      mul\n        /* \"ExodusBondingCalculator/FullMath.sol\":701:706  d * r */\n      dup1\n      dup8\n      mul\n        /* \"ExodusBondingCalculator/FullMath.sol\":697:706  2 - d * r */\n      dup3\n      sub\n        /* \"ExodusBondingCalculator/FullMath.sol\":692:706  r *= 2 - d * r */\n      mul\n        /* \"ExodusBondingCalculator/FullMath.sol\":725:730  d * r */\n      swap6\n      dup7\n      mul\n        /* \"ExodusBondingCalculator/FullMath.sol\":721:730  2 - d * r */\n      swap1\n      sub\n        /* \"ExodusBondingCalculator/FullMath.sol\":716:730  r *= 2 - d * r */\n      swap1\n      swap5\n      mul\n        /* \"ExodusBondingCalculator/FullMath.sol\":496:510  (-pow2) / pow2 */\n      swap4\n      div\n        /* \"ExodusBondingCalculator/FullMath.sol\":513:514  1 */\n      0x01\n        /* \"ExodusBondingCalculator/FullMath.sol\":496:514  (-pow2) / pow2 + 1 */\n      add\n        /* \"ExodusBondingCalculator/FullMath.sol\":491:515  h * ((-pow2) / pow2 + 1) */\n      swap4\n      swap1\n      swap4\n      mul\n        /* \"ExodusBondingCalculator/FullMath.sol\":486:515  l += h * ((-pow2) / pow2 + 1) */\n      swap4\n      swap1\n      swap4\n      add\n        /* \"ExodusBondingCalculator/FullMath.sol\":747:752  l * r */\n      mul\n      swap3\n        /* \"ExodusBondingCalculator/FullMath.sol\":296:759  function fullDiv(... */\n      swap2\n      pop\n      pop\n      jump\t// out\n    tag_100:\n      0x40\n      dup1\n      mload\n      0x20\n      dup2\n      add\n      swap1\n      swap2\n      mstore\n      0x00\n      dup2\n      mstore\n      swap1\n      jump\t// out\n    stop\n    data_5e8a6c8dfacd0a41f2501735d8ee26d996b9e7e81ff5467dfdfd11a3728a15e7 4669786564506f696e743a3a6672616374696f6e3a206469766973696f6e206279207a65726f\n    data_9113bb53c2876a3805b2c9242029423fc540a728243ce887ab24c82cf119fba3 536166654d6174683a206d756c7469706c69636174696f6e206f766572666c6f77\n\n    auxdata: 0xa2646970667358221220bc258b3c2d2c4f590789b9db95fef5a8ae5e00f7db3305de7e31106f6682bbff64736f6c63430007050033\n}\n",
				"bytecode": {
					"linkReferences": {},
					"object": "60a060405234801561001057600080fd5b50604051610eaf380380610eaf8339818101604052602081101561003357600080fd5b50516001600160a01b038116610084576040805162461bcd60e51b81526020600482015260116024820152705a65726f20616464726573733a2045584f60781b604482015290519081900360640190fd5b606081901b6001600160601b0319166080526001600160a01b0316610def6100c0600039806101c2528061024e528061034a5250610def6000f3fe608060405234801561001057600080fd5b506004361061004c5760003560e01c806332da80a3146100515780634249719f14610089578063490084ef146100b557806368637549146100db575b600080fd5b6100776004803603602081101561006757600080fd5b50356001600160a01b0316610101565b60408051918252519081900360200190f35b6100776004803603604081101561009f57600080fd5b506001600160a01b0381351690602001356103ee565b610077600480360360208110156100cb57600080fd5b50356001600160a01b0316610496565b610077600480360360208110156100f157600080fd5b50356001600160a01b031661079c565b6000806000836001600160a01b0316630902f1ac6040518163ffffffff1660e01b815260040160606040518083038186803b15801561013f57600080fd5b505afa158015610153573d6000803e3d6000fd5b505050506040513d606081101561016957600080fd5b508051602091820151604080517f0dfe168100000000000000000000000000000000000000000000000000000000815290516dffffffffffffffffffffffffffff93841696509290911693506000926001600160a01b037f000000000000000000000000000000000000000000000000000000000000000081169390891692630dfe1681926004808301939192829003018186803b15801561020a57600080fd5b505afa15801561021e573d6000803e3d6000fd5b505050506040513d602081101561023457600080fd5b50516001600160a01b0316141561024c575080610339565b7f00000000000000000000000000000000000000000000000000000000000000006001600160a01b0316856001600160a01b031663d21220a76040518163ffffffff1660e01b815260040160206040518083038186803b1580156102af57600080fd5b505afa1580156102c3573d6000803e3d6000fd5b505050506040513d60208110156102d957600080fd5b50516001600160a01b031614610336576040805162461bcd60e51b815260206004820152600c60248201527f496e76616c696420706169720000000000000000000000000000000000000000604482015290519081900360640190fd5b50815b6103e36103458661079c565b6103dd7f00000000000000000000000000000000000000000000000000000000000000006001600160a01b031663313ce5676040518163ffffffff1660e01b815260040160206040518083038186803b1580156103a157600080fd5b505afa1580156103b5573d6000803e3d6000fd5b505050506040513d60208110156103cb57600080fd5b5051849060ff16600a0a6002026107c0565b90610820565b93505050505b919050565b6000806103fa8461079c565b90506000846001600160a01b03166318160ddd6040518163ffffffff1660e01b815260040160206040518083038186803b15801561043757600080fd5b505afa15801561044b573d6000803e3d6000fd5b505050506040513d602081101561046157600080fd5b5051905061048d670de0b6b3a76400006103dd6104866104818886610862565b6109e4565b85906107c0565b95945050505050565b600080826001600160a01b0316630dfe16816040518163ffffffff1660e01b815260040160206040518083038186803b1580156104d257600080fd5b505afa1580156104e6573d6000803e3d6000fd5b505050506040513d60208110156104fc57600080fd5b50516040805163313ce56760e01b815290516001600160a01b039092169163313ce56791600480820192602092909190829003018186803b15801561054057600080fd5b505afa158015610554573d6000803e3d6000fd5b505050506040513d602081101561056a57600080fd5b5051604080517fd21220a7000000000000000000000000000000000000000000000000000000008152905160ff90921692506000916001600160a01b0386169163d21220a7916004808301926020929190829003018186803b1580156105cf57600080fd5b505afa1580156105e3573d6000803e3d6000fd5b505050506040513d60208110156105f957600080fd5b50516040805163313ce56760e01b815290516001600160a01b039092169163313ce56791600480820192602092909190829003018186803b15801561063d57600080fd5b505afa158015610651573d6000803e3d6000fd5b505050506040513d602081101561066757600080fd5b50516040805163313ce56760e01b8152905160ff90921692506000916106f7916001600160a01b0388169163313ce56791600480820192602092909190829003018186803b1580156106b857600080fd5b505afa1580156106cc573d6000803e3d6000fd5b505050506040513d60208110156106e257600080fd5b505160ff166106f185856109fc565b90610a56565b9050600080866001600160a01b0316630902f1ac6040518163ffffffff1660e01b815260040160606040518083038186803b15801561073557600080fd5b505afa158015610749573d6000803e3d6000fd5b505050506040513d606081101561075f57600080fd5b5080516020909101516dffffffffffffffffffffffffffff9182169350169050610791600a84900a6103dd84846107c0565b979650505050505050565b60006107ba60026107b46107af85610496565b610a98565b906107c0565b92915050565b6000826107cf575060006107ba565b828202828482816107dc57fe5b04146108195760405162461bcd60e51b8152600401808060200182810382526021815260200180610d996021913960400191505060405180910390fd5b9392505050565b600061081983836040518060400160405280601a81526020017f536166654d6174683a206469766973696f6e206279207a65726f000000000000815250610b02565b61086a610d60565b600082116108a95760405162461bcd60e51b8152600401808060200182810382526026815260200180610d736026913960400191505060405180910390fd5b826108c357506040805160208101909152600081526107ba565b71ffffffffffffffffffffffffffffffffffff831161096a57600082607085901b816108eb57fe5b0490506001600160e01b0381111561094a576040805162461bcd60e51b815260206004820152601e60248201527f4669786564506f696e743a3a6672616374696f6e3a206f766572666c6f770000604482015290519081900360640190fd5b6040518060200160405280826001600160e01b03168152509150506107ba565b6000610986846e01000000000000000000000000000085610bbb565b90506001600160e01b0381111561094a576040805162461bcd60e51b815260206004820152601e60248201527f4669786564506f696e743a3a6672616374696f6e3a206f766572666c6f770000604482015290519081900360640190fd5b516612725dd1d243ab6001600160e01b039091160490565b600082820183811015610819576040805162461bcd60e51b815260206004820152601b60248201527f536166654d6174683a206164646974696f6e206f766572666c6f770000000000604482015290519081900360640190fd5b600061081983836040518060400160405280601e81526020017f536166654d6174683a207375627472616374696f6e206f766572666c6f770000815250610c69565b60006003821115610af45750806000610abc610ab5836002610820565b60016109fc565b90505b81811015610aee57809150610ae7610ae0610ada8584610820565b836109fc565b6002610820565b9050610abf565b506103e9565b81156103e957506001919050565b60008183610b8e5760405162461bcd60e51b81526004018080602001828103825283818151815260200191508051906020019080838360005b83811015610b53578181015183820152602001610b3b565b50505050905090810190601f168015610b805780820380516001836020036101000a031916815260200191505b509250505060405180910390fd5b506000838581610b9a57fe5b049050838581610ba657fe5b06818502018514610bb357fe5b949350505050565b6000806000610bca8686610cc3565b9150915060008480610bd857fe5b868809905082811115610bec576001820391505b918290039181610c0a57848381610bff57fe5b049350505050610819565b848210610c5e576040805162461bcd60e51b815260206004820152601a60248201527f46756c6c4d6174683a2046554c4c4449565f4f564552464c4f57000000000000604482015290519081900360640190fd5b610791838387610cf0565b60008184841115610cbb5760405162461bcd60e51b8152602060048201818152835160248401528351909283926044909101919085019080838360008315610b53578181015183820152602001610b3b565b505050900390565b6000808060001984860990508385029250828103915082811015610ce8576001820391505b509250929050565b60008181038216808381610d0057fe5b049250808581610d0c57fe5b049450808160000381610d1b57fe5b60028581038087028203028087028203028087028203028087028203028087028203028087028203029586029003909402930460010193909302939093010292915050565b6040805160208101909152600081529056fe4669786564506f696e743a3a6672616374696f6e3a206469766973696f6e206279207a65726f536166654d6174683a206d756c7469706c69636174696f6e206f766572666c6f77a2646970667358221220bc258b3c2d2c4f590789b9db95fef5a8ae5e00f7db3305de7e31106f6682bbff64736f6c63430007050033",
					"opcodes": "PUSH1 0xA0 PUSH1 0x40 MSTORE CALLVALUE DUP1 ISZERO PUSH2 0x10 JUMPI PUSH1 0x0 DUP1 REVERT JUMPDEST POP PUSH1 0x40 MLOAD PUSH2 0xEAF CODESIZE SUB DUP1 PUSH2 0xEAF DUP4 CODECOPY DUP2 DUP2 ADD PUSH1 0x40 MSTORE PUSH1 0x20 DUP2 LT ISZERO PUSH2 0x33 JUMPI PUSH1 0x0 DUP1 REVERT JUMPDEST POP MLOAD PUSH1 0x1 PUSH1 0x1 PUSH1 0xA0 SHL SUB DUP2 AND PUSH2 0x84 JUMPI PUSH1 0x40 DUP1 MLOAD PUSH3 0x461BCD PUSH1 0xE5 SHL DUP2 MSTORE PUSH1 0x20 PUSH1 0x4 DUP3 ADD MSTORE PUSH1 0x11 PUSH1 0x24 DUP3 ADD MSTORE PUSH17 0x5A65726F20616464726573733A2045584F PUSH1 0x78 SHL PUSH1 0x44 DUP3 ADD MSTORE SWAP1 MLOAD SWAP1 DUP2 SWAP1 SUB PUSH1 0x64 ADD SWAP1 REVERT JUMPDEST PUSH1 0x60 DUP2 SWAP1 SHL PUSH1 0x1 PUSH1 0x1 PUSH1 0x60 SHL SUB NOT AND PUSH1 0x80 MSTORE PUSH1 0x1 PUSH1 0x1 PUSH1 0xA0 SHL SUB AND PUSH2 0xDEF PUSH2 0xC0 PUSH1 0x0 CODECOPY DUP1 PUSH2 0x1C2 MSTORE DUP1 PUSH2 0x24E MSTORE DUP1 PUSH2 0x34A MSTORE POP PUSH2 0xDEF PUSH1 0x0 RETURN INVALID PUSH1 0x80 PUSH1 0x40 MSTORE CALLVALUE DUP1 ISZERO PUSH2 0x10 JUMPI PUSH1 0x0 DUP1 REVERT JUMPDEST POP PUSH1 0x4 CALLDATASIZE LT PUSH2 0x4C JUMPI PUSH1 0x0 CALLDATALOAD PUSH1 0xE0 SHR DUP1 PUSH4 0x32DA80A3 EQ PUSH2 0x51 JUMPI DUP1 PUSH4 0x4249719F EQ PUSH2 0x89 JUMPI DUP1 PUSH4 0x490084EF EQ PUSH2 0xB5 JUMPI DUP1 PUSH4 0x68637549 EQ PUSH2 0xDB JUMPI JUMPDEST PUSH1 0x0 DUP1 REVERT JUMPDEST PUSH2 0x77 PUSH1 0x4 DUP1 CALLDATASIZE SUB PUSH1 0x20 DUP2 LT ISZERO PUSH2 0x67 JUMPI PUSH1 0x0 DUP1 REVERT JUMPDEST POP CALLDATALOAD PUSH1 0x1 PUSH1 0x1 PUSH1 0xA0 SHL SUB AND PUSH2 0x101 JUMP JUMPDEST PUSH1 0x40 DUP1 MLOAD SWAP2 DUP3 MSTORE MLOAD SWAP1 DUP2 SWAP1 SUB PUSH1 0x20 ADD SWAP1 RETURN JUMPDEST PUSH2 0x77 PUSH1 0x4 DUP1 CALLDATASIZE SUB PUSH1 0x40 DUP2 LT ISZERO PUSH2 0x9F JUMPI PUSH1 0x0 DUP1 REVERT JUMPDEST POP PUSH1 0x1 PUSH1 0x1 PUSH1 0xA0 SHL SUB DUP2 CALLDATALOAD AND SWAP1 PUSH1 0x20 ADD CALLDATALOAD PUSH2 0x3EE JUMP JUMPDEST PUSH2 0x77 PUSH1 0x4 DUP1 CALLDATASIZE SUB PUSH1 0x20 DUP2 LT ISZERO PUSH2 0xCB JUMPI PUSH1 0x0 DUP1 REVERT JUMPDEST POP CALLDATALOAD PUSH1 0x1 PUSH1 0x1 PUSH1 0xA0 SHL SUB AND PUSH2 0x496 JUMP JUMPDEST PUSH2 0x77 PUSH1 0x4 DUP1 CALLDATASIZE SUB PUSH1 0x20 DUP2 LT ISZERO PUSH2 0xF1 JUMPI PUSH1 0x0 DUP1 REVERT JUMPDEST POP CALLDATALOAD PUSH1 0x1 PUSH1 0x1 PUSH1 0xA0 SHL SUB AND PUSH2 0x79C JUMP JUMPDEST PUSH1 0x0 DUP1 PUSH1 0x0 DUP4 PUSH1 0x1 PUSH1 0x1 PUSH1 0xA0 SHL SUB AND PUSH4 0x902F1AC PUSH1 0x40 MLOAD DUP2 PUSH4 0xFFFFFFFF AND PUSH1 0xE0 SHL DUP2 MSTORE PUSH1 0x4 ADD PUSH1 0x60 PUSH1 0x40 MLOAD DUP1 DUP4 SUB DUP2 DUP7 DUP1 EXTCODESIZE ISZERO DUP1 ISZERO PUSH2 0x13F JUMPI PUSH1 0x0 DUP1 REVERT JUMPDEST POP GAS STATICCALL ISZERO DUP1 ISZERO PUSH2 0x153 JUMPI RETURNDATASIZE PUSH1 0x0 DUP1 RETURNDATACOPY RETURNDATASIZE PUSH1 0x0 REVERT JUMPDEST POP POP POP POP PUSH1 0x40 MLOAD RETURNDATASIZE PUSH1 0x60 DUP2 LT ISZERO PUSH2 0x169 JUMPI PUSH1 0x0 DUP1 REVERT JUMPDEST POP DUP1 MLOAD PUSH1 0x20 SWAP2 DUP3 ADD MLOAD PUSH1 0x40 DUP1 MLOAD PUSH32 0xDFE168100000000000000000000000000000000000000000000000000000000 DUP2 MSTORE SWAP1 MLOAD PUSH14 0xFFFFFFFFFFFFFFFFFFFFFFFFFFFF SWAP4 DUP5 AND SWAP7 POP SWAP3 SWAP1 SWAP2 AND SWAP4 POP PUSH1 0x0 SWAP3 PUSH1 0x1 PUSH1 0x1 PUSH1 0xA0 SHL SUB PUSH32 0x0 DUP2 AND SWAP4 SWAP1 DUP10 AND SWAP3 PUSH4 0xDFE1681 SWAP3 PUSH1 0x4 DUP1 DUP4 ADD SWAP4 SWAP2 SWAP3 DUP3 SWAP1 SUB ADD DUP2 DUP7 DUP1 EXTCODESIZE ISZERO DUP1 ISZERO PUSH2 0x20A JUMPI PUSH1 0x0 DUP1 REVERT JUMPDEST POP GAS STATICCALL ISZERO DUP1 ISZERO PUSH2 0x21E JUMPI RETURNDATASIZE PUSH1 0x0 DUP1 RETURNDATACOPY RETURNDATASIZE PUSH1 0x0 REVERT JUMPDEST POP POP POP POP PUSH1 0x40 MLOAD RETURNDATASIZE PUSH1 0x20 DUP2 LT ISZERO PUSH2 0x234 JUMPI PUSH1 0x0 DUP1 REVERT JUMPDEST POP MLOAD PUSH1 0x1 PUSH1 0x1 PUSH1 0xA0 SHL SUB AND EQ ISZERO PUSH2 0x24C JUMPI POP DUP1 PUSH2 0x339 JUMP JUMPDEST PUSH32 0x0 PUSH1 0x1 PUSH1 0x1 PUSH1 0xA0 SHL SUB AND DUP6 PUSH1 0x1 PUSH1 0x1 PUSH1 0xA0 SHL SUB AND PUSH4 0xD21220A7 PUSH1 0x40 MLOAD DUP2 PUSH4 0xFFFFFFFF AND PUSH1 0xE0 SHL DUP2 MSTORE PUSH1 0x4 ADD PUSH1 0x20 PUSH1 0x40 MLOAD DUP1 DUP4 SUB DUP2 DUP7 DUP1 EXTCODESIZE ISZERO DUP1 ISZERO PUSH2 0x2AF JUMPI PUSH1 0x0 DUP1 REVERT JUMPDEST POP GAS STATICCALL ISZERO DUP1 ISZERO PUSH2 0x2C3 JUMPI RETURNDATASIZE PUSH1 0x0 DUP1 RETURNDATACOPY RETURNDATASIZE PUSH1 0x0 REVERT JUMPDEST POP POP POP POP PUSH1 0x40 MLOAD RETURNDATASIZE PUSH1 0x20 DUP2 LT ISZERO PUSH2 0x2D9 JUMPI PUSH1 0x0 DUP1 REVERT JUMPDEST POP MLOAD PUSH1 0x1 PUSH1 0x1 PUSH1 0xA0 SHL SUB AND EQ PUSH2 0x336 JUMPI PUSH1 0x40 DUP1 MLOAD PUSH3 0x461BCD PUSH1 0xE5 SHL DUP2 MSTORE PUSH1 0x20 PUSH1 0x4 DUP3 ADD MSTORE PUSH1 0xC PUSH1 0x24 DUP3 ADD MSTORE PUSH32 0x496E76616C696420706169720000000000000000000000000000000000000000 PUSH1 0x44 DUP3 ADD MSTORE SWAP1 MLOAD SWAP1 DUP2 SWAP1 SUB PUSH1 0x64 ADD SWAP1 REVERT JUMPDEST POP DUP2 JUMPDEST PUSH2 0x3E3 PUSH2 0x345 DUP7 PUSH2 0x79C JUMP JUMPDEST PUSH2 0x3DD PUSH32 0x0 PUSH1 0x1 PUSH1 0x1 PUSH1 0xA0 SHL SUB AND PUSH4 0x313CE567 PUSH1 0x40 MLOAD DUP2 PUSH4 0xFFFFFFFF AND PUSH1 0xE0 SHL DUP2 MSTORE PUSH1 0x4 ADD PUSH1 0x20 PUSH1 0x40 MLOAD DUP1 DUP4 SUB DUP2 DUP7 DUP1 EXTCODESIZE ISZERO DUP1 ISZERO PUSH2 0x3A1 JUMPI PUSH1 0x0 DUP1 REVERT JUMPDEST POP GAS STATICCALL ISZERO DUP1 ISZERO PUSH2 0x3B5 JUMPI RETURNDATASIZE PUSH1 0x0 DUP1 RETURNDATACOPY RETURNDATASIZE PUSH1 0x0 REVERT JUMPDEST POP POP POP POP PUSH1 0x40 MLOAD RETURNDATASIZE PUSH1 0x20 DUP2 LT ISZERO PUSH2 0x3CB JUMPI PUSH1 0x0 DUP1 REVERT JUMPDEST POP MLOAD DUP5 SWAP1 PUSH1 0xFF AND PUSH1 0xA EXP PUSH1 0x2 MUL PUSH2 0x7C0 JUMP JUMPDEST SWAP1 PUSH2 0x820 JUMP JUMPDEST SWAP4 POP POP POP POP JUMPDEST SWAP2 SWAP1 POP JUMP JUMPDEST PUSH1 0x0 DUP1 PUSH2 0x3FA DUP5 PUSH2 0x79C JUMP JUMPDEST SWAP1 POP PUSH1 0x0 DUP5 PUSH1 0x1 PUSH1 0x1 PUSH1 0xA0 SHL SUB AND PUSH4 0x18160DDD PUSH1 0x40 MLOAD DUP2 PUSH4 0xFFFFFFFF AND PUSH1 0xE0 SHL DUP2 MSTORE PUSH1 0x4 ADD PUSH1 0x20 PUSH1 0x40 MLOAD DUP1 DUP4 SUB DUP2 DUP7 DUP1 EXTCODESIZE ISZERO DUP1 ISZERO PUSH2 0x437 JUMPI PUSH1 0x0 DUP1 REVERT JUMPDEST POP GAS STATICCALL ISZERO DUP1 ISZERO PUSH2 0x44B JUMPI RETURNDATASIZE PUSH1 0x0 DUP1 RETURNDATACOPY RETURNDATASIZE PUSH1 0x0 REVERT JUMPDEST POP POP POP POP PUSH1 0x40 MLOAD RETURNDATASIZE PUSH1 0x20 DUP2 LT ISZERO PUSH2 0x461 JUMPI PUSH1 0x0 DUP1 REVERT JUMPDEST POP MLOAD SWAP1 POP PUSH2 0x48D PUSH8 0xDE0B6B3A7640000 PUSH2 0x3DD PUSH2 0x486 PUSH2 0x481 DUP9 DUP7 PUSH2 0x862 JUMP JUMPDEST PUSH2 0x9E4 JUMP JUMPDEST DUP6 SWAP1 PUSH2 0x7C0 JUMP JUMPDEST SWAP6 SWAP5 POP POP POP POP POP JUMP JUMPDEST PUSH1 0x0 DUP1 DUP3 PUSH1 0x1 PUSH1 0x1 PUSH1 0xA0 SHL SUB AND PUSH4 0xDFE1681 PUSH1 0x40 MLOAD DUP2 PUSH4 0xFFFFFFFF AND PUSH1 0xE0 SHL DUP2 MSTORE PUSH1 0x4 ADD PUSH1 0x20 PUSH1 0x40 MLOAD DUP1 DUP4 SUB DUP2 DUP7 DUP1 EXTCODESIZE ISZERO DUP1 ISZERO PUSH2 0x4D2 JUMPI PUSH1 0x0 DUP1 REVERT JUMPDEST POP GAS STATICCALL ISZERO DUP1 ISZERO PUSH2 0x4E6 JUMPI RETURNDATASIZE PUSH1 0x0 DUP1 RETURNDATACOPY RETURNDATASIZE PUSH1 0x0 REVERT JUMPDEST POP POP POP POP PUSH1 0x40 MLOAD RETURNDATASIZE PUSH1 0x20 DUP2 LT ISZERO PUSH2 0x4FC JUMPI PUSH1 0x0 DUP1 REVERT JUMPDEST POP MLOAD PUSH1 0x40 DUP1 MLOAD PUSH4 0x313CE567 PUSH1 0xE0 SHL DUP2 MSTORE SWAP1 MLOAD PUSH1 0x1 PUSH1 0x1 PUSH1 0xA0 SHL SUB SWAP1 SWAP3 AND SWAP2 PUSH4 0x313CE567 SWAP2 PUSH1 0x4 DUP1 DUP3 ADD SWAP3 PUSH1 0x20 SWAP3 SWAP1 SWAP2 SWAP1 DUP3 SWAP1 SUB ADD DUP2 DUP7 DUP1 EXTCODESIZE ISZERO DUP1 ISZERO PUSH2 0x540 JUMPI PUSH1 0x0 DUP1 REVERT JUMPDEST POP GAS STATICCALL ISZERO DUP1 ISZERO PUSH2 0x554 JUMPI RETURNDATASIZE PUSH1 0x0 DUP1 RETURNDATACOPY RETURNDATASIZE PUSH1 0x0 REVERT JUMPDEST POP POP POP POP PUSH1 0x40 MLOAD RETURNDATASIZE PUSH1 0x20 DUP2 LT ISZERO PUSH2 0x56A JUMPI PUSH1 0x0 DUP1 REVERT JUMPDEST POP MLOAD PUSH1 0x40 DUP1 MLOAD PUSH32 0xD21220A700000000000000000000000000000000000000000000000000000000 DUP2 MSTORE SWAP1 MLOAD PUSH1 0xFF SWAP1 SWAP3 AND SWAP3 POP PUSH1 0x0 SWAP2 PUSH1 0x1 PUSH1 0x1 PUSH1 0xA0 SHL SUB DUP7 AND SWAP2 PUSH4 0xD21220A7 SWAP2 PUSH1 0x4 DUP1 DUP4 ADD SWAP3 PUSH1 0x20 SWAP3 SWAP2 SWAP1 DUP3 SWAP1 SUB ADD DUP2 DUP7 DUP1 EXTCODESIZE ISZERO DUP1 ISZERO PUSH2 0x5CF JUMPI PUSH1 0x0 DUP1 REVERT JUMPDEST POP GAS STATICCALL ISZERO DUP1 ISZERO PUSH2 0x5E3 JUMPI RETURNDATASIZE PUSH1 0x0 DUP1 RETURNDATACOPY RETURNDATASIZE PUSH1 0x0 REVERT JUMPDEST POP POP POP POP PUSH1 0x40 MLOAD RETURNDATASIZE PUSH1 0x20 DUP2 LT ISZERO PUSH2 0x5F9 JUMPI PUSH1 0x0 DUP1 REVERT JUMPDEST POP MLOAD PUSH1 0x40 DUP1 MLOAD PUSH4 0x313CE567 PUSH1 0xE0 SHL DUP2 MSTORE SWAP1 MLOAD PUSH1 0x1 PUSH1 0x1 PUSH1 0xA0 SHL SUB SWAP1 SWAP3 AND SWAP2 PUSH4 0x313CE567 SWAP2 PUSH1 0x4 DUP1 DUP3 ADD SWAP3 PUSH1 0x20 SWAP3 SWAP1 SWAP2 SWAP1 DUP3 SWAP1 SUB ADD DUP2 DUP7 DUP1 EXTCODESIZE ISZERO DUP1 ISZERO PUSH2 0x63D JUMPI PUSH1 0x0 DUP1 REVERT JUMPDEST POP GAS STATICCALL ISZERO DUP1 ISZERO PUSH2 0x651 JUMPI RETURNDATASIZE PUSH1 0x0 DUP1 RETURNDATACOPY RETURNDATASIZE PUSH1 0x0 REVERT JUMPDEST POP POP POP POP PUSH1 0x40 MLOAD RETURNDATASIZE PUSH1 0x20 DUP2 LT ISZERO PUSH2 0x667 JUMPI PUSH1 0x0 DUP1 REVERT JUMPDEST POP MLOAD PUSH1 0x40 DUP1 MLOAD PUSH4 0x313CE567 PUSH1 0xE0 SHL DUP2 MSTORE SWAP1 MLOAD PUSH1 0xFF SWAP1 SWAP3 AND SWAP3 POP PUSH1 0x0 SWAP2 PUSH2 0x6F7 SWAP2 PUSH1 0x1 PUSH1 0x1 PUSH1 0xA0 SHL SUB DUP9 AND SWAP2 PUSH4 0x313CE567 SWAP2 PUSH1 0x4 DUP1 DUP3 ADD SWAP3 PUSH1 0x20 SWAP3 SWAP1 SWAP2 SWAP1 DUP3 SWAP1 SUB ADD DUP2 DUP7 DUP1 EXTCODESIZE ISZERO DUP1 ISZERO PUSH2 0x6B8 JUMPI PUSH1 0x0 DUP1 REVERT JUMPDEST POP GAS STATICCALL ISZERO DUP1 ISZERO PUSH2 0x6CC JUMPI RETURNDATASIZE PUSH1 0x0 DUP1 RETURNDATACOPY RETURNDATASIZE PUSH1 0x0 REVERT JUMPDEST POP POP POP POP PUSH1 0x40 MLOAD RETURNDATASIZE PUSH1 0x20 DUP2 LT ISZERO PUSH2 0x6E2 JUMPI PUSH1 0x0 DUP1 REVERT JUMPDEST POP MLOAD PUSH1 0xFF AND PUSH2 0x6F1 DUP6 DUP6 PUSH2 0x9FC JUMP JUMPDEST SWAP1 PUSH2 0xA56 JUMP JUMPDEST SWAP1 POP PUSH1 0x0 DUP1 DUP7 PUSH1 0x1 PUSH1 0x1 PUSH1 0xA0 SHL SUB AND PUSH4 0x902F1AC PUSH1 0x40 MLOAD DUP2 PUSH4 0xFFFFFFFF AND PUSH1 0xE0 SHL DUP2 MSTORE PUSH1 0x4 ADD PUSH1 0x60 PUSH1 0x40 MLOAD DUP1 DUP4 SUB DUP2 DUP7 DUP1 EXTCODESIZE ISZERO DUP1 ISZERO PUSH2 0x735 JUMPI PUSH1 0x0 DUP1 REVERT JUMPDEST POP GAS STATICCALL ISZERO DUP1 ISZERO PUSH2 0x749 JUMPI RETURNDATASIZE PUSH1 0x0 DUP1 RETURNDATACOPY RETURNDATASIZE PUSH1 0x0 REVERT JUMPDEST POP POP POP POP PUSH1 0x40 MLOAD RETURNDATASIZE PUSH1 0x60 DUP2 LT ISZERO PUSH2 0x75F JUMPI PUSH1 0x0 DUP1 REVERT JUMPDEST POP DUP1 MLOAD PUSH1 0x20 SWAP1 SWAP2 ADD MLOAD PUSH14 0xFFFFFFFFFFFFFFFFFFFFFFFFFFFF SWAP2 DUP3 AND SWAP4 POP AND SWAP1 POP PUSH2 0x791 PUSH1 0xA DUP5 SWAP1 EXP PUSH2 0x3DD DUP5 DUP5 PUSH2 0x7C0 JUMP JUMPDEST SWAP8 SWAP7 POP POP POP POP POP POP POP JUMP JUMPDEST PUSH1 0x0 PUSH2 0x7BA PUSH1 0x2 PUSH2 0x7B4 PUSH2 0x7AF DUP6 PUSH2 0x496 JUMP JUMPDEST PUSH2 0xA98 JUMP JUMPDEST SWAP1 PUSH2 0x7C0 JUMP JUMPDEST SWAP3 SWAP2 POP POP JUMP JUMPDEST PUSH1 0x0 DUP3 PUSH2 0x7CF JUMPI POP PUSH1 0x0 PUSH2 0x7BA JUMP JUMPDEST DUP3 DUP3 MUL DUP3 DUP5 DUP3 DUP2 PUSH2 0x7DC JUMPI INVALID JUMPDEST DIV EQ PUSH2 0x819 JUMPI PUSH1 0x40 MLOAD PUSH3 0x461BCD PUSH1 0xE5 SHL DUP2 MSTORE PUSH1 0x4 ADD DUP1 DUP1 PUSH1 0x20 ADD DUP3 DUP2 SUB DUP3 MSTORE PUSH1 0x21 DUP2 MSTORE PUSH1 0x20 ADD DUP1 PUSH2 0xD99 PUSH1 0x21 SWAP2 CODECOPY PUSH1 0x40 ADD SWAP2 POP POP PUSH1 0x40 MLOAD DUP1 SWAP2 SUB SWAP1 REVERT JUMPDEST SWAP4 SWAP3 POP POP POP JUMP JUMPDEST PUSH1 0x0 PUSH2 0x819 DUP4 DUP4 PUSH1 0x40 MLOAD DUP1 PUSH1 0x40 ADD PUSH1 0x40 MSTORE DUP1 PUSH1 0x1A DUP2 MSTORE PUSH1 0x20 ADD PUSH32 0x536166654D6174683A206469766973696F6E206279207A65726F000000000000 DUP2 MSTORE POP PUSH2 0xB02 JUMP JUMPDEST PUSH2 0x86A PUSH2 0xD60 JUMP JUMPDEST PUSH1 0x0 DUP3 GT PUSH2 0x8A9 JUMPI PUSH1 0x40 MLOAD PUSH3 0x461BCD PUSH1 0xE5 SHL DUP2 MSTORE PUSH1 0x4 ADD DUP1 DUP1 PUSH1 0x20 ADD DUP3 DUP2 SUB DUP3 MSTORE PUSH1 0x26 DUP2 MSTORE PUSH1 0x20 ADD DUP1 PUSH2 0xD73 PUSH1 0x26 SWAP2 CODECOPY PUSH1 0x40 ADD SWAP2 POP POP PUSH1 0x40 MLOAD DUP1 SWAP2 SUB SWAP1 REVERT JUMPDEST DUP3 PUSH2 0x8C3 JUMPI POP PUSH1 0x40 DUP1 MLOAD PUSH1 0x20 DUP2 ADD SWAP1 SWAP2 MSTORE PUSH1 0x0 DUP2 MSTORE PUSH2 0x7BA JUMP JUMPDEST PUSH18 0xFFFFFFFFFFFFFFFFFFFFFFFFFFFFFFFFFFFF DUP4 GT PUSH2 0x96A JUMPI PUSH1 0x0 DUP3 PUSH1 0x70 DUP6 SWAP1 SHL DUP2 PUSH2 0x8EB JUMPI INVALID JUMPDEST DIV SWAP1 POP PUSH1 0x1 PUSH1 0x1 PUSH1 0xE0 SHL SUB DUP2 GT ISZERO PUSH2 0x94A JUMPI PUSH1 0x40 DUP1 MLOAD PUSH3 0x461BCD PUSH1 0xE5 SHL DUP2 MSTORE PUSH1 0x20 PUSH1 0x4 DUP3 ADD MSTORE PUSH1 0x1E PUSH1 0x24 DUP3 ADD MSTORE PUSH32 0x4669786564506F696E743A3A6672616374696F6E3A206F766572666C6F770000 PUSH1 0x44 DUP3 ADD MSTORE SWAP1 MLOAD SWAP1 DUP2 SWAP1 SUB PUSH1 0x64 ADD SWAP1 REVERT JUMPDEST PUSH1 0x40 MLOAD DUP1 PUSH1 0x20 ADD PUSH1 0x40 MSTORE DUP1 DUP3 PUSH1 0x1 PUSH1 0x1 PUSH1 0xE0 SHL SUB AND DUP2 MSTORE POP SWAP2 POP POP PUSH2 0x7BA JUMP JUMPDEST PUSH1 0x0 PUSH2 0x986 DUP5 PUSH15 0x10000000000000000000000000000 DUP6 PUSH2 0xBBB JUMP JUMPDEST SWAP1 POP PUSH1 0x1 PUSH1 0x1 PUSH1 0xE0 SHL SUB DUP2 GT ISZERO PUSH2 0x94A JUMPI PUSH1 0x40 DUP1 MLOAD PUSH3 0x461BCD PUSH1 0xE5 SHL DUP2 MSTORE PUSH1 0x20 PUSH1 0x4 DUP3 ADD MSTORE PUSH1 0x1E PUSH1 0x24 DUP3 ADD MSTORE PUSH32 0x4669786564506F696E743A3A6672616374696F6E3A206F766572666C6F770000 PUSH1 0x44 DUP3 ADD MSTORE SWAP1 MLOAD SWAP1 DUP2 SWAP1 SUB PUSH1 0x64 ADD SWAP1 REVERT JUMPDEST MLOAD PUSH7 0x12725DD1D243AB PUSH1 0x1 PUSH1 0x1 PUSH1 0xE0 SHL SUB SWAP1 SWAP2 AND DIV SWAP1 JUMP JUMPDEST PUSH1 0x0 DUP3 DUP3 ADD DUP4 DUP2 LT ISZERO PUSH2 0x819 JUMPI PUSH1 0x40 DUP1 MLOAD PUSH3 0x461BCD PUSH1 0xE5 SHL DUP2 MSTORE PUSH1 0x20 PUSH1 0x4 DUP3 ADD MSTORE PUSH1 0x1B PUSH1 0x24 DUP3 ADD MSTORE PUSH32 0x536166654D6174683A206164646974696F6E206F766572666C6F770000000000 PUSH1 0x44 DUP3 ADD MSTORE SWAP1 MLOAD SWAP1 DUP2 SWAP1 SUB PUSH1 0x64 ADD SWAP1 REVERT JUMPDEST PUSH1 0x0 PUSH2 0x819 DUP4 DUP4 PUSH1 0x40 MLOAD DUP1 PUSH1 0x40 ADD PUSH1 0x40 MSTORE DUP1 PUSH1 0x1E DUP2 MSTORE PUSH1 0x20 ADD PUSH32 0x536166654D6174683A207375627472616374696F6E206F766572666C6F770000 DUP2 MSTORE POP PUSH2 0xC69 JUMP JUMPDEST PUSH1 0x0 PUSH1 0x3 DUP3 GT ISZERO PUSH2 0xAF4 JUMPI POP DUP1 PUSH1 0x0 PUSH2 0xABC PUSH2 0xAB5 DUP4 PUSH1 0x2 PUSH2 0x820 JUMP JUMPDEST PUSH1 0x1 PUSH2 0x9FC JUMP JUMPDEST SWAP1 POP JUMPDEST DUP2 DUP2 LT ISZERO PUSH2 0xAEE JUMPI DUP1 SWAP2 POP PUSH2 0xAE7 PUSH2 0xAE0 PUSH2 0xADA DUP6 DUP5 PUSH2 0x820 JUMP JUMPDEST DUP4 PUSH2 0x9FC JUMP JUMPDEST PUSH1 0x2 PUSH2 0x820 JUMP JUMPDEST SWAP1 POP PUSH2 0xABF JUMP JUMPDEST POP PUSH2 0x3E9 JUMP JUMPDEST DUP2 ISZERO PUSH2 0x3E9 JUMPI POP PUSH1 0x1 SWAP2 SWAP1 POP JUMP JUMPDEST PUSH1 0x0 DUP2 DUP4 PUSH2 0xB8E JUMPI PUSH1 0x40 MLOAD PUSH3 0x461BCD PUSH1 0xE5 SHL DUP2 MSTORE PUSH1 0x4 ADD DUP1 DUP1 PUSH1 0x20 ADD DUP3 DUP2 SUB DUP3 MSTORE DUP4 DUP2 DUP2 MLOAD DUP2 MSTORE PUSH1 0x20 ADD SWAP2 POP DUP1 MLOAD SWAP1 PUSH1 0x20 ADD SWAP1 DUP1 DUP4 DUP4 PUSH1 0x0 JUMPDEST DUP4 DUP2 LT ISZERO PUSH2 0xB53 JUMPI DUP2 DUP2 ADD MLOAD DUP4 DUP3 ADD MSTORE PUSH1 0x20 ADD PUSH2 0xB3B JUMP JUMPDEST POP POP POP POP SWAP1 POP SWAP1 DUP2 ADD SWAP1 PUSH1 0x1F AND DUP1 ISZERO PUSH2 0xB80 JUMPI DUP1 DUP3 SUB DUP1 MLOAD PUSH1 0x1 DUP4 PUSH1 0x20 SUB PUSH2 0x100 EXP SUB NOT AND DUP2 MSTORE PUSH1 0x20 ADD SWAP2 POP JUMPDEST POP SWAP3 POP POP POP PUSH1 0x40 MLOAD DUP1 SWAP2 SUB SWAP1 REVERT JUMPDEST POP PUSH1 0x0 DUP4 DUP6 DUP2 PUSH2 0xB9A JUMPI INVALID JUMPDEST DIV SWAP1 POP DUP4 DUP6 DUP2 PUSH2 0xBA6 JUMPI INVALID JUMPDEST MOD DUP2 DUP6 MUL ADD DUP6 EQ PUSH2 0xBB3 JUMPI INVALID JUMPDEST SWAP5 SWAP4 POP POP POP POP JUMP JUMPDEST PUSH1 0x0 DUP1 PUSH1 0x0 PUSH2 0xBCA DUP7 DUP7 PUSH2 0xCC3 JUMP JUMPDEST SWAP2 POP SWAP2 POP PUSH1 0x0 DUP5 DUP1 PUSH2 0xBD8 JUMPI INVALID JUMPDEST DUP7 DUP9 MULMOD SWAP1 POP DUP3 DUP2 GT ISZERO PUSH2 0xBEC JUMPI PUSH1 0x1 DUP3 SUB SWAP2 POP JUMPDEST SWAP2 DUP3 SWAP1 SUB SWAP2 DUP2 PUSH2 0xC0A JUMPI DUP5 DUP4 DUP2 PUSH2 0xBFF JUMPI INVALID JUMPDEST DIV SWAP4 POP POP POP POP PUSH2 0x819 JUMP JUMPDEST DUP5 DUP3 LT PUSH2 0xC5E JUMPI PUSH1 0x40 DUP1 MLOAD PUSH3 0x461BCD PUSH1 0xE5 SHL DUP2 MSTORE PUSH1 0x20 PUSH1 0x4 DUP3 ADD MSTORE PUSH1 0x1A PUSH1 0x24 DUP3 ADD MSTORE PUSH32 0x46756C6C4D6174683A2046554C4C4449565F4F564552464C4F57000000000000 PUSH1 0x44 DUP3 ADD MSTORE SWAP1 MLOAD SWAP1 DUP2 SWAP1 SUB PUSH1 0x64 ADD SWAP1 REVERT JUMPDEST PUSH2 0x791 DUP4 DUP4 DUP8 PUSH2 0xCF0 JUMP JUMPDEST PUSH1 0x0 DUP2 DUP5 DUP5 GT ISZERO PUSH2 0xCBB JUMPI PUSH1 0x40 MLOAD PUSH3 0x461BCD PUSH1 0xE5 SHL DUP2 MSTORE PUSH1 0x20 PUSH1 0x4 DUP3 ADD DUP2 DUP2 MSTORE DUP4 MLOAD PUSH1 0x24 DUP5 ADD MSTORE DUP4 MLOAD SWAP1 SWAP3 DUP4 SWAP3 PUSH1 0x44 SWAP1 SWAP2 ADD SWAP2 SWAP1 DUP6 ADD SWAP1 DUP1 DUP4 DUP4 PUSH1 0x0 DUP4 ISZERO PUSH2 0xB53 JUMPI DUP2 DUP2 ADD MLOAD DUP4 DUP3 ADD MSTORE PUSH1 0x20 ADD PUSH2 0xB3B JUMP JUMPDEST POP POP POP SWAP1 SUB SWAP1 JUMP JUMPDEST PUSH1 0x0 DUP1 DUP1 PUSH1 0x0 NOT DUP5 DUP7 MULMOD SWAP1 POP DUP4 DUP6 MUL SWAP3 POP DUP3 DUP2 SUB SWAP2 POP DUP3 DUP2 LT ISZERO PUSH2 0xCE8 JUMPI PUSH1 0x1 DUP3 SUB SWAP2 POP JUMPDEST POP SWAP3 POP SWAP3 SWAP1 POP JUMP JUMPDEST PUSH1 0x0 DUP2 DUP2 SUB DUP3 AND DUP1 DUP4 DUP2 PUSH2 0xD00 JUMPI INVALID JUMPDEST DIV SWAP3 POP DUP1 DUP6 DUP2 PUSH2 0xD0C JUMPI INVALID JUMPDEST DIV SWAP5 POP DUP1 DUP2 PUSH1 0x0 SUB DUP2 PUSH2 0xD1B JUMPI INVALID JUMPDEST PUSH1 0x2 DUP6 DUP2 SUB DUP1 DUP8 MUL DUP3 SUB MUL DUP1 DUP8 MUL DUP3 SUB MUL DUP1 DUP8 MUL DUP3 SUB MUL DUP1 DUP8 MUL DUP3 SUB MUL DUP1 DUP8 MUL DUP3 SUB MUL DUP1 DUP8 MUL DUP3 SUB MUL SWAP6 DUP7 MUL SWAP1 SUB SWAP1 SWAP5 MUL SWAP4 DIV PUSH1 0x1 ADD SWAP4 SWAP1 SWAP4 MUL SWAP4 SWAP1 SWAP4 ADD MUL SWAP3 SWAP2 POP POP JUMP JUMPDEST PUSH1 0x40 DUP1 MLOAD PUSH1 0x20 DUP2 ADD SWAP1 SWAP2 MSTORE PUSH1 0x0 DUP2 MSTORE SWAP1 JUMP INVALID CHAINID PUSH10 0x786564506F696E743A3A PUSH7 0x72616374696F6E GASPRICE KECCAK256 PUSH5 0x6976697369 PUSH16 0x6E206279207A65726F536166654D6174 PUSH9 0x3A206D756C7469706C PUSH10 0x636174696F6E206F7665 PUSH19 0x666C6F77A2646970667358221220BC258B3C2D 0x2C 0x4F MSIZE SMOD DUP10 0xB9 0xDB SWAP6 INVALID CREATE2 0xA8 0xAE 0x5E STOP 0xF7 0xDB CALLER SDIV 0xDE PUSH31 0x31106F6682BBFF64736F6C6343000705003300000000000000000000000000 "
				},
				"gasEstimates": {
					"creation": {
						"codeDepositCost": "713400",
						"executionCost": "infinite",
						"totalCost": "infinite"
					},
					"external": {
						"getKValue(address)": "infinite",
						"getTotalValue(address)": "infinite",
						"markdown(address)": "infinite",
						"valuation(address,uint256)": "infinite"
					}
				},
				"methodIdentifiers": {
					"getKValue(address)": "490084ef",
					"getTotalValue(address)": "68637549",
					"markdown(address)": "32da80a3",
					"valuation(address,uint256)": "4249719f"
				}
			},
			"storageLayout": {
				"storage": [],
				"types": null
			},
			"userdoc": {
				"kind": "user",
				"methods": {},
				"version": 1
			}
		}
	}
}