{
	"ExodusTokenMigrator/OlympusTokenMigrator.sol": {
		"ExodusTokenMigrator": {
			"abi": [
				{
					"inputs": [
						{
							"internalType": "address",
							"name": "_oldEXO",
							"type": "address"
						},
						{
							"internalType": "address",
							"name": "_oldsEXO",
							"type": "address"
						},
						{
							"internalType": "address",
							"name": "_oldTreasury",
							"type": "address"
						},
						{
							"internalType": "address",
							"name": "_oldStaking",
							"type": "address"
						},
						{
							"internalType": "address",
							"name": "_oldwsEXO",
							"type": "address"
						},
						{
							"internalType": "address",
							"name": "_sushi",
							"type": "address"
						},
						{
							"internalType": "address",
							"name": "_uni",
							"type": "address"
						},
						{
							"internalType": "uint256",
							"name": "_timelock",
							"type": "uint256"
						},
						{
							"internalType": "address",
							"name": "_authority",
							"type": "address"
						}
					],
					"stateMutability": "nonpayable",
					"type": "constructor"
				},
				{
					"anonymous": false,
					"inputs": [
						{
							"indexed": true,
							"internalType": "contract IExodusAuthority",
							"name": "authority",
							"type": "address"
						}
					],
					"name": "AuthorityUpdated",
					"type": "event"
				},
				{
					"anonymous": false,
					"inputs": [
						{
							"indexed": false,
							"internalType": "uint256",
							"name": "amount",
							"type": "uint256"
						}
					],
					"name": "Defunded",
					"type": "event"
				},
				{
					"anonymous": false,
					"inputs": [
						{
							"indexed": false,
							"internalType": "uint256",
							"name": "amount",
							"type": "uint256"
						}
					],
					"name": "Funded",
					"type": "event"
				},
				{
					"anonymous": false,
					"inputs": [
						{
							"indexed": false,
							"internalType": "address",
							"name": "staking",
							"type": "address"
						},
						{
							"indexed": false,
							"internalType": "address",
							"name": "treasury",
							"type": "address"
						}
					],
					"name": "Migrated",
					"type": "event"
				},
				{
					"anonymous": false,
					"inputs": [
						{
							"indexed": false,
							"internalType": "uint256",
							"name": "block",
							"type": "uint256"
						},
						{
							"indexed": false,
							"internalType": "uint256",
							"name": "end",
							"type": "uint256"
						}
					],
					"name": "TimelockStarted",
					"type": "event"
				},
				{
					"inputs": [],
					"name": "authority",
					"outputs": [
						{
							"internalType": "contract IExodusAuthority",
							"name": "",
							"type": "address"
						}
					],
					"stateMutability": "view",
					"type": "function"
				},
				{
					"inputs": [
						{
							"internalType": "uint256",
							"name": "_amount",
							"type": "uint256"
						},
						{
							"internalType": "enum ExodusTokenMigrator.TYPE",
							"name": "_to",
							"type": "uint8"
						}
					],
					"name": "bridgeBack",
					"outputs": [],
					"stateMutability": "nonpayable",
					"type": "function"
				},
				{
					"inputs": [
						{
							"internalType": "address",
							"name": "reserve",
							"type": "address"
						}
					],
					"name": "defund",
					"outputs": [],
					"stateMutability": "nonpayable",
					"type": "function"
				},
				{
					"inputs": [],
					"name": "exoMigrated",
					"outputs": [
						{
							"internalType": "bool",
							"name": "",
							"type": "bool"
						}
					],
					"stateMutability": "view",
					"type": "function"
				},
				{
					"inputs": [],
					"name": "gEXO",
					"outputs": [
						{
							"internalType": "contract IgEXO",
							"name": "",
							"type": "address"
						}
					],
					"stateMutability": "view",
					"type": "function"
				},
				{
					"inputs": [],
					"name": "halt",
					"outputs": [],
					"stateMutability": "nonpayable",
					"type": "function"
				},
				{
					"inputs": [
						{
							"internalType": "uint256",
							"name": "_amount",
							"type": "uint256"
						},
						{
							"internalType": "enum ExodusTokenMigrator.TYPE",
							"name": "_from",
							"type": "uint8"
						},
						{
							"internalType": "enum ExodusTokenMigrator.TYPE",
							"name": "_to",
							"type": "uint8"
						}
					],
					"name": "migrate",
					"outputs": [],
					"stateMutability": "nonpayable",
					"type": "function"
				},
				{
					"inputs": [
						{
							"internalType": "enum ExodusTokenMigrator.TYPE",
							"name": "_to",
							"type": "uint8"
						}
					],
					"name": "migrateAll",
					"outputs": [],
					"stateMutability": "nonpayable",
					"type": "function"
				},
				{
					"inputs": [
						{
							"internalType": "address",
							"name": "_newTreasury",
							"type": "address"
						},
						{
							"internalType": "address",
							"name": "_newStaking",
							"type": "address"
						},
						{
							"internalType": "address",
							"name": "_newEXO",
							"type": "address"
						},
						{
							"internalType": "address",
							"name": "_newsEXO",
							"type": "address"
						},
						{
							"internalType": "address",
							"name": "_reserve",
							"type": "address"
						}
					],
					"name": "migrateContracts",
					"outputs": [],
					"stateMutability": "nonpayable",
					"type": "function"
				},
				{
					"inputs": [
						{
							"internalType": "address",
							"name": "pair",
							"type": "address"
						},
						{
							"internalType": "bool",
							"name": "sushi",
							"type": "bool"
						},
						{
							"internalType": "address",
							"name": "token",
							"type": "address"
						},
						{
							"internalType": "uint256",
							"name": "_minA",
							"type": "uint256"
						},
						{
							"internalType": "uint256",
							"name": "_minB",
							"type": "uint256"
						}
					],
					"name": "migrateLP",
					"outputs": [],
					"stateMutability": "nonpayable",
					"type": "function"
				},
				{
					"inputs": [
						{
							"internalType": "address",
							"name": "token",
							"type": "address"
						}
					],
					"name": "migrateToken",
					"outputs": [],
					"stateMutability": "nonpayable",
					"type": "function"
				},
				{
					"inputs": [],
					"name": "newEXO",
					"outputs": [
						{
							"internalType": "contract IERC20",
							"name": "",
							"type": "address"
						}
					],
					"stateMutability": "view",
					"type": "function"
				},
				{
					"inputs": [],
					"name": "newStaking",
					"outputs": [
						{
							"internalType": "contract IStaking",
							"name": "",
							"type": "address"
						}
					],
					"stateMutability": "view",
					"type": "function"
				},
				{
					"inputs": [],
					"name": "newTreasury",
					"outputs": [
						{
							"internalType": "contract ITreasury",
							"name": "",
							"type": "address"
						}
					],
					"stateMutability": "view",
					"type": "function"
				},
				{
					"inputs": [],
					"name": "oldEXO",
					"outputs": [
						{
							"internalType": "contract IERC20",
							"name": "",
							"type": "address"
						}
					],
					"stateMutability": "view",
					"type": "function"
				},
				{
					"inputs": [],
					"name": "oldStaking",
					"outputs": [
						{
							"internalType": "contract IStakingV1",
							"name": "",
							"type": "address"
						}
					],
					"stateMutability": "view",
					"type": "function"
				},
				{
					"inputs": [],
					"name": "oldSupply",
					"outputs": [
						{
							"internalType": "uint256",
							"name": "",
							"type": "uint256"
						}
					],
					"stateMutability": "view",
					"type": "function"
				},
				{
					"inputs": [],
					"name": "oldTreasury",
					"outputs": [
						{
							"internalType": "contract ITreasuryV1",
							"name": "",
							"type": "address"
						}
					],
					"stateMutability": "view",
					"type": "function"
				},
				{
					"inputs": [],
					"name": "oldsEXO",
					"outputs": [
						{
							"internalType": "contract IsEXO",
							"name": "",
							"type": "address"
						}
					],
					"stateMutability": "view",
					"type": "function"
				},
				{
					"inputs": [],
					"name": "oldwsEXO",
					"outputs": [
						{
							"internalType": "contract IwsEXO",
							"name": "",
							"type": "address"
						}
					],
					"stateMutability": "view",
					"type": "function"
				},
				{
					"inputs": [
						{
							"internalType": "contract IExodusAuthority",
							"name": "_newAuthority",
							"type": "address"
						}
					],
					"name": "setAuthority",
					"outputs": [],
					"stateMutability": "nonpayable",
					"type": "function"
				},
				{
					"inputs": [
						{
							"internalType": "address",
							"name": "_gEXO",
							"type": "address"
						}
					],
					"name": "setgOHM",
					"outputs": [],
					"stateMutability": "nonpayable",
					"type": "function"
				},
				{
					"inputs": [],
					"name": "shutdown",
					"outputs": [
						{
							"internalType": "bool",
							"name": "",
							"type": "bool"
						}
					],
					"stateMutability": "view",
					"type": "function"
				},
				{
					"inputs": [],
					"name": "startTimelock",
					"outputs": [],
					"stateMutability": "nonpayable",
					"type": "function"
				},
				{
					"inputs": [],
					"name": "sushiRouter",
					"outputs": [
						{
							"internalType": "contract IUniswapV2Router",
							"name": "",
							"type": "address"
						}
					],
					"stateMutability": "view",
					"type": "function"
				},
				{
					"inputs": [],
					"name": "timelockEnd",
					"outputs": [
						{
							"internalType": "uint256",
							"name": "",
							"type": "uint256"
						}
					],
					"stateMutability": "view",
					"type": "function"
				},
				{
					"inputs": [],
					"name": "timelockLength",
					"outputs": [
						{
							"internalType": "uint256",
							"name": "",
							"type": "uint256"
						}
					],
					"stateMutability": "view",
					"type": "function"
				},
				{
					"inputs": [],
					"name": "uniRouter",
					"outputs": [
						{
							"internalType": "contract IUniswapV2Router",
							"name": "",
							"type": "address"
						}
					],
					"stateMutability": "view",
					"type": "function"
				},
				{
					"inputs": [
						{
							"internalType": "address",
							"name": "tokenAddress",
							"type": "address"
						},
						{
							"internalType": "uint256",
							"name": "amount",
							"type": "uint256"
						},
						{
							"internalType": "address",
							"name": "recipient",
							"type": "address"
						}
					],
					"name": "withdrawToken",
					"outputs": [],
					"stateMutability": "nonpayable",
					"type": "function"
				}
			],
			"devdoc": {
				"kind": "dev",
				"methods": {},
				"version": 1
			},
			"evm": {
				"assembly": "    /* \"ExodusTokenMigrator/OlympusAccessControlled.sol\":255:291  string UNAUTHORIZED = \"UNAUTHORIZED\" */\n  0x01c0\n    /* \"ExodusTokenMigrator/OlympusTokenMigrator.sol\":409:12274  contract ExodusTokenMigrator is ExodusAccessControlled {... */\n  0x40\n    /* \"ExodusTokenMigrator/OlympusAccessControlled.sol\":255:291  string UNAUTHORIZED = \"UNAUTHORIZED\" */\n  mstore\n  0x0c\n    /* \"ExodusTokenMigrator/OlympusTokenMigrator.sol\":409:12274  contract ExodusTokenMigrator is ExodusAccessControlled {... */\n  0x0180\n    /* \"ExodusTokenMigrator/OlympusAccessControlled.sol\":255:291  string UNAUTHORIZED = \"UNAUTHORIZED\" */\n  dup2\n  swap1\n  mstore\n  shl(0xa2, 0x15539055551213d492569151)\n  0x01a0\n  swap1\n  dup2\n  mstore\n  tag_1\n  swap2\n  0x00\n  swap2\n  swap1\n  tag_2\n  jump\t// in\ntag_1:\n  pop\n    /* \"ExodusTokenMigrator/OlympusTokenMigrator.sol\":1485:2581  constructor(... */\n  callvalue\n  dup1\n  iszero\n  tag_3\n  jumpi\n  0x00\n  dup1\n  revert\ntag_3:\n  pop\n  mload(0x40)\n  sub(codesize, bytecodeSize)\n  dup1\n  bytecodeSize\n  dup4\n  codecopy\n  dup2\n  dup2\n  add\n  0x40\n  mstore\n  0x0120\n  dup2\n  lt\n  iszero\n  tag_4\n  jumpi\n  0x00\n  dup1\n  revert\ntag_4:\n  pop\n  dup1\n  mload\n  0x20\n  dup3\n  add\n  mload\n  0x40\n  dup1\n  dup5\n  add\n  mload\n  0x60\n  dup6\n  add\n  mload\n  0x80\n  dup7\n  add\n  mload\n  0xa0\n  dup8\n  add\n  mload\n  0xc0\n  dup9\n  add\n  mload\n  0xe0\n  dup10\n  add\n  mload\n  0x0100\n  swap1\n  swap10\n  add\n  mload\n    /* \"ExodusTokenMigrator/OlympusAccessControlled.sol\":495:504  authority */\n  0x01\n    /* \"ExodusTokenMigrator/OlympusAccessControlled.sol\":495:517  authority = _authority */\n  dup1\n  sload\n  not(sub(shl(0xa0, 0x01), 0x01))\n  and\n  sub(shl(0xa0, 0x01), 0x01)\n  dup4\n  and\n  swap1\n  dup2\n  or\n  swap1\n  swap2\n  sstore\n    /* \"ExodusTokenMigrator/OlympusAccessControlled.sol\":532:560  AuthorityUpdated(_authority) */\n  swap7\n  mload\n    /* \"ExodusTokenMigrator/OlympusTokenMigrator.sol\":1485:2581  constructor(... */\n  swap9\n  swap10\n  swap8\n  swap9\n  swap6\n  swap8\n  swap5\n  swap7\n  swap4\n  swap6\n  swap3\n  swap5\n  swap2\n  swap4\n  swap2\n  swap3\n  swap1\n  swap2\n  dup3\n  swap2\n    /* \"ExodusTokenMigrator/OlympusAccessControlled.sol\":532:560  AuthorityUpdated(_authority) */\n  0x2f658b440c35314f52658ea8a740e05b284cdc84dc9ae01e891f21b8933e7cad\n  swap1\n  0x00\n  swap1\n  log2\n  pop\n  sub(shl(0xa0, 0x01), 0x01)\n    /* \"ExodusTokenMigrator/OlympusTokenMigrator.sol\":1812:1833  _oldEXO != address(0) */\n  dup10\n  and\n    /* \"ExodusTokenMigrator/OlympusTokenMigrator.sol\":1804:1855  require(_oldEXO != address(0), \"Zero address: EXO\") */\n  tag_9\n  jumpi\n  0x40\n  dup1\n  mload\n  shl(0xe5, 0x461bcd)\n  dup2\n  mstore\n  0x20\n  0x04\n  dup3\n  add\n  mstore\n  0x11\n  0x24\n  dup3\n  add\n  mstore\n  shl(0x78, 0x5a65726f20616464726573733a2045584f)\n  0x44\n  dup3\n  add\n  mstore\n  swap1\n  mload\n  swap1\n  dup2\n  swap1\n  sub\n  0x64\n  add\n  swap1\n  revert\ntag_9:\n  not(sub(shl(0x60, 0x01), 0x01))\n    /* \"ExodusTokenMigrator/OlympusTokenMigrator.sol\":1865:1889  oldEXO = IERC20(_oldEXO) */\n  0x60\n  dup11\n  swap1\n  shl\n  and\n  0x80\n  mstore\n  sub(shl(0xa0, 0x01), 0x01)\n    /* \"ExodusTokenMigrator/OlympusTokenMigrator.sol\":1907:1929  _oldsEXO != address(0) */\n  dup9\n  and\n    /* \"ExodusTokenMigrator/OlympusTokenMigrator.sol\":1899:1952  require(_oldsEXO != address(0), \"Zero address: sEXO\") */\n  tag_10\n  jumpi\n  0x40\n  dup1\n  mload\n  shl(0xe5, 0x461bcd)\n  dup2\n  mstore\n  0x20\n  0x04\n  dup3\n  add\n  mstore\n  0x12\n  0x24\n  dup3\n  add\n  mstore\n  shl(0x70, 0x5a65726f20616464726573733a207345584f)\n  0x44\n  dup3\n  add\n  mstore\n  swap1\n  mload\n  swap1\n  dup2\n  swap1\n  sub\n  0x64\n  add\n  swap1\n  revert\ntag_10:\n  not(sub(shl(0x60, 0x01), 0x01))\n    /* \"ExodusTokenMigrator/OlympusTokenMigrator.sol\":1962:1987  oldsEXO = IsEXO(_oldsEXO) */\n  0x60\n  dup10\n  swap1\n  shl\n  and\n  0xa0\n  mstore\n  sub(shl(0xa0, 0x01), 0x01)\n    /* \"ExodusTokenMigrator/OlympusTokenMigrator.sol\":2005:2031  _oldTreasury != address(0) */\n  dup8\n  and\n    /* \"ExodusTokenMigrator/OlympusTokenMigrator.sol\":1997:2058  require(_oldTreasury != address(0), \"Zero address: Treasury\") */\n  tag_11\n  jumpi\n  0x40\n  dup1\n  mload\n  shl(0xe5, 0x461bcd)\n  dup2\n  mstore\n  0x20\n  0x04\n  dup3\n  add\n  mstore\n  0x16\n  0x24\n  dup3\n  add\n  mstore\n  0x5a65726f20616464726573733a20547265617375727900000000000000000000\n  0x44\n  dup3\n  add\n  mstore\n  swap1\n  mload\n  swap1\n  dup2\n  swap1\n  sub\n  0x64\n  add\n  swap1\n  revert\ntag_11:\n  not(sub(shl(0x60, 0x01), 0x01))\n    /* \"ExodusTokenMigrator/OlympusTokenMigrator.sol\":2068:2107  oldTreasury = ITreasuryV1(_oldTreasury) */\n  0x60\n  dup9\n  swap1\n  shl\n  and\n  0xe0\n  mstore\n  sub(shl(0xa0, 0x01), 0x01)\n    /* \"ExodusTokenMigrator/OlympusTokenMigrator.sol\":2125:2150  _oldStaking != address(0) */\n  dup7\n  and\n    /* \"ExodusTokenMigrator/OlympusTokenMigrator.sol\":2117:2176  require(_oldStaking != address(0), \"Zero address: Staking\") */\n  tag_12\n  jumpi\n  0x40\n  dup1\n  mload\n  shl(0xe5, 0x461bcd)\n  dup2\n  mstore\n  0x20\n  0x04\n  dup3\n  add\n  mstore\n  0x15\n  0x24\n  dup3\n  add\n  mstore\n  0x5a65726f20616464726573733a205374616b696e670000000000000000000000\n  0x44\n  dup3\n  add\n  mstore\n  swap1\n  mload\n  swap1\n  dup2\n  swap1\n  sub\n  0x64\n  add\n  swap1\n  revert\ntag_12:\n  not(sub(shl(0x60, 0x01), 0x01))\n    /* \"ExodusTokenMigrator/OlympusTokenMigrator.sol\":2186:2222  oldStaking = IStakingV1(_oldStaking) */\n  0x60\n  dup8\n  swap1\n  shl\n  and\n  0x0100\n  mstore\n  sub(shl(0xa0, 0x01), 0x01)\n    /* \"ExodusTokenMigrator/OlympusTokenMigrator.sol\":2240:2263  _oldwsEXO != address(0) */\n  dup6\n  and\n    /* \"ExodusTokenMigrator/OlympusTokenMigrator.sol\":2232:2287  require(_oldwsEXO != address(0), \"Zero address: wsEXO\") */\n  tag_13\n  jumpi\n  0x40\n  dup1\n  mload\n  shl(0xe5, 0x461bcd)\n  dup2\n  mstore\n  0x20\n  0x04\n  dup3\n  add\n  mstore\n  0x13\n  0x24\n  dup3\n  add\n  mstore\n  0x5a65726f20616464726573733a20777345584f00000000000000000000000000\n  0x44\n  dup3\n  add\n  mstore\n  swap1\n  mload\n  swap1\n  dup2\n  swap1\n  sub\n  0x64\n  add\n  swap1\n  revert\ntag_13:\n  not(sub(shl(0x60, 0x01), 0x01))\n    /* \"ExodusTokenMigrator/OlympusTokenMigrator.sol\":2297:2325  oldwsEXO = IwsEXO(_oldwsEXO) */\n  0x60\n  dup7\n  swap1\n  shl\n  and\n  0xc0\n  mstore\n  sub(shl(0xa0, 0x01), 0x01)\n    /* \"ExodusTokenMigrator/OlympusTokenMigrator.sol\":2343:2363  _sushi != address(0) */\n  dup5\n  and\n    /* \"ExodusTokenMigrator/OlympusTokenMigrator.sol\":2335:2387  require(_sushi != address(0), \"Zero address: Sushi\") */\n  tag_14\n  jumpi\n  0x40\n  dup1\n  mload\n  shl(0xe5, 0x461bcd)\n  dup2\n  mstore\n  0x20\n  0x04\n  dup3\n  add\n  mstore\n  0x13\n  0x24\n  dup3\n  add\n  mstore\n  0x5a65726f20616464726573733a20537573686900000000000000000000000000\n  0x44\n  dup3\n  add\n  mstore\n  swap1\n  mload\n  swap1\n  dup2\n  swap1\n  sub\n  0x64\n  add\n  swap1\n  revert\ntag_14:\n  not(sub(shl(0x60, 0x01), 0x01))\n    /* \"ExodusTokenMigrator/OlympusTokenMigrator.sol\":2397:2435  sushiRouter = IUniswapV2Router(_sushi) */\n  0x60\n  dup6\n  swap1\n  shl\n  and\n  0x0120\n  mstore\n  sub(shl(0xa0, 0x01), 0x01)\n    /* \"ExodusTokenMigrator/OlympusTokenMigrator.sol\":2453:2471  _uni != address(0) */\n  dup4\n  and\n    /* \"ExodusTokenMigrator/OlympusTokenMigrator.sol\":2445:2493  require(_uni != address(0), \"Zero address: Uni\") */\n  tag_15\n  jumpi\n  0x40\n  dup1\n  mload\n  shl(0xe5, 0x461bcd)\n  dup2\n  mstore\n  0x20\n  0x04\n  dup3\n  add\n  mstore\n  0x11\n  0x24\n  dup3\n  add\n  mstore\n  shl(0x78, 0x5a65726f20616464726573733a20556e69)\n  0x44\n  dup3\n  add\n  mstore\n  swap1\n  mload\n  swap1\n  dup2\n  swap1\n  sub\n  0x64\n  add\n  swap1\n  revert\ntag_15:\n  pop\n    /* \"ExodusTokenMigrator/OlympusTokenMigrator.sol\":2503:2537  uniRouter = IUniswapV2Router(_uni) */\n  0x60\n  swap2\n  swap1\n  swap2\n  shl\n  not(sub(shl(0x60, 0x01), 0x01))\n  and\n  0x0140\n  mstore\n    /* \"ExodusTokenMigrator/OlympusTokenMigrator.sol\":2548:2574  timelockLength = _timelock */\n  0x0160\n  mstore\n  pop\n    /* \"ExodusTokenMigrator/OlympusTokenMigrator.sol\":409:12274  contract ExodusTokenMigrator is ExodusAccessControlled {... */\n  tag_16\n  swap5\n  pop\n  pop\n  pop\n  pop\n  pop\n  jump\ntag_2:\n  dup3\n  dup1\n  sload\n  0x01\n  dup2\n  0x01\n  and\n  iszero\n  0x0100\n  mul\n  sub\n  and\n  0x02\n  swap1\n  div\n  swap1\n  0x00\n  mstore\n  keccak256(0x00, 0x20)\n  swap1\n  0x1f\n  add\n  0x20\n  swap1\n  div\n  dup2\n  add\n  swap3\n  dup3\n  tag_18\n  jumpi\n  0x00\n  dup6\n  sstore\n  jump(tag_21)\ntag_18:\n  dup3\n  0x1f\n  lt\n  tag_19\n  jumpi\n  dup1\n  mload\n  not(0xff)\n  and\n  dup4\n  dup1\n  add\n  or\n  dup6\n  sstore\n  jump(tag_21)\ntag_19:\n  dup3\n  dup1\n  add\n  0x01\n  add\n  dup6\n  sstore\n  dup3\n  iszero\n  tag_21\n  jumpi\n  swap2\n  dup3\n  add\ntag_20:\n  dup3\n  dup2\n  gt\n  iszero\n  tag_21\n  jumpi\n  dup3\n  mload\n  dup3\n  sstore\n  swap2\n  0x20\n  add\n  swap2\n  swap1\n  0x01\n  add\n  swap1\n  jump(tag_20)\ntag_21:\n  pop\n  tag_22\n  swap3\n  swap2\n  pop\n  tag_23\n  jump\t// in\ntag_22:\n  pop\n  swap1\n  jump\t// out\ntag_23:\ntag_24:\n  dup1\n  dup3\n  gt\n  iszero\n  tag_22\n  jumpi\n  0x00\n  dup2\n  sstore\n  0x01\n  add\n  jump(tag_24)\ntag_16:\n  shr(0x60, mload(0x80))\n  shr(0x60, mload(0xa0))\n  shr(0x60, mload(0xc0))\n  shr(0x60, mload(0xe0))\n  shr(0x60, mload(0x0100))\n  shr(0x60, mload(0x0120))\n  shr(0x60, mload(0x0140))\n  mload(0x0160)\n  codecopy(0x00, dataOffset(sub_0), dataSize(sub_0))\n  assignImmutable(\"0x3ad1041c7fca4b981ec9df1cdec68238bc49ef0c518c8c6bf20002aeca8bde61\")\n  assignImmutable(\"0x28d661cc9d988d5307f207b74b6d74cee4476610b1bde926474d3f5b95354fd2\")\n  assignImmutable(\"0xd73e0b65d8a88e087fe45492939659264b6eeb687212994f56dac859eedb899a\")\n  assignImmutable(\"0x4c4fd4da8ae1c1f2895da0cdd646517e3d75688175eb5d33ccff8a0b8439df64\")\n  assignImmutable(\"0xa22b5bddbdcd05368321bd50fd5db7d428b6ca478a3c7389901149e4e0253710\")\n  assignImmutable(\"0x03065c56175bab9d6c02682cec557b5c933cd8364ccf2dd44ab76e0c260931e7\")\n  assignImmutable(\"0xa98a2f5aeb9ac9608e39eb3f8b40f1c25875f48fb0abb123ad85a5ab2ba25315\")\n  assignImmutable(\"0x7751dd710c07ab49cc2c1853892b3f71f3ced69475463e7c975b4ac84ae5fa90\")\n  return(0x00, dataSize(sub_0))\nstop\n\nsub_0: assembly {\n        /* \"ExodusTokenMigrator/OlympusTokenMigrator.sol\":409:12274  contract ExodusTokenMigrator is ExodusAccessControlled {... */\n      mstore(0x40, 0x80)\n      callvalue\n      dup1\n      iszero\n      tag_1\n      jumpi\n      0x00\n      dup1\n      revert\n    tag_1:\n      pop\n      jumpi(tag_2, lt(calldatasize, 0x04))\n      shr(0xe0, calldataload(0x00))\n      dup1\n      0x7a9e5e4b\n      gt\n      tag_32\n      jumpi\n      dup1\n      0xd6fa3760\n      gt\n      tag_33\n      jumpi\n      dup1\n      0xec78f90b\n      gt\n      tag_34\n      jumpi\n      dup1\n      0xec78f90b\n      eq\n      tag_28\n      jumpi\n      dup1\n      0xed44527b\n      eq\n      tag_29\n      jumpi\n      dup1\n      0xf96a6006\n      eq\n      tag_30\n      jumpi\n      dup1\n      0xfc0e74d1\n      eq\n      tag_31\n      jumpi\n      jump(tag_2)\n    tag_34:\n      dup1\n      0xd6fa3760\n      eq\n      tag_24\n      jumpi\n      dup1\n      0xd8212545\n      eq\n      tag_25\n      jumpi\n      dup1\n      0xdfd9e685\n      eq\n      tag_26\n      jumpi\n      dup1\n      0xe3c8bc0d\n      eq\n      tag_27\n      jumpi\n      jump(tag_2)\n    tag_33:\n      dup1\n      0xb29c7444\n      gt\n      tag_35\n      jumpi\n      dup1\n      0xb29c7444\n      eq\n      tag_20\n      jumpi\n      dup1\n      0xb71a6df3\n      eq\n      tag_21\n      jumpi\n      dup1\n      0xbf7e214f\n      eq\n      tag_22\n      jumpi\n      dup1\n      0xcf0ef516\n      eq\n      tag_23\n      jumpi\n      jump(tag_2)\n    tag_35:\n      dup1\n      0x7a9e5e4b\n      eq\n      tag_17\n      jumpi\n      dup1\n      0xa0e47bf6\n      eq\n      tag_18\n      jumpi\n      dup1\n      0xabacbb2f\n      eq\n      tag_19\n      jumpi\n      jump(tag_2)\n    tag_32:\n      dup1\n      0x4579b8b4\n      gt\n      tag_36\n      jumpi\n      dup1\n      0x5ed7ca5b\n      gt\n      tag_37\n      jumpi\n      dup1\n      0x5ed7ca5b\n      eq\n      tag_13\n      jumpi\n      dup1\n      0x694d6635\n      eq\n      tag_14\n      jumpi\n      dup1\n      0x6c8374ac\n      eq\n      tag_15\n      jumpi\n      dup1\n      0x6d13582c\n      eq\n      tag_16\n      jumpi\n      jump(tag_2)\n    tag_37:\n      dup1\n      0x4579b8b4\n      eq\n      tag_10\n      jumpi\n      dup1\n      0x4edf8980\n      eq\n      tag_11\n      jumpi\n      dup1\n      0x5c5fadc1\n      eq\n      tag_12\n      jumpi\n      jump(tag_2)\n    tag_36:\n      dup1\n      0x219a1f81\n      gt\n      tag_38\n      jumpi\n      dup1\n      0x219a1f81\n      eq\n      tag_6\n      jumpi\n      dup1\n      0x245c0e99\n      eq\n      tag_7\n      jumpi\n      dup1\n      0x2af36b43\n      eq\n      tag_8\n      jumpi\n      dup1\n      0x3ccdbb28\n      eq\n      tag_9\n      jumpi\n      jump(tag_2)\n    tag_38:\n      dup1\n      0x0465f072\n      eq\n      tag_3\n      jumpi\n      dup1\n      0x05850844\n      eq\n      tag_4\n      jumpi\n      dup1\n      0x149bab24\n      eq\n      tag_5\n      jumpi\n    tag_2:\n      0x00\n      dup1\n      revert\n        /* \"ExodusTokenMigrator/OlympusTokenMigrator.sol\":2769:3600  function migrate(... */\n    tag_3:\n      tag_39\n      0x04\n      dup1\n      calldatasize\n      sub\n      0x60\n      dup2\n      lt\n      iszero\n      tag_40\n      jumpi\n      0x00\n      dup1\n      revert\n    tag_40:\n      pop\n      dup1\n      calldataload\n      swap1\n      0xff\n      0x20\n      dup3\n      add\n      calldataload\n      dup2\n      and\n      swap2\n      0x40\n      add\n      calldataload\n      and\n      tag_41\n      jump\t// in\n    tag_39:\n      stop\n        /* \"ExodusTokenMigrator/OlympusTokenMigrator.sol\":1454:1478  uint256 public oldSupply */\n    tag_4:\n      tag_42\n      tag_43\n      jump\t// in\n    tag_42:\n      0x40\n      dup1\n      mload\n      swap2\n      dup3\n      mstore\n      mload\n      swap1\n      dup2\n      swap1\n      sub\n      0x20\n      add\n      swap1\n      return\n        /* \"ExodusTokenMigrator/OlympusTokenMigrator.sol\":902:932  IERC20 public immutable oldEXO */\n    tag_5:\n      tag_44\n      tag_45\n      jump\t// in\n    tag_44:\n      0x40\n      dup1\n      mload\n      sub(shl(0xa0, 0x01), 0x01)\n      swap1\n      swap3\n      and\n      dup3\n      mstore\n      mload\n      swap1\n      dup2\n      swap1\n      sub\n      0x20\n      add\n      swap1\n      return\n        /* \"ExodusTokenMigrator/OlympusTokenMigrator.sol\":1376:1415  uint256 public immutable timelockLength */\n    tag_6:\n      tag_42\n      tag_47\n      jump\t// in\n        /* \"ExodusTokenMigrator/OlympusTokenMigrator.sol\":7206:7418  function setgOHM(address _gEXO) external onlyGovernor {... */\n    tag_7:\n      tag_39\n      0x04\n      dup1\n      calldatasize\n      sub\n      0x20\n      dup2\n      lt\n      iszero\n      tag_49\n      jumpi\n      0x00\n      dup1\n      revert\n    tag_49:\n      pop\n      calldataload\n      sub(shl(0xa0, 0x01), 0x01)\n      and\n      tag_50\n      jump\t// in\n        /* \"ExodusTokenMigrator/OlympusTokenMigrator.sol\":1204:1221  IgEXO public gEXO */\n    tag_8:\n      tag_44\n      tag_52\n      jump\t// in\n        /* \"ExodusTokenMigrator/OlympusTokenMigrator.sol\":8887:10039  function withdrawToken(... */\n    tag_9:\n      tag_39\n      0x04\n      dup1\n      calldatasize\n      sub\n      0x60\n      dup2\n      lt\n      iszero\n      tag_54\n      jumpi\n      0x00\n      dup1\n      revert\n    tag_54:\n      pop\n      sub(shl(0xa0, 0x01), 0x01)\n      dup2\n      calldataload\n      dup2\n      and\n      swap2\n      0x20\n      dup2\n      add\n      calldataload\n      swap2\n      0x40\n      swap1\n      swap2\n      add\n      calldataload\n      and\n      tag_55\n      jump\t// in\n        /* \"ExodusTokenMigrator/OlympusTokenMigrator.sol\":1227:1255  ITreasury public newTreasury */\n    tag_10:\n      tag_44\n      tag_57\n      jump\t// in\n        /* \"ExodusTokenMigrator/OlympusTokenMigrator.sol\":1058:1096  IStakingV1 public immutable oldStaking */\n    tag_11:\n      tag_44\n      tag_59\n      jump\t// in\n        /* \"ExodusTokenMigrator/OlympusTokenMigrator.sol\":1293:1313  IERC20 public newEXO */\n    tag_12:\n      tag_44\n      tag_61\n      jump\t// in\n        /* \"ExodusTokenMigrator/OlympusTokenMigrator.sol\":5773:5903  function halt() external onlyPolicy {... */\n    tag_13:\n      tag_39\n      tag_63\n      jump\t// in\n        /* \"ExodusTokenMigrator/OlympusTokenMigrator.sol\":1421:1447  uint256 public timelockEnd */\n    tag_14:\n      tag_42\n      tag_65\n      jump\t// in\n        /* \"ExodusTokenMigrator/OlympusTokenMigrator.sol\":938:968  IsEXO public immutable oldsEXO */\n    tag_15:\n      tag_44\n      tag_67\n      jump\t// in\n        /* \"ExodusTokenMigrator/OlympusTokenMigrator.sol\":1103:1148  IUniswapV2Router public immutable sushiRouter */\n    tag_16:\n      tag_44\n      tag_69\n      jump\t// in\n        /* \"ExodusTokenMigrator/OlympusAccessControlled.sol\":1108:1272  function setAuthority(IExodusAuthority _newAuthority) external onlyGovernor {... */\n    tag_17:\n      tag_39\n      0x04\n      dup1\n      calldatasize\n      sub\n      0x20\n      dup2\n      lt\n      iszero\n      tag_71\n      jumpi\n      0x00\n      dup1\n      revert\n    tag_71:\n      pop\n      calldataload\n      sub(shl(0xa0, 0x01), 0x01)\n      and\n      tag_72\n      jump\t// in\n        /* \"ExodusTokenMigrator/OlympusTokenMigrator.sol\":1154:1197  IUniswapV2Router public immutable uniRouter */\n    tag_18:\n      tag_44\n      tag_74\n      jump\t// in\n        /* \"ExodusTokenMigrator/OlympusTokenMigrator.sol\":5025:5679  function bridgeBack(uint256 _amount, TYPE _to) external {... */\n    tag_19:\n      tag_39\n      0x04\n      dup1\n      calldatasize\n      sub\n      0x40\n      dup2\n      lt\n      iszero\n      tag_76\n      jumpi\n      0x00\n      dup1\n      revert\n    tag_76:\n      pop\n      dup1\n      calldataload\n      swap1\n      0x20\n      add\n      calldataload\n      0xff\n      and\n      tag_77\n      jump\t// in\n        /* \"ExodusTokenMigrator/OlympusTokenMigrator.sol\":6957:7176  function startTimelock() external onlyGovernor {... */\n    tag_20:\n      tag_39\n      tag_79\n      jump\t// in\n        /* \"ExodusTokenMigrator/OlympusTokenMigrator.sol\":10070:11116  function migrateContracts(... */\n    tag_21:\n      tag_39\n      0x04\n      dup1\n      calldatasize\n      sub\n      0xa0\n      dup2\n      lt\n      iszero\n      tag_81\n      jumpi\n      0x00\n      dup1\n      revert\n    tag_81:\n      pop\n      sub(shl(0xa0, 0x01), 0x01)\n      dup2\n      calldataload\n      dup2\n      and\n      swap2\n      0x20\n      dup2\n      add\n      calldataload\n      dup3\n      and\n      swap2\n      0x40\n      dup3\n      add\n      calldataload\n      dup2\n      and\n      swap2\n      0x60\n      dup2\n      add\n      calldataload\n      dup3\n      and\n      swap2\n      0x80\n      swap1\n      swap2\n      add\n      calldataload\n      and\n      tag_82\n      jump\t// in\n        /* \"ExodusTokenMigrator/OlympusAccessControlled.sol\":359:392  IExodusAuthority public authority */\n    tag_22:\n      tag_44\n      tag_84\n      jump\t// in\n        /* \"ExodusTokenMigrator/OlympusTokenMigrator.sol\":1012:1052  ITreasuryV1 public immutable oldTreasury */\n    tag_23:\n      tag_44\n      tag_86\n      jump\t// in\n        /* \"ExodusTokenMigrator/OlympusTokenMigrator.sol\":5949:6897  function defund(address reserve) external onlyGovernor {... */\n    tag_24:\n      tag_39\n      0x04\n      dup1\n      calldatasize\n      sub\n      0x20\n      dup2\n      lt\n      iszero\n      tag_88\n      jumpi\n      0x00\n      dup1\n      revert\n    tag_88:\n      pop\n      calldataload\n      sub(shl(0xa0, 0x01), 0x01)\n      and\n      tag_89\n      jump\t// in\n        /* \"ExodusTokenMigrator/OlympusTokenMigrator.sol\":974:1006  IwsEXO public immutable oldwsEXO */\n    tag_25:\n      tag_44\n      tag_91\n      jump\t// in\n        /* \"ExodusTokenMigrator/OlympusTokenMigrator.sol\":7643:8744  function migrateLP(... */\n    tag_26:\n      tag_39\n      0x04\n      dup1\n      calldatasize\n      sub\n      0xa0\n      dup2\n      lt\n      iszero\n      tag_93\n      jumpi\n      0x00\n      dup1\n      revert\n    tag_93:\n      pop\n      sub(shl(0xa0, 0x01), 0x01)\n      dup2\n      calldataload\n      dup2\n      and\n      swap2\n      0x20\n      dup2\n      add\n      calldataload\n      iszero\n      iszero\n      swap2\n      0x40\n      dup3\n      add\n      calldataload\n      and\n      swap1\n      0x60\n      dup2\n      add\n      calldataload\n      swap1\n      0x80\n      add\n      calldataload\n      tag_94\n      jump\t// in\n        /* \"ExodusTokenMigrator/OlympusTokenMigrator.sol\":1320:1343  bool public exoMigrated */\n    tag_27:\n      tag_95\n      tag_96\n      jump\t// in\n    tag_95:\n      0x40\n      dup1\n      mload\n      swap2\n      iszero\n      iszero\n      dup3\n      mstore\n      mload\n      swap1\n      dup2\n      swap1\n      sub\n      0x20\n      add\n      swap1\n      return\n        /* \"ExodusTokenMigrator/OlympusTokenMigrator.sol\":3645:4585  function migrateAll(TYPE _to) external {... */\n    tag_28:\n      tag_39\n      0x04\n      dup1\n      calldatasize\n      sub\n      0x20\n      dup2\n      lt\n      iszero\n      tag_98\n      jumpi\n      0x00\n      dup1\n      revert\n    tag_98:\n      pop\n      calldataload\n      0xff\n      and\n      tag_99\n      jump\t// in\n        /* \"ExodusTokenMigrator/OlympusTokenMigrator.sol\":1261:1287  IStaking public newStaking */\n    tag_29:\n      tag_44\n      tag_101\n      jump\t// in\n        /* \"ExodusTokenMigrator/OlympusTokenMigrator.sol\":7468:7571  function migrateToken(address token) external onlyGovernor {... */\n    tag_30:\n      tag_39\n      0x04\n      dup1\n      calldatasize\n      sub\n      0x20\n      dup2\n      lt\n      iszero\n      tag_103\n      jumpi\n      0x00\n      dup1\n      revert\n    tag_103:\n      pop\n      calldataload\n      sub(shl(0xa0, 0x01), 0x01)\n      and\n      tag_104\n      jump\t// in\n        /* \"ExodusTokenMigrator/OlympusTokenMigrator.sol\":1349:1369  bool public shutdown */\n    tag_31:\n      tag_95\n      tag_106\n      jump\t// in\n        /* \"ExodusTokenMigrator/OlympusTokenMigrator.sol\":2769:3600  function migrate(... */\n    tag_41:\n        /* \"ExodusTokenMigrator/OlympusTokenMigrator.sol\":2883:2891  shutdown */\n      sload(0x05)\n      shl(0xa8, 0x01)\n      swap1\n      div\n      0xff\n      and\n        /* \"ExodusTokenMigrator/OlympusTokenMigrator.sol\":2882:2891  !shutdown */\n      iszero\n        /* \"ExodusTokenMigrator/OlympusTokenMigrator.sol\":2874:2905  require(!shutdown, \"Shut down\") */\n      tag_108\n      jumpi\n      0x40\n      dup1\n      mload\n      shl(0xe5, 0x461bcd)\n      dup2\n      mstore\n      0x20\n      0x04\n      dup3\n      add\n      mstore\n      0x09\n      0x24\n      dup3\n      add\n      mstore\n      shl(0xb9, 0x29b43aba103237bbb7)\n      0x44\n      dup3\n      add\n      mstore\n      swap1\n      mload\n      swap1\n      dup2\n      swap1\n      sub\n      0x64\n      add\n      swap1\n      revert\n    tag_108:\n        /* \"ExodusTokenMigrator/OlympusTokenMigrator.sol\":2916:2931  uint256 wAmount */\n      0x00\n        /* \"ExodusTokenMigrator/OlympusTokenMigrator.sol\":2934:2942  oldwsEXO */\n      immutable(\"0x03065c56175bab9d6c02682cec557b5c933cd8364ccf2dd44ab76e0c260931e7\")\n      sub(shl(0xa0, 0x01), 0x01)\n        /* \"ExodusTokenMigrator/OlympusTokenMigrator.sol\":2934:2953  oldwsEXO.sOHMTowOHM */\n      and\n      0x73f79c04\n        /* \"ExodusTokenMigrator/OlympusTokenMigrator.sol\":2954:2961  _amount */\n      dup6\n        /* \"ExodusTokenMigrator/OlympusTokenMigrator.sol\":2934:2962  oldwsEXO.sOHMTowOHM(_amount) */\n      mload(0x40)\n      dup3\n      0xffffffff\n      and\n      0xe0\n      shl\n      dup2\n      mstore\n      0x04\n      add\n      dup1\n      dup3\n      dup2\n      mstore\n      0x20\n      add\n      swap2\n      pop\n      pop\n      0x20\n      mload(0x40)\n      dup1\n      dup4\n      sub\n      dup2\n      dup7\n      dup1\n      extcodesize\n      iszero\n      dup1\n      iszero\n      tag_109\n      jumpi\n      0x00\n      dup1\n      revert\n    tag_109:\n      pop\n      gas\n      staticcall\n      iszero\n      dup1\n      iszero\n      tag_111\n      jumpi\n      returndatasize\n      0x00\n      dup1\n      returndatacopy\n      revert(0x00, returndatasize)\n    tag_111:\n      pop\n      pop\n      pop\n      pop\n      mload(0x40)\n      returndatasize\n      0x20\n      dup2\n      lt\n      iszero\n      tag_112\n      jumpi\n      0x00\n      dup1\n      revert\n    tag_112:\n      pop\n      mload\n      swap1\n      pop\n        /* \"ExodusTokenMigrator/OlympusTokenMigrator.sol\":2986:2999  TYPE.UNSTAKED */\n      0x00\n        /* \"ExodusTokenMigrator/OlympusTokenMigrator.sol\":2977:2982  _from */\n      dup4\n        /* \"ExodusTokenMigrator/OlympusTokenMigrator.sol\":2977:2999  _from == TYPE.UNSTAKED */\n      0x02\n      dup2\n      gt\n      iszero\n      tag_114\n      jumpi\n      invalid\n    tag_114:\n      eq\n        /* \"ExodusTokenMigrator/OlympusTokenMigrator.sol\":2973:3390  if (_from == TYPE.UNSTAKED) {... */\n      iszero\n      tag_115\n      jumpi\n        /* \"ExodusTokenMigrator/OlympusTokenMigrator.sol\":3023:3034  exoMigrated */\n      sload(0x05)\n      shl(0xa0, 0x01)\n      swap1\n      div\n      0xff\n      and\n        /* \"ExodusTokenMigrator/OlympusTokenMigrator.sol\":3015:3066  require(exoMigrated, \"Only staked until migration\") */\n      tag_116\n      jumpi\n      0x40\n      dup1\n      mload\n      shl(0xe5, 0x461bcd)\n      dup2\n      mstore\n      0x20\n      0x04\n      dup3\n      add\n      mstore\n      0x1b\n      0x24\n      dup3\n      add\n      mstore\n      0x4f6e6c79207374616b656420756e74696c206d6967726174696f6e0000000000\n      0x44\n      dup3\n      add\n      mstore\n      swap1\n      mload\n      swap1\n      dup2\n      swap1\n      sub\n      0x64\n      add\n      swap1\n      revert\n    tag_116:\n        /* \"ExodusTokenMigrator/OlympusTokenMigrator.sol\":3080:3139  oldEXO.safeTransferFrom(msg.sender, address(this), _amount) */\n      tag_117\n      sub(shl(0xa0, 0x01), 0x01)\n        /* \"ExodusTokenMigrator/OlympusTokenMigrator.sol\":3080:3086  oldEXO */\n      immutable(\"0x7751dd710c07ab49cc2c1853892b3f71f3ced69475463e7c975b4ac84ae5fa90\")\n        /* \"ExodusTokenMigrator/OlympusTokenMigrator.sol\":3080:3103  oldEXO.safeTransferFrom */\n      and\n        /* \"ExodusTokenMigrator/OlympusTokenMigrator.sol\":3104:3114  msg.sender */\n      caller\n        /* \"ExodusTokenMigrator/OlympusTokenMigrator.sol\":3124:3128  this */\n      address\n        /* \"ExodusTokenMigrator/OlympusTokenMigrator.sol\":3131:3138  _amount */\n      dup8\n        /* \"ExodusTokenMigrator/OlympusTokenMigrator.sol\":3080:3103  oldEXO.safeTransferFrom */\n      tag_118\n        /* \"ExodusTokenMigrator/OlympusTokenMigrator.sol\":3080:3139  oldEXO.safeTransferFrom(msg.sender, address(this), _amount) */\n      jump\t// in\n    tag_117:\n        /* \"ExodusTokenMigrator/OlympusTokenMigrator.sol\":2973:3390  if (_from == TYPE.UNSTAKED) {... */\n      jump(tag_124)\n    tag_115:\n        /* \"ExodusTokenMigrator/OlympusTokenMigrator.sol\":3169:3180  TYPE.STAKED */\n      0x01\n        /* \"ExodusTokenMigrator/OlympusTokenMigrator.sol\":3160:3165  _from */\n      dup4\n        /* \"ExodusTokenMigrator/OlympusTokenMigrator.sol\":3160:3180  _from == TYPE.STAKED */\n      0x02\n      dup2\n      gt\n      iszero\n      tag_121\n      jumpi\n      invalid\n    tag_121:\n      eq\n        /* \"ExodusTokenMigrator/OlympusTokenMigrator.sol\":3156:3390  if (_from == TYPE.STAKED) {... */\n      iszero\n      tag_122\n      jumpi\n        /* \"ExodusTokenMigrator/OlympusTokenMigrator.sol\":3196:3256  oldsEXO.safeTransferFrom(msg.sender, address(this), _amount) */\n      tag_117\n      sub(shl(0xa0, 0x01), 0x01)\n        /* \"ExodusTokenMigrator/OlympusTokenMigrator.sol\":3196:3203  oldsEXO */\n      immutable(\"0xa98a2f5aeb9ac9608e39eb3f8b40f1c25875f48fb0abb123ad85a5ab2ba25315\")\n        /* \"ExodusTokenMigrator/OlympusTokenMigrator.sol\":3196:3220  oldsEXO.safeTransferFrom */\n      and\n        /* \"ExodusTokenMigrator/OlympusTokenMigrator.sol\":3221:3231  msg.sender */\n      caller\n        /* \"ExodusTokenMigrator/OlympusTokenMigrator.sol\":3241:3245  this */\n      address\n        /* \"ExodusTokenMigrator/OlympusTokenMigrator.sol\":3248:3255  _amount */\n      dup8\n        /* \"ExodusTokenMigrator/OlympusTokenMigrator.sol\":3196:3220  oldsEXO.safeTransferFrom */\n      tag_118\n        /* \"ExodusTokenMigrator/OlympusTokenMigrator.sol\":3196:3256  oldsEXO.safeTransferFrom(msg.sender, address(this), _amount) */\n      jump\t// in\n        /* \"ExodusTokenMigrator/OlympusTokenMigrator.sol\":3156:3390  if (_from == TYPE.STAKED) {... */\n    tag_122:\n        /* \"ExodusTokenMigrator/OlympusTokenMigrator.sol\":3287:3348  oldwsEXO.safeTransferFrom(msg.sender, address(this), _amount) */\n      tag_125\n      sub(shl(0xa0, 0x01), 0x01)\n        /* \"ExodusTokenMigrator/OlympusTokenMigrator.sol\":3287:3295  oldwsEXO */\n      immutable(\"0x03065c56175bab9d6c02682cec557b5c933cd8364ccf2dd44ab76e0c260931e7\")\n        /* \"ExodusTokenMigrator/OlympusTokenMigrator.sol\":3287:3312  oldwsEXO.safeTransferFrom */\n      and\n        /* \"ExodusTokenMigrator/OlympusTokenMigrator.sol\":3313:3323  msg.sender */\n      caller\n        /* \"ExodusTokenMigrator/OlympusTokenMigrator.sol\":3333:3337  this */\n      address\n        /* \"ExodusTokenMigrator/OlympusTokenMigrator.sol\":3340:3347  _amount */\n      dup8\n        /* \"ExodusTokenMigrator/OlympusTokenMigrator.sol\":3287:3312  oldwsEXO.safeTransferFrom */\n      tag_118\n        /* \"ExodusTokenMigrator/OlympusTokenMigrator.sol\":3287:3348  oldwsEXO.safeTransferFrom(msg.sender, address(this), _amount) */\n      jump\t// in\n    tag_125:\n      pop\n        /* \"ExodusTokenMigrator/OlympusTokenMigrator.sol\":3372:3379  _amount */\n      dup3\n        /* \"ExodusTokenMigrator/OlympusTokenMigrator.sol\":3156:3390  if (_from == TYPE.STAKED) {... */\n    tag_124:\n        /* \"ExodusTokenMigrator/OlympusTokenMigrator.sol\":3404:3415  exoMigrated */\n      sload(0x05)\n      shl(0xa0, 0x01)\n      swap1\n      div\n      0xff\n      and\n        /* \"ExodusTokenMigrator/OlympusTokenMigrator.sol\":3400:3594  if (exoMigrated) {... */\n      iszero\n      tag_126\n      jumpi\n        /* \"ExodusTokenMigrator/OlympusTokenMigrator.sol\":3452:3458  oldEXO */\n      immutable(\"0x7751dd710c07ab49cc2c1853892b3f71f3ced69475463e7c975b4ac84ae5fa90\")\n      sub(shl(0xa0, 0x01), 0x01)\n        /* \"ExodusTokenMigrator/OlympusTokenMigrator.sol\":3452:3470  oldEXO.totalSupply */\n      and\n      0x18160ddd\n        /* \"ExodusTokenMigrator/OlympusTokenMigrator.sol\":3452:3472  oldEXO.totalSupply() */\n      mload(0x40)\n      dup2\n      0xffffffff\n      and\n      0xe0\n      shl\n      dup2\n      mstore\n      0x04\n      add\n      0x20\n      mload(0x40)\n      dup1\n      dup4\n      sub\n      dup2\n      dup7\n      dup1\n      extcodesize\n      iszero\n      dup1\n      iszero\n      tag_127\n      jumpi\n      0x00\n      dup1\n      revert\n    tag_127:\n      pop\n      gas\n      staticcall\n      iszero\n      dup1\n      iszero\n      tag_129\n      jumpi\n      returndatasize\n      0x00\n      dup1\n      returndatacopy\n      revert(0x00, returndatasize)\n    tag_129:\n      pop\n      pop\n      pop\n      pop\n      mload(0x40)\n      returndatasize\n      0x20\n      dup2\n      lt\n      iszero\n      tag_130\n      jumpi\n      0x00\n      dup1\n      revert\n    tag_130:\n      pop\n      mload\n        /* \"ExodusTokenMigrator/OlympusTokenMigrator.sol\":3439:3448  oldSupply */\n      sload(0x07)\n        /* \"ExodusTokenMigrator/OlympusTokenMigrator.sol\":3439:3472  oldSupply >= oldEXO.totalSupply() */\n      lt\n      iszero\n        /* \"ExodusTokenMigrator/OlympusTokenMigrator.sol\":3431:3489  require(oldSupply >= oldEXO.totalSupply(), \"OHMv1 minted\") */\n      tag_131\n      jumpi\n      0x40\n      dup1\n      mload\n      shl(0xe5, 0x461bcd)\n      dup2\n      mstore\n      0x20\n      0x04\n      dup3\n      add\n      mstore\n      0x0c\n      0x24\n      dup3\n      add\n      mstore\n      shl(0xa2, 0x13d2135d8c481b5a5b9d1959)\n      0x44\n      dup3\n      add\n      mstore\n      swap1\n      mload\n      swap1\n      dup2\n      swap1\n      sub\n      0x64\n      add\n      swap1\n      revert\n    tag_131:\n        /* \"ExodusTokenMigrator/OlympusTokenMigrator.sol\":3503:3522  _send(wAmount, _to) */\n      tag_132\n        /* \"ExodusTokenMigrator/OlympusTokenMigrator.sol\":3509:3516  wAmount */\n      dup2\n        /* \"ExodusTokenMigrator/OlympusTokenMigrator.sol\":3518:3521  _to */\n      dup4\n        /* \"ExodusTokenMigrator/OlympusTokenMigrator.sol\":3503:3508  _send */\n      tag_133\n        /* \"ExodusTokenMigrator/OlympusTokenMigrator.sol\":3503:3522  _send(wAmount, _to) */\n      jump\t// in\n    tag_132:\n        /* \"ExodusTokenMigrator/OlympusTokenMigrator.sol\":3400:3594  if (exoMigrated) {... */\n      jump(tag_134)\n    tag_126:\n        /* \"ExodusTokenMigrator/OlympusTokenMigrator.sol\":3553:3557  gEXO */\n      sload(0x02)\n        /* \"ExodusTokenMigrator/OlympusTokenMigrator.sol\":3553:3583  gEXO.mint(msg.sender, wAmount) */\n      0x40\n      dup1\n      mload\n      shl(0xe0, 0x40c10f19)\n      dup2\n      mstore\n        /* \"ExodusTokenMigrator/OlympusTokenMigrator.sol\":3563:3573  msg.sender */\n      caller\n        /* \"ExodusTokenMigrator/OlympusTokenMigrator.sol\":3553:3583  gEXO.mint(msg.sender, wAmount) */\n      0x04\n      dup3\n      add\n      mstore\n      0x24\n      dup2\n      add\n      dup5\n      swap1\n      mstore\n      swap1\n      mload\n      sub(shl(0xa0, 0x01), 0x01)\n        /* \"ExodusTokenMigrator/OlympusTokenMigrator.sol\":3553:3557  gEXO */\n      swap1\n      swap3\n      and\n      swap2\n        /* \"ExodusTokenMigrator/OlympusTokenMigrator.sol\":3553:3562  gEXO.mint */\n      0x40c10f19\n      swap2\n        /* \"ExodusTokenMigrator/OlympusTokenMigrator.sol\":3553:3583  gEXO.mint(msg.sender, wAmount) */\n      0x44\n      dup1\n      dup3\n      add\n      swap3\n        /* \"ExodusTokenMigrator/OlympusTokenMigrator.sol\":3553:3557  gEXO */\n      0x00\n      swap3\n        /* \"ExodusTokenMigrator/OlympusTokenMigrator.sol\":3553:3583  gEXO.mint(msg.sender, wAmount) */\n      swap1\n      swap2\n      swap1\n      dup3\n      swap1\n      sub\n      add\n      dup2\n        /* \"ExodusTokenMigrator/OlympusTokenMigrator.sol\":3553:3557  gEXO */\n      dup4\n      dup8\n        /* \"ExodusTokenMigrator/OlympusTokenMigrator.sol\":3553:3583  gEXO.mint(msg.sender, wAmount) */\n      dup1\n      extcodesize\n      iszero\n      dup1\n      iszero\n      tag_135\n      jumpi\n      0x00\n      dup1\n      revert\n    tag_135:\n      pop\n      gas\n      call\n      iszero\n      dup1\n      iszero\n      tag_137\n      jumpi\n      returndatasize\n      0x00\n      dup1\n      returndatacopy\n      revert(0x00, returndatasize)\n    tag_137:\n      pop\n      pop\n      pop\n      pop\n        /* \"ExodusTokenMigrator/OlympusTokenMigrator.sol\":3400:3594  if (exoMigrated) {... */\n    tag_134:\n        /* \"ExodusTokenMigrator/OlympusTokenMigrator.sol\":2769:3600  function migrate(... */\n      pop\n      pop\n      pop\n      pop\n      jump\t// out\n        /* \"ExodusTokenMigrator/OlympusTokenMigrator.sol\":1454:1478  uint256 public oldSupply */\n    tag_43:\n      sload(0x07)\n      dup2\n      jump\t// out\n        /* \"ExodusTokenMigrator/OlympusTokenMigrator.sol\":902:932  IERC20 public immutable oldEXO */\n    tag_45:\n      immutable(\"0x7751dd710c07ab49cc2c1853892b3f71f3ced69475463e7c975b4ac84ae5fa90\")\n      dup2\n      jump\t// out\n        /* \"ExodusTokenMigrator/OlympusTokenMigrator.sol\":1376:1415  uint256 public immutable timelockLength */\n    tag_47:\n      immutable(\"0x3ad1041c7fca4b981ec9df1cdec68238bc49ef0c518c8c6bf20002aeca8bde61\")\n      dup2\n      jump\t// out\n        /* \"ExodusTokenMigrator/OlympusTokenMigrator.sol\":7206:7418  function setgOHM(address _gEXO) external onlyGovernor {... */\n    tag_50:\n        /* \"ExodusTokenMigrator/OlympusAccessControlled.sol\":672:681  authority */\n      0x01\n      0x00\n      swap1\n      sload\n      swap1\n      0x0100\n      exp\n      swap1\n      div\n      sub(shl(0xa0, 0x01), 0x01)\n      and\n      sub(shl(0xa0, 0x01), 0x01)\n        /* \"ExodusTokenMigrator/OlympusAccessControlled.sol\":672:690  authority.governor */\n      and\n      0x0c340a24\n        /* \"ExodusTokenMigrator/OlympusAccessControlled.sol\":672:692  authority.governor() */\n      mload(0x40)\n      dup2\n      0xffffffff\n      and\n      0xe0\n      shl\n      dup2\n      mstore\n      0x04\n      add\n      0x20\n      mload(0x40)\n      dup1\n      dup4\n      sub\n      dup2\n      dup7\n      dup1\n      extcodesize\n      iszero\n      dup1\n      iszero\n      tag_139\n      jumpi\n      0x00\n      dup1\n      revert\n    tag_139:\n      pop\n      gas\n      staticcall\n      iszero\n      dup1\n      iszero\n      tag_141\n      jumpi\n      returndatasize\n      0x00\n      dup1\n      returndatacopy\n      revert(0x00, returndatasize)\n    tag_141:\n      pop\n      pop\n      pop\n      pop\n      mload(0x40)\n      returndatasize\n      0x20\n      dup2\n      lt\n      iszero\n      tag_142\n      jumpi\n      0x00\n      dup1\n      revert\n    tag_142:\n      pop\n      mload\n        /* \"ExodusTokenMigrator/OlympusAccessControlled.sol\":694:706  UNAUTHORIZED */\n      0x00\n      swap1\n      sub(shl(0xa0, 0x01), 0x01)\n        /* \"ExodusTokenMigrator/OlympusAccessControlled.sol\":658:692  msg.sender == authority.governor() */\n      and\n        /* \"ExodusTokenMigrator/OlympusAccessControlled.sol\":658:668  msg.sender */\n      caller\n        /* \"ExodusTokenMigrator/OlympusAccessControlled.sol\":658:692  msg.sender == authority.governor() */\n      eq\n        /* \"ExodusTokenMigrator/OlympusAccessControlled.sol\":650:707  require(msg.sender == authority.governor(), UNAUTHORIZED) */\n      tag_143\n      jumpi\n      mload(0x40)\n      shl(0xe5, 0x461bcd)\n      dup2\n      mstore\n      0x20\n      0x04\n      dup3\n      add\n      swap1\n      dup2\n      mstore\n      dup3\n      sload\n      0x02\n      not(0x00)\n      0x0100\n      0x01\n      dup5\n      and\n      iszero\n      mul\n      add\n      swap1\n      swap2\n      and\n      div\n      0x24\n      dup4\n      add\n      dup2\n      swap1\n      mstore\n      swap1\n      swap2\n      dup3\n      swap2\n      0x44\n      swap1\n      swap2\n      add\n      swap1\n      dup5\n      swap1\n      dup1\n      iszero\n      tag_144\n      jumpi\n      dup1\n      0x1f\n      lt\n      tag_145\n      jumpi\n      0x0100\n      dup1\n      dup4\n      sload\n      div\n      mul\n      dup4\n      mstore\n      swap2\n      0x20\n      add\n      swap2\n      jump(tag_144)\n    tag_145:\n      dup3\n      add\n      swap2\n      swap1\n      0x00\n      mstore\n      keccak256(0x00, 0x20)\n      swap1\n    tag_146:\n      dup2\n      sload\n      dup2\n      mstore\n      swap1\n      0x01\n      add\n      swap1\n      0x20\n      add\n      dup1\n      dup4\n      gt\n      tag_146\n      jumpi\n      dup3\n      swap1\n      sub\n      0x1f\n      and\n      dup3\n      add\n      swap2\n    tag_144:\n      pop\n      pop\n      swap3\n      pop\n      pop\n      pop\n      mload(0x40)\n      dup1\n      swap2\n      sub\n      swap1\n      revert\n    tag_143:\n      pop\n        /* \"ExodusTokenMigrator/OlympusTokenMigrator.sol\":7286:7290  gEXO */\n      and(sub(shl(0xa0, 0x01), 0x01), sload(0x02))\n        /* \"ExodusTokenMigrator/OlympusTokenMigrator.sol\":7278:7305  address(gEXO) == address(0) */\n      iszero\n        /* \"ExodusTokenMigrator/OlympusTokenMigrator.sol\":7270:7321  require(address(gEXO) == address(0), \"Already set\") */\n      tag_148\n      jumpi\n      0x40\n      dup1\n      mload\n      shl(0xe5, 0x461bcd)\n      dup2\n      mstore\n      0x20\n      0x04\n      dup3\n      add\n      mstore\n      0x0b\n      0x24\n      dup3\n      add\n      mstore\n      0x416c726561647920736574000000000000000000000000000000000000000000\n      0x44\n      dup3\n      add\n      mstore\n      swap1\n      mload\n      swap1\n      dup2\n      swap1\n      sub\n      0x64\n      add\n      swap1\n      revert\n    tag_148:\n      sub(shl(0xa0, 0x01), 0x01)\n        /* \"ExodusTokenMigrator/OlympusTokenMigrator.sol\":7339:7358  _gEXO != address(0) */\n      dup2\n      and\n        /* \"ExodusTokenMigrator/OlympusTokenMigrator.sol\":7331:7381  require(_gEXO != address(0), \"Zero address: gEXO\") */\n      tag_149\n      jumpi\n      0x40\n      dup1\n      mload\n      shl(0xe5, 0x461bcd)\n      dup2\n      mstore\n      0x20\n      0x04\n      dup3\n      add\n      mstore\n      0x12\n      0x24\n      dup3\n      add\n      mstore\n      0x5a65726f20616464726573733a206745584f0000000000000000000000000000\n      0x44\n      dup3\n      add\n      mstore\n      swap1\n      mload\n      swap1\n      dup2\n      swap1\n      sub\n      0x64\n      add\n      swap1\n      revert\n    tag_149:\n        /* \"ExodusTokenMigrator/OlympusTokenMigrator.sol\":7392:7396  gEXO */\n      0x02\n        /* \"ExodusTokenMigrator/OlympusTokenMigrator.sol\":7392:7411  gEXO = IgEXO(_gEXO) */\n      dup1\n      sload\n      not(0xffffffffffffffffffffffffffffffffffffffff)\n      and\n      sub(shl(0xa0, 0x01), 0x01)\n      swap3\n      swap1\n      swap3\n      and\n      swap2\n      swap1\n      swap2\n      or\n      swap1\n      sstore\n        /* \"ExodusTokenMigrator/OlympusTokenMigrator.sol\":7206:7418  function setgOHM(address _gEXO) external onlyGovernor {... */\n      jump\t// out\n        /* \"ExodusTokenMigrator/OlympusTokenMigrator.sol\":1204:1221  IgEXO public gEXO */\n    tag_52:\n      and(sub(shl(0xa0, 0x01), 0x01), sload(0x02))\n      dup2\n      jump\t// out\n        /* \"ExodusTokenMigrator/OlympusTokenMigrator.sol\":8887:10039  function withdrawToken(... */\n    tag_55:\n        /* \"ExodusTokenMigrator/OlympusAccessControlled.sol\":672:681  authority */\n      0x01\n      0x00\n      swap1\n      sload\n      swap1\n      0x0100\n      exp\n      swap1\n      div\n      sub(shl(0xa0, 0x01), 0x01)\n      and\n      sub(shl(0xa0, 0x01), 0x01)\n        /* \"ExodusTokenMigrator/OlympusAccessControlled.sol\":672:690  authority.governor */\n      and\n      0x0c340a24\n        /* \"ExodusTokenMigrator/OlympusAccessControlled.sol\":672:692  authority.governor() */\n      mload(0x40)\n      dup2\n      0xffffffff\n      and\n      0xe0\n      shl\n      dup2\n      mstore\n      0x04\n      add\n      0x20\n      mload(0x40)\n      dup1\n      dup4\n      sub\n      dup2\n      dup7\n      dup1\n      extcodesize\n      iszero\n      dup1\n      iszero\n      tag_151\n      jumpi\n      0x00\n      dup1\n      revert\n    tag_151:\n      pop\n      gas\n      staticcall\n      iszero\n      dup1\n      iszero\n      tag_153\n      jumpi\n      returndatasize\n      0x00\n      dup1\n      returndatacopy\n      revert(0x00, returndatasize)\n    tag_153:\n      pop\n      pop\n      pop\n      pop\n      mload(0x40)\n      returndatasize\n      0x20\n      dup2\n      lt\n      iszero\n      tag_154\n      jumpi\n      0x00\n      dup1\n      revert\n    tag_154:\n      pop\n      mload\n        /* \"ExodusTokenMigrator/OlympusAccessControlled.sol\":694:706  UNAUTHORIZED */\n      0x00\n      swap1\n      sub(shl(0xa0, 0x01), 0x01)\n        /* \"ExodusTokenMigrator/OlympusAccessControlled.sol\":658:692  msg.sender == authority.governor() */\n      and\n        /* \"ExodusTokenMigrator/OlympusAccessControlled.sol\":658:668  msg.sender */\n      caller\n        /* \"ExodusTokenMigrator/OlympusAccessControlled.sol\":658:692  msg.sender == authority.governor() */\n      eq\n        /* \"ExodusTokenMigrator/OlympusAccessControlled.sol\":650:707  require(msg.sender == authority.governor(), UNAUTHORIZED) */\n      tag_155\n      jumpi\n      mload(0x40)\n      shl(0xe5, 0x461bcd)\n      dup2\n      mstore\n      0x20\n      0x04\n      dup3\n      add\n      swap1\n      dup2\n      mstore\n      dup3\n      sload\n      0x02\n      not(0x00)\n      0x0100\n      0x01\n      dup5\n      and\n      iszero\n      mul\n      add\n      swap1\n      swap2\n      and\n      div\n      0x24\n      dup4\n      add\n      dup2\n      swap1\n      mstore\n      swap1\n      swap2\n      dup3\n      swap2\n      0x44\n      swap1\n      swap2\n      add\n      swap1\n      dup5\n      swap1\n      dup1\n      iszero\n      tag_144\n      jumpi\n      dup1\n      0x1f\n      lt\n      tag_145\n      jumpi\n      0x0100\n      dup1\n      dup4\n      sload\n      div\n      mul\n      dup4\n      mstore\n      swap2\n      0x20\n      add\n      swap2\n      jump(tag_144)\n    tag_155:\n      pop\n      sub(shl(0xa0, 0x01), 0x01)\n        /* \"ExodusTokenMigrator/OlympusTokenMigrator.sol\":9037:9063  tokenAddress != address(0) */\n      dup4\n      and\n        /* \"ExodusTokenMigrator/OlympusTokenMigrator.sol\":9029:9095  require(tokenAddress != address(0), \"Token address cannot be 0x0\") */\n      tag_160\n      jumpi\n      0x40\n      dup1\n      mload\n      shl(0xe5, 0x461bcd)\n      dup2\n      mstore\n      0x20\n      0x04\n      dup3\n      add\n      mstore\n      0x1b\n      0x24\n      dup3\n      add\n      mstore\n      0x546f6b656e20616464726573732063616e6e6f74206265203078300000000000\n      0x44\n      dup3\n      add\n      mstore\n      swap1\n      mload\n      swap1\n      dup2\n      swap1\n      sub\n      0x64\n      add\n      swap1\n      revert\n    tag_160:\n        /* \"ExodusTokenMigrator/OlympusTokenMigrator.sol\":9137:9141  gEXO */\n      sload(0x02)\n      sub(shl(0xa0, 0x01), 0x01)\n        /* \"ExodusTokenMigrator/OlympusTokenMigrator.sol\":9113:9142  tokenAddress != address(gEXO) */\n      dup5\n      dup2\n      and\n        /* \"ExodusTokenMigrator/OlympusTokenMigrator.sol\":9137:9141  gEXO */\n      swap2\n      and\n        /* \"ExodusTokenMigrator/OlympusTokenMigrator.sol\":9113:9142  tokenAddress != address(gEXO) */\n      eq\n      iszero\n        /* \"ExodusTokenMigrator/OlympusTokenMigrator.sol\":9105:9168  require(tokenAddress != address(gEXO), \"Cannot withdraw: gEXO\") */\n      tag_161\n      jumpi\n      0x40\n      dup1\n      mload\n      shl(0xe5, 0x461bcd)\n      dup2\n      mstore\n      0x20\n      0x04\n      dup3\n      add\n      mstore\n      0x15\n      0x24\n      dup3\n      add\n      mstore\n      0x43616e6e6f742077697468647261773a206745584f0000000000000000000000\n      0x44\n      dup3\n      add\n      mstore\n      swap1\n      mload\n      swap1\n      dup2\n      swap1\n      sub\n      0x64\n      add\n      swap1\n      revert\n    tag_161:\n        /* \"ExodusTokenMigrator/OlympusTokenMigrator.sol\":9210:9216  oldEXO */\n      immutable(\"0x7751dd710c07ab49cc2c1853892b3f71f3ced69475463e7c975b4ac84ae5fa90\")\n      sub(shl(0xa0, 0x01), 0x01)\n        /* \"ExodusTokenMigrator/OlympusTokenMigrator.sol\":9186:9217  tokenAddress != address(oldEXO) */\n      and\n        /* \"ExodusTokenMigrator/OlympusTokenMigrator.sol\":9186:9198  tokenAddress */\n      dup4\n      sub(shl(0xa0, 0x01), 0x01)\n        /* \"ExodusTokenMigrator/OlympusTokenMigrator.sol\":9186:9217  tokenAddress != address(oldEXO) */\n      and\n      eq\n      iszero\n        /* \"ExodusTokenMigrator/OlympusTokenMigrator.sol\":9178:9246  require(tokenAddress != address(oldEXO), \"Cannot withdraw: old-EXO\") */\n      tag_162\n      jumpi\n      0x40\n      dup1\n      mload\n      shl(0xe5, 0x461bcd)\n      dup2\n      mstore\n      0x20\n      0x04\n      dup3\n      add\n      mstore\n      0x18\n      0x24\n      dup3\n      add\n      mstore\n      0x43616e6e6f742077697468647261773a206f6c642d45584f0000000000000000\n      0x44\n      dup3\n      add\n      mstore\n      swap1\n      mload\n      swap1\n      dup2\n      swap1\n      sub\n      0x64\n      add\n      swap1\n      revert\n    tag_162:\n        /* \"ExodusTokenMigrator/OlympusTokenMigrator.sol\":9288:9295  oldsEXO */\n      immutable(\"0xa98a2f5aeb9ac9608e39eb3f8b40f1c25875f48fb0abb123ad85a5ab2ba25315\")\n      sub(shl(0xa0, 0x01), 0x01)\n        /* \"ExodusTokenMigrator/OlympusTokenMigrator.sol\":9264:9296  tokenAddress != address(oldsEXO) */\n      and\n        /* \"ExodusTokenMigrator/OlympusTokenMigrator.sol\":9264:9276  tokenAddress */\n      dup4\n      sub(shl(0xa0, 0x01), 0x01)\n        /* \"ExodusTokenMigrator/OlympusTokenMigrator.sol\":9264:9296  tokenAddress != address(oldsEXO) */\n      and\n      eq\n      iszero\n        /* \"ExodusTokenMigrator/OlympusTokenMigrator.sol\":9256:9326  require(tokenAddress != address(oldsEXO), \"Cannot withdraw: old-sEXO\") */\n      tag_163\n      jumpi\n      0x40\n      dup1\n      mload\n      shl(0xe5, 0x461bcd)\n      dup2\n      mstore\n      0x20\n      0x04\n      dup3\n      add\n      mstore\n      0x19\n      0x24\n      dup3\n      add\n      mstore\n      0x43616e6e6f742077697468647261773a206f6c642d7345584f00000000000000\n      0x44\n      dup3\n      add\n      mstore\n      swap1\n      mload\n      swap1\n      dup2\n      swap1\n      sub\n      0x64\n      add\n      swap1\n      revert\n    tag_163:\n        /* \"ExodusTokenMigrator/OlympusTokenMigrator.sol\":9368:9376  oldwsEXO */\n      immutable(\"0x03065c56175bab9d6c02682cec557b5c933cd8364ccf2dd44ab76e0c260931e7\")\n      sub(shl(0xa0, 0x01), 0x01)\n        /* \"ExodusTokenMigrator/OlympusTokenMigrator.sol\":9344:9377  tokenAddress != address(oldwsEXO) */\n      and\n        /* \"ExodusTokenMigrator/OlympusTokenMigrator.sol\":9344:9356  tokenAddress */\n      dup4\n      sub(shl(0xa0, 0x01), 0x01)\n        /* \"ExodusTokenMigrator/OlympusTokenMigrator.sol\":9344:9377  tokenAddress != address(oldwsEXO) */\n      and\n      eq\n      iszero\n        /* \"ExodusTokenMigrator/OlympusTokenMigrator.sol\":9336:9408  require(tokenAddress != address(oldwsEXO), \"Cannot withdraw: old-wsEXO\") */\n      tag_164\n      jumpi\n      0x40\n      dup1\n      mload\n      shl(0xe5, 0x461bcd)\n      dup2\n      mstore\n      0x20\n      0x04\n      dup3\n      add\n      mstore\n      0x1a\n      0x24\n      dup3\n      add\n      mstore\n      0x43616e6e6f742077697468647261773a206f6c642d777345584f000000000000\n      0x44\n      dup3\n      add\n      mstore\n      swap1\n      mload\n      swap1\n      dup2\n      swap1\n      sub\n      0x64\n      add\n      swap1\n      revert\n    tag_164:\n        /* \"ExodusTokenMigrator/OlympusTokenMigrator.sol\":9435:9436  0 */\n      0x00\n        /* \"ExodusTokenMigrator/OlympusTokenMigrator.sol\":9426:9432  amount */\n      dup3\n        /* \"ExodusTokenMigrator/OlympusTokenMigrator.sol\":9426:9436  amount > 0 */\n      gt\n        /* \"ExodusTokenMigrator/OlympusTokenMigrator.sol\":9418:9478  require(amount > 0, \"Withdraw value must be greater than 0\") */\n      tag_165\n      jumpi\n      mload(0x40)\n      shl(0xe5, 0x461bcd)\n      dup2\n      mstore\n      0x04\n      add\n      dup1\n      dup1\n      0x20\n      add\n      dup3\n      dup2\n      sub\n      dup3\n      mstore\n      0x25\n      dup2\n      mstore\n      0x20\n      add\n      dup1\n      data_e48c0cbd20e52a630f11ad261cbb334a63b21adcb292832b91aca94fbc91ae0e\n      0x25\n      swap2\n      codecopy\n      0x40\n      add\n      swap2\n      pop\n      pop\n      mload(0x40)\n      dup1\n      swap2\n      sub\n      swap1\n      revert\n    tag_165:\n      sub(shl(0xa0, 0x01), 0x01)\n        /* \"ExodusTokenMigrator/OlympusTokenMigrator.sol\":9492:9515  recipient == address(0) */\n      dup2\n      and\n        /* \"ExodusTokenMigrator/OlympusTokenMigrator.sol\":9488:9636  if (recipient == address(0)) {... */\n      tag_166\n      jumpi\n      pop\n        /* \"ExodusTokenMigrator/OlympusTokenMigrator.sol\":9543:9553  msg.sender */\n      caller\n        /* \"ExodusTokenMigrator/OlympusTokenMigrator.sol\":9488:9636  if (recipient == address(0)) {... */\n    tag_166:\n        /* \"ExodusTokenMigrator/OlympusTokenMigrator.sol\":9725:9763  tokenContract.balanceOf(address(this)) */\n      0x40\n      dup1\n      mload\n      shl(0xe0, 0x70a08231)\n      dup2\n      mstore\n        /* \"ExodusTokenMigrator/OlympusTokenMigrator.sol\":9757:9761  this */\n      address\n        /* \"ExodusTokenMigrator/OlympusTokenMigrator.sol\":9725:9763  tokenContract.balanceOf(address(this)) */\n      0x04\n      dup3\n      add\n      mstore\n      swap1\n      mload\n        /* \"ExodusTokenMigrator/OlympusTokenMigrator.sol\":9676:9688  tokenAddress */\n      dup5\n      swap2\n        /* \"ExodusTokenMigrator/OlympusTokenMigrator.sol\":9646:9666  IERC20 tokenContract */\n      0x00\n      swap2\n      sub(shl(0xa0, 0x01), 0x01)\n        /* \"ExodusTokenMigrator/OlympusTokenMigrator.sol\":9725:9748  tokenContract.balanceOf */\n      dup5\n      and\n      swap2\n      0x70a08231\n      swap2\n        /* \"ExodusTokenMigrator/OlympusTokenMigrator.sol\":9725:9763  tokenContract.balanceOf(address(this)) */\n      0x24\n      dup1\n      dup4\n      add\n      swap3\n      0x20\n      swap3\n      swap2\n      swap1\n      dup3\n      swap1\n      sub\n      add\n      dup2\n        /* \"ExodusTokenMigrator/OlympusTokenMigrator.sol\":9725:9748  tokenContract.balanceOf */\n      dup7\n        /* \"ExodusTokenMigrator/OlympusTokenMigrator.sol\":9725:9763  tokenContract.balanceOf(address(this)) */\n      dup1\n      extcodesize\n      iszero\n      dup1\n      iszero\n      tag_167\n      jumpi\n      0x00\n      dup1\n      revert\n    tag_167:\n      pop\n      gas\n      staticcall\n      iszero\n      dup1\n      iszero\n      tag_169\n      jumpi\n      returndatasize\n      0x00\n      dup1\n      returndatacopy\n      revert(0x00, returndatasize)\n    tag_169:\n      pop\n      pop\n      pop\n      pop\n      mload(0x40)\n      returndatasize\n      0x20\n      dup2\n      lt\n      iszero\n      tag_170\n      jumpi\n      0x00\n      dup1\n      revert\n    tag_170:\n      pop\n      mload\n      swap1\n      pop\n        /* \"ExodusTokenMigrator/OlympusTokenMigrator.sol\":9777:9801  amount > contractBalance */\n      dup1\n      dup5\n      gt\n        /* \"ExodusTokenMigrator/OlympusTokenMigrator.sol\":9773:9918  if (amount > contractBalance) {... */\n      iszero\n      tag_171\n      jumpi\n        /* \"ExodusTokenMigrator/OlympusTokenMigrator.sol\":9826:9841  contractBalance */\n      dup1\n        /* \"ExodusTokenMigrator/OlympusTokenMigrator.sol\":9817:9841  amount = contractBalance */\n      swap4\n      pop\n        /* \"ExodusTokenMigrator/OlympusTokenMigrator.sol\":9773:9918  if (amount > contractBalance) {... */\n    tag_171:\n        /* \"ExodusTokenMigrator/OlympusTokenMigrator.sol\":9987:10032  tokenContract.safeTransfer(recipient, amount) */\n      tag_172\n      sub(shl(0xa0, 0x01), 0x01)\n        /* \"ExodusTokenMigrator/OlympusTokenMigrator.sol\":9987:10013  tokenContract.safeTransfer */\n      dup4\n      and\n        /* \"ExodusTokenMigrator/OlympusTokenMigrator.sol\":10014:10023  recipient */\n      dup5\n        /* \"ExodusTokenMigrator/OlympusTokenMigrator.sol\":10025:10031  amount */\n      dup7\n        /* \"ExodusTokenMigrator/OlympusTokenMigrator.sol\":9987:10013  tokenContract.safeTransfer */\n      tag_173\n        /* \"ExodusTokenMigrator/OlympusTokenMigrator.sol\":9987:10032  tokenContract.safeTransfer(recipient, amount) */\n      jump\t// in\n    tag_172:\n        /* \"ExodusTokenMigrator/OlympusAccessControlled.sol\":717:718  _ */\n      pop\n      pop\n        /* \"ExodusTokenMigrator/OlympusTokenMigrator.sol\":8887:10039  function withdrawToken(... */\n      pop\n      pop\n      pop\n      jump\t// out\n        /* \"ExodusTokenMigrator/OlympusTokenMigrator.sol\":1227:1255  ITreasury public newTreasury */\n    tag_57:\n      and(sub(shl(0xa0, 0x01), 0x01), sload(0x03))\n      dup2\n      jump\t// out\n        /* \"ExodusTokenMigrator/OlympusTokenMigrator.sol\":1058:1096  IStakingV1 public immutable oldStaking */\n    tag_59:\n      immutable(\"0x4c4fd4da8ae1c1f2895da0cdd646517e3d75688175eb5d33ccff8a0b8439df64\")\n      dup2\n      jump\t// out\n        /* \"ExodusTokenMigrator/OlympusTokenMigrator.sol\":1293:1313  IERC20 public newEXO */\n    tag_61:\n      and(sub(shl(0xa0, 0x01), 0x01), sload(0x05))\n      dup2\n      jump\t// out\n        /* \"ExodusTokenMigrator/OlympusTokenMigrator.sol\":5773:5903  function halt() external onlyPolicy {... */\n    tag_63:\n        /* \"ExodusTokenMigrator/OlympusAccessControlled.sol\":900:909  authority */\n      0x01\n      0x00\n      swap1\n      sload\n      swap1\n      0x0100\n      exp\n      swap1\n      div\n      sub(shl(0xa0, 0x01), 0x01)\n      and\n      sub(shl(0xa0, 0x01), 0x01)\n        /* \"ExodusTokenMigrator/OlympusAccessControlled.sol\":900:916  authority.policy */\n      and\n      0x0505c8c9\n        /* \"ExodusTokenMigrator/OlympusAccessControlled.sol\":900:918  authority.policy() */\n      mload(0x40)\n      dup2\n      0xffffffff\n      and\n      0xe0\n      shl\n      dup2\n      mstore\n      0x04\n      add\n      0x20\n      mload(0x40)\n      dup1\n      dup4\n      sub\n      dup2\n      dup7\n      dup1\n      extcodesize\n      iszero\n      dup1\n      iszero\n      tag_175\n      jumpi\n      0x00\n      dup1\n      revert\n    tag_175:\n      pop\n      gas\n      staticcall\n      iszero\n      dup1\n      iszero\n      tag_177\n      jumpi\n      returndatasize\n      0x00\n      dup1\n      returndatacopy\n      revert(0x00, returndatasize)\n    tag_177:\n      pop\n      pop\n      pop\n      pop\n      mload(0x40)\n      returndatasize\n      0x20\n      dup2\n      lt\n      iszero\n      tag_178\n      jumpi\n      0x00\n      dup1\n      revert\n    tag_178:\n      pop\n      mload\n        /* \"ExodusTokenMigrator/OlympusAccessControlled.sol\":920:932  UNAUTHORIZED */\n      0x00\n      swap1\n      sub(shl(0xa0, 0x01), 0x01)\n        /* \"ExodusTokenMigrator/OlympusAccessControlled.sol\":886:918  msg.sender == authority.policy() */\n      and\n        /* \"ExodusTokenMigrator/OlympusAccessControlled.sol\":886:896  msg.sender */\n      caller\n        /* \"ExodusTokenMigrator/OlympusAccessControlled.sol\":886:918  msg.sender == authority.policy() */\n      eq\n        /* \"ExodusTokenMigrator/OlympusAccessControlled.sol\":878:933  require(msg.sender == authority.policy(), UNAUTHORIZED) */\n      tag_179\n      jumpi\n      mload(0x40)\n      shl(0xe5, 0x461bcd)\n      dup2\n      mstore\n      0x20\n      0x04\n      dup3\n      add\n      swap1\n      dup2\n      mstore\n      dup3\n      sload\n      0x02\n      not(0x00)\n      0x0100\n      0x01\n      dup5\n      and\n      iszero\n      mul\n      add\n      swap1\n      swap2\n      and\n      div\n      0x24\n      dup4\n      add\n      dup2\n      swap1\n      mstore\n      swap1\n      swap2\n      dup3\n      swap2\n      0x44\n      swap1\n      swap2\n      add\n      swap1\n      dup5\n      swap1\n      dup1\n      iszero\n      tag_144\n      jumpi\n      dup1\n      0x1f\n      lt\n      tag_145\n      jumpi\n      0x0100\n      dup1\n      dup4\n      sload\n      div\n      mul\n      dup4\n      mstore\n      swap2\n      0x20\n      add\n      swap2\n      jump(tag_144)\n    tag_179:\n      pop\n        /* \"ExodusTokenMigrator/OlympusTokenMigrator.sol\":5828:5839  exoMigrated */\n      sload(0x05)\n      shl(0xa0, 0x01)\n      swap1\n      div\n      0xff\n      and\n        /* \"ExodusTokenMigrator/OlympusTokenMigrator.sol\":5827:5839  !exoMigrated */\n      iszero\n        /* \"ExodusTokenMigrator/OlympusTokenMigrator.sol\":5819:5866  require(!exoMigrated, \"Migration has occurred\") */\n      tag_184\n      jumpi\n      0x40\n      dup1\n      mload\n      shl(0xe5, 0x461bcd)\n      dup2\n      mstore\n      0x20\n      0x04\n      dup3\n      add\n      mstore\n      0x16\n      0x24\n      dup3\n      add\n      mstore\n      0x4d6967726174696f6e20686173206f6363757272656400000000000000000000\n      0x44\n      dup3\n      add\n      mstore\n      swap1\n      mload\n      swap1\n      dup2\n      swap1\n      sub\n      0x64\n      add\n      swap1\n      revert\n    tag_184:\n        /* \"ExodusTokenMigrator/OlympusTokenMigrator.sol\":5888:5896  shutdown */\n      0x05\n      dup1\n      sload\n      not(shl(0xa8, 0xff))\n        /* \"ExodusTokenMigrator/OlympusTokenMigrator.sol\":5876:5896  shutdown = !shutdown */\n      dup2\n      and\n      shl(0xa8, 0x01)\n        /* \"ExodusTokenMigrator/OlympusTokenMigrator.sol\":5888:5896  shutdown */\n      swap2\n      dup3\n      swap1\n      div\n      0xff\n      and\n        /* \"ExodusTokenMigrator/OlympusTokenMigrator.sol\":5887:5896  !shutdown */\n      iszero\n        /* \"ExodusTokenMigrator/OlympusTokenMigrator.sol\":5876:5896  shutdown = !shutdown */\n      swap1\n      swap2\n      mul\n      or\n      swap1\n      sstore\n        /* \"ExodusTokenMigrator/OlympusTokenMigrator.sol\":5773:5903  function halt() external onlyPolicy {... */\n      jump\t// out\n        /* \"ExodusTokenMigrator/OlympusTokenMigrator.sol\":1421:1447  uint256 public timelockEnd */\n    tag_65:\n      sload(0x06)\n      dup2\n      jump\t// out\n        /* \"ExodusTokenMigrator/OlympusTokenMigrator.sol\":938:968  IsEXO public immutable oldsEXO */\n    tag_67:\n      immutable(\"0xa98a2f5aeb9ac9608e39eb3f8b40f1c25875f48fb0abb123ad85a5ab2ba25315\")\n      dup2\n      jump\t// out\n        /* \"ExodusTokenMigrator/OlympusTokenMigrator.sol\":1103:1148  IUniswapV2Router public immutable sushiRouter */\n    tag_69:\n      immutable(\"0xd73e0b65d8a88e087fe45492939659264b6eeb687212994f56dac859eedb899a\")\n      dup2\n      jump\t// out\n        /* \"ExodusTokenMigrator/OlympusAccessControlled.sol\":1108:1272  function setAuthority(IExodusAuthority _newAuthority) external onlyGovernor {... */\n    tag_72:\n        /* \"ExodusTokenMigrator/OlympusAccessControlled.sol\":672:681  authority */\n      0x01\n      0x00\n      swap1\n      sload\n      swap1\n      0x0100\n      exp\n      swap1\n      div\n      sub(shl(0xa0, 0x01), 0x01)\n      and\n      sub(shl(0xa0, 0x01), 0x01)\n        /* \"ExodusTokenMigrator/OlympusAccessControlled.sol\":672:690  authority.governor */\n      and\n      0x0c340a24\n        /* \"ExodusTokenMigrator/OlympusAccessControlled.sol\":672:692  authority.governor() */\n      mload(0x40)\n      dup2\n      0xffffffff\n      and\n      0xe0\n      shl\n      dup2\n      mstore\n      0x04\n      add\n      0x20\n      mload(0x40)\n      dup1\n      dup4\n      sub\n      dup2\n      dup7\n      dup1\n      extcodesize\n      iszero\n      dup1\n      iszero\n      tag_186\n      jumpi\n      0x00\n      dup1\n      revert\n    tag_186:\n      pop\n      gas\n      staticcall\n      iszero\n      dup1\n      iszero\n      tag_188\n      jumpi\n      returndatasize\n      0x00\n      dup1\n      returndatacopy\n      revert(0x00, returndatasize)\n    tag_188:\n      pop\n      pop\n      pop\n      pop\n      mload(0x40)\n      returndatasize\n      0x20\n      dup2\n      lt\n      iszero\n      tag_189\n      jumpi\n      0x00\n      dup1\n      revert\n    tag_189:\n      pop\n      mload\n        /* \"ExodusTokenMigrator/OlympusAccessControlled.sol\":694:706  UNAUTHORIZED */\n      0x00\n      swap1\n      sub(shl(0xa0, 0x01), 0x01)\n        /* \"ExodusTokenMigrator/OlympusAccessControlled.sol\":658:692  msg.sender == authority.governor() */\n      and\n        /* \"ExodusTokenMigrator/OlympusAccessControlled.sol\":658:668  msg.sender */\n      caller\n        /* \"ExodusTokenMigrator/OlympusAccessControlled.sol\":658:692  msg.sender == authority.governor() */\n      eq\n        /* \"ExodusTokenMigrator/OlympusAccessControlled.sol\":650:707  require(msg.sender == authority.governor(), UNAUTHORIZED) */\n      tag_190\n      jumpi\n      mload(0x40)\n      shl(0xe5, 0x461bcd)\n      dup2\n      mstore\n      0x20\n      0x04\n      dup3\n      add\n      swap1\n      dup2\n      mstore\n      dup3\n      sload\n      0x02\n      not(0x00)\n      0x0100\n      0x01\n      dup5\n      and\n      iszero\n      mul\n      add\n      swap1\n      swap2\n      and\n      div\n      0x24\n      dup4\n      add\n      dup2\n      swap1\n      mstore\n      swap1\n      swap2\n      dup3\n      swap2\n      0x44\n      swap1\n      swap2\n      add\n      swap1\n      dup5\n      swap1\n      dup1\n      iszero\n      tag_144\n      jumpi\n      dup1\n      0x1f\n      lt\n      tag_145\n      jumpi\n      0x0100\n      dup1\n      dup4\n      sload\n      div\n      mul\n      dup4\n      mstore\n      swap2\n      0x20\n      add\n      swap2\n      jump(tag_144)\n    tag_190:\n      pop\n        /* \"ExodusTokenMigrator/OlympusAccessControlled.sol\":1194:1203  authority */\n      0x01\n        /* \"ExodusTokenMigrator/OlympusAccessControlled.sol\":1194:1219  authority = _newAuthority */\n      dup1\n      sload\n      not(0xffffffffffffffffffffffffffffffffffffffff)\n      and\n      sub(shl(0xa0, 0x01), 0x01)\n      dup4\n      and\n      swap1\n      dup2\n      or\n      swap1\n      swap2\n      sstore\n        /* \"ExodusTokenMigrator/OlympusAccessControlled.sol\":1234:1265  AuthorityUpdated(_newAuthority) */\n      mload(0x40)\n      0x2f658b440c35314f52658ea8a740e05b284cdc84dc9ae01e891f21b8933e7cad\n      swap1\n      0x00\n      swap1\n      log2\n        /* \"ExodusTokenMigrator/OlympusAccessControlled.sol\":1108:1272  function setAuthority(IExodusAuthority _newAuthority) external onlyGovernor {... */\n      pop\n      jump\t// out\n        /* \"ExodusTokenMigrator/OlympusTokenMigrator.sol\":1154:1197  IUniswapV2Router public immutable uniRouter */\n    tag_74:\n      immutable(\"0x28d661cc9d988d5307f207b74b6d74cee4476610b1bde926474d3f5b95354fd2\")\n      dup2\n      jump\t// out\n        /* \"ExodusTokenMigrator/OlympusTokenMigrator.sol\":5025:5679  function bridgeBack(uint256 _amount, TYPE _to) external {... */\n    tag_77:\n        /* \"ExodusTokenMigrator/OlympusTokenMigrator.sol\":5096:5107  exoMigrated */\n      sload(0x05)\n      shl(0xa0, 0x01)\n      swap1\n      div\n      0xff\n      and\n        /* \"ExodusTokenMigrator/OlympusTokenMigrator.sol\":5091:5252  if (!exoMigrated) {... */\n      tag_196\n      jumpi\n        /* \"ExodusTokenMigrator/OlympusTokenMigrator.sol\":5123:5127  gEXO */\n      sload(0x02)\n        /* \"ExodusTokenMigrator/OlympusTokenMigrator.sol\":5123:5153  gEXO.burn(msg.sender, _amount) */\n      0x40\n      dup1\n      mload\n      0x9dc29fac00000000000000000000000000000000000000000000000000000000\n      dup2\n      mstore\n        /* \"ExodusTokenMigrator/OlympusTokenMigrator.sol\":5133:5143  msg.sender */\n      caller\n        /* \"ExodusTokenMigrator/OlympusTokenMigrator.sol\":5123:5153  gEXO.burn(msg.sender, _amount) */\n      0x04\n      dup3\n      add\n      mstore\n      0x24\n      dup2\n      add\n      dup6\n      swap1\n      mstore\n      swap1\n      mload\n      sub(shl(0xa0, 0x01), 0x01)\n        /* \"ExodusTokenMigrator/OlympusTokenMigrator.sol\":5123:5127  gEXO */\n      swap1\n      swap3\n      and\n      swap2\n        /* \"ExodusTokenMigrator/OlympusTokenMigrator.sol\":5123:5132  gEXO.burn */\n      0x9dc29fac\n      swap2\n        /* \"ExodusTokenMigrator/OlympusTokenMigrator.sol\":5123:5153  gEXO.burn(msg.sender, _amount) */\n      0x44\n      dup1\n      dup3\n      add\n      swap3\n        /* \"ExodusTokenMigrator/OlympusTokenMigrator.sol\":5123:5127  gEXO */\n      0x00\n      swap3\n        /* \"ExodusTokenMigrator/OlympusTokenMigrator.sol\":5123:5153  gEXO.burn(msg.sender, _amount) */\n      swap1\n      swap2\n      swap1\n      dup3\n      swap1\n      sub\n      add\n      dup2\n        /* \"ExodusTokenMigrator/OlympusTokenMigrator.sol\":5123:5127  gEXO */\n      dup4\n      dup8\n        /* \"ExodusTokenMigrator/OlympusTokenMigrator.sol\":5123:5153  gEXO.burn(msg.sender, _amount) */\n      dup1\n      extcodesize\n      iszero\n      dup1\n      iszero\n      tag_197\n      jumpi\n      0x00\n      dup1\n      revert\n    tag_197:\n      pop\n      gas\n      call\n      iszero\n      dup1\n      iszero\n      tag_199\n      jumpi\n      returndatasize\n      0x00\n      dup1\n      returndatacopy\n      revert(0x00, returndatasize)\n    tag_199:\n      pop\n      pop\n      pop\n      pop\n        /* \"ExodusTokenMigrator/OlympusTokenMigrator.sol\":5091:5252  if (!exoMigrated) {... */\n      jump(tag_201)\n    tag_196:\n        /* \"ExodusTokenMigrator/OlympusTokenMigrator.sol\":5184:5188  gEXO */\n      sload(0x02)\n        /* \"ExodusTokenMigrator/OlympusTokenMigrator.sol\":5184:5241  gEXO.safeTransferFrom(msg.sender, address(this), _amount) */\n      tag_201\n      swap1\n      sub(shl(0xa0, 0x01), 0x01)\n        /* \"ExodusTokenMigrator/OlympusTokenMigrator.sol\":5184:5188  gEXO */\n      and\n        /* \"ExodusTokenMigrator/OlympusTokenMigrator.sol\":5206:5216  msg.sender */\n      caller\n        /* \"ExodusTokenMigrator/OlympusTokenMigrator.sol\":5226:5230  this */\n      address\n        /* \"ExodusTokenMigrator/OlympusTokenMigrator.sol\":5233:5240  _amount */\n      dup6\n        /* \"ExodusTokenMigrator/OlympusTokenMigrator.sol\":5184:5205  gEXO.safeTransferFrom */\n      tag_118\n        /* \"ExodusTokenMigrator/OlympusTokenMigrator.sol\":5184:5241  gEXO.safeTransferFrom(msg.sender, address(this), _amount) */\n      jump\t// in\n    tag_201:\n        /* \"ExodusTokenMigrator/OlympusTokenMigrator.sol\":5262:5276  uint256 amount */\n      0x00\n        /* \"ExodusTokenMigrator/OlympusTokenMigrator.sol\":5279:5287  oldwsEXO */\n      immutable(\"0x03065c56175bab9d6c02682cec557b5c933cd8364ccf2dd44ab76e0c260931e7\")\n      sub(shl(0xa0, 0x01), 0x01)\n        /* \"ExodusTokenMigrator/OlympusTokenMigrator.sol\":5279:5298  oldwsEXO.wOHMTosOHM */\n      and\n      0x554c85a3\n        /* \"ExodusTokenMigrator/OlympusTokenMigrator.sol\":5299:5306  _amount */\n      dup5\n        /* \"ExodusTokenMigrator/OlympusTokenMigrator.sol\":5279:5307  oldwsEXO.wOHMTosOHM(_amount) */\n      mload(0x40)\n      dup3\n      0xffffffff\n      and\n      0xe0\n      shl\n      dup2\n      mstore\n      0x04\n      add\n      dup1\n      dup3\n      dup2\n      mstore\n      0x20\n      add\n      swap2\n      pop\n      pop\n      0x20\n      mload(0x40)\n      dup1\n      dup4\n      sub\n      dup2\n      dup7\n      dup1\n      extcodesize\n      iszero\n      dup1\n      iszero\n      tag_202\n      jumpi\n      0x00\n      dup1\n      revert\n    tag_202:\n      pop\n      gas\n      staticcall\n      iszero\n      dup1\n      iszero\n      tag_204\n      jumpi\n      returndatasize\n      0x00\n      dup1\n      returndatacopy\n      revert(0x00, returndatasize)\n    tag_204:\n      pop\n      pop\n      pop\n      pop\n      mload(0x40)\n      returndatasize\n      0x20\n      dup2\n      lt\n      iszero\n      tag_205\n      jumpi\n      0x00\n      dup1\n      revert\n    tag_205:\n      pop\n      mload\n      swap1\n      pop\n        /* \"ExodusTokenMigrator/OlympusTokenMigrator.sol\":5401:5414  TYPE.UNSTAKED */\n      0x00\n        /* \"ExodusTokenMigrator/OlympusTokenMigrator.sol\":5394:5397  _to */\n      dup3\n        /* \"ExodusTokenMigrator/OlympusTokenMigrator.sol\":5394:5414  _to == TYPE.UNSTAKED */\n      0x02\n      dup2\n      gt\n      iszero\n      tag_207\n      jumpi\n      invalid\n    tag_207:\n      eq\n        /* \"ExodusTokenMigrator/OlympusTokenMigrator.sol\":5390:5673  if (_to == TYPE.UNSTAKED) {... */\n      iszero\n      tag_208\n      jumpi\n        /* \"ExodusTokenMigrator/OlympusTokenMigrator.sol\":5430:5469  oldEXO.safeTransfer(msg.sender, amount) */\n      tag_209\n      sub(shl(0xa0, 0x01), 0x01)\n        /* \"ExodusTokenMigrator/OlympusTokenMigrator.sol\":5430:5436  oldEXO */\n      immutable(\"0x7751dd710c07ab49cc2c1853892b3f71f3ced69475463e7c975b4ac84ae5fa90\")\n        /* \"ExodusTokenMigrator/OlympusTokenMigrator.sol\":5430:5449  oldEXO.safeTransfer */\n      and\n        /* \"ExodusTokenMigrator/OlympusTokenMigrator.sol\":5450:5460  msg.sender */\n      caller\n        /* \"ExodusTokenMigrator/OlympusTokenMigrator.sol\":5462:5468  amount */\n      dup4\n        /* \"ExodusTokenMigrator/OlympusTokenMigrator.sol\":5430:5449  oldEXO.safeTransfer */\n      tag_173\n        /* \"ExodusTokenMigrator/OlympusTokenMigrator.sol\":5430:5469  oldEXO.safeTransfer(msg.sender, amount) */\n      jump\t// in\n    tag_209:\n        /* \"ExodusTokenMigrator/OlympusTokenMigrator.sol\":5390:5673  if (_to == TYPE.UNSTAKED) {... */\n      jump(tag_219)\n    tag_208:\n        /* \"ExodusTokenMigrator/OlympusTokenMigrator.sol\":5497:5508  TYPE.STAKED */\n      0x01\n        /* \"ExodusTokenMigrator/OlympusTokenMigrator.sol\":5490:5493  _to */\n      dup3\n        /* \"ExodusTokenMigrator/OlympusTokenMigrator.sol\":5490:5508  _to == TYPE.STAKED */\n      0x02\n      dup2\n      gt\n      iszero\n      tag_212\n      jumpi\n      invalid\n    tag_212:\n      eq\n        /* \"ExodusTokenMigrator/OlympusTokenMigrator.sol\":5486:5673  if (_to == TYPE.STAKED) {... */\n      iszero\n      tag_213\n      jumpi\n        /* \"ExodusTokenMigrator/OlympusTokenMigrator.sol\":5524:5564  oldsEXO.safeTransfer(msg.sender, amount) */\n      tag_209\n      sub(shl(0xa0, 0x01), 0x01)\n        /* \"ExodusTokenMigrator/OlympusTokenMigrator.sol\":5524:5531  oldsEXO */\n      immutable(\"0xa98a2f5aeb9ac9608e39eb3f8b40f1c25875f48fb0abb123ad85a5ab2ba25315\")\n        /* \"ExodusTokenMigrator/OlympusTokenMigrator.sol\":5524:5544  oldsEXO.safeTransfer */\n      and\n        /* \"ExodusTokenMigrator/OlympusTokenMigrator.sol\":5545:5555  msg.sender */\n      caller\n        /* \"ExodusTokenMigrator/OlympusTokenMigrator.sol\":5557:5563  amount */\n      dup4\n        /* \"ExodusTokenMigrator/OlympusTokenMigrator.sol\":5524:5544  oldsEXO.safeTransfer */\n      tag_173\n        /* \"ExodusTokenMigrator/OlympusTokenMigrator.sol\":5524:5564  oldsEXO.safeTransfer(msg.sender, amount) */\n      jump\t// in\n        /* \"ExodusTokenMigrator/OlympusTokenMigrator.sol\":5486:5673  if (_to == TYPE.STAKED) {... */\n    tag_213:\n        /* \"ExodusTokenMigrator/OlympusTokenMigrator.sol\":5592:5604  TYPE.WRAPPED */\n      0x02\n        /* \"ExodusTokenMigrator/OlympusTokenMigrator.sol\":5585:5588  _to */\n      dup3\n        /* \"ExodusTokenMigrator/OlympusTokenMigrator.sol\":5585:5604  _to == TYPE.WRAPPED */\n      0x02\n      dup2\n      gt\n      iszero\n      tag_217\n      jumpi\n      invalid\n    tag_217:\n      eq\n        /* \"ExodusTokenMigrator/OlympusTokenMigrator.sol\":5581:5673  if (_to == TYPE.WRAPPED) {... */\n      iszero\n      tag_219\n      jumpi\n        /* \"ExodusTokenMigrator/OlympusTokenMigrator.sol\":5620:5662  oldwsEXO.safeTransfer(msg.sender, _amount) */\n      tag_219\n      sub(shl(0xa0, 0x01), 0x01)\n        /* \"ExodusTokenMigrator/OlympusTokenMigrator.sol\":5620:5628  oldwsEXO */\n      immutable(\"0x03065c56175bab9d6c02682cec557b5c933cd8364ccf2dd44ab76e0c260931e7\")\n        /* \"ExodusTokenMigrator/OlympusTokenMigrator.sol\":5620:5641  oldwsEXO.safeTransfer */\n      and\n        /* \"ExodusTokenMigrator/OlympusTokenMigrator.sol\":5642:5652  msg.sender */\n      caller\n        /* \"ExodusTokenMigrator/OlympusTokenMigrator.sol\":5654:5661  _amount */\n      dup6\n        /* \"ExodusTokenMigrator/OlympusTokenMigrator.sol\":5620:5641  oldwsEXO.safeTransfer */\n      tag_173\n        /* \"ExodusTokenMigrator/OlympusTokenMigrator.sol\":5620:5662  oldwsEXO.safeTransfer(msg.sender, _amount) */\n      jump\t// in\n    tag_219:\n        /* \"ExodusTokenMigrator/OlympusTokenMigrator.sol\":5025:5679  function bridgeBack(uint256 _amount, TYPE _to) external {... */\n      pop\n      pop\n      pop\n      jump\t// out\n        /* \"ExodusTokenMigrator/OlympusTokenMigrator.sol\":6957:7176  function startTimelock() external onlyGovernor {... */\n    tag_79:\n        /* \"ExodusTokenMigrator/OlympusAccessControlled.sol\":672:681  authority */\n      0x01\n      0x00\n      swap1\n      sload\n      swap1\n      0x0100\n      exp\n      swap1\n      div\n      sub(shl(0xa0, 0x01), 0x01)\n      and\n      sub(shl(0xa0, 0x01), 0x01)\n        /* \"ExodusTokenMigrator/OlympusAccessControlled.sol\":672:690  authority.governor */\n      and\n      0x0c340a24\n        /* \"ExodusTokenMigrator/OlympusAccessControlled.sol\":672:692  authority.governor() */\n      mload(0x40)\n      dup2\n      0xffffffff\n      and\n      0xe0\n      shl\n      dup2\n      mstore\n      0x04\n      add\n      0x20\n      mload(0x40)\n      dup1\n      dup4\n      sub\n      dup2\n      dup7\n      dup1\n      extcodesize\n      iszero\n      dup1\n      iszero\n      tag_221\n      jumpi\n      0x00\n      dup1\n      revert\n    tag_221:\n      pop\n      gas\n      staticcall\n      iszero\n      dup1\n      iszero\n      tag_223\n      jumpi\n      returndatasize\n      0x00\n      dup1\n      returndatacopy\n      revert(0x00, returndatasize)\n    tag_223:\n      pop\n      pop\n      pop\n      pop\n      mload(0x40)\n      returndatasize\n      0x20\n      dup2\n      lt\n      iszero\n      tag_224\n      jumpi\n      0x00\n      dup1\n      revert\n    tag_224:\n      pop\n      mload\n        /* \"ExodusTokenMigrator/OlympusAccessControlled.sol\":694:706  UNAUTHORIZED */\n      0x00\n      swap1\n      sub(shl(0xa0, 0x01), 0x01)\n        /* \"ExodusTokenMigrator/OlympusAccessControlled.sol\":658:692  msg.sender == authority.governor() */\n      and\n        /* \"ExodusTokenMigrator/OlympusAccessControlled.sol\":658:668  msg.sender */\n      caller\n        /* \"ExodusTokenMigrator/OlympusAccessControlled.sol\":658:692  msg.sender == authority.governor() */\n      eq\n        /* \"ExodusTokenMigrator/OlympusAccessControlled.sol\":650:707  require(msg.sender == authority.governor(), UNAUTHORIZED) */\n      tag_225\n      jumpi\n      mload(0x40)\n      shl(0xe5, 0x461bcd)\n      dup2\n      mstore\n      0x20\n      0x04\n      dup3\n      add\n      swap1\n      dup2\n      mstore\n      dup3\n      sload\n      0x02\n      not(0x00)\n      0x0100\n      0x01\n      dup5\n      and\n      iszero\n      mul\n      add\n      swap1\n      swap2\n      and\n      div\n      0x24\n      dup4\n      add\n      dup2\n      swap1\n      mstore\n      swap1\n      swap2\n      dup3\n      swap2\n      0x44\n      swap1\n      swap2\n      add\n      swap1\n      dup5\n      swap1\n      dup1\n      iszero\n      tag_144\n      jumpi\n      dup1\n      0x1f\n      lt\n      tag_145\n      jumpi\n      0x0100\n      dup1\n      dup4\n      sload\n      div\n      mul\n      dup4\n      mstore\n      swap2\n      0x20\n      add\n      swap2\n      jump(tag_144)\n    tag_225:\n      pop\n        /* \"ExodusTokenMigrator/OlympusTokenMigrator.sol\":7022:7033  timelockEnd */\n      sload(0x06)\n        /* \"ExodusTokenMigrator/OlympusTokenMigrator.sol\":7022:7038  timelockEnd == 0 */\n      iszero\n        /* \"ExodusTokenMigrator/OlympusTokenMigrator.sol\":7014:7055  require(timelockEnd == 0, \"Timelock set\") */\n      tag_230\n      jumpi\n      0x40\n      dup1\n      mload\n      shl(0xe5, 0x461bcd)\n      dup2\n      mstore\n      0x20\n      0x04\n      dup3\n      add\n      mstore\n      0x0c\n      0x24\n      dup3\n      add\n      mstore\n      0x54696d656c6f636b207365740000000000000000000000000000000000000000\n      0x44\n      dup3\n      add\n      mstore\n      swap1\n      mload\n      swap1\n      dup2\n      swap1\n      sub\n      0x64\n      add\n      swap1\n      revert\n    tag_230:\n        /* \"ExodusTokenMigrator/OlympusTokenMigrator.sol\":7079:7111  block.number.add(timelockLength) */\n      tag_231\n        /* \"ExodusTokenMigrator/OlympusTokenMigrator.sol\":7079:7091  block.number */\n      number\n        /* \"ExodusTokenMigrator/OlympusTokenMigrator.sol\":7096:7110  timelockLength */\n      immutable(\"0x3ad1041c7fca4b981ec9df1cdec68238bc49ef0c518c8c6bf20002aeca8bde61\")\n        /* \"ExodusTokenMigrator/OlympusTokenMigrator.sol\":7079:7095  block.number.add */\n      tag_232\n        /* \"ExodusTokenMigrator/OlympusTokenMigrator.sol\":7079:7111  block.number.add(timelockLength) */\n      jump\t// in\n    tag_231:\n        /* \"ExodusTokenMigrator/OlympusTokenMigrator.sol\":7065:7076  timelockEnd */\n      0x06\n        /* \"ExodusTokenMigrator/OlympusTokenMigrator.sol\":7065:7111  timelockEnd = block.number.add(timelockLength) */\n      dup2\n      swap1\n      sstore\n        /* \"ExodusTokenMigrator/OlympusTokenMigrator.sol\":7127:7169  TimelockStarted(block.number, timelockEnd) */\n      0x40\n      dup1\n      mload\n        /* \"ExodusTokenMigrator/OlympusTokenMigrator.sol\":7143:7155  block.number */\n      number\n        /* \"ExodusTokenMigrator/OlympusTokenMigrator.sol\":7127:7169  TimelockStarted(block.number, timelockEnd) */\n      dup2\n      mstore\n      0x20\n      dup2\n      add\n      swap3\n      swap1\n      swap3\n      mstore\n      dup1\n      mload\n      0x1f1c77590fcb154ccfac3f34adef3adfd45fa19cd5bd058297a1d6137d0229c0\n      swap3\n      dup2\n      swap1\n      sub\n      swap1\n      swap2\n      add\n      swap1\n      log1\n        /* \"ExodusTokenMigrator/OlympusTokenMigrator.sol\":6957:7176  function startTimelock() external onlyGovernor {... */\n      jump\t// out\n        /* \"ExodusTokenMigrator/OlympusTokenMigrator.sol\":10070:11116  function migrateContracts(... */\n    tag_82:\n        /* \"ExodusTokenMigrator/OlympusAccessControlled.sol\":672:681  authority */\n      0x01\n      0x00\n      swap1\n      sload\n      swap1\n      0x0100\n      exp\n      swap1\n      div\n      sub(shl(0xa0, 0x01), 0x01)\n      and\n      sub(shl(0xa0, 0x01), 0x01)\n        /* \"ExodusTokenMigrator/OlympusAccessControlled.sol\":672:690  authority.governor */\n      and\n      0x0c340a24\n        /* \"ExodusTokenMigrator/OlympusAccessControlled.sol\":672:692  authority.governor() */\n      mload(0x40)\n      dup2\n      0xffffffff\n      and\n      0xe0\n      shl\n      dup2\n      mstore\n      0x04\n      add\n      0x20\n      mload(0x40)\n      dup1\n      dup4\n      sub\n      dup2\n      dup7\n      dup1\n      extcodesize\n      iszero\n      dup1\n      iszero\n      tag_234\n      jumpi\n      0x00\n      dup1\n      revert\n    tag_234:\n      pop\n      gas\n      staticcall\n      iszero\n      dup1\n      iszero\n      tag_236\n      jumpi\n      returndatasize\n      0x00\n      dup1\n      returndatacopy\n      revert(0x00, returndatasize)\n    tag_236:\n      pop\n      pop\n      pop\n      pop\n      mload(0x40)\n      returndatasize\n      0x20\n      dup2\n      lt\n      iszero\n      tag_237\n      jumpi\n      0x00\n      dup1\n      revert\n    tag_237:\n      pop\n      mload\n        /* \"ExodusTokenMigrator/OlympusAccessControlled.sol\":694:706  UNAUTHORIZED */\n      0x00\n      swap1\n      sub(shl(0xa0, 0x01), 0x01)\n        /* \"ExodusTokenMigrator/OlympusAccessControlled.sol\":658:692  msg.sender == authority.governor() */\n      and\n        /* \"ExodusTokenMigrator/OlympusAccessControlled.sol\":658:668  msg.sender */\n      caller\n        /* \"ExodusTokenMigrator/OlympusAccessControlled.sol\":658:692  msg.sender == authority.governor() */\n      eq\n        /* \"ExodusTokenMigrator/OlympusAccessControlled.sol\":650:707  require(msg.sender == authority.governor(), UNAUTHORIZED) */\n      tag_238\n      jumpi\n      mload(0x40)\n      shl(0xe5, 0x461bcd)\n      dup2\n      mstore\n      0x20\n      0x04\n      dup3\n      add\n      swap1\n      dup2\n      mstore\n      dup3\n      sload\n      0x02\n      not(0x00)\n      0x0100\n      0x01\n      dup5\n      and\n      iszero\n      mul\n      add\n      swap1\n      swap2\n      and\n      div\n      0x24\n      dup4\n      add\n      dup2\n      swap1\n      mstore\n      swap1\n      swap2\n      dup3\n      swap2\n      0x44\n      swap1\n      swap2\n      add\n      swap1\n      dup5\n      swap1\n      dup1\n      iszero\n      tag_144\n      jumpi\n      dup1\n      0x1f\n      lt\n      tag_145\n      jumpi\n      0x0100\n      dup1\n      dup4\n      sload\n      div\n      mul\n      dup4\n      mstore\n      swap2\n      0x20\n      add\n      swap2\n      jump(tag_144)\n    tag_238:\n      pop\n        /* \"ExodusTokenMigrator/OlympusTokenMigrator.sol\":10279:10290  exoMigrated */\n      sload(0x05)\n      shl(0xa0, 0x01)\n      swap1\n      div\n      0xff\n      and\n        /* \"ExodusTokenMigrator/OlympusTokenMigrator.sol\":10278:10290  !exoMigrated */\n      iszero\n        /* \"ExodusTokenMigrator/OlympusTokenMigrator.sol\":10270:10311  require(!exoMigrated, \"Already migrated\") */\n      tag_243\n      jumpi\n      0x40\n      dup1\n      mload\n      shl(0xe5, 0x461bcd)\n      dup2\n      mstore\n      0x20\n      0x04\n      dup3\n      add\n      mstore\n      0x10\n      0x24\n      dup3\n      add\n      mstore\n      0x416c7265616479206d6967726174656400000000000000000000000000000000\n      0x44\n      dup3\n      add\n      mstore\n      swap1\n      mload\n      swap1\n      dup2\n      swap1\n      sub\n      0x64\n      add\n      swap1\n      revert\n    tag_243:\n        /* \"ExodusTokenMigrator/OlympusTokenMigrator.sol\":10321:10332  exoMigrated */\n      0x05\n        /* \"ExodusTokenMigrator/OlympusTokenMigrator.sol\":10321:10339  exoMigrated = true */\n      dup1\n      sload\n      not(shl(0xa8, 0xff))\n      0xffffffffffffffffffffff00ffffffffffffffffffffffffffffffffffffffff\n      swap1\n      swap2\n      and\n      shl(0xa0, 0x01)\n      or\n        /* \"ExodusTokenMigrator/OlympusTokenMigrator.sol\":10349:10365  shutdown = false */\n      and\n      swap1\n      sstore\n      sub(shl(0xa0, 0x01), 0x01)\n        /* \"ExodusTokenMigrator/OlympusTokenMigrator.sol\":10384:10410  _newTreasury != address(0) */\n      dup6\n      and\n        /* \"ExodusTokenMigrator/OlympusTokenMigrator.sol\":10376:10437  require(_newTreasury != address(0), \"Zero address: Treasury\") */\n      tag_244\n      jumpi\n      0x40\n      dup1\n      mload\n      shl(0xe5, 0x461bcd)\n      dup2\n      mstore\n      0x20\n      0x04\n      dup3\n      add\n      mstore\n      0x16\n      0x24\n      dup3\n      add\n      mstore\n      0x5a65726f20616464726573733a20547265617375727900000000000000000000\n      0x44\n      dup3\n      add\n      mstore\n      swap1\n      mload\n      swap1\n      dup2\n      swap1\n      sub\n      0x64\n      add\n      swap1\n      revert\n    tag_244:\n        /* \"ExodusTokenMigrator/OlympusTokenMigrator.sol\":10447:10458  newTreasury */\n      0x03\n        /* \"ExodusTokenMigrator/OlympusTokenMigrator.sol\":10447:10484  newTreasury = ITreasury(_newTreasury) */\n      dup1\n      sload\n      not(0xffffffffffffffffffffffffffffffffffffffff)\n      and\n      sub(shl(0xa0, 0x01), 0x01)\n      dup8\n      dup2\n      and\n      swap2\n      swap1\n      swap2\n      or\n      swap1\n      swap2\n      sstore\n        /* \"ExodusTokenMigrator/OlympusTokenMigrator.sol\":10502:10527  _newStaking != address(0) */\n      dup5\n      and\n        /* \"ExodusTokenMigrator/OlympusTokenMigrator.sol\":10494:10553  require(_newStaking != address(0), \"Zero address: Staking\") */\n      tag_245\n      jumpi\n      0x40\n      dup1\n      mload\n      shl(0xe5, 0x461bcd)\n      dup2\n      mstore\n      0x20\n      0x04\n      dup3\n      add\n      mstore\n      0x15\n      0x24\n      dup3\n      add\n      mstore\n      0x5a65726f20616464726573733a205374616b696e670000000000000000000000\n      0x44\n      dup3\n      add\n      mstore\n      swap1\n      mload\n      swap1\n      dup2\n      swap1\n      sub\n      0x64\n      add\n      swap1\n      revert\n    tag_245:\n        /* \"ExodusTokenMigrator/OlympusTokenMigrator.sol\":10563:10573  newStaking */\n      0x04\n        /* \"ExodusTokenMigrator/OlympusTokenMigrator.sol\":10563:10597  newStaking = IStaking(_newStaking) */\n      dup1\n      sload\n      not(0xffffffffffffffffffffffffffffffffffffffff)\n      and\n      sub(shl(0xa0, 0x01), 0x01)\n      dup7\n      dup2\n      and\n      swap2\n      swap1\n      swap2\n      or\n      swap1\n      swap2\n      sstore\n        /* \"ExodusTokenMigrator/OlympusTokenMigrator.sol\":10615:10636  _newEXO != address(0) */\n      dup4\n      and\n        /* \"ExodusTokenMigrator/OlympusTokenMigrator.sol\":10607:10658  require(_newEXO != address(0), \"Zero address: EXO\") */\n      tag_246\n      jumpi\n      0x40\n      dup1\n      mload\n      shl(0xe5, 0x461bcd)\n      dup2\n      mstore\n      0x20\n      0x04\n      dup3\n      add\n      mstore\n      0x11\n      0x24\n      dup3\n      add\n      mstore\n      0x5a65726f20616464726573733a2045584f000000000000000000000000000000\n      0x44\n      dup3\n      add\n      mstore\n      swap1\n      mload\n      swap1\n      dup2\n      swap1\n      sub\n      0x64\n      add\n      swap1\n      revert\n    tag_246:\n        /* \"ExodusTokenMigrator/OlympusTokenMigrator.sol\":10684:10691  _newEXO */\n      dup3\n        /* \"ExodusTokenMigrator/OlympusTokenMigrator.sol\":10668:10674  newEXO */\n      0x05\n      0x00\n        /* \"ExodusTokenMigrator/OlympusTokenMigrator.sol\":10668:10692  newEXO = IERC20(_newEXO) */\n      0x0100\n      exp\n      dup2\n      sload\n      dup2\n      sub(shl(0xa0, 0x01), 0x01)\n      mul\n      not\n      and\n      swap1\n      dup4\n      sub(shl(0xa0, 0x01), 0x01)\n      and\n      mul\n      or\n      swap1\n      sstore\n      pop\n        /* \"ExodusTokenMigrator/OlympusTokenMigrator.sol\":10715:10721  oldEXO */\n      immutable(\"0x7751dd710c07ab49cc2c1853892b3f71f3ced69475463e7c975b4ac84ae5fa90\")\n      sub(shl(0xa0, 0x01), 0x01)\n        /* \"ExodusTokenMigrator/OlympusTokenMigrator.sol\":10715:10733  oldEXO.totalSupply */\n      and\n      0x18160ddd\n        /* \"ExodusTokenMigrator/OlympusTokenMigrator.sol\":10715:10735  oldEXO.totalSupply() */\n      mload(0x40)\n      dup2\n      0xffffffff\n      and\n      0xe0\n      shl\n      dup2\n      mstore\n      0x04\n      add\n      0x20\n      mload(0x40)\n      dup1\n      dup4\n      sub\n      dup2\n      dup7\n      dup1\n      extcodesize\n      iszero\n      dup1\n      iszero\n      tag_247\n      jumpi\n      0x00\n      dup1\n      revert\n    tag_247:\n      pop\n      gas\n      staticcall\n      iszero\n      dup1\n      iszero\n      tag_249\n      jumpi\n      returndatasize\n      0x00\n      dup1\n      returndatacopy\n      revert(0x00, returndatasize)\n    tag_249:\n      pop\n      pop\n      pop\n      pop\n      mload(0x40)\n      returndatasize\n      0x20\n      dup2\n      lt\n      iszero\n      tag_250\n      jumpi\n      0x00\n      dup1\n      revert\n    tag_250:\n      pop\n      mload\n        /* \"ExodusTokenMigrator/OlympusTokenMigrator.sol\":10703:10712  oldSupply */\n      0x07\n        /* \"ExodusTokenMigrator/OlympusTokenMigrator.sol\":10703:10735  oldSupply = oldEXO.totalSupply() */\n      sstore\n        /* \"ExodusTokenMigrator/OlympusTokenMigrator.sol\":10787:10791  gEXO */\n      sload(0x02)\n        /* \"ExodusTokenMigrator/OlympusTokenMigrator.sol\":10787:10822  gEXO.migrate(_newStaking, _newsEXO) */\n      0x40\n      dup1\n      mload\n      0x1068361f00000000000000000000000000000000000000000000000000000000\n      dup2\n      mstore\n      sub(shl(0xa0, 0x01), 0x01)\n      dup8\n      dup2\n      and\n      0x04\n      dup4\n      add\n      mstore\n      dup6\n      dup2\n      and\n      0x24\n      dup4\n      add\n      mstore\n      swap2\n      mload\n        /* \"ExodusTokenMigrator/OlympusTokenMigrator.sol\":10787:10791  gEXO */\n      swap2\n      swap1\n      swap3\n      and\n      swap2\n        /* \"ExodusTokenMigrator/OlympusTokenMigrator.sol\":10787:10799  gEXO.migrate */\n      0x1068361f\n      swap2\n        /* \"ExodusTokenMigrator/OlympusTokenMigrator.sol\":10787:10822  gEXO.migrate(_newStaking, _newsEXO) */\n      0x44\n      dup1\n      dup4\n      add\n      swap3\n        /* \"ExodusTokenMigrator/OlympusTokenMigrator.sol\":10787:10791  gEXO */\n      0x00\n      swap3\n        /* \"ExodusTokenMigrator/OlympusTokenMigrator.sol\":10787:10822  gEXO.migrate(_newStaking, _newsEXO) */\n      swap2\n      swap1\n      dup3\n      swap1\n      sub\n      add\n      dup2\n        /* \"ExodusTokenMigrator/OlympusTokenMigrator.sol\":10787:10791  gEXO */\n      dup4\n      dup8\n        /* \"ExodusTokenMigrator/OlympusTokenMigrator.sol\":10787:10822  gEXO.migrate(_newStaking, _newsEXO) */\n      dup1\n      extcodesize\n      iszero\n      dup1\n      iszero\n      tag_251\n      jumpi\n      0x00\n      dup1\n      revert\n    tag_251:\n      pop\n      gas\n      call\n      iszero\n      dup1\n      iszero\n      tag_253\n      jumpi\n      returndatasize\n      0x00\n      dup1\n      returndatacopy\n      revert(0x00, returndatasize)\n    tag_253:\n      pop\n      pop\n      pop\n      pop\n        /* \"ExodusTokenMigrator/OlympusTokenMigrator.sol\":10855:10884  _migrateToken(_reserve, true) */\n      tag_254\n        /* \"ExodusTokenMigrator/OlympusTokenMigrator.sol\":10869:10877  _reserve */\n      dup2\n        /* \"ExodusTokenMigrator/OlympusTokenMigrator.sol\":10879:10883  true */\n      0x01\n        /* \"ExodusTokenMigrator/OlympusTokenMigrator.sol\":10855:10868  _migrateToken */\n      tag_255\n        /* \"ExodusTokenMigrator/OlympusTokenMigrator.sol\":10855:10884  _migrateToken(_reserve, true) */\n      jump\t// in\n    tag_254:\n        /* \"ExodusTokenMigrator/OlympusTokenMigrator.sol\":10969:11003  _fund(oldsEXO.circulatingSupply()) */\n      tag_256\n        /* \"ExodusTokenMigrator/OlympusTokenMigrator.sol\":10975:10982  oldsEXO */\n      immutable(\"0xa98a2f5aeb9ac9608e39eb3f8b40f1c25875f48fb0abb123ad85a5ab2ba25315\")\n      sub(shl(0xa0, 0x01), 0x01)\n        /* \"ExodusTokenMigrator/OlympusTokenMigrator.sol\":10975:11000  oldsEXO.circulatingSupply */\n      and\n      0x9358928b\n        /* \"ExodusTokenMigrator/OlympusTokenMigrator.sol\":10975:11002  oldsEXO.circulatingSupply() */\n      mload(0x40)\n      dup2\n      0xffffffff\n      and\n      0xe0\n      shl\n      dup2\n      mstore\n      0x04\n      add\n      0x20\n      mload(0x40)\n      dup1\n      dup4\n      sub\n      dup2\n      dup7\n      dup1\n      extcodesize\n      iszero\n      dup1\n      iszero\n      tag_257\n      jumpi\n      0x00\n      dup1\n      revert\n    tag_257:\n      pop\n      gas\n      staticcall\n      iszero\n      dup1\n      iszero\n      tag_259\n      jumpi\n      returndatasize\n      0x00\n      dup1\n      returndatacopy\n      revert(0x00, returndatasize)\n    tag_259:\n      pop\n      pop\n      pop\n      pop\n      mload(0x40)\n      returndatasize\n      0x20\n      dup2\n      lt\n      iszero\n      tag_260\n      jumpi\n      0x00\n      dup1\n      revert\n    tag_260:\n      pop\n      mload\n        /* \"ExodusTokenMigrator/OlympusTokenMigrator.sol\":10969:10974  _fund */\n      tag_261\n        /* \"ExodusTokenMigrator/OlympusTokenMigrator.sol\":10969:11003  _fund(oldsEXO.circulatingSupply()) */\n      jump\t// in\n    tag_256:\n        /* \"ExodusTokenMigrator/OlympusTokenMigrator.sol\":11074:11109  Migrated(_newStaking, _newTreasury) */\n      0x40\n      dup1\n      mload\n      sub(shl(0xa0, 0x01), 0x01)\n      dup1\n      dup8\n      and\n      dup3\n      mstore\n      dup8\n      and\n      0x20\n      dup3\n      add\n      mstore\n      dup2\n      mload\n      0x844985ce6880ca51e25a6d4ecc8af37a5de880279f2081af96d0e875c42b7082\n      swap3\n      swap2\n      dup2\n      swap1\n      sub\n      swap1\n      swap2\n      add\n      swap1\n      log1\n        /* \"ExodusTokenMigrator/OlympusTokenMigrator.sol\":10070:11116  function migrateContracts(... */\n      pop\n      pop\n      pop\n      pop\n      pop\n      jump\t// out\n        /* \"ExodusTokenMigrator/OlympusAccessControlled.sol\":359:392  IExodusAuthority public authority */\n    tag_84:\n      and(sub(shl(0xa0, 0x01), 0x01), sload(0x01))\n      dup2\n      jump\t// out\n        /* \"ExodusTokenMigrator/OlympusTokenMigrator.sol\":1012:1052  ITreasuryV1 public immutable oldTreasury */\n    tag_86:\n      immutable(\"0xa22b5bddbdcd05368321bd50fd5db7d428b6ca478a3c7389901149e4e0253710\")\n      dup2\n      jump\t// out\n        /* \"ExodusTokenMigrator/OlympusTokenMigrator.sol\":5949:6897  function defund(address reserve) external onlyGovernor {... */\n    tag_89:\n        /* \"ExodusTokenMigrator/OlympusAccessControlled.sol\":672:681  authority */\n      0x01\n      0x00\n      swap1\n      sload\n      swap1\n      0x0100\n      exp\n      swap1\n      div\n      sub(shl(0xa0, 0x01), 0x01)\n      and\n      sub(shl(0xa0, 0x01), 0x01)\n        /* \"ExodusTokenMigrator/OlympusAccessControlled.sol\":672:690  authority.governor */\n      and\n      0x0c340a24\n        /* \"ExodusTokenMigrator/OlympusAccessControlled.sol\":672:692  authority.governor() */\n      mload(0x40)\n      dup2\n      0xffffffff\n      and\n      0xe0\n      shl\n      dup2\n      mstore\n      0x04\n      add\n      0x20\n      mload(0x40)\n      dup1\n      dup4\n      sub\n      dup2\n      dup7\n      dup1\n      extcodesize\n      iszero\n      dup1\n      iszero\n      tag_263\n      jumpi\n      0x00\n      dup1\n      revert\n    tag_263:\n      pop\n      gas\n      staticcall\n      iszero\n      dup1\n      iszero\n      tag_265\n      jumpi\n      returndatasize\n      0x00\n      dup1\n      returndatacopy\n      revert(0x00, returndatasize)\n    tag_265:\n      pop\n      pop\n      pop\n      pop\n      mload(0x40)\n      returndatasize\n      0x20\n      dup2\n      lt\n      iszero\n      tag_266\n      jumpi\n      0x00\n      dup1\n      revert\n    tag_266:\n      pop\n      mload\n        /* \"ExodusTokenMigrator/OlympusAccessControlled.sol\":694:706  UNAUTHORIZED */\n      0x00\n      swap1\n      sub(shl(0xa0, 0x01), 0x01)\n        /* \"ExodusTokenMigrator/OlympusAccessControlled.sol\":658:692  msg.sender == authority.governor() */\n      and\n        /* \"ExodusTokenMigrator/OlympusAccessControlled.sol\":658:668  msg.sender */\n      caller\n        /* \"ExodusTokenMigrator/OlympusAccessControlled.sol\":658:692  msg.sender == authority.governor() */\n      eq\n        /* \"ExodusTokenMigrator/OlympusAccessControlled.sol\":650:707  require(msg.sender == authority.governor(), UNAUTHORIZED) */\n      tag_267\n      jumpi\n      mload(0x40)\n      shl(0xe5, 0x461bcd)\n      dup2\n      mstore\n      0x20\n      0x04\n      dup3\n      add\n      swap1\n      dup2\n      mstore\n      dup3\n      sload\n      0x02\n      not(0x00)\n      0x0100\n      0x01\n      dup5\n      and\n      iszero\n      mul\n      add\n      swap1\n      swap2\n      and\n      div\n      0x24\n      dup4\n      add\n      dup2\n      swap1\n      mstore\n      swap1\n      swap2\n      dup3\n      swap2\n      0x44\n      swap1\n      swap2\n      add\n      swap1\n      dup5\n      swap1\n      dup1\n      iszero\n      tag_144\n      jumpi\n      dup1\n      0x1f\n      lt\n      tag_145\n      jumpi\n      0x0100\n      dup1\n      dup4\n      sload\n      div\n      mul\n      dup4\n      mstore\n      swap2\n      0x20\n      add\n      swap2\n      jump(tag_144)\n    tag_267:\n      pop\n        /* \"ExodusTokenMigrator/OlympusTokenMigrator.sol\":6022:6033  exoMigrated */\n      sload(0x05)\n      shl(0xa0, 0x01)\n      swap1\n      div\n      0xff\n      and\n        /* \"ExodusTokenMigrator/OlympusTokenMigrator.sol\":6014:6061  require(exoMigrated, \"Migration has not begun\") */\n      tag_272\n      jumpi\n      0x40\n      dup1\n      mload\n      shl(0xe5, 0x461bcd)\n      dup2\n      mstore\n      0x20\n      0x04\n      dup3\n      add\n      mstore\n      0x17\n      0x24\n      dup3\n      add\n      mstore\n      0x4d6967726174696f6e20686173206e6f7420626567756e000000000000000000\n      0x44\n      dup3\n      add\n      mstore\n      swap1\n      mload\n      swap1\n      dup2\n      swap1\n      sub\n      0x64\n      add\n      swap1\n      revert\n    tag_272:\n        /* \"ExodusTokenMigrator/OlympusTokenMigrator.sol\":6093:6105  block.number */\n      number\n        /* \"ExodusTokenMigrator/OlympusTokenMigrator.sol\":6079:6090  timelockEnd */\n      sload(0x06)\n        /* \"ExodusTokenMigrator/OlympusTokenMigrator.sol\":6079:6105  timelockEnd < block.number */\n      lt\n        /* \"ExodusTokenMigrator/OlympusTokenMigrator.sol\":6079:6125  timelockEnd < block.number && timelockEnd != 0 */\n      dup1\n      iszero\n      tag_273\n      jumpi\n      pop\n        /* \"ExodusTokenMigrator/OlympusTokenMigrator.sol\":6109:6120  timelockEnd */\n      sload(0x06)\n        /* \"ExodusTokenMigrator/OlympusTokenMigrator.sol\":6109:6125  timelockEnd != 0 */\n      iszero\n      iszero\n        /* \"ExodusTokenMigrator/OlympusTokenMigrator.sol\":6079:6125  timelockEnd < block.number && timelockEnd != 0 */\n    tag_273:\n        /* \"ExodusTokenMigrator/OlympusTokenMigrator.sol\":6071:6151  require(timelockEnd < block.number && timelockEnd != 0, \"Timelock not complete\") */\n      tag_274\n      jumpi\n      0x40\n      dup1\n      mload\n      shl(0xe5, 0x461bcd)\n      dup2\n      mstore\n      0x20\n      0x04\n      dup3\n      add\n      mstore\n      0x15\n      0x24\n      dup3\n      add\n      mstore\n      0x54696d656c6f636b206e6f7420636f6d706c6574650000000000000000000000\n      0x44\n      dup3\n      add\n      mstore\n      swap1\n      mload\n      swap1\n      dup2\n      swap1\n      sub\n      0x64\n      add\n      swap1\n      revert\n    tag_274:\n        /* \"ExodusTokenMigrator/OlympusTokenMigrator.sol\":6178:6211  oldwsEXO.balanceOf(address(this)) */\n      0x40\n      dup1\n      mload\n      shl(0xe0, 0x70a08231)\n      dup2\n      mstore\n        /* \"ExodusTokenMigrator/OlympusTokenMigrator.sol\":6205:6209  this */\n      address\n        /* \"ExodusTokenMigrator/OlympusTokenMigrator.sol\":6178:6211  oldwsEXO.balanceOf(address(this)) */\n      0x04\n      dup3\n      add\n      mstore\n      swap1\n      mload\n      sub(shl(0xa0, 0x01), 0x01)\n        /* \"ExodusTokenMigrator/OlympusTokenMigrator.sol\":6162:6170  oldwsEXO */\n      immutable(\"0x03065c56175bab9d6c02682cec557b5c933cd8364ccf2dd44ab76e0c260931e7\")\n        /* \"ExodusTokenMigrator/OlympusTokenMigrator.sol\":6162:6177  oldwsEXO.unwrap */\n      and\n      swap2\n      0xde0e9a3e\n      swap2\n      dup4\n      swap2\n        /* \"ExodusTokenMigrator/OlympusTokenMigrator.sol\":6178:6196  oldwsEXO.balanceOf */\n      0x70a08231\n      swap2\n        /* \"ExodusTokenMigrator/OlympusTokenMigrator.sol\":6178:6211  oldwsEXO.balanceOf(address(this)) */\n      0x24\n      dup1\n      dup4\n      add\n      swap3\n      0x20\n      swap3\n      swap2\n      swap1\n      dup3\n      swap1\n      sub\n      add\n      dup2\n        /* \"ExodusTokenMigrator/OlympusTokenMigrator.sol\":6162:6177  oldwsEXO.unwrap */\n      dup7\n        /* \"ExodusTokenMigrator/OlympusTokenMigrator.sol\":6178:6211  oldwsEXO.balanceOf(address(this)) */\n      dup1\n      extcodesize\n      iszero\n      dup1\n      iszero\n      tag_275\n      jumpi\n      0x00\n      dup1\n      revert\n    tag_275:\n      pop\n      gas\n      staticcall\n      iszero\n      dup1\n      iszero\n      tag_277\n      jumpi\n      returndatasize\n      0x00\n      dup1\n      returndatacopy\n      revert(0x00, returndatasize)\n    tag_277:\n      pop\n      pop\n      pop\n      pop\n      mload(0x40)\n      returndatasize\n      0x20\n      dup2\n      lt\n      iszero\n      tag_278\n      jumpi\n      0x00\n      dup1\n      revert\n    tag_278:\n      pop\n      mload\n        /* \"ExodusTokenMigrator/OlympusTokenMigrator.sol\":6162:6212  oldwsEXO.unwrap(oldwsEXO.balanceOf(address(this))) */\n      0x40\n      dup1\n      mload\n      0xffffffff00000000000000000000000000000000000000000000000000000000\n      0xe0\n      dup6\n      swap1\n      shl\n      and\n      dup2\n      mstore\n      0x04\n      dup2\n      add\n      swap3\n      swap1\n      swap3\n      mstore\n      mload\n      0x24\n      dup1\n      dup4\n      add\n      swap3\n        /* \"ExodusTokenMigrator/OlympusTokenMigrator.sol\":6178:6211  oldwsEXO.balanceOf(address(this)) */\n      0x20\n      swap3\n        /* \"ExodusTokenMigrator/OlympusTokenMigrator.sol\":6162:6212  oldwsEXO.unwrap(oldwsEXO.balanceOf(address(this))) */\n      swap2\n      swap1\n      dup3\n      swap1\n      sub\n      add\n      dup2\n      0x00\n      dup8\n      dup1\n      extcodesize\n      iszero\n      dup1\n      iszero\n      tag_279\n      jumpi\n      0x00\n      dup1\n      revert\n    tag_279:\n      pop\n      gas\n      call\n      iszero\n      dup1\n      iszero\n      tag_281\n      jumpi\n      returndatasize\n      0x00\n      dup1\n      returndatacopy\n      revert(0x00, returndatasize)\n    tag_281:\n      pop\n      pop\n      pop\n      pop\n      mload(0x40)\n      returndatasize\n      0x20\n      dup2\n      lt\n      iszero\n      tag_282\n      jumpi\n      0x00\n      dup1\n      revert\n    tag_282:\n      pop\n      pop\n        /* \"ExodusTokenMigrator/OlympusTokenMigrator.sol\":6249:6281  oldsEXO.balanceOf(address(this)) */\n      0x40\n      dup1\n      mload\n      shl(0xe0, 0x70a08231)\n      dup2\n      mstore\n        /* \"ExodusTokenMigrator/OlympusTokenMigrator.sol\":6275:6279  this */\n      address\n        /* \"ExodusTokenMigrator/OlympusTokenMigrator.sol\":6249:6281  oldsEXO.balanceOf(address(this)) */\n      0x04\n      dup3\n      add\n      mstore\n      swap1\n      mload\n        /* \"ExodusTokenMigrator/OlympusTokenMigrator.sol\":6223:6246  uint256 amountToUnstake */\n      0x00\n      swap2\n      sub(shl(0xa0, 0x01), 0x01)\n        /* \"ExodusTokenMigrator/OlympusTokenMigrator.sol\":6249:6256  oldsEXO */\n      immutable(\"0xa98a2f5aeb9ac9608e39eb3f8b40f1c25875f48fb0abb123ad85a5ab2ba25315\")\n        /* \"ExodusTokenMigrator/OlympusTokenMigrator.sol\":6249:6266  oldsEXO.balanceOf */\n      and\n      swap2\n      0x70a08231\n      swap2\n        /* \"ExodusTokenMigrator/OlympusTokenMigrator.sol\":6249:6281  oldsEXO.balanceOf(address(this)) */\n      0x24\n      dup1\n      dup3\n      add\n      swap3\n        /* \"ExodusTokenMigrator/OlympusTokenMigrator.sol\":6162:6212  oldwsEXO.unwrap(oldwsEXO.balanceOf(address(this))) */\n      0x20\n      swap3\n        /* \"ExodusTokenMigrator/OlympusTokenMigrator.sol\":6249:6281  oldsEXO.balanceOf(address(this)) */\n      swap1\n      swap2\n      swap1\n      dup3\n      swap1\n      sub\n      add\n      dup2\n        /* \"ExodusTokenMigrator/OlympusTokenMigrator.sol\":6249:6266  oldsEXO.balanceOf */\n      dup7\n        /* \"ExodusTokenMigrator/OlympusTokenMigrator.sol\":6249:6281  oldsEXO.balanceOf(address(this)) */\n      dup1\n      extcodesize\n      iszero\n      dup1\n      iszero\n      tag_283\n      jumpi\n      0x00\n      dup1\n      revert\n    tag_283:\n      pop\n      gas\n      staticcall\n      iszero\n      dup1\n      iszero\n      tag_285\n      jumpi\n      returndatasize\n      0x00\n      dup1\n      returndatacopy\n      revert(0x00, returndatasize)\n    tag_285:\n      pop\n      pop\n      pop\n      pop\n      mload(0x40)\n      returndatasize\n      0x20\n      dup2\n      lt\n      iszero\n      tag_286\n      jumpi\n      0x00\n      dup1\n      revert\n    tag_286:\n      pop\n      mload\n        /* \"ExodusTokenMigrator/OlympusTokenMigrator.sol\":6291:6344  oldsEXO.approve(address(oldStaking), amountToUnstake) */\n      0x40\n      dup1\n      mload\n      shl(0xe0, 0x095ea7b3)\n      dup2\n      mstore\n      sub(shl(0xa0, 0x01), 0x01)\n        /* \"ExodusTokenMigrator/OlympusTokenMigrator.sol\":6315:6325  oldStaking */\n      immutable(\"0x4c4fd4da8ae1c1f2895da0cdd646517e3d75688175eb5d33ccff8a0b8439df64\")\n        /* \"ExodusTokenMigrator/OlympusTokenMigrator.sol\":6291:6344  oldsEXO.approve(address(oldStaking), amountToUnstake) */\n      dup2\n      and\n      0x04\n      dup4\n      add\n      mstore\n      0x24\n      dup3\n      add\n      dup5\n      swap1\n      mstore\n      swap2\n      mload\n        /* \"ExodusTokenMigrator/OlympusTokenMigrator.sol\":6249:6281  oldsEXO.balanceOf(address(this)) */\n      swap3\n      swap4\n      pop\n        /* \"ExodusTokenMigrator/OlympusTokenMigrator.sol\":6291:6298  oldsEXO */\n      immutable(\"0xa98a2f5aeb9ac9608e39eb3f8b40f1c25875f48fb0abb123ad85a5ab2ba25315\")\n        /* \"ExodusTokenMigrator/OlympusTokenMigrator.sol\":6291:6306  oldsEXO.approve */\n      swap1\n      swap2\n      and\n      swap2\n      0x095ea7b3\n      swap2\n        /* \"ExodusTokenMigrator/OlympusTokenMigrator.sol\":6291:6344  oldsEXO.approve(address(oldStaking), amountToUnstake) */\n      0x44\n      dup1\n      dup3\n      add\n      swap3\n        /* \"ExodusTokenMigrator/OlympusTokenMigrator.sol\":6249:6281  oldsEXO.balanceOf(address(this)) */\n      0x20\n      swap3\n        /* \"ExodusTokenMigrator/OlympusTokenMigrator.sol\":6291:6344  oldsEXO.approve(address(oldStaking), amountToUnstake) */\n      swap1\n      swap2\n      swap1\n      dup3\n      swap1\n      sub\n      add\n      dup2\n      0x00\n        /* \"ExodusTokenMigrator/OlympusTokenMigrator.sol\":6291:6306  oldsEXO.approve */\n      dup8\n        /* \"ExodusTokenMigrator/OlympusTokenMigrator.sol\":6291:6344  oldsEXO.approve(address(oldStaking), amountToUnstake) */\n      dup1\n      extcodesize\n      iszero\n      dup1\n      iszero\n      tag_287\n      jumpi\n      0x00\n      dup1\n      revert\n    tag_287:\n      pop\n      gas\n      call\n      iszero\n      dup1\n      iszero\n      tag_289\n      jumpi\n      returndatasize\n      0x00\n      dup1\n      returndatacopy\n      revert(0x00, returndatasize)\n    tag_289:\n      pop\n      pop\n      pop\n      pop\n      mload(0x40)\n      returndatasize\n      0x20\n      dup2\n      lt\n      iszero\n      tag_290\n      jumpi\n      0x00\n      dup1\n      revert\n    tag_290:\n      pop\n      pop\n        /* \"ExodusTokenMigrator/OlympusTokenMigrator.sol\":6354:6396  oldStaking.unstake(amountToUnstake, false) */\n      0x40\n      dup1\n      mload\n      0x9ebea88c00000000000000000000000000000000000000000000000000000000\n      dup2\n      mstore\n      0x04\n      dup2\n      add\n      dup4\n      swap1\n      mstore\n        /* \"ExodusTokenMigrator/OlympusTokenMigrator.sol\":6390:6395  false */\n      0x00\n        /* \"ExodusTokenMigrator/OlympusTokenMigrator.sol\":6354:6396  oldStaking.unstake(amountToUnstake, false) */\n      0x24\n      dup3\n      add\n      dup2\n      swap1\n      mstore\n      swap2\n      mload\n      sub(shl(0xa0, 0x01), 0x01)\n        /* \"ExodusTokenMigrator/OlympusTokenMigrator.sol\":6354:6364  oldStaking */\n      immutable(\"0x4c4fd4da8ae1c1f2895da0cdd646517e3d75688175eb5d33ccff8a0b8439df64\")\n        /* \"ExodusTokenMigrator/OlympusTokenMigrator.sol\":6354:6372  oldStaking.unstake */\n      and\n      swap3\n      0x9ebea88c\n      swap3\n        /* \"ExodusTokenMigrator/OlympusTokenMigrator.sol\":6354:6396  oldStaking.unstake(amountToUnstake, false) */\n      0x44\n      dup1\n      dup3\n      add\n      swap4\n      swap2\n      dup3\n      swap1\n      sub\n      add\n      dup2\n        /* \"ExodusTokenMigrator/OlympusTokenMigrator.sol\":6390:6395  false */\n      dup4\n        /* \"ExodusTokenMigrator/OlympusTokenMigrator.sol\":6354:6372  oldStaking.unstake */\n      dup8\n        /* \"ExodusTokenMigrator/OlympusTokenMigrator.sol\":6354:6396  oldStaking.unstake(amountToUnstake, false) */\n      dup1\n      extcodesize\n      iszero\n      dup1\n      iszero\n      tag_291\n      jumpi\n      0x00\n      dup1\n      revert\n    tag_291:\n      pop\n      gas\n      call\n      iszero\n      dup1\n      iszero\n      tag_293\n      jumpi\n      returndatasize\n      0x00\n      dup1\n      returndatacopy\n      revert(0x00, returndatasize)\n    tag_293:\n      pop\n      pop\n      pop\n      pop\n        /* \"ExodusTokenMigrator/OlympusTokenMigrator.sol\":6407:6422  uint256 balance */\n      0x00\n        /* \"ExodusTokenMigrator/OlympusTokenMigrator.sol\":6425:6431  oldEXO */\n      immutable(\"0x7751dd710c07ab49cc2c1853892b3f71f3ced69475463e7c975b4ac84ae5fa90\")\n      sub(shl(0xa0, 0x01), 0x01)\n        /* \"ExodusTokenMigrator/OlympusTokenMigrator.sol\":6425:6441  oldEXO.balanceOf */\n      and\n      0x70a08231\n        /* \"ExodusTokenMigrator/OlympusTokenMigrator.sol\":6450:6454  this */\n      address\n        /* \"ExodusTokenMigrator/OlympusTokenMigrator.sol\":6425:6456  oldEXO.balanceOf(address(this)) */\n      mload(0x40)\n      dup3\n      0xffffffff\n      and\n      0xe0\n      shl\n      dup2\n      mstore\n      0x04\n      add\n      dup1\n      dup3\n      sub(shl(0xa0, 0x01), 0x01)\n      and\n      dup2\n      mstore\n      0x20\n      add\n      swap2\n      pop\n      pop\n      0x20\n      mload(0x40)\n      dup1\n      dup4\n      sub\n      dup2\n      dup7\n      dup1\n      extcodesize\n      iszero\n      dup1\n      iszero\n      tag_294\n      jumpi\n      0x00\n      dup1\n      revert\n    tag_294:\n      pop\n      gas\n      staticcall\n      iszero\n      dup1\n      iszero\n      tag_296\n      jumpi\n      returndatasize\n      0x00\n      dup1\n      returndatacopy\n      revert(0x00, returndatasize)\n    tag_296:\n      pop\n      pop\n      pop\n      pop\n      mload(0x40)\n      returndatasize\n      0x20\n      dup2\n      lt\n      iszero\n      tag_297\n      jumpi\n      0x00\n      dup1\n      revert\n    tag_297:\n      pop\n      mload\n        /* \"ExodusTokenMigrator/OlympusTokenMigrator.sol\":6481:6490  oldSupply */\n      sload(0x07)\n        /* \"ExodusTokenMigrator/OlympusTokenMigrator.sol\":6425:6456  oldEXO.balanceOf(address(this)) */\n      swap1\n      swap2\n      pop\n        /* \"ExodusTokenMigrator/OlympusTokenMigrator.sol\":6471:6490  balance > oldSupply */\n      dup2\n      gt\n        /* \"ExodusTokenMigrator/OlympusTokenMigrator.sol\":6467:6581  if (balance > oldSupply) {... */\n      iszero\n      tag_298\n      jumpi\n        /* \"ExodusTokenMigrator/OlympusTokenMigrator.sol\":6518:6519  0 */\n      0x00\n        /* \"ExodusTokenMigrator/OlympusTokenMigrator.sol\":6506:6515  oldSupply */\n      0x07\n        /* \"ExodusTokenMigrator/OlympusTokenMigrator.sol\":6506:6519  oldSupply = 0 */\n      sstore\n        /* \"ExodusTokenMigrator/OlympusTokenMigrator.sol\":6467:6581  if (balance > oldSupply) {... */\n      jump(tag_299)\n    tag_298:\n        /* \"ExodusTokenMigrator/OlympusTokenMigrator.sol\":6550:6559  oldSupply */\n      0x07\n        /* \"ExodusTokenMigrator/OlympusTokenMigrator.sol\":6550:6570  oldSupply -= balance */\n      dup1\n      sload\n      dup3\n      swap1\n      sub\n      swap1\n      sstore\n        /* \"ExodusTokenMigrator/OlympusTokenMigrator.sol\":6467:6581  if (balance > oldSupply) {... */\n    tag_299:\n        /* \"ExodusTokenMigrator/OlympusTokenMigrator.sol\":6591:6615  uint256 amountToWithdraw */\n      0x00\n        /* \"ExodusTokenMigrator/OlympusTokenMigrator.sol\":6618:6634  balance.mul(1e9) */\n      tag_300\n        /* \"ExodusTokenMigrator/OlympusTokenMigrator.sol\":6618:6625  balance */\n      dup3\n        /* \"ExodusTokenMigrator/OlympusTokenMigrator.sol\":6630:6633  1e9 */\n      0x3b9aca00\n        /* \"ExodusTokenMigrator/OlympusTokenMigrator.sol\":6618:6629  balance.mul */\n      tag_301\n        /* \"ExodusTokenMigrator/OlympusTokenMigrator.sol\":6618:6634  balance.mul(1e9) */\n      jump\t// in\n    tag_300:\n        /* \"ExodusTokenMigrator/OlympusTokenMigrator.sol\":6591:6634  uint256 amountToWithdraw = balance.mul(1e9) */\n      swap1\n      pop\n        /* \"ExodusTokenMigrator/OlympusTokenMigrator.sol\":6644:6650  oldEXO */\n      immutable(\"0x7751dd710c07ab49cc2c1853892b3f71f3ced69475463e7c975b4ac84ae5fa90\")\n      sub(shl(0xa0, 0x01), 0x01)\n        /* \"ExodusTokenMigrator/OlympusTokenMigrator.sol\":6644:6658  oldEXO.approve */\n      and\n      0x095ea7b3\n        /* \"ExodusTokenMigrator/OlympusTokenMigrator.sol\":6667:6678  oldTreasury */\n      immutable(\"0xa22b5bddbdcd05368321bd50fd5db7d428b6ca478a3c7389901149e4e0253710\")\n        /* \"ExodusTokenMigrator/OlympusTokenMigrator.sol\":6681:6697  amountToWithdraw */\n      dup4\n        /* \"ExodusTokenMigrator/OlympusTokenMigrator.sol\":6644:6698  oldEXO.approve(address(oldTreasury), amountToWithdraw) */\n      mload(0x40)\n      dup4\n      0xffffffff\n      and\n      0xe0\n      shl\n      dup2\n      mstore\n      0x04\n      add\n      dup1\n      dup4\n      sub(shl(0xa0, 0x01), 0x01)\n      and\n      dup2\n      mstore\n      0x20\n      add\n      dup3\n      dup2\n      mstore\n      0x20\n      add\n      swap3\n      pop\n      pop\n      pop\n      0x20\n      mload(0x40)\n      dup1\n      dup4\n      sub\n      dup2\n      0x00\n      dup8\n      dup1\n      extcodesize\n      iszero\n      dup1\n      iszero\n      tag_302\n      jumpi\n      0x00\n      dup1\n      revert\n    tag_302:\n      pop\n      gas\n      call\n      iszero\n      dup1\n      iszero\n      tag_304\n      jumpi\n      returndatasize\n      0x00\n      dup1\n      returndatacopy\n      revert(0x00, returndatasize)\n    tag_304:\n      pop\n      pop\n      pop\n      pop\n      mload(0x40)\n      returndatasize\n      0x20\n      dup2\n      lt\n      iszero\n      tag_305\n      jumpi\n      0x00\n      dup1\n      revert\n    tag_305:\n      pop\n      pop\n        /* \"ExodusTokenMigrator/OlympusTokenMigrator.sol\":6708:6755  oldTreasury.withdraw(amountToWithdraw, reserve) */\n      0x40\n      dup1\n      mload\n      0xf714ce00000000000000000000000000000000000000000000000000000000\n      dup2\n      mstore\n      0x04\n      dup2\n      add\n      dup4\n      swap1\n      mstore\n      sub(shl(0xa0, 0x01), 0x01)\n      dup7\n      dup2\n      and\n      0x24\n      dup4\n      add\n      mstore\n      swap2\n      mload\n        /* \"ExodusTokenMigrator/OlympusTokenMigrator.sol\":6708:6719  oldTreasury */\n      immutable(\"0xa22b5bddbdcd05368321bd50fd5db7d428b6ca478a3c7389901149e4e0253710\")\n        /* \"ExodusTokenMigrator/OlympusTokenMigrator.sol\":6708:6728  oldTreasury.withdraw */\n      swap1\n      swap3\n      and\n      swap2\n      0xf714ce\n      swap2\n        /* \"ExodusTokenMigrator/OlympusTokenMigrator.sol\":6708:6755  oldTreasury.withdraw(amountToWithdraw, reserve) */\n      0x44\n      dup1\n      dup3\n      add\n      swap3\n      0x00\n      swap3\n      swap1\n      swap2\n      swap1\n      dup3\n      swap1\n      sub\n      add\n      dup2\n      dup4\n        /* \"ExodusTokenMigrator/OlympusTokenMigrator.sol\":6708:6728  oldTreasury.withdraw */\n      dup8\n        /* \"ExodusTokenMigrator/OlympusTokenMigrator.sol\":6708:6755  oldTreasury.withdraw(amountToWithdraw, reserve) */\n      dup1\n      extcodesize\n      iszero\n      dup1\n      iszero\n      tag_306\n      jumpi\n      0x00\n      dup1\n      revert\n    tag_306:\n      pop\n      gas\n      call\n      iszero\n      dup1\n      iszero\n      tag_308\n      jumpi\n      returndatasize\n      0x00\n      dup1\n      returndatacopy\n      revert(0x00, returndatasize)\n    tag_308:\n      pop\n      pop\n        /* \"ExodusTokenMigrator/OlympusTokenMigrator.sol\":6802:6813  newTreasury */\n      sload(0x03)\n        /* \"ExodusTokenMigrator/OlympusTokenMigrator.sol\":6816:6856  IERC20(reserve).balanceOf(address(this)) */\n      0x40\n      dup1\n      mload\n      shl(0xe0, 0x70a08231)\n      dup2\n      mstore\n        /* \"ExodusTokenMigrator/OlympusTokenMigrator.sol\":6850:6854  this */\n      address\n        /* \"ExodusTokenMigrator/OlympusTokenMigrator.sol\":6816:6856  IERC20(reserve).balanceOf(address(this)) */\n      0x04\n      dup3\n      add\n      mstore\n      swap1\n      mload\n        /* \"ExodusTokenMigrator/OlympusTokenMigrator.sol\":6765:6857  IERC20(reserve).safeTransfer(address(newTreasury), IERC20(reserve).balanceOf(address(this))) */\n      tag_309\n      swap5\n      pop\n      sub(shl(0xa0, 0x01), 0x01)\n        /* \"ExodusTokenMigrator/OlympusTokenMigrator.sol\":6802:6813  newTreasury */\n      swap3\n      dup4\n      and\n      swap4\n      pop\n        /* \"ExodusTokenMigrator/OlympusTokenMigrator.sol\":6816:6841  IERC20(reserve).balanceOf */\n      swap2\n      dup9\n      and\n      swap2\n      0x70a08231\n      swap2\n        /* \"ExodusTokenMigrator/OlympusTokenMigrator.sol\":6816:6856  IERC20(reserve).balanceOf(address(this)) */\n      0x24\n      dup1\n      dup3\n      add\n      swap3\n      0x20\n      swap3\n      swap1\n      swap2\n      swap1\n      dup3\n      swap1\n      sub\n      add\n      dup2\n        /* \"ExodusTokenMigrator/OlympusTokenMigrator.sol\":6816:6841  IERC20(reserve).balanceOf */\n      dup7\n        /* \"ExodusTokenMigrator/OlympusTokenMigrator.sol\":6816:6856  IERC20(reserve).balanceOf(address(this)) */\n      dup1\n      extcodesize\n      iszero\n      dup1\n      iszero\n      tag_310\n      jumpi\n      0x00\n      dup1\n      revert\n    tag_310:\n      pop\n      gas\n      staticcall\n      iszero\n      dup1\n      iszero\n      tag_312\n      jumpi\n      returndatasize\n      0x00\n      dup1\n      returndatacopy\n      revert(0x00, returndatasize)\n    tag_312:\n      pop\n      pop\n      pop\n      pop\n      mload(0x40)\n      returndatasize\n      0x20\n      dup2\n      lt\n      iszero\n      tag_313\n      jumpi\n      0x00\n      dup1\n      revert\n    tag_313:\n      pop\n      mload\n      sub(shl(0xa0, 0x01), 0x01)\n        /* \"ExodusTokenMigrator/OlympusTokenMigrator.sol\":6765:6793  IERC20(reserve).safeTransfer */\n      dup8\n      and\n      swap2\n        /* \"ExodusTokenMigrator/OlympusTokenMigrator.sol\":6765:6857  IERC20(reserve).safeTransfer(address(newTreasury), IERC20(reserve).balanceOf(address(this))) */\n      swap1\n        /* \"ExodusTokenMigrator/OlympusTokenMigrator.sol\":6765:6793  IERC20(reserve).safeTransfer */\n      tag_173\n        /* \"ExodusTokenMigrator/OlympusTokenMigrator.sol\":6765:6857  IERC20(reserve).safeTransfer(address(newTreasury), IERC20(reserve).balanceOf(address(this))) */\n      jump\t// in\n    tag_309:\n        /* \"ExodusTokenMigrator/OlympusTokenMigrator.sol\":6873:6890  Defunded(balance) */\n      0x40\n      dup1\n      mload\n      dup4\n      dup2\n      mstore\n      swap1\n      mload\n      0xaf5e14f4cc37b04db239269739bd935c4ed55328b691792af028e5570dfe61fa\n      swap2\n      dup2\n      swap1\n      sub\n      0x20\n      add\n      swap1\n      log1\n        /* \"ExodusTokenMigrator/OlympusAccessControlled.sol\":717:718  _ */\n      pop\n      pop\n      pop\n        /* \"ExodusTokenMigrator/OlympusTokenMigrator.sol\":5949:6897  function defund(address reserve) external onlyGovernor {... */\n      pop\n      jump\t// out\n        /* \"ExodusTokenMigrator/OlympusTokenMigrator.sol\":974:1006  IwsEXO public immutable oldwsEXO */\n    tag_91:\n      immutable(\"0x03065c56175bab9d6c02682cec557b5c933cd8364ccf2dd44ab76e0c260931e7\")\n      dup2\n      jump\t// out\n        /* \"ExodusTokenMigrator/OlympusTokenMigrator.sol\":7643:8744  function migrateLP(... */\n    tag_94:\n        /* \"ExodusTokenMigrator/OlympusAccessControlled.sol\":672:681  authority */\n      0x01\n      0x00\n      swap1\n      sload\n      swap1\n      0x0100\n      exp\n      swap1\n      div\n      sub(shl(0xa0, 0x01), 0x01)\n      and\n      sub(shl(0xa0, 0x01), 0x01)\n        /* \"ExodusTokenMigrator/OlympusAccessControlled.sol\":672:690  authority.governor */\n      and\n      0x0c340a24\n        /* \"ExodusTokenMigrator/OlympusAccessControlled.sol\":672:692  authority.governor() */\n      mload(0x40)\n      dup2\n      0xffffffff\n      and\n      0xe0\n      shl\n      dup2\n      mstore\n      0x04\n      add\n      0x20\n      mload(0x40)\n      dup1\n      dup4\n      sub\n      dup2\n      dup7\n      dup1\n      extcodesize\n      iszero\n      dup1\n      iszero\n      tag_315\n      jumpi\n      0x00\n      dup1\n      revert\n    tag_315:\n      pop\n      gas\n      staticcall\n      iszero\n      dup1\n      iszero\n      tag_317\n      jumpi\n      returndatasize\n      0x00\n      dup1\n      returndatacopy\n      revert(0x00, returndatasize)\n    tag_317:\n      pop\n      pop\n      pop\n      pop\n      mload(0x40)\n      returndatasize\n      0x20\n      dup2\n      lt\n      iszero\n      tag_318\n      jumpi\n      0x00\n      dup1\n      revert\n    tag_318:\n      pop\n      mload\n        /* \"ExodusTokenMigrator/OlympusAccessControlled.sol\":694:706  UNAUTHORIZED */\n      0x00\n      swap1\n      sub(shl(0xa0, 0x01), 0x01)\n        /* \"ExodusTokenMigrator/OlympusAccessControlled.sol\":658:692  msg.sender == authority.governor() */\n      and\n        /* \"ExodusTokenMigrator/OlympusAccessControlled.sol\":658:668  msg.sender */\n      caller\n        /* \"ExodusTokenMigrator/OlympusAccessControlled.sol\":658:692  msg.sender == authority.governor() */\n      eq\n        /* \"ExodusTokenMigrator/OlympusAccessControlled.sol\":650:707  require(msg.sender == authority.governor(), UNAUTHORIZED) */\n      tag_319\n      jumpi\n      mload(0x40)\n      shl(0xe5, 0x461bcd)\n      dup2\n      mstore\n      0x20\n      0x04\n      dup3\n      add\n      swap1\n      dup2\n      mstore\n      dup3\n      sload\n      0x02\n      not(0x00)\n      0x0100\n      0x01\n      dup5\n      and\n      iszero\n      mul\n      add\n      swap1\n      swap2\n      and\n      div\n      0x24\n      dup4\n      add\n      dup2\n      swap1\n      mstore\n      swap1\n      swap2\n      dup3\n      swap2\n      0x44\n      swap1\n      swap2\n      add\n      swap1\n      dup5\n      swap1\n      dup1\n      iszero\n      tag_144\n      jumpi\n      dup1\n      0x1f\n      lt\n      tag_145\n      jumpi\n      0x0100\n      dup1\n      dup4\n      sload\n      div\n      mul\n      dup4\n      mstore\n      swap2\n      0x20\n      add\n      swap2\n      jump(tag_144)\n    tag_319:\n      pop\n        /* \"ExodusTokenMigrator/OlympusTokenMigrator.sol\":7811:7830  uint256 oldLPAmount */\n      0x00\n        /* \"ExodusTokenMigrator/OlympusTokenMigrator.sol\":7840:7844  pair */\n      dup6\n      sub(shl(0xa0, 0x01), 0x01)\n        /* \"ExodusTokenMigrator/OlympusTokenMigrator.sol\":7833:7855  IERC20(pair).balanceOf */\n      and\n      0x70a08231\n        /* \"ExodusTokenMigrator/OlympusTokenMigrator.sol\":7864:7875  oldTreasury */\n      immutable(\"0xa22b5bddbdcd05368321bd50fd5db7d428b6ca478a3c7389901149e4e0253710\")\n        /* \"ExodusTokenMigrator/OlympusTokenMigrator.sol\":7833:7877  IERC20(pair).balanceOf(address(oldTreasury)) */\n      mload(0x40)\n      dup3\n      0xffffffff\n      and\n      0xe0\n      shl\n      dup2\n      mstore\n      0x04\n      add\n      dup1\n      dup3\n      sub(shl(0xa0, 0x01), 0x01)\n      and\n      dup2\n      mstore\n      0x20\n      add\n      swap2\n      pop\n      pop\n      0x20\n      mload(0x40)\n      dup1\n      dup4\n      sub\n      dup2\n      dup7\n      dup1\n      extcodesize\n      iszero\n      dup1\n      iszero\n      tag_324\n      jumpi\n      0x00\n      dup1\n      revert\n    tag_324:\n      pop\n      gas\n      staticcall\n      iszero\n      dup1\n      iszero\n      tag_326\n      jumpi\n      returndatasize\n      0x00\n      dup1\n      returndatacopy\n      revert(0x00, returndatasize)\n    tag_326:\n      pop\n      pop\n      pop\n      pop\n      mload(0x40)\n      returndatasize\n      0x20\n      dup2\n      lt\n      iszero\n      tag_327\n      jumpi\n      0x00\n      dup1\n      revert\n    tag_327:\n      pop\n      mload\n        /* \"ExodusTokenMigrator/OlympusTokenMigrator.sol\":7887:7924  oldTreasury.manage(pair, oldLPAmount) */\n      0x40\n      dup1\n      mload\n      0x0b0eee3000000000000000000000000000000000000000000000000000000000\n      dup2\n      mstore\n      sub(shl(0xa0, 0x01), 0x01)\n      dup10\n      dup2\n      and\n      0x04\n      dup4\n      add\n      mstore\n      0x24\n      dup3\n      add\n      dup5\n      swap1\n      mstore\n      swap2\n      mload\n        /* \"ExodusTokenMigrator/OlympusTokenMigrator.sol\":7833:7877  IERC20(pair).balanceOf(address(oldTreasury)) */\n      swap3\n      swap4\n      pop\n        /* \"ExodusTokenMigrator/OlympusTokenMigrator.sol\":7887:7898  oldTreasury */\n      immutable(\"0xa22b5bddbdcd05368321bd50fd5db7d428b6ca478a3c7389901149e4e0253710\")\n        /* \"ExodusTokenMigrator/OlympusTokenMigrator.sol\":7887:7905  oldTreasury.manage */\n      swap1\n      swap2\n      and\n      swap2\n      0x0b0eee30\n      swap2\n        /* \"ExodusTokenMigrator/OlympusTokenMigrator.sol\":7887:7924  oldTreasury.manage(pair, oldLPAmount) */\n      0x44\n      dup1\n      dup3\n      add\n      swap3\n      0x00\n      swap3\n      swap1\n      swap2\n      swap1\n      dup3\n      swap1\n      sub\n      add\n      dup2\n      dup4\n        /* \"ExodusTokenMigrator/OlympusTokenMigrator.sol\":7887:7905  oldTreasury.manage */\n      dup8\n        /* \"ExodusTokenMigrator/OlympusTokenMigrator.sol\":7887:7924  oldTreasury.manage(pair, oldLPAmount) */\n      dup1\n      extcodesize\n      iszero\n      dup1\n      iszero\n      tag_328\n      jumpi\n      0x00\n      dup1\n      revert\n    tag_328:\n      pop\n      gas\n      call\n      iszero\n      dup1\n      iszero\n      tag_330\n      jumpi\n      returndatasize\n      0x00\n      dup1\n      returndatacopy\n      revert(0x00, returndatasize)\n    tag_330:\n      pop\n      pop\n      pop\n      pop\n        /* \"ExodusTokenMigrator/OlympusTokenMigrator.sol\":7935:7958  IUniswapV2Router router */\n      0x00\n        /* \"ExodusTokenMigrator/OlympusTokenMigrator.sol\":7961:7972  sushiRouter */\n      immutable(\"0xd73e0b65d8a88e087fe45492939659264b6eeb687212994f56dac859eedb899a\")\n        /* \"ExodusTokenMigrator/OlympusTokenMigrator.sol\":7935:7972  IUniswapV2Router router = sushiRouter */\n      swap1\n      pop\n        /* \"ExodusTokenMigrator/OlympusTokenMigrator.sol\":7987:7992  sushi */\n      dup6\n        /* \"ExodusTokenMigrator/OlympusTokenMigrator.sol\":7982:8037  if (!sushi) {... */\n      tag_331\n      jumpi\n      pop\n        /* \"ExodusTokenMigrator/OlympusTokenMigrator.sol\":8017:8026  uniRouter */\n      immutable(\"0x28d661cc9d988d5307f207b74b6d74cee4476610b1bde926474d3f5b95354fd2\")\n        /* \"ExodusTokenMigrator/OlympusTokenMigrator.sol\":7982:8037  if (!sushi) {... */\n    tag_331:\n        /* \"ExodusTokenMigrator/OlympusTokenMigrator.sol\":8054:8058  pair */\n      dup7\n      sub(shl(0xa0, 0x01), 0x01)\n        /* \"ExodusTokenMigrator/OlympusTokenMigrator.sol\":8047:8067  IERC20(pair).approve */\n      and\n      0x095ea7b3\n        /* \"ExodusTokenMigrator/OlympusTokenMigrator.sol\":8076:8082  router */\n      dup3\n        /* \"ExodusTokenMigrator/OlympusTokenMigrator.sol\":8085:8096  oldLPAmount */\n      dup5\n        /* \"ExodusTokenMigrator/OlympusTokenMigrator.sol\":8047:8097  IERC20(pair).approve(address(router), oldLPAmount) */\n      mload(0x40)\n      dup4\n      0xffffffff\n      and\n      0xe0\n      shl\n      dup2\n      mstore\n      0x04\n      add\n      dup1\n      dup4\n      sub(shl(0xa0, 0x01), 0x01)\n      and\n      dup2\n      mstore\n      0x20\n      add\n      dup3\n      dup2\n      mstore\n      0x20\n      add\n      swap3\n      pop\n      pop\n      pop\n      0x20\n      mload(0x40)\n      dup1\n      dup4\n      sub\n      dup2\n      0x00\n      dup8\n      dup1\n      extcodesize\n      iszero\n      dup1\n      iszero\n      tag_332\n      jumpi\n      0x00\n      dup1\n      revert\n    tag_332:\n      pop\n      gas\n      call\n      iszero\n      dup1\n      iszero\n      tag_334\n      jumpi\n      returndatasize\n      0x00\n      dup1\n      returndatacopy\n      revert(0x00, returndatasize)\n    tag_334:\n      pop\n      pop\n      pop\n      pop\n      mload(0x40)\n      returndatasize\n      0x20\n      dup2\n      lt\n      iszero\n      tag_335\n      jumpi\n      0x00\n      dup1\n      revert\n    tag_335:\n      pop\n      pop\n        /* \"ExodusTokenMigrator/OlympusTokenMigrator.sol\":8144:8343  router.removeLiquidity(... */\n      0x40\n      dup1\n      mload\n      0xbaa2abde00000000000000000000000000000000000000000000000000000000\n      dup2\n      mstore\n      sub(shl(0xa0, 0x01), 0x01)\n      dup8\n      dup2\n      and\n      0x04\n      dup4\n      add\n      mstore\n        /* \"ExodusTokenMigrator/OlympusTokenMigrator.sol\":8207:8213  oldEXO */\n      immutable(\"0x7751dd710c07ab49cc2c1853892b3f71f3ced69475463e7c975b4ac84ae5fa90\")\n        /* \"ExodusTokenMigrator/OlympusTokenMigrator.sol\":8144:8343  router.removeLiquidity(... */\n      dup2\n      and\n      0x24\n      dup4\n      add\n      mstore\n      0x44\n      dup3\n      add\n      dup6\n      swap1\n      mstore\n      0x64\n      dup3\n      add\n      dup8\n      swap1\n      mstore\n      0x84\n      dup3\n      add\n      dup7\n      swap1\n      mstore\n        /* \"ExodusTokenMigrator/OlympusTokenMigrator.sol\":8299:8303  this */\n      address\n        /* \"ExodusTokenMigrator/OlympusTokenMigrator.sol\":8144:8343  router.removeLiquidity(... */\n      0xa4\n      dup4\n      add\n      mstore\n        /* \"ExodusTokenMigrator/OlympusTokenMigrator.sol\":8318:8333  block.timestamp */\n      timestamp\n        /* \"ExodusTokenMigrator/OlympusTokenMigrator.sol\":8144:8343  router.removeLiquidity(... */\n      0xc4\n      dup4\n      add\n      mstore\n      dup3\n      mload\n        /* \"ExodusTokenMigrator/OlympusTokenMigrator.sol\":8108:8123  uint256 amountA */\n      0x00\n      swap4\n      dup5\n      swap4\n        /* \"ExodusTokenMigrator/OlympusTokenMigrator.sol\":8144:8166  router.removeLiquidity */\n      swap3\n      dup7\n      and\n      swap3\n      0xbaa2abde\n      swap3\n        /* \"ExodusTokenMigrator/OlympusTokenMigrator.sol\":8144:8343  router.removeLiquidity(... */\n      0xe4\n      dup1\n      dup4\n      add\n      swap4\n      swap3\n      dup3\n      swap1\n      sub\n      add\n      dup2\n        /* \"ExodusTokenMigrator/OlympusTokenMigrator.sol\":8108:8123  uint256 amountA */\n      dup8\n        /* \"ExodusTokenMigrator/OlympusTokenMigrator.sol\":8144:8166  router.removeLiquidity */\n      dup8\n        /* \"ExodusTokenMigrator/OlympusTokenMigrator.sol\":8144:8343  router.removeLiquidity(... */\n      dup1\n      extcodesize\n      iszero\n      dup1\n      iszero\n      tag_336\n      jumpi\n      0x00\n      dup1\n      revert\n    tag_336:\n      pop\n      gas\n      call\n      iszero\n      dup1\n      iszero\n      tag_338\n      jumpi\n      returndatasize\n      0x00\n      dup1\n      returndatacopy\n      revert(0x00, returndatasize)\n    tag_338:\n      pop\n      pop\n      pop\n      pop\n      mload(0x40)\n      returndatasize\n      0x40\n      dup2\n      lt\n      iszero\n      tag_339\n      jumpi\n      0x00\n      dup1\n      revert\n    tag_339:\n      pop\n      dup1\n      mload\n      0x20\n      swap1\n      swap2\n      add\n      mload\n        /* \"ExodusTokenMigrator/OlympusTokenMigrator.sol\":8354:8365  newTreasury */\n      sload(0x03)\n        /* \"ExodusTokenMigrator/OlympusTokenMigrator.sol\":8144:8343  router.removeLiquidity(... */\n      0x40\n        /* \"ExodusTokenMigrator/OlympusTokenMigrator.sol\":8354:8394  newTreasury.mint(address(this), amountB) */\n      dup1\n      mload\n      shl(0xe0, 0x40c10f19)\n      dup2\n      mstore\n        /* \"ExodusTokenMigrator/OlympusTokenMigrator.sol\":8379:8383  this */\n      address\n        /* \"ExodusTokenMigrator/OlympusTokenMigrator.sol\":8354:8394  newTreasury.mint(address(this), amountB) */\n      0x04\n      dup3\n      add\n      mstore\n      0x24\n      dup2\n      add\n      dup5\n      swap1\n      mstore\n      swap1\n      mload\n        /* \"ExodusTokenMigrator/OlympusTokenMigrator.sol\":8144:8343  router.removeLiquidity(... */\n      swap4\n      swap6\n      pop\n      swap2\n      swap4\n      pop\n      sub(shl(0xa0, 0x01), 0x01)\n        /* \"ExodusTokenMigrator/OlympusTokenMigrator.sol\":8354:8365  newTreasury */\n      and\n      swap2\n        /* \"ExodusTokenMigrator/OlympusTokenMigrator.sol\":8354:8370  newTreasury.mint */\n      0x40c10f19\n      swap2\n        /* \"ExodusTokenMigrator/OlympusTokenMigrator.sol\":8354:8394  newTreasury.mint(address(this), amountB) */\n      0x44\n      dup1\n      dup3\n      add\n      swap3\n        /* \"ExodusTokenMigrator/OlympusTokenMigrator.sol\":8354:8365  newTreasury */\n      0x00\n      swap3\n        /* \"ExodusTokenMigrator/OlympusTokenMigrator.sol\":8354:8394  newTreasury.mint(address(this), amountB) */\n      swap1\n      swap2\n      swap1\n      dup3\n      swap1\n      sub\n      add\n      dup2\n        /* \"ExodusTokenMigrator/OlympusTokenMigrator.sol\":8354:8365  newTreasury */\n      dup4\n      dup8\n        /* \"ExodusTokenMigrator/OlympusTokenMigrator.sol\":8354:8394  newTreasury.mint(address(this), amountB) */\n      dup1\n      extcodesize\n      iszero\n      dup1\n      iszero\n      tag_340\n      jumpi\n      0x00\n      dup1\n      revert\n    tag_340:\n      pop\n      gas\n      call\n      iszero\n      dup1\n      iszero\n      tag_342\n      jumpi\n      returndatasize\n      0x00\n      dup1\n      returndatacopy\n      revert(0x00, returndatasize)\n    tag_342:\n      pop\n      pop\n      pop\n      pop\n        /* \"ExodusTokenMigrator/OlympusTokenMigrator.sol\":8412:8417  token */\n      dup7\n      sub(shl(0xa0, 0x01), 0x01)\n        /* \"ExodusTokenMigrator/OlympusTokenMigrator.sol\":8405:8426  IERC20(token).approve */\n      and\n      0x095ea7b3\n        /* \"ExodusTokenMigrator/OlympusTokenMigrator.sol\":8435:8441  router */\n      dup5\n        /* \"ExodusTokenMigrator/OlympusTokenMigrator.sol\":8444:8451  amountA */\n      dup5\n        /* \"ExodusTokenMigrator/OlympusTokenMigrator.sol\":8405:8452  IERC20(token).approve(address(router), amountA) */\n      mload(0x40)\n      dup4\n      0xffffffff\n      and\n      0xe0\n      shl\n      dup2\n      mstore\n      0x04\n      add\n      dup1\n      dup4\n      sub(shl(0xa0, 0x01), 0x01)\n      and\n      dup2\n      mstore\n      0x20\n      add\n      dup3\n      dup2\n      mstore\n      0x20\n      add\n      swap3\n      pop\n      pop\n      pop\n      0x20\n      mload(0x40)\n      dup1\n      dup4\n      sub\n      dup2\n      0x00\n      dup8\n      dup1\n      extcodesize\n      iszero\n      dup1\n      iszero\n      tag_343\n      jumpi\n      0x00\n      dup1\n      revert\n    tag_343:\n      pop\n      gas\n      call\n      iszero\n      dup1\n      iszero\n      tag_345\n      jumpi\n      returndatasize\n      0x00\n      dup1\n      returndatacopy\n      revert(0x00, returndatasize)\n    tag_345:\n      pop\n      pop\n      pop\n      pop\n      mload(0x40)\n      returndatasize\n      0x20\n      dup2\n      lt\n      iszero\n      tag_346\n      jumpi\n      0x00\n      dup1\n      revert\n    tag_346:\n      pop\n      pop\n        /* \"ExodusTokenMigrator/OlympusTokenMigrator.sol\":8462:8468  newEXO */\n      sload(0x05)\n        /* \"ExodusTokenMigrator/OlympusTokenMigrator.sol\":8462:8502  newEXO.approve(address(router), amountB) */\n      0x40\n      dup1\n      mload\n      shl(0xe0, 0x095ea7b3)\n      dup2\n      mstore\n      sub(shl(0xa0, 0x01), 0x01)\n      dup7\n      dup2\n      and\n      0x04\n      dup4\n      add\n      mstore\n      0x24\n      dup3\n      add\n      dup6\n      swap1\n      mstore\n      swap2\n      mload\n        /* \"ExodusTokenMigrator/OlympusTokenMigrator.sol\":8462:8468  newEXO */\n      swap2\n      swap1\n      swap3\n      and\n      swap2\n        /* \"ExodusTokenMigrator/OlympusTokenMigrator.sol\":8462:8476  newEXO.approve */\n      0x095ea7b3\n      swap2\n        /* \"ExodusTokenMigrator/OlympusTokenMigrator.sol\":8462:8502  newEXO.approve(address(router), amountB) */\n      0x44\n      dup1\n      dup4\n      add\n      swap3\n        /* \"ExodusTokenMigrator/OlympusTokenMigrator.sol\":8405:8452  IERC20(token).approve(address(router), amountA) */\n      0x20\n      swap3\n        /* \"ExodusTokenMigrator/OlympusTokenMigrator.sol\":8462:8502  newEXO.approve(address(router), amountB) */\n      swap2\n      swap1\n      dup3\n      swap1\n      sub\n      add\n      dup2\n        /* \"ExodusTokenMigrator/OlympusTokenMigrator.sol\":8462:8468  newEXO */\n      0x00\n      dup8\n        /* \"ExodusTokenMigrator/OlympusTokenMigrator.sol\":8462:8502  newEXO.approve(address(router), amountB) */\n      dup1\n      extcodesize\n      iszero\n      dup1\n      iszero\n      tag_347\n      jumpi\n      0x00\n      dup1\n      revert\n    tag_347:\n      pop\n      gas\n      call\n      iszero\n      dup1\n      iszero\n      tag_349\n      jumpi\n      returndatasize\n      0x00\n      dup1\n      returndatacopy\n      revert(0x00, returndatasize)\n    tag_349:\n      pop\n      pop\n      pop\n      pop\n      mload(0x40)\n      returndatasize\n      0x20\n      dup2\n      lt\n      iszero\n      tag_350\n      jumpi\n      0x00\n      dup1\n      revert\n    tag_350:\n      pop\n      pop\n        /* \"ExodusTokenMigrator/OlympusTokenMigrator.sol\":8573:8579  newEXO */\n      sload(0x05)\n        /* \"ExodusTokenMigrator/OlympusTokenMigrator.sol\":8686:8697  newTreasury */\n      sload(0x03)\n        /* \"ExodusTokenMigrator/OlympusTokenMigrator.sol\":8513:8737  router.addLiquidity(... */\n      0x40\n      dup1\n      mload\n      0xe8e3370000000000000000000000000000000000000000000000000000000000\n      dup2\n      mstore\n      sub(shl(0xa0, 0x01), 0x01)\n      dup12\n      dup2\n      and\n      0x04\n      dup4\n      add\n      mstore\n        /* \"ExodusTokenMigrator/OlympusTokenMigrator.sol\":8573:8579  newEXO */\n      swap4\n      dup5\n      and\n        /* \"ExodusTokenMigrator/OlympusTokenMigrator.sol\":8513:8737  router.addLiquidity(... */\n      0x24\n      dup3\n      add\n      mstore\n      0x44\n      dup2\n      add\n      dup7\n      swap1\n      mstore\n      0x64\n      dup2\n      add\n      dup6\n      swap1\n      mstore\n      0x84\n      dup2\n      add\n      dup7\n      swap1\n      mstore\n      0xa4\n      dup2\n      add\n      dup6\n      swap1\n      mstore\n        /* \"ExodusTokenMigrator/OlympusTokenMigrator.sol\":8686:8697  newTreasury */\n      swap2\n      dup4\n      and\n        /* \"ExodusTokenMigrator/OlympusTokenMigrator.sol\":8513:8737  router.addLiquidity(... */\n      0xc4\n      dup4\n      add\n      mstore\n        /* \"ExodusTokenMigrator/OlympusTokenMigrator.sol\":8712:8727  block.timestamp */\n      timestamp\n        /* \"ExodusTokenMigrator/OlympusTokenMigrator.sol\":8513:8737  router.addLiquidity(... */\n      0xe4\n      dup4\n      add\n      mstore\n      mload\n        /* \"ExodusTokenMigrator/OlympusTokenMigrator.sol\":8513:8532  router.addLiquidity */\n      swap2\n      dup6\n      and\n      swap2\n      0xe8e33700\n      swap2\n        /* \"ExodusTokenMigrator/OlympusTokenMigrator.sol\":8513:8737  router.addLiquidity(... */\n      0x0104\n      dup1\n      dup3\n      add\n      swap3\n      0x60\n      swap3\n      swap1\n      swap2\n      swap1\n      dup3\n      swap1\n      sub\n      add\n      dup2\n        /* \"ExodusTokenMigrator/OlympusTokenMigrator.sol\":8573:8579  newEXO */\n      0x00\n        /* \"ExodusTokenMigrator/OlympusTokenMigrator.sol\":8513:8532  router.addLiquidity */\n      dup8\n        /* \"ExodusTokenMigrator/OlympusTokenMigrator.sol\":8513:8737  router.addLiquidity(... */\n      dup1\n      extcodesize\n      iszero\n      dup1\n      iszero\n      tag_351\n      jumpi\n      0x00\n      dup1\n      revert\n    tag_351:\n      pop\n      gas\n      call\n      iszero\n      dup1\n      iszero\n      tag_353\n      jumpi\n      returndatasize\n      0x00\n      dup1\n      returndatacopy\n      revert(0x00, returndatasize)\n    tag_353:\n      pop\n      pop\n      pop\n      pop\n      mload(0x40)\n      returndatasize\n      0x60\n      dup2\n      lt\n      iszero\n      tag_354\n      jumpi\n      0x00\n      dup1\n      revert\n    tag_354:\n      pop\n      pop\n      pop\n      pop\n      pop\n      pop\n      pop\n      pop\n      pop\n      pop\n      pop\n        /* \"ExodusTokenMigrator/OlympusTokenMigrator.sol\":7643:8744  function migrateLP(... */\n      jump\t// out\n        /* \"ExodusTokenMigrator/OlympusTokenMigrator.sol\":1320:1343  bool public exoMigrated */\n    tag_96:\n      sload(0x05)\n      shl(0xa0, 0x01)\n      swap1\n      div\n      0xff\n      and\n      dup2\n      jump\t// out\n        /* \"ExodusTokenMigrator/OlympusTokenMigrator.sol\":3645:4585  function migrateAll(TYPE _to) external {... */\n    tag_99:\n        /* \"ExodusTokenMigrator/OlympusTokenMigrator.sol\":3703:3711  shutdown */\n      sload(0x05)\n      shl(0xa8, 0x01)\n      swap1\n      div\n      0xff\n      and\n        /* \"ExodusTokenMigrator/OlympusTokenMigrator.sol\":3702:3711  !shutdown */\n      iszero\n        /* \"ExodusTokenMigrator/OlympusTokenMigrator.sol\":3694:3725  require(!shutdown, \"Shut down\") */\n      tag_356\n      jumpi\n      0x40\n      dup1\n      mload\n      shl(0xe5, 0x461bcd)\n      dup2\n      mstore\n      0x20\n      0x04\n      dup3\n      add\n      mstore\n      0x09\n      0x24\n      dup3\n      add\n      mstore\n      shl(0xb9, 0x29b43aba103237bbb7)\n      0x44\n      dup3\n      add\n      mstore\n      swap1\n      mload\n      swap1\n      dup2\n      swap1\n      sub\n      0x64\n      add\n      swap1\n      revert\n    tag_356:\n        /* \"ExodusTokenMigrator/OlympusTokenMigrator.sol\":3736:3750  uint256 exoBal */\n      0x00\n        /* \"ExodusTokenMigrator/OlympusTokenMigrator.sol\":3764:3779  uint256 sEXOBal */\n      dup1\n        /* \"ExodusTokenMigrator/OlympusTokenMigrator.sol\":3782:3789  oldsEXO */\n      immutable(\"0xa98a2f5aeb9ac9608e39eb3f8b40f1c25875f48fb0abb123ad85a5ab2ba25315\")\n      sub(shl(0xa0, 0x01), 0x01)\n        /* \"ExodusTokenMigrator/OlympusTokenMigrator.sol\":3782:3799  oldsEXO.balanceOf */\n      and\n      0x70a08231\n        /* \"ExodusTokenMigrator/OlympusTokenMigrator.sol\":3800:3810  msg.sender */\n      caller\n        /* \"ExodusTokenMigrator/OlympusTokenMigrator.sol\":3782:3811  oldsEXO.balanceOf(msg.sender) */\n      mload(0x40)\n      dup3\n      0xffffffff\n      and\n      0xe0\n      shl\n      dup2\n      mstore\n      0x04\n      add\n      dup1\n      dup3\n      sub(shl(0xa0, 0x01), 0x01)\n      and\n      dup2\n      mstore\n      0x20\n      add\n      swap2\n      pop\n      pop\n      0x20\n      mload(0x40)\n      dup1\n      dup4\n      sub\n      dup2\n      dup7\n      dup1\n      extcodesize\n      iszero\n      dup1\n      iszero\n      tag_357\n      jumpi\n      0x00\n      dup1\n      revert\n    tag_357:\n      pop\n      gas\n      staticcall\n      iszero\n      dup1\n      iszero\n      tag_359\n      jumpi\n      returndatasize\n      0x00\n      dup1\n      returndatacopy\n      revert(0x00, returndatasize)\n    tag_359:\n      pop\n      pop\n      pop\n      pop\n      mload(0x40)\n      returndatasize\n      0x20\n      dup2\n      lt\n      iszero\n      tag_360\n      jumpi\n      0x00\n      dup1\n      revert\n    tag_360:\n      pop\n      mload\n        /* \"ExodusTokenMigrator/OlympusTokenMigrator.sol\":3840:3870  oldwsEXO.balanceOf(msg.sender) */\n      0x40\n      dup1\n      mload\n      shl(0xe0, 0x70a08231)\n      dup2\n      mstore\n        /* \"ExodusTokenMigrator/OlympusTokenMigrator.sol\":3859:3869  msg.sender */\n      caller\n        /* \"ExodusTokenMigrator/OlympusTokenMigrator.sol\":3840:3870  oldwsEXO.balanceOf(msg.sender) */\n      0x04\n      dup3\n      add\n      mstore\n      swap1\n      mload\n        /* \"ExodusTokenMigrator/OlympusTokenMigrator.sol\":3782:3811  oldsEXO.balanceOf(msg.sender) */\n      swap2\n      swap3\n      pop\n        /* \"ExodusTokenMigrator/OlympusTokenMigrator.sol\":3821:3837  uint256 wsEXOBal */\n      0x00\n      swap2\n      sub(shl(0xa0, 0x01), 0x01)\n        /* \"ExodusTokenMigrator/OlympusTokenMigrator.sol\":3840:3848  oldwsEXO */\n      immutable(\"0x03065c56175bab9d6c02682cec557b5c933cd8364ccf2dd44ab76e0c260931e7\")\n        /* \"ExodusTokenMigrator/OlympusTokenMigrator.sol\":3840:3858  oldwsEXO.balanceOf */\n      and\n      swap2\n      0x70a08231\n      swap2\n        /* \"ExodusTokenMigrator/OlympusTokenMigrator.sol\":3840:3870  oldwsEXO.balanceOf(msg.sender) */\n      0x24\n      dup1\n      dup4\n      add\n      swap3\n        /* \"ExodusTokenMigrator/OlympusTokenMigrator.sol\":3782:3811  oldsEXO.balanceOf(msg.sender) */\n      0x20\n      swap3\n        /* \"ExodusTokenMigrator/OlympusTokenMigrator.sol\":3840:3870  oldwsEXO.balanceOf(msg.sender) */\n      swap2\n      swap1\n      dup3\n      swap1\n      sub\n      add\n      dup2\n        /* \"ExodusTokenMigrator/OlympusTokenMigrator.sol\":3840:3858  oldwsEXO.balanceOf */\n      dup7\n        /* \"ExodusTokenMigrator/OlympusTokenMigrator.sol\":3840:3870  oldwsEXO.balanceOf(msg.sender) */\n      dup1\n      extcodesize\n      iszero\n      dup1\n      iszero\n      tag_361\n      jumpi\n      0x00\n      dup1\n      revert\n    tag_361:\n      pop\n      gas\n      staticcall\n      iszero\n      dup1\n      iszero\n      tag_363\n      jumpi\n      returndatasize\n      0x00\n      dup1\n      returndatacopy\n      revert(0x00, returndatasize)\n    tag_363:\n      pop\n      pop\n      pop\n      pop\n      mload(0x40)\n      returndatasize\n      0x20\n      dup2\n      lt\n      iszero\n      tag_364\n      jumpi\n      0x00\n      dup1\n      revert\n    tag_364:\n      pop\n      mload\n        /* \"ExodusTokenMigrator/OlympusTokenMigrator.sol\":3885:3913  oldEXO.balanceOf(msg.sender) */\n      0x40\n      dup1\n      mload\n      shl(0xe0, 0x70a08231)\n      dup2\n      mstore\n        /* \"ExodusTokenMigrator/OlympusTokenMigrator.sol\":3902:3912  msg.sender */\n      caller\n        /* \"ExodusTokenMigrator/OlympusTokenMigrator.sol\":3885:3913  oldEXO.balanceOf(msg.sender) */\n      0x04\n      dup3\n      add\n      mstore\n      swap1\n      mload\n        /* \"ExodusTokenMigrator/OlympusTokenMigrator.sol\":3840:3870  oldwsEXO.balanceOf(msg.sender) */\n      swap2\n      swap3\n      pop\n        /* \"ExodusTokenMigrator/OlympusTokenMigrator.sol\":3916:3917  0 */\n      0x00\n      swap2\n      sub(shl(0xa0, 0x01), 0x01)\n        /* \"ExodusTokenMigrator/OlympusTokenMigrator.sol\":3885:3891  oldEXO */\n      immutable(\"0x7751dd710c07ab49cc2c1853892b3f71f3ced69475463e7c975b4ac84ae5fa90\")\n        /* \"ExodusTokenMigrator/OlympusTokenMigrator.sol\":3885:3901  oldEXO.balanceOf */\n      and\n      swap2\n      0x70a08231\n      swap2\n        /* \"ExodusTokenMigrator/OlympusTokenMigrator.sol\":3885:3913  oldEXO.balanceOf(msg.sender) */\n      0x24\n      dup1\n      dup4\n      add\n      swap3\n        /* \"ExodusTokenMigrator/OlympusTokenMigrator.sol\":3840:3870  oldwsEXO.balanceOf(msg.sender) */\n      0x20\n      swap3\n        /* \"ExodusTokenMigrator/OlympusTokenMigrator.sol\":3885:3913  oldEXO.balanceOf(msg.sender) */\n      swap2\n      swap1\n      dup3\n      swap1\n      sub\n      add\n      dup2\n        /* \"ExodusTokenMigrator/OlympusTokenMigrator.sol\":3885:3901  oldEXO.balanceOf */\n      dup7\n        /* \"ExodusTokenMigrator/OlympusTokenMigrator.sol\":3885:3913  oldEXO.balanceOf(msg.sender) */\n      dup1\n      extcodesize\n      iszero\n      dup1\n      iszero\n      tag_365\n      jumpi\n      0x00\n      dup1\n      revert\n    tag_365:\n      pop\n      gas\n      staticcall\n      iszero\n      dup1\n      iszero\n      tag_367\n      jumpi\n      returndatasize\n      0x00\n      dup1\n      returndatacopy\n      revert(0x00, returndatasize)\n    tag_367:\n      pop\n      pop\n      pop\n      pop\n      mload(0x40)\n      returndatasize\n      0x20\n      dup2\n      lt\n      iszero\n      tag_368\n      jumpi\n      0x00\n      dup1\n      revert\n    tag_368:\n      pop\n      mload\n        /* \"ExodusTokenMigrator/OlympusTokenMigrator.sol\":3885:3917  oldEXO.balanceOf(msg.sender) > 0 */\n      gt\n        /* \"ExodusTokenMigrator/OlympusTokenMigrator.sol\":3885:3932  oldEXO.balanceOf(msg.sender) > 0 && exoMigrated */\n      dup1\n      iszero\n      tag_369\n      jumpi\n      pop\n        /* \"ExodusTokenMigrator/OlympusTokenMigrator.sol\":3921:3932  exoMigrated */\n      sload(0x05)\n      shl(0xa0, 0x01)\n      swap1\n      div\n      0xff\n      and\n        /* \"ExodusTokenMigrator/OlympusTokenMigrator.sol\":3885:3932  oldEXO.balanceOf(msg.sender) > 0 && exoMigrated */\n    tag_369:\n        /* \"ExodusTokenMigrator/OlympusTokenMigrator.sol\":3881:4068  if (oldEXO.balanceOf(msg.sender) > 0 && exoMigrated) {... */\n      iszero\n      tag_375\n      jumpi\n        /* \"ExodusTokenMigrator/OlympusTokenMigrator.sol\":3957:3985  oldEXO.balanceOf(msg.sender) */\n      0x40\n      dup1\n      mload\n      shl(0xe0, 0x70a08231)\n      dup2\n      mstore\n        /* \"ExodusTokenMigrator/OlympusTokenMigrator.sol\":3974:3984  msg.sender */\n      caller\n        /* \"ExodusTokenMigrator/OlympusTokenMigrator.sol\":3957:3985  oldEXO.balanceOf(msg.sender) */\n      0x04\n      dup3\n      add\n      mstore\n      swap1\n      mload\n      sub(shl(0xa0, 0x01), 0x01)\n        /* \"ExodusTokenMigrator/OlympusTokenMigrator.sol\":3957:3963  oldEXO */\n      immutable(\"0x7751dd710c07ab49cc2c1853892b3f71f3ced69475463e7c975b4ac84ae5fa90\")\n        /* \"ExodusTokenMigrator/OlympusTokenMigrator.sol\":3957:3973  oldEXO.balanceOf */\n      and\n      swap2\n      0x70a08231\n      swap2\n        /* \"ExodusTokenMigrator/OlympusTokenMigrator.sol\":3957:3985  oldEXO.balanceOf(msg.sender) */\n      0x24\n      dup1\n      dup4\n      add\n      swap3\n      0x20\n      swap3\n      swap2\n      swap1\n      dup3\n      swap1\n      sub\n      add\n      dup2\n        /* \"ExodusTokenMigrator/OlympusTokenMigrator.sol\":3957:3973  oldEXO.balanceOf */\n      dup7\n        /* \"ExodusTokenMigrator/OlympusTokenMigrator.sol\":3957:3985  oldEXO.balanceOf(msg.sender) */\n      dup1\n      extcodesize\n      iszero\n      dup1\n      iszero\n      tag_371\n      jumpi\n      0x00\n      dup1\n      revert\n    tag_371:\n      pop\n      gas\n      staticcall\n      iszero\n      dup1\n      iszero\n      tag_373\n      jumpi\n      returndatasize\n      0x00\n      dup1\n      returndatacopy\n      revert(0x00, returndatasize)\n    tag_373:\n      pop\n      pop\n      pop\n      pop\n      mload(0x40)\n      returndatasize\n      0x20\n      dup2\n      lt\n      iszero\n      tag_374\n      jumpi\n      0x00\n      dup1\n      revert\n    tag_374:\n      pop\n      mload\n      swap3\n      pop\n        /* \"ExodusTokenMigrator/OlympusTokenMigrator.sol\":3999:4057  oldEXO.safeTransferFrom(msg.sender, address(this), exoBal) */\n      tag_375\n      sub(shl(0xa0, 0x01), 0x01)\n        /* \"ExodusTokenMigrator/OlympusTokenMigrator.sol\":3999:4005  oldEXO */\n      immutable(\"0x7751dd710c07ab49cc2c1853892b3f71f3ced69475463e7c975b4ac84ae5fa90\")\n        /* \"ExodusTokenMigrator/OlympusTokenMigrator.sol\":3999:4022  oldEXO.safeTransferFrom */\n      and\n        /* \"ExodusTokenMigrator/OlympusTokenMigrator.sol\":4023:4033  msg.sender */\n      caller\n        /* \"ExodusTokenMigrator/OlympusTokenMigrator.sol\":4043:4047  this */\n      address\n        /* \"ExodusTokenMigrator/OlympusTokenMigrator.sol\":3957:3985  oldEXO.balanceOf(msg.sender) */\n      dup7\n        /* \"ExodusTokenMigrator/OlympusTokenMigrator.sol\":3999:4022  oldEXO.safeTransferFrom */\n      tag_118\n        /* \"ExodusTokenMigrator/OlympusTokenMigrator.sol\":3999:4057  oldEXO.safeTransferFrom(msg.sender, address(this), exoBal) */\n      jump\t// in\n    tag_375:\n        /* \"ExodusTokenMigrator/OlympusTokenMigrator.sol\":4081:4092  sEXOBal > 0 */\n      dup2\n      iszero\n        /* \"ExodusTokenMigrator/OlympusTokenMigrator.sol\":4077:4179  if (sEXOBal > 0) {... */\n      tag_377\n      jumpi\n        /* \"ExodusTokenMigrator/OlympusTokenMigrator.sol\":4108:4168  oldsEXO.safeTransferFrom(msg.sender, address(this), sEXOBal) */\n      tag_377\n      sub(shl(0xa0, 0x01), 0x01)\n        /* \"ExodusTokenMigrator/OlympusTokenMigrator.sol\":4108:4115  oldsEXO */\n      immutable(\"0xa98a2f5aeb9ac9608e39eb3f8b40f1c25875f48fb0abb123ad85a5ab2ba25315\")\n        /* \"ExodusTokenMigrator/OlympusTokenMigrator.sol\":4108:4132  oldsEXO.safeTransferFrom */\n      and\n        /* \"ExodusTokenMigrator/OlympusTokenMigrator.sol\":4133:4143  msg.sender */\n      caller\n        /* \"ExodusTokenMigrator/OlympusTokenMigrator.sol\":4153:4157  this */\n      address\n        /* \"ExodusTokenMigrator/OlympusTokenMigrator.sol\":4160:4167  sEXOBal */\n      dup6\n        /* \"ExodusTokenMigrator/OlympusTokenMigrator.sol\":4108:4132  oldsEXO.safeTransferFrom */\n      tag_118\n        /* \"ExodusTokenMigrator/OlympusTokenMigrator.sol\":4108:4168  oldsEXO.safeTransferFrom(msg.sender, address(this), sEXOBal) */\n      jump\t// in\n    tag_377:\n        /* \"ExodusTokenMigrator/OlympusTokenMigrator.sol\":4192:4204  wsEXOBal > 0 */\n      dup1\n      iszero\n        /* \"ExodusTokenMigrator/OlympusTokenMigrator.sol\":4188:4293  if (wsEXOBal > 0) {... */\n      tag_379\n      jumpi\n        /* \"ExodusTokenMigrator/OlympusTokenMigrator.sol\":4220:4282  oldwsEXO.safeTransferFrom(msg.sender, address(this), wsEXOBal) */\n      tag_379\n      sub(shl(0xa0, 0x01), 0x01)\n        /* \"ExodusTokenMigrator/OlympusTokenMigrator.sol\":4220:4228  oldwsEXO */\n      immutable(\"0x03065c56175bab9d6c02682cec557b5c933cd8364ccf2dd44ab76e0c260931e7\")\n        /* \"ExodusTokenMigrator/OlympusTokenMigrator.sol\":4220:4245  oldwsEXO.safeTransferFrom */\n      and\n        /* \"ExodusTokenMigrator/OlympusTokenMigrator.sol\":4246:4256  msg.sender */\n      caller\n        /* \"ExodusTokenMigrator/OlympusTokenMigrator.sol\":4266:4270  this */\n      address\n        /* \"ExodusTokenMigrator/OlympusTokenMigrator.sol\":4273:4281  wsEXOBal */\n      dup5\n        /* \"ExodusTokenMigrator/OlympusTokenMigrator.sol\":4220:4245  oldwsEXO.safeTransferFrom */\n      tag_118\n        /* \"ExodusTokenMigrator/OlympusTokenMigrator.sol\":4220:4282  oldwsEXO.safeTransferFrom(msg.sender, address(this), wsEXOBal) */\n      jump\t// in\n    tag_379:\n        /* \"ExodusTokenMigrator/OlympusTokenMigrator.sol\":4303:4318  uint256 wAmount */\n      0x00\n        /* \"ExodusTokenMigrator/OlympusTokenMigrator.sol\":4321:4375  wsEXOBal.add(oldwsEXO.sOHMTowOHM(exoBal.add(sEXOBal))) */\n      tag_380\n      sub(shl(0xa0, 0x01), 0x01)\n        /* \"ExodusTokenMigrator/OlympusTokenMigrator.sol\":4334:4342  oldwsEXO */\n      immutable(\"0x03065c56175bab9d6c02682cec557b5c933cd8364ccf2dd44ab76e0c260931e7\")\n        /* \"ExodusTokenMigrator/OlympusTokenMigrator.sol\":4334:4353  oldwsEXO.sOHMTowOHM */\n      and\n      0x73f79c04\n        /* \"ExodusTokenMigrator/OlympusTokenMigrator.sol\":4354:4373  exoBal.add(sEXOBal) */\n      tag_381\n        /* \"ExodusTokenMigrator/OlympusTokenMigrator.sol\":4354:4360  exoBal */\n      dup8\n        /* \"ExodusTokenMigrator/OlympusTokenMigrator.sol\":4365:4372  sEXOBal */\n      dup8\n        /* \"ExodusTokenMigrator/OlympusTokenMigrator.sol\":4354:4364  exoBal.add */\n      tag_232\n        /* \"ExodusTokenMigrator/OlympusTokenMigrator.sol\":4354:4373  exoBal.add(sEXOBal) */\n      jump\t// in\n    tag_381:\n        /* \"ExodusTokenMigrator/OlympusTokenMigrator.sol\":4334:4374  oldwsEXO.sOHMTowOHM(exoBal.add(sEXOBal)) */\n      mload(0x40)\n      dup3\n      0xffffffff\n      and\n      0xe0\n      shl\n      dup2\n      mstore\n      0x04\n      add\n      dup1\n      dup3\n      dup2\n      mstore\n      0x20\n      add\n      swap2\n      pop\n      pop\n      0x20\n      mload(0x40)\n      dup1\n      dup4\n      sub\n      dup2\n      dup7\n      dup1\n      extcodesize\n      iszero\n      dup1\n      iszero\n      tag_382\n      jumpi\n      0x00\n      dup1\n      revert\n    tag_382:\n      pop\n      gas\n      staticcall\n      iszero\n      dup1\n      iszero\n      tag_384\n      jumpi\n      returndatasize\n      0x00\n      dup1\n      returndatacopy\n      revert(0x00, returndatasize)\n    tag_384:\n      pop\n      pop\n      pop\n      pop\n      mload(0x40)\n      returndatasize\n      0x20\n      dup2\n      lt\n      iszero\n      tag_385\n      jumpi\n      0x00\n      dup1\n      revert\n    tag_385:\n      pop\n      mload\n        /* \"ExodusTokenMigrator/OlympusTokenMigrator.sol\":4321:4329  wsEXOBal */\n      dup4\n      swap1\n        /* \"ExodusTokenMigrator/OlympusTokenMigrator.sol\":4321:4333  wsEXOBal.add */\n      tag_232\n        /* \"ExodusTokenMigrator/OlympusTokenMigrator.sol\":4321:4375  wsEXOBal.add(oldwsEXO.sOHMTowOHM(exoBal.add(sEXOBal))) */\n      jump\t// in\n    tag_380:\n        /* \"ExodusTokenMigrator/OlympusTokenMigrator.sol\":4389:4400  exoMigrated */\n      sload(0x05)\n        /* \"ExodusTokenMigrator/OlympusTokenMigrator.sol\":4303:4375  uint256 wAmount = wsEXOBal.add(oldwsEXO.sOHMTowOHM(exoBal.add(sEXOBal))) */\n      swap1\n      swap2\n      pop\n      shl(0xa0, 0x01)\n        /* \"ExodusTokenMigrator/OlympusTokenMigrator.sol\":4389:4400  exoMigrated */\n      swap1\n      div\n      0xff\n      and\n        /* \"ExodusTokenMigrator/OlympusTokenMigrator.sol\":4385:4579  if (exoMigrated) {... */\n      iszero\n      tag_386\n      jumpi\n        /* \"ExodusTokenMigrator/OlympusTokenMigrator.sol\":4437:4443  oldEXO */\n      immutable(\"0x7751dd710c07ab49cc2c1853892b3f71f3ced69475463e7c975b4ac84ae5fa90\")\n      sub(shl(0xa0, 0x01), 0x01)\n        /* \"ExodusTokenMigrator/OlympusTokenMigrator.sol\":4437:4455  oldEXO.totalSupply */\n      and\n      0x18160ddd\n        /* \"ExodusTokenMigrator/OlympusTokenMigrator.sol\":4437:4457  oldEXO.totalSupply() */\n      mload(0x40)\n      dup2\n      0xffffffff\n      and\n      0xe0\n      shl\n      dup2\n      mstore\n      0x04\n      add\n      0x20\n      mload(0x40)\n      dup1\n      dup4\n      sub\n      dup2\n      dup7\n      dup1\n      extcodesize\n      iszero\n      dup1\n      iszero\n      tag_387\n      jumpi\n      0x00\n      dup1\n      revert\n    tag_387:\n      pop\n      gas\n      staticcall\n      iszero\n      dup1\n      iszero\n      tag_389\n      jumpi\n      returndatasize\n      0x00\n      dup1\n      returndatacopy\n      revert(0x00, returndatasize)\n    tag_389:\n      pop\n      pop\n      pop\n      pop\n      mload(0x40)\n      returndatasize\n      0x20\n      dup2\n      lt\n      iszero\n      tag_390\n      jumpi\n      0x00\n      dup1\n      revert\n    tag_390:\n      pop\n      mload\n        /* \"ExodusTokenMigrator/OlympusTokenMigrator.sol\":4424:4433  oldSupply */\n      sload(0x07)\n        /* \"ExodusTokenMigrator/OlympusTokenMigrator.sol\":4424:4457  oldSupply >= oldEXO.totalSupply() */\n      lt\n      iszero\n        /* \"ExodusTokenMigrator/OlympusTokenMigrator.sol\":4416:4474  require(oldSupply >= oldEXO.totalSupply(), \"OHMv1 minted\") */\n      tag_391\n      jumpi\n      0x40\n      dup1\n      mload\n      shl(0xe5, 0x461bcd)\n      dup2\n      mstore\n      0x20\n      0x04\n      dup3\n      add\n      mstore\n      0x0c\n      0x24\n      dup3\n      add\n      mstore\n      shl(0xa2, 0x13d2135d8c481b5a5b9d1959)\n      0x44\n      dup3\n      add\n      mstore\n      swap1\n      mload\n      swap1\n      dup2\n      swap1\n      sub\n      0x64\n      add\n      swap1\n      revert\n    tag_391:\n        /* \"ExodusTokenMigrator/OlympusTokenMigrator.sol\":4488:4507  _send(wAmount, _to) */\n      tag_392\n        /* \"ExodusTokenMigrator/OlympusTokenMigrator.sol\":4494:4501  wAmount */\n      dup2\n        /* \"ExodusTokenMigrator/OlympusTokenMigrator.sol\":4503:4506  _to */\n      dup7\n        /* \"ExodusTokenMigrator/OlympusTokenMigrator.sol\":4488:4493  _send */\n      tag_133\n        /* \"ExodusTokenMigrator/OlympusTokenMigrator.sol\":4488:4507  _send(wAmount, _to) */\n      jump\t// in\n    tag_392:\n        /* \"ExodusTokenMigrator/OlympusTokenMigrator.sol\":4385:4579  if (exoMigrated) {... */\n      jump(tag_172)\n    tag_386:\n        /* \"ExodusTokenMigrator/OlympusTokenMigrator.sol\":4538:4542  gEXO */\n      sload(0x02)\n        /* \"ExodusTokenMigrator/OlympusTokenMigrator.sol\":4538:4568  gEXO.mint(msg.sender, wAmount) */\n      0x40\n      dup1\n      mload\n      shl(0xe0, 0x40c10f19)\n      dup2\n      mstore\n        /* \"ExodusTokenMigrator/OlympusTokenMigrator.sol\":4548:4558  msg.sender */\n      caller\n        /* \"ExodusTokenMigrator/OlympusTokenMigrator.sol\":4538:4568  gEXO.mint(msg.sender, wAmount) */\n      0x04\n      dup3\n      add\n      mstore\n      0x24\n      dup2\n      add\n      dup5\n      swap1\n      mstore\n      swap1\n      mload\n      sub(shl(0xa0, 0x01), 0x01)\n        /* \"ExodusTokenMigrator/OlympusTokenMigrator.sol\":4538:4542  gEXO */\n      swap1\n      swap3\n      and\n      swap2\n        /* \"ExodusTokenMigrator/OlympusTokenMigrator.sol\":4538:4547  gEXO.mint */\n      0x40c10f19\n      swap2\n        /* \"ExodusTokenMigrator/OlympusTokenMigrator.sol\":4538:4568  gEXO.mint(msg.sender, wAmount) */\n      0x44\n      dup1\n      dup3\n      add\n      swap3\n        /* \"ExodusTokenMigrator/OlympusTokenMigrator.sol\":4538:4542  gEXO */\n      0x00\n      swap3\n        /* \"ExodusTokenMigrator/OlympusTokenMigrator.sol\":4538:4568  gEXO.mint(msg.sender, wAmount) */\n      swap1\n      swap2\n      swap1\n      dup3\n      swap1\n      sub\n      add\n      dup2\n        /* \"ExodusTokenMigrator/OlympusTokenMigrator.sol\":4538:4542  gEXO */\n      dup4\n      dup8\n        /* \"ExodusTokenMigrator/OlympusTokenMigrator.sol\":4538:4568  gEXO.mint(msg.sender, wAmount) */\n      dup1\n      extcodesize\n      iszero\n      dup1\n      iszero\n      tag_394\n      jumpi\n      0x00\n      dup1\n      revert\n    tag_394:\n      pop\n      gas\n      call\n      iszero\n      dup1\n      iszero\n      tag_396\n      jumpi\n      returndatasize\n      0x00\n      dup1\n      returndatacopy\n      revert(0x00, returndatasize)\n    tag_396:\n      pop\n      pop\n      pop\n      pop\n        /* \"ExodusTokenMigrator/OlympusTokenMigrator.sol\":3645:4585  function migrateAll(TYPE _to) external {... */\n      pop\n      pop\n      pop\n      pop\n      pop\n      jump\t// out\n        /* \"ExodusTokenMigrator/OlympusTokenMigrator.sol\":1261:1287  IStaking public newStaking */\n    tag_101:\n      and(sub(shl(0xa0, 0x01), 0x01), sload(0x04))\n      dup2\n      jump\t// out\n        /* \"ExodusTokenMigrator/OlympusTokenMigrator.sol\":7468:7571  function migrateToken(address token) external onlyGovernor {... */\n    tag_104:\n        /* \"ExodusTokenMigrator/OlympusAccessControlled.sol\":672:681  authority */\n      0x01\n      0x00\n      swap1\n      sload\n      swap1\n      0x0100\n      exp\n      swap1\n      div\n      sub(shl(0xa0, 0x01), 0x01)\n      and\n      sub(shl(0xa0, 0x01), 0x01)\n        /* \"ExodusTokenMigrator/OlympusAccessControlled.sol\":672:690  authority.governor */\n      and\n      0x0c340a24\n        /* \"ExodusTokenMigrator/OlympusAccessControlled.sol\":672:692  authority.governor() */\n      mload(0x40)\n      dup2\n      0xffffffff\n      and\n      0xe0\n      shl\n      dup2\n      mstore\n      0x04\n      add\n      0x20\n      mload(0x40)\n      dup1\n      dup4\n      sub\n      dup2\n      dup7\n      dup1\n      extcodesize\n      iszero\n      dup1\n      iszero\n      tag_398\n      jumpi\n      0x00\n      dup1\n      revert\n    tag_398:\n      pop\n      gas\n      staticcall\n      iszero\n      dup1\n      iszero\n      tag_400\n      jumpi\n      returndatasize\n      0x00\n      dup1\n      returndatacopy\n      revert(0x00, returndatasize)\n    tag_400:\n      pop\n      pop\n      pop\n      pop\n      mload(0x40)\n      returndatasize\n      0x20\n      dup2\n      lt\n      iszero\n      tag_401\n      jumpi\n      0x00\n      dup1\n      revert\n    tag_401:\n      pop\n      mload\n        /* \"ExodusTokenMigrator/OlympusAccessControlled.sol\":694:706  UNAUTHORIZED */\n      0x00\n      swap1\n      sub(shl(0xa0, 0x01), 0x01)\n        /* \"ExodusTokenMigrator/OlympusAccessControlled.sol\":658:692  msg.sender == authority.governor() */\n      and\n        /* \"ExodusTokenMigrator/OlympusAccessControlled.sol\":658:668  msg.sender */\n      caller\n        /* \"ExodusTokenMigrator/OlympusAccessControlled.sol\":658:692  msg.sender == authority.governor() */\n      eq\n        /* \"ExodusTokenMigrator/OlympusAccessControlled.sol\":650:707  require(msg.sender == authority.governor(), UNAUTHORIZED) */\n      tag_402\n      jumpi\n      mload(0x40)\n      shl(0xe5, 0x461bcd)\n      dup2\n      mstore\n      0x20\n      0x04\n      dup3\n      add\n      swap1\n      dup2\n      mstore\n      dup3\n      sload\n      0x02\n      not(0x00)\n      0x0100\n      0x01\n      dup5\n      and\n      iszero\n      mul\n      add\n      swap1\n      swap2\n      and\n      div\n      0x24\n      dup4\n      add\n      dup2\n      swap1\n      mstore\n      swap1\n      swap2\n      dup3\n      swap2\n      0x44\n      swap1\n      swap2\n      add\n      swap1\n      dup5\n      swap1\n      dup1\n      iszero\n      tag_144\n      jumpi\n      dup1\n      0x1f\n      lt\n      tag_145\n      jumpi\n      0x0100\n      dup1\n      dup4\n      sload\n      div\n      mul\n      dup4\n      mstore\n      swap2\n      0x20\n      add\n      swap2\n      jump(tag_144)\n    tag_402:\n      pop\n        /* \"ExodusTokenMigrator/OlympusTokenMigrator.sol\":7537:7564  _migrateToken(token, false) */\n      tag_407\n        /* \"ExodusTokenMigrator/OlympusTokenMigrator.sol\":7551:7556  token */\n      dup2\n        /* \"ExodusTokenMigrator/OlympusTokenMigrator.sol\":7558:7563  false */\n      0x00\n        /* \"ExodusTokenMigrator/OlympusTokenMigrator.sol\":7537:7550  _migrateToken */\n      tag_255\n        /* \"ExodusTokenMigrator/OlympusTokenMigrator.sol\":7537:7564  _migrateToken(token, false) */\n      jump\t// in\n    tag_407:\n        /* \"ExodusTokenMigrator/OlympusTokenMigrator.sol\":7468:7571  function migrateToken(address token) external onlyGovernor {... */\n      pop\n      jump\t// out\n        /* \"ExodusTokenMigrator/OlympusTokenMigrator.sol\":1349:1369  bool public shutdown */\n    tag_106:\n      sload(0x05)\n      shl(0xa8, 0x01)\n      swap1\n      div\n      0xff\n      and\n      dup2\n      jump\t// out\n        /* \"ExodusTokenMigrator/SafeERC20.sol\":378:774  function safeTransferFrom(... */\n    tag_118:\n        /* \"ExodusTokenMigrator/SafeERC20.sol\":586:656  abi.encodeWithSelector(IERC20.transferFrom.selector, from, to, amount) */\n      0x40\n      dup1\n      mload\n      sub(shl(0xa0, 0x01), 0x01)\n      dup6\n      dup2\n      and\n      0x24\n      dup4\n      add\n      mstore\n      dup5\n      dup2\n      and\n      0x44\n      dup4\n      add\n      mstore\n      0x64\n      dup1\n      dup4\n      add\n      dup6\n      swap1\n      mstore\n      dup4\n      mload\n      dup1\n      dup5\n      sub\n      swap1\n      swap2\n      add\n      dup2\n      mstore\n      0x84\n      swap1\n      swap3\n      add\n      dup4\n      mstore\n      0x20\n      dup3\n      add\n      dup1\n      mload\n      sub(shl(0xe0, 0x01), 0x01)\n      and\n        /* \"ExodusTokenMigrator/SafeERC20.sol\":609:637  IERC20.transferFrom.selector */\n      0x23b872dd00000000000000000000000000000000000000000000000000000000\n        /* \"ExodusTokenMigrator/SafeERC20.sol\":586:656  abi.encodeWithSelector(IERC20.transferFrom.selector, from, to, amount) */\n      or\n      dup2\n      mstore\n        /* \"ExodusTokenMigrator/SafeERC20.sol\":553:666  address(token).call(... */\n      swap3\n      mload\n      dup3\n      mload\n        /* \"ExodusTokenMigrator/SafeERC20.sol\":518:530  bool success */\n      0x00\n      swap5\n        /* \"ExodusTokenMigrator/SafeERC20.sol\":532:549  bytes memory data */\n      0x60\n      swap5\n        /* \"ExodusTokenMigrator/SafeERC20.sol\":553:572  address(token).call */\n      swap4\n      dup11\n      and\n      swap4\n        /* \"ExodusTokenMigrator/SafeERC20.sol\":586:656  abi.encodeWithSelector(IERC20.transferFrom.selector, from, to, amount) */\n      swap3\n        /* \"ExodusTokenMigrator/SafeERC20.sol\":553:666  address(token).call(... */\n      swap2\n      dup3\n      swap2\n        /* \"ExodusTokenMigrator/SafeERC20.sol\":586:656  abi.encodeWithSelector(IERC20.transferFrom.selector, from, to, amount) */\n      swap1\n        /* \"ExodusTokenMigrator/SafeERC20.sol\":553:666  address(token).call(... */\n      dup1\n      dup4\n        /* \"ExodusTokenMigrator/SafeERC20.sol\":586:656  abi.encodeWithSelector(IERC20.transferFrom.selector, from, to, amount) */\n      dup4\n        /* \"ExodusTokenMigrator/SafeERC20.sol\":553:666  address(token).call(... */\n    tag_409:\n      0x20\n      dup4\n      lt\n      tag_411\n      jumpi\n      dup1\n      mload\n      dup3\n      mstore\n      not(0x1f)\n      swap1\n      swap3\n      add\n      swap2\n      0x20\n      swap2\n      dup3\n      add\n      swap2\n      add\n      jump(tag_409)\n    tag_411:\n      0x01\n      dup4\n      0x20\n      sub\n      0x0100\n      exp\n      sub\n      dup1\n      not\n      dup3\n      mload\n      and\n      dup2\n      dup5\n      mload\n      and\n      dup1\n      dup3\n      or\n      dup6\n      mstore\n      pop\n      pop\n      pop\n      pop\n      pop\n      pop\n      swap1\n      pop\n      add\n      swap2\n      pop\n      pop\n      0x00\n      mload(0x40)\n      dup1\n      dup4\n      sub\n      dup2\n      0x00\n      dup7\n      gas\n      call\n      swap2\n      pop\n      pop\n      returndatasize\n      dup1\n      0x00\n      dup2\n      eq\n      tag_414\n      jumpi\n      mload(0x40)\n      swap2\n      pop\n      and(add(returndatasize, 0x3f), not(0x1f))\n      dup3\n      add\n      0x40\n      mstore\n      returndatasize\n      dup3\n      mstore\n      returndatasize\n      0x00\n      0x20\n      dup5\n      add\n      returndatacopy\n      jump(tag_413)\n    tag_414:\n      0x60\n      swap2\n      pop\n    tag_413:\n      pop\n        /* \"ExodusTokenMigrator/SafeERC20.sol\":517:666  (bool success, bytes memory data) = address(token).call(... */\n      swap2\n      pop\n      swap2\n      pop\n        /* \"ExodusTokenMigrator/SafeERC20.sol\":685:692  success */\n      dup2\n        /* \"ExodusTokenMigrator/SafeERC20.sol\":685:742  success && (data.length == 0 || abi.decode(data, (bool))) */\n      dup1\n      iszero\n      tag_416\n      jumpi\n      pop\n        /* \"ExodusTokenMigrator/SafeERC20.sol\":697:708  data.length */\n      dup1\n      mload\n        /* \"ExodusTokenMigrator/SafeERC20.sol\":697:713  data.length == 0 */\n      iszero\n      dup1\n        /* \"ExodusTokenMigrator/SafeERC20.sol\":697:741  data.length == 0 || abi.decode(data, (bool)) */\n      tag_416\n      jumpi\n      pop\n        /* \"ExodusTokenMigrator/SafeERC20.sol\":728:732  data */\n      dup1\n        /* \"ExodusTokenMigrator/SafeERC20.sol\":717:741  abi.decode(data, (bool)) */\n      dup1\n      0x20\n      add\n      swap1\n      mload\n      0x20\n      dup2\n      lt\n      iszero\n      tag_417\n      jumpi\n      0x00\n      dup1\n      revert\n    tag_417:\n      pop\n      mload\n        /* \"ExodusTokenMigrator/SafeERC20.sol\":697:741  data.length == 0 || abi.decode(data, (bool)) */\n    tag_416:\n        /* \"ExodusTokenMigrator/SafeERC20.sol\":677:767  require(success && (data.length == 0 || abi.decode(data, (bool))), \"TRANSFER_FROM_FAILED\") */\n      tag_418\n      jumpi\n      0x40\n      dup1\n      mload\n      shl(0xe5, 0x461bcd)\n      dup2\n      mstore\n      0x20\n      0x04\n      dup3\n      add\n      mstore\n      0x14\n      0x24\n      dup3\n      add\n      mstore\n      0x5452414e534645525f46524f4d5f4641494c4544000000000000000000000000\n      0x44\n      dup3\n      add\n      mstore\n      swap1\n      mload\n      swap1\n      dup2\n      swap1\n      sub\n      0x64\n      add\n      swap1\n      revert\n    tag_418:\n        /* \"ExodusTokenMigrator/SafeERC20.sol\":378:774  function safeTransferFrom(... */\n      pop\n      pop\n      pop\n      pop\n      pop\n      pop\n      jump\t// out\n        /* \"ExodusTokenMigrator/OlympusTokenMigrator.sol\":4619:4977  function _send(uint256 wAmount, TYPE _to) internal {... */\n    tag_133:\n        /* \"ExodusTokenMigrator/OlympusTokenMigrator.sol\":4691:4703  TYPE.WRAPPED */\n      0x02\n        /* \"ExodusTokenMigrator/OlympusTokenMigrator.sol\":4684:4687  _to */\n      dup2\n        /* \"ExodusTokenMigrator/OlympusTokenMigrator.sol\":4684:4703  _to == TYPE.WRAPPED */\n      0x02\n      dup2\n      gt\n      iszero\n      tag_421\n      jumpi\n      invalid\n    tag_421:\n      eq\n        /* \"ExodusTokenMigrator/OlympusTokenMigrator.sol\":4680:4971  if (_to == TYPE.WRAPPED) {... */\n      iszero\n      tag_422\n      jumpi\n        /* \"ExodusTokenMigrator/OlympusTokenMigrator.sol\":4719:4723  gEXO */\n      sload(0x02)\n        /* \"ExodusTokenMigrator/OlympusTokenMigrator.sol\":4719:4757  gEXO.safeTransfer(msg.sender, wAmount) */\n      tag_423\n      swap1\n      sub(shl(0xa0, 0x01), 0x01)\n        /* \"ExodusTokenMigrator/OlympusTokenMigrator.sol\":4719:4723  gEXO */\n      and\n        /* \"ExodusTokenMigrator/OlympusTokenMigrator.sol\":4737:4747  msg.sender */\n      caller\n        /* \"ExodusTokenMigrator/OlympusTokenMigrator.sol\":4749:4756  wAmount */\n      dup5\n        /* \"ExodusTokenMigrator/OlympusTokenMigrator.sol\":4719:4736  gEXO.safeTransfer */\n      tag_173\n        /* \"ExodusTokenMigrator/OlympusTokenMigrator.sol\":4719:4757  gEXO.safeTransfer(msg.sender, wAmount) */\n      jump\t// in\n    tag_423:\n        /* \"ExodusTokenMigrator/OlympusTokenMigrator.sol\":4680:4971  if (_to == TYPE.WRAPPED) {... */\n      jump(tag_435)\n    tag_422:\n        /* \"ExodusTokenMigrator/OlympusTokenMigrator.sol\":4785:4796  TYPE.STAKED */\n      0x01\n        /* \"ExodusTokenMigrator/OlympusTokenMigrator.sol\":4778:4781  _to */\n      dup2\n        /* \"ExodusTokenMigrator/OlympusTokenMigrator.sol\":4778:4796  _to == TYPE.STAKED */\n      0x02\n      dup2\n      gt\n      iszero\n      tag_426\n      jumpi\n      invalid\n    tag_426:\n      eq\n        /* \"ExodusTokenMigrator/OlympusTokenMigrator.sol\":4774:4971  if (_to == TYPE.STAKED) {... */\n      iszero\n      tag_427\n      jumpi\n        /* \"ExodusTokenMigrator/OlympusTokenMigrator.sol\":4812:4822  newStaking */\n      0x04\n      dup1\n      sload\n        /* \"ExodusTokenMigrator/OlympusTokenMigrator.sol\":4812:4850  newStaking.unwrap(msg.sender, wAmount) */\n      0x40\n      dup1\n      mload\n      0x39f4769300000000000000000000000000000000000000000000000000000000\n      dup2\n      mstore\n        /* \"ExodusTokenMigrator/OlympusTokenMigrator.sol\":4830:4840  msg.sender */\n      caller\n        /* \"ExodusTokenMigrator/OlympusTokenMigrator.sol\":4812:4850  newStaking.unwrap(msg.sender, wAmount) */\n      swap4\n      dup2\n      add\n      swap4\n      swap1\n      swap4\n      mstore\n      0x24\n      dup4\n      add\n      dup6\n      swap1\n      mstore\n      mload\n      sub(shl(0xa0, 0x01), 0x01)\n        /* \"ExodusTokenMigrator/OlympusTokenMigrator.sol\":4812:4822  newStaking */\n      swap1\n      swap2\n      and\n      swap2\n        /* \"ExodusTokenMigrator/OlympusTokenMigrator.sol\":4812:4829  newStaking.unwrap */\n      0x39f47693\n      swap2\n        /* \"ExodusTokenMigrator/OlympusTokenMigrator.sol\":4812:4850  newStaking.unwrap(msg.sender, wAmount) */\n      0x44\n      dup1\n      dup4\n      add\n      swap3\n      0x20\n      swap3\n      swap2\n      swap1\n      dup3\n      swap1\n      sub\n      add\n      dup2\n        /* \"ExodusTokenMigrator/OlympusTokenMigrator.sol\":4812:4822  newStaking */\n      0x00\n      dup8\n        /* \"ExodusTokenMigrator/OlympusTokenMigrator.sol\":4812:4850  newStaking.unwrap(msg.sender, wAmount) */\n      dup1\n      extcodesize\n      iszero\n      dup1\n      iszero\n      tag_428\n      jumpi\n      0x00\n      dup1\n      revert\n    tag_428:\n      pop\n      gas\n      call\n      iszero\n      dup1\n      iszero\n      tag_430\n      jumpi\n      returndatasize\n      0x00\n      dup1\n      returndatacopy\n      revert(0x00, returndatasize)\n    tag_430:\n      pop\n      pop\n      pop\n      pop\n      mload(0x40)\n      returndatasize\n      0x20\n      dup2\n      lt\n      iszero\n      tag_431\n      jumpi\n      0x00\n      dup1\n      revert\n    tag_431:\n      pop\n        /* \"ExodusTokenMigrator/OlympusTokenMigrator.sol\":4774:4971  if (_to == TYPE.STAKED) {... */\n      tag_435\n      swap1\n      pop\n      jump\n    tag_427:\n        /* \"ExodusTokenMigrator/OlympusTokenMigrator.sol\":4878:4891  TYPE.UNSTAKED */\n      0x00\n        /* \"ExodusTokenMigrator/OlympusTokenMigrator.sol\":4871:4874  _to */\n      dup2\n        /* \"ExodusTokenMigrator/OlympusTokenMigrator.sol\":4871:4891  _to == TYPE.UNSTAKED */\n      0x02\n      dup2\n      gt\n      iszero\n      tag_434\n      jumpi\n      invalid\n    tag_434:\n      eq\n        /* \"ExodusTokenMigrator/OlympusTokenMigrator.sol\":4867:4971  if (_to == TYPE.UNSTAKED) {... */\n      iszero\n      tag_435\n      jumpi\n        /* \"ExodusTokenMigrator/OlympusTokenMigrator.sol\":4907:4917  newStaking */\n      0x04\n      dup1\n      sload\n        /* \"ExodusTokenMigrator/OlympusTokenMigrator.sol\":4907:4960  newStaking.unstake(msg.sender, wAmount, false, false) */\n      0x40\n      dup1\n      mload\n      0x990966d500000000000000000000000000000000000000000000000000000000\n      dup2\n      mstore\n        /* \"ExodusTokenMigrator/OlympusTokenMigrator.sol\":4926:4936  msg.sender */\n      caller\n        /* \"ExodusTokenMigrator/OlympusTokenMigrator.sol\":4907:4960  newStaking.unstake(msg.sender, wAmount, false, false) */\n      swap4\n      dup2\n      add\n      swap4\n      swap1\n      swap4\n      mstore\n      0x24\n      dup4\n      add\n      dup6\n      swap1\n      mstore\n        /* \"ExodusTokenMigrator/OlympusTokenMigrator.sol\":4907:4917  newStaking */\n      0x00\n        /* \"ExodusTokenMigrator/OlympusTokenMigrator.sol\":4907:4960  newStaking.unstake(msg.sender, wAmount, false, false) */\n      0x44\n      dup5\n      add\n      dup2\n      swap1\n      mstore\n      0x64\n      dup5\n      add\n      dup2\n      swap1\n      mstore\n      swap1\n      mload\n      sub(shl(0xa0, 0x01), 0x01)\n        /* \"ExodusTokenMigrator/OlympusTokenMigrator.sol\":4907:4917  newStaking */\n      swap1\n      swap3\n      and\n      swap3\n        /* \"ExodusTokenMigrator/OlympusTokenMigrator.sol\":4907:4925  newStaking.unstake */\n      0x990966d5\n      swap3\n        /* \"ExodusTokenMigrator/OlympusTokenMigrator.sol\":4907:4960  newStaking.unstake(msg.sender, wAmount, false, false) */\n      0x84\n      dup1\n      dup4\n      add\n      swap4\n      0x20\n      swap4\n      dup4\n      swap1\n      sub\n      swap1\n      swap2\n      add\n      swap1\n      dup3\n      swap1\n        /* \"ExodusTokenMigrator/OlympusTokenMigrator.sol\":4907:4917  newStaking */\n      dup8\n        /* \"ExodusTokenMigrator/OlympusTokenMigrator.sol\":4907:4960  newStaking.unstake(msg.sender, wAmount, false, false) */\n      dup1\n      extcodesize\n      iszero\n      dup1\n      iszero\n      tag_436\n      jumpi\n      0x00\n      dup1\n      revert\n    tag_436:\n      pop\n      gas\n      call\n      iszero\n      dup1\n      iszero\n      tag_438\n      jumpi\n      returndatasize\n      0x00\n      dup1\n      returndatacopy\n      revert(0x00, returndatasize)\n    tag_438:\n      pop\n      pop\n      pop\n      pop\n      mload(0x40)\n      returndatasize\n      0x20\n      dup2\n      lt\n      iszero\n      tag_134\n      jumpi\n      0x00\n      dup1\n      revert\n        /* \"ExodusTokenMigrator/OlympusTokenMigrator.sol\":4867:4971  if (_to == TYPE.UNSTAKED) {... */\n    tag_435:\n        /* \"ExodusTokenMigrator/OlympusTokenMigrator.sol\":4619:4977  function _send(uint256 wAmount, TYPE _to) internal {... */\n      pop\n      pop\n      jump\t// out\n        /* \"ExodusTokenMigrator/SafeERC20.sol\":780:1135  function safeTransfer(... */\n    tag_173:\n        /* \"ExodusTokenMigrator/SafeERC20.sol\":962:1022  abi.encodeWithSelector(IERC20.transfer.selector, to, amount) */\n      0x40\n      dup1\n      mload\n      sub(shl(0xa0, 0x01), 0x01)\n      dup5\n      dup2\n      and\n      0x24\n      dup4\n      add\n      mstore\n      0x44\n      dup1\n      dup4\n      add\n      dup6\n      swap1\n      mstore\n      dup4\n      mload\n      dup1\n      dup5\n      sub\n      swap1\n      swap2\n      add\n      dup2\n      mstore\n      0x64\n      swap1\n      swap3\n      add\n      dup4\n      mstore\n      0x20\n      dup3\n      add\n      dup1\n      mload\n      sub(shl(0xe0, 0x01), 0x01)\n      and\n        /* \"ExodusTokenMigrator/SafeERC20.sol\":985:1009  IERC20.transfer.selector */\n      0xa9059cbb00000000000000000000000000000000000000000000000000000000\n        /* \"ExodusTokenMigrator/SafeERC20.sol\":962:1022  abi.encodeWithSelector(IERC20.transfer.selector, to, amount) */\n      or\n      dup2\n      mstore\n        /* \"ExodusTokenMigrator/SafeERC20.sol\":929:1032  address(token).call(... */\n      swap3\n      mload\n      dup3\n      mload\n        /* \"ExodusTokenMigrator/SafeERC20.sol\":894:906  bool success */\n      0x00\n      swap5\n        /* \"ExodusTokenMigrator/SafeERC20.sol\":908:925  bytes memory data */\n      0x60\n      swap5\n        /* \"ExodusTokenMigrator/SafeERC20.sol\":929:948  address(token).call */\n      swap4\n      dup10\n      and\n      swap4\n        /* \"ExodusTokenMigrator/SafeERC20.sol\":962:1022  abi.encodeWithSelector(IERC20.transfer.selector, to, amount) */\n      swap3\n        /* \"ExodusTokenMigrator/SafeERC20.sol\":929:1032  address(token).call(... */\n      swap2\n      dup3\n      swap2\n        /* \"ExodusTokenMigrator/SafeERC20.sol\":962:1022  abi.encodeWithSelector(IERC20.transfer.selector, to, amount) */\n      swap1\n        /* \"ExodusTokenMigrator/SafeERC20.sol\":929:1032  address(token).call(... */\n      dup1\n      dup4\n        /* \"ExodusTokenMigrator/SafeERC20.sol\":962:1022  abi.encodeWithSelector(IERC20.transfer.selector, to, amount) */\n      dup4\n        /* \"ExodusTokenMigrator/SafeERC20.sol\":929:1032  address(token).call(... */\n    tag_441:\n      0x20\n      dup4\n      lt\n      tag_443\n      jumpi\n      dup1\n      mload\n      dup3\n      mstore\n      not(0x1f)\n      swap1\n      swap3\n      add\n      swap2\n      0x20\n      swap2\n      dup3\n      add\n      swap2\n      add\n      jump(tag_441)\n    tag_443:\n      0x01\n      dup4\n      0x20\n      sub\n      0x0100\n      exp\n      sub\n      dup1\n      not\n      dup3\n      mload\n      and\n      dup2\n      dup5\n      mload\n      and\n      dup1\n      dup3\n      or\n      dup6\n      mstore\n      pop\n      pop\n      pop\n      pop\n      pop\n      pop\n      swap1\n      pop\n      add\n      swap2\n      pop\n      pop\n      0x00\n      mload(0x40)\n      dup1\n      dup4\n      sub\n      dup2\n      0x00\n      dup7\n      gas\n      call\n      swap2\n      pop\n      pop\n      returndatasize\n      dup1\n      0x00\n      dup2\n      eq\n      tag_446\n      jumpi\n      mload(0x40)\n      swap2\n      pop\n      and(add(returndatasize, 0x3f), not(0x1f))\n      dup3\n      add\n      0x40\n      mstore\n      returndatasize\n      dup3\n      mstore\n      returndatasize\n      0x00\n      0x20\n      dup5\n      add\n      returndatacopy\n      jump(tag_445)\n    tag_446:\n      0x60\n      swap2\n      pop\n    tag_445:\n      pop\n        /* \"ExodusTokenMigrator/SafeERC20.sol\":893:1032  (bool success, bytes memory data) = address(token).call(... */\n      swap2\n      pop\n      swap2\n      pop\n        /* \"ExodusTokenMigrator/SafeERC20.sol\":1051:1058  success */\n      dup2\n        /* \"ExodusTokenMigrator/SafeERC20.sol\":1051:1108  success && (data.length == 0 || abi.decode(data, (bool))) */\n      dup1\n      iszero\n      tag_448\n      jumpi\n      pop\n        /* \"ExodusTokenMigrator/SafeERC20.sol\":1063:1074  data.length */\n      dup1\n      mload\n        /* \"ExodusTokenMigrator/SafeERC20.sol\":1063:1079  data.length == 0 */\n      iszero\n      dup1\n        /* \"ExodusTokenMigrator/SafeERC20.sol\":1063:1107  data.length == 0 || abi.decode(data, (bool)) */\n      tag_448\n      jumpi\n      pop\n        /* \"ExodusTokenMigrator/SafeERC20.sol\":1094:1098  data */\n      dup1\n        /* \"ExodusTokenMigrator/SafeERC20.sol\":1083:1107  abi.decode(data, (bool)) */\n      dup1\n      0x20\n      add\n      swap1\n      mload\n      0x20\n      dup2\n      lt\n      iszero\n      tag_449\n      jumpi\n      0x00\n      dup1\n      revert\n    tag_449:\n      pop\n      mload\n        /* \"ExodusTokenMigrator/SafeERC20.sol\":1063:1107  data.length == 0 || abi.decode(data, (bool)) */\n    tag_448:\n        /* \"ExodusTokenMigrator/SafeERC20.sol\":1043:1128  require(success && (data.length == 0 || abi.decode(data, (bool))), \"TRANSFER_FAILED\") */\n      tag_172\n      jumpi\n      0x40\n      dup1\n      mload\n      shl(0xe5, 0x461bcd)\n      dup2\n      mstore\n      0x20\n      0x04\n      dup3\n      add\n      mstore\n      0x0f\n      0x24\n      dup3\n      add\n      mstore\n      0x5452414e534645525f4641494c45440000000000000000000000000000000000\n      0x44\n      dup3\n      add\n      mstore\n      swap1\n      mload\n      swap1\n      dup2\n      swap1\n      sub\n      0x64\n      add\n      swap1\n      revert\n        /* \"ExodusTokenMigrator/SafeMath.sol\":155:331  function add(uint256 a, uint256 b) internal pure returns (uint256) {... */\n    tag_232:\n        /* \"ExodusTokenMigrator/SafeMath.sol\":213:220  uint256 */\n      0x00\n        /* \"ExodusTokenMigrator/SafeMath.sol\":244:249  a + b */\n      dup3\n      dup3\n      add\n        /* \"ExodusTokenMigrator/SafeMath.sol\":267:273  c >= a */\n      dup4\n      dup2\n      lt\n      iszero\n        /* \"ExodusTokenMigrator/SafeMath.sol\":259:305  require(c >= a, \"SafeMath: addition overflow\") */\n      tag_452\n      jumpi\n      0x40\n      dup1\n      mload\n      shl(0xe5, 0x461bcd)\n      dup2\n      mstore\n      0x20\n      0x04\n      dup3\n      add\n      mstore\n      0x1b\n      0x24\n      dup3\n      add\n      mstore\n      0x536166654d6174683a206164646974696f6e206f766572666c6f770000000000\n      0x44\n      dup3\n      add\n      mstore\n      swap1\n      mload\n      swap1\n      dup2\n      swap1\n      sub\n      0x64\n      add\n      swap1\n      revert\n    tag_452:\n        /* \"ExodusTokenMigrator/SafeMath.sol\":323:324  c */\n      swap1\n      pop\n        /* \"ExodusTokenMigrator/SafeMath.sol\":155:331  function add(uint256 a, uint256 b) internal pure returns (uint256) {... */\n    tag_451:\n      swap3\n      swap2\n      pop\n      pop\n      jump\t// out\n        /* \"ExodusTokenMigrator/OlympusTokenMigrator.sol\":11562:12272  function _migrateToken(address token, bool deposit) internal {... */\n    tag_255:\n        /* \"ExodusTokenMigrator/OlympusTokenMigrator.sol\":11633:11648  uint256 balance */\n      0x00\n        /* \"ExodusTokenMigrator/OlympusTokenMigrator.sol\":11658:11663  token */\n      dup3\n      sub(shl(0xa0, 0x01), 0x01)\n        /* \"ExodusTokenMigrator/OlympusTokenMigrator.sol\":11651:11674  IERC20(token).balanceOf */\n      and\n      0x70a08231\n        /* \"ExodusTokenMigrator/OlympusTokenMigrator.sol\":11683:11694  oldTreasury */\n      immutable(\"0xa22b5bddbdcd05368321bd50fd5db7d428b6ca478a3c7389901149e4e0253710\")\n        /* \"ExodusTokenMigrator/OlympusTokenMigrator.sol\":11651:11696  IERC20(token).balanceOf(address(oldTreasury)) */\n      mload(0x40)\n      dup3\n      0xffffffff\n      and\n      0xe0\n      shl\n      dup2\n      mstore\n      0x04\n      add\n      dup1\n      dup3\n      sub(shl(0xa0, 0x01), 0x01)\n      and\n      dup2\n      mstore\n      0x20\n      add\n      swap2\n      pop\n      pop\n      0x20\n      mload(0x40)\n      dup1\n      dup4\n      sub\n      dup2\n      dup7\n      dup1\n      extcodesize\n      iszero\n      dup1\n      iszero\n      tag_454\n      jumpi\n      0x00\n      dup1\n      revert\n    tag_454:\n      pop\n      gas\n      staticcall\n      iszero\n      dup1\n      iszero\n      tag_456\n      jumpi\n      returndatasize\n      0x00\n      dup1\n      returndatacopy\n      revert(0x00, returndatasize)\n    tag_456:\n      pop\n      pop\n      pop\n      pop\n      mload(0x40)\n      returndatasize\n      0x20\n      dup2\n      lt\n      iszero\n      tag_457\n      jumpi\n      0x00\n      dup1\n      revert\n    tag_457:\n      pop\n      mload\n        /* \"ExodusTokenMigrator/OlympusTokenMigrator.sol\":11732:11760  oldTreasury.excessReserves() */\n      0x40\n      dup1\n      mload\n      0x0c3513a800000000000000000000000000000000000000000000000000000000\n      dup2\n      mstore\n      swap1\n      mload\n        /* \"ExodusTokenMigrator/OlympusTokenMigrator.sol\":11651:11696  IERC20(token).balanceOf(address(oldTreasury)) */\n      swap2\n      swap3\n      pop\n        /* \"ExodusTokenMigrator/OlympusTokenMigrator.sol\":11707:11729  uint256 excessReserves */\n      0x00\n      swap2\n      sub(shl(0xa0, 0x01), 0x01)\n        /* \"ExodusTokenMigrator/OlympusTokenMigrator.sol\":11732:11743  oldTreasury */\n      immutable(\"0xa22b5bddbdcd05368321bd50fd5db7d428b6ca478a3c7389901149e4e0253710\")\n        /* \"ExodusTokenMigrator/OlympusTokenMigrator.sol\":11732:11758  oldTreasury.excessReserves */\n      and\n      swap2\n      0x0c3513a8\n      swap2\n        /* \"ExodusTokenMigrator/OlympusTokenMigrator.sol\":11732:11760  oldTreasury.excessReserves() */\n      0x04\n      dup1\n      dup4\n      add\n      swap3\n        /* \"ExodusTokenMigrator/OlympusTokenMigrator.sol\":11651:11696  IERC20(token).balanceOf(address(oldTreasury)) */\n      0x20\n      swap3\n        /* \"ExodusTokenMigrator/OlympusTokenMigrator.sol\":11732:11760  oldTreasury.excessReserves() */\n      swap2\n      swap1\n      dup3\n      swap1\n      sub\n      add\n      dup2\n        /* \"ExodusTokenMigrator/OlympusTokenMigrator.sol\":11732:11758  oldTreasury.excessReserves */\n      dup7\n        /* \"ExodusTokenMigrator/OlympusTokenMigrator.sol\":11732:11760  oldTreasury.excessReserves() */\n      dup1\n      extcodesize\n      iszero\n      dup1\n      iszero\n      tag_458\n      jumpi\n      0x00\n      dup1\n      revert\n    tag_458:\n      pop\n      gas\n      staticcall\n      iszero\n      dup1\n      iszero\n      tag_460\n      jumpi\n      returndatasize\n      0x00\n      dup1\n      returndatacopy\n      revert(0x00, returndatasize)\n    tag_460:\n      pop\n      pop\n      pop\n      pop\n      mload(0x40)\n      returndatasize\n      0x20\n      dup2\n      lt\n      iszero\n      tag_461\n      jumpi\n      0x00\n      dup1\n      revert\n    tag_461:\n      pop\n      mload\n        /* \"ExodusTokenMigrator/OlympusTokenMigrator.sol\":11791:11826  oldTreasury.valueOf(token, balance) */\n      0x40\n      dup1\n      mload\n      0x1eec5a9a00000000000000000000000000000000000000000000000000000000\n      dup2\n      mstore\n      sub(shl(0xa0, 0x01), 0x01)\n      dup8\n      dup2\n      and\n      0x04\n      dup4\n      add\n      mstore\n      0x24\n      dup3\n      add\n      dup7\n      swap1\n      mstore\n      swap2\n      mload\n        /* \"ExodusTokenMigrator/OlympusTokenMigrator.sol\":11732:11760  oldTreasury.excessReserves() */\n      swap3\n      swap4\n      pop\n      0x00\n      swap3\n        /* \"ExodusTokenMigrator/OlympusTokenMigrator.sol\":11791:11802  oldTreasury */\n      immutable(\"0xa22b5bddbdcd05368321bd50fd5db7d428b6ca478a3c7389901149e4e0253710\")\n        /* \"ExodusTokenMigrator/OlympusTokenMigrator.sol\":11791:11810  oldTreasury.valueOf */\n      swap1\n      swap3\n      and\n      swap2\n      0x1eec5a9a\n      swap2\n        /* \"ExodusTokenMigrator/OlympusTokenMigrator.sol\":11791:11826  oldTreasury.valueOf(token, balance) */\n      0x44\n      dup1\n      dup3\n      add\n      swap3\n        /* \"ExodusTokenMigrator/OlympusTokenMigrator.sol\":11732:11760  oldTreasury.excessReserves() */\n      0x20\n      swap3\n        /* \"ExodusTokenMigrator/OlympusTokenMigrator.sol\":11791:11826  oldTreasury.valueOf(token, balance) */\n      swap1\n      swap2\n      swap1\n      dup3\n      swap1\n      sub\n      add\n      dup2\n        /* \"ExodusTokenMigrator/OlympusTokenMigrator.sol\":11791:11810  oldTreasury.valueOf */\n      dup7\n        /* \"ExodusTokenMigrator/OlympusTokenMigrator.sol\":11791:11826  oldTreasury.valueOf(token, balance) */\n      dup1\n      extcodesize\n      iszero\n      dup1\n      iszero\n      tag_462\n      jumpi\n      0x00\n      dup1\n      revert\n    tag_462:\n      pop\n      gas\n      staticcall\n      iszero\n      dup1\n      iszero\n      tag_464\n      jumpi\n      returndatasize\n      0x00\n      dup1\n      returndatacopy\n      revert(0x00, returndatasize)\n    tag_464:\n      pop\n      pop\n      pop\n      pop\n      mload(0x40)\n      returndatasize\n      0x20\n      dup2\n      lt\n      iszero\n      tag_465\n      jumpi\n      0x00\n      dup1\n      revert\n    tag_465:\n      pop\n      mload\n      swap1\n      pop\n        /* \"ExodusTokenMigrator/OlympusTokenMigrator.sol\":11841:11868  tokenValue > excessReserves */\n      dup2\n      dup2\n      gt\n        /* \"ExodusTokenMigrator/OlympusTokenMigrator.sol\":11837:11968  if (tokenValue > excessReserves) {... */\n      iszero\n      tag_466\n      jumpi\n      pop\n        /* \"ExodusTokenMigrator/OlympusTokenMigrator.sol\":11952:11957  10**9 */\n      0x3b9aca00\n        /* \"ExodusTokenMigrator/OlympusTokenMigrator.sol\":11935:11957  excessReserves * 10**9 */\n      dup2\n      mul\n      swap2\n      pop\n        /* \"ExodusTokenMigrator/OlympusTokenMigrator.sol\":11897:11911  excessReserves */\n      dup1\n        /* \"ExodusTokenMigrator/OlympusTokenMigrator.sol\":11837:11968  if (tokenValue > excessReserves) {... */\n    tag_466:\n        /* \"ExodusTokenMigrator/OlympusTokenMigrator.sol\":11978:11989  oldTreasury */\n      immutable(\"0xa22b5bddbdcd05368321bd50fd5db7d428b6ca478a3c7389901149e4e0253710\")\n      sub(shl(0xa0, 0x01), 0x01)\n        /* \"ExodusTokenMigrator/OlympusTokenMigrator.sol\":11978:11996  oldTreasury.manage */\n      and\n      0x0b0eee30\n        /* \"ExodusTokenMigrator/OlympusTokenMigrator.sol\":11997:12002  token */\n      dup7\n        /* \"ExodusTokenMigrator/OlympusTokenMigrator.sol\":12004:12011  balance */\n      dup6\n        /* \"ExodusTokenMigrator/OlympusTokenMigrator.sol\":11978:12012  oldTreasury.manage(token, balance) */\n      mload(0x40)\n      dup4\n      0xffffffff\n      and\n      0xe0\n      shl\n      dup2\n      mstore\n      0x04\n      add\n      dup1\n      dup4\n      sub(shl(0xa0, 0x01), 0x01)\n      and\n      dup2\n      mstore\n      0x20\n      add\n      dup3\n      dup2\n      mstore\n      0x20\n      add\n      swap3\n      pop\n      pop\n      pop\n      0x00\n      mload(0x40)\n      dup1\n      dup4\n      sub\n      dup2\n      0x00\n      dup8\n      dup1\n      extcodesize\n      iszero\n      dup1\n      iszero\n      tag_467\n      jumpi\n      0x00\n      dup1\n      revert\n    tag_467:\n      pop\n      gas\n      call\n      iszero\n      dup1\n      iszero\n      tag_469\n      jumpi\n      returndatasize\n      0x00\n      dup1\n      returndatacopy\n      revert(0x00, returndatasize)\n    tag_469:\n      pop\n      pop\n      pop\n      pop\n        /* \"ExodusTokenMigrator/OlympusTokenMigrator.sol\":12027:12034  deposit */\n      dup4\n        /* \"ExodusTokenMigrator/OlympusTokenMigrator.sol\":12023:12266  if (deposit) {... */\n      iszero\n      tag_470\n      jumpi\n        /* \"ExodusTokenMigrator/OlympusTokenMigrator.sol\":12084:12095  newTreasury */\n      sload(0x03)\n        /* \"ExodusTokenMigrator/OlympusTokenMigrator.sol\":12050:12106  IERC20(token).safeApprove(address(newTreasury), balance) */\n      tag_471\n      swap1\n      sub(shl(0xa0, 0x01), 0x01)\n        /* \"ExodusTokenMigrator/OlympusTokenMigrator.sol\":12050:12075  IERC20(token).safeApprove */\n      dup8\n      dup2\n      and\n      swap2\n        /* \"ExodusTokenMigrator/OlympusTokenMigrator.sol\":12084:12095  newTreasury */\n      and\n        /* \"ExodusTokenMigrator/OlympusTokenMigrator.sol\":12098:12105  balance */\n      dup6\n        /* \"ExodusTokenMigrator/OlympusTokenMigrator.sol\":12050:12075  IERC20(token).safeApprove */\n      tag_472\n        /* \"ExodusTokenMigrator/OlympusTokenMigrator.sol\":12050:12106  IERC20(token).safeApprove(address(newTreasury), balance) */\n      jump\t// in\n    tag_471:\n        /* \"ExodusTokenMigrator/OlympusTokenMigrator.sol\":12120:12131  newTreasury */\n      sload(0x03)\n        /* \"ExodusTokenMigrator/OlympusTokenMigrator.sol\":12120:12167  newTreasury.deposit(balance, token, tokenValue) */\n      0x40\n      dup1\n      mload\n      0xbc157ac100000000000000000000000000000000000000000000000000000000\n      dup2\n      mstore\n      0x04\n      dup2\n      add\n      dup7\n      swap1\n      mstore\n      sub(shl(0xa0, 0x01), 0x01)\n      dup9\n      dup2\n      and\n      0x24\n      dup4\n      add\n      mstore\n      0x44\n      dup3\n      add\n      dup6\n      swap1\n      mstore\n      swap2\n      mload\n        /* \"ExodusTokenMigrator/OlympusTokenMigrator.sol\":12120:12131  newTreasury */\n      swap2\n      swap1\n      swap3\n      and\n      swap2\n        /* \"ExodusTokenMigrator/OlympusTokenMigrator.sol\":12120:12139  newTreasury.deposit */\n      0xbc157ac1\n      swap2\n        /* \"ExodusTokenMigrator/OlympusTokenMigrator.sol\":12120:12167  newTreasury.deposit(balance, token, tokenValue) */\n      0x64\n      dup1\n      dup4\n      add\n      swap3\n      0x20\n      swap3\n      swap2\n      swap1\n      dup3\n      swap1\n      sub\n      add\n      dup2\n        /* \"ExodusTokenMigrator/OlympusTokenMigrator.sol\":12120:12131  newTreasury */\n      0x00\n      dup8\n        /* \"ExodusTokenMigrator/OlympusTokenMigrator.sol\":12120:12167  newTreasury.deposit(balance, token, tokenValue) */\n      dup1\n      extcodesize\n      iszero\n      dup1\n      iszero\n      tag_473\n      jumpi\n      0x00\n      dup1\n      revert\n    tag_473:\n      pop\n      gas\n      call\n      iszero\n      dup1\n      iszero\n      tag_475\n      jumpi\n      returndatasize\n      0x00\n      dup1\n      returndatacopy\n      revert(0x00, returndatasize)\n    tag_475:\n      pop\n      pop\n      pop\n      pop\n      mload(0x40)\n      returndatasize\n      0x20\n      dup2\n      lt\n      iszero\n      tag_476\n      jumpi\n      0x00\n      dup1\n      revert\n    tag_476:\n      pop\n        /* \"ExodusTokenMigrator/OlympusTokenMigrator.sol\":12023:12266  if (deposit) {... */\n      tag_172\n      swap1\n      pop\n      jump\n    tag_470:\n        /* \"ExodusTokenMigrator/OlympusTokenMigrator.sol\":12233:12244  newTreasury */\n      sload(0x03)\n        /* \"ExodusTokenMigrator/OlympusTokenMigrator.sol\":12198:12255  IERC20(token).safeTransfer(address(newTreasury), balance) */\n      tag_172\n      swap1\n      sub(shl(0xa0, 0x01), 0x01)\n        /* \"ExodusTokenMigrator/OlympusTokenMigrator.sol\":12198:12224  IERC20(token).safeTransfer */\n      dup8\n      dup2\n      and\n      swap2\n        /* \"ExodusTokenMigrator/OlympusTokenMigrator.sol\":12233:12244  newTreasury */\n      and\n        /* \"ExodusTokenMigrator/OlympusTokenMigrator.sol\":12247:12254  balance */\n      dup6\n        /* \"ExodusTokenMigrator/OlympusTokenMigrator.sol\":12198:12224  IERC20(token).safeTransfer */\n      tag_173\n        /* \"ExodusTokenMigrator/OlympusTokenMigrator.sol\":12198:12255  IERC20(token).safeTransfer(address(newTreasury), balance) */\n      jump\t// in\n        /* \"ExodusTokenMigrator/OlympusTokenMigrator.sol\":11205:11475  function _fund(uint256 _amount) internal {... */\n    tag_261:\n        /* \"ExodusTokenMigrator/OlympusTokenMigrator.sol\":11256:11267  newTreasury */\n      sload(0x03)\n        /* \"ExodusTokenMigrator/OlympusTokenMigrator.sol\":11256:11296  newTreasury.mint(address(this), _amount) */\n      0x40\n      dup1\n      mload\n      shl(0xe0, 0x40c10f19)\n      dup2\n      mstore\n        /* \"ExodusTokenMigrator/OlympusTokenMigrator.sol\":11281:11285  this */\n      address\n        /* \"ExodusTokenMigrator/OlympusTokenMigrator.sol\":11256:11296  newTreasury.mint(address(this), _amount) */\n      0x04\n      dup3\n      add\n      mstore\n      0x24\n      dup2\n      add\n      dup5\n      swap1\n      mstore\n      swap1\n      mload\n      sub(shl(0xa0, 0x01), 0x01)\n        /* \"ExodusTokenMigrator/OlympusTokenMigrator.sol\":11256:11267  newTreasury */\n      swap1\n      swap3\n      and\n      swap2\n        /* \"ExodusTokenMigrator/OlympusTokenMigrator.sol\":11256:11272  newTreasury.mint */\n      0x40c10f19\n      swap2\n        /* \"ExodusTokenMigrator/OlympusTokenMigrator.sol\":11256:11296  newTreasury.mint(address(this), _amount) */\n      0x44\n      dup1\n      dup3\n      add\n      swap3\n        /* \"ExodusTokenMigrator/OlympusTokenMigrator.sol\":11256:11267  newTreasury */\n      0x00\n      swap3\n        /* \"ExodusTokenMigrator/OlympusTokenMigrator.sol\":11256:11296  newTreasury.mint(address(this), _amount) */\n      swap1\n      swap2\n      swap1\n      dup3\n      swap1\n      sub\n      add\n      dup2\n        /* \"ExodusTokenMigrator/OlympusTokenMigrator.sol\":11256:11267  newTreasury */\n      dup4\n      dup8\n        /* \"ExodusTokenMigrator/OlympusTokenMigrator.sol\":11256:11296  newTreasury.mint(address(this), _amount) */\n      dup1\n      extcodesize\n      iszero\n      dup1\n      iszero\n      tag_480\n      jumpi\n      0x00\n      dup1\n      revert\n    tag_480:\n      pop\n      gas\n      call\n      iszero\n      dup1\n      iszero\n      tag_482\n      jumpi\n      returndatasize\n      0x00\n      dup1\n      returndatacopy\n      revert(0x00, returndatasize)\n    tag_482:\n      pop\n      pop\n        /* \"ExodusTokenMigrator/OlympusTokenMigrator.sol\":11306:11312  newEXO */\n      sload(0x05)\n        /* \"ExodusTokenMigrator/OlympusTokenMigrator.sol\":11329:11339  newStaking */\n      0x04\n      dup1\n      sload\n        /* \"ExodusTokenMigrator/OlympusTokenMigrator.sol\":11306:11350  newEXO.approve(address(newStaking), _amount) */\n      0x40\n      dup1\n      mload\n      shl(0xe0, 0x095ea7b3)\n      dup2\n      mstore\n      sub(shl(0xa0, 0x01), 0x01)\n        /* \"ExodusTokenMigrator/OlympusTokenMigrator.sol\":11329:11339  newStaking */\n      swap3\n      dup4\n      and\n        /* \"ExodusTokenMigrator/OlympusTokenMigrator.sol\":11306:11350  newEXO.approve(address(newStaking), _amount) */\n      swap4\n      dup2\n      add\n      swap4\n      swap1\n      swap4\n      mstore\n      0x24\n      dup4\n      add\n      dup8\n      swap1\n      mstore\n      mload\n        /* \"ExodusTokenMigrator/OlympusTokenMigrator.sol\":11306:11312  newEXO */\n      swap3\n      and\n      swap4\n      pop\n        /* \"ExodusTokenMigrator/OlympusTokenMigrator.sol\":11306:11320  newEXO.approve */\n      0x095ea7b3\n      swap3\n      pop\n        /* \"ExodusTokenMigrator/OlympusTokenMigrator.sol\":11306:11350  newEXO.approve(address(newStaking), _amount) */\n      0x44\n      dup1\n      dup3\n      add\n      swap3\n      0x20\n      swap3\n      swap1\n      swap2\n      swap1\n      dup3\n      swap1\n      sub\n      add\n      dup2\n        /* \"ExodusTokenMigrator/OlympusTokenMigrator.sol\":11306:11312  newEXO */\n      0x00\n      dup8\n        /* \"ExodusTokenMigrator/OlympusTokenMigrator.sol\":11306:11350  newEXO.approve(address(newStaking), _amount) */\n      dup1\n      extcodesize\n      iszero\n      dup1\n      iszero\n      tag_483\n      jumpi\n      0x00\n      dup1\n      revert\n    tag_483:\n      pop\n      gas\n      call\n      iszero\n      dup1\n      iszero\n      tag_485\n      jumpi\n      returndatasize\n      0x00\n      dup1\n      returndatacopy\n      revert(0x00, returndatasize)\n    tag_485:\n      pop\n      pop\n      pop\n      pop\n      mload(0x40)\n      returndatasize\n      0x20\n      dup2\n      lt\n      iszero\n      tag_486\n      jumpi\n      0x00\n      dup1\n      revert\n    tag_486:\n      pop\n      pop\n        /* \"ExodusTokenMigrator/OlympusTokenMigrator.sol\":11360:11370  newStaking */\n      0x04\n      dup1\n      sload\n        /* \"ExodusTokenMigrator/OlympusTokenMigrator.sol\":11360:11413  newStaking.stake(address(this), _amount, false, true) */\n      0x40\n      dup1\n      mload\n      0xd866c9d800000000000000000000000000000000000000000000000000000000\n      dup2\n      mstore\n        /* \"ExodusTokenMigrator/OlympusTokenMigrator.sol\":11385:11389  this */\n      address\n        /* \"ExodusTokenMigrator/OlympusTokenMigrator.sol\":11360:11413  newStaking.stake(address(this), _amount, false, true) */\n      swap4\n      dup2\n      add\n      swap4\n      swap1\n      swap4\n      mstore\n      0x24\n      dup4\n      add\n      dup5\n      swap1\n      mstore\n        /* \"ExodusTokenMigrator/OlympusTokenMigrator.sol\":11360:11370  newStaking */\n      0x00\n        /* \"ExodusTokenMigrator/OlympusTokenMigrator.sol\":11360:11413  newStaking.stake(address(this), _amount, false, true) */\n      0x44\n      dup5\n      add\n      dup2\n      swap1\n      mstore\n        /* \"ExodusTokenMigrator/OlympusTokenMigrator.sol\":11360:11370  newStaking */\n      0x01\n        /* \"ExodusTokenMigrator/OlympusTokenMigrator.sol\":11360:11413  newStaking.stake(address(this), _amount, false, true) */\n      0x64\n      dup6\n      add\n      mstore\n      swap1\n      mload\n      sub(shl(0xa0, 0x01), 0x01)\n        /* \"ExodusTokenMigrator/OlympusTokenMigrator.sol\":11360:11370  newStaking */\n      swap1\n      swap3\n      and\n      swap3\n        /* \"ExodusTokenMigrator/OlympusTokenMigrator.sol\":11360:11376  newStaking.stake */\n      0xd866c9d8\n      swap3\n        /* \"ExodusTokenMigrator/OlympusTokenMigrator.sol\":11360:11413  newStaking.stake(address(this), _amount, false, true) */\n      0x84\n      dup1\n      dup4\n      add\n      swap4\n        /* \"ExodusTokenMigrator/OlympusTokenMigrator.sol\":11306:11350  newEXO.approve(address(newStaking), _amount) */\n      0x20\n      swap4\n        /* \"ExodusTokenMigrator/OlympusTokenMigrator.sol\":11360:11413  newStaking.stake(address(this), _amount, false, true) */\n      dup4\n      swap1\n      sub\n      swap1\n      swap2\n      add\n      swap1\n      dup3\n      swap1\n        /* \"ExodusTokenMigrator/OlympusTokenMigrator.sol\":11360:11370  newStaking */\n      dup8\n        /* \"ExodusTokenMigrator/OlympusTokenMigrator.sol\":11360:11413  newStaking.stake(address(this), _amount, false, true) */\n      dup1\n      extcodesize\n      iszero\n      dup1\n      iszero\n      tag_487\n      jumpi\n      0x00\n      dup1\n      revert\n    tag_487:\n      pop\n      gas\n      call\n      iszero\n      dup1\n      iszero\n      tag_489\n      jumpi\n      returndatasize\n      0x00\n      dup1\n      returndatacopy\n      revert(0x00, returndatasize)\n    tag_489:\n      pop\n      pop\n      pop\n      pop\n      mload(0x40)\n      returndatasize\n      0x20\n      dup2\n      lt\n      iszero\n      tag_490\n      jumpi\n      0x00\n      dup1\n      revert\n    tag_490:\n      pop\n      pop\n        /* \"ExodusTokenMigrator/OlympusTokenMigrator.sol\":11453:11468  Funded(_amount) */\n      0x40\n      dup1\n      mload\n      dup3\n      dup2\n      mstore\n      swap1\n      mload\n      0xc4c14883ae9fd8e26d5d59e3485ed29fd126d781d7e498a4ca5c54c8268e4936\n      swap2\n      dup2\n      swap1\n      sub\n        /* \"ExodusTokenMigrator/OlympusTokenMigrator.sol\":11360:11413  newStaking.stake(address(this), _amount, false, true) */\n      0x20\n        /* \"ExodusTokenMigrator/OlympusTokenMigrator.sol\":11453:11468  Funded(_amount) */\n      add\n      swap1\n      log1\n        /* \"ExodusTokenMigrator/OlympusTokenMigrator.sol\":11205:11475  function _fund(uint256 _amount) internal {... */\n      pop\n      jump\t// out\n        /* \"ExodusTokenMigrator/SafeMath.sol\":700:941  function mul(uint256 a, uint256 b) internal pure returns (uint256) {... */\n    tag_301:\n        /* \"ExodusTokenMigrator/SafeMath.sol\":758:765  uint256 */\n      0x00\n        /* \"ExodusTokenMigrator/SafeMath.sol\":781:787  a == 0 */\n      dup3\n        /* \"ExodusTokenMigrator/SafeMath.sol\":777:822  if (a == 0) {... */\n      tag_492\n      jumpi\n      pop\n        /* \"ExodusTokenMigrator/SafeMath.sol\":810:811  0 */\n      0x00\n        /* \"ExodusTokenMigrator/SafeMath.sol\":803:811  return 0 */\n      jump(tag_451)\n        /* \"ExodusTokenMigrator/SafeMath.sol\":777:822  if (a == 0) {... */\n    tag_492:\n        /* \"ExodusTokenMigrator/SafeMath.sol\":844:849  a * b */\n      dup3\n      dup3\n      mul\n        /* \"ExodusTokenMigrator/SafeMath.sol\":848:849  b */\n      dup3\n        /* \"ExodusTokenMigrator/SafeMath.sol\":844:845  a */\n      dup5\n        /* \"ExodusTokenMigrator/SafeMath.sol\":844:849  a * b */\n      dup3\n        /* \"ExodusTokenMigrator/SafeMath.sol\":844:845  a */\n      dup2\n        /* \"ExodusTokenMigrator/SafeMath.sol\":867:872  c / a */\n      tag_493\n      jumpi\n      invalid\n    tag_493:\n      div\n        /* \"ExodusTokenMigrator/SafeMath.sol\":867:877  c / a == b */\n      eq\n        /* \"ExodusTokenMigrator/SafeMath.sol\":859:915  require(c / a == b, \"SafeMath: multiplication overflow\") */\n      tag_452\n      jumpi\n      mload(0x40)\n      shl(0xe5, 0x461bcd)\n      dup2\n      mstore\n      0x04\n      add\n      dup1\n      dup1\n      0x20\n      add\n      dup3\n      dup2\n      sub\n      dup3\n      mstore\n      0x21\n      dup2\n      mstore\n      0x20\n      add\n      dup1\n      data_9113bb53c2876a3805b2c9242029423fc540a728243ce887ab24c82cf119fba3\n      0x21\n      swap2\n      codecopy\n      0x40\n      add\n      swap2\n      pop\n      pop\n      mload(0x40)\n      dup1\n      swap2\n      sub\n      swap1\n      revert\n        /* \"ExodusTokenMigrator/SafeERC20.sol\":1141:1493  function safeApprove(... */\n    tag_472:\n        /* \"ExodusTokenMigrator/SafeERC20.sol\":1322:1381  abi.encodeWithSelector(IERC20.approve.selector, to, amount) */\n      0x40\n      dup1\n      mload\n      sub(shl(0xa0, 0x01), 0x01)\n      dup5\n      dup2\n      and\n      0x24\n      dup4\n      add\n      mstore\n      0x44\n      dup1\n      dup4\n      add\n      dup6\n      swap1\n      mstore\n      dup4\n      mload\n      dup1\n      dup5\n      sub\n      swap1\n      swap2\n      add\n      dup2\n      mstore\n      0x64\n      swap1\n      swap3\n      add\n      dup4\n      mstore\n      0x20\n      dup3\n      add\n      dup1\n      mload\n      sub(shl(0xe0, 0x01), 0x01)\n      and\n      shl(0xe0, 0x095ea7b3)\n      or\n      dup2\n      mstore\n        /* \"ExodusTokenMigrator/SafeERC20.sol\":1289:1391  address(token).call(... */\n      swap3\n      mload\n      dup3\n      mload\n        /* \"ExodusTokenMigrator/SafeERC20.sol\":1254:1266  bool success */\n      0x00\n      swap5\n        /* \"ExodusTokenMigrator/SafeERC20.sol\":1268:1285  bytes memory data */\n      0x60\n      swap5\n        /* \"ExodusTokenMigrator/SafeERC20.sol\":1289:1308  address(token).call */\n      swap4\n      dup10\n      and\n      swap4\n        /* \"ExodusTokenMigrator/SafeERC20.sol\":1322:1381  abi.encodeWithSelector(IERC20.approve.selector, to, amount) */\n      swap3\n        /* \"ExodusTokenMigrator/SafeERC20.sol\":1289:1391  address(token).call(... */\n      swap2\n      dup3\n      swap2\n        /* \"ExodusTokenMigrator/SafeERC20.sol\":1322:1381  abi.encodeWithSelector(IERC20.approve.selector, to, amount) */\n      swap1\n        /* \"ExodusTokenMigrator/SafeERC20.sol\":1289:1391  address(token).call(... */\n      dup1\n      dup4\n        /* \"ExodusTokenMigrator/SafeERC20.sol\":1322:1381  abi.encodeWithSelector(IERC20.approve.selector, to, amount) */\n      dup4\n        /* \"ExodusTokenMigrator/SafeERC20.sol\":1289:1391  address(token).call(... */\n    tag_496:\n      0x20\n      dup4\n      lt\n      tag_498\n      jumpi\n      dup1\n      mload\n      dup3\n      mstore\n      not(0x1f)\n      swap1\n      swap3\n      add\n      swap2\n      0x20\n      swap2\n      dup3\n      add\n      swap2\n      add\n      jump(tag_496)\n    tag_498:\n      0x01\n      dup4\n      0x20\n      sub\n      0x0100\n      exp\n      sub\n      dup1\n      not\n      dup3\n      mload\n      and\n      dup2\n      dup5\n      mload\n      and\n      dup1\n      dup3\n      or\n      dup6\n      mstore\n      pop\n      pop\n      pop\n      pop\n      pop\n      pop\n      swap1\n      pop\n      add\n      swap2\n      pop\n      pop\n      0x00\n      mload(0x40)\n      dup1\n      dup4\n      sub\n      dup2\n      0x00\n      dup7\n      gas\n      call\n      swap2\n      pop\n      pop\n      returndatasize\n      dup1\n      0x00\n      dup2\n      eq\n      tag_501\n      jumpi\n      mload(0x40)\n      swap2\n      pop\n      and(add(returndatasize, 0x3f), not(0x1f))\n      dup3\n      add\n      0x40\n      mstore\n      returndatasize\n      dup3\n      mstore\n      returndatasize\n      0x00\n      0x20\n      dup5\n      add\n      returndatacopy\n      jump(tag_500)\n    tag_501:\n      0x60\n      swap2\n      pop\n    tag_500:\n      pop\n        /* \"ExodusTokenMigrator/SafeERC20.sol\":1253:1391  (bool success, bytes memory data) = address(token).call(... */\n      swap2\n      pop\n      swap2\n      pop\n        /* \"ExodusTokenMigrator/SafeERC20.sol\":1410:1417  success */\n      dup2\n        /* \"ExodusTokenMigrator/SafeERC20.sol\":1410:1467  success && (data.length == 0 || abi.decode(data, (bool))) */\n      dup1\n      iszero\n      tag_503\n      jumpi\n      pop\n        /* \"ExodusTokenMigrator/SafeERC20.sol\":1422:1433  data.length */\n      dup1\n      mload\n        /* \"ExodusTokenMigrator/SafeERC20.sol\":1422:1438  data.length == 0 */\n      iszero\n      dup1\n        /* \"ExodusTokenMigrator/SafeERC20.sol\":1422:1466  data.length == 0 || abi.decode(data, (bool)) */\n      tag_503\n      jumpi\n      pop\n        /* \"ExodusTokenMigrator/SafeERC20.sol\":1453:1457  data */\n      dup1\n        /* \"ExodusTokenMigrator/SafeERC20.sol\":1442:1466  abi.decode(data, (bool)) */\n      dup1\n      0x20\n      add\n      swap1\n      mload\n      0x20\n      dup2\n      lt\n      iszero\n      tag_504\n      jumpi\n      0x00\n      dup1\n      revert\n    tag_504:\n      pop\n      mload\n        /* \"ExodusTokenMigrator/SafeERC20.sol\":1422:1466  data.length == 0 || abi.decode(data, (bool)) */\n    tag_503:\n        /* \"ExodusTokenMigrator/SafeERC20.sol\":1402:1486  require(success && (data.length == 0 || abi.decode(data, (bool))), \"APPROVE_FAILED\") */\n      tag_172\n      jumpi\n      0x40\n      dup1\n      mload\n      shl(0xe5, 0x461bcd)\n      dup2\n      mstore\n      0x20\n      0x04\n      dup3\n      add\n      mstore\n      0x0e\n      0x24\n      dup3\n      add\n      mstore\n      0x415050524f56455f4641494c4544000000000000000000000000000000000000\n      0x44\n      dup3\n      add\n      mstore\n      swap1\n      mload\n      swap1\n      dup2\n      swap1\n      sub\n      0x64\n      add\n      swap1\n      revert\n    stop\n    data_9113bb53c2876a3805b2c9242029423fc540a728243ce887ab24c82cf119fba3 536166654d6174683a206d756c7469706c69636174696f6e206f766572666c6f77\n    data_e48c0cbd20e52a630f11ad261cbb334a63b21adcb292832b91aca94fbc91ae0e 57697468647261772076616c7565206d7573742062652067726561746572207468616e2030\n\n    auxdata: 0xa264697066735822122053215fd6c64dd0c974acc83fb19d0ffedde25ddbd112fb415b37ab58672056fe64736f6c63430007050033\n}\n",
				"bytecode": {
					"linkReferences": {},
					"object": "6101c0604052600c6101808190526b15539055551213d49256915160a21b6101a0908152620000329160009190620003e5565b503480156200004057600080fd5b50604051620042013803806200420183398181016040526101208110156200006757600080fd5b50805160208201516040808401516060850151608086015160a087015160c088015160e089015161010090990151600180546001600160a01b0319166001600160a01b038316908117909155965198999798959794969395929491939192909182917f2f658b440c35314f52658ea8a740e05b284cdc84dc9ae01e891f21b8933e7cad90600090a2506001600160a01b03891662000140576040805162461bcd60e51b81526020600482015260116024820152705a65726f20616464726573733a2045584f60781b604482015290519081900360640190fd5b6001600160601b031960608a901b166080526001600160a01b038816620001a3576040805162461bcd60e51b81526020600482015260126024820152715a65726f20616464726573733a207345584f60701b604482015290519081900360640190fd5b6001600160601b0319606089901b1660a0526001600160a01b03871662000211576040805162461bcd60e51b815260206004820152601660248201527f5a65726f20616464726573733a20547265617375727900000000000000000000604482015290519081900360640190fd5b6001600160601b0319606088901b1660e0526001600160a01b0386166200027f576040805162461bcd60e51b815260206004820152601560248201527f5a65726f20616464726573733a205374616b696e670000000000000000000000604482015290519081900360640190fd5b6001600160601b0319606087901b16610100526001600160a01b038516620002ee576040805162461bcd60e51b815260206004820152601360248201527f5a65726f20616464726573733a20777345584f00000000000000000000000000604482015290519081900360640190fd5b6001600160601b0319606086901b1660c0526001600160a01b0384166200035c576040805162461bcd60e51b815260206004820152601360248201527f5a65726f20616464726573733a20537573686900000000000000000000000000604482015290519081900360640190fd5b6001600160601b0319606085901b16610120526001600160a01b038316620003bf576040805162461bcd60e51b81526020600482015260116024820152705a65726f20616464726573733a20556e6960781b604482015290519081900360640190fd5b5060609190911b6001600160601b03191661014052610160525062000491945050505050565b828054600181600116156101000203166002900490600052602060002090601f0160209004810192826200041d576000855562000468565b82601f106200043857805160ff191683800117855562000468565b8280016001018555821562000468579182015b82811115620004685782518255916020019190600101906200044b565b50620004769291506200047a565b5090565b5b808211156200047657600081556001016200047b565b60805160601c60a05160601c60c05160601c60e05160601c6101005160601c6101205160601c6101405160601c61016051613c2b620005d66000398061081152806115515250806111c0528061251d52508061105952806124f4525080610e905280611e595280611f47525080611abf52806120a1528061217452806123c1528061248e52806134aa528061356b528061362552806136b25250806104cb528061065d5280610d0a528061129852806113de5280611cae52806122a05280612a055280612c415280612c785250806106285280610c835280611035528061139652806119da5280611dce5280611e8d52806129485280612c065250806105da528061069c52806107ed5280610bfc528061134952806118bd5280611fa6528061207252806125f95280612a9d5280612b4a5280612bcb5280612d255250613c2b6000f3fe608060405234801561001057600080fd5b50600436106101cf5760003560e01c80637a9e5e4b11610104578063d6fa3760116100a2578063ec78f90b11610071578063ec78f90b14610426578063ed44527b14610446578063f96a60061461044e578063fc0e74d114610474576101cf565b8063d6fa37601461039a578063d8212545146103c0578063dfd9e685146103c8578063e3c8bc0d1461040a576101cf565b8063b29c7444116100de578063b29c74441461033a578063b71a6df314610342578063bf7e214f1461038a578063cf0ef51614610392576101cf565b80637a9e5e4b146102e6578063a0e47bf61461030c578063abacbb2f14610314576101cf565b80634579b8b4116101715780635ed7ca5b1161014b5780635ed7ca5b146102c6578063694d6635146102ce5780636c8374ac146102d65780636d13582c146102de576101cf565b80634579b8b4146102ae5780634edf8980146102b65780635c5fadc1146102be576101cf565b8063219a1f81116101ad578063219a1f8114610242578063245c0e991461024a5780632af36b43146102705780633ccdbb2814610278576101cf565b80630465f072146101d45780630585084414610204578063149bab241461021e575b600080fd5b610202600480360360608110156101ea57600080fd5b5080359060ff6020820135811691604001351661047c565b005b61020c6107e5565b60408051918252519081900360200190f35b6102266107eb565b604080516001600160a01b039092168252519081900360200190f35b61020c61080f565b6102026004803603602081101561026057600080fd5b50356001600160a01b0316610833565b610226610a41565b6102026004803603606081101561028e57600080fd5b506001600160a01b03813581169160208101359160409091013516610a50565b610226610e7f565b610226610e8e565b610226610eb2565b610202610ec1565b61020c61102d565b610226611033565b610226611057565b610202600480360360208110156102fc57600080fd5b50356001600160a01b031661107b565b6102266111be565b6102026004803603604081101561032a57600080fd5b508035906020013560ff166111e2565b61020261140a565b610202600480360360a081101561035857600080fd5b506001600160a01b038135811691602081013582169160408201358116916060810135821691608090910135166115b7565b610226611aae565b610226611abd565b610202600480360360208110156103b057600080fd5b50356001600160a01b0316611ae1565b61022661229e565b610202600480360360a08110156103de57600080fd5b506001600160a01b038135811691602081013515159160408201351690606081013590608001356122c2565b6104126128e8565b604080519115158252519081900360200190f35b6102026004803603602081101561043c57600080fd5b503560ff166128f8565b610226612e6e565b6102026004803603602081101561046457600080fd5b50356001600160a01b0316612e7d565b610412612f77565b600554600160a81b900460ff16156104c7576040805162461bcd60e51b815260206004820152600960248201526829b43aba103237bbb760b91b604482015290519081900360640190fd5b60007f00000000000000000000000000000000000000000000000000000000000000006001600160a01b03166373f79c04856040518263ffffffff1660e01b81526004018082815260200191505060206040518083038186803b15801561052d57600080fd5b505afa158015610541573d6000803e3d6000fd5b505050506040513d602081101561055757600080fd5b50519050600083600281111561056957fe5b141561060757600554600160a01b900460ff166105cd576040805162461bcd60e51b815260206004820152601b60248201527f4f6e6c79207374616b656420756e74696c206d6967726174696f6e0000000000604482015290519081900360640190fd5b6106026001600160a01b037f000000000000000000000000000000000000000000000000000000000000000016333087612f87565b610688565b600183600281111561061557fe5b1415610650576106026001600160a01b037f000000000000000000000000000000000000000000000000000000000000000016333087612f87565b6106856001600160a01b037f000000000000000000000000000000000000000000000000000000000000000016333087612f87565b50825b600554600160a01b900460ff1615610773577f00000000000000000000000000000000000000000000000000000000000000006001600160a01b03166318160ddd6040518163ffffffff1660e01b815260040160206040518083038186803b1580156106f357600080fd5b505afa158015610707573d6000803e3d6000fd5b505050506040513d602081101561071d57600080fd5b50516007541015610764576040805162461bcd60e51b815260206004820152600c60248201526b13d2135d8c481b5a5b9d195960a21b604482015290519081900360640190fd5b61076e8183613113565b6107df565b600254604080516340c10f1960e01b81523360048201526024810184905290516001600160a01b03909216916340c10f199160448082019260009290919082900301818387803b1580156107c657600080fd5b505af11580156107da573d6000803e3d6000fd5b505050505b50505050565b60075481565b7f000000000000000000000000000000000000000000000000000000000000000081565b7f000000000000000000000000000000000000000000000000000000000000000081565b600160009054906101000a90046001600160a01b03166001600160a01b0316630c340a246040518163ffffffff1660e01b815260040160206040518083038186803b15801561088157600080fd5b505afa158015610895573d6000803e3d6000fd5b505050506040513d60208110156108ab57600080fd5b50516000906001600160a01b031633146109585760405162461bcd60e51b81526020600482019081528254600260001961010060018416150201909116046024830181905290918291604490910190849080156109495780601f1061091e57610100808354040283529160200191610949565b820191906000526020600020905b81548152906001019060200180831161092c57829003601f168201915b50509250505060405180910390fd5b506002546001600160a01b0316156109b7576040805162461bcd60e51b815260206004820152600b60248201527f416c726561647920736574000000000000000000000000000000000000000000604482015290519081900360640190fd5b6001600160a01b038116610a12576040805162461bcd60e51b815260206004820152601260248201527f5a65726f20616464726573733a206745584f0000000000000000000000000000604482015290519081900360640190fd5b6002805473ffffffffffffffffffffffffffffffffffffffff19166001600160a01b0392909216919091179055565b6002546001600160a01b031681565b600160009054906101000a90046001600160a01b03166001600160a01b0316630c340a246040518163ffffffff1660e01b815260040160206040518083038186803b158015610a9e57600080fd5b505afa158015610ab2573d6000803e3d6000fd5b505050506040513d6020811015610ac857600080fd5b50516000906001600160a01b03163314610b3b5760405162461bcd60e51b81526020600482019081528254600260001961010060018416150201909116046024830181905290918291604490910190849080156109495780601f1061091e57610100808354040283529160200191610949565b506001600160a01b038316610b97576040805162461bcd60e51b815260206004820152601b60248201527f546f6b656e20616464726573732063616e6e6f74206265203078300000000000604482015290519081900360640190fd5b6002546001600160a01b0384811691161415610bfa576040805162461bcd60e51b815260206004820152601560248201527f43616e6e6f742077697468647261773a206745584f0000000000000000000000604482015290519081900360640190fd5b7f00000000000000000000000000000000000000000000000000000000000000006001600160a01b0316836001600160a01b03161415610c81576040805162461bcd60e51b815260206004820152601860248201527f43616e6e6f742077697468647261773a206f6c642d45584f0000000000000000604482015290519081900360640190fd5b7f00000000000000000000000000000000000000000000000000000000000000006001600160a01b0316836001600160a01b03161415610d08576040805162461bcd60e51b815260206004820152601960248201527f43616e6e6f742077697468647261773a206f6c642d7345584f00000000000000604482015290519081900360640190fd5b7f00000000000000000000000000000000000000000000000000000000000000006001600160a01b0316836001600160a01b03161415610d8f576040805162461bcd60e51b815260206004820152601a60248201527f43616e6e6f742077697468647261773a206f6c642d777345584f000000000000604482015290519081900360640190fd5b60008211610dce5760405162461bcd60e51b8152600401808060200182810382526025815260200180613bd16025913960400191505060405180910390fd5b6001600160a01b038116610ddf5750335b604080516370a0823160e01b8152306004820152905184916000916001600160a01b038416916370a08231916024808301926020929190829003018186803b158015610e2a57600080fd5b505afa158015610e3e573d6000803e3d6000fd5b505050506040513d6020811015610e5457600080fd5b5051905080841115610e64578093505b610e786001600160a01b03831684866132b8565b5050505050565b6003546001600160a01b031681565b7f000000000000000000000000000000000000000000000000000000000000000081565b6005546001600160a01b031681565b600160009054906101000a90046001600160a01b03166001600160a01b0316630505c8c96040518163ffffffff1660e01b815260040160206040518083038186803b158015610f0f57600080fd5b505afa158015610f23573d6000803e3d6000fd5b505050506040513d6020811015610f3957600080fd5b50516000906001600160a01b03163314610fac5760405162461bcd60e51b81526020600482019081528254600260001961010060018416150201909116046024830181905290918291604490910190849080156109495780601f1061091e57610100808354040283529160200191610949565b50600554600160a01b900460ff161561100c576040805162461bcd60e51b815260206004820152601660248201527f4d6967726174696f6e20686173206f6363757272656400000000000000000000604482015290519081900360640190fd5b6005805460ff60a81b198116600160a81b9182900460ff1615909102179055565b60065481565b7f000000000000000000000000000000000000000000000000000000000000000081565b7f000000000000000000000000000000000000000000000000000000000000000081565b600160009054906101000a90046001600160a01b03166001600160a01b0316630c340a246040518163ffffffff1660e01b815260040160206040518083038186803b1580156110c957600080fd5b505afa1580156110dd573d6000803e3d6000fd5b505050506040513d60208110156110f357600080fd5b50516000906001600160a01b031633146111665760405162461bcd60e51b81526020600482019081528254600260001961010060018416150201909116046024830181905290918291604490910190849080156109495780601f1061091e57610100808354040283529160200191610949565b506001805473ffffffffffffffffffffffffffffffffffffffff19166001600160a01b0383169081179091556040517f2f658b440c35314f52658ea8a740e05b284cdc84dc9ae01e891f21b8933e7cad90600090a250565b7f000000000000000000000000000000000000000000000000000000000000000081565b600554600160a01b900460ff1661127c57600254604080517f9dc29fac0000000000000000000000000000000000000000000000000000000081523360048201526024810185905290516001600160a01b0390921691639dc29fac9160448082019260009290919082900301818387803b15801561125f57600080fd5b505af1158015611273573d6000803e3d6000fd5b50505050611294565b600254611294906001600160a01b0316333085612f87565b60007f00000000000000000000000000000000000000000000000000000000000000006001600160a01b031663554c85a3846040518263ffffffff1660e01b81526004018082815260200191505060206040518083038186803b1580156112fa57600080fd5b505afa15801561130e573d6000803e3d6000fd5b505050506040513d602081101561132457600080fd5b50519050600082600281111561133657fe5b1415611375576113706001600160a01b037f00000000000000000000000000000000000000000000000000000000000000001633836132b8565b611405565b600182600281111561138357fe5b14156113bd576113706001600160a01b037f00000000000000000000000000000000000000000000000000000000000000001633836132b8565b60028260028111156113cb57fe5b1415611405576114056001600160a01b037f00000000000000000000000000000000000000000000000000000000000000001633856132b8565b505050565b600160009054906101000a90046001600160a01b03166001600160a01b0316630c340a246040518163ffffffff1660e01b815260040160206040518083038186803b15801561145857600080fd5b505afa15801561146c573d6000803e3d6000fd5b505050506040513d602081101561148257600080fd5b50516000906001600160a01b031633146114f55760405162461bcd60e51b81526020600482019081528254600260001961010060018416150201909116046024830181905290918291604490910190849080156109495780601f1061091e57610100808354040283529160200191610949565b506006541561154b576040805162461bcd60e51b815260206004820152600c60248201527f54696d656c6f636b207365740000000000000000000000000000000000000000604482015290519081900360640190fd5b611575437f0000000000000000000000000000000000000000000000000000000000000000613434565b600681905560408051438152602081019290925280517f1f1c77590fcb154ccfac3f34adef3adfd45fa19cd5bd058297a1d6137d0229c09281900390910190a1565b600160009054906101000a90046001600160a01b03166001600160a01b0316630c340a246040518163ffffffff1660e01b815260040160206040518083038186803b15801561160557600080fd5b505afa158015611619573d6000803e3d6000fd5b505050506040513d602081101561162f57600080fd5b50516000906001600160a01b031633146116a25760405162461bcd60e51b81526020600482019081528254600260001961010060018416150201909116046024830181905290918291604490910190849080156109495780601f1061091e57610100808354040283529160200191610949565b50600554600160a01b900460ff1615611702576040805162461bcd60e51b815260206004820152601060248201527f416c7265616479206d6967726174656400000000000000000000000000000000604482015290519081900360640190fd5b6005805460ff60a81b197fffffffffffffffffffffff00ffffffffffffffffffffffffffffffffffffffff909116600160a01b171690556001600160a01b038516611794576040805162461bcd60e51b815260206004820152601660248201527f5a65726f20616464726573733a20547265617375727900000000000000000000604482015290519081900360640190fd5b6003805473ffffffffffffffffffffffffffffffffffffffff19166001600160a01b03878116919091179091558416611814576040805162461bcd60e51b815260206004820152601560248201527f5a65726f20616464726573733a205374616b696e670000000000000000000000604482015290519081900360640190fd5b6004805473ffffffffffffffffffffffffffffffffffffffff19166001600160a01b03868116919091179091558316611894576040805162461bcd60e51b815260206004820152601160248201527f5a65726f20616464726573733a2045584f000000000000000000000000000000604482015290519081900360640190fd5b82600560006101000a8154816001600160a01b0302191690836001600160a01b031602179055507f00000000000000000000000000000000000000000000000000000000000000006001600160a01b03166318160ddd6040518163ffffffff1660e01b815260040160206040518083038186803b15801561191457600080fd5b505afa158015611928573d6000803e3d6000fd5b505050506040513d602081101561193e57600080fd5b5051600755600254604080517f1068361f0000000000000000000000000000000000000000000000000000000081526001600160a01b038781166004830152858116602483015291519190921691631068361f91604480830192600092919082900301818387803b1580156119b257600080fd5b505af11580156119c6573d6000803e3d6000fd5b505050506119d5816001613497565b611a627f00000000000000000000000000000000000000000000000000000000000000006001600160a01b0316639358928b6040518163ffffffff1660e01b815260040160206040518083038186803b158015611a3157600080fd5b505afa158015611a45573d6000803e3d6000fd5b505050506040513d6020811015611a5b57600080fd5b5051613821565b604080516001600160a01b0380871682528716602082015281517f844985ce6880ca51e25a6d4ecc8af37a5de880279f2081af96d0e875c42b7082929181900390910190a15050505050565b6001546001600160a01b031681565b7f000000000000000000000000000000000000000000000000000000000000000081565b600160009054906101000a90046001600160a01b03166001600160a01b0316630c340a246040518163ffffffff1660e01b815260040160206040518083038186803b158015611b2f57600080fd5b505afa158015611b43573d6000803e3d6000fd5b505050506040513d6020811015611b5957600080fd5b50516000906001600160a01b03163314611bcc5760405162461bcd60e51b81526020600482019081528254600260001961010060018416150201909116046024830181905290918291604490910190849080156109495780601f1061091e57610100808354040283529160200191610949565b50600554600160a01b900460ff16611c2b576040805162461bcd60e51b815260206004820152601760248201527f4d6967726174696f6e20686173206e6f7420626567756e000000000000000000604482015290519081900360640190fd5b43600654108015611c3d575060065415155b611c8e576040805162461bcd60e51b815260206004820152601560248201527f54696d656c6f636b206e6f7420636f6d706c6574650000000000000000000000604482015290519081900360640190fd5b604080516370a0823160e01b815230600482015290516001600160a01b037f0000000000000000000000000000000000000000000000000000000000000000169163de0e9a3e9183916370a08231916024808301926020929190829003018186803b158015611cfc57600080fd5b505afa158015611d10573d6000803e3d6000fd5b505050506040513d6020811015611d2657600080fd5b5051604080517fffffffff0000000000000000000000000000000000000000000000000000000060e085901b16815260048101929092525160248083019260209291908290030181600087803b158015611d7f57600080fd5b505af1158015611d93573d6000803e3d6000fd5b505050506040513d6020811015611da957600080fd5b5050604080516370a0823160e01b815230600482015290516000916001600160a01b037f000000000000000000000000000000000000000000000000000000000000000016916370a0823191602480820192602092909190829003018186803b158015611e1557600080fd5b505afa158015611e29573d6000803e3d6000fd5b505050506040513d6020811015611e3f57600080fd5b50516040805163095ea7b360e01b81526001600160a01b037f0000000000000000000000000000000000000000000000000000000000000000811660048301526024820184905291519293507f00000000000000000000000000000000000000000000000000000000000000009091169163095ea7b3916044808201926020929091908290030181600087803b158015611ed857600080fd5b505af1158015611eec573d6000803e3d6000fd5b505050506040513d6020811015611f0257600080fd5b5050604080517f9ebea88c0000000000000000000000000000000000000000000000000000000081526004810183905260006024820181905291516001600160a01b037f00000000000000000000000000000000000000000000000000000000000000001692639ebea88c926044808201939182900301818387803b158015611f8a57600080fd5b505af1158015611f9e573d6000803e3d6000fd5b5050505060007f00000000000000000000000000000000000000000000000000000000000000006001600160a01b03166370a08231306040518263ffffffff1660e01b815260040180826001600160a01b0316815260200191505060206040518083038186803b15801561201157600080fd5b505afa158015612025573d6000803e3d6000fd5b505050506040513d602081101561203b57600080fd5b505160075490915081111561205457600060075561205e565b6007805482900390555b600061206e82633b9aca006139f3565b90507f00000000000000000000000000000000000000000000000000000000000000006001600160a01b031663095ea7b37f0000000000000000000000000000000000000000000000000000000000000000836040518363ffffffff1660e01b815260040180836001600160a01b0316815260200182815260200192505050602060405180830381600087803b15801561210757600080fd5b505af115801561211b573d6000803e3d6000fd5b505050506040513d602081101561213157600080fd5b5050604080517ef714ce000000000000000000000000000000000000000000000000000000008152600481018390526001600160a01b03868116602483015291517f00000000000000000000000000000000000000000000000000000000000000009092169162f714ce9160448082019260009290919082900301818387803b1580156121bd57600080fd5b505af11580156121d1573d6000803e3d6000fd5b5050600354604080516370a0823160e01b8152306004820152905161226594506001600160a01b039283169350918816916370a0823191602480820192602092909190829003018186803b15801561222857600080fd5b505afa15801561223c573d6000803e3d6000fd5b505050506040513d602081101561225257600080fd5b50516001600160a01b03871691906132b8565b6040805183815290517faf5e14f4cc37b04db239269739bd935c4ed55328b691792af028e5570dfe61fa9181900360200190a150505050565b7f000000000000000000000000000000000000000000000000000000000000000081565b600160009054906101000a90046001600160a01b03166001600160a01b0316630c340a246040518163ffffffff1660e01b815260040160206040518083038186803b15801561231057600080fd5b505afa158015612324573d6000803e3d6000fd5b505050506040513d602081101561233a57600080fd5b50516000906001600160a01b031633146123ad5760405162461bcd60e51b81526020600482019081528254600260001961010060018416150201909116046024830181905290918291604490910190849080156109495780601f1061091e57610100808354040283529160200191610949565b506000856001600160a01b03166370a082317f00000000000000000000000000000000000000000000000000000000000000006040518263ffffffff1660e01b815260040180826001600160a01b0316815260200191505060206040518083038186803b15801561241d57600080fd5b505afa158015612431573d6000803e3d6000fd5b505050506040513d602081101561244757600080fd5b5051604080517f0b0eee300000000000000000000000000000000000000000000000000000000081526001600160a01b0389811660048301526024820184905291519293507f000000000000000000000000000000000000000000000000000000000000000090911691630b0eee309160448082019260009290919082900301818387803b1580156124d857600080fd5b505af11580156124ec573d6000803e3d6000fd5b5050505060007f000000000000000000000000000000000000000000000000000000000000000090508561253d57507f00000000000000000000000000000000000000000000000000000000000000005b866001600160a01b031663095ea7b382846040518363ffffffff1660e01b815260040180836001600160a01b0316815260200182815260200192505050602060405180830381600087803b15801561259457600080fd5b505af11580156125a8573d6000803e3d6000fd5b505050506040513d60208110156125be57600080fd5b5050604080517fbaa2abde0000000000000000000000000000000000000000000000000000000081526001600160a01b0387811660048301527f0000000000000000000000000000000000000000000000000000000000000000811660248301526044820185905260648201879052608482018690523060a48301524260c4830152825160009384939286169263baa2abde9260e4808301939282900301818787803b15801561266d57600080fd5b505af1158015612681573d6000803e3d6000fd5b505050506040513d604081101561269757600080fd5b508051602090910151600354604080516340c10f1960e01b81523060048201526024810184905290519395509193506001600160a01b0316916340c10f199160448082019260009290919082900301818387803b1580156126f757600080fd5b505af115801561270b573d6000803e3d6000fd5b50505050866001600160a01b031663095ea7b384846040518363ffffffff1660e01b815260040180836001600160a01b0316815260200182815260200192505050602060405180830381600087803b15801561276657600080fd5b505af115801561277a573d6000803e3d6000fd5b505050506040513d602081101561279057600080fd5b50506005546040805163095ea7b360e01b81526001600160a01b038681166004830152602482018590529151919092169163095ea7b39160448083019260209291908290030181600087803b1580156127e857600080fd5b505af11580156127fc573d6000803e3d6000fd5b505050506040513d602081101561281257600080fd5b5050600554600354604080517fe8e337000000000000000000000000000000000000000000000000000000000081526001600160a01b038b81166004830152938416602482015260448101869052606481018590526084810186905260a4810185905291831660c48301524260e4830152519185169163e8e3370091610104808201926060929091908290030181600087803b1580156128b157600080fd5b505af11580156128c5573d6000803e3d6000fd5b505050506040513d60608110156128db57600080fd5b5050505050505050505050565b600554600160a01b900460ff1681565b600554600160a81b900460ff1615612943576040805162461bcd60e51b815260206004820152600960248201526829b43aba103237bbb760b91b604482015290519081900360640190fd5b6000807f00000000000000000000000000000000000000000000000000000000000000006001600160a01b03166370a08231336040518263ffffffff1660e01b815260040180826001600160a01b0316815260200191505060206040518083038186803b1580156129b357600080fd5b505afa1580156129c7573d6000803e3d6000fd5b505050506040513d60208110156129dd57600080fd5b5051604080516370a0823160e01b815233600482015290519192506000916001600160a01b037f000000000000000000000000000000000000000000000000000000000000000016916370a08231916024808301926020929190829003018186803b158015612a4b57600080fd5b505afa158015612a5f573d6000803e3d6000fd5b505050506040513d6020811015612a7557600080fd5b5051604080516370a0823160e01b815233600482015290519192506000916001600160a01b037f000000000000000000000000000000000000000000000000000000000000000016916370a08231916024808301926020929190829003018186803b158015612ae357600080fd5b505afa158015612af7573d6000803e3d6000fd5b505050506040513d6020811015612b0d57600080fd5b5051118015612b255750600554600160a01b900460ff165b15612bf357604080516370a0823160e01b815233600482015290516001600160a01b037f000000000000000000000000000000000000000000000000000000000000000016916370a08231916024808301926020929190829003018186803b158015612b9057600080fd5b505afa158015612ba4573d6000803e3d6000fd5b505050506040513d6020811015612bba57600080fd5b50519250612bf36001600160a01b037f000000000000000000000000000000000000000000000000000000000000000016333086612f87565b8115612c2e57612c2e6001600160a01b037f000000000000000000000000000000000000000000000000000000000000000016333085612f87565b8015612c6957612c696001600160a01b037f000000000000000000000000000000000000000000000000000000000000000016333084612f87565b6000612d0e6001600160a01b037f0000000000000000000000000000000000000000000000000000000000000000166373f79c04612ca78787613434565b6040518263ffffffff1660e01b81526004018082815260200191505060206040518083038186803b158015612cdb57600080fd5b505afa158015612cef573d6000803e3d6000fd5b505050506040513d6020811015612d0557600080fd5b50518390613434565b600554909150600160a01b900460ff1615612dfc577f00000000000000000000000000000000000000000000000000000000000000006001600160a01b03166318160ddd6040518163ffffffff1660e01b815260040160206040518083038186803b158015612d7c57600080fd5b505afa158015612d90573d6000803e3d6000fd5b505050506040513d6020811015612da657600080fd5b50516007541015612ded576040805162461bcd60e51b815260206004820152600c60248201526b13d2135d8c481b5a5b9d195960a21b604482015290519081900360640190fd5b612df78186613113565b610e78565b600254604080516340c10f1960e01b81523360048201526024810184905290516001600160a01b03909216916340c10f199160448082019260009290919082900301818387803b158015612e4f57600080fd5b505af1158015612e63573d6000803e3d6000fd5b505050505050505050565b6004546001600160a01b031681565b600160009054906101000a90046001600160a01b03166001600160a01b0316630c340a246040518163ffffffff1660e01b815260040160206040518083038186803b158015612ecb57600080fd5b505afa158015612edf573d6000803e3d6000fd5b505050506040513d6020811015612ef557600080fd5b50516000906001600160a01b03163314612f685760405162461bcd60e51b81526020600482019081528254600260001961010060018416150201909116046024830181905290918291604490910190849080156109495780601f1061091e57610100808354040283529160200191610949565b50612f74816000613497565b50565b600554600160a81b900460ff1681565b604080516001600160a01b0385811660248301528481166044830152606480830185905283518084039091018152608490920183526020820180516001600160e01b03167f23b872dd0000000000000000000000000000000000000000000000000000000017815292518251600094606094938a169392918291908083835b602083106130255780518252601f199092019160209182019101613006565b6001836020036101000a0380198251168184511680821785525050505050509050019150506000604051808303816000865af19150503d8060008114613087576040519150601f19603f3d011682016040523d82523d6000602084013e61308c565b606091505b50915091508180156130ba5750805115806130ba57508080602001905160208110156130b757600080fd5b50515b61310b576040805162461bcd60e51b815260206004820152601460248201527f5452414e534645525f46524f4d5f4641494c4544000000000000000000000000604482015290519081900360640190fd5b505050505050565b600281600281111561312157fe5b14156131435760025461313e906001600160a01b031633846132b8565b6132b4565b600181600281111561315157fe5b14156131f75760048054604080517f39f47693000000000000000000000000000000000000000000000000000000008152339381019390935260248301859052516001600160a01b03909116916339f476939160448083019260209291908290030181600087803b1580156131c557600080fd5b505af11580156131d9573d6000803e3d6000fd5b505050506040513d60208110156131ef57600080fd5b506132b49050565b600081600281111561320557fe5b14156132b45760048054604080517f990966d50000000000000000000000000000000000000000000000000000000081523393810193909352602483018590526000604484018190526064840181905290516001600160a01b039092169263990966d59260848083019360209383900390910190829087803b15801561328a57600080fd5b505af115801561329e573d6000803e3d6000fd5b505050506040513d60208110156107df57600080fd5b5050565b604080516001600160a01b038481166024830152604480830185905283518084039091018152606490920183526020820180516001600160e01b03167fa9059cbb00000000000000000000000000000000000000000000000000000000178152925182516000946060949389169392918291908083835b6020831061334e5780518252601f19909201916020918201910161332f565b6001836020036101000a0380198251168184511680821785525050505050509050019150506000604051808303816000865af19150503d80600081146133b0576040519150601f19603f3d011682016040523d82523d6000602084013e6133b5565b606091505b50915091508180156133e35750805115806133e357508080602001905160208110156133e057600080fd5b50515b610e78576040805162461bcd60e51b815260206004820152600f60248201527f5452414e534645525f4641494c45440000000000000000000000000000000000604482015290519081900360640190fd5b60008282018381101561348e576040805162461bcd60e51b815260206004820152601b60248201527f536166654d6174683a206164646974696f6e206f766572666c6f770000000000604482015290519081900360640190fd5b90505b92915050565b6000826001600160a01b03166370a082317f00000000000000000000000000000000000000000000000000000000000000006040518263ffffffff1660e01b815260040180826001600160a01b0316815260200191505060206040518083038186803b15801561350657600080fd5b505afa15801561351a573d6000803e3d6000fd5b505050506040513d602081101561353057600080fd5b5051604080517f0c3513a800000000000000000000000000000000000000000000000000000000815290519192506000916001600160a01b037f00000000000000000000000000000000000000000000000000000000000000001691630c3513a8916004808301926020929190829003018186803b1580156135b157600080fd5b505afa1580156135c5573d6000803e3d6000fd5b505050506040513d60208110156135db57600080fd5b5051604080517f1eec5a9a0000000000000000000000000000000000000000000000000000000081526001600160a01b0387811660048301526024820186905291519293506000927f000000000000000000000000000000000000000000000000000000000000000090921691631eec5a9a91604480820192602092909190829003018186803b15801561366e57600080fd5b505afa158015613682573d6000803e3d6000fd5b505050506040513d602081101561369857600080fd5b50519050818111156136b05750633b9aca0081029150805b7f00000000000000000000000000000000000000000000000000000000000000006001600160a01b0316630b0eee3086856040518363ffffffff1660e01b815260040180836001600160a01b0316815260200182815260200192505050600060405180830381600087803b15801561372757600080fd5b505af115801561373b573d6000803e3d6000fd5b5050505083156138075760035461375f906001600160a01b03878116911685613a4c565b600354604080517fbc157ac1000000000000000000000000000000000000000000000000000000008152600481018690526001600160a01b038881166024830152604482018590529151919092169163bc157ac19160648083019260209291908290030181600087803b1580156137d557600080fd5b505af11580156137e9573d6000803e3d6000fd5b505050506040513d60208110156137ff57600080fd5b50610e789050565b600354610e78906001600160a01b038781169116856132b8565b600354604080516340c10f1960e01b81523060048201526024810184905290516001600160a01b03909216916340c10f199160448082019260009290919082900301818387803b15801561387457600080fd5b505af1158015613888573d6000803e3d6000fd5b5050600554600480546040805163095ea7b360e01b81526001600160a01b039283169381019390935260248301879052519216935063095ea7b392506044808201926020929091908290030181600087803b1580156138e657600080fd5b505af11580156138fa573d6000803e3d6000fd5b505050506040513d602081101561391057600080fd5b505060048054604080517fd866c9d80000000000000000000000000000000000000000000000000000000081523093810193909352602483018490526000604484018190526001606485015290516001600160a01b039092169263d866c9d89260848083019360209383900390910190829087803b15801561399157600080fd5b505af11580156139a5573d6000803e3d6000fd5b505050506040513d60208110156139bb57600080fd5b50506040805182815290517fc4c14883ae9fd8e26d5d59e3485ed29fd126d781d7e498a4ca5c54c8268e49369181900360200190a150565b600082613a0257506000613491565b82820282848281613a0f57fe5b041461348e5760405162461bcd60e51b8152600401808060200182810382526021815260200180613bb06021913960400191505060405180910390fd5b604080516001600160a01b038481166024830152604480830185905283518084039091018152606490920183526020820180516001600160e01b031663095ea7b360e01b178152925182516000946060949389169392918291908083835b60208310613ac95780518252601f199092019160209182019101613aaa565b6001836020036101000a0380198251168184511680821785525050505050509050019150506000604051808303816000865af19150503d8060008114613b2b576040519150601f19603f3d011682016040523d82523d6000602084013e613b30565b606091505b5091509150818015613b5e575080511580613b5e5750808060200190516020811015613b5b57600080fd5b50515b610e78576040805162461bcd60e51b815260206004820152600e60248201527f415050524f56455f4641494c4544000000000000000000000000000000000000604482015290519081900360640190fdfe536166654d6174683a206d756c7469706c69636174696f6e206f766572666c6f7757697468647261772076616c7565206d7573742062652067726561746572207468616e2030a264697066735822122053215fd6c64dd0c974acc83fb19d0ffedde25ddbd112fb415b37ab58672056fe64736f6c63430007050033",
					"opcodes": "PUSH2 0x1C0 PUSH1 0x40 MSTORE PUSH1 0xC PUSH2 0x180 DUP2 SWAP1 MSTORE PUSH12 0x15539055551213D492569151 PUSH1 0xA2 SHL PUSH2 0x1A0 SWAP1 DUP2 MSTORE PUSH3 0x32 SWAP2 PUSH1 0x0 SWAP2 SWAP1 PUSH3 0x3E5 JUMP JUMPDEST POP CALLVALUE DUP1 ISZERO PUSH3 0x40 JUMPI PUSH1 0x0 DUP1 REVERT JUMPDEST POP PUSH1 0x40 MLOAD PUSH3 0x4201 CODESIZE SUB DUP1 PUSH3 0x4201 DUP4 CODECOPY DUP2 DUP2 ADD PUSH1 0x40 MSTORE PUSH2 0x120 DUP2 LT ISZERO PUSH3 0x67 JUMPI PUSH1 0x0 DUP1 REVERT JUMPDEST POP DUP1 MLOAD PUSH1 0x20 DUP3 ADD MLOAD PUSH1 0x40 DUP1 DUP5 ADD MLOAD PUSH1 0x60 DUP6 ADD MLOAD PUSH1 0x80 DUP7 ADD MLOAD PUSH1 0xA0 DUP8 ADD MLOAD PUSH1 0xC0 DUP9 ADD MLOAD PUSH1 0xE0 DUP10 ADD MLOAD PUSH2 0x100 SWAP1 SWAP10 ADD MLOAD PUSH1 0x1 DUP1 SLOAD PUSH1 0x1 PUSH1 0x1 PUSH1 0xA0 SHL SUB NOT AND PUSH1 0x1 PUSH1 0x1 PUSH1 0xA0 SHL SUB DUP4 AND SWAP1 DUP2 OR SWAP1 SWAP2 SSTORE SWAP7 MLOAD SWAP9 SWAP10 SWAP8 SWAP9 SWAP6 SWAP8 SWAP5 SWAP7 SWAP4 SWAP6 SWAP3 SWAP5 SWAP2 SWAP4 SWAP2 SWAP3 SWAP1 SWAP2 DUP3 SWAP2 PUSH32 0x2F658B440C35314F52658EA8A740E05B284CDC84DC9AE01E891F21B8933E7CAD SWAP1 PUSH1 0x0 SWAP1 LOG2 POP PUSH1 0x1 PUSH1 0x1 PUSH1 0xA0 SHL SUB DUP10 AND PUSH3 0x140 JUMPI PUSH1 0x40 DUP1 MLOAD PUSH3 0x461BCD PUSH1 0xE5 SHL DUP2 MSTORE PUSH1 0x20 PUSH1 0x4 DUP3 ADD MSTORE PUSH1 0x11 PUSH1 0x24 DUP3 ADD MSTORE PUSH17 0x5A65726F20616464726573733A2045584F PUSH1 0x78 SHL PUSH1 0x44 DUP3 ADD MSTORE SWAP1 MLOAD SWAP1 DUP2 SWAP1 SUB PUSH1 0x64 ADD SWAP1 REVERT JUMPDEST PUSH1 0x1 PUSH1 0x1 PUSH1 0x60 SHL SUB NOT PUSH1 0x60 DUP11 SWAP1 SHL AND PUSH1 0x80 MSTORE PUSH1 0x1 PUSH1 0x1 PUSH1 0xA0 SHL SUB DUP9 AND PUSH3 0x1A3 JUMPI PUSH1 0x40 DUP1 MLOAD PUSH3 0x461BCD PUSH1 0xE5 SHL DUP2 MSTORE PUSH1 0x20 PUSH1 0x4 DUP3 ADD MSTORE PUSH1 0x12 PUSH1 0x24 DUP3 ADD MSTORE PUSH18 0x5A65726F20616464726573733A207345584F PUSH1 0x70 SHL PUSH1 0x44 DUP3 ADD MSTORE SWAP1 MLOAD SWAP1 DUP2 SWAP1 SUB PUSH1 0x64 ADD SWAP1 REVERT JUMPDEST PUSH1 0x1 PUSH1 0x1 PUSH1 0x60 SHL SUB NOT PUSH1 0x60 DUP10 SWAP1 SHL AND PUSH1 0xA0 MSTORE PUSH1 0x1 PUSH1 0x1 PUSH1 0xA0 SHL SUB DUP8 AND PUSH3 0x211 JUMPI PUSH1 0x40 DUP1 MLOAD PUSH3 0x461BCD PUSH1 0xE5 SHL DUP2 MSTORE PUSH1 0x20 PUSH1 0x4 DUP3 ADD MSTORE PUSH1 0x16 PUSH1 0x24 DUP3 ADD MSTORE PUSH32 0x5A65726F20616464726573733A20547265617375727900000000000000000000 PUSH1 0x44 DUP3 ADD MSTORE SWAP1 MLOAD SWAP1 DUP2 SWAP1 SUB PUSH1 0x64 ADD SWAP1 REVERT JUMPDEST PUSH1 0x1 PUSH1 0x1 PUSH1 0x60 SHL SUB NOT PUSH1 0x60 DUP9 SWAP1 SHL AND PUSH1 0xE0 MSTORE PUSH1 0x1 PUSH1 0x1 PUSH1 0xA0 SHL SUB DUP7 AND PUSH3 0x27F JUMPI PUSH1 0x40 DUP1 MLOAD PUSH3 0x461BCD PUSH1 0xE5 SHL DUP2 MSTORE PUSH1 0x20 PUSH1 0x4 DUP3 ADD MSTORE PUSH1 0x15 PUSH1 0x24 DUP3 ADD MSTORE PUSH32 0x5A65726F20616464726573733A205374616B696E670000000000000000000000 PUSH1 0x44 DUP3 ADD MSTORE SWAP1 MLOAD SWAP1 DUP2 SWAP1 SUB PUSH1 0x64 ADD SWAP1 REVERT JUMPDEST PUSH1 0x1 PUSH1 0x1 PUSH1 0x60 SHL SUB NOT PUSH1 0x60 DUP8 SWAP1 SHL AND PUSH2 0x100 MSTORE PUSH1 0x1 PUSH1 0x1 PUSH1 0xA0 SHL SUB DUP6 AND PUSH3 0x2EE JUMPI PUSH1 0x40 DUP1 MLOAD PUSH3 0x461BCD PUSH1 0xE5 SHL DUP2 MSTORE PUSH1 0x20 PUSH1 0x4 DUP3 ADD MSTORE PUSH1 0x13 PUSH1 0x24 DUP3 ADD MSTORE PUSH32 0x5A65726F20616464726573733A20777345584F00000000000000000000000000 PUSH1 0x44 DUP3 ADD MSTORE SWAP1 MLOAD SWAP1 DUP2 SWAP1 SUB PUSH1 0x64 ADD SWAP1 REVERT JUMPDEST PUSH1 0x1 PUSH1 0x1 PUSH1 0x60 SHL SUB NOT PUSH1 0x60 DUP7 SWAP1 SHL AND PUSH1 0xC0 MSTORE PUSH1 0x1 PUSH1 0x1 PUSH1 0xA0 SHL SUB DUP5 AND PUSH3 0x35C JUMPI PUSH1 0x40 DUP1 MLOAD PUSH3 0x461BCD PUSH1 0xE5 SHL DUP2 MSTORE PUSH1 0x20 PUSH1 0x4 DUP3 ADD MSTORE PUSH1 0x13 PUSH1 0x24 DUP3 ADD MSTORE PUSH32 0x5A65726F20616464726573733A20537573686900000000000000000000000000 PUSH1 0x44 DUP3 ADD MSTORE SWAP1 MLOAD SWAP1 DUP2 SWAP1 SUB PUSH1 0x64 ADD SWAP1 REVERT JUMPDEST PUSH1 0x1 PUSH1 0x1 PUSH1 0x60 SHL SUB NOT PUSH1 0x60 DUP6 SWAP1 SHL AND PUSH2 0x120 MSTORE PUSH1 0x1 PUSH1 0x1 PUSH1 0xA0 SHL SUB DUP4 AND PUSH3 0x3BF JUMPI PUSH1 0x40 DUP1 MLOAD PUSH3 0x461BCD PUSH1 0xE5 SHL DUP2 MSTORE PUSH1 0x20 PUSH1 0x4 DUP3 ADD MSTORE PUSH1 0x11 PUSH1 0x24 DUP3 ADD MSTORE PUSH17 0x5A65726F20616464726573733A20556E69 PUSH1 0x78 SHL PUSH1 0x44 DUP3 ADD MSTORE SWAP1 MLOAD SWAP1 DUP2 SWAP1 SUB PUSH1 0x64 ADD SWAP1 REVERT JUMPDEST POP PUSH1 0x60 SWAP2 SWAP1 SWAP2 SHL PUSH1 0x1 PUSH1 0x1 PUSH1 0x60 SHL SUB NOT AND PUSH2 0x140 MSTORE PUSH2 0x160 MSTORE POP PUSH3 0x491 SWAP5 POP POP POP POP POP JUMP JUMPDEST DUP3 DUP1 SLOAD PUSH1 0x1 DUP2 PUSH1 0x1 AND ISZERO PUSH2 0x100 MUL SUB AND PUSH1 0x2 SWAP1 DIV SWAP1 PUSH1 0x0 MSTORE PUSH1 0x20 PUSH1 0x0 KECCAK256 SWAP1 PUSH1 0x1F ADD PUSH1 0x20 SWAP1 DIV DUP2 ADD SWAP3 DUP3 PUSH3 0x41D JUMPI PUSH1 0x0 DUP6 SSTORE PUSH3 0x468 JUMP JUMPDEST DUP3 PUSH1 0x1F LT PUSH3 0x438 JUMPI DUP1 MLOAD PUSH1 0xFF NOT AND DUP4 DUP1 ADD OR DUP6 SSTORE PUSH3 0x468 JUMP JUMPDEST DUP3 DUP1 ADD PUSH1 0x1 ADD DUP6 SSTORE DUP3 ISZERO PUSH3 0x468 JUMPI SWAP2 DUP3 ADD JUMPDEST DUP3 DUP2 GT ISZERO PUSH3 0x468 JUMPI DUP3 MLOAD DUP3 SSTORE SWAP2 PUSH1 0x20 ADD SWAP2 SWAP1 PUSH1 0x1 ADD SWAP1 PUSH3 0x44B JUMP JUMPDEST POP PUSH3 0x476 SWAP3 SWAP2 POP PUSH3 0x47A JUMP JUMPDEST POP SWAP1 JUMP JUMPDEST JUMPDEST DUP1 DUP3 GT ISZERO PUSH3 0x476 JUMPI PUSH1 0x0 DUP2 SSTORE PUSH1 0x1 ADD PUSH3 0x47B JUMP JUMPDEST PUSH1 0x80 MLOAD PUSH1 0x60 SHR PUSH1 0xA0 MLOAD PUSH1 0x60 SHR PUSH1 0xC0 MLOAD PUSH1 0x60 SHR PUSH1 0xE0 MLOAD PUSH1 0x60 SHR PUSH2 0x100 MLOAD PUSH1 0x60 SHR PUSH2 0x120 MLOAD PUSH1 0x60 SHR PUSH2 0x140 MLOAD PUSH1 0x60 SHR PUSH2 0x160 MLOAD PUSH2 0x3C2B PUSH3 0x5D6 PUSH1 0x0 CODECOPY DUP1 PUSH2 0x811 MSTORE DUP1 PUSH2 0x1551 MSTORE POP DUP1 PUSH2 0x11C0 MSTORE DUP1 PUSH2 0x251D MSTORE POP DUP1 PUSH2 0x1059 MSTORE DUP1 PUSH2 0x24F4 MSTORE POP DUP1 PUSH2 0xE90 MSTORE DUP1 PUSH2 0x1E59 MSTORE DUP1 PUSH2 0x1F47 MSTORE POP DUP1 PUSH2 0x1ABF MSTORE DUP1 PUSH2 0x20A1 MSTORE DUP1 PUSH2 0x2174 MSTORE DUP1 PUSH2 0x23C1 MSTORE DUP1 PUSH2 0x248E MSTORE DUP1 PUSH2 0x34AA MSTORE DUP1 PUSH2 0x356B MSTORE DUP1 PUSH2 0x3625 MSTORE DUP1 PUSH2 0x36B2 MSTORE POP DUP1 PUSH2 0x4CB MSTORE DUP1 PUSH2 0x65D MSTORE DUP1 PUSH2 0xD0A MSTORE DUP1 PUSH2 0x1298 MSTORE DUP1 PUSH2 0x13DE MSTORE DUP1 PUSH2 0x1CAE MSTORE DUP1 PUSH2 0x22A0 MSTORE DUP1 PUSH2 0x2A05 MSTORE DUP1 PUSH2 0x2C41 MSTORE DUP1 PUSH2 0x2C78 MSTORE POP DUP1 PUSH2 0x628 MSTORE DUP1 PUSH2 0xC83 MSTORE DUP1 PUSH2 0x1035 MSTORE DUP1 PUSH2 0x1396 MSTORE DUP1 PUSH2 0x19DA MSTORE DUP1 PUSH2 0x1DCE MSTORE DUP1 PUSH2 0x1E8D MSTORE DUP1 PUSH2 0x2948 MSTORE DUP1 PUSH2 0x2C06 MSTORE POP DUP1 PUSH2 0x5DA MSTORE DUP1 PUSH2 0x69C MSTORE DUP1 PUSH2 0x7ED MSTORE DUP1 PUSH2 0xBFC MSTORE DUP1 PUSH2 0x1349 MSTORE DUP1 PUSH2 0x18BD MSTORE DUP1 PUSH2 0x1FA6 MSTORE DUP1 PUSH2 0x2072 MSTORE DUP1 PUSH2 0x25F9 MSTORE DUP1 PUSH2 0x2A9D MSTORE DUP1 PUSH2 0x2B4A MSTORE DUP1 PUSH2 0x2BCB MSTORE DUP1 PUSH2 0x2D25 MSTORE POP PUSH2 0x3C2B PUSH1 0x0 RETURN INVALID PUSH1 0x80 PUSH1 0x40 MSTORE CALLVALUE DUP1 ISZERO PUSH2 0x10 JUMPI PUSH1 0x0 DUP1 REVERT JUMPDEST POP PUSH1 0x4 CALLDATASIZE LT PUSH2 0x1CF JUMPI PUSH1 0x0 CALLDATALOAD PUSH1 0xE0 SHR DUP1 PUSH4 0x7A9E5E4B GT PUSH2 0x104 JUMPI DUP1 PUSH4 0xD6FA3760 GT PUSH2 0xA2 JUMPI DUP1 PUSH4 0xEC78F90B GT PUSH2 0x71 JUMPI DUP1 PUSH4 0xEC78F90B EQ PUSH2 0x426 JUMPI DUP1 PUSH4 0xED44527B EQ PUSH2 0x446 JUMPI DUP1 PUSH4 0xF96A6006 EQ PUSH2 0x44E JUMPI DUP1 PUSH4 0xFC0E74D1 EQ PUSH2 0x474 JUMPI PUSH2 0x1CF JUMP JUMPDEST DUP1 PUSH4 0xD6FA3760 EQ PUSH2 0x39A JUMPI DUP1 PUSH4 0xD8212545 EQ PUSH2 0x3C0 JUMPI DUP1 PUSH4 0xDFD9E685 EQ PUSH2 0x3C8 JUMPI DUP1 PUSH4 0xE3C8BC0D EQ PUSH2 0x40A JUMPI PUSH2 0x1CF JUMP JUMPDEST DUP1 PUSH4 0xB29C7444 GT PUSH2 0xDE JUMPI DUP1 PUSH4 0xB29C7444 EQ PUSH2 0x33A JUMPI DUP1 PUSH4 0xB71A6DF3 EQ PUSH2 0x342 JUMPI DUP1 PUSH4 0xBF7E214F EQ PUSH2 0x38A JUMPI DUP1 PUSH4 0xCF0EF516 EQ PUSH2 0x392 JUMPI PUSH2 0x1CF JUMP JUMPDEST DUP1 PUSH4 0x7A9E5E4B EQ PUSH2 0x2E6 JUMPI DUP1 PUSH4 0xA0E47BF6 EQ PUSH2 0x30C JUMPI DUP1 PUSH4 0xABACBB2F EQ PUSH2 0x314 JUMPI PUSH2 0x1CF JUMP JUMPDEST DUP1 PUSH4 0x4579B8B4 GT PUSH2 0x171 JUMPI DUP1 PUSH4 0x5ED7CA5B GT PUSH2 0x14B JUMPI DUP1 PUSH4 0x5ED7CA5B EQ PUSH2 0x2C6 JUMPI DUP1 PUSH4 0x694D6635 EQ PUSH2 0x2CE JUMPI DUP1 PUSH4 0x6C8374AC EQ PUSH2 0x2D6 JUMPI DUP1 PUSH4 0x6D13582C EQ PUSH2 0x2DE JUMPI PUSH2 0x1CF JUMP JUMPDEST DUP1 PUSH4 0x4579B8B4 EQ PUSH2 0x2AE JUMPI DUP1 PUSH4 0x4EDF8980 EQ PUSH2 0x2B6 JUMPI DUP1 PUSH4 0x5C5FADC1 EQ PUSH2 0x2BE JUMPI PUSH2 0x1CF JUMP JUMPDEST DUP1 PUSH4 0x219A1F81 GT PUSH2 0x1AD JUMPI DUP1 PUSH4 0x219A1F81 EQ PUSH2 0x242 JUMPI DUP1 PUSH4 0x245C0E99 EQ PUSH2 0x24A JUMPI DUP1 PUSH4 0x2AF36B43 EQ PUSH2 0x270 JUMPI DUP1 PUSH4 0x3CCDBB28 EQ PUSH2 0x278 JUMPI PUSH2 0x1CF JUMP JUMPDEST DUP1 PUSH4 0x465F072 EQ PUSH2 0x1D4 JUMPI DUP1 PUSH4 0x5850844 EQ PUSH2 0x204 JUMPI DUP1 PUSH4 0x149BAB24 EQ PUSH2 0x21E JUMPI JUMPDEST PUSH1 0x0 DUP1 REVERT JUMPDEST PUSH2 0x202 PUSH1 0x4 DUP1 CALLDATASIZE SUB PUSH1 0x60 DUP2 LT ISZERO PUSH2 0x1EA JUMPI PUSH1 0x0 DUP1 REVERT JUMPDEST POP DUP1 CALLDATALOAD SWAP1 PUSH1 0xFF PUSH1 0x20 DUP3 ADD CALLDATALOAD DUP2 AND SWAP2 PUSH1 0x40 ADD CALLDATALOAD AND PUSH2 0x47C JUMP JUMPDEST STOP JUMPDEST PUSH2 0x20C PUSH2 0x7E5 JUMP JUMPDEST PUSH1 0x40 DUP1 MLOAD SWAP2 DUP3 MSTORE MLOAD SWAP1 DUP2 SWAP1 SUB PUSH1 0x20 ADD SWAP1 RETURN JUMPDEST PUSH2 0x226 PUSH2 0x7EB JUMP JUMPDEST PUSH1 0x40 DUP1 MLOAD PUSH1 0x1 PUSH1 0x1 PUSH1 0xA0 SHL SUB SWAP1 SWAP3 AND DUP3 MSTORE MLOAD SWAP1 DUP2 SWAP1 SUB PUSH1 0x20 ADD SWAP1 RETURN JUMPDEST PUSH2 0x20C PUSH2 0x80F JUMP JUMPDEST PUSH2 0x202 PUSH1 0x4 DUP1 CALLDATASIZE SUB PUSH1 0x20 DUP2 LT ISZERO PUSH2 0x260 JUMPI PUSH1 0x0 DUP1 REVERT JUMPDEST POP CALLDATALOAD PUSH1 0x1 PUSH1 0x1 PUSH1 0xA0 SHL SUB AND PUSH2 0x833 JUMP JUMPDEST PUSH2 0x226 PUSH2 0xA41 JUMP JUMPDEST PUSH2 0x202 PUSH1 0x4 DUP1 CALLDATASIZE SUB PUSH1 0x60 DUP2 LT ISZERO PUSH2 0x28E JUMPI PUSH1 0x0 DUP1 REVERT JUMPDEST POP PUSH1 0x1 PUSH1 0x1 PUSH1 0xA0 SHL SUB DUP2 CALLDATALOAD DUP2 AND SWAP2 PUSH1 0x20 DUP2 ADD CALLDATALOAD SWAP2 PUSH1 0x40 SWAP1 SWAP2 ADD CALLDATALOAD AND PUSH2 0xA50 JUMP JUMPDEST PUSH2 0x226 PUSH2 0xE7F JUMP JUMPDEST PUSH2 0x226 PUSH2 0xE8E JUMP JUMPDEST PUSH2 0x226 PUSH2 0xEB2 JUMP JUMPDEST PUSH2 0x202 PUSH2 0xEC1 JUMP JUMPDEST PUSH2 0x20C PUSH2 0x102D JUMP JUMPDEST PUSH2 0x226 PUSH2 0x1033 JUMP JUMPDEST PUSH2 0x226 PUSH2 0x1057 JUMP JUMPDEST PUSH2 0x202 PUSH1 0x4 DUP1 CALLDATASIZE SUB PUSH1 0x20 DUP2 LT ISZERO PUSH2 0x2FC JUMPI PUSH1 0x0 DUP1 REVERT JUMPDEST POP CALLDATALOAD PUSH1 0x1 PUSH1 0x1 PUSH1 0xA0 SHL SUB AND PUSH2 0x107B JUMP JUMPDEST PUSH2 0x226 PUSH2 0x11BE JUMP JUMPDEST PUSH2 0x202 PUSH1 0x4 DUP1 CALLDATASIZE SUB PUSH1 0x40 DUP2 LT ISZERO PUSH2 0x32A JUMPI PUSH1 0x0 DUP1 REVERT JUMPDEST POP DUP1 CALLDATALOAD SWAP1 PUSH1 0x20 ADD CALLDATALOAD PUSH1 0xFF AND PUSH2 0x11E2 JUMP JUMPDEST PUSH2 0x202 PUSH2 0x140A JUMP JUMPDEST PUSH2 0x202 PUSH1 0x4 DUP1 CALLDATASIZE SUB PUSH1 0xA0 DUP2 LT ISZERO PUSH2 0x358 JUMPI PUSH1 0x0 DUP1 REVERT JUMPDEST POP PUSH1 0x1 PUSH1 0x1 PUSH1 0xA0 SHL SUB DUP2 CALLDATALOAD DUP2 AND SWAP2 PUSH1 0x20 DUP2 ADD CALLDATALOAD DUP3 AND SWAP2 PUSH1 0x40 DUP3 ADD CALLDATALOAD DUP2 AND SWAP2 PUSH1 0x60 DUP2 ADD CALLDATALOAD DUP3 AND SWAP2 PUSH1 0x80 SWAP1 SWAP2 ADD CALLDATALOAD AND PUSH2 0x15B7 JUMP JUMPDEST PUSH2 0x226 PUSH2 0x1AAE JUMP JUMPDEST PUSH2 0x226 PUSH2 0x1ABD JUMP JUMPDEST PUSH2 0x202 PUSH1 0x4 DUP1 CALLDATASIZE SUB PUSH1 0x20 DUP2 LT ISZERO PUSH2 0x3B0 JUMPI PUSH1 0x0 DUP1 REVERT JUMPDEST POP CALLDATALOAD PUSH1 0x1 PUSH1 0x1 PUSH1 0xA0 SHL SUB AND PUSH2 0x1AE1 JUMP JUMPDEST PUSH2 0x226 PUSH2 0x229E JUMP JUMPDEST PUSH2 0x202 PUSH1 0x4 DUP1 CALLDATASIZE SUB PUSH1 0xA0 DUP2 LT ISZERO PUSH2 0x3DE JUMPI PUSH1 0x0 DUP1 REVERT JUMPDEST POP PUSH1 0x1 PUSH1 0x1 PUSH1 0xA0 SHL SUB DUP2 CALLDATALOAD DUP2 AND SWAP2 PUSH1 0x20 DUP2 ADD CALLDATALOAD ISZERO ISZERO SWAP2 PUSH1 0x40 DUP3 ADD CALLDATALOAD AND SWAP1 PUSH1 0x60 DUP2 ADD CALLDATALOAD SWAP1 PUSH1 0x80 ADD CALLDATALOAD PUSH2 0x22C2 JUMP JUMPDEST PUSH2 0x412 PUSH2 0x28E8 JUMP JUMPDEST PUSH1 0x40 DUP1 MLOAD SWAP2 ISZERO ISZERO DUP3 MSTORE MLOAD SWAP1 DUP2 SWAP1 SUB PUSH1 0x20 ADD SWAP1 RETURN JUMPDEST PUSH2 0x202 PUSH1 0x4 DUP1 CALLDATASIZE SUB PUSH1 0x20 DUP2 LT ISZERO PUSH2 0x43C JUMPI PUSH1 0x0 DUP1 REVERT JUMPDEST POP CALLDATALOAD PUSH1 0xFF AND PUSH2 0x28F8 JUMP JUMPDEST PUSH2 0x226 PUSH2 0x2E6E JUMP JUMPDEST PUSH2 0x202 PUSH1 0x4 DUP1 CALLDATASIZE SUB PUSH1 0x20 DUP2 LT ISZERO PUSH2 0x464 JUMPI PUSH1 0x0 DUP1 REVERT JUMPDEST POP CALLDATALOAD PUSH1 0x1 PUSH1 0x1 PUSH1 0xA0 SHL SUB AND PUSH2 0x2E7D JUMP JUMPDEST PUSH2 0x412 PUSH2 0x2F77 JUMP JUMPDEST PUSH1 0x5 SLOAD PUSH1 0x1 PUSH1 0xA8 SHL SWAP1 DIV PUSH1 0xFF AND ISZERO PUSH2 0x4C7 JUMPI PUSH1 0x40 DUP1 MLOAD PUSH3 0x461BCD PUSH1 0xE5 SHL DUP2 MSTORE PUSH1 0x20 PUSH1 0x4 DUP3 ADD MSTORE PUSH1 0x9 PUSH1 0x24 DUP3 ADD MSTORE PUSH9 0x29B43ABA103237BBB7 PUSH1 0xB9 SHL PUSH1 0x44 DUP3 ADD MSTORE SWAP1 MLOAD SWAP1 DUP2 SWAP1 SUB PUSH1 0x64 ADD SWAP1 REVERT JUMPDEST PUSH1 0x0 PUSH32 0x0 PUSH1 0x1 PUSH1 0x1 PUSH1 0xA0 SHL SUB AND PUSH4 0x73F79C04 DUP6 PUSH1 0x40 MLOAD DUP3 PUSH4 0xFFFFFFFF AND PUSH1 0xE0 SHL DUP2 MSTORE PUSH1 0x4 ADD DUP1 DUP3 DUP2 MSTORE PUSH1 0x20 ADD SWAP2 POP POP PUSH1 0x20 PUSH1 0x40 MLOAD DUP1 DUP4 SUB DUP2 DUP7 DUP1 EXTCODESIZE ISZERO DUP1 ISZERO PUSH2 0x52D JUMPI PUSH1 0x0 DUP1 REVERT JUMPDEST POP GAS STATICCALL ISZERO DUP1 ISZERO PUSH2 0x541 JUMPI RETURNDATASIZE PUSH1 0x0 DUP1 RETURNDATACOPY RETURNDATASIZE PUSH1 0x0 REVERT JUMPDEST POP POP POP POP PUSH1 0x40 MLOAD RETURNDATASIZE PUSH1 0x20 DUP2 LT ISZERO PUSH2 0x557 JUMPI PUSH1 0x0 DUP1 REVERT JUMPDEST POP MLOAD SWAP1 POP PUSH1 0x0 DUP4 PUSH1 0x2 DUP2 GT ISZERO PUSH2 0x569 JUMPI INVALID JUMPDEST EQ ISZERO PUSH2 0x607 JUMPI PUSH1 0x5 SLOAD PUSH1 0x1 PUSH1 0xA0 SHL SWAP1 DIV PUSH1 0xFF AND PUSH2 0x5CD JUMPI PUSH1 0x40 DUP1 MLOAD PUSH3 0x461BCD PUSH1 0xE5 SHL DUP2 MSTORE PUSH1 0x20 PUSH1 0x4 DUP3 ADD MSTORE PUSH1 0x1B PUSH1 0x24 DUP3 ADD MSTORE PUSH32 0x4F6E6C79207374616B656420756E74696C206D6967726174696F6E0000000000 PUSH1 0x44 DUP3 ADD MSTORE SWAP1 MLOAD SWAP1 DUP2 SWAP1 SUB PUSH1 0x64 ADD SWAP1 REVERT JUMPDEST PUSH2 0x602 PUSH1 0x1 PUSH1 0x1 PUSH1 0xA0 SHL SUB PUSH32 0x0 AND CALLER ADDRESS DUP8 PUSH2 0x2F87 JUMP JUMPDEST PUSH2 0x688 JUMP JUMPDEST PUSH1 0x1 DUP4 PUSH1 0x2 DUP2 GT ISZERO PUSH2 0x615 JUMPI INVALID JUMPDEST EQ ISZERO PUSH2 0x650 JUMPI PUSH2 0x602 PUSH1 0x1 PUSH1 0x1 PUSH1 0xA0 SHL SUB PUSH32 0x0 AND CALLER ADDRESS DUP8 PUSH2 0x2F87 JUMP JUMPDEST PUSH2 0x685 PUSH1 0x1 PUSH1 0x1 PUSH1 0xA0 SHL SUB PUSH32 0x0 AND CALLER ADDRESS DUP8 PUSH2 0x2F87 JUMP JUMPDEST POP DUP3 JUMPDEST PUSH1 0x5 SLOAD PUSH1 0x1 PUSH1 0xA0 SHL SWAP1 DIV PUSH1 0xFF AND ISZERO PUSH2 0x773 JUMPI PUSH32 0x0 PUSH1 0x1 PUSH1 0x1 PUSH1 0xA0 SHL SUB AND PUSH4 0x18160DDD PUSH1 0x40 MLOAD DUP2 PUSH4 0xFFFFFFFF AND PUSH1 0xE0 SHL DUP2 MSTORE PUSH1 0x4 ADD PUSH1 0x20 PUSH1 0x40 MLOAD DUP1 DUP4 SUB DUP2 DUP7 DUP1 EXTCODESIZE ISZERO DUP1 ISZERO PUSH2 0x6F3 JUMPI PUSH1 0x0 DUP1 REVERT JUMPDEST POP GAS STATICCALL ISZERO DUP1 ISZERO PUSH2 0x707 JUMPI RETURNDATASIZE PUSH1 0x0 DUP1 RETURNDATACOPY RETURNDATASIZE PUSH1 0x0 REVERT JUMPDEST POP POP POP POP PUSH1 0x40 MLOAD RETURNDATASIZE PUSH1 0x20 DUP2 LT ISZERO PUSH2 0x71D JUMPI PUSH1 0x0 DUP1 REVERT JUMPDEST POP MLOAD PUSH1 0x7 SLOAD LT ISZERO PUSH2 0x764 JUMPI PUSH1 0x40 DUP1 MLOAD PUSH3 0x461BCD PUSH1 0xE5 SHL DUP2 MSTORE PUSH1 0x20 PUSH1 0x4 DUP3 ADD MSTORE PUSH1 0xC PUSH1 0x24 DUP3 ADD MSTORE PUSH12 0x13D2135D8C481B5A5B9D1959 PUSH1 0xA2 SHL PUSH1 0x44 DUP3 ADD MSTORE SWAP1 MLOAD SWAP1 DUP2 SWAP1 SUB PUSH1 0x64 ADD SWAP1 REVERT JUMPDEST PUSH2 0x76E DUP2 DUP4 PUSH2 0x3113 JUMP JUMPDEST PUSH2 0x7DF JUMP JUMPDEST PUSH1 0x2 SLOAD PUSH1 0x40 DUP1 MLOAD PUSH4 0x40C10F19 PUSH1 0xE0 SHL DUP2 MSTORE CALLER PUSH1 0x4 DUP3 ADD MSTORE PUSH1 0x24 DUP2 ADD DUP5 SWAP1 MSTORE SWAP1 MLOAD PUSH1 0x1 PUSH1 0x1 PUSH1 0xA0 SHL SUB SWAP1 SWAP3 AND SWAP2 PUSH4 0x40C10F19 SWAP2 PUSH1 0x44 DUP1 DUP3 ADD SWAP3 PUSH1 0x0 SWAP3 SWAP1 SWAP2 SWAP1 DUP3 SWAP1 SUB ADD DUP2 DUP4 DUP8 DUP1 EXTCODESIZE ISZERO DUP1 ISZERO PUSH2 0x7C6 JUMPI PUSH1 0x0 DUP1 REVERT JUMPDEST POP GAS CALL ISZERO DUP1 ISZERO PUSH2 0x7DA JUMPI RETURNDATASIZE PUSH1 0x0 DUP1 RETURNDATACOPY RETURNDATASIZE PUSH1 0x0 REVERT JUMPDEST POP POP POP POP JUMPDEST POP POP POP POP JUMP JUMPDEST PUSH1 0x7 SLOAD DUP2 JUMP JUMPDEST PUSH32 0x0 DUP2 JUMP JUMPDEST PUSH32 0x0 DUP2 JUMP JUMPDEST PUSH1 0x1 PUSH1 0x0 SWAP1 SLOAD SWAP1 PUSH2 0x100 EXP SWAP1 DIV PUSH1 0x1 PUSH1 0x1 PUSH1 0xA0 SHL SUB AND PUSH1 0x1 PUSH1 0x1 PUSH1 0xA0 SHL SUB AND PUSH4 0xC340A24 PUSH1 0x40 MLOAD DUP2 PUSH4 0xFFFFFFFF AND PUSH1 0xE0 SHL DUP2 MSTORE PUSH1 0x4 ADD PUSH1 0x20 PUSH1 0x40 MLOAD DUP1 DUP4 SUB DUP2 DUP7 DUP1 EXTCODESIZE ISZERO DUP1 ISZERO PUSH2 0x881 JUMPI PUSH1 0x0 DUP1 REVERT JUMPDEST POP GAS STATICCALL ISZERO DUP1 ISZERO PUSH2 0x895 JUMPI RETURNDATASIZE PUSH1 0x0 DUP1 RETURNDATACOPY RETURNDATASIZE PUSH1 0x0 REVERT JUMPDEST POP POP POP POP PUSH1 0x40 MLOAD RETURNDATASIZE PUSH1 0x20 DUP2 LT ISZERO PUSH2 0x8AB JUMPI PUSH1 0x0 DUP1 REVERT JUMPDEST POP MLOAD PUSH1 0x0 SWAP1 PUSH1 0x1 PUSH1 0x1 PUSH1 0xA0 SHL SUB AND CALLER EQ PUSH2 0x958 JUMPI PUSH1 0x40 MLOAD PUSH3 0x461BCD PUSH1 0xE5 SHL DUP2 MSTORE PUSH1 0x20 PUSH1 0x4 DUP3 ADD SWAP1 DUP2 MSTORE DUP3 SLOAD PUSH1 0x2 PUSH1 0x0 NOT PUSH2 0x100 PUSH1 0x1 DUP5 AND ISZERO MUL ADD SWAP1 SWAP2 AND DIV PUSH1 0x24 DUP4 ADD DUP2 SWAP1 MSTORE SWAP1 SWAP2 DUP3 SWAP2 PUSH1 0x44 SWAP1 SWAP2 ADD SWAP1 DUP5 SWAP1 DUP1 ISZERO PUSH2 0x949 JUMPI DUP1 PUSH1 0x1F LT PUSH2 0x91E JUMPI PUSH2 0x100 DUP1 DUP4 SLOAD DIV MUL DUP4 MSTORE SWAP2 PUSH1 0x20 ADD SWAP2 PUSH2 0x949 JUMP JUMPDEST DUP3 ADD SWAP2 SWAP1 PUSH1 0x0 MSTORE PUSH1 0x20 PUSH1 0x0 KECCAK256 SWAP1 JUMPDEST DUP2 SLOAD DUP2 MSTORE SWAP1 PUSH1 0x1 ADD SWAP1 PUSH1 0x20 ADD DUP1 DUP4 GT PUSH2 0x92C JUMPI DUP3 SWAP1 SUB PUSH1 0x1F AND DUP3 ADD SWAP2 JUMPDEST POP POP SWAP3 POP POP POP PUSH1 0x40 MLOAD DUP1 SWAP2 SUB SWAP1 REVERT JUMPDEST POP PUSH1 0x2 SLOAD PUSH1 0x1 PUSH1 0x1 PUSH1 0xA0 SHL SUB AND ISZERO PUSH2 0x9B7 JUMPI PUSH1 0x40 DUP1 MLOAD PUSH3 0x461BCD PUSH1 0xE5 SHL DUP2 MSTORE PUSH1 0x20 PUSH1 0x4 DUP3 ADD MSTORE PUSH1 0xB PUSH1 0x24 DUP3 ADD MSTORE PUSH32 0x416C726561647920736574000000000000000000000000000000000000000000 PUSH1 0x44 DUP3 ADD MSTORE SWAP1 MLOAD SWAP1 DUP2 SWAP1 SUB PUSH1 0x64 ADD SWAP1 REVERT JUMPDEST PUSH1 0x1 PUSH1 0x1 PUSH1 0xA0 SHL SUB DUP2 AND PUSH2 0xA12 JUMPI PUSH1 0x40 DUP1 MLOAD PUSH3 0x461BCD PUSH1 0xE5 SHL DUP2 MSTORE PUSH1 0x20 PUSH1 0x4 DUP3 ADD MSTORE PUSH1 0x12 PUSH1 0x24 DUP3 ADD MSTORE PUSH32 0x5A65726F20616464726573733A206745584F0000000000000000000000000000 PUSH1 0x44 DUP3 ADD MSTORE SWAP1 MLOAD SWAP1 DUP2 SWAP1 SUB PUSH1 0x64 ADD SWAP1 REVERT JUMPDEST PUSH1 0x2 DUP1 SLOAD PUSH20 0xFFFFFFFFFFFFFFFFFFFFFFFFFFFFFFFFFFFFFFFF NOT AND PUSH1 0x1 PUSH1 0x1 PUSH1 0xA0 SHL SUB SWAP3 SWAP1 SWAP3 AND SWAP2 SWAP1 SWAP2 OR SWAP1 SSTORE JUMP JUMPDEST PUSH1 0x2 SLOAD PUSH1 0x1 PUSH1 0x1 PUSH1 0xA0 SHL SUB AND DUP2 JUMP JUMPDEST PUSH1 0x1 PUSH1 0x0 SWAP1 SLOAD SWAP1 PUSH2 0x100 EXP SWAP1 DIV PUSH1 0x1 PUSH1 0x1 PUSH1 0xA0 SHL SUB AND PUSH1 0x1 PUSH1 0x1 PUSH1 0xA0 SHL SUB AND PUSH4 0xC340A24 PUSH1 0x40 MLOAD DUP2 PUSH4 0xFFFFFFFF AND PUSH1 0xE0 SHL DUP2 MSTORE PUSH1 0x4 ADD PUSH1 0x20 PUSH1 0x40 MLOAD DUP1 DUP4 SUB DUP2 DUP7 DUP1 EXTCODESIZE ISZERO DUP1 ISZERO PUSH2 0xA9E JUMPI PUSH1 0x0 DUP1 REVERT JUMPDEST POP GAS STATICCALL ISZERO DUP1 ISZERO PUSH2 0xAB2 JUMPI RETURNDATASIZE PUSH1 0x0 DUP1 RETURNDATACOPY RETURNDATASIZE PUSH1 0x0 REVERT JUMPDEST POP POP POP POP PUSH1 0x40 MLOAD RETURNDATASIZE PUSH1 0x20 DUP2 LT ISZERO PUSH2 0xAC8 JUMPI PUSH1 0x0 DUP1 REVERT JUMPDEST POP MLOAD PUSH1 0x0 SWAP1 PUSH1 0x1 PUSH1 0x1 PUSH1 0xA0 SHL SUB AND CALLER EQ PUSH2 0xB3B JUMPI PUSH1 0x40 MLOAD PUSH3 0x461BCD PUSH1 0xE5 SHL DUP2 MSTORE PUSH1 0x20 PUSH1 0x4 DUP3 ADD SWAP1 DUP2 MSTORE DUP3 SLOAD PUSH1 0x2 PUSH1 0x0 NOT PUSH2 0x100 PUSH1 0x1 DUP5 AND ISZERO MUL ADD SWAP1 SWAP2 AND DIV PUSH1 0x24 DUP4 ADD DUP2 SWAP1 MSTORE SWAP1 SWAP2 DUP3 SWAP2 PUSH1 0x44 SWAP1 SWAP2 ADD SWAP1 DUP5 SWAP1 DUP1 ISZERO PUSH2 0x949 JUMPI DUP1 PUSH1 0x1F LT PUSH2 0x91E JUMPI PUSH2 0x100 DUP1 DUP4 SLOAD DIV MUL DUP4 MSTORE SWAP2 PUSH1 0x20 ADD SWAP2 PUSH2 0x949 JUMP JUMPDEST POP PUSH1 0x1 PUSH1 0x1 PUSH1 0xA0 SHL SUB DUP4 AND PUSH2 0xB97 JUMPI PUSH1 0x40 DUP1 MLOAD PUSH3 0x461BCD PUSH1 0xE5 SHL DUP2 MSTORE PUSH1 0x20 PUSH1 0x4 DUP3 ADD MSTORE PUSH1 0x1B PUSH1 0x24 DUP3 ADD MSTORE PUSH32 0x546F6B656E20616464726573732063616E6E6F74206265203078300000000000 PUSH1 0x44 DUP3 ADD MSTORE SWAP1 MLOAD SWAP1 DUP2 SWAP1 SUB PUSH1 0x64 ADD SWAP1 REVERT JUMPDEST PUSH1 0x2 SLOAD PUSH1 0x1 PUSH1 0x1 PUSH1 0xA0 SHL SUB DUP5 DUP2 AND SWAP2 AND EQ ISZERO PUSH2 0xBFA JUMPI PUSH1 0x40 DUP1 MLOAD PUSH3 0x461BCD PUSH1 0xE5 SHL DUP2 MSTORE PUSH1 0x20 PUSH1 0x4 DUP3 ADD MSTORE PUSH1 0x15 PUSH1 0x24 DUP3 ADD MSTORE PUSH32 0x43616E6E6F742077697468647261773A206745584F0000000000000000000000 PUSH1 0x44 DUP3 ADD MSTORE SWAP1 MLOAD SWAP1 DUP2 SWAP1 SUB PUSH1 0x64 ADD SWAP1 REVERT JUMPDEST PUSH32 0x0 PUSH1 0x1 PUSH1 0x1 PUSH1 0xA0 SHL SUB AND DUP4 PUSH1 0x1 PUSH1 0x1 PUSH1 0xA0 SHL SUB AND EQ ISZERO PUSH2 0xC81 JUMPI PUSH1 0x40 DUP1 MLOAD PUSH3 0x461BCD PUSH1 0xE5 SHL DUP2 MSTORE PUSH1 0x20 PUSH1 0x4 DUP3 ADD MSTORE PUSH1 0x18 PUSH1 0x24 DUP3 ADD MSTORE PUSH32 0x43616E6E6F742077697468647261773A206F6C642D45584F0000000000000000 PUSH1 0x44 DUP3 ADD MSTORE SWAP1 MLOAD SWAP1 DUP2 SWAP1 SUB PUSH1 0x64 ADD SWAP1 REVERT JUMPDEST PUSH32 0x0 PUSH1 0x1 PUSH1 0x1 PUSH1 0xA0 SHL SUB AND DUP4 PUSH1 0x1 PUSH1 0x1 PUSH1 0xA0 SHL SUB AND EQ ISZERO PUSH2 0xD08 JUMPI PUSH1 0x40 DUP1 MLOAD PUSH3 0x461BCD PUSH1 0xE5 SHL DUP2 MSTORE PUSH1 0x20 PUSH1 0x4 DUP3 ADD MSTORE PUSH1 0x19 PUSH1 0x24 DUP3 ADD MSTORE PUSH32 0x43616E6E6F742077697468647261773A206F6C642D7345584F00000000000000 PUSH1 0x44 DUP3 ADD MSTORE SWAP1 MLOAD SWAP1 DUP2 SWAP1 SUB PUSH1 0x64 ADD SWAP1 REVERT JUMPDEST PUSH32 0x0 PUSH1 0x1 PUSH1 0x1 PUSH1 0xA0 SHL SUB AND DUP4 PUSH1 0x1 PUSH1 0x1 PUSH1 0xA0 SHL SUB AND EQ ISZERO PUSH2 0xD8F JUMPI PUSH1 0x40 DUP1 MLOAD PUSH3 0x461BCD PUSH1 0xE5 SHL DUP2 MSTORE PUSH1 0x20 PUSH1 0x4 DUP3 ADD MSTORE PUSH1 0x1A PUSH1 0x24 DUP3 ADD MSTORE PUSH32 0x43616E6E6F742077697468647261773A206F6C642D777345584F000000000000 PUSH1 0x44 DUP3 ADD MSTORE SWAP1 MLOAD SWAP1 DUP2 SWAP1 SUB PUSH1 0x64 ADD SWAP1 REVERT JUMPDEST PUSH1 0x0 DUP3 GT PUSH2 0xDCE JUMPI PUSH1 0x40 MLOAD PUSH3 0x461BCD PUSH1 0xE5 SHL DUP2 MSTORE PUSH1 0x4 ADD DUP1 DUP1 PUSH1 0x20 ADD DUP3 DUP2 SUB DUP3 MSTORE PUSH1 0x25 DUP2 MSTORE PUSH1 0x20 ADD DUP1 PUSH2 0x3BD1 PUSH1 0x25 SWAP2 CODECOPY PUSH1 0x40 ADD SWAP2 POP POP PUSH1 0x40 MLOAD DUP1 SWAP2 SUB SWAP1 REVERT JUMPDEST PUSH1 0x1 PUSH1 0x1 PUSH1 0xA0 SHL SUB DUP2 AND PUSH2 0xDDF JUMPI POP CALLER JUMPDEST PUSH1 0x40 DUP1 MLOAD PUSH4 0x70A08231 PUSH1 0xE0 SHL DUP2 MSTORE ADDRESS PUSH1 0x4 DUP3 ADD MSTORE SWAP1 MLOAD DUP5 SWAP2 PUSH1 0x0 SWAP2 PUSH1 0x1 PUSH1 0x1 PUSH1 0xA0 SHL SUB DUP5 AND SWAP2 PUSH4 0x70A08231 SWAP2 PUSH1 0x24 DUP1 DUP4 ADD SWAP3 PUSH1 0x20 SWAP3 SWAP2 SWAP1 DUP3 SWAP1 SUB ADD DUP2 DUP7 DUP1 EXTCODESIZE ISZERO DUP1 ISZERO PUSH2 0xE2A JUMPI PUSH1 0x0 DUP1 REVERT JUMPDEST POP GAS STATICCALL ISZERO DUP1 ISZERO PUSH2 0xE3E JUMPI RETURNDATASIZE PUSH1 0x0 DUP1 RETURNDATACOPY RETURNDATASIZE PUSH1 0x0 REVERT JUMPDEST POP POP POP POP PUSH1 0x40 MLOAD RETURNDATASIZE PUSH1 0x20 DUP2 LT ISZERO PUSH2 0xE54 JUMPI PUSH1 0x0 DUP1 REVERT JUMPDEST POP MLOAD SWAP1 POP DUP1 DUP5 GT ISZERO PUSH2 0xE64 JUMPI DUP1 SWAP4 POP JUMPDEST PUSH2 0xE78 PUSH1 0x1 PUSH1 0x1 PUSH1 0xA0 SHL SUB DUP4 AND DUP5 DUP7 PUSH2 0x32B8 JUMP JUMPDEST POP POP POP POP POP JUMP JUMPDEST PUSH1 0x3 SLOAD PUSH1 0x1 PUSH1 0x1 PUSH1 0xA0 SHL SUB AND DUP2 JUMP JUMPDEST PUSH32 0x0 DUP2 JUMP JUMPDEST PUSH1 0x5 SLOAD PUSH1 0x1 PUSH1 0x1 PUSH1 0xA0 SHL SUB AND DUP2 JUMP JUMPDEST PUSH1 0x1 PUSH1 0x0 SWAP1 SLOAD SWAP1 PUSH2 0x100 EXP SWAP1 DIV PUSH1 0x1 PUSH1 0x1 PUSH1 0xA0 SHL SUB AND PUSH1 0x1 PUSH1 0x1 PUSH1 0xA0 SHL SUB AND PUSH4 0x505C8C9 PUSH1 0x40 MLOAD DUP2 PUSH4 0xFFFFFFFF AND PUSH1 0xE0 SHL DUP2 MSTORE PUSH1 0x4 ADD PUSH1 0x20 PUSH1 0x40 MLOAD DUP1 DUP4 SUB DUP2 DUP7 DUP1 EXTCODESIZE ISZERO DUP1 ISZERO PUSH2 0xF0F JUMPI PUSH1 0x0 DUP1 REVERT JUMPDEST POP GAS STATICCALL ISZERO DUP1 ISZERO PUSH2 0xF23 JUMPI RETURNDATASIZE PUSH1 0x0 DUP1 RETURNDATACOPY RETURNDATASIZE PUSH1 0x0 REVERT JUMPDEST POP POP POP POP PUSH1 0x40 MLOAD RETURNDATASIZE PUSH1 0x20 DUP2 LT ISZERO PUSH2 0xF39 JUMPI PUSH1 0x0 DUP1 REVERT JUMPDEST POP MLOAD PUSH1 0x0 SWAP1 PUSH1 0x1 PUSH1 0x1 PUSH1 0xA0 SHL SUB AND CALLER EQ PUSH2 0xFAC JUMPI PUSH1 0x40 MLOAD PUSH3 0x461BCD PUSH1 0xE5 SHL DUP2 MSTORE PUSH1 0x20 PUSH1 0x4 DUP3 ADD SWAP1 DUP2 MSTORE DUP3 SLOAD PUSH1 0x2 PUSH1 0x0 NOT PUSH2 0x100 PUSH1 0x1 DUP5 AND ISZERO MUL ADD SWAP1 SWAP2 AND DIV PUSH1 0x24 DUP4 ADD DUP2 SWAP1 MSTORE SWAP1 SWAP2 DUP3 SWAP2 PUSH1 0x44 SWAP1 SWAP2 ADD SWAP1 DUP5 SWAP1 DUP1 ISZERO PUSH2 0x949 JUMPI DUP1 PUSH1 0x1F LT PUSH2 0x91E JUMPI PUSH2 0x100 DUP1 DUP4 SLOAD DIV MUL DUP4 MSTORE SWAP2 PUSH1 0x20 ADD SWAP2 PUSH2 0x949 JUMP JUMPDEST POP PUSH1 0x5 SLOAD PUSH1 0x1 PUSH1 0xA0 SHL SWAP1 DIV PUSH1 0xFF AND ISZERO PUSH2 0x100C JUMPI PUSH1 0x40 DUP1 MLOAD PUSH3 0x461BCD PUSH1 0xE5 SHL DUP2 MSTORE PUSH1 0x20 PUSH1 0x4 DUP3 ADD MSTORE PUSH1 0x16 PUSH1 0x24 DUP3 ADD MSTORE PUSH32 0x4D6967726174696F6E20686173206F6363757272656400000000000000000000 PUSH1 0x44 DUP3 ADD MSTORE SWAP1 MLOAD SWAP1 DUP2 SWAP1 SUB PUSH1 0x64 ADD SWAP1 REVERT JUMPDEST PUSH1 0x5 DUP1 SLOAD PUSH1 0xFF PUSH1 0xA8 SHL NOT DUP2 AND PUSH1 0x1 PUSH1 0xA8 SHL SWAP2 DUP3 SWAP1 DIV PUSH1 0xFF AND ISZERO SWAP1 SWAP2 MUL OR SWAP1 SSTORE JUMP JUMPDEST PUSH1 0x6 SLOAD DUP2 JUMP JUMPDEST PUSH32 0x0 DUP2 JUMP JUMPDEST PUSH32 0x0 DUP2 JUMP JUMPDEST PUSH1 0x1 PUSH1 0x0 SWAP1 SLOAD SWAP1 PUSH2 0x100 EXP SWAP1 DIV PUSH1 0x1 PUSH1 0x1 PUSH1 0xA0 SHL SUB AND PUSH1 0x1 PUSH1 0x1 PUSH1 0xA0 SHL SUB AND PUSH4 0xC340A24 PUSH1 0x40 MLOAD DUP2 PUSH4 0xFFFFFFFF AND PUSH1 0xE0 SHL DUP2 MSTORE PUSH1 0x4 ADD PUSH1 0x20 PUSH1 0x40 MLOAD DUP1 DUP4 SUB DUP2 DUP7 DUP1 EXTCODESIZE ISZERO DUP1 ISZERO PUSH2 0x10C9 JUMPI PUSH1 0x0 DUP1 REVERT JUMPDEST POP GAS STATICCALL ISZERO DUP1 ISZERO PUSH2 0x10DD JUMPI RETURNDATASIZE PUSH1 0x0 DUP1 RETURNDATACOPY RETURNDATASIZE PUSH1 0x0 REVERT JUMPDEST POP POP POP POP PUSH1 0x40 MLOAD RETURNDATASIZE PUSH1 0x20 DUP2 LT ISZERO PUSH2 0x10F3 JUMPI PUSH1 0x0 DUP1 REVERT JUMPDEST POP MLOAD PUSH1 0x0 SWAP1 PUSH1 0x1 PUSH1 0x1 PUSH1 0xA0 SHL SUB AND CALLER EQ PUSH2 0x1166 JUMPI PUSH1 0x40 MLOAD PUSH3 0x461BCD PUSH1 0xE5 SHL DUP2 MSTORE PUSH1 0x20 PUSH1 0x4 DUP3 ADD SWAP1 DUP2 MSTORE DUP3 SLOAD PUSH1 0x2 PUSH1 0x0 NOT PUSH2 0x100 PUSH1 0x1 DUP5 AND ISZERO MUL ADD SWAP1 SWAP2 AND DIV PUSH1 0x24 DUP4 ADD DUP2 SWAP1 MSTORE SWAP1 SWAP2 DUP3 SWAP2 PUSH1 0x44 SWAP1 SWAP2 ADD SWAP1 DUP5 SWAP1 DUP1 ISZERO PUSH2 0x949 JUMPI DUP1 PUSH1 0x1F LT PUSH2 0x91E JUMPI PUSH2 0x100 DUP1 DUP4 SLOAD DIV MUL DUP4 MSTORE SWAP2 PUSH1 0x20 ADD SWAP2 PUSH2 0x949 JUMP JUMPDEST POP PUSH1 0x1 DUP1 SLOAD PUSH20 0xFFFFFFFFFFFFFFFFFFFFFFFFFFFFFFFFFFFFFFFF NOT AND PUSH1 0x1 PUSH1 0x1 PUSH1 0xA0 SHL SUB DUP4 AND SWAP1 DUP2 OR SWAP1 SWAP2 SSTORE PUSH1 0x40 MLOAD PUSH32 0x2F658B440C35314F52658EA8A740E05B284CDC84DC9AE01E891F21B8933E7CAD SWAP1 PUSH1 0x0 SWAP1 LOG2 POP JUMP JUMPDEST PUSH32 0x0 DUP2 JUMP JUMPDEST PUSH1 0x5 SLOAD PUSH1 0x1 PUSH1 0xA0 SHL SWAP1 DIV PUSH1 0xFF AND PUSH2 0x127C JUMPI PUSH1 0x2 SLOAD PUSH1 0x40 DUP1 MLOAD PUSH32 0x9DC29FAC00000000000000000000000000000000000000000000000000000000 DUP2 MSTORE CALLER PUSH1 0x4 DUP3 ADD MSTORE PUSH1 0x24 DUP2 ADD DUP6 SWAP1 MSTORE SWAP1 MLOAD PUSH1 0x1 PUSH1 0x1 PUSH1 0xA0 SHL SUB SWAP1 SWAP3 AND SWAP2 PUSH4 0x9DC29FAC SWAP2 PUSH1 0x44 DUP1 DUP3 ADD SWAP3 PUSH1 0x0 SWAP3 SWAP1 SWAP2 SWAP1 DUP3 SWAP1 SUB ADD DUP2 DUP4 DUP8 DUP1 EXTCODESIZE ISZERO DUP1 ISZERO PUSH2 0x125F JUMPI PUSH1 0x0 DUP1 REVERT JUMPDEST POP GAS CALL ISZERO DUP1 ISZERO PUSH2 0x1273 JUMPI RETURNDATASIZE PUSH1 0x0 DUP1 RETURNDATACOPY RETURNDATASIZE PUSH1 0x0 REVERT JUMPDEST POP POP POP POP PUSH2 0x1294 JUMP JUMPDEST PUSH1 0x2 SLOAD PUSH2 0x1294 SWAP1 PUSH1 0x1 PUSH1 0x1 PUSH1 0xA0 SHL SUB AND CALLER ADDRESS DUP6 PUSH2 0x2F87 JUMP JUMPDEST PUSH1 0x0 PUSH32 0x0 PUSH1 0x1 PUSH1 0x1 PUSH1 0xA0 SHL SUB AND PUSH4 0x554C85A3 DUP5 PUSH1 0x40 MLOAD DUP3 PUSH4 0xFFFFFFFF AND PUSH1 0xE0 SHL DUP2 MSTORE PUSH1 0x4 ADD DUP1 DUP3 DUP2 MSTORE PUSH1 0x20 ADD SWAP2 POP POP PUSH1 0x20 PUSH1 0x40 MLOAD DUP1 DUP4 SUB DUP2 DUP7 DUP1 EXTCODESIZE ISZERO DUP1 ISZERO PUSH2 0x12FA JUMPI PUSH1 0x0 DUP1 REVERT JUMPDEST POP GAS STATICCALL ISZERO DUP1 ISZERO PUSH2 0x130E JUMPI RETURNDATASIZE PUSH1 0x0 DUP1 RETURNDATACOPY RETURNDATASIZE PUSH1 0x0 REVERT JUMPDEST POP POP POP POP PUSH1 0x40 MLOAD RETURNDATASIZE PUSH1 0x20 DUP2 LT ISZERO PUSH2 0x1324 JUMPI PUSH1 0x0 DUP1 REVERT JUMPDEST POP MLOAD SWAP1 POP PUSH1 0x0 DUP3 PUSH1 0x2 DUP2 GT ISZERO PUSH2 0x1336 JUMPI INVALID JUMPDEST EQ ISZERO PUSH2 0x1375 JUMPI PUSH2 0x1370 PUSH1 0x1 PUSH1 0x1 PUSH1 0xA0 SHL SUB PUSH32 0x0 AND CALLER DUP4 PUSH2 0x32B8 JUMP JUMPDEST PUSH2 0x1405 JUMP JUMPDEST PUSH1 0x1 DUP3 PUSH1 0x2 DUP2 GT ISZERO PUSH2 0x1383 JUMPI INVALID JUMPDEST EQ ISZERO PUSH2 0x13BD JUMPI PUSH2 0x1370 PUSH1 0x1 PUSH1 0x1 PUSH1 0xA0 SHL SUB PUSH32 0x0 AND CALLER DUP4 PUSH2 0x32B8 JUMP JUMPDEST PUSH1 0x2 DUP3 PUSH1 0x2 DUP2 GT ISZERO PUSH2 0x13CB JUMPI INVALID JUMPDEST EQ ISZERO PUSH2 0x1405 JUMPI PUSH2 0x1405 PUSH1 0x1 PUSH1 0x1 PUSH1 0xA0 SHL SUB PUSH32 0x0 AND CALLER DUP6 PUSH2 0x32B8 JUMP JUMPDEST POP POP POP JUMP JUMPDEST PUSH1 0x1 PUSH1 0x0 SWAP1 SLOAD SWAP1 PUSH2 0x100 EXP SWAP1 DIV PUSH1 0x1 PUSH1 0x1 PUSH1 0xA0 SHL SUB AND PUSH1 0x1 PUSH1 0x1 PUSH1 0xA0 SHL SUB AND PUSH4 0xC340A24 PUSH1 0x40 MLOAD DUP2 PUSH4 0xFFFFFFFF AND PUSH1 0xE0 SHL DUP2 MSTORE PUSH1 0x4 ADD PUSH1 0x20 PUSH1 0x40 MLOAD DUP1 DUP4 SUB DUP2 DUP7 DUP1 EXTCODESIZE ISZERO DUP1 ISZERO PUSH2 0x1458 JUMPI PUSH1 0x0 DUP1 REVERT JUMPDEST POP GAS STATICCALL ISZERO DUP1 ISZERO PUSH2 0x146C JUMPI RETURNDATASIZE PUSH1 0x0 DUP1 RETURNDATACOPY RETURNDATASIZE PUSH1 0x0 REVERT JUMPDEST POP POP POP POP PUSH1 0x40 MLOAD RETURNDATASIZE PUSH1 0x20 DUP2 LT ISZERO PUSH2 0x1482 JUMPI PUSH1 0x0 DUP1 REVERT JUMPDEST POP MLOAD PUSH1 0x0 SWAP1 PUSH1 0x1 PUSH1 0x1 PUSH1 0xA0 SHL SUB AND CALLER EQ PUSH2 0x14F5 JUMPI PUSH1 0x40 MLOAD PUSH3 0x461BCD PUSH1 0xE5 SHL DUP2 MSTORE PUSH1 0x20 PUSH1 0x4 DUP3 ADD SWAP1 DUP2 MSTORE DUP3 SLOAD PUSH1 0x2 PUSH1 0x0 NOT PUSH2 0x100 PUSH1 0x1 DUP5 AND ISZERO MUL ADD SWAP1 SWAP2 AND DIV PUSH1 0x24 DUP4 ADD DUP2 SWAP1 MSTORE SWAP1 SWAP2 DUP3 SWAP2 PUSH1 0x44 SWAP1 SWAP2 ADD SWAP1 DUP5 SWAP1 DUP1 ISZERO PUSH2 0x949 JUMPI DUP1 PUSH1 0x1F LT PUSH2 0x91E JUMPI PUSH2 0x100 DUP1 DUP4 SLOAD DIV MUL DUP4 MSTORE SWAP2 PUSH1 0x20 ADD SWAP2 PUSH2 0x949 JUMP JUMPDEST POP PUSH1 0x6 SLOAD ISZERO PUSH2 0x154B JUMPI PUSH1 0x40 DUP1 MLOAD PUSH3 0x461BCD PUSH1 0xE5 SHL DUP2 MSTORE PUSH1 0x20 PUSH1 0x4 DUP3 ADD MSTORE PUSH1 0xC PUSH1 0x24 DUP3 ADD MSTORE PUSH32 0x54696D656C6F636B207365740000000000000000000000000000000000000000 PUSH1 0x44 DUP3 ADD MSTORE SWAP1 MLOAD SWAP1 DUP2 SWAP1 SUB PUSH1 0x64 ADD SWAP1 REVERT JUMPDEST PUSH2 0x1575 NUMBER PUSH32 0x0 PUSH2 0x3434 JUMP JUMPDEST PUSH1 0x6 DUP2 SWAP1 SSTORE PUSH1 0x40 DUP1 MLOAD NUMBER DUP2 MSTORE PUSH1 0x20 DUP2 ADD SWAP3 SWAP1 SWAP3 MSTORE DUP1 MLOAD PUSH32 0x1F1C77590FCB154CCFAC3F34ADEF3ADFD45FA19CD5BD058297A1D6137D0229C0 SWAP3 DUP2 SWAP1 SUB SWAP1 SWAP2 ADD SWAP1 LOG1 JUMP JUMPDEST PUSH1 0x1 PUSH1 0x0 SWAP1 SLOAD SWAP1 PUSH2 0x100 EXP SWAP1 DIV PUSH1 0x1 PUSH1 0x1 PUSH1 0xA0 SHL SUB AND PUSH1 0x1 PUSH1 0x1 PUSH1 0xA0 SHL SUB AND PUSH4 0xC340A24 PUSH1 0x40 MLOAD DUP2 PUSH4 0xFFFFFFFF AND PUSH1 0xE0 SHL DUP2 MSTORE PUSH1 0x4 ADD PUSH1 0x20 PUSH1 0x40 MLOAD DUP1 DUP4 SUB DUP2 DUP7 DUP1 EXTCODESIZE ISZERO DUP1 ISZERO PUSH2 0x1605 JUMPI PUSH1 0x0 DUP1 REVERT JUMPDEST POP GAS STATICCALL ISZERO DUP1 ISZERO PUSH2 0x1619 JUMPI RETURNDATASIZE PUSH1 0x0 DUP1 RETURNDATACOPY RETURNDATASIZE PUSH1 0x0 REVERT JUMPDEST POP POP POP POP PUSH1 0x40 MLOAD RETURNDATASIZE PUSH1 0x20 DUP2 LT ISZERO PUSH2 0x162F JUMPI PUSH1 0x0 DUP1 REVERT JUMPDEST POP MLOAD PUSH1 0x0 SWAP1 PUSH1 0x1 PUSH1 0x1 PUSH1 0xA0 SHL SUB AND CALLER EQ PUSH2 0x16A2 JUMPI PUSH1 0x40 MLOAD PUSH3 0x461BCD PUSH1 0xE5 SHL DUP2 MSTORE PUSH1 0x20 PUSH1 0x4 DUP3 ADD SWAP1 DUP2 MSTORE DUP3 SLOAD PUSH1 0x2 PUSH1 0x0 NOT PUSH2 0x100 PUSH1 0x1 DUP5 AND ISZERO MUL ADD SWAP1 SWAP2 AND DIV PUSH1 0x24 DUP4 ADD DUP2 SWAP1 MSTORE SWAP1 SWAP2 DUP3 SWAP2 PUSH1 0x44 SWAP1 SWAP2 ADD SWAP1 DUP5 SWAP1 DUP1 ISZERO PUSH2 0x949 JUMPI DUP1 PUSH1 0x1F LT PUSH2 0x91E JUMPI PUSH2 0x100 DUP1 DUP4 SLOAD DIV MUL DUP4 MSTORE SWAP2 PUSH1 0x20 ADD SWAP2 PUSH2 0x949 JUMP JUMPDEST POP PUSH1 0x5 SLOAD PUSH1 0x1 PUSH1 0xA0 SHL SWAP1 DIV PUSH1 0xFF AND ISZERO PUSH2 0x1702 JUMPI PUSH1 0x40 DUP1 MLOAD PUSH3 0x461BCD PUSH1 0xE5 SHL DUP2 MSTORE PUSH1 0x20 PUSH1 0x4 DUP3 ADD MSTORE PUSH1 0x10 PUSH1 0x24 DUP3 ADD MSTORE PUSH32 0x416C7265616479206D6967726174656400000000000000000000000000000000 PUSH1 0x44 DUP3 ADD MSTORE SWAP1 MLOAD SWAP1 DUP2 SWAP1 SUB PUSH1 0x64 ADD SWAP1 REVERT JUMPDEST PUSH1 0x5 DUP1 SLOAD PUSH1 0xFF PUSH1 0xA8 SHL NOT PUSH32 0xFFFFFFFFFFFFFFFFFFFFFF00FFFFFFFFFFFFFFFFFFFFFFFFFFFFFFFFFFFFFFFF SWAP1 SWAP2 AND PUSH1 0x1 PUSH1 0xA0 SHL OR AND SWAP1 SSTORE PUSH1 0x1 PUSH1 0x1 PUSH1 0xA0 SHL SUB DUP6 AND PUSH2 0x1794 JUMPI PUSH1 0x40 DUP1 MLOAD PUSH3 0x461BCD PUSH1 0xE5 SHL DUP2 MSTORE PUSH1 0x20 PUSH1 0x4 DUP3 ADD MSTORE PUSH1 0x16 PUSH1 0x24 DUP3 ADD MSTORE PUSH32 0x5A65726F20616464726573733A20547265617375727900000000000000000000 PUSH1 0x44 DUP3 ADD MSTORE SWAP1 MLOAD SWAP1 DUP2 SWAP1 SUB PUSH1 0x64 ADD SWAP1 REVERT JUMPDEST PUSH1 0x3 DUP1 SLOAD PUSH20 0xFFFFFFFFFFFFFFFFFFFFFFFFFFFFFFFFFFFFFFFF NOT AND PUSH1 0x1 PUSH1 0x1 PUSH1 0xA0 SHL SUB DUP8 DUP2 AND SWAP2 SWAP1 SWAP2 OR SWAP1 SWAP2 SSTORE DUP5 AND PUSH2 0x1814 JUMPI PUSH1 0x40 DUP1 MLOAD PUSH3 0x461BCD PUSH1 0xE5 SHL DUP2 MSTORE PUSH1 0x20 PUSH1 0x4 DUP3 ADD MSTORE PUSH1 0x15 PUSH1 0x24 DUP3 ADD MSTORE PUSH32 0x5A65726F20616464726573733A205374616B696E670000000000000000000000 PUSH1 0x44 DUP3 ADD MSTORE SWAP1 MLOAD SWAP1 DUP2 SWAP1 SUB PUSH1 0x64 ADD SWAP1 REVERT JUMPDEST PUSH1 0x4 DUP1 SLOAD PUSH20 0xFFFFFFFFFFFFFFFFFFFFFFFFFFFFFFFFFFFFFFFF NOT AND PUSH1 0x1 PUSH1 0x1 PUSH1 0xA0 SHL SUB DUP7 DUP2 AND SWAP2 SWAP1 SWAP2 OR SWAP1 SWAP2 SSTORE DUP4 AND PUSH2 0x1894 JUMPI PUSH1 0x40 DUP1 MLOAD PUSH3 0x461BCD PUSH1 0xE5 SHL DUP2 MSTORE PUSH1 0x20 PUSH1 0x4 DUP3 ADD MSTORE PUSH1 0x11 PUSH1 0x24 DUP3 ADD MSTORE PUSH32 0x5A65726F20616464726573733A2045584F000000000000000000000000000000 PUSH1 0x44 DUP3 ADD MSTORE SWAP1 MLOAD SWAP1 DUP2 SWAP1 SUB PUSH1 0x64 ADD SWAP1 REVERT JUMPDEST DUP3 PUSH1 0x5 PUSH1 0x0 PUSH2 0x100 EXP DUP2 SLOAD DUP2 PUSH1 0x1 PUSH1 0x1 PUSH1 0xA0 SHL SUB MUL NOT AND SWAP1 DUP4 PUSH1 0x1 PUSH1 0x1 PUSH1 0xA0 SHL SUB AND MUL OR SWAP1 SSTORE POP PUSH32 0x0 PUSH1 0x1 PUSH1 0x1 PUSH1 0xA0 SHL SUB AND PUSH4 0x18160DDD PUSH1 0x40 MLOAD DUP2 PUSH4 0xFFFFFFFF AND PUSH1 0xE0 SHL DUP2 MSTORE PUSH1 0x4 ADD PUSH1 0x20 PUSH1 0x40 MLOAD DUP1 DUP4 SUB DUP2 DUP7 DUP1 EXTCODESIZE ISZERO DUP1 ISZERO PUSH2 0x1914 JUMPI PUSH1 0x0 DUP1 REVERT JUMPDEST POP GAS STATICCALL ISZERO DUP1 ISZERO PUSH2 0x1928 JUMPI RETURNDATASIZE PUSH1 0x0 DUP1 RETURNDATACOPY RETURNDATASIZE PUSH1 0x0 REVERT JUMPDEST POP POP POP POP PUSH1 0x40 MLOAD RETURNDATASIZE PUSH1 0x20 DUP2 LT ISZERO PUSH2 0x193E JUMPI PUSH1 0x0 DUP1 REVERT JUMPDEST POP MLOAD PUSH1 0x7 SSTORE PUSH1 0x2 SLOAD PUSH1 0x40 DUP1 MLOAD PUSH32 0x1068361F00000000000000000000000000000000000000000000000000000000 DUP2 MSTORE PUSH1 0x1 PUSH1 0x1 PUSH1 0xA0 SHL SUB DUP8 DUP2 AND PUSH1 0x4 DUP4 ADD MSTORE DUP6 DUP2 AND PUSH1 0x24 DUP4 ADD MSTORE SWAP2 MLOAD SWAP2 SWAP1 SWAP3 AND SWAP2 PUSH4 0x1068361F SWAP2 PUSH1 0x44 DUP1 DUP4 ADD SWAP3 PUSH1 0x0 SWAP3 SWAP2 SWAP1 DUP3 SWAP1 SUB ADD DUP2 DUP4 DUP8 DUP1 EXTCODESIZE ISZERO DUP1 ISZERO PUSH2 0x19B2 JUMPI PUSH1 0x0 DUP1 REVERT JUMPDEST POP GAS CALL ISZERO DUP1 ISZERO PUSH2 0x19C6 JUMPI RETURNDATASIZE PUSH1 0x0 DUP1 RETURNDATACOPY RETURNDATASIZE PUSH1 0x0 REVERT JUMPDEST POP POP POP POP PUSH2 0x19D5 DUP2 PUSH1 0x1 PUSH2 0x3497 JUMP JUMPDEST PUSH2 0x1A62 PUSH32 0x0 PUSH1 0x1 PUSH1 0x1 PUSH1 0xA0 SHL SUB AND PUSH4 0x9358928B PUSH1 0x40 MLOAD DUP2 PUSH4 0xFFFFFFFF AND PUSH1 0xE0 SHL DUP2 MSTORE PUSH1 0x4 ADD PUSH1 0x20 PUSH1 0x40 MLOAD DUP1 DUP4 SUB DUP2 DUP7 DUP1 EXTCODESIZE ISZERO DUP1 ISZERO PUSH2 0x1A31 JUMPI PUSH1 0x0 DUP1 REVERT JUMPDEST POP GAS STATICCALL ISZERO DUP1 ISZERO PUSH2 0x1A45 JUMPI RETURNDATASIZE PUSH1 0x0 DUP1 RETURNDATACOPY RETURNDATASIZE PUSH1 0x0 REVERT JUMPDEST POP POP POP POP PUSH1 0x40 MLOAD RETURNDATASIZE PUSH1 0x20 DUP2 LT ISZERO PUSH2 0x1A5B JUMPI PUSH1 0x0 DUP1 REVERT JUMPDEST POP MLOAD PUSH2 0x3821 JUMP JUMPDEST PUSH1 0x40 DUP1 MLOAD PUSH1 0x1 PUSH1 0x1 PUSH1 0xA0 SHL SUB DUP1 DUP8 AND DUP3 MSTORE DUP8 AND PUSH1 0x20 DUP3 ADD MSTORE DUP2 MLOAD PUSH32 0x844985CE6880CA51E25A6D4ECC8AF37A5DE880279F2081AF96D0E875C42B7082 SWAP3 SWAP2 DUP2 SWAP1 SUB SWAP1 SWAP2 ADD SWAP1 LOG1 POP POP POP POP POP JUMP JUMPDEST PUSH1 0x1 SLOAD PUSH1 0x1 PUSH1 0x1 PUSH1 0xA0 SHL SUB AND DUP2 JUMP JUMPDEST PUSH32 0x0 DUP2 JUMP JUMPDEST PUSH1 0x1 PUSH1 0x0 SWAP1 SLOAD SWAP1 PUSH2 0x100 EXP SWAP1 DIV PUSH1 0x1 PUSH1 0x1 PUSH1 0xA0 SHL SUB AND PUSH1 0x1 PUSH1 0x1 PUSH1 0xA0 SHL SUB AND PUSH4 0xC340A24 PUSH1 0x40 MLOAD DUP2 PUSH4 0xFFFFFFFF AND PUSH1 0xE0 SHL DUP2 MSTORE PUSH1 0x4 ADD PUSH1 0x20 PUSH1 0x40 MLOAD DUP1 DUP4 SUB DUP2 DUP7 DUP1 EXTCODESIZE ISZERO DUP1 ISZERO PUSH2 0x1B2F JUMPI PUSH1 0x0 DUP1 REVERT JUMPDEST POP GAS STATICCALL ISZERO DUP1 ISZERO PUSH2 0x1B43 JUMPI RETURNDATASIZE PUSH1 0x0 DUP1 RETURNDATACOPY RETURNDATASIZE PUSH1 0x0 REVERT JUMPDEST POP POP POP POP PUSH1 0x40 MLOAD RETURNDATASIZE PUSH1 0x20 DUP2 LT ISZERO PUSH2 0x1B59 JUMPI PUSH1 0x0 DUP1 REVERT JUMPDEST POP MLOAD PUSH1 0x0 SWAP1 PUSH1 0x1 PUSH1 0x1 PUSH1 0xA0 SHL SUB AND CALLER EQ PUSH2 0x1BCC JUMPI PUSH1 0x40 MLOAD PUSH3 0x461BCD PUSH1 0xE5 SHL DUP2 MSTORE PUSH1 0x20 PUSH1 0x4 DUP3 ADD SWAP1 DUP2 MSTORE DUP3 SLOAD PUSH1 0x2 PUSH1 0x0 NOT PUSH2 0x100 PUSH1 0x1 DUP5 AND ISZERO MUL ADD SWAP1 SWAP2 AND DIV PUSH1 0x24 DUP4 ADD DUP2 SWAP1 MSTORE SWAP1 SWAP2 DUP3 SWAP2 PUSH1 0x44 SWAP1 SWAP2 ADD SWAP1 DUP5 SWAP1 DUP1 ISZERO PUSH2 0x949 JUMPI DUP1 PUSH1 0x1F LT PUSH2 0x91E JUMPI PUSH2 0x100 DUP1 DUP4 SLOAD DIV MUL DUP4 MSTORE SWAP2 PUSH1 0x20 ADD SWAP2 PUSH2 0x949 JUMP JUMPDEST POP PUSH1 0x5 SLOAD PUSH1 0x1 PUSH1 0xA0 SHL SWAP1 DIV PUSH1 0xFF AND PUSH2 0x1C2B JUMPI PUSH1 0x40 DUP1 MLOAD PUSH3 0x461BCD PUSH1 0xE5 SHL DUP2 MSTORE PUSH1 0x20 PUSH1 0x4 DUP3 ADD MSTORE PUSH1 0x17 PUSH1 0x24 DUP3 ADD MSTORE PUSH32 0x4D6967726174696F6E20686173206E6F7420626567756E000000000000000000 PUSH1 0x44 DUP3 ADD MSTORE SWAP1 MLOAD SWAP1 DUP2 SWAP1 SUB PUSH1 0x64 ADD SWAP1 REVERT JUMPDEST NUMBER PUSH1 0x6 SLOAD LT DUP1 ISZERO PUSH2 0x1C3D JUMPI POP PUSH1 0x6 SLOAD ISZERO ISZERO JUMPDEST PUSH2 0x1C8E JUMPI PUSH1 0x40 DUP1 MLOAD PUSH3 0x461BCD PUSH1 0xE5 SHL DUP2 MSTORE PUSH1 0x20 PUSH1 0x4 DUP3 ADD MSTORE PUSH1 0x15 PUSH1 0x24 DUP3 ADD MSTORE PUSH32 0x54696D656C6F636B206E6F7420636F6D706C6574650000000000000000000000 PUSH1 0x44 DUP3 ADD MSTORE SWAP1 MLOAD SWAP1 DUP2 SWAP1 SUB PUSH1 0x64 ADD SWAP1 REVERT JUMPDEST PUSH1 0x40 DUP1 MLOAD PUSH4 0x70A08231 PUSH1 0xE0 SHL DUP2 MSTORE ADDRESS PUSH1 0x4 DUP3 ADD MSTORE SWAP1 MLOAD PUSH1 0x1 PUSH1 0x1 PUSH1 0xA0 SHL SUB PUSH32 0x0 AND SWAP2 PUSH4 0xDE0E9A3E SWAP2 DUP4 SWAP2 PUSH4 0x70A08231 SWAP2 PUSH1 0x24 DUP1 DUP4 ADD SWAP3 PUSH1 0x20 SWAP3 SWAP2 SWAP1 DUP3 SWAP1 SUB ADD DUP2 DUP7 DUP1 EXTCODESIZE ISZERO DUP1 ISZERO PUSH2 0x1CFC JUMPI PUSH1 0x0 DUP1 REVERT JUMPDEST POP GAS STATICCALL ISZERO DUP1 ISZERO PUSH2 0x1D10 JUMPI RETURNDATASIZE PUSH1 0x0 DUP1 RETURNDATACOPY RETURNDATASIZE PUSH1 0x0 REVERT JUMPDEST POP POP POP POP PUSH1 0x40 MLOAD RETURNDATASIZE PUSH1 0x20 DUP2 LT ISZERO PUSH2 0x1D26 JUMPI PUSH1 0x0 DUP1 REVERT JUMPDEST POP MLOAD PUSH1 0x40 DUP1 MLOAD PUSH32 0xFFFFFFFF00000000000000000000000000000000000000000000000000000000 PUSH1 0xE0 DUP6 SWAP1 SHL AND DUP2 MSTORE PUSH1 0x4 DUP2 ADD SWAP3 SWAP1 SWAP3 MSTORE MLOAD PUSH1 0x24 DUP1 DUP4 ADD SWAP3 PUSH1 0x20 SWAP3 SWAP2 SWAP1 DUP3 SWAP1 SUB ADD DUP2 PUSH1 0x0 DUP8 DUP1 EXTCODESIZE ISZERO DUP1 ISZERO PUSH2 0x1D7F JUMPI PUSH1 0x0 DUP1 REVERT JUMPDEST POP GAS CALL ISZERO DUP1 ISZERO PUSH2 0x1D93 JUMPI RETURNDATASIZE PUSH1 0x0 DUP1 RETURNDATACOPY RETURNDATASIZE PUSH1 0x0 REVERT JUMPDEST POP POP POP POP PUSH1 0x40 MLOAD RETURNDATASIZE PUSH1 0x20 DUP2 LT ISZERO PUSH2 0x1DA9 JUMPI PUSH1 0x0 DUP1 REVERT JUMPDEST POP POP PUSH1 0x40 DUP1 MLOAD PUSH4 0x70A08231 PUSH1 0xE0 SHL DUP2 MSTORE ADDRESS PUSH1 0x4 DUP3 ADD MSTORE SWAP1 MLOAD PUSH1 0x0 SWAP2 PUSH1 0x1 PUSH1 0x1 PUSH1 0xA0 SHL SUB PUSH32 0x0 AND SWAP2 PUSH4 0x70A08231 SWAP2 PUSH1 0x24 DUP1 DUP3 ADD SWAP3 PUSH1 0x20 SWAP3 SWAP1 SWAP2 SWAP1 DUP3 SWAP1 SUB ADD DUP2 DUP7 DUP1 EXTCODESIZE ISZERO DUP1 ISZERO PUSH2 0x1E15 JUMPI PUSH1 0x0 DUP1 REVERT JUMPDEST POP GAS STATICCALL ISZERO DUP1 ISZERO PUSH2 0x1E29 JUMPI RETURNDATASIZE PUSH1 0x0 DUP1 RETURNDATACOPY RETURNDATASIZE PUSH1 0x0 REVERT JUMPDEST POP POP POP POP PUSH1 0x40 MLOAD RETURNDATASIZE PUSH1 0x20 DUP2 LT ISZERO PUSH2 0x1E3F JUMPI PUSH1 0x0 DUP1 REVERT JUMPDEST POP MLOAD PUSH1 0x40 DUP1 MLOAD PUSH4 0x95EA7B3 PUSH1 0xE0 SHL DUP2 MSTORE PUSH1 0x1 PUSH1 0x1 PUSH1 0xA0 SHL SUB PUSH32 0x0 DUP2 AND PUSH1 0x4 DUP4 ADD MSTORE PUSH1 0x24 DUP3 ADD DUP5 SWAP1 MSTORE SWAP2 MLOAD SWAP3 SWAP4 POP PUSH32 0x0 SWAP1 SWAP2 AND SWAP2 PUSH4 0x95EA7B3 SWAP2 PUSH1 0x44 DUP1 DUP3 ADD SWAP3 PUSH1 0x20 SWAP3 SWAP1 SWAP2 SWAP1 DUP3 SWAP1 SUB ADD DUP2 PUSH1 0x0 DUP8 DUP1 EXTCODESIZE ISZERO DUP1 ISZERO PUSH2 0x1ED8 JUMPI PUSH1 0x0 DUP1 REVERT JUMPDEST POP GAS CALL ISZERO DUP1 ISZERO PUSH2 0x1EEC JUMPI RETURNDATASIZE PUSH1 0x0 DUP1 RETURNDATACOPY RETURNDATASIZE PUSH1 0x0 REVERT JUMPDEST POP POP POP POP PUSH1 0x40 MLOAD RETURNDATASIZE PUSH1 0x20 DUP2 LT ISZERO PUSH2 0x1F02 JUMPI PUSH1 0x0 DUP1 REVERT JUMPDEST POP POP PUSH1 0x40 DUP1 MLOAD PUSH32 0x9EBEA88C00000000000000000000000000000000000000000000000000000000 DUP2 MSTORE PUSH1 0x4 DUP2 ADD DUP4 SWAP1 MSTORE PUSH1 0x0 PUSH1 0x24 DUP3 ADD DUP2 SWAP1 MSTORE SWAP2 MLOAD PUSH1 0x1 PUSH1 0x1 PUSH1 0xA0 SHL SUB PUSH32 0x0 AND SWAP3 PUSH4 0x9EBEA88C SWAP3 PUSH1 0x44 DUP1 DUP3 ADD SWAP4 SWAP2 DUP3 SWAP1 SUB ADD DUP2 DUP4 DUP8 DUP1 EXTCODESIZE ISZERO DUP1 ISZERO PUSH2 0x1F8A JUMPI PUSH1 0x0 DUP1 REVERT JUMPDEST POP GAS CALL ISZERO DUP1 ISZERO PUSH2 0x1F9E JUMPI RETURNDATASIZE PUSH1 0x0 DUP1 RETURNDATACOPY RETURNDATASIZE PUSH1 0x0 REVERT JUMPDEST POP POP POP POP PUSH1 0x0 PUSH32 0x0 PUSH1 0x1 PUSH1 0x1 PUSH1 0xA0 SHL SUB AND PUSH4 0x70A08231 ADDRESS PUSH1 0x40 MLOAD DUP3 PUSH4 0xFFFFFFFF AND PUSH1 0xE0 SHL DUP2 MSTORE PUSH1 0x4 ADD DUP1 DUP3 PUSH1 0x1 PUSH1 0x1 PUSH1 0xA0 SHL SUB AND DUP2 MSTORE PUSH1 0x20 ADD SWAP2 POP POP PUSH1 0x20 PUSH1 0x40 MLOAD DUP1 DUP4 SUB DUP2 DUP7 DUP1 EXTCODESIZE ISZERO DUP1 ISZERO PUSH2 0x2011 JUMPI PUSH1 0x0 DUP1 REVERT JUMPDEST POP GAS STATICCALL ISZERO DUP1 ISZERO PUSH2 0x2025 JUMPI RETURNDATASIZE PUSH1 0x0 DUP1 RETURNDATACOPY RETURNDATASIZE PUSH1 0x0 REVERT JUMPDEST POP POP POP POP PUSH1 0x40 MLOAD RETURNDATASIZE PUSH1 0x20 DUP2 LT ISZERO PUSH2 0x203B JUMPI PUSH1 0x0 DUP1 REVERT JUMPDEST POP MLOAD PUSH1 0x7 SLOAD SWAP1 SWAP2 POP DUP2 GT ISZERO PUSH2 0x2054 JUMPI PUSH1 0x0 PUSH1 0x7 SSTORE PUSH2 0x205E JUMP JUMPDEST PUSH1 0x7 DUP1 SLOAD DUP3 SWAP1 SUB SWAP1 SSTORE JUMPDEST PUSH1 0x0 PUSH2 0x206E DUP3 PUSH4 0x3B9ACA00 PUSH2 0x39F3 JUMP JUMPDEST SWAP1 POP PUSH32 0x0 PUSH1 0x1 PUSH1 0x1 PUSH1 0xA0 SHL SUB AND PUSH4 0x95EA7B3 PUSH32 0x0 DUP4 PUSH1 0x40 MLOAD DUP4 PUSH4 0xFFFFFFFF AND PUSH1 0xE0 SHL DUP2 MSTORE PUSH1 0x4 ADD DUP1 DUP4 PUSH1 0x1 PUSH1 0x1 PUSH1 0xA0 SHL SUB AND DUP2 MSTORE PUSH1 0x20 ADD DUP3 DUP2 MSTORE PUSH1 0x20 ADD SWAP3 POP POP POP PUSH1 0x20 PUSH1 0x40 MLOAD DUP1 DUP4 SUB DUP2 PUSH1 0x0 DUP8 DUP1 EXTCODESIZE ISZERO DUP1 ISZERO PUSH2 0x2107 JUMPI PUSH1 0x0 DUP1 REVERT JUMPDEST POP GAS CALL ISZERO DUP1 ISZERO PUSH2 0x211B JUMPI RETURNDATASIZE PUSH1 0x0 DUP1 RETURNDATACOPY RETURNDATASIZE PUSH1 0x0 REVERT JUMPDEST POP POP POP POP PUSH1 0x40 MLOAD RETURNDATASIZE PUSH1 0x20 DUP2 LT ISZERO PUSH2 0x2131 JUMPI PUSH1 0x0 DUP1 REVERT JUMPDEST POP POP PUSH1 0x40 DUP1 MLOAD PUSH31 0xF714CE00000000000000000000000000000000000000000000000000000000 DUP2 MSTORE PUSH1 0x4 DUP2 ADD DUP4 SWAP1 MSTORE PUSH1 0x1 PUSH1 0x1 PUSH1 0xA0 SHL SUB DUP7 DUP2 AND PUSH1 0x24 DUP4 ADD MSTORE SWAP2 MLOAD PUSH32 0x0 SWAP1 SWAP3 AND SWAP2 PUSH3 0xF714CE SWAP2 PUSH1 0x44 DUP1 DUP3 ADD SWAP3 PUSH1 0x0 SWAP3 SWAP1 SWAP2 SWAP1 DUP3 SWAP1 SUB ADD DUP2 DUP4 DUP8 DUP1 EXTCODESIZE ISZERO DUP1 ISZERO PUSH2 0x21BD JUMPI PUSH1 0x0 DUP1 REVERT JUMPDEST POP GAS CALL ISZERO DUP1 ISZERO PUSH2 0x21D1 JUMPI RETURNDATASIZE PUSH1 0x0 DUP1 RETURNDATACOPY RETURNDATASIZE PUSH1 0x0 REVERT JUMPDEST POP POP PUSH1 0x3 SLOAD PUSH1 0x40 DUP1 MLOAD PUSH4 0x70A08231 PUSH1 0xE0 SHL DUP2 MSTORE ADDRESS PUSH1 0x4 DUP3 ADD MSTORE SWAP1 MLOAD PUSH2 0x2265 SWAP5 POP PUSH1 0x1 PUSH1 0x1 PUSH1 0xA0 SHL SUB SWAP3 DUP4 AND SWAP4 POP SWAP2 DUP9 AND SWAP2 PUSH4 0x70A08231 SWAP2 PUSH1 0x24 DUP1 DUP3 ADD SWAP3 PUSH1 0x20 SWAP3 SWAP1 SWAP2 SWAP1 DUP3 SWAP1 SUB ADD DUP2 DUP7 DUP1 EXTCODESIZE ISZERO DUP1 ISZERO PUSH2 0x2228 JUMPI PUSH1 0x0 DUP1 REVERT JUMPDEST POP GAS STATICCALL ISZERO DUP1 ISZERO PUSH2 0x223C JUMPI RETURNDATASIZE PUSH1 0x0 DUP1 RETURNDATACOPY RETURNDATASIZE PUSH1 0x0 REVERT JUMPDEST POP POP POP POP PUSH1 0x40 MLOAD RETURNDATASIZE PUSH1 0x20 DUP2 LT ISZERO PUSH2 0x2252 JUMPI PUSH1 0x0 DUP1 REVERT JUMPDEST POP MLOAD PUSH1 0x1 PUSH1 0x1 PUSH1 0xA0 SHL SUB DUP8 AND SWAP2 SWAP1 PUSH2 0x32B8 JUMP JUMPDEST PUSH1 0x40 DUP1 MLOAD DUP4 DUP2 MSTORE SWAP1 MLOAD PUSH32 0xAF5E14F4CC37B04DB239269739BD935C4ED55328B691792AF028E5570DFE61FA SWAP2 DUP2 SWAP1 SUB PUSH1 0x20 ADD SWAP1 LOG1 POP POP POP POP JUMP JUMPDEST PUSH32 0x0 DUP2 JUMP JUMPDEST PUSH1 0x1 PUSH1 0x0 SWAP1 SLOAD SWAP1 PUSH2 0x100 EXP SWAP1 DIV PUSH1 0x1 PUSH1 0x1 PUSH1 0xA0 SHL SUB AND PUSH1 0x1 PUSH1 0x1 PUSH1 0xA0 SHL SUB AND PUSH4 0xC340A24 PUSH1 0x40 MLOAD DUP2 PUSH4 0xFFFFFFFF AND PUSH1 0xE0 SHL DUP2 MSTORE PUSH1 0x4 ADD PUSH1 0x20 PUSH1 0x40 MLOAD DUP1 DUP4 SUB DUP2 DUP7 DUP1 EXTCODESIZE ISZERO DUP1 ISZERO PUSH2 0x2310 JUMPI PUSH1 0x0 DUP1 REVERT JUMPDEST POP GAS STATICCALL ISZERO DUP1 ISZERO PUSH2 0x2324 JUMPI RETURNDATASIZE PUSH1 0x0 DUP1 RETURNDATACOPY RETURNDATASIZE PUSH1 0x0 REVERT JUMPDEST POP POP POP POP PUSH1 0x40 MLOAD RETURNDATASIZE PUSH1 0x20 DUP2 LT ISZERO PUSH2 0x233A JUMPI PUSH1 0x0 DUP1 REVERT JUMPDEST POP MLOAD PUSH1 0x0 SWAP1 PUSH1 0x1 PUSH1 0x1 PUSH1 0xA0 SHL SUB AND CALLER EQ PUSH2 0x23AD JUMPI PUSH1 0x40 MLOAD PUSH3 0x461BCD PUSH1 0xE5 SHL DUP2 MSTORE PUSH1 0x20 PUSH1 0x4 DUP3 ADD SWAP1 DUP2 MSTORE DUP3 SLOAD PUSH1 0x2 PUSH1 0x0 NOT PUSH2 0x100 PUSH1 0x1 DUP5 AND ISZERO MUL ADD SWAP1 SWAP2 AND DIV PUSH1 0x24 DUP4 ADD DUP2 SWAP1 MSTORE SWAP1 SWAP2 DUP3 SWAP2 PUSH1 0x44 SWAP1 SWAP2 ADD SWAP1 DUP5 SWAP1 DUP1 ISZERO PUSH2 0x949 JUMPI DUP1 PUSH1 0x1F LT PUSH2 0x91E JUMPI PUSH2 0x100 DUP1 DUP4 SLOAD DIV MUL DUP4 MSTORE SWAP2 PUSH1 0x20 ADD SWAP2 PUSH2 0x949 JUMP JUMPDEST POP PUSH1 0x0 DUP6 PUSH1 0x1 PUSH1 0x1 PUSH1 0xA0 SHL SUB AND PUSH4 0x70A08231 PUSH32 0x0 PUSH1 0x40 MLOAD DUP3 PUSH4 0xFFFFFFFF AND PUSH1 0xE0 SHL DUP2 MSTORE PUSH1 0x4 ADD DUP1 DUP3 PUSH1 0x1 PUSH1 0x1 PUSH1 0xA0 SHL SUB AND DUP2 MSTORE PUSH1 0x20 ADD SWAP2 POP POP PUSH1 0x20 PUSH1 0x40 MLOAD DUP1 DUP4 SUB DUP2 DUP7 DUP1 EXTCODESIZE ISZERO DUP1 ISZERO PUSH2 0x241D JUMPI PUSH1 0x0 DUP1 REVERT JUMPDEST POP GAS STATICCALL ISZERO DUP1 ISZERO PUSH2 0x2431 JUMPI RETURNDATASIZE PUSH1 0x0 DUP1 RETURNDATACOPY RETURNDATASIZE PUSH1 0x0 REVERT JUMPDEST POP POP POP POP PUSH1 0x40 MLOAD RETURNDATASIZE PUSH1 0x20 DUP2 LT ISZERO PUSH2 0x2447 JUMPI PUSH1 0x0 DUP1 REVERT JUMPDEST POP MLOAD PUSH1 0x40 DUP1 MLOAD PUSH32 0xB0EEE3000000000000000000000000000000000000000000000000000000000 DUP2 MSTORE PUSH1 0x1 PUSH1 0x1 PUSH1 0xA0 SHL SUB DUP10 DUP2 AND PUSH1 0x4 DUP4 ADD MSTORE PUSH1 0x24 DUP3 ADD DUP5 SWAP1 MSTORE SWAP2 MLOAD SWAP3 SWAP4 POP PUSH32 0x0 SWAP1 SWAP2 AND SWAP2 PUSH4 0xB0EEE30 SWAP2 PUSH1 0x44 DUP1 DUP3 ADD SWAP3 PUSH1 0x0 SWAP3 SWAP1 SWAP2 SWAP1 DUP3 SWAP1 SUB ADD DUP2 DUP4 DUP8 DUP1 EXTCODESIZE ISZERO DUP1 ISZERO PUSH2 0x24D8 JUMPI PUSH1 0x0 DUP1 REVERT JUMPDEST POP GAS CALL ISZERO DUP1 ISZERO PUSH2 0x24EC JUMPI RETURNDATASIZE PUSH1 0x0 DUP1 RETURNDATACOPY RETURNDATASIZE PUSH1 0x0 REVERT JUMPDEST POP POP POP POP PUSH1 0x0 PUSH32 0x0 SWAP1 POP DUP6 PUSH2 0x253D JUMPI POP PUSH32 0x0 JUMPDEST DUP7 PUSH1 0x1 PUSH1 0x1 PUSH1 0xA0 SHL SUB AND PUSH4 0x95EA7B3 DUP3 DUP5 PUSH1 0x40 MLOAD DUP4 PUSH4 0xFFFFFFFF AND PUSH1 0xE0 SHL DUP2 MSTORE PUSH1 0x4 ADD DUP1 DUP4 PUSH1 0x1 PUSH1 0x1 PUSH1 0xA0 SHL SUB AND DUP2 MSTORE PUSH1 0x20 ADD DUP3 DUP2 MSTORE PUSH1 0x20 ADD SWAP3 POP POP POP PUSH1 0x20 PUSH1 0x40 MLOAD DUP1 DUP4 SUB DUP2 PUSH1 0x0 DUP8 DUP1 EXTCODESIZE ISZERO DUP1 ISZERO PUSH2 0x2594 JUMPI PUSH1 0x0 DUP1 REVERT JUMPDEST POP GAS CALL ISZERO DUP1 ISZERO PUSH2 0x25A8 JUMPI RETURNDATASIZE PUSH1 0x0 DUP1 RETURNDATACOPY RETURNDATASIZE PUSH1 0x0 REVERT JUMPDEST POP POP POP POP PUSH1 0x40 MLOAD RETURNDATASIZE PUSH1 0x20 DUP2 LT ISZERO PUSH2 0x25BE JUMPI PUSH1 0x0 DUP1 REVERT JUMPDEST POP POP PUSH1 0x40 DUP1 MLOAD PUSH32 0xBAA2ABDE00000000000000000000000000000000000000000000000000000000 DUP2 MSTORE PUSH1 0x1 PUSH1 0x1 PUSH1 0xA0 SHL SUB DUP8 DUP2 AND PUSH1 0x4 DUP4 ADD MSTORE PUSH32 0x0 DUP2 AND PUSH1 0x24 DUP4 ADD MSTORE PUSH1 0x44 DUP3 ADD DUP6 SWAP1 MSTORE PUSH1 0x64 DUP3 ADD DUP8 SWAP1 MSTORE PUSH1 0x84 DUP3 ADD DUP7 SWAP1 MSTORE ADDRESS PUSH1 0xA4 DUP4 ADD MSTORE TIMESTAMP PUSH1 0xC4 DUP4 ADD MSTORE DUP3 MLOAD PUSH1 0x0 SWAP4 DUP5 SWAP4 SWAP3 DUP7 AND SWAP3 PUSH4 0xBAA2ABDE SWAP3 PUSH1 0xE4 DUP1 DUP4 ADD SWAP4 SWAP3 DUP3 SWAP1 SUB ADD DUP2 DUP8 DUP8 DUP1 EXTCODESIZE ISZERO DUP1 ISZERO PUSH2 0x266D JUMPI PUSH1 0x0 DUP1 REVERT JUMPDEST POP GAS CALL ISZERO DUP1 ISZERO PUSH2 0x2681 JUMPI RETURNDATASIZE PUSH1 0x0 DUP1 RETURNDATACOPY RETURNDATASIZE PUSH1 0x0 REVERT JUMPDEST POP POP POP POP PUSH1 0x40 MLOAD RETURNDATASIZE PUSH1 0x40 DUP2 LT ISZERO PUSH2 0x2697 JUMPI PUSH1 0x0 DUP1 REVERT JUMPDEST POP DUP1 MLOAD PUSH1 0x20 SWAP1 SWAP2 ADD MLOAD PUSH1 0x3 SLOAD PUSH1 0x40 DUP1 MLOAD PUSH4 0x40C10F19 PUSH1 0xE0 SHL DUP2 MSTORE ADDRESS PUSH1 0x4 DUP3 ADD MSTORE PUSH1 0x24 DUP2 ADD DUP5 SWAP1 MSTORE SWAP1 MLOAD SWAP4 SWAP6 POP SWAP2 SWAP4 POP PUSH1 0x1 PUSH1 0x1 PUSH1 0xA0 SHL SUB AND SWAP2 PUSH4 0x40C10F19 SWAP2 PUSH1 0x44 DUP1 DUP3 ADD SWAP3 PUSH1 0x0 SWAP3 SWAP1 SWAP2 SWAP1 DUP3 SWAP1 SUB ADD DUP2 DUP4 DUP8 DUP1 EXTCODESIZE ISZERO DUP1 ISZERO PUSH2 0x26F7 JUMPI PUSH1 0x0 DUP1 REVERT JUMPDEST POP GAS CALL ISZERO DUP1 ISZERO PUSH2 0x270B JUMPI RETURNDATASIZE PUSH1 0x0 DUP1 RETURNDATACOPY RETURNDATASIZE PUSH1 0x0 REVERT JUMPDEST POP POP POP POP DUP7 PUSH1 0x1 PUSH1 0x1 PUSH1 0xA0 SHL SUB AND PUSH4 0x95EA7B3 DUP5 DUP5 PUSH1 0x40 MLOAD DUP4 PUSH4 0xFFFFFFFF AND PUSH1 0xE0 SHL DUP2 MSTORE PUSH1 0x4 ADD DUP1 DUP4 PUSH1 0x1 PUSH1 0x1 PUSH1 0xA0 SHL SUB AND DUP2 MSTORE PUSH1 0x20 ADD DUP3 DUP2 MSTORE PUSH1 0x20 ADD SWAP3 POP POP POP PUSH1 0x20 PUSH1 0x40 MLOAD DUP1 DUP4 SUB DUP2 PUSH1 0x0 DUP8 DUP1 EXTCODESIZE ISZERO DUP1 ISZERO PUSH2 0x2766 JUMPI PUSH1 0x0 DUP1 REVERT JUMPDEST POP GAS CALL ISZERO DUP1 ISZERO PUSH2 0x277A JUMPI RETURNDATASIZE PUSH1 0x0 DUP1 RETURNDATACOPY RETURNDATASIZE PUSH1 0x0 REVERT JUMPDEST POP POP POP POP PUSH1 0x40 MLOAD RETURNDATASIZE PUSH1 0x20 DUP2 LT ISZERO PUSH2 0x2790 JUMPI PUSH1 0x0 DUP1 REVERT JUMPDEST POP POP PUSH1 0x5 SLOAD PUSH1 0x40 DUP1 MLOAD PUSH4 0x95EA7B3 PUSH1 0xE0 SHL DUP2 MSTORE PUSH1 0x1 PUSH1 0x1 PUSH1 0xA0 SHL SUB DUP7 DUP2 AND PUSH1 0x4 DUP4 ADD MSTORE PUSH1 0x24 DUP3 ADD DUP6 SWAP1 MSTORE SWAP2 MLOAD SWAP2 SWAP1 SWAP3 AND SWAP2 PUSH4 0x95EA7B3 SWAP2 PUSH1 0x44 DUP1 DUP4 ADD SWAP3 PUSH1 0x20 SWAP3 SWAP2 SWAP1 DUP3 SWAP1 SUB ADD DUP2 PUSH1 0x0 DUP8 DUP1 EXTCODESIZE ISZERO DUP1 ISZERO PUSH2 0x27E8 JUMPI PUSH1 0x0 DUP1 REVERT JUMPDEST POP GAS CALL ISZERO DUP1 ISZERO PUSH2 0x27FC JUMPI RETURNDATASIZE PUSH1 0x0 DUP1 RETURNDATACOPY RETURNDATASIZE PUSH1 0x0 REVERT JUMPDEST POP POP POP POP PUSH1 0x40 MLOAD RETURNDATASIZE PUSH1 0x20 DUP2 LT ISZERO PUSH2 0x2812 JUMPI PUSH1 0x0 DUP1 REVERT JUMPDEST POP POP PUSH1 0x5 SLOAD PUSH1 0x3 SLOAD PUSH1 0x40 DUP1 MLOAD PUSH32 0xE8E3370000000000000000000000000000000000000000000000000000000000 DUP2 MSTORE PUSH1 0x1 PUSH1 0x1 PUSH1 0xA0 SHL SUB DUP12 DUP2 AND PUSH1 0x4 DUP4 ADD MSTORE SWAP4 DUP5 AND PUSH1 0x24 DUP3 ADD MSTORE PUSH1 0x44 DUP2 ADD DUP7 SWAP1 MSTORE PUSH1 0x64 DUP2 ADD DUP6 SWAP1 MSTORE PUSH1 0x84 DUP2 ADD DUP7 SWAP1 MSTORE PUSH1 0xA4 DUP2 ADD DUP6 SWAP1 MSTORE SWAP2 DUP4 AND PUSH1 0xC4 DUP4 ADD MSTORE TIMESTAMP PUSH1 0xE4 DUP4 ADD MSTORE MLOAD SWAP2 DUP6 AND SWAP2 PUSH4 0xE8E33700 SWAP2 PUSH2 0x104 DUP1 DUP3 ADD SWAP3 PUSH1 0x60 SWAP3 SWAP1 SWAP2 SWAP1 DUP3 SWAP1 SUB ADD DUP2 PUSH1 0x0 DUP8 DUP1 EXTCODESIZE ISZERO DUP1 ISZERO PUSH2 0x28B1 JUMPI PUSH1 0x0 DUP1 REVERT JUMPDEST POP GAS CALL ISZERO DUP1 ISZERO PUSH2 0x28C5 JUMPI RETURNDATASIZE PUSH1 0x0 DUP1 RETURNDATACOPY RETURNDATASIZE PUSH1 0x0 REVERT JUMPDEST POP POP POP POP PUSH1 0x40 MLOAD RETURNDATASIZE PUSH1 0x60 DUP2 LT ISZERO PUSH2 0x28DB JUMPI PUSH1 0x0 DUP1 REVERT JUMPDEST POP POP POP POP POP POP POP POP POP POP POP JUMP JUMPDEST PUSH1 0x5 SLOAD PUSH1 0x1 PUSH1 0xA0 SHL SWAP1 DIV PUSH1 0xFF AND DUP2 JUMP JUMPDEST PUSH1 0x5 SLOAD PUSH1 0x1 PUSH1 0xA8 SHL SWAP1 DIV PUSH1 0xFF AND ISZERO PUSH2 0x2943 JUMPI PUSH1 0x40 DUP1 MLOAD PUSH3 0x461BCD PUSH1 0xE5 SHL DUP2 MSTORE PUSH1 0x20 PUSH1 0x4 DUP3 ADD MSTORE PUSH1 0x9 PUSH1 0x24 DUP3 ADD MSTORE PUSH9 0x29B43ABA103237BBB7 PUSH1 0xB9 SHL PUSH1 0x44 DUP3 ADD MSTORE SWAP1 MLOAD SWAP1 DUP2 SWAP1 SUB PUSH1 0x64 ADD SWAP1 REVERT JUMPDEST PUSH1 0x0 DUP1 PUSH32 0x0 PUSH1 0x1 PUSH1 0x1 PUSH1 0xA0 SHL SUB AND PUSH4 0x70A08231 CALLER PUSH1 0x40 MLOAD DUP3 PUSH4 0xFFFFFFFF AND PUSH1 0xE0 SHL DUP2 MSTORE PUSH1 0x4 ADD DUP1 DUP3 PUSH1 0x1 PUSH1 0x1 PUSH1 0xA0 SHL SUB AND DUP2 MSTORE PUSH1 0x20 ADD SWAP2 POP POP PUSH1 0x20 PUSH1 0x40 MLOAD DUP1 DUP4 SUB DUP2 DUP7 DUP1 EXTCODESIZE ISZERO DUP1 ISZERO PUSH2 0x29B3 JUMPI PUSH1 0x0 DUP1 REVERT JUMPDEST POP GAS STATICCALL ISZERO DUP1 ISZERO PUSH2 0x29C7 JUMPI RETURNDATASIZE PUSH1 0x0 DUP1 RETURNDATACOPY RETURNDATASIZE PUSH1 0x0 REVERT JUMPDEST POP POP POP POP PUSH1 0x40 MLOAD RETURNDATASIZE PUSH1 0x20 DUP2 LT ISZERO PUSH2 0x29DD JUMPI PUSH1 0x0 DUP1 REVERT JUMPDEST POP MLOAD PUSH1 0x40 DUP1 MLOAD PUSH4 0x70A08231 PUSH1 0xE0 SHL DUP2 MSTORE CALLER PUSH1 0x4 DUP3 ADD MSTORE SWAP1 MLOAD SWAP2 SWAP3 POP PUSH1 0x0 SWAP2 PUSH1 0x1 PUSH1 0x1 PUSH1 0xA0 SHL SUB PUSH32 0x0 AND SWAP2 PUSH4 0x70A08231 SWAP2 PUSH1 0x24 DUP1 DUP4 ADD SWAP3 PUSH1 0x20 SWAP3 SWAP2 SWAP1 DUP3 SWAP1 SUB ADD DUP2 DUP7 DUP1 EXTCODESIZE ISZERO DUP1 ISZERO PUSH2 0x2A4B JUMPI PUSH1 0x0 DUP1 REVERT JUMPDEST POP GAS STATICCALL ISZERO DUP1 ISZERO PUSH2 0x2A5F JUMPI RETURNDATASIZE PUSH1 0x0 DUP1 RETURNDATACOPY RETURNDATASIZE PUSH1 0x0 REVERT JUMPDEST POP POP POP POP PUSH1 0x40 MLOAD RETURNDATASIZE PUSH1 0x20 DUP2 LT ISZERO PUSH2 0x2A75 JUMPI PUSH1 0x0 DUP1 REVERT JUMPDEST POP MLOAD PUSH1 0x40 DUP1 MLOAD PUSH4 0x70A08231 PUSH1 0xE0 SHL DUP2 MSTORE CALLER PUSH1 0x4 DUP3 ADD MSTORE SWAP1 MLOAD SWAP2 SWAP3 POP PUSH1 0x0 SWAP2 PUSH1 0x1 PUSH1 0x1 PUSH1 0xA0 SHL SUB PUSH32 0x0 AND SWAP2 PUSH4 0x70A08231 SWAP2 PUSH1 0x24 DUP1 DUP4 ADD SWAP3 PUSH1 0x20 SWAP3 SWAP2 SWAP1 DUP3 SWAP1 SUB ADD DUP2 DUP7 DUP1 EXTCODESIZE ISZERO DUP1 ISZERO PUSH2 0x2AE3 JUMPI PUSH1 0x0 DUP1 REVERT JUMPDEST POP GAS STATICCALL ISZERO DUP1 ISZERO PUSH2 0x2AF7 JUMPI RETURNDATASIZE PUSH1 0x0 DUP1 RETURNDATACOPY RETURNDATASIZE PUSH1 0x0 REVERT JUMPDEST POP POP POP POP PUSH1 0x40 MLOAD RETURNDATASIZE PUSH1 0x20 DUP2 LT ISZERO PUSH2 0x2B0D JUMPI PUSH1 0x0 DUP1 REVERT JUMPDEST POP MLOAD GT DUP1 ISZERO PUSH2 0x2B25 JUMPI POP PUSH1 0x5 SLOAD PUSH1 0x1 PUSH1 0xA0 SHL SWAP1 DIV PUSH1 0xFF AND JUMPDEST ISZERO PUSH2 0x2BF3 JUMPI PUSH1 0x40 DUP1 MLOAD PUSH4 0x70A08231 PUSH1 0xE0 SHL DUP2 MSTORE CALLER PUSH1 0x4 DUP3 ADD MSTORE SWAP1 MLOAD PUSH1 0x1 PUSH1 0x1 PUSH1 0xA0 SHL SUB PUSH32 0x0 AND SWAP2 PUSH4 0x70A08231 SWAP2 PUSH1 0x24 DUP1 DUP4 ADD SWAP3 PUSH1 0x20 SWAP3 SWAP2 SWAP1 DUP3 SWAP1 SUB ADD DUP2 DUP7 DUP1 EXTCODESIZE ISZERO DUP1 ISZERO PUSH2 0x2B90 JUMPI PUSH1 0x0 DUP1 REVERT JUMPDEST POP GAS STATICCALL ISZERO DUP1 ISZERO PUSH2 0x2BA4 JUMPI RETURNDATASIZE PUSH1 0x0 DUP1 RETURNDATACOPY RETURNDATASIZE PUSH1 0x0 REVERT JUMPDEST POP POP POP POP PUSH1 0x40 MLOAD RETURNDATASIZE PUSH1 0x20 DUP2 LT ISZERO PUSH2 0x2BBA JUMPI PUSH1 0x0 DUP1 REVERT JUMPDEST POP MLOAD SWAP3 POP PUSH2 0x2BF3 PUSH1 0x1 PUSH1 0x1 PUSH1 0xA0 SHL SUB PUSH32 0x0 AND CALLER ADDRESS DUP7 PUSH2 0x2F87 JUMP JUMPDEST DUP2 ISZERO PUSH2 0x2C2E JUMPI PUSH2 0x2C2E PUSH1 0x1 PUSH1 0x1 PUSH1 0xA0 SHL SUB PUSH32 0x0 AND CALLER ADDRESS DUP6 PUSH2 0x2F87 JUMP JUMPDEST DUP1 ISZERO PUSH2 0x2C69 JUMPI PUSH2 0x2C69 PUSH1 0x1 PUSH1 0x1 PUSH1 0xA0 SHL SUB PUSH32 0x0 AND CALLER ADDRESS DUP5 PUSH2 0x2F87 JUMP JUMPDEST PUSH1 0x0 PUSH2 0x2D0E PUSH1 0x1 PUSH1 0x1 PUSH1 0xA0 SHL SUB PUSH32 0x0 AND PUSH4 0x73F79C04 PUSH2 0x2CA7 DUP8 DUP8 PUSH2 0x3434 JUMP JUMPDEST PUSH1 0x40 MLOAD DUP3 PUSH4 0xFFFFFFFF AND PUSH1 0xE0 SHL DUP2 MSTORE PUSH1 0x4 ADD DUP1 DUP3 DUP2 MSTORE PUSH1 0x20 ADD SWAP2 POP POP PUSH1 0x20 PUSH1 0x40 MLOAD DUP1 DUP4 SUB DUP2 DUP7 DUP1 EXTCODESIZE ISZERO DUP1 ISZERO PUSH2 0x2CDB JUMPI PUSH1 0x0 DUP1 REVERT JUMPDEST POP GAS STATICCALL ISZERO DUP1 ISZERO PUSH2 0x2CEF JUMPI RETURNDATASIZE PUSH1 0x0 DUP1 RETURNDATACOPY RETURNDATASIZE PUSH1 0x0 REVERT JUMPDEST POP POP POP POP PUSH1 0x40 MLOAD RETURNDATASIZE PUSH1 0x20 DUP2 LT ISZERO PUSH2 0x2D05 JUMPI PUSH1 0x0 DUP1 REVERT JUMPDEST POP MLOAD DUP4 SWAP1 PUSH2 0x3434 JUMP JUMPDEST PUSH1 0x5 SLOAD SWAP1 SWAP2 POP PUSH1 0x1 PUSH1 0xA0 SHL SWAP1 DIV PUSH1 0xFF AND ISZERO PUSH2 0x2DFC JUMPI PUSH32 0x0 PUSH1 0x1 PUSH1 0x1 PUSH1 0xA0 SHL SUB AND PUSH4 0x18160DDD PUSH1 0x40 MLOAD DUP2 PUSH4 0xFFFFFFFF AND PUSH1 0xE0 SHL DUP2 MSTORE PUSH1 0x4 ADD PUSH1 0x20 PUSH1 0x40 MLOAD DUP1 DUP4 SUB DUP2 DUP7 DUP1 EXTCODESIZE ISZERO DUP1 ISZERO PUSH2 0x2D7C JUMPI PUSH1 0x0 DUP1 REVERT JUMPDEST POP GAS STATICCALL ISZERO DUP1 ISZERO PUSH2 0x2D90 JUMPI RETURNDATASIZE PUSH1 0x0 DUP1 RETURNDATACOPY RETURNDATASIZE PUSH1 0x0 REVERT JUMPDEST POP POP POP POP PUSH1 0x40 MLOAD RETURNDATASIZE PUSH1 0x20 DUP2 LT ISZERO PUSH2 0x2DA6 JUMPI PUSH1 0x0 DUP1 REVERT JUMPDEST POP MLOAD PUSH1 0x7 SLOAD LT ISZERO PUSH2 0x2DED JUMPI PUSH1 0x40 DUP1 MLOAD PUSH3 0x461BCD PUSH1 0xE5 SHL DUP2 MSTORE PUSH1 0x20 PUSH1 0x4 DUP3 ADD MSTORE PUSH1 0xC PUSH1 0x24 DUP3 ADD MSTORE PUSH12 0x13D2135D8C481B5A5B9D1959 PUSH1 0xA2 SHL PUSH1 0x44 DUP3 ADD MSTORE SWAP1 MLOAD SWAP1 DUP2 SWAP1 SUB PUSH1 0x64 ADD SWAP1 REVERT JUMPDEST PUSH2 0x2DF7 DUP2 DUP7 PUSH2 0x3113 JUMP JUMPDEST PUSH2 0xE78 JUMP JUMPDEST PUSH1 0x2 SLOAD PUSH1 0x40 DUP1 MLOAD PUSH4 0x40C10F19 PUSH1 0xE0 SHL DUP2 MSTORE CALLER PUSH1 0x4 DUP3 ADD MSTORE PUSH1 0x24 DUP2 ADD DUP5 SWAP1 MSTORE SWAP1 MLOAD PUSH1 0x1 PUSH1 0x1 PUSH1 0xA0 SHL SUB SWAP1 SWAP3 AND SWAP2 PUSH4 0x40C10F19 SWAP2 PUSH1 0x44 DUP1 DUP3 ADD SWAP3 PUSH1 0x0 SWAP3 SWAP1 SWAP2 SWAP1 DUP3 SWAP1 SUB ADD DUP2 DUP4 DUP8 DUP1 EXTCODESIZE ISZERO DUP1 ISZERO PUSH2 0x2E4F JUMPI PUSH1 0x0 DUP1 REVERT JUMPDEST POP GAS CALL ISZERO DUP1 ISZERO PUSH2 0x2E63 JUMPI RETURNDATASIZE PUSH1 0x0 DUP1 RETURNDATACOPY RETURNDATASIZE PUSH1 0x0 REVERT JUMPDEST POP POP POP POP POP POP POP POP POP JUMP JUMPDEST PUSH1 0x4 SLOAD PUSH1 0x1 PUSH1 0x1 PUSH1 0xA0 SHL SUB AND DUP2 JUMP JUMPDEST PUSH1 0x1 PUSH1 0x0 SWAP1 SLOAD SWAP1 PUSH2 0x100 EXP SWAP1 DIV PUSH1 0x1 PUSH1 0x1 PUSH1 0xA0 SHL SUB AND PUSH1 0x1 PUSH1 0x1 PUSH1 0xA0 SHL SUB AND PUSH4 0xC340A24 PUSH1 0x40 MLOAD DUP2 PUSH4 0xFFFFFFFF AND PUSH1 0xE0 SHL DUP2 MSTORE PUSH1 0x4 ADD PUSH1 0x20 PUSH1 0x40 MLOAD DUP1 DUP4 SUB DUP2 DUP7 DUP1 EXTCODESIZE ISZERO DUP1 ISZERO PUSH2 0x2ECB JUMPI PUSH1 0x0 DUP1 REVERT JUMPDEST POP GAS STATICCALL ISZERO DUP1 ISZERO PUSH2 0x2EDF JUMPI RETURNDATASIZE PUSH1 0x0 DUP1 RETURNDATACOPY RETURNDATASIZE PUSH1 0x0 REVERT JUMPDEST POP POP POP POP PUSH1 0x40 MLOAD RETURNDATASIZE PUSH1 0x20 DUP2 LT ISZERO PUSH2 0x2EF5 JUMPI PUSH1 0x0 DUP1 REVERT JUMPDEST POP MLOAD PUSH1 0x0 SWAP1 PUSH1 0x1 PUSH1 0x1 PUSH1 0xA0 SHL SUB AND CALLER EQ PUSH2 0x2F68 JUMPI PUSH1 0x40 MLOAD PUSH3 0x461BCD PUSH1 0xE5 SHL DUP2 MSTORE PUSH1 0x20 PUSH1 0x4 DUP3 ADD SWAP1 DUP2 MSTORE DUP3 SLOAD PUSH1 0x2 PUSH1 0x0 NOT PUSH2 0x100 PUSH1 0x1 DUP5 AND ISZERO MUL ADD SWAP1 SWAP2 AND DIV PUSH1 0x24 DUP4 ADD DUP2 SWAP1 MSTORE SWAP1 SWAP2 DUP3 SWAP2 PUSH1 0x44 SWAP1 SWAP2 ADD SWAP1 DUP5 SWAP1 DUP1 ISZERO PUSH2 0x949 JUMPI DUP1 PUSH1 0x1F LT PUSH2 0x91E JUMPI PUSH2 0x100 DUP1 DUP4 SLOAD DIV MUL DUP4 MSTORE SWAP2 PUSH1 0x20 ADD SWAP2 PUSH2 0x949 JUMP JUMPDEST POP PUSH2 0x2F74 DUP2 PUSH1 0x0 PUSH2 0x3497 JUMP JUMPDEST POP JUMP JUMPDEST PUSH1 0x5 SLOAD PUSH1 0x1 PUSH1 0xA8 SHL SWAP1 DIV PUSH1 0xFF AND DUP2 JUMP JUMPDEST PUSH1 0x40 DUP1 MLOAD PUSH1 0x1 PUSH1 0x1 PUSH1 0xA0 SHL SUB DUP6 DUP2 AND PUSH1 0x24 DUP4 ADD MSTORE DUP5 DUP2 AND PUSH1 0x44 DUP4 ADD MSTORE PUSH1 0x64 DUP1 DUP4 ADD DUP6 SWAP1 MSTORE DUP4 MLOAD DUP1 DUP5 SUB SWAP1 SWAP2 ADD DUP2 MSTORE PUSH1 0x84 SWAP1 SWAP3 ADD DUP4 MSTORE PUSH1 0x20 DUP3 ADD DUP1 MLOAD PUSH1 0x1 PUSH1 0x1 PUSH1 0xE0 SHL SUB AND PUSH32 0x23B872DD00000000000000000000000000000000000000000000000000000000 OR DUP2 MSTORE SWAP3 MLOAD DUP3 MLOAD PUSH1 0x0 SWAP5 PUSH1 0x60 SWAP5 SWAP4 DUP11 AND SWAP4 SWAP3 SWAP2 DUP3 SWAP2 SWAP1 DUP1 DUP4 DUP4 JUMPDEST PUSH1 0x20 DUP4 LT PUSH2 0x3025 JUMPI DUP1 MLOAD DUP3 MSTORE PUSH1 0x1F NOT SWAP1 SWAP3 ADD SWAP2 PUSH1 0x20 SWAP2 DUP3 ADD SWAP2 ADD PUSH2 0x3006 JUMP JUMPDEST PUSH1 0x1 DUP4 PUSH1 0x20 SUB PUSH2 0x100 EXP SUB DUP1 NOT DUP3 MLOAD AND DUP2 DUP5 MLOAD AND DUP1 DUP3 OR DUP6 MSTORE POP POP POP POP POP POP SWAP1 POP ADD SWAP2 POP POP PUSH1 0x0 PUSH1 0x40 MLOAD DUP1 DUP4 SUB DUP2 PUSH1 0x0 DUP7 GAS CALL SWAP2 POP POP RETURNDATASIZE DUP1 PUSH1 0x0 DUP2 EQ PUSH2 0x3087 JUMPI PUSH1 0x40 MLOAD SWAP2 POP PUSH1 0x1F NOT PUSH1 0x3F RETURNDATASIZE ADD AND DUP3 ADD PUSH1 0x40 MSTORE RETURNDATASIZE DUP3 MSTORE RETURNDATASIZE PUSH1 0x0 PUSH1 0x20 DUP5 ADD RETURNDATACOPY PUSH2 0x308C JUMP JUMPDEST PUSH1 0x60 SWAP2 POP JUMPDEST POP SWAP2 POP SWAP2 POP DUP2 DUP1 ISZERO PUSH2 0x30BA JUMPI POP DUP1 MLOAD ISZERO DUP1 PUSH2 0x30BA JUMPI POP DUP1 DUP1 PUSH1 0x20 ADD SWAP1 MLOAD PUSH1 0x20 DUP2 LT ISZERO PUSH2 0x30B7 JUMPI PUSH1 0x0 DUP1 REVERT JUMPDEST POP MLOAD JUMPDEST PUSH2 0x310B JUMPI PUSH1 0x40 DUP1 MLOAD PUSH3 0x461BCD PUSH1 0xE5 SHL DUP2 MSTORE PUSH1 0x20 PUSH1 0x4 DUP3 ADD MSTORE PUSH1 0x14 PUSH1 0x24 DUP3 ADD MSTORE PUSH32 0x5452414E534645525F46524F4D5F4641494C4544000000000000000000000000 PUSH1 0x44 DUP3 ADD MSTORE SWAP1 MLOAD SWAP1 DUP2 SWAP1 SUB PUSH1 0x64 ADD SWAP1 REVERT JUMPDEST POP POP POP POP POP POP JUMP JUMPDEST PUSH1 0x2 DUP2 PUSH1 0x2 DUP2 GT ISZERO PUSH2 0x3121 JUMPI INVALID JUMPDEST EQ ISZERO PUSH2 0x3143 JUMPI PUSH1 0x2 SLOAD PUSH2 0x313E SWAP1 PUSH1 0x1 PUSH1 0x1 PUSH1 0xA0 SHL SUB AND CALLER DUP5 PUSH2 0x32B8 JUMP JUMPDEST PUSH2 0x32B4 JUMP JUMPDEST PUSH1 0x1 DUP2 PUSH1 0x2 DUP2 GT ISZERO PUSH2 0x3151 JUMPI INVALID JUMPDEST EQ ISZERO PUSH2 0x31F7 JUMPI PUSH1 0x4 DUP1 SLOAD PUSH1 0x40 DUP1 MLOAD PUSH32 0x39F4769300000000000000000000000000000000000000000000000000000000 DUP2 MSTORE CALLER SWAP4 DUP2 ADD SWAP4 SWAP1 SWAP4 MSTORE PUSH1 0x24 DUP4 ADD DUP6 SWAP1 MSTORE MLOAD PUSH1 0x1 PUSH1 0x1 PUSH1 0xA0 SHL SUB SWAP1 SWAP2 AND SWAP2 PUSH4 0x39F47693 SWAP2 PUSH1 0x44 DUP1 DUP4 ADD SWAP3 PUSH1 0x20 SWAP3 SWAP2 SWAP1 DUP3 SWAP1 SUB ADD DUP2 PUSH1 0x0 DUP8 DUP1 EXTCODESIZE ISZERO DUP1 ISZERO PUSH2 0x31C5 JUMPI PUSH1 0x0 DUP1 REVERT JUMPDEST POP GAS CALL ISZERO DUP1 ISZERO PUSH2 0x31D9 JUMPI RETURNDATASIZE PUSH1 0x0 DUP1 RETURNDATACOPY RETURNDATASIZE PUSH1 0x0 REVERT JUMPDEST POP POP POP POP PUSH1 0x40 MLOAD RETURNDATASIZE PUSH1 0x20 DUP2 LT ISZERO PUSH2 0x31EF JUMPI PUSH1 0x0 DUP1 REVERT JUMPDEST POP PUSH2 0x32B4 SWAP1 POP JUMP JUMPDEST PUSH1 0x0 DUP2 PUSH1 0x2 DUP2 GT ISZERO PUSH2 0x3205 JUMPI INVALID JUMPDEST EQ ISZERO PUSH2 0x32B4 JUMPI PUSH1 0x4 DUP1 SLOAD PUSH1 0x40 DUP1 MLOAD PUSH32 0x990966D500000000000000000000000000000000000000000000000000000000 DUP2 MSTORE CALLER SWAP4 DUP2 ADD SWAP4 SWAP1 SWAP4 MSTORE PUSH1 0x24 DUP4 ADD DUP6 SWAP1 MSTORE PUSH1 0x0 PUSH1 0x44 DUP5 ADD DUP2 SWAP1 MSTORE PUSH1 0x64 DUP5 ADD DUP2 SWAP1 MSTORE SWAP1 MLOAD PUSH1 0x1 PUSH1 0x1 PUSH1 0xA0 SHL SUB SWAP1 SWAP3 AND SWAP3 PUSH4 0x990966D5 SWAP3 PUSH1 0x84 DUP1 DUP4 ADD SWAP4 PUSH1 0x20 SWAP4 DUP4 SWAP1 SUB SWAP1 SWAP2 ADD SWAP1 DUP3 SWAP1 DUP8 DUP1 EXTCODESIZE ISZERO DUP1 ISZERO PUSH2 0x328A JUMPI PUSH1 0x0 DUP1 REVERT JUMPDEST POP GAS CALL ISZERO DUP1 ISZERO PUSH2 0x329E JUMPI RETURNDATASIZE PUSH1 0x0 DUP1 RETURNDATACOPY RETURNDATASIZE PUSH1 0x0 REVERT JUMPDEST POP POP POP POP PUSH1 0x40 MLOAD RETURNDATASIZE PUSH1 0x20 DUP2 LT ISZERO PUSH2 0x7DF JUMPI PUSH1 0x0 DUP1 REVERT JUMPDEST POP POP JUMP JUMPDEST PUSH1 0x40 DUP1 MLOAD PUSH1 0x1 PUSH1 0x1 PUSH1 0xA0 SHL SUB DUP5 DUP2 AND PUSH1 0x24 DUP4 ADD MSTORE PUSH1 0x44 DUP1 DUP4 ADD DUP6 SWAP1 MSTORE DUP4 MLOAD DUP1 DUP5 SUB SWAP1 SWAP2 ADD DUP2 MSTORE PUSH1 0x64 SWAP1 SWAP3 ADD DUP4 MSTORE PUSH1 0x20 DUP3 ADD DUP1 MLOAD PUSH1 0x1 PUSH1 0x1 PUSH1 0xE0 SHL SUB AND PUSH32 0xA9059CBB00000000000000000000000000000000000000000000000000000000 OR DUP2 MSTORE SWAP3 MLOAD DUP3 MLOAD PUSH1 0x0 SWAP5 PUSH1 0x60 SWAP5 SWAP4 DUP10 AND SWAP4 SWAP3 SWAP2 DUP3 SWAP2 SWAP1 DUP1 DUP4 DUP4 JUMPDEST PUSH1 0x20 DUP4 LT PUSH2 0x334E JUMPI DUP1 MLOAD DUP3 MSTORE PUSH1 0x1F NOT SWAP1 SWAP3 ADD SWAP2 PUSH1 0x20 SWAP2 DUP3 ADD SWAP2 ADD PUSH2 0x332F JUMP JUMPDEST PUSH1 0x1 DUP4 PUSH1 0x20 SUB PUSH2 0x100 EXP SUB DUP1 NOT DUP3 MLOAD AND DUP2 DUP5 MLOAD AND DUP1 DUP3 OR DUP6 MSTORE POP POP POP POP POP POP SWAP1 POP ADD SWAP2 POP POP PUSH1 0x0 PUSH1 0x40 MLOAD DUP1 DUP4 SUB DUP2 PUSH1 0x0 DUP7 GAS CALL SWAP2 POP POP RETURNDATASIZE DUP1 PUSH1 0x0 DUP2 EQ PUSH2 0x33B0 JUMPI PUSH1 0x40 MLOAD SWAP2 POP PUSH1 0x1F NOT PUSH1 0x3F RETURNDATASIZE ADD AND DUP3 ADD PUSH1 0x40 MSTORE RETURNDATASIZE DUP3 MSTORE RETURNDATASIZE PUSH1 0x0 PUSH1 0x20 DUP5 ADD RETURNDATACOPY PUSH2 0x33B5 JUMP JUMPDEST PUSH1 0x60 SWAP2 POP JUMPDEST POP SWAP2 POP SWAP2 POP DUP2 DUP1 ISZERO PUSH2 0x33E3 JUMPI POP DUP1 MLOAD ISZERO DUP1 PUSH2 0x33E3 JUMPI POP DUP1 DUP1 PUSH1 0x20 ADD SWAP1 MLOAD PUSH1 0x20 DUP2 LT ISZERO PUSH2 0x33E0 JUMPI PUSH1 0x0 DUP1 REVERT JUMPDEST POP MLOAD JUMPDEST PUSH2 0xE78 JUMPI PUSH1 0x40 DUP1 MLOAD PUSH3 0x461BCD PUSH1 0xE5 SHL DUP2 MSTORE PUSH1 0x20 PUSH1 0x4 DUP3 ADD MSTORE PUSH1 0xF PUSH1 0x24 DUP3 ADD MSTORE PUSH32 0x5452414E534645525F4641494C45440000000000000000000000000000000000 PUSH1 0x44 DUP3 ADD MSTORE SWAP1 MLOAD SWAP1 DUP2 SWAP1 SUB PUSH1 0x64 ADD SWAP1 REVERT JUMPDEST PUSH1 0x0 DUP3 DUP3 ADD DUP4 DUP2 LT ISZERO PUSH2 0x348E JUMPI PUSH1 0x40 DUP1 MLOAD PUSH3 0x461BCD PUSH1 0xE5 SHL DUP2 MSTORE PUSH1 0x20 PUSH1 0x4 DUP3 ADD MSTORE PUSH1 0x1B PUSH1 0x24 DUP3 ADD MSTORE PUSH32 0x536166654D6174683A206164646974696F6E206F766572666C6F770000000000 PUSH1 0x44 DUP3 ADD MSTORE SWAP1 MLOAD SWAP1 DUP2 SWAP1 SUB PUSH1 0x64 ADD SWAP1 REVERT JUMPDEST SWAP1 POP JUMPDEST SWAP3 SWAP2 POP POP JUMP JUMPDEST PUSH1 0x0 DUP3 PUSH1 0x1 PUSH1 0x1 PUSH1 0xA0 SHL SUB AND PUSH4 0x70A08231 PUSH32 0x0 PUSH1 0x40 MLOAD DUP3 PUSH4 0xFFFFFFFF AND PUSH1 0xE0 SHL DUP2 MSTORE PUSH1 0x4 ADD DUP1 DUP3 PUSH1 0x1 PUSH1 0x1 PUSH1 0xA0 SHL SUB AND DUP2 MSTORE PUSH1 0x20 ADD SWAP2 POP POP PUSH1 0x20 PUSH1 0x40 MLOAD DUP1 DUP4 SUB DUP2 DUP7 DUP1 EXTCODESIZE ISZERO DUP1 ISZERO PUSH2 0x3506 JUMPI PUSH1 0x0 DUP1 REVERT JUMPDEST POP GAS STATICCALL ISZERO DUP1 ISZERO PUSH2 0x351A JUMPI RETURNDATASIZE PUSH1 0x0 DUP1 RETURNDATACOPY RETURNDATASIZE PUSH1 0x0 REVERT JUMPDEST POP POP POP POP PUSH1 0x40 MLOAD RETURNDATASIZE PUSH1 0x20 DUP2 LT ISZERO PUSH2 0x3530 JUMPI PUSH1 0x0 DUP1 REVERT JUMPDEST POP MLOAD PUSH1 0x40 DUP1 MLOAD PUSH32 0xC3513A800000000000000000000000000000000000000000000000000000000 DUP2 MSTORE SWAP1 MLOAD SWAP2 SWAP3 POP PUSH1 0x0 SWAP2 PUSH1 0x1 PUSH1 0x1 PUSH1 0xA0 SHL SUB PUSH32 0x0 AND SWAP2 PUSH4 0xC3513A8 SWAP2 PUSH1 0x4 DUP1 DUP4 ADD SWAP3 PUSH1 0x20 SWAP3 SWAP2 SWAP1 DUP3 SWAP1 SUB ADD DUP2 DUP7 DUP1 EXTCODESIZE ISZERO DUP1 ISZERO PUSH2 0x35B1 JUMPI PUSH1 0x0 DUP1 REVERT JUMPDEST POP GAS STATICCALL ISZERO DUP1 ISZERO PUSH2 0x35C5 JUMPI RETURNDATASIZE PUSH1 0x0 DUP1 RETURNDATACOPY RETURNDATASIZE PUSH1 0x0 REVERT JUMPDEST POP POP POP POP PUSH1 0x40 MLOAD RETURNDATASIZE PUSH1 0x20 DUP2 LT ISZERO PUSH2 0x35DB JUMPI PUSH1 0x0 DUP1 REVERT JUMPDEST POP MLOAD PUSH1 0x40 DUP1 MLOAD PUSH32 0x1EEC5A9A00000000000000000000000000000000000000000000000000000000 DUP2 MSTORE PUSH1 0x1 PUSH1 0x1 PUSH1 0xA0 SHL SUB DUP8 DUP2 AND PUSH1 0x4 DUP4 ADD MSTORE PUSH1 0x24 DUP3 ADD DUP7 SWAP1 MSTORE SWAP2 MLOAD SWAP3 SWAP4 POP PUSH1 0x0 SWAP3 PUSH32 0x0 SWAP1 SWAP3 AND SWAP2 PUSH4 0x1EEC5A9A SWAP2 PUSH1 0x44 DUP1 DUP3 ADD SWAP3 PUSH1 0x20 SWAP3 SWAP1 SWAP2 SWAP1 DUP3 SWAP1 SUB ADD DUP2 DUP7 DUP1 EXTCODESIZE ISZERO DUP1 ISZERO PUSH2 0x366E JUMPI PUSH1 0x0 DUP1 REVERT JUMPDEST POP GAS STATICCALL ISZERO DUP1 ISZERO PUSH2 0x3682 JUMPI RETURNDATASIZE PUSH1 0x0 DUP1 RETURNDATACOPY RETURNDATASIZE PUSH1 0x0 REVERT JUMPDEST POP POP POP POP PUSH1 0x40 MLOAD RETURNDATASIZE PUSH1 0x20 DUP2 LT ISZERO PUSH2 0x3698 JUMPI PUSH1 0x0 DUP1 REVERT JUMPDEST POP MLOAD SWAP1 POP DUP2 DUP2 GT ISZERO PUSH2 0x36B0 JUMPI POP PUSH4 0x3B9ACA00 DUP2 MUL SWAP2 POP DUP1 JUMPDEST PUSH32 0x0 PUSH1 0x1 PUSH1 0x1 PUSH1 0xA0 SHL SUB AND PUSH4 0xB0EEE30 DUP7 DUP6 PUSH1 0x40 MLOAD DUP4 PUSH4 0xFFFFFFFF AND PUSH1 0xE0 SHL DUP2 MSTORE PUSH1 0x4 ADD DUP1 DUP4 PUSH1 0x1 PUSH1 0x1 PUSH1 0xA0 SHL SUB AND DUP2 MSTORE PUSH1 0x20 ADD DUP3 DUP2 MSTORE PUSH1 0x20 ADD SWAP3 POP POP POP PUSH1 0x0 PUSH1 0x40 MLOAD DUP1 DUP4 SUB DUP2 PUSH1 0x0 DUP8 DUP1 EXTCODESIZE ISZERO DUP1 ISZERO PUSH2 0x3727 JUMPI PUSH1 0x0 DUP1 REVERT JUMPDEST POP GAS CALL ISZERO DUP1 ISZERO PUSH2 0x373B JUMPI RETURNDATASIZE PUSH1 0x0 DUP1 RETURNDATACOPY RETURNDATASIZE PUSH1 0x0 REVERT JUMPDEST POP POP POP POP DUP4 ISZERO PUSH2 0x3807 JUMPI PUSH1 0x3 SLOAD PUSH2 0x375F SWAP1 PUSH1 0x1 PUSH1 0x1 PUSH1 0xA0 SHL SUB DUP8 DUP2 AND SWAP2 AND DUP6 PUSH2 0x3A4C JUMP JUMPDEST PUSH1 0x3 SLOAD PUSH1 0x40 DUP1 MLOAD PUSH32 0xBC157AC100000000000000000000000000000000000000000000000000000000 DUP2 MSTORE PUSH1 0x4 DUP2 ADD DUP7 SWAP1 MSTORE PUSH1 0x1 PUSH1 0x1 PUSH1 0xA0 SHL SUB DUP9 DUP2 AND PUSH1 0x24 DUP4 ADD MSTORE PUSH1 0x44 DUP3 ADD DUP6 SWAP1 MSTORE SWAP2 MLOAD SWAP2 SWAP1 SWAP3 AND SWAP2 PUSH4 0xBC157AC1 SWAP2 PUSH1 0x64 DUP1 DUP4 ADD SWAP3 PUSH1 0x20 SWAP3 SWAP2 SWAP1 DUP3 SWAP1 SUB ADD DUP2 PUSH1 0x0 DUP8 DUP1 EXTCODESIZE ISZERO DUP1 ISZERO PUSH2 0x37D5 JUMPI PUSH1 0x0 DUP1 REVERT JUMPDEST POP GAS CALL ISZERO DUP1 ISZERO PUSH2 0x37E9 JUMPI RETURNDATASIZE PUSH1 0x0 DUP1 RETURNDATACOPY RETURNDATASIZE PUSH1 0x0 REVERT JUMPDEST POP POP POP POP PUSH1 0x40 MLOAD RETURNDATASIZE PUSH1 0x20 DUP2 LT ISZERO PUSH2 0x37FF JUMPI PUSH1 0x0 DUP1 REVERT JUMPDEST POP PUSH2 0xE78 SWAP1 POP JUMP JUMPDEST PUSH1 0x3 SLOAD PUSH2 0xE78 SWAP1 PUSH1 0x1 PUSH1 0x1 PUSH1 0xA0 SHL SUB DUP8 DUP2 AND SWAP2 AND DUP6 PUSH2 0x32B8 JUMP JUMPDEST PUSH1 0x3 SLOAD PUSH1 0x40 DUP1 MLOAD PUSH4 0x40C10F19 PUSH1 0xE0 SHL DUP2 MSTORE ADDRESS PUSH1 0x4 DUP3 ADD MSTORE PUSH1 0x24 DUP2 ADD DUP5 SWAP1 MSTORE SWAP1 MLOAD PUSH1 0x1 PUSH1 0x1 PUSH1 0xA0 SHL SUB SWAP1 SWAP3 AND SWAP2 PUSH4 0x40C10F19 SWAP2 PUSH1 0x44 DUP1 DUP3 ADD SWAP3 PUSH1 0x0 SWAP3 SWAP1 SWAP2 SWAP1 DUP3 SWAP1 SUB ADD DUP2 DUP4 DUP8 DUP1 EXTCODESIZE ISZERO DUP1 ISZERO PUSH2 0x3874 JUMPI PUSH1 0x0 DUP1 REVERT JUMPDEST POP GAS CALL ISZERO DUP1 ISZERO PUSH2 0x3888 JUMPI RETURNDATASIZE PUSH1 0x0 DUP1 RETURNDATACOPY RETURNDATASIZE PUSH1 0x0 REVERT JUMPDEST POP POP PUSH1 0x5 SLOAD PUSH1 0x4 DUP1 SLOAD PUSH1 0x40 DUP1 MLOAD PUSH4 0x95EA7B3 PUSH1 0xE0 SHL DUP2 MSTORE PUSH1 0x1 PUSH1 0x1 PUSH1 0xA0 SHL SUB SWAP3 DUP4 AND SWAP4 DUP2 ADD SWAP4 SWAP1 SWAP4 MSTORE PUSH1 0x24 DUP4 ADD DUP8 SWAP1 MSTORE MLOAD SWAP3 AND SWAP4 POP PUSH4 0x95EA7B3 SWAP3 POP PUSH1 0x44 DUP1 DUP3 ADD SWAP3 PUSH1 0x20 SWAP3 SWAP1 SWAP2 SWAP1 DUP3 SWAP1 SUB ADD DUP2 PUSH1 0x0 DUP8 DUP1 EXTCODESIZE ISZERO DUP1 ISZERO PUSH2 0x38E6 JUMPI PUSH1 0x0 DUP1 REVERT JUMPDEST POP GAS CALL ISZERO DUP1 ISZERO PUSH2 0x38FA JUMPI RETURNDATASIZE PUSH1 0x0 DUP1 RETURNDATACOPY RETURNDATASIZE PUSH1 0x0 REVERT JUMPDEST POP POP POP POP PUSH1 0x40 MLOAD RETURNDATASIZE PUSH1 0x20 DUP2 LT ISZERO PUSH2 0x3910 JUMPI PUSH1 0x0 DUP1 REVERT JUMPDEST POP POP PUSH1 0x4 DUP1 SLOAD PUSH1 0x40 DUP1 MLOAD PUSH32 0xD866C9D800000000000000000000000000000000000000000000000000000000 DUP2 MSTORE ADDRESS SWAP4 DUP2 ADD SWAP4 SWAP1 SWAP4 MSTORE PUSH1 0x24 DUP4 ADD DUP5 SWAP1 MSTORE PUSH1 0x0 PUSH1 0x44 DUP5 ADD DUP2 SWAP1 MSTORE PUSH1 0x1 PUSH1 0x64 DUP6 ADD MSTORE SWAP1 MLOAD PUSH1 0x1 PUSH1 0x1 PUSH1 0xA0 SHL SUB SWAP1 SWAP3 AND SWAP3 PUSH4 0xD866C9D8 SWAP3 PUSH1 0x84 DUP1 DUP4 ADD SWAP4 PUSH1 0x20 SWAP4 DUP4 SWAP1 SUB SWAP1 SWAP2 ADD SWAP1 DUP3 SWAP1 DUP8 DUP1 EXTCODESIZE ISZERO DUP1 ISZERO PUSH2 0x3991 JUMPI PUSH1 0x0 DUP1 REVERT JUMPDEST POP GAS CALL ISZERO DUP1 ISZERO PUSH2 0x39A5 JUMPI RETURNDATASIZE PUSH1 0x0 DUP1 RETURNDATACOPY RETURNDATASIZE PUSH1 0x0 REVERT JUMPDEST POP POP POP POP PUSH1 0x40 MLOAD RETURNDATASIZE PUSH1 0x20 DUP2 LT ISZERO PUSH2 0x39BB JUMPI PUSH1 0x0 DUP1 REVERT JUMPDEST POP POP PUSH1 0x40 DUP1 MLOAD DUP3 DUP2 MSTORE SWAP1 MLOAD PUSH32 0xC4C14883AE9FD8E26D5D59E3485ED29FD126D781D7E498A4CA5C54C8268E4936 SWAP2 DUP2 SWAP1 SUB PUSH1 0x20 ADD SWAP1 LOG1 POP JUMP JUMPDEST PUSH1 0x0 DUP3 PUSH2 0x3A02 JUMPI POP PUSH1 0x0 PUSH2 0x3491 JUMP JUMPDEST DUP3 DUP3 MUL DUP3 DUP5 DUP3 DUP2 PUSH2 0x3A0F JUMPI INVALID JUMPDEST DIV EQ PUSH2 0x348E JUMPI PUSH1 0x40 MLOAD PUSH3 0x461BCD PUSH1 0xE5 SHL DUP2 MSTORE PUSH1 0x4 ADD DUP1 DUP1 PUSH1 0x20 ADD DUP3 DUP2 SUB DUP3 MSTORE PUSH1 0x21 DUP2 MSTORE PUSH1 0x20 ADD DUP1 PUSH2 0x3BB0 PUSH1 0x21 SWAP2 CODECOPY PUSH1 0x40 ADD SWAP2 POP POP PUSH1 0x40 MLOAD DUP1 SWAP2 SUB SWAP1 REVERT JUMPDEST PUSH1 0x40 DUP1 MLOAD PUSH1 0x1 PUSH1 0x1 PUSH1 0xA0 SHL SUB DUP5 DUP2 AND PUSH1 0x24 DUP4 ADD MSTORE PUSH1 0x44 DUP1 DUP4 ADD DUP6 SWAP1 MSTORE DUP4 MLOAD DUP1 DUP5 SUB SWAP1 SWAP2 ADD DUP2 MSTORE PUSH1 0x64 SWAP1 SWAP3 ADD DUP4 MSTORE PUSH1 0x20 DUP3 ADD DUP1 MLOAD PUSH1 0x1 PUSH1 0x1 PUSH1 0xE0 SHL SUB AND PUSH4 0x95EA7B3 PUSH1 0xE0 SHL OR DUP2 MSTORE SWAP3 MLOAD DUP3 MLOAD PUSH1 0x0 SWAP5 PUSH1 0x60 SWAP5 SWAP4 DUP10 AND SWAP4 SWAP3 SWAP2 DUP3 SWAP2 SWAP1 DUP1 DUP4 DUP4 JUMPDEST PUSH1 0x20 DUP4 LT PUSH2 0x3AC9 JUMPI DUP1 MLOAD DUP3 MSTORE PUSH1 0x1F NOT SWAP1 SWAP3 ADD SWAP2 PUSH1 0x20 SWAP2 DUP3 ADD SWAP2 ADD PUSH2 0x3AAA JUMP JUMPDEST PUSH1 0x1 DUP4 PUSH1 0x20 SUB PUSH2 0x100 EXP SUB DUP1 NOT DUP3 MLOAD AND DUP2 DUP5 MLOAD AND DUP1 DUP3 OR DUP6 MSTORE POP POP POP POP POP POP SWAP1 POP ADD SWAP2 POP POP PUSH1 0x0 PUSH1 0x40 MLOAD DUP1 DUP4 SUB DUP2 PUSH1 0x0 DUP7 GAS CALL SWAP2 POP POP RETURNDATASIZE DUP1 PUSH1 0x0 DUP2 EQ PUSH2 0x3B2B JUMPI PUSH1 0x40 MLOAD SWAP2 POP PUSH1 0x1F NOT PUSH1 0x3F RETURNDATASIZE ADD AND DUP3 ADD PUSH1 0x40 MSTORE RETURNDATASIZE DUP3 MSTORE RETURNDATASIZE PUSH1 0x0 PUSH1 0x20 DUP5 ADD RETURNDATACOPY PUSH2 0x3B30 JUMP JUMPDEST PUSH1 0x60 SWAP2 POP JUMPDEST POP SWAP2 POP SWAP2 POP DUP2 DUP1 ISZERO PUSH2 0x3B5E JUMPI POP DUP1 MLOAD ISZERO DUP1 PUSH2 0x3B5E JUMPI POP DUP1 DUP1 PUSH1 0x20 ADD SWAP1 MLOAD PUSH1 0x20 DUP2 LT ISZERO PUSH2 0x3B5B JUMPI PUSH1 0x0 DUP1 REVERT JUMPDEST POP MLOAD JUMPDEST PUSH2 0xE78 JUMPI PUSH1 0x40 DUP1 MLOAD PUSH3 0x461BCD PUSH1 0xE5 SHL DUP2 MSTORE PUSH1 0x20 PUSH1 0x4 DUP3 ADD MSTORE PUSH1 0xE PUSH1 0x24 DUP3 ADD MSTORE PUSH32 0x415050524F56455F4641494C4544000000000000000000000000000000000000 PUSH1 0x44 DUP3 ADD MSTORE SWAP1 MLOAD SWAP1 DUP2 SWAP1 SUB PUSH1 0x64 ADD SWAP1 REVERT INVALID MSTORE8 PUSH2 0x6665 0x4D PUSH2 0x7468 GASPRICE KECCAK256 PUSH14 0x756C7469706C69636174696F6E20 PUSH16 0x766572666C6F77576974686472617720 PUSH23 0x616C7565206D7573742062652067726561746572207468 PUSH2 0x6E20 ADDRESS LOG2 PUSH5 0x6970667358 0x22 SLT KECCAK256 MSTORE8 0x21 0x5F 0xD6 0xC6 0x4D 0xD0 0xC9 PUSH21 0xACC83FB19D0FFEDDE25DDBD112FB415B37AB586720 JUMP INVALID PUSH5 0x736F6C6343 STOP SMOD SDIV STOP CALLER "
				},
				"gasEstimates": {
					"creation": {
						"codeDepositCost": "3080600",
						"executionCost": "infinite",
						"totalCost": "infinite"
					},
					"external": {
						"authority()": "1126",
						"bridgeBack(uint256,uint8)": "infinite",
						"defund(address)": "infinite",
						"exoMigrated()": "1138",
						"gEXO()": "1127",
						"halt()": "infinite",
						"migrate(uint256,uint8,uint8)": "infinite",
						"migrateAll(uint8)": "infinite",
						"migrateContracts(address,address,address,address,address)": "infinite",
						"migrateLP(address,bool,address,uint256,uint256)": "infinite",
						"migrateToken(address)": "infinite",
						"newEXO()": "1127",
						"newStaking()": "1103",
						"newTreasury()": "1083",
						"oldEXO()": "infinite",
						"oldStaking()": "infinite",
						"oldSupply()": "1067",
						"oldTreasury()": "infinite",
						"oldsEXO()": "infinite",
						"oldwsEXO()": "infinite",
						"setAuthority(address)": "infinite",
						"setgOHM(address)": "infinite",
						"shutdown()": "1137",
						"startTimelock()": "infinite",
						"sushiRouter()": "infinite",
						"timelockEnd()": "1065",
						"timelockLength()": "infinite",
						"uniRouter()": "infinite",
						"withdrawToken(address,uint256,address)": "infinite"
					},
					"internal": {
						"_fund(uint256)": "infinite",
						"_migrateToken(address,bool)": "infinite",
						"_send(uint256,enum ExodusTokenMigrator.TYPE)": "infinite"
					}
				},
				"methodIdentifiers": {
					"authority()": "bf7e214f",
					"bridgeBack(uint256,uint8)": "abacbb2f",
					"defund(address)": "d6fa3760",
					"exoMigrated()": "e3c8bc0d",
					"gEXO()": "2af36b43",
					"halt()": "5ed7ca5b",
					"migrate(uint256,uint8,uint8)": "0465f072",
					"migrateAll(uint8)": "ec78f90b",
					"migrateContracts(address,address,address,address,address)": "b71a6df3",
					"migrateLP(address,bool,address,uint256,uint256)": "dfd9e685",
					"migrateToken(address)": "f96a6006",
					"newEXO()": "5c5fadc1",
					"newStaking()": "ed44527b",
					"newTreasury()": "4579b8b4",
					"oldEXO()": "149bab24",
					"oldStaking()": "4edf8980",
					"oldSupply()": "05850844",
					"oldTreasury()": "cf0ef516",
					"oldsEXO()": "6c8374ac",
					"oldwsEXO()": "d8212545",
					"setAuthority(address)": "7a9e5e4b",
					"setgOHM(address)": "245c0e99",
					"shutdown()": "fc0e74d1",
					"startTimelock()": "b29c7444",
					"sushiRouter()": "6d13582c",
					"timelockEnd()": "694d6635",
					"timelockLength()": "219a1f81",
					"uniRouter()": "a0e47bf6",
					"withdrawToken(address,uint256,address)": "3ccdbb28"
				}
			},
			"storageLayout": {
				"storage": [
					{
						"astId": 647,
						"contract": "ExodusTokenMigrator/OlympusTokenMigrator.sol:ExodusTokenMigrator",
						"label": "UNAUTHORIZED",
						"offset": 0,
						"slot": "0",
						"type": "t_string_storage"
					},
					{
						"astId": 649,
						"contract": "ExodusTokenMigrator/OlympusTokenMigrator.sol:ExodusTokenMigrator",
						"label": "authority",
						"offset": 0,
						"slot": "1",
						"type": "t_contract(IExodusAuthority)147"
					},
					{
						"astId": 804,
						"contract": "ExodusTokenMigrator/OlympusTokenMigrator.sol:ExodusTokenMigrator",
						"label": "gEXO",
						"offset": 0,
						"slot": "2",
						"type": "t_contract(IgEXO)534"
					},
					{
						"astId": 806,
						"contract": "ExodusTokenMigrator/OlympusTokenMigrator.sol:ExodusTokenMigrator",
						"label": "newTreasury",
						"offset": 0,
						"slot": "3",
						"type": "t_contract(ITreasury)336"
					},
					{
						"astId": 808,
						"contract": "ExodusTokenMigrator/OlympusTokenMigrator.sol:ExodusTokenMigrator",
						"label": "newStaking",
						"offset": 0,
						"slot": "4",
						"type": "t_contract(IStaking)253"
					},
					{
						"astId": 810,
						"contract": "ExodusTokenMigrator/OlympusTokenMigrator.sol:ExodusTokenMigrator",
						"label": "newEXO",
						"offset": 0,
						"slot": "5",
						"type": "t_contract(IERC20)68"
					},
					{
						"astId": 812,
						"contract": "ExodusTokenMigrator/OlympusTokenMigrator.sol:ExodusTokenMigrator",
						"label": "exoMigrated",
						"offset": 20,
						"slot": "5",
						"type": "t_bool"
					},
					{
						"astId": 814,
						"contract": "ExodusTokenMigrator/OlympusTokenMigrator.sol:ExodusTokenMigrator",
						"label": "shutdown",
						"offset": 21,
						"slot": "5",
						"type": "t_bool"
					},
					{
						"astId": 818,
						"contract": "ExodusTokenMigrator/OlympusTokenMigrator.sol:ExodusTokenMigrator",
						"label": "timelockEnd",
						"offset": 0,
						"slot": "6",
						"type": "t_uint256"
					},
					{
						"astId": 820,
						"contract": "ExodusTokenMigrator/OlympusTokenMigrator.sol:ExodusTokenMigrator",
						"label": "oldSupply",
						"offset": 0,
						"slot": "7",
						"type": "t_uint256"
					}
				],
				"types": {
					"t_bool": {
						"encoding": "inplace",
						"label": "bool",
						"numberOfBytes": "1"
					},
					"t_contract(IERC20)68": {
						"encoding": "inplace",
						"label": "contract IERC20",
						"numberOfBytes": "20"
					},
					"t_contract(IExodusAuthority)147": {
						"encoding": "inplace",
						"label": "contract IExodusAuthority",
						"numberOfBytes": "20"
					},
					"t_contract(IStaking)253": {
						"encoding": "inplace",
						"label": "contract IStaking",
						"numberOfBytes": "20"
					},
					"t_contract(ITreasury)336": {
						"encoding": "inplace",
						"label": "contract ITreasury",
						"numberOfBytes": "20"
					},
					"t_contract(IgEXO)534": {
						"encoding": "inplace",
						"label": "contract IgEXO",
						"numberOfBytes": "20"
					},
					"t_string_storage": {
						"encoding": "bytes",
						"label": "string",
						"numberOfBytes": "32"
					},
					"t_uint256": {
						"encoding": "inplace",
						"label": "uint256",
						"numberOfBytes": "32"
					}
				}
			},
			"userdoc": {
				"kind": "user",
				"methods": {
					"migrateLP(address,bool,address,uint256,uint256)": {
						"notice": "Migrate LP and pair with new OHM"
					}
				},
				"version": 1
			}
		}
	}
}