{
	"gEXO/gOHM.sol": {
		"gEXO": {
			"abi": [
				{
					"inputs": [
						{
							"internalType": "address",
							"name": "_migrator",
							"type": "address"
						},
						{
							"internalType": "address",
							"name": "_sEXO",
							"type": "address"
						}
					],
					"stateMutability": "nonpayable",
					"type": "constructor"
				},
				{
					"anonymous": false,
					"inputs": [
						{
							"indexed": true,
							"internalType": "address",
							"name": "owner",
							"type": "address"
						},
						{
							"indexed": true,
							"internalType": "address",
							"name": "spender",
							"type": "address"
						},
						{
							"indexed": false,
							"internalType": "uint256",
							"name": "value",
							"type": "uint256"
						}
					],
					"name": "Approval",
					"type": "event"
				},
				{
					"anonymous": false,
					"inputs": [
						{
							"indexed": true,
							"internalType": "address",
							"name": "delegator",
							"type": "address"
						},
						{
							"indexed": true,
							"internalType": "address",
							"name": "fromDelegate",
							"type": "address"
						},
						{
							"indexed": true,
							"internalType": "address",
							"name": "toDelegate",
							"type": "address"
						}
					],
					"name": "DelegateChanged",
					"type": "event"
				},
				{
					"anonymous": false,
					"inputs": [
						{
							"indexed": true,
							"internalType": "address",
							"name": "delegate",
							"type": "address"
						},
						{
							"indexed": false,
							"internalType": "uint256",
							"name": "previousBalance",
							"type": "uint256"
						},
						{
							"indexed": false,
							"internalType": "uint256",
							"name": "newBalance",
							"type": "uint256"
						}
					],
					"name": "DelegateVotesChanged",
					"type": "event"
				},
				{
					"anonymous": false,
					"inputs": [
						{
							"indexed": true,
							"internalType": "address",
							"name": "from",
							"type": "address"
						},
						{
							"indexed": true,
							"internalType": "address",
							"name": "to",
							"type": "address"
						},
						{
							"indexed": false,
							"internalType": "uint256",
							"name": "value",
							"type": "uint256"
						}
					],
					"name": "Transfer",
					"type": "event"
				},
				{
					"inputs": [
						{
							"internalType": "address",
							"name": "owner",
							"type": "address"
						},
						{
							"internalType": "address",
							"name": "spender",
							"type": "address"
						}
					],
					"name": "allowance",
					"outputs": [
						{
							"internalType": "uint256",
							"name": "",
							"type": "uint256"
						}
					],
					"stateMutability": "view",
					"type": "function"
				},
				{
					"inputs": [
						{
							"internalType": "address",
							"name": "spender",
							"type": "address"
						},
						{
							"internalType": "uint256",
							"name": "amount",
							"type": "uint256"
						}
					],
					"name": "approve",
					"outputs": [
						{
							"internalType": "bool",
							"name": "",
							"type": "bool"
						}
					],
					"stateMutability": "nonpayable",
					"type": "function"
				},
				{
					"inputs": [],
					"name": "approved",
					"outputs": [
						{
							"internalType": "address",
							"name": "",
							"type": "address"
						}
					],
					"stateMutability": "view",
					"type": "function"
				},
				{
					"inputs": [
						{
							"internalType": "uint256",
							"name": "_amount",
							"type": "uint256"
						}
					],
					"name": "balanceFrom",
					"outputs": [
						{
							"internalType": "uint256",
							"name": "",
							"type": "uint256"
						}
					],
					"stateMutability": "view",
					"type": "function"
				},
				{
					"inputs": [
						{
							"internalType": "address",
							"name": "account",
							"type": "address"
						}
					],
					"name": "balanceOf",
					"outputs": [
						{
							"internalType": "uint256",
							"name": "",
							"type": "uint256"
						}
					],
					"stateMutability": "view",
					"type": "function"
				},
				{
					"inputs": [
						{
							"internalType": "uint256",
							"name": "_amount",
							"type": "uint256"
						}
					],
					"name": "balanceTo",
					"outputs": [
						{
							"internalType": "uint256",
							"name": "",
							"type": "uint256"
						}
					],
					"stateMutability": "view",
					"type": "function"
				},
				{
					"inputs": [
						{
							"internalType": "address",
							"name": "_from",
							"type": "address"
						},
						{
							"internalType": "uint256",
							"name": "_amount",
							"type": "uint256"
						}
					],
					"name": "burn",
					"outputs": [],
					"stateMutability": "nonpayable",
					"type": "function"
				},
				{
					"inputs": [
						{
							"internalType": "address",
							"name": "",
							"type": "address"
						},
						{
							"internalType": "uint256",
							"name": "",
							"type": "uint256"
						}
					],
					"name": "checkpoints",
					"outputs": [
						{
							"internalType": "uint256",
							"name": "fromBlock",
							"type": "uint256"
						},
						{
							"internalType": "uint256",
							"name": "votes",
							"type": "uint256"
						}
					],
					"stateMutability": "view",
					"type": "function"
				},
				{
					"inputs": [],
					"name": "decimals",
					"outputs": [
						{
							"internalType": "uint8",
							"name": "",
							"type": "uint8"
						}
					],
					"stateMutability": "view",
					"type": "function"
				},
				{
					"inputs": [
						{
							"internalType": "address",
							"name": "spender",
							"type": "address"
						},
						{
							"internalType": "uint256",
							"name": "subtractedValue",
							"type": "uint256"
						}
					],
					"name": "decreaseAllowance",
					"outputs": [
						{
							"internalType": "bool",
							"name": "",
							"type": "bool"
						}
					],
					"stateMutability": "nonpayable",
					"type": "function"
				},
				{
					"inputs": [
						{
							"internalType": "address",
							"name": "delegatee",
							"type": "address"
						}
					],
					"name": "delegate",
					"outputs": [],
					"stateMutability": "nonpayable",
					"type": "function"
				},
				{
					"inputs": [
						{
							"internalType": "address",
							"name": "",
							"type": "address"
						}
					],
					"name": "delegates",
					"outputs": [
						{
							"internalType": "address",
							"name": "",
							"type": "address"
						}
					],
					"stateMutability": "view",
					"type": "function"
				},
				{
					"inputs": [
						{
							"internalType": "address",
							"name": "account",
							"type": "address"
						}
					],
					"name": "getCurrentVotes",
					"outputs": [
						{
							"internalType": "uint256",
							"name": "",
							"type": "uint256"
						}
					],
					"stateMutability": "view",
					"type": "function"
				},
				{
					"inputs": [
						{
							"internalType": "address",
							"name": "account",
							"type": "address"
						},
						{
							"internalType": "uint256",
							"name": "blockNumber",
							"type": "uint256"
						}
					],
					"name": "getPriorVotes",
					"outputs": [
						{
							"internalType": "uint256",
							"name": "",
							"type": "uint256"
						}
					],
					"stateMutability": "view",
					"type": "function"
				},
				{
					"inputs": [
						{
							"internalType": "address",
							"name": "spender",
							"type": "address"
						},
						{
							"internalType": "uint256",
							"name": "addedValue",
							"type": "uint256"
						}
					],
					"name": "increaseAllowance",
					"outputs": [
						{
							"internalType": "bool",
							"name": "",
							"type": "bool"
						}
					],
					"stateMutability": "nonpayable",
					"type": "function"
				},
				{
					"inputs": [],
					"name": "index",
					"outputs": [
						{
							"internalType": "uint256",
							"name": "",
							"type": "uint256"
						}
					],
					"stateMutability": "view",
					"type": "function"
				},
				{
					"inputs": [
						{
							"internalType": "address",
							"name": "_staking",
							"type": "address"
						},
						{
							"internalType": "address",
							"name": "_sEXO",
							"type": "address"
						}
					],
					"name": "migrate",
					"outputs": [],
					"stateMutability": "nonpayable",
					"type": "function"
				},
				{
					"inputs": [],
					"name": "migrated",
					"outputs": [
						{
							"internalType": "bool",
							"name": "",
							"type": "bool"
						}
					],
					"stateMutability": "view",
					"type": "function"
				},
				{
					"inputs": [
						{
							"internalType": "address",
							"name": "_to",
							"type": "address"
						},
						{
							"internalType": "uint256",
							"name": "_amount",
							"type": "uint256"
						}
					],
					"name": "mint",
					"outputs": [],
					"stateMutability": "nonpayable",
					"type": "function"
				},
				{
					"inputs": [],
					"name": "name",
					"outputs": [
						{
							"internalType": "string",
							"name": "",
							"type": "string"
						}
					],
					"stateMutability": "view",
					"type": "function"
				},
				{
					"inputs": [
						{
							"internalType": "address",
							"name": "",
							"type": "address"
						}
					],
					"name": "numCheckpoints",
					"outputs": [
						{
							"internalType": "uint256",
							"name": "",
							"type": "uint256"
						}
					],
					"stateMutability": "view",
					"type": "function"
				},
				{
					"inputs": [],
					"name": "sEXO",
					"outputs": [
						{
							"internalType": "contract IsEXO",
							"name": "",
							"type": "address"
						}
					],
					"stateMutability": "view",
					"type": "function"
				},
				{
					"inputs": [],
					"name": "symbol",
					"outputs": [
						{
							"internalType": "string",
							"name": "",
							"type": "string"
						}
					],
					"stateMutability": "view",
					"type": "function"
				},
				{
					"inputs": [],
					"name": "totalSupply",
					"outputs": [
						{
							"internalType": "uint256",
							"name": "",
							"type": "uint256"
						}
					],
					"stateMutability": "view",
					"type": "function"
				},
				{
					"inputs": [
						{
							"internalType": "address",
							"name": "recipient",
							"type": "address"
						},
						{
							"internalType": "uint256",
							"name": "amount",
							"type": "uint256"
						}
					],
					"name": "transfer",
					"outputs": [
						{
							"internalType": "bool",
							"name": "",
							"type": "bool"
						}
					],
					"stateMutability": "nonpayable",
					"type": "function"
				},
				{
					"inputs": [
						{
							"internalType": "address",
							"name": "sender",
							"type": "address"
						},
						{
							"internalType": "address",
							"name": "recipient",
							"type": "address"
						},
						{
							"internalType": "uint256",
							"name": "amount",
							"type": "uint256"
						}
					],
					"name": "transferFrom",
					"outputs": [
						{
							"internalType": "bool",
							"name": "",
							"type": "bool"
						}
					],
					"stateMutability": "nonpayable",
					"type": "function"
				}
			],
			"devdoc": {
				"kind": "dev",
				"methods": {
					"balanceFrom(uint256)": {
						"params": {
							"_amount": "uint"
						},
						"returns": {
							"_0": "uint"
						}
					},
					"balanceTo(uint256)": {
						"params": {
							"_amount": "uint"
						},
						"returns": {
							"_0": "uint"
						}
					},
					"burn(address,uint256)": {
						"params": {
							"_amount": "uint",
							"_from": "address"
						}
					},
					"delegate(address)": {
						"params": {
							"delegatee": "The address to delegate votes to"
						}
					},
					"getCurrentVotes(address)": {
						"params": {
							"account": "The address to get votes balance"
						},
						"returns": {
							"_0": "The number of current votes for `account`"
						}
					},
					"getPriorVotes(address,uint256)": {
						"details": "Block number must be a finalized block or else this function will revert to prevent misinformation.",
						"params": {
							"account": "The address of the account to check",
							"blockNumber": "The block number to get the vote balance at"
						},
						"returns": {
							"_0": "The number of votes the account had as of the given block"
						}
					},
					"migrate(address,address)": {
						"params": {
							"_sEXO": "address",
							"_staking": "address"
						}
					},
					"mint(address,uint256)": {
						"params": {
							"_amount": "uint",
							"_to": "address"
						}
					}
				},
				"version": 1
			},
			"evm": {
				"assembly": "    /* \"gEXO/gOHM.sol\":174:7814  contract gEXO is IgEXO, ERC20 {... */\n  mstore(0x40, 0xa0)\n    /* \"gEXO/gOHM.sol\":1295:1571  constructor(address _migrator, address _sEXO) ERC20(\"Governance EXO\", \"gEXO\", 18) {... */\n  callvalue\n  dup1\n  iszero\n  tag_1\n  jumpi\n  0x00\n  dup1\n  revert\ntag_1:\n  pop\n  mload(0x40)\n  sub(codesize, bytecodeSize)\n  dup1\n  bytecodeSize\n  dup4\n  codecopy\n  dup2\n  dup2\n  add\n  0x40\n  mstore\n  0x40\n  dup2\n  lt\n  iszero\n  tag_2\n  jumpi\n  0x00\n  dup1\n  revert\ntag_2:\n  pop\n  dup1\n  mload\n  0x20\n  swap2\n  dup3\n  add\n  mload\n  0x40\n    /* \"gEXO/ERC20.sol\":586:777  constructor(... */\n  dup1\n  mload\n  dup1\n  dup3\n  add\n  dup3\n  mstore\n  0x0e\n  dup2\n  mstore\n  shl(0x90, 0x476f7665726e616e63652045584f)\n  dup2\n  dup7\n  add\n  swap1\n  dup2\n  mstore\n  dup3\n  mload\n  dup1\n  dup5\n  add\n  swap1\n  swap4\n  mstore\n  0x04\n  dup4\n  mstore\n  shl(0xe0, 0x6745584f)\n  swap6\n  dup4\n  add\n  swap6\n  swap1\n  swap6\n  mstore\n    /* \"gEXO/ERC20.sol\":699:712  _name = name_ */\n  dup1\n  mload\n    /* \"gEXO/gOHM.sol\":1295:1571  constructor(address _migrator, address _sEXO) ERC20(\"Governance EXO\", \"gEXO\", 18) {... */\n  swap4\n  swap5\n  swap3\n  swap4\n    /* \"gEXO/ERC20.sol\":586:777  constructor(... */\n  swap1\n  swap3\n    /* \"gEXO/gOHM.sol\":1373:1375  18 */\n  0x12\n  swap2\n    /* \"gEXO/ERC20.sol\":699:712  _name = name_ */\n  tag_6\n  swap2\n    /* \"gEXO/ERC20.sol\":699:704  _name */\n  0x03\n  swap2\n    /* \"gEXO/ERC20.sol\":699:712  _name = name_ */\n  tag_7\n  jump\t// in\ntag_6:\n  pop\n    /* \"gEXO/ERC20.sol\":722:739  _symbol = symbol_ */\n  dup2\n  mload\n  tag_8\n  swap1\n    /* \"gEXO/ERC20.sol\":722:729  _symbol */\n  0x04\n  swap1\n    /* \"gEXO/ERC20.sol\":722:739  _symbol = symbol_ */\n  0x20\n  dup6\n  add\n  swap1\n  tag_7\n  jump\t// in\ntag_8:\n  pop\n    /* \"gEXO/ERC20.sol\":749:770  _decimals = decimals_ */\n  0xf8\n  shl\n  0xff00000000000000000000000000000000000000000000000000000000000000\n  and\n  0x80\n  mstore\n  pop\n  pop\n  sub(shl(0xa0, 0x01), 0x01)\n    /* \"gEXO/gOHM.sol\":1395:1418  _migrator != address(0) */\n  dup3\n  and\n    /* \"gEXO/gOHM.sol\":1387:1445  require(_migrator != address(0), \"Zero address: Migrator\") */\n  tag_10\n  jumpi\n  0x40\n  dup1\n  mload\n  shl(0xe5, 0x461bcd)\n  dup2\n  mstore\n  0x20\n  0x04\n  dup3\n  add\n  mstore\n  0x16\n  0x24\n  dup3\n  add\n  mstore\n  0x5a65726f20616464726573733a204d69677261746f7200000000000000000000\n  0x44\n  dup3\n  add\n  mstore\n  swap1\n  mload\n  swap1\n  dup2\n  swap1\n  sub\n  0x64\n  add\n  swap1\n  revert\ntag_10:\n    /* \"gEXO/gOHM.sol\":1455:1463  approved */\n  0x06\n    /* \"gEXO/gOHM.sol\":1455:1475  approved = _migrator */\n  dup1\n  sload\n  not(sub(shl(0xa0, 0x01), 0x01))\n  and\n  sub(shl(0xa0, 0x01), 0x01)\n  dup5\n  dup2\n  and\n  swap2\n  swap1\n  swap2\n  or\n  swap1\n  swap2\n  sstore\n    /* \"gEXO/gOHM.sol\":1493:1512  _sEXO != address(0) */\n  dup2\n  and\n    /* \"gEXO/gOHM.sol\":1485:1535  require(_sEXO != address(0), \"Zero address: sEXO\") */\n  tag_11\n  jumpi\n  0x40\n  dup1\n  mload\n  shl(0xe5, 0x461bcd)\n  dup2\n  mstore\n  0x20\n  0x04\n  dup3\n  add\n  mstore\n  0x12\n  0x24\n  dup3\n  add\n  mstore\n  shl(0x70, 0x5a65726f20616464726573733a207345584f)\n  0x44\n  dup3\n  add\n  mstore\n  swap1\n  mload\n  swap1\n  dup2\n  swap1\n  sub\n  0x64\n  add\n  swap1\n  revert\ntag_11:\n    /* \"gEXO/gOHM.sol\":1545:1549  sEXO */\n  0x05\n    /* \"gEXO/gOHM.sol\":1545:1564  sEXO = IsEXO(_sEXO) */\n  dup1\n  sload\n  not(sub(shl(0xa0, 0x01), 0x01))\n  and\n  sub(shl(0xa0, 0x01), 0x01)\n  swap3\n  swap1\n  swap3\n  and\n  swap2\n  swap1\n  swap2\n  or\n  swap1\n  sstore\n  pop\n    /* \"gEXO/gOHM.sol\":174:7814  contract gEXO is IgEXO, ERC20 {... */\n  jump(tag_12)\ntag_7:\n  dup3\n  dup1\n  sload\n  0x01\n  dup2\n  0x01\n  and\n  iszero\n  0x0100\n  mul\n  sub\n  and\n  0x02\n  swap1\n  div\n  swap1\n  0x00\n  mstore\n  keccak256(0x00, 0x20)\n  swap1\n  0x1f\n  add\n  0x20\n  swap1\n  div\n  dup2\n  add\n  swap3\n  dup3\n  tag_14\n  jumpi\n  0x00\n  dup6\n  sstore\n  jump(tag_17)\ntag_14:\n  dup3\n  0x1f\n  lt\n  tag_15\n  jumpi\n  dup1\n  mload\n  not(0xff)\n  and\n  dup4\n  dup1\n  add\n  or\n  dup6\n  sstore\n  jump(tag_17)\ntag_15:\n  dup3\n  dup1\n  add\n  0x01\n  add\n  dup6\n  sstore\n  dup3\n  iszero\n  tag_17\n  jumpi\n  swap2\n  dup3\n  add\ntag_16:\n  dup3\n  dup2\n  gt\n  iszero\n  tag_17\n  jumpi\n  dup3\n  mload\n  dup3\n  sstore\n  swap2\n  0x20\n  add\n  swap2\n  swap1\n  0x01\n  add\n  swap1\n  jump(tag_16)\ntag_17:\n  pop\n  tag_18\n  swap3\n  swap2\n  pop\n  tag_19\n  jump\t// in\ntag_18:\n  pop\n  swap1\n  jump\t// out\ntag_19:\ntag_20:\n  dup1\n  dup3\n  gt\n  iszero\n  tag_18\n  jumpi\n  0x00\n  dup2\n  sstore\n  0x01\n  add\n  jump(tag_20)\ntag_12:\n  shr(0xf8, mload(0x80))\n  codecopy(0x00, dataOffset(sub_0), dataSize(sub_0))\n  assignImmutable(\"0x38985005b3886382adf349011d67a82b9ae02641442e41e1921bb637b1dc329d\")\n  return(0x00, dataSize(sub_0))\nstop\n\nsub_0: assembly {\n        /* \"gEXO/gOHM.sol\":174:7814  contract gEXO is IgEXO, ERC20 {... */\n      mstore(0x40, 0x80)\n      callvalue\n      dup1\n      iszero\n      tag_1\n      jumpi\n      0x00\n      dup1\n      revert\n    tag_1:\n      pop\n      jumpi(tag_2, lt(calldatasize, 0x04))\n      shr(0xe0, calldataload(0x00))\n      dup1\n      0x587cde1e\n      gt\n      tag_29\n      jumpi\n      dup1\n      0x95d89b41\n      gt\n      tag_30\n      jumpi\n      dup1\n      0xa8248768\n      gt\n      tag_31\n      jumpi\n      dup1\n      0xa8248768\n      eq\n      tag_25\n      jumpi\n      dup1\n      0xa9059cbb\n      eq\n      tag_26\n      jumpi\n      dup1\n      0xb4b5ea57\n      eq\n      tag_27\n      jumpi\n      dup1\n      0xdd62ed3e\n      eq\n      tag_28\n      jumpi\n      jump(tag_2)\n    tag_31:\n      dup1\n      0x95d89b41\n      eq\n      tag_22\n      jumpi\n      dup1\n      0x9dc29fac\n      eq\n      tag_23\n      jumpi\n      dup1\n      0xa457c2d7\n      eq\n      tag_24\n      jumpi\n      jump(tag_2)\n    tag_30:\n      dup1\n      0x6fcfff45\n      gt\n      tag_32\n      jumpi\n      dup1\n      0x6fcfff45\n      eq\n      tag_19\n      jumpi\n      dup1\n      0x70a08231\n      eq\n      tag_20\n      jumpi\n      dup1\n      0x782d6fe1\n      eq\n      tag_21\n      jumpi\n      jump(tag_2)\n    tag_32:\n      dup1\n      0x587cde1e\n      eq\n      tag_16\n      jumpi\n      dup1\n      0x5c19a95c\n      eq\n      tag_17\n      jumpi\n      dup1\n      0x66a5236c\n      eq\n      tag_18\n      jumpi\n      jump(tag_2)\n    tag_29:\n      dup1\n      0x19d40b08\n      gt\n      tag_33\n      jumpi\n      dup1\n      0x2c678c64\n      gt\n      tag_34\n      jumpi\n      dup1\n      0x2c678c64\n      eq\n      tag_12\n      jumpi\n      dup1\n      0x313ce567\n      eq\n      tag_13\n      jumpi\n      dup1\n      0x39509351\n      eq\n      tag_14\n      jumpi\n      dup1\n      0x40c10f19\n      eq\n      tag_15\n      jumpi\n      jump(tag_2)\n    tag_34:\n      dup1\n      0x19d40b08\n      eq\n      tag_9\n      jumpi\n      dup1\n      0x23b872dd\n      eq\n      tag_10\n      jumpi\n      dup1\n      0x2986c0e5\n      eq\n      tag_11\n      jumpi\n      jump(tag_2)\n    tag_33:\n      dup1\n      0x0cdfebfa\n      gt\n      tag_35\n      jumpi\n      dup1\n      0x0cdfebfa\n      eq\n      tag_6\n      jumpi\n      dup1\n      0x1068361f\n      eq\n      tag_7\n      jumpi\n      dup1\n      0x18160ddd\n      eq\n      tag_8\n      jumpi\n      jump(tag_2)\n    tag_35:\n      dup1\n      0x06d9cea8\n      eq\n      tag_3\n      jumpi\n      dup1\n      0x06fdde03\n      eq\n      tag_4\n      jumpi\n      dup1\n      0x095ea7b3\n      eq\n      tag_5\n      jumpi\n    tag_2:\n      0x00\n      dup1\n      revert\n        /* \"gEXO/gOHM.sol\":980:997  IsEXO public sEXO */\n    tag_3:\n      tag_36\n      tag_37\n      jump\t// in\n    tag_36:\n      0x40\n      dup1\n      mload\n      sub(shl(0xa0, 0x01), 0x01)\n      swap1\n      swap3\n      and\n      dup3\n      mstore\n      mload\n      swap1\n      dup2\n      swap1\n      sub\n      0x20\n      add\n      swap1\n      return\n        /* \"gEXO/ERC20.sol\":783:864  function name() public view returns (string memory) {... */\n    tag_4:\n      tag_38\n      tag_39\n      jump\t// in\n    tag_38:\n      0x40\n      dup1\n      mload\n      0x20\n      dup1\n      dup3\n      mstore\n      dup4\n      mload\n      dup2\n      dup4\n      add\n      mstore\n      dup4\n      mload\n      swap2\n      swap3\n      dup4\n      swap3\n      swap1\n      dup4\n      add\n      swap2\n      dup6\n      add\n      swap1\n      dup1\n      dup4\n      dup4\n      0x00\n    tag_40:\n      dup4\n      dup2\n      lt\n      iszero\n      tag_42\n      jumpi\n      dup2\n      dup2\n      add\n      mload\n      dup4\n      dup3\n      add\n      mstore\n      0x20\n      add\n      jump(tag_40)\n    tag_42:\n      pop\n      pop\n      pop\n      pop\n      swap1\n      pop\n      swap1\n      dup2\n      add\n      swap1\n      0x1f\n      and\n      dup1\n      iszero\n      tag_43\n      jumpi\n      dup1\n      dup3\n      sub\n      dup1\n      mload\n      0x01\n      dup4\n      0x20\n      sub\n      0x0100\n      exp\n      sub\n      not\n      and\n      dup2\n      mstore\n      0x20\n      add\n      swap2\n      pop\n    tag_43:\n      pop\n      swap3\n      pop\n      pop\n      pop\n      mload(0x40)\n      dup1\n      swap2\n      sub\n      swap1\n      return\n        /* \"gEXO/ERC20.sol\":1622:1786  function approve(address spender, uint256 amount) public virtual override returns (bool) {... */\n    tag_5:\n      tag_44\n      0x04\n      dup1\n      calldatasize\n      sub\n      0x40\n      dup2\n      lt\n      iszero\n      tag_45\n      jumpi\n      0x00\n      dup1\n      revert\n    tag_45:\n      pop\n      sub(shl(0xa0, 0x01), 0x01)\n      dup2\n      calldataload\n      and\n      swap1\n      0x20\n      add\n      calldataload\n      tag_46\n      jump\t// in\n    tag_44:\n      0x40\n      dup1\n      mload\n      swap2\n      iszero\n      iszero\n      dup3\n      mstore\n      mload\n      swap1\n      dup2\n      swap1\n      sub\n      0x20\n      add\n      swap1\n      return\n        /* \"gEXO/gOHM.sol\":1069:1138  mapping(address => mapping(uint256 => Checkpoint)) public checkpoints */\n    tag_6:\n      tag_47\n      0x04\n      dup1\n      calldatasize\n      sub\n      0x40\n      dup2\n      lt\n      iszero\n      tag_48\n      jumpi\n      0x00\n      dup1\n      revert\n    tag_48:\n      pop\n      sub(shl(0xa0, 0x01), 0x01)\n      dup2\n      calldataload\n      and\n      swap1\n      0x20\n      add\n      calldataload\n      tag_49\n      jump\t// in\n    tag_47:\n      0x40\n      dup1\n      mload\n      swap3\n      dup4\n      mstore\n      0x20\n      dup4\n      add\n      swap2\n      swap1\n      swap2\n      mstore\n      dup1\n      mload\n      swap2\n      dup3\n      swap1\n      sub\n      add\n      swap1\n      return\n        /* \"gEXO/gOHM.sol\":1837:2232  function migrate(address _staking, address _sEXO) external override onlyApproved {... */\n    tag_7:\n      tag_50\n      0x04\n      dup1\n      calldatasize\n      sub\n      0x40\n      dup2\n      lt\n      iszero\n      tag_51\n      jumpi\n      0x00\n      dup1\n      revert\n    tag_51:\n      pop\n      sub(shl(0xa0, 0x01), 0x01)\n      dup2\n      calldataload\n      dup2\n      and\n      swap2\n      0x20\n      add\n      calldataload\n      and\n      tag_52\n      jump\t// in\n    tag_50:\n      stop\n        /* \"gEXO/ERC20.sol\":1056:1154  function totalSupply() public view override returns (uint256) {... */\n    tag_8:\n      tag_53\n      tag_54\n      jump\t// in\n    tag_53:\n      0x40\n      dup1\n      mload\n      swap2\n      dup3\n      mstore\n      mload\n      swap1\n      dup2\n      swap1\n      sub\n      0x20\n      add\n      swap1\n      return\n        /* \"gEXO/gOHM.sol\":1003:1026  address public approved */\n    tag_9:\n      tag_36\n      tag_56\n      jump\t// in\n        /* \"gEXO/ERC20.sol\":1792:2181  function transferFrom(... */\n    tag_10:\n      tag_44\n      0x04\n      dup1\n      calldatasize\n      sub\n      0x60\n      dup2\n      lt\n      iszero\n      tag_58\n      jumpi\n      0x00\n      dup1\n      revert\n    tag_58:\n      pop\n      sub(shl(0xa0, 0x01), 0x01)\n      dup2\n      calldataload\n      dup2\n      and\n      swap2\n      0x20\n      dup2\n      add\n      calldataload\n      swap1\n      swap2\n      and\n      swap1\n      0x40\n      add\n      calldataload\n      tag_59\n      jump\t// in\n        /* \"gEXO/gOHM.sol\":3022:3114  function index() public view override returns (uint256) {... */\n    tag_11:\n      tag_53\n      tag_61\n      jump\t// in\n        /* \"gEXO/gOHM.sol\":1042:1062  bool public migrated */\n    tag_12:\n      tag_44\n      tag_63\n      jump\t// in\n        /* \"gEXO/ERC20.sol\":961:1050  function decimals() public view virtual returns (uint8) {... */\n    tag_13:\n      tag_64\n      tag_65\n      jump\t// in\n    tag_64:\n      0x40\n      dup1\n      mload\n      0xff\n      swap1\n      swap3\n      and\n      dup3\n      mstore\n      mload\n      swap1\n      dup2\n      swap1\n      sub\n      0x20\n      add\n      swap1\n      return\n        /* \"gEXO/ERC20.sol\":2187:2398  function increaseAllowance(address spender, uint256 addedValue) public virtual returns (bool) {... */\n    tag_14:\n      tag_44\n      0x04\n      dup1\n      calldatasize\n      sub\n      0x40\n      dup2\n      lt\n      iszero\n      tag_67\n      jumpi\n      0x00\n      dup1\n      revert\n    tag_67:\n      pop\n      sub(shl(0xa0, 0x01), 0x01)\n      dup2\n      calldataload\n      and\n      swap1\n      0x20\n      add\n      calldataload\n      tag_68\n      jump\t// in\n        /* \"gEXO/gOHM.sol\":2579:2690  function mint(address _to, uint256 _amount) external override onlyApproved {... */\n    tag_15:\n      tag_50\n      0x04\n      dup1\n      calldatasize\n      sub\n      0x40\n      dup2\n      lt\n      iszero\n      tag_70\n      jumpi\n      0x00\n      dup1\n      revert\n    tag_70:\n      pop\n      sub(shl(0xa0, 0x01), 0x01)\n      dup2\n      calldataload\n      and\n      swap1\n      0x20\n      add\n      calldataload\n      tag_71\n      jump\t// in\n        /* \"gEXO/gOHM.sol\":1199:1243  mapping(address => address) public delegates */\n    tag_16:\n      tag_36\n      0x04\n      dup1\n      calldatasize\n      sub\n      0x20\n      dup2\n      lt\n      iszero\n      tag_73\n      jumpi\n      0x00\n      dup1\n      revert\n    tag_73:\n      pop\n      calldataload\n      sub(shl(0xa0, 0x01), 0x01)\n      and\n      tag_74\n      jump\t// in\n        /* \"gEXO/gOHM.sol\":2374:2476  function delegate(address delegatee) external {... */\n    tag_17:\n      tag_50\n      0x04\n      dup1\n      calldatasize\n      sub\n      0x20\n      dup2\n      lt\n      iszero\n      tag_76\n      jumpi\n      0x00\n      dup1\n      revert\n    tag_76:\n      pop\n      calldataload\n      sub(shl(0xa0, 0x01), 0x01)\n      and\n      tag_77\n      jump\t// in\n        /* \"gEXO/gOHM.sol\":3485:3624  function balanceTo(uint256 _amount) public view override returns (uint256) {... */\n    tag_18:\n      tag_53\n      0x04\n      dup1\n      calldatasize\n      sub\n      0x20\n      dup2\n      lt\n      iszero\n      tag_79\n      jumpi\n      0x00\n      dup1\n      revert\n    tag_79:\n      pop\n      calldataload\n      tag_80\n      jump\t// in\n        /* \"gEXO/gOHM.sol\":1144:1193  mapping(address => uint256) public numCheckpoints */\n    tag_19:\n      tag_53\n      0x04\n      dup1\n      calldatasize\n      sub\n      0x20\n      dup2\n      lt\n      iszero\n      tag_82\n      jumpi\n      0x00\n      dup1\n      revert\n    tag_82:\n      pop\n      calldataload\n      sub(shl(0xa0, 0x01), 0x01)\n      and\n      tag_83\n      jump\t// in\n        /* \"gEXO/ERC20.sol\":1160:1285  function balanceOf(address account) public view virtual override returns (uint256) {... */\n    tag_20:\n      tag_53\n      0x04\n      dup1\n      calldatasize\n      sub\n      0x20\n      dup2\n      lt\n      iszero\n      tag_85\n      jumpi\n      0x00\n      dup1\n      revert\n    tag_85:\n      pop\n      calldataload\n      sub(shl(0xa0, 0x01), 0x01)\n      and\n      tag_86\n      jump\t// in\n        /* \"gEXO/gOHM.sol\":4461:5657  function getPriorVotes(address account, uint256 blockNumber) external view returns (uint256) {... */\n    tag_21:\n      tag_53\n      0x04\n      dup1\n      calldatasize\n      sub\n      0x40\n      dup2\n      lt\n      iszero\n      tag_88\n      jumpi\n      0x00\n      dup1\n      revert\n    tag_88:\n      pop\n      sub(shl(0xa0, 0x01), 0x01)\n      dup2\n      calldataload\n      and\n      swap1\n      0x20\n      add\n      calldataload\n      tag_89\n      jump\t// in\n        /* \"gEXO/ERC20.sol\":870:955  function symbol() public view returns (string memory) {... */\n    tag_22:\n      tag_38\n      tag_91\n      jump\t// in\n        /* \"gEXO/gOHM.sol\":2795:2910  function burn(address _from, uint256 _amount) external override onlyApproved {... */\n    tag_23:\n      tag_50\n      0x04\n      dup1\n      calldatasize\n      sub\n      0x40\n      dup2\n      lt\n      iszero\n      tag_97\n      jumpi\n      0x00\n      dup1\n      revert\n    tag_97:\n      pop\n      sub(shl(0xa0, 0x01), 0x01)\n      dup2\n      calldataload\n      and\n      swap1\n      0x20\n      add\n      calldataload\n      tag_98\n      jump\t// in\n        /* \"gEXO/ERC20.sol\":2404:2712  function decreaseAllowance(address spender, uint256 subtractedValue) public virtual returns (bool) {... */\n    tag_24:\n      tag_44\n      0x04\n      dup1\n      calldatasize\n      sub\n      0x40\n      dup2\n      lt\n      iszero\n      tag_100\n      jumpi\n      0x00\n      dup1\n      revert\n    tag_100:\n      pop\n      sub(shl(0xa0, 0x01), 0x01)\n      dup2\n      calldataload\n      and\n      swap1\n      0x20\n      add\n      calldataload\n      tag_101\n      jump\t// in\n        /* \"gEXO/gOHM.sol\":3229:3370  function balanceFrom(uint256 _amount) public view override returns (uint256) {... */\n    tag_25:\n      tag_53\n      0x04\n      dup1\n      calldatasize\n      sub\n      0x20\n      dup2\n      lt\n      iszero\n      tag_103\n      jumpi\n      0x00\n      dup1\n      revert\n    tag_103:\n      pop\n      calldataload\n      tag_104\n      jump\t// in\n        /* \"gEXO/ERC20.sol\":1291:1461  function transfer(address recipient, uint256 amount) public virtual override returns (bool) {... */\n    tag_26:\n      tag_44\n      0x04\n      dup1\n      calldatasize\n      sub\n      0x40\n      dup2\n      lt\n      iszero\n      tag_106\n      jumpi\n      0x00\n      dup1\n      revert\n    tag_106:\n      pop\n      sub(shl(0xa0, 0x01), 0x01)\n      dup2\n      calldataload\n      and\n      swap1\n      0x20\n      add\n      calldataload\n      tag_107\n      jump\t// in\n        /* \"gEXO/gOHM.sol\":3818:4039  function getCurrentVotes(address account) external view returns (uint256) {... */\n    tag_27:\n      tag_53\n      0x04\n      dup1\n      calldatasize\n      sub\n      0x20\n      dup2\n      lt\n      iszero\n      tag_109\n      jumpi\n      0x00\n      dup1\n      revert\n    tag_109:\n      pop\n      calldataload\n      sub(shl(0xa0, 0x01), 0x01)\n      and\n      tag_110\n      jump\t// in\n        /* \"gEXO/ERC20.sol\":1467:1616  function allowance(address owner, address spender) public view virtual override returns (uint256) {... */\n    tag_28:\n      tag_53\n      0x04\n      dup1\n      calldatasize\n      sub\n      0x40\n      dup2\n      lt\n      iszero\n      tag_112\n      jumpi\n      0x00\n      dup1\n      revert\n    tag_112:\n      pop\n      sub(shl(0xa0, 0x01), 0x01)\n      dup2\n      calldataload\n      dup2\n      and\n      swap2\n      0x20\n      add\n      calldataload\n      and\n      tag_113\n      jump\t// in\n        /* \"gEXO/gOHM.sol\":980:997  IsEXO public sEXO */\n    tag_37:\n      and(sub(shl(0xa0, 0x01), 0x01), sload(0x05))\n      dup2\n      jump\t// out\n        /* \"gEXO/ERC20.sol\":783:864  function name() public view returns (string memory) {... */\n    tag_39:\n        /* \"gEXO/ERC20.sol\":852:857  _name */\n      0x03\n        /* \"gEXO/ERC20.sol\":845:857  return _name */\n      dup1\n      sload\n      0x40\n      dup1\n      mload\n      0x20\n      0x1f\n      0x02\n      not(0x00)\n      0x0100\n      0x01\n      dup9\n      and\n      iszero\n      mul\n      add\n      swap1\n      swap6\n      and\n      swap5\n      swap1\n      swap5\n      div\n      swap4\n      dup5\n      add\n      dup2\n      swap1\n      div\n      dup2\n      mul\n      dup3\n      add\n      dup2\n      add\n      swap1\n      swap3\n      mstore\n      dup3\n      dup2\n      mstore\n        /* \"gEXO/ERC20.sol\":820:833  string memory */\n      0x60\n      swap4\n        /* \"gEXO/ERC20.sol\":845:857  return _name */\n      swap1\n      swap3\n        /* \"gEXO/ERC20.sol\":852:857  _name */\n      swap1\n      swap2\n        /* \"gEXO/ERC20.sol\":845:857  return _name */\n      dup4\n      add\n        /* \"gEXO/ERC20.sol\":852:857  _name */\n      dup3\n        /* \"gEXO/ERC20.sol\":845:857  return _name */\n      dup3\n      dup1\n      iszero\n      tag_115\n      jumpi\n      dup1\n      0x1f\n      lt\n      tag_116\n      jumpi\n      0x0100\n      dup1\n      dup4\n      sload\n      div\n      mul\n      dup4\n      mstore\n      swap2\n      0x20\n      add\n      swap2\n      jump(tag_115)\n    tag_116:\n      dup3\n      add\n      swap2\n      swap1\n      0x00\n      mstore\n      keccak256(0x00, 0x20)\n      swap1\n    tag_117:\n      dup2\n      sload\n      dup2\n      mstore\n      swap1\n      0x01\n      add\n      swap1\n      0x20\n      add\n      dup1\n      dup4\n      gt\n      tag_117\n      jumpi\n      dup3\n      swap1\n      sub\n      0x1f\n      and\n      dup3\n      add\n      swap2\n    tag_115:\n      pop\n      pop\n      pop\n      pop\n      pop\n      swap1\n      pop\n        /* \"gEXO/ERC20.sol\":783:864  function name() public view returns (string memory) {... */\n      swap1\n      jump\t// out\n        /* \"gEXO/ERC20.sol\":1622:1786  function approve(address spender, uint256 amount) public virtual override returns (bool) {... */\n    tag_46:\n        /* \"gEXO/ERC20.sol\":1705:1709  bool */\n      0x00\n        /* \"gEXO/ERC20.sol\":1721:1758  _approve(msg.sender, spender, amount) */\n      tag_119\n        /* \"gEXO/ERC20.sol\":1730:1740  msg.sender */\n      caller\n        /* \"gEXO/ERC20.sol\":1742:1749  spender */\n      dup5\n        /* \"gEXO/ERC20.sol\":1751:1757  amount */\n      dup5\n        /* \"gEXO/ERC20.sol\":1721:1729  _approve */\n      tag_120\n        /* \"gEXO/ERC20.sol\":1721:1758  _approve(msg.sender, spender, amount) */\n      jump\t// in\n    tag_119:\n      pop\n        /* \"gEXO/ERC20.sol\":1775:1779  true */\n      0x01\n        /* \"gEXO/ERC20.sol\":1622:1786  function approve(address spender, uint256 amount) public virtual override returns (bool) {... */\n    tag_118:\n      swap3\n      swap2\n      pop\n      pop\n      jump\t// out\n        /* \"gEXO/gOHM.sol\":1069:1138  mapping(address => mapping(uint256 => Checkpoint)) public checkpoints */\n    tag_49:\n      0x07\n      0x20\n      swap1\n      dup2\n      mstore\n      0x00\n      swap3\n      dup4\n      mstore\n      0x40\n      dup1\n      dup5\n      keccak256\n      swap1\n      swap2\n      mstore\n      swap1\n      dup3\n      mstore\n      swap1\n      keccak256\n      dup1\n      sload\n      0x01\n      swap1\n      swap2\n      add\n      sload\n      dup3\n      jump\t// out\n        /* \"gEXO/gOHM.sol\":1837:2232  function migrate(address _staking, address _sEXO) external override onlyApproved {... */\n    tag_52:\n        /* \"gEXO/gOHM.sol\":419:427  approved */\n      and(sub(shl(0xa0, 0x01), 0x01), sload(0x06))\n        /* \"gEXO/gOHM.sol\":405:415  msg.sender */\n      caller\n        /* \"gEXO/gOHM.sol\":405:427  msg.sender == approved */\n      eq\n        /* \"gEXO/gOHM.sol\":397:445  require(msg.sender == approved, \"Only approved\") */\n      tag_122\n      jumpi\n      0x40\n      dup1\n      mload\n      shl(0xe5, 0x461bcd)\n      dup2\n      mstore\n      0x20\n      0x04\n      dup3\n      add\n      mstore\n      0x0d\n      0x24\n      dup3\n      add\n      mstore\n      shl(0x9a, 0x13db9b1e48185c1c1c9bdd9959)\n      0x44\n      dup3\n      add\n      mstore\n      swap1\n      mload\n      swap1\n      dup2\n      swap1\n      sub\n      0x64\n      add\n      swap1\n      revert\n    tag_122:\n        /* \"gEXO/gOHM.sol\":1937:1945  migrated */\n      sload(0x06)\n      shl(0xa0, 0x01)\n      swap1\n      div\n      0xff\n      and\n        /* \"gEXO/gOHM.sol\":1936:1945  !migrated */\n      iszero\n        /* \"gEXO/gOHM.sol\":1928:1958  require(!migrated, \"Migrated\") */\n      tag_124\n      jumpi\n      0x40\n      dup1\n      mload\n      shl(0xe5, 0x461bcd)\n      dup2\n      mstore\n      0x20\n      0x04\n      dup3\n      add\n      mstore\n      0x08\n      0x24\n      dup3\n      add\n      mstore\n      0x4d69677261746564000000000000000000000000000000000000000000000000\n      0x44\n      dup3\n      add\n      mstore\n      swap1\n      mload\n      swap1\n      dup2\n      swap1\n      sub\n      0x64\n      add\n      swap1\n      revert\n    tag_124:\n        /* \"gEXO/gOHM.sol\":1968:1976  migrated */\n      0x06\n        /* \"gEXO/gOHM.sol\":1968:1983  migrated = true */\n      dup1\n      sload\n      0xffffffffffffffffffffff00ffffffffffffffffffffffffffffffffffffffff\n      and\n      shl(0xa0, 0x01)\n      or\n      swap1\n      dup2\n      swap1\n      sstore\n      sub(shl(0xa0, 0x01), 0x01)\n        /* \"gEXO/gOHM.sol\":2002:2022  _staking != approved */\n      dup4\n      dup2\n      and\n        /* \"gEXO/gOHM.sol\":2014:2022  approved */\n      swap2\n      and\n        /* \"gEXO/gOHM.sol\":2002:2022  _staking != approved */\n      eq\n      iszero\n        /* \"gEXO/gOHM.sol\":1994:2043  require(_staking != approved, \"Invalid argument\") */\n      tag_125\n      jumpi\n      0x40\n      dup1\n      mload\n      shl(0xe5, 0x461bcd)\n      dup2\n      mstore\n      0x20\n      0x04\n      dup3\n      add\n      mstore\n      0x10\n      0x24\n      dup3\n      add\n      mstore\n      0x496e76616c696420617267756d656e7400000000000000000000000000000000\n      0x44\n      dup3\n      add\n      mstore\n      swap1\n      mload\n      swap1\n      dup2\n      swap1\n      sub\n      0x64\n      add\n      swap1\n      revert\n    tag_125:\n      sub(shl(0xa0, 0x01), 0x01)\n        /* \"gEXO/gOHM.sol\":2061:2083  _staking != address(0) */\n      dup3\n      and\n        /* \"gEXO/gOHM.sol\":2053:2106  require(_staking != address(0), \"Zero address found\") */\n      tag_126\n      jumpi\n      0x40\n      dup1\n      mload\n      shl(0xe5, 0x461bcd)\n      dup2\n      mstore\n      0x20\n      0x04\n      dup3\n      add\n      mstore\n      0x12\n      0x24\n      dup3\n      add\n      mstore\n      0x5a65726f206164647265737320666f756e640000000000000000000000000000\n      0x44\n      dup3\n      add\n      mstore\n      swap1\n      mload\n      swap1\n      dup2\n      swap1\n      sub\n      0x64\n      add\n      swap1\n      revert\n    tag_126:\n        /* \"gEXO/gOHM.sol\":2116:2124  approved */\n      0x06\n        /* \"gEXO/gOHM.sol\":2116:2135  approved = _staking */\n      dup1\n      sload\n      not(0xffffffffffffffffffffffffffffffffffffffff)\n      and\n      sub(shl(0xa0, 0x01), 0x01)\n      dup5\n      dup2\n      and\n      swap2\n      swap1\n      swap2\n      or\n      swap1\n      swap2\n      sstore\n        /* \"gEXO/gOHM.sol\":2154:2173  _sEXO != address(0) */\n      dup2\n      and\n        /* \"gEXO/gOHM.sol\":2146:2196  require(_sEXO != address(0), \"Zero address found\") */\n      tag_127\n      jumpi\n      0x40\n      dup1\n      mload\n      shl(0xe5, 0x461bcd)\n      dup2\n      mstore\n      0x20\n      0x04\n      dup3\n      add\n      mstore\n      0x12\n      0x24\n      dup3\n      add\n      mstore\n      0x5a65726f206164647265737320666f756e640000000000000000000000000000\n      0x44\n      dup3\n      add\n      mstore\n      swap1\n      mload\n      swap1\n      dup2\n      swap1\n      sub\n      0x64\n      add\n      swap1\n      revert\n    tag_127:\n        /* \"gEXO/gOHM.sol\":2206:2210  sEXO */\n      0x05\n        /* \"gEXO/gOHM.sol\":2206:2225  sEXO = IsEXO(_sEXO) */\n      dup1\n      sload\n      not(0xffffffffffffffffffffffffffffffffffffffff)\n      and\n      sub(shl(0xa0, 0x01), 0x01)\n      swap3\n      swap1\n      swap3\n      and\n      swap2\n      swap1\n      swap2\n      or\n      swap1\n      sstore\n      pop\n        /* \"gEXO/gOHM.sol\":1837:2232  function migrate(address _staking, address _sEXO) external override onlyApproved {... */\n      jump\t// out\n        /* \"gEXO/ERC20.sol\":1056:1154  function totalSupply() public view override returns (uint256) {... */\n    tag_54:\n        /* \"gEXO/ERC20.sol\":1135:1147  _totalSupply */\n      sload(0x02)\n        /* \"gEXO/ERC20.sol\":1056:1154  function totalSupply() public view override returns (uint256) {... */\n      swap1\n      jump\t// out\n        /* \"gEXO/gOHM.sol\":1003:1026  address public approved */\n    tag_56:\n      and(sub(shl(0xa0, 0x01), 0x01), sload(0x06))\n      dup2\n      jump\t// out\n        /* \"gEXO/ERC20.sol\":1792:2181  function transferFrom(... */\n    tag_59:\n        /* \"gEXO/ERC20.sol\":1928:1932  bool */\n      0x00\n        /* \"gEXO/ERC20.sol\":1944:1980  _transfer(sender, recipient, amount) */\n      tag_130\n        /* \"gEXO/ERC20.sol\":1954:1960  sender */\n      dup5\n        /* \"gEXO/ERC20.sol\":1962:1971  recipient */\n      dup5\n        /* \"gEXO/ERC20.sol\":1973:1979  amount */\n      dup5\n        /* \"gEXO/ERC20.sol\":1944:1953  _transfer */\n      tag_131\n        /* \"gEXO/ERC20.sol\":1944:1980  _transfer(sender, recipient, amount) */\n      jump\t// in\n    tag_130:\n        /* \"gEXO/ERC20.sol\":1990:2153  _approve(... */\n      tag_132\n        /* \"gEXO/ERC20.sol\":2012:2018  sender */\n      dup5\n        /* \"gEXO/ERC20.sol\":2032:2042  msg.sender */\n      caller\n        /* \"gEXO/ERC20.sol\":2056:2143  _allowances[sender][msg.sender].sub(amount, \"ERC20: transfer amount exceeds allowance\") */\n      tag_133\n        /* \"gEXO/ERC20.sol\":2092:2098  amount */\n      dup6\n        /* \"gEXO/ERC20.sol\":2056:2143  _allowances[sender][msg.sender].sub(amount, \"ERC20: transfer amount exceeds allowance\") */\n      mload(0x40)\n      dup1\n      0x60\n      add\n      0x40\n      mstore\n      dup1\n      0x28\n      dup2\n      mstore\n      0x20\n      add\n      data_974d1b4421da69cc60b481194f0dad36a5bb4e23da810da7a7fb30cdba178330\n      0x28\n      swap2\n      codecopy\n      sub(shl(0xa0, 0x01), 0x01)\n        /* \"gEXO/ERC20.sol\":2056:2075  _allowances[sender] */\n      dup11\n      and\n      0x00\n      swap1\n      dup2\n      mstore\n        /* \"gEXO/ERC20.sol\":2056:2067  _allowances */\n      0x01\n        /* \"gEXO/ERC20.sol\":2056:2075  _allowances[sender] */\n      0x20\n      swap1\n      dup2\n      mstore\n      0x40\n      dup1\n      dup4\n      keccak256\n        /* \"gEXO/ERC20.sol\":2076:2086  msg.sender */\n      caller\n        /* \"gEXO/ERC20.sol\":2056:2087  _allowances[sender][msg.sender] */\n      dup5\n      mstore\n      swap1\n      swap2\n      mstore\n      swap1\n      keccak256\n      sload\n      swap2\n        /* \"gEXO/ERC20.sol\":2056:2143  _allowances[sender][msg.sender].sub(amount, \"ERC20: transfer amount exceeds allowance\") */\n      swap1\n        /* \"gEXO/ERC20.sol\":2056:2091  _allowances[sender][msg.sender].sub */\n      tag_134\n        /* \"gEXO/ERC20.sol\":2056:2143  _allowances[sender][msg.sender].sub(amount, \"ERC20: transfer amount exceeds allowance\") */\n      jump\t// in\n    tag_133:\n        /* \"gEXO/ERC20.sol\":1990:1998  _approve */\n      tag_120\n        /* \"gEXO/ERC20.sol\":1990:2153  _approve(... */\n      jump\t// in\n    tag_132:\n      pop\n        /* \"gEXO/ERC20.sol\":2170:2174  true */\n      0x01\n        /* \"gEXO/ERC20.sol\":1792:2181  function transferFrom(... */\n      swap4\n      swap3\n      pop\n      pop\n      pop\n      jump\t// out\n        /* \"gEXO/gOHM.sol\":3022:3114  function index() public view override returns (uint256) {... */\n    tag_61:\n        /* \"gEXO/gOHM.sol\":3095:3099  sEXO */\n      sload(0x05)\n        /* \"gEXO/gOHM.sol\":3095:3107  sEXO.index() */\n      0x40\n      dup1\n      mload\n      0x2986c0e500000000000000000000000000000000000000000000000000000000\n      dup2\n      mstore\n      swap1\n      mload\n        /* \"gEXO/gOHM.sol\":3069:3076  uint256 */\n      0x00\n      swap3\n      sub(shl(0xa0, 0x01), 0x01)\n        /* \"gEXO/gOHM.sol\":3095:3099  sEXO */\n      and\n      swap2\n        /* \"gEXO/gOHM.sol\":3095:3105  sEXO.index */\n      0x2986c0e5\n      swap2\n        /* \"gEXO/gOHM.sol\":3095:3107  sEXO.index() */\n      0x04\n      dup1\n      dup4\n      add\n      swap3\n      0x20\n      swap3\n      swap2\n      swap1\n      dup3\n      swap1\n      sub\n      add\n      dup2\n        /* \"gEXO/gOHM.sol\":3095:3099  sEXO */\n      dup7\n        /* \"gEXO/gOHM.sol\":3095:3107  sEXO.index() */\n      dup1\n      extcodesize\n      iszero\n      dup1\n      iszero\n      tag_136\n      jumpi\n      0x00\n      dup1\n      revert\n    tag_136:\n      pop\n      gas\n      staticcall\n      iszero\n      dup1\n      iszero\n      tag_138\n      jumpi\n      returndatasize\n      0x00\n      dup1\n      returndatacopy\n      revert(0x00, returndatasize)\n    tag_138:\n      pop\n      pop\n      pop\n      pop\n      mload(0x40)\n      returndatasize\n      0x20\n      dup2\n      lt\n      iszero\n      tag_139\n      jumpi\n      0x00\n      dup1\n      revert\n    tag_139:\n      pop\n      mload\n      swap1\n      pop\n        /* \"gEXO/gOHM.sol\":3022:3114  function index() public view override returns (uint256) {... */\n      swap1\n      jump\t// out\n        /* \"gEXO/gOHM.sol\":1042:1062  bool public migrated */\n    tag_63:\n      sload(0x06)\n      shl(0xa0, 0x01)\n      swap1\n      div\n      0xff\n      and\n      dup2\n      jump\t// out\n        /* \"gEXO/ERC20.sol\":961:1050  function decimals() public view virtual returns (uint8) {... */\n    tag_65:\n        /* \"gEXO/ERC20.sol\":1034:1043  _decimals */\n      immutable(\"0x38985005b3886382adf349011d67a82b9ae02641442e41e1921bb637b1dc329d\")\n        /* \"gEXO/ERC20.sol\":961:1050  function decimals() public view virtual returns (uint8) {... */\n      swap1\n      jump\t// out\n        /* \"gEXO/ERC20.sol\":2187:2398  function increaseAllowance(address spender, uint256 addedValue) public virtual returns (bool) {... */\n    tag_68:\n        /* \"gEXO/ERC20.sol\":2300:2310  msg.sender */\n      caller\n        /* \"gEXO/ERC20.sol\":2275:2279  bool */\n      0x00\n        /* \"gEXO/ERC20.sol\":2321:2344  _allowances[msg.sender] */\n      dup2\n      dup2\n      mstore\n        /* \"gEXO/ERC20.sol\":2321:2332  _allowances */\n      0x01\n        /* \"gEXO/ERC20.sol\":2321:2344  _allowances[msg.sender] */\n      0x20\n      swap1\n      dup2\n      mstore\n      0x40\n      dup1\n      dup4\n      keccak256\n      sub(shl(0xa0, 0x01), 0x01)\n        /* \"gEXO/ERC20.sol\":2321:2353  _allowances[msg.sender][spender] */\n      dup8\n      and\n      dup5\n      mstore\n      swap1\n      swap2\n      mstore\n      dup2\n      keccak256\n      sload\n        /* \"gEXO/ERC20.sol\":2275:2279  bool */\n      swap1\n      swap2\n        /* \"gEXO/ERC20.sol\":2291:2370  _approve(msg.sender, spender, _allowances[msg.sender][spender].add(addedValue)) */\n      tag_119\n      swap2\n        /* \"gEXO/ERC20.sol\":2312:2319  spender */\n      dup6\n      swap1\n        /* \"gEXO/ERC20.sol\":2321:2369  _allowances[msg.sender][spender].add(addedValue) */\n      tag_133\n      swap1\n        /* \"gEXO/ERC20.sol\":2358:2368  addedValue */\n      dup7\n        /* \"gEXO/ERC20.sol\":2321:2357  _allowances[msg.sender][spender].add */\n      tag_144\n        /* \"gEXO/ERC20.sol\":2321:2369  _allowances[msg.sender][spender].add(addedValue) */\n      jump\t// in\n        /* \"gEXO/gOHM.sol\":2579:2690  function mint(address _to, uint256 _amount) external override onlyApproved {... */\n    tag_71:\n        /* \"gEXO/gOHM.sol\":419:427  approved */\n      and(sub(shl(0xa0, 0x01), 0x01), sload(0x06))\n        /* \"gEXO/gOHM.sol\":405:415  msg.sender */\n      caller\n        /* \"gEXO/gOHM.sol\":405:427  msg.sender == approved */\n      eq\n        /* \"gEXO/gOHM.sol\":397:445  require(msg.sender == approved, \"Only approved\") */\n      tag_146\n      jumpi\n      0x40\n      dup1\n      mload\n      shl(0xe5, 0x461bcd)\n      dup2\n      mstore\n      0x20\n      0x04\n      dup3\n      add\n      mstore\n      0x0d\n      0x24\n      dup3\n      add\n      mstore\n      shl(0x9a, 0x13db9b1e48185c1c1c9bdd9959)\n      0x44\n      dup3\n      add\n      mstore\n      swap1\n      mload\n      swap1\n      dup2\n      swap1\n      sub\n      0x64\n      add\n      swap1\n      revert\n    tag_146:\n        /* \"gEXO/gOHM.sol\":2664:2683  _mint(_to, _amount) */\n      tag_148\n        /* \"gEXO/gOHM.sol\":2670:2673  _to */\n      dup3\n        /* \"gEXO/gOHM.sol\":2675:2682  _amount */\n      dup3\n        /* \"gEXO/gOHM.sol\":2664:2669  _mint */\n      tag_149\n        /* \"gEXO/gOHM.sol\":2664:2683  _mint(_to, _amount) */\n      jump\t// in\n    tag_148:\n        /* \"gEXO/gOHM.sol\":2579:2690  function mint(address _to, uint256 _amount) external override onlyApproved {... */\n      pop\n      pop\n      jump\t// out\n        /* \"gEXO/gOHM.sol\":1199:1243  mapping(address => address) public delegates */\n    tag_74:\n      mstore(0x20, 0x09)\n      0x00\n      swap1\n      dup2\n      mstore\n      0x40\n      swap1\n      keccak256\n      sload\n      sub(shl(0xa0, 0x01), 0x01)\n      and\n      dup2\n      jump\t// out\n        /* \"gEXO/gOHM.sol\":2374:2476  function delegate(address delegatee) external {... */\n    tag_77:\n        /* \"gEXO/gOHM.sol\":2437:2469  _delegate(msg.sender, delegatee) */\n      tag_151\n        /* \"gEXO/gOHM.sol\":2447:2457  msg.sender */\n      caller\n        /* \"gEXO/gOHM.sol\":2459:2468  delegatee */\n      dup3\n        /* \"gEXO/gOHM.sol\":2437:2446  _delegate */\n      tag_152\n        /* \"gEXO/gOHM.sol\":2437:2469  _delegate(msg.sender, delegatee) */\n      jump\t// in\n    tag_151:\n        /* \"gEXO/gOHM.sol\":2374:2476  function delegate(address delegatee) external {... */\n      pop\n      jump\t// out\n        /* \"gEXO/gOHM.sol\":3485:3624  function balanceTo(uint256 _amount) public view override returns (uint256) {... */\n    tag_80:\n        /* \"gEXO/gOHM.sol\":3551:3558  uint256 */\n      0x00\n        /* \"gEXO/gOHM.sol\":3577:3617  _amount.mul(10**decimals()).div(index()) */\n      tag_118\n        /* \"gEXO/gOHM.sol\":3609:3616  index() */\n      tag_155\n        /* \"gEXO/gOHM.sol\":3609:3614  index */\n      tag_61\n        /* \"gEXO/gOHM.sol\":3609:3616  index() */\n      jump\t// in\n    tag_155:\n        /* \"gEXO/gOHM.sol\":3577:3604  _amount.mul(10**decimals()) */\n      tag_156\n        /* \"gEXO/gOHM.sol\":3593:3603  decimals() */\n      tag_157\n        /* \"gEXO/gOHM.sol\":3593:3601  decimals */\n      tag_65\n        /* \"gEXO/gOHM.sol\":3593:3603  decimals() */\n      jump\t// in\n    tag_157:\n        /* \"gEXO/gOHM.sol\":3577:3584  _amount */\n      dup6\n      swap1\n        /* \"gEXO/gOHM.sol\":3589:3603  10**decimals() */\n      0xff\n      and\n        /* \"gEXO/gOHM.sol\":3589:3591  10 */\n      0x0a\n        /* \"gEXO/gOHM.sol\":3589:3603  10**decimals() */\n      exp\n        /* \"gEXO/gOHM.sol\":3577:3588  _amount.mul */\n      tag_158\n        /* \"gEXO/gOHM.sol\":3577:3604  _amount.mul(10**decimals()) */\n      jump\t// in\n    tag_156:\n        /* \"gEXO/gOHM.sol\":3577:3608  _amount.mul(10**decimals()).div */\n      swap1\n      tag_159\n        /* \"gEXO/gOHM.sol\":3577:3617  _amount.mul(10**decimals()).div(index()) */\n      jump\t// in\n        /* \"gEXO/gOHM.sol\":1144:1193  mapping(address => uint256) public numCheckpoints */\n    tag_83:\n      mstore(0x20, 0x08)\n      0x00\n      swap1\n      dup2\n      mstore\n      0x40\n      swap1\n      keccak256\n      sload\n      dup2\n      jump\t// out\n        /* \"gEXO/ERC20.sol\":1160:1285  function balanceOf(address account) public view virtual override returns (uint256) {... */\n    tag_86:\n      sub(shl(0xa0, 0x01), 0x01)\n        /* \"gEXO/ERC20.sol\":1260:1278  _balances[account] */\n      and\n        /* \"gEXO/ERC20.sol\":1234:1241  uint256 */\n      0x00\n        /* \"gEXO/ERC20.sol\":1260:1278  _balances[account] */\n      swap1\n      dup2\n      mstore\n      0x20\n      dup2\n      swap1\n      mstore\n      0x40\n      swap1\n      keccak256\n      sload\n      swap1\n        /* \"gEXO/ERC20.sol\":1160:1285  function balanceOf(address account) public view virtual override returns (uint256) {... */\n      jump\t// out\n        /* \"gEXO/gOHM.sol\":4461:5657  function getPriorVotes(address account, uint256 blockNumber) external view returns (uint256) {... */\n    tag_89:\n        /* \"gEXO/gOHM.sol\":4545:4552  uint256 */\n      0x00\n        /* \"gEXO/gOHM.sol\":4586:4598  block.number */\n      number\n        /* \"gEXO/gOHM.sol\":4572:4583  blockNumber */\n      dup3\n        /* \"gEXO/gOHM.sol\":4572:4598  blockNumber < block.number */\n      lt\n        /* \"gEXO/gOHM.sol\":4564:4642  require(blockNumber < block.number, \"gEXO::getPriorVotes: not yet determined\") */\n      tag_162\n      jumpi\n      mload(0x40)\n      shl(0xe5, 0x461bcd)\n      dup2\n      mstore\n      0x04\n      add\n      dup1\n      dup1\n      0x20\n      add\n      dup3\n      dup2\n      sub\n      dup3\n      mstore\n      0x27\n      dup2\n      mstore\n      0x20\n      add\n      dup1\n      data_7ce14e62375391d57a10579fed6527dbae13153d5307491a336b206517515337\n      0x27\n      swap2\n      codecopy\n      0x40\n      add\n      swap2\n      pop\n      pop\n      mload(0x40)\n      dup1\n      swap2\n      sub\n      swap1\n      revert\n    tag_162:\n      sub(shl(0xa0, 0x01), 0x01)\n        /* \"gEXO/gOHM.sol\":4676:4699  numCheckpoints[account] */\n      dup4\n      and\n        /* \"gEXO/gOHM.sol\":4653:4673  uint256 nCheckpoints */\n      0x00\n        /* \"gEXO/gOHM.sol\":4676:4699  numCheckpoints[account] */\n      swap1\n      dup2\n      mstore\n        /* \"gEXO/gOHM.sol\":4676:4690  numCheckpoints */\n      0x08\n        /* \"gEXO/gOHM.sol\":4676:4699  numCheckpoints[account] */\n      0x20\n      mstore\n      0x40\n      swap1\n      keccak256\n      sload\n        /* \"gEXO/gOHM.sol\":4713:4730  nCheckpoints == 0 */\n      dup1\n        /* \"gEXO/gOHM.sol\":4709:4765  if (nCheckpoints == 0) {... */\n      tag_163\n      jumpi\n        /* \"gEXO/gOHM.sol\":4753:4754  0 */\n      0x00\n        /* \"gEXO/gOHM.sol\":4746:4754  return 0 */\n      swap2\n      pop\n      pop\n      jump(tag_118)\n        /* \"gEXO/gOHM.sol\":4709:4765  if (nCheckpoints == 0) {... */\n    tag_163:\n      sub(shl(0xa0, 0x01), 0x01)\n        /* \"gEXO/gOHM.sol\":4822:4842  checkpoints[account] */\n      dup5\n      and\n      0x00\n      swap1\n      dup2\n      mstore\n        /* \"gEXO/gOHM.sol\":4822:4833  checkpoints */\n      0x07\n        /* \"gEXO/gOHM.sol\":4822:4842  checkpoints[account] */\n      0x20\n      swap1\n      dup2\n      mstore\n      0x40\n      dup1\n      dup4\n      keccak256\n      not(0x00)\n        /* \"gEXO/gOHM.sol\":4843:4859  nCheckpoints - 1 */\n      dup6\n      add\n        /* \"gEXO/gOHM.sol\":4822:4860  checkpoints[account][nCheckpoints - 1] */\n      dup5\n      mstore\n      swap1\n      swap2\n      mstore\n      swap1\n      keccak256\n        /* \"gEXO/gOHM.sol\":4822:4870  checkpoints[account][nCheckpoints - 1].fromBlock */\n      sload\n        /* \"gEXO/gOHM.sol\":4822:4885  checkpoints[account][nCheckpoints - 1].fromBlock <= blockNumber */\n      dup4\n      lt\n        /* \"gEXO/gOHM.sol\":4818:4963  if (checkpoints[account][nCheckpoints - 1].fromBlock <= blockNumber) {... */\n      tag_164\n      jumpi\n      sub(shl(0xa0, 0x01), 0x01)\n        /* \"gEXO/gOHM.sol\":4908:4928  checkpoints[account] */\n      dup5\n      and\n      0x00\n      swap1\n      dup2\n      mstore\n        /* \"gEXO/gOHM.sol\":4908:4919  checkpoints */\n      0x07\n        /* \"gEXO/gOHM.sol\":4908:4928  checkpoints[account] */\n      0x20\n      swap1\n      dup2\n      mstore\n      0x40\n      dup1\n      dup4\n      keccak256\n      not(0x00)\n        /* \"gEXO/gOHM.sol\":4929:4945  nCheckpoints - 1 */\n      swap1\n      swap5\n      add\n        /* \"gEXO/gOHM.sol\":4908:4946  checkpoints[account][nCheckpoints - 1] */\n      dup4\n      mstore\n      swap3\n      swap1\n      mstore\n      keccak256\n        /* \"gEXO/gOHM.sol\":4944:4945  1 */\n      0x01\n        /* \"gEXO/gOHM.sol\":4908:4952  checkpoints[account][nCheckpoints - 1].votes */\n      add\n      sload\n      swap1\n      pop\n        /* \"gEXO/gOHM.sol\":4901:4952  return checkpoints[account][nCheckpoints - 1].votes */\n      jump(tag_118)\n        /* \"gEXO/gOHM.sol\":4818:4963  if (checkpoints[account][nCheckpoints - 1].fromBlock <= blockNumber) {... */\n    tag_164:\n      sub(shl(0xa0, 0x01), 0x01)\n        /* \"gEXO/gOHM.sol\":5021:5041  checkpoints[account] */\n      dup5\n      and\n      0x00\n      swap1\n      dup2\n      mstore\n        /* \"gEXO/gOHM.sol\":5021:5032  checkpoints */\n      0x07\n        /* \"gEXO/gOHM.sol\":5021:5041  checkpoints[account] */\n      0x20\n      swap1\n      dup2\n      mstore\n      0x40\n      dup1\n      dup4\n      keccak256\n        /* \"gEXO/gOHM.sol\":5021:5044  checkpoints[account][0] */\n      dup4\n      dup1\n      mstore\n      swap1\n      swap2\n      mstore\n      swap1\n      keccak256\n        /* \"gEXO/gOHM.sol\":5021:5054  checkpoints[account][0].fromBlock */\n      sload\n        /* \"gEXO/gOHM.sol\":5021:5068  checkpoints[account][0].fromBlock > blockNumber */\n      dup4\n      lt\n        /* \"gEXO/gOHM.sol\":5017:5103  if (checkpoints[account][0].fromBlock > blockNumber) {... */\n      iszero\n      tag_165\n      jumpi\n        /* \"gEXO/gOHM.sol\":5091:5092  0 */\n      0x00\n        /* \"gEXO/gOHM.sol\":5084:5092  return 0 */\n      swap2\n      pop\n      pop\n      jump(tag_118)\n        /* \"gEXO/gOHM.sol\":5017:5103  if (checkpoints[account][0].fromBlock > blockNumber) {... */\n    tag_165:\n        /* \"gEXO/gOHM.sol\":5113:5126  uint256 lower */\n      0x00\n      not(0x00)\n        /* \"gEXO/gOHM.sol\":5156:5172  nCheckpoints - 1 */\n      dup3\n      add\n        /* \"gEXO/gOHM.sol\":5182:5601  while (upper > lower) {... */\n    tag_166:\n        /* \"gEXO/gOHM.sol\":5197:5202  lower */\n      dup2\n        /* \"gEXO/gOHM.sol\":5189:5194  upper */\n      dup2\n        /* \"gEXO/gOHM.sol\":5189:5202  upper > lower */\n      gt\n        /* \"gEXO/gOHM.sol\":5182:5601  while (upper > lower) {... */\n      iszero\n      tag_167\n      jumpi\n        /* \"gEXO/gOHM.sol\":5261:5262  2 */\n      0x02\n        /* \"gEXO/gOHM.sol\":5244:5257  upper - lower */\n      dup3\n      dup3\n      sub\n        /* \"gEXO/gOHM.sol\":5243:5262  (upper - lower) / 2 */\n      div\n        /* \"gEXO/gOHM.sol\":5235:5262  upper - (upper - lower) / 2 */\n      dup2\n      sub\n        /* \"gEXO/gOHM.sol\":5303:5323  Checkpoint memory cp */\n      tag_169\n      tag_170\n      jump\t// in\n    tag_169:\n      pop\n      sub(shl(0xa0, 0x01), 0x01)\n        /* \"gEXO/gOHM.sol\":5326:5346  checkpoints[account] */\n      dup8\n      and\n      0x00\n      swap1\n      dup2\n      mstore\n        /* \"gEXO/gOHM.sol\":5326:5337  checkpoints */\n      0x07\n        /* \"gEXO/gOHM.sol\":5326:5346  checkpoints[account] */\n      0x20\n      swap1\n      dup2\n      mstore\n      0x40\n      dup1\n      dup4\n      keccak256\n        /* \"gEXO/gOHM.sol\":5326:5354  checkpoints[account][center] */\n      dup5\n      dup5\n      mstore\n      dup3\n      mstore\n      swap2\n      dup3\n      swap1\n      keccak256\n        /* \"gEXO/gOHM.sol\":5303:5354  Checkpoint memory cp = checkpoints[account][center] */\n      dup3\n      mload\n      dup1\n      dup5\n      add\n      swap1\n      swap4\n      mstore\n      dup1\n      sload\n      dup1\n      dup5\n      mstore\n      0x01\n      swap1\n      swap2\n      add\n      sload\n      swap2\n      dup4\n      add\n      swap2\n      swap1\n      swap2\n      mstore\n        /* \"gEXO/gOHM.sol\":5372:5399  cp.fromBlock == blockNumber */\n      dup8\n      eq\n        /* \"gEXO/gOHM.sol\":5368:5591  if (cp.fromBlock == blockNumber) {... */\n      iszero\n      tag_171\n      jumpi\n        /* \"gEXO/gOHM.sol\":5426:5434  cp.votes */\n      0x20\n      add\n      mload\n      swap5\n      pop\n        /* \"gEXO/gOHM.sol\":5419:5434  return cp.votes */\n      tag_118\n      swap4\n      pop\n      pop\n      pop\n      pop\n      jump\n        /* \"gEXO/gOHM.sol\":5368:5591  if (cp.fromBlock == blockNumber) {... */\n    tag_171:\n        /* \"gEXO/gOHM.sol\":5459:5471  cp.fromBlock */\n      dup1\n      mload\n        /* \"gEXO/gOHM.sol\":5459:5485  cp.fromBlock < blockNumber */\n      dup8\n      gt\n        /* \"gEXO/gOHM.sol\":5455:5591  if (cp.fromBlock < blockNumber) {... */\n      iszero\n      tag_173\n      jumpi\n        /* \"gEXO/gOHM.sol\":5513:5519  center */\n      dup2\n        /* \"gEXO/gOHM.sol\":5505:5519  lower = center */\n      swap4\n      pop\n        /* \"gEXO/gOHM.sol\":5455:5591  if (cp.fromBlock < blockNumber) {... */\n      jump(tag_174)\n    tag_173:\n        /* \"gEXO/gOHM.sol\":5575:5576  1 */\n      0x01\n        /* \"gEXO/gOHM.sol\":5566:5572  center */\n      dup3\n        /* \"gEXO/gOHM.sol\":5566:5576  center - 1 */\n      sub\n        /* \"gEXO/gOHM.sol\":5558:5576  upper = center - 1 */\n      swap3\n      pop\n        /* \"gEXO/gOHM.sol\":5455:5591  if (cp.fromBlock < blockNumber) {... */\n    tag_174:\n        /* \"gEXO/gOHM.sol\":5182:5601  while (upper > lower) {... */\n      pop\n      pop\n      jump(tag_166)\n    tag_167:\n      pop\n      sub(shl(0xa0, 0x01), 0x01)\n        /* \"gEXO/gOHM.sol\":5617:5637  checkpoints[account] */\n      dup6\n      and\n      0x00\n      swap1\n      dup2\n      mstore\n        /* \"gEXO/gOHM.sol\":5617:5628  checkpoints */\n      0x07\n        /* \"gEXO/gOHM.sol\":5617:5637  checkpoints[account] */\n      0x20\n      swap1\n      dup2\n      mstore\n      0x40\n      dup1\n      dup4\n      keccak256\n        /* \"gEXO/gOHM.sol\":5617:5644  checkpoints[account][lower] */\n      swap4\n      dup4\n      mstore\n      swap3\n      swap1\n      mstore\n      keccak256\n        /* \"gEXO/gOHM.sol\":5617:5650  checkpoints[account][lower].votes */\n      0x01\n      add\n      sload\n      swap2\n      pop\n      pop\n        /* \"gEXO/gOHM.sol\":4461:5657  function getPriorVotes(address account, uint256 blockNumber) external view returns (uint256) {... */\n      swap3\n      swap2\n      pop\n      pop\n      jump\t// out\n        /* \"gEXO/ERC20.sol\":870:955  function symbol() public view returns (string memory) {... */\n    tag_91:\n        /* \"gEXO/ERC20.sol\":941:948  _symbol */\n      0x04\n        /* \"gEXO/ERC20.sol\":934:948  return _symbol */\n      dup1\n      sload\n      0x40\n      dup1\n      mload\n      0x20\n      0x1f\n      0x02\n      not(0x00)\n      0x0100\n      0x01\n      dup9\n      and\n      iszero\n      mul\n      add\n      swap1\n      swap6\n      and\n      swap5\n      swap1\n      swap5\n      div\n      swap4\n      dup5\n      add\n      dup2\n      swap1\n      div\n      dup2\n      mul\n      dup3\n      add\n      dup2\n      add\n      swap1\n      swap3\n      mstore\n      dup3\n      dup2\n      mstore\n        /* \"gEXO/ERC20.sol\":909:922  string memory */\n      0x60\n      swap4\n        /* \"gEXO/ERC20.sol\":934:948  return _symbol */\n      swap1\n      swap3\n        /* \"gEXO/ERC20.sol\":941:948  _symbol */\n      swap1\n      swap2\n        /* \"gEXO/ERC20.sol\":934:948  return _symbol */\n      dup4\n      add\n        /* \"gEXO/ERC20.sol\":941:948  _symbol */\n      dup3\n        /* \"gEXO/ERC20.sol\":934:948  return _symbol */\n      dup3\n      dup1\n      iszero\n      tag_115\n      jumpi\n      dup1\n      0x1f\n      lt\n      tag_116\n      jumpi\n      0x0100\n      dup1\n      dup4\n      sload\n      div\n      mul\n      dup4\n      mstore\n      swap2\n      0x20\n      add\n      swap2\n      jump(tag_115)\n        /* \"gEXO/gOHM.sol\":2795:2910  function burn(address _from, uint256 _amount) external override onlyApproved {... */\n    tag_98:\n        /* \"gEXO/gOHM.sol\":419:427  approved */\n      and(sub(shl(0xa0, 0x01), 0x01), sload(0x06))\n        /* \"gEXO/gOHM.sol\":405:415  msg.sender */\n      caller\n        /* \"gEXO/gOHM.sol\":405:427  msg.sender == approved */\n      eq\n        /* \"gEXO/gOHM.sol\":397:445  require(msg.sender == approved, \"Only approved\") */\n      tag_180\n      jumpi\n      0x40\n      dup1\n      mload\n      shl(0xe5, 0x461bcd)\n      dup2\n      mstore\n      0x20\n      0x04\n      dup3\n      add\n      mstore\n      0x0d\n      0x24\n      dup3\n      add\n      mstore\n      shl(0x9a, 0x13db9b1e48185c1c1c9bdd9959)\n      0x44\n      dup3\n      add\n      mstore\n      swap1\n      mload\n      swap1\n      dup2\n      swap1\n      sub\n      0x64\n      add\n      swap1\n      revert\n    tag_180:\n        /* \"gEXO/gOHM.sol\":2882:2903  _burn(_from, _amount) */\n      tag_148\n        /* \"gEXO/gOHM.sol\":2888:2893  _from */\n      dup3\n        /* \"gEXO/gOHM.sol\":2895:2902  _amount */\n      dup3\n        /* \"gEXO/gOHM.sol\":2882:2887  _burn */\n      tag_183\n        /* \"gEXO/gOHM.sol\":2882:2903  _burn(_from, _amount) */\n      jump\t// in\n        /* \"gEXO/ERC20.sol\":2404:2712  function decreaseAllowance(address spender, uint256 subtractedValue) public virtual returns (bool) {... */\n    tag_101:\n        /* \"gEXO/ERC20.sol\":2497:2501  bool */\n      0x00\n        /* \"gEXO/ERC20.sol\":2513:2684  _approve(... */\n      tag_119\n        /* \"gEXO/ERC20.sol\":2535:2545  msg.sender */\n      caller\n        /* \"gEXO/ERC20.sol\":2559:2566  spender */\n      dup5\n        /* \"gEXO/ERC20.sol\":2580:2674  _allowances[msg.sender][spender].sub(subtractedValue, \"ERC20: decreased allowance below zero\") */\n      tag_133\n        /* \"gEXO/ERC20.sol\":2617:2632  subtractedValue */\n      dup6\n        /* \"gEXO/ERC20.sol\":2580:2674  _allowances[msg.sender][spender].sub(subtractedValue, \"ERC20: decreased allowance below zero\") */\n      mload(0x40)\n      dup1\n      0x60\n      add\n      0x40\n      mstore\n      dup1\n      0x25\n      dup2\n      mstore\n      0x20\n      add\n      data_f8b476f7d28209d77d4a4ac1fe36b9f8259aa1bb6bddfa6e89de7e51615cf8a8\n      0x25\n      swap2\n      codecopy\n        /* \"gEXO/ERC20.sol\":2592:2602  msg.sender */\n      caller\n        /* \"gEXO/ERC20.sol\":2580:2603  _allowances[msg.sender] */\n      0x00\n      swap1\n      dup2\n      mstore\n        /* \"gEXO/ERC20.sol\":2580:2591  _allowances */\n      0x01\n        /* \"gEXO/ERC20.sol\":2580:2603  _allowances[msg.sender] */\n      0x20\n      swap1\n      dup2\n      mstore\n      0x40\n      dup1\n      dup4\n      keccak256\n      sub(shl(0xa0, 0x01), 0x01)\n        /* \"gEXO/ERC20.sol\":2580:2612  _allowances[msg.sender][spender] */\n      dup14\n      and\n      dup5\n      mstore\n      swap1\n      swap2\n      mstore\n      swap1\n      keccak256\n      sload\n      swap2\n        /* \"gEXO/ERC20.sol\":2580:2674  _allowances[msg.sender][spender].sub(subtractedValue, \"ERC20: decreased allowance below zero\") */\n      swap1\n        /* \"gEXO/ERC20.sol\":2580:2616  _allowances[msg.sender][spender].sub */\n      tag_134\n        /* \"gEXO/ERC20.sol\":2580:2674  _allowances[msg.sender][spender].sub(subtractedValue, \"ERC20: decreased allowance below zero\") */\n      jump\t// in\n        /* \"gEXO/gOHM.sol\":3229:3370  function balanceFrom(uint256 _amount) public view override returns (uint256) {... */\n    tag_104:\n        /* \"gEXO/gOHM.sol\":3297:3304  uint256 */\n      0x00\n        /* \"gEXO/gOHM.sol\":3323:3363  _amount.mul(index()).div(10**decimals()) */\n      tag_118\n        /* \"gEXO/gOHM.sol\":3352:3362  decimals() */\n      tag_189\n        /* \"gEXO/gOHM.sol\":3352:3360  decimals */\n      tag_65\n        /* \"gEXO/gOHM.sol\":3352:3362  decimals() */\n      jump\t// in\n    tag_189:\n        /* \"gEXO/gOHM.sol\":3348:3362  10**decimals() */\n      0xff\n      and\n        /* \"gEXO/gOHM.sol\":3348:3350  10 */\n      0x0a\n        /* \"gEXO/gOHM.sol\":3348:3362  10**decimals() */\n      exp\n        /* \"gEXO/gOHM.sol\":3323:3343  _amount.mul(index()) */\n      tag_156\n        /* \"gEXO/gOHM.sol\":3335:3342  index() */\n      tag_191\n        /* \"gEXO/gOHM.sol\":3335:3340  index */\n      tag_61\n        /* \"gEXO/gOHM.sol\":3335:3342  index() */\n      jump\t// in\n    tag_191:\n        /* \"gEXO/gOHM.sol\":3323:3330  _amount */\n      dup6\n      swap1\n        /* \"gEXO/gOHM.sol\":3323:3334  _amount.mul */\n      tag_158\n        /* \"gEXO/gOHM.sol\":3323:3343  _amount.mul(index()) */\n      jump\t// in\n        /* \"gEXO/ERC20.sol\":1291:1461  function transfer(address recipient, uint256 amount) public virtual override returns (bool) {... */\n    tag_107:\n        /* \"gEXO/ERC20.sol\":1377:1381  bool */\n      0x00\n        /* \"gEXO/ERC20.sol\":1393:1433  _transfer(msg.sender, recipient, amount) */\n      tag_119\n        /* \"gEXO/ERC20.sol\":1403:1413  msg.sender */\n      caller\n        /* \"gEXO/ERC20.sol\":1415:1424  recipient */\n      dup5\n        /* \"gEXO/ERC20.sol\":1426:1432  amount */\n      dup5\n        /* \"gEXO/ERC20.sol\":1393:1402  _transfer */\n      tag_131\n        /* \"gEXO/ERC20.sol\":1393:1433  _transfer(msg.sender, recipient, amount) */\n      jump\t// in\n        /* \"gEXO/gOHM.sol\":3818:4039  function getCurrentVotes(address account) external view returns (uint256) {... */\n    tag_110:\n      sub(shl(0xa0, 0x01), 0x01)\n        /* \"gEXO/gOHM.sol\":3925:3948  numCheckpoints[account] */\n      dup2\n      and\n        /* \"gEXO/gOHM.sol\":3883:3890  uint256 */\n      0x00\n        /* \"gEXO/gOHM.sol\":3925:3948  numCheckpoints[account] */\n      swap1\n      dup2\n      mstore\n        /* \"gEXO/gOHM.sol\":3925:3939  numCheckpoints */\n      0x08\n        /* \"gEXO/gOHM.sol\":3925:3948  numCheckpoints[account] */\n      0x20\n      mstore\n      0x40\n      dup2\n      keccak256\n      sload\n        /* \"gEXO/gOHM.sol\":3965:3981  nCheckpoints > 0 */\n      dup1\n        /* \"gEXO/gOHM.sol\":3965:4032  nCheckpoints > 0 ? checkpoints[account][nCheckpoints - 1].votes : 0 */\n      tag_195\n      jumpi\n        /* \"gEXO/gOHM.sol\":4031:4032  0 */\n      0x00\n        /* \"gEXO/gOHM.sol\":3965:4032  nCheckpoints > 0 ? checkpoints[account][nCheckpoints - 1].votes : 0 */\n      jump(tag_196)\n    tag_195:\n      sub(shl(0xa0, 0x01), 0x01)\n        /* \"gEXO/gOHM.sol\":3984:4004  checkpoints[account] */\n      dup4\n      and\n      0x00\n      swap1\n      dup2\n      mstore\n        /* \"gEXO/gOHM.sol\":3984:3995  checkpoints */\n      0x07\n        /* \"gEXO/gOHM.sol\":3984:4004  checkpoints[account] */\n      0x20\n      swap1\n      dup2\n      mstore\n      0x40\n      dup1\n      dup4\n      keccak256\n      not(0x00)\n        /* \"gEXO/gOHM.sol\":4005:4021  nCheckpoints - 1 */\n      dup6\n      add\n        /* \"gEXO/gOHM.sol\":3984:4022  checkpoints[account][nCheckpoints - 1] */\n      dup5\n      mstore\n      swap1\n      swap2\n      mstore\n      swap1\n      keccak256\n        /* \"gEXO/gOHM.sol\":4020:4021  1 */\n      0x01\n        /* \"gEXO/gOHM.sol\":3984:4028  checkpoints[account][nCheckpoints - 1].votes */\n      add\n      sload\n        /* \"gEXO/gOHM.sol\":3965:4032  nCheckpoints > 0 ? checkpoints[account][nCheckpoints - 1].votes : 0 */\n    tag_196:\n        /* \"gEXO/gOHM.sol\":3958:4032  return nCheckpoints > 0 ? checkpoints[account][nCheckpoints - 1].votes : 0 */\n      swap4\n        /* \"gEXO/gOHM.sol\":3818:4039  function getCurrentVotes(address account) external view returns (uint256) {... */\n      swap3\n      pop\n      pop\n      pop\n      jump\t// out\n        /* \"gEXO/ERC20.sol\":1467:1616  function allowance(address owner, address spender) public view virtual override returns (uint256) {... */\n    tag_113:\n      sub(shl(0xa0, 0x01), 0x01)\n        /* \"gEXO/ERC20.sol\":1582:1600  _allowances[owner] */\n      swap2\n      dup3\n      and\n        /* \"gEXO/ERC20.sol\":1556:1563  uint256 */\n      0x00\n        /* \"gEXO/ERC20.sol\":1582:1600  _allowances[owner] */\n      swap1\n      dup2\n      mstore\n        /* \"gEXO/ERC20.sol\":1582:1593  _allowances */\n      0x01\n        /* \"gEXO/ERC20.sol\":1582:1600  _allowances[owner] */\n      0x20\n      swap1\n      dup2\n      mstore\n      0x40\n      dup1\n      dup4\n      keccak256\n        /* \"gEXO/ERC20.sol\":1582:1609  _allowances[owner][spender] */\n      swap4\n      swap1\n      swap5\n      and\n      dup3\n      mstore\n      swap2\n      swap1\n      swap2\n      mstore\n      keccak256\n      sload\n      swap1\n        /* \"gEXO/ERC20.sol\":1467:1616  function allowance(address owner, address spender) public view virtual override returns (uint256) {... */\n      jump\t// out\n        /* \"gEXO/ERC20.sol\":4074:4444  function _approve(... */\n    tag_120:\n      sub(shl(0xa0, 0x01), 0x01)\n        /* \"gEXO/ERC20.sol\":4205:4224  owner != address(0) */\n      dup4\n      and\n        /* \"gEXO/ERC20.sol\":4197:4265  require(owner != address(0), \"ERC20: approve from the zero address\") */\n      tag_199\n      jumpi\n      mload(0x40)\n      shl(0xe5, 0x461bcd)\n      dup2\n      mstore\n      0x04\n      add\n      dup1\n      dup1\n      0x20\n      add\n      dup3\n      dup2\n      sub\n      dup3\n      mstore\n      0x24\n      dup2\n      mstore\n      0x20\n      add\n      dup1\n      data_c953f4879035ed60e766b34720f656aab5c697b141d924c283124ecedb91c208\n      0x24\n      swap2\n      codecopy\n      0x40\n      add\n      swap2\n      pop\n      pop\n      mload(0x40)\n      dup1\n      swap2\n      sub\n      swap1\n      revert\n    tag_199:\n      sub(shl(0xa0, 0x01), 0x01)\n        /* \"gEXO/ERC20.sol\":4283:4304  spender != address(0) */\n      dup3\n      and\n        /* \"gEXO/ERC20.sol\":4275:4343  require(spender != address(0), \"ERC20: approve to the zero address\") */\n      tag_200\n      jumpi\n      mload(0x40)\n      shl(0xe5, 0x461bcd)\n      dup2\n      mstore\n      0x04\n      add\n      dup1\n      dup1\n      0x20\n      add\n      dup3\n      dup2\n      sub\n      dup3\n      mstore\n      0x22\n      dup2\n      mstore\n      0x20\n      add\n      dup1\n      data_24883cc5fe64ace9d0df1893501ecb93c77180f0ff69cca79affb3c316dc8029\n      0x22\n      swap2\n      codecopy\n      0x40\n      add\n      swap2\n      pop\n      pop\n      mload(0x40)\n      dup1\n      swap2\n      sub\n      swap1\n      revert\n    tag_200:\n      sub(shl(0xa0, 0x01), 0x01)\n        /* \"gEXO/ERC20.sol\":4354:4372  _allowances[owner] */\n      dup1\n      dup5\n      and\n      0x00\n      dup2\n      dup2\n      mstore\n        /* \"gEXO/ERC20.sol\":4354:4365  _allowances */\n      0x01\n        /* \"gEXO/ERC20.sol\":4354:4372  _allowances[owner] */\n      0x20\n      swap1\n      dup2\n      mstore\n      0x40\n      dup1\n      dup4\n      keccak256\n        /* \"gEXO/ERC20.sol\":4354:4381  _allowances[owner][spender] */\n      swap5\n      dup8\n      and\n      dup1\n      dup5\n      mstore\n      swap5\n      dup3\n      mstore\n      swap2\n      dup3\n      swap1\n      keccak256\n        /* \"gEXO/ERC20.sol\":4354:4390  _allowances[owner][spender] = amount */\n      dup6\n      swap1\n      sstore\n        /* \"gEXO/ERC20.sol\":4405:4437  Approval(owner, spender, amount) */\n      dup2\n      mload\n      dup6\n      dup2\n      mstore\n      swap2\n      mload\n      0x8c5be1e5ebec7d5bd14f71427d1e84f3dd0314c0f7b2291e5b200ac8c7c3b925\n      swap3\n      dup2\n      swap1\n      sub\n      swap1\n      swap2\n      add\n      swap1\n      log3\n        /* \"gEXO/ERC20.sol\":4074:4444  function _approve(... */\n      pop\n      pop\n      pop\n      jump\t// out\n        /* \"gEXO/ERC20.sol\":2718:3278  function _transfer(... */\n    tag_131:\n      sub(shl(0xa0, 0x01), 0x01)\n        /* \"gEXO/ERC20.sol\":2853:2873  sender != address(0) */\n      dup4\n      and\n        /* \"gEXO/ERC20.sol\":2845:2915  require(sender != address(0), \"ERC20: transfer from the zero address\") */\n      tag_202\n      jumpi\n      mload(0x40)\n      shl(0xe5, 0x461bcd)\n      dup2\n      mstore\n      0x04\n      add\n      dup1\n      dup1\n      0x20\n      add\n      dup3\n      dup2\n      sub\n      dup3\n      mstore\n      0x25\n      dup2\n      mstore\n      0x20\n      add\n      dup1\n      data_baecc556b46f4ed0f2b4cb599d60785ac8563dd2dc0a5bf12edea1c39e5e1fea\n      0x25\n      swap2\n      codecopy\n      0x40\n      add\n      swap2\n      pop\n      pop\n      mload(0x40)\n      dup1\n      swap2\n      sub\n      swap1\n      revert\n    tag_202:\n      sub(shl(0xa0, 0x01), 0x01)\n        /* \"gEXO/ERC20.sol\":2933:2956  recipient != address(0) */\n      dup3\n      and\n        /* \"gEXO/ERC20.sol\":2925:2996  require(recipient != address(0), \"ERC20: transfer to the zero address\") */\n      tag_203\n      jumpi\n      mload(0x40)\n      shl(0xe5, 0x461bcd)\n      dup2\n      mstore\n      0x04\n      add\n      dup1\n      dup1\n      0x20\n      add\n      dup3\n      dup2\n      sub\n      dup3\n      mstore\n      0x23\n      dup2\n      mstore\n      0x20\n      add\n      dup1\n      data_0557e210f7a69a685100a7e4e3d0a7024c546085cee28910fd17d0b081d9516f\n      0x23\n      swap2\n      codecopy\n      0x40\n      add\n      swap2\n      pop\n      pop\n      mload(0x40)\n      dup1\n      swap2\n      sub\n      swap1\n      revert\n    tag_203:\n        /* \"gEXO/ERC20.sol\":3007:3054  _beforeTokenTransfer(sender, recipient, amount) */\n      tag_204\n        /* \"gEXO/ERC20.sol\":3028:3034  sender */\n      dup4\n        /* \"gEXO/ERC20.sol\":3036:3045  recipient */\n      dup4\n        /* \"gEXO/ERC20.sol\":3047:3053  amount */\n      dup4\n        /* \"gEXO/ERC20.sol\":3007:3027  _beforeTokenTransfer */\n      tag_205\n        /* \"gEXO/ERC20.sol\":3007:3054  _beforeTokenTransfer(sender, recipient, amount) */\n      jump\t// in\n    tag_204:\n        /* \"gEXO/ERC20.sol\":3085:3156  _balances[sender].sub(amount, \"ERC20: transfer amount exceeds balance\") */\n      tag_206\n        /* \"gEXO/ERC20.sol\":3107:3113  amount */\n      dup2\n        /* \"gEXO/ERC20.sol\":3085:3156  _balances[sender].sub(amount, \"ERC20: transfer amount exceeds balance\") */\n      mload(0x40)\n      dup1\n      0x60\n      add\n      0x40\n      mstore\n      dup1\n      0x26\n      dup2\n      mstore\n      0x20\n      add\n      data_4107e8a8b9e94bf8ff83080ddec1c0bffe897ebc2241b89d44f66b3d274088b6\n      0x26\n      swap2\n      codecopy\n      sub(shl(0xa0, 0x01), 0x01)\n        /* \"gEXO/ERC20.sol\":3085:3102  _balances[sender] */\n      dup7\n      and\n        /* \"gEXO/ERC20.sol\":3085:3094  _balances */\n      0x00\n        /* \"gEXO/ERC20.sol\":3085:3102  _balances[sender] */\n      swap1\n      dup2\n      mstore\n      0x20\n      dup2\n      swap1\n      mstore\n      0x40\n      swap1\n      keccak256\n      sload\n      swap2\n        /* \"gEXO/ERC20.sol\":3085:3156  _balances[sender].sub(amount, \"ERC20: transfer amount exceeds balance\") */\n      swap1\n        /* \"gEXO/ERC20.sol\":3085:3106  _balances[sender].sub */\n      tag_134\n        /* \"gEXO/ERC20.sol\":3085:3156  _balances[sender].sub(amount, \"ERC20: transfer amount exceeds balance\") */\n      jump\t// in\n    tag_206:\n      sub(shl(0xa0, 0x01), 0x01)\n        /* \"gEXO/ERC20.sol\":3065:3082  _balances[sender] */\n      dup1\n      dup6\n      and\n        /* \"gEXO/ERC20.sol\":3065:3074  _balances */\n      0x00\n        /* \"gEXO/ERC20.sol\":3065:3082  _balances[sender] */\n      swap1\n      dup2\n      mstore\n      0x20\n      dup2\n      swap1\n      mstore\n      0x40\n      dup1\n      dup3\n      keccak256\n        /* \"gEXO/ERC20.sol\":3065:3156  _balances[sender] = _balances[sender].sub(amount, \"ERC20: transfer amount exceeds balance\") */\n      swap4\n      swap1\n      swap4\n      sstore\n        /* \"gEXO/ERC20.sol\":3189:3209  _balances[recipient] */\n      swap1\n      dup5\n      and\n      dup2\n      mstore\n      keccak256\n      sload\n        /* \"gEXO/ERC20.sol\":3189:3221  _balances[recipient].add(amount) */\n      tag_207\n      swap1\n        /* \"gEXO/ERC20.sol\":3214:3220  amount */\n      dup3\n        /* \"gEXO/ERC20.sol\":3189:3213  _balances[recipient].add */\n      tag_144\n        /* \"gEXO/ERC20.sol\":3189:3221  _balances[recipient].add(amount) */\n      jump\t// in\n    tag_207:\n      sub(shl(0xa0, 0x01), 0x01)\n        /* \"gEXO/ERC20.sol\":3166:3186  _balances[recipient] */\n      dup1\n      dup5\n      and\n        /* \"gEXO/ERC20.sol\":3166:3175  _balances */\n      0x00\n        /* \"gEXO/ERC20.sol\":3166:3186  _balances[recipient] */\n      dup2\n      dup2\n      mstore\n      0x20\n      dup2\n      dup2\n      mstore\n      0x40\n      swap2\n      dup3\n      swap1\n      keccak256\n        /* \"gEXO/ERC20.sol\":3166:3221  _balances[recipient] = _balances[recipient].add(amount) */\n      swap5\n      swap1\n      swap5\n      sstore\n        /* \"gEXO/ERC20.sol\":3236:3271  Transfer(sender, recipient, amount) */\n      dup1\n      mload\n      dup6\n      dup2\n      mstore\n      swap1\n      mload\n        /* \"gEXO/ERC20.sol\":3166:3186  _balances[recipient] */\n      swap2\n      swap4\n        /* \"gEXO/ERC20.sol\":3236:3271  Transfer(sender, recipient, amount) */\n      swap3\n      dup8\n      and\n      swap3\n      0xddf252ad1be2c89b69c2b068fc378daa952ba7f163c4a11628f55a4df523b3ef\n      swap3\n      swap2\n      dup3\n      swap1\n      sub\n      add\n      swap1\n      log3\n        /* \"gEXO/ERC20.sol\":2718:3278  function _transfer(... */\n      pop\n      pop\n      pop\n      jump\t// out\n        /* \"gEXO/SafeMath.sol\":477:694  function sub(... */\n    tag_134:\n        /* \"gEXO/SafeMath.sol\":593:600  uint256 */\n      0x00\n        /* \"gEXO/SafeMath.sol\":628:640  errorMessage */\n      dup2\n        /* \"gEXO/SafeMath.sol\":620:626  b <= a */\n      dup5\n      dup5\n      gt\n      iszero\n        /* \"gEXO/SafeMath.sol\":612:641  require(b <= a, errorMessage) */\n      tag_209\n      jumpi\n      mload(0x40)\n      shl(0xe5, 0x461bcd)\n      dup2\n      mstore\n      0x04\n      add\n      dup1\n      dup1\n      0x20\n      add\n      dup3\n      dup2\n      sub\n      dup3\n      mstore\n      dup4\n      dup2\n      dup2\n      mload\n      dup2\n      mstore\n      0x20\n      add\n      swap2\n      pop\n      dup1\n      mload\n      swap1\n      0x20\n      add\n      swap1\n      dup1\n      dup4\n      dup4\n      0x00\n    tag_210:\n      dup4\n      dup2\n      lt\n      iszero\n      tag_212\n      jumpi\n      dup2\n      dup2\n      add\n      mload\n      dup4\n      dup3\n      add\n      mstore\n      0x20\n      add\n      jump(tag_210)\n    tag_212:\n      pop\n      pop\n      pop\n      pop\n      swap1\n      pop\n      swap1\n      dup2\n      add\n      swap1\n      0x1f\n      and\n      dup1\n      iszero\n      tag_213\n      jumpi\n      dup1\n      dup3\n      sub\n      dup1\n      mload\n      0x01\n      dup4\n      0x20\n      sub\n      0x0100\n      exp\n      sub\n      not\n      and\n      dup2\n      mstore\n      0x20\n      add\n      swap2\n      pop\n    tag_213:\n      pop\n      swap3\n      pop\n      pop\n      pop\n      mload(0x40)\n      dup1\n      swap2\n      sub\n      swap1\n      revert\n    tag_209:\n      pop\n      pop\n      pop\n        /* \"gEXO/SafeMath.sol\":663:668  a - b */\n      swap1\n      sub\n      swap1\n        /* \"gEXO/SafeMath.sol\":477:694  function sub(... */\n      jump\t// out\n        /* \"gEXO/SafeMath.sol\":155:331  function add(uint256 a, uint256 b) internal pure returns (uint256) {... */\n    tag_144:\n        /* \"gEXO/SafeMath.sol\":213:220  uint256 */\n      0x00\n        /* \"gEXO/SafeMath.sol\":244:249  a + b */\n      dup3\n      dup3\n      add\n        /* \"gEXO/SafeMath.sol\":267:273  c >= a */\n      dup4\n      dup2\n      lt\n      iszero\n        /* \"gEXO/SafeMath.sol\":259:305  require(c >= a, \"SafeMath: addition overflow\") */\n      tag_196\n      jumpi\n      0x40\n      dup1\n      mload\n      shl(0xe5, 0x461bcd)\n      dup2\n      mstore\n      0x20\n      0x04\n      dup3\n      add\n      mstore\n      0x1b\n      0x24\n      dup3\n      add\n      mstore\n      0x536166654d6174683a206164646974696f6e206f766572666c6f770000000000\n      0x44\n      dup3\n      add\n      mstore\n      swap1\n      mload\n      swap1\n      dup2\n      swap1\n      sub\n      0x64\n      add\n      swap1\n      revert\n        /* \"gEXO/ERC20.sol\":3284:3652  function _mint(address account, uint256 amount) internal virtual {... */\n    tag_149:\n      sub(shl(0xa0, 0x01), 0x01)\n        /* \"gEXO/ERC20.sol\":3367:3388  account != address(0) */\n      dup3\n      and\n        /* \"gEXO/ERC20.sol\":3359:3424  require(account != address(0), \"ERC20: mint to the zero address\") */\n      tag_217\n      jumpi\n      0x40\n      dup1\n      mload\n      shl(0xe5, 0x461bcd)\n      dup2\n      mstore\n      0x20\n      0x04\n      dup3\n      add\n      mstore\n      0x1f\n      0x24\n      dup3\n      add\n      mstore\n      0x45524332303a206d696e7420746f20746865207a65726f206164647265737300\n      0x44\n      dup3\n      add\n      mstore\n      swap1\n      mload\n      swap1\n      dup2\n      swap1\n      sub\n      0x64\n      add\n      swap1\n      revert\n    tag_217:\n        /* \"gEXO/ERC20.sol\":3434:3483  _beforeTokenTransfer(address(0), account, amount) */\n      tag_218\n        /* \"gEXO/ERC20.sol\":3463:3464  0 */\n      0x00\n        /* \"gEXO/ERC20.sol\":3467:3474  account */\n      dup4\n        /* \"gEXO/ERC20.sol\":3476:3482  amount */\n      dup4\n        /* \"gEXO/ERC20.sol\":3434:3454  _beforeTokenTransfer */\n      tag_205\n        /* \"gEXO/ERC20.sol\":3434:3483  _beforeTokenTransfer(address(0), account, amount) */\n      jump\t// in\n    tag_218:\n        /* \"gEXO/ERC20.sol\":3508:3520  _totalSupply */\n      sload(0x02)\n        /* \"gEXO/ERC20.sol\":3508:3532  _totalSupply.add(amount) */\n      tag_219\n      swap1\n        /* \"gEXO/ERC20.sol\":3525:3531  amount */\n      dup3\n        /* \"gEXO/ERC20.sol\":3508:3524  _totalSupply.add */\n      tag_144\n        /* \"gEXO/ERC20.sol\":3508:3532  _totalSupply.add(amount) */\n      jump\t// in\n    tag_219:\n        /* \"gEXO/ERC20.sol\":3493:3505  _totalSupply */\n      0x02\n        /* \"gEXO/ERC20.sol\":3493:3532  _totalSupply = _totalSupply.add(amount) */\n      sstore\n      sub(shl(0xa0, 0x01), 0x01)\n        /* \"gEXO/ERC20.sol\":3563:3581  _balances[account] */\n      dup3\n      and\n        /* \"gEXO/ERC20.sol\":3563:3572  _balances */\n      0x00\n        /* \"gEXO/ERC20.sol\":3563:3581  _balances[account] */\n      swap1\n      dup2\n      mstore\n      0x20\n      dup2\n      swap1\n      mstore\n      0x40\n      swap1\n      keccak256\n      sload\n        /* \"gEXO/ERC20.sol\":3563:3593  _balances[account].add(amount) */\n      tag_220\n      swap1\n        /* \"gEXO/ERC20.sol\":3586:3592  amount */\n      dup3\n        /* \"gEXO/ERC20.sol\":3563:3585  _balances[account].add */\n      tag_144\n        /* \"gEXO/ERC20.sol\":3563:3593  _balances[account].add(amount) */\n      jump\t// in\n    tag_220:\n      sub(shl(0xa0, 0x01), 0x01)\n        /* \"gEXO/ERC20.sol\":3542:3560  _balances[account] */\n      dup4\n      and\n        /* \"gEXO/ERC20.sol\":3542:3551  _balances */\n      0x00\n        /* \"gEXO/ERC20.sol\":3542:3560  _balances[account] */\n      dup2\n      dup2\n      mstore\n      0x20\n      dup2\n      dup2\n      mstore\n      0x40\n      dup1\n      dup4\n      keccak256\n        /* \"gEXO/ERC20.sol\":3542:3593  _balances[account] = _balances[account].add(amount) */\n      swap5\n      swap1\n      swap5\n      sstore\n        /* \"gEXO/ERC20.sol\":3608:3645  Transfer(address(0), account, amount) */\n      dup4\n      mload\n      dup6\n      dup2\n      mstore\n      swap4\n      mload\n        /* \"gEXO/ERC20.sol\":3542:3560  _balances[account] */\n      swap3\n      swap4\n        /* \"gEXO/ERC20.sol\":3542:3551  _balances */\n      swap2\n      swap3\n        /* \"gEXO/ERC20.sol\":3608:3645  Transfer(address(0), account, amount) */\n      0xddf252ad1be2c89b69c2b068fc378daa952ba7f163c4a11628f55a4df523b3ef\n      swap3\n      dup2\n      swap1\n      sub\n      swap1\n      swap2\n      add\n      swap1\n      log3\n        /* \"gEXO/ERC20.sol\":3284:3652  function _mint(address account, uint256 amount) internal virtual {... */\n      pop\n      pop\n      jump\t// out\n        /* \"gEXO/gOHM.sol\":5715:6084  function _delegate(address delegator, address delegatee) internal {... */\n    tag_152:\n      sub(shl(0xa0, 0x01), 0x01)\n        /* \"gEXO/gOHM.sol\":5817:5837  delegates[delegator] */\n      dup1\n      dup4\n      and\n        /* \"gEXO/gOHM.sol\":5791:5814  address currentDelegate */\n      0x00\n        /* \"gEXO/gOHM.sol\":5817:5837  delegates[delegator] */\n      dup2\n      dup2\n      mstore\n        /* \"gEXO/gOHM.sol\":5817:5826  delegates */\n      0x09\n        /* \"gEXO/gOHM.sol\":5817:5837  delegates[delegator] */\n      0x20\n      dup2\n      dup2\n      mstore\n      0x40\n      dup1\n      dup5\n      keccak256\n      dup1\n      sload\n        /* \"gEXO/gOHM.sol\":5874:5894  _balances[delegator] */\n      dup6\n      dup5\n      mstore\n      dup3\n      dup7\n      keccak256\n      sload\n        /* \"gEXO/gOHM.sol\":5904:5924  delegates[delegator] */\n      swap5\n      swap1\n      swap4\n      mstore\n        /* \"gEXO/gOHM.sol\":5904:5936  delegates[delegator] = delegatee */\n      dup8\n      dup8\n      and\n      not(0xffffffffffffffffffffffffffffffffffffffff)\n      dup5\n      and\n      dup2\n      or\n      swap1\n      swap2\n      sstore\n        /* \"gEXO/gOHM.sol\":5952:6006  DelegateChanged(delegator, currentDelegate, delegatee) */\n      swap1\n      mload\n        /* \"gEXO/gOHM.sol\":5817:5837  delegates[delegator] */\n      swap2\n      swap1\n      swap6\n      and\n      swap5\n        /* \"gEXO/gOHM.sol\":5874:5894  _balances[delegator] */\n      swap2\n      swap4\n        /* \"gEXO/gOHM.sol\":5904:5936  delegates[delegator] = delegatee */\n      swap2\n      swap3\n        /* \"gEXO/gOHM.sol\":5817:5837  delegates[delegator] */\n      dup6\n      swap3\n      swap2\n        /* \"gEXO/gOHM.sol\":5952:6006  DelegateChanged(delegator, currentDelegate, delegatee) */\n      0x3134e8a2e6d97e929a7e54011ea5485d7d196dd5f0ba4d4ef95803e8e3fc257f\n      swap2\n        /* \"gEXO/gOHM.sol\":5791:5814  address currentDelegate */\n      swap1\n        /* \"gEXO/gOHM.sol\":5952:6006  DelegateChanged(delegator, currentDelegate, delegatee) */\n      log4\n        /* \"gEXO/gOHM.sol\":6017:6077  _moveDelegates(currentDelegate, delegatee, delegatorBalance) */\n      tag_222\n        /* \"gEXO/gOHM.sol\":6032:6047  currentDelegate */\n      dup3\n        /* \"gEXO/gOHM.sol\":6049:6058  delegatee */\n      dup5\n        /* \"gEXO/gOHM.sol\":6060:6076  delegatorBalance */\n      dup4\n        /* \"gEXO/gOHM.sol\":6017:6031  _moveDelegates */\n      tag_223\n        /* \"gEXO/gOHM.sol\":6017:6077  _moveDelegates(currentDelegate, delegatee, delegatorBalance) */\n      jump\t// in\n    tag_222:\n        /* \"gEXO/gOHM.sol\":5715:6084  function _delegate(address delegator, address delegatee) internal {... */\n      pop\n      pop\n      pop\n      pop\n      jump\t// out\n        /* \"gEXO/SafeMath.sol\":700:941  function mul(uint256 a, uint256 b) internal pure returns (uint256) {... */\n    tag_158:\n        /* \"gEXO/SafeMath.sol\":758:765  uint256 */\n      0x00\n        /* \"gEXO/SafeMath.sol\":781:787  a == 0 */\n      dup3\n        /* \"gEXO/SafeMath.sol\":777:822  if (a == 0) {... */\n      tag_225\n      jumpi\n      pop\n        /* \"gEXO/SafeMath.sol\":810:811  0 */\n      0x00\n        /* \"gEXO/SafeMath.sol\":803:811  return 0 */\n      jump(tag_118)\n        /* \"gEXO/SafeMath.sol\":777:822  if (a == 0) {... */\n    tag_225:\n        /* \"gEXO/SafeMath.sol\":844:849  a * b */\n      dup3\n      dup3\n      mul\n        /* \"gEXO/SafeMath.sol\":848:849  b */\n      dup3\n        /* \"gEXO/SafeMath.sol\":844:845  a */\n      dup5\n        /* \"gEXO/SafeMath.sol\":844:849  a * b */\n      dup3\n        /* \"gEXO/SafeMath.sol\":844:845  a */\n      dup2\n        /* \"gEXO/SafeMath.sol\":867:872  c / a */\n      tag_226\n      jumpi\n      invalid\n    tag_226:\n      div\n        /* \"gEXO/SafeMath.sol\":867:877  c / a == b */\n      eq\n        /* \"gEXO/SafeMath.sol\":859:915  require(c / a == b, \"SafeMath: multiplication overflow\") */\n      tag_196\n      jumpi\n      mload(0x40)\n      shl(0xe5, 0x461bcd)\n      dup2\n      mstore\n      0x04\n      add\n      dup1\n      dup1\n      0x20\n      add\n      dup3\n      dup2\n      sub\n      dup3\n      mstore\n      0x21\n      dup2\n      mstore\n      0x20\n      add\n      dup1\n      data_9113bb53c2876a3805b2c9242029423fc540a728243ce887ab24c82cf119fba3\n      0x21\n      swap2\n      codecopy\n      0x40\n      add\n      swap2\n      pop\n      pop\n      mload(0x40)\n      dup1\n      swap2\n      sub\n      swap1\n      revert\n        /* \"gEXO/SafeMath.sol\":947:1077  function div(uint256 a, uint256 b) internal pure returns (uint256) {... */\n    tag_159:\n        /* \"gEXO/SafeMath.sol\":1005:1012  uint256 */\n      0x00\n        /* \"gEXO/SafeMath.sol\":1031:1070  div(a, b, \"SafeMath: division by zero\") */\n      tag_196\n        /* \"gEXO/SafeMath.sol\":1035:1036  a */\n      dup4\n        /* \"gEXO/SafeMath.sol\":1038:1039  b */\n      dup4\n        /* \"gEXO/SafeMath.sol\":1031:1070  div(a, b, \"SafeMath: division by zero\") */\n      mload(0x40)\n      dup1\n      0x40\n      add\n      0x40\n      mstore\n      dup1\n      0x1a\n      dup2\n      mstore\n      0x20\n      add\n      0x536166654d6174683a206469766973696f6e206279207a65726f000000000000\n      dup2\n      mstore\n      pop\n        /* \"gEXO/SafeMath.sol\":1031:1034  div */\n      tag_230\n        /* \"gEXO/SafeMath.sol\":1031:1070  div(a, b, \"SafeMath: division by zero\") */\n      jump\t// in\n        /* \"gEXO/ERC20.sol\":3658:4068  function _burn(address account, uint256 amount) internal virtual {... */\n    tag_183:\n      sub(shl(0xa0, 0x01), 0x01)\n        /* \"gEXO/ERC20.sol\":3741:3762  account != address(0) */\n      dup3\n      and\n        /* \"gEXO/ERC20.sol\":3733:3800  require(account != address(0), \"ERC20: burn from the zero address\") */\n      tag_232\n      jumpi\n      mload(0x40)\n      shl(0xe5, 0x461bcd)\n      dup2\n      mstore\n      0x04\n      add\n      dup1\n      dup1\n      0x20\n      add\n      dup3\n      dup2\n      sub\n      dup3\n      mstore\n      0x21\n      dup2\n      mstore\n      0x20\n      add\n      dup1\n      data_b16788493b576042bb52c50ed56189e0b250db113c7bfb1c3897d25cf9632d7f\n      0x21\n      swap2\n      codecopy\n      0x40\n      add\n      swap2\n      pop\n      pop\n      mload(0x40)\n      dup1\n      swap2\n      sub\n      swap1\n      revert\n    tag_232:\n        /* \"gEXO/ERC20.sol\":3811:3860  _beforeTokenTransfer(account, address(0), amount) */\n      tag_233\n        /* \"gEXO/ERC20.sol\":3832:3839  account */\n      dup3\n        /* \"gEXO/ERC20.sol\":3849:3850  0 */\n      0x00\n        /* \"gEXO/ERC20.sol\":3853:3859  amount */\n      dup4\n        /* \"gEXO/ERC20.sol\":3811:3831  _beforeTokenTransfer */\n      tag_205\n        /* \"gEXO/ERC20.sol\":3811:3860  _beforeTokenTransfer(account, address(0), amount) */\n      jump\t// in\n    tag_233:\n        /* \"gEXO/ERC20.sol\":3892:3960  _balances[account].sub(amount, \"ERC20: burn amount exceeds balance\") */\n      tag_234\n        /* \"gEXO/ERC20.sol\":3915:3921  amount */\n      dup2\n        /* \"gEXO/ERC20.sol\":3892:3960  _balances[account].sub(amount, \"ERC20: burn amount exceeds balance\") */\n      mload(0x40)\n      dup1\n      0x60\n      add\n      0x40\n      mstore\n      dup1\n      0x22\n      dup2\n      mstore\n      0x20\n      add\n      data_149b126e7125232b4200af45303d04fba8b74653b1a295a6a561a528c33fefdd\n      0x22\n      swap2\n      codecopy\n      sub(shl(0xa0, 0x01), 0x01)\n        /* \"gEXO/ERC20.sol\":3892:3910  _balances[account] */\n      dup6\n      and\n        /* \"gEXO/ERC20.sol\":3892:3901  _balances */\n      0x00\n        /* \"gEXO/ERC20.sol\":3892:3910  _balances[account] */\n      swap1\n      dup2\n      mstore\n      0x20\n      dup2\n      swap1\n      mstore\n      0x40\n      swap1\n      keccak256\n      sload\n      swap2\n        /* \"gEXO/ERC20.sol\":3892:3960  _balances[account].sub(amount, \"ERC20: burn amount exceeds balance\") */\n      swap1\n        /* \"gEXO/ERC20.sol\":3892:3914  _balances[account].sub */\n      tag_134\n        /* \"gEXO/ERC20.sol\":3892:3960  _balances[account].sub(amount, \"ERC20: burn amount exceeds balance\") */\n      jump\t// in\n    tag_234:\n      sub(shl(0xa0, 0x01), 0x01)\n        /* \"gEXO/ERC20.sol\":3871:3889  _balances[account] */\n      dup4\n      and\n        /* \"gEXO/ERC20.sol\":3871:3880  _balances */\n      0x00\n        /* \"gEXO/ERC20.sol\":3871:3889  _balances[account] */\n      swap1\n      dup2\n      mstore\n      0x20\n      dup2\n      swap1\n      mstore\n      0x40\n      swap1\n      keccak256\n        /* \"gEXO/ERC20.sol\":3871:3960  _balances[account] = _balances[account].sub(amount, \"ERC20: burn amount exceeds balance\") */\n      sstore\n        /* \"gEXO/ERC20.sol\":3985:3997  _totalSupply */\n      sload(0x02)\n        /* \"gEXO/ERC20.sol\":3985:4009  _totalSupply.sub(amount) */\n      tag_235\n      swap1\n        /* \"gEXO/ERC20.sol\":4002:4008  amount */\n      dup3\n        /* \"gEXO/ERC20.sol\":3985:4001  _totalSupply.sub */\n      tag_236\n        /* \"gEXO/ERC20.sol\":3985:4009  _totalSupply.sub(amount) */\n      jump\t// in\n    tag_235:\n        /* \"gEXO/ERC20.sol\":3970:3982  _totalSupply */\n      0x02\n        /* \"gEXO/ERC20.sol\":3970:4009  _totalSupply = _totalSupply.sub(amount) */\n      sstore\n        /* \"gEXO/ERC20.sol\":4024:4061  Transfer(account, address(0), amount) */\n      0x40\n      dup1\n      mload\n      dup3\n      dup2\n      mstore\n      swap1\n      mload\n        /* \"gEXO/ERC20.sol\":4050:4051  0 */\n      0x00\n      swap2\n      sub(shl(0xa0, 0x01), 0x01)\n        /* \"gEXO/ERC20.sol\":4024:4061  Transfer(account, address(0), amount) */\n      dup6\n      and\n      swap2\n      0xddf252ad1be2c89b69c2b068fc378daa952ba7f163c4a11628f55a4df523b3ef\n      swap2\n      dup2\n      swap1\n      sub\n      0x20\n      add\n      swap1\n      log3\n        /* \"gEXO/ERC20.sol\":3658:4068  function _burn(address account, uint256 amount) internal virtual {... */\n      pop\n      pop\n      jump\t// out\n        /* \"gEXO/gOHM.sol\":7621:7812  function _beforeTokenTransfer(... */\n    tag_205:\n      sub(shl(0xa0, 0x01), 0x01)\n        /* \"gEXO/gOHM.sol\":7766:7781  delegates[from] */\n      dup1\n      dup5\n      and\n      0x00\n      swap1\n      dup2\n      mstore\n        /* \"gEXO/gOHM.sol\":7766:7775  delegates */\n      0x09\n        /* \"gEXO/gOHM.sol\":7766:7781  delegates[from] */\n      0x20\n      mstore\n      0x40\n      dup1\n      dup3\n      keccak256\n      sload\n        /* \"gEXO/gOHM.sol\":7783:7796  delegates[to] */\n      dup6\n      dup5\n      and\n      dup4\n      mstore\n      swap2\n      keccak256\n      sload\n        /* \"gEXO/gOHM.sol\":7751:7805  _moveDelegates(delegates[from], delegates[to], amount) */\n      tag_238\n      swap3\n        /* \"gEXO/gOHM.sol\":7766:7781  delegates[from] */\n      swap2\n      dup3\n      and\n      swap2\n        /* \"gEXO/gOHM.sol\":7783:7796  delegates[to] */\n      and\n        /* \"gEXO/gOHM.sol\":7798:7804  amount */\n      dup4\n        /* \"gEXO/gOHM.sol\":7751:7765  _moveDelegates */\n      tag_223\n        /* \"gEXO/gOHM.sol\":7751:7805  _moveDelegates(delegates[from], delegates[to], amount) */\n      jump\t// in\n    tag_238:\n        /* \"gEXO/gOHM.sol\":7621:7812  function _beforeTokenTransfer(... */\n      pop\n      pop\n      pop\n      jump\t// out\n        /* \"gEXO/gOHM.sol\":6090:6957  function _moveDelegates(... */\n    tag_223:\n        /* \"gEXO/gOHM.sol\":6225:6231  dstRep */\n      dup2\n      sub(shl(0xa0, 0x01), 0x01)\n        /* \"gEXO/gOHM.sol\":6215:6231  srcRep != dstRep */\n      and\n        /* \"gEXO/gOHM.sol\":6215:6221  srcRep */\n      dup4\n      sub(shl(0xa0, 0x01), 0x01)\n        /* \"gEXO/gOHM.sol\":6215:6231  srcRep != dstRep */\n      and\n      eq\n      iszero\n        /* \"gEXO/gOHM.sol\":6215:6245  srcRep != dstRep && amount > 0 */\n      dup1\n      iszero\n      tag_240\n      jumpi\n      pop\n        /* \"gEXO/gOHM.sol\":6244:6245  0 */\n      0x00\n        /* \"gEXO/gOHM.sol\":6235:6241  amount */\n      dup2\n        /* \"gEXO/gOHM.sol\":6235:6245  amount > 0 */\n      gt\n        /* \"gEXO/gOHM.sol\":6215:6245  srcRep != dstRep && amount > 0 */\n    tag_240:\n        /* \"gEXO/gOHM.sol\":6211:6951  if (srcRep != dstRep && amount > 0) {... */\n      iszero\n      tag_238\n      jumpi\n      sub(shl(0xa0, 0x01), 0x01)\n        /* \"gEXO/gOHM.sol\":6265:6285  srcRep != address(0) */\n      dup4\n      and\n      iszero\n        /* \"gEXO/gOHM.sol\":6261:6594  if (srcRep != address(0)) {... */\n      tag_242\n      jumpi\n      sub(shl(0xa0, 0x01), 0x01)\n        /* \"gEXO/gOHM.sol\":6325:6347  numCheckpoints[srcRep] */\n      dup4\n      and\n        /* \"gEXO/gOHM.sol\":6305:6322  uint256 srcRepNum */\n      0x00\n        /* \"gEXO/gOHM.sol\":6325:6347  numCheckpoints[srcRep] */\n      swap1\n      dup2\n      mstore\n        /* \"gEXO/gOHM.sol\":6325:6339  numCheckpoints */\n      0x08\n        /* \"gEXO/gOHM.sol\":6325:6347  numCheckpoints[srcRep] */\n      0x20\n      mstore\n      0x40\n      dup2\n      keccak256\n      sload\n      swap1\n        /* \"gEXO/gOHM.sol\":6385:6398  srcRepNum > 0 */\n      dup2\n        /* \"gEXO/gOHM.sol\":6385:6445  srcRepNum > 0 ? checkpoints[srcRep][srcRepNum - 1].votes : 0 */\n      tag_243\n      jumpi\n        /* \"gEXO/gOHM.sol\":6444:6445  0 */\n      0x00\n        /* \"gEXO/gOHM.sol\":6385:6445  srcRepNum > 0 ? checkpoints[srcRep][srcRepNum - 1].votes : 0 */\n      jump(tag_244)\n    tag_243:\n      sub(shl(0xa0, 0x01), 0x01)\n        /* \"gEXO/gOHM.sol\":6401:6420  checkpoints[srcRep] */\n      dup6\n      and\n      0x00\n      swap1\n      dup2\n      mstore\n        /* \"gEXO/gOHM.sol\":6401:6412  checkpoints */\n      0x07\n        /* \"gEXO/gOHM.sol\":6401:6420  checkpoints[srcRep] */\n      0x20\n      swap1\n      dup2\n      mstore\n      0x40\n      dup1\n      dup4\n      keccak256\n      not(0x00)\n        /* \"gEXO/gOHM.sol\":6421:6434  srcRepNum - 1 */\n      dup7\n      add\n        /* \"gEXO/gOHM.sol\":6401:6435  checkpoints[srcRep][srcRepNum - 1] */\n      dup5\n      mstore\n      swap1\n      swap2\n      mstore\n      swap1\n      keccak256\n        /* \"gEXO/gOHM.sol\":6433:6434  1 */\n      0x01\n        /* \"gEXO/gOHM.sol\":6401:6441  checkpoints[srcRep][srcRepNum - 1].votes */\n      add\n      sload\n        /* \"gEXO/gOHM.sol\":6385:6445  srcRepNum > 0 ? checkpoints[srcRep][srcRepNum - 1].votes : 0 */\n    tag_244:\n        /* \"gEXO/gOHM.sol\":6365:6445  uint256 srcRepOld = srcRepNum > 0 ? checkpoints[srcRep][srcRepNum - 1].votes : 0 */\n      swap1\n      pop\n        /* \"gEXO/gOHM.sol\":6463:6480  uint256 srcRepNew */\n      0x00\n        /* \"gEXO/gOHM.sol\":6483:6504  srcRepOld.sub(amount) */\n      tag_245\n        /* \"gEXO/gOHM.sol\":6365:6445  uint256 srcRepOld = srcRepNum > 0 ? checkpoints[srcRep][srcRepNum - 1].votes : 0 */\n      dup3\n        /* \"gEXO/gOHM.sol\":6497:6503  amount */\n      dup6\n        /* \"gEXO/gOHM.sol\":6483:6496  srcRepOld.sub */\n      tag_236\n        /* \"gEXO/gOHM.sol\":6483:6504  srcRepOld.sub(amount) */\n      jump\t// in\n    tag_245:\n        /* \"gEXO/gOHM.sol\":6463:6504  uint256 srcRepNew = srcRepOld.sub(amount) */\n      swap1\n      pop\n        /* \"gEXO/gOHM.sol\":6522:6579  _writeCheckpoint(srcRep, srcRepNum, srcRepOld, srcRepNew) */\n      tag_246\n        /* \"gEXO/gOHM.sol\":6539:6545  srcRep */\n      dup7\n        /* \"gEXO/gOHM.sol\":6547:6556  srcRepNum */\n      dup5\n        /* \"gEXO/gOHM.sol\":6558:6567  srcRepOld */\n      dup5\n        /* \"gEXO/gOHM.sol\":6569:6578  srcRepNew */\n      dup5\n        /* \"gEXO/gOHM.sol\":6522:6538  _writeCheckpoint */\n      tag_247\n        /* \"gEXO/gOHM.sol\":6522:6579  _writeCheckpoint(srcRep, srcRepNum, srcRepOld, srcRepNew) */\n      jump\t// in\n    tag_246:\n        /* \"gEXO/gOHM.sol\":6261:6594  if (srcRep != address(0)) {... */\n      pop\n      pop\n      pop\n    tag_242:\n      sub(shl(0xa0, 0x01), 0x01)\n        /* \"gEXO/gOHM.sol\":6612:6632  dstRep != address(0) */\n      dup3\n      and\n      iszero\n        /* \"gEXO/gOHM.sol\":6608:6941  if (dstRep != address(0)) {... */\n      tag_238\n      jumpi\n      sub(shl(0xa0, 0x01), 0x01)\n        /* \"gEXO/gOHM.sol\":6672:6694  numCheckpoints[dstRep] */\n      dup3\n      and\n        /* \"gEXO/gOHM.sol\":6652:6669  uint256 dstRepNum */\n      0x00\n        /* \"gEXO/gOHM.sol\":6672:6694  numCheckpoints[dstRep] */\n      swap1\n      dup2\n      mstore\n        /* \"gEXO/gOHM.sol\":6672:6686  numCheckpoints */\n      0x08\n        /* \"gEXO/gOHM.sol\":6672:6694  numCheckpoints[dstRep] */\n      0x20\n      mstore\n      0x40\n      dup2\n      keccak256\n      sload\n      swap1\n        /* \"gEXO/gOHM.sol\":6732:6745  dstRepNum > 0 */\n      dup2\n        /* \"gEXO/gOHM.sol\":6732:6792  dstRepNum > 0 ? checkpoints[dstRep][dstRepNum - 1].votes : 0 */\n      tag_249\n      jumpi\n        /* \"gEXO/gOHM.sol\":6791:6792  0 */\n      0x00\n        /* \"gEXO/gOHM.sol\":6732:6792  dstRepNum > 0 ? checkpoints[dstRep][dstRepNum - 1].votes : 0 */\n      jump(tag_250)\n    tag_249:\n      sub(shl(0xa0, 0x01), 0x01)\n        /* \"gEXO/gOHM.sol\":6748:6767  checkpoints[dstRep] */\n      dup5\n      and\n      0x00\n      swap1\n      dup2\n      mstore\n        /* \"gEXO/gOHM.sol\":6748:6759  checkpoints */\n      0x07\n        /* \"gEXO/gOHM.sol\":6748:6767  checkpoints[dstRep] */\n      0x20\n      swap1\n      dup2\n      mstore\n      0x40\n      dup1\n      dup4\n      keccak256\n      not(0x00)\n        /* \"gEXO/gOHM.sol\":6768:6781  dstRepNum - 1 */\n      dup7\n      add\n        /* \"gEXO/gOHM.sol\":6748:6782  checkpoints[dstRep][dstRepNum - 1] */\n      dup5\n      mstore\n      swap1\n      swap2\n      mstore\n      swap1\n      keccak256\n        /* \"gEXO/gOHM.sol\":6780:6781  1 */\n      0x01\n        /* \"gEXO/gOHM.sol\":6748:6788  checkpoints[dstRep][dstRepNum - 1].votes */\n      add\n      sload\n        /* \"gEXO/gOHM.sol\":6732:6792  dstRepNum > 0 ? checkpoints[dstRep][dstRepNum - 1].votes : 0 */\n    tag_250:\n        /* \"gEXO/gOHM.sol\":6712:6792  uint256 dstRepOld = dstRepNum > 0 ? checkpoints[dstRep][dstRepNum - 1].votes : 0 */\n      swap1\n      pop\n        /* \"gEXO/gOHM.sol\":6810:6827  uint256 dstRepNew */\n      0x00\n        /* \"gEXO/gOHM.sol\":6830:6851  dstRepOld.add(amount) */\n      tag_251\n        /* \"gEXO/gOHM.sol\":6712:6792  uint256 dstRepOld = dstRepNum > 0 ? checkpoints[dstRep][dstRepNum - 1].votes : 0 */\n      dup3\n        /* \"gEXO/gOHM.sol\":6844:6850  amount */\n      dup6\n        /* \"gEXO/gOHM.sol\":6830:6843  dstRepOld.add */\n      tag_144\n        /* \"gEXO/gOHM.sol\":6830:6851  dstRepOld.add(amount) */\n      jump\t// in\n    tag_251:\n        /* \"gEXO/gOHM.sol\":6810:6851  uint256 dstRepNew = dstRepOld.add(amount) */\n      swap1\n      pop\n        /* \"gEXO/gOHM.sol\":6869:6926  _writeCheckpoint(dstRep, dstRepNum, dstRepOld, dstRepNew) */\n      tag_252\n        /* \"gEXO/gOHM.sol\":6886:6892  dstRep */\n      dup6\n        /* \"gEXO/gOHM.sol\":6894:6903  dstRepNum */\n      dup5\n        /* \"gEXO/gOHM.sol\":6905:6914  dstRepOld */\n      dup5\n        /* \"gEXO/gOHM.sol\":6916:6925  dstRepNew */\n      dup5\n        /* \"gEXO/gOHM.sol\":6869:6885  _writeCheckpoint */\n      tag_247\n        /* \"gEXO/gOHM.sol\":6869:6926  _writeCheckpoint(dstRep, dstRepNum, dstRepOld, dstRepNew) */\n      jump\t// in\n    tag_252:\n        /* \"gEXO/gOHM.sol\":6608:6941  if (dstRep != address(0)) {... */\n      pop\n      pop\n      pop\n        /* \"gEXO/gOHM.sol\":6090:6957  function _moveDelegates(... */\n      pop\n      pop\n      pop\n      jump\t// out\n        /* \"gEXO/SafeMath.sol\":1083:1384  function div(... */\n    tag_230:\n        /* \"gEXO/SafeMath.sol\":1199:1206  uint256 */\n      0x00\n        /* \"gEXO/SafeMath.sol\":1233:1245  errorMessage */\n      dup2\n        /* \"gEXO/SafeMath.sol\":1226:1231  b > 0 */\n      dup4\n        /* \"gEXO/SafeMath.sol\":1218:1246  require(b > 0, errorMessage) */\n      tag_254\n      jumpi\n      mload(0x40)\n      shl(0xe5, 0x461bcd)\n      dup2\n      mstore\n      0x20\n      0x04\n      dup3\n      add\n      dup2\n      dup2\n      mstore\n      dup4\n      mload\n      0x24\n      dup5\n      add\n      mstore\n      dup4\n      mload\n      swap1\n      swap3\n      dup4\n      swap3\n      0x44\n      swap1\n      swap2\n      add\n      swap2\n      swap1\n      dup6\n      add\n      swap1\n      dup1\n      dup4\n      dup4\n      0x00\n      dup4\n      iszero\n      tag_212\n      jumpi\n      dup2\n      dup2\n      add\n      mload\n      dup4\n      dup3\n      add\n      mstore\n      0x20\n      add\n      jump(tag_210)\n    tag_254:\n      pop\n        /* \"gEXO/SafeMath.sol\":1256:1265  uint256 c */\n      0x00\n        /* \"gEXO/SafeMath.sol\":1272:1273  b */\n      dup4\n        /* \"gEXO/SafeMath.sol\":1268:1269  a */\n      dup6\n        /* \"gEXO/SafeMath.sol\":1268:1273  a / b */\n      dup2\n      tag_259\n      jumpi\n      invalid\n    tag_259:\n      div\n        /* \"gEXO/SafeMath.sol\":1256:1273  uint256 c = a / b */\n      swap1\n      pop\n        /* \"gEXO/SafeMath.sol\":1308:1309  b */\n      dup4\n        /* \"gEXO/SafeMath.sol\":1304:1305  a */\n      dup6\n        /* \"gEXO/SafeMath.sol\":1304:1309  a % b */\n      dup2\n      tag_260\n      jumpi\n      invalid\n    tag_260:\n      mod\n        /* \"gEXO/SafeMath.sol\":1299:1300  c */\n      dup2\n        /* \"gEXO/SafeMath.sol\":1295:1296  b */\n      dup6\n        /* \"gEXO/SafeMath.sol\":1295:1300  b * c */\n      mul\n        /* \"gEXO/SafeMath.sol\":1295:1310  b * c + (a % b) */\n      add\n        /* \"gEXO/SafeMath.sol\":1290:1291  a */\n      dup6\n        /* \"gEXO/SafeMath.sol\":1290:1310  a == b * c + (a % b) */\n      eq\n        /* \"gEXO/SafeMath.sol\":1283:1311  assert(a == b * c + (a % b)) */\n      tag_261\n      jumpi\n      invalid\n    tag_261:\n        /* \"gEXO/SafeMath.sol\":1376:1377  c */\n      swap5\n        /* \"gEXO/SafeMath.sol\":1083:1384  function div(... */\n      swap4\n      pop\n      pop\n      pop\n      pop\n      jump\t// out\n        /* \"gEXO/SafeMath.sol\":337:471  function sub(uint256 a, uint256 b) internal pure returns (uint256) {... */\n    tag_236:\n        /* \"gEXO/SafeMath.sol\":395:402  uint256 */\n      0x00\n        /* \"gEXO/SafeMath.sol\":421:464  sub(a, b, \"SafeMath: subtraction overflow\") */\n      tag_196\n        /* \"gEXO/SafeMath.sol\":425:426  a */\n      dup4\n        /* \"gEXO/SafeMath.sol\":428:429  b */\n      dup4\n        /* \"gEXO/SafeMath.sol\":421:464  sub(a, b, \"SafeMath: subtraction overflow\") */\n      mload(0x40)\n      dup1\n      0x40\n      add\n      0x40\n      mstore\n      dup1\n      0x1e\n      dup2\n      mstore\n      0x20\n      add\n      0x536166654d6174683a207375627472616374696f6e206f766572666c6f770000\n      dup2\n      mstore\n      pop\n        /* \"gEXO/SafeMath.sol\":421:424  sub */\n      tag_134\n        /* \"gEXO/SafeMath.sol\":421:464  sub(a, b, \"SafeMath: subtraction overflow\") */\n      jump\t// in\n        /* \"gEXO/gOHM.sol\":6963:7532  function _writeCheckpoint(... */\n    tag_247:\n        /* \"gEXO/gOHM.sol\":7142:7143  0 */\n      0x00\n        /* \"gEXO/gOHM.sol\":7127:7139  nCheckpoints */\n      dup4\n        /* \"gEXO/gOHM.sol\":7127:7143  nCheckpoints > 0 */\n      gt\n        /* \"gEXO/gOHM.sol\":7127:7213  nCheckpoints > 0 && checkpoints[delegatee][nCheckpoints - 1].fromBlock == block.number */\n      dup1\n      iszero\n      tag_265\n      jumpi\n      pop\n      sub(shl(0xa0, 0x01), 0x01)\n        /* \"gEXO/gOHM.sol\":7147:7169  checkpoints[delegatee] */\n      dup5\n      and\n      0x00\n      swap1\n      dup2\n      mstore\n        /* \"gEXO/gOHM.sol\":7147:7158  checkpoints */\n      0x07\n        /* \"gEXO/gOHM.sol\":7147:7169  checkpoints[delegatee] */\n      0x20\n      swap1\n      dup2\n      mstore\n      0x40\n      dup1\n      dup4\n      keccak256\n      not(0x00)\n        /* \"gEXO/gOHM.sol\":7170:7186  nCheckpoints - 1 */\n      dup8\n      add\n        /* \"gEXO/gOHM.sol\":7147:7187  checkpoints[delegatee][nCheckpoints - 1] */\n      dup5\n      mstore\n      swap1\n      swap2\n      mstore\n      swap1\n      keccak256\n        /* \"gEXO/gOHM.sol\":7147:7197  checkpoints[delegatee][nCheckpoints - 1].fromBlock */\n      sload\n        /* \"gEXO/gOHM.sol\":7201:7213  block.number */\n      number\n        /* \"gEXO/gOHM.sol\":7147:7213  checkpoints[delegatee][nCheckpoints - 1].fromBlock == block.number */\n      eq\n        /* \"gEXO/gOHM.sol\":7127:7213  nCheckpoints > 0 && checkpoints[delegatee][nCheckpoints - 1].fromBlock == block.number */\n    tag_265:\n        /* \"gEXO/gOHM.sol\":7123:7459  if (nCheckpoints > 0 && checkpoints[delegatee][nCheckpoints - 1].fromBlock == block.number) {... */\n      iszero\n      tag_266\n      jumpi\n      sub(shl(0xa0, 0x01), 0x01)\n        /* \"gEXO/gOHM.sol\":7229:7251  checkpoints[delegatee] */\n      dup5\n      and\n      0x00\n      swap1\n      dup2\n      mstore\n        /* \"gEXO/gOHM.sol\":7229:7240  checkpoints */\n      0x07\n        /* \"gEXO/gOHM.sol\":7229:7251  checkpoints[delegatee] */\n      0x20\n      swap1\n      dup2\n      mstore\n      0x40\n      dup1\n      dup4\n      keccak256\n      not(0x00)\n        /* \"gEXO/gOHM.sol\":7252:7268  nCheckpoints - 1 */\n      dup8\n      add\n        /* \"gEXO/gOHM.sol\":7229:7269  checkpoints[delegatee][nCheckpoints - 1] */\n      dup5\n      mstore\n      swap1\n      swap2\n      mstore\n      swap1\n      keccak256\n        /* \"gEXO/gOHM.sol\":7267:7268  1 */\n      0x01\n        /* \"gEXO/gOHM.sol\":7229:7275  checkpoints[delegatee][nCheckpoints - 1].votes */\n      add\n        /* \"gEXO/gOHM.sol\":7229:7286  checkpoints[delegatee][nCheckpoints - 1].votes = newVotes */\n      dup2\n      swap1\n      sstore\n        /* \"gEXO/gOHM.sol\":7123:7459  if (nCheckpoints > 0 && checkpoints[delegatee][nCheckpoints - 1].fromBlock == block.number) {... */\n      jump(tag_267)\n    tag_266:\n        /* \"gEXO/gOHM.sol\":7356:7390  Checkpoint(block.number, newVotes) */\n      0x40\n      dup1\n      mload\n      dup1\n      dup3\n      add\n      dup3\n      mstore\n        /* \"gEXO/gOHM.sol\":7367:7379  block.number */\n      number\n        /* \"gEXO/gOHM.sol\":7356:7390  Checkpoint(block.number, newVotes) */\n      dup2\n      mstore\n      0x20\n      dup1\n      dup3\n      add\n      dup5\n      dup2\n      mstore\n      sub(shl(0xa0, 0x01), 0x01)\n        /* \"gEXO/gOHM.sol\":7317:7339  checkpoints[delegatee] */\n      dup9\n      and\n      0x00\n      dup2\n      dup2\n      mstore\n        /* \"gEXO/gOHM.sol\":7317:7328  checkpoints */\n      0x07\n        /* \"gEXO/gOHM.sol\":7317:7339  checkpoints[delegatee] */\n      dup5\n      mstore\n      dup6\n      dup2\n      keccak256\n        /* \"gEXO/gOHM.sol\":7317:7353  checkpoints[delegatee][nCheckpoints] */\n      dup10\n      dup3\n      mstore\n      dup5\n      mstore\n      dup6\n      dup2\n      keccak256\n        /* \"gEXO/gOHM.sol\":7317:7390  checkpoints[delegatee][nCheckpoints] = Checkpoint(block.number, newVotes) */\n      swap5\n      mload\n      dup6\n      sstore\n      swap2\n      mload\n      0x01\n      swap5\n      dup6\n      add\n      sstore\n        /* \"gEXO/gOHM.sol\":7404:7429  numCheckpoints[delegatee] */\n      dup2\n      mstore\n        /* \"gEXO/gOHM.sol\":7404:7418  numCheckpoints */\n      0x08\n        /* \"gEXO/gOHM.sol\":7404:7429  numCheckpoints[delegatee] */\n      swap1\n      swap2\n      mstore\n      swap2\n      swap1\n      swap2\n      keccak256\n        /* \"gEXO/gOHM.sol\":7432:7448  nCheckpoints + 1 */\n      swap1\n      dup5\n      add\n        /* \"gEXO/gOHM.sol\":7404:7448  numCheckpoints[delegatee] = nCheckpoints + 1 */\n      swap1\n      sstore\n        /* \"gEXO/gOHM.sol\":7123:7459  if (nCheckpoints > 0 && checkpoints[delegatee][nCheckpoints - 1].fromBlock == block.number) {... */\n    tag_267:\n        /* \"gEXO/gOHM.sol\":7474:7525  DelegateVotesChanged(delegatee, oldVotes, newVotes) */\n      0x40\n      dup1\n      mload\n      dup4\n      dup2\n      mstore\n      0x20\n      dup2\n      add\n      dup4\n      swap1\n      mstore\n      dup2\n      mload\n      sub(shl(0xa0, 0x01), 0x01)\n      dup8\n      and\n      swap3\n      0xdec2bacdd2f05b59de34da9b523dff8be42e5e38e818c82fdb0bae774387a724\n      swap3\n      dup3\n      swap1\n      sub\n      add\n      swap1\n      log2\n        /* \"gEXO/gOHM.sol\":6963:7532  function _writeCheckpoint(... */\n      pop\n      pop\n      pop\n      pop\n      jump\t// out\n    tag_170:\n      mload(0x40)\n      dup1\n      0x40\n      add\n      0x40\n      mstore\n      dup1\n      0x00\n      dup2\n      mstore\n      0x20\n      add\n      0x00\n      dup2\n      mstore\n      pop\n      swap1\n      jump\t// out\n    stop\n    data_0557e210f7a69a685100a7e4e3d0a7024c546085cee28910fd17d0b081d9516f 45524332303a207472616e7366657220746f20746865207a65726f2061646472657373\n    data_149b126e7125232b4200af45303d04fba8b74653b1a295a6a561a528c33fefdd 45524332303a206275726e20616d6f756e7420657863656564732062616c616e6365\n    data_24883cc5fe64ace9d0df1893501ecb93c77180f0ff69cca79affb3c316dc8029 45524332303a20617070726f766520746f20746865207a65726f2061646472657373\n    data_4107e8a8b9e94bf8ff83080ddec1c0bffe897ebc2241b89d44f66b3d274088b6 45524332303a207472616e7366657220616d6f756e7420657863656564732062616c616e6365\n    data_7ce14e62375391d57a10579fed6527dbae13153d5307491a336b206517515337 6745584f3a3a6765745072696f72566f7465733a206e6f74207965742064657465726d696e6564\n    data_9113bb53c2876a3805b2c9242029423fc540a728243ce887ab24c82cf119fba3 536166654d6174683a206d756c7469706c69636174696f6e206f766572666c6f77\n    data_974d1b4421da69cc60b481194f0dad36a5bb4e23da810da7a7fb30cdba178330 45524332303a207472616e7366657220616d6f756e74206578636565647320616c6c6f77616e6365\n    data_b16788493b576042bb52c50ed56189e0b250db113c7bfb1c3897d25cf9632d7f 45524332303a206275726e2066726f6d20746865207a65726f2061646472657373\n    data_baecc556b46f4ed0f2b4cb599d60785ac8563dd2dc0a5bf12edea1c39e5e1fea 45524332303a207472616e736665722066726f6d20746865207a65726f2061646472657373\n    data_c953f4879035ed60e766b34720f656aab5c697b141d924c283124ecedb91c208 45524332303a20617070726f76652066726f6d20746865207a65726f2061646472657373\n    data_f8b476f7d28209d77d4a4ac1fe36b9f8259aa1bb6bddfa6e89de7e51615cf8a8 45524332303a2064656372656173656420616c6c6f77616e63652062656c6f77207a65726f\n\n    auxdata: 0xa2646970667358221220b2653e959be5e1306be773743da3dfb6c9940f169a4f290ca51261b87d06739264736f6c63430007050033\n}\n",
				"bytecode": {
					"linkReferences": {},
					"object": "60a06040523480156200001157600080fd5b5060405162001ca038038062001ca0833981810160405260408110156200003757600080fd5b508051602091820151604080518082018252600e81526d476f7665726e616e63652045584f60901b818601908152825180840190935260048352636745584f60e01b9583019590955280519394929390926012916200009991600391620001c6565b508151620000af906004906020850190620001c6565b5060f81b7fff000000000000000000000000000000000000000000000000000000000000001660805250506001600160a01b03821662000136576040805162461bcd60e51b815260206004820152601660248201527f5a65726f20616464726573733a204d69677261746f7200000000000000000000604482015290519081900360640190fd5b600680546001600160a01b0319166001600160a01b038481169190911790915581166200019f576040805162461bcd60e51b81526020600482015260126024820152715a65726f20616464726573733a207345584f60701b604482015290519081900360640190fd5b600580546001600160a01b0319166001600160a01b03929092169190911790555062000272565b828054600181600116156101000203166002900490600052602060002090601f016020900481019282620001fe576000855562000249565b82601f106200021957805160ff191683800117855562000249565b8280016001018555821562000249579182015b82811115620002495782518255916020019190600101906200022c565b50620002579291506200025b565b5090565b5b808211156200025757600081556001016200025c565b60805160f81c611a106200029060003980610a0d5250611a106000f3fe608060405234801561001057600080fd5b50600436106101ae5760003560e01c8063587cde1e116100ee57806395d89b4111610097578063a824876811610071578063a824876814610528578063a9059cbb14610545578063b4b5ea5714610571578063dd62ed3e14610597576101ae565b806395d89b41146104c85780639dc29fac146104d0578063a457c2d7146104fc576101ae565b80636fcfff45116100c85780636fcfff451461045057806370a0823114610476578063782d6fe11461049c576101ae565b8063587cde1e146103e75780635c19a95c1461040d57806366a5236c14610433576101ae565b806319d40b081161015b5780632c678c64116101355780632c678c6414610369578063313ce56714610371578063395093511461038f57806340c10f19146103bb576101ae565b806319d40b081461032357806323b872dd1461032b5780632986c0e514610361576101ae565b80630cdfebfa1161018c5780630cdfebfa146102945780631068361f146102d957806318160ddd14610309576101ae565b806306d9cea8146101b357806306fdde03146101d7578063095ea7b314610254575b600080fd5b6101bb6105c5565b604080516001600160a01b039092168252519081900360200190f35b6101df6105d4565b6040805160208082528351818301528351919283929083019185019080838360005b83811015610219578181015183820152602001610201565b50505050905090810190601f1680156102465780820380516001836020036101000a031916815260200191505b509250505060405180910390f35b6102806004803603604081101561026a57600080fd5b506001600160a01b03813516906020013561066a565b604080519115158252519081900360200190f35b6102c0600480360360408110156102aa57600080fd5b506001600160a01b038135169060200135610681565b6040805192835260208301919091528051918290030190f35b610307600480360360408110156102ef57600080fd5b506001600160a01b03813581169160200135166106a5565b005b6103116108ee565b60408051918252519081900360200190f35b6101bb6108f4565b6102806004803603606081101561034157600080fd5b506001600160a01b03813581169160208101359091169060400135610903565b61031161096c565b6102806109fb565b610379610a0b565b6040805160ff9092168252519081900360200190f35b610280600480360360408110156103a557600080fd5b506001600160a01b038135169060200135610a2f565b610307600480360360408110156103d157600080fd5b506001600160a01b038135169060200135610a65565b6101bb600480360360208110156103fd57600080fd5b50356001600160a01b0316610ac2565b6103076004803603602081101561042357600080fd5b50356001600160a01b0316610add565b6103116004803603602081101561044957600080fd5b5035610aea565b6103116004803603602081101561046657600080fd5b50356001600160a01b0316610b15565b6103116004803603602081101561048c57600080fd5b50356001600160a01b0316610b27565b610311600480360360408110156104b257600080fd5b506001600160a01b038135169060200135610b42565b6101df610d04565b610307600480360360408110156104e657600080fd5b506001600160a01b038135169060200135610d65565b6102806004803603604081101561051257600080fd5b506001600160a01b038135169060200135610dbe565b6103116004803603602081101561053e57600080fd5b5035610e0d565b6102806004803603604081101561055b57600080fd5b506001600160a01b038135169060200135610e32565b6103116004803603602081101561058757600080fd5b50356001600160a01b0316610e3f565b610311600480360360408110156105ad57600080fd5b506001600160a01b0381358116916020013516610e97565b6005546001600160a01b031681565b60038054604080516020601f60026000196101006001881615020190951694909404938401819004810282018101909252828152606093909290918301828280156106605780601f1061063557610100808354040283529160200191610660565b820191906000526020600020905b81548152906001019060200180831161064357829003601f168201915b5050505050905090565b6000610677338484610ec2565b5060015b92915050565b60076020908152600092835260408084209091529082529020805460019091015482565b6006546001600160a01b031633146106f4576040805162461bcd60e51b815260206004820152600d60248201526c13db9b1e48185c1c1c9bdd9959609a1b604482015290519081900360640190fd5b600654600160a01b900460ff1615610753576040805162461bcd60e51b815260206004820152600860248201527f4d69677261746564000000000000000000000000000000000000000000000000604482015290519081900360640190fd5b600680547fffffffffffffffffffffff00ffffffffffffffffffffffffffffffffffffffff16600160a01b17908190556001600160a01b03838116911614156107e3576040805162461bcd60e51b815260206004820152601060248201527f496e76616c696420617267756d656e7400000000000000000000000000000000604482015290519081900360640190fd5b6001600160a01b03821661083e576040805162461bcd60e51b815260206004820152601260248201527f5a65726f206164647265737320666f756e640000000000000000000000000000604482015290519081900360640190fd5b6006805473ffffffffffffffffffffffffffffffffffffffff19166001600160a01b038481169190911790915581166108be576040805162461bcd60e51b815260206004820152601260248201527f5a65726f206164647265737320666f756e640000000000000000000000000000604482015290519081900360640190fd5b6005805473ffffffffffffffffffffffffffffffffffffffff19166001600160a01b039290921691909117905550565b60025490565b6006546001600160a01b031681565b6000610910848484610fae565b610962843361095d85604051806060016040528060288152602001611924602891396001600160a01b038a1660009081526001602090815260408083203384529091529020549190611109565b610ec2565b5060019392505050565b600554604080517f2986c0e500000000000000000000000000000000000000000000000000000000815290516000926001600160a01b031691632986c0e5916004808301926020929190829003018186803b1580156109ca57600080fd5b505afa1580156109de573d6000803e3d6000fd5b505050506040513d60208110156109f457600080fd5b5051905090565b600654600160a01b900460ff1681565b7f000000000000000000000000000000000000000000000000000000000000000090565b3360008181526001602090815260408083206001600160a01b0387168452909152812054909161067791859061095d90866111a0565b6006546001600160a01b03163314610ab4576040805162461bcd60e51b815260206004820152600d60248201526c13db9b1e48185c1c1c9bdd9959609a1b604482015290519081900360640190fd5b610abe82826111fa565b5050565b6009602052600090815260409020546001600160a01b031681565b610ae733826112ea565b50565b600061067b610af761096c565b610b0f610b02610a0b565b859060ff16600a0a611376565b906113cf565b60086020526000908152604090205481565b6001600160a01b031660009081526020819052604090205490565b6000438210610b825760405162461bcd60e51b81526004018080602001828103825260278152602001806118dc6027913960400191505060405180910390fd5b6001600160a01b03831660009081526008602052604090205480610baa57600091505061067b565b6001600160a01b0384166000908152600760209081526040808320600019850184529091529020548310610c0a576001600160a01b038416600090815260076020908152604080832060001990940183529290522060010154905061067b565b6001600160a01b0384166000908152600760209081526040808320838052909152902054831015610c3f57600091505061067b565b600060001982015b81811115610cd4576002828203048103610c5f611834565b506001600160a01b03871660009081526007602090815260408083208484528252918290208251808401909352805480845260019091015491830191909152871415610cb55760200151945061067b9350505050565b8051871115610cc657819350610ccd565b6001820392505b5050610c47565b506001600160a01b0385166000908152600760209081526040808320938352929052206001015491505092915050565b60048054604080516020601f60026000196101006001881615020190951694909404938401819004810282018101909252828152606093909290918301828280156106605780601f1061063557610100808354040283529160200191610660565b6006546001600160a01b03163314610db4576040805162461bcd60e51b815260206004820152600d60248201526c13db9b1e48185c1c1c9bdd9959609a1b604482015290519081900360640190fd5b610abe8282611411565b6000610677338461095d856040518060600160405280602581526020016119b6602591393360009081526001602090815260408083206001600160a01b038d1684529091529020549190611109565b600061067b610e1a610a0b565b60ff16600a0a610b0f610e2b61096c565b8590611376565b6000610677338484610fae565b6001600160a01b03811660009081526008602052604081205480610e64576000610e90565b6001600160a01b0383166000908152600760209081526040808320600019850184529091529020600101545b9392505050565b6001600160a01b03918216600090815260016020908152604080832093909416825291909152205490565b6001600160a01b038316610f075760405162461bcd60e51b81526004018080602001828103825260248152602001806119926024913960400191505060405180910390fd5b6001600160a01b038216610f4c5760405162461bcd60e51b81526004018080602001828103825260228152602001806118946022913960400191505060405180910390fd5b6001600160a01b03808416600081815260016020908152604080832094871680845294825291829020859055815185815291517f8c5be1e5ebec7d5bd14f71427d1e84f3dd0314c0f7b2291e5b200ac8c7c3b9259281900390910190a3505050565b6001600160a01b038316610ff35760405162461bcd60e51b815260040180806020018281038252602581526020018061196d6025913960400191505060405180910390fd5b6001600160a01b0382166110385760405162461bcd60e51b815260040180806020018281038252602381526020018061184f6023913960400191505060405180910390fd5b61104383838361150d565b611080816040518060600160405280602681526020016118b6602691396001600160a01b0386166000908152602081905260409020549190611109565b6001600160a01b0380851660009081526020819052604080822093909355908416815220546110af90826111a0565b6001600160a01b038084166000818152602081815260409182902094909455805185815290519193928716927fddf252ad1be2c89b69c2b068fc378daa952ba7f163c4a11628f55a4df523b3ef92918290030190a3505050565b600081848411156111985760405162461bcd60e51b81526004018080602001828103825283818151815260200191508051906020019080838360005b8381101561115d578181015183820152602001611145565b50505050905090810190601f16801561118a5780820380516001836020036101000a031916815260200191505b509250505060405180910390fd5b505050900390565b600082820183811015610e90576040805162461bcd60e51b815260206004820152601b60248201527f536166654d6174683a206164646974696f6e206f766572666c6f770000000000604482015290519081900360640190fd5b6001600160a01b038216611255576040805162461bcd60e51b815260206004820152601f60248201527f45524332303a206d696e7420746f20746865207a65726f206164647265737300604482015290519081900360640190fd5b6112616000838361150d565b60025461126e90826111a0565b6002556001600160a01b03821660009081526020819052604090205461129490826111a0565b6001600160a01b0383166000818152602081815260408083209490945583518581529351929391927fddf252ad1be2c89b69c2b068fc378daa952ba7f163c4a11628f55a4df523b3ef9281900390910190a35050565b6001600160a01b0380831660008181526009602081815260408084208054858452828620549490935287871673ffffffffffffffffffffffffffffffffffffffff198416811790915590519190951694919391928592917f3134e8a2e6d97e929a7e54011ea5485d7d196dd5f0ba4d4ef95803e8e3fc257f9190a4611370828483611544565b50505050565b6000826113855750600061067b565b8282028284828161139257fe5b0414610e905760405162461bcd60e51b81526004018080602001828103825260218152602001806119036021913960400191505060405180910390fd5b6000610e9083836040518060400160405280601a81526020017f536166654d6174683a206469766973696f6e206279207a65726f000000000000815250611671565b6001600160a01b0382166114565760405162461bcd60e51b815260040180806020018281038252602181526020018061194c6021913960400191505060405180910390fd5b6114628260008361150d565b61149f81604051806060016040528060228152602001611872602291396001600160a01b0385166000908152602081905260409020549190611109565b6001600160a01b0383166000908152602081905260409020556002546114c590826116ed565b6002556040805182815290516000916001600160a01b038516917fddf252ad1be2c89b69c2b068fc378daa952ba7f163c4a11628f55a4df523b3ef9181900360200190a35050565b6001600160a01b0380841660009081526009602052604080822054858416835291205461153f92918216911683611544565b505050565b816001600160a01b0316836001600160a01b0316141580156115665750600081115b1561153f576001600160a01b038316156115ec576001600160a01b03831660009081526008602052604081205490816115a05760006115cc565b6001600160a01b0385166000908152600760209081526040808320600019860184529091529020600101545b905060006115da82856116ed565b90506115e88684848461172f565b5050505b6001600160a01b0382161561153f576001600160a01b038216600090815260086020526040812054908161162157600061164d565b6001600160a01b0384166000908152600760209081526040808320600019860184529091529020600101545b9050600061165b82856111a0565b90506116698584848461172f565b505050505050565b600081836116c05760405162461bcd60e51b815260206004820181815283516024840152835190928392604490910191908501908083836000831561115d578181015183820152602001611145565b5060008385816116cc57fe5b0490508385816116d857fe5b068185020185146116e557fe5b949350505050565b6000610e9083836040518060400160405280601e81526020017f536166654d6174683a207375627472616374696f6e206f766572666c6f770000815250611109565b60008311801561176557506001600160a01b03841660009081526007602090815260408083206000198701845290915290205443145b1561179c576001600160a01b03841660009081526007602090815260408083206000198701845290915290206001018190556117eb565b60408051808201825243815260208082018481526001600160a01b0388166000818152600784528581208982528452858120945185559151600194850155815260089091529190912090840190555b604080518381526020810183905281516001600160a01b038716927fdec2bacdd2f05b59de34da9b523dff8be42e5e38e818c82fdb0bae774387a724928290030190a250505050565b60405180604001604052806000815260200160008152509056fe45524332303a207472616e7366657220746f20746865207a65726f206164647265737345524332303a206275726e20616d6f756e7420657863656564732062616c616e636545524332303a20617070726f766520746f20746865207a65726f206164647265737345524332303a207472616e7366657220616d6f756e7420657863656564732062616c616e63656745584f3a3a6765745072696f72566f7465733a206e6f74207965742064657465726d696e6564536166654d6174683a206d756c7469706c69636174696f6e206f766572666c6f7745524332303a207472616e7366657220616d6f756e74206578636565647320616c6c6f77616e636545524332303a206275726e2066726f6d20746865207a65726f206164647265737345524332303a207472616e736665722066726f6d20746865207a65726f206164647265737345524332303a20617070726f76652066726f6d20746865207a65726f206164647265737345524332303a2064656372656173656420616c6c6f77616e63652062656c6f77207a65726fa2646970667358221220b2653e959be5e1306be773743da3dfb6c9940f169a4f290ca51261b87d06739264736f6c63430007050033",
					"opcodes": "PUSH1 0xA0 PUSH1 0x40 MSTORE CALLVALUE DUP1 ISZERO PUSH3 0x11 JUMPI PUSH1 0x0 DUP1 REVERT JUMPDEST POP PUSH1 0x40 MLOAD PUSH3 0x1CA0 CODESIZE SUB DUP1 PUSH3 0x1CA0 DUP4 CODECOPY DUP2 DUP2 ADD PUSH1 0x40 MSTORE PUSH1 0x40 DUP2 LT ISZERO PUSH3 0x37 JUMPI PUSH1 0x0 DUP1 REVERT JUMPDEST POP DUP1 MLOAD PUSH1 0x20 SWAP2 DUP3 ADD MLOAD PUSH1 0x40 DUP1 MLOAD DUP1 DUP3 ADD DUP3 MSTORE PUSH1 0xE DUP2 MSTORE PUSH14 0x476F7665726E616E63652045584F PUSH1 0x90 SHL DUP2 DUP7 ADD SWAP1 DUP2 MSTORE DUP3 MLOAD DUP1 DUP5 ADD SWAP1 SWAP4 MSTORE PUSH1 0x4 DUP4 MSTORE PUSH4 0x6745584F PUSH1 0xE0 SHL SWAP6 DUP4 ADD SWAP6 SWAP1 SWAP6 MSTORE DUP1 MLOAD SWAP4 SWAP5 SWAP3 SWAP4 SWAP1 SWAP3 PUSH1 0x12 SWAP2 PUSH3 0x99 SWAP2 PUSH1 0x3 SWAP2 PUSH3 0x1C6 JUMP JUMPDEST POP DUP2 MLOAD PUSH3 0xAF SWAP1 PUSH1 0x4 SWAP1 PUSH1 0x20 DUP6 ADD SWAP1 PUSH3 0x1C6 JUMP JUMPDEST POP PUSH1 0xF8 SHL PUSH32 0xFF00000000000000000000000000000000000000000000000000000000000000 AND PUSH1 0x80 MSTORE POP POP PUSH1 0x1 PUSH1 0x1 PUSH1 0xA0 SHL SUB DUP3 AND PUSH3 0x136 JUMPI PUSH1 0x40 DUP1 MLOAD PUSH3 0x461BCD PUSH1 0xE5 SHL DUP2 MSTORE PUSH1 0x20 PUSH1 0x4 DUP3 ADD MSTORE PUSH1 0x16 PUSH1 0x24 DUP3 ADD MSTORE PUSH32 0x5A65726F20616464726573733A204D69677261746F7200000000000000000000 PUSH1 0x44 DUP3 ADD MSTORE SWAP1 MLOAD SWAP1 DUP2 SWAP1 SUB PUSH1 0x64 ADD SWAP1 REVERT JUMPDEST PUSH1 0x6 DUP1 SLOAD PUSH1 0x1 PUSH1 0x1 PUSH1 0xA0 SHL SUB NOT AND PUSH1 0x1 PUSH1 0x1 PUSH1 0xA0 SHL SUB DUP5 DUP2 AND SWAP2 SWAP1 SWAP2 OR SWAP1 SWAP2 SSTORE DUP2 AND PUSH3 0x19F JUMPI PUSH1 0x40 DUP1 MLOAD PUSH3 0x461BCD PUSH1 0xE5 SHL DUP2 MSTORE PUSH1 0x20 PUSH1 0x4 DUP3 ADD MSTORE PUSH1 0x12 PUSH1 0x24 DUP3 ADD MSTORE PUSH18 0x5A65726F20616464726573733A207345584F PUSH1 0x70 SHL PUSH1 0x44 DUP3 ADD MSTORE SWAP1 MLOAD SWAP1 DUP2 SWAP1 SUB PUSH1 0x64 ADD SWAP1 REVERT JUMPDEST PUSH1 0x5 DUP1 SLOAD PUSH1 0x1 PUSH1 0x1 PUSH1 0xA0 SHL SUB NOT AND PUSH1 0x1 PUSH1 0x1 PUSH1 0xA0 SHL SUB SWAP3 SWAP1 SWAP3 AND SWAP2 SWAP1 SWAP2 OR SWAP1 SSTORE POP PUSH3 0x272 JUMP JUMPDEST DUP3 DUP1 SLOAD PUSH1 0x1 DUP2 PUSH1 0x1 AND ISZERO PUSH2 0x100 MUL SUB AND PUSH1 0x2 SWAP1 DIV SWAP1 PUSH1 0x0 MSTORE PUSH1 0x20 PUSH1 0x0 KECCAK256 SWAP1 PUSH1 0x1F ADD PUSH1 0x20 SWAP1 DIV DUP2 ADD SWAP3 DUP3 PUSH3 0x1FE JUMPI PUSH1 0x0 DUP6 SSTORE PUSH3 0x249 JUMP JUMPDEST DUP3 PUSH1 0x1F LT PUSH3 0x219 JUMPI DUP1 MLOAD PUSH1 0xFF NOT AND DUP4 DUP1 ADD OR DUP6 SSTORE PUSH3 0x249 JUMP JUMPDEST DUP3 DUP1 ADD PUSH1 0x1 ADD DUP6 SSTORE DUP3 ISZERO PUSH3 0x249 JUMPI SWAP2 DUP3 ADD JUMPDEST DUP3 DUP2 GT ISZERO PUSH3 0x249 JUMPI DUP3 MLOAD DUP3 SSTORE SWAP2 PUSH1 0x20 ADD SWAP2 SWAP1 PUSH1 0x1 ADD SWAP1 PUSH3 0x22C JUMP JUMPDEST POP PUSH3 0x257 SWAP3 SWAP2 POP PUSH3 0x25B JUMP JUMPDEST POP SWAP1 JUMP JUMPDEST JUMPDEST DUP1 DUP3 GT ISZERO PUSH3 0x257 JUMPI PUSH1 0x0 DUP2 SSTORE PUSH1 0x1 ADD PUSH3 0x25C JUMP JUMPDEST PUSH1 0x80 MLOAD PUSH1 0xF8 SHR PUSH2 0x1A10 PUSH3 0x290 PUSH1 0x0 CODECOPY DUP1 PUSH2 0xA0D MSTORE POP PUSH2 0x1A10 PUSH1 0x0 RETURN INVALID PUSH1 0x80 PUSH1 0x40 MSTORE CALLVALUE DUP1 ISZERO PUSH2 0x10 JUMPI PUSH1 0x0 DUP1 REVERT JUMPDEST POP PUSH1 0x4 CALLDATASIZE LT PUSH2 0x1AE JUMPI PUSH1 0x0 CALLDATALOAD PUSH1 0xE0 SHR DUP1 PUSH4 0x587CDE1E GT PUSH2 0xEE JUMPI DUP1 PUSH4 0x95D89B41 GT PUSH2 0x97 JUMPI DUP1 PUSH4 0xA8248768 GT PUSH2 0x71 JUMPI DUP1 PUSH4 0xA8248768 EQ PUSH2 0x528 JUMPI DUP1 PUSH4 0xA9059CBB EQ PUSH2 0x545 JUMPI DUP1 PUSH4 0xB4B5EA57 EQ PUSH2 0x571 JUMPI DUP1 PUSH4 0xDD62ED3E EQ PUSH2 0x597 JUMPI PUSH2 0x1AE JUMP JUMPDEST DUP1 PUSH4 0x95D89B41 EQ PUSH2 0x4C8 JUMPI DUP1 PUSH4 0x9DC29FAC EQ PUSH2 0x4D0 JUMPI DUP1 PUSH4 0xA457C2D7 EQ PUSH2 0x4FC JUMPI PUSH2 0x1AE JUMP JUMPDEST DUP1 PUSH4 0x6FCFFF45 GT PUSH2 0xC8 JUMPI DUP1 PUSH4 0x6FCFFF45 EQ PUSH2 0x450 JUMPI DUP1 PUSH4 0x70A08231 EQ PUSH2 0x476 JUMPI DUP1 PUSH4 0x782D6FE1 EQ PUSH2 0x49C JUMPI PUSH2 0x1AE JUMP JUMPDEST DUP1 PUSH4 0x587CDE1E EQ PUSH2 0x3E7 JUMPI DUP1 PUSH4 0x5C19A95C EQ PUSH2 0x40D JUMPI DUP1 PUSH4 0x66A5236C EQ PUSH2 0x433 JUMPI PUSH2 0x1AE JUMP JUMPDEST DUP1 PUSH4 0x19D40B08 GT PUSH2 0x15B JUMPI DUP1 PUSH4 0x2C678C64 GT PUSH2 0x135 JUMPI DUP1 PUSH4 0x2C678C64 EQ PUSH2 0x369 JUMPI DUP1 PUSH4 0x313CE567 EQ PUSH2 0x371 JUMPI DUP1 PUSH4 0x39509351 EQ PUSH2 0x38F JUMPI DUP1 PUSH4 0x40C10F19 EQ PUSH2 0x3BB JUMPI PUSH2 0x1AE JUMP JUMPDEST DUP1 PUSH4 0x19D40B08 EQ PUSH2 0x323 JUMPI DUP1 PUSH4 0x23B872DD EQ PUSH2 0x32B JUMPI DUP1 PUSH4 0x2986C0E5 EQ PUSH2 0x361 JUMPI PUSH2 0x1AE JUMP JUMPDEST DUP1 PUSH4 0xCDFEBFA GT PUSH2 0x18C JUMPI DUP1 PUSH4 0xCDFEBFA EQ PUSH2 0x294 JUMPI DUP1 PUSH4 0x1068361F EQ PUSH2 0x2D9 JUMPI DUP1 PUSH4 0x18160DDD EQ PUSH2 0x309 JUMPI PUSH2 0x1AE JUMP JUMPDEST DUP1 PUSH4 0x6D9CEA8 EQ PUSH2 0x1B3 JUMPI DUP1 PUSH4 0x6FDDE03 EQ PUSH2 0x1D7 JUMPI DUP1 PUSH4 0x95EA7B3 EQ PUSH2 0x254 JUMPI JUMPDEST PUSH1 0x0 DUP1 REVERT JUMPDEST PUSH2 0x1BB PUSH2 0x5C5 JUMP JUMPDEST PUSH1 0x40 DUP1 MLOAD PUSH1 0x1 PUSH1 0x1 PUSH1 0xA0 SHL SUB SWAP1 SWAP3 AND DUP3 MSTORE MLOAD SWAP1 DUP2 SWAP1 SUB PUSH1 0x20 ADD SWAP1 RETURN JUMPDEST PUSH2 0x1DF PUSH2 0x5D4 JUMP JUMPDEST PUSH1 0x40 DUP1 MLOAD PUSH1 0x20 DUP1 DUP3 MSTORE DUP4 MLOAD DUP2 DUP4 ADD MSTORE DUP4 MLOAD SWAP2 SWAP3 DUP4 SWAP3 SWAP1 DUP4 ADD SWAP2 DUP6 ADD SWAP1 DUP1 DUP4 DUP4 PUSH1 0x0 JUMPDEST DUP4 DUP2 LT ISZERO PUSH2 0x219 JUMPI DUP2 DUP2 ADD MLOAD DUP4 DUP3 ADD MSTORE PUSH1 0x20 ADD PUSH2 0x201 JUMP JUMPDEST POP POP POP POP SWAP1 POP SWAP1 DUP2 ADD SWAP1 PUSH1 0x1F AND DUP1 ISZERO PUSH2 0x246 JUMPI DUP1 DUP3 SUB DUP1 MLOAD PUSH1 0x1 DUP4 PUSH1 0x20 SUB PUSH2 0x100 EXP SUB NOT AND DUP2 MSTORE PUSH1 0x20 ADD SWAP2 POP JUMPDEST POP SWAP3 POP POP POP PUSH1 0x40 MLOAD DUP1 SWAP2 SUB SWAP1 RETURN JUMPDEST PUSH2 0x280 PUSH1 0x4 DUP1 CALLDATASIZE SUB PUSH1 0x40 DUP2 LT ISZERO PUSH2 0x26A JUMPI PUSH1 0x0 DUP1 REVERT JUMPDEST POP PUSH1 0x1 PUSH1 0x1 PUSH1 0xA0 SHL SUB DUP2 CALLDATALOAD AND SWAP1 PUSH1 0x20 ADD CALLDATALOAD PUSH2 0x66A JUMP JUMPDEST PUSH1 0x40 DUP1 MLOAD SWAP2 ISZERO ISZERO DUP3 MSTORE MLOAD SWAP1 DUP2 SWAP1 SUB PUSH1 0x20 ADD SWAP1 RETURN JUMPDEST PUSH2 0x2C0 PUSH1 0x4 DUP1 CALLDATASIZE SUB PUSH1 0x40 DUP2 LT ISZERO PUSH2 0x2AA JUMPI PUSH1 0x0 DUP1 REVERT JUMPDEST POP PUSH1 0x1 PUSH1 0x1 PUSH1 0xA0 SHL SUB DUP2 CALLDATALOAD AND SWAP1 PUSH1 0x20 ADD CALLDATALOAD PUSH2 0x681 JUMP JUMPDEST PUSH1 0x40 DUP1 MLOAD SWAP3 DUP4 MSTORE PUSH1 0x20 DUP4 ADD SWAP2 SWAP1 SWAP2 MSTORE DUP1 MLOAD SWAP2 DUP3 SWAP1 SUB ADD SWAP1 RETURN JUMPDEST PUSH2 0x307 PUSH1 0x4 DUP1 CALLDATASIZE SUB PUSH1 0x40 DUP2 LT ISZERO PUSH2 0x2EF JUMPI PUSH1 0x0 DUP1 REVERT JUMPDEST POP PUSH1 0x1 PUSH1 0x1 PUSH1 0xA0 SHL SUB DUP2 CALLDATALOAD DUP2 AND SWAP2 PUSH1 0x20 ADD CALLDATALOAD AND PUSH2 0x6A5 JUMP JUMPDEST STOP JUMPDEST PUSH2 0x311 PUSH2 0x8EE JUMP JUMPDEST PUSH1 0x40 DUP1 MLOAD SWAP2 DUP3 MSTORE MLOAD SWAP1 DUP2 SWAP1 SUB PUSH1 0x20 ADD SWAP1 RETURN JUMPDEST PUSH2 0x1BB PUSH2 0x8F4 JUMP JUMPDEST PUSH2 0x280 PUSH1 0x4 DUP1 CALLDATASIZE SUB PUSH1 0x60 DUP2 LT ISZERO PUSH2 0x341 JUMPI PUSH1 0x0 DUP1 REVERT JUMPDEST POP PUSH1 0x1 PUSH1 0x1 PUSH1 0xA0 SHL SUB DUP2 CALLDATALOAD DUP2 AND SWAP2 PUSH1 0x20 DUP2 ADD CALLDATALOAD SWAP1 SWAP2 AND SWAP1 PUSH1 0x40 ADD CALLDATALOAD PUSH2 0x903 JUMP JUMPDEST PUSH2 0x311 PUSH2 0x96C JUMP JUMPDEST PUSH2 0x280 PUSH2 0x9FB JUMP JUMPDEST PUSH2 0x379 PUSH2 0xA0B JUMP JUMPDEST PUSH1 0x40 DUP1 MLOAD PUSH1 0xFF SWAP1 SWAP3 AND DUP3 MSTORE MLOAD SWAP1 DUP2 SWAP1 SUB PUSH1 0x20 ADD SWAP1 RETURN JUMPDEST PUSH2 0x280 PUSH1 0x4 DUP1 CALLDATASIZE SUB PUSH1 0x40 DUP2 LT ISZERO PUSH2 0x3A5 JUMPI PUSH1 0x0 DUP1 REVERT JUMPDEST POP PUSH1 0x1 PUSH1 0x1 PUSH1 0xA0 SHL SUB DUP2 CALLDATALOAD AND SWAP1 PUSH1 0x20 ADD CALLDATALOAD PUSH2 0xA2F JUMP JUMPDEST PUSH2 0x307 PUSH1 0x4 DUP1 CALLDATASIZE SUB PUSH1 0x40 DUP2 LT ISZERO PUSH2 0x3D1 JUMPI PUSH1 0x0 DUP1 REVERT JUMPDEST POP PUSH1 0x1 PUSH1 0x1 PUSH1 0xA0 SHL SUB DUP2 CALLDATALOAD AND SWAP1 PUSH1 0x20 ADD CALLDATALOAD PUSH2 0xA65 JUMP JUMPDEST PUSH2 0x1BB PUSH1 0x4 DUP1 CALLDATASIZE SUB PUSH1 0x20 DUP2 LT ISZERO PUSH2 0x3FD JUMPI PUSH1 0x0 DUP1 REVERT JUMPDEST POP CALLDATALOAD PUSH1 0x1 PUSH1 0x1 PUSH1 0xA0 SHL SUB AND PUSH2 0xAC2 JUMP JUMPDEST PUSH2 0x307 PUSH1 0x4 DUP1 CALLDATASIZE SUB PUSH1 0x20 DUP2 LT ISZERO PUSH2 0x423 JUMPI PUSH1 0x0 DUP1 REVERT JUMPDEST POP CALLDATALOAD PUSH1 0x1 PUSH1 0x1 PUSH1 0xA0 SHL SUB AND PUSH2 0xADD JUMP JUMPDEST PUSH2 0x311 PUSH1 0x4 DUP1 CALLDATASIZE SUB PUSH1 0x20 DUP2 LT ISZERO PUSH2 0x449 JUMPI PUSH1 0x0 DUP1 REVERT JUMPDEST POP CALLDATALOAD PUSH2 0xAEA JUMP JUMPDEST PUSH2 0x311 PUSH1 0x4 DUP1 CALLDATASIZE SUB PUSH1 0x20 DUP2 LT ISZERO PUSH2 0x466 JUMPI PUSH1 0x0 DUP1 REVERT JUMPDEST POP CALLDATALOAD PUSH1 0x1 PUSH1 0x1 PUSH1 0xA0 SHL SUB AND PUSH2 0xB15 JUMP JUMPDEST PUSH2 0x311 PUSH1 0x4 DUP1 CALLDATASIZE SUB PUSH1 0x20 DUP2 LT ISZERO PUSH2 0x48C JUMPI PUSH1 0x0 DUP1 REVERT JUMPDEST POP CALLDATALOAD PUSH1 0x1 PUSH1 0x1 PUSH1 0xA0 SHL SUB AND PUSH2 0xB27 JUMP JUMPDEST PUSH2 0x311 PUSH1 0x4 DUP1 CALLDATASIZE SUB PUSH1 0x40 DUP2 LT ISZERO PUSH2 0x4B2 JUMPI PUSH1 0x0 DUP1 REVERT JUMPDEST POP PUSH1 0x1 PUSH1 0x1 PUSH1 0xA0 SHL SUB DUP2 CALLDATALOAD AND SWAP1 PUSH1 0x20 ADD CALLDATALOAD PUSH2 0xB42 JUMP JUMPDEST PUSH2 0x1DF PUSH2 0xD04 JUMP JUMPDEST PUSH2 0x307 PUSH1 0x4 DUP1 CALLDATASIZE SUB PUSH1 0x40 DUP2 LT ISZERO PUSH2 0x4E6 JUMPI PUSH1 0x0 DUP1 REVERT JUMPDEST POP PUSH1 0x1 PUSH1 0x1 PUSH1 0xA0 SHL SUB DUP2 CALLDATALOAD AND SWAP1 PUSH1 0x20 ADD CALLDATALOAD PUSH2 0xD65 JUMP JUMPDEST PUSH2 0x280 PUSH1 0x4 DUP1 CALLDATASIZE SUB PUSH1 0x40 DUP2 LT ISZERO PUSH2 0x512 JUMPI PUSH1 0x0 DUP1 REVERT JUMPDEST POP PUSH1 0x1 PUSH1 0x1 PUSH1 0xA0 SHL SUB DUP2 CALLDATALOAD AND SWAP1 PUSH1 0x20 ADD CALLDATALOAD PUSH2 0xDBE JUMP JUMPDEST PUSH2 0x311 PUSH1 0x4 DUP1 CALLDATASIZE SUB PUSH1 0x20 DUP2 LT ISZERO PUSH2 0x53E JUMPI PUSH1 0x0 DUP1 REVERT JUMPDEST POP CALLDATALOAD PUSH2 0xE0D JUMP JUMPDEST PUSH2 0x280 PUSH1 0x4 DUP1 CALLDATASIZE SUB PUSH1 0x40 DUP2 LT ISZERO PUSH2 0x55B JUMPI PUSH1 0x0 DUP1 REVERT JUMPDEST POP PUSH1 0x1 PUSH1 0x1 PUSH1 0xA0 SHL SUB DUP2 CALLDATALOAD AND SWAP1 PUSH1 0x20 ADD CALLDATALOAD PUSH2 0xE32 JUMP JUMPDEST PUSH2 0x311 PUSH1 0x4 DUP1 CALLDATASIZE SUB PUSH1 0x20 DUP2 LT ISZERO PUSH2 0x587 JUMPI PUSH1 0x0 DUP1 REVERT JUMPDEST POP CALLDATALOAD PUSH1 0x1 PUSH1 0x1 PUSH1 0xA0 SHL SUB AND PUSH2 0xE3F JUMP JUMPDEST PUSH2 0x311 PUSH1 0x4 DUP1 CALLDATASIZE SUB PUSH1 0x40 DUP2 LT ISZERO PUSH2 0x5AD JUMPI PUSH1 0x0 DUP1 REVERT JUMPDEST POP PUSH1 0x1 PUSH1 0x1 PUSH1 0xA0 SHL SUB DUP2 CALLDATALOAD DUP2 AND SWAP2 PUSH1 0x20 ADD CALLDATALOAD AND PUSH2 0xE97 JUMP JUMPDEST PUSH1 0x5 SLOAD PUSH1 0x1 PUSH1 0x1 PUSH1 0xA0 SHL SUB AND DUP2 JUMP JUMPDEST PUSH1 0x3 DUP1 SLOAD PUSH1 0x40 DUP1 MLOAD PUSH1 0x20 PUSH1 0x1F PUSH1 0x2 PUSH1 0x0 NOT PUSH2 0x100 PUSH1 0x1 DUP9 AND ISZERO MUL ADD SWAP1 SWAP6 AND SWAP5 SWAP1 SWAP5 DIV SWAP4 DUP5 ADD DUP2 SWAP1 DIV DUP2 MUL DUP3 ADD DUP2 ADD SWAP1 SWAP3 MSTORE DUP3 DUP2 MSTORE PUSH1 0x60 SWAP4 SWAP1 SWAP3 SWAP1 SWAP2 DUP4 ADD DUP3 DUP3 DUP1 ISZERO PUSH2 0x660 JUMPI DUP1 PUSH1 0x1F LT PUSH2 0x635 JUMPI PUSH2 0x100 DUP1 DUP4 SLOAD DIV MUL DUP4 MSTORE SWAP2 PUSH1 0x20 ADD SWAP2 PUSH2 0x660 JUMP JUMPDEST DUP3 ADD SWAP2 SWAP1 PUSH1 0x0 MSTORE PUSH1 0x20 PUSH1 0x0 KECCAK256 SWAP1 JUMPDEST DUP2 SLOAD DUP2 MSTORE SWAP1 PUSH1 0x1 ADD SWAP1 PUSH1 0x20 ADD DUP1 DUP4 GT PUSH2 0x643 JUMPI DUP3 SWAP1 SUB PUSH1 0x1F AND DUP3 ADD SWAP2 JUMPDEST POP POP POP POP POP SWAP1 POP SWAP1 JUMP JUMPDEST PUSH1 0x0 PUSH2 0x677 CALLER DUP5 DUP5 PUSH2 0xEC2 JUMP JUMPDEST POP PUSH1 0x1 JUMPDEST SWAP3 SWAP2 POP POP JUMP JUMPDEST PUSH1 0x7 PUSH1 0x20 SWAP1 DUP2 MSTORE PUSH1 0x0 SWAP3 DUP4 MSTORE PUSH1 0x40 DUP1 DUP5 KECCAK256 SWAP1 SWAP2 MSTORE SWAP1 DUP3 MSTORE SWAP1 KECCAK256 DUP1 SLOAD PUSH1 0x1 SWAP1 SWAP2 ADD SLOAD DUP3 JUMP JUMPDEST PUSH1 0x6 SLOAD PUSH1 0x1 PUSH1 0x1 PUSH1 0xA0 SHL SUB AND CALLER EQ PUSH2 0x6F4 JUMPI PUSH1 0x40 DUP1 MLOAD PUSH3 0x461BCD PUSH1 0xE5 SHL DUP2 MSTORE PUSH1 0x20 PUSH1 0x4 DUP3 ADD MSTORE PUSH1 0xD PUSH1 0x24 DUP3 ADD MSTORE PUSH13 0x13DB9B1E48185C1C1C9BDD9959 PUSH1 0x9A SHL PUSH1 0x44 DUP3 ADD MSTORE SWAP1 MLOAD SWAP1 DUP2 SWAP1 SUB PUSH1 0x64 ADD SWAP1 REVERT JUMPDEST PUSH1 0x6 SLOAD PUSH1 0x1 PUSH1 0xA0 SHL SWAP1 DIV PUSH1 0xFF AND ISZERO PUSH2 0x753 JUMPI PUSH1 0x40 DUP1 MLOAD PUSH3 0x461BCD PUSH1 0xE5 SHL DUP2 MSTORE PUSH1 0x20 PUSH1 0x4 DUP3 ADD MSTORE PUSH1 0x8 PUSH1 0x24 DUP3 ADD MSTORE PUSH32 0x4D69677261746564000000000000000000000000000000000000000000000000 PUSH1 0x44 DUP3 ADD MSTORE SWAP1 MLOAD SWAP1 DUP2 SWAP1 SUB PUSH1 0x64 ADD SWAP1 REVERT JUMPDEST PUSH1 0x6 DUP1 SLOAD PUSH32 0xFFFFFFFFFFFFFFFFFFFFFF00FFFFFFFFFFFFFFFFFFFFFFFFFFFFFFFFFFFFFFFF AND PUSH1 0x1 PUSH1 0xA0 SHL OR SWAP1 DUP2 SWAP1 SSTORE PUSH1 0x1 PUSH1 0x1 PUSH1 0xA0 SHL SUB DUP4 DUP2 AND SWAP2 AND EQ ISZERO PUSH2 0x7E3 JUMPI PUSH1 0x40 DUP1 MLOAD PUSH3 0x461BCD PUSH1 0xE5 SHL DUP2 MSTORE PUSH1 0x20 PUSH1 0x4 DUP3 ADD MSTORE PUSH1 0x10 PUSH1 0x24 DUP3 ADD MSTORE PUSH32 0x496E76616C696420617267756D656E7400000000000000000000000000000000 PUSH1 0x44 DUP3 ADD MSTORE SWAP1 MLOAD SWAP1 DUP2 SWAP1 SUB PUSH1 0x64 ADD SWAP1 REVERT JUMPDEST PUSH1 0x1 PUSH1 0x1 PUSH1 0xA0 SHL SUB DUP3 AND PUSH2 0x83E JUMPI PUSH1 0x40 DUP1 MLOAD PUSH3 0x461BCD PUSH1 0xE5 SHL DUP2 MSTORE PUSH1 0x20 PUSH1 0x4 DUP3 ADD MSTORE PUSH1 0x12 PUSH1 0x24 DUP3 ADD MSTORE PUSH32 0x5A65726F206164647265737320666F756E640000000000000000000000000000 PUSH1 0x44 DUP3 ADD MSTORE SWAP1 MLOAD SWAP1 DUP2 SWAP1 SUB PUSH1 0x64 ADD SWAP1 REVERT JUMPDEST PUSH1 0x6 DUP1 SLOAD PUSH20 0xFFFFFFFFFFFFFFFFFFFFFFFFFFFFFFFFFFFFFFFF NOT AND PUSH1 0x1 PUSH1 0x1 PUSH1 0xA0 SHL SUB DUP5 DUP2 AND SWAP2 SWAP1 SWAP2 OR SWAP1 SWAP2 SSTORE DUP2 AND PUSH2 0x8BE JUMPI PUSH1 0x40 DUP1 MLOAD PUSH3 0x461BCD PUSH1 0xE5 SHL DUP2 MSTORE PUSH1 0x20 PUSH1 0x4 DUP3 ADD MSTORE PUSH1 0x12 PUSH1 0x24 DUP3 ADD MSTORE PUSH32 0x5A65726F206164647265737320666F756E640000000000000000000000000000 PUSH1 0x44 DUP3 ADD MSTORE SWAP1 MLOAD SWAP1 DUP2 SWAP1 SUB PUSH1 0x64 ADD SWAP1 REVERT JUMPDEST PUSH1 0x5 DUP1 SLOAD PUSH20 0xFFFFFFFFFFFFFFFFFFFFFFFFFFFFFFFFFFFFFFFF NOT AND PUSH1 0x1 PUSH1 0x1 PUSH1 0xA0 SHL SUB SWAP3 SWAP1 SWAP3 AND SWAP2 SWAP1 SWAP2 OR SWAP1 SSTORE POP JUMP JUMPDEST PUSH1 0x2 SLOAD SWAP1 JUMP JUMPDEST PUSH1 0x6 SLOAD PUSH1 0x1 PUSH1 0x1 PUSH1 0xA0 SHL SUB AND DUP2 JUMP JUMPDEST PUSH1 0x0 PUSH2 0x910 DUP5 DUP5 DUP5 PUSH2 0xFAE JUMP JUMPDEST PUSH2 0x962 DUP5 CALLER PUSH2 0x95D DUP6 PUSH1 0x40 MLOAD DUP1 PUSH1 0x60 ADD PUSH1 0x40 MSTORE DUP1 PUSH1 0x28 DUP2 MSTORE PUSH1 0x20 ADD PUSH2 0x1924 PUSH1 0x28 SWAP2 CODECOPY PUSH1 0x1 PUSH1 0x1 PUSH1 0xA0 SHL SUB DUP11 AND PUSH1 0x0 SWAP1 DUP2 MSTORE PUSH1 0x1 PUSH1 0x20 SWAP1 DUP2 MSTORE PUSH1 0x40 DUP1 DUP4 KECCAK256 CALLER DUP5 MSTORE SWAP1 SWAP2 MSTORE SWAP1 KECCAK256 SLOAD SWAP2 SWAP1 PUSH2 0x1109 JUMP JUMPDEST PUSH2 0xEC2 JUMP JUMPDEST POP PUSH1 0x1 SWAP4 SWAP3 POP POP POP JUMP JUMPDEST PUSH1 0x5 SLOAD PUSH1 0x40 DUP1 MLOAD PUSH32 0x2986C0E500000000000000000000000000000000000000000000000000000000 DUP2 MSTORE SWAP1 MLOAD PUSH1 0x0 SWAP3 PUSH1 0x1 PUSH1 0x1 PUSH1 0xA0 SHL SUB AND SWAP2 PUSH4 0x2986C0E5 SWAP2 PUSH1 0x4 DUP1 DUP4 ADD SWAP3 PUSH1 0x20 SWAP3 SWAP2 SWAP1 DUP3 SWAP1 SUB ADD DUP2 DUP7 DUP1 EXTCODESIZE ISZERO DUP1 ISZERO PUSH2 0x9CA JUMPI PUSH1 0x0 DUP1 REVERT JUMPDEST POP GAS STATICCALL ISZERO DUP1 ISZERO PUSH2 0x9DE JUMPI RETURNDATASIZE PUSH1 0x0 DUP1 RETURNDATACOPY RETURNDATASIZE PUSH1 0x0 REVERT JUMPDEST POP POP POP POP PUSH1 0x40 MLOAD RETURNDATASIZE PUSH1 0x20 DUP2 LT ISZERO PUSH2 0x9F4 JUMPI PUSH1 0x0 DUP1 REVERT JUMPDEST POP MLOAD SWAP1 POP SWAP1 JUMP JUMPDEST PUSH1 0x6 SLOAD PUSH1 0x1 PUSH1 0xA0 SHL SWAP1 DIV PUSH1 0xFF AND DUP2 JUMP JUMPDEST PUSH32 0x0 SWAP1 JUMP JUMPDEST CALLER PUSH1 0x0 DUP2 DUP2 MSTORE PUSH1 0x1 PUSH1 0x20 SWAP1 DUP2 MSTORE PUSH1 0x40 DUP1 DUP4 KECCAK256 PUSH1 0x1 PUSH1 0x1 PUSH1 0xA0 SHL SUB DUP8 AND DUP5 MSTORE SWAP1 SWAP2 MSTORE DUP2 KECCAK256 SLOAD SWAP1 SWAP2 PUSH2 0x677 SWAP2 DUP6 SWAP1 PUSH2 0x95D SWAP1 DUP7 PUSH2 0x11A0 JUMP JUMPDEST PUSH1 0x6 SLOAD PUSH1 0x1 PUSH1 0x1 PUSH1 0xA0 SHL SUB AND CALLER EQ PUSH2 0xAB4 JUMPI PUSH1 0x40 DUP1 MLOAD PUSH3 0x461BCD PUSH1 0xE5 SHL DUP2 MSTORE PUSH1 0x20 PUSH1 0x4 DUP3 ADD MSTORE PUSH1 0xD PUSH1 0x24 DUP3 ADD MSTORE PUSH13 0x13DB9B1E48185C1C1C9BDD9959 PUSH1 0x9A SHL PUSH1 0x44 DUP3 ADD MSTORE SWAP1 MLOAD SWAP1 DUP2 SWAP1 SUB PUSH1 0x64 ADD SWAP1 REVERT JUMPDEST PUSH2 0xABE DUP3 DUP3 PUSH2 0x11FA JUMP JUMPDEST POP POP JUMP JUMPDEST PUSH1 0x9 PUSH1 0x20 MSTORE PUSH1 0x0 SWAP1 DUP2 MSTORE PUSH1 0x40 SWAP1 KECCAK256 SLOAD PUSH1 0x1 PUSH1 0x1 PUSH1 0xA0 SHL SUB AND DUP2 JUMP JUMPDEST PUSH2 0xAE7 CALLER DUP3 PUSH2 0x12EA JUMP JUMPDEST POP JUMP JUMPDEST PUSH1 0x0 PUSH2 0x67B PUSH2 0xAF7 PUSH2 0x96C JUMP JUMPDEST PUSH2 0xB0F PUSH2 0xB02 PUSH2 0xA0B JUMP JUMPDEST DUP6 SWAP1 PUSH1 0xFF AND PUSH1 0xA EXP PUSH2 0x1376 JUMP JUMPDEST SWAP1 PUSH2 0x13CF JUMP JUMPDEST PUSH1 0x8 PUSH1 0x20 MSTORE PUSH1 0x0 SWAP1 DUP2 MSTORE PUSH1 0x40 SWAP1 KECCAK256 SLOAD DUP2 JUMP JUMPDEST PUSH1 0x1 PUSH1 0x1 PUSH1 0xA0 SHL SUB AND PUSH1 0x0 SWAP1 DUP2 MSTORE PUSH1 0x20 DUP2 SWAP1 MSTORE PUSH1 0x40 SWAP1 KECCAK256 SLOAD SWAP1 JUMP JUMPDEST PUSH1 0x0 NUMBER DUP3 LT PUSH2 0xB82 JUMPI PUSH1 0x40 MLOAD PUSH3 0x461BCD PUSH1 0xE5 SHL DUP2 MSTORE PUSH1 0x4 ADD DUP1 DUP1 PUSH1 0x20 ADD DUP3 DUP2 SUB DUP3 MSTORE PUSH1 0x27 DUP2 MSTORE PUSH1 0x20 ADD DUP1 PUSH2 0x18DC PUSH1 0x27 SWAP2 CODECOPY PUSH1 0x40 ADD SWAP2 POP POP PUSH1 0x40 MLOAD DUP1 SWAP2 SUB SWAP1 REVERT JUMPDEST PUSH1 0x1 PUSH1 0x1 PUSH1 0xA0 SHL SUB DUP4 AND PUSH1 0x0 SWAP1 DUP2 MSTORE PUSH1 0x8 PUSH1 0x20 MSTORE PUSH1 0x40 SWAP1 KECCAK256 SLOAD DUP1 PUSH2 0xBAA JUMPI PUSH1 0x0 SWAP2 POP POP PUSH2 0x67B JUMP JUMPDEST PUSH1 0x1 PUSH1 0x1 PUSH1 0xA0 SHL SUB DUP5 AND PUSH1 0x0 SWAP1 DUP2 MSTORE PUSH1 0x7 PUSH1 0x20 SWAP1 DUP2 MSTORE PUSH1 0x40 DUP1 DUP4 KECCAK256 PUSH1 0x0 NOT DUP6 ADD DUP5 MSTORE SWAP1 SWAP2 MSTORE SWAP1 KECCAK256 SLOAD DUP4 LT PUSH2 0xC0A JUMPI PUSH1 0x1 PUSH1 0x1 PUSH1 0xA0 SHL SUB DUP5 AND PUSH1 0x0 SWAP1 DUP2 MSTORE PUSH1 0x7 PUSH1 0x20 SWAP1 DUP2 MSTORE PUSH1 0x40 DUP1 DUP4 KECCAK256 PUSH1 0x0 NOT SWAP1 SWAP5 ADD DUP4 MSTORE SWAP3 SWAP1 MSTORE KECCAK256 PUSH1 0x1 ADD SLOAD SWAP1 POP PUSH2 0x67B JUMP JUMPDEST PUSH1 0x1 PUSH1 0x1 PUSH1 0xA0 SHL SUB DUP5 AND PUSH1 0x0 SWAP1 DUP2 MSTORE PUSH1 0x7 PUSH1 0x20 SWAP1 DUP2 MSTORE PUSH1 0x40 DUP1 DUP4 KECCAK256 DUP4 DUP1 MSTORE SWAP1 SWAP2 MSTORE SWAP1 KECCAK256 SLOAD DUP4 LT ISZERO PUSH2 0xC3F JUMPI PUSH1 0x0 SWAP2 POP POP PUSH2 0x67B JUMP JUMPDEST PUSH1 0x0 PUSH1 0x0 NOT DUP3 ADD JUMPDEST DUP2 DUP2 GT ISZERO PUSH2 0xCD4 JUMPI PUSH1 0x2 DUP3 DUP3 SUB DIV DUP2 SUB PUSH2 0xC5F PUSH2 0x1834 JUMP JUMPDEST POP PUSH1 0x1 PUSH1 0x1 PUSH1 0xA0 SHL SUB DUP8 AND PUSH1 0x0 SWAP1 DUP2 MSTORE PUSH1 0x7 PUSH1 0x20 SWAP1 DUP2 MSTORE PUSH1 0x40 DUP1 DUP4 KECCAK256 DUP5 DUP5 MSTORE DUP3 MSTORE SWAP2 DUP3 SWAP1 KECCAK256 DUP3 MLOAD DUP1 DUP5 ADD SWAP1 SWAP4 MSTORE DUP1 SLOAD DUP1 DUP5 MSTORE PUSH1 0x1 SWAP1 SWAP2 ADD SLOAD SWAP2 DUP4 ADD SWAP2 SWAP1 SWAP2 MSTORE DUP8 EQ ISZERO PUSH2 0xCB5 JUMPI PUSH1 0x20 ADD MLOAD SWAP5 POP PUSH2 0x67B SWAP4 POP POP POP POP JUMP JUMPDEST DUP1 MLOAD DUP8 GT ISZERO PUSH2 0xCC6 JUMPI DUP2 SWAP4 POP PUSH2 0xCCD JUMP JUMPDEST PUSH1 0x1 DUP3 SUB SWAP3 POP JUMPDEST POP POP PUSH2 0xC47 JUMP JUMPDEST POP PUSH1 0x1 PUSH1 0x1 PUSH1 0xA0 SHL SUB DUP6 AND PUSH1 0x0 SWAP1 DUP2 MSTORE PUSH1 0x7 PUSH1 0x20 SWAP1 DUP2 MSTORE PUSH1 0x40 DUP1 DUP4 KECCAK256 SWAP4 DUP4 MSTORE SWAP3 SWAP1 MSTORE KECCAK256 PUSH1 0x1 ADD SLOAD SWAP2 POP POP SWAP3 SWAP2 POP POP JUMP JUMPDEST PUSH1 0x4 DUP1 SLOAD PUSH1 0x40 DUP1 MLOAD PUSH1 0x20 PUSH1 0x1F PUSH1 0x2 PUSH1 0x0 NOT PUSH2 0x100 PUSH1 0x1 DUP9 AND ISZERO MUL ADD SWAP1 SWAP6 AND SWAP5 SWAP1 SWAP5 DIV SWAP4 DUP5 ADD DUP2 SWAP1 DIV DUP2 MUL DUP3 ADD DUP2 ADD SWAP1 SWAP3 MSTORE DUP3 DUP2 MSTORE PUSH1 0x60 SWAP4 SWAP1 SWAP3 SWAP1 SWAP2 DUP4 ADD DUP3 DUP3 DUP1 ISZERO PUSH2 0x660 JUMPI DUP1 PUSH1 0x1F LT PUSH2 0x635 JUMPI PUSH2 0x100 DUP1 DUP4 SLOAD DIV MUL DUP4 MSTORE SWAP2 PUSH1 0x20 ADD SWAP2 PUSH2 0x660 JUMP JUMPDEST PUSH1 0x6 SLOAD PUSH1 0x1 PUSH1 0x1 PUSH1 0xA0 SHL SUB AND CALLER EQ PUSH2 0xDB4 JUMPI PUSH1 0x40 DUP1 MLOAD PUSH3 0x461BCD PUSH1 0xE5 SHL DUP2 MSTORE PUSH1 0x20 PUSH1 0x4 DUP3 ADD MSTORE PUSH1 0xD PUSH1 0x24 DUP3 ADD MSTORE PUSH13 0x13DB9B1E48185C1C1C9BDD9959 PUSH1 0x9A SHL PUSH1 0x44 DUP3 ADD MSTORE SWAP1 MLOAD SWAP1 DUP2 SWAP1 SUB PUSH1 0x64 ADD SWAP1 REVERT JUMPDEST PUSH2 0xABE DUP3 DUP3 PUSH2 0x1411 JUMP JUMPDEST PUSH1 0x0 PUSH2 0x677 CALLER DUP5 PUSH2 0x95D DUP6 PUSH1 0x40 MLOAD DUP1 PUSH1 0x60 ADD PUSH1 0x40 MSTORE DUP1 PUSH1 0x25 DUP2 MSTORE PUSH1 0x20 ADD PUSH2 0x19B6 PUSH1 0x25 SWAP2 CODECOPY CALLER PUSH1 0x0 SWAP1 DUP2 MSTORE PUSH1 0x1 PUSH1 0x20 SWAP1 DUP2 MSTORE PUSH1 0x40 DUP1 DUP4 KECCAK256 PUSH1 0x1 PUSH1 0x1 PUSH1 0xA0 SHL SUB DUP14 AND DUP5 MSTORE SWAP1 SWAP2 MSTORE SWAP1 KECCAK256 SLOAD SWAP2 SWAP1 PUSH2 0x1109 JUMP JUMPDEST PUSH1 0x0 PUSH2 0x67B PUSH2 0xE1A PUSH2 0xA0B JUMP JUMPDEST PUSH1 0xFF AND PUSH1 0xA EXP PUSH2 0xB0F PUSH2 0xE2B PUSH2 0x96C JUMP JUMPDEST DUP6 SWAP1 PUSH2 0x1376 JUMP JUMPDEST PUSH1 0x0 PUSH2 0x677 CALLER DUP5 DUP5 PUSH2 0xFAE JUMP JUMPDEST PUSH1 0x1 PUSH1 0x1 PUSH1 0xA0 SHL SUB DUP2 AND PUSH1 0x0 SWAP1 DUP2 MSTORE PUSH1 0x8 PUSH1 0x20 MSTORE PUSH1 0x40 DUP2 KECCAK256 SLOAD DUP1 PUSH2 0xE64 JUMPI PUSH1 0x0 PUSH2 0xE90 JUMP JUMPDEST PUSH1 0x1 PUSH1 0x1 PUSH1 0xA0 SHL SUB DUP4 AND PUSH1 0x0 SWAP1 DUP2 MSTORE PUSH1 0x7 PUSH1 0x20 SWAP1 DUP2 MSTORE PUSH1 0x40 DUP1 DUP4 KECCAK256 PUSH1 0x0 NOT DUP6 ADD DUP5 MSTORE SWAP1 SWAP2 MSTORE SWAP1 KECCAK256 PUSH1 0x1 ADD SLOAD JUMPDEST SWAP4 SWAP3 POP POP POP JUMP JUMPDEST PUSH1 0x1 PUSH1 0x1 PUSH1 0xA0 SHL SUB SWAP2 DUP3 AND PUSH1 0x0 SWAP1 DUP2 MSTORE PUSH1 0x1 PUSH1 0x20 SWAP1 DUP2 MSTORE PUSH1 0x40 DUP1 DUP4 KECCAK256 SWAP4 SWAP1 SWAP5 AND DUP3 MSTORE SWAP2 SWAP1 SWAP2 MSTORE KECCAK256 SLOAD SWAP1 JUMP JUMPDEST PUSH1 0x1 PUSH1 0x1 PUSH1 0xA0 SHL SUB DUP4 AND PUSH2 0xF07 JUMPI PUSH1 0x40 MLOAD PUSH3 0x461BCD PUSH1 0xE5 SHL DUP2 MSTORE PUSH1 0x4 ADD DUP1 DUP1 PUSH1 0x20 ADD DUP3 DUP2 SUB DUP3 MSTORE PUSH1 0x24 DUP2 MSTORE PUSH1 0x20 ADD DUP1 PUSH2 0x1992 PUSH1 0x24 SWAP2 CODECOPY PUSH1 0x40 ADD SWAP2 POP POP PUSH1 0x40 MLOAD DUP1 SWAP2 SUB SWAP1 REVERT JUMPDEST PUSH1 0x1 PUSH1 0x1 PUSH1 0xA0 SHL SUB DUP3 AND PUSH2 0xF4C JUMPI PUSH1 0x40 MLOAD PUSH3 0x461BCD PUSH1 0xE5 SHL DUP2 MSTORE PUSH1 0x4 ADD DUP1 DUP1 PUSH1 0x20 ADD DUP3 DUP2 SUB DUP3 MSTORE PUSH1 0x22 DUP2 MSTORE PUSH1 0x20 ADD DUP1 PUSH2 0x1894 PUSH1 0x22 SWAP2 CODECOPY PUSH1 0x40 ADD SWAP2 POP POP PUSH1 0x40 MLOAD DUP1 SWAP2 SUB SWAP1 REVERT JUMPDEST PUSH1 0x1 PUSH1 0x1 PUSH1 0xA0 SHL SUB DUP1 DUP5 AND PUSH1 0x0 DUP2 DUP2 MSTORE PUSH1 0x1 PUSH1 0x20 SWAP1 DUP2 MSTORE PUSH1 0x40 DUP1 DUP4 KECCAK256 SWAP5 DUP8 AND DUP1 DUP5 MSTORE SWAP5 DUP3 MSTORE SWAP2 DUP3 SWAP1 KECCAK256 DUP6 SWAP1 SSTORE DUP2 MLOAD DUP6 DUP2 MSTORE SWAP2 MLOAD PUSH32 0x8C5BE1E5EBEC7D5BD14F71427D1E84F3DD0314C0F7B2291E5B200AC8C7C3B925 SWAP3 DUP2 SWAP1 SUB SWAP1 SWAP2 ADD SWAP1 LOG3 POP POP POP JUMP JUMPDEST PUSH1 0x1 PUSH1 0x1 PUSH1 0xA0 SHL SUB DUP4 AND PUSH2 0xFF3 JUMPI PUSH1 0x40 MLOAD PUSH3 0x461BCD PUSH1 0xE5 SHL DUP2 MSTORE PUSH1 0x4 ADD DUP1 DUP1 PUSH1 0x20 ADD DUP3 DUP2 SUB DUP3 MSTORE PUSH1 0x25 DUP2 MSTORE PUSH1 0x20 ADD DUP1 PUSH2 0x196D PUSH1 0x25 SWAP2 CODECOPY PUSH1 0x40 ADD SWAP2 POP POP PUSH1 0x40 MLOAD DUP1 SWAP2 SUB SWAP1 REVERT JUMPDEST PUSH1 0x1 PUSH1 0x1 PUSH1 0xA0 SHL SUB DUP3 AND PUSH2 0x1038 JUMPI PUSH1 0x40 MLOAD PUSH3 0x461BCD PUSH1 0xE5 SHL DUP2 MSTORE PUSH1 0x4 ADD DUP1 DUP1 PUSH1 0x20 ADD DUP3 DUP2 SUB DUP3 MSTORE PUSH1 0x23 DUP2 MSTORE PUSH1 0x20 ADD DUP1 PUSH2 0x184F PUSH1 0x23 SWAP2 CODECOPY PUSH1 0x40 ADD SWAP2 POP POP PUSH1 0x40 MLOAD DUP1 SWAP2 SUB SWAP1 REVERT JUMPDEST PUSH2 0x1043 DUP4 DUP4 DUP4 PUSH2 0x150D JUMP JUMPDEST PUSH2 0x1080 DUP2 PUSH1 0x40 MLOAD DUP1 PUSH1 0x60 ADD PUSH1 0x40 MSTORE DUP1 PUSH1 0x26 DUP2 MSTORE PUSH1 0x20 ADD PUSH2 0x18B6 PUSH1 0x26 SWAP2 CODECOPY PUSH1 0x1 PUSH1 0x1 PUSH1 0xA0 SHL SUB DUP7 AND PUSH1 0x0 SWAP1 DUP2 MSTORE PUSH1 0x20 DUP2 SWAP1 MSTORE PUSH1 0x40 SWAP1 KECCAK256 SLOAD SWAP2 SWAP1 PUSH2 0x1109 JUMP JUMPDEST PUSH1 0x1 PUSH1 0x1 PUSH1 0xA0 SHL SUB DUP1 DUP6 AND PUSH1 0x0 SWAP1 DUP2 MSTORE PUSH1 0x20 DUP2 SWAP1 MSTORE PUSH1 0x40 DUP1 DUP3 KECCAK256 SWAP4 SWAP1 SWAP4 SSTORE SWAP1 DUP5 AND DUP2 MSTORE KECCAK256 SLOAD PUSH2 0x10AF SWAP1 DUP3 PUSH2 0x11A0 JUMP JUMPDEST PUSH1 0x1 PUSH1 0x1 PUSH1 0xA0 SHL SUB DUP1 DUP5 AND PUSH1 0x0 DUP2 DUP2 MSTORE PUSH1 0x20 DUP2 DUP2 MSTORE PUSH1 0x40 SWAP2 DUP3 SWAP1 KECCAK256 SWAP5 SWAP1 SWAP5 SSTORE DUP1 MLOAD DUP6 DUP2 MSTORE SWAP1 MLOAD SWAP2 SWAP4 SWAP3 DUP8 AND SWAP3 PUSH32 0xDDF252AD1BE2C89B69C2B068FC378DAA952BA7F163C4A11628F55A4DF523B3EF SWAP3 SWAP2 DUP3 SWAP1 SUB ADD SWAP1 LOG3 POP POP POP JUMP JUMPDEST PUSH1 0x0 DUP2 DUP5 DUP5 GT ISZERO PUSH2 0x1198 JUMPI PUSH1 0x40 MLOAD PUSH3 0x461BCD PUSH1 0xE5 SHL DUP2 MSTORE PUSH1 0x4 ADD DUP1 DUP1 PUSH1 0x20 ADD DUP3 DUP2 SUB DUP3 MSTORE DUP4 DUP2 DUP2 MLOAD DUP2 MSTORE PUSH1 0x20 ADD SWAP2 POP DUP1 MLOAD SWAP1 PUSH1 0x20 ADD SWAP1 DUP1 DUP4 DUP4 PUSH1 0x0 JUMPDEST DUP4 DUP2 LT ISZERO PUSH2 0x115D JUMPI DUP2 DUP2 ADD MLOAD DUP4 DUP3 ADD MSTORE PUSH1 0x20 ADD PUSH2 0x1145 JUMP JUMPDEST POP POP POP POP SWAP1 POP SWAP1 DUP2 ADD SWAP1 PUSH1 0x1F AND DUP1 ISZERO PUSH2 0x118A JUMPI DUP1 DUP3 SUB DUP1 MLOAD PUSH1 0x1 DUP4 PUSH1 0x20 SUB PUSH2 0x100 EXP SUB NOT AND DUP2 MSTORE PUSH1 0x20 ADD SWAP2 POP JUMPDEST POP SWAP3 POP POP POP PUSH1 0x40 MLOAD DUP1 SWAP2 SUB SWAP1 REVERT JUMPDEST POP POP POP SWAP1 SUB SWAP1 JUMP JUMPDEST PUSH1 0x0 DUP3 DUP3 ADD DUP4 DUP2 LT ISZERO PUSH2 0xE90 JUMPI PUSH1 0x40 DUP1 MLOAD PUSH3 0x461BCD PUSH1 0xE5 SHL DUP2 MSTORE PUSH1 0x20 PUSH1 0x4 DUP3 ADD MSTORE PUSH1 0x1B PUSH1 0x24 DUP3 ADD MSTORE PUSH32 0x536166654D6174683A206164646974696F6E206F766572666C6F770000000000 PUSH1 0x44 DUP3 ADD MSTORE SWAP1 MLOAD SWAP1 DUP2 SWAP1 SUB PUSH1 0x64 ADD SWAP1 REVERT JUMPDEST PUSH1 0x1 PUSH1 0x1 PUSH1 0xA0 SHL SUB DUP3 AND PUSH2 0x1255 JUMPI PUSH1 0x40 DUP1 MLOAD PUSH3 0x461BCD PUSH1 0xE5 SHL DUP2 MSTORE PUSH1 0x20 PUSH1 0x4 DUP3 ADD MSTORE PUSH1 0x1F PUSH1 0x24 DUP3 ADD MSTORE PUSH32 0x45524332303A206D696E7420746F20746865207A65726F206164647265737300 PUSH1 0x44 DUP3 ADD MSTORE SWAP1 MLOAD SWAP1 DUP2 SWAP1 SUB PUSH1 0x64 ADD SWAP1 REVERT JUMPDEST PUSH2 0x1261 PUSH1 0x0 DUP4 DUP4 PUSH2 0x150D JUMP JUMPDEST PUSH1 0x2 SLOAD PUSH2 0x126E SWAP1 DUP3 PUSH2 0x11A0 JUMP JUMPDEST PUSH1 0x2 SSTORE PUSH1 0x1 PUSH1 0x1 PUSH1 0xA0 SHL SUB DUP3 AND PUSH1 0x0 SWAP1 DUP2 MSTORE PUSH1 0x20 DUP2 SWAP1 MSTORE PUSH1 0x40 SWAP1 KECCAK256 SLOAD PUSH2 0x1294 SWAP1 DUP3 PUSH2 0x11A0 JUMP JUMPDEST PUSH1 0x1 PUSH1 0x1 PUSH1 0xA0 SHL SUB DUP4 AND PUSH1 0x0 DUP2 DUP2 MSTORE PUSH1 0x20 DUP2 DUP2 MSTORE PUSH1 0x40 DUP1 DUP4 KECCAK256 SWAP5 SWAP1 SWAP5 SSTORE DUP4 MLOAD DUP6 DUP2 MSTORE SWAP4 MLOAD SWAP3 SWAP4 SWAP2 SWAP3 PUSH32 0xDDF252AD1BE2C89B69C2B068FC378DAA952BA7F163C4A11628F55A4DF523B3EF SWAP3 DUP2 SWAP1 SUB SWAP1 SWAP2 ADD SWAP1 LOG3 POP POP JUMP JUMPDEST PUSH1 0x1 PUSH1 0x1 PUSH1 0xA0 SHL SUB DUP1 DUP4 AND PUSH1 0x0 DUP2 DUP2 MSTORE PUSH1 0x9 PUSH1 0x20 DUP2 DUP2 MSTORE PUSH1 0x40 DUP1 DUP5 KECCAK256 DUP1 SLOAD DUP6 DUP5 MSTORE DUP3 DUP7 KECCAK256 SLOAD SWAP5 SWAP1 SWAP4 MSTORE DUP8 DUP8 AND PUSH20 0xFFFFFFFFFFFFFFFFFFFFFFFFFFFFFFFFFFFFFFFF NOT DUP5 AND DUP2 OR SWAP1 SWAP2 SSTORE SWAP1 MLOAD SWAP2 SWAP1 SWAP6 AND SWAP5 SWAP2 SWAP4 SWAP2 SWAP3 DUP6 SWAP3 SWAP2 PUSH32 0x3134E8A2E6D97E929A7E54011EA5485D7D196DD5F0BA4D4EF95803E8E3FC257F SWAP2 SWAP1 LOG4 PUSH2 0x1370 DUP3 DUP5 DUP4 PUSH2 0x1544 JUMP JUMPDEST POP POP POP POP JUMP JUMPDEST PUSH1 0x0 DUP3 PUSH2 0x1385 JUMPI POP PUSH1 0x0 PUSH2 0x67B JUMP JUMPDEST DUP3 DUP3 MUL DUP3 DUP5 DUP3 DUP2 PUSH2 0x1392 JUMPI INVALID JUMPDEST DIV EQ PUSH2 0xE90 JUMPI PUSH1 0x40 MLOAD PUSH3 0x461BCD PUSH1 0xE5 SHL DUP2 MSTORE PUSH1 0x4 ADD DUP1 DUP1 PUSH1 0x20 ADD DUP3 DUP2 SUB DUP3 MSTORE PUSH1 0x21 DUP2 MSTORE PUSH1 0x20 ADD DUP1 PUSH2 0x1903 PUSH1 0x21 SWAP2 CODECOPY PUSH1 0x40 ADD SWAP2 POP POP PUSH1 0x40 MLOAD DUP1 SWAP2 SUB SWAP1 REVERT JUMPDEST PUSH1 0x0 PUSH2 0xE90 DUP4 DUP4 PUSH1 0x40 MLOAD DUP1 PUSH1 0x40 ADD PUSH1 0x40 MSTORE DUP1 PUSH1 0x1A DUP2 MSTORE PUSH1 0x20 ADD PUSH32 0x536166654D6174683A206469766973696F6E206279207A65726F000000000000 DUP2 MSTORE POP PUSH2 0x1671 JUMP JUMPDEST PUSH1 0x1 PUSH1 0x1 PUSH1 0xA0 SHL SUB DUP3 AND PUSH2 0x1456 JUMPI PUSH1 0x40 MLOAD PUSH3 0x461BCD PUSH1 0xE5 SHL DUP2 MSTORE PUSH1 0x4 ADD DUP1 DUP1 PUSH1 0x20 ADD DUP3 DUP2 SUB DUP3 MSTORE PUSH1 0x21 DUP2 MSTORE PUSH1 0x20 ADD DUP1 PUSH2 0x194C PUSH1 0x21 SWAP2 CODECOPY PUSH1 0x40 ADD SWAP2 POP POP PUSH1 0x40 MLOAD DUP1 SWAP2 SUB SWAP1 REVERT JUMPDEST PUSH2 0x1462 DUP3 PUSH1 0x0 DUP4 PUSH2 0x150D JUMP JUMPDEST PUSH2 0x149F DUP2 PUSH1 0x40 MLOAD DUP1 PUSH1 0x60 ADD PUSH1 0x40 MSTORE DUP1 PUSH1 0x22 DUP2 MSTORE PUSH1 0x20 ADD PUSH2 0x1872 PUSH1 0x22 SWAP2 CODECOPY PUSH1 0x1 PUSH1 0x1 PUSH1 0xA0 SHL SUB DUP6 AND PUSH1 0x0 SWAP1 DUP2 MSTORE PUSH1 0x20 DUP2 SWAP1 MSTORE PUSH1 0x40 SWAP1 KECCAK256 SLOAD SWAP2 SWAP1 PUSH2 0x1109 JUMP JUMPDEST PUSH1 0x1 PUSH1 0x1 PUSH1 0xA0 SHL SUB DUP4 AND PUSH1 0x0 SWAP1 DUP2 MSTORE PUSH1 0x20 DUP2 SWAP1 MSTORE PUSH1 0x40 SWAP1 KECCAK256 SSTORE PUSH1 0x2 SLOAD PUSH2 0x14C5 SWAP1 DUP3 PUSH2 0x16ED JUMP JUMPDEST PUSH1 0x2 SSTORE PUSH1 0x40 DUP1 MLOAD DUP3 DUP2 MSTORE SWAP1 MLOAD PUSH1 0x0 SWAP2 PUSH1 0x1 PUSH1 0x1 PUSH1 0xA0 SHL SUB DUP6 AND SWAP2 PUSH32 0xDDF252AD1BE2C89B69C2B068FC378DAA952BA7F163C4A11628F55A4DF523B3EF SWAP2 DUP2 SWAP1 SUB PUSH1 0x20 ADD SWAP1 LOG3 POP POP JUMP JUMPDEST PUSH1 0x1 PUSH1 0x1 PUSH1 0xA0 SHL SUB DUP1 DUP5 AND PUSH1 0x0 SWAP1 DUP2 MSTORE PUSH1 0x9 PUSH1 0x20 MSTORE PUSH1 0x40 DUP1 DUP3 KECCAK256 SLOAD DUP6 DUP5 AND DUP4 MSTORE SWAP2 KECCAK256 SLOAD PUSH2 0x153F SWAP3 SWAP2 DUP3 AND SWAP2 AND DUP4 PUSH2 0x1544 JUMP JUMPDEST POP POP POP JUMP JUMPDEST DUP2 PUSH1 0x1 PUSH1 0x1 PUSH1 0xA0 SHL SUB AND DUP4 PUSH1 0x1 PUSH1 0x1 PUSH1 0xA0 SHL SUB AND EQ ISZERO DUP1 ISZERO PUSH2 0x1566 JUMPI POP PUSH1 0x0 DUP2 GT JUMPDEST ISZERO PUSH2 0x153F JUMPI PUSH1 0x1 PUSH1 0x1 PUSH1 0xA0 SHL SUB DUP4 AND ISZERO PUSH2 0x15EC JUMPI PUSH1 0x1 PUSH1 0x1 PUSH1 0xA0 SHL SUB DUP4 AND PUSH1 0x0 SWAP1 DUP2 MSTORE PUSH1 0x8 PUSH1 0x20 MSTORE PUSH1 0x40 DUP2 KECCAK256 SLOAD SWAP1 DUP2 PUSH2 0x15A0 JUMPI PUSH1 0x0 PUSH2 0x15CC JUMP JUMPDEST PUSH1 0x1 PUSH1 0x1 PUSH1 0xA0 SHL SUB DUP6 AND PUSH1 0x0 SWAP1 DUP2 MSTORE PUSH1 0x7 PUSH1 0x20 SWAP1 DUP2 MSTORE PUSH1 0x40 DUP1 DUP4 KECCAK256 PUSH1 0x0 NOT DUP7 ADD DUP5 MSTORE SWAP1 SWAP2 MSTORE SWAP1 KECCAK256 PUSH1 0x1 ADD SLOAD JUMPDEST SWAP1 POP PUSH1 0x0 PUSH2 0x15DA DUP3 DUP6 PUSH2 0x16ED JUMP JUMPDEST SWAP1 POP PUSH2 0x15E8 DUP7 DUP5 DUP5 DUP5 PUSH2 0x172F JUMP JUMPDEST POP POP POP JUMPDEST PUSH1 0x1 PUSH1 0x1 PUSH1 0xA0 SHL SUB DUP3 AND ISZERO PUSH2 0x153F JUMPI PUSH1 0x1 PUSH1 0x1 PUSH1 0xA0 SHL SUB DUP3 AND PUSH1 0x0 SWAP1 DUP2 MSTORE PUSH1 0x8 PUSH1 0x20 MSTORE PUSH1 0x40 DUP2 KECCAK256 SLOAD SWAP1 DUP2 PUSH2 0x1621 JUMPI PUSH1 0x0 PUSH2 0x164D JUMP JUMPDEST PUSH1 0x1 PUSH1 0x1 PUSH1 0xA0 SHL SUB DUP5 AND PUSH1 0x0 SWAP1 DUP2 MSTORE PUSH1 0x7 PUSH1 0x20 SWAP1 DUP2 MSTORE PUSH1 0x40 DUP1 DUP4 KECCAK256 PUSH1 0x0 NOT DUP7 ADD DUP5 MSTORE SWAP1 SWAP2 MSTORE SWAP1 KECCAK256 PUSH1 0x1 ADD SLOAD JUMPDEST SWAP1 POP PUSH1 0x0 PUSH2 0x165B DUP3 DUP6 PUSH2 0x11A0 JUMP JUMPDEST SWAP1 POP PUSH2 0x1669 DUP6 DUP5 DUP5 DUP5 PUSH2 0x172F JUMP JUMPDEST POP POP POP POP POP POP JUMP JUMPDEST PUSH1 0x0 DUP2 DUP4 PUSH2 0x16C0 JUMPI PUSH1 0x40 MLOAD PUSH3 0x461BCD PUSH1 0xE5 SHL DUP2 MSTORE PUSH1 0x20 PUSH1 0x4 DUP3 ADD DUP2 DUP2 MSTORE DUP4 MLOAD PUSH1 0x24 DUP5 ADD MSTORE DUP4 MLOAD SWAP1 SWAP3 DUP4 SWAP3 PUSH1 0x44 SWAP1 SWAP2 ADD SWAP2 SWAP1 DUP6 ADD SWAP1 DUP1 DUP4 DUP4 PUSH1 0x0 DUP4 ISZERO PUSH2 0x115D JUMPI DUP2 DUP2 ADD MLOAD DUP4 DUP3 ADD MSTORE PUSH1 0x20 ADD PUSH2 0x1145 JUMP JUMPDEST POP PUSH1 0x0 DUP4 DUP6 DUP2 PUSH2 0x16CC JUMPI INVALID JUMPDEST DIV SWAP1 POP DUP4 DUP6 DUP2 PUSH2 0x16D8 JUMPI INVALID JUMPDEST MOD DUP2 DUP6 MUL ADD DUP6 EQ PUSH2 0x16E5 JUMPI INVALID JUMPDEST SWAP5 SWAP4 POP POP POP POP JUMP JUMPDEST PUSH1 0x0 PUSH2 0xE90 DUP4 DUP4 PUSH1 0x40 MLOAD DUP1 PUSH1 0x40 ADD PUSH1 0x40 MSTORE DUP1 PUSH1 0x1E DUP2 MSTORE PUSH1 0x20 ADD PUSH32 0x536166654D6174683A207375627472616374696F6E206F766572666C6F770000 DUP2 MSTORE POP PUSH2 0x1109 JUMP JUMPDEST PUSH1 0x0 DUP4 GT DUP1 ISZERO PUSH2 0x1765 JUMPI POP PUSH1 0x1 PUSH1 0x1 PUSH1 0xA0 SHL SUB DUP5 AND PUSH1 0x0 SWAP1 DUP2 MSTORE PUSH1 0x7 PUSH1 0x20 SWAP1 DUP2 MSTORE PUSH1 0x40 DUP1 DUP4 KECCAK256 PUSH1 0x0 NOT DUP8 ADD DUP5 MSTORE SWAP1 SWAP2 MSTORE SWAP1 KECCAK256 SLOAD NUMBER EQ JUMPDEST ISZERO PUSH2 0x179C JUMPI PUSH1 0x1 PUSH1 0x1 PUSH1 0xA0 SHL SUB DUP5 AND PUSH1 0x0 SWAP1 DUP2 MSTORE PUSH1 0x7 PUSH1 0x20 SWAP1 DUP2 MSTORE PUSH1 0x40 DUP1 DUP4 KECCAK256 PUSH1 0x0 NOT DUP8 ADD DUP5 MSTORE SWAP1 SWAP2 MSTORE SWAP1 KECCAK256 PUSH1 0x1 ADD DUP2 SWAP1 SSTORE PUSH2 0x17EB JUMP JUMPDEST PUSH1 0x40 DUP1 MLOAD DUP1 DUP3 ADD DUP3 MSTORE NUMBER DUP2 MSTORE PUSH1 0x20 DUP1 DUP3 ADD DUP5 DUP2 MSTORE PUSH1 0x1 PUSH1 0x1 PUSH1 0xA0 SHL SUB DUP9 AND PUSH1 0x0 DUP2 DUP2 MSTORE PUSH1 0x7 DUP5 MSTORE DUP6 DUP2 KECCAK256 DUP10 DUP3 MSTORE DUP5 MSTORE DUP6 DUP2 KECCAK256 SWAP5 MLOAD DUP6 SSTORE SWAP2 MLOAD PUSH1 0x1 SWAP5 DUP6 ADD SSTORE DUP2 MSTORE PUSH1 0x8 SWAP1 SWAP2 MSTORE SWAP2 SWAP1 SWAP2 KECCAK256 SWAP1 DUP5 ADD SWAP1 SSTORE JUMPDEST PUSH1 0x40 DUP1 MLOAD DUP4 DUP2 MSTORE PUSH1 0x20 DUP2 ADD DUP4 SWAP1 MSTORE DUP2 MLOAD PUSH1 0x1 PUSH1 0x1 PUSH1 0xA0 SHL SUB DUP8 AND SWAP3 PUSH32 0xDEC2BACDD2F05B59DE34DA9B523DFF8BE42E5E38E818C82FDB0BAE774387A724 SWAP3 DUP3 SWAP1 SUB ADD SWAP1 LOG2 POP POP POP POP JUMP JUMPDEST PUSH1 0x40 MLOAD DUP1 PUSH1 0x40 ADD PUSH1 0x40 MSTORE DUP1 PUSH1 0x0 DUP2 MSTORE PUSH1 0x20 ADD PUSH1 0x0 DUP2 MSTORE POP SWAP1 JUMP INVALID GASLIMIT MSTORE NUMBER ORIGIN ADDRESS GASPRICE KECCAK256 PUSH21 0x72616E7366657220746F20746865207A65726F2061 PUSH5 0x6472657373 GASLIMIT MSTORE NUMBER ORIGIN ADDRESS GASPRICE KECCAK256 PUSH3 0x75726E KECCAK256 PUSH2 0x6D6F PUSH22 0x6E7420657863656564732062616C616E636545524332 ADDRESS GASPRICE KECCAK256 PUSH2 0x7070 PUSH19 0x6F766520746F20746865207A65726F20616464 PUSH19 0x65737345524332303A207472616E7366657220 PUSH2 0x6D6F PUSH22 0x6E7420657863656564732062616C616E63656745584F GASPRICE GASPRICE PUSH8 0x65745072696F7256 PUSH16 0x7465733A206E6F742079657420646574 PUSH6 0x726D696E6564 MSTORE8 PUSH2 0x6665 0x4D PUSH2 0x7468 GASPRICE KECCAK256 PUSH14 0x756C7469706C69636174696F6E20 PUSH16 0x766572666C6F7745524332303A207472 PUSH2 0x6E73 PUSH7 0x657220616D6F75 PUSH15 0x74206578636565647320616C6C6F77 PUSH2 0x6E63 PUSH6 0x45524332303A KECCAK256 PUSH3 0x75726E KECCAK256 PUSH7 0x726F6D20746865 KECCAK256 PUSH27 0x65726F206164647265737345524332303A207472616E7366657220 PUSH7 0x726F6D20746865 KECCAK256 PUSH27 0x65726F206164647265737345524332303A20617070726F76652066 PUSH19 0x6F6D20746865207A65726F2061646472657373 GASLIMIT MSTORE NUMBER ORIGIN ADDRESS GASPRICE KECCAK256 PUSH5 0x6563726561 PUSH20 0x656420616C6C6F77616E63652062656C6F77207A PUSH6 0x726FA2646970 PUSH7 0x7358221220B265 RETURNDATACOPY SWAP6 SWAP12 0xE5 0xE1 ADDRESS PUSH12 0xE773743DA3DFB6C9940F169A 0x4F 0x29 0xC 0xA5 SLT PUSH2 0xB87D MOD PUSH20 0x9264736F6C634300070500330000000000000000 "
				},
				"gasEstimates": {
					"creation": {
						"codeDepositCost": "1334400",
						"executionCost": "infinite",
						"totalCost": "infinite"
					},
					"external": {
						"allowance(address,address)": "1360",
						"approve(address,uint256)": "infinite",
						"approved()": "1083",
						"balanceFrom(uint256)": "infinite",
						"balanceOf(address)": "1212",
						"balanceTo(uint256)": "infinite",
						"burn(address,uint256)": "infinite",
						"checkpoints(address,uint256)": "2096",
						"decimals()": "infinite",
						"decreaseAllowance(address,uint256)": "infinite",
						"delegate(address)": "infinite",
						"delegates(address)": "1209",
						"getCurrentVotes(address)": "2237",
						"getPriorVotes(address,uint256)": "infinite",
						"increaseAllowance(address,uint256)": "infinite",
						"index()": "infinite",
						"migrate(address,address)": "64630",
						"migrated()": "1072",
						"mint(address,uint256)": "infinite",
						"name()": "infinite",
						"numCheckpoints(address)": "1169",
						"sEXO()": "1084",
						"symbol()": "infinite",
						"totalSupply()": "1088",
						"transfer(address,uint256)": "infinite",
						"transferFrom(address,address,uint256)": "infinite"
					},
					"internal": {
						"_beforeTokenTransfer(address,address,uint256)": "infinite",
						"_delegate(address,address)": "infinite",
						"_moveDelegates(address,address,uint256)": "infinite",
						"_writeCheckpoint(address,uint256,uint256,uint256)": "infinite"
					}
				},
				"methodIdentifiers": {
					"allowance(address,address)": "dd62ed3e",
					"approve(address,uint256)": "095ea7b3",
					"approved()": "19d40b08",
					"balanceFrom(uint256)": "a8248768",
					"balanceOf(address)": "70a08231",
					"balanceTo(uint256)": "66a5236c",
					"burn(address,uint256)": "9dc29fac",
					"checkpoints(address,uint256)": "0cdfebfa",
					"decimals()": "313ce567",
					"decreaseAllowance(address,uint256)": "a457c2d7",
					"delegate(address)": "5c19a95c",
					"delegates(address)": "587cde1e",
					"getCurrentVotes(address)": "b4b5ea57",
					"getPriorVotes(address,uint256)": "782d6fe1",
					"increaseAllowance(address,uint256)": "39509351",
					"index()": "2986c0e5",
					"migrate(address,address)": "1068361f",
					"migrated()": "2c678c64",
					"mint(address,uint256)": "40c10f19",
					"name()": "06fdde03",
					"numCheckpoints(address)": "6fcfff45",
					"sEXO()": "06d9cea8",
					"symbol()": "95d89b41",
					"totalSupply()": "18160ddd",
					"transfer(address,uint256)": "a9059cbb",
					"transferFrom(address,address,uint256)": "23b872dd"
				}
			},
			"storageLayout": {
				"storage": [
					{
						"astId": 362,
						"contract": "gEXO/gOHM.sol:gEXO",
						"label": "_balances",
						"offset": 0,
						"slot": "0",
						"type": "t_mapping(t_address,t_uint256)"
					},
					{
						"astId": 368,
						"contract": "gEXO/gOHM.sol:gEXO",
						"label": "_allowances",
						"offset": 0,
						"slot": "1",
						"type": "t_mapping(t_address,t_mapping(t_address,t_uint256))"
					},
					{
						"astId": 370,
						"contract": "gEXO/gOHM.sol:gEXO",
						"label": "_totalSupply",
						"offset": 0,
						"slot": "2",
						"type": "t_uint256"
					},
					{
						"astId": 372,
						"contract": "gEXO/gOHM.sol:gEXO",
						"label": "_name",
						"offset": 0,
						"slot": "3",
						"type": "t_string_storage"
					},
					{
						"astId": 374,
						"contract": "gEXO/gOHM.sol:gEXO",
						"label": "_symbol",
						"offset": 0,
						"slot": "4",
						"type": "t_string_storage"
					},
					{
						"astId": 1277,
						"contract": "gEXO/gOHM.sol:gEXO",
						"label": "sEXO",
						"offset": 0,
						"slot": "5",
						"type": "t_contract(IsEXO)1006"
					},
					{
						"astId": 1279,
						"contract": "gEXO/gOHM.sol:gEXO",
						"label": "approved",
						"offset": 0,
						"slot": "6",
						"type": "t_address"
					},
					{
						"astId": 1281,
						"contract": "gEXO/gOHM.sol:gEXO",
						"label": "migrated",
						"offset": 20,
						"slot": "6",
						"type": "t_bool"
					},
					{
						"astId": 1287,
						"contract": "gEXO/gOHM.sol:gEXO",
						"label": "checkpoints",
						"offset": 0,
						"slot": "7",
						"type": "t_mapping(t_address,t_mapping(t_uint256,t_struct(Checkpoint)1275_storage))"
					},
					{
						"astId": 1291,
						"contract": "gEXO/gOHM.sol:gEXO",
						"label": "numCheckpoints",
						"offset": 0,
						"slot": "8",
						"type": "t_mapping(t_address,t_uint256)"
					},
					{
						"astId": 1295,
						"contract": "gEXO/gOHM.sol:gEXO",
						"label": "delegates",
						"offset": 0,
						"slot": "9",
						"type": "t_mapping(t_address,t_address)"
					}
				],
				"types": {
					"t_address": {
						"encoding": "inplace",
						"label": "address",
						"numberOfBytes": "20"
					},
					"t_bool": {
						"encoding": "inplace",
						"label": "bool",
						"numberOfBytes": "1"
					},
					"t_contract(IsEXO)1006": {
						"encoding": "inplace",
						"label": "contract IsEXO",
						"numberOfBytes": "20"
					},
					"t_mapping(t_address,t_address)": {
						"encoding": "mapping",
						"key": "t_address",
						"label": "mapping(address => address)",
						"numberOfBytes": "32",
						"value": "t_address"
					},
					"t_mapping(t_address,t_mapping(t_address,t_uint256))": {
						"encoding": "mapping",
						"key": "t_address",
						"label": "mapping(address => mapping(address => uint256))",
						"numberOfBytes": "32",
						"value": "t_mapping(t_address,t_uint256)"
					},
					"t_mapping(t_address,t_mapping(t_uint256,t_struct(Checkpoint)1275_storage))": {
						"encoding": "mapping",
						"key": "t_address",
						"label": "mapping(address => mapping(uint256 => struct gEXO.Checkpoint))",
						"numberOfBytes": "32",
						"value": "t_mapping(t_uint256,t_struct(Checkpoint)1275_storage)"
					},
					"t_mapping(t_address,t_uint256)": {
						"encoding": "mapping",
						"key": "t_address",
						"label": "mapping(address => uint256)",
						"numberOfBytes": "32",
						"value": "t_uint256"
					},
					"t_mapping(t_uint256,t_struct(Checkpoint)1275_storage)": {
						"encoding": "mapping",
						"key": "t_uint256",
						"label": "mapping(uint256 => struct gEXO.Checkpoint)",
						"numberOfBytes": "32",
						"value": "t_struct(Checkpoint)1275_storage"
					},
					"t_string_storage": {
						"encoding": "bytes",
						"label": "string",
						"numberOfBytes": "32"
					},
					"t_struct(Checkpoint)1275_storage": {
						"encoding": "inplace",
						"label": "struct gEXO.Checkpoint",
						"members": [
							{
								"astId": 1272,
								"contract": "gEXO/gOHM.sol:gEXO",
								"label": "fromBlock",
								"offset": 0,
								"slot": "0",
								"type": "t_uint256"
							},
							{
								"astId": 1274,
								"contract": "gEXO/gOHM.sol:gEXO",
								"label": "votes",
								"offset": 0,
								"slot": "1",
								"type": "t_uint256"
							}
						],
						"numberOfBytes": "64"
					},
					"t_uint256": {
						"encoding": "inplace",
						"label": "uint256",
						"numberOfBytes": "32"
					}
				}
			},
			"userdoc": {
				"kind": "user",
				"methods": {
					"balanceFrom(uint256)": {
						"notice": "converts gOHM amount to OHM"
					},
					"balanceTo(uint256)": {
						"notice": "converts OHM amount to gOHM"
					},
					"burn(address,uint256)": {
						"notice": "burn gOHM"
					},
					"delegate(address)": {
						"notice": "Delegate votes from `msg.sender` to `delegatee`"
					},
					"getCurrentVotes(address)": {
						"notice": "Gets the current votes balance for `account`"
					},
					"getPriorVotes(address,uint256)": {
						"notice": "Determine the prior number of votes for an account as of a block number"
					},
					"index()": {
						"notice": "pull index from sOHM token"
					},
					"migrate(address,address)": {
						"notice": "transfer mint rights from migrator to stakingcan only be done once, at the time of contract migration"
					},
					"mint(address,uint256)": {
						"notice": "mint gOHM"
					}
				},
				"version": 1
			}
		}
	}
}