{
	"sExodus/sOlympusERC20.sol": {
		"sExodus": {
			"abi": [
				{
					"inputs": [],
					"stateMutability": "nonpayable",
					"type": "constructor"
				},
				{
					"anonymous": false,
					"inputs": [
						{
							"indexed": true,
							"internalType": "address",
							"name": "owner",
							"type": "address"
						},
						{
							"indexed": true,
							"internalType": "address",
							"name": "spender",
							"type": "address"
						},
						{
							"indexed": false,
							"internalType": "uint256",
							"name": "value",
							"type": "uint256"
						}
					],
					"name": "Approval",
					"type": "event"
				},
				{
					"anonymous": false,
					"inputs": [
						{
							"indexed": true,
							"internalType": "uint256",
							"name": "epoch",
							"type": "uint256"
						},
						{
							"indexed": false,
							"internalType": "uint256",
							"name": "rebase",
							"type": "uint256"
						},
						{
							"indexed": false,
							"internalType": "uint256",
							"name": "index",
							"type": "uint256"
						}
					],
					"name": "LogRebase",
					"type": "event"
				},
				{
					"anonymous": false,
					"inputs": [
						{
							"indexed": false,
							"internalType": "address",
							"name": "stakingContract",
							"type": "address"
						}
					],
					"name": "LogStakingContractUpdated",
					"type": "event"
				},
				{
					"anonymous": false,
					"inputs": [
						{
							"indexed": true,
							"internalType": "uint256",
							"name": "epoch",
							"type": "uint256"
						},
						{
							"indexed": false,
							"internalType": "uint256",
							"name": "totalSupply",
							"type": "uint256"
						}
					],
					"name": "LogSupply",
					"type": "event"
				},
				{
					"anonymous": false,
					"inputs": [
						{
							"indexed": true,
							"internalType": "address",
							"name": "from",
							"type": "address"
						},
						{
							"indexed": true,
							"internalType": "address",
							"name": "to",
							"type": "address"
						},
						{
							"indexed": false,
							"internalType": "uint256",
							"name": "value",
							"type": "uint256"
						}
					],
					"name": "Transfer",
					"type": "event"
				},
				{
					"inputs": [],
					"name": "DOMAIN_SEPARATOR",
					"outputs": [
						{
							"internalType": "bytes32",
							"name": "",
							"type": "bytes32"
						}
					],
					"stateMutability": "view",
					"type": "function"
				},
				{
					"inputs": [
						{
							"internalType": "address",
							"name": "owner_",
							"type": "address"
						},
						{
							"internalType": "address",
							"name": "spender",
							"type": "address"
						}
					],
					"name": "allowance",
					"outputs": [
						{
							"internalType": "uint256",
							"name": "",
							"type": "uint256"
						}
					],
					"stateMutability": "view",
					"type": "function"
				},
				{
					"inputs": [
						{
							"internalType": "address",
							"name": "spender",
							"type": "address"
						},
						{
							"internalType": "uint256",
							"name": "value",
							"type": "uint256"
						}
					],
					"name": "approve",
					"outputs": [
						{
							"internalType": "bool",
							"name": "",
							"type": "bool"
						}
					],
					"stateMutability": "nonpayable",
					"type": "function"
				},
				{
					"inputs": [
						{
							"internalType": "uint256",
							"name": "gons",
							"type": "uint256"
						}
					],
					"name": "balanceForGons",
					"outputs": [
						{
							"internalType": "uint256",
							"name": "",
							"type": "uint256"
						}
					],
					"stateMutability": "view",
					"type": "function"
				},
				{
					"inputs": [
						{
							"internalType": "address",
							"name": "who",
							"type": "address"
						}
					],
					"name": "balanceOf",
					"outputs": [
						{
							"internalType": "uint256",
							"name": "",
							"type": "uint256"
						}
					],
					"stateMutability": "view",
					"type": "function"
				},
				{
					"inputs": [
						{
							"internalType": "uint256",
							"name": "amount",
							"type": "uint256"
						},
						{
							"internalType": "address",
							"name": "debtor",
							"type": "address"
						},
						{
							"internalType": "bool",
							"name": "add",
							"type": "bool"
						}
					],
					"name": "changeDebt",
					"outputs": [],
					"stateMutability": "nonpayable",
					"type": "function"
				},
				{
					"inputs": [],
					"name": "circulatingSupply",
					"outputs": [
						{
							"internalType": "uint256",
							"name": "",
							"type": "uint256"
						}
					],
					"stateMutability": "view",
					"type": "function"
				},
				{
					"inputs": [
						{
							"internalType": "address",
							"name": "",
							"type": "address"
						}
					],
					"name": "debtBalances",
					"outputs": [
						{
							"internalType": "uint256",
							"name": "",
							"type": "uint256"
						}
					],
					"stateMutability": "view",
					"type": "function"
				},
				{
					"inputs": [],
					"name": "decimals",
					"outputs": [
						{
							"internalType": "uint8",
							"name": "",
							"type": "uint8"
						}
					],
					"stateMutability": "view",
					"type": "function"
				},
				{
					"inputs": [
						{
							"internalType": "address",
							"name": "spender",
							"type": "address"
						},
						{
							"internalType": "uint256",
							"name": "subtractedValue",
							"type": "uint256"
						}
					],
					"name": "decreaseAllowance",
					"outputs": [
						{
							"internalType": "bool",
							"name": "",
							"type": "bool"
						}
					],
					"stateMutability": "nonpayable",
					"type": "function"
				},
				{
					"inputs": [
						{
							"internalType": "uint256",
							"name": "amount",
							"type": "uint256"
						}
					],
					"name": "fromG",
					"outputs": [
						{
							"internalType": "uint256",
							"name": "",
							"type": "uint256"
						}
					],
					"stateMutability": "view",
					"type": "function"
				},
				{
					"inputs": [],
					"name": "gEXO",
					"outputs": [
						{
							"internalType": "contract IgEXO",
							"name": "",
							"type": "address"
						}
					],
					"stateMutability": "view",
					"type": "function"
				},
				{
					"inputs": [
						{
							"internalType": "uint256",
							"name": "amount",
							"type": "uint256"
						}
					],
					"name": "gonsForBalance",
					"outputs": [
						{
							"internalType": "uint256",
							"name": "",
							"type": "uint256"
						}
					],
					"stateMutability": "view",
					"type": "function"
				},
				{
					"inputs": [
						{
							"internalType": "address",
							"name": "spender",
							"type": "address"
						},
						{
							"internalType": "uint256",
							"name": "addedValue",
							"type": "uint256"
						}
					],
					"name": "increaseAllowance",
					"outputs": [
						{
							"internalType": "bool",
							"name": "",
							"type": "bool"
						}
					],
					"stateMutability": "nonpayable",
					"type": "function"
				},
				{
					"inputs": [],
					"name": "index",
					"outputs": [
						{
							"internalType": "uint256",
							"name": "",
							"type": "uint256"
						}
					],
					"stateMutability": "view",
					"type": "function"
				},
				{
					"inputs": [
						{
							"internalType": "address",
							"name": "_stakingContract",
							"type": "address"
						},
						{
							"internalType": "address",
							"name": "_treasury",
							"type": "address"
						}
					],
					"name": "initialize",
					"outputs": [],
					"stateMutability": "nonpayable",
					"type": "function"
				},
				{
					"inputs": [],
					"name": "name",
					"outputs": [
						{
							"internalType": "string",
							"name": "",
							"type": "string"
						}
					],
					"stateMutability": "view",
					"type": "function"
				},
				{
					"inputs": [
						{
							"internalType": "address",
							"name": "owner",
							"type": "address"
						}
					],
					"name": "nonces",
					"outputs": [
						{
							"internalType": "uint256",
							"name": "",
							"type": "uint256"
						}
					],
					"stateMutability": "view",
					"type": "function"
				},
				{
					"inputs": [
						{
							"internalType": "address",
							"name": "owner",
							"type": "address"
						},
						{
							"internalType": "address",
							"name": "spender",
							"type": "address"
						},
						{
							"internalType": "uint256",
							"name": "value",
							"type": "uint256"
						},
						{
							"internalType": "uint256",
							"name": "deadline",
							"type": "uint256"
						},
						{
							"internalType": "uint8",
							"name": "v",
							"type": "uint8"
						},
						{
							"internalType": "bytes32",
							"name": "r",
							"type": "bytes32"
						},
						{
							"internalType": "bytes32",
							"name": "s",
							"type": "bytes32"
						}
					],
					"name": "permit",
					"outputs": [],
					"stateMutability": "nonpayable",
					"type": "function"
				},
				{
					"inputs": [
						{
							"internalType": "uint256",
							"name": "profit_",
							"type": "uint256"
						},
						{
							"internalType": "uint256",
							"name": "epoch_",
							"type": "uint256"
						}
					],
					"name": "rebase",
					"outputs": [
						{
							"internalType": "uint256",
							"name": "",
							"type": "uint256"
						}
					],
					"stateMutability": "nonpayable",
					"type": "function"
				},
				{
					"inputs": [
						{
							"internalType": "uint256",
							"name": "",
							"type": "uint256"
						}
					],
					"name": "rebases",
					"outputs": [
						{
							"internalType": "uint256",
							"name": "epoch",
							"type": "uint256"
						},
						{
							"internalType": "uint256",
							"name": "rebase",
							"type": "uint256"
						},
						{
							"internalType": "uint256",
							"name": "totalStakedBefore",
							"type": "uint256"
						},
						{
							"internalType": "uint256",
							"name": "totalStakedAfter",
							"type": "uint256"
						},
						{
							"internalType": "uint256",
							"name": "amountRebased",
							"type": "uint256"
						},
						{
							"internalType": "uint256",
							"name": "index",
							"type": "uint256"
						},
						{
							"internalType": "uint256",
							"name": "blockNumberOccured",
							"type": "uint256"
						}
					],
					"stateMutability": "view",
					"type": "function"
				},
				{
					"inputs": [
						{
							"internalType": "uint256",
							"name": "_index",
							"type": "uint256"
						}
					],
					"name": "setIndex",
					"outputs": [],
					"stateMutability": "nonpayable",
					"type": "function"
				},
				{
					"inputs": [
						{
							"internalType": "address",
							"name": "_gEXO",
							"type": "address"
						}
					],
					"name": "setgOHM",
					"outputs": [],
					"stateMutability": "nonpayable",
					"type": "function"
				},
				{
					"inputs": [],
					"name": "stakingContract",
					"outputs": [
						{
							"internalType": "address",
							"name": "",
							"type": "address"
						}
					],
					"stateMutability": "view",
					"type": "function"
				},
				{
					"inputs": [],
					"name": "symbol",
					"outputs": [
						{
							"internalType": "string",
							"name": "",
							"type": "string"
						}
					],
					"stateMutability": "view",
					"type": "function"
				},
				{
					"inputs": [
						{
							"internalType": "uint256",
							"name": "amount",
							"type": "uint256"
						}
					],
					"name": "toG",
					"outputs": [
						{
							"internalType": "uint256",
							"name": "",
							"type": "uint256"
						}
					],
					"stateMutability": "view",
					"type": "function"
				},
				{
					"inputs": [],
					"name": "totalSupply",
					"outputs": [
						{
							"internalType": "uint256",
							"name": "",
							"type": "uint256"
						}
					],
					"stateMutability": "view",
					"type": "function"
				},
				{
					"inputs": [
						{
							"internalType": "address",
							"name": "to",
							"type": "address"
						},
						{
							"internalType": "uint256",
							"name": "value",
							"type": "uint256"
						}
					],
					"name": "transfer",
					"outputs": [
						{
							"internalType": "bool",
							"name": "",
							"type": "bool"
						}
					],
					"stateMutability": "nonpayable",
					"type": "function"
				},
				{
					"inputs": [
						{
							"internalType": "address",
							"name": "from",
							"type": "address"
						},
						{
							"internalType": "address",
							"name": "to",
							"type": "address"
						},
						{
							"internalType": "uint256",
							"name": "value",
							"type": "uint256"
						}
					],
					"name": "transferFrom",
					"outputs": [
						{
							"internalType": "bool",
							"name": "",
							"type": "bool"
						}
					],
					"stateMutability": "nonpayable",
					"type": "function"
				},
				{
					"inputs": [],
					"name": "treasury",
					"outputs": [
						{
							"internalType": "address",
							"name": "",
							"type": "address"
						}
					],
					"stateMutability": "view",
					"type": "function"
				}
			],
			"devdoc": {
				"kind": "dev",
				"methods": {
					"DOMAIN_SEPARATOR()": {
						"details": "See {IERC20Permit-DOMAIN_SEPARATOR}."
					},
					"nonces(address)": {
						"details": "See {IERC20Permit-nonces}."
					},
					"permit(address,address,uint256,uint256,uint8,bytes32,bytes32)": {
						"details": "See {IERC20Permit-permit}."
					},
					"rebase(uint256,uint256)": {
						"params": {
							"profit_": "uint256"
						},
						"returns": {
							"_0": "uint256"
						}
					}
				},
				"version": 1
			},
			"evm": {
				"assembly": "    /* \"sExodus/sOlympusERC20.sol\":211:10049  contract sExodus is IsEXO, ERC20Permit {... */\n  mstore(0x40, 0x0160)\n    /* \"sExodus/ERC20Permit.sol\":971:1066  keccak256(\"Permit(address owner,address spender,uint256 value,uint256 nonce,uint256 deadline)\") */\n  0x6e71edae12b1b97f4d1f60370fef10105fa2faae0126114a169c64845d6126c9\n    /* \"sExodus/ERC20Permit.sol\":918:1066  bytes32 private immutable _PERMIT_TYPEHASH =... */\n  0x0140\n  mstore\n    /* \"sExodus/sOlympusERC20.sol\":2267:2485  constructor() ERC20(\"Staked EXO\", \"sEXO\", 9) ERC20Permit(\"Staked EXO\") {... */\n  callvalue\n  dup1\n  iszero\n  tag_1\n  jumpi\n  0x00\n  dup1\n  revert\ntag_1:\n  pop\n    /* \"sExodus/ERC20Permit.sol\":1298:1350  constructor(string memory name) EIP712(name, \"1\") {} */\n  mload(0x40)\n  dup1\n  0x40\n  add\n  0x40\n  mstore\n  dup1\n  0x0a\n  dup2\n  mstore\n  0x20\n  add\n  shl(0xb0, 0x5374616b65642045584f)\n  dup2\n  mstore\n  pop\n    /* \"sExodus/ERC20Permit.sol\":1337:1341  name */\n  dup1\n    /* \"sExodus/EIP712.sol\":2340:2986  constructor(string memory name, string memory version) {... */\n  mload(0x40)\n  dup1\n  0x40\n  add\n  0x40\n  mstore\n  dup1\n  0x01\n  dup2\n  mstore\n  0x20\n  add\n  shl(0xf8, 0x31)\n  dup2\n  mstore\n  pop\n    /* \"sExodus/ERC20.sol\":586:777  constructor(... */\n  mload(0x40)\n  dup1\n  0x40\n  add\n  0x40\n  mstore\n  dup1\n  0x0a\n  dup2\n  mstore\n  0x20\n  add\n  shl(0xb0, 0x5374616b65642045584f)\n  dup2\n  mstore\n  pop\n  mload(0x40)\n  dup1\n  0x40\n  add\n  0x40\n  mstore\n  dup1\n  0x04\n  dup2\n  mstore\n  0x20\n  add\n  shl(0xe0, 0x7345584f)\n  dup2\n  mstore\n  pop\n    /* \"sExodus/sOlympusERC20.sol\":2309:2310  9 */\n  0x09\n    /* \"sExodus/ERC20.sol\":707:712  name_ */\n  dup3\n    /* \"sExodus/ERC20.sol\":699:704  _name */\n  0x03\n    /* \"sExodus/ERC20.sol\":699:712  _name = name_ */\n  swap1\n  dup1\n  mload\n  swap1\n  0x20\n  add\n  swap1\n  tag_7\n  swap3\n  swap2\n  swap1\n  tag_8\n  jump\t// in\ntag_7:\n  pop\n    /* \"sExodus/ERC20.sol\":722:739  _symbol = symbol_ */\n  dup2\n  mload\n  tag_9\n  swap1\n    /* \"sExodus/ERC20.sol\":722:729  _symbol */\n  0x04\n  swap1\n    /* \"sExodus/ERC20.sol\":722:739  _symbol = symbol_ */\n  0x20\n  dup6\n  add\n  swap1\n  tag_8\n  jump\t// in\ntag_9:\n  pop\n    /* \"sExodus/ERC20.sol\":749:770  _decimals = decimals_ */\n  0xf8\n  shl\n  0xff00000000000000000000000000000000000000000000000000000000000000\n  and\n  0x80\n  mstore\n  pop\n  pop\n    /* \"sExodus/EIP712.sol\":2514:2536  keccak256(bytes(name)) */\n  dup2\n  mload\n  0x20\n  dup1\n  dup5\n  add\n  swap2\n  swap1\n  swap2\n  keccak256\n    /* \"sExodus/EIP712.sol\":2570:2595  keccak256(bytes(version)) */\n  dup3\n  mload\n  swap2\n  dup4\n  add\n  swap2\n  swap1\n  swap2\n  keccak256\n    /* \"sExodus/EIP712.sol\":2751:2776  _HASHED_NAME = hashedName */\n  0xe0\n  dup3\n  swap1\n  mstore\n    /* \"sExodus/EIP712.sol\":2786:2817  _HASHED_VERSION = hashedVersion */\n  0x0100\n  dup2\n  swap1\n  mstore\n    /* \"sExodus/EIP712.sol\":2464:2473  chainid() */\n  chainid\n    /* \"sExodus/EIP712.sol\":2827:2853  _CACHED_CHAIN_ID = chainID */\n  0xc0\n  dup2\n  swap1\n  mstore\n    /* \"sExodus/EIP712.sol\":2464:2473  chainid() */\n  swap2\n    /* \"sExodus/EIP712.sol\":2514:2536  keccak256(bytes(name)) */\n  swap1\n    /* \"sExodus/EIP712.sol\":2624:2741  keccak256(... */\n  0x8b73c3c69bb8fe3d512ecc4cf759cc79239f7b179b0ffacaa9a75d522b39400f\n    /* \"sExodus/EIP712.sol\":2890:2948  _buildDomainSeparator(typeHash, hashedName, hashedVersion) */\n  tag_11\n    /* \"sExodus/EIP712.sol\":2624:2741  keccak256(... */\n  dup2\n    /* \"sExodus/EIP712.sol\":2514:2536  keccak256(bytes(name)) */\n  dup5\n    /* \"sExodus/EIP712.sol\":2570:2595  keccak256(bytes(version)) */\n  dup5\n    /* \"sExodus/EIP712.sol\":2890:2911  _buildDomainSeparator */\n  tag_12\n    /* \"sExodus/EIP712.sol\":2890:2948  _buildDomainSeparator(typeHash, hashedName, hashedVersion) */\n  jump\t// in\ntag_11:\n    /* \"sExodus/EIP712.sol\":2863:2948  _CACHED_DOMAIN_SEPARATOR = _buildDomainSeparator(typeHash, hashedName, hashedVersion) */\n  0xa0\n  mstore\n    /* \"sExodus/EIP712.sol\":2958:2979  _TYPE_HASH = typeHash */\n  0x0120\n  mstore\n  pop\n  pop\n    /* \"sExodus/sOlympusERC20.sol\":2348:2359  initializer */\n  0x06\n    /* \"sExodus/sOlympusERC20.sol\":2348:2372  initializer = msg.sender */\n  dup1\n  sload\n  not(sub(shl(0xa0, 0x01), 0x01))\n  and\n    /* \"sExodus/sOlympusERC20.sol\":2362:2372  msg.sender */\n  caller\n    /* \"sExodus/sOlympusERC20.sol\":2348:2372  initializer = msg.sender */\n  or\n  swap1\n  sstore\n  pop\n  pop\n    /* \"sExodus/sOlympusERC20.sol\":1523:1540  5_000_000 * 10**9 */\n  0x11c37937e08000\n    /* \"sExodus/sOlympusERC20.sol\":2382:2394  _totalSupply */\n  0x02\n    /* \"sExodus/sOlympusERC20.sol\":2382:2421  _totalSupply = INITIAL_FRAGMENTS_SUPPLY */\n  dup2\n  swap1\n  sstore\n    /* \"sExodus/sOlympusERC20.sol\":2450:2478  TOTAL_GONS.div(_totalSupply) */\n  tag_15\n  swap3\n  pop\n    /* \"sExodus/sOlympusERC20.sol\":1523:1540  5_000_000 * 10**9 */\n  swap1\n  pop\n  dup1\n  not(0x00)\n    /* \"sExodus/sOlympusERC20.sol\":1773:1811  MAX_UINT256 % INITIAL_FRAGMENTS_SUPPLY */\n  mod\n  not(0x00)\n    /* \"sExodus/sOlympusERC20.sol\":1758:1812  MAX_UINT256 - (MAX_UINT256 % INITIAL_FRAGMENTS_SUPPLY) */\n  sub\n    /* \"sExodus/sOlympusERC20.sol\":2450:2464  TOTAL_GONS.div */\n  or(tag_0_128, shl(0x20, tag_17))\n  swap1\n    /* \"sExodus/sOlympusERC20.sol\":2450:2478  TOTAL_GONS.div(_totalSupply) */\n  swap2\n  swap1\n  0x20\n  shr\n  jump\t// in\ntag_15:\n    /* \"sExodus/sOlympusERC20.sol\":2431:2447  _gonsPerFragment */\n  0x0b\n    /* \"sExodus/sOlympusERC20.sol\":2431:2478  _gonsPerFragment = TOTAL_GONS.div(_totalSupply) */\n  sstore\n    /* \"sExodus/sOlympusERC20.sol\":211:10049  contract sExodus is IsEXO, ERC20Permit {... */\n  jump(tag_18)\n    /* \"sExodus/EIP712.sol\":3435:3774  function _buildDomainSeparator(... */\ntag_12:\n    /* \"sExodus/EIP712.sol\":3699:3766  abi.encode(typeHash, nameHash, versionHash, chainID, address(this)) */\n  0x40\n  dup1\n  mload\n  0x20\n  dup1\n  dup3\n  add\n  swap6\n  swap1\n  swap6\n  mstore\n  dup1\n  dup3\n  add\n  swap4\n  swap1\n  swap4\n  mstore\n  0x60\n  dup4\n  add\n  swap2\n  swap1\n  swap2\n  mstore\n    /* \"sExodus/EIP712.sol\":3653:3662  chainid() */\n  chainid\n    /* \"sExodus/EIP712.sol\":3699:3766  abi.encode(typeHash, nameHash, versionHash, chainID, address(this)) */\n  0x80\n  dup4\n  add\n  mstore\n    /* \"sExodus/EIP712.sol\":3760:3764  this */\n  address\n    /* \"sExodus/EIP712.sol\":3699:3766  abi.encode(typeHash, nameHash, versionHash, chainID, address(this)) */\n  0xa0\n  dup1\n  dup5\n  add\n  swap2\n  swap1\n  swap2\n  mstore\n  dup2\n  mload\n  dup1\n  dup5\n  sub\n  swap1\n  swap2\n  add\n  dup2\n  mstore\n  0xc0\n  swap1\n  swap3\n  add\n  swap1\n  mstore\n    /* \"sExodus/EIP712.sol\":3689:3767  keccak256(abi.encode(typeHash, nameHash, versionHash, chainID, address(this))) */\n  dup1\n  mload\n  swap2\n  add\n  keccak256\n  swap1\n    /* \"sExodus/EIP712.sol\":3435:3774  function _buildDomainSeparator(... */\n  jump\t// out\n    /* \"sExodus/SafeMath.sol\":947:1077  function div(uint256 a, uint256 b) internal pure returns (uint256) {... */\ntag_17:\n    /* \"sExodus/SafeMath.sol\":1005:1012  uint256 */\n  0x00\n    /* \"sExodus/SafeMath.sol\":1031:1070  div(a, b, \"SafeMath: division by zero\") */\n  tag_21\n    /* \"sExodus/SafeMath.sol\":1035:1036  a */\n  dup4\n    /* \"sExodus/SafeMath.sol\":1038:1039  b */\n  dup4\n    /* \"sExodus/SafeMath.sol\":1031:1070  div(a, b, \"SafeMath: division by zero\") */\n  mload(0x40)\n  dup1\n  0x40\n  add\n  0x40\n  mstore\n  dup1\n  0x1a\n  dup2\n  mstore\n  0x20\n  add\n  0x536166654d6174683a206469766973696f6e206279207a65726f000000000000\n  dup2\n  mstore\n  pop\n    /* \"sExodus/SafeMath.sol\":1031:1034  div */\n  shl(0x20, tag_22)\n    /* \"sExodus/SafeMath.sol\":1031:1070  div(a, b, \"SafeMath: division by zero\") */\n  0x20\n  shr\n  jump\t// in\ntag_21:\n    /* \"sExodus/SafeMath.sol\":1024:1070  return div(a, b, \"SafeMath: division by zero\") */\n  swap4\n    /* \"sExodus/SafeMath.sol\":947:1077  function div(uint256 a, uint256 b) internal pure returns (uint256) {... */\n  swap3\n  pop\n  pop\n  pop\n  jump\t// out\n    /* \"sExodus/SafeMath.sol\":1083:1384  function div(... */\ntag_22:\n    /* \"sExodus/SafeMath.sol\":1199:1206  uint256 */\n  0x00\n    /* \"sExodus/SafeMath.sol\":1233:1245  errorMessage */\n  dup2\n    /* \"sExodus/SafeMath.sol\":1226:1231  b > 0 */\n  dup4\n    /* \"sExodus/SafeMath.sol\":1218:1246  require(b > 0, errorMessage) */\n  tag_24\n  jumpi\n  mload(0x40)\n  shl(0xe5, 0x461bcd)\n  dup2\n  mstore\n  0x04\n  add\n  dup1\n  dup1\n  0x20\n  add\n  dup3\n  dup2\n  sub\n  dup3\n  mstore\n  dup4\n  dup2\n  dup2\n  mload\n  dup2\n  mstore\n  0x20\n  add\n  swap2\n  pop\n  dup1\n  mload\n  swap1\n  0x20\n  add\n  swap1\n  dup1\n  dup4\n  dup4\n  0x00\ntag_25:\n  dup4\n  dup2\n  lt\n  iszero\n  tag_27\n  jumpi\n  dup2\n  dup2\n  add\n  mload\n  dup4\n  dup3\n  add\n  mstore\n  0x20\n  add\n  jump(tag_25)\ntag_27:\n  pop\n  pop\n  pop\n  pop\n  swap1\n  pop\n  swap1\n  dup2\n  add\n  swap1\n  0x1f\n  and\n  dup1\n  iszero\n  tag_28\n  jumpi\n  dup1\n  dup3\n  sub\n  dup1\n  mload\n  0x01\n  dup4\n  0x20\n  sub\n  0x0100\n  exp\n  sub\n  not\n  and\n  dup2\n  mstore\n  0x20\n  add\n  swap2\n  pop\ntag_28:\n  pop\n  swap3\n  pop\n  pop\n  pop\n  mload(0x40)\n  dup1\n  swap2\n  sub\n  swap1\n  revert\ntag_24:\n  pop\n    /* \"sExodus/SafeMath.sol\":1256:1265  uint256 c */\n  0x00\n    /* \"sExodus/SafeMath.sol\":1272:1273  b */\n  dup4\n    /* \"sExodus/SafeMath.sol\":1268:1269  a */\n  dup6\n    /* \"sExodus/SafeMath.sol\":1268:1273  a / b */\n  dup2\n  tag_29\n  jumpi\n  invalid\ntag_29:\n  div\n    /* \"sExodus/SafeMath.sol\":1256:1273  uint256 c = a / b */\n  swap1\n  pop\n    /* \"sExodus/SafeMath.sol\":1308:1309  b */\n  dup4\n    /* \"sExodus/SafeMath.sol\":1304:1305  a */\n  dup6\n    /* \"sExodus/SafeMath.sol\":1304:1309  a % b */\n  dup2\n  tag_30\n  jumpi\n  invalid\ntag_30:\n  mod\n    /* \"sExodus/SafeMath.sol\":1299:1300  c */\n  dup2\n    /* \"sExodus/SafeMath.sol\":1295:1296  b */\n  dup6\n    /* \"sExodus/SafeMath.sol\":1295:1300  b * c */\n  mul\n    /* \"sExodus/SafeMath.sol\":1295:1310  b * c + (a % b) */\n  add\n    /* \"sExodus/SafeMath.sol\":1290:1291  a */\n  dup6\n    /* \"sExodus/SafeMath.sol\":1290:1310  a == b * c + (a % b) */\n  eq\n    /* \"sExodus/SafeMath.sol\":1283:1311  assert(a == b * c + (a % b)) */\n  tag_31\n  jumpi\n  invalid\ntag_31:\n    /* \"sExodus/SafeMath.sol\":1376:1377  c */\n  swap5\n    /* \"sExodus/SafeMath.sol\":1083:1384  function div(... */\n  swap4\n  pop\n  pop\n  pop\n  pop\n  jump\t// out\n    /* \"sExodus/sOlympusERC20.sol\":211:10049  contract sExodus is IsEXO, ERC20Permit {... */\ntag_8:\n  dup3\n  dup1\n  sload\n  0x01\n  dup2\n  0x01\n  and\n  iszero\n  0x0100\n  mul\n  sub\n  and\n  0x02\n  swap1\n  div\n  swap1\n  0x00\n  mstore\n  keccak256(0x00, 0x20)\n  swap1\n  0x1f\n  add\n  0x20\n  swap1\n  div\n  dup2\n  add\n  swap3\n  dup3\n  tag_33\n  jumpi\n  0x00\n  dup6\n  sstore\n  jump(tag_36)\ntag_33:\n  dup3\n  0x1f\n  lt\n  tag_34\n  jumpi\n  dup1\n  mload\n  not(0xff)\n  and\n  dup4\n  dup1\n  add\n  or\n  dup6\n  sstore\n  jump(tag_36)\ntag_34:\n  dup3\n  dup1\n  add\n  0x01\n  add\n  dup6\n  sstore\n  dup3\n  iszero\n  tag_36\n  jumpi\n  swap2\n  dup3\n  add\ntag_35:\n  dup3\n  dup2\n  gt\n  iszero\n  tag_36\n  jumpi\n  dup3\n  mload\n  dup3\n  sstore\n  swap2\n  0x20\n  add\n  swap2\n  swap1\n  0x01\n  add\n  swap1\n  jump(tag_35)\ntag_36:\n  pop\n  tag_37\n  swap3\n  swap2\n  pop\n  tag_38\n  jump\t// in\ntag_37:\n  pop\n  swap1\n  jump\t// out\ntag_38:\ntag_39:\n  dup1\n  dup3\n  gt\n  iszero\n  tag_37\n  jumpi\n  0x00\n  dup2\n  sstore\n  0x01\n  add\n  jump(tag_39)\ntag_18:\n  shr(0xf8, mload(0x80))\n  mload(0xa0)\n  mload(0xc0)\n  mload(0xe0)\n  mload(0x0100)\n  mload(0x0120)\n  mload(0x0140)\n  codecopy(0x00, dataOffset(sub_0), dataSize(sub_0))\n  assignImmutable(\"0xcd3b8a75131b09c18fac61f93bac9440f7b768b1c243a93eca5a67eb03b07828\")\n  assignImmutable(\"0xa357612e78285f7fafdf6b519d8202761470244eff76772361e02b59693fc4a3\")\n  assignImmutable(\"0x5d2bb87bc4e3465b938b7f3bfa80dd200de3ce49dc7e9edab315c9ce3405a0b7\")\n  assignImmutable(\"0x9b0d5a2681b52b4560ba0a55dc00d44d52ed130b12e9b1ecacbe9f4e75788d40\")\n  assignImmutable(\"0xb0c7bc42bdbc6fc210fecd6a5f5b923061cceb0f8ca5c7d964d5c22fc0e4b0b6\")\n  assignImmutable(\"0xee6ed107ec78844a4d229eb2881175204622382692a68d0a6bc9dab5b9b1a469\")\n  assignImmutable(\"0x69de3b38836c938ac93bb31643655e6e0a011af0f354a009a432084d0f963864\")\n  return(0x00, dataSize(sub_0))\nstop\n\nsub_0: assembly {\n        /* \"sExodus/sOlympusERC20.sol\":211:10049  contract sExodus is IsEXO, ERC20Permit {... */\n      mstore(0x40, 0x80)\n      callvalue\n      dup1\n      iszero\n      tag_1\n      jumpi\n      0x00\n      dup1\n      revert\n    tag_1:\n      pop\n      jumpi(tag_2, lt(calldatasize, 0x04))\n      shr(0xe0, calldataload(0x00))\n      dup1\n      0x61d027b3\n      gt\n      tag_33\n      jumpi\n      dup1\n      0xa457c2d7\n      gt\n      tag_34\n      jumpi\n      dup1\n      0xc4ef1c4c\n      gt\n      tag_35\n      jumpi\n      dup1\n      0xc4ef1c4c\n      eq\n      tag_29\n      jumpi\n      dup1\n      0xd505accf\n      eq\n      tag_30\n      jumpi\n      dup1\n      0xdd62ed3e\n      eq\n      tag_31\n      jumpi\n      dup1\n      0xee99205c\n      eq\n      tag_32\n      jumpi\n      jump(tag_2)\n    tag_35:\n      dup1\n      0xa457c2d7\n      eq\n      tag_25\n      jumpi\n      dup1\n      0xa9059cbb\n      eq\n      tag_26\n      jumpi\n      dup1\n      0xae5c6cd3\n      eq\n      tag_27\n      jumpi\n      dup1\n      0xb8fbd533\n      eq\n      tag_28\n      jumpi\n      jump(tag_2)\n    tag_34:\n      dup1\n      0x7965d56d\n      gt\n      tag_36\n      jumpi\n      dup1\n      0x7965d56d\n      eq\n      tag_21\n      jumpi\n      dup1\n      0x7ecebe00\n      eq\n      tag_22\n      jumpi\n      dup1\n      0x9358928b\n      eq\n      tag_23\n      jumpi\n      dup1\n      0x95d89b41\n      eq\n      tag_24\n      jumpi\n      jump(tag_2)\n    tag_36:\n      dup1\n      0x61d027b3\n      eq\n      tag_18\n      jumpi\n      dup1\n      0x70a08231\n      eq\n      tag_19\n      jumpi\n      dup1\n      0x73c69eb7\n      eq\n      tag_20\n      jumpi\n      jump(tag_2)\n    tag_33:\n      dup1\n      0x245c0e99\n      gt\n      tag_37\n      jumpi\n      dup1\n      0x3644e515\n      gt\n      tag_38\n      jumpi\n      dup1\n      0x3644e515\n      eq\n      tag_14\n      jumpi\n      dup1\n      0x39509351\n      eq\n      tag_15\n      jumpi\n      dup1\n      0x40a5737f\n      eq\n      tag_16\n      jumpi\n      dup1\n      0x485cc955\n      eq\n      tag_17\n      jumpi\n      jump(tag_2)\n    tag_38:\n      dup1\n      0x245c0e99\n      eq\n      tag_10\n      jumpi\n      dup1\n      0x2986c0e5\n      eq\n      tag_11\n      jumpi\n      dup1\n      0x2af36b43\n      eq\n      tag_12\n      jumpi\n      dup1\n      0x313ce567\n      eq\n      tag_13\n      jumpi\n      jump(tag_2)\n    tag_37:\n      dup1\n      0x095ea7b3\n      gt\n      tag_39\n      jumpi\n      dup1\n      0x095ea7b3\n      eq\n      tag_6\n      jumpi\n      dup1\n      0x18160ddd\n      eq\n      tag_7\n      jumpi\n      dup1\n      0x1bd39674\n      eq\n      tag_8\n      jumpi\n      dup1\n      0x23b872dd\n      eq\n      tag_9\n      jumpi\n      jump(tag_2)\n    tag_39:\n      dup1\n      0x058ecdb4\n      eq\n      tag_3\n      jumpi\n      dup1\n      0x06fdde03\n      eq\n      tag_4\n      jumpi\n      dup1\n      0x095be818\n      eq\n      tag_5\n      jumpi\n    tag_2:\n      0x00\n      dup1\n      revert\n        /* \"sExodus/sOlympusERC20.sol\":3906:4744  function rebase(uint256 profit_, uint256 epoch_) public override onlyStakingContract returns (uint256) {... */\n    tag_3:\n      tag_40\n      0x04\n      dup1\n      calldatasize\n      sub\n      0x40\n      dup2\n      lt\n      iszero\n      tag_41\n      jumpi\n      0x00\n      dup1\n      revert\n    tag_41:\n      pop\n      dup1\n      calldataload\n      swap1\n      0x20\n      add\n      calldataload\n      tag_42\n      jump\t// in\n    tag_40:\n      0x40\n      dup1\n      mload\n      swap2\n      dup3\n      mstore\n      mload\n      swap1\n      dup2\n      swap1\n      sub\n      0x20\n      add\n      swap1\n      return\n        /* \"sExodus/ERC20.sol\":783:864  function name() public view returns (string memory) {... */\n    tag_4:\n      tag_43\n      tag_44\n      jump\t// in\n    tag_43:\n      0x40\n      dup1\n      mload\n      0x20\n      dup1\n      dup3\n      mstore\n      dup4\n      mload\n      dup2\n      dup4\n      add\n      mstore\n      dup4\n      mload\n      swap2\n      swap3\n      dup4\n      swap3\n      swap1\n      dup4\n      add\n      swap2\n      dup6\n      add\n      swap1\n      dup1\n      dup4\n      dup4\n      0x00\n    tag_45:\n      dup4\n      dup2\n      lt\n      iszero\n      tag_47\n      jumpi\n      dup2\n      dup2\n      add\n      mload\n      dup4\n      dup3\n      add\n      mstore\n      0x20\n      add\n      jump(tag_45)\n    tag_47:\n      pop\n      pop\n      pop\n      pop\n      swap1\n      pop\n      swap1\n      dup2\n      add\n      swap1\n      0x1f\n      and\n      dup1\n      iszero\n      tag_48\n      jumpi\n      dup1\n      dup3\n      sub\n      dup1\n      mload\n      0x01\n      dup4\n      0x20\n      sub\n      0x0100\n      exp\n      sub\n      not\n      and\n      dup2\n      mstore\n      0x20\n      add\n      swap2\n      pop\n    tag_48:\n      pop\n      swap3\n      pop\n      pop\n      pop\n      mload(0x40)\n      dup1\n      swap2\n      sub\n      swap1\n      return\n        /* \"sExodus/sOlympusERC20.sol\":9082:9198  function toG(uint256 amount) external view override returns (uint256) {... */\n    tag_5:\n      tag_40\n      0x04\n      dup1\n      calldatasize\n      sub\n      0x20\n      dup2\n      lt\n      iszero\n      tag_50\n      jumpi\n      0x00\n      dup1\n      revert\n    tag_50:\n      pop\n      calldataload\n      tag_51\n      jump\t// in\n        /* \"sExodus/sOlympusERC20.sol\":6768:6937  function approve(address spender, uint256 value) public override(IERC20, ERC20) returns (bool) {... */\n    tag_6:\n      tag_52\n      0x04\n      dup1\n      calldatasize\n      sub\n      0x40\n      dup2\n      lt\n      iszero\n      tag_53\n      jumpi\n      0x00\n      dup1\n      revert\n    tag_53:\n      pop\n      sub(shl(0xa0, 0x01), 0x01)\n      dup2\n      calldataload\n      and\n      swap1\n      0x20\n      add\n      calldataload\n      tag_54\n      jump\t// in\n    tag_52:\n      0x40\n      dup1\n      mload\n      swap2\n      iszero\n      iszero\n      dup3\n      mstore\n      mload\n      swap1\n      dup2\n      swap1\n      sub\n      0x20\n      add\n      swap1\n      return\n        /* \"sExodus/ERC20.sol\":1056:1154  function totalSupply() public view override returns (uint256) {... */\n    tag_7:\n      tag_40\n      tag_56\n      jump\t// in\n        /* \"sExodus/sOlympusERC20.sol\":8693:8824  function gonsForBalance(uint256 amount) public view override returns (uint256) {... */\n    tag_8:\n      tag_40\n      0x04\n      dup1\n      calldatasize\n      sub\n      0x20\n      dup2\n      lt\n      iszero\n      tag_58\n      jumpi\n      0x00\n      dup1\n      revert\n    tag_58:\n      pop\n      calldataload\n      tag_59\n      jump\t// in\n        /* \"sExodus/sOlympusERC20.sol\":6133:6762  function transferFrom(... */\n    tag_9:\n      tag_52\n      0x04\n      dup1\n      calldatasize\n      sub\n      0x60\n      dup2\n      lt\n      iszero\n      tag_61\n      jumpi\n      0x00\n      dup1\n      revert\n    tag_61:\n      pop\n      sub(shl(0xa0, 0x01), 0x01)\n      dup2\n      calldataload\n      dup2\n      and\n      swap2\n      0x20\n      dup2\n      add\n      calldataload\n      swap1\n      swap2\n      and\n      swap1\n      0x40\n      add\n      calldataload\n      tag_62\n      jump\t// in\n        /* \"sExodus/sOlympusERC20.sol\":2777:3091  function setgOHM(address _gEXO) external {... */\n    tag_10:\n      tag_63\n      0x04\n      dup1\n      calldatasize\n      sub\n      0x20\n      dup2\n      lt\n      iszero\n      tag_64\n      jumpi\n      0x00\n      dup1\n      revert\n    tag_64:\n      pop\n      calldataload\n      sub(shl(0xa0, 0x01), 0x01)\n      and\n      tag_65\n      jump\t// in\n    tag_63:\n      stop\n        /* \"sExodus/sOlympusERC20.sol\":9780:9881  function index() public view override returns (uint256) {... */\n    tag_11:\n      tag_40\n      tag_67\n      jump\t// in\n        /* \"sExodus/sOlympusERC20.sol\":1288:1305  IgEXO public gEXO */\n    tag_12:\n      tag_68\n      tag_69\n      jump\t// in\n    tag_68:\n      0x40\n      dup1\n      mload\n      sub(shl(0xa0, 0x01), 0x01)\n      swap1\n      swap3\n      and\n      dup3\n      mstore\n      mload\n      swap1\n      dup2\n      swap1\n      sub\n      0x20\n      add\n      swap1\n      return\n        /* \"sExodus/ERC20.sol\":961:1050  function decimals() public view virtual returns (uint8) {... */\n    tag_13:\n      tag_70\n      tag_71\n      jump\t// in\n    tag_70:\n      0x40\n      dup1\n      mload\n      0xff\n      swap1\n      swap3\n      and\n      dup3\n      mstore\n      mload\n      swap1\n      dup2\n      swap1\n      sub\n      0x20\n      add\n      swap1\n      return\n        /* \"sExodus/ERC20Permit.sol\":2348:2461  function DOMAIN_SEPARATOR() external view override returns (bytes32) {... */\n    tag_14:\n      tag_40\n      tag_73\n      jump\t// in\n        /* \"sExodus/sOlympusERC20.sol\":6943:7157  function increaseAllowance(address spender, uint256 addedValue) public override returns (bool) {... */\n    tag_15:\n      tag_52\n      0x04\n      dup1\n      calldatasize\n      sub\n      0x40\n      dup2\n      lt\n      iszero\n      tag_75\n      jumpi\n      0x00\n      dup1\n      revert\n    tag_75:\n      pop\n      sub(shl(0xa0, 0x01), 0x01)\n      dup2\n      calldataload\n      and\n      swap1\n      0x20\n      add\n      calldataload\n      tag_76\n      jump\t// in\n        /* \"sExodus/sOlympusERC20.sol\":2539:2771  function setIndex(uint256 _index) external {... */\n    tag_16:\n      tag_63\n      0x04\n      dup1\n      calldatasize\n      sub\n      0x20\n      dup2\n      lt\n      iszero\n      tag_78\n      jumpi\n      0x00\n      dup1\n      revert\n    tag_78:\n      pop\n      calldataload\n      tag_79\n      jump\t// in\n        /* \"sExodus/sOlympusERC20.sol\":3117:3702  function initialize(address _stakingContract, address _treasury) external {... */\n    tag_17:\n      tag_63\n      0x04\n      dup1\n      calldatasize\n      sub\n      0x40\n      dup2\n      lt\n      iszero\n      tag_81\n      jumpi\n      0x00\n      dup1\n      revert\n    tag_81:\n      pop\n      sub(shl(0xa0, 0x01), 0x01)\n      dup2\n      calldataload\n      dup2\n      and\n      swap2\n      0x20\n      add\n      calldataload\n      and\n      tag_82\n      jump\t// in\n        /* \"sExodus/sOlympusERC20.sol\":2130:2153  address public treasury */\n    tag_18:\n      tag_68\n      tag_84\n      jump\t// in\n        /* \"sExodus/sOlympusERC20.sol\":8538:8687  function balanceOf(address who) public view override(IERC20, ERC20) returns (uint256) {... */\n    tag_19:\n      tag_40\n      0x04\n      dup1\n      calldatasize\n      sub\n      0x20\n      dup2\n      lt\n      iszero\n      tag_86\n      jumpi\n      0x00\n      dup1\n      revert\n    tag_86:\n      pop\n      calldataload\n      sub(shl(0xa0, 0x01), 0x01)\n      and\n      tag_87\n      jump\t// in\n        /* \"sExodus/sOlympusERC20.sol\":1359:1382  Rebase[] public rebases */\n    tag_20:\n      tag_88\n      0x04\n      dup1\n      calldatasize\n      sub\n      0x20\n      dup2\n      lt\n      iszero\n      tag_89\n      jumpi\n      0x00\n      dup1\n      revert\n    tag_89:\n      pop\n      calldataload\n      tag_90\n      jump\t// in\n    tag_88:\n      0x40\n      dup1\n      mload\n      swap8\n      dup9\n      mstore\n      0x20\n      dup9\n      add\n      swap7\n      swap1\n      swap7\n      mstore\n      dup7\n      dup7\n      add\n      swap5\n      swap1\n      swap5\n      mstore\n      0x60\n      dup7\n      add\n      swap3\n      swap1\n      swap3\n      mstore\n      0x80\n      dup6\n      add\n      mstore\n      0xa0\n      dup5\n      add\n      mstore\n      0xc0\n      dup4\n      add\n      mstore\n      mload\n      swap1\n      dup2\n      swap1\n      sub\n      0xe0\n      add\n      swap1\n      return\n        /* \"sExodus/sOlympusERC20.sol\":8830:8957  function balanceForGons(uint256 gons) public view override returns (uint256) {... */\n    tag_21:\n      tag_40\n      0x04\n      dup1\n      calldatasize\n      sub\n      0x20\n      dup2\n      lt\n      iszero\n      tag_92\n      jumpi\n      0x00\n      dup1\n      revert\n    tag_92:\n      pop\n      calldataload\n      tag_93\n      jump\t// in\n        /* \"sExodus/ERC20Permit.sol\":2098:2224  function nonces(address owner) public view virtual override returns (uint256) {... */\n    tag_22:\n      tag_40\n      0x04\n      dup1\n      calldatasize\n      sub\n      0x20\n      dup2\n      lt\n      iszero\n      tag_95\n      jumpi\n      0x00\n      dup1\n      revert\n    tag_95:\n      pop\n      calldataload\n      sub(shl(0xa0, 0x01), 0x01)\n      and\n      tag_96\n      jump\t// in\n        /* \"sExodus/sOlympusERC20.sol\":9489:9774  function circulatingSupply() public view override returns (uint256) {... */\n    tag_23:\n      tag_40\n      tag_98\n      jump\t// in\n        /* \"sExodus/ERC20.sol\":870:955  function symbol() public view returns (string memory) {... */\n    tag_24:\n      tag_43\n      tag_100\n      jump\t// in\n        /* \"sExodus/sOlympusERC20.sol\":7163:7544  function decreaseAllowance(address spender, uint256 subtractedValue) public override returns (bool) {... */\n    tag_25:\n      tag_52\n      0x04\n      dup1\n      calldatasize\n      sub\n      0x40\n      dup2\n      lt\n      iszero\n      tag_106\n      jumpi\n      0x00\n      dup1\n      revert\n    tag_106:\n      pop\n      sub(shl(0xa0, 0x01), 0x01)\n      dup2\n      calldataload\n      and\n      swap1\n      0x20\n      add\n      calldataload\n      tag_107\n      jump\t// in\n        /* \"sExodus/sOlympusERC20.sol\":5670:6127  function transfer(address to, uint256 value) public override(IERC20, ERC20) returns (bool) {... */\n    tag_26:\n      tag_52\n      0x04\n      dup1\n      calldatasize\n      sub\n      0x40\n      dup2\n      lt\n      iszero\n      tag_109\n      jumpi\n      0x00\n      dup1\n      revert\n    tag_109:\n      pop\n      sub(shl(0xa0, 0x01), 0x01)\n      dup2\n      calldataload\n      and\n      swap1\n      0x20\n      add\n      calldataload\n      tag_110\n      jump\t// in\n        /* \"sExodus/sOlympusERC20.sol\":7756:8205  function changeDebt(... */\n    tag_27:\n      tag_63\n      0x04\n      dup1\n      calldatasize\n      sub\n      0x60\n      dup2\n      lt\n      iszero\n      tag_112\n      jumpi\n      0x00\n      dup1\n      revert\n    tag_112:\n      pop\n      dup1\n      calldataload\n      swap1\n      sub(shl(0xa0, 0x01), 0x01)\n      0x20\n      dup3\n      add\n      calldataload\n      and\n      swap1\n      0x40\n      add\n      calldataload\n      iszero\n      iszero\n      tag_113\n      jump\t// in\n        /* \"sExodus/sOlympusERC20.sol\":9321:9441  function fromG(uint256 amount) external view override returns (uint256) {... */\n    tag_28:\n      tag_40\n      0x04\n      dup1\n      calldatasize\n      sub\n      0x20\n      dup2\n      lt\n      iszero\n      tag_115\n      jumpi\n      0x00\n      dup1\n      revert\n    tag_115:\n      pop\n      calldataload\n      tag_116\n      jump\t// in\n        /* \"sExodus/sOlympusERC20.sol\":2159:2215  mapping(address => uint256) public override debtBalances */\n    tag_29:\n      tag_40\n      0x04\n      dup1\n      calldatasize\n      sub\n      0x20\n      dup2\n      lt\n      iszero\n      tag_118\n      jumpi\n      0x00\n      dup1\n      revert\n    tag_118:\n      pop\n      calldataload\n      sub(shl(0xa0, 0x01), 0x01)\n      and\n      tag_119\n      jump\t// in\n        /* \"sExodus/ERC20Permit.sol\":1411:2037  function permit(... */\n    tag_30:\n      tag_63\n      0x04\n      dup1\n      calldatasize\n      sub\n      0xe0\n      dup2\n      lt\n      iszero\n      tag_121\n      jumpi\n      0x00\n      dup1\n      revert\n    tag_121:\n      pop\n      sub(shl(0xa0, 0x01), 0x01)\n      dup2\n      calldataload\n      dup2\n      and\n      swap2\n      0x20\n      dup2\n      add\n      calldataload\n      swap1\n      swap2\n      and\n      swap1\n      0x40\n      dup2\n      add\n      calldataload\n      swap1\n      0x60\n      dup2\n      add\n      calldataload\n      swap1\n      0xff\n      0x80\n      dup3\n      add\n      calldataload\n      and\n      swap1\n      0xa0\n      dup2\n      add\n      calldataload\n      swap1\n      0xc0\n      add\n      calldataload\n      tag_122\n      jump\t// in\n        /* \"sExodus/sOlympusERC20.sol\":9887:10047  function allowance(address owner_, address spender) public view override(IERC20, ERC20) returns (uint256) {... */\n    tag_31:\n      tag_40\n      0x04\n      dup1\n      calldatasize\n      sub\n      0x40\n      dup2\n      lt\n      iszero\n      tag_124\n      jumpi\n      0x00\n      dup1\n      revert\n    tag_124:\n      pop\n      sub(shl(0xa0, 0x01), 0x01)\n      dup2\n      calldataload\n      dup2\n      and\n      swap2\n      0x20\n      add\n      calldataload\n      and\n      tag_125\n      jump\t// in\n        /* \"sExodus/sOlympusERC20.sol\":1221:1251  address public stakingContract */\n    tag_32:\n      tag_68\n      tag_127\n      jump\t// in\n        /* \"sExodus/sOlympusERC20.sol\":3906:4744  function rebase(uint256 profit_, uint256 epoch_) public override onlyStakingContract returns (uint256) {... */\n    tag_42:\n        /* \"sExodus/sOlympusERC20.sol\":684:699  stakingContract */\n      sload(0x08)\n        /* \"sExodus/sOlympusERC20.sol\":4000:4007  uint256 */\n      0x00\n      swap1\n      sub(shl(0xa0, 0x01), 0x01)\n        /* \"sExodus/sOlympusERC20.sol\":684:699  stakingContract */\n      and\n        /* \"sExodus/sOlympusERC20.sol\":670:680  msg.sender */\n      caller\n        /* \"sExodus/sOlympusERC20.sol\":670:699  msg.sender == stakingContract */\n      eq\n        /* \"sExodus/sOlympusERC20.sol\":662:750  require(msg.sender == stakingContract, \"StakingContract:  call is not staking contract\") */\n      tag_130\n      jumpi\n      mload(0x40)\n      shl(0xe5, 0x461bcd)\n      dup2\n      mstore\n      0x04\n      add\n      dup1\n      dup1\n      0x20\n      add\n      dup3\n      dup2\n      sub\n      dup3\n      mstore\n      0x2e\n      dup2\n      mstore\n      0x20\n      add\n      dup1\n      data_a5659c1cc908cdac5d93994075e79b6facf5d4cb17e30f3636004f4933a19d9c\n      0x2e\n      swap2\n      codecopy\n      0x40\n      add\n      swap2\n      pop\n      pop\n      mload(0x40)\n      dup1\n      swap2\n      sub\n      swap1\n      revert\n    tag_130:\n        /* \"sExodus/sOlympusERC20.sol\":4019:4039  uint256 rebaseAmount */\n      0x00\n        /* \"sExodus/sOlympusERC20.sol\":4049:4075  uint256 circulatingSupply_ */\n      dup1\n        /* \"sExodus/sOlympusERC20.sol\":4078:4097  circulatingSupply() */\n      tag_132\n        /* \"sExodus/sOlympusERC20.sol\":4078:4095  circulatingSupply */\n      tag_98\n        /* \"sExodus/sOlympusERC20.sol\":4078:4097  circulatingSupply() */\n      jump\t// in\n    tag_132:\n        /* \"sExodus/sOlympusERC20.sol\":4049:4097  uint256 circulatingSupply_ = circulatingSupply() */\n      swap1\n      pop\n        /* \"sExodus/sOlympusERC20.sol\":4111:4123  profit_ == 0 */\n      dup5\n        /* \"sExodus/sOlympusERC20.sol\":4107:4443  if (profit_ == 0) {... */\n      tag_133\n      jumpi\n        /* \"sExodus/sOlympusERC20.sol\":4162:4174  _totalSupply */\n      sload(0x02)\n        /* \"sExodus/sOlympusERC20.sol\":4144:4175  LogSupply(epoch_, _totalSupply) */\n      0x40\n      dup1\n      mload\n      swap2\n      dup3\n      mstore\n      mload\n        /* \"sExodus/sOlympusERC20.sol\":4154:4160  epoch_ */\n      dup6\n      swap2\n        /* \"sExodus/sOlympusERC20.sol\":4144:4175  LogSupply(epoch_, _totalSupply) */\n      0x0417b340e646d4be71f9b2da63b5c3c69bc9cfa069f0e0db4756271886130bf4\n      swap2\n      swap1\n      dup2\n      swap1\n      sub\n      0x20\n      add\n      swap1\n      log2\n        /* \"sExodus/sOlympusERC20.sol\":4204:4210  epoch_ */\n      dup4\n        /* \"sExodus/sOlympusERC20.sol\":4194:4223  LogRebase(epoch_, 0, index()) */\n      0x6012dbce857565c4a40974aa5de8373a761fc429077ef0c8c8611d1e20d63fb2\n        /* \"sExodus/sOlympusERC20.sol\":4212:4213  0 */\n      0x00\n        /* \"sExodus/sOlympusERC20.sol\":4215:4222  index() */\n      tag_134\n        /* \"sExodus/sOlympusERC20.sol\":4215:4220  index */\n      tag_67\n        /* \"sExodus/sOlympusERC20.sol\":4215:4222  index() */\n      jump\t// in\n    tag_134:\n        /* \"sExodus/sOlympusERC20.sol\":4194:4223  LogRebase(epoch_, 0, index()) */\n      0x40\n      dup1\n      mload\n      swap3\n      dup4\n      mstore\n      0x20\n      dup4\n      add\n      swap2\n      swap1\n      swap2\n      mstore\n      dup1\n      mload\n      swap2\n      dup3\n      swap1\n      sub\n      add\n      swap1\n      log2\n        /* \"sExodus/sOlympusERC20.sol\":4244:4256  _totalSupply */\n      sload(0x02)\n        /* \"sExodus/sOlympusERC20.sol\":4237:4256  return _totalSupply */\n      swap3\n      pop\n      pop\n      pop\n      jump(tag_131)\n        /* \"sExodus/sOlympusERC20.sol\":4107:4443  if (profit_ == 0) {... */\n    tag_133:\n        /* \"sExodus/sOlympusERC20.sol\":4277:4299  circulatingSupply_ > 0 */\n      dup1\n      iszero\n        /* \"sExodus/sOlympusERC20.sol\":4273:4443  if (circulatingSupply_ > 0) {... */\n      tag_136\n      jumpi\n        /* \"sExodus/sOlympusERC20.sol\":4330:4379  profit_.mul(_totalSupply).div(circulatingSupply_) */\n      tag_137\n        /* \"sExodus/sOlympusERC20.sol\":4360:4378  circulatingSupply_ */\n      dup2\n        /* \"sExodus/sOlympusERC20.sol\":4330:4355  profit_.mul(_totalSupply) */\n      tag_138\n        /* \"sExodus/sOlympusERC20.sol\":4342:4354  _totalSupply */\n      sload(0x02)\n        /* \"sExodus/sOlympusERC20.sol\":4330:4337  profit_ */\n      dup9\n        /* \"sExodus/sOlympusERC20.sol\":4330:4341  profit_.mul */\n      tag_139\n      swap1\n        /* \"sExodus/sOlympusERC20.sol\":4330:4355  profit_.mul(_totalSupply) */\n      swap2\n      swap1\n      0xffffffff\n      and\n      jump\t// in\n    tag_138:\n        /* \"sExodus/sOlympusERC20.sol\":4330:4359  profit_.mul(_totalSupply).div */\n      swap1\n      tag_128\n        /* \"sExodus/sOlympusERC20.sol\":4330:4379  profit_.mul(_totalSupply).div(circulatingSupply_) */\n      jump\t// in\n    tag_137:\n        /* \"sExodus/sOlympusERC20.sol\":4315:4379  rebaseAmount = profit_.mul(_totalSupply).div(circulatingSupply_) */\n      swap2\n      pop\n        /* \"sExodus/sOlympusERC20.sol\":4273:4443  if (circulatingSupply_ > 0) {... */\n      jump(tag_140)\n    tag_136:\n        /* \"sExodus/sOlympusERC20.sol\":4425:4432  profit_ */\n      dup5\n        /* \"sExodus/sOlympusERC20.sol\":4410:4432  rebaseAmount = profit_ */\n      swap2\n      pop\n        /* \"sExodus/sOlympusERC20.sol\":4273:4443  if (circulatingSupply_ > 0) {... */\n    tag_140:\n        /* \"sExodus/sOlympusERC20.sol\":4468:4480  _totalSupply */\n      sload(0x02)\n        /* \"sExodus/sOlympusERC20.sol\":4468:4498  _totalSupply.add(rebaseAmount) */\n      tag_141\n      swap1\n        /* \"sExodus/sOlympusERC20.sol\":4485:4497  rebaseAmount */\n      dup4\n        /* \"sExodus/sOlympusERC20.sol\":4468:4484  _totalSupply.add */\n      tag_142\n        /* \"sExodus/sOlympusERC20.sol\":4468:4498  _totalSupply.add(rebaseAmount) */\n      jump\t// in\n    tag_141:\n        /* \"sExodus/sOlympusERC20.sol\":4453:4465  _totalSupply */\n      0x02\n        /* \"sExodus/sOlympusERC20.sol\":4453:4498  _totalSupply = _totalSupply.add(rebaseAmount) */\n      dup2\n      swap1\n      sstore\n        /* \"sExodus/sOlympusERC20.sol\":4528:4538  MAX_SUPPLY */\n      0xffffffffffffffffffffffffffffffff\n      lt\n        /* \"sExodus/sOlympusERC20.sol\":4509:4590  if (_totalSupply > MAX_SUPPLY) {... */\n      iszero\n      tag_143\n      jumpi\n        /* \"sExodus/sOlympusERC20.sol\":4569:4579  MAX_SUPPLY */\n      0xffffffffffffffffffffffffffffffff\n        /* \"sExodus/sOlympusERC20.sol\":4554:4566  _totalSupply */\n      0x02\n        /* \"sExodus/sOlympusERC20.sol\":4554:4579  _totalSupply = MAX_SUPPLY */\n      sstore\n        /* \"sExodus/sOlympusERC20.sol\":4509:4590  if (_totalSupply > MAX_SUPPLY) {... */\n    tag_143:\n        /* \"sExodus/sOlympusERC20.sol\":4619:4647  TOTAL_GONS.div(_totalSupply) */\n      tag_144\n        /* \"sExodus/sOlympusERC20.sol\":4634:4646  _totalSupply */\n      sload(0x02)\n        /* \"sExodus/sOlympusERC20.sol\":1523:1540  5_000_000 * 10**9 */\n      0x11c37937e08000\n      not(0x00)\n        /* \"sExodus/sOlympusERC20.sol\":1773:1811  MAX_UINT256 % INITIAL_FRAGMENTS_SUPPLY */\n      dup2\n      tag_145\n      jumpi\n      invalid\n    tag_145:\n      mod\n        /* \"sExodus/sOlympusERC20.sol\":1758:1812  MAX_UINT256 - (MAX_UINT256 % INITIAL_FRAGMENTS_SUPPLY) */\n      not\n      swap1\n        /* \"sExodus/sOlympusERC20.sol\":4619:4633  TOTAL_GONS.div */\n      tag_128\n        /* \"sExodus/sOlympusERC20.sol\":4619:4647  TOTAL_GONS.div(_totalSupply) */\n      jump\t// in\n    tag_144:\n        /* \"sExodus/sOlympusERC20.sol\":4600:4616  _gonsPerFragment */\n      0x0b\n        /* \"sExodus/sOlympusERC20.sol\":4600:4647  _gonsPerFragment = TOTAL_GONS.div(_totalSupply) */\n      sstore\n        /* \"sExodus/sOlympusERC20.sol\":4658:4707  _storeRebase(circulatingSupply_, profit_, epoch_) */\n      tag_146\n        /* \"sExodus/sOlympusERC20.sol\":4671:4689  circulatingSupply_ */\n      dup2\n        /* \"sExodus/sOlympusERC20.sol\":4691:4698  profit_ */\n      dup7\n        /* \"sExodus/sOlympusERC20.sol\":4700:4706  epoch_ */\n      dup7\n        /* \"sExodus/sOlympusERC20.sol\":4658:4670  _storeRebase */\n      tag_147\n        /* \"sExodus/sOlympusERC20.sol\":4658:4707  _storeRebase(circulatingSupply_, profit_, epoch_) */\n      jump\t// in\n    tag_146:\n        /* \"sExodus/sOlympusERC20.sol\":4725:4737  _totalSupply */\n      sload(0x02)\n        /* \"sExodus/sOlympusERC20.sol\":4718:4737  return _totalSupply */\n      swap3\n      pop\n      pop\n      pop\n        /* \"sExodus/sOlympusERC20.sol\":760:761  _ */\n    tag_131:\n        /* \"sExodus/sOlympusERC20.sol\":3906:4744  function rebase(uint256 profit_, uint256 epoch_) public override onlyStakingContract returns (uint256) {... */\n      swap3\n      swap2\n      pop\n      pop\n      jump\t// out\n        /* \"sExodus/ERC20.sol\":783:864  function name() public view returns (string memory) {... */\n    tag_44:\n        /* \"sExodus/ERC20.sol\":852:857  _name */\n      0x03\n        /* \"sExodus/ERC20.sol\":845:857  return _name */\n      dup1\n      sload\n      0x40\n      dup1\n      mload\n      0x20\n      0x1f\n      0x02\n      not(0x00)\n      0x0100\n      0x01\n      dup9\n      and\n      iszero\n      mul\n      add\n      swap1\n      swap6\n      and\n      swap5\n      swap1\n      swap5\n      div\n      swap4\n      dup5\n      add\n      dup2\n      swap1\n      div\n      dup2\n      mul\n      dup3\n      add\n      dup2\n      add\n      swap1\n      swap3\n      mstore\n      dup3\n      dup2\n      mstore\n        /* \"sExodus/ERC20.sol\":820:833  string memory */\n      0x60\n      swap4\n        /* \"sExodus/ERC20.sol\":845:857  return _name */\n      swap1\n      swap3\n        /* \"sExodus/ERC20.sol\":852:857  _name */\n      swap1\n      swap2\n        /* \"sExodus/ERC20.sol\":845:857  return _name */\n      dup4\n      add\n        /* \"sExodus/ERC20.sol\":852:857  _name */\n      dup3\n        /* \"sExodus/ERC20.sol\":845:857  return _name */\n      dup3\n      dup1\n      iszero\n      tag_149\n      jumpi\n      dup1\n      0x1f\n      lt\n      tag_150\n      jumpi\n      0x0100\n      dup1\n      dup4\n      sload\n      div\n      mul\n      dup4\n      mstore\n      swap2\n      0x20\n      add\n      swap2\n      jump(tag_149)\n    tag_150:\n      dup3\n      add\n      swap2\n      swap1\n      0x00\n      mstore\n      keccak256(0x00, 0x20)\n      swap1\n    tag_151:\n      dup2\n      sload\n      dup2\n      mstore\n      swap1\n      0x01\n      add\n      swap1\n      0x20\n      add\n      dup1\n      dup4\n      gt\n      tag_151\n      jumpi\n      dup3\n      swap1\n      sub\n      0x1f\n      and\n      dup3\n      add\n      swap2\n    tag_149:\n      pop\n      pop\n      pop\n      pop\n      pop\n      swap1\n      pop\n        /* \"sExodus/ERC20.sol\":783:864  function name() public view returns (string memory) {... */\n    tag_148:\n      swap1\n      jump\t// out\n        /* \"sExodus/sOlympusERC20.sol\":9082:9198  function toG(uint256 amount) external view override returns (uint256) {... */\n    tag_51:\n        /* \"sExodus/sOlympusERC20.sol\":9169:9173  gEXO */\n      sload(0x09)\n        /* \"sExodus/sOlympusERC20.sol\":9169:9191  gEXO.balanceTo(amount) */\n      0x40\n      dup1\n      mload\n      0x66a5236c00000000000000000000000000000000000000000000000000000000\n      dup2\n      mstore\n      0x04\n      dup2\n      add\n      dup5\n      swap1\n      mstore\n      swap1\n      mload\n        /* \"sExodus/sOlympusERC20.sol\":9143:9150  uint256 */\n      0x00\n      swap3\n      sub(shl(0xa0, 0x01), 0x01)\n        /* \"sExodus/sOlympusERC20.sol\":9169:9173  gEXO */\n      and\n      swap2\n        /* \"sExodus/sOlympusERC20.sol\":9169:9183  gEXO.balanceTo */\n      0x66a5236c\n      swap2\n        /* \"sExodus/sOlympusERC20.sol\":9169:9191  gEXO.balanceTo(amount) */\n      0x24\n      dup1\n      dup4\n      add\n      swap3\n      0x20\n      swap3\n      swap2\n      swap1\n      dup3\n      swap1\n      sub\n      add\n      dup2\n        /* \"sExodus/sOlympusERC20.sol\":9169:9173  gEXO */\n      dup7\n        /* \"sExodus/sOlympusERC20.sol\":9169:9191  gEXO.balanceTo(amount) */\n      dup1\n      extcodesize\n      iszero\n      dup1\n      iszero\n      tag_153\n      jumpi\n      0x00\n      dup1\n      revert\n    tag_153:\n      pop\n      gas\n      staticcall\n      iszero\n      dup1\n      iszero\n      tag_155\n      jumpi\n      returndatasize\n      0x00\n      dup1\n      returndatacopy\n      revert(0x00, returndatasize)\n    tag_155:\n      pop\n      pop\n      pop\n      pop\n      mload(0x40)\n      returndatasize\n      0x20\n      dup2\n      lt\n      iszero\n      tag_156\n      jumpi\n      0x00\n      dup1\n      revert\n    tag_156:\n      pop\n      mload\n      swap3\n        /* \"sExodus/sOlympusERC20.sol\":9082:9198  function toG(uint256 amount) external view override returns (uint256) {... */\n      swap2\n      pop\n      pop\n      jump\t// out\n        /* \"sExodus/sOlympusERC20.sol\":6768:6937  function approve(address spender, uint256 value) public override(IERC20, ERC20) returns (bool) {... */\n    tag_54:\n        /* \"sExodus/sOlympusERC20.sol\":6857:6861  bool */\n      0x00\n        /* \"sExodus/sOlympusERC20.sol\":6873:6909  _approve(msg.sender, spender, value) */\n      tag_158\n        /* \"sExodus/sOlympusERC20.sol\":6882:6892  msg.sender */\n      caller\n        /* \"sExodus/sOlympusERC20.sol\":6894:6901  spender */\n      dup5\n        /* \"sExodus/sOlympusERC20.sol\":6903:6908  value */\n      dup5\n        /* \"sExodus/sOlympusERC20.sol\":6873:6881  _approve */\n      tag_159\n        /* \"sExodus/sOlympusERC20.sol\":6873:6909  _approve(msg.sender, spender, value) */\n      jump\t// in\n    tag_158:\n      pop\n        /* \"sExodus/sOlympusERC20.sol\":6926:6930  true */\n      0x01\n        /* \"sExodus/sOlympusERC20.sol\":6768:6937  function approve(address spender, uint256 value) public override(IERC20, ERC20) returns (bool) {... */\n      swap3\n      swap2\n      pop\n      pop\n      jump\t// out\n        /* \"sExodus/ERC20.sol\":1056:1154  function totalSupply() public view override returns (uint256) {... */\n    tag_56:\n        /* \"sExodus/ERC20.sol\":1135:1147  _totalSupply */\n      sload(0x02)\n        /* \"sExodus/ERC20.sol\":1056:1154  function totalSupply() public view override returns (uint256) {... */\n      swap1\n      jump\t// out\n        /* \"sExodus/sOlympusERC20.sol\":8693:8824  function gonsForBalance(uint256 amount) public view override returns (uint256) {... */\n    tag_59:\n        /* \"sExodus/sOlympusERC20.sol\":8763:8770  uint256 */\n      0x00\n        /* \"sExodus/sOlympusERC20.sol\":8789:8817  amount.mul(_gonsPerFragment) */\n      tag_131\n        /* \"sExodus/sOlympusERC20.sol\":8800:8816  _gonsPerFragment */\n      sload(0x0b)\n        /* \"sExodus/sOlympusERC20.sol\":8789:8795  amount */\n      dup4\n        /* \"sExodus/sOlympusERC20.sol\":8789:8799  amount.mul */\n      tag_139\n      swap1\n        /* \"sExodus/sOlympusERC20.sol\":8789:8817  amount.mul(_gonsPerFragment) */\n      swap2\n      swap1\n      0xffffffff\n      and\n      jump\t// in\n        /* \"sExodus/sOlympusERC20.sol\":6133:6762  function transferFrom(... */\n    tag_62:\n      sub(shl(0xa0, 0x01), 0x01)\n        /* \"sExodus/sOlympusERC20.sol\":6316:6335  _allowedValue[from] */\n      dup4\n      and\n        /* \"sExodus/sOlympusERC20.sol\":6266:6270  bool */\n      0x00\n        /* \"sExodus/sOlympusERC20.sol\":6316:6335  _allowedValue[from] */\n      swap1\n      dup2\n      mstore\n        /* \"sExodus/sOlympusERC20.sol\":6316:6329  _allowedValue */\n      0x0d\n        /* \"sExodus/sOlympusERC20.sol\":6316:6335  _allowedValue[from] */\n      0x20\n      swap1\n      dup2\n      mstore\n      0x40\n      dup1\n      dup4\n      keccak256\n        /* \"sExodus/sOlympusERC20.sol\":6336:6346  msg.sender */\n      caller\n        /* \"sExodus/sOlympusERC20.sol\":6316:6347  _allowedValue[from][msg.sender] */\n      dup5\n      mstore\n      swap1\n      swap2\n      mstore\n      dup2\n      keccak256\n      sload\n        /* \"sExodus/sOlympusERC20.sol\":6316:6358  _allowedValue[from][msg.sender].sub(value) */\n      tag_164\n      swap1\n        /* \"sExodus/sOlympusERC20.sol\":6352:6357  value */\n      dup4\n        /* \"sExodus/sOlympusERC20.sol\":6316:6351  _allowedValue[from][msg.sender].sub */\n      tag_165\n        /* \"sExodus/sOlympusERC20.sol\":6316:6358  _allowedValue[from][msg.sender].sub(value) */\n      jump\t// in\n    tag_164:\n      sub(shl(0xa0, 0x01), 0x01)\n        /* \"sExodus/sOlympusERC20.sol\":6282:6301  _allowedValue[from] */\n      dup6\n      and\n      0x00\n      dup2\n      dup2\n      mstore\n        /* \"sExodus/sOlympusERC20.sol\":6282:6295  _allowedValue */\n      0x0d\n        /* \"sExodus/sOlympusERC20.sol\":6282:6301  _allowedValue[from] */\n      0x20\n      swap1\n      dup2\n      mstore\n      0x40\n      dup1\n      dup4\n      keccak256\n        /* \"sExodus/sOlympusERC20.sol\":6302:6312  msg.sender */\n      caller\n        /* \"sExodus/sOlympusERC20.sol\":6282:6313  _allowedValue[from][msg.sender] */\n      dup1\n      dup6\n      mstore\n      swap1\n      dup4\n      mstore\n      swap3\n      dup2\n      swap1\n      keccak256\n        /* \"sExodus/sOlympusERC20.sol\":6282:6358  _allowedValue[from][msg.sender] = _allowedValue[from][msg.sender].sub(value) */\n      dup6\n      swap1\n      sstore\n        /* \"sExodus/sOlympusERC20.sol\":6373:6432  Approval(from, msg.sender, _allowedValue[from][msg.sender]) */\n      dup1\n      mload\n      swap5\n      dup6\n      mstore\n      mload\n        /* \"sExodus/sOlympusERC20.sol\":6302:6312  msg.sender */\n      swap2\n      swap4\n        /* \"sExodus/sOlympusERC20.sol\":6373:6432  Approval(from, msg.sender, _allowedValue[from][msg.sender]) */\n      0x8c5be1e5ebec7d5bd14f71427d1e84f3dd0314c0f7b2291e5b200ac8c7c3b925\n      swap3\n      swap1\n      dup2\n      swap1\n      sub\n      swap1\n      swap2\n      add\n      swap1\n      log3\n        /* \"sExodus/sOlympusERC20.sol\":6443:6459  uint256 gonValue */\n      0x00\n        /* \"sExodus/sOlympusERC20.sol\":6462:6483  gonsForBalance(value) */\n      tag_166\n        /* \"sExodus/sOlympusERC20.sol\":6477:6482  value */\n      dup4\n        /* \"sExodus/sOlympusERC20.sol\":6462:6476  gonsForBalance */\n      tag_59\n        /* \"sExodus/sOlympusERC20.sol\":6462:6483  gonsForBalance(value) */\n      jump\t// in\n    tag_166:\n      sub(shl(0xa0, 0x01), 0x01)\n        /* \"sExodus/sOlympusERC20.sol\":6514:6532  _gonBalances[from] */\n      dup7\n      and\n      0x00\n      swap1\n      dup2\n      mstore\n        /* \"sExodus/sOlympusERC20.sol\":6514:6526  _gonBalances */\n      0x0c\n        /* \"sExodus/sOlympusERC20.sol\":6514:6532  _gonBalances[from] */\n      0x20\n      mstore\n      0x40\n      swap1\n      keccak256\n      sload\n        /* \"sExodus/sOlympusERC20.sol\":6443:6483  uint256 gonValue = gonsForBalance(value) */\n      swap1\n      swap2\n      pop\n        /* \"sExodus/sOlympusERC20.sol\":6514:6546  _gonBalances[from].sub(gonValue) */\n      tag_167\n      swap1\n        /* \"sExodus/sOlympusERC20.sol\":6443:6483  uint256 gonValue = gonsForBalance(value) */\n      dup3\n        /* \"sExodus/sOlympusERC20.sol\":6514:6536  _gonBalances[from].sub */\n      tag_165\n        /* \"sExodus/sOlympusERC20.sol\":6514:6546  _gonBalances[from].sub(gonValue) */\n      jump\t// in\n    tag_167:\n      sub(shl(0xa0, 0x01), 0x01)\n        /* \"sExodus/sOlympusERC20.sol\":6493:6511  _gonBalances[from] */\n      dup1\n      dup8\n      and\n      0x00\n      swap1\n      dup2\n      mstore\n        /* \"sExodus/sOlympusERC20.sol\":6493:6505  _gonBalances */\n      0x0c\n        /* \"sExodus/sOlympusERC20.sol\":6493:6511  _gonBalances[from] */\n      0x20\n      mstore\n      0x40\n      dup1\n      dup3\n      keccak256\n        /* \"sExodus/sOlympusERC20.sol\":6493:6546  _gonBalances[from] = _gonBalances[from].sub(gonValue) */\n      swap4\n      swap1\n      swap4\n      sstore\n        /* \"sExodus/sOlympusERC20.sol\":6575:6591  _gonBalances[to] */\n      swap1\n      dup7\n      and\n      dup2\n      mstore\n      keccak256\n      sload\n        /* \"sExodus/sOlympusERC20.sol\":6575:6605  _gonBalances[to].add(gonValue) */\n      tag_168\n      swap1\n        /* \"sExodus/sOlympusERC20.sol\":6596:6604  gonValue */\n      dup3\n        /* \"sExodus/sOlympusERC20.sol\":6575:6595  _gonBalances[to].add */\n      tag_142\n        /* \"sExodus/sOlympusERC20.sol\":6575:6605  _gonBalances[to].add(gonValue) */\n      jump\t// in\n    tag_168:\n      sub(shl(0xa0, 0x01), 0x01)\n        /* \"sExodus/sOlympusERC20.sol\":6556:6572  _gonBalances[to] */\n      dup1\n      dup7\n      and\n      0x00\n      swap1\n      dup2\n      mstore\n        /* \"sExodus/sOlympusERC20.sol\":6556:6568  _gonBalances */\n      0x0c\n        /* \"sExodus/sOlympusERC20.sol\":6556:6572  _gonBalances[to] */\n      0x20\n      swap1\n      dup2\n      mstore\n      0x40\n      dup1\n      dup4\n      keccak256\n        /* \"sExodus/sOlympusERC20.sol\":6556:6605  _gonBalances[to] = _gonBalances[to].add(gonValue) */\n      swap5\n      swap1\n      swap5\n      sstore\n        /* \"sExodus/sOlympusERC20.sol\":6643:6661  debtBalances[from] */\n      swap2\n      dup9\n      and\n      dup2\n      mstore\n        /* \"sExodus/sOlympusERC20.sol\":6643:6655  debtBalances */\n      0x0f\n        /* \"sExodus/sOlympusERC20.sol\":6643:6661  debtBalances[from] */\n      swap1\n      swap2\n      mstore\n      keccak256\n      sload\n        /* \"sExodus/sOlympusERC20.sol\":6624:6639  balanceOf(from) */\n      tag_169\n        /* \"sExodus/sOlympusERC20.sol\":6656:6660  from */\n      dup7\n        /* \"sExodus/sOlympusERC20.sol\":6624:6633  balanceOf */\n      tag_87\n        /* \"sExodus/sOlympusERC20.sol\":6624:6639  balanceOf(from) */\n      jump\t// in\n    tag_169:\n        /* \"sExodus/sOlympusERC20.sol\":6624:6661  balanceOf(from) >= debtBalances[from] */\n      lt\n      iszero\n        /* \"sExodus/sOlympusERC20.sol\":6616:6694  require(balanceOf(from) >= debtBalances[from], \"Debt: cannot transfer amount\") */\n      tag_170\n      jumpi\n      0x40\n      dup1\n      mload\n      shl(0xe5, 0x461bcd)\n      dup2\n      mstore\n      0x20\n      0x04\n      dup3\n      add\n      mstore\n      0x1c\n      0x24\n      dup3\n      add\n      mstore\n      0x446562743a2063616e6e6f74207472616e7366657220616d6f756e7400000000\n      0x44\n      dup3\n      add\n      mstore\n      swap1\n      mload\n      swap1\n      dup2\n      swap1\n      sub\n      0x64\n      add\n      swap1\n      revert\n    tag_170:\n        /* \"sExodus/sOlympusERC20.sol\":6724:6726  to */\n      dup4\n      sub(shl(0xa0, 0x01), 0x01)\n        /* \"sExodus/sOlympusERC20.sol\":6709:6734  Transfer(from, to, value) */\n      and\n        /* \"sExodus/sOlympusERC20.sol\":6718:6722  from */\n      dup6\n      sub(shl(0xa0, 0x01), 0x01)\n        /* \"sExodus/sOlympusERC20.sol\":6709:6734  Transfer(from, to, value) */\n      and\n      0xddf252ad1be2c89b69c2b068fc378daa952ba7f163c4a11628f55a4df523b3ef\n        /* \"sExodus/sOlympusERC20.sol\":6728:6733  value */\n      dup6\n        /* \"sExodus/sOlympusERC20.sol\":6709:6734  Transfer(from, to, value) */\n      mload(0x40)\n      dup1\n      dup3\n      dup2\n      mstore\n      0x20\n      add\n      swap2\n      pop\n      pop\n      mload(0x40)\n      dup1\n      swap2\n      sub\n      swap1\n      log3\n      pop\n        /* \"sExodus/sOlympusERC20.sol\":6751:6755  true */\n      0x01\n      swap5\n        /* \"sExodus/sOlympusERC20.sol\":6133:6762  function transferFrom(... */\n      swap4\n      pop\n      pop\n      pop\n      pop\n      jump\t// out\n        /* \"sExodus/sOlympusERC20.sol\":2777:3091  function setgOHM(address _gEXO) external {... */\n    tag_65:\n        /* \"sExodus/sOlympusERC20.sol\":2850:2861  initializer */\n      and(sub(shl(0xa0, 0x01), 0x01), sload(0x06))\n        /* \"sExodus/sOlympusERC20.sol\":2836:2846  msg.sender */\n      caller\n        /* \"sExodus/sOlympusERC20.sol\":2836:2861  msg.sender == initializer */\n      eq\n        /* \"sExodus/sOlympusERC20.sol\":2828:2905  require(msg.sender == initializer, \"Initializer:  caller is not initializer\") */\n      tag_172\n      jumpi\n      mload(0x40)\n      shl(0xe5, 0x461bcd)\n      dup2\n      mstore\n      0x04\n      add\n      dup1\n      dup1\n      0x20\n      add\n      dup3\n      dup2\n      sub\n      dup3\n      mstore\n      0x27\n      dup2\n      mstore\n      0x20\n      add\n      dup1\n      data_943a7f2fe776b1da8f1c593116d1db5f305d3c06d55576c45bce8bd0cf858a2e\n      0x27\n      swap2\n      codecopy\n      0x40\n      add\n      swap2\n      pop\n      pop\n      mload(0x40)\n      dup1\n      swap2\n      sub\n      swap1\n      revert\n    tag_172:\n        /* \"sExodus/sOlympusERC20.sol\":2931:2935  gEXO */\n      and(sub(shl(0xa0, 0x01), 0x01), sload(0x09))\n        /* \"sExodus/sOlympusERC20.sol\":2923:2950  address(gEXO) == address(0) */\n      iszero\n        /* \"sExodus/sOlympusERC20.sol\":2915:2978  require(address(gEXO) == address(0), \"gEXO:  gEXO already set\") */\n      tag_173\n      jumpi\n      0x40\n      dup1\n      mload\n      shl(0xe5, 0x461bcd)\n      dup2\n      mstore\n      0x20\n      0x04\n      dup3\n      add\n      mstore\n      0x17\n      0x24\n      dup3\n      add\n      mstore\n      0x6745584f3a20206745584f20616c726561647920736574000000000000000000\n      0x44\n      dup3\n      add\n      mstore\n      swap1\n      mload\n      swap1\n      dup2\n      swap1\n      sub\n      0x64\n      add\n      swap1\n      revert\n    tag_173:\n      sub(shl(0xa0, 0x01), 0x01)\n        /* \"sExodus/sOlympusERC20.sol\":2996:3015  _gEXO != address(0) */\n      dup2\n      and\n        /* \"sExodus/sOlympusERC20.sol\":2988:3055  require(_gEXO != address(0), \"gEXO:  gEXO is not a valid contract\") */\n      tag_174\n      jumpi\n      mload(0x40)\n      shl(0xe5, 0x461bcd)\n      dup2\n      mstore\n      0x04\n      add\n      dup1\n      dup1\n      0x20\n      add\n      dup3\n      dup2\n      sub\n      dup3\n      mstore\n      0x23\n      dup2\n      mstore\n      0x20\n      add\n      dup1\n      data_035b6bc83dafb7a2caf38cee64b612ce6a24918ce92e23821600bd75c1740717\n      0x23\n      swap2\n      codecopy\n      0x40\n      add\n      swap2\n      pop\n      pop\n      mload(0x40)\n      dup1\n      swap2\n      sub\n      swap1\n      revert\n    tag_174:\n        /* \"sExodus/sOlympusERC20.sol\":3065:3069  gEXO */\n      0x09\n        /* \"sExodus/sOlympusERC20.sol\":3065:3084  gEXO = IgEXO(_gEXO) */\n      dup1\n      sload\n      not(0xffffffffffffffffffffffffffffffffffffffff)\n      and\n      sub(shl(0xa0, 0x01), 0x01)\n      swap3\n      swap1\n      swap3\n      and\n      swap2\n      swap1\n      swap2\n      or\n      swap1\n      sstore\n        /* \"sExodus/sOlympusERC20.sol\":2777:3091  function setgOHM(address _gEXO) external {... */\n      jump\t// out\n        /* \"sExodus/sOlympusERC20.sol\":9780:9881  function index() public view override returns (uint256) {... */\n    tag_67:\n        /* \"sExodus/sOlympusERC20.sol\":9827:9834  uint256 */\n      0x00\n        /* \"sExodus/sOlympusERC20.sol\":9853:9874  balanceForGons(INDEX) */\n      tag_176\n        /* \"sExodus/sOlympusERC20.sol\":9868:9873  INDEX */\n      sload(0x07)\n        /* \"sExodus/sOlympusERC20.sol\":9853:9867  balanceForGons */\n      tag_93\n        /* \"sExodus/sOlympusERC20.sol\":9853:9874  balanceForGons(INDEX) */\n      jump\t// in\n    tag_176:\n        /* \"sExodus/sOlympusERC20.sol\":9846:9874  return balanceForGons(INDEX) */\n      swap1\n      pop\n        /* \"sExodus/sOlympusERC20.sol\":9780:9881  function index() public view override returns (uint256) {... */\n      swap1\n      jump\t// out\n        /* \"sExodus/sOlympusERC20.sol\":1288:1305  IgEXO public gEXO */\n    tag_69:\n      and(sub(shl(0xa0, 0x01), 0x01), sload(0x09))\n      dup2\n      jump\t// out\n        /* \"sExodus/ERC20.sol\":961:1050  function decimals() public view virtual returns (uint8) {... */\n    tag_71:\n        /* \"sExodus/ERC20.sol\":1034:1043  _decimals */\n      immutable(\"0x69de3b38836c938ac93bb31643655e6e0a011af0f354a009a432084d0f963864\")\n        /* \"sExodus/ERC20.sol\":961:1050  function decimals() public view virtual returns (uint8) {... */\n      swap1\n      jump\t// out\n        /* \"sExodus/ERC20Permit.sol\":2348:2461  function DOMAIN_SEPARATOR() external view override returns (bytes32) {... */\n    tag_73:\n        /* \"sExodus/ERC20Permit.sol\":2408:2415  bytes32 */\n      0x00\n        /* \"sExodus/ERC20Permit.sol\":2434:2454  _domainSeparatorV4() */\n      tag_176\n        /* \"sExodus/ERC20Permit.sol\":2434:2452  _domainSeparatorV4 */\n      tag_180\n        /* \"sExodus/ERC20Permit.sol\":2434:2454  _domainSeparatorV4() */\n      jump\t// in\n        /* \"sExodus/sOlympusERC20.sol\":6943:7157  function increaseAllowance(address spender, uint256 addedValue) public override returns (bool) {... */\n    tag_76:\n        /* \"sExodus/sOlympusERC20.sol\":7057:7067  msg.sender */\n      caller\n        /* \"sExodus/sOlympusERC20.sol\":7032:7036  bool */\n      0x00\n        /* \"sExodus/sOlympusERC20.sol\":7078:7103  _allowedValue[msg.sender] */\n      dup2\n      dup2\n      mstore\n        /* \"sExodus/sOlympusERC20.sol\":7078:7091  _allowedValue */\n      0x0d\n        /* \"sExodus/sOlympusERC20.sol\":7078:7103  _allowedValue[msg.sender] */\n      0x20\n      swap1\n      dup2\n      mstore\n      0x40\n      dup1\n      dup4\n      keccak256\n      sub(shl(0xa0, 0x01), 0x01)\n        /* \"sExodus/sOlympusERC20.sol\":7078:7112  _allowedValue[msg.sender][spender] */\n      dup8\n      and\n      dup5\n      mstore\n      swap1\n      swap2\n      mstore\n      dup2\n      keccak256\n      sload\n        /* \"sExodus/sOlympusERC20.sol\":7032:7036  bool */\n      swap1\n      swap2\n        /* \"sExodus/sOlympusERC20.sol\":7048:7129  _approve(msg.sender, spender, _allowedValue[msg.sender][spender].add(addedValue)) */\n      tag_158\n      swap2\n        /* \"sExodus/sOlympusERC20.sol\":7069:7076  spender */\n      dup6\n      swap1\n        /* \"sExodus/sOlympusERC20.sol\":7078:7128  _allowedValue[msg.sender][spender].add(addedValue) */\n      tag_183\n      swap1\n        /* \"sExodus/sOlympusERC20.sol\":7117:7127  addedValue */\n      dup7\n        /* \"sExodus/sOlympusERC20.sol\":7078:7116  _allowedValue[msg.sender][spender].add */\n      tag_142\n        /* \"sExodus/sOlympusERC20.sol\":7078:7128  _allowedValue[msg.sender][spender].add(addedValue) */\n      jump\t// in\n    tag_183:\n        /* \"sExodus/sOlympusERC20.sol\":7048:7056  _approve */\n      tag_159\n        /* \"sExodus/sOlympusERC20.sol\":7048:7129  _approve(msg.sender, spender, _allowedValue[msg.sender][spender].add(addedValue)) */\n      jump\t// in\n        /* \"sExodus/sOlympusERC20.sol\":2539:2771  function setIndex(uint256 _index) external {... */\n    tag_79:\n        /* \"sExodus/sOlympusERC20.sol\":2614:2625  initializer */\n      and(sub(shl(0xa0, 0x01), 0x01), sload(0x06))\n        /* \"sExodus/sOlympusERC20.sol\":2600:2610  msg.sender */\n      caller\n        /* \"sExodus/sOlympusERC20.sol\":2600:2625  msg.sender == initializer */\n      eq\n        /* \"sExodus/sOlympusERC20.sol\":2592:2669  require(msg.sender == initializer, \"Initializer:  caller is not initializer\") */\n      tag_185\n      jumpi\n      mload(0x40)\n      shl(0xe5, 0x461bcd)\n      dup2\n      mstore\n      0x04\n      add\n      dup1\n      dup1\n      0x20\n      add\n      dup3\n      dup2\n      sub\n      dup3\n      mstore\n      0x27\n      dup2\n      mstore\n      0x20\n      add\n      dup1\n      data_943a7f2fe776b1da8f1c593116d1db5f305d3c06d55576c45bce8bd0cf858a2e\n      0x27\n      swap2\n      codecopy\n      0x40\n      add\n      swap2\n      pop\n      pop\n      mload(0x40)\n      dup1\n      swap2\n      sub\n      swap1\n      revert\n    tag_185:\n        /* \"sExodus/sOlympusERC20.sol\":2687:2692  INDEX */\n      sload(0x07)\n        /* \"sExodus/sOlympusERC20.sol\":2687:2697  INDEX == 0 */\n      iszero\n        /* \"sExodus/sOlympusERC20.sol\":2679:2724  require(INDEX == 0, \"Cannot set INDEX again\") */\n      tag_186\n      jumpi\n      0x40\n      dup1\n      mload\n      shl(0xe5, 0x461bcd)\n      dup2\n      mstore\n      0x20\n      0x04\n      dup3\n      add\n      mstore\n      0x16\n      0x24\n      dup3\n      add\n      mstore\n      0x43616e6e6f742073657420494e44455820616761696e00000000000000000000\n      0x44\n      dup3\n      add\n      mstore\n      swap1\n      mload\n      swap1\n      dup2\n      swap1\n      sub\n      0x64\n      add\n      swap1\n      revert\n    tag_186:\n        /* \"sExodus/sOlympusERC20.sol\":2742:2764  gonsForBalance(_index) */\n      tag_187\n        /* \"sExodus/sOlympusERC20.sol\":2757:2763  _index */\n      dup2\n        /* \"sExodus/sOlympusERC20.sol\":2742:2756  gonsForBalance */\n      tag_59\n        /* \"sExodus/sOlympusERC20.sol\":2742:2764  gonsForBalance(_index) */\n      jump\t// in\n    tag_187:\n        /* \"sExodus/sOlympusERC20.sol\":2734:2739  INDEX */\n      0x07\n        /* \"sExodus/sOlympusERC20.sol\":2734:2764  INDEX = gonsForBalance(_index) */\n      sstore\n      pop\n        /* \"sExodus/sOlympusERC20.sol\":2539:2771  function setIndex(uint256 _index) external {... */\n      jump\t// out\n        /* \"sExodus/sOlympusERC20.sol\":3117:3702  function initialize(address _stakingContract, address _treasury) external {... */\n    tag_82:\n        /* \"sExodus/sOlympusERC20.sol\":3223:3234  initializer */\n      and(sub(shl(0xa0, 0x01), 0x01), sload(0x06))\n        /* \"sExodus/sOlympusERC20.sol\":3209:3219  msg.sender */\n      caller\n        /* \"sExodus/sOlympusERC20.sol\":3209:3234  msg.sender == initializer */\n      eq\n        /* \"sExodus/sOlympusERC20.sol\":3201:3278  require(msg.sender == initializer, \"Initializer:  caller is not initializer\") */\n      tag_189\n      jumpi\n      mload(0x40)\n      shl(0xe5, 0x461bcd)\n      dup2\n      mstore\n      0x04\n      add\n      dup1\n      dup1\n      0x20\n      add\n      dup3\n      dup2\n      sub\n      dup3\n      mstore\n      0x27\n      dup2\n      mstore\n      0x20\n      add\n      dup1\n      data_943a7f2fe776b1da8f1c593116d1db5f305d3c06d55576c45bce8bd0cf858a2e\n      0x27\n      swap2\n      codecopy\n      0x40\n      add\n      swap2\n      pop\n      pop\n      mload(0x40)\n      dup1\n      swap2\n      sub\n      swap1\n      revert\n    tag_189:\n      sub(shl(0xa0, 0x01), 0x01)\n        /* \"sExodus/sOlympusERC20.sol\":3297:3327  _stakingContract != address(0) */\n      dup3\n      and\n        /* \"sExodus/sOlympusERC20.sol\":3289:3339  require(_stakingContract != address(0), \"Staking\") */\n      tag_190\n      jumpi\n      0x40\n      dup1\n      mload\n      shl(0xe5, 0x461bcd)\n      dup2\n      mstore\n      0x20\n      0x04\n      dup3\n      add\n      mstore\n      0x07\n      0x24\n      dup3\n      add\n      mstore\n      0x5374616b696e6700000000000000000000000000000000000000000000000000\n      0x44\n      dup3\n      add\n      mstore\n      swap1\n      mload\n      swap1\n      dup2\n      swap1\n      sub\n      0x64\n      add\n      swap1\n      revert\n    tag_190:\n        /* \"sExodus/sOlympusERC20.sol\":3349:3364  stakingContract */\n      0x08\n        /* \"sExodus/sOlympusERC20.sol\":3349:3383  stakingContract = _stakingContract */\n      dup1\n      sload\n      not(0xffffffffffffffffffffffffffffffffffffffff)\n      and\n      sub(shl(0xa0, 0x01), 0x01)\n      dup5\n      dup2\n      and\n      swap2\n      swap1\n      swap2\n      or\n      swap2\n      dup3\n      swap1\n      sstore\n        /* \"sExodus/sOlympusERC20.sol\":3406:3421  stakingContract */\n      swap1\n      dup2\n      and\n      0x00\n        /* \"sExodus/sOlympusERC20.sol\":3393:3422  _gonBalances[stakingContract] */\n      swap1\n      dup2\n      mstore\n        /* \"sExodus/sOlympusERC20.sol\":3393:3405  _gonBalances */\n      0x0c\n        /* \"sExodus/sOlympusERC20.sol\":3393:3422  _gonBalances[stakingContract] */\n      0x20\n      mstore\n      0x40\n      swap1\n      keccak256\n      not(0x0e3d2cfe61ffff)\n        /* \"sExodus/sOlympusERC20.sol\":3393:3435  _gonBalances[stakingContract] = TOTAL_GONS */\n      swap1\n      sstore\n        /* \"sExodus/sOlympusERC20.sol\":3454:3477  _treasury != address(0) */\n      dup2\n      and\n        /* \"sExodus/sOlympusERC20.sol\":3446:3504  require(_treasury != address(0), \"Zero address: Treasury\") */\n      tag_192\n      jumpi\n      0x40\n      dup1\n      mload\n      shl(0xe5, 0x461bcd)\n      dup2\n      mstore\n      0x20\n      0x04\n      dup3\n      add\n      mstore\n      0x16\n      0x24\n      dup3\n      add\n      mstore\n      0x5a65726f20616464726573733a20547265617375727900000000000000000000\n      0x44\n      dup3\n      add\n      mstore\n      swap1\n      mload\n      swap1\n      dup2\n      swap1\n      sub\n      0x64\n      add\n      swap1\n      revert\n    tag_192:\n        /* \"sExodus/sOlympusERC20.sol\":3514:3522  treasury */\n      0x0e\n        /* \"sExodus/sOlympusERC20.sol\":3514:3534  treasury = _treasury */\n      dup1\n      sload\n      not(0xffffffffffffffffffffffffffffffffffffffff)\n      and\n      sub(shl(0xa0, 0x01), 0x01)\n      dup4\n      dup2\n      and\n      swap2\n      swap1\n      swap2\n      or\n      swap1\n      swap2\n      sstore\n        /* \"sExodus/sOlympusERC20.sol\":3573:3588  stakingContract */\n      sload(0x08)\n        /* \"sExodus/sOlympusERC20.sol\":3590:3602  _totalSupply */\n      sload(0x02)\n        /* \"sExodus/sOlympusERC20.sol\":3550:3603  Transfer(address(0x0), stakingContract, _totalSupply) */\n      0x40\n      dup1\n      mload\n      swap2\n      dup3\n      mstore\n      mload\n        /* \"sExodus/sOlympusERC20.sol\":3573:3588  stakingContract */\n      swap2\n      swap1\n      swap3\n      and\n      swap2\n      0x00\n      swap2\n        /* \"sExodus/sOlympusERC20.sol\":3550:3603  Transfer(address(0x0), stakingContract, _totalSupply) */\n      0xddf252ad1be2c89b69c2b068fc378daa952ba7f163c4a11628f55a4df523b3ef\n      swap2\n      0x20\n      swap1\n      dup3\n      swap1\n      sub\n      add\n      swap1\n      log3\n        /* \"sExodus/sOlympusERC20.sol\":3644:3659  stakingContract */\n      sload(0x08)\n        /* \"sExodus/sOlympusERC20.sol\":3618:3660  LogStakingContractUpdated(stakingContract) */\n      0x40\n      dup1\n      mload\n      sub(shl(0xa0, 0x01), 0x01)\n        /* \"sExodus/sOlympusERC20.sol\":3644:3659  stakingContract */\n      swap1\n      swap3\n      and\n        /* \"sExodus/sOlympusERC20.sol\":3618:3660  LogStakingContractUpdated(stakingContract) */\n      dup3\n      mstore\n      mload\n      0x817c653428858ed536dc085c5d8273734c517b55de44b55f5c5877a75e3373a1\n      swap2\n      dup2\n      swap1\n      sub\n      0x20\n      add\n      swap1\n      log1\n      pop\n      pop\n        /* \"sExodus/sOlympusERC20.sol\":3671:3682  initializer */\n      0x06\n        /* \"sExodus/sOlympusERC20.sol\":3671:3695  initializer = address(0) */\n      dup1\n      sload\n      not(0xffffffffffffffffffffffffffffffffffffffff)\n      and\n      swap1\n      sstore\n        /* \"sExodus/sOlympusERC20.sol\":3117:3702  function initialize(address _stakingContract, address _treasury) external {... */\n      jump\t// out\n        /* \"sExodus/sOlympusERC20.sol\":2130:2153  address public treasury */\n    tag_84:\n      and(sub(shl(0xa0, 0x01), 0x01), sload(0x0e))\n      dup2\n      jump\t// out\n        /* \"sExodus/sOlympusERC20.sol\":8538:8687  function balanceOf(address who) public view override(IERC20, ERC20) returns (uint256) {... */\n    tag_87:\n        /* \"sExodus/sOlympusERC20.sol\":8663:8679  _gonsPerFragment */\n      sload(0x0b)\n      sub(shl(0xa0, 0x01), 0x01)\n        /* \"sExodus/sOlympusERC20.sol\":8641:8658  _gonBalances[who] */\n      dup3\n      and\n        /* \"sExodus/sOlympusERC20.sol\":8615:8622  uint256 */\n      0x00\n        /* \"sExodus/sOlympusERC20.sol\":8641:8658  _gonBalances[who] */\n      swap1\n      dup2\n      mstore\n        /* \"sExodus/sOlympusERC20.sol\":8641:8653  _gonBalances */\n      0x0c\n        /* \"sExodus/sOlympusERC20.sol\":8641:8658  _gonBalances[who] */\n      0x20\n      mstore\n      0x40\n      dup2\n      keccak256\n      sload\n        /* \"sExodus/sOlympusERC20.sol\":8615:8622  uint256 */\n      swap1\n      swap2\n        /* \"sExodus/sOlympusERC20.sol\":8641:8680  _gonBalances[who].div(_gonsPerFragment) */\n      tag_131\n      swap2\n        /* \"sExodus/sOlympusERC20.sol\":8641:8658  _gonBalances[who] */\n      swap1\n        /* \"sExodus/sOlympusERC20.sol\":8641:8662  _gonBalances[who].div */\n      tag_128\n        /* \"sExodus/sOlympusERC20.sol\":8641:8680  _gonBalances[who].div(_gonsPerFragment) */\n      jump\t// in\n        /* \"sExodus/sOlympusERC20.sol\":1359:1382  Rebase[] public rebases */\n    tag_90:\n      0x0a\n      dup2\n      dup2\n      sload\n      dup2\n      lt\n      tag_195\n      jumpi\n      0x00\n      dup1\n      revert\n    tag_195:\n      swap1\n      0x00\n      mstore\n      keccak256(0x00, 0x20)\n      swap1\n      0x07\n      mul\n      add\n      0x00\n      swap2\n      pop\n      swap1\n      pop\n      dup1\n      0x00\n      add\n      sload\n      swap1\n      dup1\n      0x01\n      add\n      sload\n      swap1\n      dup1\n      0x02\n      add\n      sload\n      swap1\n      dup1\n      0x03\n      add\n      sload\n      swap1\n      dup1\n      0x04\n      add\n      sload\n      swap1\n      dup1\n      0x05\n      add\n      sload\n      swap1\n      dup1\n      0x06\n      add\n      sload\n      swap1\n      pop\n      dup8\n      jump\t// out\n        /* \"sExodus/sOlympusERC20.sol\":8830:8957  function balanceForGons(uint256 gons) public view override returns (uint256) {... */\n    tag_93:\n        /* \"sExodus/sOlympusERC20.sol\":8898:8905  uint256 */\n      0x00\n        /* \"sExodus/sOlympusERC20.sol\":8924:8950  gons.div(_gonsPerFragment) */\n      tag_131\n        /* \"sExodus/sOlympusERC20.sol\":8933:8949  _gonsPerFragment */\n      sload(0x0b)\n        /* \"sExodus/sOlympusERC20.sol\":8924:8928  gons */\n      dup4\n        /* \"sExodus/sOlympusERC20.sol\":8924:8932  gons.div */\n      tag_128\n      swap1\n        /* \"sExodus/sOlympusERC20.sol\":8924:8950  gons.div(_gonsPerFragment) */\n      swap2\n      swap1\n      0xffffffff\n      and\n      jump\t// in\n        /* \"sExodus/ERC20Permit.sol\":2098:2224  function nonces(address owner) public view virtual override returns (uint256) {... */\n    tag_96:\n      sub(shl(0xa0, 0x01), 0x01)\n        /* \"sExodus/ERC20Permit.sol\":2193:2207  _nonces[owner] */\n      dup2\n      and\n        /* \"sExodus/ERC20Permit.sol\":2167:2174  uint256 */\n      0x00\n        /* \"sExodus/ERC20Permit.sol\":2193:2207  _nonces[owner] */\n      swap1\n      dup2\n      mstore\n        /* \"sExodus/ERC20Permit.sol\":2193:2200  _nonces */\n      0x05\n        /* \"sExodus/ERC20Permit.sol\":2193:2207  _nonces[owner] */\n      0x20\n      mstore\n      0x40\n      dup2\n      keccak256\n        /* \"sExodus/ERC20Permit.sol\":2193:2217  _nonces[owner].current() */\n      tag_131\n      swap1\n        /* \"sExodus/ERC20Permit.sol\":2193:2215  _nonces[owner].current */\n      tag_201\n        /* \"sExodus/ERC20Permit.sol\":2193:2217  _nonces[owner].current() */\n      jump\t// in\n        /* \"sExodus/sOlympusERC20.sol\":9489:9774  function circulatingSupply() public view override returns (uint256) {... */\n    tag_98:\n        /* \"sExodus/sOlympusERC20.sol\":9548:9555  uint256 */\n      0x00\n        /* \"sExodus/sOlympusERC20.sol\":9586:9767  _totalSupply.sub(balanceOf(stakingContract)).add(gEXO.balanceFrom(IERC20(address(gEXO)).totalSupply())).add(... */\n      tag_176\n        /* \"sExodus/sOlympusERC20.sol\":9720:9735  stakingContract */\n      0x08\n      0x00\n      swap1\n      sload\n      swap1\n      0x0100\n      exp\n      swap1\n      div\n      sub(shl(0xa0, 0x01), 0x01)\n      and\n      sub(shl(0xa0, 0x01), 0x01)\n        /* \"sExodus/sOlympusERC20.sol\":9711:9751  IStaking(stakingContract).supplyInWarmup */\n      and\n      0x20138641\n        /* \"sExodus/sOlympusERC20.sol\":9711:9753  IStaking(stakingContract).supplyInWarmup() */\n      mload(0x40)\n      dup2\n      0xffffffff\n      and\n      0xe0\n      shl\n      dup2\n      mstore\n      0x04\n      add\n      0x20\n      mload(0x40)\n      dup1\n      dup4\n      sub\n      dup2\n      dup7\n      dup1\n      extcodesize\n      iszero\n      dup1\n      iszero\n      tag_204\n      jumpi\n      0x00\n      dup1\n      revert\n    tag_204:\n      pop\n      gas\n      staticcall\n      iszero\n      dup1\n      iszero\n      tag_206\n      jumpi\n      returndatasize\n      0x00\n      dup1\n      returndatacopy\n      revert(0x00, returndatasize)\n    tag_206:\n      pop\n      pop\n      pop\n      pop\n      mload(0x40)\n      returndatasize\n      0x20\n      dup2\n      lt\n      iszero\n      tag_207\n      jumpi\n      0x00\n      dup1\n      revert\n    tag_207:\n      pop\n      mload\n        /* \"sExodus/sOlympusERC20.sol\":9635:9639  gEXO */\n      sload(0x09)\n        /* \"sExodus/sOlympusERC20.sol\":9652:9687  IERC20(address(gEXO)).totalSupply() */\n      0x40\n      dup1\n      mload\n      0x18160ddd00000000000000000000000000000000000000000000000000000000\n      dup2\n      mstore\n      swap1\n      mload\n        /* \"sExodus/sOlympusERC20.sol\":9586:9689  _totalSupply.sub(balanceOf(stakingContract)).add(gEXO.balanceFrom(IERC20(address(gEXO)).totalSupply())) */\n      tag_217\n      swap3\n      sub(shl(0xa0, 0x01), 0x01)\n        /* \"sExodus/sOlympusERC20.sol\":9635:9639  gEXO */\n      and\n      swap2\n        /* \"sExodus/sOlympusERC20.sol\":9635:9651  gEXO.balanceFrom */\n      0xa8248768\n      swap2\n        /* \"sExodus/sOlympusERC20.sol\":9635:9639  gEXO */\n      dup4\n      swap2\n        /* \"sExodus/sOlympusERC20.sol\":9652:9685  IERC20(address(gEXO)).totalSupply */\n      0x18160ddd\n      swap2\n        /* \"sExodus/sOlympusERC20.sol\":9652:9687  IERC20(address(gEXO)).totalSupply() */\n      0x04\n      dup1\n      dup4\n      add\n      swap3\n        /* \"sExodus/sOlympusERC20.sol\":9711:9753  IStaking(stakingContract).supplyInWarmup() */\n      0x20\n      swap3\n        /* \"sExodus/sOlympusERC20.sol\":9652:9687  IERC20(address(gEXO)).totalSupply() */\n      swap2\n      swap1\n      dup3\n      swap1\n      sub\n      add\n      dup2\n        /* \"sExodus/sOlympusERC20.sol\":9635:9639  gEXO */\n      dup7\n        /* \"sExodus/sOlympusERC20.sol\":9652:9687  IERC20(address(gEXO)).totalSupply() */\n      dup1\n      extcodesize\n      iszero\n      dup1\n      iszero\n      tag_209\n      jumpi\n      0x00\n      dup1\n      revert\n    tag_209:\n      pop\n      gas\n      staticcall\n      iszero\n      dup1\n      iszero\n      tag_211\n      jumpi\n      returndatasize\n      0x00\n      dup1\n      returndatacopy\n      revert(0x00, returndatasize)\n    tag_211:\n      pop\n      pop\n      pop\n      pop\n      mload(0x40)\n      returndatasize\n      0x20\n      dup2\n      lt\n      iszero\n      tag_212\n      jumpi\n      0x00\n      dup1\n      revert\n    tag_212:\n      pop\n      mload\n        /* \"sExodus/sOlympusERC20.sol\":9635:9688  gEXO.balanceFrom(IERC20(address(gEXO)).totalSupply()) */\n      0x40\n      dup1\n      mload\n      0xffffffff00000000000000000000000000000000000000000000000000000000\n      0xe0\n      dup6\n      swap1\n      shl\n      and\n      dup2\n      mstore\n      0x04\n      dup2\n      add\n      swap3\n      swap1\n      swap3\n      mstore\n      mload\n      0x24\n      dup1\n      dup4\n      add\n      swap3\n        /* \"sExodus/sOlympusERC20.sol\":9652:9687  IERC20(address(gEXO)).totalSupply() */\n      0x20\n      swap3\n        /* \"sExodus/sOlympusERC20.sol\":9635:9688  gEXO.balanceFrom(IERC20(address(gEXO)).totalSupply()) */\n      swap2\n      swap1\n      dup3\n      swap1\n      sub\n      add\n      dup2\n      dup7\n      dup1\n      extcodesize\n      iszero\n      dup1\n      iszero\n      tag_213\n      jumpi\n      0x00\n      dup1\n      revert\n    tag_213:\n      pop\n      gas\n      staticcall\n      iszero\n      dup1\n      iszero\n      tag_215\n      jumpi\n      returndatasize\n      0x00\n      dup1\n      returndatacopy\n      revert(0x00, returndatasize)\n    tag_215:\n      pop\n      pop\n      pop\n      pop\n      mload(0x40)\n      returndatasize\n      0x20\n      dup2\n      lt\n      iszero\n      tag_216\n      jumpi\n      0x00\n      dup1\n      revert\n    tag_216:\n      pop\n      mload\n        /* \"sExodus/sOlympusERC20.sol\":9613:9628  stakingContract */\n      sload(0x08)\n        /* \"sExodus/sOlympusERC20.sol\":9586:9630  _totalSupply.sub(balanceOf(stakingContract)) */\n      tag_217\n      swap1\n        /* \"sExodus/sOlympusERC20.sol\":9603:9629  balanceOf(stakingContract) */\n      tag_218\n      swap1\n      sub(shl(0xa0, 0x01), 0x01)\n        /* \"sExodus/sOlympusERC20.sol\":9613:9628  stakingContract */\n      and\n        /* \"sExodus/sOlympusERC20.sol\":9603:9612  balanceOf */\n      tag_87\n        /* \"sExodus/sOlympusERC20.sol\":9603:9629  balanceOf(stakingContract) */\n      jump\t// in\n    tag_218:\n        /* \"sExodus/sOlympusERC20.sol\":9586:9598  _totalSupply */\n      sload(0x02)\n      swap1\n        /* \"sExodus/sOlympusERC20.sol\":9586:9602  _totalSupply.sub */\n      tag_165\n        /* \"sExodus/sOlympusERC20.sol\":9586:9630  _totalSupply.sub(balanceOf(stakingContract)) */\n      jump\t// in\n    tag_217:\n        /* \"sExodus/sOlympusERC20.sol\":9586:9634  _totalSupply.sub(balanceOf(stakingContract)).add */\n      swap1\n      tag_142\n        /* \"sExodus/sOlympusERC20.sol\":9586:9689  _totalSupply.sub(balanceOf(stakingContract)).add(gEXO.balanceFrom(IERC20(address(gEXO)).totalSupply())) */\n      jump\t// in\n        /* \"sExodus/ERC20.sol\":870:955  function symbol() public view returns (string memory) {... */\n    tag_100:\n        /* \"sExodus/ERC20.sol\":941:948  _symbol */\n      0x04\n        /* \"sExodus/ERC20.sol\":934:948  return _symbol */\n      dup1\n      sload\n      0x40\n      dup1\n      mload\n      0x20\n      0x1f\n      0x02\n      not(0x00)\n      0x0100\n      0x01\n      dup9\n      and\n      iszero\n      mul\n      add\n      swap1\n      swap6\n      and\n      swap5\n      swap1\n      swap5\n      div\n      swap4\n      dup5\n      add\n      dup2\n      swap1\n      div\n      dup2\n      mul\n      dup3\n      add\n      dup2\n      add\n      swap1\n      swap3\n      mstore\n      dup3\n      dup2\n      mstore\n        /* \"sExodus/ERC20.sol\":909:922  string memory */\n      0x60\n      swap4\n        /* \"sExodus/ERC20.sol\":934:948  return _symbol */\n      swap1\n      swap3\n        /* \"sExodus/ERC20.sol\":941:948  _symbol */\n      swap1\n      swap2\n        /* \"sExodus/ERC20.sol\":934:948  return _symbol */\n      dup4\n      add\n        /* \"sExodus/ERC20.sol\":941:948  _symbol */\n      dup3\n        /* \"sExodus/ERC20.sol\":934:948  return _symbol */\n      dup3\n      dup1\n      iszero\n      tag_149\n      jumpi\n      dup1\n      0x1f\n      lt\n      tag_150\n      jumpi\n      0x0100\n      dup1\n      dup4\n      sload\n      div\n      mul\n      dup4\n      mstore\n      swap2\n      0x20\n      add\n      swap2\n      jump(tag_149)\n        /* \"sExodus/sOlympusERC20.sol\":7163:7544  function decreaseAllowance(address spender, uint256 subtractedValue) public override returns (bool) {... */\n    tag_107:\n        /* \"sExodus/sOlympusERC20.sol\":7306:7316  msg.sender */\n      caller\n        /* \"sExodus/sOlympusERC20.sol\":7257:7261  bool */\n      0x00\n        /* \"sExodus/sOlympusERC20.sol\":7292:7317  _allowedValue[msg.sender] */\n      swap1\n      dup2\n      mstore\n        /* \"sExodus/sOlympusERC20.sol\":7292:7305  _allowedValue */\n      0x0d\n        /* \"sExodus/sOlympusERC20.sol\":7292:7317  _allowedValue[msg.sender] */\n      0x20\n      swap1\n      dup2\n      mstore\n      0x40\n      dup1\n      dup4\n      keccak256\n      sub(shl(0xa0, 0x01), 0x01)\n        /* \"sExodus/sOlympusERC20.sol\":7292:7326  _allowedValue[msg.sender][spender] */\n      dup7\n      and\n      dup5\n      mstore\n      swap1\n      swap2\n      mstore\n      dup2\n      keccak256\n      sload\n        /* \"sExodus/sOlympusERC20.sol\":7340:7367  subtractedValue >= oldValue */\n      dup1\n      dup4\n      lt\n        /* \"sExodus/sOlympusERC20.sol\":7336:7517  if (subtractedValue >= oldValue) {... */\n      tag_224\n      jumpi\n        /* \"sExodus/sOlympusERC20.sol\":7383:7415  _approve(msg.sender, spender, 0) */\n      tag_225\n        /* \"sExodus/sOlympusERC20.sol\":7392:7402  msg.sender */\n      caller\n        /* \"sExodus/sOlympusERC20.sol\":7404:7411  spender */\n      dup6\n        /* \"sExodus/sOlympusERC20.sol\":7413:7414  0 */\n      0x00\n        /* \"sExodus/sOlympusERC20.sol\":7383:7391  _approve */\n      tag_159\n        /* \"sExodus/sOlympusERC20.sol\":7383:7415  _approve(msg.sender, spender, 0) */\n      jump\t// in\n    tag_225:\n        /* \"sExodus/sOlympusERC20.sol\":7336:7517  if (subtractedValue >= oldValue) {... */\n      jump(tag_227)\n    tag_224:\n        /* \"sExodus/sOlympusERC20.sol\":7446:7506  _approve(msg.sender, spender, oldValue.sub(subtractedValue)) */\n      tag_227\n        /* \"sExodus/sOlympusERC20.sol\":7455:7465  msg.sender */\n      caller\n        /* \"sExodus/sOlympusERC20.sol\":7467:7474  spender */\n      dup6\n        /* \"sExodus/sOlympusERC20.sol\":7476:7505  oldValue.sub(subtractedValue) */\n      tag_183\n        /* \"sExodus/sOlympusERC20.sol\":7476:7484  oldValue */\n      dup5\n        /* \"sExodus/sOlympusERC20.sol\":7489:7504  subtractedValue */\n      dup8\n        /* \"sExodus/sOlympusERC20.sol\":7476:7488  oldValue.sub */\n      tag_165\n        /* \"sExodus/sOlympusERC20.sol\":7476:7505  oldValue.sub(subtractedValue) */\n      jump\t// in\n        /* \"sExodus/sOlympusERC20.sol\":7446:7506  _approve(msg.sender, spender, oldValue.sub(subtractedValue)) */\n    tag_227:\n      pop\n        /* \"sExodus/sOlympusERC20.sol\":7533:7537  true */\n      0x01\n      swap4\n        /* \"sExodus/sOlympusERC20.sol\":7163:7544  function decreaseAllowance(address spender, uint256 subtractedValue) public override returns (bool) {... */\n      swap3\n      pop\n      pop\n      pop\n      jump\t// out\n        /* \"sExodus/sOlympusERC20.sol\":5670:6127  function transfer(address to, uint256 value) public override(IERC20, ERC20) returns (bool) {... */\n    tag_110:\n        /* \"sExodus/sOlympusERC20.sol\":5755:5759  bool */\n      0x00\n        /* \"sExodus/sOlympusERC20.sol\":5771:5787  uint256 gonValue */\n      dup1\n        /* \"sExodus/sOlympusERC20.sol\":5790:5817  value.mul(_gonsPerFragment) */\n      tag_230\n        /* \"sExodus/sOlympusERC20.sol\":5800:5816  _gonsPerFragment */\n      sload(0x0b)\n        /* \"sExodus/sOlympusERC20.sol\":5790:5795  value */\n      dup5\n        /* \"sExodus/sOlympusERC20.sol\":5790:5799  value.mul */\n      tag_139\n      swap1\n        /* \"sExodus/sOlympusERC20.sol\":5790:5817  value.mul(_gonsPerFragment) */\n      swap2\n      swap1\n      0xffffffff\n      and\n      jump\t// in\n    tag_230:\n        /* \"sExodus/sOlympusERC20.sol\":5868:5878  msg.sender */\n      caller\n        /* \"sExodus/sOlympusERC20.sol\":5855:5879  _gonBalances[msg.sender] */\n      0x00\n      swap1\n      dup2\n      mstore\n        /* \"sExodus/sOlympusERC20.sol\":5855:5867  _gonBalances */\n      0x0c\n        /* \"sExodus/sOlympusERC20.sol\":5855:5879  _gonBalances[msg.sender] */\n      0x20\n      mstore\n      0x40\n      swap1\n      keccak256\n      sload\n        /* \"sExodus/sOlympusERC20.sol\":5771:5817  uint256 gonValue = value.mul(_gonsPerFragment) */\n      swap1\n      swap2\n      pop\n        /* \"sExodus/sOlympusERC20.sol\":5855:5893  _gonBalances[msg.sender].sub(gonValue) */\n      tag_231\n      swap1\n        /* \"sExodus/sOlympusERC20.sol\":5771:5817  uint256 gonValue = value.mul(_gonsPerFragment) */\n      dup3\n        /* \"sExodus/sOlympusERC20.sol\":5855:5883  _gonBalances[msg.sender].sub */\n      tag_165\n        /* \"sExodus/sOlympusERC20.sol\":5855:5893  _gonBalances[msg.sender].sub(gonValue) */\n      jump\t// in\n    tag_231:\n        /* \"sExodus/sOlympusERC20.sol\":5841:5851  msg.sender */\n      caller\n        /* \"sExodus/sOlympusERC20.sol\":5828:5852  _gonBalances[msg.sender] */\n      0x00\n      swap1\n      dup2\n      mstore\n        /* \"sExodus/sOlympusERC20.sol\":5828:5840  _gonBalances */\n      0x0c\n        /* \"sExodus/sOlympusERC20.sol\":5828:5852  _gonBalances[msg.sender] */\n      0x20\n      mstore\n      0x40\n      dup1\n      dup3\n      keccak256\n        /* \"sExodus/sOlympusERC20.sol\":5828:5893  _gonBalances[msg.sender] = _gonBalances[msg.sender].sub(gonValue) */\n      swap3\n      swap1\n      swap3\n      sstore\n      sub(shl(0xa0, 0x01), 0x01)\n        /* \"sExodus/sOlympusERC20.sol\":5922:5938  _gonBalances[to] */\n      dup7\n      and\n      dup2\n      mstore\n      keccak256\n      sload\n        /* \"sExodus/sOlympusERC20.sol\":5922:5952  _gonBalances[to].add(gonValue) */\n      tag_232\n      swap1\n        /* \"sExodus/sOlympusERC20.sol\":5943:5951  gonValue */\n      dup3\n        /* \"sExodus/sOlympusERC20.sol\":5922:5942  _gonBalances[to].add */\n      tag_142\n        /* \"sExodus/sOlympusERC20.sol\":5922:5952  _gonBalances[to].add(gonValue) */\n      jump\t// in\n    tag_232:\n      sub(shl(0xa0, 0x01), 0x01)\n        /* \"sExodus/sOlympusERC20.sol\":5903:5919  _gonBalances[to] */\n      dup6\n      and\n      0x00\n      swap1\n      dup2\n      mstore\n        /* \"sExodus/sOlympusERC20.sol\":5903:5915  _gonBalances */\n      0x0c\n        /* \"sExodus/sOlympusERC20.sol\":5903:5919  _gonBalances[to] */\n      0x20\n      swap1\n      dup2\n      mstore\n      0x40\n      dup1\n      dup4\n      keccak256\n        /* \"sExodus/sOlympusERC20.sol\":5903:5952  _gonBalances[to] = _gonBalances[to].add(gonValue) */\n      swap4\n      swap1\n      swap4\n      sstore\n        /* \"sExodus/sOlympusERC20.sol\":6009:6019  msg.sender */\n      caller\n        /* \"sExodus/sOlympusERC20.sol\":5996:6020  debtBalances[msg.sender] */\n      dup1\n      dup4\n      mstore\n        /* \"sExodus/sOlympusERC20.sol\":5996:6008  debtBalances */\n      0x0f\n        /* \"sExodus/sOlympusERC20.sol\":5996:6020  debtBalances[msg.sender] */\n      swap1\n      swap2\n      mstore\n      swap2\n      swap1\n      keccak256\n      sload\n      swap1\n        /* \"sExodus/sOlympusERC20.sol\":5971:5992  balanceOf(msg.sender) */\n      tag_233\n      swap1\n        /* \"sExodus/sOlympusERC20.sol\":5971:5980  balanceOf */\n      tag_87\n        /* \"sExodus/sOlympusERC20.sol\":5971:5992  balanceOf(msg.sender) */\n      jump\t// in\n    tag_233:\n        /* \"sExodus/sOlympusERC20.sol\":5971:6020  balanceOf(msg.sender) >= debtBalances[msg.sender] */\n      lt\n      iszero\n        /* \"sExodus/sOlympusERC20.sol\":5963:6053  require(balanceOf(msg.sender) >= debtBalances[msg.sender], \"Debt: cannot transfer amount\") */\n      tag_234\n      jumpi\n      0x40\n      dup1\n      mload\n      shl(0xe5, 0x461bcd)\n      dup2\n      mstore\n      0x20\n      0x04\n      dup3\n      add\n      mstore\n      0x1c\n      0x24\n      dup3\n      add\n      mstore\n      0x446562743a2063616e6e6f74207472616e7366657220616d6f756e7400000000\n      0x44\n      dup3\n      add\n      mstore\n      swap1\n      mload\n      swap1\n      dup2\n      swap1\n      sub\n      0x64\n      add\n      swap1\n      revert\n    tag_234:\n        /* \"sExodus/sOlympusERC20.sol\":6068:6099  Transfer(msg.sender, to, value) */\n      0x40\n      dup1\n      mload\n      dup5\n      dup2\n      mstore\n      swap1\n      mload\n      sub(shl(0xa0, 0x01), 0x01)\n      dup7\n      and\n      swap2\n        /* \"sExodus/sOlympusERC20.sol\":6077:6087  msg.sender */\n      caller\n      swap2\n        /* \"sExodus/sOlympusERC20.sol\":6068:6099  Transfer(msg.sender, to, value) */\n      0xddf252ad1be2c89b69c2b068fc378daa952ba7f163c4a11628f55a4df523b3ef\n      swap2\n      dup2\n      swap1\n      sub\n      0x20\n      add\n      swap1\n      log3\n      pop\n        /* \"sExodus/sOlympusERC20.sol\":6116:6120  true */\n      0x01\n      swap4\n        /* \"sExodus/sOlympusERC20.sol\":5670:6127  function transfer(address to, uint256 value) public override(IERC20, ERC20) returns (bool) {... */\n      swap3\n      pop\n      pop\n      pop\n      jump\t// out\n        /* \"sExodus/sOlympusERC20.sol\":7756:8205  function changeDebt(... */\n    tag_113:\n        /* \"sExodus/sOlympusERC20.sol\":7898:7906  treasury */\n      and(sub(shl(0xa0, 0x01), 0x01), sload(0x0e))\n        /* \"sExodus/sOlympusERC20.sol\":7884:7894  msg.sender */\n      caller\n        /* \"sExodus/sOlympusERC20.sol\":7884:7906  msg.sender == treasury */\n      eq\n        /* \"sExodus/sOlympusERC20.sol\":7876:7924  require(msg.sender == treasury, \"Only treasury\") */\n      tag_236\n      jumpi\n      0x40\n      dup1\n      mload\n      shl(0xe5, 0x461bcd)\n      dup2\n      mstore\n      0x20\n      0x04\n      dup3\n      add\n      mstore\n      0x0d\n      0x24\n      dup3\n      add\n      mstore\n      0x4f6e6c7920747265617375727900000000000000000000000000000000000000\n      0x44\n      dup3\n      add\n      mstore\n      swap1\n      mload\n      swap1\n      dup2\n      swap1\n      sub\n      0x64\n      add\n      swap1\n      revert\n    tag_236:\n        /* \"sExodus/sOlympusERC20.sol\":7938:7941  add */\n      dup1\n        /* \"sExodus/sOlympusERC20.sol\":7934:8109  if (add) {... */\n      iszero\n      tag_237\n      jumpi\n      sub(shl(0xa0, 0x01), 0x01)\n        /* \"sExodus/sOlympusERC20.sol\":7980:8000  debtBalances[debtor] */\n      dup3\n      and\n      0x00\n      swap1\n      dup2\n      mstore\n        /* \"sExodus/sOlympusERC20.sol\":7980:7992  debtBalances */\n      0x0f\n        /* \"sExodus/sOlympusERC20.sol\":7980:8000  debtBalances[debtor] */\n      0x20\n      mstore\n      0x40\n      swap1\n      keccak256\n      sload\n        /* \"sExodus/sOlympusERC20.sol\":7980:8012  debtBalances[debtor].add(amount) */\n      tag_238\n      swap1\n        /* \"sExodus/sOlympusERC20.sol\":8005:8011  amount */\n      dup5\n        /* \"sExodus/sOlympusERC20.sol\":7980:8004  debtBalances[debtor].add */\n      tag_142\n        /* \"sExodus/sOlympusERC20.sol\":7980:8012  debtBalances[debtor].add(amount) */\n      jump\t// in\n    tag_238:\n      sub(shl(0xa0, 0x01), 0x01)\n        /* \"sExodus/sOlympusERC20.sol\":7957:7977  debtBalances[debtor] */\n      dup4\n      and\n      0x00\n      swap1\n      dup2\n      mstore\n        /* \"sExodus/sOlympusERC20.sol\":7957:7969  debtBalances */\n      0x0f\n        /* \"sExodus/sOlympusERC20.sol\":7957:7977  debtBalances[debtor] */\n      0x20\n      mstore\n      0x40\n      swap1\n      keccak256\n        /* \"sExodus/sOlympusERC20.sol\":7957:8012  debtBalances[debtor] = debtBalances[debtor].add(amount) */\n      sstore\n        /* \"sExodus/sOlympusERC20.sol\":7934:8109  if (add) {... */\n      jump(tag_239)\n    tag_237:\n      sub(shl(0xa0, 0x01), 0x01)\n        /* \"sExodus/sOlympusERC20.sol\":8066:8086  debtBalances[debtor] */\n      dup3\n      and\n      0x00\n      swap1\n      dup2\n      mstore\n        /* \"sExodus/sOlympusERC20.sol\":8066:8078  debtBalances */\n      0x0f\n        /* \"sExodus/sOlympusERC20.sol\":8066:8086  debtBalances[debtor] */\n      0x20\n      mstore\n      0x40\n      swap1\n      keccak256\n      sload\n        /* \"sExodus/sOlympusERC20.sol\":8066:8098  debtBalances[debtor].sub(amount) */\n      tag_240\n      swap1\n        /* \"sExodus/sOlympusERC20.sol\":8091:8097  amount */\n      dup5\n        /* \"sExodus/sOlympusERC20.sol\":8066:8090  debtBalances[debtor].sub */\n      tag_165\n        /* \"sExodus/sOlympusERC20.sol\":8066:8098  debtBalances[debtor].sub(amount) */\n      jump\t// in\n    tag_240:\n      sub(shl(0xa0, 0x01), 0x01)\n        /* \"sExodus/sOlympusERC20.sol\":8043:8063  debtBalances[debtor] */\n      dup4\n      and\n      0x00\n      swap1\n      dup2\n      mstore\n        /* \"sExodus/sOlympusERC20.sol\":8043:8055  debtBalances */\n      0x0f\n        /* \"sExodus/sOlympusERC20.sol\":8043:8063  debtBalances[debtor] */\n      0x20\n      mstore\n      0x40\n      swap1\n      keccak256\n        /* \"sExodus/sOlympusERC20.sol\":8043:8098  debtBalances[debtor] = debtBalances[debtor].sub(amount) */\n      sstore\n        /* \"sExodus/sOlympusERC20.sol\":7934:8109  if (add) {... */\n    tag_239:\n        /* \"sExodus/sOlympusERC20.sol\":8150:8167  balanceOf(debtor) */\n      tag_241\n        /* \"sExodus/sOlympusERC20.sol\":8160:8166  debtor */\n      dup3\n        /* \"sExodus/sOlympusERC20.sol\":8150:8159  balanceOf */\n      tag_87\n        /* \"sExodus/sOlympusERC20.sol\":8150:8167  balanceOf(debtor) */\n      jump\t// in\n    tag_241:\n      sub(shl(0xa0, 0x01), 0x01)\n        /* \"sExodus/sOlympusERC20.sol\":8126:8146  debtBalances[debtor] */\n      dup4\n      and\n      0x00\n      swap1\n      dup2\n      mstore\n        /* \"sExodus/sOlympusERC20.sol\":8126:8138  debtBalances */\n      0x0f\n        /* \"sExodus/sOlympusERC20.sol\":8126:8146  debtBalances[debtor] */\n      0x20\n      mstore\n      0x40\n      swap1\n      keccak256\n      sload\n        /* \"sExodus/sOlympusERC20.sol\":8126:8167  debtBalances[debtor] <= balanceOf(debtor) */\n      gt\n      iszero\n        /* \"sExodus/sOlympusERC20.sol\":8118:8198  require(debtBalances[debtor] <= balanceOf(debtor), \"sEXO: insufficient balance\") */\n      tag_242\n      jumpi\n      0x40\n      dup1\n      mload\n      shl(0xe5, 0x461bcd)\n      dup2\n      mstore\n      0x20\n      0x04\n      dup3\n      add\n      mstore\n      0x1a\n      0x24\n      dup3\n      add\n      mstore\n      0x7345584f3a20696e73756666696369656e742062616c616e6365000000000000\n      0x44\n      dup3\n      add\n      mstore\n      swap1\n      mload\n      swap1\n      dup2\n      swap1\n      sub\n      0x64\n      add\n      swap1\n      revert\n    tag_242:\n        /* \"sExodus/sOlympusERC20.sol\":7756:8205  function changeDebt(... */\n      pop\n      pop\n      pop\n      jump\t// out\n        /* \"sExodus/sOlympusERC20.sol\":9321:9441  function fromG(uint256 amount) external view override returns (uint256) {... */\n    tag_116:\n        /* \"sExodus/sOlympusERC20.sol\":9410:9414  gEXO */\n      sload(0x09)\n        /* \"sExodus/sOlympusERC20.sol\":9410:9434  gEXO.balanceFrom(amount) */\n      0x40\n      dup1\n      mload\n      0xa824876800000000000000000000000000000000000000000000000000000000\n      dup2\n      mstore\n      0x04\n      dup2\n      add\n      dup5\n      swap1\n      mstore\n      swap1\n      mload\n        /* \"sExodus/sOlympusERC20.sol\":9384:9391  uint256 */\n      0x00\n      swap3\n      sub(shl(0xa0, 0x01), 0x01)\n        /* \"sExodus/sOlympusERC20.sol\":9410:9414  gEXO */\n      and\n      swap2\n        /* \"sExodus/sOlympusERC20.sol\":9410:9426  gEXO.balanceFrom */\n      0xa8248768\n      swap2\n        /* \"sExodus/sOlympusERC20.sol\":9410:9434  gEXO.balanceFrom(amount) */\n      0x24\n      dup1\n      dup4\n      add\n      swap3\n      0x20\n      swap3\n      swap2\n      swap1\n      dup3\n      swap1\n      sub\n      add\n      dup2\n        /* \"sExodus/sOlympusERC20.sol\":9410:9414  gEXO */\n      dup7\n        /* \"sExodus/sOlympusERC20.sol\":9410:9434  gEXO.balanceFrom(amount) */\n      dup1\n      extcodesize\n      iszero\n      dup1\n      iszero\n      tag_153\n      jumpi\n      0x00\n      dup1\n      revert\n        /* \"sExodus/sOlympusERC20.sol\":2159:2215  mapping(address => uint256) public override debtBalances */\n    tag_119:\n      mstore(0x20, 0x0f)\n      0x00\n      swap1\n      dup2\n      mstore\n      0x40\n      swap1\n      keccak256\n      sload\n      dup2\n      jump\t// out\n        /* \"sExodus/ERC20Permit.sol\":1411:2037  function permit(... */\n    tag_122:\n        /* \"sExodus/ERC20Permit.sol\":1646:1654  deadline */\n      dup4\n        /* \"sExodus/ERC20Permit.sol\":1627:1642  block.timestamp */\n      timestamp\n        /* \"sExodus/ERC20Permit.sol\":1627:1654  block.timestamp <= deadline */\n      gt\n      iszero\n        /* \"sExodus/ERC20Permit.sol\":1619:1688  require(block.timestamp <= deadline, \"ERC20Permit: expired deadline\") */\n      tag_249\n      jumpi\n      0x40\n      dup1\n      mload\n      shl(0xe5, 0x461bcd)\n      dup2\n      mstore\n      0x20\n      0x04\n      dup3\n      add\n      mstore\n      0x1d\n      0x24\n      dup3\n      add\n      mstore\n      0x45524332305065726d69743a206578706972656420646561646c696e65000000\n      0x44\n      dup3\n      add\n      mstore\n      swap1\n      mload\n      swap1\n      dup2\n      swap1\n      sub\n      0x64\n      add\n      swap1\n      revert\n    tag_249:\n        /* \"sExodus/ERC20Permit.sol\":1699:1717  bytes32 structHash */\n      0x00\n        /* \"sExodus/ERC20Permit.sol\":1741:1757  _PERMIT_TYPEHASH */\n      immutable(\"0xcd3b8a75131b09c18fac61f93bac9440f7b768b1c243a93eca5a67eb03b07828\")\n        /* \"sExodus/ERC20Permit.sol\":1759:1764  owner */\n      dup9\n        /* \"sExodus/ERC20Permit.sol\":1766:1773  spender */\n      dup9\n        /* \"sExodus/ERC20Permit.sol\":1775:1780  value */\n      dup9\n        /* \"sExodus/ERC20Permit.sol\":1782:1798  _useNonce(owner) */\n      tag_250\n        /* \"sExodus/ERC20Permit.sol\":1792:1797  owner */\n      dup13\n        /* \"sExodus/ERC20Permit.sol\":1782:1791  _useNonce */\n      tag_251\n        /* \"sExodus/ERC20Permit.sol\":1782:1798  _useNonce(owner) */\n      jump\t// in\n    tag_250:\n        /* \"sExodus/ERC20Permit.sol\":1800:1808  deadline */\n      dup10\n        /* \"sExodus/ERC20Permit.sol\":1730:1809  abi.encode(_PERMIT_TYPEHASH, owner, spender, value, _useNonce(owner), deadline) */\n      add(0x20, mload(0x40))\n      dup1\n      dup8\n      dup2\n      mstore\n      0x20\n      add\n      dup7\n      sub(shl(0xa0, 0x01), 0x01)\n      and\n      dup2\n      mstore\n      0x20\n      add\n      dup6\n      sub(shl(0xa0, 0x01), 0x01)\n      and\n      dup2\n      mstore\n      0x20\n      add\n      dup5\n      dup2\n      mstore\n      0x20\n      add\n      dup4\n      dup2\n      mstore\n      0x20\n      add\n      dup3\n      dup2\n      mstore\n      0x20\n      add\n      swap7\n      pop\n      pop\n      pop\n      pop\n      pop\n      pop\n      pop\n      mload(0x40)\n      0x20\n      dup2\n      dup4\n      sub\n      sub\n      dup2\n      mstore\n      swap1\n      0x40\n      mstore\n        /* \"sExodus/ERC20Permit.sol\":1720:1810  keccak256(abi.encode(_PERMIT_TYPEHASH, owner, spender, value, _useNonce(owner), deadline)) */\n      dup1\n      mload\n      swap1\n      0x20\n      add\n      keccak256\n        /* \"sExodus/ERC20Permit.sol\":1699:1810  bytes32 structHash = keccak256(abi.encode(_PERMIT_TYPEHASH, owner, spender, value, _useNonce(owner), deadline)) */\n      swap1\n      pop\n        /* \"sExodus/ERC20Permit.sol\":1821:1833  bytes32 hash */\n      0x00\n        /* \"sExodus/ERC20Permit.sol\":1836:1864  _hashTypedDataV4(structHash) */\n      tag_252\n        /* \"sExodus/ERC20Permit.sol\":1853:1863  structHash */\n      dup3\n        /* \"sExodus/ERC20Permit.sol\":1836:1852  _hashTypedDataV4 */\n      tag_253\n        /* \"sExodus/ERC20Permit.sol\":1836:1864  _hashTypedDataV4(structHash) */\n      jump\t// in\n    tag_252:\n        /* \"sExodus/ERC20Permit.sol\":1821:1864  bytes32 hash = _hashTypedDataV4(structHash) */\n      swap1\n      pop\n        /* \"sExodus/ERC20Permit.sol\":1875:1889  address signer */\n      0x00\n        /* \"sExodus/ERC20Permit.sol\":1892:1920  ECDSA.recover(hash, v, r, s) */\n      tag_254\n        /* \"sExodus/ERC20Permit.sol\":1906:1910  hash */\n      dup3\n        /* \"sExodus/ERC20Permit.sol\":1912:1913  v */\n      dup8\n        /* \"sExodus/ERC20Permit.sol\":1915:1916  r */\n      dup8\n        /* \"sExodus/ERC20Permit.sol\":1918:1919  s */\n      dup8\n        /* \"sExodus/ERC20Permit.sol\":1892:1905  ECDSA.recover */\n      tag_255\n        /* \"sExodus/ERC20Permit.sol\":1892:1920  ECDSA.recover(hash, v, r, s) */\n      jump\t// in\n    tag_254:\n        /* \"sExodus/ERC20Permit.sol\":1875:1920  address signer = ECDSA.recover(hash, v, r, s) */\n      swap1\n      pop\n        /* \"sExodus/ERC20Permit.sol\":1948:1953  owner */\n      dup10\n      sub(shl(0xa0, 0x01), 0x01)\n        /* \"sExodus/ERC20Permit.sol\":1938:1953  signer == owner */\n      and\n        /* \"sExodus/ERC20Permit.sol\":1938:1944  signer */\n      dup2\n      sub(shl(0xa0, 0x01), 0x01)\n        /* \"sExodus/ERC20Permit.sol\":1938:1953  signer == owner */\n      and\n      eq\n        /* \"sExodus/ERC20Permit.sol\":1930:1988  require(signer == owner, \"ERC20Permit: invalid signature\") */\n      tag_256\n      jumpi\n      0x40\n      dup1\n      mload\n      shl(0xe5, 0x461bcd)\n      dup2\n      mstore\n      0x20\n      0x04\n      dup3\n      add\n      mstore\n      0x1e\n      0x24\n      dup3\n      add\n      mstore\n      0x45524332305065726d69743a20696e76616c6964207369676e61747572650000\n      0x44\n      dup3\n      add\n      mstore\n      swap1\n      mload\n      swap1\n      dup2\n      swap1\n      sub\n      0x64\n      add\n      swap1\n      revert\n    tag_256:\n        /* \"sExodus/ERC20Permit.sol\":1999:2030  _approve(owner, spender, value) */\n      tag_257\n        /* \"sExodus/ERC20Permit.sol\":2008:2013  owner */\n      dup11\n        /* \"sExodus/ERC20Permit.sol\":2015:2022  spender */\n      dup11\n        /* \"sExodus/ERC20Permit.sol\":2024:2029  value */\n      dup11\n        /* \"sExodus/ERC20Permit.sol\":1999:2007  _approve */\n      tag_159\n        /* \"sExodus/ERC20Permit.sol\":1999:2030  _approve(owner, spender, value) */\n      jump\t// in\n    tag_257:\n        /* \"sExodus/ERC20Permit.sol\":1411:2037  function permit(... */\n      pop\n      pop\n      pop\n      pop\n      pop\n      pop\n      pop\n      pop\n      pop\n      pop\n      jump\t// out\n        /* \"sExodus/sOlympusERC20.sol\":9887:10047  function allowance(address owner_, address spender) public view override(IERC20, ERC20) returns (uint256) {... */\n    tag_125:\n      sub(shl(0xa0, 0x01), 0x01)\n        /* \"sExodus/sOlympusERC20.sol\":10010:10031  _allowedValue[owner_] */\n      swap2\n      dup3\n      and\n        /* \"sExodus/sOlympusERC20.sol\":9984:9991  uint256 */\n      0x00\n        /* \"sExodus/sOlympusERC20.sol\":10010:10031  _allowedValue[owner_] */\n      swap1\n      dup2\n      mstore\n        /* \"sExodus/sOlympusERC20.sol\":10010:10023  _allowedValue */\n      0x0d\n        /* \"sExodus/sOlympusERC20.sol\":10010:10031  _allowedValue[owner_] */\n      0x20\n      swap1\n      dup2\n      mstore\n      0x40\n      dup1\n      dup4\n      keccak256\n        /* \"sExodus/sOlympusERC20.sol\":10010:10040  _allowedValue[owner_][spender] */\n      swap4\n      swap1\n      swap5\n      and\n      dup3\n      mstore\n      swap2\n      swap1\n      swap2\n      mstore\n      keccak256\n      sload\n      swap1\n        /* \"sExodus/sOlympusERC20.sol\":9887:10047  function allowance(address owner_, address spender) public view override(IERC20, ERC20) returns (uint256) {... */\n      jump\t// out\n        /* \"sExodus/sOlympusERC20.sol\":1221:1251  address public stakingContract */\n    tag_127:\n      and(sub(shl(0xa0, 0x01), 0x01), sload(0x08))\n      dup2\n      jump\t// out\n        /* \"sExodus/SafeMath.sol\":947:1077  function div(uint256 a, uint256 b) internal pure returns (uint256) {... */\n    tag_128:\n        /* \"sExodus/SafeMath.sol\":1005:1012  uint256 */\n      0x00\n        /* \"sExodus/SafeMath.sol\":1031:1070  div(a, b, \"SafeMath: division by zero\") */\n      tag_260\n        /* \"sExodus/SafeMath.sol\":1035:1036  a */\n      dup4\n        /* \"sExodus/SafeMath.sol\":1038:1039  b */\n      dup4\n        /* \"sExodus/SafeMath.sol\":1031:1070  div(a, b, \"SafeMath: division by zero\") */\n      mload(0x40)\n      dup1\n      0x40\n      add\n      0x40\n      mstore\n      dup1\n      0x1a\n      dup2\n      mstore\n      0x20\n      add\n      0x536166654d6174683a206469766973696f6e206279207a65726f000000000000\n      dup2\n      mstore\n      pop\n        /* \"sExodus/SafeMath.sol\":1031:1034  div */\n      tag_261\n        /* \"sExodus/SafeMath.sol\":1031:1070  div(a, b, \"SafeMath: division by zero\") */\n      jump\t// in\n    tag_260:\n        /* \"sExodus/SafeMath.sol\":1024:1070  return div(a, b, \"SafeMath: division by zero\") */\n      swap4\n        /* \"sExodus/SafeMath.sol\":947:1077  function div(uint256 a, uint256 b) internal pure returns (uint256) {... */\n      swap3\n      pop\n      pop\n      pop\n      jump\t// out\n        /* \"sExodus/SafeMath.sol\":700:941  function mul(uint256 a, uint256 b) internal pure returns (uint256) {... */\n    tag_139:\n        /* \"sExodus/SafeMath.sol\":758:765  uint256 */\n      0x00\n        /* \"sExodus/SafeMath.sol\":781:787  a == 0 */\n      dup3\n        /* \"sExodus/SafeMath.sol\":777:822  if (a == 0) {... */\n      tag_263\n      jumpi\n      pop\n        /* \"sExodus/SafeMath.sol\":810:811  0 */\n      0x00\n        /* \"sExodus/SafeMath.sol\":803:811  return 0 */\n      jump(tag_131)\n        /* \"sExodus/SafeMath.sol\":777:822  if (a == 0) {... */\n    tag_263:\n        /* \"sExodus/SafeMath.sol\":844:849  a * b */\n      dup3\n      dup3\n      mul\n        /* \"sExodus/SafeMath.sol\":848:849  b */\n      dup3\n        /* \"sExodus/SafeMath.sol\":844:845  a */\n      dup5\n        /* \"sExodus/SafeMath.sol\":844:849  a * b */\n      dup3\n        /* \"sExodus/SafeMath.sol\":844:845  a */\n      dup2\n        /* \"sExodus/SafeMath.sol\":867:872  c / a */\n      tag_264\n      jumpi\n      invalid\n    tag_264:\n      div\n        /* \"sExodus/SafeMath.sol\":867:877  c / a == b */\n      eq\n        /* \"sExodus/SafeMath.sol\":859:915  require(c / a == b, \"SafeMath: multiplication overflow\") */\n      tag_260\n      jumpi\n      mload(0x40)\n      shl(0xe5, 0x461bcd)\n      dup2\n      mstore\n      0x04\n      add\n      dup1\n      dup1\n      0x20\n      add\n      dup3\n      dup2\n      sub\n      dup3\n      mstore\n      0x21\n      dup2\n      mstore\n      0x20\n      add\n      dup1\n      data_9113bb53c2876a3805b2c9242029423fc540a728243ce887ab24c82cf119fba3\n      0x21\n      swap2\n      codecopy\n      0x40\n      add\n      swap2\n      pop\n      pop\n      mload(0x40)\n      dup1\n      swap2\n      sub\n      swap1\n      revert\n        /* \"sExodus/SafeMath.sol\":155:331  function add(uint256 a, uint256 b) internal pure returns (uint256) {... */\n    tag_142:\n        /* \"sExodus/SafeMath.sol\":213:220  uint256 */\n      0x00\n        /* \"sExodus/SafeMath.sol\":244:249  a + b */\n      dup3\n      dup3\n      add\n        /* \"sExodus/SafeMath.sol\":267:273  c >= a */\n      dup4\n      dup2\n      lt\n      iszero\n        /* \"sExodus/SafeMath.sol\":259:305  require(c >= a, \"SafeMath: addition overflow\") */\n      tag_260\n      jumpi\n      0x40\n      dup1\n      mload\n      shl(0xe5, 0x461bcd)\n      dup2\n      mstore\n      0x20\n      0x04\n      dup3\n      add\n      mstore\n      0x1b\n      0x24\n      dup3\n      add\n      mstore\n      0x536166654d6174683a206164646974696f6e206f766572666c6f770000000000\n      0x44\n      dup3\n      add\n      mstore\n      swap1\n      mload\n      swap1\n      dup2\n      swap1\n      sub\n      0x64\n      add\n      swap1\n      revert\n        /* \"sExodus/sOlympusERC20.sol\":4913:5611  function _storeRebase(... */\n    tag_147:\n        /* \"sExodus/sOlympusERC20.sol\":5047:5068  uint256 rebasePercent */\n      0x00\n        /* \"sExodus/sOlympusERC20.sol\":5071:5114  profit_.mul(1e18).div(previousCirculating_) */\n      tag_269\n        /* \"sExodus/sOlympusERC20.sol\":5093:5113  previousCirculating_ */\n      dup5\n        /* \"sExodus/sOlympusERC20.sol\":5071:5088  profit_.mul(1e18) */\n      tag_138\n        /* \"sExodus/sOlympusERC20.sol\":5071:5078  profit_ */\n      dup6\n        /* \"sExodus/sOlympusERC20.sol\":5083:5087  1e18 */\n      0x0de0b6b3a7640000\n        /* \"sExodus/sOlympusERC20.sol\":5071:5082  profit_.mul */\n      tag_139\n        /* \"sExodus/sOlympusERC20.sol\":5071:5088  profit_.mul(1e18) */\n      jump\t// in\n        /* \"sExodus/sOlympusERC20.sol\":5071:5114  profit_.mul(1e18).div(previousCirculating_) */\n    tag_269:\n        /* \"sExodus/sOlympusERC20.sol\":5047:5114  uint256 rebasePercent = profit_.mul(1e18).div(previousCirculating_) */\n      swap1\n      pop\n        /* \"sExodus/sOlympusERC20.sol\":5124:5131  rebases */\n      0x0a\n        /* \"sExodus/sOlympusERC20.sol\":5150:5491  Rebase({... */\n      mload(0x40)\n      dup1\n      0xe0\n      add\n      0x40\n      mstore\n      dup1\n        /* \"sExodus/sOlympusERC20.sol\":5182:5188  epoch_ */\n      dup5\n        /* \"sExodus/sOlympusERC20.sol\":5150:5491  Rebase({... */\n      dup2\n      mstore\n      0x20\n      add\n        /* \"sExodus/sOlympusERC20.sol\":5214:5227  rebasePercent */\n      dup4\n        /* \"sExodus/sOlympusERC20.sol\":5150:5491  Rebase({... */\n      dup2\n      mstore\n      0x20\n      add\n        /* \"sExodus/sOlympusERC20.sol\":5279:5299  previousCirculating_ */\n      dup7\n        /* \"sExodus/sOlympusERC20.sol\":5150:5491  Rebase({... */\n      dup2\n      mstore\n      0x20\n      add\n        /* \"sExodus/sOlympusERC20.sol\":5335:5354  circulatingSupply() */\n      tag_271\n        /* \"sExodus/sOlympusERC20.sol\":5335:5352  circulatingSupply */\n      tag_98\n        /* \"sExodus/sOlympusERC20.sol\":5335:5354  circulatingSupply() */\n      jump\t// in\n    tag_271:\n        /* \"sExodus/sOlympusERC20.sol\":5150:5491  Rebase({... */\n      dup2\n      mstore\n      0x20\n      add\n        /* \"sExodus/sOlympusERC20.sol\":5387:5394  profit_ */\n      dup6\n        /* \"sExodus/sOlympusERC20.sol\":5150:5491  Rebase({... */\n      dup2\n      mstore\n      0x20\n      add\n        /* \"sExodus/sOlympusERC20.sol\":5419:5426  index() */\n      tag_272\n        /* \"sExodus/sOlympusERC20.sol\":5419:5424  index */\n      tag_67\n        /* \"sExodus/sOlympusERC20.sol\":5419:5426  index() */\n      jump\t// in\n    tag_272:\n        /* \"sExodus/sOlympusERC20.sol\":5150:5491  Rebase({... */\n      dup2\n      mstore\n        /* \"sExodus/sOlympusERC20.sol\":5464:5476  block.number */\n      number\n        /* \"sExodus/sOlympusERC20.sol\":5150:5491  Rebase({... */\n      0x20\n      swap2\n      dup3\n      add\n      mstore\n        /* \"sExodus/sOlympusERC20.sol\":5124:5501  rebases.push(... */\n      dup3\n      sload\n      0x01\n      dup2\n      dup2\n      add\n      dup6\n      sstore\n      0x00\n      swap5\n      dup6\n      mstore\n      swap4\n      dup3\n      swap1\n      keccak256\n      dup4\n      mload\n      0x07\n      swap1\n      swap3\n      mul\n      add\n      swap1\n      dup2\n      sstore\n      dup3\n      dup3\n      add\n      mload\n      swap4\n      dup2\n      add\n      swap4\n      swap1\n      swap4\n      sstore\n      0x40\n      dup1\n      dup4\n      add\n      mload\n      0x02\n      dup1\n      dup7\n      add\n      swap2\n      swap1\n      swap2\n      sstore\n      0x60\n      dup5\n      add\n      mload\n      0x03\n      dup7\n      add\n      sstore\n      0x80\n      dup5\n      add\n      mload\n      0x04\n      dup7\n      add\n      sstore\n      0xa0\n      dup5\n      add\n      mload\n      0x05\n      dup7\n      add\n      sstore\n      0xc0\n      swap1\n      swap4\n      add\n      mload\n      0x06\n      swap1\n      swap5\n      add\n      swap4\n      swap1\n      swap4\n      sstore\n        /* \"sExodus/sOlympusERC20.sol\":5535:5547  _totalSupply */\n      swap1\n      sload\n        /* \"sExodus/sOlympusERC20.sol\":5517:5548  LogSupply(epoch_, _totalSupply) */\n      dup3\n      mload\n      swap1\n      dup2\n      mstore\n      swap2\n      mload\n        /* \"sExodus/sOlympusERC20.sol\":5527:5533  epoch_ */\n      dup5\n      swap3\n        /* \"sExodus/sOlympusERC20.sol\":5517:5548  LogSupply(epoch_, _totalSupply) */\n      0x0417b340e646d4be71f9b2da63b5c3c69bc9cfa069f0e0db4756271886130bf4\n      swap3\n      swap1\n      dup3\n      swap1\n      sub\n      add\n      swap1\n      log2\n        /* \"sExodus/sOlympusERC20.sol\":5573:5579  epoch_ */\n      dup2\n        /* \"sExodus/sOlympusERC20.sol\":5563:5604  LogRebase(epoch_, rebasePercent, index()) */\n      0x6012dbce857565c4a40974aa5de8373a761fc429077ef0c8c8611d1e20d63fb2\n        /* \"sExodus/sOlympusERC20.sol\":5581:5594  rebasePercent */\n      dup3\n        /* \"sExodus/sOlympusERC20.sol\":5596:5603  index() */\n      tag_274\n        /* \"sExodus/sOlympusERC20.sol\":5596:5601  index */\n      tag_67\n        /* \"sExodus/sOlympusERC20.sol\":5596:5603  index() */\n      jump\t// in\n    tag_274:\n        /* \"sExodus/sOlympusERC20.sol\":5563:5604  LogRebase(epoch_, rebasePercent, index()) */\n      0x40\n      dup1\n      mload\n      swap3\n      dup4\n      mstore\n      0x20\n      dup4\n      add\n      swap2\n      swap1\n      swap2\n      mstore\n      dup1\n      mload\n      swap2\n      dup3\n      swap1\n      sub\n      add\n      swap1\n      log2\n        /* \"sExodus/sOlympusERC20.sol\":4913:5611  function _storeRebase(... */\n      pop\n      pop\n      pop\n      pop\n      jump\t// out\n        /* \"sExodus/sOlympusERC20.sol\":8263:8484  function _approve(... */\n    tag_159:\n      sub(shl(0xa0, 0x01), 0x01)\n        /* \"sExodus/sOlympusERC20.sol\":8394:8414  _allowedValue[owner] */\n      dup1\n      dup5\n      and\n      0x00\n      dup2\n      dup2\n      mstore\n        /* \"sExodus/sOlympusERC20.sol\":8394:8407  _allowedValue */\n      0x0d\n        /* \"sExodus/sOlympusERC20.sol\":8394:8414  _allowedValue[owner] */\n      0x20\n      swap1\n      dup2\n      mstore\n      0x40\n      dup1\n      dup4\n      keccak256\n        /* \"sExodus/sOlympusERC20.sol\":8394:8423  _allowedValue[owner][spender] */\n      swap5\n      dup8\n      and\n      dup1\n      dup5\n      mstore\n      swap5\n      dup3\n      mstore\n      swap2\n      dup3\n      swap1\n      keccak256\n        /* \"sExodus/sOlympusERC20.sol\":8394:8431  _allowedValue[owner][spender] = value */\n      dup6\n      swap1\n      sstore\n        /* \"sExodus/sOlympusERC20.sol\":8446:8477  Approval(owner, spender, value) */\n      dup2\n      mload\n      dup6\n      dup2\n      mstore\n      swap2\n      mload\n      0x8c5be1e5ebec7d5bd14f71427d1e84f3dd0314c0f7b2291e5b200ac8c7c3b925\n      swap3\n      dup2\n      swap1\n      sub\n      swap1\n      swap2\n      add\n      swap1\n      log3\n        /* \"sExodus/sOlympusERC20.sol\":8263:8484  function _approve(... */\n      pop\n      pop\n      pop\n      jump\t// out\n        /* \"sExodus/SafeMath.sol\":337:471  function sub(uint256 a, uint256 b) internal pure returns (uint256) {... */\n    tag_165:\n        /* \"sExodus/SafeMath.sol\":395:402  uint256 */\n      0x00\n        /* \"sExodus/SafeMath.sol\":421:464  sub(a, b, \"SafeMath: subtraction overflow\") */\n      tag_260\n        /* \"sExodus/SafeMath.sol\":425:426  a */\n      dup4\n        /* \"sExodus/SafeMath.sol\":428:429  b */\n      dup4\n        /* \"sExodus/SafeMath.sol\":421:464  sub(a, b, \"SafeMath: subtraction overflow\") */\n      mload(0x40)\n      dup1\n      0x40\n      add\n      0x40\n      mstore\n      dup1\n      0x1e\n      dup2\n      mstore\n      0x20\n      add\n      0x536166654d6174683a207375627472616374696f6e206f766572666c6f770000\n      dup2\n      mstore\n      pop\n        /* \"sExodus/SafeMath.sol\":421:424  sub */\n      tag_278\n        /* \"sExodus/SafeMath.sol\":421:464  sub(a, b, \"SafeMath: subtraction overflow\") */\n      jump\t// in\n        /* \"sExodus/EIP712.sol\":3072:3429  function _domainSeparatorV4() internal view returns (bytes32) {... */\n    tag_180:\n        /* \"sExodus/EIP712.sol\":3125:3132  bytes32 */\n      0x00\n        /* \"sExodus/EIP712.sol\":3203:3212  chainid() */\n      chainid\n        /* \"sExodus/EIP712.sol\":3247:3263  _CACHED_CHAIN_ID */\n      immutable(\"0xb0c7bc42bdbc6fc210fecd6a5f5b923061cceb0f8ca5c7d964d5c22fc0e4b0b6\")\n        /* \"sExodus/EIP712.sol\":3236:3263  chainID == _CACHED_CHAIN_ID */\n      dup2\n      eq\n        /* \"sExodus/EIP712.sol\":3232:3423  if (chainID == _CACHED_CHAIN_ID) {... */\n      iszero\n      tag_280\n      jumpi\n        /* \"sExodus/EIP712.sol\":3286:3310  _CACHED_DOMAIN_SEPARATOR */\n      immutable(\"0xee6ed107ec78844a4d229eb2881175204622382692a68d0a6bc9dab5b9b1a469\")\n        /* \"sExodus/EIP712.sol\":3279:3310  return _CACHED_DOMAIN_SEPARATOR */\n      swap2\n      pop\n      pop\n      jump(tag_148)\n        /* \"sExodus/EIP712.sol\":3232:3423  if (chainID == _CACHED_CHAIN_ID) {... */\n    tag_280:\n        /* \"sExodus/EIP712.sol\":3348:3412  _buildDomainSeparator(_TYPE_HASH, _HASHED_NAME, _HASHED_VERSION) */\n      tag_282\n        /* \"sExodus/EIP712.sol\":3370:3380  _TYPE_HASH */\n      immutable(\"0xa357612e78285f7fafdf6b519d8202761470244eff76772361e02b59693fc4a3\")\n        /* \"sExodus/EIP712.sol\":3382:3394  _HASHED_NAME */\n      immutable(\"0x9b0d5a2681b52b4560ba0a55dc00d44d52ed130b12e9b1ecacbe9f4e75788d40\")\n        /* \"sExodus/EIP712.sol\":3396:3411  _HASHED_VERSION */\n      immutable(\"0x5d2bb87bc4e3465b938b7f3bfa80dd200de3ce49dc7e9edab315c9ce3405a0b7\")\n        /* \"sExodus/EIP712.sol\":3348:3369  _buildDomainSeparator */\n      tag_283\n        /* \"sExodus/EIP712.sol\":3348:3412  _buildDomainSeparator(_TYPE_HASH, _HASHED_NAME, _HASHED_VERSION) */\n      jump\t// in\n    tag_282:\n        /* \"sExodus/EIP712.sol\":3341:3412  return _buildDomainSeparator(_TYPE_HASH, _HASHED_NAME, _HASHED_VERSION) */\n      swap2\n      pop\n      pop\n      jump(tag_148)\n        /* \"sExodus/Counters.sol\":524:636  function current(Counter storage counter) internal view returns (uint256) {... */\n    tag_201:\n        /* \"sExodus/Counters.sol\":615:629  counter._value */\n      sload\n      swap1\n        /* \"sExodus/Counters.sol\":524:636  function current(Counter storage counter) internal view returns (uint256) {... */\n      jump\t// out\n        /* \"sExodus/ERC20Permit.sol\":2592:2795  function _useNonce(address owner) internal virtual returns (uint256 current) {... */\n    tag_251:\n      sub(shl(0xa0, 0x01), 0x01)\n        /* \"sExodus/ERC20Permit.sol\":2712:2726  _nonces[owner] */\n      dup2\n      and\n        /* \"sExodus/ERC20Permit.sol\":2652:2667  uint256 current */\n      0x00\n        /* \"sExodus/ERC20Permit.sol\":2712:2726  _nonces[owner] */\n      swap1\n      dup2\n      mstore\n        /* \"sExodus/ERC20Permit.sol\":2712:2719  _nonces */\n      0x05\n        /* \"sExodus/ERC20Permit.sol\":2712:2726  _nonces[owner] */\n      0x20\n      mstore\n      0x40\n      dup2\n      keccak256\n        /* \"sExodus/ERC20Permit.sol\":2746:2761  nonce.current() */\n      tag_286\n        /* \"sExodus/ERC20Permit.sol\":2712:2726  _nonces[owner] */\n      dup2\n        /* \"sExodus/ERC20Permit.sol\":2746:2759  nonce.current */\n      tag_201\n        /* \"sExodus/ERC20Permit.sol\":2746:2761  nonce.current() */\n      jump\t// in\n    tag_286:\n        /* \"sExodus/ERC20Permit.sol\":2736:2761  current = nonce.current() */\n      swap2\n      pop\n        /* \"sExodus/ERC20Permit.sol\":2771:2788  nonce.increment() */\n      tag_287\n        /* \"sExodus/ERC20Permit.sol\":2771:2776  nonce */\n      dup2\n        /* \"sExodus/ERC20Permit.sol\":2771:2786  nonce.increment */\n      tag_288\n        /* \"sExodus/ERC20Permit.sol\":2771:2788  nonce.increment() */\n      jump\t// in\n    tag_287:\n        /* \"sExodus/ERC20Permit.sol\":2592:2795  function _useNonce(address owner) internal virtual returns (uint256 current) {... */\n      pop\n      swap2\n      swap1\n      pop\n      jump\t// out\n        /* \"sExodus/EIP712.sol\":4399:4564  function _hashTypedDataV4(bytes32 structHash) internal view virtual returns (bytes32) {... */\n    tag_253:\n        /* \"sExodus/EIP712.sol\":4476:4483  bytes32 */\n      0x00\n        /* \"sExodus/EIP712.sol\":4502:4557  ECDSA.toTypedDataHash(_domainSeparatorV4(), structHash) */\n      tag_131\n        /* \"sExodus/EIP712.sol\":4524:4544  _domainSeparatorV4() */\n      tag_291\n        /* \"sExodus/EIP712.sol\":4524:4542  _domainSeparatorV4 */\n      tag_180\n        /* \"sExodus/EIP712.sol\":4524:4544  _domainSeparatorV4() */\n      jump\t// in\n    tag_291:\n        /* \"sExodus/EIP712.sol\":4546:4556  structHash */\n      dup4\n        /* \"sExodus/EIP712.sol\":4502:4523  ECDSA.toTypedDataHash */\n      tag_292\n        /* \"sExodus/EIP712.sol\":4502:4557  ECDSA.toTypedDataHash(_domainSeparatorV4(), structHash) */\n      jump\t// in\n        /* \"sExodus/ECDSA.sol\":7390:7660  function recover(... */\n    tag_255:\n        /* \"sExodus/ECDSA.sol\":7513:7520  address */\n      0x00\n        /* \"sExodus/ECDSA.sol\":7533:7550  address recovered */\n      dup1\n        /* \"sExodus/ECDSA.sol\":7552:7570  RecoverError error */\n      0x00\n        /* \"sExodus/ECDSA.sol\":7574:7599  tryRecover(hash, v, r, s) */\n      tag_294\n        /* \"sExodus/ECDSA.sol\":7585:7589  hash */\n      dup8\n        /* \"sExodus/ECDSA.sol\":7591:7592  v */\n      dup8\n        /* \"sExodus/ECDSA.sol\":7594:7595  r */\n      dup8\n        /* \"sExodus/ECDSA.sol\":7597:7598  s */\n      dup8\n        /* \"sExodus/ECDSA.sol\":7574:7584  tryRecover */\n      tag_295\n        /* \"sExodus/ECDSA.sol\":7574:7599  tryRecover(hash, v, r, s) */\n      jump\t// in\n    tag_294:\n        /* \"sExodus/ECDSA.sol\":7532:7599  (address recovered, RecoverError error) = tryRecover(hash, v, r, s) */\n      swap2\n      pop\n      swap2\n      pop\n        /* \"sExodus/ECDSA.sol\":7609:7627  _throwError(error) */\n      tag_296\n        /* \"sExodus/ECDSA.sol\":7621:7626  error */\n      dup2\n        /* \"sExodus/ECDSA.sol\":7609:7620  _throwError */\n      tag_297\n        /* \"sExodus/ECDSA.sol\":7609:7627  _throwError(error) */\n      jump\t// in\n    tag_296:\n      pop\n        /* \"sExodus/ECDSA.sol\":7644:7653  recovered */\n      swap6\n        /* \"sExodus/ECDSA.sol\":7390:7660  function recover(... */\n      swap5\n      pop\n      pop\n      pop\n      pop\n      pop\n      jump\t// out\n        /* \"sExodus/SafeMath.sol\":1083:1384  function div(... */\n    tag_261:\n        /* \"sExodus/SafeMath.sol\":1199:1206  uint256 */\n      0x00\n        /* \"sExodus/SafeMath.sol\":1233:1245  errorMessage */\n      dup2\n        /* \"sExodus/SafeMath.sol\":1226:1231  b > 0 */\n      dup4\n        /* \"sExodus/SafeMath.sol\":1218:1246  require(b > 0, errorMessage) */\n      tag_299\n      jumpi\n      mload(0x40)\n      shl(0xe5, 0x461bcd)\n      dup2\n      mstore\n      0x04\n      add\n      dup1\n      dup1\n      0x20\n      add\n      dup3\n      dup2\n      sub\n      dup3\n      mstore\n      dup4\n      dup2\n      dup2\n      mload\n      dup2\n      mstore\n      0x20\n      add\n      swap2\n      pop\n      dup1\n      mload\n      swap1\n      0x20\n      add\n      swap1\n      dup1\n      dup4\n      dup4\n      0x00\n    tag_300:\n      dup4\n      dup2\n      lt\n      iszero\n      tag_302\n      jumpi\n      dup2\n      dup2\n      add\n      mload\n      dup4\n      dup3\n      add\n      mstore\n      0x20\n      add\n      jump(tag_300)\n    tag_302:\n      pop\n      pop\n      pop\n      pop\n      swap1\n      pop\n      swap1\n      dup2\n      add\n      swap1\n      0x1f\n      and\n      dup1\n      iszero\n      tag_303\n      jumpi\n      dup1\n      dup3\n      sub\n      dup1\n      mload\n      0x01\n      dup4\n      0x20\n      sub\n      0x0100\n      exp\n      sub\n      not\n      and\n      dup2\n      mstore\n      0x20\n      add\n      swap2\n      pop\n    tag_303:\n      pop\n      swap3\n      pop\n      pop\n      pop\n      mload(0x40)\n      dup1\n      swap2\n      sub\n      swap1\n      revert\n    tag_299:\n      pop\n        /* \"sExodus/SafeMath.sol\":1256:1265  uint256 c */\n      0x00\n        /* \"sExodus/SafeMath.sol\":1272:1273  b */\n      dup4\n        /* \"sExodus/SafeMath.sol\":1268:1269  a */\n      dup6\n        /* \"sExodus/SafeMath.sol\":1268:1273  a / b */\n      dup2\n      tag_304\n      jumpi\n      invalid\n    tag_304:\n      div\n        /* \"sExodus/SafeMath.sol\":1256:1273  uint256 c = a / b */\n      swap1\n      pop\n        /* \"sExodus/SafeMath.sol\":1308:1309  b */\n      dup4\n        /* \"sExodus/SafeMath.sol\":1304:1305  a */\n      dup6\n        /* \"sExodus/SafeMath.sol\":1304:1309  a % b */\n      dup2\n      tag_305\n      jumpi\n      invalid\n    tag_305:\n      mod\n        /* \"sExodus/SafeMath.sol\":1299:1300  c */\n      dup2\n        /* \"sExodus/SafeMath.sol\":1295:1296  b */\n      dup6\n        /* \"sExodus/SafeMath.sol\":1295:1300  b * c */\n      mul\n        /* \"sExodus/SafeMath.sol\":1295:1310  b * c + (a % b) */\n      add\n        /* \"sExodus/SafeMath.sol\":1290:1291  a */\n      dup6\n        /* \"sExodus/SafeMath.sol\":1290:1310  a == b * c + (a % b) */\n      eq\n        /* \"sExodus/SafeMath.sol\":1283:1311  assert(a == b * c + (a % b)) */\n      tag_306\n      jumpi\n      invalid\n    tag_306:\n        /* \"sExodus/SafeMath.sol\":1376:1377  c */\n      swap5\n        /* \"sExodus/SafeMath.sol\":1083:1384  function div(... */\n      swap4\n      pop\n      pop\n      pop\n      pop\n      jump\t// out\n        /* \"sExodus/SafeMath.sol\":477:694  function sub(... */\n    tag_278:\n        /* \"sExodus/SafeMath.sol\":593:600  uint256 */\n      0x00\n        /* \"sExodus/SafeMath.sol\":628:640  errorMessage */\n      dup2\n        /* \"sExodus/SafeMath.sol\":620:626  b <= a */\n      dup5\n      dup5\n      gt\n      iszero\n        /* \"sExodus/SafeMath.sol\":612:641  require(b <= a, errorMessage) */\n      tag_308\n      jumpi\n      mload(0x40)\n      shl(0xe5, 0x461bcd)\n      dup2\n      mstore\n      0x20\n      0x04\n      dup3\n      add\n      dup2\n      dup2\n      mstore\n      dup4\n      mload\n      0x24\n      dup5\n      add\n      mstore\n      dup4\n      mload\n      swap1\n      swap3\n      dup4\n      swap3\n      0x44\n      swap1\n      swap2\n      add\n      swap2\n      swap1\n      dup6\n      add\n      swap1\n      dup1\n      dup4\n      dup4\n      0x00\n      dup4\n      iszero\n      tag_302\n      jumpi\n      dup2\n      dup2\n      add\n      mload\n      dup4\n      dup3\n      add\n      mstore\n      0x20\n      add\n      jump(tag_300)\n    tag_308:\n      pop\n      pop\n      pop\n        /* \"sExodus/SafeMath.sol\":663:668  a - b */\n      swap1\n      sub\n      swap1\n        /* \"sExodus/SafeMath.sol\":477:694  function sub(... */\n      jump\t// out\n        /* \"sExodus/EIP712.sol\":3435:3774  function _buildDomainSeparator(... */\n    tag_283:\n        /* \"sExodus/EIP712.sol\":3699:3766  abi.encode(typeHash, nameHash, versionHash, chainID, address(this)) */\n      0x40\n      dup1\n      mload\n      0x20\n      dup1\n      dup3\n      add\n      swap6\n      swap1\n      swap6\n      mstore\n      dup1\n      dup3\n      add\n      swap4\n      swap1\n      swap4\n      mstore\n      0x60\n      dup4\n      add\n      swap2\n      swap1\n      swap2\n      mstore\n        /* \"sExodus/EIP712.sol\":3653:3662  chainid() */\n      chainid\n        /* \"sExodus/EIP712.sol\":3699:3766  abi.encode(typeHash, nameHash, versionHash, chainID, address(this)) */\n      0x80\n      dup4\n      add\n      mstore\n        /* \"sExodus/EIP712.sol\":3760:3764  this */\n      address\n        /* \"sExodus/EIP712.sol\":3699:3766  abi.encode(typeHash, nameHash, versionHash, chainID, address(this)) */\n      0xa0\n      dup1\n      dup5\n      add\n      swap2\n      swap1\n      swap2\n      mstore\n      dup2\n      mload\n      dup1\n      dup5\n      sub\n      swap1\n      swap2\n      add\n      dup2\n      mstore\n      0xc0\n      swap1\n      swap3\n      add\n      swap1\n      mstore\n        /* \"sExodus/EIP712.sol\":3689:3767  keccak256(abi.encode(typeHash, nameHash, versionHash, chainID, address(this))) */\n      dup1\n      mload\n      swap2\n      add\n      keccak256\n      swap1\n        /* \"sExodus/EIP712.sol\":3435:3774  function _buildDomainSeparator(... */\n      jump\t// out\n        /* \"sExodus/Counters.sol\":642:820  function increment(Counter storage counter) internal {... */\n    tag_288:\n        /* \"sExodus/Counters.sol\":794:813  counter._value += 1 */\n      dup1\n      sload\n        /* \"sExodus/Counters.sol\":812:813  1 */\n      0x01\n        /* \"sExodus/Counters.sol\":794:813  counter._value += 1 */\n      add\n      swap1\n      sstore\n        /* \"sExodus/Counters.sol\":642:820  function increment(Counter storage counter) internal {... */\n      jump\t// out\n        /* \"sExodus/ECDSA.sol\":8554:8748  function toTypedDataHash(bytes32 domainSeparator, bytes32 structHash) internal pure returns (bytes32) {... */\n    tag_292:\n        /* \"sExodus/ECDSA.sol\":8683:8740  abi.encodePacked(\"\\x19\\x01\", domainSeparator, structHash) */\n      0x40\n      dup1\n      mload\n      0x1901000000000000000000000000000000000000000000000000000000000000\n      0x20\n      dup1\n      dup4\n      add\n      swap2\n      swap1\n      swap2\n      mstore\n      0x22\n      dup3\n      add\n      swap5\n      swap1\n      swap5\n      mstore\n      0x42\n      dup1\n      dup3\n      add\n      swap4\n      swap1\n      swap4\n      mstore\n      dup2\n      mload\n      dup1\n      dup3\n      sub\n      swap1\n      swap4\n      add\n      dup4\n      mstore\n      0x62\n      add\n      swap1\n      mstore\n        /* \"sExodus/ECDSA.sol\":8673:8741  keccak256(abi.encodePacked(\"\\x19\\x01\", domainSeparator, structHash)) */\n      dup1\n      mload\n      swap2\n      add\n      keccak256\n      swap1\n        /* \"sExodus/ECDSA.sol\":8554:8748  function toTypedDataHash(bytes32 domainSeparator, bytes32 structHash) internal pure returns (bytes32) {... */\n      jump\t// out\n        /* \"sExodus/ECDSA.sol\":5654:7257  function tryRecover(... */\n    tag_295:\n        /* \"sExodus/ECDSA.sol\":5780:5787  address */\n      0x00\n      dup1\n        /* \"sExodus/ECDSA.sol\":6704:6770  0x7FFFFFFFFFFFFFFFFFFFFFFFFFFFFFFF5D576E7357A4501DDFE92F46681B20A0 */\n      0x7fffffffffffffffffffffffffffffff5d576e7357a4501ddfe92f46681b20a0\n        /* \"sExodus/ECDSA.sol\":6691:6770  uint256(s) > 0x7FFFFFFFFFFFFFFFFFFFFFFFFFFFFFFF5D576E7357A4501DDFE92F46681B20A0 */\n      dup4\n      gt\n        /* \"sExodus/ECDSA.sol\":6687:6848  if (uint256(s) > 0x7FFFFFFFFFFFFFFFFFFFFFFFFFFFFFFF5D576E7357A4501DDFE92F46681B20A0) {... */\n      iszero\n      tag_317\n      jumpi\n      pop\n        /* \"sExodus/ECDSA.sol\":6802:6803  0 */\n      0x00\n      swap1\n      pop\n        /* \"sExodus/ECDSA.sol\":6806:6836  RecoverError.InvalidSignatureS */\n      0x03\n        /* \"sExodus/ECDSA.sol\":6786:6837  return (address(0), RecoverError.InvalidSignatureS) */\n      jump(tag_316)\n        /* \"sExodus/ECDSA.sol\":6687:6848  if (uint256(s) > 0x7FFFFFFFFFFFFFFFFFFFFFFFFFFFFFFF5D576E7357A4501DDFE92F46681B20A0) {... */\n    tag_317:\n        /* \"sExodus/ECDSA.sol\":6861:6862  v */\n      dup5\n        /* \"sExodus/ECDSA.sol\":6861:6868  v != 27 */\n      0xff\n      and\n        /* \"sExodus/ECDSA.sol\":6866:6868  27 */\n      0x1b\n        /* \"sExodus/ECDSA.sol\":6861:6868  v != 27 */\n      eq\n      iszero\n        /* \"sExodus/ECDSA.sol\":6861:6879  v != 27 && v != 28 */\n      dup1\n      iszero\n      tag_318\n      jumpi\n      pop\n        /* \"sExodus/ECDSA.sol\":6872:6873  v */\n      dup5\n        /* \"sExodus/ECDSA.sol\":6872:6879  v != 28 */\n      0xff\n      and\n        /* \"sExodus/ECDSA.sol\":6877:6879  28 */\n      0x1c\n        /* \"sExodus/ECDSA.sol\":6872:6879  v != 28 */\n      eq\n      iszero\n        /* \"sExodus/ECDSA.sol\":6861:6879  v != 27 && v != 28 */\n    tag_318:\n        /* \"sExodus/ECDSA.sol\":6857:6957  if (v != 27 && v != 28) {... */\n      iszero\n      tag_319\n      jumpi\n      pop\n        /* \"sExodus/ECDSA.sol\":6911:6912  0 */\n      0x00\n      swap1\n      pop\n        /* \"sExodus/ECDSA.sol\":6915:6945  RecoverError.InvalidSignatureV */\n      0x04\n        /* \"sExodus/ECDSA.sol\":6895:6946  return (address(0), RecoverError.InvalidSignatureV) */\n      jump(tag_316)\n        /* \"sExodus/ECDSA.sol\":6857:6957  if (v != 27 && v != 28) {... */\n    tag_319:\n        /* \"sExodus/ECDSA.sol\":7051:7065  address signer */\n      0x00\n        /* \"sExodus/ECDSA.sol\":7068:7092  ecrecover(hash, v, r, s) */\n      0x01\n        /* \"sExodus/ECDSA.sol\":7078:7082  hash */\n      dup8\n        /* \"sExodus/ECDSA.sol\":7084:7085  v */\n      dup8\n        /* \"sExodus/ECDSA.sol\":7087:7088  r */\n      dup8\n        /* \"sExodus/ECDSA.sol\":7090:7091  s */\n      dup8\n        /* \"sExodus/ECDSA.sol\":7068:7092  ecrecover(hash, v, r, s) */\n      mload(0x40)\n      0x00\n      dup2\n      mstore\n      0x20\n      add\n      0x40\n      mstore\n      mload(0x40)\n      dup1\n      dup6\n      dup2\n      mstore\n      0x20\n      add\n      dup5\n      0xff\n      and\n      dup2\n      mstore\n      0x20\n      add\n      dup4\n      dup2\n      mstore\n      0x20\n      add\n      dup3\n      dup2\n      mstore\n      0x20\n      add\n      swap5\n      pop\n      pop\n      pop\n      pop\n      pop\n      0x20\n      mload(0x40)\n      0x20\n      dup2\n      sub\n      swap1\n      dup1\n      dup5\n      sub\n      swap1\n      dup6\n      gas\n      staticcall\n      iszero\n      dup1\n      iszero\n      tag_321\n      jumpi\n      returndatasize\n      0x00\n      dup1\n      returndatacopy\n      revert(0x00, returndatasize)\n    tag_321:\n      pop\n      pop\n      mload(add(not(0x1f), mload(0x40)))\n      swap2\n      pop\n      pop\n      sub(shl(0xa0, 0x01), 0x01)\n        /* \"sExodus/ECDSA.sol\":7106:7126  signer == address(0) */\n      dup2\n      and\n        /* \"sExodus/ECDSA.sol\":7102:7203  if (signer == address(0)) {... */\n      tag_322\n      jumpi\n        /* \"sExodus/ECDSA.sol\":7158:7159  0 */\n      0x00\n        /* \"sExodus/ECDSA.sol\":7162:7191  RecoverError.InvalidSignature */\n      0x01\n        /* \"sExodus/ECDSA.sol\":7142:7192  return (address(0), RecoverError.InvalidSignature) */\n      swap3\n      pop\n      swap3\n      pop\n      pop\n      jump(tag_316)\n        /* \"sExodus/ECDSA.sol\":7102:7203  if (signer == address(0)) {... */\n    tag_322:\n        /* \"sExodus/ECDSA.sol\":7221:7227  signer */\n      swap2\n      pop\n        /* \"sExodus/ECDSA.sol\":7229:7249  RecoverError.NoError */\n      0x00\n      swap1\n      pop\n        /* \"sExodus/ECDSA.sol\":5654:7257  function tryRecover(... */\n    tag_316:\n      swap5\n      pop\n      swap5\n      swap3\n      pop\n      pop\n      pop\n      jump\t// out\n        /* \"sExodus/ECDSA.sol\":443:1074  function _throwError(RecoverError error) private pure {... */\n    tag_297:\n        /* \"sExodus/ECDSA.sol\":520:540  RecoverError.NoError */\n      0x00\n        /* \"sExodus/ECDSA.sol\":511:516  error */\n      dup2\n        /* \"sExodus/ECDSA.sol\":511:540  error == RecoverError.NoError */\n      0x04\n      dup2\n      gt\n      iszero\n      tag_325\n      jumpi\n      invalid\n    tag_325:\n      eq\n        /* \"sExodus/ECDSA.sol\":507:1068  if (error == RecoverError.NoError) {... */\n      iszero\n      tag_326\n      jumpi\n        /* \"sExodus/ECDSA.sol\":556:563  return; */\n      jump(tag_342)\n        /* \"sExodus/ECDSA.sol\":507:1068  if (error == RecoverError.NoError) {... */\n    tag_326:\n        /* \"sExodus/ECDSA.sol\":616:645  RecoverError.InvalidSignature */\n      0x01\n        /* \"sExodus/ECDSA.sol\":607:612  error */\n      dup2\n        /* \"sExodus/ECDSA.sol\":607:645  error == RecoverError.InvalidSignature */\n      0x04\n      dup2\n      gt\n      iszero\n      tag_329\n      jumpi\n      invalid\n    tag_329:\n      eq\n        /* \"sExodus/ECDSA.sol\":603:1068  if (error == RecoverError.InvalidSignature) {... */\n      iszero\n      tag_330\n      jumpi\n        /* \"sExodus/ECDSA.sol\":661:695  revert(\"ECDSA: invalid signature\") */\n      0x40\n      dup1\n      mload\n      shl(0xe5, 0x461bcd)\n      dup2\n      mstore\n      0x20\n      0x04\n      dup3\n      add\n      mstore\n      0x18\n      0x24\n      dup3\n      add\n      mstore\n      0x45434453413a20696e76616c6964207369676e61747572650000000000000000\n      0x44\n      dup3\n      add\n      mstore\n      swap1\n      mload\n      swap1\n      dup2\n      swap1\n      sub\n      0x64\n      add\n      swap1\n      revert\n        /* \"sExodus/ECDSA.sol\":603:1068  if (error == RecoverError.InvalidSignature) {... */\n    tag_330:\n        /* \"sExodus/ECDSA.sol\":725:760  RecoverError.InvalidSignatureLength */\n      0x02\n        /* \"sExodus/ECDSA.sol\":716:721  error */\n      dup2\n        /* \"sExodus/ECDSA.sol\":716:760  error == RecoverError.InvalidSignatureLength */\n      0x04\n      dup2\n      gt\n      iszero\n      tag_333\n      jumpi\n      invalid\n    tag_333:\n      eq\n        /* \"sExodus/ECDSA.sol\":712:1068  if (error == RecoverError.InvalidSignatureLength) {... */\n      iszero\n      tag_334\n      jumpi\n        /* \"sExodus/ECDSA.sol\":776:817  revert(\"ECDSA: invalid signature length\") */\n      0x40\n      dup1\n      mload\n      shl(0xe5, 0x461bcd)\n      dup2\n      mstore\n      0x20\n      0x04\n      dup3\n      add\n      mstore\n      0x1f\n      0x24\n      dup3\n      add\n      mstore\n      0x45434453413a20696e76616c6964207369676e6174757265206c656e67746800\n      0x44\n      dup3\n      add\n      mstore\n      swap1\n      mload\n      swap1\n      dup2\n      swap1\n      sub\n      0x64\n      add\n      swap1\n      revert\n        /* \"sExodus/ECDSA.sol\":712:1068  if (error == RecoverError.InvalidSignatureLength) {... */\n    tag_334:\n        /* \"sExodus/ECDSA.sol\":847:877  RecoverError.InvalidSignatureS */\n      0x03\n        /* \"sExodus/ECDSA.sol\":838:843  error */\n      dup2\n        /* \"sExodus/ECDSA.sol\":838:877  error == RecoverError.InvalidSignatureS */\n      0x04\n      dup2\n      gt\n      iszero\n      tag_337\n      jumpi\n      invalid\n    tag_337:\n      eq\n        /* \"sExodus/ECDSA.sol\":834:1068  if (error == RecoverError.InvalidSignatureS) {... */\n      iszero\n      tag_338\n      jumpi\n        /* \"sExodus/ECDSA.sol\":893:937  revert(\"ECDSA: invalid signature 's' value\") */\n      mload(0x40)\n      shl(0xe5, 0x461bcd)\n      dup2\n      mstore\n      0x04\n      add\n      dup1\n      dup1\n      0x20\n      add\n      dup3\n      dup2\n      sub\n      dup3\n      mstore\n      0x22\n      dup2\n      mstore\n      0x20\n      add\n      dup1\n      data_520d1f787dbcafbbfc007fd2c4ecf3d2711ec587f3ee9a1215c0b646c3e530bd\n      0x22\n      swap2\n      codecopy\n      0x40\n      add\n      swap2\n      pop\n      pop\n      mload(0x40)\n      dup1\n      swap2\n      sub\n      swap1\n      revert\n        /* \"sExodus/ECDSA.sol\":834:1068  if (error == RecoverError.InvalidSignatureS) {... */\n    tag_338:\n        /* \"sExodus/ECDSA.sol\":967:997  RecoverError.InvalidSignatureV */\n      0x04\n        /* \"sExodus/ECDSA.sol\":958:963  error */\n      dup2\n        /* \"sExodus/ECDSA.sol\":958:997  error == RecoverError.InvalidSignatureV */\n      0x04\n      dup2\n      gt\n      iszero\n      tag_341\n      jumpi\n      invalid\n    tag_341:\n      eq\n        /* \"sExodus/ECDSA.sol\":954:1068  if (error == RecoverError.InvalidSignatureV) {... */\n      iszero\n      tag_342\n      jumpi\n        /* \"sExodus/ECDSA.sol\":1013:1057  revert(\"ECDSA: invalid signature 'v' value\") */\n      mload(0x40)\n      shl(0xe5, 0x461bcd)\n      dup2\n      mstore\n      0x04\n      add\n      dup1\n      dup1\n      0x20\n      add\n      dup3\n      dup2\n      sub\n      dup3\n      mstore\n      0x22\n      dup2\n      mstore\n      0x20\n      add\n      dup1\n      data_8522ee1b53216f595394db8e80a64d9e7d9bd512c0811c18debe9f40858597e4\n      0x22\n      swap2\n      codecopy\n      0x40\n      add\n      swap2\n      pop\n      pop\n      mload(0x40)\n      dup1\n      swap2\n      sub\n      swap1\n      revert\n        /* \"sExodus/ECDSA.sol\":954:1068  if (error == RecoverError.InvalidSignatureV) {... */\n    tag_342:\n        /* \"sExodus/ECDSA.sol\":443:1074  function _throwError(RecoverError error) private pure {... */\n      pop\n      jump\t// out\n    stop\n    data_035b6bc83dafb7a2caf38cee64b612ce6a24918ce92e23821600bd75c1740717 6745584f3a20206745584f206973206e6f7420612076616c696420636f6e7472616374\n    data_520d1f787dbcafbbfc007fd2c4ecf3d2711ec587f3ee9a1215c0b646c3e530bd 45434453413a20696e76616c6964207369676e6174757265202773272076616c7565\n    data_8522ee1b53216f595394db8e80a64d9e7d9bd512c0811c18debe9f40858597e4 45434453413a20696e76616c6964207369676e6174757265202776272076616c7565\n    data_9113bb53c2876a3805b2c9242029423fc540a728243ce887ab24c82cf119fba3 536166654d6174683a206d756c7469706c69636174696f6e206f766572666c6f77\n    data_943a7f2fe776b1da8f1c593116d1db5f305d3c06d55576c45bce8bd0cf858a2e 496e697469616c697a65723a202063616c6c6572206973206e6f7420696e697469616c697a6572\n    data_a5659c1cc908cdac5d93994075e79b6facf5d4cb17e30f3636004f4933a19d9c 5374616b696e67436f6e74726163743a202063616c6c206973206e6f74207374616b696e6720636f6e7472616374\n\n    auxdata: 0xa2646970667358221220772d2e62702f79b66dac145754a7b5a45b4a5fb7d67e87f0598fa1f1f89c0a7064736f6c63430007050033\n}\n",
				"bytecode": {
					"linkReferences": {},
					"object": "6101606040527f6e71edae12b1b97f4d1f60370fef10105fa2faae0126114a169c64845d6126c9610140523480156200003757600080fd5b506040518060400160405280600a8152602001695374616b65642045584f60b01b81525080604051806040016040528060018152602001603160f81b8152506040518060400160405280600a8152602001695374616b65642045584f60b01b815250604051806040016040528060048152602001637345584f60e01b81525060098260039080519060200190620000d092919062000314565b508151620000e690600490602085019062000314565b5060f81b7fff00000000000000000000000000000000000000000000000000000000000000166080525050815160208084019190912082519183019190912060e08290526101008190524660c081905291907f8b73c3c69bb8fe3d512ecc4cf759cc79239f7b179b0ffacaa9a75d522b39400f62000166818484620001be565b60a052610120525050600680546001600160a01b0319163317905550506611c37937e080006002819055620001b5925090508060001906600019036200020360201b620017701790919060201c565b600b55620003c0565b604080516020808201959095528082019390935260608301919091524660808301523060a0808401919091528151808403909101815260c09092019052805191012090565b60006200024d83836040518060400160405280601a81526020017f536166654d6174683a206469766973696f6e206279207a65726f0000000000008152506200025460201b60201c565b9392505050565b60008183620002e45760405162461bcd60e51b81526004018080602001828103825283818151815260200191508051906020019080838360005b83811015620002a85781810151838201526020016200028e565b50505050905090810190601f168015620002d65780820380516001836020036101000a031916815260200191505b509250505060405180910390fd5b506000838581620002f157fe5b049050838581620002fe57fe5b068185020185146200030c57fe5b949350505050565b828054600181600116156101000203166002900490600052602060002090601f0160209004810192826200034c576000855562000397565b82601f106200036757805160ff191683800117855562000397565b8280016001018555821562000397579182015b82811115620003975782518255916020019190600101906200037a565b50620003a5929150620003a9565b5090565b5b80821115620003a55760008155600101620003aa565b60805160f81c60a05160c05160e0516101005161012051610140516120b96200041760003980611613525080611aa7525080611ae9525080611ac8525080611a53525080611a7b525080610c5d52506120b96000f3fe608060405234801561001057600080fd5b50600436106101da5760003560e01c806361d027b311610104578063a457c2d7116100a2578063c4ef1c4c11610071578063c4ef1c4c146105b9578063d505accf146105df578063dd62ed3e14610630578063ee99205c1461065e576101da565b8063a457c2d714610510578063a9059cbb1461053c578063ae5c6cd314610568578063b8fbd5331461059c576101da565b80637965d56d116100de5780637965d56d146104bd5780637ecebe00146104da5780639358928b1461050057806395d89b4114610508576101da565b806361d027b31461043a57806370a082311461044257806373c69eb714610468576101da565b8063245c0e991161017c5780633644e5151161014b5780633644e515146103bb57806339509351146103c357806340a5737f146103ef578063485cc9551461040c576101da565b8063245c0e99146103495780632986c0e5146103715780632af36b4314610379578063313ce5671461039d576101da565b8063095ea7b3116101b8578063095ea7b3146102ae57806318160ddd146102ee5780631bd39674146102f657806323b872dd14610313576101da565b8063058ecdb4146101df57806306fdde0314610214578063095be81814610291575b600080fd5b610202600480360360408110156101f557600080fd5b5080359060200135610666565b60408051918252519081900360200190f35b61021c6107f6565b6040805160208082528351818301528351919283929083019185019080838360005b8381101561025657818101518382015260200161023e565b50505050905090810190601f1680156102835780820380516001836020036101000a031916815260200191505b509250505060405180910390f35b610202600480360360208110156102a757600080fd5b503561088d565b6102da600480360360408110156102c457600080fd5b506001600160a01b038135169060200135610924565b604080519115158252519081900360200190f35b61020261093a565b6102026004803603602081101561030c57600080fd5b5035610940565b6102da6004803603606081101561032957600080fd5b506001600160a01b03813581169160208101359091169060400135610957565b61036f6004803603602081101561035f57600080fd5b50356001600160a01b0316610b1f565b005b610202610c3a565b610381610c4c565b604080516001600160a01b039092168252519081900360200190f35b6103a5610c5b565b6040805160ff9092168252519081900360200190f35b610202610c7f565b6102da600480360360408110156103d957600080fd5b506001600160a01b038135169060200135610c89565b61036f6004803603602081101561040557600080fd5b5035610cc4565b61036f6004803603604081101561042257600080fd5b506001600160a01b0381358116916020013516610d71565b610381610f80565b6102026004803603602081101561045857600080fd5b50356001600160a01b0316610f8f565b6104856004803603602081101561047e57600080fd5b5035610fb7565b604080519788526020880196909652868601949094526060860192909252608085015260a084015260c0830152519081900360e00190f35b610202600480360360208110156104d357600080fd5b5035611009565b610202600480360360208110156104f057600080fd5b50356001600160a01b0316611020565b610202611041565b61021c6111fc565b6102da6004803603604081101561052657600080fd5b506001600160a01b03813516906020013561125d565b6102da6004803603604081101561055257600080fd5b506001600160a01b0381351690602001356112b2565b61036f6004803603606081101561057e57600080fd5b508035906001600160a01b03602082013516906040013515156113e6565b610202600480360360208110156105b257600080fd5b5035611543565b610202600480360360208110156105cf57600080fd5b50356001600160a01b03166115a8565b61036f600480360360e08110156105f557600080fd5b506001600160a01b03813581169160208101359091169060408101359060608101359060ff6080820135169060a08101359060c001356115ba565b6102026004803603604081101561064657600080fd5b506001600160a01b0381358116916020013516611736565b610381611761565b6008546000906001600160a01b031633146106b25760405162461bcd60e51b815260040180806020018281038252602e815260200180612056602e913960400191505060405180910390fd5b6000806106bd611041565b90508461074c57600254604080519182525185917f0417b340e646d4be71f9b2da63b5c3c69bc9cfa069f0e0db4756271886130bf4919081900360200190a2837f6012dbce857565c4a40974aa5de8373a761fc429077ef0c8c8611d1e20d63fb26000610728610c3a565b6040805192835260208301919091528051918290030190a2600254925050506107f0565b8015610778576107718161076b600254886117b990919063ffffffff16565b90611770565b915061077c565b8491505b6002546107899083611812565b60028190556fffffffffffffffffffffffffffffffff10156107ba576fffffffffffffffffffffffffffffffff6002555b6107da6002546611c37937e08000600019816107d257fe5b061990611770565b600b556107e881868661186c565b600254925050505b92915050565b60038054604080516020601f60026000196101006001881615020190951694909404938401819004810282018101909252828152606093909290918301828280156108825780601f1061085757610100808354040283529160200191610882565b820191906000526020600020905b81548152906001019060200180831161086557829003601f168201915b505050505090505b90565b600954604080517f66a5236c0000000000000000000000000000000000000000000000000000000081526004810184905290516000926001600160a01b0316916366a5236c916024808301926020929190829003018186803b1580156108f257600080fd5b505afa158015610906573d6000803e3d6000fd5b505050506040513d602081101561091c57600080fd5b505192915050565b60006109313384846119aa565b50600192915050565b60025490565b60006107f0600b54836117b990919063ffffffff16565b6001600160a01b0383166000908152600d602090815260408083203384529091528120546109859083611a0c565b6001600160a01b0385166000818152600d60209081526040808320338085529083529281902085905580519485525191937f8c5be1e5ebec7d5bd14f71427d1e84f3dd0314c0f7b2291e5b200ac8c7c3b925929081900390910190a360006109ec83610940565b6001600160a01b0386166000908152600c6020526040902054909150610a129082611a0c565b6001600160a01b038087166000908152600c60205260408082209390935590861681522054610a419082611812565b6001600160a01b038086166000908152600c60209081526040808320949094559188168152600f9091522054610a7686610f8f565b1015610ac9576040805162461bcd60e51b815260206004820152601c60248201527f446562743a2063616e6e6f74207472616e7366657220616d6f756e7400000000604482015290519081900360640190fd5b836001600160a01b0316856001600160a01b03167fddf252ad1be2c89b69c2b068fc378daa952ba7f163c4a11628f55a4df523b3ef856040518082815260200191505060405180910390a3506001949350505050565b6006546001600160a01b03163314610b685760405162461bcd60e51b815260040180806020018281038252602781526020018061202f6027913960400191505060405180910390fd5b6009546001600160a01b031615610bc6576040805162461bcd60e51b815260206004820152601760248201527f6745584f3a20206745584f20616c726561647920736574000000000000000000604482015290519081900360640190fd5b6001600160a01b038116610c0b5760405162461bcd60e51b8152600401808060200182810382526023815260200180611fa76023913960400191505060405180910390fd5b6009805473ffffffffffffffffffffffffffffffffffffffff19166001600160a01b0392909216919091179055565b6000610c47600754611009565b905090565b6009546001600160a01b031681565b7f000000000000000000000000000000000000000000000000000000000000000090565b6000610c47611a4e565b336000818152600d602090815260408083206001600160a01b03871684529091528120549091610931918590610cbf9086611812565b6119aa565b6006546001600160a01b03163314610d0d5760405162461bcd60e51b815260040180806020018281038252602781526020018061202f6027913960400191505060405180910390fd5b60075415610d62576040805162461bcd60e51b815260206004820152601660248201527f43616e6e6f742073657420494e44455820616761696e00000000000000000000604482015290519081900360640190fd5b610d6b81610940565b60075550565b6006546001600160a01b03163314610dba5760405162461bcd60e51b815260040180806020018281038252602781526020018061202f6027913960400191505060405180910390fd5b6001600160a01b038216610e15576040805162461bcd60e51b815260206004820152600760248201527f5374616b696e6700000000000000000000000000000000000000000000000000604482015290519081900360640190fd5b6008805473ffffffffffffffffffffffffffffffffffffffff19166001600160a01b0384811691909117918290559081166000908152600c60205260409020660e3d2cfe61ffff1990558116610eb2576040805162461bcd60e51b815260206004820152601660248201527f5a65726f20616464726573733a20547265617375727900000000000000000000604482015290519081900360640190fd5b600e805473ffffffffffffffffffffffffffffffffffffffff19166001600160a01b0383811691909117909155600854600254604080519182525191909216916000917fddf252ad1be2c89b69c2b068fc378daa952ba7f163c4a11628f55a4df523b3ef916020908290030190a3600854604080516001600160a01b039092168252517f817c653428858ed536dc085c5d8273734c517b55de44b55f5c5877a75e3373a19181900360200190a150506006805473ffffffffffffffffffffffffffffffffffffffff19169055565b600e546001600160a01b031681565b600b546001600160a01b0382166000908152600c602052604081205490916107f09190611770565b600a8181548110610fc757600080fd5b90600052602060002090600702016000915090508060000154908060010154908060020154908060030154908060040154908060050154908060060154905087565b60006107f0600b548361177090919063ffffffff16565b6001600160a01b03811660009081526005602052604081206107f090611b15565b6000610c47600860009054906101000a90046001600160a01b03166001600160a01b031663201386416040518163ffffffff1660e01b815260040160206040518083038186803b15801561109457600080fd5b505afa1580156110a8573d6000803e3d6000fd5b505050506040513d60208110156110be57600080fd5b5051600954604080517f18160ddd00000000000000000000000000000000000000000000000000000000815290516111f6926001600160a01b03169163a82487689183916318160ddd916004808301926020929190829003018186803b15801561112757600080fd5b505afa15801561113b573d6000803e3d6000fd5b505050506040513d602081101561115157600080fd5b5051604080517fffffffff0000000000000000000000000000000000000000000000000000000060e085901b1681526004810192909252516024808301926020929190829003018186803b1580156111a857600080fd5b505afa1580156111bc573d6000803e3d6000fd5b505050506040513d60208110156111d257600080fd5b50516008546111f6906111ed906001600160a01b0316610f8f565b60025490611a0c565b90611812565b60048054604080516020601f60026000196101006001881615020190951694909404938401819004810282018101909252828152606093909290918301828280156108825780601f1061085757610100808354040283529160200191610882565b336000908152600d602090815260408083206001600160a01b038616845290915281205480831061129957611294338560006119aa565b6112a8565b6112a83385610cbf8487611a0c565b5060019392505050565b6000806112ca600b54846117b990919063ffffffff16565b336000908152600c60205260409020549091506112e79082611a0c565b336000908152600c6020526040808220929092556001600160a01b038616815220546113139082611812565b6001600160a01b0385166000908152600c602090815260408083209390935533808352600f909152919020549061134990610f8f565b101561139c576040805162461bcd60e51b815260206004820152601c60248201527f446562743a2063616e6e6f74207472616e7366657220616d6f756e7400000000604482015290519081900360640190fd5b6040805184815290516001600160a01b0386169133917fddf252ad1be2c89b69c2b068fc378daa952ba7f163c4a11628f55a4df523b3ef9181900360200190a35060019392505050565b600e546001600160a01b03163314611445576040805162461bcd60e51b815260206004820152600d60248201527f4f6e6c7920747265617375727900000000000000000000000000000000000000604482015290519081900360640190fd5b801561148c576001600160a01b0382166000908152600f602052604090205461146e9084611812565b6001600160a01b0383166000908152600f60205260409020556114c9565b6001600160a01b0382166000908152600f60205260409020546114af9084611a0c565b6001600160a01b0383166000908152600f60205260409020555b6114d282610f8f565b6001600160a01b0383166000908152600f6020526040902054111561153e576040805162461bcd60e51b815260206004820152601a60248201527f7345584f3a20696e73756666696369656e742062616c616e6365000000000000604482015290519081900360640190fd5b505050565b600954604080517fa82487680000000000000000000000000000000000000000000000000000000081526004810184905290516000926001600160a01b03169163a8248768916024808301926020929190829003018186803b1580156108f257600080fd5b600f6020526000908152604090205481565b8342111561160f576040805162461bcd60e51b815260206004820152601d60248201527f45524332305065726d69743a206578706972656420646561646c696e65000000604482015290519081900360640190fd5b60007f000000000000000000000000000000000000000000000000000000000000000088888861163e8c611b19565b8960405160200180878152602001866001600160a01b03168152602001856001600160a01b03168152602001848152602001838152602001828152602001965050505050505060405160208183030381529060405280519060200120905060006116a782611b4b565b905060006116b782878787611b5e565b9050896001600160a01b0316816001600160a01b03161461171f576040805162461bcd60e51b815260206004820152601e60248201527f45524332305065726d69743a20696e76616c6964207369676e61747572650000604482015290519081900360640190fd5b61172a8a8a8a6119aa565b50505050505050505050565b6001600160a01b039182166000908152600d6020908152604080832093909416825291909152205490565b6008546001600160a01b031681565b60006117b283836040518060400160405280601a81526020017f536166654d6174683a206469766973696f6e206279207a65726f000000000000815250611b86565b9392505050565b6000826117c8575060006107f0565b828202828482816117d557fe5b04146117b25760405162461bcd60e51b815260040180806020018281038252602181526020018061200e6021913960400191505060405180910390fd5b6000828201838110156117b2576040805162461bcd60e51b815260206004820152601b60248201527f536166654d6174683a206164646974696f6e206f766572666c6f770000000000604482015290519081900360640190fd5b60006118848461076b85670de0b6b3a76400006117b9565b9050600a6040518060e001604052808481526020018381526020018681526020016118ad611041565b81526020018581526020016118c0610c3a565b81524360209182015282546001818101855560009485529382902083516007909202019081558282015193810193909355604080830151600280860191909155606084015160038601556080840151600486015560a0840151600586015560c09093015160069094019390935590548251908152915184927f0417b340e646d4be71f9b2da63b5c3c69bc9cfa069f0e0db4756271886130bf492908290030190a2817f6012dbce857565c4a40974aa5de8373a761fc429077ef0c8c8611d1e20d63fb28261198c610c3a565b6040805192835260208301919091528051918290030190a250505050565b6001600160a01b038084166000818152600d6020908152604080832094871680845294825291829020859055815185815291517f8c5be1e5ebec7d5bd14f71427d1e84f3dd0314c0f7b2291e5b200ac8c7c3b9259281900390910190a3505050565b60006117b283836040518060400160405280601e81526020017f536166654d6174683a207375627472616374696f6e206f766572666c6f770000815250611c3f565b6000467f0000000000000000000000000000000000000000000000000000000000000000811415611aa2577f000000000000000000000000000000000000000000000000000000000000000091505061088a565b611b0d7f00000000000000000000000000000000000000000000000000000000000000007f00000000000000000000000000000000000000000000000000000000000000007f0000000000000000000000000000000000000000000000000000000000000000611c99565b91505061088a565b5490565b6001600160a01b0381166000908152600560205260408120611b3a81611b15565b9150611b4581611cde565b50919050565b60006107f0611b58611a4e565b83611ce7565b6000806000611b6f87878787611d3d565b91509150611b7c81611e32565b5095945050505050565b60008183611c125760405162461bcd60e51b81526004018080602001828103825283818151815260200191508051906020019080838360005b83811015611bd7578181015183820152602001611bbf565b50505050905090810190601f168015611c045780820380516001836020036101000a031916815260200191505b509250505060405180910390fd5b506000838581611c1e57fe5b049050838581611c2a57fe5b06818502018514611c3757fe5b949350505050565b60008184841115611c915760405162461bcd60e51b8152602060048201818152835160248401528351909283926044909101919085019080838360008315611bd7578181015183820152602001611bbf565b505050900390565b604080516020808201959095528082019390935260608301919091524660808301523060a0808401919091528151808403909101815260c09092019052805191012090565b80546001019055565b604080517f19010000000000000000000000000000000000000000000000000000000000006020808301919091526022820194909452604280820193909352815180820390930183526062019052805191012090565b6000807f7fffffffffffffffffffffffffffffff5d576e7357a4501ddfe92f46681b20a0831115611d745750600090506003611e29565b8460ff16601b14158015611d8c57508460ff16601c14155b15611d9d5750600090506004611e29565b600060018787878760405160008152602001604052604051808581526020018460ff1681526020018381526020018281526020019450505050506020604051602081039080840390855afa158015611df9573d6000803e3d6000fd5b5050604051601f1901519150506001600160a01b038116611e2257600060019250925050611e29565b9150600090505b94509492505050565b6000816004811115611e4057fe5b1415611e4b57611fa3565b6001816004811115611e5957fe5b1415611eac576040805162461bcd60e51b815260206004820152601860248201527f45434453413a20696e76616c6964207369676e61747572650000000000000000604482015290519081900360640190fd5b6002816004811115611eba57fe5b1415611f0d576040805162461bcd60e51b815260206004820152601f60248201527f45434453413a20696e76616c6964207369676e6174757265206c656e67746800604482015290519081900360640190fd5b6003816004811115611f1b57fe5b1415611f585760405162461bcd60e51b8152600401808060200182810382526022815260200180611fca6022913960400191505060405180910390fd5b6004816004811115611f6657fe5b1415611fa35760405162461bcd60e51b8152600401808060200182810382526022815260200180611fec6022913960400191505060405180910390fd5b5056fe6745584f3a20206745584f206973206e6f7420612076616c696420636f6e747261637445434453413a20696e76616c6964207369676e6174757265202773272076616c756545434453413a20696e76616c6964207369676e6174757265202776272076616c7565536166654d6174683a206d756c7469706c69636174696f6e206f766572666c6f77496e697469616c697a65723a202063616c6c6572206973206e6f7420696e697469616c697a65725374616b696e67436f6e74726163743a202063616c6c206973206e6f74207374616b696e6720636f6e7472616374a2646970667358221220772d2e62702f79b66dac145754a7b5a45b4a5fb7d67e87f0598fa1f1f89c0a7064736f6c63430007050033",
					"opcodes": "PUSH2 0x160 PUSH1 0x40 MSTORE PUSH32 0x6E71EDAE12B1B97F4D1F60370FEF10105FA2FAAE0126114A169C64845D6126C9 PUSH2 0x140 MSTORE CALLVALUE DUP1 ISZERO PUSH3 0x37 JUMPI PUSH1 0x0 DUP1 REVERT JUMPDEST POP PUSH1 0x40 MLOAD DUP1 PUSH1 0x40 ADD PUSH1 0x40 MSTORE DUP1 PUSH1 0xA DUP2 MSTORE PUSH1 0x20 ADD PUSH10 0x5374616B65642045584F PUSH1 0xB0 SHL DUP2 MSTORE POP DUP1 PUSH1 0x40 MLOAD DUP1 PUSH1 0x40 ADD PUSH1 0x40 MSTORE DUP1 PUSH1 0x1 DUP2 MSTORE PUSH1 0x20 ADD PUSH1 0x31 PUSH1 0xF8 SHL DUP2 MSTORE POP PUSH1 0x40 MLOAD DUP1 PUSH1 0x40 ADD PUSH1 0x40 MSTORE DUP1 PUSH1 0xA DUP2 MSTORE PUSH1 0x20 ADD PUSH10 0x5374616B65642045584F PUSH1 0xB0 SHL DUP2 MSTORE POP PUSH1 0x40 MLOAD DUP1 PUSH1 0x40 ADD PUSH1 0x40 MSTORE DUP1 PUSH1 0x4 DUP2 MSTORE PUSH1 0x20 ADD PUSH4 0x7345584F PUSH1 0xE0 SHL DUP2 MSTORE POP PUSH1 0x9 DUP3 PUSH1 0x3 SWAP1 DUP1 MLOAD SWAP1 PUSH1 0x20 ADD SWAP1 PUSH3 0xD0 SWAP3 SWAP2 SWAP1 PUSH3 0x314 JUMP JUMPDEST POP DUP2 MLOAD PUSH3 0xE6 SWAP1 PUSH1 0x4 SWAP1 PUSH1 0x20 DUP6 ADD SWAP1 PUSH3 0x314 JUMP JUMPDEST POP PUSH1 0xF8 SHL PUSH32 0xFF00000000000000000000000000000000000000000000000000000000000000 AND PUSH1 0x80 MSTORE POP POP DUP2 MLOAD PUSH1 0x20 DUP1 DUP5 ADD SWAP2 SWAP1 SWAP2 KECCAK256 DUP3 MLOAD SWAP2 DUP4 ADD SWAP2 SWAP1 SWAP2 KECCAK256 PUSH1 0xE0 DUP3 SWAP1 MSTORE PUSH2 0x100 DUP2 SWAP1 MSTORE CHAINID PUSH1 0xC0 DUP2 SWAP1 MSTORE SWAP2 SWAP1 PUSH32 0x8B73C3C69BB8FE3D512ECC4CF759CC79239F7B179B0FFACAA9A75D522B39400F PUSH3 0x166 DUP2 DUP5 DUP5 PUSH3 0x1BE JUMP JUMPDEST PUSH1 0xA0 MSTORE PUSH2 0x120 MSTORE POP POP PUSH1 0x6 DUP1 SLOAD PUSH1 0x1 PUSH1 0x1 PUSH1 0xA0 SHL SUB NOT AND CALLER OR SWAP1 SSTORE POP POP PUSH7 0x11C37937E08000 PUSH1 0x2 DUP2 SWAP1 SSTORE PUSH3 0x1B5 SWAP3 POP SWAP1 POP DUP1 PUSH1 0x0 NOT MOD PUSH1 0x0 NOT SUB PUSH3 0x203 PUSH1 0x20 SHL PUSH3 0x1770 OR SWAP1 SWAP2 SWAP1 PUSH1 0x20 SHR JUMP JUMPDEST PUSH1 0xB SSTORE PUSH3 0x3C0 JUMP JUMPDEST PUSH1 0x40 DUP1 MLOAD PUSH1 0x20 DUP1 DUP3 ADD SWAP6 SWAP1 SWAP6 MSTORE DUP1 DUP3 ADD SWAP4 SWAP1 SWAP4 MSTORE PUSH1 0x60 DUP4 ADD SWAP2 SWAP1 SWAP2 MSTORE CHAINID PUSH1 0x80 DUP4 ADD MSTORE ADDRESS PUSH1 0xA0 DUP1 DUP5 ADD SWAP2 SWAP1 SWAP2 MSTORE DUP2 MLOAD DUP1 DUP5 SUB SWAP1 SWAP2 ADD DUP2 MSTORE PUSH1 0xC0 SWAP1 SWAP3 ADD SWAP1 MSTORE DUP1 MLOAD SWAP2 ADD KECCAK256 SWAP1 JUMP JUMPDEST PUSH1 0x0 PUSH3 0x24D DUP4 DUP4 PUSH1 0x40 MLOAD DUP1 PUSH1 0x40 ADD PUSH1 0x40 MSTORE DUP1 PUSH1 0x1A DUP2 MSTORE PUSH1 0x20 ADD PUSH32 0x536166654D6174683A206469766973696F6E206279207A65726F000000000000 DUP2 MSTORE POP PUSH3 0x254 PUSH1 0x20 SHL PUSH1 0x20 SHR JUMP JUMPDEST SWAP4 SWAP3 POP POP POP JUMP JUMPDEST PUSH1 0x0 DUP2 DUP4 PUSH3 0x2E4 JUMPI PUSH1 0x40 MLOAD PUSH3 0x461BCD PUSH1 0xE5 SHL DUP2 MSTORE PUSH1 0x4 ADD DUP1 DUP1 PUSH1 0x20 ADD DUP3 DUP2 SUB DUP3 MSTORE DUP4 DUP2 DUP2 MLOAD DUP2 MSTORE PUSH1 0x20 ADD SWAP2 POP DUP1 MLOAD SWAP1 PUSH1 0x20 ADD SWAP1 DUP1 DUP4 DUP4 PUSH1 0x0 JUMPDEST DUP4 DUP2 LT ISZERO PUSH3 0x2A8 JUMPI DUP2 DUP2 ADD MLOAD DUP4 DUP3 ADD MSTORE PUSH1 0x20 ADD PUSH3 0x28E JUMP JUMPDEST POP POP POP POP SWAP1 POP SWAP1 DUP2 ADD SWAP1 PUSH1 0x1F AND DUP1 ISZERO PUSH3 0x2D6 JUMPI DUP1 DUP3 SUB DUP1 MLOAD PUSH1 0x1 DUP4 PUSH1 0x20 SUB PUSH2 0x100 EXP SUB NOT AND DUP2 MSTORE PUSH1 0x20 ADD SWAP2 POP JUMPDEST POP SWAP3 POP POP POP PUSH1 0x40 MLOAD DUP1 SWAP2 SUB SWAP1 REVERT JUMPDEST POP PUSH1 0x0 DUP4 DUP6 DUP2 PUSH3 0x2F1 JUMPI INVALID JUMPDEST DIV SWAP1 POP DUP4 DUP6 DUP2 PUSH3 0x2FE JUMPI INVALID JUMPDEST MOD DUP2 DUP6 MUL ADD DUP6 EQ PUSH3 0x30C JUMPI INVALID JUMPDEST SWAP5 SWAP4 POP POP POP POP JUMP JUMPDEST DUP3 DUP1 SLOAD PUSH1 0x1 DUP2 PUSH1 0x1 AND ISZERO PUSH2 0x100 MUL SUB AND PUSH1 0x2 SWAP1 DIV SWAP1 PUSH1 0x0 MSTORE PUSH1 0x20 PUSH1 0x0 KECCAK256 SWAP1 PUSH1 0x1F ADD PUSH1 0x20 SWAP1 DIV DUP2 ADD SWAP3 DUP3 PUSH3 0x34C JUMPI PUSH1 0x0 DUP6 SSTORE PUSH3 0x397 JUMP JUMPDEST DUP3 PUSH1 0x1F LT PUSH3 0x367 JUMPI DUP1 MLOAD PUSH1 0xFF NOT AND DUP4 DUP1 ADD OR DUP6 SSTORE PUSH3 0x397 JUMP JUMPDEST DUP3 DUP1 ADD PUSH1 0x1 ADD DUP6 SSTORE DUP3 ISZERO PUSH3 0x397 JUMPI SWAP2 DUP3 ADD JUMPDEST DUP3 DUP2 GT ISZERO PUSH3 0x397 JUMPI DUP3 MLOAD DUP3 SSTORE SWAP2 PUSH1 0x20 ADD SWAP2 SWAP1 PUSH1 0x1 ADD SWAP1 PUSH3 0x37A JUMP JUMPDEST POP PUSH3 0x3A5 SWAP3 SWAP2 POP PUSH3 0x3A9 JUMP JUMPDEST POP SWAP1 JUMP JUMPDEST JUMPDEST DUP1 DUP3 GT ISZERO PUSH3 0x3A5 JUMPI PUSH1 0x0 DUP2 SSTORE PUSH1 0x1 ADD PUSH3 0x3AA JUMP JUMPDEST PUSH1 0x80 MLOAD PUSH1 0xF8 SHR PUSH1 0xA0 MLOAD PUSH1 0xC0 MLOAD PUSH1 0xE0 MLOAD PUSH2 0x100 MLOAD PUSH2 0x120 MLOAD PUSH2 0x140 MLOAD PUSH2 0x20B9 PUSH3 0x417 PUSH1 0x0 CODECOPY DUP1 PUSH2 0x1613 MSTORE POP DUP1 PUSH2 0x1AA7 MSTORE POP DUP1 PUSH2 0x1AE9 MSTORE POP DUP1 PUSH2 0x1AC8 MSTORE POP DUP1 PUSH2 0x1A53 MSTORE POP DUP1 PUSH2 0x1A7B MSTORE POP DUP1 PUSH2 0xC5D MSTORE POP PUSH2 0x20B9 PUSH1 0x0 RETURN INVALID PUSH1 0x80 PUSH1 0x40 MSTORE CALLVALUE DUP1 ISZERO PUSH2 0x10 JUMPI PUSH1 0x0 DUP1 REVERT JUMPDEST POP PUSH1 0x4 CALLDATASIZE LT PUSH2 0x1DA JUMPI PUSH1 0x0 CALLDATALOAD PUSH1 0xE0 SHR DUP1 PUSH4 0x61D027B3 GT PUSH2 0x104 JUMPI DUP1 PUSH4 0xA457C2D7 GT PUSH2 0xA2 JUMPI DUP1 PUSH4 0xC4EF1C4C GT PUSH2 0x71 JUMPI DUP1 PUSH4 0xC4EF1C4C EQ PUSH2 0x5B9 JUMPI DUP1 PUSH4 0xD505ACCF EQ PUSH2 0x5DF JUMPI DUP1 PUSH4 0xDD62ED3E EQ PUSH2 0x630 JUMPI DUP1 PUSH4 0xEE99205C EQ PUSH2 0x65E JUMPI PUSH2 0x1DA JUMP JUMPDEST DUP1 PUSH4 0xA457C2D7 EQ PUSH2 0x510 JUMPI DUP1 PUSH4 0xA9059CBB EQ PUSH2 0x53C JUMPI DUP1 PUSH4 0xAE5C6CD3 EQ PUSH2 0x568 JUMPI DUP1 PUSH4 0xB8FBD533 EQ PUSH2 0x59C JUMPI PUSH2 0x1DA JUMP JUMPDEST DUP1 PUSH4 0x7965D56D GT PUSH2 0xDE JUMPI DUP1 PUSH4 0x7965D56D EQ PUSH2 0x4BD JUMPI DUP1 PUSH4 0x7ECEBE00 EQ PUSH2 0x4DA JUMPI DUP1 PUSH4 0x9358928B EQ PUSH2 0x500 JUMPI DUP1 PUSH4 0x95D89B41 EQ PUSH2 0x508 JUMPI PUSH2 0x1DA JUMP JUMPDEST DUP1 PUSH4 0x61D027B3 EQ PUSH2 0x43A JUMPI DUP1 PUSH4 0x70A08231 EQ PUSH2 0x442 JUMPI DUP1 PUSH4 0x73C69EB7 EQ PUSH2 0x468 JUMPI PUSH2 0x1DA JUMP JUMPDEST DUP1 PUSH4 0x245C0E99 GT PUSH2 0x17C JUMPI DUP1 PUSH4 0x3644E515 GT PUSH2 0x14B JUMPI DUP1 PUSH4 0x3644E515 EQ PUSH2 0x3BB JUMPI DUP1 PUSH4 0x39509351 EQ PUSH2 0x3C3 JUMPI DUP1 PUSH4 0x40A5737F EQ PUSH2 0x3EF JUMPI DUP1 PUSH4 0x485CC955 EQ PUSH2 0x40C JUMPI PUSH2 0x1DA JUMP JUMPDEST DUP1 PUSH4 0x245C0E99 EQ PUSH2 0x349 JUMPI DUP1 PUSH4 0x2986C0E5 EQ PUSH2 0x371 JUMPI DUP1 PUSH4 0x2AF36B43 EQ PUSH2 0x379 JUMPI DUP1 PUSH4 0x313CE567 EQ PUSH2 0x39D JUMPI PUSH2 0x1DA JUMP JUMPDEST DUP1 PUSH4 0x95EA7B3 GT PUSH2 0x1B8 JUMPI DUP1 PUSH4 0x95EA7B3 EQ PUSH2 0x2AE JUMPI DUP1 PUSH4 0x18160DDD EQ PUSH2 0x2EE JUMPI DUP1 PUSH4 0x1BD39674 EQ PUSH2 0x2F6 JUMPI DUP1 PUSH4 0x23B872DD EQ PUSH2 0x313 JUMPI PUSH2 0x1DA JUMP JUMPDEST DUP1 PUSH4 0x58ECDB4 EQ PUSH2 0x1DF JUMPI DUP1 PUSH4 0x6FDDE03 EQ PUSH2 0x214 JUMPI DUP1 PUSH4 0x95BE818 EQ PUSH2 0x291 JUMPI JUMPDEST PUSH1 0x0 DUP1 REVERT JUMPDEST PUSH2 0x202 PUSH1 0x4 DUP1 CALLDATASIZE SUB PUSH1 0x40 DUP2 LT ISZERO PUSH2 0x1F5 JUMPI PUSH1 0x0 DUP1 REVERT JUMPDEST POP DUP1 CALLDATALOAD SWAP1 PUSH1 0x20 ADD CALLDATALOAD PUSH2 0x666 JUMP JUMPDEST PUSH1 0x40 DUP1 MLOAD SWAP2 DUP3 MSTORE MLOAD SWAP1 DUP2 SWAP1 SUB PUSH1 0x20 ADD SWAP1 RETURN JUMPDEST PUSH2 0x21C PUSH2 0x7F6 JUMP JUMPDEST PUSH1 0x40 DUP1 MLOAD PUSH1 0x20 DUP1 DUP3 MSTORE DUP4 MLOAD DUP2 DUP4 ADD MSTORE DUP4 MLOAD SWAP2 SWAP3 DUP4 SWAP3 SWAP1 DUP4 ADD SWAP2 DUP6 ADD SWAP1 DUP1 DUP4 DUP4 PUSH1 0x0 JUMPDEST DUP4 DUP2 LT ISZERO PUSH2 0x256 JUMPI DUP2 DUP2 ADD MLOAD DUP4 DUP3 ADD MSTORE PUSH1 0x20 ADD PUSH2 0x23E JUMP JUMPDEST POP POP POP POP SWAP1 POP SWAP1 DUP2 ADD SWAP1 PUSH1 0x1F AND DUP1 ISZERO PUSH2 0x283 JUMPI DUP1 DUP3 SUB DUP1 MLOAD PUSH1 0x1 DUP4 PUSH1 0x20 SUB PUSH2 0x100 EXP SUB NOT AND DUP2 MSTORE PUSH1 0x20 ADD SWAP2 POP JUMPDEST POP SWAP3 POP POP POP PUSH1 0x40 MLOAD DUP1 SWAP2 SUB SWAP1 RETURN JUMPDEST PUSH2 0x202 PUSH1 0x4 DUP1 CALLDATASIZE SUB PUSH1 0x20 DUP2 LT ISZERO PUSH2 0x2A7 JUMPI PUSH1 0x0 DUP1 REVERT JUMPDEST POP CALLDATALOAD PUSH2 0x88D JUMP JUMPDEST PUSH2 0x2DA PUSH1 0x4 DUP1 CALLDATASIZE SUB PUSH1 0x40 DUP2 LT ISZERO PUSH2 0x2C4 JUMPI PUSH1 0x0 DUP1 REVERT JUMPDEST POP PUSH1 0x1 PUSH1 0x1 PUSH1 0xA0 SHL SUB DUP2 CALLDATALOAD AND SWAP1 PUSH1 0x20 ADD CALLDATALOAD PUSH2 0x924 JUMP JUMPDEST PUSH1 0x40 DUP1 MLOAD SWAP2 ISZERO ISZERO DUP3 MSTORE MLOAD SWAP1 DUP2 SWAP1 SUB PUSH1 0x20 ADD SWAP1 RETURN JUMPDEST PUSH2 0x202 PUSH2 0x93A JUMP JUMPDEST PUSH2 0x202 PUSH1 0x4 DUP1 CALLDATASIZE SUB PUSH1 0x20 DUP2 LT ISZERO PUSH2 0x30C JUMPI PUSH1 0x0 DUP1 REVERT JUMPDEST POP CALLDATALOAD PUSH2 0x940 JUMP JUMPDEST PUSH2 0x2DA PUSH1 0x4 DUP1 CALLDATASIZE SUB PUSH1 0x60 DUP2 LT ISZERO PUSH2 0x329 JUMPI PUSH1 0x0 DUP1 REVERT JUMPDEST POP PUSH1 0x1 PUSH1 0x1 PUSH1 0xA0 SHL SUB DUP2 CALLDATALOAD DUP2 AND SWAP2 PUSH1 0x20 DUP2 ADD CALLDATALOAD SWAP1 SWAP2 AND SWAP1 PUSH1 0x40 ADD CALLDATALOAD PUSH2 0x957 JUMP JUMPDEST PUSH2 0x36F PUSH1 0x4 DUP1 CALLDATASIZE SUB PUSH1 0x20 DUP2 LT ISZERO PUSH2 0x35F JUMPI PUSH1 0x0 DUP1 REVERT JUMPDEST POP CALLDATALOAD PUSH1 0x1 PUSH1 0x1 PUSH1 0xA0 SHL SUB AND PUSH2 0xB1F JUMP JUMPDEST STOP JUMPDEST PUSH2 0x202 PUSH2 0xC3A JUMP JUMPDEST PUSH2 0x381 PUSH2 0xC4C JUMP JUMPDEST PUSH1 0x40 DUP1 MLOAD PUSH1 0x1 PUSH1 0x1 PUSH1 0xA0 SHL SUB SWAP1 SWAP3 AND DUP3 MSTORE MLOAD SWAP1 DUP2 SWAP1 SUB PUSH1 0x20 ADD SWAP1 RETURN JUMPDEST PUSH2 0x3A5 PUSH2 0xC5B JUMP JUMPDEST PUSH1 0x40 DUP1 MLOAD PUSH1 0xFF SWAP1 SWAP3 AND DUP3 MSTORE MLOAD SWAP1 DUP2 SWAP1 SUB PUSH1 0x20 ADD SWAP1 RETURN JUMPDEST PUSH2 0x202 PUSH2 0xC7F JUMP JUMPDEST PUSH2 0x2DA PUSH1 0x4 DUP1 CALLDATASIZE SUB PUSH1 0x40 DUP2 LT ISZERO PUSH2 0x3D9 JUMPI PUSH1 0x0 DUP1 REVERT JUMPDEST POP PUSH1 0x1 PUSH1 0x1 PUSH1 0xA0 SHL SUB DUP2 CALLDATALOAD AND SWAP1 PUSH1 0x20 ADD CALLDATALOAD PUSH2 0xC89 JUMP JUMPDEST PUSH2 0x36F PUSH1 0x4 DUP1 CALLDATASIZE SUB PUSH1 0x20 DUP2 LT ISZERO PUSH2 0x405 JUMPI PUSH1 0x0 DUP1 REVERT JUMPDEST POP CALLDATALOAD PUSH2 0xCC4 JUMP JUMPDEST PUSH2 0x36F PUSH1 0x4 DUP1 CALLDATASIZE SUB PUSH1 0x40 DUP2 LT ISZERO PUSH2 0x422 JUMPI PUSH1 0x0 DUP1 REVERT JUMPDEST POP PUSH1 0x1 PUSH1 0x1 PUSH1 0xA0 SHL SUB DUP2 CALLDATALOAD DUP2 AND SWAP2 PUSH1 0x20 ADD CALLDATALOAD AND PUSH2 0xD71 JUMP JUMPDEST PUSH2 0x381 PUSH2 0xF80 JUMP JUMPDEST PUSH2 0x202 PUSH1 0x4 DUP1 CALLDATASIZE SUB PUSH1 0x20 DUP2 LT ISZERO PUSH2 0x458 JUMPI PUSH1 0x0 DUP1 REVERT JUMPDEST POP CALLDATALOAD PUSH1 0x1 PUSH1 0x1 PUSH1 0xA0 SHL SUB AND PUSH2 0xF8F JUMP JUMPDEST PUSH2 0x485 PUSH1 0x4 DUP1 CALLDATASIZE SUB PUSH1 0x20 DUP2 LT ISZERO PUSH2 0x47E JUMPI PUSH1 0x0 DUP1 REVERT JUMPDEST POP CALLDATALOAD PUSH2 0xFB7 JUMP JUMPDEST PUSH1 0x40 DUP1 MLOAD SWAP8 DUP9 MSTORE PUSH1 0x20 DUP9 ADD SWAP7 SWAP1 SWAP7 MSTORE DUP7 DUP7 ADD SWAP5 SWAP1 SWAP5 MSTORE PUSH1 0x60 DUP7 ADD SWAP3 SWAP1 SWAP3 MSTORE PUSH1 0x80 DUP6 ADD MSTORE PUSH1 0xA0 DUP5 ADD MSTORE PUSH1 0xC0 DUP4 ADD MSTORE MLOAD SWAP1 DUP2 SWAP1 SUB PUSH1 0xE0 ADD SWAP1 RETURN JUMPDEST PUSH2 0x202 PUSH1 0x4 DUP1 CALLDATASIZE SUB PUSH1 0x20 DUP2 LT ISZERO PUSH2 0x4D3 JUMPI PUSH1 0x0 DUP1 REVERT JUMPDEST POP CALLDATALOAD PUSH2 0x1009 JUMP JUMPDEST PUSH2 0x202 PUSH1 0x4 DUP1 CALLDATASIZE SUB PUSH1 0x20 DUP2 LT ISZERO PUSH2 0x4F0 JUMPI PUSH1 0x0 DUP1 REVERT JUMPDEST POP CALLDATALOAD PUSH1 0x1 PUSH1 0x1 PUSH1 0xA0 SHL SUB AND PUSH2 0x1020 JUMP JUMPDEST PUSH2 0x202 PUSH2 0x1041 JUMP JUMPDEST PUSH2 0x21C PUSH2 0x11FC JUMP JUMPDEST PUSH2 0x2DA PUSH1 0x4 DUP1 CALLDATASIZE SUB PUSH1 0x40 DUP2 LT ISZERO PUSH2 0x526 JUMPI PUSH1 0x0 DUP1 REVERT JUMPDEST POP PUSH1 0x1 PUSH1 0x1 PUSH1 0xA0 SHL SUB DUP2 CALLDATALOAD AND SWAP1 PUSH1 0x20 ADD CALLDATALOAD PUSH2 0x125D JUMP JUMPDEST PUSH2 0x2DA PUSH1 0x4 DUP1 CALLDATASIZE SUB PUSH1 0x40 DUP2 LT ISZERO PUSH2 0x552 JUMPI PUSH1 0x0 DUP1 REVERT JUMPDEST POP PUSH1 0x1 PUSH1 0x1 PUSH1 0xA0 SHL SUB DUP2 CALLDATALOAD AND SWAP1 PUSH1 0x20 ADD CALLDATALOAD PUSH2 0x12B2 JUMP JUMPDEST PUSH2 0x36F PUSH1 0x4 DUP1 CALLDATASIZE SUB PUSH1 0x60 DUP2 LT ISZERO PUSH2 0x57E JUMPI PUSH1 0x0 DUP1 REVERT JUMPDEST POP DUP1 CALLDATALOAD SWAP1 PUSH1 0x1 PUSH1 0x1 PUSH1 0xA0 SHL SUB PUSH1 0x20 DUP3 ADD CALLDATALOAD AND SWAP1 PUSH1 0x40 ADD CALLDATALOAD ISZERO ISZERO PUSH2 0x13E6 JUMP JUMPDEST PUSH2 0x202 PUSH1 0x4 DUP1 CALLDATASIZE SUB PUSH1 0x20 DUP2 LT ISZERO PUSH2 0x5B2 JUMPI PUSH1 0x0 DUP1 REVERT JUMPDEST POP CALLDATALOAD PUSH2 0x1543 JUMP JUMPDEST PUSH2 0x202 PUSH1 0x4 DUP1 CALLDATASIZE SUB PUSH1 0x20 DUP2 LT ISZERO PUSH2 0x5CF JUMPI PUSH1 0x0 DUP1 REVERT JUMPDEST POP CALLDATALOAD PUSH1 0x1 PUSH1 0x1 PUSH1 0xA0 SHL SUB AND PUSH2 0x15A8 JUMP JUMPDEST PUSH2 0x36F PUSH1 0x4 DUP1 CALLDATASIZE SUB PUSH1 0xE0 DUP2 LT ISZERO PUSH2 0x5F5 JUMPI PUSH1 0x0 DUP1 REVERT JUMPDEST POP PUSH1 0x1 PUSH1 0x1 PUSH1 0xA0 SHL SUB DUP2 CALLDATALOAD DUP2 AND SWAP2 PUSH1 0x20 DUP2 ADD CALLDATALOAD SWAP1 SWAP2 AND SWAP1 PUSH1 0x40 DUP2 ADD CALLDATALOAD SWAP1 PUSH1 0x60 DUP2 ADD CALLDATALOAD SWAP1 PUSH1 0xFF PUSH1 0x80 DUP3 ADD CALLDATALOAD AND SWAP1 PUSH1 0xA0 DUP2 ADD CALLDATALOAD SWAP1 PUSH1 0xC0 ADD CALLDATALOAD PUSH2 0x15BA JUMP JUMPDEST PUSH2 0x202 PUSH1 0x4 DUP1 CALLDATASIZE SUB PUSH1 0x40 DUP2 LT ISZERO PUSH2 0x646 JUMPI PUSH1 0x0 DUP1 REVERT JUMPDEST POP PUSH1 0x1 PUSH1 0x1 PUSH1 0xA0 SHL SUB DUP2 CALLDATALOAD DUP2 AND SWAP2 PUSH1 0x20 ADD CALLDATALOAD AND PUSH2 0x1736 JUMP JUMPDEST PUSH2 0x381 PUSH2 0x1761 JUMP JUMPDEST PUSH1 0x8 SLOAD PUSH1 0x0 SWAP1 PUSH1 0x1 PUSH1 0x1 PUSH1 0xA0 SHL SUB AND CALLER EQ PUSH2 0x6B2 JUMPI PUSH1 0x40 MLOAD PUSH3 0x461BCD PUSH1 0xE5 SHL DUP2 MSTORE PUSH1 0x4 ADD DUP1 DUP1 PUSH1 0x20 ADD DUP3 DUP2 SUB DUP3 MSTORE PUSH1 0x2E DUP2 MSTORE PUSH1 0x20 ADD DUP1 PUSH2 0x2056 PUSH1 0x2E SWAP2 CODECOPY PUSH1 0x40 ADD SWAP2 POP POP PUSH1 0x40 MLOAD DUP1 SWAP2 SUB SWAP1 REVERT JUMPDEST PUSH1 0x0 DUP1 PUSH2 0x6BD PUSH2 0x1041 JUMP JUMPDEST SWAP1 POP DUP5 PUSH2 0x74C JUMPI PUSH1 0x2 SLOAD PUSH1 0x40 DUP1 MLOAD SWAP2 DUP3 MSTORE MLOAD DUP6 SWAP2 PUSH32 0x417B340E646D4BE71F9B2DA63B5C3C69BC9CFA069F0E0DB4756271886130BF4 SWAP2 SWAP1 DUP2 SWAP1 SUB PUSH1 0x20 ADD SWAP1 LOG2 DUP4 PUSH32 0x6012DBCE857565C4A40974AA5DE8373A761FC429077EF0C8C8611D1E20D63FB2 PUSH1 0x0 PUSH2 0x728 PUSH2 0xC3A JUMP JUMPDEST PUSH1 0x40 DUP1 MLOAD SWAP3 DUP4 MSTORE PUSH1 0x20 DUP4 ADD SWAP2 SWAP1 SWAP2 MSTORE DUP1 MLOAD SWAP2 DUP3 SWAP1 SUB ADD SWAP1 LOG2 PUSH1 0x2 SLOAD SWAP3 POP POP POP PUSH2 0x7F0 JUMP JUMPDEST DUP1 ISZERO PUSH2 0x778 JUMPI PUSH2 0x771 DUP2 PUSH2 0x76B PUSH1 0x2 SLOAD DUP9 PUSH2 0x17B9 SWAP1 SWAP2 SWAP1 PUSH4 0xFFFFFFFF AND JUMP JUMPDEST SWAP1 PUSH2 0x1770 JUMP JUMPDEST SWAP2 POP PUSH2 0x77C JUMP JUMPDEST DUP5 SWAP2 POP JUMPDEST PUSH1 0x2 SLOAD PUSH2 0x789 SWAP1 DUP4 PUSH2 0x1812 JUMP JUMPDEST PUSH1 0x2 DUP2 SWAP1 SSTORE PUSH16 0xFFFFFFFFFFFFFFFFFFFFFFFFFFFFFFFF LT ISZERO PUSH2 0x7BA JUMPI PUSH16 0xFFFFFFFFFFFFFFFFFFFFFFFFFFFFFFFF PUSH1 0x2 SSTORE JUMPDEST PUSH2 0x7DA PUSH1 0x2 SLOAD PUSH7 0x11C37937E08000 PUSH1 0x0 NOT DUP2 PUSH2 0x7D2 JUMPI INVALID JUMPDEST MOD NOT SWAP1 PUSH2 0x1770 JUMP JUMPDEST PUSH1 0xB SSTORE PUSH2 0x7E8 DUP2 DUP7 DUP7 PUSH2 0x186C JUMP JUMPDEST PUSH1 0x2 SLOAD SWAP3 POP POP POP JUMPDEST SWAP3 SWAP2 POP POP JUMP JUMPDEST PUSH1 0x3 DUP1 SLOAD PUSH1 0x40 DUP1 MLOAD PUSH1 0x20 PUSH1 0x1F PUSH1 0x2 PUSH1 0x0 NOT PUSH2 0x100 PUSH1 0x1 DUP9 AND ISZERO MUL ADD SWAP1 SWAP6 AND SWAP5 SWAP1 SWAP5 DIV SWAP4 DUP5 ADD DUP2 SWAP1 DIV DUP2 MUL DUP3 ADD DUP2 ADD SWAP1 SWAP3 MSTORE DUP3 DUP2 MSTORE PUSH1 0x60 SWAP4 SWAP1 SWAP3 SWAP1 SWAP2 DUP4 ADD DUP3 DUP3 DUP1 ISZERO PUSH2 0x882 JUMPI DUP1 PUSH1 0x1F LT PUSH2 0x857 JUMPI PUSH2 0x100 DUP1 DUP4 SLOAD DIV MUL DUP4 MSTORE SWAP2 PUSH1 0x20 ADD SWAP2 PUSH2 0x882 JUMP JUMPDEST DUP3 ADD SWAP2 SWAP1 PUSH1 0x0 MSTORE PUSH1 0x20 PUSH1 0x0 KECCAK256 SWAP1 JUMPDEST DUP2 SLOAD DUP2 MSTORE SWAP1 PUSH1 0x1 ADD SWAP1 PUSH1 0x20 ADD DUP1 DUP4 GT PUSH2 0x865 JUMPI DUP3 SWAP1 SUB PUSH1 0x1F AND DUP3 ADD SWAP2 JUMPDEST POP POP POP POP POP SWAP1 POP JUMPDEST SWAP1 JUMP JUMPDEST PUSH1 0x9 SLOAD PUSH1 0x40 DUP1 MLOAD PUSH32 0x66A5236C00000000000000000000000000000000000000000000000000000000 DUP2 MSTORE PUSH1 0x4 DUP2 ADD DUP5 SWAP1 MSTORE SWAP1 MLOAD PUSH1 0x0 SWAP3 PUSH1 0x1 PUSH1 0x1 PUSH1 0xA0 SHL SUB AND SWAP2 PUSH4 0x66A5236C SWAP2 PUSH1 0x24 DUP1 DUP4 ADD SWAP3 PUSH1 0x20 SWAP3 SWAP2 SWAP1 DUP3 SWAP1 SUB ADD DUP2 DUP7 DUP1 EXTCODESIZE ISZERO DUP1 ISZERO PUSH2 0x8F2 JUMPI PUSH1 0x0 DUP1 REVERT JUMPDEST POP GAS STATICCALL ISZERO DUP1 ISZERO PUSH2 0x906 JUMPI RETURNDATASIZE PUSH1 0x0 DUP1 RETURNDATACOPY RETURNDATASIZE PUSH1 0x0 REVERT JUMPDEST POP POP POP POP PUSH1 0x40 MLOAD RETURNDATASIZE PUSH1 0x20 DUP2 LT ISZERO PUSH2 0x91C JUMPI PUSH1 0x0 DUP1 REVERT JUMPDEST POP MLOAD SWAP3 SWAP2 POP POP JUMP JUMPDEST PUSH1 0x0 PUSH2 0x931 CALLER DUP5 DUP5 PUSH2 0x19AA JUMP JUMPDEST POP PUSH1 0x1 SWAP3 SWAP2 POP POP JUMP JUMPDEST PUSH1 0x2 SLOAD SWAP1 JUMP JUMPDEST PUSH1 0x0 PUSH2 0x7F0 PUSH1 0xB SLOAD DUP4 PUSH2 0x17B9 SWAP1 SWAP2 SWAP1 PUSH4 0xFFFFFFFF AND JUMP JUMPDEST PUSH1 0x1 PUSH1 0x1 PUSH1 0xA0 SHL SUB DUP4 AND PUSH1 0x0 SWAP1 DUP2 MSTORE PUSH1 0xD PUSH1 0x20 SWAP1 DUP2 MSTORE PUSH1 0x40 DUP1 DUP4 KECCAK256 CALLER DUP5 MSTORE SWAP1 SWAP2 MSTORE DUP2 KECCAK256 SLOAD PUSH2 0x985 SWAP1 DUP4 PUSH2 0x1A0C JUMP JUMPDEST PUSH1 0x1 PUSH1 0x1 PUSH1 0xA0 SHL SUB DUP6 AND PUSH1 0x0 DUP2 DUP2 MSTORE PUSH1 0xD PUSH1 0x20 SWAP1 DUP2 MSTORE PUSH1 0x40 DUP1 DUP4 KECCAK256 CALLER DUP1 DUP6 MSTORE SWAP1 DUP4 MSTORE SWAP3 DUP2 SWAP1 KECCAK256 DUP6 SWAP1 SSTORE DUP1 MLOAD SWAP5 DUP6 MSTORE MLOAD SWAP2 SWAP4 PUSH32 0x8C5BE1E5EBEC7D5BD14F71427D1E84F3DD0314C0F7B2291E5B200AC8C7C3B925 SWAP3 SWAP1 DUP2 SWAP1 SUB SWAP1 SWAP2 ADD SWAP1 LOG3 PUSH1 0x0 PUSH2 0x9EC DUP4 PUSH2 0x940 JUMP JUMPDEST PUSH1 0x1 PUSH1 0x1 PUSH1 0xA0 SHL SUB DUP7 AND PUSH1 0x0 SWAP1 DUP2 MSTORE PUSH1 0xC PUSH1 0x20 MSTORE PUSH1 0x40 SWAP1 KECCAK256 SLOAD SWAP1 SWAP2 POP PUSH2 0xA12 SWAP1 DUP3 PUSH2 0x1A0C JUMP JUMPDEST PUSH1 0x1 PUSH1 0x1 PUSH1 0xA0 SHL SUB DUP1 DUP8 AND PUSH1 0x0 SWAP1 DUP2 MSTORE PUSH1 0xC PUSH1 0x20 MSTORE PUSH1 0x40 DUP1 DUP3 KECCAK256 SWAP4 SWAP1 SWAP4 SSTORE SWAP1 DUP7 AND DUP2 MSTORE KECCAK256 SLOAD PUSH2 0xA41 SWAP1 DUP3 PUSH2 0x1812 JUMP JUMPDEST PUSH1 0x1 PUSH1 0x1 PUSH1 0xA0 SHL SUB DUP1 DUP7 AND PUSH1 0x0 SWAP1 DUP2 MSTORE PUSH1 0xC PUSH1 0x20 SWAP1 DUP2 MSTORE PUSH1 0x40 DUP1 DUP4 KECCAK256 SWAP5 SWAP1 SWAP5 SSTORE SWAP2 DUP9 AND DUP2 MSTORE PUSH1 0xF SWAP1 SWAP2 MSTORE KECCAK256 SLOAD PUSH2 0xA76 DUP7 PUSH2 0xF8F JUMP JUMPDEST LT ISZERO PUSH2 0xAC9 JUMPI PUSH1 0x40 DUP1 MLOAD PUSH3 0x461BCD PUSH1 0xE5 SHL DUP2 MSTORE PUSH1 0x20 PUSH1 0x4 DUP3 ADD MSTORE PUSH1 0x1C PUSH1 0x24 DUP3 ADD MSTORE PUSH32 0x446562743A2063616E6E6F74207472616E7366657220616D6F756E7400000000 PUSH1 0x44 DUP3 ADD MSTORE SWAP1 MLOAD SWAP1 DUP2 SWAP1 SUB PUSH1 0x64 ADD SWAP1 REVERT JUMPDEST DUP4 PUSH1 0x1 PUSH1 0x1 PUSH1 0xA0 SHL SUB AND DUP6 PUSH1 0x1 PUSH1 0x1 PUSH1 0xA0 SHL SUB AND PUSH32 0xDDF252AD1BE2C89B69C2B068FC378DAA952BA7F163C4A11628F55A4DF523B3EF DUP6 PUSH1 0x40 MLOAD DUP1 DUP3 DUP2 MSTORE PUSH1 0x20 ADD SWAP2 POP POP PUSH1 0x40 MLOAD DUP1 SWAP2 SUB SWAP1 LOG3 POP PUSH1 0x1 SWAP5 SWAP4 POP POP POP POP JUMP JUMPDEST PUSH1 0x6 SLOAD PUSH1 0x1 PUSH1 0x1 PUSH1 0xA0 SHL SUB AND CALLER EQ PUSH2 0xB68 JUMPI PUSH1 0x40 MLOAD PUSH3 0x461BCD PUSH1 0xE5 SHL DUP2 MSTORE PUSH1 0x4 ADD DUP1 DUP1 PUSH1 0x20 ADD DUP3 DUP2 SUB DUP3 MSTORE PUSH1 0x27 DUP2 MSTORE PUSH1 0x20 ADD DUP1 PUSH2 0x202F PUSH1 0x27 SWAP2 CODECOPY PUSH1 0x40 ADD SWAP2 POP POP PUSH1 0x40 MLOAD DUP1 SWAP2 SUB SWAP1 REVERT JUMPDEST PUSH1 0x9 SLOAD PUSH1 0x1 PUSH1 0x1 PUSH1 0xA0 SHL SUB AND ISZERO PUSH2 0xBC6 JUMPI PUSH1 0x40 DUP1 MLOAD PUSH3 0x461BCD PUSH1 0xE5 SHL DUP2 MSTORE PUSH1 0x20 PUSH1 0x4 DUP3 ADD MSTORE PUSH1 0x17 PUSH1 0x24 DUP3 ADD MSTORE PUSH32 0x6745584F3A20206745584F20616C726561647920736574000000000000000000 PUSH1 0x44 DUP3 ADD MSTORE SWAP1 MLOAD SWAP1 DUP2 SWAP1 SUB PUSH1 0x64 ADD SWAP1 REVERT JUMPDEST PUSH1 0x1 PUSH1 0x1 PUSH1 0xA0 SHL SUB DUP2 AND PUSH2 0xC0B JUMPI PUSH1 0x40 MLOAD PUSH3 0x461BCD PUSH1 0xE5 SHL DUP2 MSTORE PUSH1 0x4 ADD DUP1 DUP1 PUSH1 0x20 ADD DUP3 DUP2 SUB DUP3 MSTORE PUSH1 0x23 DUP2 MSTORE PUSH1 0x20 ADD DUP1 PUSH2 0x1FA7 PUSH1 0x23 SWAP2 CODECOPY PUSH1 0x40 ADD SWAP2 POP POP PUSH1 0x40 MLOAD DUP1 SWAP2 SUB SWAP1 REVERT JUMPDEST PUSH1 0x9 DUP1 SLOAD PUSH20 0xFFFFFFFFFFFFFFFFFFFFFFFFFFFFFFFFFFFFFFFF NOT AND PUSH1 0x1 PUSH1 0x1 PUSH1 0xA0 SHL SUB SWAP3 SWAP1 SWAP3 AND SWAP2 SWAP1 SWAP2 OR SWAP1 SSTORE JUMP JUMPDEST PUSH1 0x0 PUSH2 0xC47 PUSH1 0x7 SLOAD PUSH2 0x1009 JUMP JUMPDEST SWAP1 POP SWAP1 JUMP JUMPDEST PUSH1 0x9 SLOAD PUSH1 0x1 PUSH1 0x1 PUSH1 0xA0 SHL SUB AND DUP2 JUMP JUMPDEST PUSH32 0x0 SWAP1 JUMP JUMPDEST PUSH1 0x0 PUSH2 0xC47 PUSH2 0x1A4E JUMP JUMPDEST CALLER PUSH1 0x0 DUP2 DUP2 MSTORE PUSH1 0xD PUSH1 0x20 SWAP1 DUP2 MSTORE PUSH1 0x40 DUP1 DUP4 KECCAK256 PUSH1 0x1 PUSH1 0x1 PUSH1 0xA0 SHL SUB DUP8 AND DUP5 MSTORE SWAP1 SWAP2 MSTORE DUP2 KECCAK256 SLOAD SWAP1 SWAP2 PUSH2 0x931 SWAP2 DUP6 SWAP1 PUSH2 0xCBF SWAP1 DUP7 PUSH2 0x1812 JUMP JUMPDEST PUSH2 0x19AA JUMP JUMPDEST PUSH1 0x6 SLOAD PUSH1 0x1 PUSH1 0x1 PUSH1 0xA0 SHL SUB AND CALLER EQ PUSH2 0xD0D JUMPI PUSH1 0x40 MLOAD PUSH3 0x461BCD PUSH1 0xE5 SHL DUP2 MSTORE PUSH1 0x4 ADD DUP1 DUP1 PUSH1 0x20 ADD DUP3 DUP2 SUB DUP3 MSTORE PUSH1 0x27 DUP2 MSTORE PUSH1 0x20 ADD DUP1 PUSH2 0x202F PUSH1 0x27 SWAP2 CODECOPY PUSH1 0x40 ADD SWAP2 POP POP PUSH1 0x40 MLOAD DUP1 SWAP2 SUB SWAP1 REVERT JUMPDEST PUSH1 0x7 SLOAD ISZERO PUSH2 0xD62 JUMPI PUSH1 0x40 DUP1 MLOAD PUSH3 0x461BCD PUSH1 0xE5 SHL DUP2 MSTORE PUSH1 0x20 PUSH1 0x4 DUP3 ADD MSTORE PUSH1 0x16 PUSH1 0x24 DUP3 ADD MSTORE PUSH32 0x43616E6E6F742073657420494E44455820616761696E00000000000000000000 PUSH1 0x44 DUP3 ADD MSTORE SWAP1 MLOAD SWAP1 DUP2 SWAP1 SUB PUSH1 0x64 ADD SWAP1 REVERT JUMPDEST PUSH2 0xD6B DUP2 PUSH2 0x940 JUMP JUMPDEST PUSH1 0x7 SSTORE POP JUMP JUMPDEST PUSH1 0x6 SLOAD PUSH1 0x1 PUSH1 0x1 PUSH1 0xA0 SHL SUB AND CALLER EQ PUSH2 0xDBA JUMPI PUSH1 0x40 MLOAD PUSH3 0x461BCD PUSH1 0xE5 SHL DUP2 MSTORE PUSH1 0x4 ADD DUP1 DUP1 PUSH1 0x20 ADD DUP3 DUP2 SUB DUP3 MSTORE PUSH1 0x27 DUP2 MSTORE PUSH1 0x20 ADD DUP1 PUSH2 0x202F PUSH1 0x27 SWAP2 CODECOPY PUSH1 0x40 ADD SWAP2 POP POP PUSH1 0x40 MLOAD DUP1 SWAP2 SUB SWAP1 REVERT JUMPDEST PUSH1 0x1 PUSH1 0x1 PUSH1 0xA0 SHL SUB DUP3 AND PUSH2 0xE15 JUMPI PUSH1 0x40 DUP1 MLOAD PUSH3 0x461BCD PUSH1 0xE5 SHL DUP2 MSTORE PUSH1 0x20 PUSH1 0x4 DUP3 ADD MSTORE PUSH1 0x7 PUSH1 0x24 DUP3 ADD MSTORE PUSH32 0x5374616B696E6700000000000000000000000000000000000000000000000000 PUSH1 0x44 DUP3 ADD MSTORE SWAP1 MLOAD SWAP1 DUP2 SWAP1 SUB PUSH1 0x64 ADD SWAP1 REVERT JUMPDEST PUSH1 0x8 DUP1 SLOAD PUSH20 0xFFFFFFFFFFFFFFFFFFFFFFFFFFFFFFFFFFFFFFFF NOT AND PUSH1 0x1 PUSH1 0x1 PUSH1 0xA0 SHL SUB DUP5 DUP2 AND SWAP2 SWAP1 SWAP2 OR SWAP2 DUP3 SWAP1 SSTORE SWAP1 DUP2 AND PUSH1 0x0 SWAP1 DUP2 MSTORE PUSH1 0xC PUSH1 0x20 MSTORE PUSH1 0x40 SWAP1 KECCAK256 PUSH7 0xE3D2CFE61FFFF NOT SWAP1 SSTORE DUP2 AND PUSH2 0xEB2 JUMPI PUSH1 0x40 DUP1 MLOAD PUSH3 0x461BCD PUSH1 0xE5 SHL DUP2 MSTORE PUSH1 0x20 PUSH1 0x4 DUP3 ADD MSTORE PUSH1 0x16 PUSH1 0x24 DUP3 ADD MSTORE PUSH32 0x5A65726F20616464726573733A20547265617375727900000000000000000000 PUSH1 0x44 DUP3 ADD MSTORE SWAP1 MLOAD SWAP1 DUP2 SWAP1 SUB PUSH1 0x64 ADD SWAP1 REVERT JUMPDEST PUSH1 0xE DUP1 SLOAD PUSH20 0xFFFFFFFFFFFFFFFFFFFFFFFFFFFFFFFFFFFFFFFF NOT AND PUSH1 0x1 PUSH1 0x1 PUSH1 0xA0 SHL SUB DUP4 DUP2 AND SWAP2 SWAP1 SWAP2 OR SWAP1 SWAP2 SSTORE PUSH1 0x8 SLOAD PUSH1 0x2 SLOAD PUSH1 0x40 DUP1 MLOAD SWAP2 DUP3 MSTORE MLOAD SWAP2 SWAP1 SWAP3 AND SWAP2 PUSH1 0x0 SWAP2 PUSH32 0xDDF252AD1BE2C89B69C2B068FC378DAA952BA7F163C4A11628F55A4DF523B3EF SWAP2 PUSH1 0x20 SWAP1 DUP3 SWAP1 SUB ADD SWAP1 LOG3 PUSH1 0x8 SLOAD PUSH1 0x40 DUP1 MLOAD PUSH1 0x1 PUSH1 0x1 PUSH1 0xA0 SHL SUB SWAP1 SWAP3 AND DUP3 MSTORE MLOAD PUSH32 0x817C653428858ED536DC085C5D8273734C517B55DE44B55F5C5877A75E3373A1 SWAP2 DUP2 SWAP1 SUB PUSH1 0x20 ADD SWAP1 LOG1 POP POP PUSH1 0x6 DUP1 SLOAD PUSH20 0xFFFFFFFFFFFFFFFFFFFFFFFFFFFFFFFFFFFFFFFF NOT AND SWAP1 SSTORE JUMP JUMPDEST PUSH1 0xE SLOAD PUSH1 0x1 PUSH1 0x1 PUSH1 0xA0 SHL SUB AND DUP2 JUMP JUMPDEST PUSH1 0xB SLOAD PUSH1 0x1 PUSH1 0x1 PUSH1 0xA0 SHL SUB DUP3 AND PUSH1 0x0 SWAP1 DUP2 MSTORE PUSH1 0xC PUSH1 0x20 MSTORE PUSH1 0x40 DUP2 KECCAK256 SLOAD SWAP1 SWAP2 PUSH2 0x7F0 SWAP2 SWAP1 PUSH2 0x1770 JUMP JUMPDEST PUSH1 0xA DUP2 DUP2 SLOAD DUP2 LT PUSH2 0xFC7 JUMPI PUSH1 0x0 DUP1 REVERT JUMPDEST SWAP1 PUSH1 0x0 MSTORE PUSH1 0x20 PUSH1 0x0 KECCAK256 SWAP1 PUSH1 0x7 MUL ADD PUSH1 0x0 SWAP2 POP SWAP1 POP DUP1 PUSH1 0x0 ADD SLOAD SWAP1 DUP1 PUSH1 0x1 ADD SLOAD SWAP1 DUP1 PUSH1 0x2 ADD SLOAD SWAP1 DUP1 PUSH1 0x3 ADD SLOAD SWAP1 DUP1 PUSH1 0x4 ADD SLOAD SWAP1 DUP1 PUSH1 0x5 ADD SLOAD SWAP1 DUP1 PUSH1 0x6 ADD SLOAD SWAP1 POP DUP8 JUMP JUMPDEST PUSH1 0x0 PUSH2 0x7F0 PUSH1 0xB SLOAD DUP4 PUSH2 0x1770 SWAP1 SWAP2 SWAP1 PUSH4 0xFFFFFFFF AND JUMP JUMPDEST PUSH1 0x1 PUSH1 0x1 PUSH1 0xA0 SHL SUB DUP2 AND PUSH1 0x0 SWAP1 DUP2 MSTORE PUSH1 0x5 PUSH1 0x20 MSTORE PUSH1 0x40 DUP2 KECCAK256 PUSH2 0x7F0 SWAP1 PUSH2 0x1B15 JUMP JUMPDEST PUSH1 0x0 PUSH2 0xC47 PUSH1 0x8 PUSH1 0x0 SWAP1 SLOAD SWAP1 PUSH2 0x100 EXP SWAP1 DIV PUSH1 0x1 PUSH1 0x1 PUSH1 0xA0 SHL SUB AND PUSH1 0x1 PUSH1 0x1 PUSH1 0xA0 SHL SUB AND PUSH4 0x20138641 PUSH1 0x40 MLOAD DUP2 PUSH4 0xFFFFFFFF AND PUSH1 0xE0 SHL DUP2 MSTORE PUSH1 0x4 ADD PUSH1 0x20 PUSH1 0x40 MLOAD DUP1 DUP4 SUB DUP2 DUP7 DUP1 EXTCODESIZE ISZERO DUP1 ISZERO PUSH2 0x1094 JUMPI PUSH1 0x0 DUP1 REVERT JUMPDEST POP GAS STATICCALL ISZERO DUP1 ISZERO PUSH2 0x10A8 JUMPI RETURNDATASIZE PUSH1 0x0 DUP1 RETURNDATACOPY RETURNDATASIZE PUSH1 0x0 REVERT JUMPDEST POP POP POP POP PUSH1 0x40 MLOAD RETURNDATASIZE PUSH1 0x20 DUP2 LT ISZERO PUSH2 0x10BE JUMPI PUSH1 0x0 DUP1 REVERT JUMPDEST POP MLOAD PUSH1 0x9 SLOAD PUSH1 0x40 DUP1 MLOAD PUSH32 0x18160DDD00000000000000000000000000000000000000000000000000000000 DUP2 MSTORE SWAP1 MLOAD PUSH2 0x11F6 SWAP3 PUSH1 0x1 PUSH1 0x1 PUSH1 0xA0 SHL SUB AND SWAP2 PUSH4 0xA8248768 SWAP2 DUP4 SWAP2 PUSH4 0x18160DDD SWAP2 PUSH1 0x4 DUP1 DUP4 ADD SWAP3 PUSH1 0x20 SWAP3 SWAP2 SWAP1 DUP3 SWAP1 SUB ADD DUP2 DUP7 DUP1 EXTCODESIZE ISZERO DUP1 ISZERO PUSH2 0x1127 JUMPI PUSH1 0x0 DUP1 REVERT JUMPDEST POP GAS STATICCALL ISZERO DUP1 ISZERO PUSH2 0x113B JUMPI RETURNDATASIZE PUSH1 0x0 DUP1 RETURNDATACOPY RETURNDATASIZE PUSH1 0x0 REVERT JUMPDEST POP POP POP POP PUSH1 0x40 MLOAD RETURNDATASIZE PUSH1 0x20 DUP2 LT ISZERO PUSH2 0x1151 JUMPI PUSH1 0x0 DUP1 REVERT JUMPDEST POP MLOAD PUSH1 0x40 DUP1 MLOAD PUSH32 0xFFFFFFFF00000000000000000000000000000000000000000000000000000000 PUSH1 0xE0 DUP6 SWAP1 SHL AND DUP2 MSTORE PUSH1 0x4 DUP2 ADD SWAP3 SWAP1 SWAP3 MSTORE MLOAD PUSH1 0x24 DUP1 DUP4 ADD SWAP3 PUSH1 0x20 SWAP3 SWAP2 SWAP1 DUP3 SWAP1 SUB ADD DUP2 DUP7 DUP1 EXTCODESIZE ISZERO DUP1 ISZERO PUSH2 0x11A8 JUMPI PUSH1 0x0 DUP1 REVERT JUMPDEST POP GAS STATICCALL ISZERO DUP1 ISZERO PUSH2 0x11BC JUMPI RETURNDATASIZE PUSH1 0x0 DUP1 RETURNDATACOPY RETURNDATASIZE PUSH1 0x0 REVERT JUMPDEST POP POP POP POP PUSH1 0x40 MLOAD RETURNDATASIZE PUSH1 0x20 DUP2 LT ISZERO PUSH2 0x11D2 JUMPI PUSH1 0x0 DUP1 REVERT JUMPDEST POP MLOAD PUSH1 0x8 SLOAD PUSH2 0x11F6 SWAP1 PUSH2 0x11ED SWAP1 PUSH1 0x1 PUSH1 0x1 PUSH1 0xA0 SHL SUB AND PUSH2 0xF8F JUMP JUMPDEST PUSH1 0x2 SLOAD SWAP1 PUSH2 0x1A0C JUMP JUMPDEST SWAP1 PUSH2 0x1812 JUMP JUMPDEST PUSH1 0x4 DUP1 SLOAD PUSH1 0x40 DUP1 MLOAD PUSH1 0x20 PUSH1 0x1F PUSH1 0x2 PUSH1 0x0 NOT PUSH2 0x100 PUSH1 0x1 DUP9 AND ISZERO MUL ADD SWAP1 SWAP6 AND SWAP5 SWAP1 SWAP5 DIV SWAP4 DUP5 ADD DUP2 SWAP1 DIV DUP2 MUL DUP3 ADD DUP2 ADD SWAP1 SWAP3 MSTORE DUP3 DUP2 MSTORE PUSH1 0x60 SWAP4 SWAP1 SWAP3 SWAP1 SWAP2 DUP4 ADD DUP3 DUP3 DUP1 ISZERO PUSH2 0x882 JUMPI DUP1 PUSH1 0x1F LT PUSH2 0x857 JUMPI PUSH2 0x100 DUP1 DUP4 SLOAD DIV MUL DUP4 MSTORE SWAP2 PUSH1 0x20 ADD SWAP2 PUSH2 0x882 JUMP JUMPDEST CALLER PUSH1 0x0 SWAP1 DUP2 MSTORE PUSH1 0xD PUSH1 0x20 SWAP1 DUP2 MSTORE PUSH1 0x40 DUP1 DUP4 KECCAK256 PUSH1 0x1 PUSH1 0x1 PUSH1 0xA0 SHL SUB DUP7 AND DUP5 MSTORE SWAP1 SWAP2 MSTORE DUP2 KECCAK256 SLOAD DUP1 DUP4 LT PUSH2 0x1299 JUMPI PUSH2 0x1294 CALLER DUP6 PUSH1 0x0 PUSH2 0x19AA JUMP JUMPDEST PUSH2 0x12A8 JUMP JUMPDEST PUSH2 0x12A8 CALLER DUP6 PUSH2 0xCBF DUP5 DUP8 PUSH2 0x1A0C JUMP JUMPDEST POP PUSH1 0x1 SWAP4 SWAP3 POP POP POP JUMP JUMPDEST PUSH1 0x0 DUP1 PUSH2 0x12CA PUSH1 0xB SLOAD DUP5 PUSH2 0x17B9 SWAP1 SWAP2 SWAP1 PUSH4 0xFFFFFFFF AND JUMP JUMPDEST CALLER PUSH1 0x0 SWAP1 DUP2 MSTORE PUSH1 0xC PUSH1 0x20 MSTORE PUSH1 0x40 SWAP1 KECCAK256 SLOAD SWAP1 SWAP2 POP PUSH2 0x12E7 SWAP1 DUP3 PUSH2 0x1A0C JUMP JUMPDEST CALLER PUSH1 0x0 SWAP1 DUP2 MSTORE PUSH1 0xC PUSH1 0x20 MSTORE PUSH1 0x40 DUP1 DUP3 KECCAK256 SWAP3 SWAP1 SWAP3 SSTORE PUSH1 0x1 PUSH1 0x1 PUSH1 0xA0 SHL SUB DUP7 AND DUP2 MSTORE KECCAK256 SLOAD PUSH2 0x1313 SWAP1 DUP3 PUSH2 0x1812 JUMP JUMPDEST PUSH1 0x1 PUSH1 0x1 PUSH1 0xA0 SHL SUB DUP6 AND PUSH1 0x0 SWAP1 DUP2 MSTORE PUSH1 0xC PUSH1 0x20 SWAP1 DUP2 MSTORE PUSH1 0x40 DUP1 DUP4 KECCAK256 SWAP4 SWAP1 SWAP4 SSTORE CALLER DUP1 DUP4 MSTORE PUSH1 0xF SWAP1 SWAP2 MSTORE SWAP2 SWAP1 KECCAK256 SLOAD SWAP1 PUSH2 0x1349 SWAP1 PUSH2 0xF8F JUMP JUMPDEST LT ISZERO PUSH2 0x139C JUMPI PUSH1 0x40 DUP1 MLOAD PUSH3 0x461BCD PUSH1 0xE5 SHL DUP2 MSTORE PUSH1 0x20 PUSH1 0x4 DUP3 ADD MSTORE PUSH1 0x1C PUSH1 0x24 DUP3 ADD MSTORE PUSH32 0x446562743A2063616E6E6F74207472616E7366657220616D6F756E7400000000 PUSH1 0x44 DUP3 ADD MSTORE SWAP1 MLOAD SWAP1 DUP2 SWAP1 SUB PUSH1 0x64 ADD SWAP1 REVERT JUMPDEST PUSH1 0x40 DUP1 MLOAD DUP5 DUP2 MSTORE SWAP1 MLOAD PUSH1 0x1 PUSH1 0x1 PUSH1 0xA0 SHL SUB DUP7 AND SWAP2 CALLER SWAP2 PUSH32 0xDDF252AD1BE2C89B69C2B068FC378DAA952BA7F163C4A11628F55A4DF523B3EF SWAP2 DUP2 SWAP1 SUB PUSH1 0x20 ADD SWAP1 LOG3 POP PUSH1 0x1 SWAP4 SWAP3 POP POP POP JUMP JUMPDEST PUSH1 0xE SLOAD PUSH1 0x1 PUSH1 0x1 PUSH1 0xA0 SHL SUB AND CALLER EQ PUSH2 0x1445 JUMPI PUSH1 0x40 DUP1 MLOAD PUSH3 0x461BCD PUSH1 0xE5 SHL DUP2 MSTORE PUSH1 0x20 PUSH1 0x4 DUP3 ADD MSTORE PUSH1 0xD PUSH1 0x24 DUP3 ADD MSTORE PUSH32 0x4F6E6C7920747265617375727900000000000000000000000000000000000000 PUSH1 0x44 DUP3 ADD MSTORE SWAP1 MLOAD SWAP1 DUP2 SWAP1 SUB PUSH1 0x64 ADD SWAP1 REVERT JUMPDEST DUP1 ISZERO PUSH2 0x148C JUMPI PUSH1 0x1 PUSH1 0x1 PUSH1 0xA0 SHL SUB DUP3 AND PUSH1 0x0 SWAP1 DUP2 MSTORE PUSH1 0xF PUSH1 0x20 MSTORE PUSH1 0x40 SWAP1 KECCAK256 SLOAD PUSH2 0x146E SWAP1 DUP5 PUSH2 0x1812 JUMP JUMPDEST PUSH1 0x1 PUSH1 0x1 PUSH1 0xA0 SHL SUB DUP4 AND PUSH1 0x0 SWAP1 DUP2 MSTORE PUSH1 0xF PUSH1 0x20 MSTORE PUSH1 0x40 SWAP1 KECCAK256 SSTORE PUSH2 0x14C9 JUMP JUMPDEST PUSH1 0x1 PUSH1 0x1 PUSH1 0xA0 SHL SUB DUP3 AND PUSH1 0x0 SWAP1 DUP2 MSTORE PUSH1 0xF PUSH1 0x20 MSTORE PUSH1 0x40 SWAP1 KECCAK256 SLOAD PUSH2 0x14AF SWAP1 DUP5 PUSH2 0x1A0C JUMP JUMPDEST PUSH1 0x1 PUSH1 0x1 PUSH1 0xA0 SHL SUB DUP4 AND PUSH1 0x0 SWAP1 DUP2 MSTORE PUSH1 0xF PUSH1 0x20 MSTORE PUSH1 0x40 SWAP1 KECCAK256 SSTORE JUMPDEST PUSH2 0x14D2 DUP3 PUSH2 0xF8F JUMP JUMPDEST PUSH1 0x1 PUSH1 0x1 PUSH1 0xA0 SHL SUB DUP4 AND PUSH1 0x0 SWAP1 DUP2 MSTORE PUSH1 0xF PUSH1 0x20 MSTORE PUSH1 0x40 SWAP1 KECCAK256 SLOAD GT ISZERO PUSH2 0x153E JUMPI PUSH1 0x40 DUP1 MLOAD PUSH3 0x461BCD PUSH1 0xE5 SHL DUP2 MSTORE PUSH1 0x20 PUSH1 0x4 DUP3 ADD MSTORE PUSH1 0x1A PUSH1 0x24 DUP3 ADD MSTORE PUSH32 0x7345584F3A20696E73756666696369656E742062616C616E6365000000000000 PUSH1 0x44 DUP3 ADD MSTORE SWAP1 MLOAD SWAP1 DUP2 SWAP1 SUB PUSH1 0x64 ADD SWAP1 REVERT JUMPDEST POP POP POP JUMP JUMPDEST PUSH1 0x9 SLOAD PUSH1 0x40 DUP1 MLOAD PUSH32 0xA824876800000000000000000000000000000000000000000000000000000000 DUP2 MSTORE PUSH1 0x4 DUP2 ADD DUP5 SWAP1 MSTORE SWAP1 MLOAD PUSH1 0x0 SWAP3 PUSH1 0x1 PUSH1 0x1 PUSH1 0xA0 SHL SUB AND SWAP2 PUSH4 0xA8248768 SWAP2 PUSH1 0x24 DUP1 DUP4 ADD SWAP3 PUSH1 0x20 SWAP3 SWAP2 SWAP1 DUP3 SWAP1 SUB ADD DUP2 DUP7 DUP1 EXTCODESIZE ISZERO DUP1 ISZERO PUSH2 0x8F2 JUMPI PUSH1 0x0 DUP1 REVERT JUMPDEST PUSH1 0xF PUSH1 0x20 MSTORE PUSH1 0x0 SWAP1 DUP2 MSTORE PUSH1 0x40 SWAP1 KECCAK256 SLOAD DUP2 JUMP JUMPDEST DUP4 TIMESTAMP GT ISZERO PUSH2 0x160F JUMPI PUSH1 0x40 DUP1 MLOAD PUSH3 0x461BCD PUSH1 0xE5 SHL DUP2 MSTORE PUSH1 0x20 PUSH1 0x4 DUP3 ADD MSTORE PUSH1 0x1D PUSH1 0x24 DUP3 ADD MSTORE PUSH32 0x45524332305065726D69743A206578706972656420646561646C696E65000000 PUSH1 0x44 DUP3 ADD MSTORE SWAP1 MLOAD SWAP1 DUP2 SWAP1 SUB PUSH1 0x64 ADD SWAP1 REVERT JUMPDEST PUSH1 0x0 PUSH32 0x0 DUP9 DUP9 DUP9 PUSH2 0x163E DUP13 PUSH2 0x1B19 JUMP JUMPDEST DUP10 PUSH1 0x40 MLOAD PUSH1 0x20 ADD DUP1 DUP8 DUP2 MSTORE PUSH1 0x20 ADD DUP7 PUSH1 0x1 PUSH1 0x1 PUSH1 0xA0 SHL SUB AND DUP2 MSTORE PUSH1 0x20 ADD DUP6 PUSH1 0x1 PUSH1 0x1 PUSH1 0xA0 SHL SUB AND DUP2 MSTORE PUSH1 0x20 ADD DUP5 DUP2 MSTORE PUSH1 0x20 ADD DUP4 DUP2 MSTORE PUSH1 0x20 ADD DUP3 DUP2 MSTORE PUSH1 0x20 ADD SWAP7 POP POP POP POP POP POP POP PUSH1 0x40 MLOAD PUSH1 0x20 DUP2 DUP4 SUB SUB DUP2 MSTORE SWAP1 PUSH1 0x40 MSTORE DUP1 MLOAD SWAP1 PUSH1 0x20 ADD KECCAK256 SWAP1 POP PUSH1 0x0 PUSH2 0x16A7 DUP3 PUSH2 0x1B4B JUMP JUMPDEST SWAP1 POP PUSH1 0x0 PUSH2 0x16B7 DUP3 DUP8 DUP8 DUP8 PUSH2 0x1B5E JUMP JUMPDEST SWAP1 POP DUP10 PUSH1 0x1 PUSH1 0x1 PUSH1 0xA0 SHL SUB AND DUP2 PUSH1 0x1 PUSH1 0x1 PUSH1 0xA0 SHL SUB AND EQ PUSH2 0x171F JUMPI PUSH1 0x40 DUP1 MLOAD PUSH3 0x461BCD PUSH1 0xE5 SHL DUP2 MSTORE PUSH1 0x20 PUSH1 0x4 DUP3 ADD MSTORE PUSH1 0x1E PUSH1 0x24 DUP3 ADD MSTORE PUSH32 0x45524332305065726D69743A20696E76616C6964207369676E61747572650000 PUSH1 0x44 DUP3 ADD MSTORE SWAP1 MLOAD SWAP1 DUP2 SWAP1 SUB PUSH1 0x64 ADD SWAP1 REVERT JUMPDEST PUSH2 0x172A DUP11 DUP11 DUP11 PUSH2 0x19AA JUMP JUMPDEST POP POP POP POP POP POP POP POP POP POP JUMP JUMPDEST PUSH1 0x1 PUSH1 0x1 PUSH1 0xA0 SHL SUB SWAP2 DUP3 AND PUSH1 0x0 SWAP1 DUP2 MSTORE PUSH1 0xD PUSH1 0x20 SWAP1 DUP2 MSTORE PUSH1 0x40 DUP1 DUP4 KECCAK256 SWAP4 SWAP1 SWAP5 AND DUP3 MSTORE SWAP2 SWAP1 SWAP2 MSTORE KECCAK256 SLOAD SWAP1 JUMP JUMPDEST PUSH1 0x8 SLOAD PUSH1 0x1 PUSH1 0x1 PUSH1 0xA0 SHL SUB AND DUP2 JUMP JUMPDEST PUSH1 0x0 PUSH2 0x17B2 DUP4 DUP4 PUSH1 0x40 MLOAD DUP1 PUSH1 0x40 ADD PUSH1 0x40 MSTORE DUP1 PUSH1 0x1A DUP2 MSTORE PUSH1 0x20 ADD PUSH32 0x536166654D6174683A206469766973696F6E206279207A65726F000000000000 DUP2 MSTORE POP PUSH2 0x1B86 JUMP JUMPDEST SWAP4 SWAP3 POP POP POP JUMP JUMPDEST PUSH1 0x0 DUP3 PUSH2 0x17C8 JUMPI POP PUSH1 0x0 PUSH2 0x7F0 JUMP JUMPDEST DUP3 DUP3 MUL DUP3 DUP5 DUP3 DUP2 PUSH2 0x17D5 JUMPI INVALID JUMPDEST DIV EQ PUSH2 0x17B2 JUMPI PUSH1 0x40 MLOAD PUSH3 0x461BCD PUSH1 0xE5 SHL DUP2 MSTORE PUSH1 0x4 ADD DUP1 DUP1 PUSH1 0x20 ADD DUP3 DUP2 SUB DUP3 MSTORE PUSH1 0x21 DUP2 MSTORE PUSH1 0x20 ADD DUP1 PUSH2 0x200E PUSH1 0x21 SWAP2 CODECOPY PUSH1 0x40 ADD SWAP2 POP POP PUSH1 0x40 MLOAD DUP1 SWAP2 SUB SWAP1 REVERT JUMPDEST PUSH1 0x0 DUP3 DUP3 ADD DUP4 DUP2 LT ISZERO PUSH2 0x17B2 JUMPI PUSH1 0x40 DUP1 MLOAD PUSH3 0x461BCD PUSH1 0xE5 SHL DUP2 MSTORE PUSH1 0x20 PUSH1 0x4 DUP3 ADD MSTORE PUSH1 0x1B PUSH1 0x24 DUP3 ADD MSTORE PUSH32 0x536166654D6174683A206164646974696F6E206F766572666C6F770000000000 PUSH1 0x44 DUP3 ADD MSTORE SWAP1 MLOAD SWAP1 DUP2 SWAP1 SUB PUSH1 0x64 ADD SWAP1 REVERT JUMPDEST PUSH1 0x0 PUSH2 0x1884 DUP5 PUSH2 0x76B DUP6 PUSH8 0xDE0B6B3A7640000 PUSH2 0x17B9 JUMP JUMPDEST SWAP1 POP PUSH1 0xA PUSH1 0x40 MLOAD DUP1 PUSH1 0xE0 ADD PUSH1 0x40 MSTORE DUP1 DUP5 DUP2 MSTORE PUSH1 0x20 ADD DUP4 DUP2 MSTORE PUSH1 0x20 ADD DUP7 DUP2 MSTORE PUSH1 0x20 ADD PUSH2 0x18AD PUSH2 0x1041 JUMP JUMPDEST DUP2 MSTORE PUSH1 0x20 ADD DUP6 DUP2 MSTORE PUSH1 0x20 ADD PUSH2 0x18C0 PUSH2 0xC3A JUMP JUMPDEST DUP2 MSTORE NUMBER PUSH1 0x20 SWAP2 DUP3 ADD MSTORE DUP3 SLOAD PUSH1 0x1 DUP2 DUP2 ADD DUP6 SSTORE PUSH1 0x0 SWAP5 DUP6 MSTORE SWAP4 DUP3 SWAP1 KECCAK256 DUP4 MLOAD PUSH1 0x7 SWAP1 SWAP3 MUL ADD SWAP1 DUP2 SSTORE DUP3 DUP3 ADD MLOAD SWAP4 DUP2 ADD SWAP4 SWAP1 SWAP4 SSTORE PUSH1 0x40 DUP1 DUP4 ADD MLOAD PUSH1 0x2 DUP1 DUP7 ADD SWAP2 SWAP1 SWAP2 SSTORE PUSH1 0x60 DUP5 ADD MLOAD PUSH1 0x3 DUP7 ADD SSTORE PUSH1 0x80 DUP5 ADD MLOAD PUSH1 0x4 DUP7 ADD SSTORE PUSH1 0xA0 DUP5 ADD MLOAD PUSH1 0x5 DUP7 ADD SSTORE PUSH1 0xC0 SWAP1 SWAP4 ADD MLOAD PUSH1 0x6 SWAP1 SWAP5 ADD SWAP4 SWAP1 SWAP4 SSTORE SWAP1 SLOAD DUP3 MLOAD SWAP1 DUP2 MSTORE SWAP2 MLOAD DUP5 SWAP3 PUSH32 0x417B340E646D4BE71F9B2DA63B5C3C69BC9CFA069F0E0DB4756271886130BF4 SWAP3 SWAP1 DUP3 SWAP1 SUB ADD SWAP1 LOG2 DUP2 PUSH32 0x6012DBCE857565C4A40974AA5DE8373A761FC429077EF0C8C8611D1E20D63FB2 DUP3 PUSH2 0x198C PUSH2 0xC3A JUMP JUMPDEST PUSH1 0x40 DUP1 MLOAD SWAP3 DUP4 MSTORE PUSH1 0x20 DUP4 ADD SWAP2 SWAP1 SWAP2 MSTORE DUP1 MLOAD SWAP2 DUP3 SWAP1 SUB ADD SWAP1 LOG2 POP POP POP POP JUMP JUMPDEST PUSH1 0x1 PUSH1 0x1 PUSH1 0xA0 SHL SUB DUP1 DUP5 AND PUSH1 0x0 DUP2 DUP2 MSTORE PUSH1 0xD PUSH1 0x20 SWAP1 DUP2 MSTORE PUSH1 0x40 DUP1 DUP4 KECCAK256 SWAP5 DUP8 AND DUP1 DUP5 MSTORE SWAP5 DUP3 MSTORE SWAP2 DUP3 SWAP1 KECCAK256 DUP6 SWAP1 SSTORE DUP2 MLOAD DUP6 DUP2 MSTORE SWAP2 MLOAD PUSH32 0x8C5BE1E5EBEC7D5BD14F71427D1E84F3DD0314C0F7B2291E5B200AC8C7C3B925 SWAP3 DUP2 SWAP1 SUB SWAP1 SWAP2 ADD SWAP1 LOG3 POP POP POP JUMP JUMPDEST PUSH1 0x0 PUSH2 0x17B2 DUP4 DUP4 PUSH1 0x40 MLOAD DUP1 PUSH1 0x40 ADD PUSH1 0x40 MSTORE DUP1 PUSH1 0x1E DUP2 MSTORE PUSH1 0x20 ADD PUSH32 0x536166654D6174683A207375627472616374696F6E206F766572666C6F770000 DUP2 MSTORE POP PUSH2 0x1C3F JUMP JUMPDEST PUSH1 0x0 CHAINID PUSH32 0x0 DUP2 EQ ISZERO PUSH2 0x1AA2 JUMPI PUSH32 0x0 SWAP2 POP POP PUSH2 0x88A JUMP JUMPDEST PUSH2 0x1B0D PUSH32 0x0 PUSH32 0x0 PUSH32 0x0 PUSH2 0x1C99 JUMP JUMPDEST SWAP2 POP POP PUSH2 0x88A JUMP JUMPDEST SLOAD SWAP1 JUMP JUMPDEST PUSH1 0x1 PUSH1 0x1 PUSH1 0xA0 SHL SUB DUP2 AND PUSH1 0x0 SWAP1 DUP2 MSTORE PUSH1 0x5 PUSH1 0x20 MSTORE PUSH1 0x40 DUP2 KECCAK256 PUSH2 0x1B3A DUP2 PUSH2 0x1B15 JUMP JUMPDEST SWAP2 POP PUSH2 0x1B45 DUP2 PUSH2 0x1CDE JUMP JUMPDEST POP SWAP2 SWAP1 POP JUMP JUMPDEST PUSH1 0x0 PUSH2 0x7F0 PUSH2 0x1B58 PUSH2 0x1A4E JUMP JUMPDEST DUP4 PUSH2 0x1CE7 JUMP JUMPDEST PUSH1 0x0 DUP1 PUSH1 0x0 PUSH2 0x1B6F DUP8 DUP8 DUP8 DUP8 PUSH2 0x1D3D JUMP JUMPDEST SWAP2 POP SWAP2 POP PUSH2 0x1B7C DUP2 PUSH2 0x1E32 JUMP JUMPDEST POP SWAP6 SWAP5 POP POP POP POP POP JUMP JUMPDEST PUSH1 0x0 DUP2 DUP4 PUSH2 0x1C12 JUMPI PUSH1 0x40 MLOAD PUSH3 0x461BCD PUSH1 0xE5 SHL DUP2 MSTORE PUSH1 0x4 ADD DUP1 DUP1 PUSH1 0x20 ADD DUP3 DUP2 SUB DUP3 MSTORE DUP4 DUP2 DUP2 MLOAD DUP2 MSTORE PUSH1 0x20 ADD SWAP2 POP DUP1 MLOAD SWAP1 PUSH1 0x20 ADD SWAP1 DUP1 DUP4 DUP4 PUSH1 0x0 JUMPDEST DUP4 DUP2 LT ISZERO PUSH2 0x1BD7 JUMPI DUP2 DUP2 ADD MLOAD DUP4 DUP3 ADD MSTORE PUSH1 0x20 ADD PUSH2 0x1BBF JUMP JUMPDEST POP POP POP POP SWAP1 POP SWAP1 DUP2 ADD SWAP1 PUSH1 0x1F AND DUP1 ISZERO PUSH2 0x1C04 JUMPI DUP1 DUP3 SUB DUP1 MLOAD PUSH1 0x1 DUP4 PUSH1 0x20 SUB PUSH2 0x100 EXP SUB NOT AND DUP2 MSTORE PUSH1 0x20 ADD SWAP2 POP JUMPDEST POP SWAP3 POP POP POP PUSH1 0x40 MLOAD DUP1 SWAP2 SUB SWAP1 REVERT JUMPDEST POP PUSH1 0x0 DUP4 DUP6 DUP2 PUSH2 0x1C1E JUMPI INVALID JUMPDEST DIV SWAP1 POP DUP4 DUP6 DUP2 PUSH2 0x1C2A JUMPI INVALID JUMPDEST MOD DUP2 DUP6 MUL ADD DUP6 EQ PUSH2 0x1C37 JUMPI INVALID JUMPDEST SWAP5 SWAP4 POP POP POP POP JUMP JUMPDEST PUSH1 0x0 DUP2 DUP5 DUP5 GT ISZERO PUSH2 0x1C91 JUMPI PUSH1 0x40 MLOAD PUSH3 0x461BCD PUSH1 0xE5 SHL DUP2 MSTORE PUSH1 0x20 PUSH1 0x4 DUP3 ADD DUP2 DUP2 MSTORE DUP4 MLOAD PUSH1 0x24 DUP5 ADD MSTORE DUP4 MLOAD SWAP1 SWAP3 DUP4 SWAP3 PUSH1 0x44 SWAP1 SWAP2 ADD SWAP2 SWAP1 DUP6 ADD SWAP1 DUP1 DUP4 DUP4 PUSH1 0x0 DUP4 ISZERO PUSH2 0x1BD7 JUMPI DUP2 DUP2 ADD MLOAD DUP4 DUP3 ADD MSTORE PUSH1 0x20 ADD PUSH2 0x1BBF JUMP JUMPDEST POP POP POP SWAP1 SUB SWAP1 JUMP JUMPDEST PUSH1 0x40 DUP1 MLOAD PUSH1 0x20 DUP1 DUP3 ADD SWAP6 SWAP1 SWAP6 MSTORE DUP1 DUP3 ADD SWAP4 SWAP1 SWAP4 MSTORE PUSH1 0x60 DUP4 ADD SWAP2 SWAP1 SWAP2 MSTORE CHAINID PUSH1 0x80 DUP4 ADD MSTORE ADDRESS PUSH1 0xA0 DUP1 DUP5 ADD SWAP2 SWAP1 SWAP2 MSTORE DUP2 MLOAD DUP1 DUP5 SUB SWAP1 SWAP2 ADD DUP2 MSTORE PUSH1 0xC0 SWAP1 SWAP3 ADD SWAP1 MSTORE DUP1 MLOAD SWAP2 ADD KECCAK256 SWAP1 JUMP JUMPDEST DUP1 SLOAD PUSH1 0x1 ADD SWAP1 SSTORE JUMP JUMPDEST PUSH1 0x40 DUP1 MLOAD PUSH32 0x1901000000000000000000000000000000000000000000000000000000000000 PUSH1 0x20 DUP1 DUP4 ADD SWAP2 SWAP1 SWAP2 MSTORE PUSH1 0x22 DUP3 ADD SWAP5 SWAP1 SWAP5 MSTORE PUSH1 0x42 DUP1 DUP3 ADD SWAP4 SWAP1 SWAP4 MSTORE DUP2 MLOAD DUP1 DUP3 SUB SWAP1 SWAP4 ADD DUP4 MSTORE PUSH1 0x62 ADD SWAP1 MSTORE DUP1 MLOAD SWAP2 ADD KECCAK256 SWAP1 JUMP JUMPDEST PUSH1 0x0 DUP1 PUSH32 0x7FFFFFFFFFFFFFFFFFFFFFFFFFFFFFFF5D576E7357A4501DDFE92F46681B20A0 DUP4 GT ISZERO PUSH2 0x1D74 JUMPI POP PUSH1 0x0 SWAP1 POP PUSH1 0x3 PUSH2 0x1E29 JUMP JUMPDEST DUP5 PUSH1 0xFF AND PUSH1 0x1B EQ ISZERO DUP1 ISZERO PUSH2 0x1D8C JUMPI POP DUP5 PUSH1 0xFF AND PUSH1 0x1C EQ ISZERO JUMPDEST ISZERO PUSH2 0x1D9D JUMPI POP PUSH1 0x0 SWAP1 POP PUSH1 0x4 PUSH2 0x1E29 JUMP JUMPDEST PUSH1 0x0 PUSH1 0x1 DUP8 DUP8 DUP8 DUP8 PUSH1 0x40 MLOAD PUSH1 0x0 DUP2 MSTORE PUSH1 0x20 ADD PUSH1 0x40 MSTORE PUSH1 0x40 MLOAD DUP1 DUP6 DUP2 MSTORE PUSH1 0x20 ADD DUP5 PUSH1 0xFF AND DUP2 MSTORE PUSH1 0x20 ADD DUP4 DUP2 MSTORE PUSH1 0x20 ADD DUP3 DUP2 MSTORE PUSH1 0x20 ADD SWAP5 POP POP POP POP POP PUSH1 0x20 PUSH1 0x40 MLOAD PUSH1 0x20 DUP2 SUB SWAP1 DUP1 DUP5 SUB SWAP1 DUP6 GAS STATICCALL ISZERO DUP1 ISZERO PUSH2 0x1DF9 JUMPI RETURNDATASIZE PUSH1 0x0 DUP1 RETURNDATACOPY RETURNDATASIZE PUSH1 0x0 REVERT JUMPDEST POP POP PUSH1 0x40 MLOAD PUSH1 0x1F NOT ADD MLOAD SWAP2 POP POP PUSH1 0x1 PUSH1 0x1 PUSH1 0xA0 SHL SUB DUP2 AND PUSH2 0x1E22 JUMPI PUSH1 0x0 PUSH1 0x1 SWAP3 POP SWAP3 POP POP PUSH2 0x1E29 JUMP JUMPDEST SWAP2 POP PUSH1 0x0 SWAP1 POP JUMPDEST SWAP5 POP SWAP5 SWAP3 POP POP POP JUMP JUMPDEST PUSH1 0x0 DUP2 PUSH1 0x4 DUP2 GT ISZERO PUSH2 0x1E40 JUMPI INVALID JUMPDEST EQ ISZERO PUSH2 0x1E4B JUMPI PUSH2 0x1FA3 JUMP JUMPDEST PUSH1 0x1 DUP2 PUSH1 0x4 DUP2 GT ISZERO PUSH2 0x1E59 JUMPI INVALID JUMPDEST EQ ISZERO PUSH2 0x1EAC JUMPI PUSH1 0x40 DUP1 MLOAD PUSH3 0x461BCD PUSH1 0xE5 SHL DUP2 MSTORE PUSH1 0x20 PUSH1 0x4 DUP3 ADD MSTORE PUSH1 0x18 PUSH1 0x24 DUP3 ADD MSTORE PUSH32 0x45434453413A20696E76616C6964207369676E61747572650000000000000000 PUSH1 0x44 DUP3 ADD MSTORE SWAP1 MLOAD SWAP1 DUP2 SWAP1 SUB PUSH1 0x64 ADD SWAP1 REVERT JUMPDEST PUSH1 0x2 DUP2 PUSH1 0x4 DUP2 GT ISZERO PUSH2 0x1EBA JUMPI INVALID JUMPDEST EQ ISZERO PUSH2 0x1F0D JUMPI PUSH1 0x40 DUP1 MLOAD PUSH3 0x461BCD PUSH1 0xE5 SHL DUP2 MSTORE PUSH1 0x20 PUSH1 0x4 DUP3 ADD MSTORE PUSH1 0x1F PUSH1 0x24 DUP3 ADD MSTORE PUSH32 0x45434453413A20696E76616C6964207369676E6174757265206C656E67746800 PUSH1 0x44 DUP3 ADD MSTORE SWAP1 MLOAD SWAP1 DUP2 SWAP1 SUB PUSH1 0x64 ADD SWAP1 REVERT JUMPDEST PUSH1 0x3 DUP2 PUSH1 0x4 DUP2 GT ISZERO PUSH2 0x1F1B JUMPI INVALID JUMPDEST EQ ISZERO PUSH2 0x1F58 JUMPI PUSH1 0x40 MLOAD PUSH3 0x461BCD PUSH1 0xE5 SHL DUP2 MSTORE PUSH1 0x4 ADD DUP1 DUP1 PUSH1 0x20 ADD DUP3 DUP2 SUB DUP3 MSTORE PUSH1 0x22 DUP2 MSTORE PUSH1 0x20 ADD DUP1 PUSH2 0x1FCA PUSH1 0x22 SWAP2 CODECOPY PUSH1 0x40 ADD SWAP2 POP POP PUSH1 0x40 MLOAD DUP1 SWAP2 SUB SWAP1 REVERT JUMPDEST PUSH1 0x4 DUP2 PUSH1 0x4 DUP2 GT ISZERO PUSH2 0x1F66 JUMPI INVALID JUMPDEST EQ ISZERO PUSH2 0x1FA3 JUMPI PUSH1 0x40 MLOAD PUSH3 0x461BCD PUSH1 0xE5 SHL DUP2 MSTORE PUSH1 0x4 ADD DUP1 DUP1 PUSH1 0x20 ADD DUP3 DUP2 SUB DUP3 MSTORE PUSH1 0x22 DUP2 MSTORE PUSH1 0x20 ADD DUP1 PUSH2 0x1FEC PUSH1 0x22 SWAP2 CODECOPY PUSH1 0x40 ADD SWAP2 POP POP PUSH1 0x40 MLOAD DUP1 SWAP2 SUB SWAP1 REVERT JUMPDEST POP JUMP INVALID PUSH8 0x45584F3A20206745 PC 0x4F KECCAK256 PUSH10 0x73206E6F742061207661 PUSH13 0x696420636F6E74726163744543 DIFFICULTY MSTORE8 COINBASE GASPRICE KECCAK256 PUSH10 0x6E76616C696420736967 PUSH15 0x6174757265202773272076616C7565 GASLIMIT NUMBER DIFFICULTY MSTORE8 COINBASE GASPRICE KECCAK256 PUSH10 0x6E76616C696420736967 PUSH15 0x6174757265202776272076616C7565 MSTORE8 PUSH2 0x6665 0x4D PUSH2 0x7468 GASPRICE KECCAK256 PUSH14 0x756C7469706C69636174696F6E20 PUSH16 0x766572666C6F77496E697469616C697A PUSH6 0x723A20206361 PUSH13 0x6C6572206973206E6F7420696E PUSH10 0x7469616C697A65725374 PUSH2 0x6B69 PUSH15 0x67436F6E74726163743A202063616C PUSH13 0x206973206E6F74207374616B69 PUSH15 0x6720636F6E7472616374A264697066 PUSH20 0x58221220772D2E62702F79B66DAC145754A7B5A4 JUMPDEST 0x4A 0x5F 0xB7 0xD6 PUSH31 0x87F0598FA1F1F89C0A7064736F6C6343000705003300000000000000000000 "
				},
				"gasEstimates": {
					"creation": {
						"codeDepositCost": "1675400",
						"executionCost": "infinite",
						"totalCost": "infinite"
					},
					"external": {
						"DOMAIN_SEPARATOR()": "infinite",
						"allowance(address,address)": "1338",
						"approve(address,uint256)": "22365",
						"balanceForGons(uint256)": "infinite",
						"balanceOf(address)": "infinite",
						"changeDebt(uint256,address,bool)": "infinite",
						"circulatingSupply()": "infinite",
						"debtBalances(address)": "1168",
						"decimals()": "infinite",
						"decreaseAllowance(address,uint256)": "23522",
						"fromG(uint256)": "infinite",
						"gEXO()": "1127",
						"gonsForBalance(uint256)": "infinite",
						"increaseAllowance(address,uint256)": "23431",
						"index()": "infinite",
						"initialize(address,address)": "infinite",
						"name()": "infinite",
						"nonces(address)": "1249",
						"permit(address,address,uint256,uint256,uint8,bytes32,bytes32)": "infinite",
						"rebase(uint256,uint256)": "infinite",
						"rebases(uint256)": "7037",
						"setIndex(uint256)": "infinite",
						"setgOHM(address)": "infinite",
						"stakingContract()": "1147",
						"symbol()": "infinite",
						"toG(uint256)": "infinite",
						"totalSupply()": "1066",
						"transfer(address,uint256)": "infinite",
						"transferFrom(address,address,uint256)": "infinite",
						"treasury()": "1083"
					},
					"internal": {
						"_approve(address,address,uint256)": "infinite",
						"_storeRebase(uint256,uint256,uint256)": "infinite"
					}
				},
				"methodIdentifiers": {
					"DOMAIN_SEPARATOR()": "3644e515",
					"allowance(address,address)": "dd62ed3e",
					"approve(address,uint256)": "095ea7b3",
					"balanceForGons(uint256)": "7965d56d",
					"balanceOf(address)": "70a08231",
					"changeDebt(uint256,address,bool)": "ae5c6cd3",
					"circulatingSupply()": "9358928b",
					"debtBalances(address)": "c4ef1c4c",
					"decimals()": "313ce567",
					"decreaseAllowance(address,uint256)": "a457c2d7",
					"fromG(uint256)": "b8fbd533",
					"gEXO()": "2af36b43",
					"gonsForBalance(uint256)": "1bd39674",
					"increaseAllowance(address,uint256)": "39509351",
					"index()": "2986c0e5",
					"initialize(address,address)": "485cc955",
					"name()": "06fdde03",
					"nonces(address)": "7ecebe00",
					"permit(address,address,uint256,uint256,uint8,bytes32,bytes32)": "d505accf",
					"rebase(uint256,uint256)": "058ecdb4",
					"rebases(uint256)": "73c69eb7",
					"setIndex(uint256)": "40a5737f",
					"setgOHM(address)": "245c0e99",
					"stakingContract()": "ee99205c",
					"symbol()": "95d89b41",
					"toG(uint256)": "095be818",
					"totalSupply()": "18160ddd",
					"transfer(address,uint256)": "a9059cbb",
					"transferFrom(address,address,uint256)": "23b872dd",
					"treasury()": "61d027b3"
				}
			},
			"storageLayout": {
				"storage": [
					{
						"astId": 918,
						"contract": "sExodus/sOlympusERC20.sol:sExodus",
						"label": "_balances",
						"offset": 0,
						"slot": "0",
						"type": "t_mapping(t_address,t_uint256)"
					},
					{
						"astId": 924,
						"contract": "sExodus/sOlympusERC20.sol:sExodus",
						"label": "_allowances",
						"offset": 0,
						"slot": "1",
						"type": "t_mapping(t_address,t_mapping(t_address,t_uint256))"
					},
					{
						"astId": 926,
						"contract": "sExodus/sOlympusERC20.sol:sExodus",
						"label": "_totalSupply",
						"offset": 0,
						"slot": "2",
						"type": "t_uint256"
					},
					{
						"astId": 928,
						"contract": "sExodus/sOlympusERC20.sol:sExodus",
						"label": "_name",
						"offset": 0,
						"slot": "3",
						"type": "t_string_storage"
					},
					{
						"astId": 930,
						"contract": "sExodus/sOlympusERC20.sol:sExodus",
						"label": "_symbol",
						"offset": 0,
						"slot": "4",
						"type": "t_string_storage"
					},
					{
						"astId": 1399,
						"contract": "sExodus/sOlympusERC20.sol:sExodus",
						"label": "_nonces",
						"offset": 0,
						"slot": "5",
						"type": "t_mapping(t_address,t_struct(Counter)353_storage)"
					},
					{
						"astId": 2132,
						"contract": "sExodus/sOlympusERC20.sol:sExodus",
						"label": "initializer",
						"offset": 0,
						"slot": "6",
						"type": "t_address"
					},
					{
						"astId": 2134,
						"contract": "sExodus/sOlympusERC20.sol:sExodus",
						"label": "INDEX",
						"offset": 0,
						"slot": "7",
						"type": "t_uint256"
					},
					{
						"astId": 2136,
						"contract": "sExodus/sOlympusERC20.sol:sExodus",
						"label": "stakingContract",
						"offset": 0,
						"slot": "8",
						"type": "t_address"
					},
					{
						"astId": 2138,
						"contract": "sExodus/sOlympusERC20.sol:sExodus",
						"label": "gEXO",
						"offset": 0,
						"slot": "9",
						"type": "t_contract(IgEXO)1782"
					},
					{
						"astId": 2141,
						"contract": "sExodus/sOlympusERC20.sol:sExodus",
						"label": "rebases",
						"offset": 0,
						"slot": "10",
						"type": "t_array(t_struct(Rebase)2130_storage)dyn_storage"
					},
					{
						"astId": 2172,
						"contract": "sExodus/sOlympusERC20.sol:sExodus",
						"label": "_gonsPerFragment",
						"offset": 0,
						"slot": "11",
						"type": "t_uint256"
					},
					{
						"astId": 2176,
						"contract": "sExodus/sOlympusERC20.sol:sExodus",
						"label": "_gonBalances",
						"offset": 0,
						"slot": "12",
						"type": "t_mapping(t_address,t_uint256)"
					},
					{
						"astId": 2182,
						"contract": "sExodus/sOlympusERC20.sol:sExodus",
						"label": "_allowedValue",
						"offset": 0,
						"slot": "13",
						"type": "t_mapping(t_address,t_mapping(t_address,t_uint256))"
					},
					{
						"astId": 2184,
						"contract": "sExodus/sOlympusERC20.sol:sExodus",
						"label": "treasury",
						"offset": 0,
						"slot": "14",
						"type": "t_address"
					},
					{
						"astId": 2189,
						"contract": "sExodus/sOlympusERC20.sol:sExodus",
						"label": "debtBalances",
						"offset": 0,
						"slot": "15",
						"type": "t_mapping(t_address,t_uint256)"
					}
				],
				"types": {
					"t_address": {
						"encoding": "inplace",
						"label": "address",
						"numberOfBytes": "20"
					},
					"t_array(t_struct(Rebase)2130_storage)dyn_storage": {
						"base": "t_struct(Rebase)2130_storage",
						"encoding": "dynamic_array",
						"label": "struct sExodus.Rebase[]",
						"numberOfBytes": "32"
					},
					"t_contract(IgEXO)1782": {
						"encoding": "inplace",
						"label": "contract IgEXO",
						"numberOfBytes": "20"
					},
					"t_mapping(t_address,t_mapping(t_address,t_uint256))": {
						"encoding": "mapping",
						"key": "t_address",
						"label": "mapping(address => mapping(address => uint256))",
						"numberOfBytes": "32",
						"value": "t_mapping(t_address,t_uint256)"
					},
					"t_mapping(t_address,t_struct(Counter)353_storage)": {
						"encoding": "mapping",
						"key": "t_address",
						"label": "mapping(address => struct Counters.Counter)",
						"numberOfBytes": "32",
						"value": "t_struct(Counter)353_storage"
					},
					"t_mapping(t_address,t_uint256)": {
						"encoding": "mapping",
						"key": "t_address",
						"label": "mapping(address => uint256)",
						"numberOfBytes": "32",
						"value": "t_uint256"
					},
					"t_string_storage": {
						"encoding": "bytes",
						"label": "string",
						"numberOfBytes": "32"
					},
					"t_struct(Counter)353_storage": {
						"encoding": "inplace",
						"label": "struct Counters.Counter",
						"members": [
							{
								"astId": 352,
								"contract": "sExodus/sOlympusERC20.sol:sExodus",
								"label": "_value",
								"offset": 0,
								"slot": "0",
								"type": "t_uint256"
							}
						],
						"numberOfBytes": "32"
					},
					"t_struct(Rebase)2130_storage": {
						"encoding": "inplace",
						"label": "struct sExodus.Rebase",
						"members": [
							{
								"astId": 2117,
								"contract": "sExodus/sOlympusERC20.sol:sExodus",
								"label": "epoch",
								"offset": 0,
								"slot": "0",
								"type": "t_uint256"
							},
							{
								"astId": 2119,
								"contract": "sExodus/sOlympusERC20.sol:sExodus",
								"label": "rebase",
								"offset": 0,
								"slot": "1",
								"type": "t_uint256"
							},
							{
								"astId": 2121,
								"contract": "sExodus/sOlympusERC20.sol:sExodus",
								"label": "totalStakedBefore",
								"offset": 0,
								"slot": "2",
								"type": "t_uint256"
							},
							{
								"astId": 2123,
								"contract": "sExodus/sOlympusERC20.sol:sExodus",
								"label": "totalStakedAfter",
								"offset": 0,
								"slot": "3",
								"type": "t_uint256"
							},
							{
								"astId": 2125,
								"contract": "sExodus/sOlympusERC20.sol:sExodus",
								"label": "amountRebased",
								"offset": 0,
								"slot": "4",
								"type": "t_uint256"
							},
							{
								"astId": 2127,
								"contract": "sExodus/sOlympusERC20.sol:sExodus",
								"label": "index",
								"offset": 0,
								"slot": "5",
								"type": "t_uint256"
							},
							{
								"astId": 2129,
								"contract": "sExodus/sOlympusERC20.sol:sExodus",
								"label": "blockNumberOccured",
								"offset": 0,
								"slot": "6",
								"type": "t_uint256"
							}
						],
						"numberOfBytes": "224"
					},
					"t_uint256": {
						"encoding": "inplace",
						"label": "uint256",
						"numberOfBytes": "32"
					}
				}
			},
			"userdoc": {
				"kind": "user",
				"methods": {
					"rebase(uint256,uint256)": {
						"notice": "increases rOHM supply to increase staking balances relative to profit_"
					}
				},
				"version": 1
			}
		}
	}
}