{
	"LUSDAllocator/LUSDAllocator.sol": {
		"LUSDAllocator": {
			"abi": [
				{
					"inputs": [
						{
							"internalType": "address",
							"name": "_authority",
							"type": "address"
						},
						{
							"internalType": "address",
							"name": "_treasury",
							"type": "address"
						},
						{
							"internalType": "address",
							"name": "_lusdTokenAddress",
							"type": "address"
						},
						{
							"internalType": "address",
							"name": "_lqtyTokenAddress",
							"type": "address"
						},
						{
							"internalType": "address",
							"name": "_stabilityPool",
							"type": "address"
						},
						{
							"internalType": "address",
							"name": "_lqtyStaking",
							"type": "address"
						},
						{
							"internalType": "address",
							"name": "_frontEndAddress",
							"type": "address"
						},
						{
							"internalType": "address",
							"name": "_wethAddress",
							"type": "address"
						},
						{
							"internalType": "address",
							"name": "_hopTokenAddress",
							"type": "address"
						},
						{
							"internalType": "address",
							"name": "_uniswapV3Router",
							"type": "address"
						}
					],
					"stateMutability": "nonpayable",
					"type": "constructor"
				},
				{
					"anonymous": false,
					"inputs": [
						{
							"indexed": true,
							"internalType": "contract IExodusAuthority",
							"name": "authority",
							"type": "address"
						}
					],
					"name": "AuthorityUpdated",
					"type": "event"
				},
				{
					"anonymous": false,
					"inputs": [
						{
							"indexed": true,
							"internalType": "address",
							"name": "dst",
							"type": "address"
						},
						{
							"indexed": false,
							"internalType": "uint256",
							"name": "amount",
							"type": "uint256"
						}
					],
					"name": "Deposit",
					"type": "event"
				},
				{
					"inputs": [],
					"name": "FEE_PRECISION",
					"outputs": [
						{
							"internalType": "uint256",
							"name": "",
							"type": "uint256"
						}
					],
					"stateMutability": "view",
					"type": "function"
				},
				{
					"inputs": [],
					"name": "POOL_FEE_MAX",
					"outputs": [
						{
							"internalType": "uint256",
							"name": "",
							"type": "uint256"
						}
					],
					"stateMutability": "view",
					"type": "function"
				},
				{
					"inputs": [],
					"name": "authority",
					"outputs": [
						{
							"internalType": "contract IExodusAuthority",
							"name": "",
							"type": "address"
						}
					],
					"stateMutability": "view",
					"type": "function"
				},
				{
					"inputs": [
						{
							"internalType": "uint256",
							"name": "amount",
							"type": "uint256"
						}
					],
					"name": "deposit",
					"outputs": [],
					"stateMutability": "nonpayable",
					"type": "function"
				},
				{
					"inputs": [],
					"name": "ethToLUSDRatio",
					"outputs": [
						{
							"internalType": "uint256",
							"name": "",
							"type": "uint256"
						}
					],
					"stateMutability": "view",
					"type": "function"
				},
				{
					"inputs": [],
					"name": "frontEndAddress",
					"outputs": [
						{
							"internalType": "address",
							"name": "",
							"type": "address"
						}
					],
					"stateMutability": "view",
					"type": "function"
				},
				{
					"inputs": [],
					"name": "getETHRewards",
					"outputs": [
						{
							"internalType": "uint256",
							"name": "",
							"type": "uint256"
						}
					],
					"stateMutability": "view",
					"type": "function"
				},
				{
					"inputs": [],
					"name": "getLQTYRewards",
					"outputs": [
						{
							"internalType": "uint256",
							"name": "",
							"type": "uint256"
						}
					],
					"stateMutability": "view",
					"type": "function"
				},
				{
					"inputs": [
						{
							"internalType": "uint256",
							"name": "minETHLUSDRate",
							"type": "uint256"
						}
					],
					"name": "harvest",
					"outputs": [
						{
							"internalType": "bool",
							"name": "",
							"type": "bool"
						}
					],
					"stateMutability": "nonpayable",
					"type": "function"
				},
				{
					"inputs": [],
					"name": "hopTokenAddress",
					"outputs": [
						{
							"internalType": "address",
							"name": "",
							"type": "address"
						}
					],
					"stateMutability": "view",
					"type": "function"
				},
				{
					"inputs": [],
					"name": "lqtyTokenAddress",
					"outputs": [
						{
							"internalType": "address",
							"name": "",
							"type": "address"
						}
					],
					"stateMutability": "view",
					"type": "function"
				},
				{
					"inputs": [],
					"name": "lusdTokenAddress",
					"outputs": [
						{
							"internalType": "address",
							"name": "",
							"type": "address"
						}
					],
					"stateMutability": "view",
					"type": "function"
				},
				{
					"inputs": [],
					"name": "poolFee",
					"outputs": [
						{
							"internalType": "uint256",
							"name": "",
							"type": "uint256"
						}
					],
					"stateMutability": "view",
					"type": "function"
				},
				{
					"inputs": [
						{
							"internalType": "contract IExodusAuthority",
							"name": "_newAuthority",
							"type": "address"
						}
					],
					"name": "setAuthority",
					"outputs": [],
					"stateMutability": "nonpayable",
					"type": "function"
				},
				{
					"inputs": [
						{
							"internalType": "uint256",
							"name": "_ethToLUSDRatio",
							"type": "uint256"
						}
					],
					"name": "setEthToLUSDRatio",
					"outputs": [],
					"stateMutability": "nonpayable",
					"type": "function"
				},
				{
					"inputs": [
						{
							"internalType": "address",
							"name": "_frontEndAddress",
							"type": "address"
						}
					],
					"name": "setFrontEndAddress",
					"outputs": [],
					"stateMutability": "nonpayable",
					"type": "function"
				},
				{
					"inputs": [
						{
							"internalType": "address",
							"name": "_hopTokenAddress",
							"type": "address"
						}
					],
					"name": "setHopTokenAddress",
					"outputs": [],
					"stateMutability": "nonpayable",
					"type": "function"
				},
				{
					"inputs": [
						{
							"internalType": "uint256",
							"name": "_poolFee",
							"type": "uint256"
						}
					],
					"name": "setPoolFee",
					"outputs": [],
					"stateMutability": "nonpayable",
					"type": "function"
				},
				{
					"inputs": [],
					"name": "totalAmountDeployed",
					"outputs": [
						{
							"internalType": "uint256",
							"name": "",
							"type": "uint256"
						}
					],
					"stateMutability": "view",
					"type": "function"
				},
				{
					"inputs": [],
					"name": "totalValueDeployed",
					"outputs": [
						{
							"internalType": "uint256",
							"name": "",
							"type": "uint256"
						}
					],
					"stateMutability": "view",
					"type": "function"
				},
				{
					"inputs": [],
					"name": "treasury",
					"outputs": [
						{
							"internalType": "contract ITreasury",
							"name": "",
							"type": "address"
						}
					],
					"stateMutability": "view",
					"type": "function"
				},
				{
					"inputs": [],
					"name": "updateTreasury",
					"outputs": [],
					"stateMutability": "nonpayable",
					"type": "function"
				},
				{
					"inputs": [
						{
							"internalType": "address",
							"name": "token",
							"type": "address"
						},
						{
							"internalType": "uint256",
							"name": "amount",
							"type": "uint256"
						}
					],
					"name": "withdraw",
					"outputs": [],
					"stateMutability": "nonpayable",
					"type": "function"
				},
				{
					"stateMutability": "payable",
					"type": "receive"
				}
			],
			"devdoc": {
				"kind": "dev",
				"methods": {
					"deposit(uint256)": {
						"params": {
							"amount": "uint"
						}
					},
					"getETHRewards()": {
						"returns": {
							"_0": "uint"
						}
					},
					"getLQTYRewards()": {
						"returns": {
							"_0": "uint"
						}
					},
					"setFrontEndAddress(address)": {
						"params": {
							"_frontEndAddress": "address"
						}
					},
					"withdraw(address,uint256)": {
						"params": {
							"amount": "uint",
							"token": "address"
						}
					}
				},
				"version": 1
			},
			"evm": {
				"assembly": "    /* \"LUSDAllocator/OlympusAccessControlled.sol\":255:291  string UNAUTHORIZED = \"UNAUTHORIZED\" */\n  0x0140\n    /* \"LUSDAllocator/LUSDAllocator.sol\":495:13480  contract LUSDAllocator is ExodusAccessControlled {... */\n  0x40\n    /* \"LUSDAllocator/OlympusAccessControlled.sol\":255:291  string UNAUTHORIZED = \"UNAUTHORIZED\" */\n  mstore\n  0x0c\n    /* \"LUSDAllocator/LUSDAllocator.sol\":495:13480  contract LUSDAllocator is ExodusAccessControlled {... */\n  0x0100\n    /* \"LUSDAllocator/OlympusAccessControlled.sol\":255:291  string UNAUTHORIZED = \"UNAUTHORIZED\" */\n  dup2\n  swap1\n  mstore\n  shl(0xa2, 0x15539055551213d492569151)\n  0x0120\n  swap1\n  dup2\n  mstore\n  tag_1\n  swap2\n  0x00\n  swap2\n  swap1\n  tag_2\n  jump\t// in\ntag_1:\n  pop\n    /* \"LUSDAllocator/LUSDAllocator.sol\":1377:1383  330000 */\n  0x050910\n    /* \"LUSDAllocator/LUSDAllocator.sol\":1345:1383  uint256 public ethToLUSDRatio = 330000 */\n  0x03\n  sstore\n    /* \"LUSDAllocator/LUSDAllocator.sol\":1804:1808  3000 */\n  0x0bb8\n    /* \"LUSDAllocator/LUSDAllocator.sol\":1779:1808  uint256 public poolFee = 3000 */\n  0x04\n  sstore\n    /* \"LUSDAllocator/LUSDAllocator.sol\":2655:3943  constructor(... */\n  callvalue\n  dup1\n  iszero\n  tag_3\n  jumpi\n  0x00\n  dup1\n  revert\ntag_3:\n  pop\n  mload(0x40)\n  sub(codesize, bytecodeSize)\n  dup1\n  bytecodeSize\n  dup4\n  codecopy\n  dup2\n  add\n  0x40\n  dup2\n  swap1\n  mstore\n  tag_4\n  swap2\n  tag_5\n  jump\t// in\ntag_4:\n    /* \"LUSDAllocator/OlympusAccessControlled.sol\":495:504  authority */\n  0x01\n    /* \"LUSDAllocator/OlympusAccessControlled.sol\":495:517  authority = _authority */\n  dup1\n  sload\n  not(sub(shl(0xa0, 0x01), 0x01))\n  and\n  sub(shl(0xa0, 0x01), 0x01)\n  dup13\n  and\n  swap1\n  dup2\n  or\n  swap1\n  swap2\n  sstore\n    /* \"LUSDAllocator/OlympusAccessControlled.sol\":532:560  AuthorityUpdated(_authority) */\n  mload(0x40)\n    /* \"LUSDAllocator/OlympusAccessControlled.sol\":495:517  authority = _authority */\n  dup12\n  swap2\n  swap1\n    /* \"LUSDAllocator/OlympusAccessControlled.sol\":532:560  AuthorityUpdated(_authority) */\n  0x2f658b440c35314f52658ea8a740e05b284cdc84dc9ae01e891f21b8933e7cad\n  swap1\n  0x00\n  swap1\n  log2\n  pop\n    /* \"LUSDAllocator/LUSDAllocator.sol\":3055:3063  treasury */\n  0x02\n    /* \"LUSDAllocator/LUSDAllocator.sol\":3055:3086  treasury = ITreasury(_treasury) */\n  dup1\n  sload\n  not(sub(shl(0xa0, 0x01), 0x01))\n  swap1\n  dup2\n  and\n  sub(shl(0xa0, 0x01), 0x01)\n  dup13\n  dup2\n  and\n  swap2\n  dup3\n  or\n  swap1\n  swap4\n  sstore\n    /* \"LUSDAllocator/LUSDAllocator.sol\":3096:3112  lusdTokenAddress */\n  0x07\n    /* \"LUSDAllocator/LUSDAllocator.sol\":3096:3132  lusdTokenAddress = _lusdTokenAddress */\n  dup1\n  sload\n  dup4\n  and\n  dup13\n  dup6\n  and\n  or\n  swap1\n  sstore\n    /* \"LUSDAllocator/LUSDAllocator.sol\":3142:3158  lqtyTokenAddress */\n  0x08\n    /* \"LUSDAllocator/LUSDAllocator.sol\":3142:3178  lqtyTokenAddress = _lqtyTokenAddress */\n  dup1\n  sload\n  dup4\n  and\n  dup12\n  dup6\n  and\n  or\n  swap1\n  sstore\n    /* \"LUSDAllocator/LUSDAllocator.sol\":3188:3238  lusdStabilityPool = IStabilityPool(_stabilityPool) */\n  dup9\n  dup4\n  and\n  0x80\n  mstore\n    /* \"LUSDAllocator/LUSDAllocator.sol\":3248:3288  lqtyStaking = ILQTYStaking(_lqtyStaking) */\n  dup8\n  dup4\n  and\n  0xa0\n  mstore\n    /* \"LUSDAllocator/LUSDAllocator.sol\":3298:3313  frontEndAddress */\n  0x06\n    /* \"LUSDAllocator/LUSDAllocator.sol\":3298:3332  frontEndAddress = _frontEndAddress */\n  dup1\n  sload\n  dup4\n  and\n  dup9\n  dup6\n  and\n  or\n  swap1\n  sstore\n    /* \"LUSDAllocator/LUSDAllocator.sol\":3362:3388  weth = IWETH(_wethAddress) */\n  dup6\n  dup4\n  and\n  0xc0\n  dup2\n  swap1\n  mstore\n    /* \"LUSDAllocator/LUSDAllocator.sol\":3398:3413  hopTokenAddress */\n  0x05\n    /* \"LUSDAllocator/LUSDAllocator.sol\":3398:3432  hopTokenAddress = _hopTokenAddress */\n  dup1\n  sload\n  swap1\n  swap4\n  and\n  dup7\n  dup6\n  and\n  or\n  swap1\n  swap3\n  sstore\n    /* \"LUSDAllocator/LUSDAllocator.sol\":3462:3504  swapRouter = ISwapRouter(_uniswapV3Router) */\n  swap2\n  dup4\n  and\n  0xe0\n  mstore\n    /* \"LUSDAllocator/LUSDAllocator.sol\":3555:3609  weth.safeApprove(address(treasury), type(uint256).max) */\n  tag_10\n  swap2\n  not(0x00)\n    /* \"LUSDAllocator/LUSDAllocator.sol\":3555:3571  weth.safeApprove */\n  tag_11\n  0x20\n  swap1\n  dup2\n  shl\n  tag_0_137\n  or\n    /* \"LUSDAllocator/LUSDAllocator.sol\":3555:3609  weth.safeApprove(address(treasury), type(uint256).max) */\n  swap1\n  shr\n  jump\t// in\ntag_10:\n    /* \"LUSDAllocator/LUSDAllocator.sol\":3619:3675  weth.safeApprove(address(swapRouter), type(uint256).max) */\n  tag_12\n    /* \"LUSDAllocator/LUSDAllocator.sol\":3644:3654  swapRouter */\n  mload(0xe0)\n  not(0x00)\n    /* \"LUSDAllocator/LUSDAllocator.sol\":3619:3623  weth */\n  mload(0xc0)\n  sub(shl(0xa0, 0x01), 0x01)\n    /* \"LUSDAllocator/LUSDAllocator.sol\":3619:3635  weth.safeApprove */\n  and\n  or(tag_0_137, shl(0x20, tag_11))\n  swap1\n    /* \"LUSDAllocator/LUSDAllocator.sol\":3619:3675  weth.safeApprove(address(swapRouter), type(uint256).max) */\n  swap3\n  swap2\n  swap1\n  0x20\n  shr\n  jump\t// in\ntag_12:\n    /* \"LUSDAllocator/LUSDAllocator.sol\":3730:3747  lusdStabilityPool */\n  mload(0x80)\n    /* \"LUSDAllocator/LUSDAllocator.sol\":3692:3708  lusdTokenAddress */\n  sload(0x07)\n    /* \"LUSDAllocator/LUSDAllocator.sol\":3685:3768  IERC20(lusdTokenAddress).safeApprove(address(lusdStabilityPool), type(uint256).max) */\n  tag_13\n  swap2\n  sub(shl(0xa0, 0x01), 0x01)\n    /* \"LUSDAllocator/LUSDAllocator.sol\":3692:3708  lusdTokenAddress */\n  swap1\n  swap2\n  and\n  swap1\n  not(0x00)\n    /* \"LUSDAllocator/LUSDAllocator.sol\":3685:3721  IERC20(lusdTokenAddress).safeApprove */\n  tag_11\n  0x20\n  swap1\n  dup2\n  shl\n  tag_0_137\n  or\n    /* \"LUSDAllocator/LUSDAllocator.sol\":3685:3768  IERC20(lusdTokenAddress).safeApprove(address(lusdStabilityPool), type(uint256).max) */\n  swap1\n  shr\n  jump\t// in\ntag_13:\n    /* \"LUSDAllocator/LUSDAllocator.sol\":3823:3831  treasury */\n  sload(0x02)\n    /* \"LUSDAllocator/LUSDAllocator.sol\":3785:3801  lusdTokenAddress */\n  sload(0x07)\n    /* \"LUSDAllocator/LUSDAllocator.sol\":3778:3852  IERC20(lusdTokenAddress).safeApprove(address(treasury), type(uint256).max) */\n  tag_14\n  swap2\n  sub(shl(0xa0, 0x01), 0x01)\n    /* \"LUSDAllocator/LUSDAllocator.sol\":3785:3801  lusdTokenAddress */\n  swap2\n  dup3\n  and\n  swap2\n    /* \"LUSDAllocator/LUSDAllocator.sol\":3823:3831  treasury */\n  and\n  not(0x00)\n    /* \"LUSDAllocator/LUSDAllocator.sol\":3778:3814  IERC20(lusdTokenAddress).safeApprove */\n  tag_11\n  0x20\n  swap1\n  dup2\n  shl\n  tag_0_137\n  or\n    /* \"LUSDAllocator/LUSDAllocator.sol\":3778:3852  IERC20(lusdTokenAddress).safeApprove(address(treasury), type(uint256).max) */\n  swap1\n  shr\n  jump\t// in\ntag_14:\n    /* \"LUSDAllocator/LUSDAllocator.sol\":3907:3915  treasury */\n  sload(0x02)\n    /* \"LUSDAllocator/LUSDAllocator.sol\":3869:3885  lqtyTokenAddress */\n  sload(0x08)\n    /* \"LUSDAllocator/LUSDAllocator.sol\":3862:3936  IERC20(lqtyTokenAddress).safeApprove(address(treasury), type(uint256).max) */\n  tag_15\n  swap2\n  sub(shl(0xa0, 0x01), 0x01)\n    /* \"LUSDAllocator/LUSDAllocator.sol\":3869:3885  lqtyTokenAddress */\n  swap2\n  dup3\n  and\n  swap2\n    /* \"LUSDAllocator/LUSDAllocator.sol\":3907:3915  treasury */\n  and\n  not(0x00)\n    /* \"LUSDAllocator/LUSDAllocator.sol\":3862:3898  IERC20(lqtyTokenAddress).safeApprove */\n  tag_11\n  0x20\n  swap1\n  dup2\n  shl\n  tag_0_137\n  or\n    /* \"LUSDAllocator/LUSDAllocator.sol\":3862:3936  IERC20(lqtyTokenAddress).safeApprove(address(treasury), type(uint256).max) */\n  swap1\n  shr\n  jump\t// in\ntag_15:\n    /* \"LUSDAllocator/LUSDAllocator.sol\":2655:3943  constructor(... */\n  pop\n  pop\n  pop\n  pop\n  pop\n  pop\n  pop\n  pop\n  pop\n  pop\n    /* \"LUSDAllocator/LUSDAllocator.sol\":495:13480  contract LUSDAllocator is ExodusAccessControlled {... */\n  jump(tag_44)\n    /* \"LUSDAllocator/SafeERC20.sol\":1141:1493  function safeApprove(... */\ntag_11:\n    /* \"LUSDAllocator/SafeERC20.sol\":1322:1381  abi.encodeWithSelector(IERC20.approve.selector, to, amount) */\n  0x40\n  dup1\n  mload\n  sub(shl(0xa0, 0x01), 0x01)\n    /* \"#utility.yul\":1373:1405   */\n  dup5\n  dup2\n  and\n    /* \"LUSDAllocator/SafeERC20.sol\":1322:1381  abi.encodeWithSelector(IERC20.approve.selector, to, amount) */\n  0x24\n  dup4\n  add\n    /* \"#utility.yul\":1355:1406   */\n  mstore\n    /* \"#utility.yul\":1422:1440   */\n  0x44\n  dup1\n  dup4\n  add\n    /* \"#utility.yul\":1415:1449   */\n  dup6\n  swap1\n  mstore\n    /* \"LUSDAllocator/SafeERC20.sol\":1322:1381  abi.encodeWithSelector(IERC20.approve.selector, to, amount) */\n  dup4\n  mload\n  dup1\n  dup5\n  sub\n  swap1\n  swap2\n  add\n  dup2\n  mstore\n    /* \"#utility.yul\":1328:1346   */\n  0x64\n  swap1\n  swap3\n  add\n    /* \"LUSDAllocator/SafeERC20.sol\":1322:1381  abi.encodeWithSelector(IERC20.approve.selector, to, amount) */\n  dup4\n  mstore\n  0x20\n  dup3\n  add\n  dup1\n  mload\n  sub(shl(0xe0, 0x01), 0x01)\n  and\n  shl(0xe0, 0x095ea7b3)\n  or\n  swap1\n  mstore\n    /* \"LUSDAllocator/SafeERC20.sol\":1289:1391  address(token).call(... */\n  swap2\n  mload\n  0x00\n  swap3\n  dup4\n  swap3\n    /* \"LUSDAllocator/SafeERC20.sol\":1289:1308  address(token).call */\n  swap1\n  dup8\n  and\n  swap2\n    /* \"LUSDAllocator/SafeERC20.sol\":1289:1391  address(token).call(... */\n  tag_20\n  swap2\n    /* \"LUSDAllocator/SafeERC20.sol\":1322:1381  abi.encodeWithSelector(IERC20.approve.selector, to, amount) */\n  swap1\n    /* \"LUSDAllocator/SafeERC20.sol\":1289:1391  address(token).call(... */\n  tag_21\n  jump\t// in\ntag_20:\n  0x00\n  mload(0x40)\n  dup1\n  dup4\n  sub\n  dup2\n  0x00\n  dup7\n  gas\n  call\n  swap2\n  pop\n  pop\n  returndatasize\n  dup1\n  0x00\n  dup2\n  eq\n  tag_24\n  jumpi\n  mload(0x40)\n  swap2\n  pop\n  and(add(returndatasize, 0x3f), not(0x1f))\n  dup3\n  add\n  0x40\n  mstore\n  returndatasize\n  dup3\n  mstore\n  returndatasize\n  0x00\n  0x20\n  dup5\n  add\n  returndatacopy\n  jump(tag_23)\ntag_24:\n  0x60\n  swap2\n  pop\ntag_23:\n  pop\n    /* \"LUSDAllocator/SafeERC20.sol\":1253:1391  (bool success, bytes memory data) = address(token).call(... */\n  swap2\n  pop\n  swap2\n  pop\n    /* \"LUSDAllocator/SafeERC20.sol\":1410:1417  success */\n  dup2\n    /* \"LUSDAllocator/SafeERC20.sol\":1410:1467  success && (data.length == 0 || abi.decode(data, (bool))) */\n  dup1\n  iszero\n  tag_27\n  jumpi\n  pop\n    /* \"LUSDAllocator/SafeERC20.sol\":1422:1433  data.length */\n  dup1\n  mload\n    /* \"LUSDAllocator/SafeERC20.sol\":1422:1438  data.length == 0 */\n  iszero\n  dup1\n    /* \"LUSDAllocator/SafeERC20.sol\":1422:1466  data.length == 0 || abi.decode(data, (bool)) */\n  tag_27\n  jumpi\n  pop\n    /* \"LUSDAllocator/SafeERC20.sol\":1453:1457  data */\n  dup1\n    /* \"LUSDAllocator/SafeERC20.sol\":1442:1466  abi.decode(data, (bool)) */\n  dup1\n  0x20\n  add\n  swap1\n  mload\n  dup2\n  add\n  swap1\n  tag_27\n  swap2\n  swap1\n  tag_28\n  jump\t// in\ntag_27:\n    /* \"LUSDAllocator/SafeERC20.sol\":1402:1486  require(success && (data.length == 0 || abi.decode(data, (bool))), \"APPROVE_FAILED\") */\n  tag_29\n  jumpi\n  mload(0x40)\n  shl(0xe5, 0x461bcd)\n  dup2\n  mstore\n    /* \"#utility.yul\":2375:2377   */\n  0x20\n    /* \"LUSDAllocator/SafeERC20.sol\":1402:1486  require(success && (data.length == 0 || abi.decode(data, (bool))), \"APPROVE_FAILED\") */\n  0x04\n  dup3\n  add\n    /* \"#utility.yul\":2357:2378   */\n  mstore\n    /* \"#utility.yul\":2414:2416   */\n  0x0e\n    /* \"#utility.yul\":2394:2412   */\n  0x24\n  dup3\n  add\n    /* \"#utility.yul\":2387:2417   */\n  mstore\n  shl(0x92, 0x1054141493d59157d19052531151)\n    /* \"#utility.yul\":2433:2451   */\n  0x44\n  dup3\n  add\n    /* \"#utility.yul\":2426:2470   */\n  mstore\n    /* \"#utility.yul\":2487:2505   */\n  0x64\n  add\n    /* \"LUSDAllocator/SafeERC20.sol\":1402:1486  require(success && (data.length == 0 || abi.decode(data, (bool))), \"APPROVE_FAILED\") */\n  mload(0x40)\n  dup1\n  swap2\n  sub\n  swap1\n  revert\ntag_29:\n    /* \"LUSDAllocator/SafeERC20.sol\":1243:1493  {... */\n  pop\n  pop\n    /* \"LUSDAllocator/SafeERC20.sol\":1141:1493  function safeApprove(... */\n  pop\n  pop\n  pop\n  jump\t// out\n    /* \"LUSDAllocator/LUSDAllocator.sol\":495:13480  contract LUSDAllocator is ExodusAccessControlled {... */\ntag_2:\n  dup3\n  dup1\n  sload\n  tag_32\n  swap1\n  tag_33\n  jump\t// in\ntag_32:\n  swap1\n  0x00\n  mstore\n  keccak256(0x00, 0x20)\n  swap1\n  0x1f\n  add\n  0x20\n  swap1\n  div\n  dup2\n  add\n  swap3\n  dup3\n  tag_35\n  jumpi\n  0x00\n  dup6\n  sstore\n  jump(tag_38)\ntag_35:\n  dup3\n  0x1f\n  lt\n  tag_36\n  jumpi\n  dup1\n  mload\n  not(0xff)\n  and\n  dup4\n  dup1\n  add\n  or\n  dup6\n  sstore\n  jump(tag_38)\ntag_36:\n  dup3\n  dup1\n  add\n  0x01\n  add\n  dup6\n  sstore\n  dup3\n  iszero\n  tag_38\n  jumpi\n  swap2\n  dup3\n  add\ntag_37:\n  dup3\n  dup2\n  gt\n  iszero\n  tag_38\n  jumpi\n  dup3\n  mload\n  dup3\n  sstore\n  swap2\n  0x20\n  add\n  swap2\n  swap1\n  0x01\n  add\n  swap1\n  jump(tag_37)\ntag_38:\n  pop\n  tag_39\n  swap3\n  swap2\n  pop\n  tag_40\n  jump\t// in\ntag_39:\n  pop\n  swap1\n  jump\t// out\ntag_40:\ntag_41:\n  dup1\n  dup3\n  gt\n  iszero\n  tag_39\n  jumpi\n  0x00\n  dup2\n  sstore\n  0x01\n  add\n  jump(tag_41)\n    /* \"#utility.yul\":14:191   */\ntag_43:\n    /* \"#utility.yul\":93:106   */\n  dup1\n  mload\n  sub(shl(0xa0, 0x01), 0x01)\n    /* \"#utility.yul\":135:166   */\n  dup2\n  and\n    /* \"#utility.yul\":125:167   */\n  dup2\n  eq\n    /* \"#utility.yul\":115:185   */\n  tag_46\n  jumpi\n    /* \"#utility.yul\":181:182   */\n  0x00\n    /* \"#utility.yul\":178:179   */\n  dup1\n    /* \"#utility.yul\":171:183   */\n  revert\n    /* \"#utility.yul\":115:185   */\ntag_46:\n    /* \"#utility.yul\":14:191   */\n  swap2\n  swap1\n  pop\n  jump\t// out\n    /* \"#utility.yul\":196:1176   */\ntag_5:\n    /* \"#utility.yul\":347:353   */\n  0x00\n    /* \"#utility.yul\":355:361   */\n  dup1\n    /* \"#utility.yul\":363:369   */\n  0x00\n    /* \"#utility.yul\":371:377   */\n  dup1\n    /* \"#utility.yul\":379:385   */\n  0x00\n    /* \"#utility.yul\":387:393   */\n  dup1\n    /* \"#utility.yul\":395:401   */\n  0x00\n    /* \"#utility.yul\":403:409   */\n  dup1\n    /* \"#utility.yul\":411:417   */\n  0x00\n    /* \"#utility.yul\":419:425   */\n  dup1\n    /* \"#utility.yul\":472:475   */\n  0x0140\n    /* \"#utility.yul\":460:469   */\n  dup12\n    /* \"#utility.yul\":451:458   */\n  dup14\n    /* \"#utility.yul\":447:470   */\n  sub\n    /* \"#utility.yul\":443:476   */\n  slt\n    /* \"#utility.yul\":440:493   */\n  iszero\n  tag_48\n  jumpi\n    /* \"#utility.yul\":489:490   */\n  0x00\n    /* \"#utility.yul\":486:487   */\n  dup1\n    /* \"#utility.yul\":479:491   */\n  revert\n    /* \"#utility.yul\":440:493   */\ntag_48:\n    /* \"#utility.yul\":512:552   */\n  tag_49\n    /* \"#utility.yul\":542:551   */\n  dup12\n    /* \"#utility.yul\":512:552   */\n  tag_43\n  jump\t// in\ntag_49:\n    /* \"#utility.yul\":502:552   */\n  swap10\n  pop\n    /* \"#utility.yul\":571:620   */\n  tag_50\n    /* \"#utility.yul\":616:618   */\n  0x20\n    /* \"#utility.yul\":605:614   */\n  dup13\n    /* \"#utility.yul\":601:619   */\n  add\n    /* \"#utility.yul\":571:620   */\n  tag_43\n  jump\t// in\ntag_50:\n    /* \"#utility.yul\":561:620   */\n  swap9\n  pop\n    /* \"#utility.yul\":639:688   */\n  tag_51\n    /* \"#utility.yul\":684:686   */\n  0x40\n    /* \"#utility.yul\":673:682   */\n  dup13\n    /* \"#utility.yul\":669:687   */\n  add\n    /* \"#utility.yul\":639:688   */\n  tag_43\n  jump\t// in\ntag_51:\n    /* \"#utility.yul\":629:688   */\n  swap8\n  pop\n    /* \"#utility.yul\":707:756   */\n  tag_52\n    /* \"#utility.yul\":752:754   */\n  0x60\n    /* \"#utility.yul\":741:750   */\n  dup13\n    /* \"#utility.yul\":737:755   */\n  add\n    /* \"#utility.yul\":707:756   */\n  tag_43\n  jump\t// in\ntag_52:\n    /* \"#utility.yul\":697:756   */\n  swap7\n  pop\n    /* \"#utility.yul\":775:825   */\n  tag_53\n    /* \"#utility.yul\":820:823   */\n  0x80\n    /* \"#utility.yul\":809:818   */\n  dup13\n    /* \"#utility.yul\":805:824   */\n  add\n    /* \"#utility.yul\":775:825   */\n  tag_43\n  jump\t// in\ntag_53:\n    /* \"#utility.yul\":765:825   */\n  swap6\n  pop\n    /* \"#utility.yul\":844:894   */\n  tag_54\n    /* \"#utility.yul\":889:892   */\n  0xa0\n    /* \"#utility.yul\":878:887   */\n  dup13\n    /* \"#utility.yul\":874:893   */\n  add\n    /* \"#utility.yul\":844:894   */\n  tag_43\n  jump\t// in\ntag_54:\n    /* \"#utility.yul\":834:894   */\n  swap5\n  pop\n    /* \"#utility.yul\":913:963   */\n  tag_55\n    /* \"#utility.yul\":958:961   */\n  0xc0\n    /* \"#utility.yul\":947:956   */\n  dup13\n    /* \"#utility.yul\":943:962   */\n  add\n    /* \"#utility.yul\":913:963   */\n  tag_43\n  jump\t// in\ntag_55:\n    /* \"#utility.yul\":903:963   */\n  swap4\n  pop\n    /* \"#utility.yul\":982:1032   */\n  tag_56\n    /* \"#utility.yul\":1027:1030   */\n  0xe0\n    /* \"#utility.yul\":1016:1025   */\n  dup13\n    /* \"#utility.yul\":1012:1031   */\n  add\n    /* \"#utility.yul\":982:1032   */\n  tag_43\n  jump\t// in\ntag_56:\n    /* \"#utility.yul\":972:1032   */\n  swap3\n  pop\n    /* \"#utility.yul\":1051:1101   */\n  tag_57\n    /* \"#utility.yul\":1096:1099   */\n  0x0100\n    /* \"#utility.yul\":1085:1094   */\n  dup13\n    /* \"#utility.yul\":1081:1100   */\n  add\n    /* \"#utility.yul\":1051:1101   */\n  tag_43\n  jump\t// in\ntag_57:\n    /* \"#utility.yul\":1041:1101   */\n  swap2\n  pop\n    /* \"#utility.yul\":1120:1170   */\n  tag_58\n    /* \"#utility.yul\":1165:1168   */\n  0x0120\n    /* \"#utility.yul\":1154:1163   */\n  dup13\n    /* \"#utility.yul\":1150:1169   */\n  add\n    /* \"#utility.yul\":1120:1170   */\n  tag_43\n  jump\t// in\ntag_58:\n    /* \"#utility.yul\":1110:1170   */\n  swap1\n  pop\n    /* \"#utility.yul\":196:1176   */\n  swap3\n  swap6\n  swap9\n  swap12\n  swap2\n  swap5\n  swap8\n  swap11\n  pop\n  swap3\n  swap6\n  swap9\n  pop\n  jump\t// out\n    /* \"#utility.yul\":1460:1886   */\ntag_21:\n    /* \"#utility.yul\":1589:1592   */\n  0x00\n    /* \"#utility.yul\":1627:1633   */\n  dup3\n    /* \"#utility.yul\":1621:1634   */\n  mload\n    /* \"#utility.yul\":1652:1653   */\n  0x00\n    /* \"#utility.yul\":1662:1791   */\ntag_61:\n    /* \"#utility.yul\":1676:1682   */\n  dup2\n    /* \"#utility.yul\":1673:1674   */\n  dup2\n    /* \"#utility.yul\":1670:1683   */\n  lt\n    /* \"#utility.yul\":1662:1791   */\n  iszero\n  tag_63\n  jumpi\n    /* \"#utility.yul\":1774:1778   */\n  0x20\n    /* \"#utility.yul\":1758:1772   */\n  dup2\n  dup7\n  add\n    /* \"#utility.yul\":1754:1779   */\n  dup2\n  add\n    /* \"#utility.yul\":1748:1780   */\n  mload\n    /* \"#utility.yul\":1735:1746   */\n  dup6\n  dup4\n  add\n    /* \"#utility.yul\":1728:1781   */\n  mstore\n    /* \"#utility.yul\":1691:1703   */\n  add\n    /* \"#utility.yul\":1662:1791   */\n  jump(tag_61)\ntag_63:\n    /* \"#utility.yul\":1809:1815   */\n  dup2\n    /* \"#utility.yul\":1806:1807   */\n  dup2\n    /* \"#utility.yul\":1803:1816   */\n  gt\n    /* \"#utility.yul\":1800:1848   */\n  iszero\n  tag_64\n  jumpi\n    /* \"#utility.yul\":1844:1845   */\n  0x00\n    /* \"#utility.yul\":1835:1841   */\n  dup3\n    /* \"#utility.yul\":1830:1833   */\n  dup6\n    /* \"#utility.yul\":1826:1842   */\n  add\n    /* \"#utility.yul\":1819:1846   */\n  mstore\n    /* \"#utility.yul\":1800:1848   */\ntag_64:\n  pop\n    /* \"#utility.yul\":1864:1880   */\n  swap2\n  swap1\n  swap2\n  add\n  swap3\n    /* \"#utility.yul\":1460:1886   */\n  swap2\n  pop\n  pop\n  jump\t// out\n    /* \"#utility.yul\":1891:2168   */\ntag_28:\n    /* \"#utility.yul\":1958:1964   */\n  0x00\n    /* \"#utility.yul\":2011:2013   */\n  0x20\n    /* \"#utility.yul\":1999:2008   */\n  dup3\n    /* \"#utility.yul\":1990:1997   */\n  dup5\n    /* \"#utility.yul\":1986:2009   */\n  sub\n    /* \"#utility.yul\":1982:2014   */\n  slt\n    /* \"#utility.yul\":1979:2031   */\n  iszero\n  tag_66\n  jumpi\n    /* \"#utility.yul\":2027:2028   */\n  0x00\n    /* \"#utility.yul\":2024:2025   */\n  dup1\n    /* \"#utility.yul\":2017:2029   */\n  revert\n    /* \"#utility.yul\":1979:2031   */\ntag_66:\n    /* \"#utility.yul\":2059:2068   */\n  dup2\n    /* \"#utility.yul\":2053:2069   */\n  mload\n    /* \"#utility.yul\":2112:2117   */\n  dup1\n    /* \"#utility.yul\":2105:2118   */\n  iszero\n    /* \"#utility.yul\":2098:2119   */\n  iszero\n    /* \"#utility.yul\":2091:2096   */\n  dup2\n    /* \"#utility.yul\":2088:2120   */\n  eq\n    /* \"#utility.yul\":2078:2138   */\n  tag_67\n  jumpi\n    /* \"#utility.yul\":2134:2135   */\n  0x00\n    /* \"#utility.yul\":2131:2132   */\n  dup1\n    /* \"#utility.yul\":2124:2136   */\n  revert\n    /* \"#utility.yul\":2078:2138   */\ntag_67:\n    /* \"#utility.yul\":2157:2162   */\n  swap4\n    /* \"#utility.yul\":1891:2168   */\n  swap3\n  pop\n  pop\n  pop\n  jump\t// out\n    /* \"#utility.yul\":2516:2896   */\ntag_33:\n    /* \"#utility.yul\":2595:2596   */\n  0x01\n    /* \"#utility.yul\":2591:2603   */\n  dup2\n  dup2\n  shr\n  swap1\n    /* \"#utility.yul\":2638:2650   */\n  dup3\n  and\n  dup1\n    /* \"#utility.yul\":2659:2720   */\n  tag_70\n  jumpi\n    /* \"#utility.yul\":2713:2717   */\n  0x7f\n    /* \"#utility.yul\":2705:2711   */\n  dup3\n    /* \"#utility.yul\":2701:2718   */\n  and\n    /* \"#utility.yul\":2691:2718   */\n  swap2\n  pop\n    /* \"#utility.yul\":2659:2720   */\ntag_70:\n    /* \"#utility.yul\":2766:2768   */\n  0x20\n    /* \"#utility.yul\":2758:2764   */\n  dup3\n    /* \"#utility.yul\":2755:2769   */\n  lt\n    /* \"#utility.yul\":2735:2753   */\n  dup2\n    /* \"#utility.yul\":2732:2770   */\n  sub\n    /* \"#utility.yul\":2729:2890   */\n  tag_71\n  jumpi\n    /* \"#utility.yul\":2812:2822   */\n  0x4e487b71\n    /* \"#utility.yul\":2807:2810   */\n  0xe0\n    /* \"#utility.yul\":2803:2823   */\n  shl\n    /* \"#utility.yul\":2800:2801   */\n  0x00\n    /* \"#utility.yul\":2793:2824   */\n  mstore\n    /* \"#utility.yul\":2847:2851   */\n  0x22\n    /* \"#utility.yul\":2844:2845   */\n  0x04\n    /* \"#utility.yul\":2837:2852   */\n  mstore\n    /* \"#utility.yul\":2875:2879   */\n  0x24\n    /* \"#utility.yul\":2872:2873   */\n  0x00\n    /* \"#utility.yul\":2865:2880   */\n  revert\n    /* \"#utility.yul\":2729:2890   */\ntag_71:\n  pop\n    /* \"#utility.yul\":2516:2896   */\n  swap2\n  swap1\n  pop\n  jump\t// out\ntag_44:\n    /* \"LUSDAllocator/LUSDAllocator.sol\":495:13480  contract LUSDAllocator is ExodusAccessControlled {... */\n  mload(0x80)\n  mload(0xa0)\n  mload(0xc0)\n  mload(0xe0)\n  codecopy(0x00, dataOffset(sub_0), dataSize(sub_0))\n  0x00\n  assignImmutable(\"0x7544cb630261d9d070979689fb82f5401ae3cac6ec1ed588bfd9c696b9df0c3a\")\n  0x00\n  assignImmutable(\"0x06dc925f7e0472030ab837bf4003aff8a140fea172ce25164bd1dc54959e1c1f\")\n  0x00\n  assignImmutable(\"0x318d239e897e06530e6f97c5e7b530ff8f3cace0452144cc2fd8308d4c3465eb\")\n  0x00\n  assignImmutable(\"0x278a4539603a9bc8a72d7a368fe14ebf88ae5f0870def96c5eca03adb0b084ba\")\n  return(0x00, dataSize(sub_0))\nstop\n\nsub_0: assembly {\n        /* \"LUSDAllocator/LUSDAllocator.sol\":495:13480  contract LUSDAllocator is ExodusAccessControlled {... */\n      mstore(0x40, 0x80)\n      jumpi(tag_1, lt(calldatasize, 0x04))\n      shr(0xe0, calldataload(0x00))\n      dup1\n      0x817f6481\n      gt\n      tag_26\n      jumpi\n      dup1\n      0xbf7e214f\n      gt\n      tag_27\n      jumpi\n      dup1\n      0xe616916a\n      gt\n      tag_28\n      jumpi\n      dup1\n      0xe616916a\n      eq\n      tag_23\n      jumpi\n      dup1\n      0xe63a391f\n      eq\n      tag_24\n      jumpi\n      dup1\n      0xf3fef3a3\n      eq\n      tag_25\n      jumpi\n      0x00\n      dup1\n      revert\n    tag_28:\n      dup1\n      0xbf7e214f\n      eq\n      tag_20\n      jumpi\n      dup1\n      0xc901761d\n      eq\n      tag_21\n      jumpi\n      dup1\n      0xddc63262\n      eq\n      tag_22\n      jumpi\n      0x00\n      dup1\n      revert\n    tag_27:\n      dup1\n      0x9c769787\n      gt\n      tag_29\n      jumpi\n      dup1\n      0x9c769787\n      eq\n      tag_17\n      jumpi\n      dup1\n      0xb6b55f25\n      eq\n      tag_18\n      jumpi\n      dup1\n      0xb7e78648\n      eq\n      tag_19\n      jumpi\n      0x00\n      dup1\n      revert\n    tag_29:\n      dup1\n      0x817f6481\n      eq\n      tag_14\n      jumpi\n      dup1\n      0x9501dc87\n      eq\n      tag_15\n      jumpi\n      dup1\n      0x987f56ff\n      eq\n      tag_16\n      jumpi\n      0x00\n      dup1\n      revert\n    tag_26:\n      dup1\n      0x61d027b3\n      gt\n      tag_30\n      jumpi\n      dup1\n      0x78289ed2\n      gt\n      tag_31\n      jumpi\n      dup1\n      0x78289ed2\n      eq\n      tag_11\n      jumpi\n      dup1\n      0x78767d05\n      eq\n      tag_12\n      jumpi\n      dup1\n      0x7a9e5e4b\n      eq\n      tag_13\n      jumpi\n      0x00\n      dup1\n      revert\n    tag_31:\n      dup1\n      0x61d027b3\n      eq\n      tag_8\n      jumpi\n      dup1\n      0x6bd0fd0f\n      eq\n      tag_9\n      jumpi\n      dup1\n      0x739a4a37\n      eq\n      tag_10\n      jumpi\n      0x00\n      dup1\n      revert\n    tag_30:\n      dup1\n      0x10a18de2\n      gt\n      tag_32\n      jumpi\n      dup1\n      0x10a18de2\n      eq\n      tag_5\n      jumpi\n      dup1\n      0x1d2528fc\n      eq\n      tag_6\n      jumpi\n      dup1\n      0x5a762d64\n      eq\n      tag_7\n      jumpi\n      0x00\n      dup1\n      revert\n    tag_32:\n      dup1\n      0x02fcd3\n      eq\n      tag_3\n      jumpi\n      dup1\n      0x089fe6aa\n      eq\n      tag_4\n      jumpi\n      0x00\n      dup1\n      revert\n    tag_1:\n      jumpi(tag_2, calldatasize)\n        /* \"LUSDAllocator/LUSDAllocator.sol\":4122:4152  Deposit(msg.sender, msg.value) */\n      mload(0x40)\n        /* \"LUSDAllocator/LUSDAllocator.sol\":4142:4151  msg.value */\n      callvalue\n        /* \"#utility.yul\":160:185   */\n      dup2\n      mstore\n        /* \"LUSDAllocator/LUSDAllocator.sol\":4130:4140  msg.sender */\n      caller\n      swap1\n        /* \"LUSDAllocator/LUSDAllocator.sol\":4122:4152  Deposit(msg.sender, msg.value) */\n      0xe1fffcc4923d04b559f4d29a8bfc6cda04eb5b0d3c460751c2402c5c5cc9109c\n      swap1\n        /* \"#utility.yul\":148:150   */\n      0x20\n        /* \"#utility.yul\":133:151   */\n      add\n        /* \"LUSDAllocator/LUSDAllocator.sol\":4122:4152  Deposit(msg.sender, msg.value) */\n      mload(0x40)\n      dup1\n      swap2\n      sub\n      swap1\n      log2\n        /* \"LUSDAllocator/LUSDAllocator.sol\":495:13480  contract LUSDAllocator is ExodusAccessControlled {... */\n      stop\n    tag_2:\n      0x00\n      dup1\n      revert\n        /* \"LUSDAllocator/LUSDAllocator.sol\":2104:2135  address public lusdTokenAddress */\n    tag_3:\n      callvalue\n      dup1\n      iszero\n      tag_37\n      jumpi\n      0x00\n      dup1\n      revert\n    tag_37:\n      pop\n      sload(0x07)\n      tag_38\n      swap1\n      sub(shl(0xa0, 0x01), 0x01)\n      and\n      dup2\n      jump\n    tag_38:\n      mload(0x40)\n      sub(shl(0xa0, 0x01), 0x01)\n        /* \"#utility.yul\":360:415   */\n      swap1\n      swap2\n      and\n        /* \"#utility.yul\":342:416   */\n      dup2\n      mstore\n        /* \"#utility.yul\":330:332   */\n      0x20\n        /* \"#utility.yul\":315:333   */\n      add\n        /* \"LUSDAllocator/LUSDAllocator.sol\":2104:2135  address public lusdTokenAddress */\n    tag_40:\n      mload(0x40)\n      dup1\n      swap2\n      sub\n      swap1\n      return\n        /* \"LUSDAllocator/LUSDAllocator.sol\":1779:1808  uint256 public poolFee = 3000 */\n    tag_4:\n      callvalue\n      dup1\n      iszero\n      tag_42\n      jumpi\n      0x00\n      dup1\n      revert\n    tag_42:\n      pop\n      tag_43\n      sload(0x04)\n      dup2\n      jump\n    tag_43:\n      mload(0x40)\n        /* \"#utility.yul\":160:185   */\n      swap1\n      dup2\n      mstore\n        /* \"#utility.yul\":148:150   */\n      0x20\n        /* \"#utility.yul\":133:151   */\n      add\n        /* \"LUSDAllocator/LUSDAllocator.sol\":1779:1808  uint256 public poolFee = 3000 */\n      tag_40\n        /* \"#utility.yul\":14:191   */\n      jump\n        /* \"LUSDAllocator/LUSDAllocator.sol\":1852:1882  address public hopTokenAddress */\n    tag_5:\n      callvalue\n      dup1\n      iszero\n      tag_46\n      jumpi\n      0x00\n      dup1\n      revert\n    tag_46:\n      pop\n      sload(0x05)\n      tag_38\n      swap1\n      sub(shl(0xa0, 0x01), 0x01)\n      and\n      dup2\n      jump\n        /* \"LUSDAllocator/LUSDAllocator.sol\":2019:2049  address public frontEndAddress */\n    tag_6:\n      callvalue\n      dup1\n      iszero\n      tag_50\n      jumpi\n      0x00\n      dup1\n      revert\n    tag_50:\n      pop\n      sload(0x06)\n      tag_38\n      swap1\n      sub(shl(0xa0, 0x01), 0x01)\n      and\n      dup2\n      jump\n        /* \"LUSDAllocator/LUSDAllocator.sol\":4627:4754  function setHopTokenAddress(address _hopTokenAddress) external onlyGuardian {... */\n    tag_7:\n      callvalue\n      dup1\n      iszero\n      tag_54\n      jumpi\n      0x00\n      dup1\n      revert\n    tag_54:\n      pop\n      tag_55\n      tag_56\n      calldatasize\n      0x04\n      tag_57\n      jump\t// in\n    tag_56:\n      tag_58\n      jump\t// in\n    tag_55:\n      stop\n        /* \"LUSDAllocator/LUSDAllocator.sol\":970:995  ITreasury public treasury */\n    tag_8:\n      callvalue\n      dup1\n      iszero\n      tag_59\n      jumpi\n      0x00\n      dup1\n      revert\n    tag_59:\n      pop\n      sload(0x02)\n      tag_38\n      swap1\n      sub(shl(0xa0, 0x01), 0x01)\n      and\n      dup2\n      jump\n        /* \"LUSDAllocator/LUSDAllocator.sol\":4231:4440  function setEthToLUSDRatio(uint256 _ethToLUSDRatio) external onlyGuardian {... */\n    tag_9:\n      callvalue\n      dup1\n      iszero\n      tag_64\n      jumpi\n      0x00\n      dup1\n      revert\n    tag_64:\n      pop\n      tag_55\n      tag_66\n      calldatasize\n      0x04\n      tag_67\n      jump\t// in\n    tag_66:\n      tag_68\n      jump\t// in\n        /* \"LUSDAllocator/LUSDAllocator.sol\":1071:1115  uint256 public constant POOL_FEE_MAX = 10000 */\n    tag_10:\n      callvalue\n      dup1\n      iszero\n      tag_69\n      jumpi\n      0x00\n      dup1\n      revert\n    tag_69:\n      pop\n      tag_43\n        /* \"LUSDAllocator/LUSDAllocator.sol\":1110:1115  10000 */\n      0x2710\n        /* \"LUSDAllocator/LUSDAllocator.sol\":1071:1115  uint256 public constant POOL_FEE_MAX = 10000 */\n      dup2\n      jump\n        /* \"LUSDAllocator/LUSDAllocator.sol\":13130:13261  function getETHRewards() public view returns (uint256) {... */\n    tag_11:\n      callvalue\n      dup1\n      iszero\n      tag_73\n      jumpi\n      0x00\n      dup1\n      revert\n    tag_73:\n      pop\n      tag_43\n      tag_75\n      jump\t// in\n        /* \"LUSDAllocator/LUSDAllocator.sol\":13345:13478  function getLQTYRewards() public view returns (uint256) {... */\n    tag_12:\n      callvalue\n      dup1\n      iszero\n      tag_77\n      jumpi\n      0x00\n      dup1\n      revert\n    tag_77:\n      pop\n      tag_43\n      tag_79\n      jump\t// in\n        /* \"LUSDAllocator/OlympusAccessControlled.sol\":1108:1272  function setAuthority(IExodusAuthority _newAuthority) external onlyGovernor {... */\n    tag_13:\n      callvalue\n      dup1\n      iszero\n      tag_81\n      jumpi\n      0x00\n      dup1\n      revert\n    tag_81:\n      pop\n      tag_55\n      tag_83\n      calldatasize\n      0x04\n      tag_57\n      jump\t// in\n    tag_83:\n      tag_85\n      jump\t// in\n        /* \"LUSDAllocator/LUSDAllocator.sol\":2202:2233  address public lqtyTokenAddress */\n    tag_14:\n      callvalue\n      dup1\n      iszero\n      tag_86\n      jumpi\n      0x00\n      dup1\n      revert\n    tag_86:\n      pop\n      sload(0x08)\n      tag_38\n      swap1\n      sub(shl(0xa0, 0x01), 0x01)\n      and\n      dup2\n      jump\n        /* \"LUSDAllocator/LUSDAllocator.sol\":4446:4621  function setPoolFee(uint256 _poolFee) external onlyGuardian {... */\n    tag_15:\n      callvalue\n      dup1\n      iszero\n      tag_90\n      jumpi\n      0x00\n      dup1\n      revert\n    tag_90:\n      pop\n      tag_55\n      tag_92\n      calldatasize\n      0x04\n      tag_67\n      jump\t// in\n    tag_92:\n      tag_93\n      jump\t// in\n        /* \"LUSDAllocator/LUSDAllocator.sol\":2538:2572  uint256 public totalAmountDeployed */\n    tag_16:\n      callvalue\n      dup1\n      iszero\n      tag_94\n      jumpi\n      0x00\n      dup1\n      revert\n    tag_94:\n      pop\n      tag_43\n      sload(0x0a)\n      dup2\n      jump\n        /* \"LUSDAllocator/LUSDAllocator.sol\":5012:5266  function updateTreasury() public onlyGuardian {... */\n    tag_17:\n      callvalue\n      dup1\n      iszero\n      tag_98\n      jumpi\n      0x00\n      dup1\n      revert\n    tag_98:\n      pop\n      tag_55\n      tag_100\n      jump\t// in\n        /* \"LUSDAllocator/LUSDAllocator.sol\":9994:10180  function deposit(uint256 amount) external onlyGuardian {... */\n    tag_18:\n      callvalue\n      dup1\n      iszero\n      tag_101\n      jumpi\n      0x00\n      dup1\n      revert\n    tag_101:\n      pop\n      tag_55\n      tag_103\n      calldatasize\n      0x04\n      tag_67\n      jump\t// in\n    tag_103:\n      tag_104\n      jump\t// in\n        /* \"LUSDAllocator/LUSDAllocator.sol\":4879:5006  function setFrontEndAddress(address _frontEndAddress) external onlyGuardian {... */\n    tag_19:\n      callvalue\n      dup1\n      iszero\n      tag_105\n      jumpi\n      0x00\n      dup1\n      revert\n    tag_105:\n      pop\n      tag_55\n      tag_107\n      calldatasize\n      0x04\n      tag_57\n      jump\t// in\n    tag_107:\n      tag_108\n      jump\t// in\n        /* \"LUSDAllocator/OlympusAccessControlled.sol\":359:392  IExodusAuthority public authority */\n    tag_20:\n      callvalue\n      dup1\n      iszero\n      tag_109\n      jumpi\n      0x00\n      dup1\n      revert\n    tag_109:\n      pop\n      sload(0x01)\n      tag_38\n      swap1\n      sub(shl(0xa0, 0x01), 0x01)\n      and\n      dup2\n      jump\n        /* \"LUSDAllocator/LUSDAllocator.sol\":2459:2492  uint256 public totalValueDeployed */\n    tag_21:\n      callvalue\n      dup1\n      iszero\n      tag_114\n      jumpi\n      0x00\n      dup1\n      revert\n    tag_114:\n      pop\n      tag_43\n      sload(0x09)\n      dup2\n      jump\n        /* \"LUSDAllocator/LUSDAllocator.sol\":5910:9817  function harvest(uint256 minETHLUSDRate) public onlyGuardian returns (bool) {... */\n    tag_22:\n      callvalue\n      dup1\n      iszero\n      tag_118\n      jumpi\n      0x00\n      dup1\n      revert\n    tag_118:\n      pop\n      tag_119\n      tag_120\n      calldatasize\n      0x04\n      tag_67\n      jump\t// in\n    tag_120:\n      tag_121\n      jump\t// in\n    tag_119:\n      mload(0x40)\n        /* \"#utility.yul\":1967:1981   */\n      swap1\n      iszero\n        /* \"#utility.yul\":1960:1982   */\n      iszero\n        /* \"#utility.yul\":1942:1983   */\n      dup2\n      mstore\n        /* \"#utility.yul\":1930:1932   */\n      0x20\n        /* \"#utility.yul\":1915:1933   */\n      add\n        /* \"LUSDAllocator/LUSDAllocator.sol\":5910:9817  function harvest(uint256 minETHLUSDRate) public onlyGuardian returns (bool) {... */\n      tag_40\n        /* \"#utility.yul\":1802:1989   */\n      jump\n        /* \"LUSDAllocator/LUSDAllocator.sol\":1345:1383  uint256 public ethToLUSDRatio = 330000 */\n    tag_23:\n      callvalue\n      dup1\n      iszero\n      tag_124\n      jumpi\n      0x00\n      dup1\n      revert\n    tag_124:\n      pop\n      tag_43\n      sload(0x03)\n      dup2\n      jump\n        /* \"LUSDAllocator/LUSDAllocator.sol\":1022:1065  uint256 public constant FEE_PRECISION = 1e6 */\n    tag_24:\n      callvalue\n      dup1\n      iszero\n      tag_128\n      jumpi\n      0x00\n      dup1\n      revert\n    tag_128:\n      pop\n      tag_43\n        /* \"LUSDAllocator/LUSDAllocator.sol\":1062:1065  1e6 */\n      0x0f4240\n        /* \"LUSDAllocator/LUSDAllocator.sol\":1022:1065  uint256 public constant FEE_PRECISION = 1e6 */\n      dup2\n      jump\n        /* \"LUSDAllocator/LUSDAllocator.sol\":10338:11336  function withdraw(address token, uint256 amount) external onlyGuardian {... */\n    tag_25:\n      callvalue\n      dup1\n      iszero\n      tag_132\n      jumpi\n      0x00\n      dup1\n      revert\n    tag_132:\n      pop\n      tag_55\n      tag_134\n      calldatasize\n      0x04\n      tag_135\n      jump\t// in\n    tag_134:\n      tag_136\n      jump\t// in\n        /* \"LUSDAllocator/LUSDAllocator.sol\":4627:4754  function setHopTokenAddress(address _hopTokenAddress) external onlyGuardian {... */\n    tag_58:\n        /* \"LUSDAllocator/OlympusAccessControlled.sol\":787:796  authority */\n      0x01\n      0x00\n      swap1\n      sload\n      swap1\n      0x0100\n      exp\n      swap1\n      div\n      sub(shl(0xa0, 0x01), 0x01)\n      and\n      sub(shl(0xa0, 0x01), 0x01)\n        /* \"LUSDAllocator/OlympusAccessControlled.sol\":787:805  authority.guardian */\n      and\n      0x452a9320\n        /* \"LUSDAllocator/OlympusAccessControlled.sol\":787:807  authority.guardian() */\n      mload(0x40)\n      dup2\n      0xffffffff\n      and\n      0xe0\n      shl\n      dup2\n      mstore\n      0x04\n      add\n      0x20\n      mload(0x40)\n      dup1\n      dup4\n      sub\n      dup2\n      dup7\n      gas\n      staticcall\n      iszero\n      dup1\n      iszero\n      tag_140\n      jumpi\n      returndatasize\n      0x00\n      dup1\n      returndatacopy\n      revert(0x00, returndatasize)\n    tag_140:\n      pop\n      pop\n      pop\n      pop\n      mload(0x40)\n      returndatasize\n      not(0x1f)\n      0x1f\n      dup3\n      add\n      and\n      dup3\n      add\n      dup1\n      0x40\n      mstore\n      pop\n      dup2\n      add\n      swap1\n      tag_141\n      swap2\n      swap1\n      tag_142\n      jump\t// in\n    tag_141:\n      sub(shl(0xa0, 0x01), 0x01)\n        /* \"LUSDAllocator/OlympusAccessControlled.sol\":773:807  msg.sender == authority.guardian() */\n      and\n        /* \"LUSDAllocator/OlympusAccessControlled.sol\":773:783  msg.sender */\n      caller\n      sub(shl(0xa0, 0x01), 0x01)\n        /* \"LUSDAllocator/OlympusAccessControlled.sol\":773:807  msg.sender == authority.guardian() */\n      and\n      eq\n        /* \"LUSDAllocator/OlympusAccessControlled.sol\":809:821  UNAUTHORIZED */\n      0x00\n        /* \"LUSDAllocator/OlympusAccessControlled.sol\":765:822  require(msg.sender == authority.guardian(), UNAUTHORIZED) */\n      swap1\n      tag_143\n      jumpi\n      mload(0x40)\n      shl(0xe5, 0x461bcd)\n      dup2\n      mstore\n      0x04\n      add\n      tag_144\n      swap2\n      swap1\n      tag_145\n      jump\t// in\n    tag_144:\n      mload(0x40)\n      dup1\n      swap2\n      sub\n      swap1\n      revert\n    tag_143:\n      pop\n        /* \"LUSDAllocator/LUSDAllocator.sol\":4713:4728  hopTokenAddress */\n      0x05\n        /* \"LUSDAllocator/LUSDAllocator.sol\":4713:4747  hopTokenAddress = _hopTokenAddress */\n      dup1\n      sload\n      not(0xffffffffffffffffffffffffffffffffffffffff)\n      and\n      sub(shl(0xa0, 0x01), 0x01)\n      swap3\n      swap1\n      swap3\n      and\n      swap2\n      swap1\n      swap2\n      or\n      swap1\n      sstore\n        /* \"LUSDAllocator/LUSDAllocator.sol\":4627:4754  function setHopTokenAddress(address _hopTokenAddress) external onlyGuardian {... */\n      jump\t// out\n        /* \"LUSDAllocator/LUSDAllocator.sol\":4231:4440  function setEthToLUSDRatio(uint256 _ethToLUSDRatio) external onlyGuardian {... */\n    tag_68:\n        /* \"LUSDAllocator/OlympusAccessControlled.sol\":787:796  authority */\n      0x01\n      0x00\n      swap1\n      sload\n      swap1\n      0x0100\n      exp\n      swap1\n      div\n      sub(shl(0xa0, 0x01), 0x01)\n      and\n      sub(shl(0xa0, 0x01), 0x01)\n        /* \"LUSDAllocator/OlympusAccessControlled.sol\":787:805  authority.guardian */\n      and\n      0x452a9320\n        /* \"LUSDAllocator/OlympusAccessControlled.sol\":787:807  authority.guardian() */\n      mload(0x40)\n      dup2\n      0xffffffff\n      and\n      0xe0\n      shl\n      dup2\n      mstore\n      0x04\n      add\n      0x20\n      mload(0x40)\n      dup1\n      dup4\n      sub\n      dup2\n      dup7\n      gas\n      staticcall\n      iszero\n      dup1\n      iszero\n      tag_149\n      jumpi\n      returndatasize\n      0x00\n      dup1\n      returndatacopy\n      revert(0x00, returndatasize)\n    tag_149:\n      pop\n      pop\n      pop\n      pop\n      mload(0x40)\n      returndatasize\n      not(0x1f)\n      0x1f\n      dup3\n      add\n      and\n      dup3\n      add\n      dup1\n      0x40\n      mstore\n      pop\n      dup2\n      add\n      swap1\n      tag_150\n      swap2\n      swap1\n      tag_142\n      jump\t// in\n    tag_150:\n      sub(shl(0xa0, 0x01), 0x01)\n        /* \"LUSDAllocator/OlympusAccessControlled.sol\":773:807  msg.sender == authority.guardian() */\n      and\n        /* \"LUSDAllocator/OlympusAccessControlled.sol\":773:783  msg.sender */\n      caller\n      sub(shl(0xa0, 0x01), 0x01)\n        /* \"LUSDAllocator/OlympusAccessControlled.sol\":773:807  msg.sender == authority.guardian() */\n      and\n      eq\n        /* \"LUSDAllocator/OlympusAccessControlled.sol\":809:821  UNAUTHORIZED */\n      0x00\n        /* \"LUSDAllocator/OlympusAccessControlled.sol\":765:822  require(msg.sender == authority.guardian(), UNAUTHORIZED) */\n      swap1\n      tag_151\n      jumpi\n      mload(0x40)\n      shl(0xe5, 0x461bcd)\n      dup2\n      mstore\n      0x04\n      add\n      tag_144\n      swap2\n      swap1\n      tag_145\n      jump\t// in\n    tag_151:\n      pop\n        /* \"LUSDAllocator/LUSDAllocator.sol\":1062:1065  1e6 */\n      0x0f4240\n        /* \"LUSDAllocator/LUSDAllocator.sol\":4323:4338  _ethToLUSDRatio */\n      dup2\n        /* \"LUSDAllocator/LUSDAllocator.sol\":4323:4355  _ethToLUSDRatio <= FEE_PRECISION */\n      gt\n      iszero\n        /* \"LUSDAllocator/LUSDAllocator.sol\":4315:4391  require(_ethToLUSDRatio <= FEE_PRECISION, \"Value must be between 0 and 1e6\") */\n      tag_154\n      jumpi\n      mload(0x40)\n      shl(0xe5, 0x461bcd)\n      dup2\n      mstore\n        /* \"#utility.yul\":4301:4303   */\n      0x20\n        /* \"LUSDAllocator/LUSDAllocator.sol\":4315:4391  require(_ethToLUSDRatio <= FEE_PRECISION, \"Value must be between 0 and 1e6\") */\n      0x04\n      dup3\n      add\n        /* \"#utility.yul\":4283:4304   */\n      mstore\n        /* \"#utility.yul\":4340:4342   */\n      0x1f\n        /* \"#utility.yul\":4320:4338   */\n      0x24\n      dup3\n      add\n        /* \"#utility.yul\":4313:4343   */\n      mstore\n        /* \"#utility.yul\":4379:4412   */\n      0x56616c7565206d757374206265206265747765656e203020616e642031653600\n        /* \"#utility.yul\":4359:4377   */\n      0x44\n      dup3\n      add\n        /* \"#utility.yul\":4352:4413   */\n      mstore\n        /* \"#utility.yul\":4430:4448   */\n      0x64\n      add\n        /* \"LUSDAllocator/LUSDAllocator.sol\":4315:4391  require(_ethToLUSDRatio <= FEE_PRECISION, \"Value must be between 0 and 1e6\") */\n      tag_144\n        /* \"#utility.yul\":4099:4454   */\n      jump\n        /* \"LUSDAllocator/LUSDAllocator.sol\":4315:4391  require(_ethToLUSDRatio <= FEE_PRECISION, \"Value must be between 0 and 1e6\") */\n    tag_154:\n        /* \"LUSDAllocator/LUSDAllocator.sol\":4401:4415  ethToLUSDRatio */\n      0x03\n        /* \"LUSDAllocator/LUSDAllocator.sol\":4401:4433  ethToLUSDRatio = _ethToLUSDRatio */\n      sstore\n        /* \"LUSDAllocator/LUSDAllocator.sol\":4231:4440  function setEthToLUSDRatio(uint256 _ethToLUSDRatio) external onlyGuardian {... */\n      jump\t// out\n        /* \"LUSDAllocator/LUSDAllocator.sol\":13130:13261  function getETHRewards() public view returns (uint256) {... */\n    tag_75:\n        /* \"LUSDAllocator/LUSDAllocator.sol\":13202:13254  lusdStabilityPool.getDepositorETHGain(address(this)) */\n      mload(0x40)\n      0x389e92a500000000000000000000000000000000000000000000000000000000\n      dup2\n      mstore\n        /* \"LUSDAllocator/LUSDAllocator.sol\":13248:13252  this */\n      address\n        /* \"LUSDAllocator/LUSDAllocator.sol\":13202:13254  lusdStabilityPool.getDepositorETHGain(address(this)) */\n      0x04\n      dup3\n      add\n        /* \"#utility.yul\":342:416   */\n      mstore\n        /* \"LUSDAllocator/LUSDAllocator.sol\":13176:13183  uint256 */\n      0x00\n      swap1\n        /* \"LUSDAllocator/LUSDAllocator.sol\":13202:13219  lusdStabilityPool */\n      immutable(\"0x278a4539603a9bc8a72d7a368fe14ebf88ae5f0870def96c5eca03adb0b084ba\")\n      sub(shl(0xa0, 0x01), 0x01)\n        /* \"LUSDAllocator/LUSDAllocator.sol\":13202:13239  lusdStabilityPool.getDepositorETHGain */\n      and\n      swap1\n      0x389e92a5\n      swap1\n        /* \"#utility.yul\":315:333   */\n      0x24\n      add\n        /* \"LUSDAllocator/LUSDAllocator.sol\":13202:13254  lusdStabilityPool.getDepositorETHGain(address(this)) */\n    tag_158:\n      0x20\n      mload(0x40)\n      dup1\n      dup4\n      sub\n      dup2\n      dup7\n      gas\n      staticcall\n      iszero\n      dup1\n      iszero\n      tag_160\n      jumpi\n      returndatasize\n      0x00\n      dup1\n      returndatacopy\n      revert(0x00, returndatasize)\n    tag_160:\n      pop\n      pop\n      pop\n      pop\n      mload(0x40)\n      returndatasize\n      not(0x1f)\n      0x1f\n      dup3\n      add\n      and\n      dup3\n      add\n      dup1\n      0x40\n      mstore\n      pop\n      dup2\n      add\n      swap1\n      tag_161\n      swap2\n      swap1\n      tag_162\n      jump\t// in\n    tag_161:\n        /* \"LUSDAllocator/LUSDAllocator.sol\":13195:13254  return lusdStabilityPool.getDepositorETHGain(address(this)) */\n      swap1\n      pop\n        /* \"LUSDAllocator/LUSDAllocator.sol\":13130:13261  function getETHRewards() public view returns (uint256) {... */\n      swap1\n      jump\t// out\n        /* \"LUSDAllocator/LUSDAllocator.sol\":13345:13478  function getLQTYRewards() public view returns (uint256) {... */\n    tag_79:\n        /* \"LUSDAllocator/LUSDAllocator.sol\":13418:13471  lusdStabilityPool.getDepositorLQTYGain(address(this)) */\n      mload(0x40)\n      0xf5f1595d00000000000000000000000000000000000000000000000000000000\n      dup2\n      mstore\n        /* \"LUSDAllocator/LUSDAllocator.sol\":13465:13469  this */\n      address\n        /* \"LUSDAllocator/LUSDAllocator.sol\":13418:13471  lusdStabilityPool.getDepositorLQTYGain(address(this)) */\n      0x04\n      dup3\n      add\n        /* \"#utility.yul\":342:416   */\n      mstore\n        /* \"LUSDAllocator/LUSDAllocator.sol\":13392:13399  uint256 */\n      0x00\n      swap1\n        /* \"LUSDAllocator/LUSDAllocator.sol\":13418:13435  lusdStabilityPool */\n      immutable(\"0x278a4539603a9bc8a72d7a368fe14ebf88ae5f0870def96c5eca03adb0b084ba\")\n      sub(shl(0xa0, 0x01), 0x01)\n        /* \"LUSDAllocator/LUSDAllocator.sol\":13418:13456  lusdStabilityPool.getDepositorLQTYGain */\n      and\n      swap1\n      0xf5f1595d\n      swap1\n        /* \"#utility.yul\":315:333   */\n      0x24\n      add\n        /* \"LUSDAllocator/LUSDAllocator.sol\":13418:13471  lusdStabilityPool.getDepositorLQTYGain(address(this)) */\n      tag_158\n        /* \"#utility.yul\":196:422   */\n      jump\n        /* \"LUSDAllocator/OlympusAccessControlled.sol\":1108:1272  function setAuthority(IExodusAuthority _newAuthority) external onlyGovernor {... */\n    tag_85:\n        /* \"LUSDAllocator/OlympusAccessControlled.sol\":672:681  authority */\n      0x01\n      0x00\n      swap1\n      sload\n      swap1\n      0x0100\n      exp\n      swap1\n      div\n      sub(shl(0xa0, 0x01), 0x01)\n      and\n      sub(shl(0xa0, 0x01), 0x01)\n        /* \"LUSDAllocator/OlympusAccessControlled.sol\":672:690  authority.governor */\n      and\n      0x0c340a24\n        /* \"LUSDAllocator/OlympusAccessControlled.sol\":672:692  authority.governor() */\n      mload(0x40)\n      dup2\n      0xffffffff\n      and\n      0xe0\n      shl\n      dup2\n      mstore\n      0x04\n      add\n      0x20\n      mload(0x40)\n      dup1\n      dup4\n      sub\n      dup2\n      dup7\n      gas\n      staticcall\n      iszero\n      dup1\n      iszero\n      tag_170\n      jumpi\n      returndatasize\n      0x00\n      dup1\n      returndatacopy\n      revert(0x00, returndatasize)\n    tag_170:\n      pop\n      pop\n      pop\n      pop\n      mload(0x40)\n      returndatasize\n      not(0x1f)\n      0x1f\n      dup3\n      add\n      and\n      dup3\n      add\n      dup1\n      0x40\n      mstore\n      pop\n      dup2\n      add\n      swap1\n      tag_171\n      swap2\n      swap1\n      tag_142\n      jump\t// in\n    tag_171:\n      sub(shl(0xa0, 0x01), 0x01)\n        /* \"LUSDAllocator/OlympusAccessControlled.sol\":658:692  msg.sender == authority.governor() */\n      and\n        /* \"LUSDAllocator/OlympusAccessControlled.sol\":658:668  msg.sender */\n      caller\n      sub(shl(0xa0, 0x01), 0x01)\n        /* \"LUSDAllocator/OlympusAccessControlled.sol\":658:692  msg.sender == authority.governor() */\n      and\n      eq\n        /* \"LUSDAllocator/OlympusAccessControlled.sol\":694:706  UNAUTHORIZED */\n      0x00\n        /* \"LUSDAllocator/OlympusAccessControlled.sol\":650:707  require(msg.sender == authority.governor(), UNAUTHORIZED) */\n      swap1\n      tag_172\n      jumpi\n      mload(0x40)\n      shl(0xe5, 0x461bcd)\n      dup2\n      mstore\n      0x04\n      add\n      tag_144\n      swap2\n      swap1\n      tag_145\n      jump\t// in\n    tag_172:\n      pop\n        /* \"LUSDAllocator/OlympusAccessControlled.sol\":1194:1203  authority */\n      0x01\n        /* \"LUSDAllocator/OlympusAccessControlled.sol\":1194:1219  authority = _newAuthority */\n      dup1\n      sload\n      not(0xffffffffffffffffffffffffffffffffffffffff)\n      and\n      sub(shl(0xa0, 0x01), 0x01)\n      dup4\n      and\n      swap1\n      dup2\n      or\n      swap1\n      swap2\n      sstore\n        /* \"LUSDAllocator/OlympusAccessControlled.sol\":1234:1265  AuthorityUpdated(_newAuthority) */\n      mload(0x40)\n      0x2f658b440c35314f52658ea8a740e05b284cdc84dc9ae01e891f21b8933e7cad\n      swap1\n      0x00\n      swap1\n      log2\n        /* \"LUSDAllocator/OlympusAccessControlled.sol\":1108:1272  function setAuthority(IExodusAuthority _newAuthority) external onlyGovernor {... */\n      pop\n      jump\t// out\n        /* \"LUSDAllocator/LUSDAllocator.sol\":4446:4621  function setPoolFee(uint256 _poolFee) external onlyGuardian {... */\n    tag_93:\n        /* \"LUSDAllocator/OlympusAccessControlled.sol\":787:796  authority */\n      0x01\n      0x00\n      swap1\n      sload\n      swap1\n      0x0100\n      exp\n      swap1\n      div\n      sub(shl(0xa0, 0x01), 0x01)\n      and\n      sub(shl(0xa0, 0x01), 0x01)\n        /* \"LUSDAllocator/OlympusAccessControlled.sol\":787:805  authority.guardian */\n      and\n      0x452a9320\n        /* \"LUSDAllocator/OlympusAccessControlled.sol\":787:807  authority.guardian() */\n      mload(0x40)\n      dup2\n      0xffffffff\n      and\n      0xe0\n      shl\n      dup2\n      mstore\n      0x04\n      add\n      0x20\n      mload(0x40)\n      dup1\n      dup4\n      sub\n      dup2\n      dup7\n      gas\n      staticcall\n      iszero\n      dup1\n      iszero\n      tag_177\n      jumpi\n      returndatasize\n      0x00\n      dup1\n      returndatacopy\n      revert(0x00, returndatasize)\n    tag_177:\n      pop\n      pop\n      pop\n      pop\n      mload(0x40)\n      returndatasize\n      not(0x1f)\n      0x1f\n      dup3\n      add\n      and\n      dup3\n      add\n      dup1\n      0x40\n      mstore\n      pop\n      dup2\n      add\n      swap1\n      tag_178\n      swap2\n      swap1\n      tag_142\n      jump\t// in\n    tag_178:\n      sub(shl(0xa0, 0x01), 0x01)\n        /* \"LUSDAllocator/OlympusAccessControlled.sol\":773:807  msg.sender == authority.guardian() */\n      and\n        /* \"LUSDAllocator/OlympusAccessControlled.sol\":773:783  msg.sender */\n      caller\n      sub(shl(0xa0, 0x01), 0x01)\n        /* \"LUSDAllocator/OlympusAccessControlled.sol\":773:807  msg.sender == authority.guardian() */\n      and\n      eq\n        /* \"LUSDAllocator/OlympusAccessControlled.sol\":809:821  UNAUTHORIZED */\n      0x00\n        /* \"LUSDAllocator/OlympusAccessControlled.sol\":765:822  require(msg.sender == authority.guardian(), UNAUTHORIZED) */\n      swap1\n      tag_179\n      jumpi\n      mload(0x40)\n      shl(0xe5, 0x461bcd)\n      dup2\n      mstore\n      0x04\n      add\n      tag_144\n      swap2\n      swap1\n      tag_145\n      jump\t// in\n    tag_179:\n      pop\n        /* \"LUSDAllocator/LUSDAllocator.sol\":1110:1115  10000 */\n      0x2710\n        /* \"LUSDAllocator/LUSDAllocator.sol\":4524:4532  _poolFee */\n      dup2\n        /* \"LUSDAllocator/LUSDAllocator.sol\":4524:4548  _poolFee <= POOL_FEE_MAX */\n      gt\n      iszero\n        /* \"LUSDAllocator/LUSDAllocator.sol\":4516:4586  require(_poolFee <= POOL_FEE_MAX, \"Value must be between 0 and 10000\") */\n      tag_182\n      jumpi\n      mload(0x40)\n      shl(0xe5, 0x461bcd)\n      dup2\n      mstore\n        /* \"#utility.yul\":4850:4852   */\n      0x20\n        /* \"LUSDAllocator/LUSDAllocator.sol\":4516:4586  require(_poolFee <= POOL_FEE_MAX, \"Value must be between 0 and 10000\") */\n      0x04\n      dup3\n      add\n        /* \"#utility.yul\":4832:4853   */\n      mstore\n        /* \"#utility.yul\":4889:4891   */\n      0x21\n        /* \"#utility.yul\":4869:4887   */\n      0x24\n      dup3\n      add\n        /* \"#utility.yul\":4862:4892   */\n      mstore\n        /* \"#utility.yul\":4928:4962   */\n      0x56616c7565206d757374206265206265747765656e203020616e642031303030\n        /* \"#utility.yul\":4908:4926   */\n      0x44\n      dup3\n      add\n        /* \"#utility.yul\":4901:4963   */\n      mstore\n        /* \"#utility.yul\":4999:5002   */\n      0x3000000000000000000000000000000000000000000000000000000000000000\n        /* \"#utility.yul\":4979:4997   */\n      0x64\n      dup3\n      add\n        /* \"#utility.yul\":4972:5003   */\n      mstore\n        /* \"#utility.yul\":5020:5039   */\n      0x84\n      add\n        /* \"LUSDAllocator/LUSDAllocator.sol\":4516:4586  require(_poolFee <= POOL_FEE_MAX, \"Value must be between 0 and 10000\") */\n      tag_144\n        /* \"#utility.yul\":4648:5045   */\n      jump\n        /* \"LUSDAllocator/LUSDAllocator.sol\":4516:4586  require(_poolFee <= POOL_FEE_MAX, \"Value must be between 0 and 10000\") */\n    tag_182:\n        /* \"LUSDAllocator/LUSDAllocator.sol\":4596:4603  poolFee */\n      0x04\n        /* \"LUSDAllocator/LUSDAllocator.sol\":4596:4614  poolFee = _poolFee */\n      sstore\n        /* \"LUSDAllocator/LUSDAllocator.sol\":4446:4621  function setPoolFee(uint256 _poolFee) external onlyGuardian {... */\n      jump\t// out\n        /* \"LUSDAllocator/LUSDAllocator.sol\":5012:5266  function updateTreasury() public onlyGuardian {... */\n    tag_100:\n        /* \"LUSDAllocator/OlympusAccessControlled.sol\":787:796  authority */\n      0x01\n      0x00\n      swap1\n      sload\n      swap1\n      0x0100\n      exp\n      swap1\n      div\n      sub(shl(0xa0, 0x01), 0x01)\n      and\n      sub(shl(0xa0, 0x01), 0x01)\n        /* \"LUSDAllocator/OlympusAccessControlled.sol\":787:805  authority.guardian */\n      and\n      0x452a9320\n        /* \"LUSDAllocator/OlympusAccessControlled.sol\":787:807  authority.guardian() */\n      mload(0x40)\n      dup2\n      0xffffffff\n      and\n      0xe0\n      shl\n      dup2\n      mstore\n      0x04\n      add\n      0x20\n      mload(0x40)\n      dup1\n      dup4\n      sub\n      dup2\n      dup7\n      gas\n      staticcall\n      iszero\n      dup1\n      iszero\n      tag_187\n      jumpi\n      returndatasize\n      0x00\n      dup1\n      returndatacopy\n      revert(0x00, returndatasize)\n    tag_187:\n      pop\n      pop\n      pop\n      pop\n      mload(0x40)\n      returndatasize\n      not(0x1f)\n      0x1f\n      dup3\n      add\n      and\n      dup3\n      add\n      dup1\n      0x40\n      mstore\n      pop\n      dup2\n      add\n      swap1\n      tag_188\n      swap2\n      swap1\n      tag_142\n      jump\t// in\n    tag_188:\n      sub(shl(0xa0, 0x01), 0x01)\n        /* \"LUSDAllocator/OlympusAccessControlled.sol\":773:807  msg.sender == authority.guardian() */\n      and\n        /* \"LUSDAllocator/OlympusAccessControlled.sol\":773:783  msg.sender */\n      caller\n      sub(shl(0xa0, 0x01), 0x01)\n        /* \"LUSDAllocator/OlympusAccessControlled.sol\":773:807  msg.sender == authority.guardian() */\n      and\n      eq\n        /* \"LUSDAllocator/OlympusAccessControlled.sol\":809:821  UNAUTHORIZED */\n      0x00\n        /* \"LUSDAllocator/OlympusAccessControlled.sol\":765:822  require(msg.sender == authority.guardian(), UNAUTHORIZED) */\n      swap1\n      tag_189\n      jumpi\n      mload(0x40)\n      shl(0xe5, 0x461bcd)\n      dup2\n      mstore\n      0x04\n      add\n      tag_144\n      swap2\n      swap1\n      tag_145\n      jump\t// in\n    tag_189:\n      pop\n        /* \"LUSDAllocator/LUSDAllocator.sol\":5076:5085  authority */\n      sload(0x01)\n        /* \"LUSDAllocator/LUSDAllocator.sol\":5076:5093  authority.vault() */\n      0x40\n      dup1\n      mload\n      shl(0xe0, 0xfbfa77cf)\n      dup2\n      mstore\n      swap1\n      mload\n        /* \"LUSDAllocator/LUSDAllocator.sol\":5105:5106  0 */\n      0x00\n      swap3\n      sub(shl(0xa0, 0x01), 0x01)\n        /* \"LUSDAllocator/LUSDAllocator.sol\":5076:5085  authority */\n      and\n      swap2\n        /* \"LUSDAllocator/LUSDAllocator.sol\":5076:5091  authority.vault */\n      0xfbfa77cf\n      swap2\n        /* \"LUSDAllocator/LUSDAllocator.sol\":5076:5093  authority.vault() */\n      0x04\n      dup1\n      dup4\n      add\n      swap3\n      0x20\n      swap3\n      swap2\n      swap1\n      dup3\n      swap1\n      sub\n      add\n      dup2\n        /* \"LUSDAllocator/LUSDAllocator.sol\":5076:5085  authority */\n      dup7\n        /* \"LUSDAllocator/LUSDAllocator.sol\":5076:5093  authority.vault() */\n      gas\n      staticcall\n      iszero\n      dup1\n      iszero\n      tag_193\n      jumpi\n      returndatasize\n      0x00\n      dup1\n      returndatacopy\n      revert(0x00, returndatasize)\n    tag_193:\n      pop\n      pop\n      pop\n      pop\n      mload(0x40)\n      returndatasize\n      not(0x1f)\n      0x1f\n      dup3\n      add\n      and\n      dup3\n      add\n      dup1\n      0x40\n      mstore\n      pop\n      dup2\n      add\n      swap1\n      tag_194\n      swap2\n      swap1\n      tag_142\n      jump\t// in\n    tag_194:\n      sub(shl(0xa0, 0x01), 0x01)\n        /* \"LUSDAllocator/LUSDAllocator.sol\":5076:5107  authority.vault() != address(0) */\n      and\n      sub\n        /* \"LUSDAllocator/LUSDAllocator.sol\":5068:5131  require(authority.vault() != address(0), \"Zero address: Vault\") */\n      tag_195\n      jumpi\n      mload(0x40)\n      shl(0xe5, 0x461bcd)\n      dup2\n      mstore\n        /* \"#utility.yul\":5252:5254   */\n      0x20\n        /* \"LUSDAllocator/LUSDAllocator.sol\":5068:5131  require(authority.vault() != address(0), \"Zero address: Vault\") */\n      0x04\n      dup3\n      add\n        /* \"#utility.yul\":5234:5255   */\n      mstore\n        /* \"#utility.yul\":5291:5293   */\n      0x13\n        /* \"#utility.yul\":5271:5289   */\n      0x24\n      dup3\n      add\n        /* \"#utility.yul\":5264:5294   */\n      mstore\n        /* \"#utility.yul\":5330:5351   */\n      0x5a65726f20616464726573733a205661756c7400000000000000000000000000\n        /* \"#utility.yul\":5310:5328   */\n      0x44\n      dup3\n      add\n        /* \"#utility.yul\":5303:5352   */\n      mstore\n        /* \"#utility.yul\":5369:5387   */\n      0x64\n      add\n        /* \"LUSDAllocator/LUSDAllocator.sol\":5068:5131  require(authority.vault() != address(0), \"Zero address: Vault\") */\n      tag_144\n        /* \"#utility.yul\":5050:5393   */\n      jump\n        /* \"LUSDAllocator/LUSDAllocator.sol\":5068:5131  require(authority.vault() != address(0), \"Zero address: Vault\") */\n    tag_195:\n        /* \"LUSDAllocator/LUSDAllocator.sol\":5187:5195  treasury */\n      sload(0x02)\n      0x01\n        /* \"LUSDAllocator/LUSDAllocator.sol\":5157:5166  authority */\n      sload\n        /* \"LUSDAllocator/LUSDAllocator.sol\":5157:5174  authority.vault() */\n      0x40\n      dup1\n      mload\n      shl(0xe0, 0xfbfa77cf)\n      dup2\n      mstore\n      swap1\n      mload\n      sub(shl(0xa0, 0x01), 0x01)\n        /* \"LUSDAllocator/LUSDAllocator.sol\":5187:5195  treasury */\n      swap4\n      dup5\n      and\n      swap4\n        /* \"LUSDAllocator/LUSDAllocator.sol\":5157:5166  authority */\n      swap1\n      swap3\n      and\n      swap2\n        /* \"LUSDAllocator/LUSDAllocator.sol\":5157:5172  authority.vault */\n      0xfbfa77cf\n      swap2\n        /* \"LUSDAllocator/LUSDAllocator.sol\":5157:5174  authority.vault() */\n      0x04\n      dup1\n      dup3\n      add\n      swap3\n      0x20\n      swap3\n      swap1\n      swap2\n      swap1\n      dup3\n      swap1\n      sub\n      add\n      dup2\n        /* \"LUSDAllocator/LUSDAllocator.sol\":5157:5166  authority */\n      dup7\n        /* \"LUSDAllocator/LUSDAllocator.sol\":5157:5174  authority.vault() */\n      gas\n      staticcall\n      iszero\n      dup1\n      iszero\n      tag_199\n      jumpi\n      returndatasize\n      0x00\n      dup1\n      returndatacopy\n      revert(0x00, returndatasize)\n    tag_199:\n      pop\n      pop\n      pop\n      pop\n      mload(0x40)\n      returndatasize\n      not(0x1f)\n      0x1f\n      dup3\n      add\n      and\n      dup3\n      add\n      dup1\n      0x40\n      mstore\n      pop\n      dup2\n      add\n      swap1\n      tag_200\n      swap2\n      swap1\n      tag_142\n      jump\t// in\n    tag_200:\n      sub(shl(0xa0, 0x01), 0x01)\n        /* \"LUSDAllocator/LUSDAllocator.sol\":5149:5196  address(authority.vault()) != address(treasury) */\n      and\n      sub\n        /* \"LUSDAllocator/LUSDAllocator.sol\":5141:5210  require(address(authority.vault()) != address(treasury), \"No change\") */\n      tag_201\n      jumpi\n      mload(0x40)\n      shl(0xe5, 0x461bcd)\n      dup2\n      mstore\n        /* \"#utility.yul\":5600:5602   */\n      0x20\n        /* \"LUSDAllocator/LUSDAllocator.sol\":5141:5210  require(address(authority.vault()) != address(treasury), \"No change\") */\n      0x04\n      dup3\n      add\n        /* \"#utility.yul\":5582:5603   */\n      mstore\n        /* \"#utility.yul\":5639:5640   */\n      0x09\n        /* \"#utility.yul\":5619:5637   */\n      0x24\n      dup3\n      add\n        /* \"#utility.yul\":5612:5641   */\n      mstore\n        /* \"#utility.yul\":5677:5688   */\n      0x4e6f206368616e67650000000000000000000000000000000000000000000000\n        /* \"#utility.yul\":5657:5675   */\n      0x44\n      dup3\n      add\n        /* \"#utility.yul\":5650:5689   */\n      mstore\n        /* \"#utility.yul\":5706:5724   */\n      0x64\n      add\n        /* \"LUSDAllocator/LUSDAllocator.sol\":5141:5210  require(address(authority.vault()) != address(treasury), \"No change\") */\n      tag_144\n        /* \"#utility.yul\":5398:5730   */\n      jump\n        /* \"LUSDAllocator/LUSDAllocator.sol\":5141:5210  require(address(authority.vault()) != address(treasury), \"No change\") */\n    tag_201:\n        /* \"LUSDAllocator/LUSDAllocator.sol\":5241:5250  authority */\n      0x01\n      0x00\n      swap1\n      sload\n      swap1\n      0x0100\n      exp\n      swap1\n      div\n      sub(shl(0xa0, 0x01), 0x01)\n      and\n      sub(shl(0xa0, 0x01), 0x01)\n        /* \"LUSDAllocator/LUSDAllocator.sol\":5241:5256  authority.vault */\n      and\n      0xfbfa77cf\n        /* \"LUSDAllocator/LUSDAllocator.sol\":5241:5258  authority.vault() */\n      mload(0x40)\n      dup2\n      0xffffffff\n      and\n      0xe0\n      shl\n      dup2\n      mstore\n      0x04\n      add\n      0x20\n      mload(0x40)\n      dup1\n      dup4\n      sub\n      dup2\n      dup7\n      gas\n      staticcall\n      iszero\n      dup1\n      iszero\n      tag_205\n      jumpi\n      returndatasize\n      0x00\n      dup1\n      returndatacopy\n      revert(0x00, returndatasize)\n    tag_205:\n      pop\n      pop\n      pop\n      pop\n      mload(0x40)\n      returndatasize\n      not(0x1f)\n      0x1f\n      dup3\n      add\n      and\n      dup3\n      add\n      dup1\n      0x40\n      mstore\n      pop\n      dup2\n      add\n      swap1\n      tag_206\n      swap2\n      swap1\n      tag_142\n      jump\t// in\n    tag_206:\n        /* \"LUSDAllocator/LUSDAllocator.sol\":5220:5228  treasury */\n      0x02\n        /* \"LUSDAllocator/LUSDAllocator.sol\":5220:5259  treasury = ITreasury(authority.vault()) */\n      dup1\n      sload\n      not(0xffffffffffffffffffffffffffffffffffffffff)\n      and\n      sub(shl(0xa0, 0x01), 0x01)\n      swap3\n      swap1\n      swap3\n      and\n      swap2\n      swap1\n      swap2\n      or\n      swap1\n      sstore\n        /* \"LUSDAllocator/LUSDAllocator.sol\":5012:5266  function updateTreasury() public onlyGuardian {... */\n      jump\t// out\n        /* \"LUSDAllocator/LUSDAllocator.sol\":9994:10180  function deposit(uint256 amount) external onlyGuardian {... */\n    tag_104:\n        /* \"LUSDAllocator/OlympusAccessControlled.sol\":787:796  authority */\n      0x01\n      0x00\n      swap1\n      sload\n      swap1\n      0x0100\n      exp\n      swap1\n      div\n      sub(shl(0xa0, 0x01), 0x01)\n      and\n      sub(shl(0xa0, 0x01), 0x01)\n        /* \"LUSDAllocator/OlympusAccessControlled.sol\":787:805  authority.guardian */\n      and\n      0x452a9320\n        /* \"LUSDAllocator/OlympusAccessControlled.sol\":787:807  authority.guardian() */\n      mload(0x40)\n      dup2\n      0xffffffff\n      and\n      0xe0\n      shl\n      dup2\n      mstore\n      0x04\n      add\n      0x20\n      mload(0x40)\n      dup1\n      dup4\n      sub\n      dup2\n      dup7\n      gas\n      staticcall\n      iszero\n      dup1\n      iszero\n      tag_209\n      jumpi\n      returndatasize\n      0x00\n      dup1\n      returndatacopy\n      revert(0x00, returndatasize)\n    tag_209:\n      pop\n      pop\n      pop\n      pop\n      mload(0x40)\n      returndatasize\n      not(0x1f)\n      0x1f\n      dup3\n      add\n      and\n      dup3\n      add\n      dup1\n      0x40\n      mstore\n      pop\n      dup2\n      add\n      swap1\n      tag_210\n      swap2\n      swap1\n      tag_142\n      jump\t// in\n    tag_210:\n      sub(shl(0xa0, 0x01), 0x01)\n        /* \"LUSDAllocator/OlympusAccessControlled.sol\":773:807  msg.sender == authority.guardian() */\n      and\n        /* \"LUSDAllocator/OlympusAccessControlled.sol\":773:783  msg.sender */\n      caller\n      sub(shl(0xa0, 0x01), 0x01)\n        /* \"LUSDAllocator/OlympusAccessControlled.sol\":773:807  msg.sender == authority.guardian() */\n      and\n      eq\n        /* \"LUSDAllocator/OlympusAccessControlled.sol\":809:821  UNAUTHORIZED */\n      0x00\n        /* \"LUSDAllocator/OlympusAccessControlled.sol\":765:822  require(msg.sender == authority.guardian(), UNAUTHORIZED) */\n      swap1\n      tag_211\n      jumpi\n      mload(0x40)\n      shl(0xe5, 0x461bcd)\n      dup2\n      mstore\n      0x04\n      add\n      tag_144\n      swap2\n      swap1\n      tag_145\n      jump\t// in\n    tag_211:\n      pop\n        /* \"LUSDAllocator/LUSDAllocator.sol\":10059:10067  treasury */\n      sload(0x02)\n        /* \"LUSDAllocator/LUSDAllocator.sol\":10075:10091  lusdTokenAddress */\n      sload(0x07)\n        /* \"LUSDAllocator/LUSDAllocator.sol\":10059:10100  treasury.manage(lusdTokenAddress, amount) */\n      mload(0x40)\n      0x0b0eee3000000000000000000000000000000000000000000000000000000000\n      dup2\n      mstore\n      sub(shl(0xa0, 0x01), 0x01)\n        /* \"LUSDAllocator/LUSDAllocator.sol\":10075:10091  lusdTokenAddress */\n      swap2\n      dup3\n      and\n        /* \"LUSDAllocator/LUSDAllocator.sol\":10059:10100  treasury.manage(lusdTokenAddress, amount) */\n      0x04\n      dup3\n      add\n        /* \"#utility.yul\":5909:5983   */\n      mstore\n        /* \"#utility.yul\":5999:6017   */\n      0x24\n      dup2\n      add\n        /* \"#utility.yul\":5992:6026   */\n      dup5\n      swap1\n      mstore\n        /* \"LUSDAllocator/LUSDAllocator.sol\":10059:10067  treasury */\n      swap2\n      and\n      swap1\n        /* \"LUSDAllocator/LUSDAllocator.sol\":10059:10074  treasury.manage */\n      0x0b0eee30\n      swap1\n        /* \"#utility.yul\":5882:5900   */\n      0x44\n      add\n        /* \"LUSDAllocator/LUSDAllocator.sol\":10059:10100  treasury.manage(lusdTokenAddress, amount) */\n      0x00\n      mload(0x40)\n      dup1\n      dup4\n      sub\n      dup2\n      0x00\n      dup8\n      dup1\n      extcodesize\n      iszero\n      dup1\n      iszero\n      tag_216\n      jumpi\n      0x00\n      dup1\n      revert\n    tag_216:\n      pop\n      gas\n      call\n      iszero\n      dup1\n      iszero\n      tag_218\n      jumpi\n      returndatasize\n      0x00\n      dup1\n      returndatacopy\n      revert(0x00, returndatasize)\n    tag_218:\n      pop\n      pop\n      pop\n      pop\n        /* \"LUSDAllocator/LUSDAllocator.sol\":10153:10173  _depositLUSD(amount) */\n      tag_219\n        /* \"LUSDAllocator/LUSDAllocator.sol\":10166:10172  amount */\n      dup2\n        /* \"LUSDAllocator/LUSDAllocator.sol\":10153:10165  _depositLUSD */\n      tag_220\n        /* \"LUSDAllocator/LUSDAllocator.sol\":10153:10173  _depositLUSD(amount) */\n      jump\t// in\n    tag_219:\n        /* \"LUSDAllocator/LUSDAllocator.sol\":9994:10180  function deposit(uint256 amount) external onlyGuardian {... */\n      pop\n      jump\t// out\n        /* \"LUSDAllocator/LUSDAllocator.sol\":4879:5006  function setFrontEndAddress(address _frontEndAddress) external onlyGuardian {... */\n    tag_108:\n        /* \"LUSDAllocator/OlympusAccessControlled.sol\":787:796  authority */\n      0x01\n      0x00\n      swap1\n      sload\n      swap1\n      0x0100\n      exp\n      swap1\n      div\n      sub(shl(0xa0, 0x01), 0x01)\n      and\n      sub(shl(0xa0, 0x01), 0x01)\n        /* \"LUSDAllocator/OlympusAccessControlled.sol\":787:805  authority.guardian */\n      and\n      0x452a9320\n        /* \"LUSDAllocator/OlympusAccessControlled.sol\":787:807  authority.guardian() */\n      mload(0x40)\n      dup2\n      0xffffffff\n      and\n      0xe0\n      shl\n      dup2\n      mstore\n      0x04\n      add\n      0x20\n      mload(0x40)\n      dup1\n      dup4\n      sub\n      dup2\n      dup7\n      gas\n      staticcall\n      iszero\n      dup1\n      iszero\n      tag_223\n      jumpi\n      returndatasize\n      0x00\n      dup1\n      returndatacopy\n      revert(0x00, returndatasize)\n    tag_223:\n      pop\n      pop\n      pop\n      pop\n      mload(0x40)\n      returndatasize\n      not(0x1f)\n      0x1f\n      dup3\n      add\n      and\n      dup3\n      add\n      dup1\n      0x40\n      mstore\n      pop\n      dup2\n      add\n      swap1\n      tag_224\n      swap2\n      swap1\n      tag_142\n      jump\t// in\n    tag_224:\n      sub(shl(0xa0, 0x01), 0x01)\n        /* \"LUSDAllocator/OlympusAccessControlled.sol\":773:807  msg.sender == authority.guardian() */\n      and\n        /* \"LUSDAllocator/OlympusAccessControlled.sol\":773:783  msg.sender */\n      caller\n      sub(shl(0xa0, 0x01), 0x01)\n        /* \"LUSDAllocator/OlympusAccessControlled.sol\":773:807  msg.sender == authority.guardian() */\n      and\n      eq\n        /* \"LUSDAllocator/OlympusAccessControlled.sol\":809:821  UNAUTHORIZED */\n      0x00\n        /* \"LUSDAllocator/OlympusAccessControlled.sol\":765:822  require(msg.sender == authority.guardian(), UNAUTHORIZED) */\n      swap1\n      tag_225\n      jumpi\n      mload(0x40)\n      shl(0xe5, 0x461bcd)\n      dup2\n      mstore\n      0x04\n      add\n      tag_144\n      swap2\n      swap1\n      tag_145\n      jump\t// in\n    tag_225:\n      pop\n        /* \"LUSDAllocator/LUSDAllocator.sol\":4965:4980  frontEndAddress */\n      0x06\n        /* \"LUSDAllocator/LUSDAllocator.sol\":4965:4999  frontEndAddress = _frontEndAddress */\n      dup1\n      sload\n      not(0xffffffffffffffffffffffffffffffffffffffff)\n      and\n      sub(shl(0xa0, 0x01), 0x01)\n      swap3\n      swap1\n      swap3\n      and\n      swap2\n      swap1\n      swap2\n      or\n      swap1\n      sstore\n        /* \"LUSDAllocator/LUSDAllocator.sol\":4879:5006  function setFrontEndAddress(address _frontEndAddress) external onlyGuardian {... */\n      jump\t// out\n        /* \"LUSDAllocator/LUSDAllocator.sol\":5910:9817  function harvest(uint256 minETHLUSDRate) public onlyGuardian returns (bool) {... */\n    tag_121:\n        /* \"LUSDAllocator/OlympusAccessControlled.sol\":787:796  authority */\n      sload(0x01)\n        /* \"LUSDAllocator/OlympusAccessControlled.sol\":787:807  authority.guardian() */\n      0x40\n      dup1\n      mload\n      0x452a932000000000000000000000000000000000000000000000000000000000\n      dup2\n      mstore\n      swap1\n      mload\n        /* \"LUSDAllocator/LUSDAllocator.sol\":5980:5984  bool */\n      0x00\n      swap3\n      sub(shl(0xa0, 0x01), 0x01)\n        /* \"LUSDAllocator/OlympusAccessControlled.sol\":787:796  authority */\n      and\n      swap2\n        /* \"LUSDAllocator/OlympusAccessControlled.sol\":787:805  authority.guardian */\n      0x452a9320\n      swap2\n        /* \"LUSDAllocator/OlympusAccessControlled.sol\":787:807  authority.guardian() */\n      0x04\n      dup1\n      dup4\n      add\n      swap3\n      0x20\n      swap3\n      swap2\n      swap1\n      dup3\n      swap1\n      sub\n      add\n      dup2\n        /* \"LUSDAllocator/OlympusAccessControlled.sol\":787:796  authority */\n      dup7\n        /* \"LUSDAllocator/OlympusAccessControlled.sol\":787:807  authority.guardian() */\n      gas\n      staticcall\n      iszero\n      dup1\n      iszero\n      tag_230\n      jumpi\n      returndatasize\n      0x00\n      dup1\n      returndatacopy\n      revert(0x00, returndatasize)\n    tag_230:\n      pop\n      pop\n      pop\n      pop\n      mload(0x40)\n      returndatasize\n      not(0x1f)\n      0x1f\n      dup3\n      add\n      and\n      dup3\n      add\n      dup1\n      0x40\n      mstore\n      pop\n      dup2\n      add\n      swap1\n      tag_231\n      swap2\n      swap1\n      tag_142\n      jump\t// in\n    tag_231:\n      sub(shl(0xa0, 0x01), 0x01)\n        /* \"LUSDAllocator/OlympusAccessControlled.sol\":773:807  msg.sender == authority.guardian() */\n      and\n        /* \"LUSDAllocator/OlympusAccessControlled.sol\":773:783  msg.sender */\n      caller\n      sub(shl(0xa0, 0x01), 0x01)\n        /* \"LUSDAllocator/OlympusAccessControlled.sol\":773:807  msg.sender == authority.guardian() */\n      and\n      eq\n        /* \"LUSDAllocator/OlympusAccessControlled.sol\":809:821  UNAUTHORIZED */\n      0x00\n        /* \"LUSDAllocator/OlympusAccessControlled.sol\":765:822  require(msg.sender == authority.guardian(), UNAUTHORIZED) */\n      swap1\n      tag_232\n      jumpi\n      mload(0x40)\n      shl(0xe5, 0x461bcd)\n      dup2\n      mstore\n      0x04\n      add\n      tag_144\n      swap2\n      swap1\n      tag_145\n      jump\t// in\n    tag_232:\n      pop\n        /* \"LUSDAllocator/LUSDAllocator.sol\":5996:6027  uint256 stabilityPoolEthRewards */\n      0x00\n        /* \"LUSDAllocator/LUSDAllocator.sol\":6030:6045  getETHRewards() */\n      tag_235\n        /* \"LUSDAllocator/LUSDAllocator.sol\":6030:6043  getETHRewards */\n      tag_75\n        /* \"LUSDAllocator/LUSDAllocator.sol\":6030:6045  getETHRewards() */\n      jump\t// in\n    tag_235:\n        /* \"LUSDAllocator/LUSDAllocator.sol\":5996:6045  uint256 stabilityPoolEthRewards = getETHRewards() */\n      swap1\n      pop\n        /* \"LUSDAllocator/LUSDAllocator.sol\":6055:6087  uint256 stabilityPoolLqtyRewards */\n      0x00\n        /* \"LUSDAllocator/LUSDAllocator.sol\":6090:6106  getLQTYRewards() */\n      tag_236\n        /* \"LUSDAllocator/LUSDAllocator.sol\":6090:6104  getLQTYRewards */\n      tag_79\n        /* \"LUSDAllocator/LUSDAllocator.sol\":6090:6106  getLQTYRewards() */\n      jump\t// in\n    tag_236:\n        /* \"LUSDAllocator/LUSDAllocator.sol\":6055:6106  uint256 stabilityPoolLqtyRewards = getLQTYRewards() */\n      swap1\n      pop\n        /* \"LUSDAllocator/LUSDAllocator.sol\":6121:6149  stabilityPoolEthRewards == 0 */\n      dup2\n      iszero\n        /* \"LUSDAllocator/LUSDAllocator.sol\":6121:6182  stabilityPoolEthRewards == 0 && stabilityPoolLqtyRewards == 0 */\n      dup1\n      iszero\n      tag_237\n      jumpi\n      pop\n        /* \"LUSDAllocator/LUSDAllocator.sol\":6153:6182  stabilityPoolLqtyRewards == 0 */\n      dup1\n      iszero\n        /* \"LUSDAllocator/LUSDAllocator.sol\":6121:6182  stabilityPoolEthRewards == 0 && stabilityPoolLqtyRewards == 0 */\n    tag_237:\n        /* \"LUSDAllocator/LUSDAllocator.sol\":6117:6221  if (stabilityPoolEthRewards == 0 && stabilityPoolLqtyRewards == 0) {... */\n      iszero\n      tag_238\n      jumpi\n      pop\n        /* \"LUSDAllocator/LUSDAllocator.sol\":6205:6210  false */\n      0x00\n      swap4\n        /* \"LUSDAllocator/LUSDAllocator.sol\":5910:9817  function harvest(uint256 minETHLUSDRate) public onlyGuardian returns (bool) {... */\n      swap3\n      pop\n      pop\n      pop\n      jump\t// out\n        /* \"LUSDAllocator/LUSDAllocator.sol\":6117:6221  if (stabilityPoolEthRewards == 0 && stabilityPoolLqtyRewards == 0) {... */\n    tag_238:\n        /* \"LUSDAllocator/LUSDAllocator.sol\":6301:6336  lusdStabilityPool.withdrawFromSP(0) */\n      mload(0x40)\n      shl(0xe0, 0x2e54bf95)\n      dup2\n      mstore\n        /* \"LUSDAllocator/LUSDAllocator.sol\":6334:6335  0 */\n      0x00\n        /* \"LUSDAllocator/LUSDAllocator.sol\":6301:6336  lusdStabilityPool.withdrawFromSP(0) */\n      0x04\n      dup3\n      add\n        /* \"#utility.yul\":160:185   */\n      mstore\n        /* \"LUSDAllocator/LUSDAllocator.sol\":6301:6318  lusdStabilityPool */\n      immutable(\"0x278a4539603a9bc8a72d7a368fe14ebf88ae5f0870def96c5eca03adb0b084ba\")\n      sub(shl(0xa0, 0x01), 0x01)\n        /* \"LUSDAllocator/LUSDAllocator.sol\":6301:6333  lusdStabilityPool.withdrawFromSP */\n      and\n      swap1\n      0x2e54bf95\n      swap1\n        /* \"#utility.yul\":133:151   */\n      0x24\n      add\n        /* \"LUSDAllocator/LUSDAllocator.sol\":6301:6336  lusdStabilityPool.withdrawFromSP(0) */\n      0x00\n      mload(0x40)\n      dup1\n      dup4\n      sub\n      dup2\n      0x00\n      dup8\n      dup1\n      extcodesize\n      iszero\n      dup1\n      iszero\n      tag_241\n      jumpi\n      0x00\n      dup1\n      revert\n    tag_241:\n      pop\n      gas\n      call\n      iszero\n      dup1\n      iszero\n      tag_243\n      jumpi\n      returndatasize\n      0x00\n      dup1\n      returndatacopy\n      revert(0x00, returndatasize)\n    tag_243:\n      pop\n      pop\n        /* \"LUSDAllocator/LUSDAllocator.sol\":6660:6676  lqtyTokenAddress */\n      sload(0x08)\n        /* \"LUSDAllocator/LUSDAllocator.sol\":6653:6702  IERC20(lqtyTokenAddress).balanceOf(address(this)) */\n      mload(0x40)\n      shl(0xe0, 0x70a08231)\n      dup2\n      mstore\n        /* \"LUSDAllocator/LUSDAllocator.sol\":6696:6700  this */\n      address\n        /* \"LUSDAllocator/LUSDAllocator.sol\":6653:6702  IERC20(lqtyTokenAddress).balanceOf(address(this)) */\n      0x04\n      dup3\n      add\n        /* \"#utility.yul\":342:416   */\n      mstore\n        /* \"LUSDAllocator/LUSDAllocator.sol\":6631:6650  uint256 balanceLqty */\n      0x00\n      swap4\n      pop\n      sub(shl(0xa0, 0x01), 0x01)\n        /* \"LUSDAllocator/LUSDAllocator.sol\":6660:6676  lqtyTokenAddress */\n      swap1\n      swap2\n      and\n      swap2\n      pop\n        /* \"LUSDAllocator/LUSDAllocator.sol\":6653:6687  IERC20(lqtyTokenAddress).balanceOf */\n      0x70a08231\n      swap1\n        /* \"#utility.yul\":315:333   */\n      0x24\n      add\n        /* \"LUSDAllocator/LUSDAllocator.sol\":6653:6702  IERC20(lqtyTokenAddress).balanceOf(address(this)) */\n      0x20\n      mload(0x40)\n      dup1\n      dup4\n      sub\n      dup2\n      dup7\n      gas\n      staticcall\n      iszero\n      dup1\n      iszero\n      tag_246\n      jumpi\n      returndatasize\n      0x00\n      dup1\n      returndatacopy\n      revert(0x00, returndatasize)\n    tag_246:\n      pop\n      pop\n      pop\n      pop\n      mload(0x40)\n      returndatasize\n      not(0x1f)\n      0x1f\n      dup3\n      add\n      and\n      dup3\n      add\n      dup1\n      0x40\n      mstore\n      pop\n      dup2\n      add\n      swap1\n      tag_247\n      swap2\n      swap1\n      tag_162\n      jump\t// in\n    tag_247:\n        /* \"LUSDAllocator/LUSDAllocator.sol\":6631:6702  uint256 balanceLqty = IERC20(lqtyTokenAddress).balanceOf(address(this)) */\n      swap1\n      pop\n        /* \"LUSDAllocator/LUSDAllocator.sol\":6761:6776  balanceLqty > 0 */\n      dup1\n      iszero\n        /* \"LUSDAllocator/LUSDAllocator.sol\":6757:6927  if (balanceLqty > 0) {... */\n      tag_248\n      jumpi\n        /* \"LUSDAllocator/LUSDAllocator.sol\":6812:6842  lqtyStaking.stake(balanceLqty) */\n      mload(0x40)\n      0xa694fc3a00000000000000000000000000000000000000000000000000000000\n      dup2\n      mstore\n      0x04\n      dup2\n      add\n        /* \"#utility.yul\":160:185   */\n      dup3\n      swap1\n      mstore\n        /* \"LUSDAllocator/LUSDAllocator.sol\":6812:6823  lqtyStaking */\n      immutable(\"0x318d239e897e06530e6f97c5e7b530ff8f3cace0452144cc2fd8308d4c3465eb\")\n      sub(shl(0xa0, 0x01), 0x01)\n        /* \"LUSDAllocator/LUSDAllocator.sol\":6812:6829  lqtyStaking.stake */\n      and\n      swap1\n      0xa694fc3a\n      swap1\n        /* \"#utility.yul\":133:151   */\n      0x24\n      add\n        /* \"LUSDAllocator/LUSDAllocator.sol\":6812:6842  lqtyStaking.stake(balanceLqty) */\n      0x00\n      mload(0x40)\n      dup1\n      dup4\n      sub\n      dup2\n      0x00\n      dup8\n      dup1\n      extcodesize\n      iszero\n      dup1\n      iszero\n      tag_250\n      jumpi\n      0x00\n      dup1\n      revert\n    tag_250:\n      pop\n      gas\n      call\n      iszero\n      dup1\n      iszero\n      tag_252\n      jumpi\n      returndatasize\n      0x00\n      dup1\n      returndatacopy\n      revert(0x00, returndatasize)\n    tag_252:\n      pop\n      pop\n      pop\n      pop\n        /* \"LUSDAllocator/LUSDAllocator.sol\":6757:6927  if (balanceLqty > 0) {... */\n    tag_248:\n        /* \"LUSDAllocator/LUSDAllocator.sol\":7104:7125  address(this).balance */\n      selfbalance\n        /* \"LUSDAllocator/LUSDAllocator.sol\":7083:7101  uint256 ethBalance */\n      0x00\n        /* \"LUSDAllocator/LUSDAllocator.sol\":7251:7265  ethBalance > 0 */\n      dup2\n      iszero\n        /* \"LUSDAllocator/LUSDAllocator.sol\":7247:8989  if (ethBalance > 0) {... */\n      tag_253\n      jumpi\n        /* \"LUSDAllocator/LUSDAllocator.sol\":7313:7317  weth */\n      immutable(\"0x06dc925f7e0472030ab837bf4003aff8a140fea172ce25164bd1dc54959e1c1f\")\n      sub(shl(0xa0, 0x01), 0x01)\n        /* \"LUSDAllocator/LUSDAllocator.sol\":7313:7325  weth.deposit */\n      and\n      0xd0e30db0\n        /* \"LUSDAllocator/LUSDAllocator.sol\":7333:7343  ethBalance */\n      dup4\n        /* \"LUSDAllocator/LUSDAllocator.sol\":7313:7346  weth.deposit{value: ethBalance}() */\n      mload(0x40)\n      dup3\n      0xffffffff\n      and\n      0xe0\n      shl\n      dup2\n      mstore\n      0x04\n      add\n      0x00\n      mload(0x40)\n      dup1\n      dup4\n      sub\n      dup2\n      dup6\n      dup9\n      dup1\n      extcodesize\n      iszero\n      dup1\n      iszero\n      tag_254\n      jumpi\n      0x00\n      dup1\n      revert\n    tag_254:\n      pop\n      gas\n      call\n      iszero\n      dup1\n      iszero\n      tag_256\n      jumpi\n      returndatasize\n      0x00\n      dup1\n      returndatacopy\n      revert(0x00, returndatasize)\n    tag_256:\n      pop\n      pop\n        /* \"LUSDAllocator/LUSDAllocator.sol\":7383:7412  weth.balanceOf(address(this)) */\n      mload(0x40)\n      shl(0xe0, 0x70a08231)\n      dup2\n      mstore\n        /* \"LUSDAllocator/LUSDAllocator.sol\":7406:7410  this */\n      address\n        /* \"LUSDAllocator/LUSDAllocator.sol\":7383:7412  weth.balanceOf(address(this)) */\n      0x04\n      dup3\n      add\n        /* \"#utility.yul\":342:416   */\n      mstore\n        /* \"LUSDAllocator/LUSDAllocator.sol\":7361:7380  uint256 wethBalance */\n      0x00\n      swap4\n      pop\n        /* \"LUSDAllocator/LUSDAllocator.sol\":7383:7387  weth */\n      immutable(\"0x06dc925f7e0472030ab837bf4003aff8a140fea172ce25164bd1dc54959e1c1f\")\n      sub(shl(0xa0, 0x01), 0x01)\n        /* \"LUSDAllocator/LUSDAllocator.sol\":7383:7397  weth.balanceOf */\n      and\n      swap3\n      pop\n      0x70a08231\n      swap2\n      pop\n        /* \"#utility.yul\":315:333   */\n      0x24\n      add\n        /* \"LUSDAllocator/LUSDAllocator.sol\":7383:7412  weth.balanceOf(address(this)) */\n      0x20\n      mload(0x40)\n      dup1\n      dup4\n      sub\n      dup2\n      dup7\n      gas\n      staticcall\n      iszero\n      dup1\n      iszero\n      tag_259\n      jumpi\n      returndatasize\n      0x00\n      dup1\n      returndatacopy\n      revert(0x00, returndatasize)\n    tag_259:\n      pop\n      pop\n      pop\n      pop\n      mload(0x40)\n      returndatasize\n      not(0x1f)\n      0x1f\n      dup3\n      add\n      and\n      dup3\n      add\n      dup1\n      0x40\n      mstore\n      pop\n      dup2\n      add\n      swap1\n      tag_260\n      swap2\n      swap1\n      tag_162\n      jump\t// in\n    tag_260:\n        /* \"LUSDAllocator/LUSDAllocator.sol\":7510:7524  ethToLUSDRatio */\n      sload(0x03)\n        /* \"LUSDAllocator/LUSDAllocator.sol\":7361:7412  uint256 wethBalance = weth.balanceOf(address(this)) */\n      swap1\n      swap2\n      pop\n        /* \"LUSDAllocator/LUSDAllocator.sol\":7510:7528  ethToLUSDRatio > 0 */\n      iszero\n        /* \"LUSDAllocator/LUSDAllocator.sol\":7506:8979  if (ethToLUSDRatio > 0) {... */\n      tag_261\n      jumpi\n        /* \"LUSDAllocator/LUSDAllocator.sol\":7548:7572  uint256 amountWethToSwap */\n      0x00\n        /* \"LUSDAllocator/LUSDAllocator.sol\":1062:1065  1e6 */\n      0x0f4240\n        /* \"LUSDAllocator/LUSDAllocator.sol\":7590:7604  ethToLUSDRatio */\n      sload(0x03)\n        /* \"LUSDAllocator/LUSDAllocator.sol\":7576:7587  wethBalance */\n      dup4\n        /* \"LUSDAllocator/LUSDAllocator.sol\":7576:7604  wethBalance * ethToLUSDRatio */\n      tag_262\n      swap2\n      swap1\n      tag_263\n      jump\t// in\n    tag_262:\n        /* \"LUSDAllocator/LUSDAllocator.sol\":7575:7621  (wethBalance * ethToLUSDRatio) / FEE_PRECISION */\n      tag_264\n      swap2\n      swap1\n      tag_265\n      jump\t// in\n    tag_264:\n        /* \"LUSDAllocator/LUSDAllocator.sol\":7548:7621  uint256 amountWethToSwap = (wethBalance * ethToLUSDRatio) / FEE_PRECISION */\n      swap1\n      pop\n        /* \"LUSDAllocator/LUSDAllocator.sol\":7640:7661  uint256 amountLUSDMin */\n      0x00\n        /* \"LUSDAllocator/LUSDAllocator.sol\":7664:7697  amountWethToSwap * minETHLUSDRate */\n      tag_266\n        /* \"LUSDAllocator/LUSDAllocator.sol\":7683:7697  minETHLUSDRate */\n      dup11\n        /* \"LUSDAllocator/LUSDAllocator.sol\":7548:7621  uint256 amountWethToSwap = (wethBalance * ethToLUSDRatio) / FEE_PRECISION */\n      dup4\n        /* \"LUSDAllocator/LUSDAllocator.sol\":7664:7697  amountWethToSwap * minETHLUSDRate */\n      tag_263\n      jump\t// in\n    tag_266:\n        /* \"LUSDAllocator/LUSDAllocator.sol\":8373:8799  ISwapRouter.ExactInputParams({... */\n      0x40\n      dup1\n      mload\n      0xa0\n      dup2\n      add\n      dup3\n      mstore\n        /* \"LUSDAllocator/LUSDAllocator.sol\":8462:8469  poolFee */\n      sload(0x04)\n        /* \"LUSDAllocator/LUSDAllocator.sol\":8471:8486  hopTokenAddress */\n      sload(0x05)\n        /* \"LUSDAllocator/LUSDAllocator.sol\":8497:8513  lusdTokenAddress */\n      sload(0x07)\n      not(0xffffffffffffffffffffffff)\n        /* \"LUSDAllocator/LUSDAllocator.sol\":8455:8459  weth */\n      immutable(\"0x06dc925f7e0472030ab837bf4003aff8a140fea172ce25164bd1dc54959e1c1f\")\n        /* \"#utility.yul\":7179:7181   */\n      0x60\n        /* \"#utility.yul\":7175:7190   */\n      swap1\n      dup2\n      shl\n        /* \"#utility.yul\":7171:7195   */\n      dup3\n      and\n        /* \"LUSDAllocator/LUSDAllocator.sol\":8430:8514  abi.encodePacked(address(weth), poolFee, hopTokenAddress, poolFee, lusdTokenAddress) */\n      0xc0\n      dup8\n      add\n        /* \"#utility.yul\":7159:7196   */\n      mstore\n        /* \"#utility.yul\":7212:7224   */\n      0xd4\n      dup7\n      add\n        /* \"#utility.yul\":7205:7233   */\n      dup6\n      swap1\n      mstore\n        /* \"#utility.yul\":7267:7282   */\n      swap3\n      dup4\n      shl\n      dup2\n      and\n        /* \"#utility.yul\":7249:7261   */\n      0xf4\n      dup7\n      add\n        /* \"#utility.yul\":7242:7288   */\n      mstore\n        /* \"#utility.yul\":7304:7316   */\n      0x0108\n      dup6\n      add\n        /* \"#utility.yul\":7297:7325   */\n      swap4\n      swap1\n      swap4\n      mstore\n        /* \"#utility.yul\":7360:7375   */\n      swap1\n      shl\n      and\n        /* \"#utility.yul\":7341:7354   */\n      0x0128\n      dup3\n      add\n        /* \"#utility.yul\":7334:7381   */\n      mstore\n        /* \"LUSDAllocator/LUSDAllocator.sol\":8430:8514  abi.encodePacked(address(weth), poolFee, hopTokenAddress, poolFee, lusdTokenAddress) */\n      dup2\n      mload\n      dup1\n      dup3\n      sub\n      0x011c\n      add\n      dup2\n      mstore\n        /* \"#utility.yul\":7397:7410   */\n      0x013c\n      dup3\n      add\n        /* \"LUSDAllocator/LUSDAllocator.sol\":8430:8514  abi.encodePacked(address(weth), poolFee, hopTokenAddress, poolFee, lusdTokenAddress) */\n      dup4\n      mstore\n        /* \"LUSDAllocator/LUSDAllocator.sol\":8373:8799  ISwapRouter.ExactInputParams({... */\n      dup2\n      mstore\n        /* \"LUSDAllocator/LUSDAllocator.sol\":8555:8559  this */\n      address\n        /* \"LUSDAllocator/LUSDAllocator.sol\":8430:8514  abi.encodePacked(address(weth), poolFee, hopTokenAddress, poolFee, lusdTokenAddress) */\n      0x20\n        /* \"LUSDAllocator/LUSDAllocator.sol\":8373:8799  ISwapRouter.ExactInputParams({... */\n      dup3\n      add\n      mstore\n        /* \"LUSDAllocator/LUSDAllocator.sol\":7640:7697  uint256 amountLUSDMin = amountWethToSwap * minETHLUSDRate */\n      swap2\n      swap3\n      pop\n      0x00\n      swap2\n        /* \"LUSDAllocator/LUSDAllocator.sol\":8373:8799  ISwapRouter.ExactInputParams({... */\n      swap1\n      dup2\n      add\n        /* \"LUSDAllocator/LUSDAllocator.sol\":8609:8629  block.timestamp + 25 */\n      tag_269\n        /* \"LUSDAllocator/LUSDAllocator.sol\":8609:8624  block.timestamp */\n      timestamp\n        /* \"LUSDAllocator/LUSDAllocator.sol\":8627:8629  25 */\n      0x19\n        /* \"LUSDAllocator/LUSDAllocator.sol\":8609:8629  block.timestamp + 25 */\n      tag_270\n      jump\t// in\n    tag_269:\n        /* \"LUSDAllocator/LUSDAllocator.sol\":8373:8799  ISwapRouter.ExactInputParams({... */\n      dup2\n      mstore\n      0x20\n      add\n        /* \"LUSDAllocator/LUSDAllocator.sol\":8711:8727  amountWethToSwap */\n      dup5\n        /* \"LUSDAllocator/LUSDAllocator.sol\":8373:8799  ISwapRouter.ExactInputParams({... */\n      dup2\n      mstore\n      0x20\n      add\n        /* \"LUSDAllocator/LUSDAllocator.sol\":8767:8780  amountLUSDMin */\n      dup4\n        /* \"LUSDAllocator/LUSDAllocator.sol\":8373:8799  ISwapRouter.ExactInputParams({... */\n      dup2\n      mstore\n      pop\n        /* \"LUSDAllocator/LUSDAllocator.sol\":8328:8799  ISwapRouter.ExactInputParams memory params = ISwapRouter.ExactInputParams({... */\n      swap1\n      pop\n        /* \"LUSDAllocator/LUSDAllocator.sol\":8891:8892  0 */\n      0x00\n        /* \"LUSDAllocator/LUSDAllocator.sol\":8859:8869  swapRouter */\n      immutable(\"0x7544cb630261d9d070979689fb82f5401ae3cac6ec1ed588bfd9c696b9df0c3a\")\n      sub(shl(0xa0, 0x01), 0x01)\n        /* \"LUSDAllocator/LUSDAllocator.sol\":8859:8880  swapRouter.exactInput */\n      and\n      0xc04b8d59\n        /* \"LUSDAllocator/LUSDAllocator.sol\":8881:8887  params */\n      dup4\n        /* \"LUSDAllocator/LUSDAllocator.sol\":8859:8888  swapRouter.exactInput(params) */\n      mload(0x40)\n      dup3\n      0xffffffff\n      and\n      0xe0\n      shl\n      dup2\n      mstore\n      0x04\n      add\n      tag_271\n      swap2\n      swap1\n      tag_272\n      jump\t// in\n    tag_271:\n      0x20\n      mload(0x40)\n      dup1\n      dup4\n      sub\n      dup2\n      0x00\n      dup8\n      gas\n      call\n      iszero\n      dup1\n      iszero\n      tag_274\n      jumpi\n      returndatasize\n      0x00\n      dup1\n      returndatacopy\n      revert(0x00, returndatasize)\n    tag_274:\n      pop\n      pop\n      pop\n      pop\n      mload(0x40)\n      returndatasize\n      not(0x1f)\n      0x1f\n      dup3\n      add\n      and\n      dup3\n      add\n      dup1\n      0x40\n      mstore\n      pop\n      dup2\n      add\n      swap1\n      tag_275\n      swap2\n      swap1\n      tag_162\n      jump\t// in\n    tag_275:\n        /* \"LUSDAllocator/LUSDAllocator.sol\":8859:8892  swapRouter.exactInput(params) > 0 */\n      gt\n        /* \"LUSDAllocator/LUSDAllocator.sol\":8855:8965  if (swapRouter.exactInput(params) > 0) {... */\n      iszero\n      tag_276\n      jumpi\n        /* \"LUSDAllocator/LUSDAllocator.sol\":8942:8946  true */\n      0x01\n        /* \"LUSDAllocator/LUSDAllocator.sol\":8916:8946  swappedLUSDSuccessfully = true */\n      swap5\n      pop\n        /* \"LUSDAllocator/LUSDAllocator.sol\":8855:8965  if (swapRouter.exactInput(params) > 0) {... */\n    tag_276:\n        /* \"LUSDAllocator/LUSDAllocator.sol\":7530:8979  {... */\n      pop\n      pop\n      pop\n        /* \"LUSDAllocator/LUSDAllocator.sol\":7506:8979  if (ethToLUSDRatio > 0) {... */\n    tag_261:\n        /* \"LUSDAllocator/LUSDAllocator.sol\":7267:8989  {... */\n      pop\n        /* \"LUSDAllocator/LUSDAllocator.sol\":7247:8989  if (ethBalance > 0) {... */\n    tag_253:\n        /* \"LUSDAllocator/LUSDAllocator.sol\":9002:9016  ethToLUSDRatio */\n      sload(0x03)\n        /* \"LUSDAllocator/LUSDAllocator.sol\":9002:9021  ethToLUSDRatio == 0 */\n      iszero\n      dup1\n        /* \"LUSDAllocator/LUSDAllocator.sol\":9002:9048  ethToLUSDRatio == 0 || swappedLUSDSuccessfully */\n      tag_277\n      jumpi\n      pop\n        /* \"LUSDAllocator/LUSDAllocator.sol\":9025:9048  swappedLUSDSuccessfully */\n      dup1\n        /* \"LUSDAllocator/LUSDAllocator.sol\":9002:9048  ethToLUSDRatio == 0 || swappedLUSDSuccessfully */\n    tag_277:\n        /* \"LUSDAllocator/LUSDAllocator.sol\":8998:9553  if (ethToLUSDRatio == 0 || swappedLUSDSuccessfully) {... */\n      iszero\n      tag_278\n      jumpi\n        /* \"LUSDAllocator/LUSDAllocator.sol\":9352:9381  weth.balanceOf(address(this)) */\n      mload(0x40)\n      shl(0xe0, 0x70a08231)\n      dup2\n      mstore\n        /* \"LUSDAllocator/LUSDAllocator.sol\":9375:9379  this */\n      address\n        /* \"LUSDAllocator/LUSDAllocator.sol\":9352:9381  weth.balanceOf(address(this)) */\n      0x04\n      dup3\n      add\n        /* \"#utility.yul\":342:416   */\n      mstore\n        /* \"LUSDAllocator/LUSDAllocator.sol\":9330:9349  uint256 wethBalance */\n      0x00\n      swap1\n        /* \"LUSDAllocator/LUSDAllocator.sol\":9352:9356  weth */\n      immutable(\"0x06dc925f7e0472030ab837bf4003aff8a140fea172ce25164bd1dc54959e1c1f\")\n      sub(shl(0xa0, 0x01), 0x01)\n        /* \"LUSDAllocator/LUSDAllocator.sol\":9352:9366  weth.balanceOf */\n      and\n      swap1\n      0x70a08231\n      swap1\n        /* \"#utility.yul\":315:333   */\n      0x24\n      add\n        /* \"LUSDAllocator/LUSDAllocator.sol\":9352:9381  weth.balanceOf(address(this)) */\n      0x20\n      mload(0x40)\n      dup1\n      dup4\n      sub\n      dup2\n      dup7\n      gas\n      staticcall\n      iszero\n      dup1\n      iszero\n      tag_281\n      jumpi\n      returndatasize\n      0x00\n      dup1\n      returndatacopy\n      revert(0x00, returndatasize)\n    tag_281:\n      pop\n      pop\n      pop\n      pop\n      mload(0x40)\n      returndatasize\n      not(0x1f)\n      0x1f\n      dup3\n      add\n      and\n      dup3\n      add\n      dup1\n      0x40\n      mstore\n      pop\n      dup2\n      add\n      swap1\n      tag_282\n      swap2\n      swap1\n      tag_162\n      jump\t// in\n    tag_282:\n        /* \"LUSDAllocator/LUSDAllocator.sol\":9330:9381  uint256 wethBalance = weth.balanceOf(address(this)) */\n      swap1\n      pop\n        /* \"LUSDAllocator/LUSDAllocator.sol\":9399:9414  wethBalance > 0 */\n      dup1\n      iszero\n        /* \"LUSDAllocator/LUSDAllocator.sol\":9395:9543  if (wethBalance > 0) {... */\n      tag_284\n      jumpi\n        /* \"LUSDAllocator/LUSDAllocator.sol\":9505:9513  treasury */\n      sload(0x02)\n        /* \"LUSDAllocator/LUSDAllocator.sol\":9479:9528  weth.safeTransfer(address(treasury), wethBalance) */\n      tag_284\n      swap1\n      sub(shl(0xa0, 0x01), 0x01)\n        /* \"LUSDAllocator/LUSDAllocator.sol\":9479:9483  weth */\n      immutable(\"0x06dc925f7e0472030ab837bf4003aff8a140fea172ce25164bd1dc54959e1c1f\")\n        /* \"LUSDAllocator/LUSDAllocator.sol\":9479:9496  weth.safeTransfer */\n      dup2\n      and\n      swap2\n        /* \"LUSDAllocator/LUSDAllocator.sol\":9505:9513  treasury */\n      and\n        /* \"LUSDAllocator/LUSDAllocator.sol\":9516:9527  wethBalance */\n      dup4\n        /* \"LUSDAllocator/LUSDAllocator.sol\":9479:9496  weth.safeTransfer */\n      tag_285\n        /* \"LUSDAllocator/LUSDAllocator.sol\":9479:9528  weth.safeTransfer(address(treasury), wethBalance) */\n      jump\t// in\n    tag_284:\n        /* \"LUSDAllocator/LUSDAllocator.sol\":9050:9553  {... */\n      pop\n        /* \"LUSDAllocator/LUSDAllocator.sol\":8998:9553  if (ethToLUSDRatio == 0 || swappedLUSDSuccessfully) {... */\n    tag_278:\n        /* \"LUSDAllocator/LUSDAllocator.sol\":9666:9682  lusdTokenAddress */\n      sload(0x07)\n        /* \"LUSDAllocator/LUSDAllocator.sol\":9659:9708  IERC20(lusdTokenAddress).balanceOf(address(this)) */\n      mload(0x40)\n      shl(0xe0, 0x70a08231)\n      dup2\n      mstore\n        /* \"LUSDAllocator/LUSDAllocator.sol\":9702:9706  this */\n      address\n        /* \"LUSDAllocator/LUSDAllocator.sol\":9659:9708  IERC20(lusdTokenAddress).balanceOf(address(this)) */\n      0x04\n      dup3\n      add\n        /* \"#utility.yul\":342:416   */\n      mstore\n        /* \"LUSDAllocator/LUSDAllocator.sol\":9637:9656  uint256 lusdBalance */\n      0x00\n      swap2\n      sub(shl(0xa0, 0x01), 0x01)\n        /* \"LUSDAllocator/LUSDAllocator.sol\":9666:9682  lusdTokenAddress */\n      and\n      swap1\n        /* \"LUSDAllocator/LUSDAllocator.sol\":9659:9693  IERC20(lusdTokenAddress).balanceOf */\n      0x70a08231\n      swap1\n        /* \"#utility.yul\":315:333   */\n      0x24\n      add\n        /* \"LUSDAllocator/LUSDAllocator.sol\":9659:9708  IERC20(lusdTokenAddress).balanceOf(address(this)) */\n      0x20\n      mload(0x40)\n      dup1\n      dup4\n      sub\n      dup2\n      dup7\n      gas\n      staticcall\n      iszero\n      dup1\n      iszero\n      tag_288\n      jumpi\n      returndatasize\n      0x00\n      dup1\n      returndatacopy\n      revert(0x00, returndatasize)\n    tag_288:\n      pop\n      pop\n      pop\n      pop\n      mload(0x40)\n      returndatasize\n      not(0x1f)\n      0x1f\n      dup3\n      add\n      and\n      dup3\n      add\n      dup1\n      0x40\n      mstore\n      pop\n      dup2\n      add\n      swap1\n      tag_289\n      swap2\n      swap1\n      tag_162\n      jump\t// in\n    tag_289:\n        /* \"LUSDAllocator/LUSDAllocator.sol\":9637:9708  uint256 lusdBalance = IERC20(lusdTokenAddress).balanceOf(address(this)) */\n      swap1\n      pop\n        /* \"LUSDAllocator/LUSDAllocator.sol\":9722:9737  lusdBalance > 0 */\n      dup1\n      iszero\n        /* \"LUSDAllocator/LUSDAllocator.sol\":9718:9789  if (lusdBalance > 0) {... */\n      tag_291\n      jumpi\n        /* \"LUSDAllocator/LUSDAllocator.sol\":9753:9778  _depositLUSD(lusdBalance) */\n      tag_291\n        /* \"LUSDAllocator/LUSDAllocator.sol\":9766:9777  lusdBalance */\n      dup2\n        /* \"LUSDAllocator/LUSDAllocator.sol\":9753:9765  _depositLUSD */\n      tag_220\n        /* \"LUSDAllocator/LUSDAllocator.sol\":9753:9778  _depositLUSD(lusdBalance) */\n      jump\t// in\n    tag_291:\n      pop\n        /* \"LUSDAllocator/LUSDAllocator.sol\":9806:9810  true */\n      0x01\n      swap8\n        /* \"LUSDAllocator/LUSDAllocator.sol\":5910:9817  function harvest(uint256 minETHLUSDRate) public onlyGuardian returns (bool) {... */\n      swap7\n      pop\n      pop\n      pop\n      pop\n      pop\n      pop\n      pop\n      jump\t// out\n        /* \"LUSDAllocator/LUSDAllocator.sol\":10338:11336  function withdraw(address token, uint256 amount) external onlyGuardian {... */\n    tag_136:\n        /* \"LUSDAllocator/OlympusAccessControlled.sol\":787:796  authority */\n      0x01\n      0x00\n      swap1\n      sload\n      swap1\n      0x0100\n      exp\n      swap1\n      div\n      sub(shl(0xa0, 0x01), 0x01)\n      and\n      sub(shl(0xa0, 0x01), 0x01)\n        /* \"LUSDAllocator/OlympusAccessControlled.sol\":787:805  authority.guardian */\n      and\n      0x452a9320\n        /* \"LUSDAllocator/OlympusAccessControlled.sol\":787:807  authority.guardian() */\n      mload(0x40)\n      dup2\n      0xffffffff\n      and\n      0xe0\n      shl\n      dup2\n      mstore\n      0x04\n      add\n      0x20\n      mload(0x40)\n      dup1\n      dup4\n      sub\n      dup2\n      dup7\n      gas\n      staticcall\n      iszero\n      dup1\n      iszero\n      tag_294\n      jumpi\n      returndatasize\n      0x00\n      dup1\n      returndatacopy\n      revert(0x00, returndatasize)\n    tag_294:\n      pop\n      pop\n      pop\n      pop\n      mload(0x40)\n      returndatasize\n      not(0x1f)\n      0x1f\n      dup3\n      add\n      and\n      dup3\n      add\n      dup1\n      0x40\n      mstore\n      pop\n      dup2\n      add\n      swap1\n      tag_295\n      swap2\n      swap1\n      tag_142\n      jump\t// in\n    tag_295:\n      sub(shl(0xa0, 0x01), 0x01)\n        /* \"LUSDAllocator/OlympusAccessControlled.sol\":773:807  msg.sender == authority.guardian() */\n      and\n        /* \"LUSDAllocator/OlympusAccessControlled.sol\":773:783  msg.sender */\n      caller\n      sub(shl(0xa0, 0x01), 0x01)\n        /* \"LUSDAllocator/OlympusAccessControlled.sol\":773:807  msg.sender == authority.guardian() */\n      and\n      eq\n        /* \"LUSDAllocator/OlympusAccessControlled.sol\":809:821  UNAUTHORIZED */\n      0x00\n        /* \"LUSDAllocator/OlympusAccessControlled.sol\":765:822  require(msg.sender == authority.guardian(), UNAUTHORIZED) */\n      swap1\n      tag_296\n      jumpi\n      mload(0x40)\n      shl(0xe5, 0x461bcd)\n      dup2\n      mstore\n      0x04\n      add\n      tag_144\n      swap2\n      swap1\n      tag_145\n      jump\t// in\n    tag_296:\n      pop\n        /* \"LUSDAllocator/LUSDAllocator.sol\":10449:10465  lusdTokenAddress */\n      sload(0x07)\n      sub(shl(0xa0, 0x01), 0x01)\n        /* \"LUSDAllocator/LUSDAllocator.sol\":10440:10465  token == lusdTokenAddress */\n      dup4\n      dup2\n      and\n        /* \"LUSDAllocator/LUSDAllocator.sol\":10449:10465  lusdTokenAddress */\n      swap2\n      and\n        /* \"LUSDAllocator/LUSDAllocator.sol\":10440:10465  token == lusdTokenAddress */\n      eq\n      dup1\n        /* \"LUSDAllocator/LUSDAllocator.sol\":10440:10494  token == lusdTokenAddress || token == lqtyTokenAddress */\n      tag_299\n      jumpi\n      pop\n        /* \"LUSDAllocator/LUSDAllocator.sol\":10478:10494  lqtyTokenAddress */\n      sload(0x08)\n      sub(shl(0xa0, 0x01), 0x01)\n        /* \"LUSDAllocator/LUSDAllocator.sol\":10469:10494  token == lqtyTokenAddress */\n      dup4\n      dup2\n      and\n        /* \"LUSDAllocator/LUSDAllocator.sol\":10478:10494  lqtyTokenAddress */\n      swap2\n      and\n        /* \"LUSDAllocator/LUSDAllocator.sol\":10469:10494  token == lqtyTokenAddress */\n      eq\n        /* \"LUSDAllocator/LUSDAllocator.sol\":10440:10494  token == lusdTokenAddress || token == lqtyTokenAddress */\n    tag_299:\n        /* \"LUSDAllocator/LUSDAllocator.sol\":10419:10568  require(... */\n      tag_300\n      jumpi\n      mload(0x40)\n      shl(0xe5, 0x461bcd)\n      dup2\n      mstore\n        /* \"#utility.yul\":8840:8842   */\n      0x20\n        /* \"LUSDAllocator/LUSDAllocator.sol\":10419:10568  require(... */\n      0x04\n      dup3\n      add\n        /* \"#utility.yul\":8822:8843   */\n      mstore\n        /* \"#utility.yul\":8879:8881   */\n      0x30\n        /* \"#utility.yul\":8859:8877   */\n      0x24\n      dup3\n      add\n        /* \"#utility.yul\":8852:8882   */\n      mstore\n        /* \"#utility.yul\":8918:8952   */\n      0x746f6b656e206164647265737320646f6573206e6f74206d61746368204c5553\n        /* \"#utility.yul\":8898:8916   */\n      0x44\n      dup3\n      add\n        /* \"#utility.yul\":8891:8953   */\n      mstore\n        /* \"#utility.yul\":8989:9007   */\n      0x44206e6f72204c51545920746f6b656e00000000000000000000000000000000\n        /* \"#utility.yul\":8969:8987   */\n      0x64\n      dup3\n      add\n        /* \"#utility.yul\":8962:9008   */\n      mstore\n        /* \"#utility.yul\":9025:9044   */\n      0x84\n      add\n        /* \"LUSDAllocator/LUSDAllocator.sol\":10419:10568  require(... */\n      tag_144\n        /* \"#utility.yul\":8638:9050   */\n      jump\n        /* \"LUSDAllocator/LUSDAllocator.sol\":10419:10568  require(... */\n    tag_300:\n        /* \"LUSDAllocator/LUSDAllocator.sol\":10592:10608  lusdTokenAddress */\n      sload(0x07)\n      sub(shl(0xa0, 0x01), 0x01)\n      swap1\n      dup2\n      and\n        /* \"LUSDAllocator/LUSDAllocator.sol\":10583:10608  token == lusdTokenAddress */\n      swap1\n      dup4\n      and\n      sub\n        /* \"LUSDAllocator/LUSDAllocator.sol\":10579:11330  if (token == lusdTokenAddress) {... */\n      tag_303\n      jumpi\n        /* \"LUSDAllocator/LUSDAllocator.sol\":10624:10664  lusdStabilityPool.withdrawFromSP(amount) */\n      mload(0x40)\n      shl(0xe0, 0x2e54bf95)\n      dup2\n      mstore\n      0x04\n      dup2\n      add\n        /* \"#utility.yul\":160:185   */\n      dup3\n      swap1\n      mstore\n        /* \"LUSDAllocator/LUSDAllocator.sol\":10624:10641  lusdStabilityPool */\n      immutable(\"0x278a4539603a9bc8a72d7a368fe14ebf88ae5f0870def96c5eca03adb0b084ba\")\n      sub(shl(0xa0, 0x01), 0x01)\n        /* \"LUSDAllocator/LUSDAllocator.sol\":10624:10656  lusdStabilityPool.withdrawFromSP */\n      and\n      swap1\n      0x2e54bf95\n      swap1\n        /* \"#utility.yul\":133:151   */\n      0x24\n      add\n        /* \"LUSDAllocator/LUSDAllocator.sol\":10624:10664  lusdStabilityPool.withdrawFromSP(amount) */\n      0x00\n      mload(0x40)\n      dup1\n      dup4\n      sub\n      dup2\n      0x00\n      dup8\n      dup1\n      extcodesize\n      iszero\n      dup1\n      iszero\n      tag_305\n      jumpi\n      0x00\n      dup1\n      revert\n    tag_305:\n      pop\n      gas\n      call\n      iszero\n      dup1\n      iszero\n      tag_307\n      jumpi\n      returndatasize\n      0x00\n      dup1\n      returndatacopy\n      revert(0x00, returndatasize)\n    tag_307:\n      pop\n      pop\n        /* \"LUSDAllocator/LUSDAllocator.sol\":10717:10755  IERC20(token).balanceOf(address(this)) */\n      mload(0x40)\n      shl(0xe0, 0x70a08231)\n      dup2\n      mstore\n        /* \"LUSDAllocator/LUSDAllocator.sol\":10749:10753  this */\n      address\n        /* \"LUSDAllocator/LUSDAllocator.sol\":10717:10755  IERC20(token).balanceOf(address(this)) */\n      0x04\n      dup3\n      add\n        /* \"#utility.yul\":342:416   */\n      mstore\n        /* \"LUSDAllocator/LUSDAllocator.sol\":10699:10714  uint256 balance */\n      0x00\n      swap3\n      pop\n      sub(shl(0xa0, 0x01), 0x01)\n        /* \"LUSDAllocator/LUSDAllocator.sol\":10717:10740  IERC20(token).balanceOf */\n      dup6\n      and\n      swap2\n      pop\n      0x70a08231\n      swap1\n        /* \"#utility.yul\":315:333   */\n      0x24\n      add\n        /* \"LUSDAllocator/LUSDAllocator.sol\":10717:10755  IERC20(token).balanceOf(address(this)) */\n      0x20\n      mload(0x40)\n      dup1\n      dup4\n      sub\n      dup2\n      dup7\n      gas\n      staticcall\n      iszero\n      dup1\n      iszero\n      tag_310\n      jumpi\n      returndatasize\n      0x00\n      dup1\n      returndatacopy\n      revert(0x00, returndatasize)\n    tag_310:\n      pop\n      pop\n      pop\n      pop\n      mload(0x40)\n      returndatasize\n      not(0x1f)\n      0x1f\n      dup3\n      add\n      and\n      dup3\n      add\n      dup1\n      0x40\n      mstore\n      pop\n      dup2\n      add\n      swap1\n      tag_311\n      swap2\n      swap1\n      tag_162\n      jump\t// in\n    tag_311:\n        /* \"LUSDAllocator/LUSDAllocator.sol\":10699:10755  uint256 balance = IERC20(token).balanceOf(address(this)) */\n      swap1\n      pop\n        /* \"LUSDAllocator/LUSDAllocator.sol\":10818:10831  uint256 value */\n      0x00\n        /* \"LUSDAllocator/LUSDAllocator.sol\":10834:10861  _tokenValue(token, balance) */\n      tag_312\n        /* \"LUSDAllocator/LUSDAllocator.sol\":10846:10851  token */\n      dup5\n        /* \"LUSDAllocator/LUSDAllocator.sol\":10853:10860  balance */\n      dup4\n        /* \"LUSDAllocator/LUSDAllocator.sol\":10834:10845  _tokenValue */\n      tag_313\n        /* \"LUSDAllocator/LUSDAllocator.sol\":10834:10861  _tokenValue(token, balance) */\n      jump\t// in\n    tag_312:\n        /* \"LUSDAllocator/LUSDAllocator.sol\":10818:10861  uint256 value = _tokenValue(token, balance) */\n      swap1\n      pop\n        /* \"LUSDAllocator/LUSDAllocator.sol\":10903:10940  _accountingFor(balance, value, false) */\n      tag_314\n        /* \"LUSDAllocator/LUSDAllocator.sol\":10918:10925  balance */\n      dup3\n        /* \"LUSDAllocator/LUSDAllocator.sol\":10927:10932  value */\n      dup3\n        /* \"LUSDAllocator/LUSDAllocator.sol\":10934:10939  false */\n      0x00\n        /* \"LUSDAllocator/LUSDAllocator.sol\":10903:10917  _accountingFor */\n      tag_315\n        /* \"LUSDAllocator/LUSDAllocator.sol\":10903:10940  _accountingFor(balance, value, false) */\n      jump\t// in\n    tag_314:\n        /* \"LUSDAllocator/LUSDAllocator.sol\":10981:10989  treasury */\n      sload(0x02)\n        /* \"LUSDAllocator/LUSDAllocator.sol\":10981:11020  treasury.deposit(balance, token, value) */\n      mload(0x40)\n      0xbc157ac100000000000000000000000000000000000000000000000000000000\n      dup2\n      mstore\n      0x04\n      dup2\n      add\n        /* \"#utility.yul\":9257:9282   */\n      dup5\n      swap1\n      mstore\n      sub(shl(0xa0, 0x01), 0x01)\n        /* \"#utility.yul\":9318:9373   */\n      dup7\n      dup2\n      and\n        /* \"#utility.yul\":9298:9316   */\n      0x24\n      dup4\n      add\n        /* \"#utility.yul\":9291:9374   */\n      mstore\n        /* \"#utility.yul\":9390:9408   */\n      0x44\n      dup3\n      add\n        /* \"#utility.yul\":9383:9417   */\n      dup5\n      swap1\n      mstore\n        /* \"LUSDAllocator/LUSDAllocator.sol\":10981:10989  treasury */\n      swap1\n      swap2\n      and\n      swap1\n        /* \"LUSDAllocator/LUSDAllocator.sol\":10981:10997  treasury.deposit */\n      0xbc157ac1\n      swap1\n        /* \"#utility.yul\":9230:9248   */\n      0x64\n      add\n        /* \"LUSDAllocator/LUSDAllocator.sol\":10981:11020  treasury.deposit(balance, token, value) */\n      0x20\n      mload(0x40)\n      dup1\n      dup4\n      sub\n      dup2\n      0x00\n      dup8\n      gas\n      call\n      iszero\n      dup1\n      iszero\n      tag_319\n      jumpi\n      returndatasize\n      0x00\n      dup1\n      returndatacopy\n      revert(0x00, returndatasize)\n    tag_319:\n      pop\n      pop\n      pop\n      pop\n      mload(0x40)\n      returndatasize\n      not(0x1f)\n      0x1f\n      dup3\n      add\n      and\n      dup3\n      add\n      dup1\n      0x40\n      mstore\n      pop\n      dup2\n      add\n      swap1\n      tag_320\n      swap2\n      swap1\n      tag_162\n      jump\t// in\n    tag_320:\n      pop\n        /* \"LUSDAllocator/LUSDAllocator.sol\":10610:11084  {... */\n      pop\n      pop\n        /* \"LUSDAllocator/LUSDAllocator.sol\":10338:11336  function withdraw(address token, uint256 amount) external onlyGuardian {... */\n      pop\n      pop\n      jump\t// out\n        /* \"LUSDAllocator/LUSDAllocator.sol\":10579:11330  if (token == lusdTokenAddress) {... */\n    tag_303:\n        /* \"LUSDAllocator/LUSDAllocator.sol\":11104:11131  lqtyStaking.unstake(amount) */\n      mload(0x40)\n      0x2e17de7800000000000000000000000000000000000000000000000000000000\n      dup2\n      mstore\n      0x04\n      dup2\n      add\n        /* \"#utility.yul\":160:185   */\n      dup3\n      swap1\n      mstore\n        /* \"LUSDAllocator/LUSDAllocator.sol\":11104:11115  lqtyStaking */\n      immutable(\"0x318d239e897e06530e6f97c5e7b530ff8f3cace0452144cc2fd8308d4c3465eb\")\n      sub(shl(0xa0, 0x01), 0x01)\n        /* \"LUSDAllocator/LUSDAllocator.sol\":11104:11123  lqtyStaking.unstake */\n      and\n      swap1\n      0x2e17de78\n      swap1\n        /* \"#utility.yul\":133:151   */\n      0x24\n      add\n        /* \"LUSDAllocator/LUSDAllocator.sol\":11104:11131  lqtyStaking.unstake(amount) */\n      0x00\n      mload(0x40)\n      dup1\n      dup4\n      sub\n      dup2\n      0x00\n      dup8\n      dup1\n      extcodesize\n      iszero\n      dup1\n      iszero\n      tag_323\n      jumpi\n      0x00\n      dup1\n      revert\n    tag_323:\n      pop\n      gas\n      call\n      iszero\n      dup1\n      iszero\n      tag_325\n      jumpi\n      returndatasize\n      0x00\n      dup1\n      returndatacopy\n      revert(0x00, returndatasize)\n    tag_325:\n      pop\n      pop\n        /* \"LUSDAllocator/LUSDAllocator.sol\":11164:11202  IERC20(token).balanceOf(address(this)) */\n      mload(0x40)\n      shl(0xe0, 0x70a08231)\n      dup2\n      mstore\n        /* \"LUSDAllocator/LUSDAllocator.sol\":11196:11200  this */\n      address\n        /* \"LUSDAllocator/LUSDAllocator.sol\":11164:11202  IERC20(token).balanceOf(address(this)) */\n      0x04\n      dup3\n      add\n        /* \"#utility.yul\":342:416   */\n      mstore\n        /* \"LUSDAllocator/LUSDAllocator.sol\":11146:11161  uint256 balance */\n      0x00\n      swap3\n      pop\n      sub(shl(0xa0, 0x01), 0x01)\n        /* \"LUSDAllocator/LUSDAllocator.sol\":11164:11187  IERC20(token).balanceOf */\n      dup6\n      and\n      swap2\n      pop\n      0x70a08231\n      swap1\n        /* \"#utility.yul\":315:333   */\n      0x24\n      add\n        /* \"LUSDAllocator/LUSDAllocator.sol\":11164:11202  IERC20(token).balanceOf(address(this)) */\n      0x20\n      mload(0x40)\n      dup1\n      dup4\n      sub\n      dup2\n      dup7\n      gas\n      staticcall\n      iszero\n      dup1\n      iszero\n      tag_328\n      jumpi\n      returndatasize\n      0x00\n      dup1\n      returndatacopy\n      revert(0x00, returndatasize)\n    tag_328:\n      pop\n      pop\n      pop\n      pop\n      mload(0x40)\n      returndatasize\n      not(0x1f)\n      0x1f\n      dup3\n      add\n      and\n      dup3\n      add\n      dup1\n      0x40\n      mstore\n      pop\n      dup2\n      add\n      swap1\n      tag_329\n      swap2\n      swap1\n      tag_162\n      jump\t// in\n    tag_329:\n        /* \"LUSDAllocator/LUSDAllocator.sol\":11300:11308  treasury */\n      sload(0x02)\n        /* \"LUSDAllocator/LUSDAllocator.sol\":11146:11202  uint256 balance = IERC20(token).balanceOf(address(this)) */\n      swap1\n      swap2\n      pop\n        /* \"LUSDAllocator/LUSDAllocator.sol\":11265:11319  IERC20(token).safeTransfer(address(treasury), balance) */\n      tag_330\n      swap1\n      sub(shl(0xa0, 0x01), 0x01)\n        /* \"LUSDAllocator/LUSDAllocator.sol\":11265:11291  IERC20(token).safeTransfer */\n      dup6\n      dup2\n      and\n      swap2\n        /* \"LUSDAllocator/LUSDAllocator.sol\":11300:11308  treasury */\n      and\n        /* \"LUSDAllocator/LUSDAllocator.sol\":11146:11202  uint256 balance = IERC20(token).balanceOf(address(this)) */\n      dup4\n        /* \"LUSDAllocator/LUSDAllocator.sol\":11265:11291  IERC20(token).safeTransfer */\n      tag_285\n        /* \"LUSDAllocator/LUSDAllocator.sol\":11265:11319  IERC20(token).safeTransfer(address(treasury), balance) */\n      jump\t// in\n    tag_330:\n        /* \"LUSDAllocator/LUSDAllocator.sol\":11090:11330  {... */\n      pop\n        /* \"LUSDAllocator/LUSDAllocator.sol\":10579:11330  if (token == lusdTokenAddress) {... */\n    tag_321:\n        /* \"LUSDAllocator/LUSDAllocator.sol\":10338:11336  function withdraw(address token, uint256 amount) external onlyGuardian {... */\n      pop\n      pop\n      jump\t// out\n        /* \"LUSDAllocator/SafeERC20.sol\":1141:1493  function safeApprove(... */\n    tag_137:\n        /* \"LUSDAllocator/SafeERC20.sol\":1322:1381  abi.encodeWithSelector(IERC20.approve.selector, to, amount) */\n      0x40\n      dup1\n      mload\n      sub(shl(0xa0, 0x01), 0x01)\n        /* \"#utility.yul\":5927:5982   */\n      dup5\n      dup2\n      and\n        /* \"LUSDAllocator/SafeERC20.sol\":1322:1381  abi.encodeWithSelector(IERC20.approve.selector, to, amount) */\n      0x24\n      dup4\n      add\n        /* \"#utility.yul\":5909:5983   */\n      mstore\n        /* \"#utility.yul\":5999:6017   */\n      0x44\n      dup1\n      dup4\n      add\n        /* \"#utility.yul\":5992:6026   */\n      dup6\n      swap1\n      mstore\n        /* \"LUSDAllocator/SafeERC20.sol\":1322:1381  abi.encodeWithSelector(IERC20.approve.selector, to, amount) */\n      dup4\n      mload\n      dup1\n      dup5\n      sub\n      swap1\n      swap2\n      add\n      dup2\n      mstore\n        /* \"#utility.yul\":5882:5900   */\n      0x64\n      swap1\n      swap3\n      add\n        /* \"LUSDAllocator/SafeERC20.sol\":1322:1381  abi.encodeWithSelector(IERC20.approve.selector, to, amount) */\n      dup4\n      mstore\n      0x20\n      dup3\n      add\n      dup1\n      mload\n      0xffffffffffffffffffffffffffffffffffffffffffffffffffffffff\n      and\n        /* \"LUSDAllocator/SafeERC20.sol\":1345:1368  IERC20.approve.selector */\n      0x095ea7b300000000000000000000000000000000000000000000000000000000\n        /* \"LUSDAllocator/SafeERC20.sol\":1322:1381  abi.encodeWithSelector(IERC20.approve.selector, to, amount) */\n      or\n      swap1\n      mstore\n        /* \"LUSDAllocator/SafeERC20.sol\":1289:1391  address(token).call(... */\n      swap2\n      mload\n      0x00\n      swap3\n      dup4\n      swap3\n        /* \"LUSDAllocator/SafeERC20.sol\":1289:1308  address(token).call */\n      swap1\n      dup8\n      and\n      swap2\n        /* \"LUSDAllocator/SafeERC20.sol\":1289:1391  address(token).call(... */\n      tag_333\n      swap2\n        /* \"LUSDAllocator/SafeERC20.sol\":1322:1381  abi.encodeWithSelector(IERC20.approve.selector, to, amount) */\n      swap1\n        /* \"LUSDAllocator/SafeERC20.sol\":1289:1391  address(token).call(... */\n      tag_334\n      jump\t// in\n    tag_333:\n      0x00\n      mload(0x40)\n      dup1\n      dup4\n      sub\n      dup2\n      0x00\n      dup7\n      gas\n      call\n      swap2\n      pop\n      pop\n      returndatasize\n      dup1\n      0x00\n      dup2\n      eq\n      tag_337\n      jumpi\n      mload(0x40)\n      swap2\n      pop\n      and(add(returndatasize, 0x3f), not(0x1f))\n      dup3\n      add\n      0x40\n      mstore\n      returndatasize\n      dup3\n      mstore\n      returndatasize\n      0x00\n      0x20\n      dup5\n      add\n      returndatacopy\n      jump(tag_336)\n    tag_337:\n      0x60\n      swap2\n      pop\n    tag_336:\n      pop\n        /* \"LUSDAllocator/SafeERC20.sol\":1253:1391  (bool success, bytes memory data) = address(token).call(... */\n      swap2\n      pop\n      swap2\n      pop\n        /* \"LUSDAllocator/SafeERC20.sol\":1410:1417  success */\n      dup2\n        /* \"LUSDAllocator/SafeERC20.sol\":1410:1467  success && (data.length == 0 || abi.decode(data, (bool))) */\n      dup1\n      iszero\n      tag_340\n      jumpi\n      pop\n        /* \"LUSDAllocator/SafeERC20.sol\":1422:1433  data.length */\n      dup1\n      mload\n        /* \"LUSDAllocator/SafeERC20.sol\":1422:1438  data.length == 0 */\n      iszero\n      dup1\n        /* \"LUSDAllocator/SafeERC20.sol\":1422:1466  data.length == 0 || abi.decode(data, (bool)) */\n      tag_340\n      jumpi\n      pop\n        /* \"LUSDAllocator/SafeERC20.sol\":1453:1457  data */\n      dup1\n        /* \"LUSDAllocator/SafeERC20.sol\":1442:1466  abi.decode(data, (bool)) */\n      dup1\n      0x20\n      add\n      swap1\n      mload\n      dup2\n      add\n      swap1\n      tag_340\n      swap2\n      swap1\n      tag_341\n      jump\t// in\n    tag_340:\n        /* \"LUSDAllocator/SafeERC20.sol\":1402:1486  require(success && (data.length == 0 || abi.decode(data, (bool))), \"APPROVE_FAILED\") */\n      tag_320\n      jumpi\n      mload(0x40)\n      shl(0xe5, 0x461bcd)\n      dup2\n      mstore\n        /* \"#utility.yul\":10191:10193   */\n      0x20\n        /* \"LUSDAllocator/SafeERC20.sol\":1402:1486  require(success && (data.length == 0 || abi.decode(data, (bool))), \"APPROVE_FAILED\") */\n      0x04\n      dup3\n      add\n        /* \"#utility.yul\":10173:10194   */\n      mstore\n        /* \"#utility.yul\":10230:10232   */\n      0x0e\n        /* \"#utility.yul\":10210:10228   */\n      0x24\n      dup3\n      add\n        /* \"#utility.yul\":10203:10233   */\n      mstore\n        /* \"#utility.yul\":10269:10285   */\n      0x415050524f56455f4641494c4544000000000000000000000000000000000000\n        /* \"#utility.yul\":10249:10267   */\n      0x44\n      dup3\n      add\n        /* \"#utility.yul\":10242:10286   */\n      mstore\n        /* \"#utility.yul\":10303:10321   */\n      0x64\n      add\n        /* \"LUSDAllocator/SafeERC20.sol\":1402:1486  require(success && (data.length == 0 || abi.decode(data, (bool))), \"APPROVE_FAILED\") */\n      tag_144\n        /* \"#utility.yul\":9989:10327   */\n      jump\n        /* \"LUSDAllocator/LUSDAllocator.sol\":11390:11705  function _depositLUSD(uint256 amount) internal {... */\n    tag_220:\n        /* \"LUSDAllocator/LUSDAllocator.sol\":11485:11500  frontEndAddress */\n      sload(0x06)\n        /* \"LUSDAllocator/LUSDAllocator.sol\":11447:11501  lusdStabilityPool.provideToSP(amount, frontEndAddress) */\n      mload(0x40)\n      0x5f788d6500000000000000000000000000000000000000000000000000000000\n      dup2\n      mstore\n      0x04\n      dup2\n      add\n        /* \"#utility.yul\":10506:10531   */\n      dup4\n      swap1\n      mstore\n      sub(shl(0xa0, 0x01), 0x01)\n        /* \"LUSDAllocator/LUSDAllocator.sol\":11485:11500  frontEndAddress */\n      swap2\n      dup3\n      and\n        /* \"#utility.yul\":10547:10565   */\n      0x24\n      dup3\n      add\n        /* \"#utility.yul\":10540:10623   */\n      mstore\n        /* \"LUSDAllocator/LUSDAllocator.sol\":11447:11464  lusdStabilityPool */\n      immutable(\"0x278a4539603a9bc8a72d7a368fe14ebf88ae5f0870def96c5eca03adb0b084ba\")\n        /* \"LUSDAllocator/LUSDAllocator.sol\":11447:11476  lusdStabilityPool.provideToSP */\n      swap1\n      swap2\n      and\n      swap1\n      0x5f788d65\n      swap1\n        /* \"#utility.yul\":10479:10497   */\n      0x44\n      add\n        /* \"LUSDAllocator/LUSDAllocator.sol\":11447:11501  lusdStabilityPool.provideToSP(amount, frontEndAddress) */\n      0x00\n      mload(0x40)\n      dup1\n      dup4\n      sub\n      dup2\n      0x00\n      dup8\n      dup1\n      extcodesize\n      iszero\n      dup1\n      iszero\n      tag_348\n      jumpi\n      0x00\n      dup1\n      revert\n    tag_348:\n      pop\n      gas\n      call\n      iszero\n      dup1\n      iszero\n      tag_350\n      jumpi\n      returndatasize\n      0x00\n      dup1\n      returndatacopy\n      revert(0x00, returndatasize)\n    tag_350:\n      pop\n      pop\n        /* \"LUSDAllocator/LUSDAllocator.sol\":11578:11594  lusdTokenAddress */\n      sload(0x07)\n        /* \"LUSDAllocator/LUSDAllocator.sol\":11550:11563  uint256 value */\n      0x00\n      swap3\n      pop\n        /* \"LUSDAllocator/LUSDAllocator.sol\":11566:11603  _tokenValue(lusdTokenAddress, amount) */\n      tag_351\n      swap2\n      pop\n      sub(shl(0xa0, 0x01), 0x01)\n        /* \"LUSDAllocator/LUSDAllocator.sol\":11578:11594  lusdTokenAddress */\n      and\n        /* \"LUSDAllocator/LUSDAllocator.sol\":11596:11602  amount */\n      dup4\n        /* \"LUSDAllocator/LUSDAllocator.sol\":11566:11577  _tokenValue */\n      tag_313\n        /* \"LUSDAllocator/LUSDAllocator.sol\":11566:11603  _tokenValue(lusdTokenAddress, amount) */\n      jump\t// in\n    tag_351:\n        /* \"LUSDAllocator/LUSDAllocator.sol\":11550:11603  uint256 value = _tokenValue(lusdTokenAddress, amount) */\n      swap1\n      pop\n        /* \"LUSDAllocator/LUSDAllocator.sol\":11640:11675  _accountingFor(amount, value, true) */\n      tag_321\n        /* \"LUSDAllocator/LUSDAllocator.sol\":11655:11661  amount */\n      dup3\n        /* \"LUSDAllocator/LUSDAllocator.sol\":11663:11668  value */\n      dup3\n        /* \"LUSDAllocator/LUSDAllocator.sol\":11670:11674  true */\n      0x01\n        /* \"LUSDAllocator/LUSDAllocator.sol\":11640:11654  _accountingFor */\n      tag_315\n        /* \"LUSDAllocator/LUSDAllocator.sol\":11640:11675  _accountingFor(amount, value, true) */\n      jump\t// in\n        /* \"LUSDAllocator/SafeERC20.sol\":780:1135  function safeTransfer(... */\n    tag_285:\n        /* \"LUSDAllocator/SafeERC20.sol\":962:1022  abi.encodeWithSelector(IERC20.transfer.selector, to, amount) */\n      0x40\n      dup1\n      mload\n      sub(shl(0xa0, 0x01), 0x01)\n        /* \"#utility.yul\":5927:5982   */\n      dup5\n      dup2\n      and\n        /* \"LUSDAllocator/SafeERC20.sol\":962:1022  abi.encodeWithSelector(IERC20.transfer.selector, to, amount) */\n      0x24\n      dup4\n      add\n        /* \"#utility.yul\":5909:5983   */\n      mstore\n        /* \"#utility.yul\":5999:6017   */\n      0x44\n      dup1\n      dup4\n      add\n        /* \"#utility.yul\":5992:6026   */\n      dup6\n      swap1\n      mstore\n        /* \"LUSDAllocator/SafeERC20.sol\":962:1022  abi.encodeWithSelector(IERC20.transfer.selector, to, amount) */\n      dup4\n      mload\n      dup1\n      dup5\n      sub\n      swap1\n      swap2\n      add\n      dup2\n      mstore\n        /* \"#utility.yul\":5882:5900   */\n      0x64\n      swap1\n      swap3\n      add\n        /* \"LUSDAllocator/SafeERC20.sol\":962:1022  abi.encodeWithSelector(IERC20.transfer.selector, to, amount) */\n      dup4\n      mstore\n      0x20\n      dup3\n      add\n      dup1\n      mload\n      0xffffffffffffffffffffffffffffffffffffffffffffffffffffffff\n      and\n        /* \"LUSDAllocator/SafeERC20.sol\":985:1009  IERC20.transfer.selector */\n      0xa9059cbb00000000000000000000000000000000000000000000000000000000\n        /* \"LUSDAllocator/SafeERC20.sol\":962:1022  abi.encodeWithSelector(IERC20.transfer.selector, to, amount) */\n      or\n      swap1\n      mstore\n        /* \"LUSDAllocator/SafeERC20.sol\":929:1032  address(token).call(... */\n      swap2\n      mload\n      0x00\n      swap3\n      dup4\n      swap3\n        /* \"LUSDAllocator/SafeERC20.sol\":929:948  address(token).call */\n      swap1\n      dup8\n      and\n      swap2\n        /* \"LUSDAllocator/SafeERC20.sol\":929:1032  address(token).call(... */\n      tag_355\n      swap2\n        /* \"LUSDAllocator/SafeERC20.sol\":962:1022  abi.encodeWithSelector(IERC20.transfer.selector, to, amount) */\n      swap1\n        /* \"LUSDAllocator/SafeERC20.sol\":929:1032  address(token).call(... */\n      tag_334\n      jump\t// in\n    tag_355:\n      0x00\n      mload(0x40)\n      dup1\n      dup4\n      sub\n      dup2\n      0x00\n      dup7\n      gas\n      call\n      swap2\n      pop\n      pop\n      returndatasize\n      dup1\n      0x00\n      dup2\n      eq\n      tag_358\n      jumpi\n      mload(0x40)\n      swap2\n      pop\n      and(add(returndatasize, 0x3f), not(0x1f))\n      dup3\n      add\n      0x40\n      mstore\n      returndatasize\n      dup3\n      mstore\n      returndatasize\n      0x00\n      0x20\n      dup5\n      add\n      returndatacopy\n      jump(tag_357)\n    tag_358:\n      0x60\n      swap2\n      pop\n    tag_357:\n      pop\n        /* \"LUSDAllocator/SafeERC20.sol\":893:1032  (bool success, bytes memory data) = address(token).call(... */\n      swap2\n      pop\n      swap2\n      pop\n        /* \"LUSDAllocator/SafeERC20.sol\":1051:1058  success */\n      dup2\n        /* \"LUSDAllocator/SafeERC20.sol\":1051:1108  success && (data.length == 0 || abi.decode(data, (bool))) */\n      dup1\n      iszero\n      tag_361\n      jumpi\n      pop\n        /* \"LUSDAllocator/SafeERC20.sol\":1063:1074  data.length */\n      dup1\n      mload\n        /* \"LUSDAllocator/SafeERC20.sol\":1063:1079  data.length == 0 */\n      iszero\n      dup1\n        /* \"LUSDAllocator/SafeERC20.sol\":1063:1107  data.length == 0 || abi.decode(data, (bool)) */\n      tag_361\n      jumpi\n      pop\n        /* \"LUSDAllocator/SafeERC20.sol\":1094:1098  data */\n      dup1\n        /* \"LUSDAllocator/SafeERC20.sol\":1083:1107  abi.decode(data, (bool)) */\n      dup1\n      0x20\n      add\n      swap1\n      mload\n      dup2\n      add\n      swap1\n      tag_361\n      swap2\n      swap1\n      tag_341\n      jump\t// in\n    tag_361:\n        /* \"LUSDAllocator/SafeERC20.sol\":1043:1128  require(success && (data.length == 0 || abi.decode(data, (bool))), \"TRANSFER_FAILED\") */\n      tag_320\n      jumpi\n      mload(0x40)\n      shl(0xe5, 0x461bcd)\n      dup2\n      mstore\n        /* \"#utility.yul\":10836:10838   */\n      0x20\n        /* \"LUSDAllocator/SafeERC20.sol\":1043:1128  require(success && (data.length == 0 || abi.decode(data, (bool))), \"TRANSFER_FAILED\") */\n      0x04\n      dup3\n      add\n        /* \"#utility.yul\":10818:10839   */\n      mstore\n        /* \"#utility.yul\":10875:10877   */\n      0x0f\n        /* \"#utility.yul\":10855:10873   */\n      0x24\n      dup3\n      add\n        /* \"#utility.yul\":10848:10878   */\n      mstore\n        /* \"#utility.yul\":10914:10931   */\n      0x5452414e534645525f4641494c45440000000000000000000000000000000000\n        /* \"#utility.yul\":10894:10912   */\n      0x44\n      dup3\n      add\n        /* \"#utility.yul\":10887:10932   */\n      mstore\n        /* \"#utility.yul\":10949:10967   */\n      0x64\n      add\n        /* \"LUSDAllocator/SafeERC20.sol\":1043:1128  require(success && (data.length == 0 || abi.decode(data, (bool))), \"TRANSFER_FAILED\") */\n      tag_144\n        /* \"#utility.yul\":10634:10973   */\n      jump\n        /* \"LUSDAllocator/LUSDAllocator.sol\":12800:13003  function _tokenValue(address _token, uint256 _amount) internal view returns (uint256 value_) {... */\n    tag_313:\n        /* \"LUSDAllocator/LUSDAllocator.sol\":12877:12891  uint256 value_ */\n      0x00\n        /* \"LUSDAllocator/LUSDAllocator.sol\":12954:12960  _token */\n      dup3\n      sub(shl(0xa0, 0x01), 0x01)\n        /* \"LUSDAllocator/LUSDAllocator.sol\":12939:12970  IERC20Metadata(_token).decimals */\n      and\n      0x313ce567\n        /* \"LUSDAllocator/LUSDAllocator.sol\":12939:12972  IERC20Metadata(_token).decimals() */\n      mload(0x40)\n      dup2\n      0xffffffff\n      and\n      0xe0\n      shl\n      dup2\n      mstore\n      0x04\n      add\n      0x20\n      mload(0x40)\n      dup1\n      dup4\n      sub\n      dup2\n      dup7\n      gas\n      staticcall\n      iszero\n      dup1\n      iszero\n      tag_367\n      jumpi\n      returndatasize\n      0x00\n      dup1\n      returndatacopy\n      revert(0x00, returndatasize)\n    tag_367:\n      pop\n      pop\n      pop\n      pop\n      mload(0x40)\n      returndatasize\n      not(0x1f)\n      0x1f\n      dup3\n      add\n      and\n      dup3\n      add\n      dup1\n      0x40\n      mstore\n      pop\n      dup2\n      add\n      swap1\n      tag_368\n      swap2\n      swap1\n      tag_369\n      jump\t// in\n    tag_368:\n        /* \"LUSDAllocator/LUSDAllocator.sol\":12935:12972  10**IERC20Metadata(_token).decimals() */\n      tag_370\n      swap1\n        /* \"LUSDAllocator/LUSDAllocator.sol\":12935:12937  10 */\n      0x0a\n        /* \"LUSDAllocator/LUSDAllocator.sol\":12935:12972  10**IERC20Metadata(_token).decimals() */\n      tag_371\n      jump\t// in\n    tag_370:\n        /* \"LUSDAllocator/LUSDAllocator.sol\":12913:12930  _amount * (10**9) */\n      tag_372\n        /* \"LUSDAllocator/LUSDAllocator.sol\":12913:12920  _amount */\n      dup4\n        /* \"LUSDAllocator/LUSDAllocator.sol\":12924:12929  10**9 */\n      0x3b9aca00\n        /* \"LUSDAllocator/LUSDAllocator.sol\":12913:12930  _amount * (10**9) */\n      tag_263\n      jump\t// in\n    tag_372:\n        /* \"LUSDAllocator/LUSDAllocator.sol\":12912:12973  (_amount * (10**9)) / (10**IERC20Metadata(_token).decimals()) */\n      tag_373\n      swap2\n      swap1\n      tag_265\n      jump\t// in\n    tag_373:\n        /* \"LUSDAllocator/LUSDAllocator.sol\":12903:12973  value_ = (_amount * (10**9)) / (10**IERC20Metadata(_token).decimals()) */\n      swap1\n      pop\n        /* \"LUSDAllocator/LUSDAllocator.sol\":12800:13003  function _tokenValue(address _token, uint256 _amount) internal view returns (uint256 value_) {... */\n    tag_365:\n      swap3\n      swap2\n      pop\n      pop\n      jump\t// out\n        /* \"LUSDAllocator/LUSDAllocator.sol\":11865:12622  function _accountingFor(... */\n    tag_315:\n        /* \"LUSDAllocator/LUSDAllocator.sol\":11983:11986  add */\n      dup1\n        /* \"LUSDAllocator/LUSDAllocator.sol\":11979:12616  if (add) {... */\n      iszero\n      tag_375\n      jumpi\n        /* \"LUSDAllocator/LUSDAllocator.sol\":12046:12052  amount */\n      dup3\n        /* \"LUSDAllocator/LUSDAllocator.sol\":12024:12043  totalAmountDeployed */\n      sload(0x0a)\n        /* \"LUSDAllocator/LUSDAllocator.sol\":12024:12052  totalAmountDeployed + amount */\n      tag_376\n      swap2\n      swap1\n      tag_270\n      jump\t// in\n    tag_376:\n        /* \"LUSDAllocator/LUSDAllocator.sol\":12002:12021  totalAmountDeployed */\n      0x0a\n        /* \"LUSDAllocator/LUSDAllocator.sol\":12002:12052  totalAmountDeployed = totalAmountDeployed + amount */\n      sstore\n        /* \"LUSDAllocator/LUSDAllocator.sol\":12087:12105  totalValueDeployed */\n      sload(0x09)\n        /* \"LUSDAllocator/LUSDAllocator.sol\":12087:12113  totalValueDeployed + value */\n      tag_377\n      swap1\n        /* \"LUSDAllocator/LUSDAllocator.sol\":12108:12113  value */\n      dup4\n      swap1\n        /* \"LUSDAllocator/LUSDAllocator.sol\":12087:12113  totalValueDeployed + value */\n      tag_270\n      jump\t// in\n    tag_377:\n        /* \"LUSDAllocator/LUSDAllocator.sol\":12066:12084  totalValueDeployed */\n      0x09\n        /* \"LUSDAllocator/LUSDAllocator.sol\":12066:12113  totalValueDeployed = totalValueDeployed + value */\n      sstore\n        /* \"LUSDAllocator/LUSDAllocator.sol\":11979:12616  if (add) {... */\n      jump(tag_330)\n    tag_375:\n        /* \"LUSDAllocator/LUSDAllocator.sol\":12253:12272  totalAmountDeployed */\n      sload(0x0a)\n        /* \"LUSDAllocator/LUSDAllocator.sol\":12244:12250  amount */\n      dup4\n        /* \"LUSDAllocator/LUSDAllocator.sol\":12244:12272  amount < totalAmountDeployed */\n      lt\n        /* \"LUSDAllocator/LUSDAllocator.sol\":12240:12419  if (amount < totalAmountDeployed) {... */\n      iszero\n      tag_379\n      jumpi\n        /* \"LUSDAllocator/LUSDAllocator.sol\":12336:12342  amount */\n      dup3\n        /* \"LUSDAllocator/LUSDAllocator.sol\":12314:12333  totalAmountDeployed */\n      sload(0x0a)\n        /* \"LUSDAllocator/LUSDAllocator.sol\":12314:12342  totalAmountDeployed - amount */\n      tag_380\n      swap2\n      swap1\n      tag_381\n      jump\t// in\n    tag_380:\n        /* \"LUSDAllocator/LUSDAllocator.sol\":12292:12311  totalAmountDeployed */\n      0x0a\n        /* \"LUSDAllocator/LUSDAllocator.sol\":12292:12342  totalAmountDeployed = totalAmountDeployed - amount */\n      sstore\n        /* \"LUSDAllocator/LUSDAllocator.sol\":12240:12419  if (amount < totalAmountDeployed) {... */\n      jump(tag_382)\n    tag_379:\n        /* \"LUSDAllocator/LUSDAllocator.sol\":12403:12404  0 */\n      0x00\n        /* \"LUSDAllocator/LUSDAllocator.sol\":12381:12400  totalAmountDeployed */\n      0x0a\n        /* \"LUSDAllocator/LUSDAllocator.sol\":12381:12404  totalAmountDeployed = 0 */\n      sstore\n        /* \"LUSDAllocator/LUSDAllocator.sol\":12240:12419  if (amount < totalAmountDeployed) {... */\n    tag_382:\n        /* \"LUSDAllocator/LUSDAllocator.sol\":12445:12463  totalValueDeployed */\n      sload(0x09)\n        /* \"LUSDAllocator/LUSDAllocator.sol\":12437:12442  value */\n      dup3\n        /* \"LUSDAllocator/LUSDAllocator.sol\":12437:12463  value < totalValueDeployed */\n      lt\n        /* \"LUSDAllocator/LUSDAllocator.sol\":12433:12606  if (value < totalValueDeployed) {... */\n      iszero\n      tag_383\n      jumpi\n        /* \"LUSDAllocator/LUSDAllocator.sol\":12525:12530  value */\n      dup2\n        /* \"LUSDAllocator/LUSDAllocator.sol\":12504:12522  totalValueDeployed */\n      sload(0x09)\n        /* \"LUSDAllocator/LUSDAllocator.sol\":12504:12530  totalValueDeployed - value */\n      tag_377\n      swap2\n      swap1\n      tag_381\n      jump\t// in\n        /* \"LUSDAllocator/LUSDAllocator.sol\":12433:12606  if (value < totalValueDeployed) {... */\n    tag_383:\n        /* \"LUSDAllocator/LUSDAllocator.sol\":12590:12591  0 */\n      0x00\n        /* \"LUSDAllocator/LUSDAllocator.sol\":12569:12587  totalValueDeployed */\n      0x09\n        /* \"LUSDAllocator/LUSDAllocator.sol\":12569:12591  totalValueDeployed = 0 */\n      sstore\n        /* \"LUSDAllocator/LUSDAllocator.sol\":11865:12622  function _accountingFor(... */\n      pop\n      pop\n      pop\n      jump\t// out\n        /* \"#utility.yul\":427:581   */\n    tag_386:\n      sub(shl(0xa0, 0x01), 0x01)\n        /* \"#utility.yul\":506:511   */\n      dup2\n        /* \"#utility.yul\":502:556   */\n      and\n        /* \"#utility.yul\":495:500   */\n      dup2\n        /* \"#utility.yul\":492:557   */\n      eq\n        /* \"#utility.yul\":482:575   */\n      tag_219\n      jumpi\n        /* \"#utility.yul\":571:572   */\n      0x00\n        /* \"#utility.yul\":568:569   */\n      dup1\n        /* \"#utility.yul\":561:573   */\n      revert\n        /* \"#utility.yul\":586:833   */\n    tag_57:\n        /* \"#utility.yul\":645:651   */\n      0x00\n        /* \"#utility.yul\":698:700   */\n      0x20\n        /* \"#utility.yul\":686:695   */\n      dup3\n        /* \"#utility.yul\":677:684   */\n      dup5\n        /* \"#utility.yul\":673:696   */\n      sub\n        /* \"#utility.yul\":669:701   */\n      slt\n        /* \"#utility.yul\":666:718   */\n      iszero\n      tag_399\n      jumpi\n        /* \"#utility.yul\":714:715   */\n      0x00\n        /* \"#utility.yul\":711:712   */\n      dup1\n        /* \"#utility.yul\":704:716   */\n      revert\n        /* \"#utility.yul\":666:718   */\n    tag_399:\n        /* \"#utility.yul\":753:762   */\n      dup2\n        /* \"#utility.yul\":740:763   */\n      calldataload\n        /* \"#utility.yul\":772:803   */\n      tag_400\n        /* \"#utility.yul\":797:802   */\n      dup2\n        /* \"#utility.yul\":772:803   */\n      tag_386\n      jump\t// in\n    tag_400:\n        /* \"#utility.yul\":822:827   */\n      swap4\n        /* \"#utility.yul\":586:833   */\n      swap3\n      pop\n      pop\n      pop\n      jump\t// out\n        /* \"#utility.yul\":1086:1266   */\n    tag_67:\n        /* \"#utility.yul\":1145:1151   */\n      0x00\n        /* \"#utility.yul\":1198:1200   */\n      0x20\n        /* \"#utility.yul\":1186:1195   */\n      dup3\n        /* \"#utility.yul\":1177:1184   */\n      dup5\n        /* \"#utility.yul\":1173:1196   */\n      sub\n        /* \"#utility.yul\":1169:1201   */\n      slt\n        /* \"#utility.yul\":1166:1218   */\n      iszero\n      tag_403\n      jumpi\n        /* \"#utility.yul\":1214:1215   */\n      0x00\n        /* \"#utility.yul\":1211:1212   */\n      dup1\n        /* \"#utility.yul\":1204:1216   */\n      revert\n        /* \"#utility.yul\":1166:1218   */\n    tag_403:\n      pop\n        /* \"#utility.yul\":1237:1260   */\n      calldataload\n      swap2\n        /* \"#utility.yul\":1086:1266   */\n      swap1\n      pop\n      jump\t// out\n        /* \"#utility.yul\":1994:2309   */\n    tag_135:\n        /* \"#utility.yul\":2062:2068   */\n      0x00\n        /* \"#utility.yul\":2070:2076   */\n      dup1\n        /* \"#utility.yul\":2123:2125   */\n      0x40\n        /* \"#utility.yul\":2111:2120   */\n      dup4\n        /* \"#utility.yul\":2102:2109   */\n      dup6\n        /* \"#utility.yul\":2098:2121   */\n      sub\n        /* \"#utility.yul\":2094:2126   */\n      slt\n        /* \"#utility.yul\":2091:2143   */\n      iszero\n      tag_410\n      jumpi\n        /* \"#utility.yul\":2139:2140   */\n      0x00\n        /* \"#utility.yul\":2136:2137   */\n      dup1\n        /* \"#utility.yul\":2129:2141   */\n      revert\n        /* \"#utility.yul\":2091:2143   */\n    tag_410:\n        /* \"#utility.yul\":2178:2187   */\n      dup3\n        /* \"#utility.yul\":2165:2188   */\n      calldataload\n        /* \"#utility.yul\":2197:2228   */\n      tag_411\n        /* \"#utility.yul\":2222:2227   */\n      dup2\n        /* \"#utility.yul\":2197:2228   */\n      tag_386\n      jump\t// in\n    tag_411:\n        /* \"#utility.yul\":2247:2252   */\n      swap5\n        /* \"#utility.yul\":2299:2301   */\n      0x20\n        /* \"#utility.yul\":2284:2302   */\n      swap4\n      swap1\n      swap4\n      add\n        /* \"#utility.yul\":2271:2303   */\n      calldataload\n      swap4\n      pop\n      pop\n      pop\n        /* \"#utility.yul\":1994:2309   */\n      jump\t// out\n        /* \"#utility.yul\":2314:2565   */\n    tag_142:\n        /* \"#utility.yul\":2384:2390   */\n      0x00\n        /* \"#utility.yul\":2437:2439   */\n      0x20\n        /* \"#utility.yul\":2425:2434   */\n      dup3\n        /* \"#utility.yul\":2416:2423   */\n      dup5\n        /* \"#utility.yul\":2412:2435   */\n      sub\n        /* \"#utility.yul\":2408:2440   */\n      slt\n        /* \"#utility.yul\":2405:2457   */\n      iszero\n      tag_413\n      jumpi\n        /* \"#utility.yul\":2453:2454   */\n      0x00\n        /* \"#utility.yul\":2450:2451   */\n      dup1\n        /* \"#utility.yul\":2443:2455   */\n      revert\n        /* \"#utility.yul\":2405:2457   */\n    tag_413:\n        /* \"#utility.yul\":2485:2494   */\n      dup2\n        /* \"#utility.yul\":2479:2495   */\n      mload\n        /* \"#utility.yul\":2504:2535   */\n      tag_400\n        /* \"#utility.yul\":2529:2534   */\n      dup2\n        /* \"#utility.yul\":2504:2535   */\n      tag_386\n      jump\t// in\n        /* \"#utility.yul\":2851:4094   */\n    tag_145:\n        /* \"#utility.yul\":2960:2964   */\n      0x00\n        /* \"#utility.yul\":2989:2991   */\n      0x20\n        /* \"#utility.yul\":3018:3020   */\n      dup1\n        /* \"#utility.yul\":3007:3016   */\n      dup4\n        /* \"#utility.yul\":3000:3021   */\n      mstore\n        /* \"#utility.yul\":3041:3042   */\n      0x00\n        /* \"#utility.yul\":3074:3080   */\n      dup5\n        /* \"#utility.yul\":3068:3081   */\n      sload\n        /* \"#utility.yul\":3104:3107   */\n      dup2\n        /* \"#utility.yul\":3126:3127   */\n      0x01\n        /* \"#utility.yul\":3154:3163   */\n      dup3\n        /* \"#utility.yul\":3150:3152   */\n      dup2\n        /* \"#utility.yul\":3146:3164   */\n      shr\n        /* \"#utility.yul\":3136:3164   */\n      swap2\n      pop\n        /* \"#utility.yul\":3214:3216   */\n      dup1\n        /* \"#utility.yul\":3203:3212   */\n      dup4\n        /* \"#utility.yul\":3199:3217   */\n      and\n        /* \"#utility.yul\":3236:3254   */\n      dup1\n        /* \"#utility.yul\":3226:3287   */\n      tag_418\n      jumpi\n        /* \"#utility.yul\":3280:3284   */\n      0x7f\n        /* \"#utility.yul\":3272:3278   */\n      dup4\n        /* \"#utility.yul\":3268:3285   */\n      and\n        /* \"#utility.yul\":3258:3285   */\n      swap3\n      pop\n        /* \"#utility.yul\":3226:3287   */\n    tag_418:\n        /* \"#utility.yul\":3333:3335   */\n      dup6\n        /* \"#utility.yul\":3325:3331   */\n      dup4\n        /* \"#utility.yul\":3322:3336   */\n      lt\n        /* \"#utility.yul\":3302:3320   */\n      dup2\n        /* \"#utility.yul\":3299:3337   */\n      sub\n        /* \"#utility.yul\":3296:3518   */\n      tag_419\n      jumpi\n      shl(0xe0, 0x4e487b71)\n        /* \"#utility.yul\":3367:3370   */\n      dup6\n        /* \"#utility.yul\":3360:3450   */\n      mstore\n        /* \"#utility.yul\":3473:3477   */\n      0x22\n        /* \"#utility.yul\":3470:3471   */\n      0x04\n        /* \"#utility.yul\":3463:3478   */\n      mstore\n        /* \"#utility.yul\":3503:3507   */\n      0x24\n        /* \"#utility.yul\":3498:3501   */\n      dup6\n        /* \"#utility.yul\":3491:3508   */\n      revert\n        /* \"#utility.yul\":3296:3518   */\n    tag_419:\n        /* \"#utility.yul\":3574:3592   */\n      dup8\n      dup7\n      add\n        /* \"#utility.yul\":2657:2676   */\n      dup4\n      dup2\n      mstore\n        /* \"#utility.yul\":2709:2713   */\n      0x20\n        /* \"#utility.yul\":2700:2714   */\n      add\n        /* \"#utility.yul\":3617:3635   */\n      dup2\n        /* \"#utility.yul\":3644:3744   */\n      dup1\n      iszero\n      tag_422\n      jumpi\n        /* \"#utility.yul\":3758:3759   */\n      0x01\n        /* \"#utility.yul\":3753:4068   */\n      dup2\n      eq\n      tag_423\n      jumpi\n        /* \"#utility.yul\":3610:4068   */\n      jump(tag_421)\n        /* \"#utility.yul\":3644:3744   */\n    tag_422:\n      not(0xff)\n        /* \"#utility.yul\":3677:3701   */\n      dup7\n      and\n        /* \"#utility.yul\":3665:3702   */\n      dup3\n      mstore\n        /* \"#utility.yul\":3722:3734   */\n      dup8\n      dup3\n      add\n      swap7\n      pop\n        /* \"#utility.yul\":3644:3744   */\n      jump(tag_421)\n        /* \"#utility.yul\":3753:4068   */\n    tag_423:\n        /* \"#utility.yul\":2798:2799   */\n      0x00\n        /* \"#utility.yul\":2791:2805   */\n      dup12\n      dup2\n      mstore\n        /* \"#utility.yul\":2835:2839   */\n      0x20\n        /* \"#utility.yul\":2822:2840   */\n      swap1\n      keccak256\n        /* \"#utility.yul\":3848:3849   */\n      0x00\n        /* \"#utility.yul\":3862:4027   */\n    tag_425:\n        /* \"#utility.yul\":3876:3882   */\n      dup7\n        /* \"#utility.yul\":3873:3874   */\n      dup2\n        /* \"#utility.yul\":3870:3883   */\n      lt\n        /* \"#utility.yul\":3862:4027   */\n      iszero\n      tag_427\n      jumpi\n        /* \"#utility.yul\":3954:3968   */\n      dup2\n      sload\n        /* \"#utility.yul\":3941:3952   */\n      dup5\n      dup3\n      add\n        /* \"#utility.yul\":3934:3969   */\n      mstore\n        /* \"#utility.yul\":3997:4013   */\n      swap1\n      dup6\n      add\n      swap1\n        /* \"#utility.yul\":3891:3901   */\n      dup10\n      add\n        /* \"#utility.yul\":3862:4027   */\n      jump(tag_425)\n    tag_427:\n        /* \"#utility.yul\":4047:4058   */\n      dup4\n      add\n      swap8\n      pop\n      pop\n        /* \"#utility.yul\":3610:4068   */\n    tag_421:\n      pop\n        /* \"#utility.yul\":4085:4088   */\n      swap5\n      swap10\n        /* \"#utility.yul\":2851:4094   */\n      swap9\n      pop\n      pop\n      pop\n      pop\n      pop\n      pop\n      pop\n      pop\n      pop\n      jump\t// out\n        /* \"#utility.yul\":4459:4643   */\n    tag_162:\n        /* \"#utility.yul\":4529:4535   */\n      0x00\n        /* \"#utility.yul\":4582:4584   */\n      0x20\n        /* \"#utility.yul\":4570:4579   */\n      dup3\n        /* \"#utility.yul\":4561:4568   */\n      dup5\n        /* \"#utility.yul\":4557:4580   */\n      sub\n        /* \"#utility.yul\":4553:4585   */\n      slt\n        /* \"#utility.yul\":4550:4602   */\n      iszero\n      tag_430\n      jumpi\n        /* \"#utility.yul\":4598:4599   */\n      0x00\n        /* \"#utility.yul\":4595:4596   */\n      dup1\n        /* \"#utility.yul\":4588:4600   */\n      revert\n        /* \"#utility.yul\":4550:4602   */\n    tag_430:\n      pop\n        /* \"#utility.yul\":4621:4637   */\n      mload\n      swap2\n        /* \"#utility.yul\":4459:4643   */\n      swap1\n      pop\n      jump\t// out\n        /* \"#utility.yul\":6227:6411   */\n    tag_389:\n      shl(0xe0, 0x4e487b71)\n        /* \"#utility.yul\":6276:6277   */\n      0x00\n        /* \"#utility.yul\":6269:6357   */\n      mstore\n        /* \"#utility.yul\":6376:6380   */\n      0x11\n        /* \"#utility.yul\":6373:6374   */\n      0x04\n        /* \"#utility.yul\":6366:6381   */\n      mstore\n        /* \"#utility.yul\":6400:6404   */\n      0x24\n        /* \"#utility.yul\":6397:6398   */\n      0x00\n        /* \"#utility.yul\":6390:6405   */\n      revert\n        /* \"#utility.yul\":6416:6584   */\n    tag_263:\n        /* \"#utility.yul\":6456:6463   */\n      0x00\n        /* \"#utility.yul\":6522:6523   */\n      dup2\n        /* \"#utility.yul\":6518:6519   */\n      0x00\n        /* \"#utility.yul\":6514:6520   */\n      not\n        /* \"#utility.yul\":6510:6524   */\n      div\n        /* \"#utility.yul\":6507:6508   */\n      dup4\n        /* \"#utility.yul\":6504:6525   */\n      gt\n        /* \"#utility.yul\":6499:6500   */\n      dup3\n        /* \"#utility.yul\":6492:6501   */\n      iszero\n        /* \"#utility.yul\":6485:6502   */\n      iszero\n        /* \"#utility.yul\":6481:6526   */\n      and\n        /* \"#utility.yul\":6478:6549   */\n      iszero\n      tag_439\n      jumpi\n        /* \"#utility.yul\":6529:6547   */\n      tag_439\n      tag_389\n      jump\t// in\n    tag_439:\n      pop\n        /* \"#utility.yul\":6569:6578   */\n      mul\n      swap1\n        /* \"#utility.yul\":6416:6584   */\n      jump\t// out\n        /* \"#utility.yul\":6589:6863   */\n    tag_265:\n        /* \"#utility.yul\":6629:6630   */\n      0x00\n        /* \"#utility.yul\":6655:6656   */\n      dup3\n        /* \"#utility.yul\":6645:6834   */\n      tag_441\n      jumpi\n      shl(0xe0, 0x4e487b71)\n        /* \"#utility.yul\":6687:6688   */\n      0x00\n        /* \"#utility.yul\":6680:6768   */\n      mstore\n        /* \"#utility.yul\":6791:6795   */\n      0x12\n        /* \"#utility.yul\":6788:6789   */\n      0x04\n        /* \"#utility.yul\":6781:6796   */\n      mstore\n        /* \"#utility.yul\":6819:6823   */\n      0x24\n        /* \"#utility.yul\":6816:6817   */\n      0x00\n        /* \"#utility.yul\":6809:6824   */\n      revert\n        /* \"#utility.yul\":6645:6834   */\n    tag_441:\n      pop\n        /* \"#utility.yul\":6848:6857   */\n      div\n      swap1\n        /* \"#utility.yul\":6589:6863   */\n      jump\t// out\n        /* \"#utility.yul\":7421:7549   */\n    tag_270:\n        /* \"#utility.yul\":7461:7464   */\n      0x00\n        /* \"#utility.yul\":7492:7493   */\n      dup3\n        /* \"#utility.yul\":7488:7494   */\n      not\n        /* \"#utility.yul\":7485:7486   */\n      dup3\n        /* \"#utility.yul\":7482:7495   */\n      gt\n        /* \"#utility.yul\":7479:7518   */\n      iszero\n      tag_445\n      jumpi\n        /* \"#utility.yul\":7498:7516   */\n      tag_445\n      tag_389\n      jump\t// in\n    tag_445:\n      pop\n        /* \"#utility.yul\":7534:7543   */\n      add\n      swap1\n        /* \"#utility.yul\":7421:7549   */\n      jump\t// out\n        /* \"#utility.yul\":7554:7812   */\n    tag_390:\n        /* \"#utility.yul\":7626:7627   */\n      0x00\n        /* \"#utility.yul\":7636:7749   */\n    tag_447:\n        /* \"#utility.yul\":7650:7656   */\n      dup4\n        /* \"#utility.yul\":7647:7648   */\n      dup2\n        /* \"#utility.yul\":7644:7657   */\n      lt\n        /* \"#utility.yul\":7636:7749   */\n      iszero\n      tag_449\n      jumpi\n        /* \"#utility.yul\":7726:7737   */\n      dup2\n      dup2\n      add\n        /* \"#utility.yul\":7720:7738   */\n      mload\n        /* \"#utility.yul\":7707:7718   */\n      dup4\n      dup3\n      add\n        /* \"#utility.yul\":7700:7739   */\n      mstore\n        /* \"#utility.yul\":7672:7674   */\n      0x20\n        /* \"#utility.yul\":7665:7675   */\n      add\n        /* \"#utility.yul\":7636:7749   */\n      jump(tag_447)\n    tag_449:\n        /* \"#utility.yul\":7767:7773   */\n      dup4\n        /* \"#utility.yul\":7764:7765   */\n      dup2\n        /* \"#utility.yul\":7761:7774   */\n      gt\n        /* \"#utility.yul\":7758:7806   */\n      iszero\n      tag_450\n      jumpi\n        /* \"#utility.yul\":7802:7803   */\n      0x00\n        /* \"#utility.yul\":7793:7799   */\n      dup5\n        /* \"#utility.yul\":7788:7791   */\n      dup5\n        /* \"#utility.yul\":7784:7800   */\n      add\n        /* \"#utility.yul\":7777:7804   */\n      mstore\n        /* \"#utility.yul\":7758:7806   */\n    tag_450:\n      pop\n        /* \"#utility.yul\":7554:7812   */\n      pop\n      pop\n      pop\n      jump\t// out\n        /* \"#utility.yul\":7817:8633   */\n    tag_272:\n        /* \"#utility.yul\":8012:8014   */\n      0x20\n        /* \"#utility.yul\":8001:8010   */\n      dup2\n        /* \"#utility.yul\":7994:8015   */\n      mstore\n        /* \"#utility.yul\":7975:7979   */\n      0x00\n        /* \"#utility.yul\":8050:8056   */\n      dup3\n        /* \"#utility.yul\":8044:8057   */\n      mload\n        /* \"#utility.yul\":8093:8097   */\n      0xa0\n        /* \"#utility.yul\":8088:8090   */\n      0x20\n        /* \"#utility.yul\":8077:8086   */\n      dup5\n        /* \"#utility.yul\":8073:8091   */\n      add\n        /* \"#utility.yul\":8066:8098   */\n      mstore\n        /* \"#utility.yul\":8127:8139   */\n      dup1\n        /* \"#utility.yul\":8121:8140   */\n      mload\n        /* \"#utility.yul\":8177:8183   */\n      dup1\n        /* \"#utility.yul\":8171:8174   */\n      0xc0\n        /* \"#utility.yul\":8160:8169   */\n      dup6\n        /* \"#utility.yul\":8156:8175   */\n      add\n        /* \"#utility.yul\":8149:8184   */\n      mstore\n        /* \"#utility.yul\":8193:8266   */\n      tag_452\n        /* \"#utility.yul\":8259:8265   */\n      dup2\n        /* \"#utility.yul\":8253:8256   */\n      0xe0\n        /* \"#utility.yul\":8242:8251   */\n      dup7\n        /* \"#utility.yul\":8238:8257   */\n      add\n        /* \"#utility.yul\":8233:8235   */\n      0x20\n        /* \"#utility.yul\":8219:8231   */\n      dup6\n        /* \"#utility.yul\":8215:8236   */\n      add\n        /* \"#utility.yul\":8193:8266   */\n      tag_390\n      jump\t// in\n    tag_452:\n      sub(shl(0xa0, 0x01), 0x01)\n        /* \"#utility.yul\":8324:8326   */\n      0x20\n        /* \"#utility.yul\":8316:8322   */\n      dup7\n        /* \"#utility.yul\":8312:8327   */\n      add\n        /* \"#utility.yul\":8306:8328   */\n      mload\n        /* \"#utility.yul\":8302:8373   */\n      and\n        /* \"#utility.yul\":8297:8299   */\n      0x40\n        /* \"#utility.yul\":8286:8295   */\n      dup6\n        /* \"#utility.yul\":8282:8300   */\n      add\n        /* \"#utility.yul\":8275:8374   */\n      mstore\n        /* \"#utility.yul\":8428:8430   */\n      0x40\n        /* \"#utility.yul\":8420:8426   */\n      dup6\n        /* \"#utility.yul\":8416:8431   */\n      add\n        /* \"#utility.yul\":8410:8432   */\n      mload\n        /* \"#utility.yul\":8405:8407   */\n      0x60\n        /* \"#utility.yul\":8394:8403   */\n      dup6\n        /* \"#utility.yul\":8390:8408   */\n      add\n        /* \"#utility.yul\":8383:8433   */\n      mstore\n        /* \"#utility.yul\":8488:8490   */\n      0x60\n        /* \"#utility.yul\":8480:8486   */\n      dup6\n        /* \"#utility.yul\":8476:8491   */\n      add\n        /* \"#utility.yul\":8470:8492   */\n      mload\n        /* \"#utility.yul\":8464:8467   */\n      0x80\n        /* \"#utility.yul\":8453:8462   */\n      dup6\n        /* \"#utility.yul\":8449:8468   */\n      add\n        /* \"#utility.yul\":8442:8493   */\n      mstore\n        /* \"#utility.yul\":8549:8552   */\n      0x80\n        /* \"#utility.yul\":8541:8547   */\n      dup6\n        /* \"#utility.yul\":8537:8553   */\n      add\n        /* \"#utility.yul\":8531:8554   */\n      mload\n        /* \"#utility.yul\":8524:8528   */\n      0xa0\n        /* \"#utility.yul\":8513:8522   */\n      dup6\n        /* \"#utility.yul\":8509:8529   */\n      add\n        /* \"#utility.yul\":8502:8555   */\n      mstore\n        /* \"#utility.yul\":8623:8626   */\n      0xe0\n        /* \"#utility.yul\":8616:8618   */\n      0x1f\n        /* \"#utility.yul\":8612:8619   */\n      not\n        /* \"#utility.yul\":8607:8609   */\n      0x1f\n        /* \"#utility.yul\":8599:8605   */\n      dup4\n        /* \"#utility.yul\":8595:8610   */\n      add\n        /* \"#utility.yul\":8591:8620   */\n      and\n        /* \"#utility.yul\":8580:8589   */\n      dup6\n        /* \"#utility.yul\":8576:8621   */\n      add\n        /* \"#utility.yul\":8572:8627   */\n      add\n        /* \"#utility.yul\":8564:8627   */\n      swap3\n      pop\n      pop\n      pop\n        /* \"#utility.yul\":7817:8633   */\n      swap3\n      swap2\n      pop\n      pop\n      jump\t// out\n        /* \"#utility.yul\":9428:9702   */\n    tag_334:\n        /* \"#utility.yul\":9557:9560   */\n      0x00\n        /* \"#utility.yul\":9595:9601   */\n      dup3\n        /* \"#utility.yul\":9589:9602   */\n      mload\n        /* \"#utility.yul\":9611:9664   */\n      tag_456\n        /* \"#utility.yul\":9657:9663   */\n      dup2\n        /* \"#utility.yul\":9652:9655   */\n      dup5\n        /* \"#utility.yul\":9645:9649   */\n      0x20\n        /* \"#utility.yul\":9637:9643   */\n      dup8\n        /* \"#utility.yul\":9633:9650   */\n      add\n        /* \"#utility.yul\":9611:9664   */\n      tag_390\n      jump\t// in\n    tag_456:\n        /* \"#utility.yul\":9680:9696   */\n      swap2\n      swap1\n      swap2\n      add\n      swap3\n        /* \"#utility.yul\":9428:9702   */\n      swap2\n      pop\n      pop\n      jump\t// out\n        /* \"#utility.yul\":9707:9984   */\n    tag_341:\n        /* \"#utility.yul\":9774:9780   */\n      0x00\n        /* \"#utility.yul\":9827:9829   */\n      0x20\n        /* \"#utility.yul\":9815:9824   */\n      dup3\n        /* \"#utility.yul\":9806:9813   */\n      dup5\n        /* \"#utility.yul\":9802:9825   */\n      sub\n        /* \"#utility.yul\":9798:9830   */\n      slt\n        /* \"#utility.yul\":9795:9847   */\n      iszero\n      tag_458\n      jumpi\n        /* \"#utility.yul\":9843:9844   */\n      0x00\n        /* \"#utility.yul\":9840:9841   */\n      dup1\n        /* \"#utility.yul\":9833:9845   */\n      revert\n        /* \"#utility.yul\":9795:9847   */\n    tag_458:\n        /* \"#utility.yul\":9875:9884   */\n      dup2\n        /* \"#utility.yul\":9869:9885   */\n      mload\n        /* \"#utility.yul\":9928:9933   */\n      dup1\n        /* \"#utility.yul\":9921:9934   */\n      iszero\n        /* \"#utility.yul\":9914:9935   */\n      iszero\n        /* \"#utility.yul\":9907:9912   */\n      dup2\n        /* \"#utility.yul\":9904:9936   */\n      eq\n        /* \"#utility.yul\":9894:9954   */\n      tag_400\n      jumpi\n        /* \"#utility.yul\":9950:9951   */\n      0x00\n        /* \"#utility.yul\":9947:9948   */\n      dup1\n        /* \"#utility.yul\":9940:9952   */\n      revert\n        /* \"#utility.yul\":10978:11251   */\n    tag_369:\n        /* \"#utility.yul\":11046:11052   */\n      0x00\n        /* \"#utility.yul\":11099:11101   */\n      0x20\n        /* \"#utility.yul\":11087:11096   */\n      dup3\n        /* \"#utility.yul\":11078:11085   */\n      dup5\n        /* \"#utility.yul\":11074:11097   */\n      sub\n        /* \"#utility.yul\":11070:11102   */\n      slt\n        /* \"#utility.yul\":11067:11119   */\n      iszero\n      tag_464\n      jumpi\n        /* \"#utility.yul\":11115:11116   */\n      0x00\n        /* \"#utility.yul\":11112:11113   */\n      dup1\n        /* \"#utility.yul\":11105:11117   */\n      revert\n        /* \"#utility.yul\":11067:11119   */\n    tag_464:\n        /* \"#utility.yul\":11147:11156   */\n      dup2\n        /* \"#utility.yul\":11141:11157   */\n      mload\n        /* \"#utility.yul\":11197:11201   */\n      0xff\n        /* \"#utility.yul\":11190:11195   */\n      dup2\n        /* \"#utility.yul\":11186:11202   */\n      and\n        /* \"#utility.yul\":11179:11184   */\n      dup2\n        /* \"#utility.yul\":11176:11203   */\n      eq\n        /* \"#utility.yul\":11166:11221   */\n      tag_400\n      jumpi\n        /* \"#utility.yul\":11217:11218   */\n      0x00\n        /* \"#utility.yul\":11214:11215   */\n      dup1\n        /* \"#utility.yul\":11207:11219   */\n      revert\n        /* \"#utility.yul\":11256:11678   */\n    tag_391:\n        /* \"#utility.yul\":11345:11346   */\n      0x01\n        /* \"#utility.yul\":11388:11393   */\n      dup2\n        /* \"#utility.yul\":11345:11346   */\n      dup2\n        /* \"#utility.yul\":11402:11672   */\n    tag_467:\n        /* \"#utility.yul\":11423:11430   */\n      dup1\n        /* \"#utility.yul\":11413:11421   */\n      dup6\n        /* \"#utility.yul\":11410:11431   */\n      gt\n        /* \"#utility.yul\":11402:11672   */\n      iszero\n      tag_469\n      jumpi\n        /* \"#utility.yul\":11482:11486   */\n      dup2\n        /* \"#utility.yul\":11478:11479   */\n      0x00\n        /* \"#utility.yul\":11474:11480   */\n      not\n        /* \"#utility.yul\":11470:11487   */\n      div\n        /* \"#utility.yul\":11464:11468   */\n      dup3\n        /* \"#utility.yul\":11461:11488   */\n      gt\n        /* \"#utility.yul\":11458:11511   */\n      iszero\n      tag_471\n      jumpi\n        /* \"#utility.yul\":11491:11509   */\n      tag_471\n      tag_389\n      jump\t// in\n    tag_471:\n        /* \"#utility.yul\":11541:11548   */\n      dup1\n        /* \"#utility.yul\":11531:11539   */\n      dup6\n        /* \"#utility.yul\":11527:11549   */\n      and\n        /* \"#utility.yul\":11524:11579   */\n      iszero\n      tag_472\n      jumpi\n        /* \"#utility.yul\":11561:11577   */\n      swap2\n      dup2\n      mul\n      swap2\n        /* \"#utility.yul\":11524:11579   */\n    tag_472:\n        /* \"#utility.yul\":11640:11662   */\n      swap4\n      dup5\n      shr\n      swap4\n        /* \"#utility.yul\":11600:11615   */\n      swap1\n      dup1\n      mul\n      swap1\n        /* \"#utility.yul\":11402:11672   */\n      jump(tag_467)\n    tag_469:\n        /* \"#utility.yul\":11406:11409   */\n      pop\n        /* \"#utility.yul\":11256:11678   */\n      swap3\n      pop\n      swap3\n      swap1\n      pop\n      jump\t// out\n        /* \"#utility.yul\":11683:12489   */\n    tag_392:\n        /* \"#utility.yul\":11732:11737   */\n      0x00\n        /* \"#utility.yul\":11762:11770   */\n      dup3\n        /* \"#utility.yul\":11752:11832   */\n      tag_474\n      jumpi\n      pop\n        /* \"#utility.yul\":11803:11804   */\n      0x01\n        /* \"#utility.yul\":11817:11822   */\n      jump(tag_365)\n        /* \"#utility.yul\":11752:11832   */\n    tag_474:\n        /* \"#utility.yul\":11851:11855   */\n      dup2\n        /* \"#utility.yul\":11841:11917   */\n      tag_475\n      jumpi\n      pop\n        /* \"#utility.yul\":11888:11889   */\n      0x00\n        /* \"#utility.yul\":11902:11907   */\n      jump(tag_365)\n        /* \"#utility.yul\":11841:11917   */\n    tag_475:\n        /* \"#utility.yul\":11933:11937   */\n      dup2\n        /* \"#utility.yul\":11951:11952   */\n      0x01\n        /* \"#utility.yul\":11946:12005   */\n      dup2\n      eq\n      tag_477\n      jumpi\n        /* \"#utility.yul\":12019:12020   */\n      0x02\n        /* \"#utility.yul\":12014:12144   */\n      dup2\n      eq\n      tag_478\n      jumpi\n        /* \"#utility.yul\":11926:12144   */\n      jump(tag_476)\n        /* \"#utility.yul\":11946:12005   */\n    tag_477:\n        /* \"#utility.yul\":11976:11977   */\n      0x01\n        /* \"#utility.yul\":11967:11977   */\n      swap2\n      pop\n        /* \"#utility.yul\":11990:11995   */\n      pop\n      jump(tag_365)\n        /* \"#utility.yul\":12014:12144   */\n    tag_478:\n        /* \"#utility.yul\":12051:12054   */\n      0xff\n        /* \"#utility.yul\":12041:12049   */\n      dup5\n        /* \"#utility.yul\":12038:12055   */\n      gt\n        /* \"#utility.yul\":12035:12078   */\n      iszero\n      tag_480\n      jumpi\n        /* \"#utility.yul\":12058:12076   */\n      tag_480\n      tag_389\n      jump\t// in\n    tag_480:\n      pop\n      pop\n        /* \"#utility.yul\":12114:12115   */\n      0x01\n        /* \"#utility.yul\":12100:12116   */\n      dup3\n      shl\n        /* \"#utility.yul\":12129:12134   */\n      jump(tag_365)\n        /* \"#utility.yul\":11926:12144   */\n    tag_476:\n      pop\n        /* \"#utility.yul\":12228:12230   */\n      0x20\n        /* \"#utility.yul\":12218:12226   */\n      dup4\n        /* \"#utility.yul\":12215:12231   */\n      lt\n        /* \"#utility.yul\":12209:12212   */\n      0x0133\n        /* \"#utility.yul\":12203:12207   */\n      dup4\n        /* \"#utility.yul\":12200:12213   */\n      lt\n        /* \"#utility.yul\":12196:12232   */\n      and\n        /* \"#utility.yul\":12190:12192   */\n      0x4e\n        /* \"#utility.yul\":12180:12188   */\n      dup5\n        /* \"#utility.yul\":12177:12193   */\n      lt\n        /* \"#utility.yul\":12172:12174   */\n      0x0b\n        /* \"#utility.yul\":12166:12170   */\n      dup5\n        /* \"#utility.yul\":12163:12175   */\n      lt\n        /* \"#utility.yul\":12159:12194   */\n      and\n        /* \"#utility.yul\":12156:12233   */\n      or\n        /* \"#utility.yul\":12153:12312   */\n      iszero\n      tag_481\n      jumpi\n      pop\n        /* \"#utility.yul\":12265:12284   */\n      dup2\n      dup2\n      exp\n        /* \"#utility.yul\":12297:12302   */\n      jump(tag_365)\n        /* \"#utility.yul\":12153:12312   */\n    tag_481:\n        /* \"#utility.yul\":12344:12378   */\n      tag_482\n        /* \"#utility.yul\":12369:12377   */\n      dup4\n        /* \"#utility.yul\":12363:12367   */\n      dup4\n        /* \"#utility.yul\":12344:12378   */\n      tag_391\n      jump\t// in\n    tag_482:\n        /* \"#utility.yul\":12414:12420   */\n      dup1\n        /* \"#utility.yul\":12410:12411   */\n      0x00\n        /* \"#utility.yul\":12406:12412   */\n      not\n        /* \"#utility.yul\":12402:12421   */\n      div\n        /* \"#utility.yul\":12393:12400   */\n      dup3\n        /* \"#utility.yul\":12390:12422   */\n      gt\n        /* \"#utility.yul\":12387:12445   */\n      iszero\n      tag_484\n      jumpi\n        /* \"#utility.yul\":12425:12443   */\n      tag_484\n      tag_389\n      jump\t// in\n    tag_484:\n        /* \"#utility.yul\":12463:12483   */\n      mul\n      swap4\n        /* \"#utility.yul\":11683:12489   */\n      swap3\n      pop\n      pop\n      pop\n      jump\t// out\n        /* \"#utility.yul\":12494:12634   */\n    tag_371:\n        /* \"#utility.yul\":12552:12557   */\n      0x00\n        /* \"#utility.yul\":12581:12628   */\n      tag_373\n        /* \"#utility.yul\":12622:12626   */\n      0xff\n        /* \"#utility.yul\":12612:12620   */\n      dup5\n        /* \"#utility.yul\":12608:12627   */\n      and\n        /* \"#utility.yul\":12602:12606   */\n      dup4\n        /* \"#utility.yul\":12581:12628   */\n      tag_392\n      jump\t// in\n        /* \"#utility.yul\":12639:12764   */\n    tag_381:\n        /* \"#utility.yul\":12679:12683   */\n      0x00\n        /* \"#utility.yul\":12707:12708   */\n      dup3\n        /* \"#utility.yul\":12704:12705   */\n      dup3\n        /* \"#utility.yul\":12701:12709   */\n      lt\n        /* \"#utility.yul\":12698:12732   */\n      iszero\n      tag_489\n      jumpi\n        /* \"#utility.yul\":12712:12730   */\n      tag_489\n      tag_389\n      jump\t// in\n    tag_489:\n      pop\n        /* \"#utility.yul\":12749:12758   */\n      sub\n      swap1\n        /* \"#utility.yul\":12639:12764   */\n      jump\t// out\n\n    auxdata: 0xa264697066735822122074ee8df288745c0338f073514f254f69d9f9beee96392a444bf9bc32cc2901a664736f6c634300080e0033\n}\n",
				"bytecode": {
					"linkReferences": {},
					"object": "610140604052600c6101008190526b15539055551213d49256915160a21b6101209081526200003291600091906200031c565b5062050910600355610bb86004553480156200004d57600080fd5b5060405162002755380380620027558339810160408190526200007091620003df565b600180546001600160a01b0319166001600160a01b038c169081179091556040518b91907f2f658b440c35314f52658ea8a740e05b284cdc84dc9ae01e891f21b8933e7cad90600090a250600280546001600160a01b03199081166001600160a01b038c81169182179093556007805483168c85161790556008805483168b851617905588831660805287831660a05260068054831688851617905585831660c0819052600580549093168685161790925591831660e052620001429160001962000203602090811b6200192e17901c565b6200016d60e05160001960c0516001600160a01b03166200020360201b6200192e179092919060201c565b60805160075462000199916001600160a01b039091169060001962000203602090811b6200192e17901c565b600254600754620001c6916001600160a01b03918216911660001962000203602090811b6200192e17901c565b600254600854620001f3916001600160a01b03918216911660001962000203602090811b6200192e17901c565b5050505050505050505062000553565b604080516001600160a01b038481166024830152604480830185905283518084039091018152606490920183526020820180516001600160e01b031663095ea7b360e01b1790529151600092839290871691620002619190620004ae565b6000604051808303816000865af19150503d8060008114620002a0576040519150601f19603f3d011682016040523d82523d6000602084013e620002a5565b606091505b5091509150818015620002d3575080511580620002d3575080806020019051810190620002d39190620004ec565b620003155760405162461bcd60e51b815260206004820152600e60248201526d1054141493d59157d1905253115160921b604482015260640160405180910390fd5b5050505050565b8280546200032a9062000517565b90600052602060002090601f0160209004810192826200034e576000855562000399565b82601f106200036957805160ff191683800117855562000399565b8280016001018555821562000399579182015b82811115620003995782518255916020019190600101906200037c565b50620003a7929150620003ab565b5090565b5b80821115620003a75760008155600101620003ac565b80516001600160a01b0381168114620003da57600080fd5b919050565b6000806000806000806000806000806101408b8d0312156200040057600080fd5b6200040b8b620003c2565b99506200041b60208c01620003c2565b98506200042b60408c01620003c2565b97506200043b60608c01620003c2565b96506200044b60808c01620003c2565b95506200045b60a08c01620003c2565b94506200046b60c08c01620003c2565b93506200047b60e08c01620003c2565b92506200048c6101008c01620003c2565b91506200049d6101208c01620003c2565b90509295989b9194979a5092959850565b6000825160005b81811015620004d15760208186018101518583015201620004b5565b81811115620004e1576000828501525b509190910192915050565b600060208284031215620004ff57600080fd5b815180151581146200051057600080fd5b9392505050565b600181811c908216806200052c57607f821691505b6020821081036200054d57634e487b7160e01b600052602260045260246000fd5b50919050565b60805160a05160c05160e051612189620005cc600039600061130701526000818161111f015281816111a701528181611276015281816113ce015261145a0152600081816110af015261183c01526000818161069e0152818161074801528181610fa5015281816116840152611ab201526121896000f3fe6080604052600436106101835760003560e01c8063817f6481116100d6578063bf7e214f1161007f578063e616916a11610059578063e616916a14610438578063e63a391f1461044e578063f3fef3a31461046557600080fd5b8063bf7e214f146103d2578063c901761d146103f2578063ddc632621461040857600080fd5b80639c769787116100b05780639c7697871461037d578063b6b55f2514610392578063b7e78648146103b257600080fd5b8063817f6481146103275780639501dc8714610347578063987f56ff1461036757600080fd5b806361d027b31161013857806378289ed21161011257806378289ed2146102dd57806378767d05146102f25780637a9e5e4b1461030757600080fd5b806361d027b3146102875780636bd0fd0f146102a7578063739a4a37146102c757600080fd5b806310a18de21161016957806310a18de2146102255780631d2528fc146102455780635a762d641461026557600080fd5b806202fcd3146101c4578063089fe6aa1461020157600080fd5b366101bf5760405134815233907fe1fffcc4923d04b559f4d29a8bfc6cda04eb5b0d3c460751c2402c5c5cc9109c9060200160405180910390a2005b600080fd5b3480156101d057600080fd5b506007546101e4906001600160a01b031681565b6040516001600160a01b0390911681526020015b60405180910390f35b34801561020d57600080fd5b5061021760045481565b6040519081526020016101f8565b34801561023157600080fd5b506005546101e4906001600160a01b031681565b34801561025157600080fd5b506006546101e4906001600160a01b031681565b34801561027157600080fd5b50610285610280366004611d93565b610485565b005b34801561029357600080fd5b506002546101e4906001600160a01b031681565b3480156102b357600080fd5b506102856102c2366004611db7565b610569565b3480156102d357600080fd5b5061021761271081565b3480156102e957600080fd5b5061021761066d565b3480156102fe57600080fd5b50610217610717565b34801561031357600080fd5b50610285610322366004611d93565b61077f565b34801561033357600080fd5b506008546101e4906001600160a01b031681565b34801561035357600080fd5b50610285610362366004611db7565b610882565b34801561037357600080fd5b50610217600a5481565b34801561038957600080fd5b506102856109ab565b34801561039e57600080fd5b506102856103ad366004611db7565b610c8c565b3480156103be57600080fd5b506102856103cd366004611d93565b610dc5565b3480156103de57600080fd5b506001546101e4906001600160a01b031681565b3480156103fe57600080fd5b5061021760095481565b34801561041457600080fd5b50610428610423366004611db7565b610ea0565b60405190151581526020016101f8565b34801561044457600080fd5b5061021760035481565b34801561045a57600080fd5b50610217620f424081565b34801561047157600080fd5b50610285610480366004611dd0565b611511565b600160009054906101000a90046001600160a01b03166001600160a01b031663452a93206040518163ffffffff1660e01b8152600401602060405180830381865afa1580156104d8573d6000803e3d6000fd5b505050506040513d601f19601f820116820180604052508101906104fc9190611dfc565b6001600160a01b0316336001600160a01b0316146000906105395760405162461bcd60e51b81526004016105309190611e19565b60405180910390fd5b506005805473ffffffffffffffffffffffffffffffffffffffff19166001600160a01b0392909216919091179055565b600160009054906101000a90046001600160a01b03166001600160a01b031663452a93206040518163ffffffff1660e01b8152600401602060405180830381865afa1580156105bc573d6000803e3d6000fd5b505050506040513d601f19601f820116820180604052508101906105e09190611dfc565b6001600160a01b0316336001600160a01b0316146000906106145760405162461bcd60e51b81526004016105309190611e19565b50620f42408111156106685760405162461bcd60e51b815260206004820152601f60248201527f56616c7565206d757374206265206265747765656e203020616e6420316536006044820152606401610530565b600355565b6040517f389e92a50000000000000000000000000000000000000000000000000000000081523060048201526000907f00000000000000000000000000000000000000000000000000000000000000006001600160a01b03169063389e92a5906024015b602060405180830381865afa1580156106ee573d6000803e3d6000fd5b505050506040513d601f19601f820116820180604052508101906107129190611ec0565b905090565b6040517ff5f1595d0000000000000000000000000000000000000000000000000000000081523060048201526000907f00000000000000000000000000000000000000000000000000000000000000006001600160a01b03169063f5f1595d906024016106d1565b600160009054906101000a90046001600160a01b03166001600160a01b0316630c340a246040518163ffffffff1660e01b8152600401602060405180830381865afa1580156107d2573d6000803e3d6000fd5b505050506040513d601f19601f820116820180604052508101906107f69190611dfc565b6001600160a01b0316336001600160a01b03161460009061082a5760405162461bcd60e51b81526004016105309190611e19565b506001805473ffffffffffffffffffffffffffffffffffffffff19166001600160a01b0383169081179091556040517f2f658b440c35314f52658ea8a740e05b284cdc84dc9ae01e891f21b8933e7cad90600090a250565b600160009054906101000a90046001600160a01b03166001600160a01b031663452a93206040518163ffffffff1660e01b8152600401602060405180830381865afa1580156108d5573d6000803e3d6000fd5b505050506040513d601f19601f820116820180604052508101906108f99190611dfc565b6001600160a01b0316336001600160a01b03161460009061092d5760405162461bcd60e51b81526004016105309190611e19565b506127108111156109a65760405162461bcd60e51b815260206004820152602160248201527f56616c7565206d757374206265206265747765656e203020616e64203130303060448201527f30000000000000000000000000000000000000000000000000000000000000006064820152608401610530565b600455565b600160009054906101000a90046001600160a01b03166001600160a01b031663452a93206040518163ffffffff1660e01b8152600401602060405180830381865afa1580156109fe573d6000803e3d6000fd5b505050506040513d601f19601f82011682018060405250810190610a229190611dfc565b6001600160a01b0316336001600160a01b031614600090610a565760405162461bcd60e51b81526004016105309190611e19565b506001546040805163fbfa77cf60e01b815290516000926001600160a01b03169163fbfa77cf9160048083019260209291908290030181865afa158015610aa1573d6000803e3d6000fd5b505050506040513d601f19601f82011682018060405250810190610ac59190611dfc565b6001600160a01b031603610b1b5760405162461bcd60e51b815260206004820152601360248201527f5a65726f20616464726573733a205661756c74000000000000000000000000006044820152606401610530565b6002546001546040805163fbfa77cf60e01b815290516001600160a01b03938416939092169163fbfa77cf916004808201926020929091908290030181865afa158015610b6c573d6000803e3d6000fd5b505050506040513d601f19601f82011682018060405250810190610b909190611dfc565b6001600160a01b031603610be65760405162461bcd60e51b815260206004820152600960248201527f4e6f206368616e676500000000000000000000000000000000000000000000006044820152606401610530565b600160009054906101000a90046001600160a01b03166001600160a01b031663fbfa77cf6040518163ffffffff1660e01b8152600401602060405180830381865afa158015610c39573d6000803e3d6000fd5b505050506040513d601f19601f82011682018060405250810190610c5d9190611dfc565b6002805473ffffffffffffffffffffffffffffffffffffffff19166001600160a01b0392909216919091179055565b600160009054906101000a90046001600160a01b03166001600160a01b031663452a93206040518163ffffffff1660e01b8152600401602060405180830381865afa158015610cdf573d6000803e3d6000fd5b505050506040513d601f19601f82011682018060405250810190610d039190611dfc565b6001600160a01b0316336001600160a01b031614600090610d375760405162461bcd60e51b81526004016105309190611e19565b506002546007546040517f0b0eee300000000000000000000000000000000000000000000000000000000081526001600160a01b03918216600482015260248101849052911690630b0eee3090604401600060405180830381600087803b158015610da157600080fd5b505af1158015610db5573d6000803e3d6000fd5b50505050610dc281611a70565b50565b600160009054906101000a90046001600160a01b03166001600160a01b031663452a93206040518163ffffffff1660e01b8152600401602060405180830381865afa158015610e18573d6000803e3d6000fd5b505050506040513d601f19601f82011682018060405250810190610e3c9190611dfc565b6001600160a01b0316336001600160a01b031614600090610e705760405162461bcd60e51b81526004016105309190611e19565b506006805473ffffffffffffffffffffffffffffffffffffffff19166001600160a01b0392909216919091179055565b600154604080517f452a932000000000000000000000000000000000000000000000000000000000815290516000926001600160a01b03169163452a93209160048083019260209291908290030181865afa158015610f03573d6000803e3d6000fd5b505050506040513d601f19601f82011682018060405250810190610f279190611dfc565b6001600160a01b0316336001600160a01b031614600090610f5b5760405162461bcd60e51b81526004016105309190611e19565b506000610f6661066d565b90506000610f72610717565b905081158015610f80575080155b15610f8f575060009392505050565b604051632e54bf9560e01b8152600060048201527f00000000000000000000000000000000000000000000000000000000000000006001600160a01b031690632e54bf9590602401600060405180830381600087803b158015610ff157600080fd5b505af1158015611005573d6000803e3d6000fd5b50506008546040516370a0823160e01b8152306004820152600093506001600160a01b0390911691506370a0823190602401602060405180830381865afa158015611054573d6000803e3d6000fd5b505050506040513d601f19601f820116820180604052508101906110789190611ec0565b90508015611114576040517fa694fc3a000000000000000000000000000000000000000000000000000000008152600481018290527f00000000000000000000000000000000000000000000000000000000000000006001600160a01b03169063a694fc3a90602401600060405180830381600087803b1580156110fb57600080fd5b505af115801561110f573d6000803e3d6000fd5b505050505b47600081156113a5577f00000000000000000000000000000000000000000000000000000000000000006001600160a01b031663d0e30db0836040518263ffffffff1660e01b81526004016000604051808303818588803b15801561117857600080fd5b505af115801561118c573d6000803e3d6000fd5b50506040516370a0823160e01b8152306004820152600093507f00000000000000000000000000000000000000000000000000000000000000006001600160a01b031692506370a082319150602401602060405180830381865afa1580156111f8573d6000803e3d6000fd5b505050506040513d601f19601f8201168201806040525081019061121c9190611ec0565b600354909150156113a3576000620f42406003548361123b9190611eef565b6112459190611f0e565b905060006112538a83611eef565b6040805160a0810182526004546005546007546bffffffffffffffffffffffff197f0000000000000000000000000000000000000000000000000000000000000000606090811b821660c087015260d4860185905292831b811660f4860152610108850193909352901b16610128820152815180820361011c01815261013c8201835281523060208201529192506000919081016112f2426019611f30565b815260200184815260200183815250905060007f00000000000000000000000000000000000000000000000000000000000000006001600160a01b031663c04b8d59836040518263ffffffff1660e01b81526004016113519190611f78565b6020604051808303816000875af1158015611370573d6000803e3d6000fd5b505050506040513d601f19601f820116820180604052508101906113949190611ec0565b111561139f57600194505b5050505b505b60035415806113b15750805b15611485576040516370a0823160e01b81523060048201526000907f00000000000000000000000000000000000000000000000000000000000000006001600160a01b0316906370a0823190602401602060405180830381865afa15801561141d573d6000803e3d6000fd5b505050506040513d601f19601f820116820180604052508101906114419190611ec0565b9050801561148357600254611483906001600160a01b037f00000000000000000000000000000000000000000000000000000000000000008116911683611b37565b505b6007546040516370a0823160e01b81523060048201526000916001600160a01b0316906370a0823190602401602060405180830381865afa1580156114ce573d6000803e3d6000fd5b505050506040513d601f19601f820116820180604052508101906114f29190611ec0565b905080156115035761150381611a70565b506001979650505050505050565b600160009054906101000a90046001600160a01b03166001600160a01b031663452a93206040518163ffffffff1660e01b8152600401602060405180830381865afa158015611564573d6000803e3d6000fd5b505050506040513d601f19601f820116820180604052508101906115889190611dfc565b6001600160a01b0316336001600160a01b0316146000906115bc5760405162461bcd60e51b81526004016105309190611e19565b506007546001600160a01b03838116911614806115e657506008546001600160a01b038381169116145b6116585760405162461bcd60e51b815260206004820152603060248201527f746f6b656e206164647265737320646f6573206e6f74206d61746368204c555360448201527f44206e6f72204c51545920746f6b656e000000000000000000000000000000006064820152608401610530565b6007546001600160a01b039081169083160361180d57604051632e54bf9560e01b8152600481018290527f00000000000000000000000000000000000000000000000000000000000000006001600160a01b031690632e54bf9590602401600060405180830381600087803b1580156116d057600080fd5b505af11580156116e4573d6000803e3d6000fd5b50506040516370a0823160e01b8152306004820152600092506001600160a01b03851691506370a0823190602401602060405180830381865afa15801561172f573d6000803e3d6000fd5b505050506040513d601f19601f820116820180604052508101906117539190611ec0565b905060006117618483611c79565b905061176f82826000611d09565b6002546040517fbc157ac1000000000000000000000000000000000000000000000000000000008152600481018490526001600160a01b038681166024830152604482018490529091169063bc157ac1906064016020604051808303816000875af11580156117e2573d6000803e3d6000fd5b505050506040513d601f19601f820116820180604052508101906118069190611ec0565b5050505050565b6040517f2e17de78000000000000000000000000000000000000000000000000000000008152600481018290527f00000000000000000000000000000000000000000000000000000000000000006001600160a01b031690632e17de7890602401600060405180830381600087803b15801561188857600080fd5b505af115801561189c573d6000803e3d6000fd5b50506040516370a0823160e01b8152306004820152600092506001600160a01b03851691506370a0823190602401602060405180830381865afa1580156118e7573d6000803e3d6000fd5b505050506040513d601f19601f8201168201806040525081019061190b9190611ec0565b600254909150611928906001600160a01b03858116911683611b37565b505b5050565b604080516001600160a01b038481166024830152604480830185905283518084039091018152606490920183526020820180517bffffffffffffffffffffffffffffffffffffffffffffffffffffffff167f095ea7b30000000000000000000000000000000000000000000000000000000017905291516000928392908716916119b89190611fe8565b6000604051808303816000865af19150503d80600081146119f5576040519150601f19603f3d011682016040523d82523d6000602084013e6119fa565b606091505b5091509150818015611a24575080511580611a24575080806020019051810190611a249190612004565b6118065760405162461bcd60e51b815260206004820152600e60248201527f415050524f56455f4641494c45440000000000000000000000000000000000006044820152606401610530565b6006546040517f5f788d65000000000000000000000000000000000000000000000000000000008152600481018390526001600160a01b0391821660248201527f000000000000000000000000000000000000000000000000000000000000000090911690635f788d6590604401600060405180830381600087803b158015611af857600080fd5b505af1158015611b0c573d6000803e3d6000fd5b505060075460009250611b2991506001600160a01b031683611c79565b905061192a82826001611d09565b604080516001600160a01b038481166024830152604480830185905283518084039091018152606490920183526020820180517bffffffffffffffffffffffffffffffffffffffffffffffffffffffff167fa9059cbb000000000000000000000000000000000000000000000000000000001790529151600092839290871691611bc19190611fe8565b6000604051808303816000865af19150503d8060008114611bfe576040519150601f19603f3d011682016040523d82523d6000602084013e611c03565b606091505b5091509150818015611c2d575080511580611c2d575080806020019051810190611c2d9190612004565b6118065760405162461bcd60e51b815260206004820152600f60248201527f5452414e534645525f4641494c454400000000000000000000000000000000006044820152606401610530565b6000826001600160a01b031663313ce5676040518163ffffffff1660e01b8152600401602060405180830381865afa158015611cb9573d6000803e3d6000fd5b505050506040513d601f19601f82011682018060405250810190611cdd9190612026565b611ce890600a61212d565b611cf683633b9aca00611eef565b611d009190611f0e565b90505b92915050565b8015611d365782600a54611d1d9190611f30565b600a55600954611d2e908390611f30565b600955611928565b600a54831015611d565782600a54611d4e919061213c565b600a55611d5c565b6000600a555b600954821015611d745781600954611d2e919061213c565b6000600955505050565b6001600160a01b0381168114610dc257600080fd5b600060208284031215611da557600080fd5b8135611db081611d7e565b9392505050565b600060208284031215611dc957600080fd5b5035919050565b60008060408385031215611de357600080fd5b8235611dee81611d7e565b946020939093013593505050565b600060208284031215611e0e57600080fd5b8151611db081611d7e565b600060208083526000845481600182811c915080831680611e3b57607f831692505b8583108103611e5857634e487b7160e01b85526022600452602485fd5b878601838152602001818015611e755760018114611e8657611eb1565b60ff19861682528782019650611eb1565b60008b81526020902060005b86811015611eab57815484820152908501908901611e92565b83019750505b50949998505050505050505050565b600060208284031215611ed257600080fd5b5051919050565b634e487b7160e01b600052601160045260246000fd5b6000816000190483118215151615611f0957611f09611ed9565b500290565b600082611f2b57634e487b7160e01b600052601260045260246000fd5b500490565b60008219821115611f4357611f43611ed9565b500190565b60005b83811015611f63578181015183820152602001611f4b565b83811115611f72576000848401525b50505050565b602081526000825160a0602084015280518060c0850152611fa08160e0860160208501611f48565b6001600160a01b0360208601511660408501526040850151606085015260608501516080850152608085015160a085015260e0601f19601f8301168501019250505092915050565b60008251611ffa818460208701611f48565b9190910192915050565b60006020828403121561201657600080fd5b81518015158114611db057600080fd5b60006020828403121561203857600080fd5b815160ff81168114611db057600080fd5b600181815b8085111561208457816000190482111561206a5761206a611ed9565b8085161561207757918102915b93841c939080029061204e565b509250929050565b60008261209b57506001611d03565b816120a857506000611d03565b81600181146120be57600281146120c8576120e4565b6001915050611d03565b60ff8411156120d9576120d9611ed9565b50506001821b611d03565b5060208310610133831016604e8410600b8410161715612107575081810a611d03565b6121118383612049565b806000190482111561212557612125611ed9565b029392505050565b6000611d0060ff84168361208c565b60008282101561214e5761214e611ed9565b50039056fea264697066735822122074ee8df288745c0338f073514f254f69d9f9beee96392a444bf9bc32cc2901a664736f6c634300080e0033",
					"opcodes": "PUSH2 0x140 PUSH1 0x40 MSTORE PUSH1 0xC PUSH2 0x100 DUP2 SWAP1 MSTORE PUSH12 0x15539055551213D492569151 PUSH1 0xA2 SHL PUSH2 0x120 SWAP1 DUP2 MSTORE PUSH3 0x32 SWAP2 PUSH1 0x0 SWAP2 SWAP1 PUSH3 0x31C JUMP JUMPDEST POP PUSH3 0x50910 PUSH1 0x3 SSTORE PUSH2 0xBB8 PUSH1 0x4 SSTORE CALLVALUE DUP1 ISZERO PUSH3 0x4D JUMPI PUSH1 0x0 DUP1 REVERT JUMPDEST POP PUSH1 0x40 MLOAD PUSH3 0x2755 CODESIZE SUB DUP1 PUSH3 0x2755 DUP4 CODECOPY DUP2 ADD PUSH1 0x40 DUP2 SWAP1 MSTORE PUSH3 0x70 SWAP2 PUSH3 0x3DF JUMP JUMPDEST PUSH1 0x1 DUP1 SLOAD PUSH1 0x1 PUSH1 0x1 PUSH1 0xA0 SHL SUB NOT AND PUSH1 0x1 PUSH1 0x1 PUSH1 0xA0 SHL SUB DUP13 AND SWAP1 DUP2 OR SWAP1 SWAP2 SSTORE PUSH1 0x40 MLOAD DUP12 SWAP2 SWAP1 PUSH32 0x2F658B440C35314F52658EA8A740E05B284CDC84DC9AE01E891F21B8933E7CAD SWAP1 PUSH1 0x0 SWAP1 LOG2 POP PUSH1 0x2 DUP1 SLOAD PUSH1 0x1 PUSH1 0x1 PUSH1 0xA0 SHL SUB NOT SWAP1 DUP2 AND PUSH1 0x1 PUSH1 0x1 PUSH1 0xA0 SHL SUB DUP13 DUP2 AND SWAP2 DUP3 OR SWAP1 SWAP4 SSTORE PUSH1 0x7 DUP1 SLOAD DUP4 AND DUP13 DUP6 AND OR SWAP1 SSTORE PUSH1 0x8 DUP1 SLOAD DUP4 AND DUP12 DUP6 AND OR SWAP1 SSTORE DUP9 DUP4 AND PUSH1 0x80 MSTORE DUP8 DUP4 AND PUSH1 0xA0 MSTORE PUSH1 0x6 DUP1 SLOAD DUP4 AND DUP9 DUP6 AND OR SWAP1 SSTORE DUP6 DUP4 AND PUSH1 0xC0 DUP2 SWAP1 MSTORE PUSH1 0x5 DUP1 SLOAD SWAP1 SWAP4 AND DUP7 DUP6 AND OR SWAP1 SWAP3 SSTORE SWAP2 DUP4 AND PUSH1 0xE0 MSTORE PUSH3 0x142 SWAP2 PUSH1 0x0 NOT PUSH3 0x203 PUSH1 0x20 SWAP1 DUP2 SHL PUSH3 0x192E OR SWAP1 SHR JUMP JUMPDEST PUSH3 0x16D PUSH1 0xE0 MLOAD PUSH1 0x0 NOT PUSH1 0xC0 MLOAD PUSH1 0x1 PUSH1 0x1 PUSH1 0xA0 SHL SUB AND PUSH3 0x203 PUSH1 0x20 SHL PUSH3 0x192E OR SWAP1 SWAP3 SWAP2 SWAP1 PUSH1 0x20 SHR JUMP JUMPDEST PUSH1 0x80 MLOAD PUSH1 0x7 SLOAD PUSH3 0x199 SWAP2 PUSH1 0x1 PUSH1 0x1 PUSH1 0xA0 SHL SUB SWAP1 SWAP2 AND SWAP1 PUSH1 0x0 NOT PUSH3 0x203 PUSH1 0x20 SWAP1 DUP2 SHL PUSH3 0x192E OR SWAP1 SHR JUMP JUMPDEST PUSH1 0x2 SLOAD PUSH1 0x7 SLOAD PUSH3 0x1C6 SWAP2 PUSH1 0x1 PUSH1 0x1 PUSH1 0xA0 SHL SUB SWAP2 DUP3 AND SWAP2 AND PUSH1 0x0 NOT PUSH3 0x203 PUSH1 0x20 SWAP1 DUP2 SHL PUSH3 0x192E OR SWAP1 SHR JUMP JUMPDEST PUSH1 0x2 SLOAD PUSH1 0x8 SLOAD PUSH3 0x1F3 SWAP2 PUSH1 0x1 PUSH1 0x1 PUSH1 0xA0 SHL SUB SWAP2 DUP3 AND SWAP2 AND PUSH1 0x0 NOT PUSH3 0x203 PUSH1 0x20 SWAP1 DUP2 SHL PUSH3 0x192E OR SWAP1 SHR JUMP JUMPDEST POP POP POP POP POP POP POP POP POP POP PUSH3 0x553 JUMP JUMPDEST PUSH1 0x40 DUP1 MLOAD PUSH1 0x1 PUSH1 0x1 PUSH1 0xA0 SHL SUB DUP5 DUP2 AND PUSH1 0x24 DUP4 ADD MSTORE PUSH1 0x44 DUP1 DUP4 ADD DUP6 SWAP1 MSTORE DUP4 MLOAD DUP1 DUP5 SUB SWAP1 SWAP2 ADD DUP2 MSTORE PUSH1 0x64 SWAP1 SWAP3 ADD DUP4 MSTORE PUSH1 0x20 DUP3 ADD DUP1 MLOAD PUSH1 0x1 PUSH1 0x1 PUSH1 0xE0 SHL SUB AND PUSH4 0x95EA7B3 PUSH1 0xE0 SHL OR SWAP1 MSTORE SWAP2 MLOAD PUSH1 0x0 SWAP3 DUP4 SWAP3 SWAP1 DUP8 AND SWAP2 PUSH3 0x261 SWAP2 SWAP1 PUSH3 0x4AE JUMP JUMPDEST PUSH1 0x0 PUSH1 0x40 MLOAD DUP1 DUP4 SUB DUP2 PUSH1 0x0 DUP7 GAS CALL SWAP2 POP POP RETURNDATASIZE DUP1 PUSH1 0x0 DUP2 EQ PUSH3 0x2A0 JUMPI PUSH1 0x40 MLOAD SWAP2 POP PUSH1 0x1F NOT PUSH1 0x3F RETURNDATASIZE ADD AND DUP3 ADD PUSH1 0x40 MSTORE RETURNDATASIZE DUP3 MSTORE RETURNDATASIZE PUSH1 0x0 PUSH1 0x20 DUP5 ADD RETURNDATACOPY PUSH3 0x2A5 JUMP JUMPDEST PUSH1 0x60 SWAP2 POP JUMPDEST POP SWAP2 POP SWAP2 POP DUP2 DUP1 ISZERO PUSH3 0x2D3 JUMPI POP DUP1 MLOAD ISZERO DUP1 PUSH3 0x2D3 JUMPI POP DUP1 DUP1 PUSH1 0x20 ADD SWAP1 MLOAD DUP2 ADD SWAP1 PUSH3 0x2D3 SWAP2 SWAP1 PUSH3 0x4EC JUMP JUMPDEST PUSH3 0x315 JUMPI PUSH1 0x40 MLOAD PUSH3 0x461BCD PUSH1 0xE5 SHL DUP2 MSTORE PUSH1 0x20 PUSH1 0x4 DUP3 ADD MSTORE PUSH1 0xE PUSH1 0x24 DUP3 ADD MSTORE PUSH14 0x1054141493D59157D19052531151 PUSH1 0x92 SHL PUSH1 0x44 DUP3 ADD MSTORE PUSH1 0x64 ADD PUSH1 0x40 MLOAD DUP1 SWAP2 SUB SWAP1 REVERT JUMPDEST POP POP POP POP POP JUMP JUMPDEST DUP3 DUP1 SLOAD PUSH3 0x32A SWAP1 PUSH3 0x517 JUMP JUMPDEST SWAP1 PUSH1 0x0 MSTORE PUSH1 0x20 PUSH1 0x0 KECCAK256 SWAP1 PUSH1 0x1F ADD PUSH1 0x20 SWAP1 DIV DUP2 ADD SWAP3 DUP3 PUSH3 0x34E JUMPI PUSH1 0x0 DUP6 SSTORE PUSH3 0x399 JUMP JUMPDEST DUP3 PUSH1 0x1F LT PUSH3 0x369 JUMPI DUP1 MLOAD PUSH1 0xFF NOT AND DUP4 DUP1 ADD OR DUP6 SSTORE PUSH3 0x399 JUMP JUMPDEST DUP3 DUP1 ADD PUSH1 0x1 ADD DUP6 SSTORE DUP3 ISZERO PUSH3 0x399 JUMPI SWAP2 DUP3 ADD JUMPDEST DUP3 DUP2 GT ISZERO PUSH3 0x399 JUMPI DUP3 MLOAD DUP3 SSTORE SWAP2 PUSH1 0x20 ADD SWAP2 SWAP1 PUSH1 0x1 ADD SWAP1 PUSH3 0x37C JUMP JUMPDEST POP PUSH3 0x3A7 SWAP3 SWAP2 POP PUSH3 0x3AB JUMP JUMPDEST POP SWAP1 JUMP JUMPDEST JUMPDEST DUP1 DUP3 GT ISZERO PUSH3 0x3A7 JUMPI PUSH1 0x0 DUP2 SSTORE PUSH1 0x1 ADD PUSH3 0x3AC JUMP JUMPDEST DUP1 MLOAD PUSH1 0x1 PUSH1 0x1 PUSH1 0xA0 SHL SUB DUP2 AND DUP2 EQ PUSH3 0x3DA JUMPI PUSH1 0x0 DUP1 REVERT JUMPDEST SWAP2 SWAP1 POP JUMP JUMPDEST PUSH1 0x0 DUP1 PUSH1 0x0 DUP1 PUSH1 0x0 DUP1 PUSH1 0x0 DUP1 PUSH1 0x0 DUP1 PUSH2 0x140 DUP12 DUP14 SUB SLT ISZERO PUSH3 0x400 JUMPI PUSH1 0x0 DUP1 REVERT JUMPDEST PUSH3 0x40B DUP12 PUSH3 0x3C2 JUMP JUMPDEST SWAP10 POP PUSH3 0x41B PUSH1 0x20 DUP13 ADD PUSH3 0x3C2 JUMP JUMPDEST SWAP9 POP PUSH3 0x42B PUSH1 0x40 DUP13 ADD PUSH3 0x3C2 JUMP JUMPDEST SWAP8 POP PUSH3 0x43B PUSH1 0x60 DUP13 ADD PUSH3 0x3C2 JUMP JUMPDEST SWAP7 POP PUSH3 0x44B PUSH1 0x80 DUP13 ADD PUSH3 0x3C2 JUMP JUMPDEST SWAP6 POP PUSH3 0x45B PUSH1 0xA0 DUP13 ADD PUSH3 0x3C2 JUMP JUMPDEST SWAP5 POP PUSH3 0x46B PUSH1 0xC0 DUP13 ADD PUSH3 0x3C2 JUMP JUMPDEST SWAP4 POP PUSH3 0x47B PUSH1 0xE0 DUP13 ADD PUSH3 0x3C2 JUMP JUMPDEST SWAP3 POP PUSH3 0x48C PUSH2 0x100 DUP13 ADD PUSH3 0x3C2 JUMP JUMPDEST SWAP2 POP PUSH3 0x49D PUSH2 0x120 DUP13 ADD PUSH3 0x3C2 JUMP JUMPDEST SWAP1 POP SWAP3 SWAP6 SWAP9 SWAP12 SWAP2 SWAP5 SWAP8 SWAP11 POP SWAP3 SWAP6 SWAP9 POP JUMP JUMPDEST PUSH1 0x0 DUP3 MLOAD PUSH1 0x0 JUMPDEST DUP2 DUP2 LT ISZERO PUSH3 0x4D1 JUMPI PUSH1 0x20 DUP2 DUP7 ADD DUP2 ADD MLOAD DUP6 DUP4 ADD MSTORE ADD PUSH3 0x4B5 JUMP JUMPDEST DUP2 DUP2 GT ISZERO PUSH3 0x4E1 JUMPI PUSH1 0x0 DUP3 DUP6 ADD MSTORE JUMPDEST POP SWAP2 SWAP1 SWAP2 ADD SWAP3 SWAP2 POP POP JUMP JUMPDEST PUSH1 0x0 PUSH1 0x20 DUP3 DUP5 SUB SLT ISZERO PUSH3 0x4FF JUMPI PUSH1 0x0 DUP1 REVERT JUMPDEST DUP2 MLOAD DUP1 ISZERO ISZERO DUP2 EQ PUSH3 0x510 JUMPI PUSH1 0x0 DUP1 REVERT JUMPDEST SWAP4 SWAP3 POP POP POP JUMP JUMPDEST PUSH1 0x1 DUP2 DUP2 SHR SWAP1 DUP3 AND DUP1 PUSH3 0x52C JUMPI PUSH1 0x7F DUP3 AND SWAP2 POP JUMPDEST PUSH1 0x20 DUP3 LT DUP2 SUB PUSH3 0x54D JUMPI PUSH4 0x4E487B71 PUSH1 0xE0 SHL PUSH1 0x0 MSTORE PUSH1 0x22 PUSH1 0x4 MSTORE PUSH1 0x24 PUSH1 0x0 REVERT JUMPDEST POP SWAP2 SWAP1 POP JUMP JUMPDEST PUSH1 0x80 MLOAD PUSH1 0xA0 MLOAD PUSH1 0xC0 MLOAD PUSH1 0xE0 MLOAD PUSH2 0x2189 PUSH3 0x5CC PUSH1 0x0 CODECOPY PUSH1 0x0 PUSH2 0x1307 ADD MSTORE PUSH1 0x0 DUP2 DUP2 PUSH2 0x111F ADD MSTORE DUP2 DUP2 PUSH2 0x11A7 ADD MSTORE DUP2 DUP2 PUSH2 0x1276 ADD MSTORE DUP2 DUP2 PUSH2 0x13CE ADD MSTORE PUSH2 0x145A ADD MSTORE PUSH1 0x0 DUP2 DUP2 PUSH2 0x10AF ADD MSTORE PUSH2 0x183C ADD MSTORE PUSH1 0x0 DUP2 DUP2 PUSH2 0x69E ADD MSTORE DUP2 DUP2 PUSH2 0x748 ADD MSTORE DUP2 DUP2 PUSH2 0xFA5 ADD MSTORE DUP2 DUP2 PUSH2 0x1684 ADD MSTORE PUSH2 0x1AB2 ADD MSTORE PUSH2 0x2189 PUSH1 0x0 RETURN INVALID PUSH1 0x80 PUSH1 0x40 MSTORE PUSH1 0x4 CALLDATASIZE LT PUSH2 0x183 JUMPI PUSH1 0x0 CALLDATALOAD PUSH1 0xE0 SHR DUP1 PUSH4 0x817F6481 GT PUSH2 0xD6 JUMPI DUP1 PUSH4 0xBF7E214F GT PUSH2 0x7F JUMPI DUP1 PUSH4 0xE616916A GT PUSH2 0x59 JUMPI DUP1 PUSH4 0xE616916A EQ PUSH2 0x438 JUMPI DUP1 PUSH4 0xE63A391F EQ PUSH2 0x44E JUMPI DUP1 PUSH4 0xF3FEF3A3 EQ PUSH2 0x465 JUMPI PUSH1 0x0 DUP1 REVERT JUMPDEST DUP1 PUSH4 0xBF7E214F EQ PUSH2 0x3D2 JUMPI DUP1 PUSH4 0xC901761D EQ PUSH2 0x3F2 JUMPI DUP1 PUSH4 0xDDC63262 EQ PUSH2 0x408 JUMPI PUSH1 0x0 DUP1 REVERT JUMPDEST DUP1 PUSH4 0x9C769787 GT PUSH2 0xB0 JUMPI DUP1 PUSH4 0x9C769787 EQ PUSH2 0x37D JUMPI DUP1 PUSH4 0xB6B55F25 EQ PUSH2 0x392 JUMPI DUP1 PUSH4 0xB7E78648 EQ PUSH2 0x3B2 JUMPI PUSH1 0x0 DUP1 REVERT JUMPDEST DUP1 PUSH4 0x817F6481 EQ PUSH2 0x327 JUMPI DUP1 PUSH4 0x9501DC87 EQ PUSH2 0x347 JUMPI DUP1 PUSH4 0x987F56FF EQ PUSH2 0x367 JUMPI PUSH1 0x0 DUP1 REVERT JUMPDEST DUP1 PUSH4 0x61D027B3 GT PUSH2 0x138 JUMPI DUP1 PUSH4 0x78289ED2 GT PUSH2 0x112 JUMPI DUP1 PUSH4 0x78289ED2 EQ PUSH2 0x2DD JUMPI DUP1 PUSH4 0x78767D05 EQ PUSH2 0x2F2 JUMPI DUP1 PUSH4 0x7A9E5E4B EQ PUSH2 0x307 JUMPI PUSH1 0x0 DUP1 REVERT JUMPDEST DUP1 PUSH4 0x61D027B3 EQ PUSH2 0x287 JUMPI DUP1 PUSH4 0x6BD0FD0F EQ PUSH2 0x2A7 JUMPI DUP1 PUSH4 0x739A4A37 EQ PUSH2 0x2C7 JUMPI PUSH1 0x0 DUP1 REVERT JUMPDEST DUP1 PUSH4 0x10A18DE2 GT PUSH2 0x169 JUMPI DUP1 PUSH4 0x10A18DE2 EQ PUSH2 0x225 JUMPI DUP1 PUSH4 0x1D2528FC EQ PUSH2 0x245 JUMPI DUP1 PUSH4 0x5A762D64 EQ PUSH2 0x265 JUMPI PUSH1 0x0 DUP1 REVERT JUMPDEST DUP1 PUSH3 0x2FCD3 EQ PUSH2 0x1C4 JUMPI DUP1 PUSH4 0x89FE6AA EQ PUSH2 0x201 JUMPI PUSH1 0x0 DUP1 REVERT JUMPDEST CALLDATASIZE PUSH2 0x1BF JUMPI PUSH1 0x40 MLOAD CALLVALUE DUP2 MSTORE CALLER SWAP1 PUSH32 0xE1FFFCC4923D04B559F4D29A8BFC6CDA04EB5B0D3C460751C2402C5C5CC9109C SWAP1 PUSH1 0x20 ADD PUSH1 0x40 MLOAD DUP1 SWAP2 SUB SWAP1 LOG2 STOP JUMPDEST PUSH1 0x0 DUP1 REVERT JUMPDEST CALLVALUE DUP1 ISZERO PUSH2 0x1D0 JUMPI PUSH1 0x0 DUP1 REVERT JUMPDEST POP PUSH1 0x7 SLOAD PUSH2 0x1E4 SWAP1 PUSH1 0x1 PUSH1 0x1 PUSH1 0xA0 SHL SUB AND DUP2 JUMP JUMPDEST PUSH1 0x40 MLOAD PUSH1 0x1 PUSH1 0x1 PUSH1 0xA0 SHL SUB SWAP1 SWAP2 AND DUP2 MSTORE PUSH1 0x20 ADD JUMPDEST PUSH1 0x40 MLOAD DUP1 SWAP2 SUB SWAP1 RETURN JUMPDEST CALLVALUE DUP1 ISZERO PUSH2 0x20D JUMPI PUSH1 0x0 DUP1 REVERT JUMPDEST POP PUSH2 0x217 PUSH1 0x4 SLOAD DUP2 JUMP JUMPDEST PUSH1 0x40 MLOAD SWAP1 DUP2 MSTORE PUSH1 0x20 ADD PUSH2 0x1F8 JUMP JUMPDEST CALLVALUE DUP1 ISZERO PUSH2 0x231 JUMPI PUSH1 0x0 DUP1 REVERT JUMPDEST POP PUSH1 0x5 SLOAD PUSH2 0x1E4 SWAP1 PUSH1 0x1 PUSH1 0x1 PUSH1 0xA0 SHL SUB AND DUP2 JUMP JUMPDEST CALLVALUE DUP1 ISZERO PUSH2 0x251 JUMPI PUSH1 0x0 DUP1 REVERT JUMPDEST POP PUSH1 0x6 SLOAD PUSH2 0x1E4 SWAP1 PUSH1 0x1 PUSH1 0x1 PUSH1 0xA0 SHL SUB AND DUP2 JUMP JUMPDEST CALLVALUE DUP1 ISZERO PUSH2 0x271 JUMPI PUSH1 0x0 DUP1 REVERT JUMPDEST POP PUSH2 0x285 PUSH2 0x280 CALLDATASIZE PUSH1 0x4 PUSH2 0x1D93 JUMP JUMPDEST PUSH2 0x485 JUMP JUMPDEST STOP JUMPDEST CALLVALUE DUP1 ISZERO PUSH2 0x293 JUMPI PUSH1 0x0 DUP1 REVERT JUMPDEST POP PUSH1 0x2 SLOAD PUSH2 0x1E4 SWAP1 PUSH1 0x1 PUSH1 0x1 PUSH1 0xA0 SHL SUB AND DUP2 JUMP JUMPDEST CALLVALUE DUP1 ISZERO PUSH2 0x2B3 JUMPI PUSH1 0x0 DUP1 REVERT JUMPDEST POP PUSH2 0x285 PUSH2 0x2C2 CALLDATASIZE PUSH1 0x4 PUSH2 0x1DB7 JUMP JUMPDEST PUSH2 0x569 JUMP JUMPDEST CALLVALUE DUP1 ISZERO PUSH2 0x2D3 JUMPI PUSH1 0x0 DUP1 REVERT JUMPDEST POP PUSH2 0x217 PUSH2 0x2710 DUP2 JUMP JUMPDEST CALLVALUE DUP1 ISZERO PUSH2 0x2E9 JUMPI PUSH1 0x0 DUP1 REVERT JUMPDEST POP PUSH2 0x217 PUSH2 0x66D JUMP JUMPDEST CALLVALUE DUP1 ISZERO PUSH2 0x2FE JUMPI PUSH1 0x0 DUP1 REVERT JUMPDEST POP PUSH2 0x217 PUSH2 0x717 JUMP JUMPDEST CALLVALUE DUP1 ISZERO PUSH2 0x313 JUMPI PUSH1 0x0 DUP1 REVERT JUMPDEST POP PUSH2 0x285 PUSH2 0x322 CALLDATASIZE PUSH1 0x4 PUSH2 0x1D93 JUMP JUMPDEST PUSH2 0x77F JUMP JUMPDEST CALLVALUE DUP1 ISZERO PUSH2 0x333 JUMPI PUSH1 0x0 DUP1 REVERT JUMPDEST POP PUSH1 0x8 SLOAD PUSH2 0x1E4 SWAP1 PUSH1 0x1 PUSH1 0x1 PUSH1 0xA0 SHL SUB AND DUP2 JUMP JUMPDEST CALLVALUE DUP1 ISZERO PUSH2 0x353 JUMPI PUSH1 0x0 DUP1 REVERT JUMPDEST POP PUSH2 0x285 PUSH2 0x362 CALLDATASIZE PUSH1 0x4 PUSH2 0x1DB7 JUMP JUMPDEST PUSH2 0x882 JUMP JUMPDEST CALLVALUE DUP1 ISZERO PUSH2 0x373 JUMPI PUSH1 0x0 DUP1 REVERT JUMPDEST POP PUSH2 0x217 PUSH1 0xA SLOAD DUP2 JUMP JUMPDEST CALLVALUE DUP1 ISZERO PUSH2 0x389 JUMPI PUSH1 0x0 DUP1 REVERT JUMPDEST POP PUSH2 0x285 PUSH2 0x9AB JUMP JUMPDEST CALLVALUE DUP1 ISZERO PUSH2 0x39E JUMPI PUSH1 0x0 DUP1 REVERT JUMPDEST POP PUSH2 0x285 PUSH2 0x3AD CALLDATASIZE PUSH1 0x4 PUSH2 0x1DB7 JUMP JUMPDEST PUSH2 0xC8C JUMP JUMPDEST CALLVALUE DUP1 ISZERO PUSH2 0x3BE JUMPI PUSH1 0x0 DUP1 REVERT JUMPDEST POP PUSH2 0x285 PUSH2 0x3CD CALLDATASIZE PUSH1 0x4 PUSH2 0x1D93 JUMP JUMPDEST PUSH2 0xDC5 JUMP JUMPDEST CALLVALUE DUP1 ISZERO PUSH2 0x3DE JUMPI PUSH1 0x0 DUP1 REVERT JUMPDEST POP PUSH1 0x1 SLOAD PUSH2 0x1E4 SWAP1 PUSH1 0x1 PUSH1 0x1 PUSH1 0xA0 SHL SUB AND DUP2 JUMP JUMPDEST CALLVALUE DUP1 ISZERO PUSH2 0x3FE JUMPI PUSH1 0x0 DUP1 REVERT JUMPDEST POP PUSH2 0x217 PUSH1 0x9 SLOAD DUP2 JUMP JUMPDEST CALLVALUE DUP1 ISZERO PUSH2 0x414 JUMPI PUSH1 0x0 DUP1 REVERT JUMPDEST POP PUSH2 0x428 PUSH2 0x423 CALLDATASIZE PUSH1 0x4 PUSH2 0x1DB7 JUMP JUMPDEST PUSH2 0xEA0 JUMP JUMPDEST PUSH1 0x40 MLOAD SWAP1 ISZERO ISZERO DUP2 MSTORE PUSH1 0x20 ADD PUSH2 0x1F8 JUMP JUMPDEST CALLVALUE DUP1 ISZERO PUSH2 0x444 JUMPI PUSH1 0x0 DUP1 REVERT JUMPDEST POP PUSH2 0x217 PUSH1 0x3 SLOAD DUP2 JUMP JUMPDEST CALLVALUE DUP1 ISZERO PUSH2 0x45A JUMPI PUSH1 0x0 DUP1 REVERT JUMPDEST POP PUSH2 0x217 PUSH3 0xF4240 DUP2 JUMP JUMPDEST CALLVALUE DUP1 ISZERO PUSH2 0x471 JUMPI PUSH1 0x0 DUP1 REVERT JUMPDEST POP PUSH2 0x285 PUSH2 0x480 CALLDATASIZE PUSH1 0x4 PUSH2 0x1DD0 JUMP JUMPDEST PUSH2 0x1511 JUMP JUMPDEST PUSH1 0x1 PUSH1 0x0 SWAP1 SLOAD SWAP1 PUSH2 0x100 EXP SWAP1 DIV PUSH1 0x1 PUSH1 0x1 PUSH1 0xA0 SHL SUB AND PUSH1 0x1 PUSH1 0x1 PUSH1 0xA0 SHL SUB AND PUSH4 0x452A9320 PUSH1 0x40 MLOAD DUP2 PUSH4 0xFFFFFFFF AND PUSH1 0xE0 SHL DUP2 MSTORE PUSH1 0x4 ADD PUSH1 0x20 PUSH1 0x40 MLOAD DUP1 DUP4 SUB DUP2 DUP7 GAS STATICCALL ISZERO DUP1 ISZERO PUSH2 0x4D8 JUMPI RETURNDATASIZE PUSH1 0x0 DUP1 RETURNDATACOPY RETURNDATASIZE PUSH1 0x0 REVERT JUMPDEST POP POP POP POP PUSH1 0x40 MLOAD RETURNDATASIZE PUSH1 0x1F NOT PUSH1 0x1F DUP3 ADD AND DUP3 ADD DUP1 PUSH1 0x40 MSTORE POP DUP2 ADD SWAP1 PUSH2 0x4FC SWAP2 SWAP1 PUSH2 0x1DFC JUMP JUMPDEST PUSH1 0x1 PUSH1 0x1 PUSH1 0xA0 SHL SUB AND CALLER PUSH1 0x1 PUSH1 0x1 PUSH1 0xA0 SHL SUB AND EQ PUSH1 0x0 SWAP1 PUSH2 0x539 JUMPI PUSH1 0x40 MLOAD PUSH3 0x461BCD PUSH1 0xE5 SHL DUP2 MSTORE PUSH1 0x4 ADD PUSH2 0x530 SWAP2 SWAP1 PUSH2 0x1E19 JUMP JUMPDEST PUSH1 0x40 MLOAD DUP1 SWAP2 SUB SWAP1 REVERT JUMPDEST POP PUSH1 0x5 DUP1 SLOAD PUSH20 0xFFFFFFFFFFFFFFFFFFFFFFFFFFFFFFFFFFFFFFFF NOT AND PUSH1 0x1 PUSH1 0x1 PUSH1 0xA0 SHL SUB SWAP3 SWAP1 SWAP3 AND SWAP2 SWAP1 SWAP2 OR SWAP1 SSTORE JUMP JUMPDEST PUSH1 0x1 PUSH1 0x0 SWAP1 SLOAD SWAP1 PUSH2 0x100 EXP SWAP1 DIV PUSH1 0x1 PUSH1 0x1 PUSH1 0xA0 SHL SUB AND PUSH1 0x1 PUSH1 0x1 PUSH1 0xA0 SHL SUB AND PUSH4 0x452A9320 PUSH1 0x40 MLOAD DUP2 PUSH4 0xFFFFFFFF AND PUSH1 0xE0 SHL DUP2 MSTORE PUSH1 0x4 ADD PUSH1 0x20 PUSH1 0x40 MLOAD DUP1 DUP4 SUB DUP2 DUP7 GAS STATICCALL ISZERO DUP1 ISZERO PUSH2 0x5BC JUMPI RETURNDATASIZE PUSH1 0x0 DUP1 RETURNDATACOPY RETURNDATASIZE PUSH1 0x0 REVERT JUMPDEST POP POP POP POP PUSH1 0x40 MLOAD RETURNDATASIZE PUSH1 0x1F NOT PUSH1 0x1F DUP3 ADD AND DUP3 ADD DUP1 PUSH1 0x40 MSTORE POP DUP2 ADD SWAP1 PUSH2 0x5E0 SWAP2 SWAP1 PUSH2 0x1DFC JUMP JUMPDEST PUSH1 0x1 PUSH1 0x1 PUSH1 0xA0 SHL SUB AND CALLER PUSH1 0x1 PUSH1 0x1 PUSH1 0xA0 SHL SUB AND EQ PUSH1 0x0 SWAP1 PUSH2 0x614 JUMPI PUSH1 0x40 MLOAD PUSH3 0x461BCD PUSH1 0xE5 SHL DUP2 MSTORE PUSH1 0x4 ADD PUSH2 0x530 SWAP2 SWAP1 PUSH2 0x1E19 JUMP JUMPDEST POP PUSH3 0xF4240 DUP2 GT ISZERO PUSH2 0x668 JUMPI PUSH1 0x40 MLOAD PUSH3 0x461BCD PUSH1 0xE5 SHL DUP2 MSTORE PUSH1 0x20 PUSH1 0x4 DUP3 ADD MSTORE PUSH1 0x1F PUSH1 0x24 DUP3 ADD MSTORE PUSH32 0x56616C7565206D757374206265206265747765656E203020616E642031653600 PUSH1 0x44 DUP3 ADD MSTORE PUSH1 0x64 ADD PUSH2 0x530 JUMP JUMPDEST PUSH1 0x3 SSTORE JUMP JUMPDEST PUSH1 0x40 MLOAD PUSH32 0x389E92A500000000000000000000000000000000000000000000000000000000 DUP2 MSTORE ADDRESS PUSH1 0x4 DUP3 ADD MSTORE PUSH1 0x0 SWAP1 PUSH32 0x0 PUSH1 0x1 PUSH1 0x1 PUSH1 0xA0 SHL SUB AND SWAP1 PUSH4 0x389E92A5 SWAP1 PUSH1 0x24 ADD JUMPDEST PUSH1 0x20 PUSH1 0x40 MLOAD DUP1 DUP4 SUB DUP2 DUP7 GAS STATICCALL ISZERO DUP1 ISZERO PUSH2 0x6EE JUMPI RETURNDATASIZE PUSH1 0x0 DUP1 RETURNDATACOPY RETURNDATASIZE PUSH1 0x0 REVERT JUMPDEST POP POP POP POP PUSH1 0x40 MLOAD RETURNDATASIZE PUSH1 0x1F NOT PUSH1 0x1F DUP3 ADD AND DUP3 ADD DUP1 PUSH1 0x40 MSTORE POP DUP2 ADD SWAP1 PUSH2 0x712 SWAP2 SWAP1 PUSH2 0x1EC0 JUMP JUMPDEST SWAP1 POP SWAP1 JUMP JUMPDEST PUSH1 0x40 MLOAD PUSH32 0xF5F1595D00000000000000000000000000000000000000000000000000000000 DUP2 MSTORE ADDRESS PUSH1 0x4 DUP3 ADD MSTORE PUSH1 0x0 SWAP1 PUSH32 0x0 PUSH1 0x1 PUSH1 0x1 PUSH1 0xA0 SHL SUB AND SWAP1 PUSH4 0xF5F1595D SWAP1 PUSH1 0x24 ADD PUSH2 0x6D1 JUMP JUMPDEST PUSH1 0x1 PUSH1 0x0 SWAP1 SLOAD SWAP1 PUSH2 0x100 EXP SWAP1 DIV PUSH1 0x1 PUSH1 0x1 PUSH1 0xA0 SHL SUB AND PUSH1 0x1 PUSH1 0x1 PUSH1 0xA0 SHL SUB AND PUSH4 0xC340A24 PUSH1 0x40 MLOAD DUP2 PUSH4 0xFFFFFFFF AND PUSH1 0xE0 SHL DUP2 MSTORE PUSH1 0x4 ADD PUSH1 0x20 PUSH1 0x40 MLOAD DUP1 DUP4 SUB DUP2 DUP7 GAS STATICCALL ISZERO DUP1 ISZERO PUSH2 0x7D2 JUMPI RETURNDATASIZE PUSH1 0x0 DUP1 RETURNDATACOPY RETURNDATASIZE PUSH1 0x0 REVERT JUMPDEST POP POP POP POP PUSH1 0x40 MLOAD RETURNDATASIZE PUSH1 0x1F NOT PUSH1 0x1F DUP3 ADD AND DUP3 ADD DUP1 PUSH1 0x40 MSTORE POP DUP2 ADD SWAP1 PUSH2 0x7F6 SWAP2 SWAP1 PUSH2 0x1DFC JUMP JUMPDEST PUSH1 0x1 PUSH1 0x1 PUSH1 0xA0 SHL SUB AND CALLER PUSH1 0x1 PUSH1 0x1 PUSH1 0xA0 SHL SUB AND EQ PUSH1 0x0 SWAP1 PUSH2 0x82A JUMPI PUSH1 0x40 MLOAD PUSH3 0x461BCD PUSH1 0xE5 SHL DUP2 MSTORE PUSH1 0x4 ADD PUSH2 0x530 SWAP2 SWAP1 PUSH2 0x1E19 JUMP JUMPDEST POP PUSH1 0x1 DUP1 SLOAD PUSH20 0xFFFFFFFFFFFFFFFFFFFFFFFFFFFFFFFFFFFFFFFF NOT AND PUSH1 0x1 PUSH1 0x1 PUSH1 0xA0 SHL SUB DUP4 AND SWAP1 DUP2 OR SWAP1 SWAP2 SSTORE PUSH1 0x40 MLOAD PUSH32 0x2F658B440C35314F52658EA8A740E05B284CDC84DC9AE01E891F21B8933E7CAD SWAP1 PUSH1 0x0 SWAP1 LOG2 POP JUMP JUMPDEST PUSH1 0x1 PUSH1 0x0 SWAP1 SLOAD SWAP1 PUSH2 0x100 EXP SWAP1 DIV PUSH1 0x1 PUSH1 0x1 PUSH1 0xA0 SHL SUB AND PUSH1 0x1 PUSH1 0x1 PUSH1 0xA0 SHL SUB AND PUSH4 0x452A9320 PUSH1 0x40 MLOAD DUP2 PUSH4 0xFFFFFFFF AND PUSH1 0xE0 SHL DUP2 MSTORE PUSH1 0x4 ADD PUSH1 0x20 PUSH1 0x40 MLOAD DUP1 DUP4 SUB DUP2 DUP7 GAS STATICCALL ISZERO DUP1 ISZERO PUSH2 0x8D5 JUMPI RETURNDATASIZE PUSH1 0x0 DUP1 RETURNDATACOPY RETURNDATASIZE PUSH1 0x0 REVERT JUMPDEST POP POP POP POP PUSH1 0x40 MLOAD RETURNDATASIZE PUSH1 0x1F NOT PUSH1 0x1F DUP3 ADD AND DUP3 ADD DUP1 PUSH1 0x40 MSTORE POP DUP2 ADD SWAP1 PUSH2 0x8F9 SWAP2 SWAP1 PUSH2 0x1DFC JUMP JUMPDEST PUSH1 0x1 PUSH1 0x1 PUSH1 0xA0 SHL SUB AND CALLER PUSH1 0x1 PUSH1 0x1 PUSH1 0xA0 SHL SUB AND EQ PUSH1 0x0 SWAP1 PUSH2 0x92D JUMPI PUSH1 0x40 MLOAD PUSH3 0x461BCD PUSH1 0xE5 SHL DUP2 MSTORE PUSH1 0x4 ADD PUSH2 0x530 SWAP2 SWAP1 PUSH2 0x1E19 JUMP JUMPDEST POP PUSH2 0x2710 DUP2 GT ISZERO PUSH2 0x9A6 JUMPI PUSH1 0x40 MLOAD PUSH3 0x461BCD PUSH1 0xE5 SHL DUP2 MSTORE PUSH1 0x20 PUSH1 0x4 DUP3 ADD MSTORE PUSH1 0x21 PUSH1 0x24 DUP3 ADD MSTORE PUSH32 0x56616C7565206D757374206265206265747765656E203020616E642031303030 PUSH1 0x44 DUP3 ADD MSTORE PUSH32 0x3000000000000000000000000000000000000000000000000000000000000000 PUSH1 0x64 DUP3 ADD MSTORE PUSH1 0x84 ADD PUSH2 0x530 JUMP JUMPDEST PUSH1 0x4 SSTORE JUMP JUMPDEST PUSH1 0x1 PUSH1 0x0 SWAP1 SLOAD SWAP1 PUSH2 0x100 EXP SWAP1 DIV PUSH1 0x1 PUSH1 0x1 PUSH1 0xA0 SHL SUB AND PUSH1 0x1 PUSH1 0x1 PUSH1 0xA0 SHL SUB AND PUSH4 0x452A9320 PUSH1 0x40 MLOAD DUP2 PUSH4 0xFFFFFFFF AND PUSH1 0xE0 SHL DUP2 MSTORE PUSH1 0x4 ADD PUSH1 0x20 PUSH1 0x40 MLOAD DUP1 DUP4 SUB DUP2 DUP7 GAS STATICCALL ISZERO DUP1 ISZERO PUSH2 0x9FE JUMPI RETURNDATASIZE PUSH1 0x0 DUP1 RETURNDATACOPY RETURNDATASIZE PUSH1 0x0 REVERT JUMPDEST POP POP POP POP PUSH1 0x40 MLOAD RETURNDATASIZE PUSH1 0x1F NOT PUSH1 0x1F DUP3 ADD AND DUP3 ADD DUP1 PUSH1 0x40 MSTORE POP DUP2 ADD SWAP1 PUSH2 0xA22 SWAP2 SWAP1 PUSH2 0x1DFC JUMP JUMPDEST PUSH1 0x1 PUSH1 0x1 PUSH1 0xA0 SHL SUB AND CALLER PUSH1 0x1 PUSH1 0x1 PUSH1 0xA0 SHL SUB AND EQ PUSH1 0x0 SWAP1 PUSH2 0xA56 JUMPI PUSH1 0x40 MLOAD PUSH3 0x461BCD PUSH1 0xE5 SHL DUP2 MSTORE PUSH1 0x4 ADD PUSH2 0x530 SWAP2 SWAP1 PUSH2 0x1E19 JUMP JUMPDEST POP PUSH1 0x1 SLOAD PUSH1 0x40 DUP1 MLOAD PUSH4 0xFBFA77CF PUSH1 0xE0 SHL DUP2 MSTORE SWAP1 MLOAD PUSH1 0x0 SWAP3 PUSH1 0x1 PUSH1 0x1 PUSH1 0xA0 SHL SUB AND SWAP2 PUSH4 0xFBFA77CF SWAP2 PUSH1 0x4 DUP1 DUP4 ADD SWAP3 PUSH1 0x20 SWAP3 SWAP2 SWAP1 DUP3 SWAP1 SUB ADD DUP2 DUP7 GAS STATICCALL ISZERO DUP1 ISZERO PUSH2 0xAA1 JUMPI RETURNDATASIZE PUSH1 0x0 DUP1 RETURNDATACOPY RETURNDATASIZE PUSH1 0x0 REVERT JUMPDEST POP POP POP POP PUSH1 0x40 MLOAD RETURNDATASIZE PUSH1 0x1F NOT PUSH1 0x1F DUP3 ADD AND DUP3 ADD DUP1 PUSH1 0x40 MSTORE POP DUP2 ADD SWAP1 PUSH2 0xAC5 SWAP2 SWAP1 PUSH2 0x1DFC JUMP JUMPDEST PUSH1 0x1 PUSH1 0x1 PUSH1 0xA0 SHL SUB AND SUB PUSH2 0xB1B JUMPI PUSH1 0x40 MLOAD PUSH3 0x461BCD PUSH1 0xE5 SHL DUP2 MSTORE PUSH1 0x20 PUSH1 0x4 DUP3 ADD MSTORE PUSH1 0x13 PUSH1 0x24 DUP3 ADD MSTORE PUSH32 0x5A65726F20616464726573733A205661756C7400000000000000000000000000 PUSH1 0x44 DUP3 ADD MSTORE PUSH1 0x64 ADD PUSH2 0x530 JUMP JUMPDEST PUSH1 0x2 SLOAD PUSH1 0x1 SLOAD PUSH1 0x40 DUP1 MLOAD PUSH4 0xFBFA77CF PUSH1 0xE0 SHL DUP2 MSTORE SWAP1 MLOAD PUSH1 0x1 PUSH1 0x1 PUSH1 0xA0 SHL SUB SWAP4 DUP5 AND SWAP4 SWAP1 SWAP3 AND SWAP2 PUSH4 0xFBFA77CF SWAP2 PUSH1 0x4 DUP1 DUP3 ADD SWAP3 PUSH1 0x20 SWAP3 SWAP1 SWAP2 SWAP1 DUP3 SWAP1 SUB ADD DUP2 DUP7 GAS STATICCALL ISZERO DUP1 ISZERO PUSH2 0xB6C JUMPI RETURNDATASIZE PUSH1 0x0 DUP1 RETURNDATACOPY RETURNDATASIZE PUSH1 0x0 REVERT JUMPDEST POP POP POP POP PUSH1 0x40 MLOAD RETURNDATASIZE PUSH1 0x1F NOT PUSH1 0x1F DUP3 ADD AND DUP3 ADD DUP1 PUSH1 0x40 MSTORE POP DUP2 ADD SWAP1 PUSH2 0xB90 SWAP2 SWAP1 PUSH2 0x1DFC JUMP JUMPDEST PUSH1 0x1 PUSH1 0x1 PUSH1 0xA0 SHL SUB AND SUB PUSH2 0xBE6 JUMPI PUSH1 0x40 MLOAD PUSH3 0x461BCD PUSH1 0xE5 SHL DUP2 MSTORE PUSH1 0x20 PUSH1 0x4 DUP3 ADD MSTORE PUSH1 0x9 PUSH1 0x24 DUP3 ADD MSTORE PUSH32 0x4E6F206368616E67650000000000000000000000000000000000000000000000 PUSH1 0x44 DUP3 ADD MSTORE PUSH1 0x64 ADD PUSH2 0x530 JUMP JUMPDEST PUSH1 0x1 PUSH1 0x0 SWAP1 SLOAD SWAP1 PUSH2 0x100 EXP SWAP1 DIV PUSH1 0x1 PUSH1 0x1 PUSH1 0xA0 SHL SUB AND PUSH1 0x1 PUSH1 0x1 PUSH1 0xA0 SHL SUB AND PUSH4 0xFBFA77CF PUSH1 0x40 MLOAD DUP2 PUSH4 0xFFFFFFFF AND PUSH1 0xE0 SHL DUP2 MSTORE PUSH1 0x4 ADD PUSH1 0x20 PUSH1 0x40 MLOAD DUP1 DUP4 SUB DUP2 DUP7 GAS STATICCALL ISZERO DUP1 ISZERO PUSH2 0xC39 JUMPI RETURNDATASIZE PUSH1 0x0 DUP1 RETURNDATACOPY RETURNDATASIZE PUSH1 0x0 REVERT JUMPDEST POP POP POP POP PUSH1 0x40 MLOAD RETURNDATASIZE PUSH1 0x1F NOT PUSH1 0x1F DUP3 ADD AND DUP3 ADD DUP1 PUSH1 0x40 MSTORE POP DUP2 ADD SWAP1 PUSH2 0xC5D SWAP2 SWAP1 PUSH2 0x1DFC JUMP JUMPDEST PUSH1 0x2 DUP1 SLOAD PUSH20 0xFFFFFFFFFFFFFFFFFFFFFFFFFFFFFFFFFFFFFFFF NOT AND PUSH1 0x1 PUSH1 0x1 PUSH1 0xA0 SHL SUB SWAP3 SWAP1 SWAP3 AND SWAP2 SWAP1 SWAP2 OR SWAP1 SSTORE JUMP JUMPDEST PUSH1 0x1 PUSH1 0x0 SWAP1 SLOAD SWAP1 PUSH2 0x100 EXP SWAP1 DIV PUSH1 0x1 PUSH1 0x1 PUSH1 0xA0 SHL SUB AND PUSH1 0x1 PUSH1 0x1 PUSH1 0xA0 SHL SUB AND PUSH4 0x452A9320 PUSH1 0x40 MLOAD DUP2 PUSH4 0xFFFFFFFF AND PUSH1 0xE0 SHL DUP2 MSTORE PUSH1 0x4 ADD PUSH1 0x20 PUSH1 0x40 MLOAD DUP1 DUP4 SUB DUP2 DUP7 GAS STATICCALL ISZERO DUP1 ISZERO PUSH2 0xCDF JUMPI RETURNDATASIZE PUSH1 0x0 DUP1 RETURNDATACOPY RETURNDATASIZE PUSH1 0x0 REVERT JUMPDEST POP POP POP POP PUSH1 0x40 MLOAD RETURNDATASIZE PUSH1 0x1F NOT PUSH1 0x1F DUP3 ADD AND DUP3 ADD DUP1 PUSH1 0x40 MSTORE POP DUP2 ADD SWAP1 PUSH2 0xD03 SWAP2 SWAP1 PUSH2 0x1DFC JUMP JUMPDEST PUSH1 0x1 PUSH1 0x1 PUSH1 0xA0 SHL SUB AND CALLER PUSH1 0x1 PUSH1 0x1 PUSH1 0xA0 SHL SUB AND EQ PUSH1 0x0 SWAP1 PUSH2 0xD37 JUMPI PUSH1 0x40 MLOAD PUSH3 0x461BCD PUSH1 0xE5 SHL DUP2 MSTORE PUSH1 0x4 ADD PUSH2 0x530 SWAP2 SWAP1 PUSH2 0x1E19 JUMP JUMPDEST POP PUSH1 0x2 SLOAD PUSH1 0x7 SLOAD PUSH1 0x40 MLOAD PUSH32 0xB0EEE3000000000000000000000000000000000000000000000000000000000 DUP2 MSTORE PUSH1 0x1 PUSH1 0x1 PUSH1 0xA0 SHL SUB SWAP2 DUP3 AND PUSH1 0x4 DUP3 ADD MSTORE PUSH1 0x24 DUP2 ADD DUP5 SWAP1 MSTORE SWAP2 AND SWAP1 PUSH4 0xB0EEE30 SWAP1 PUSH1 0x44 ADD PUSH1 0x0 PUSH1 0x40 MLOAD DUP1 DUP4 SUB DUP2 PUSH1 0x0 DUP8 DUP1 EXTCODESIZE ISZERO DUP1 ISZERO PUSH2 0xDA1 JUMPI PUSH1 0x0 DUP1 REVERT JUMPDEST POP GAS CALL ISZERO DUP1 ISZERO PUSH2 0xDB5 JUMPI RETURNDATASIZE PUSH1 0x0 DUP1 RETURNDATACOPY RETURNDATASIZE PUSH1 0x0 REVERT JUMPDEST POP POP POP POP PUSH2 0xDC2 DUP2 PUSH2 0x1A70 JUMP JUMPDEST POP JUMP JUMPDEST PUSH1 0x1 PUSH1 0x0 SWAP1 SLOAD SWAP1 PUSH2 0x100 EXP SWAP1 DIV PUSH1 0x1 PUSH1 0x1 PUSH1 0xA0 SHL SUB AND PUSH1 0x1 PUSH1 0x1 PUSH1 0xA0 SHL SUB AND PUSH4 0x452A9320 PUSH1 0x40 MLOAD DUP2 PUSH4 0xFFFFFFFF AND PUSH1 0xE0 SHL DUP2 MSTORE PUSH1 0x4 ADD PUSH1 0x20 PUSH1 0x40 MLOAD DUP1 DUP4 SUB DUP2 DUP7 GAS STATICCALL ISZERO DUP1 ISZERO PUSH2 0xE18 JUMPI RETURNDATASIZE PUSH1 0x0 DUP1 RETURNDATACOPY RETURNDATASIZE PUSH1 0x0 REVERT JUMPDEST POP POP POP POP PUSH1 0x40 MLOAD RETURNDATASIZE PUSH1 0x1F NOT PUSH1 0x1F DUP3 ADD AND DUP3 ADD DUP1 PUSH1 0x40 MSTORE POP DUP2 ADD SWAP1 PUSH2 0xE3C SWAP2 SWAP1 PUSH2 0x1DFC JUMP JUMPDEST PUSH1 0x1 PUSH1 0x1 PUSH1 0xA0 SHL SUB AND CALLER PUSH1 0x1 PUSH1 0x1 PUSH1 0xA0 SHL SUB AND EQ PUSH1 0x0 SWAP1 PUSH2 0xE70 JUMPI PUSH1 0x40 MLOAD PUSH3 0x461BCD PUSH1 0xE5 SHL DUP2 MSTORE PUSH1 0x4 ADD PUSH2 0x530 SWAP2 SWAP1 PUSH2 0x1E19 JUMP JUMPDEST POP PUSH1 0x6 DUP1 SLOAD PUSH20 0xFFFFFFFFFFFFFFFFFFFFFFFFFFFFFFFFFFFFFFFF NOT AND PUSH1 0x1 PUSH1 0x1 PUSH1 0xA0 SHL SUB SWAP3 SWAP1 SWAP3 AND SWAP2 SWAP1 SWAP2 OR SWAP1 SSTORE JUMP JUMPDEST PUSH1 0x1 SLOAD PUSH1 0x40 DUP1 MLOAD PUSH32 0x452A932000000000000000000000000000000000000000000000000000000000 DUP2 MSTORE SWAP1 MLOAD PUSH1 0x0 SWAP3 PUSH1 0x1 PUSH1 0x1 PUSH1 0xA0 SHL SUB AND SWAP2 PUSH4 0x452A9320 SWAP2 PUSH1 0x4 DUP1 DUP4 ADD SWAP3 PUSH1 0x20 SWAP3 SWAP2 SWAP1 DUP3 SWAP1 SUB ADD DUP2 DUP7 GAS STATICCALL ISZERO DUP1 ISZERO PUSH2 0xF03 JUMPI RETURNDATASIZE PUSH1 0x0 DUP1 RETURNDATACOPY RETURNDATASIZE PUSH1 0x0 REVERT JUMPDEST POP POP POP POP PUSH1 0x40 MLOAD RETURNDATASIZE PUSH1 0x1F NOT PUSH1 0x1F DUP3 ADD AND DUP3 ADD DUP1 PUSH1 0x40 MSTORE POP DUP2 ADD SWAP1 PUSH2 0xF27 SWAP2 SWAP1 PUSH2 0x1DFC JUMP JUMPDEST PUSH1 0x1 PUSH1 0x1 PUSH1 0xA0 SHL SUB AND CALLER PUSH1 0x1 PUSH1 0x1 PUSH1 0xA0 SHL SUB AND EQ PUSH1 0x0 SWAP1 PUSH2 0xF5B JUMPI PUSH1 0x40 MLOAD PUSH3 0x461BCD PUSH1 0xE5 SHL DUP2 MSTORE PUSH1 0x4 ADD PUSH2 0x530 SWAP2 SWAP1 PUSH2 0x1E19 JUMP JUMPDEST POP PUSH1 0x0 PUSH2 0xF66 PUSH2 0x66D JUMP JUMPDEST SWAP1 POP PUSH1 0x0 PUSH2 0xF72 PUSH2 0x717 JUMP JUMPDEST SWAP1 POP DUP2 ISZERO DUP1 ISZERO PUSH2 0xF80 JUMPI POP DUP1 ISZERO JUMPDEST ISZERO PUSH2 0xF8F JUMPI POP PUSH1 0x0 SWAP4 SWAP3 POP POP POP JUMP JUMPDEST PUSH1 0x40 MLOAD PUSH4 0x2E54BF95 PUSH1 0xE0 SHL DUP2 MSTORE PUSH1 0x0 PUSH1 0x4 DUP3 ADD MSTORE PUSH32 0x0 PUSH1 0x1 PUSH1 0x1 PUSH1 0xA0 SHL SUB AND SWAP1 PUSH4 0x2E54BF95 SWAP1 PUSH1 0x24 ADD PUSH1 0x0 PUSH1 0x40 MLOAD DUP1 DUP4 SUB DUP2 PUSH1 0x0 DUP8 DUP1 EXTCODESIZE ISZERO DUP1 ISZERO PUSH2 0xFF1 JUMPI PUSH1 0x0 DUP1 REVERT JUMPDEST POP GAS CALL ISZERO DUP1 ISZERO PUSH2 0x1005 JUMPI RETURNDATASIZE PUSH1 0x0 DUP1 RETURNDATACOPY RETURNDATASIZE PUSH1 0x0 REVERT JUMPDEST POP POP PUSH1 0x8 SLOAD PUSH1 0x40 MLOAD PUSH4 0x70A08231 PUSH1 0xE0 SHL DUP2 MSTORE ADDRESS PUSH1 0x4 DUP3 ADD MSTORE PUSH1 0x0 SWAP4 POP PUSH1 0x1 PUSH1 0x1 PUSH1 0xA0 SHL SUB SWAP1 SWAP2 AND SWAP2 POP PUSH4 0x70A08231 SWAP1 PUSH1 0x24 ADD PUSH1 0x20 PUSH1 0x40 MLOAD DUP1 DUP4 SUB DUP2 DUP7 GAS STATICCALL ISZERO DUP1 ISZERO PUSH2 0x1054 JUMPI RETURNDATASIZE PUSH1 0x0 DUP1 RETURNDATACOPY RETURNDATASIZE PUSH1 0x0 REVERT JUMPDEST POP POP POP POP PUSH1 0x40 MLOAD RETURNDATASIZE PUSH1 0x1F NOT PUSH1 0x1F DUP3 ADD AND DUP3 ADD DUP1 PUSH1 0x40 MSTORE POP DUP2 ADD SWAP1 PUSH2 0x1078 SWAP2 SWAP1 PUSH2 0x1EC0 JUMP JUMPDEST SWAP1 POP DUP1 ISZERO PUSH2 0x1114 JUMPI PUSH1 0x40 MLOAD PUSH32 0xA694FC3A00000000000000000000000000000000000000000000000000000000 DUP2 MSTORE PUSH1 0x4 DUP2 ADD DUP3 SWAP1 MSTORE PUSH32 0x0 PUSH1 0x1 PUSH1 0x1 PUSH1 0xA0 SHL SUB AND SWAP1 PUSH4 0xA694FC3A SWAP1 PUSH1 0x24 ADD PUSH1 0x0 PUSH1 0x40 MLOAD DUP1 DUP4 SUB DUP2 PUSH1 0x0 DUP8 DUP1 EXTCODESIZE ISZERO DUP1 ISZERO PUSH2 0x10FB JUMPI PUSH1 0x0 DUP1 REVERT JUMPDEST POP GAS CALL ISZERO DUP1 ISZERO PUSH2 0x110F JUMPI RETURNDATASIZE PUSH1 0x0 DUP1 RETURNDATACOPY RETURNDATASIZE PUSH1 0x0 REVERT JUMPDEST POP POP POP POP JUMPDEST SELFBALANCE PUSH1 0x0 DUP2 ISZERO PUSH2 0x13A5 JUMPI PUSH32 0x0 PUSH1 0x1 PUSH1 0x1 PUSH1 0xA0 SHL SUB AND PUSH4 0xD0E30DB0 DUP4 PUSH1 0x40 MLOAD DUP3 PUSH4 0xFFFFFFFF AND PUSH1 0xE0 SHL DUP2 MSTORE PUSH1 0x4 ADD PUSH1 0x0 PUSH1 0x40 MLOAD DUP1 DUP4 SUB DUP2 DUP6 DUP9 DUP1 EXTCODESIZE ISZERO DUP1 ISZERO PUSH2 0x1178 JUMPI PUSH1 0x0 DUP1 REVERT JUMPDEST POP GAS CALL ISZERO DUP1 ISZERO PUSH2 0x118C JUMPI RETURNDATASIZE PUSH1 0x0 DUP1 RETURNDATACOPY RETURNDATASIZE PUSH1 0x0 REVERT JUMPDEST POP POP PUSH1 0x40 MLOAD PUSH4 0x70A08231 PUSH1 0xE0 SHL DUP2 MSTORE ADDRESS PUSH1 0x4 DUP3 ADD MSTORE PUSH1 0x0 SWAP4 POP PUSH32 0x0 PUSH1 0x1 PUSH1 0x1 PUSH1 0xA0 SHL SUB AND SWAP3 POP PUSH4 0x70A08231 SWAP2 POP PUSH1 0x24 ADD PUSH1 0x20 PUSH1 0x40 MLOAD DUP1 DUP4 SUB DUP2 DUP7 GAS STATICCALL ISZERO DUP1 ISZERO PUSH2 0x11F8 JUMPI RETURNDATASIZE PUSH1 0x0 DUP1 RETURNDATACOPY RETURNDATASIZE PUSH1 0x0 REVERT JUMPDEST POP POP POP POP PUSH1 0x40 MLOAD RETURNDATASIZE PUSH1 0x1F NOT PUSH1 0x1F DUP3 ADD AND DUP3 ADD DUP1 PUSH1 0x40 MSTORE POP DUP2 ADD SWAP1 PUSH2 0x121C SWAP2 SWAP1 PUSH2 0x1EC0 JUMP JUMPDEST PUSH1 0x3 SLOAD SWAP1 SWAP2 POP ISZERO PUSH2 0x13A3 JUMPI PUSH1 0x0 PUSH3 0xF4240 PUSH1 0x3 SLOAD DUP4 PUSH2 0x123B SWAP2 SWAP1 PUSH2 0x1EEF JUMP JUMPDEST PUSH2 0x1245 SWAP2 SWAP1 PUSH2 0x1F0E JUMP JUMPDEST SWAP1 POP PUSH1 0x0 PUSH2 0x1253 DUP11 DUP4 PUSH2 0x1EEF JUMP JUMPDEST PUSH1 0x40 DUP1 MLOAD PUSH1 0xA0 DUP2 ADD DUP3 MSTORE PUSH1 0x4 SLOAD PUSH1 0x5 SLOAD PUSH1 0x7 SLOAD PUSH12 0xFFFFFFFFFFFFFFFFFFFFFFFF NOT PUSH32 0x0 PUSH1 0x60 SWAP1 DUP2 SHL DUP3 AND PUSH1 0xC0 DUP8 ADD MSTORE PUSH1 0xD4 DUP7 ADD DUP6 SWAP1 MSTORE SWAP3 DUP4 SHL DUP2 AND PUSH1 0xF4 DUP7 ADD MSTORE PUSH2 0x108 DUP6 ADD SWAP4 SWAP1 SWAP4 MSTORE SWAP1 SHL AND PUSH2 0x128 DUP3 ADD MSTORE DUP2 MLOAD DUP1 DUP3 SUB PUSH2 0x11C ADD DUP2 MSTORE PUSH2 0x13C DUP3 ADD DUP4 MSTORE DUP2 MSTORE ADDRESS PUSH1 0x20 DUP3 ADD MSTORE SWAP2 SWAP3 POP PUSH1 0x0 SWAP2 SWAP1 DUP2 ADD PUSH2 0x12F2 TIMESTAMP PUSH1 0x19 PUSH2 0x1F30 JUMP JUMPDEST DUP2 MSTORE PUSH1 0x20 ADD DUP5 DUP2 MSTORE PUSH1 0x20 ADD DUP4 DUP2 MSTORE POP SWAP1 POP PUSH1 0x0 PUSH32 0x0 PUSH1 0x1 PUSH1 0x1 PUSH1 0xA0 SHL SUB AND PUSH4 0xC04B8D59 DUP4 PUSH1 0x40 MLOAD DUP3 PUSH4 0xFFFFFFFF AND PUSH1 0xE0 SHL DUP2 MSTORE PUSH1 0x4 ADD PUSH2 0x1351 SWAP2 SWAP1 PUSH2 0x1F78 JUMP JUMPDEST PUSH1 0x20 PUSH1 0x40 MLOAD DUP1 DUP4 SUB DUP2 PUSH1 0x0 DUP8 GAS CALL ISZERO DUP1 ISZERO PUSH2 0x1370 JUMPI RETURNDATASIZE PUSH1 0x0 DUP1 RETURNDATACOPY RETURNDATASIZE PUSH1 0x0 REVERT JUMPDEST POP POP POP POP PUSH1 0x40 MLOAD RETURNDATASIZE PUSH1 0x1F NOT PUSH1 0x1F DUP3 ADD AND DUP3 ADD DUP1 PUSH1 0x40 MSTORE POP DUP2 ADD SWAP1 PUSH2 0x1394 SWAP2 SWAP1 PUSH2 0x1EC0 JUMP JUMPDEST GT ISZERO PUSH2 0x139F JUMPI PUSH1 0x1 SWAP5 POP JUMPDEST POP POP POP JUMPDEST POP JUMPDEST PUSH1 0x3 SLOAD ISZERO DUP1 PUSH2 0x13B1 JUMPI POP DUP1 JUMPDEST ISZERO PUSH2 0x1485 JUMPI PUSH1 0x40 MLOAD PUSH4 0x70A08231 PUSH1 0xE0 SHL DUP2 MSTORE ADDRESS PUSH1 0x4 DUP3 ADD MSTORE PUSH1 0x0 SWAP1 PUSH32 0x0 PUSH1 0x1 PUSH1 0x1 PUSH1 0xA0 SHL SUB AND SWAP1 PUSH4 0x70A08231 SWAP1 PUSH1 0x24 ADD PUSH1 0x20 PUSH1 0x40 MLOAD DUP1 DUP4 SUB DUP2 DUP7 GAS STATICCALL ISZERO DUP1 ISZERO PUSH2 0x141D JUMPI RETURNDATASIZE PUSH1 0x0 DUP1 RETURNDATACOPY RETURNDATASIZE PUSH1 0x0 REVERT JUMPDEST POP POP POP POP PUSH1 0x40 MLOAD RETURNDATASIZE PUSH1 0x1F NOT PUSH1 0x1F DUP3 ADD AND DUP3 ADD DUP1 PUSH1 0x40 MSTORE POP DUP2 ADD SWAP1 PUSH2 0x1441 SWAP2 SWAP1 PUSH2 0x1EC0 JUMP JUMPDEST SWAP1 POP DUP1 ISZERO PUSH2 0x1483 JUMPI PUSH1 0x2 SLOAD PUSH2 0x1483 SWAP1 PUSH1 0x1 PUSH1 0x1 PUSH1 0xA0 SHL SUB PUSH32 0x0 DUP2 AND SWAP2 AND DUP4 PUSH2 0x1B37 JUMP JUMPDEST POP JUMPDEST PUSH1 0x7 SLOAD PUSH1 0x40 MLOAD PUSH4 0x70A08231 PUSH1 0xE0 SHL DUP2 MSTORE ADDRESS PUSH1 0x4 DUP3 ADD MSTORE PUSH1 0x0 SWAP2 PUSH1 0x1 PUSH1 0x1 PUSH1 0xA0 SHL SUB AND SWAP1 PUSH4 0x70A08231 SWAP1 PUSH1 0x24 ADD PUSH1 0x20 PUSH1 0x40 MLOAD DUP1 DUP4 SUB DUP2 DUP7 GAS STATICCALL ISZERO DUP1 ISZERO PUSH2 0x14CE JUMPI RETURNDATASIZE PUSH1 0x0 DUP1 RETURNDATACOPY RETURNDATASIZE PUSH1 0x0 REVERT JUMPDEST POP POP POP POP PUSH1 0x40 MLOAD RETURNDATASIZE PUSH1 0x1F NOT PUSH1 0x1F DUP3 ADD AND DUP3 ADD DUP1 PUSH1 0x40 MSTORE POP DUP2 ADD SWAP1 PUSH2 0x14F2 SWAP2 SWAP1 PUSH2 0x1EC0 JUMP JUMPDEST SWAP1 POP DUP1 ISZERO PUSH2 0x1503 JUMPI PUSH2 0x1503 DUP2 PUSH2 0x1A70 JUMP JUMPDEST POP PUSH1 0x1 SWAP8 SWAP7 POP POP POP POP POP POP POP JUMP JUMPDEST PUSH1 0x1 PUSH1 0x0 SWAP1 SLOAD SWAP1 PUSH2 0x100 EXP SWAP1 DIV PUSH1 0x1 PUSH1 0x1 PUSH1 0xA0 SHL SUB AND PUSH1 0x1 PUSH1 0x1 PUSH1 0xA0 SHL SUB AND PUSH4 0x452A9320 PUSH1 0x40 MLOAD DUP2 PUSH4 0xFFFFFFFF AND PUSH1 0xE0 SHL DUP2 MSTORE PUSH1 0x4 ADD PUSH1 0x20 PUSH1 0x40 MLOAD DUP1 DUP4 SUB DUP2 DUP7 GAS STATICCALL ISZERO DUP1 ISZERO PUSH2 0x1564 JUMPI RETURNDATASIZE PUSH1 0x0 DUP1 RETURNDATACOPY RETURNDATASIZE PUSH1 0x0 REVERT JUMPDEST POP POP POP POP PUSH1 0x40 MLOAD RETURNDATASIZE PUSH1 0x1F NOT PUSH1 0x1F DUP3 ADD AND DUP3 ADD DUP1 PUSH1 0x40 MSTORE POP DUP2 ADD SWAP1 PUSH2 0x1588 SWAP2 SWAP1 PUSH2 0x1DFC JUMP JUMPDEST PUSH1 0x1 PUSH1 0x1 PUSH1 0xA0 SHL SUB AND CALLER PUSH1 0x1 PUSH1 0x1 PUSH1 0xA0 SHL SUB AND EQ PUSH1 0x0 SWAP1 PUSH2 0x15BC JUMPI PUSH1 0x40 MLOAD PUSH3 0x461BCD PUSH1 0xE5 SHL DUP2 MSTORE PUSH1 0x4 ADD PUSH2 0x530 SWAP2 SWAP1 PUSH2 0x1E19 JUMP JUMPDEST POP PUSH1 0x7 SLOAD PUSH1 0x1 PUSH1 0x1 PUSH1 0xA0 SHL SUB DUP4 DUP2 AND SWAP2 AND EQ DUP1 PUSH2 0x15E6 JUMPI POP PUSH1 0x8 SLOAD PUSH1 0x1 PUSH1 0x1 PUSH1 0xA0 SHL SUB DUP4 DUP2 AND SWAP2 AND EQ JUMPDEST PUSH2 0x1658 JUMPI PUSH1 0x40 MLOAD PUSH3 0x461BCD PUSH1 0xE5 SHL DUP2 MSTORE PUSH1 0x20 PUSH1 0x4 DUP3 ADD MSTORE PUSH1 0x30 PUSH1 0x24 DUP3 ADD MSTORE PUSH32 0x746F6B656E206164647265737320646F6573206E6F74206D61746368204C5553 PUSH1 0x44 DUP3 ADD MSTORE PUSH32 0x44206E6F72204C51545920746F6B656E00000000000000000000000000000000 PUSH1 0x64 DUP3 ADD MSTORE PUSH1 0x84 ADD PUSH2 0x530 JUMP JUMPDEST PUSH1 0x7 SLOAD PUSH1 0x1 PUSH1 0x1 PUSH1 0xA0 SHL SUB SWAP1 DUP2 AND SWAP1 DUP4 AND SUB PUSH2 0x180D JUMPI PUSH1 0x40 MLOAD PUSH4 0x2E54BF95 PUSH1 0xE0 SHL DUP2 MSTORE PUSH1 0x4 DUP2 ADD DUP3 SWAP1 MSTORE PUSH32 0x0 PUSH1 0x1 PUSH1 0x1 PUSH1 0xA0 SHL SUB AND SWAP1 PUSH4 0x2E54BF95 SWAP1 PUSH1 0x24 ADD PUSH1 0x0 PUSH1 0x40 MLOAD DUP1 DUP4 SUB DUP2 PUSH1 0x0 DUP8 DUP1 EXTCODESIZE ISZERO DUP1 ISZERO PUSH2 0x16D0 JUMPI PUSH1 0x0 DUP1 REVERT JUMPDEST POP GAS CALL ISZERO DUP1 ISZERO PUSH2 0x16E4 JUMPI RETURNDATASIZE PUSH1 0x0 DUP1 RETURNDATACOPY RETURNDATASIZE PUSH1 0x0 REVERT JUMPDEST POP POP PUSH1 0x40 MLOAD PUSH4 0x70A08231 PUSH1 0xE0 SHL DUP2 MSTORE ADDRESS PUSH1 0x4 DUP3 ADD MSTORE PUSH1 0x0 SWAP3 POP PUSH1 0x1 PUSH1 0x1 PUSH1 0xA0 SHL SUB DUP6 AND SWAP2 POP PUSH4 0x70A08231 SWAP1 PUSH1 0x24 ADD PUSH1 0x20 PUSH1 0x40 MLOAD DUP1 DUP4 SUB DUP2 DUP7 GAS STATICCALL ISZERO DUP1 ISZERO PUSH2 0x172F JUMPI RETURNDATASIZE PUSH1 0x0 DUP1 RETURNDATACOPY RETURNDATASIZE PUSH1 0x0 REVERT JUMPDEST POP POP POP POP PUSH1 0x40 MLOAD RETURNDATASIZE PUSH1 0x1F NOT PUSH1 0x1F DUP3 ADD AND DUP3 ADD DUP1 PUSH1 0x40 MSTORE POP DUP2 ADD SWAP1 PUSH2 0x1753 SWAP2 SWAP1 PUSH2 0x1EC0 JUMP JUMPDEST SWAP1 POP PUSH1 0x0 PUSH2 0x1761 DUP5 DUP4 PUSH2 0x1C79 JUMP JUMPDEST SWAP1 POP PUSH2 0x176F DUP3 DUP3 PUSH1 0x0 PUSH2 0x1D09 JUMP JUMPDEST PUSH1 0x2 SLOAD PUSH1 0x40 MLOAD PUSH32 0xBC157AC100000000000000000000000000000000000000000000000000000000 DUP2 MSTORE PUSH1 0x4 DUP2 ADD DUP5 SWAP1 MSTORE PUSH1 0x1 PUSH1 0x1 PUSH1 0xA0 SHL SUB DUP7 DUP2 AND PUSH1 0x24 DUP4 ADD MSTORE PUSH1 0x44 DUP3 ADD DUP5 SWAP1 MSTORE SWAP1 SWAP2 AND SWAP1 PUSH4 0xBC157AC1 SWAP1 PUSH1 0x64 ADD PUSH1 0x20 PUSH1 0x40 MLOAD DUP1 DUP4 SUB DUP2 PUSH1 0x0 DUP8 GAS CALL ISZERO DUP1 ISZERO PUSH2 0x17E2 JUMPI RETURNDATASIZE PUSH1 0x0 DUP1 RETURNDATACOPY RETURNDATASIZE PUSH1 0x0 REVERT JUMPDEST POP POP POP POP PUSH1 0x40 MLOAD RETURNDATASIZE PUSH1 0x1F NOT PUSH1 0x1F DUP3 ADD AND DUP3 ADD DUP1 PUSH1 0x40 MSTORE POP DUP2 ADD SWAP1 PUSH2 0x1806 SWAP2 SWAP1 PUSH2 0x1EC0 JUMP JUMPDEST POP POP POP POP POP JUMP JUMPDEST PUSH1 0x40 MLOAD PUSH32 0x2E17DE7800000000000000000000000000000000000000000000000000000000 DUP2 MSTORE PUSH1 0x4 DUP2 ADD DUP3 SWAP1 MSTORE PUSH32 0x0 PUSH1 0x1 PUSH1 0x1 PUSH1 0xA0 SHL SUB AND SWAP1 PUSH4 0x2E17DE78 SWAP1 PUSH1 0x24 ADD PUSH1 0x0 PUSH1 0x40 MLOAD DUP1 DUP4 SUB DUP2 PUSH1 0x0 DUP8 DUP1 EXTCODESIZE ISZERO DUP1 ISZERO PUSH2 0x1888 JUMPI PUSH1 0x0 DUP1 REVERT JUMPDEST POP GAS CALL ISZERO DUP1 ISZERO PUSH2 0x189C JUMPI RETURNDATASIZE PUSH1 0x0 DUP1 RETURNDATACOPY RETURNDATASIZE PUSH1 0x0 REVERT JUMPDEST POP POP PUSH1 0x40 MLOAD PUSH4 0x70A08231 PUSH1 0xE0 SHL DUP2 MSTORE ADDRESS PUSH1 0x4 DUP3 ADD MSTORE PUSH1 0x0 SWAP3 POP PUSH1 0x1 PUSH1 0x1 PUSH1 0xA0 SHL SUB DUP6 AND SWAP2 POP PUSH4 0x70A08231 SWAP1 PUSH1 0x24 ADD PUSH1 0x20 PUSH1 0x40 MLOAD DUP1 DUP4 SUB DUP2 DUP7 GAS STATICCALL ISZERO DUP1 ISZERO PUSH2 0x18E7 JUMPI RETURNDATASIZE PUSH1 0x0 DUP1 RETURNDATACOPY RETURNDATASIZE PUSH1 0x0 REVERT JUMPDEST POP POP POP POP PUSH1 0x40 MLOAD RETURNDATASIZE PUSH1 0x1F NOT PUSH1 0x1F DUP3 ADD AND DUP3 ADD DUP1 PUSH1 0x40 MSTORE POP DUP2 ADD SWAP1 PUSH2 0x190B SWAP2 SWAP1 PUSH2 0x1EC0 JUMP JUMPDEST PUSH1 0x2 SLOAD SWAP1 SWAP2 POP PUSH2 0x1928 SWAP1 PUSH1 0x1 PUSH1 0x1 PUSH1 0xA0 SHL SUB DUP6 DUP2 AND SWAP2 AND DUP4 PUSH2 0x1B37 JUMP JUMPDEST POP JUMPDEST POP POP JUMP JUMPDEST PUSH1 0x40 DUP1 MLOAD PUSH1 0x1 PUSH1 0x1 PUSH1 0xA0 SHL SUB DUP5 DUP2 AND PUSH1 0x24 DUP4 ADD MSTORE PUSH1 0x44 DUP1 DUP4 ADD DUP6 SWAP1 MSTORE DUP4 MLOAD DUP1 DUP5 SUB SWAP1 SWAP2 ADD DUP2 MSTORE PUSH1 0x64 SWAP1 SWAP3 ADD DUP4 MSTORE PUSH1 0x20 DUP3 ADD DUP1 MLOAD PUSH28 0xFFFFFFFFFFFFFFFFFFFFFFFFFFFFFFFFFFFFFFFFFFFFFFFFFFFFFFFF AND PUSH32 0x95EA7B300000000000000000000000000000000000000000000000000000000 OR SWAP1 MSTORE SWAP2 MLOAD PUSH1 0x0 SWAP3 DUP4 SWAP3 SWAP1 DUP8 AND SWAP2 PUSH2 0x19B8 SWAP2 SWAP1 PUSH2 0x1FE8 JUMP JUMPDEST PUSH1 0x0 PUSH1 0x40 MLOAD DUP1 DUP4 SUB DUP2 PUSH1 0x0 DUP7 GAS CALL SWAP2 POP POP RETURNDATASIZE DUP1 PUSH1 0x0 DUP2 EQ PUSH2 0x19F5 JUMPI PUSH1 0x40 MLOAD SWAP2 POP PUSH1 0x1F NOT PUSH1 0x3F RETURNDATASIZE ADD AND DUP3 ADD PUSH1 0x40 MSTORE RETURNDATASIZE DUP3 MSTORE RETURNDATASIZE PUSH1 0x0 PUSH1 0x20 DUP5 ADD RETURNDATACOPY PUSH2 0x19FA JUMP JUMPDEST PUSH1 0x60 SWAP2 POP JUMPDEST POP SWAP2 POP SWAP2 POP DUP2 DUP1 ISZERO PUSH2 0x1A24 JUMPI POP DUP1 MLOAD ISZERO DUP1 PUSH2 0x1A24 JUMPI POP DUP1 DUP1 PUSH1 0x20 ADD SWAP1 MLOAD DUP2 ADD SWAP1 PUSH2 0x1A24 SWAP2 SWAP1 PUSH2 0x2004 JUMP JUMPDEST PUSH2 0x1806 JUMPI PUSH1 0x40 MLOAD PUSH3 0x461BCD PUSH1 0xE5 SHL DUP2 MSTORE PUSH1 0x20 PUSH1 0x4 DUP3 ADD MSTORE PUSH1 0xE PUSH1 0x24 DUP3 ADD MSTORE PUSH32 0x415050524F56455F4641494C4544000000000000000000000000000000000000 PUSH1 0x44 DUP3 ADD MSTORE PUSH1 0x64 ADD PUSH2 0x530 JUMP JUMPDEST PUSH1 0x6 SLOAD PUSH1 0x40 MLOAD PUSH32 0x5F788D6500000000000000000000000000000000000000000000000000000000 DUP2 MSTORE PUSH1 0x4 DUP2 ADD DUP4 SWAP1 MSTORE PUSH1 0x1 PUSH1 0x1 PUSH1 0xA0 SHL SUB SWAP2 DUP3 AND PUSH1 0x24 DUP3 ADD MSTORE PUSH32 0x0 SWAP1 SWAP2 AND SWAP1 PUSH4 0x5F788D65 SWAP1 PUSH1 0x44 ADD PUSH1 0x0 PUSH1 0x40 MLOAD DUP1 DUP4 SUB DUP2 PUSH1 0x0 DUP8 DUP1 EXTCODESIZE ISZERO DUP1 ISZERO PUSH2 0x1AF8 JUMPI PUSH1 0x0 DUP1 REVERT JUMPDEST POP GAS CALL ISZERO DUP1 ISZERO PUSH2 0x1B0C JUMPI RETURNDATASIZE PUSH1 0x0 DUP1 RETURNDATACOPY RETURNDATASIZE PUSH1 0x0 REVERT JUMPDEST POP POP PUSH1 0x7 SLOAD PUSH1 0x0 SWAP3 POP PUSH2 0x1B29 SWAP2 POP PUSH1 0x1 PUSH1 0x1 PUSH1 0xA0 SHL SUB AND DUP4 PUSH2 0x1C79 JUMP JUMPDEST SWAP1 POP PUSH2 0x192A DUP3 DUP3 PUSH1 0x1 PUSH2 0x1D09 JUMP JUMPDEST PUSH1 0x40 DUP1 MLOAD PUSH1 0x1 PUSH1 0x1 PUSH1 0xA0 SHL SUB DUP5 DUP2 AND PUSH1 0x24 DUP4 ADD MSTORE PUSH1 0x44 DUP1 DUP4 ADD DUP6 SWAP1 MSTORE DUP4 MLOAD DUP1 DUP5 SUB SWAP1 SWAP2 ADD DUP2 MSTORE PUSH1 0x64 SWAP1 SWAP3 ADD DUP4 MSTORE PUSH1 0x20 DUP3 ADD DUP1 MLOAD PUSH28 0xFFFFFFFFFFFFFFFFFFFFFFFFFFFFFFFFFFFFFFFFFFFFFFFFFFFFFFFF AND PUSH32 0xA9059CBB00000000000000000000000000000000000000000000000000000000 OR SWAP1 MSTORE SWAP2 MLOAD PUSH1 0x0 SWAP3 DUP4 SWAP3 SWAP1 DUP8 AND SWAP2 PUSH2 0x1BC1 SWAP2 SWAP1 PUSH2 0x1FE8 JUMP JUMPDEST PUSH1 0x0 PUSH1 0x40 MLOAD DUP1 DUP4 SUB DUP2 PUSH1 0x0 DUP7 GAS CALL SWAP2 POP POP RETURNDATASIZE DUP1 PUSH1 0x0 DUP2 EQ PUSH2 0x1BFE JUMPI PUSH1 0x40 MLOAD SWAP2 POP PUSH1 0x1F NOT PUSH1 0x3F RETURNDATASIZE ADD AND DUP3 ADD PUSH1 0x40 MSTORE RETURNDATASIZE DUP3 MSTORE RETURNDATASIZE PUSH1 0x0 PUSH1 0x20 DUP5 ADD RETURNDATACOPY PUSH2 0x1C03 JUMP JUMPDEST PUSH1 0x60 SWAP2 POP JUMPDEST POP SWAP2 POP SWAP2 POP DUP2 DUP1 ISZERO PUSH2 0x1C2D JUMPI POP DUP1 MLOAD ISZERO DUP1 PUSH2 0x1C2D JUMPI POP DUP1 DUP1 PUSH1 0x20 ADD SWAP1 MLOAD DUP2 ADD SWAP1 PUSH2 0x1C2D SWAP2 SWAP1 PUSH2 0x2004 JUMP JUMPDEST PUSH2 0x1806 JUMPI PUSH1 0x40 MLOAD PUSH3 0x461BCD PUSH1 0xE5 SHL DUP2 MSTORE PUSH1 0x20 PUSH1 0x4 DUP3 ADD MSTORE PUSH1 0xF PUSH1 0x24 DUP3 ADD MSTORE PUSH32 0x5452414E534645525F4641494C45440000000000000000000000000000000000 PUSH1 0x44 DUP3 ADD MSTORE PUSH1 0x64 ADD PUSH2 0x530 JUMP JUMPDEST PUSH1 0x0 DUP3 PUSH1 0x1 PUSH1 0x1 PUSH1 0xA0 SHL SUB AND PUSH4 0x313CE567 PUSH1 0x40 MLOAD DUP2 PUSH4 0xFFFFFFFF AND PUSH1 0xE0 SHL DUP2 MSTORE PUSH1 0x4 ADD PUSH1 0x20 PUSH1 0x40 MLOAD DUP1 DUP4 SUB DUP2 DUP7 GAS STATICCALL ISZERO DUP1 ISZERO PUSH2 0x1CB9 JUMPI RETURNDATASIZE PUSH1 0x0 DUP1 RETURNDATACOPY RETURNDATASIZE PUSH1 0x0 REVERT JUMPDEST POP POP POP POP PUSH1 0x40 MLOAD RETURNDATASIZE PUSH1 0x1F NOT PUSH1 0x1F DUP3 ADD AND DUP3 ADD DUP1 PUSH1 0x40 MSTORE POP DUP2 ADD SWAP1 PUSH2 0x1CDD SWAP2 SWAP1 PUSH2 0x2026 JUMP JUMPDEST PUSH2 0x1CE8 SWAP1 PUSH1 0xA PUSH2 0x212D JUMP JUMPDEST PUSH2 0x1CF6 DUP4 PUSH4 0x3B9ACA00 PUSH2 0x1EEF JUMP JUMPDEST PUSH2 0x1D00 SWAP2 SWAP1 PUSH2 0x1F0E JUMP JUMPDEST SWAP1 POP JUMPDEST SWAP3 SWAP2 POP POP JUMP JUMPDEST DUP1 ISZERO PUSH2 0x1D36 JUMPI DUP3 PUSH1 0xA SLOAD PUSH2 0x1D1D SWAP2 SWAP1 PUSH2 0x1F30 JUMP JUMPDEST PUSH1 0xA SSTORE PUSH1 0x9 SLOAD PUSH2 0x1D2E SWAP1 DUP4 SWAP1 PUSH2 0x1F30 JUMP JUMPDEST PUSH1 0x9 SSTORE PUSH2 0x1928 JUMP JUMPDEST PUSH1 0xA SLOAD DUP4 LT ISZERO PUSH2 0x1D56 JUMPI DUP3 PUSH1 0xA SLOAD PUSH2 0x1D4E SWAP2 SWAP1 PUSH2 0x213C JUMP JUMPDEST PUSH1 0xA SSTORE PUSH2 0x1D5C JUMP JUMPDEST PUSH1 0x0 PUSH1 0xA SSTORE JUMPDEST PUSH1 0x9 SLOAD DUP3 LT ISZERO PUSH2 0x1D74 JUMPI DUP2 PUSH1 0x9 SLOAD PUSH2 0x1D2E SWAP2 SWAP1 PUSH2 0x213C JUMP JUMPDEST PUSH1 0x0 PUSH1 0x9 SSTORE POP POP POP JUMP JUMPDEST PUSH1 0x1 PUSH1 0x1 PUSH1 0xA0 SHL SUB DUP2 AND DUP2 EQ PUSH2 0xDC2 JUMPI PUSH1 0x0 DUP1 REVERT JUMPDEST PUSH1 0x0 PUSH1 0x20 DUP3 DUP5 SUB SLT ISZERO PUSH2 0x1DA5 JUMPI PUSH1 0x0 DUP1 REVERT JUMPDEST DUP2 CALLDATALOAD PUSH2 0x1DB0 DUP2 PUSH2 0x1D7E JUMP JUMPDEST SWAP4 SWAP3 POP POP POP JUMP JUMPDEST PUSH1 0x0 PUSH1 0x20 DUP3 DUP5 SUB SLT ISZERO PUSH2 0x1DC9 JUMPI PUSH1 0x0 DUP1 REVERT JUMPDEST POP CALLDATALOAD SWAP2 SWAP1 POP JUMP JUMPDEST PUSH1 0x0 DUP1 PUSH1 0x40 DUP4 DUP6 SUB SLT ISZERO PUSH2 0x1DE3 JUMPI PUSH1 0x0 DUP1 REVERT JUMPDEST DUP3 CALLDATALOAD PUSH2 0x1DEE DUP2 PUSH2 0x1D7E JUMP JUMPDEST SWAP5 PUSH1 0x20 SWAP4 SWAP1 SWAP4 ADD CALLDATALOAD SWAP4 POP POP POP JUMP JUMPDEST PUSH1 0x0 PUSH1 0x20 DUP3 DUP5 SUB SLT ISZERO PUSH2 0x1E0E JUMPI PUSH1 0x0 DUP1 REVERT JUMPDEST DUP2 MLOAD PUSH2 0x1DB0 DUP2 PUSH2 0x1D7E JUMP JUMPDEST PUSH1 0x0 PUSH1 0x20 DUP1 DUP4 MSTORE PUSH1 0x0 DUP5 SLOAD DUP2 PUSH1 0x1 DUP3 DUP2 SHR SWAP2 POP DUP1 DUP4 AND DUP1 PUSH2 0x1E3B JUMPI PUSH1 0x7F DUP4 AND SWAP3 POP JUMPDEST DUP6 DUP4 LT DUP2 SUB PUSH2 0x1E58 JUMPI PUSH4 0x4E487B71 PUSH1 0xE0 SHL DUP6 MSTORE PUSH1 0x22 PUSH1 0x4 MSTORE PUSH1 0x24 DUP6 REVERT JUMPDEST DUP8 DUP7 ADD DUP4 DUP2 MSTORE PUSH1 0x20 ADD DUP2 DUP1 ISZERO PUSH2 0x1E75 JUMPI PUSH1 0x1 DUP2 EQ PUSH2 0x1E86 JUMPI PUSH2 0x1EB1 JUMP JUMPDEST PUSH1 0xFF NOT DUP7 AND DUP3 MSTORE DUP8 DUP3 ADD SWAP7 POP PUSH2 0x1EB1 JUMP JUMPDEST PUSH1 0x0 DUP12 DUP2 MSTORE PUSH1 0x20 SWAP1 KECCAK256 PUSH1 0x0 JUMPDEST DUP7 DUP2 LT ISZERO PUSH2 0x1EAB JUMPI DUP2 SLOAD DUP5 DUP3 ADD MSTORE SWAP1 DUP6 ADD SWAP1 DUP10 ADD PUSH2 0x1E92 JUMP JUMPDEST DUP4 ADD SWAP8 POP POP JUMPDEST POP SWAP5 SWAP10 SWAP9 POP POP POP POP POP POP POP POP POP JUMP JUMPDEST PUSH1 0x0 PUSH1 0x20 DUP3 DUP5 SUB SLT ISZERO PUSH2 0x1ED2 JUMPI PUSH1 0x0 DUP1 REVERT JUMPDEST POP MLOAD SWAP2 SWAP1 POP JUMP JUMPDEST PUSH4 0x4E487B71 PUSH1 0xE0 SHL PUSH1 0x0 MSTORE PUSH1 0x11 PUSH1 0x4 MSTORE PUSH1 0x24 PUSH1 0x0 REVERT JUMPDEST PUSH1 0x0 DUP2 PUSH1 0x0 NOT DIV DUP4 GT DUP3 ISZERO ISZERO AND ISZERO PUSH2 0x1F09 JUMPI PUSH2 0x1F09 PUSH2 0x1ED9 JUMP JUMPDEST POP MUL SWAP1 JUMP JUMPDEST PUSH1 0x0 DUP3 PUSH2 0x1F2B JUMPI PUSH4 0x4E487B71 PUSH1 0xE0 SHL PUSH1 0x0 MSTORE PUSH1 0x12 PUSH1 0x4 MSTORE PUSH1 0x24 PUSH1 0x0 REVERT JUMPDEST POP DIV SWAP1 JUMP JUMPDEST PUSH1 0x0 DUP3 NOT DUP3 GT ISZERO PUSH2 0x1F43 JUMPI PUSH2 0x1F43 PUSH2 0x1ED9 JUMP JUMPDEST POP ADD SWAP1 JUMP JUMPDEST PUSH1 0x0 JUMPDEST DUP4 DUP2 LT ISZERO PUSH2 0x1F63 JUMPI DUP2 DUP2 ADD MLOAD DUP4 DUP3 ADD MSTORE PUSH1 0x20 ADD PUSH2 0x1F4B JUMP JUMPDEST DUP4 DUP2 GT ISZERO PUSH2 0x1F72 JUMPI PUSH1 0x0 DUP5 DUP5 ADD MSTORE JUMPDEST POP POP POP POP JUMP JUMPDEST PUSH1 0x20 DUP2 MSTORE PUSH1 0x0 DUP3 MLOAD PUSH1 0xA0 PUSH1 0x20 DUP5 ADD MSTORE DUP1 MLOAD DUP1 PUSH1 0xC0 DUP6 ADD MSTORE PUSH2 0x1FA0 DUP2 PUSH1 0xE0 DUP7 ADD PUSH1 0x20 DUP6 ADD PUSH2 0x1F48 JUMP JUMPDEST PUSH1 0x1 PUSH1 0x1 PUSH1 0xA0 SHL SUB PUSH1 0x20 DUP7 ADD MLOAD AND PUSH1 0x40 DUP6 ADD MSTORE PUSH1 0x40 DUP6 ADD MLOAD PUSH1 0x60 DUP6 ADD MSTORE PUSH1 0x60 DUP6 ADD MLOAD PUSH1 0x80 DUP6 ADD MSTORE PUSH1 0x80 DUP6 ADD MLOAD PUSH1 0xA0 DUP6 ADD MSTORE PUSH1 0xE0 PUSH1 0x1F NOT PUSH1 0x1F DUP4 ADD AND DUP6 ADD ADD SWAP3 POP POP POP SWAP3 SWAP2 POP POP JUMP JUMPDEST PUSH1 0x0 DUP3 MLOAD PUSH2 0x1FFA DUP2 DUP5 PUSH1 0x20 DUP8 ADD PUSH2 0x1F48 JUMP JUMPDEST SWAP2 SWAP1 SWAP2 ADD SWAP3 SWAP2 POP POP JUMP JUMPDEST PUSH1 0x0 PUSH1 0x20 DUP3 DUP5 SUB SLT ISZERO PUSH2 0x2016 JUMPI PUSH1 0x0 DUP1 REVERT JUMPDEST DUP2 MLOAD DUP1 ISZERO ISZERO DUP2 EQ PUSH2 0x1DB0 JUMPI PUSH1 0x0 DUP1 REVERT JUMPDEST PUSH1 0x0 PUSH1 0x20 DUP3 DUP5 SUB SLT ISZERO PUSH2 0x2038 JUMPI PUSH1 0x0 DUP1 REVERT JUMPDEST DUP2 MLOAD PUSH1 0xFF DUP2 AND DUP2 EQ PUSH2 0x1DB0 JUMPI PUSH1 0x0 DUP1 REVERT JUMPDEST PUSH1 0x1 DUP2 DUP2 JUMPDEST DUP1 DUP6 GT ISZERO PUSH2 0x2084 JUMPI DUP2 PUSH1 0x0 NOT DIV DUP3 GT ISZERO PUSH2 0x206A JUMPI PUSH2 0x206A PUSH2 0x1ED9 JUMP JUMPDEST DUP1 DUP6 AND ISZERO PUSH2 0x2077 JUMPI SWAP2 DUP2 MUL SWAP2 JUMPDEST SWAP4 DUP5 SHR SWAP4 SWAP1 DUP1 MUL SWAP1 PUSH2 0x204E JUMP JUMPDEST POP SWAP3 POP SWAP3 SWAP1 POP JUMP JUMPDEST PUSH1 0x0 DUP3 PUSH2 0x209B JUMPI POP PUSH1 0x1 PUSH2 0x1D03 JUMP JUMPDEST DUP2 PUSH2 0x20A8 JUMPI POP PUSH1 0x0 PUSH2 0x1D03 JUMP JUMPDEST DUP2 PUSH1 0x1 DUP2 EQ PUSH2 0x20BE JUMPI PUSH1 0x2 DUP2 EQ PUSH2 0x20C8 JUMPI PUSH2 0x20E4 JUMP JUMPDEST PUSH1 0x1 SWAP2 POP POP PUSH2 0x1D03 JUMP JUMPDEST PUSH1 0xFF DUP5 GT ISZERO PUSH2 0x20D9 JUMPI PUSH2 0x20D9 PUSH2 0x1ED9 JUMP JUMPDEST POP POP PUSH1 0x1 DUP3 SHL PUSH2 0x1D03 JUMP JUMPDEST POP PUSH1 0x20 DUP4 LT PUSH2 0x133 DUP4 LT AND PUSH1 0x4E DUP5 LT PUSH1 0xB DUP5 LT AND OR ISZERO PUSH2 0x2107 JUMPI POP DUP2 DUP2 EXP PUSH2 0x1D03 JUMP JUMPDEST PUSH2 0x2111 DUP4 DUP4 PUSH2 0x2049 JUMP JUMPDEST DUP1 PUSH1 0x0 NOT DIV DUP3 GT ISZERO PUSH2 0x2125 JUMPI PUSH2 0x2125 PUSH2 0x1ED9 JUMP JUMPDEST MUL SWAP4 SWAP3 POP POP POP JUMP JUMPDEST PUSH1 0x0 PUSH2 0x1D00 PUSH1 0xFF DUP5 AND DUP4 PUSH2 0x208C JUMP JUMPDEST PUSH1 0x0 DUP3 DUP3 LT ISZERO PUSH2 0x214E JUMPI PUSH2 0x214E PUSH2 0x1ED9 JUMP JUMPDEST POP SUB SWAP1 JUMP INVALID LOG2 PUSH5 0x6970667358 0x22 SLT KECCAK256 PUSH21 0xEE8DF288745C0338F073514F254F69D9F9BEEE9639 0x2A DIFFICULTY 0x4B 0xF9 0xBC ORIGIN 0xCC 0x29 ADD 0xA6 PUSH5 0x736F6C6343 STOP ADDMOD 0xE STOP CALLER "
				},
				"gasEstimates": {
					"creation": {
						"codeDepositCost": "1717000",
						"executionCost": "infinite",
						"totalCost": "infinite"
					},
					"external": {
						"FEE_PRECISION()": "261",
						"POOL_FEE_MAX()": "285",
						"authority()": "2371",
						"deposit(uint256)": "infinite",
						"ethToLUSDRatio()": "2339",
						"frontEndAddress()": "2394",
						"getETHRewards()": "infinite",
						"getLQTYRewards()": "infinite",
						"harvest(uint256)": "infinite",
						"hopTokenAddress()": "2372",
						"lqtyTokenAddress()": "2372",
						"lusdTokenAddress()": "2373",
						"poolFee()": "2364",
						"setAuthority(address)": "infinite",
						"setEthToLUSDRatio(uint256)": "infinite",
						"setFrontEndAddress(address)": "infinite",
						"setHopTokenAddress(address)": "infinite",
						"setPoolFee(uint256)": "infinite",
						"totalAmountDeployed()": "2385",
						"totalValueDeployed()": "2362",
						"treasury()": "2372",
						"updateTreasury()": "infinite",
						"withdraw(address,uint256)": "infinite"
					},
					"internal": {
						"_accountingFor(uint256,uint256,bool)": "infinite",
						"_depositLUSD(uint256)": "infinite",
						"_tokenValue(address,uint256)": "infinite"
					}
				},
				"methodIdentifiers": {
					"FEE_PRECISION()": "e63a391f",
					"POOL_FEE_MAX()": "739a4a37",
					"authority()": "bf7e214f",
					"deposit(uint256)": "b6b55f25",
					"ethToLUSDRatio()": "e616916a",
					"frontEndAddress()": "1d2528fc",
					"getETHRewards()": "78289ed2",
					"getLQTYRewards()": "78767d05",
					"harvest(uint256)": "ddc63262",
					"hopTokenAddress()": "10a18de2",
					"lqtyTokenAddress()": "817f6481",
					"lusdTokenAddress()": "0002fcd3",
					"poolFee()": "089fe6aa",
					"setAuthority(address)": "7a9e5e4b",
					"setEthToLUSDRatio(uint256)": "6bd0fd0f",
					"setFrontEndAddress(address)": "b7e78648",
					"setHopTokenAddress(address)": "5a762d64",
					"setPoolFee(uint256)": "9501dc87",
					"totalAmountDeployed()": "987f56ff",
					"totalValueDeployed()": "c901761d",
					"treasury()": "61d027b3",
					"updateTreasury()": "9c769787",
					"withdraw(address,uint256)": "f3fef3a3"
				}
			},
			"storageLayout": {
				"storage": [
					{
						"astId": 1269,
						"contract": "LUSDAllocator/LUSDAllocator.sol:LUSDAllocator",
						"label": "UNAUTHORIZED",
						"offset": 0,
						"slot": "0",
						"type": "t_string_storage"
					},
					{
						"astId": 1272,
						"contract": "LUSDAllocator/LUSDAllocator.sol:LUSDAllocator",
						"label": "authority",
						"offset": 0,
						"slot": "1",
						"type": "t_contract(IExodusAuthority)168"
					},
					{
						"astId": 389,
						"contract": "LUSDAllocator/LUSDAllocator.sol:LUSDAllocator",
						"label": "treasury",
						"offset": 0,
						"slot": "2",
						"type": "t_contract(ITreasury)333"
					},
					{
						"astId": 399,
						"contract": "LUSDAllocator/LUSDAllocator.sol:LUSDAllocator",
						"label": "ethToLUSDRatio",
						"offset": 0,
						"slot": "3",
						"type": "t_uint256"
					},
					{
						"astId": 403,
						"contract": "LUSDAllocator/LUSDAllocator.sol:LUSDAllocator",
						"label": "poolFee",
						"offset": 0,
						"slot": "4",
						"type": "t_uint256"
					},
					{
						"astId": 405,
						"contract": "LUSDAllocator/LUSDAllocator.sol:LUSDAllocator",
						"label": "hopTokenAddress",
						"offset": 0,
						"slot": "5",
						"type": "t_address"
					},
					{
						"astId": 407,
						"contract": "LUSDAllocator/LUSDAllocator.sol:LUSDAllocator",
						"label": "frontEndAddress",
						"offset": 0,
						"slot": "6",
						"type": "t_address"
					},
					{
						"astId": 409,
						"contract": "LUSDAllocator/LUSDAllocator.sol:LUSDAllocator",
						"label": "lusdTokenAddress",
						"offset": 0,
						"slot": "7",
						"type": "t_address"
					},
					{
						"astId": 411,
						"contract": "LUSDAllocator/LUSDAllocator.sol:LUSDAllocator",
						"label": "lqtyTokenAddress",
						"offset": 0,
						"slot": "8",
						"type": "t_address"
					},
					{
						"astId": 413,
						"contract": "LUSDAllocator/LUSDAllocator.sol:LUSDAllocator",
						"label": "totalValueDeployed",
						"offset": 0,
						"slot": "9",
						"type": "t_uint256"
					},
					{
						"astId": 415,
						"contract": "LUSDAllocator/LUSDAllocator.sol:LUSDAllocator",
						"label": "totalAmountDeployed",
						"offset": 0,
						"slot": "10",
						"type": "t_uint256"
					}
				],
				"types": {
					"t_address": {
						"encoding": "inplace",
						"label": "address",
						"numberOfBytes": "20"
					},
					"t_contract(IExodusAuthority)168": {
						"encoding": "inplace",
						"label": "contract IExodusAuthority",
						"numberOfBytes": "20"
					},
					"t_contract(ITreasury)333": {
						"encoding": "inplace",
						"label": "contract ITreasury",
						"numberOfBytes": "20"
					},
					"t_string_storage": {
						"encoding": "bytes",
						"label": "string",
						"numberOfBytes": "32"
					},
					"t_uint256": {
						"encoding": "inplace",
						"label": "uint256",
						"numberOfBytes": "32"
					}
				}
			},
			"userdoc": {
				"kind": "user",
				"methods": {
					"deposit(uint256)": {
						"notice": "withdraws asset from treasury, deposits asset into stability pool"
					},
					"ethToLUSDRatio()": {
						"notice": "The target percent of eth to swap to LUSD at uniswap.  divide by 1e6 to get actual value. Examples: 500000 => 500000 / 1e6 = 0.50 = 50% 330000 => 330000 / 1e6 = 0.33 = 33%"
					},
					"getETHRewards()": {
						"notice": "get ETH rewards from SP"
					},
					"getLQTYRewards()": {
						"notice": "get LQTY rewards from SP"
					},
					"harvest(uint256)": {
						"notice": "claims LQTY & ETH Rewards.   minETHLUSDRate minimum rate of when swapping ETH->LUSD.  e.g. 3500 means we swap at a rate of 1 ETH for a minimum 3500 LUSD 1.  Harvest from LUSD StabilityPool to get ETH+LQTY rewards 2.  Stake LQTY rewards from #1.  This txn will also give out any outstanding ETH+LUSD rewards from prior staking 3.  If we have eth, convert to weth, then swap a percentage of it to LUSD.  If swap successul then send all remaining WETH to treasury 4.  Deposit LUSD from #2 and potentially #3 into StabilityPool"
					},
					"poolFee()": {
						"notice": "poolFee parameter for uniswap swaprouter, divide by 1e6 to get the actual value.  See https://docs.uniswap.org/protocol/guides/swaps/multihop-swaps#calling-the-function-1 Maximum allowed value is 10000 (1%) Examples: poolFee =  3000 =>  3000 / 1e6 = 0.003 = 0.3% poolFee = 10000 => 10000 / 1e6 =  0.01 = 1.0%"
					},
					"setFrontEndAddress(address)": {
						"notice": "setsFrontEndAddress for Stability pool rewards"
					},
					"withdraw(address,uint256)": {
						"notice": "withdraws from stability pool, and deposits asset into treasury"
					}
				},
				"notice": "Contract deploys reserves from treasury into the liquity stabilty pool, and those rewards  are then paid out to the staking contract.  See harvest() function for more details.",
				"version": 1
			}
		}
	}
}