{
	"frax/Frax.sol": {
		"FRAX": {
			"abi": [
				{
					"inputs": [
						{
							"internalType": "uint256",
							"name": "chainId_",
							"type": "uint256"
						}
					],
					"stateMutability": "nonpayable",
					"type": "constructor"
				},
				{
					"anonymous": false,
					"inputs": [
						{
							"indexed": true,
							"internalType": "address",
							"name": "src",
							"type": "address"
						},
						{
							"indexed": true,
							"internalType": "address",
							"name": "guy",
							"type": "address"
						},
						{
							"indexed": false,
							"internalType": "uint256",
							"name": "wad",
							"type": "uint256"
						}
					],
					"name": "Approval",
					"type": "event"
				},
				{
					"anonymous": true,
					"inputs": [
						{
							"indexed": true,
							"internalType": "bytes4",
							"name": "sig",
							"type": "bytes4"
						},
						{
							"indexed": true,
							"internalType": "address",
							"name": "usr",
							"type": "address"
						},
						{
							"indexed": true,
							"internalType": "bytes32",
							"name": "arg1",
							"type": "bytes32"
						},
						{
							"indexed": true,
							"internalType": "bytes32",
							"name": "arg2",
							"type": "bytes32"
						},
						{
							"indexed": false,
							"internalType": "bytes",
							"name": "data",
							"type": "bytes"
						}
					],
					"name": "LogNote",
					"type": "event"
				},
				{
					"anonymous": false,
					"inputs": [
						{
							"indexed": true,
							"internalType": "address",
							"name": "src",
							"type": "address"
						},
						{
							"indexed": true,
							"internalType": "address",
							"name": "dst",
							"type": "address"
						},
						{
							"indexed": false,
							"internalType": "uint256",
							"name": "wad",
							"type": "uint256"
						}
					],
					"name": "Transfer",
					"type": "event"
				},
				{
					"inputs": [],
					"name": "DOMAIN_SEPARATOR",
					"outputs": [
						{
							"internalType": "bytes32",
							"name": "",
							"type": "bytes32"
						}
					],
					"stateMutability": "view",
					"type": "function"
				},
				{
					"inputs": [],
					"name": "PERMIT_TYPEHASH",
					"outputs": [
						{
							"internalType": "bytes32",
							"name": "",
							"type": "bytes32"
						}
					],
					"stateMutability": "view",
					"type": "function"
				},
				{
					"inputs": [
						{
							"internalType": "address",
							"name": "usr",
							"type": "address"
						}
					],
					"name": "addAuth",
					"outputs": [],
					"stateMutability": "nonpayable",
					"type": "function"
				},
				{
					"inputs": [
						{
							"internalType": "uint256",
							"name": "_limit",
							"type": "uint256"
						}
					],
					"name": "adjustDailyFraxLimit",
					"outputs": [],
					"stateMutability": "nonpayable",
					"type": "function"
				},
				{
					"inputs": [
						{
							"internalType": "address",
							"name": "account_",
							"type": "address"
						},
						{
							"internalType": "address",
							"name": "sender_",
							"type": "address"
						}
					],
					"name": "allowance",
					"outputs": [
						{
							"internalType": "uint256",
							"name": "",
							"type": "uint256"
						}
					],
					"stateMutability": "view",
					"type": "function"
				},
				{
					"inputs": [
						{
							"internalType": "address",
							"name": "usr_",
							"type": "address"
						},
						{
							"internalType": "uint256",
							"name": "wad_",
							"type": "uint256"
						}
					],
					"name": "approve",
					"outputs": [
						{
							"internalType": "bool",
							"name": "",
							"type": "bool"
						}
					],
					"stateMutability": "nonpayable",
					"type": "function"
				},
				{
					"inputs": [
						{
							"internalType": "address",
							"name": "",
							"type": "address"
						}
					],
					"name": "balanceOf",
					"outputs": [
						{
							"internalType": "uint256",
							"name": "",
							"type": "uint256"
						}
					],
					"stateMutability": "view",
					"type": "function"
				},
				{
					"inputs": [
						{
							"internalType": "address",
							"name": "usr",
							"type": "address"
						},
						{
							"internalType": "uint256",
							"name": "wad",
							"type": "uint256"
						}
					],
					"name": "burn",
					"outputs": [],
					"stateMutability": "nonpayable",
					"type": "function"
				},
				{
					"inputs": [],
					"name": "dailyFraxLimit",
					"outputs": [
						{
							"internalType": "uint256",
							"name": "",
							"type": "uint256"
						}
					],
					"stateMutability": "view",
					"type": "function"
				},
				{
					"inputs": [],
					"name": "decimals",
					"outputs": [
						{
							"internalType": "uint8",
							"name": "",
							"type": "uint8"
						}
					],
					"stateMutability": "view",
					"type": "function"
				},
				{
					"inputs": [
						{
							"internalType": "address",
							"name": "guy",
							"type": "address"
						}
					],
					"name": "deny",
					"outputs": [],
					"stateMutability": "nonpayable",
					"type": "function"
				},
				{
					"inputs": [
						{
							"internalType": "address",
							"name": "",
							"type": "address"
						}
					],
					"name": "fraxMintedToday",
					"outputs": [
						{
							"internalType": "uint256",
							"name": "",
							"type": "uint256"
						}
					],
					"stateMutability": "view",
					"type": "function"
				},
				{
					"inputs": [
						{
							"internalType": "address",
							"name": "",
							"type": "address"
						}
					],
					"name": "lastMintRestart",
					"outputs": [
						{
							"internalType": "uint256",
							"name": "",
							"type": "uint256"
						}
					],
					"stateMutability": "view",
					"type": "function"
				},
				{
					"inputs": [
						{
							"internalType": "address",
							"name": "usr",
							"type": "address"
						},
						{
							"internalType": "uint256",
							"name": "wad",
							"type": "uint256"
						}
					],
					"name": "mint",
					"outputs": [],
					"stateMutability": "nonpayable",
					"type": "function"
				},
				{
					"inputs": [
						{
							"internalType": "address",
							"name": "src",
							"type": "address"
						},
						{
							"internalType": "address",
							"name": "dst",
							"type": "address"
						},
						{
							"internalType": "uint256",
							"name": "wad",
							"type": "uint256"
						}
					],
					"name": "move",
					"outputs": [],
					"stateMutability": "nonpayable",
					"type": "function"
				},
				{
					"inputs": [],
					"name": "name",
					"outputs": [
						{
							"internalType": "string",
							"name": "",
							"type": "string"
						}
					],
					"stateMutability": "view",
					"type": "function"
				},
				{
					"inputs": [
						{
							"internalType": "address",
							"name": "",
							"type": "address"
						}
					],
					"name": "nonces",
					"outputs": [
						{
							"internalType": "uint256",
							"name": "",
							"type": "uint256"
						}
					],
					"stateMutability": "view",
					"type": "function"
				},
				{
					"inputs": [
						{
							"internalType": "address",
							"name": "holder",
							"type": "address"
						},
						{
							"internalType": "address",
							"name": "spender",
							"type": "address"
						},
						{
							"internalType": "uint256",
							"name": "nonce",
							"type": "uint256"
						},
						{
							"internalType": "uint256",
							"name": "expiry",
							"type": "uint256"
						},
						{
							"internalType": "bool",
							"name": "allowed",
							"type": "bool"
						},
						{
							"internalType": "uint8",
							"name": "v",
							"type": "uint8"
						},
						{
							"internalType": "bytes32",
							"name": "r",
							"type": "bytes32"
						},
						{
							"internalType": "bytes32",
							"name": "s",
							"type": "bytes32"
						}
					],
					"name": "permit",
					"outputs": [],
					"stateMutability": "nonpayable",
					"type": "function"
				},
				{
					"inputs": [
						{
							"internalType": "address",
							"name": "usr",
							"type": "address"
						},
						{
							"internalType": "uint256",
							"name": "wad",
							"type": "uint256"
						}
					],
					"name": "pull",
					"outputs": [],
					"stateMutability": "nonpayable",
					"type": "function"
				},
				{
					"inputs": [
						{
							"internalType": "address",
							"name": "usr",
							"type": "address"
						},
						{
							"internalType": "uint256",
							"name": "wad",
							"type": "uint256"
						}
					],
					"name": "push",
					"outputs": [],
					"stateMutability": "nonpayable",
					"type": "function"
				},
				{
					"inputs": [
						{
							"internalType": "address",
							"name": "guy",
							"type": "address"
						}
					],
					"name": "rely",
					"outputs": [],
					"stateMutability": "nonpayable",
					"type": "function"
				},
				{
					"inputs": [],
					"name": "symbol",
					"outputs": [
						{
							"internalType": "string",
							"name": "",
							"type": "string"
						}
					],
					"stateMutability": "view",
					"type": "function"
				},
				{
					"inputs": [],
					"name": "totalSupply",
					"outputs": [
						{
							"internalType": "uint256",
							"name": "",
							"type": "uint256"
						}
					],
					"stateMutability": "view",
					"type": "function"
				},
				{
					"inputs": [
						{
							"internalType": "address",
							"name": "dst",
							"type": "address"
						},
						{
							"internalType": "uint256",
							"name": "wad",
							"type": "uint256"
						}
					],
					"name": "transfer",
					"outputs": [
						{
							"internalType": "bool",
							"name": "",
							"type": "bool"
						}
					],
					"stateMutability": "nonpayable",
					"type": "function"
				},
				{
					"inputs": [
						{
							"internalType": "address",
							"name": "src",
							"type": "address"
						},
						{
							"internalType": "address",
							"name": "dst",
							"type": "address"
						},
						{
							"internalType": "uint256",
							"name": "wad",
							"type": "uint256"
						}
					],
					"name": "transferFrom",
					"outputs": [
						{
							"internalType": "bool",
							"name": "",
							"type": "bool"
						}
					],
					"stateMutability": "nonpayable",
					"type": "function"
				},
				{
					"inputs": [],
					"name": "version",
					"outputs": [
						{
							"internalType": "string",
							"name": "",
							"type": "string"
						}
					],
					"stateMutability": "view",
					"type": "function"
				},
				{
					"inputs": [
						{
							"internalType": "address",
							"name": "",
							"type": "address"
						}
					],
					"name": "wards",
					"outputs": [
						{
							"internalType": "uint256",
							"name": "",
							"type": "uint256"
						}
					],
					"stateMutability": "view",
					"type": "function"
				}
			],
			"devdoc": {
				"kind": "dev",
				"methods": {},
				"version": 1
			},
			"evm": {
				"assembly": "    /* \"frax/Frax.sol\":2308:8773  contract FRAX is LibNote {... */\n  mstore(0x40, 0x80)\n    /* \"frax/Frax.sol\":4110:4567  constructor(uint256 chainId_) {... */\n  callvalue\n  dup1\n  iszero\n  tag_1\n  jumpi\n  0x00\n  dup1\n  revert\ntag_1:\n  pop\n  mload(0x40)\n  sub(codesize, bytecodeSize)\n  dup1\n  bytecodeSize\n  dup4\n  codecopy\n  dup2\n  dup2\n  add\n  0x40\n  mstore\n  0x20\n  dup2\n  lt\n  iszero\n  tag_2\n  jumpi\n  0x00\n  dup1\n  revert\ntag_2:\n  pop\n  mload\n    /* \"frax/Frax.sol\":4156:4166  msg.sender */\n  caller\n    /* \"frax/Frax.sol\":4150:4155  wards */\n  0x00\n    /* \"frax/Frax.sol\":4150:4167  wards[msg.sender] */\n  swap1\n  dup2\n  mstore\n    /* \"frax/Frax.sol\":4110:4567  constructor(uint256 chainId_) {... */\n  0x20\n    /* \"frax/Frax.sol\":4150:4167  wards[msg.sender] */\n  dup2\n  dup2\n  mstore\n  0x40\n  swap2\n  dup3\n  swap1\n  keccak256\n    /* \"frax/Frax.sol\":4170:4171  1 */\n  0x01\n    /* \"frax/Frax.sol\":4150:4171  wards[msg.sender] = 1 */\n  swap1\n  dup2\n  swap1\n  sstore\n    /* \"frax/Frax.sol\":4380:4384  name */\n  dup3\n  mload\n  dup1\n  dup5\n  add\n  dup5\n  mstore\n  0x0a\n  dup2\n  mstore\n  shl(0xb1, 0x232920ac102a27a5a2a7)\n  swap1\n  dup4\n  add\n  mstore\n    /* \"frax/Frax.sol\":4420:4427  version */\n  dup3\n  mload\n  dup1\n  dup5\n  add\n  dup5\n  mstore\n  swap1\n  dup2\n  mstore\n  shl(0xf8, 0x31)\n  swap1\n  dup3\n  add\n  mstore\n    /* \"frax/Frax.sol\":4223:4500  abi.encode(... */\n  dup2\n  mload\n    /* \"frax/Frax.sol\":4251:4346  keccak256(\"EIP712Domain(string name,string version,uint256 chainId,address verifyingContract)\") */\n  0x8b73c3c69bb8fe3d512ecc4cf759cc79239f7b179b0ffacaa9a75d522b39400f\n    /* \"frax/Frax.sol\":4223:4500  abi.encode(... */\n  dup2\n  dup4\n  add\n  mstore\n    /* \"frax/Frax.sol\":4364:4386  keccak256(bytes(name)) */\n  0x0b5e63856806857c7af67a3841d8148fce118228c7167c9e8705ab68578b5d9f\n    /* \"frax/Frax.sol\":4223:4500  abi.encode(... */\n  dup2\n  dup5\n  add\n  mstore\n    /* \"frax/Frax.sol\":4404:4429  keccak256(bytes(version)) */\n  0xc89efdaa54c0f20c7adf612882df0950f5a951637e0307cdcb4c672f298b8bc6\n    /* \"frax/Frax.sol\":4223:4500  abi.encode(... */\n  0x60\n  dup3\n  add\n  mstore\n  0x80\n  dup2\n  add\n  swap4\n  swap1\n  swap4\n  mstore\n    /* \"frax/Frax.sol\":4481:4485  this */\n  address\n    /* \"frax/Frax.sol\":4223:4500  abi.encode(... */\n  0xa0\n  dup1\n  dup6\n  add\n  swap2\n  swap1\n  swap2\n  mstore\n  dup3\n  mload\n  dup1\n  dup6\n  sub\n  swap1\n  swap2\n  add\n  dup2\n  mstore\n  0xc0\n  swap1\n  swap4\n  add\n  swap1\n  swap2\n  mstore\n    /* \"frax/Frax.sol\":4200:4510  keccak256(... */\n  dup2\n  mload\n  swap2\n  add\n  keccak256\n    /* \"frax/Frax.sol\":4181:4197  DOMAIN_SEPARATOR */\n  0x08\n    /* \"frax/Frax.sol\":4181:4510  DOMAIN_SEPARATOR = keccak256(... */\n  sstore\n    /* \"frax/Frax.sol\":4537:4560  10000000000000000000000 */\n  0x021e19e0c9bab2400000\n    /* \"frax/Frax.sol\":4520:4534  dailyFraxLimit */\n  0x02\n    /* \"frax/Frax.sol\":4520:4560  dailyFraxLimit = 10000000000000000000000 */\n  sstore\n    /* \"frax/Frax.sol\":2308:8773  contract FRAX is LibNote {... */\n  dataSize(sub_0)\n  dup1\n  dataOffset(sub_0)\n  0x00\n  codecopy\n  0x00\n  return\nstop\n\nsub_0: assembly {\n        /* \"frax/Frax.sol\":2308:8773  contract FRAX is LibNote {... */\n      mstore(0x40, 0x80)\n      callvalue\n      dup1\n      iszero\n      tag_1\n      jumpi\n      0x00\n      dup1\n      revert\n    tag_1:\n      pop\n      jumpi(tag_2, lt(calldatasize, 0x04))\n      shr(0xe0, calldataload(0x00))\n      dup1\n      0x7ecebe00\n      gt\n      tag_30\n      jumpi\n      dup1\n      0xb753a98c\n      gt\n      tag_31\n      jumpi\n      dup1\n      0xd3fd35ec\n      gt\n      tag_32\n      jumpi\n      dup1\n      0xd3fd35ec\n      eq\n      tag_26\n      jumpi\n      dup1\n      0xd7f1bf12\n      eq\n      tag_27\n      jumpi\n      dup1\n      0xdd62ed3e\n      eq\n      tag_28\n      jumpi\n      dup1\n      0xf2d5d56b\n      eq\n      tag_29\n      jumpi\n      jump(tag_2)\n    tag_32:\n      dup1\n      0xb753a98c\n      eq\n      tag_23\n      jumpi\n      dup1\n      0xbb35783b\n      eq\n      tag_24\n      jumpi\n      dup1\n      0xbf353dbb\n      eq\n      tag_25\n      jumpi\n      jump(tag_2)\n    tag_31:\n      dup1\n      0x9c52a7f1\n      gt\n      tag_33\n      jumpi\n      dup1\n      0x9c52a7f1\n      eq\n      tag_19\n      jumpi\n      dup1\n      0x9dc29fac\n      eq\n      tag_20\n      jumpi\n      dup1\n      0x9e16de34\n      eq\n      tag_21\n      jumpi\n      dup1\n      0xa9059cbb\n      eq\n      tag_22\n      jumpi\n      jump(tag_2)\n    tag_33:\n      dup1\n      0x7ecebe00\n      eq\n      tag_16\n      jumpi\n      dup1\n      0x8fcbaf0c\n      eq\n      tag_17\n      jumpi\n      dup1\n      0x95d89b41\n      eq\n      tag_18\n      jumpi\n      jump(tag_2)\n    tag_30:\n      dup1\n      0x3644e515\n      gt\n      tag_34\n      jumpi\n      dup1\n      0x54fd4d50\n      gt\n      tag_35\n      jumpi\n      dup1\n      0x54fd4d50\n      eq\n      tag_12\n      jumpi\n      dup1\n      0x65fae35e\n      eq\n      tag_11\n      jumpi\n      dup1\n      0x70a08231\n      eq\n      tag_14\n      jumpi\n      dup1\n      0x798247ae\n      eq\n      tag_15\n      jumpi\n      jump(tag_2)\n    tag_35:\n      dup1\n      0x3644e515\n      eq\n      tag_9\n      jumpi\n      dup1\n      0x40c10f19\n      eq\n      tag_10\n      jumpi\n      dup1\n      0x5422224e\n      eq\n      tag_11\n      jumpi\n      jump(tag_2)\n    tag_34:\n      dup1\n      0x06fdde03\n      eq\n      tag_3\n      jumpi\n      dup1\n      0x095ea7b3\n      eq\n      tag_4\n      jumpi\n      dup1\n      0x18160ddd\n      eq\n      tag_5\n      jumpi\n      dup1\n      0x23b872dd\n      eq\n      tag_6\n      jumpi\n      dup1\n      0x30adf81f\n      eq\n      tag_7\n      jumpi\n      dup1\n      0x313ce567\n      eq\n      tag_8\n      jumpi\n    tag_2:\n      0x00\n      dup1\n      revert\n        /* \"frax/Frax.sol\":2853:2895  string public constant name = \"FRAX TOKEN\" */\n    tag_3:\n      tag_36\n      tag_37\n      jump\t// in\n    tag_36:\n      0x40\n      dup1\n      mload\n      0x20\n      dup1\n      dup3\n      mstore\n      dup4\n      mload\n      dup2\n      dup4\n      add\n      mstore\n      dup4\n      mload\n      swap2\n      swap3\n      dup4\n      swap3\n      swap1\n      dup4\n      add\n      swap2\n      dup6\n      add\n      swap1\n      dup1\n      dup4\n      dup4\n      0x00\n    tag_38:\n      dup4\n      dup2\n      lt\n      iszero\n      tag_40\n      jumpi\n      dup2\n      dup2\n      add\n      mload\n      dup4\n      dup3\n      add\n      mstore\n      0x20\n      add\n      jump(tag_38)\n    tag_40:\n      pop\n      pop\n      pop\n      pop\n      swap1\n      pop\n      swap1\n      dup2\n      add\n      swap1\n      0x1f\n      and\n      dup1\n      iszero\n      tag_41\n      jumpi\n      dup1\n      dup3\n      sub\n      dup1\n      mload\n      0x01\n      dup4\n      0x20\n      sub\n      0x0100\n      exp\n      sub\n      not\n      and\n      dup2\n      mstore\n      0x20\n      add\n      swap2\n      pop\n    tag_41:\n      pop\n      swap3\n      pop\n      pop\n      pop\n      mload(0x40)\n      dup1\n      swap2\n      sub\n      swap1\n      return\n        /* \"frax/Frax.sol\":7352:7465  function approve(address usr_, uint256 wad_) external returns (bool) {... */\n    tag_4:\n      tag_42\n      0x04\n      dup1\n      calldatasize\n      sub\n      0x40\n      dup2\n      lt\n      iszero\n      tag_43\n      jumpi\n      0x00\n      dup1\n      revert\n    tag_43:\n      pop\n      sub(shl(0xa0, 0x01), 0x01)\n      dup2\n      calldataload\n      and\n      swap1\n      0x20\n      add\n      calldataload\n      tag_44\n      jump\t// in\n    tag_42:\n      0x40\n      dup1\n      mload\n      swap2\n      iszero\n      iszero\n      dup3\n      mstore\n      mload\n      swap1\n      dup2\n      swap1\n      sub\n      0x20\n      add\n      swap1\n      return\n        /* \"frax/Frax.sol\":3028:3054  uint256 public totalSupply */\n    tag_5:\n      tag_45\n      tag_46\n      jump\t// in\n    tag_45:\n      0x40\n      dup1\n      mload\n      swap2\n      dup3\n      mstore\n      mload\n      swap1\n      dup2\n      swap1\n      sub\n      0x20\n      add\n      swap1\n      return\n        /* \"frax/Frax.sol\":5017:5625  function transferFrom(... */\n    tag_6:\n      tag_42\n      0x04\n      dup1\n      calldatasize\n      sub\n      0x60\n      dup2\n      lt\n      iszero\n      tag_48\n      jumpi\n      0x00\n      dup1\n      revert\n    tag_48:\n      pop\n      sub(shl(0xa0, 0x01), 0x01)\n      dup2\n      calldataload\n      dup2\n      and\n      swap2\n      0x20\n      dup2\n      add\n      calldataload\n      swap1\n      swap2\n      and\n      swap1\n      0x40\n      add\n      calldataload\n      tag_49\n      jump\t// in\n        /* \"frax/Frax.sol\":3995:4103  bytes32 public constant PERMIT_TYPEHASH = 0xea2aa0a1be11a07ed86d755c93467f4f82362b452371d1ba94d1715123511acb */\n    tag_7:\n      tag_45\n      tag_51\n      jump\t// in\n        /* \"frax/Frax.sol\":2987:3022  uint8 public constant decimals = 18 */\n    tag_8:\n      tag_52\n      tag_53\n      jump\t// in\n    tag_52:\n      0x40\n      dup1\n      mload\n      0xff\n      swap1\n      swap3\n      and\n      dup3\n      mstore\n      mload\n      swap1\n      dup2\n      swap1\n      sub\n      0x20\n      add\n      swap1\n      return\n        /* \"frax/Frax.sol\":3814:3845  bytes32 public DOMAIN_SEPARATOR */\n    tag_9:\n      tag_45\n      tag_55\n      jump\t// in\n        /* \"frax/Frax.sol\":5818:6625  function mint(address usr, uint256 wad) external {... */\n    tag_10:\n      tag_56\n      0x04\n      dup1\n      calldatasize\n      sub\n      0x40\n      dup2\n      lt\n      iszero\n      tag_57\n      jumpi\n      0x00\n      dup1\n      revert\n    tag_57:\n      pop\n      sub(shl(0xa0, 0x01), 0x01)\n      dup2\n      calldataload\n      and\n      swap1\n      0x20\n      add\n      calldataload\n      tag_58\n      jump\t// in\n    tag_56:\n      stop\n        /* \"frax/Frax.sol\":5631:5706  function addAuth(address usr) external auth {... */\n    tag_11:\n      tag_56\n      0x04\n      dup1\n      calldatasize\n      sub\n      0x20\n      dup2\n      lt\n      iszero\n      tag_60\n      jumpi\n      0x00\n      dup1\n      revert\n    tag_60:\n      pop\n      calldataload\n      sub(shl(0xa0, 0x01), 0x01)\n      and\n      tag_61\n      jump\t// in\n        /* \"frax/Frax.sol\":2945:2981  string public constant version = \"1\" */\n    tag_12:\n      tag_36\n      tag_63\n      jump\t// in\n        /* \"frax/Frax.sol\":3096:3140  mapping(address => uint256) public balanceOf */\n    tag_14:\n      tag_45\n      0x04\n      dup1\n      calldatasize\n      sub\n      0x20\n      dup2\n      lt\n      iszero\n      tag_72\n      jumpi\n      0x00\n      dup1\n      revert\n    tag_72:\n      pop\n      calldataload\n      sub(shl(0xa0, 0x01), 0x01)\n      and\n      tag_73\n      jump\t// in\n        /* \"frax/Frax.sol\":3265:3315  mapping(address => uint256) public lastMintRestart */\n    tag_15:\n      tag_45\n      0x04\n      dup1\n      calldatasize\n      sub\n      0x20\n      dup2\n      lt\n      iszero\n      tag_75\n      jumpi\n      0x00\n      dup1\n      revert\n    tag_75:\n      pop\n      calldataload\n      sub(shl(0xa0, 0x01), 0x01)\n      and\n      tag_76\n      jump\t// in\n        /* \"frax/Frax.sol\":3218:3259  mapping(address => uint256) public nonces */\n    tag_16:\n      tag_45\n      0x04\n      dup1\n      calldatasize\n      sub\n      0x20\n      dup2\n      lt\n      iszero\n      tag_78\n      jumpi\n      0x00\n      dup1\n      revert\n    tag_78:\n      pop\n      calldataload\n      sub(shl(0xa0, 0x01), 0x01)\n      and\n      tag_79\n      jump\t// in\n        /* \"frax/Frax.sol\":7882:8771  function permit(... */\n    tag_17:\n      tag_56\n      0x04\n      dup1\n      calldatasize\n      sub\n      0x0100\n      dup2\n      lt\n      iszero\n      tag_81\n      jumpi\n      0x00\n      dup1\n      revert\n    tag_81:\n      pop\n      sub(shl(0xa0, 0x01), 0x01)\n      dup2\n      calldataload\n      dup2\n      and\n      swap2\n      0x20\n      dup2\n      add\n      calldataload\n      swap1\n      swap2\n      and\n      swap1\n      0x40\n      dup2\n      add\n      calldataload\n      swap1\n      0x60\n      dup2\n      add\n      calldataload\n      swap1\n      0x80\n      dup2\n      add\n      calldataload\n      iszero\n      iszero\n      swap1\n      0xff\n      0xa0\n      dup3\n      add\n      calldataload\n      and\n      swap1\n      0xc0\n      dup2\n      add\n      calldataload\n      swap1\n      0xe0\n      add\n      calldataload\n      tag_82\n      jump\t// in\n        /* \"frax/Frax.sol\":2901:2939  string public constant symbol = \"FRAX\" */\n    tag_18:\n      tag_36\n      tag_84\n      jump\t// in\n        /* \"frax/Frax.sol\":2640:2717  function deny(address guy) external note auth {... */\n    tag_19:\n      tag_56\n      0x04\n      dup1\n      calldatasize\n      sub\n      0x20\n      dup2\n      lt\n      iszero\n      tag_90\n      jumpi\n      0x00\n      dup1\n      revert\n    tag_90:\n      pop\n      calldataload\n      sub(shl(0xa0, 0x01), 0x01)\n      and\n      tag_91\n      jump\t// in\n        /* \"frax/Frax.sol\":6631:7155  function burn(address usr, uint256 wad) external {... */\n    tag_20:\n      tag_56\n      0x04\n      dup1\n      calldatasize\n      sub\n      0x40\n      dup2\n      lt\n      iszero\n      tag_93\n      jumpi\n      0x00\n      dup1\n      revert\n    tag_93:\n      pop\n      sub(shl(0xa0, 0x01), 0x01)\n      dup2\n      calldataload\n      and\n      swap1\n      0x20\n      add\n      calldataload\n      tag_94\n      jump\t// in\n        /* \"frax/Frax.sol\":3321:3371  mapping(address => uint256) public fraxMintedToday */\n    tag_21:\n      tag_45\n      0x04\n      dup1\n      calldatasize\n      sub\n      0x20\n      dup2\n      lt\n      iszero\n      tag_96\n      jumpi\n      0x00\n      dup1\n      revert\n    tag_96:\n      pop\n      calldataload\n      sub(shl(0xa0, 0x01), 0x01)\n      and\n      tag_97\n      jump\t// in\n        /* \"frax/Frax.sol\":4885:5011  function transfer(address dst, uint256 wad) external returns (bool) {... */\n    tag_22:\n      tag_42\n      0x04\n      dup1\n      calldatasize\n      sub\n      0x40\n      dup2\n      lt\n      iszero\n      tag_99\n      jumpi\n      0x00\n      dup1\n      revert\n    tag_99:\n      pop\n      sub(shl(0xa0, 0x01), 0x01)\n      dup2\n      calldataload\n      and\n      swap1\n      0x20\n      add\n      calldataload\n      tag_100\n      jump\t// in\n        /* \"frax/Frax.sol\":7492:7592  function push(address usr, uint256 wad) external {... */\n    tag_23:\n      tag_56\n      0x04\n      dup1\n      calldatasize\n      sub\n      0x40\n      dup2\n      lt\n      iszero\n      tag_102\n      jumpi\n      0x00\n      dup1\n      revert\n    tag_102:\n      pop\n      sub(shl(0xa0, 0x01), 0x01)\n      dup2\n      calldataload\n      and\n      swap1\n      0x20\n      add\n      calldataload\n      tag_103\n      jump\t// in\n        /* \"frax/Frax.sol\":7704:7840  function move(... */\n    tag_24:\n      tag_56\n      0x04\n      dup1\n      calldatasize\n      sub\n      0x60\n      dup2\n      lt\n      iszero\n      tag_105\n      jumpi\n      0x00\n      dup1\n      revert\n    tag_105:\n      pop\n      sub(shl(0xa0, 0x01), 0x01)\n      dup2\n      calldataload\n      dup2\n      and\n      swap2\n      0x20\n      dup2\n      add\n      calldataload\n      swap1\n      swap2\n      and\n      swap1\n      0x40\n      add\n      calldataload\n      tag_106\n      jump\t// in\n        /* \"frax/Frax.sol\":2510:2550  mapping(address => uint256) public wards */\n    tag_25:\n      tag_45\n      0x04\n      dup1\n      calldatasize\n      sub\n      0x20\n      dup2\n      lt\n      iszero\n      tag_108\n      jumpi\n      0x00\n      dup1\n      revert\n    tag_108:\n      pop\n      calldataload\n      sub(shl(0xa0, 0x01), 0x01)\n      and\n      tag_109\n      jump\t// in\n        /* \"frax/Frax.sol\":5712:5812  function adjustDailyFraxLimit(uint256 _limit) external auth {... */\n    tag_26:\n      tag_56\n      0x04\n      dup1\n      calldatasize\n      sub\n      0x20\n      dup2\n      lt\n      iszero\n      tag_111\n      jumpi\n      0x00\n      dup1\n      revert\n    tag_111:\n      pop\n      calldataload\n      tag_112\n      jump\t// in\n        /* \"frax/Frax.sol\":3060:3089  uint256 public dailyFraxLimit */\n    tag_27:\n      tag_45\n      tag_114\n      jump\t// in\n        /* \"frax/Frax.sol\":4573:4712  function allowance(address account_, address sender_) external view returns (uint256) {... */\n    tag_28:\n      tag_45\n      0x04\n      dup1\n      calldatasize\n      sub\n      0x40\n      dup2\n      lt\n      iszero\n      tag_116\n      jumpi\n      0x00\n      dup1\n      revert\n    tag_116:\n      pop\n      sub(shl(0xa0, 0x01), 0x01)\n      dup2\n      calldataload\n      dup2\n      and\n      swap2\n      0x20\n      add\n      calldataload\n      and\n      tag_117\n      jump\t// in\n        /* \"frax/Frax.sol\":7598:7698  function pull(address usr, uint256 wad) external {... */\n    tag_29:\n      tag_56\n      0x04\n      dup1\n      calldatasize\n      sub\n      0x40\n      dup2\n      lt\n      iszero\n      tag_119\n      jumpi\n      0x00\n      dup1\n      revert\n    tag_119:\n      pop\n      sub(shl(0xa0, 0x01), 0x01)\n      dup2\n      calldataload\n      and\n      swap1\n      0x20\n      add\n      calldataload\n      tag_120\n      jump\t// in\n        /* \"frax/Frax.sol\":2853:2895  string public constant name = \"FRAX TOKEN\" */\n    tag_37:\n      mload(0x40)\n      dup1\n      0x40\n      add\n      0x40\n      mstore\n      dup1\n      0x0a\n      dup2\n      mstore\n      0x20\n      add\n      shl(0xb1, 0x232920ac102a27a5a2a7)\n      dup2\n      mstore\n      pop\n      dup2\n      jump\t// out\n        /* \"frax/Frax.sol\":7352:7465  function approve(address usr_, uint256 wad_) external returns (bool) {... */\n    tag_44:\n        /* \"frax/Frax.sol\":7415:7419  bool */\n      0x00\n        /* \"frax/Frax.sol\":7438:7458  _approve(usr_, wad_) */\n      tag_122\n        /* \"frax/Frax.sol\":7447:7451  usr_ */\n      dup4\n        /* \"frax/Frax.sol\":7453:7457  wad_ */\n      dup4\n        /* \"frax/Frax.sol\":7438:7446  _approve */\n      tag_123\n        /* \"frax/Frax.sol\":7438:7458  _approve(usr_, wad_) */\n      jump\t// in\n    tag_122:\n        /* \"frax/Frax.sol\":7431:7458  return _approve(usr_, wad_) */\n      swap1\n      pop\n        /* \"frax/Frax.sol\":7352:7465  function approve(address usr_, uint256 wad_) external returns (bool) {... */\n    tag_121:\n      swap3\n      swap2\n      pop\n      pop\n      jump\t// out\n        /* \"frax/Frax.sol\":3028:3054  uint256 public totalSupply */\n    tag_46:\n      sload(0x01)\n      dup2\n      jump\t// out\n        /* \"frax/Frax.sol\":5017:5625  function transferFrom(... */\n    tag_49:\n      sub(shl(0xa0, 0x01), 0x01)\n        /* \"frax/Frax.sol\":5148:5162  balanceOf[src] */\n      dup4\n      and\n        /* \"frax/Frax.sol\":5124:5128  bool */\n      0x00\n        /* \"frax/Frax.sol\":5148:5162  balanceOf[src] */\n      swap1\n      dup2\n      mstore\n        /* \"frax/Frax.sol\":5148:5157  balanceOf */\n      0x03\n        /* \"frax/Frax.sol\":5148:5162  balanceOf[src] */\n      0x20\n      mstore\n      0x40\n      dup2\n      keccak256\n      sload\n        /* \"frax/Frax.sol\":5148:5169  balanceOf[src] >= wad */\n      dup3\n      gt\n      iszero\n        /* \"frax/Frax.sol\":5140:5199  require(balanceOf[src] >= wad, \"Frax/insufficient-balance\") */\n      tag_125\n      jumpi\n      0x40\n      dup1\n      mload\n      shl(0xe5, 0x461bcd)\n      dup2\n      mstore\n      0x20\n      0x04\n      dup3\n      add\n      mstore\n      0x19\n      0x24\n      dup3\n      add\n      mstore\n      shl(0x38, 0x467261782f696e73756666696369656e742d62616c616e6365)\n      0x44\n      dup3\n      add\n      mstore\n      swap1\n      mload\n      swap1\n      dup2\n      swap1\n      sub\n      0x64\n      add\n      swap1\n      revert\n    tag_125:\n      sub(shl(0xa0, 0x01), 0x01)\n        /* \"frax/Frax.sol\":5213:5230  src != msg.sender */\n      dup5\n      and\n        /* \"frax/Frax.sol\":5220:5230  msg.sender */\n      caller\n        /* \"frax/Frax.sol\":5213:5230  src != msg.sender */\n      eq\n      dup1\n      iszero\n      swap1\n        /* \"frax/Frax.sol\":5213:5276  src != msg.sender && _allowance(src, msg.sender) != uint256(-1) */\n      tag_126\n      jumpi\n      pop\n      not(0x00)\n        /* \"frax/Frax.sol\":5234:5261  _allowance(src, msg.sender) */\n      tag_127\n        /* \"frax/Frax.sol\":5245:5248  src */\n      dup6\n        /* \"frax/Frax.sol\":5250:5260  msg.sender */\n      caller\n        /* \"frax/Frax.sol\":5234:5244  _allowance */\n      tag_128\n        /* \"frax/Frax.sol\":5234:5261  _allowance(src, msg.sender) */\n      jump\t// in\n    tag_127:\n        /* \"frax/Frax.sol\":5234:5276  _allowance(src, msg.sender) != uint256(-1) */\n      eq\n      iszero\n        /* \"frax/Frax.sol\":5213:5276  src != msg.sender && _allowance(src, msg.sender) != uint256(-1) */\n    tag_126:\n        /* \"frax/Frax.sol\":5209:5458  if (src != msg.sender && _allowance(src, msg.sender) != uint256(-1)) {... */\n      iszero\n      tag_129\n      jumpi\n        /* \"frax/Frax.sol\":5331:5334  wad */\n      dup2\n        /* \"frax/Frax.sol\":5300:5327  _allowance(src, msg.sender) */\n      tag_130\n        /* \"frax/Frax.sol\":5311:5314  src */\n      dup6\n        /* \"frax/Frax.sol\":5316:5326  msg.sender */\n      caller\n        /* \"frax/Frax.sol\":5300:5310  _allowance */\n      tag_128\n        /* \"frax/Frax.sol\":5300:5327  _allowance(src, msg.sender) */\n      jump\t// in\n    tag_130:\n        /* \"frax/Frax.sol\":5300:5334  _allowance(src, msg.sender) >= wad */\n      lt\n      iszero\n        /* \"frax/Frax.sol\":5292:5366  require(_allowance(src, msg.sender) >= wad, \"Frax/insufficient-allowance\") */\n      tag_131\n      jumpi\n      0x40\n      dup1\n      mload\n      shl(0xe5, 0x461bcd)\n      dup2\n      mstore\n      0x20\n      0x04\n      dup3\n      add\n      mstore\n      0x1b\n      0x24\n      dup3\n      add\n      mstore\n      0x467261782f696e73756666696369656e742d616c6c6f77616e63650000000000\n      0x44\n      dup3\n      add\n      mstore\n      swap1\n      mload\n      swap1\n      dup2\n      swap1\n      sub\n      0x64\n      add\n      swap1\n      revert\n    tag_131:\n        /* \"frax/Frax.sol\":5410:5447  sub(_allowance(src, msg.sender), wad) */\n      tag_132\n        /* \"frax/Frax.sol\":5414:5441  _allowance(src, msg.sender) */\n      tag_133\n        /* \"frax/Frax.sol\":5425:5428  src */\n      dup6\n        /* \"frax/Frax.sol\":5430:5440  msg.sender */\n      caller\n        /* \"frax/Frax.sol\":5414:5424  _allowance */\n      tag_128\n        /* \"frax/Frax.sol\":5414:5441  _allowance(src, msg.sender) */\n      jump\t// in\n    tag_133:\n        /* \"frax/Frax.sol\":5443:5446  wad */\n      dup4\n        /* \"frax/Frax.sol\":5410:5413  sub */\n      tag_134\n        /* \"frax/Frax.sol\":5410:5447  sub(_allowance(src, msg.sender), wad) */\n      jump\t// in\n    tag_132:\n      sub(shl(0xa0, 0x01), 0x01)\n        /* \"frax/Frax.sol\":5380:5395  allowances[src] */\n      dup6\n      and\n      0x00\n      swap1\n      dup2\n      mstore\n        /* \"frax/Frax.sol\":5380:5390  allowances */\n      0x04\n        /* \"frax/Frax.sol\":5380:5395  allowances[src] */\n      0x20\n      swap1\n      dup2\n      mstore\n      0x40\n      dup1\n      dup4\n      keccak256\n        /* \"frax/Frax.sol\":5396:5406  msg.sender */\n      caller\n        /* \"frax/Frax.sol\":5380:5407  allowances[src][msg.sender] */\n      dup5\n      mstore\n      swap1\n      swap2\n      mstore\n      swap1\n      keccak256\n        /* \"frax/Frax.sol\":5380:5447  allowances[src][msg.sender] = sub(_allowance(src, msg.sender), wad) */\n      sstore\n        /* \"frax/Frax.sol\":5209:5458  if (src != msg.sender && _allowance(src, msg.sender) != uint256(-1)) {... */\n    tag_129:\n      sub(shl(0xa0, 0x01), 0x01)\n        /* \"frax/Frax.sol\":5488:5502  balanceOf[src] */\n      dup5\n      and\n      0x00\n      swap1\n      dup2\n      mstore\n        /* \"frax/Frax.sol\":5488:5497  balanceOf */\n      0x03\n        /* \"frax/Frax.sol\":5488:5502  balanceOf[src] */\n      0x20\n      mstore\n      0x40\n      swap1\n      keccak256\n      sload\n        /* \"frax/Frax.sol\":5484:5508  sub(balanceOf[src], wad) */\n      tag_135\n      swap1\n        /* \"frax/Frax.sol\":5504:5507  wad */\n      dup4\n        /* \"frax/Frax.sol\":5484:5487  sub */\n      tag_134\n        /* \"frax/Frax.sol\":5484:5508  sub(balanceOf[src], wad) */\n      jump\t// in\n    tag_135:\n      sub(shl(0xa0, 0x01), 0x01)\n        /* \"frax/Frax.sol\":5467:5481  balanceOf[src] */\n      dup1\n      dup7\n      and\n      0x00\n      swap1\n      dup2\n      mstore\n        /* \"frax/Frax.sol\":5467:5476  balanceOf */\n      0x03\n        /* \"frax/Frax.sol\":5467:5481  balanceOf[src] */\n      0x20\n      mstore\n      0x40\n      dup1\n      dup3\n      keccak256\n        /* \"frax/Frax.sol\":5467:5508  balanceOf[src] = sub(balanceOf[src], wad) */\n      swap4\n      swap1\n      swap4\n      sstore\n        /* \"frax/Frax.sol\":5539:5553  balanceOf[dst] */\n      swap1\n      dup6\n      and\n      dup2\n      mstore\n      keccak256\n      sload\n        /* \"frax/Frax.sol\":5535:5559  add(balanceOf[dst], wad) */\n      tag_136\n      swap1\n        /* \"frax/Frax.sol\":5555:5558  wad */\n      dup4\n        /* \"frax/Frax.sol\":5535:5538  add */\n      tag_137\n        /* \"frax/Frax.sol\":5535:5559  add(balanceOf[dst], wad) */\n      jump\t// in\n    tag_136:\n      sub(shl(0xa0, 0x01), 0x01)\n        /* \"frax/Frax.sol\":5518:5532  balanceOf[dst] */\n      dup1\n      dup6\n      and\n      0x00\n      dup2\n      dup2\n      mstore\n        /* \"frax/Frax.sol\":5518:5527  balanceOf */\n      0x03\n        /* \"frax/Frax.sol\":5518:5532  balanceOf[dst] */\n      0x20\n      swap1\n      dup2\n      mstore\n      0x40\n      swap2\n      dup3\n      swap1\n      keccak256\n        /* \"frax/Frax.sol\":5518:5559  balanceOf[dst] = add(balanceOf[dst], wad) */\n      swap5\n      swap1\n      swap5\n      sstore\n        /* \"frax/Frax.sol\":5574:5597  Transfer(src, dst, wad) */\n      dup1\n      mload\n      dup7\n      dup2\n      mstore\n      swap1\n      mload\n        /* \"frax/Frax.sol\":5518:5532  balanceOf[dst] */\n      swap2\n      swap4\n        /* \"frax/Frax.sol\":5574:5597  Transfer(src, dst, wad) */\n      swap3\n      dup9\n      and\n      swap3\n      0xddf252ad1be2c89b69c2b068fc378daa952ba7f163c4a11628f55a4df523b3ef\n      swap3\n      swap2\n      dup3\n      swap1\n      sub\n      add\n      swap1\n      log3\n      pop\n        /* \"frax/Frax.sol\":5614:5618  true */\n      0x01\n        /* \"frax/Frax.sol\":5017:5625  function transferFrom(... */\n      swap4\n      swap3\n      pop\n      pop\n      pop\n      jump\t// out\n        /* \"frax/Frax.sol\":3995:4103  bytes32 public constant PERMIT_TYPEHASH = 0xea2aa0a1be11a07ed86d755c93467f4f82362b452371d1ba94d1715123511acb */\n    tag_51:\n        /* \"frax/Frax.sol\":4037:4103  0xea2aa0a1be11a07ed86d755c93467f4f82362b452371d1ba94d1715123511acb */\n      0xea2aa0a1be11a07ed86d755c93467f4f82362b452371d1ba94d1715123511acb\n        /* \"frax/Frax.sol\":3995:4103  bytes32 public constant PERMIT_TYPEHASH = 0xea2aa0a1be11a07ed86d755c93467f4f82362b452371d1ba94d1715123511acb */\n      dup2\n      jump\t// out\n        /* \"frax/Frax.sol\":2987:3022  uint8 public constant decimals = 18 */\n    tag_53:\n        /* \"frax/Frax.sol\":3020:3022  18 */\n      0x12\n        /* \"frax/Frax.sol\":2987:3022  uint8 public constant decimals = 18 */\n      dup2\n      jump\t// out\n        /* \"frax/Frax.sol\":3814:3845  bytes32 public DOMAIN_SEPARATOR */\n    tag_55:\n      sload(0x08)\n      dup2\n      jump\t// out\n        /* \"frax/Frax.sol\":5818:6625  function mint(address usr, uint256 wad) external {... */\n    tag_58:\n        /* \"frax/Frax.sol\":5887:5897  msg.sender */\n      caller\n        /* \"frax/Frax.sol\":5881:5886  wards */\n      0x00\n        /* \"frax/Frax.sol\":5881:5898  wards[msg.sender] */\n      swap1\n      dup2\n      mstore\n      0x20\n      dup2\n      swap1\n      mstore\n      0x40\n      swap1\n      keccak256\n      sload\n        /* \"frax/Frax.sol\":5877:6475  if (wards[msg.sender] == 0) {... */\n      tag_147\n      jumpi\n        /* \"frax/Frax.sol\":5985:5999  dailyFraxLimit */\n      sload(0x02)\n        /* \"frax/Frax.sol\":5969:5979  msg.sender */\n      caller\n        /* \"frax/Frax.sol\":5953:5980  fraxMintedToday[msg.sender] */\n      0x00\n      swap1\n      dup2\n      mstore\n        /* \"frax/Frax.sol\":5953:5968  fraxMintedToday */\n      0x07\n        /* \"frax/Frax.sol\":5953:5980  fraxMintedToday[msg.sender] */\n      0x20\n      mstore\n      0x40\n      swap1\n      keccak256\n      sload\n        /* \"frax/Frax.sol\":5944:5981  add(wad, fraxMintedToday[msg.sender]) */\n      tag_140\n      swap1\n        /* \"frax/Frax.sol\":5948:5951  wad */\n      dup4\n      swap1\n        /* \"frax/Frax.sol\":5944:5947  add */\n      tag_137\n        /* \"frax/Frax.sol\":5944:5981  add(wad, fraxMintedToday[msg.sender]) */\n      jump\t// in\n    tag_140:\n        /* \"frax/Frax.sol\":5944:5999  add(wad, fraxMintedToday[msg.sender]) <= dailyFraxLimit */\n      gt\n      iszero\n        /* \"frax/Frax.sol\":5944:6104  add(wad, fraxMintedToday[msg.sender]) <= dailyFraxLimit ||... */\n      dup1\n      tag_143\n      jumpi\n      pop\n        /* \"frax/Frax.sol\":6058:6068  msg.sender */\n      caller\n        /* \"frax/Frax.sol\":6042:6069  lastMintRestart[msg.sender] */\n      0x00\n      swap1\n      dup2\n      mstore\n        /* \"frax/Frax.sol\":6042:6057  lastMintRestart */\n      0x06\n        /* \"frax/Frax.sol\":6042:6069  lastMintRestart[msg.sender] */\n      0x20\n      mstore\n      0x40\n      swap1\n      keccak256\n      sload\n        /* \"frax/Frax.sol\":6074:6078  6500 */\n      0x1964\n      swap1\n        /* \"frax/Frax.sol\":6024:6070  sub(block.number, lastMintRestart[msg.sender]) */\n      tag_142\n      swap1\n        /* \"frax/Frax.sol\":6028:6040  block.number */\n      number\n      swap1\n        /* \"frax/Frax.sol\":6024:6027  sub */\n      tag_134\n        /* \"frax/Frax.sol\":6024:6070  sub(block.number, lastMintRestart[msg.sender]) */\n      jump\t// in\n    tag_142:\n        /* \"frax/Frax.sol\":6024:6078  sub(block.number, lastMintRestart[msg.sender]) >= 6500 */\n      lt\n      iszero\n        /* \"frax/Frax.sol\":6024:6103  sub(block.number, lastMintRestart[msg.sender]) >= 6500 && wad <= dailyFraxLimit */\n      dup1\n      iszero\n      tag_143\n      jumpi\n      pop\n        /* \"frax/Frax.sol\":6089:6103  dailyFraxLimit */\n      sload(0x02)\n        /* \"frax/Frax.sol\":6082:6085  wad */\n      dup2\n        /* \"frax/Frax.sol\":6082:6103  wad <= dailyFraxLimit */\n      gt\n      iszero\n        /* \"frax/Frax.sol\":6024:6103  sub(block.number, lastMintRestart[msg.sender]) >= 6500 && wad <= dailyFraxLimit */\n    tag_143:\n        /* \"frax/Frax.sol\":5919:6159  require(... */\n      tag_144\n      jumpi\n      0x40\n      dup1\n      mload\n      shl(0xe5, 0x461bcd)\n      dup2\n      mstore\n      0x20\n      0x04\n      dup3\n      add\n      mstore\n      0x15\n      0x24\n      dup3\n      add\n      mstore\n      shl(0x5a, 0x13dd995c8819185a5b1e48119c985e08131a5b5a5d)\n      0x44\n      dup3\n      add\n      mstore\n      swap1\n      mload\n      swap1\n      dup2\n      swap1\n      sub\n      0x64\n      add\n      swap1\n      revert\n    tag_144:\n        /* \"frax/Frax.sol\":6211:6221  msg.sender */\n      caller\n        /* \"frax/Frax.sol\":6195:6222  lastMintRestart[msg.sender] */\n      0x00\n      swap1\n      dup2\n      mstore\n        /* \"frax/Frax.sol\":6195:6210  lastMintRestart */\n      0x06\n        /* \"frax/Frax.sol\":6195:6222  lastMintRestart[msg.sender] */\n      0x20\n      mstore\n      0x40\n      swap1\n      keccak256\n      sload\n        /* \"frax/Frax.sol\":6227:6231  6500 */\n      0x1964\n      swap1\n        /* \"frax/Frax.sol\":6177:6223  sub(block.number, lastMintRestart[msg.sender]) */\n      tag_145\n      swap1\n        /* \"frax/Frax.sol\":6181:6193  block.number */\n      number\n      swap1\n        /* \"frax/Frax.sol\":6177:6180  sub */\n      tag_134\n        /* \"frax/Frax.sol\":6177:6223  sub(block.number, lastMintRestart[msg.sender]) */\n      jump\t// in\n    tag_145:\n        /* \"frax/Frax.sol\":6177:6231  sub(block.number, lastMintRestart[msg.sender]) >= 6500 */\n      lt\n        /* \"frax/Frax.sol\":6173:6465  if (sub(block.number, lastMintRestart[msg.sender]) >= 6500) {... */\n      tag_146\n      jumpi\n        /* \"frax/Frax.sol\":6267:6277  msg.sender */\n      caller\n        /* \"frax/Frax.sol\":6251:6278  fraxMintedToday[msg.sender] */\n      0x00\n      swap1\n      dup2\n      mstore\n        /* \"frax/Frax.sol\":6251:6266  fraxMintedToday */\n      0x07\n        /* \"frax/Frax.sol\":6251:6278  fraxMintedToday[msg.sender] */\n      0x20\n      swap1\n      dup2\n      mstore\n      0x40\n      dup1\n      dup4\n      keccak256\n        /* \"frax/Frax.sol\":6251:6284  fraxMintedToday[msg.sender] = wad */\n      dup5\n      swap1\n      sstore\n        /* \"frax/Frax.sol\":6302:6317  lastMintRestart */\n      0x06\n        /* \"frax/Frax.sol\":6302:6329  lastMintRestart[msg.sender] */\n      swap1\n      swap2\n      mstore\n      swap1\n      keccak256\n        /* \"frax/Frax.sol\":6332:6344  block.number */\n      number\n        /* \"frax/Frax.sol\":6302:6344  lastMintRestart[msg.sender] = block.number */\n      swap1\n      sstore\n        /* \"frax/Frax.sol\":6173:6465  if (sub(block.number, lastMintRestart[msg.sender]) >= 6500) {... */\n      jump(tag_147)\n    tag_146:\n        /* \"frax/Frax.sol\":6433:6443  msg.sender */\n      caller\n        /* \"frax/Frax.sol\":6417:6444  fraxMintedToday[msg.sender] */\n      0x00\n      swap1\n      dup2\n      mstore\n        /* \"frax/Frax.sol\":6417:6432  fraxMintedToday */\n      0x07\n        /* \"frax/Frax.sol\":6417:6444  fraxMintedToday[msg.sender] */\n      0x20\n      mstore\n      0x40\n      swap1\n      keccak256\n      sload\n        /* \"frax/Frax.sol\":6413:6450  add(fraxMintedToday[msg.sender], wad) */\n      tag_148\n      swap1\n        /* \"frax/Frax.sol\":6446:6449  wad */\n      dup3\n        /* \"frax/Frax.sol\":6413:6416  add */\n      tag_137\n        /* \"frax/Frax.sol\":6413:6450  add(fraxMintedToday[msg.sender], wad) */\n      jump\t// in\n    tag_148:\n        /* \"frax/Frax.sol\":6399:6409  msg.sender */\n      caller\n        /* \"frax/Frax.sol\":6383:6410  fraxMintedToday[msg.sender] */\n      0x00\n      swap1\n      dup2\n      mstore\n        /* \"frax/Frax.sol\":6383:6398  fraxMintedToday */\n      0x07\n        /* \"frax/Frax.sol\":6383:6410  fraxMintedToday[msg.sender] */\n      0x20\n      mstore\n      0x40\n      swap1\n      keccak256\n        /* \"frax/Frax.sol\":6383:6450  fraxMintedToday[msg.sender] = add(fraxMintedToday[msg.sender], wad) */\n      sstore\n        /* \"frax/Frax.sol\":6173:6465  if (sub(block.number, lastMintRestart[msg.sender]) >= 6500) {... */\n    tag_147:\n      sub(shl(0xa0, 0x01), 0x01)\n        /* \"frax/Frax.sol\":6506:6520  balanceOf[usr] */\n      dup3\n      and\n      0x00\n      swap1\n      dup2\n      mstore\n        /* \"frax/Frax.sol\":6506:6515  balanceOf */\n      0x03\n        /* \"frax/Frax.sol\":6506:6520  balanceOf[usr] */\n      0x20\n      mstore\n      0x40\n      swap1\n      keccak256\n      sload\n        /* \"frax/Frax.sol\":6502:6526  add(balanceOf[usr], wad) */\n      tag_149\n      swap1\n        /* \"frax/Frax.sol\":6522:6525  wad */\n      dup3\n        /* \"frax/Frax.sol\":6502:6505  add */\n      tag_137\n        /* \"frax/Frax.sol\":6502:6526  add(balanceOf[usr], wad) */\n      jump\t// in\n    tag_149:\n      sub(shl(0xa0, 0x01), 0x01)\n        /* \"frax/Frax.sol\":6485:6499  balanceOf[usr] */\n      dup4\n      and\n      0x00\n      swap1\n      dup2\n      mstore\n        /* \"frax/Frax.sol\":6485:6494  balanceOf */\n      0x03\n        /* \"frax/Frax.sol\":6485:6499  balanceOf[usr] */\n      0x20\n      mstore\n      0x40\n      swap1\n      keccak256\n        /* \"frax/Frax.sol\":6485:6526  balanceOf[usr] = add(balanceOf[usr], wad) */\n      sstore\n        /* \"frax/Frax.sol\":6555:6566  totalSupply */\n      sload(0x01)\n        /* \"frax/Frax.sol\":6551:6572  add(totalSupply, wad) */\n      tag_150\n      swap1\n        /* \"frax/Frax.sol\":6568:6571  wad */\n      dup3\n        /* \"frax/Frax.sol\":6551:6554  add */\n      tag_137\n        /* \"frax/Frax.sol\":6551:6572  add(totalSupply, wad) */\n      jump\t// in\n    tag_150:\n        /* \"frax/Frax.sol\":6537:6548  totalSupply */\n      0x01\n        /* \"frax/Frax.sol\":6537:6572  totalSupply = add(totalSupply, wad) */\n      sstore\n        /* \"frax/Frax.sol\":6588:6618  Transfer(address(0), usr, wad) */\n      0x40\n      dup1\n      mload\n      dup3\n      dup2\n      mstore\n      swap1\n      mload\n      sub(shl(0xa0, 0x01), 0x01)\n      dup5\n      and\n      swap2\n        /* \"frax/Frax.sol\":6605:6606  0 */\n      0x00\n      swap2\n        /* \"frax/Frax.sol\":6588:6618  Transfer(address(0), usr, wad) */\n      0xddf252ad1be2c89b69c2b068fc378daa952ba7f163c4a11628f55a4df523b3ef\n      swap2\n      dup2\n      swap1\n      sub\n      0x20\n      add\n      swap1\n      log3\n        /* \"frax/Frax.sol\":5818:6625  function mint(address usr, uint256 wad) external {... */\n      pop\n      pop\n      jump\t// out\n        /* \"frax/Frax.sol\":5631:5706  function addAuth(address usr) external auth {... */\n    tag_61:\n        /* \"frax/Frax.sol\":2763:2773  msg.sender */\n      caller\n        /* \"frax/Frax.sol\":2757:2762  wards */\n      0x00\n        /* \"frax/Frax.sol\":2757:2774  wards[msg.sender] */\n      swap1\n      dup2\n      mstore\n      0x20\n      dup2\n      swap1\n      mstore\n      0x40\n      swap1\n      keccak256\n      sload\n        /* \"frax/Frax.sol\":2778:2779  1 */\n      0x01\n        /* \"frax/Frax.sol\":2757:2779  wards[msg.sender] == 1 */\n      eq\n        /* \"frax/Frax.sol\":2749:2803  require(wards[msg.sender] == 1, \"Frax/not-authorized\") */\n      tag_152\n      jumpi\n      0x40\n      dup1\n      mload\n      shl(0xe5, 0x461bcd)\n      dup2\n      mstore\n      0x20\n      0x04\n      dup3\n      add\n      mstore\n      0x13\n      0x24\n      dup3\n      add\n      mstore\n      shl(0x6a, 0x119c985e0bdb9bdd0b585d5d1a1bdc9a5e9959)\n      0x44\n      dup3\n      add\n      mstore\n      swap1\n      mload\n      swap1\n      dup2\n      swap1\n      sub\n      0x64\n      add\n      swap1\n      revert\n    tag_152:\n      sub(shl(0xa0, 0x01), 0x01)\n        /* \"frax/Frax.sol\":5685:5695  wards[usr] */\n      and\n        /* \"frax/Frax.sol\":5685:5690  wards */\n      0x00\n        /* \"frax/Frax.sol\":5685:5695  wards[usr] */\n      swap1\n      dup2\n      mstore\n      0x20\n      dup2\n      swap1\n      mstore\n      0x40\n      swap1\n      keccak256\n        /* \"frax/Frax.sol\":5698:5699  1 */\n      0x01\n        /* \"frax/Frax.sol\":5685:5699  wards[usr] = 1 */\n      swap1\n      sstore\n        /* \"frax/Frax.sol\":5631:5706  function addAuth(address usr) external auth {... */\n      jump\t// out\n        /* \"frax/Frax.sol\":2945:2981  string public constant version = \"1\" */\n    tag_63:\n      mload(0x40)\n      dup1\n      0x40\n      add\n      0x40\n      mstore\n      dup1\n      0x01\n      dup2\n      mstore\n      0x20\n      add\n      shl(0xf8, 0x31)\n      dup2\n      mstore\n      pop\n      dup2\n      jump\t// out\n        /* \"frax/Frax.sol\":3096:3140  mapping(address => uint256) public balanceOf */\n    tag_73:\n      mstore(0x20, 0x03)\n      0x00\n      swap1\n      dup2\n      mstore\n      0x40\n      swap1\n      keccak256\n      sload\n      dup2\n      jump\t// out\n        /* \"frax/Frax.sol\":3265:3315  mapping(address => uint256) public lastMintRestart */\n    tag_76:\n      mstore(0x20, 0x06)\n      0x00\n      swap1\n      dup2\n      mstore\n      0x40\n      swap1\n      keccak256\n      sload\n      dup2\n      jump\t// out\n        /* \"frax/Frax.sol\":3218:3259  mapping(address => uint256) public nonces */\n    tag_79:\n      mstore(0x20, 0x05)\n      0x00\n      swap1\n      dup2\n      mstore\n      0x40\n      swap1\n      keccak256\n      sload\n      dup2\n      jump\t// out\n        /* \"frax/Frax.sol\":7882:8771  function permit(... */\n    tag_82:\n        /* \"frax/Frax.sol\":8198:8214  DOMAIN_SEPARATOR */\n      sload(0x08)\n        /* \"frax/Frax.sol\":8242:8310  abi.encode(PERMIT_TYPEHASH, holder, spender, nonce, expiry, allowed) */\n      0x40\n      dup1\n      mload\n        /* \"frax/Frax.sol\":4037:4103  0xea2aa0a1be11a07ed86d755c93467f4f82362b452371d1ba94d1715123511acb */\n      0xea2aa0a1be11a07ed86d755c93467f4f82362b452371d1ba94d1715123511acb\n        /* \"frax/Frax.sol\":8242:8310  abi.encode(PERMIT_TYPEHASH, holder, spender, nonce, expiry, allowed) */\n      0x20\n      dup1\n      dup4\n      add\n      swap2\n      swap1\n      swap2\n      mstore\n      sub(shl(0xa0, 0x01), 0x01)\n      dup1\n      dup14\n      and\n      dup4\n      dup6\n      add\n      dup2\n      swap1\n      mstore\n      swap1\n      dup13\n      and\n      0x60\n      dup5\n      add\n      mstore\n      0x80\n      dup4\n      add\n      dup12\n      swap1\n      mstore\n      0xa0\n      dup4\n      add\n      dup11\n      swap1\n      mstore\n      dup9\n      iszero\n      iszero\n      0xc0\n      dup1\n      dup6\n      add\n      swap2\n      swap1\n      swap2\n      mstore\n      dup5\n      mload\n      dup1\n      dup6\n      sub\n      swap1\n      swap2\n      add\n      dup2\n      mstore\n      0xe0\n      dup5\n      add\n      dup6\n      mstore\n        /* \"frax/Frax.sol\":8232:8311  keccak256(abi.encode(PERMIT_TYPEHASH, holder, spender, nonce, expiry, allowed)) */\n      dup1\n      mload\n      swap1\n      dup4\n      add\n      keccak256\n      shl(0xf0, 0x1901)\n        /* \"frax/Frax.sol\":8136:8325  abi.encodePacked(... */\n      0x0100\n      dup6\n      add\n      mstore\n      0x0102\n      dup5\n      add\n      swap6\n      swap1\n      swap6\n      mstore\n      0x0122\n      dup1\n      dup5\n      add\n      swap6\n      swap1\n      swap6\n      mstore\n      dup4\n      mload\n      dup1\n      dup5\n      sub\n      swap1\n      swap6\n      add\n      dup6\n      mstore\n      0x0142\n      swap1\n      swap3\n      add\n      swap1\n      swap3\n      mstore\n        /* \"frax/Frax.sol\":8113:8335  keccak256(... */\n      dup3\n      mload\n      swap3\n      swap1\n      swap2\n      add\n      swap2\n      swap1\n      swap2\n      keccak256\n      swap1\n        /* \"frax/Frax.sol\":8346:8401  require(holder != address(0), \"Frax/invalid-address-0\") */\n      tag_159\n      jumpi\n      0x40\n      dup1\n      mload\n      shl(0xe5, 0x461bcd)\n      dup2\n      mstore\n      0x20\n      0x04\n      dup3\n      add\n      mstore\n      0x16\n      0x24\n      dup3\n      add\n      mstore\n      shl(0x54, 0x0467261782f696e76616c69642d616464726573732d3)\n      0x44\n      dup3\n      add\n      mstore\n      swap1\n      mload\n      swap1\n      dup2\n      swap1\n      sub\n      0x64\n      add\n      swap1\n      revert\n    tag_159:\n        /* \"frax/Frax.sol\":8429:8455  ecrecover(digest, v, r, s) */\n      0x01\n        /* \"frax/Frax.sol\":8439:8445  digest */\n      dup2\n        /* \"frax/Frax.sol\":8447:8448  v */\n      dup6\n        /* \"frax/Frax.sol\":8450:8451  r */\n      dup6\n        /* \"frax/Frax.sol\":8453:8454  s */\n      dup6\n        /* \"frax/Frax.sol\":8429:8455  ecrecover(digest, v, r, s) */\n      mload(0x40)\n      0x00\n      dup2\n      mstore\n      0x20\n      add\n      0x40\n      mstore\n      mload(0x40)\n      dup1\n      dup6\n      dup2\n      mstore\n      0x20\n      add\n      dup5\n      0xff\n      and\n      dup2\n      mstore\n      0x20\n      add\n      dup4\n      dup2\n      mstore\n      0x20\n      add\n      dup3\n      dup2\n      mstore\n      0x20\n      add\n      swap5\n      pop\n      pop\n      pop\n      pop\n      pop\n      0x20\n      mload(0x40)\n      0x20\n      dup2\n      sub\n      swap1\n      dup1\n      dup5\n      sub\n      swap1\n      dup6\n      gas\n      staticcall\n      iszero\n      dup1\n      iszero\n      tag_161\n      jumpi\n      returndatasize\n      0x00\n      dup1\n      returndatacopy\n      revert(0x00, returndatasize)\n    tag_161:\n      pop\n      pop\n      pop\n      mload(sub(mload(0x40), 0x20))\n      sub(shl(0xa0, 0x01), 0x01)\n        /* \"frax/Frax.sol\":8419:8455  holder == ecrecover(digest, v, r, s) */\n      and\n        /* \"frax/Frax.sol\":8419:8425  holder */\n      dup10\n      sub(shl(0xa0, 0x01), 0x01)\n        /* \"frax/Frax.sol\":8419:8455  holder == ecrecover(digest, v, r, s) */\n      and\n      eq\n        /* \"frax/Frax.sol\":8411:8479  require(holder == ecrecover(digest, v, r, s), \"Frax/invalid-permit\") */\n      tag_162\n      jumpi\n      0x40\n      dup1\n      mload\n      shl(0xe5, 0x461bcd)\n      dup2\n      mstore\n      0x20\n      0x04\n      dup3\n      add\n      mstore\n      0x13\n      0x24\n      dup3\n      add\n      mstore\n      shl(0x6a, 0x119c985e0bda5b9d985b1a590b5c195c9b5a5d)\n      0x44\n      dup3\n      add\n      mstore\n      swap1\n      mload\n      swap1\n      dup2\n      swap1\n      sub\n      0x64\n      add\n      swap1\n      revert\n    tag_162:\n        /* \"frax/Frax.sol\":8497:8508  expiry == 0 */\n      dup6\n      iszero\n      dup1\n        /* \"frax/Frax.sol\":8497:8537  expiry == 0 || block.timestamp <= expiry */\n      tag_163\n      jumpi\n      pop\n        /* \"frax/Frax.sol\":8531:8537  expiry */\n      dup6\n        /* \"frax/Frax.sol\":8512:8527  block.timestamp */\n      timestamp\n        /* \"frax/Frax.sol\":8512:8537  block.timestamp <= expiry */\n      gt\n      iszero\n        /* \"frax/Frax.sol\":8497:8537  expiry == 0 || block.timestamp <= expiry */\n    tag_163:\n        /* \"frax/Frax.sol\":8489:8561  require(expiry == 0 || block.timestamp <= expiry, \"Frax/permit-expired\") */\n      tag_164\n      jumpi\n      0x40\n      dup1\n      mload\n      shl(0xe5, 0x461bcd)\n      dup2\n      mstore\n      0x20\n      0x04\n      dup3\n      add\n      mstore\n      0x13\n      0x24\n      dup3\n      add\n      mstore\n      shl(0x6a, 0x119c985e0bdc195c9b5a5d0b595e1c1a5c9959)\n      0x44\n      dup3\n      add\n      mstore\n      swap1\n      mload\n      swap1\n      dup2\n      swap1\n      sub\n      0x64\n      add\n      swap1\n      revert\n    tag_164:\n      sub(shl(0xa0, 0x01), 0x01)\n        /* \"frax/Frax.sol\":8588:8602  nonces[holder] */\n      dup10\n      and\n      0x00\n      swap1\n      dup2\n      mstore\n        /* \"frax/Frax.sol\":8588:8594  nonces */\n      0x05\n        /* \"frax/Frax.sol\":8588:8602  nonces[holder] */\n      0x20\n      mstore\n      0x40\n      swap1\n      keccak256\n        /* \"frax/Frax.sol\":8588:8604  nonces[holder]++ */\n      dup1\n      sload\n      0x01\n      dup2\n      add\n      swap1\n      swap2\n      sstore\n        /* \"frax/Frax.sol\":8579:8604  nonce == nonces[holder]++ */\n      dup8\n      eq\n        /* \"frax/Frax.sol\":8571:8627  require(nonce == nonces[holder]++, \"Frax/invalid-nonce\") */\n      tag_165\n      jumpi\n      0x40\n      dup1\n      mload\n      shl(0xe5, 0x461bcd)\n      dup2\n      mstore\n      0x20\n      0x04\n      dup3\n      add\n      mstore\n      0x12\n      0x24\n      dup3\n      add\n      mstore\n      shl(0x70, 0x467261782f696e76616c69642d6e6f6e6365)\n      0x44\n      dup3\n      add\n      mstore\n      swap1\n      mload\n      swap1\n      dup2\n      swap1\n      sub\n      0x64\n      add\n      swap1\n      revert\n    tag_165:\n        /* \"frax/Frax.sol\":8637:8648  uint256 wad */\n      0x00\n        /* \"frax/Frax.sol\":8651:8658  allowed */\n      dup6\n        /* \"frax/Frax.sol\":8651:8676  allowed ? uint256(-1) : 0 */\n      tag_166\n      jumpi\n        /* \"frax/Frax.sol\":8675:8676  0 */\n      0x00\n        /* \"frax/Frax.sol\":8651:8676  allowed ? uint256(-1) : 0 */\n      jump(tag_167)\n    tag_166:\n      not(0x00)\n    tag_167:\n      sub(shl(0xa0, 0x01), 0x01)\n        /* \"frax/Frax.sol\":8686:8704  allowances[holder] */\n      dup1\n      dup13\n      and\n      0x00\n      dup2\n      dup2\n      mstore\n        /* \"frax/Frax.sol\":8686:8696  allowances */\n      0x04\n        /* \"frax/Frax.sol\":8686:8704  allowances[holder] */\n      0x20\n      swap1\n      dup2\n      mstore\n      0x40\n      dup1\n      dup4\n      keccak256\n        /* \"frax/Frax.sol\":8686:8713  allowances[holder][spender] */\n      swap5\n      dup16\n      and\n      dup1\n      dup5\n      mstore\n      swap5\n      dup3\n      mstore\n      swap2\n      dup3\n      swap1\n      keccak256\n        /* \"frax/Frax.sol\":8686:8719  allowances[holder][spender] = wad */\n      dup6\n      swap1\n      sstore\n        /* \"frax/Frax.sol\":8734:8764  Approval(holder, spender, wad) */\n      dup2\n      mload\n      dup6\n      dup2\n      mstore\n      swap2\n      mload\n        /* \"frax/Frax.sol\":8637:8676  uint256 wad = allowed ? uint256(-1) : 0 */\n      swap5\n      swap6\n      pop\n        /* \"frax/Frax.sol\":8686:8713  allowances[holder][spender] */\n      swap3\n      swap4\n        /* \"frax/Frax.sol\":8686:8704  allowances[holder] */\n      swap2\n      swap3\n        /* \"frax/Frax.sol\":8734:8764  Approval(holder, spender, wad) */\n      0x8c5be1e5ebec7d5bd14f71427d1e84f3dd0314c0f7b2291e5b200ac8c7c3b925\n      swap3\n      swap2\n      dup3\n      swap1\n      sub\n      add\n      swap1\n      log3\n        /* \"frax/Frax.sol\":7882:8771  function permit(... */\n      pop\n      pop\n      pop\n      pop\n      pop\n      pop\n      pop\n      pop\n      pop\n      pop\n      jump\t// out\n        /* \"frax/Frax.sol\":2901:2939  string public constant symbol = \"FRAX\" */\n    tag_84:\n      mload(0x40)\n      dup1\n      0x40\n      add\n      0x40\n      mstore\n      dup1\n      0x04\n      dup2\n      mstore\n      0x20\n      add\n      shl(0xe3, 0x08ca482b)\n      dup2\n      mstore\n      pop\n      dup2\n      jump\t// out\n        /* \"frax/Frax.sol\":2640:2717  function deny(address guy) external note auth {... */\n    tag_91:\n        /* \"frax/Frax.sol\":2763:2773  msg.sender */\n      caller\n        /* \"frax/Frax.sol\":2757:2762  wards */\n      0x00\n        /* \"frax/Frax.sol\":2757:2774  wards[msg.sender] */\n      swap1\n      dup2\n      mstore\n      0x20\n      dup2\n      swap1\n      mstore\n      0x40\n      swap1\n      keccak256\n      sload\n        /* \"frax/Frax.sol\":2778:2779  1 */\n      0x01\n        /* \"frax/Frax.sol\":2757:2779  wards[msg.sender] == 1 */\n      eq\n        /* \"frax/Frax.sol\":2749:2803  require(wards[msg.sender] == 1, \"Frax/not-authorized\") */\n      tag_170\n      jumpi\n      0x40\n      dup1\n      mload\n      shl(0xe5, 0x461bcd)\n      dup2\n      mstore\n      0x20\n      0x04\n      dup3\n      add\n      mstore\n      0x13\n      0x24\n      dup3\n      add\n      mstore\n      shl(0x6a, 0x119c985e0bdb9bdd0b585d5d1a1bdc9a5e9959)\n      0x44\n      dup3\n      add\n      mstore\n      swap1\n      mload\n      swap1\n      dup2\n      swap1\n      sub\n      0x64\n      add\n      swap1\n      revert\n    tag_170:\n      sub(shl(0xa0, 0x01), 0x01)\n        /* \"frax/Frax.sol\":2696:2706  wards[guy] */\n      and\n        /* \"frax/Frax.sol\":2709:2710  0 */\n      0x00\n        /* \"frax/Frax.sol\":2696:2706  wards[guy] */\n      swap1\n      dup2\n      mstore\n      0x20\n      dup2\n      swap1\n      mstore\n      0x40\n      dup2\n      keccak256\n        /* \"frax/Frax.sol\":2696:2710  wards[guy] = 0 */\n      sstore\n        /* \"frax/Frax.sol\":2640:2717  function deny(address guy) external note auth {... */\n      jump\t// out\n        /* \"frax/Frax.sol\":6631:7155  function burn(address usr, uint256 wad) external {... */\n    tag_94:\n      sub(shl(0xa0, 0x01), 0x01)\n        /* \"frax/Frax.sol\":6698:6712  balanceOf[usr] */\n      dup3\n      and\n      0x00\n      swap1\n      dup2\n      mstore\n        /* \"frax/Frax.sol\":6698:6707  balanceOf */\n      0x03\n        /* \"frax/Frax.sol\":6698:6712  balanceOf[usr] */\n      0x20\n      mstore\n      0x40\n      swap1\n      keccak256\n      sload\n        /* \"frax/Frax.sol\":6698:6719  balanceOf[usr] >= wad */\n      dup2\n      gt\n      iszero\n        /* \"frax/Frax.sol\":6690:6749  require(balanceOf[usr] >= wad, \"Frax/insufficient-balance\") */\n      tag_173\n      jumpi\n      0x40\n      dup1\n      mload\n      shl(0xe5, 0x461bcd)\n      dup2\n      mstore\n      0x20\n      0x04\n      dup3\n      add\n      mstore\n      0x19\n      0x24\n      dup3\n      add\n      mstore\n      shl(0x38, 0x467261782f696e73756666696369656e742d62616c616e6365)\n      0x44\n      dup3\n      add\n      mstore\n      swap1\n      mload\n      swap1\n      dup2\n      swap1\n      sub\n      0x64\n      add\n      swap1\n      revert\n    tag_173:\n      sub(shl(0xa0, 0x01), 0x01)\n        /* \"frax/Frax.sol\":6763:6780  usr != msg.sender */\n      dup3\n      and\n        /* \"frax/Frax.sol\":6770:6780  msg.sender */\n      caller\n        /* \"frax/Frax.sol\":6763:6780  usr != msg.sender */\n      eq\n      dup1\n      iszero\n      swap1\n        /* \"frax/Frax.sol\":6763:6826  usr != msg.sender && _allowance(usr, msg.sender) != uint256(-1) */\n      tag_174\n      jumpi\n      pop\n      not(0x00)\n        /* \"frax/Frax.sol\":6784:6811  _allowance(usr, msg.sender) */\n      tag_175\n        /* \"frax/Frax.sol\":6795:6798  usr */\n      dup4\n        /* \"frax/Frax.sol\":6800:6810  msg.sender */\n      caller\n        /* \"frax/Frax.sol\":6784:6794  _allowance */\n      tag_128\n        /* \"frax/Frax.sol\":6784:6811  _allowance(usr, msg.sender) */\n      jump\t// in\n    tag_175:\n        /* \"frax/Frax.sol\":6784:6826  _allowance(usr, msg.sender) != uint256(-1) */\n      eq\n      iszero\n        /* \"frax/Frax.sol\":6763:6826  usr != msg.sender && _allowance(usr, msg.sender) != uint256(-1) */\n    tag_174:\n        /* \"frax/Frax.sol\":6759:7008  if (usr != msg.sender && _allowance(usr, msg.sender) != uint256(-1)) {... */\n      iszero\n      tag_176\n      jumpi\n        /* \"frax/Frax.sol\":6881:6884  wad */\n      dup1\n        /* \"frax/Frax.sol\":6850:6877  _allowance(usr, msg.sender) */\n      tag_177\n        /* \"frax/Frax.sol\":6861:6864  usr */\n      dup4\n        /* \"frax/Frax.sol\":6866:6876  msg.sender */\n      caller\n        /* \"frax/Frax.sol\":6850:6860  _allowance */\n      tag_128\n        /* \"frax/Frax.sol\":6850:6877  _allowance(usr, msg.sender) */\n      jump\t// in\n    tag_177:\n        /* \"frax/Frax.sol\":6850:6884  _allowance(usr, msg.sender) >= wad */\n      lt\n      iszero\n        /* \"frax/Frax.sol\":6842:6916  require(_allowance(usr, msg.sender) >= wad, \"Frax/insufficient-allowance\") */\n      tag_178\n      jumpi\n      0x40\n      dup1\n      mload\n      shl(0xe5, 0x461bcd)\n      dup2\n      mstore\n      0x20\n      0x04\n      dup3\n      add\n      mstore\n      0x1b\n      0x24\n      dup3\n      add\n      mstore\n      0x467261782f696e73756666696369656e742d616c6c6f77616e63650000000000\n      0x44\n      dup3\n      add\n      mstore\n      swap1\n      mload\n      swap1\n      dup2\n      swap1\n      sub\n      0x64\n      add\n      swap1\n      revert\n    tag_178:\n        /* \"frax/Frax.sol\":6960:6997  sub(_allowance(usr, msg.sender), wad) */\n      tag_179\n        /* \"frax/Frax.sol\":6964:6991  _allowance(usr, msg.sender) */\n      tag_180\n        /* \"frax/Frax.sol\":6975:6978  usr */\n      dup4\n        /* \"frax/Frax.sol\":6980:6990  msg.sender */\n      caller\n        /* \"frax/Frax.sol\":6964:6974  _allowance */\n      tag_128\n        /* \"frax/Frax.sol\":6964:6991  _allowance(usr, msg.sender) */\n      jump\t// in\n    tag_180:\n        /* \"frax/Frax.sol\":6993:6996  wad */\n      dup3\n        /* \"frax/Frax.sol\":6960:6963  sub */\n      tag_134\n        /* \"frax/Frax.sol\":6960:6997  sub(_allowance(usr, msg.sender), wad) */\n      jump\t// in\n    tag_179:\n      sub(shl(0xa0, 0x01), 0x01)\n        /* \"frax/Frax.sol\":6930:6945  allowances[usr] */\n      dup4\n      and\n      0x00\n      swap1\n      dup2\n      mstore\n        /* \"frax/Frax.sol\":6930:6940  allowances */\n      0x04\n        /* \"frax/Frax.sol\":6930:6945  allowances[usr] */\n      0x20\n      swap1\n      dup2\n      mstore\n      0x40\n      dup1\n      dup4\n      keccak256\n        /* \"frax/Frax.sol\":6946:6956  msg.sender */\n      caller\n        /* \"frax/Frax.sol\":6930:6957  allowances[usr][msg.sender] */\n      dup5\n      mstore\n      swap1\n      swap2\n      mstore\n      swap1\n      keccak256\n        /* \"frax/Frax.sol\":6930:6997  allowances[usr][msg.sender] = sub(_allowance(usr, msg.sender), wad) */\n      sstore\n        /* \"frax/Frax.sol\":6759:7008  if (usr != msg.sender && _allowance(usr, msg.sender) != uint256(-1)) {... */\n    tag_176:\n      sub(shl(0xa0, 0x01), 0x01)\n        /* \"frax/Frax.sol\":7038:7052  balanceOf[usr] */\n      dup3\n      and\n      0x00\n      swap1\n      dup2\n      mstore\n        /* \"frax/Frax.sol\":7038:7047  balanceOf */\n      0x03\n        /* \"frax/Frax.sol\":7038:7052  balanceOf[usr] */\n      0x20\n      mstore\n      0x40\n      swap1\n      keccak256\n      sload\n        /* \"frax/Frax.sol\":7034:7058  sub(balanceOf[usr], wad) */\n      tag_181\n      swap1\n        /* \"frax/Frax.sol\":7054:7057  wad */\n      dup3\n        /* \"frax/Frax.sol\":7034:7037  sub */\n      tag_134\n        /* \"frax/Frax.sol\":7034:7058  sub(balanceOf[usr], wad) */\n      jump\t// in\n    tag_181:\n      sub(shl(0xa0, 0x01), 0x01)\n        /* \"frax/Frax.sol\":7017:7031  balanceOf[usr] */\n      dup4\n      and\n      0x00\n      swap1\n      dup2\n      mstore\n        /* \"frax/Frax.sol\":7017:7026  balanceOf */\n      0x03\n        /* \"frax/Frax.sol\":7017:7031  balanceOf[usr] */\n      0x20\n      mstore\n      0x40\n      swap1\n      keccak256\n        /* \"frax/Frax.sol\":7017:7058  balanceOf[usr] = sub(balanceOf[usr], wad) */\n      sstore\n        /* \"frax/Frax.sol\":7086:7097  totalSupply */\n      sload(0x01)\n        /* \"frax/Frax.sol\":7082:7103  sub(totalSupply, wad) */\n      tag_182\n      swap1\n        /* \"frax/Frax.sol\":7099:7102  wad */\n      dup3\n        /* \"frax/Frax.sol\":7082:7085  sub */\n      tag_134\n        /* \"frax/Frax.sol\":7082:7103  sub(totalSupply, wad) */\n      jump\t// in\n    tag_182:\n        /* \"frax/Frax.sol\":7068:7079  totalSupply */\n      0x01\n        /* \"frax/Frax.sol\":7068:7103  totalSupply = sub(totalSupply, wad) */\n      sstore\n        /* \"frax/Frax.sol\":7118:7148  Transfer(usr, address(0), wad) */\n      0x40\n      dup1\n      mload\n      dup3\n      dup2\n      mstore\n      swap1\n      mload\n        /* \"frax/Frax.sol\":7140:7141  0 */\n      0x00\n      swap2\n      sub(shl(0xa0, 0x01), 0x01)\n        /* \"frax/Frax.sol\":7118:7148  Transfer(usr, address(0), wad) */\n      dup6\n      and\n      swap2\n      0xddf252ad1be2c89b69c2b068fc378daa952ba7f163c4a11628f55a4df523b3ef\n      swap2\n      dup2\n      swap1\n      sub\n      0x20\n      add\n      swap1\n      log3\n        /* \"frax/Frax.sol\":6631:7155  function burn(address usr, uint256 wad) external {... */\n      pop\n      pop\n      jump\t// out\n        /* \"frax/Frax.sol\":3321:3371  mapping(address => uint256) public fraxMintedToday */\n    tag_97:\n      mstore(0x20, 0x07)\n      0x00\n      swap1\n      dup2\n      mstore\n      0x40\n      swap1\n      keccak256\n      sload\n      dup2\n      jump\t// out\n        /* \"frax/Frax.sol\":4885:5011  function transfer(address dst, uint256 wad) external returns (bool) {... */\n    tag_100:\n        /* \"frax/Frax.sol\":4947:4951  bool */\n      0x00\n        /* \"frax/Frax.sol\":4970:5004  transferFrom(msg.sender, dst, wad) */\n      tag_122\n        /* \"frax/Frax.sol\":4983:4993  msg.sender */\n      caller\n        /* \"frax/Frax.sol\":4995:4998  dst */\n      dup5\n        /* \"frax/Frax.sol\":5000:5003  wad */\n      dup5\n        /* \"frax/Frax.sol\":4970:4982  transferFrom */\n      tag_49\n        /* \"frax/Frax.sol\":4970:5004  transferFrom(msg.sender, dst, wad) */\n      jump\t// in\n        /* \"frax/Frax.sol\":7492:7592  function push(address usr, uint256 wad) external {... */\n    tag_103:\n        /* \"frax/Frax.sol\":7551:7585  transferFrom(msg.sender, usr, wad) */\n      tag_186\n        /* \"frax/Frax.sol\":7564:7574  msg.sender */\n      caller\n        /* \"frax/Frax.sol\":7576:7579  usr */\n      dup4\n        /* \"frax/Frax.sol\":7581:7584  wad */\n      dup4\n        /* \"frax/Frax.sol\":7551:7563  transferFrom */\n      tag_49\n        /* \"frax/Frax.sol\":7551:7585  transferFrom(msg.sender, usr, wad) */\n      jump\t// in\n    tag_186:\n      pop\n        /* \"frax/Frax.sol\":7492:7592  function push(address usr, uint256 wad) external {... */\n      pop\n      pop\n      jump\t// out\n        /* \"frax/Frax.sol\":7704:7840  function move(... */\n    tag_106:\n        /* \"frax/Frax.sol\":7806:7833  transferFrom(src, dst, wad) */\n      tag_188\n        /* \"frax/Frax.sol\":7819:7822  src */\n      dup4\n        /* \"frax/Frax.sol\":7824:7827  dst */\n      dup4\n        /* \"frax/Frax.sol\":7829:7832  wad */\n      dup4\n        /* \"frax/Frax.sol\":7806:7818  transferFrom */\n      tag_49\n        /* \"frax/Frax.sol\":7806:7833  transferFrom(src, dst, wad) */\n      jump\t// in\n    tag_188:\n      pop\n        /* \"frax/Frax.sol\":7704:7840  function move(... */\n      pop\n      pop\n      pop\n      jump\t// out\n        /* \"frax/Frax.sol\":2510:2550  mapping(address => uint256) public wards */\n    tag_109:\n      0x00\n      0x20\n      dup2\n      swap1\n      mstore\n      swap1\n      dup2\n      mstore\n      0x40\n      swap1\n      keccak256\n      sload\n      dup2\n      jump\t// out\n        /* \"frax/Frax.sol\":5712:5812  function adjustDailyFraxLimit(uint256 _limit) external auth {... */\n    tag_112:\n        /* \"frax/Frax.sol\":2763:2773  msg.sender */\n      caller\n        /* \"frax/Frax.sol\":2757:2762  wards */\n      0x00\n        /* \"frax/Frax.sol\":2757:2774  wards[msg.sender] */\n      swap1\n      dup2\n      mstore\n      0x20\n      dup2\n      swap1\n      mstore\n      0x40\n      swap1\n      keccak256\n      sload\n        /* \"frax/Frax.sol\":2778:2779  1 */\n      0x01\n        /* \"frax/Frax.sol\":2757:2779  wards[msg.sender] == 1 */\n      eq\n        /* \"frax/Frax.sol\":2749:2803  require(wards[msg.sender] == 1, \"Frax/not-authorized\") */\n      tag_190\n      jumpi\n      0x40\n      dup1\n      mload\n      shl(0xe5, 0x461bcd)\n      dup2\n      mstore\n      0x20\n      0x04\n      dup3\n      add\n      mstore\n      0x13\n      0x24\n      dup3\n      add\n      mstore\n      shl(0x6a, 0x119c985e0bdb9bdd0b585d5d1a1bdc9a5e9959)\n      0x44\n      dup3\n      add\n      mstore\n      swap1\n      mload\n      swap1\n      dup2\n      swap1\n      sub\n      0x64\n      add\n      swap1\n      revert\n    tag_190:\n        /* \"frax/Frax.sol\":5782:5796  dailyFraxLimit */\n      0x02\n        /* \"frax/Frax.sol\":5782:5805  dailyFraxLimit = _limit */\n      sstore\n        /* \"frax/Frax.sol\":5712:5812  function adjustDailyFraxLimit(uint256 _limit) external auth {... */\n      jump\t// out\n        /* \"frax/Frax.sol\":3060:3089  uint256 public dailyFraxLimit */\n    tag_114:\n      sload(0x02)\n      dup2\n      jump\t// out\n        /* \"frax/Frax.sol\":4573:4712  function allowance(address account_, address sender_) external view returns (uint256) {... */\n    tag_117:\n        /* \"frax/Frax.sol\":4650:4657  uint256 */\n      0x00\n        /* \"frax/Frax.sol\":4676:4705  _allowance(account_, sender_) */\n      tag_122\n        /* \"frax/Frax.sol\":4687:4695  account_ */\n      dup4\n        /* \"frax/Frax.sol\":4697:4704  sender_ */\n      dup4\n        /* \"frax/Frax.sol\":4676:4686  _allowance */\n      tag_128\n        /* \"frax/Frax.sol\":4676:4705  _allowance(account_, sender_) */\n      jump\t// in\n        /* \"frax/Frax.sol\":7598:7698  function pull(address usr, uint256 wad) external {... */\n    tag_120:\n        /* \"frax/Frax.sol\":7657:7691  transferFrom(usr, msg.sender, wad) */\n      tag_186\n        /* \"frax/Frax.sol\":7670:7673  usr */\n      dup3\n        /* \"frax/Frax.sol\":7675:7685  msg.sender */\n      caller\n        /* \"frax/Frax.sol\":7687:7690  wad */\n      dup4\n        /* \"frax/Frax.sol\":7657:7669  transferFrom */\n      tag_49\n        /* \"frax/Frax.sol\":7657:7691  transferFrom(usr, msg.sender, wad) */\n      jump\t// in\n        /* \"frax/Frax.sol\":7161:7346  function _approve(address usr, uint256 wad) internal returns (bool) {... */\n    tag_123:\n        /* \"frax/Frax.sol\":7250:7260  msg.sender */\n      caller\n        /* \"frax/Frax.sol\":7223:7227  bool */\n      0x00\n        /* \"frax/Frax.sol\":7239:7261  allowances[msg.sender] */\n      dup2\n      dup2\n      mstore\n        /* \"frax/Frax.sol\":7239:7249  allowances */\n      0x04\n        /* \"frax/Frax.sol\":7239:7261  allowances[msg.sender] */\n      0x20\n      swap1\n      dup2\n      mstore\n      0x40\n      dup1\n      dup4\n      keccak256\n      sub(shl(0xa0, 0x01), 0x01)\n        /* \"frax/Frax.sol\":7239:7266  allowances[msg.sender][usr] */\n      dup8\n      and\n      dup1\n      dup6\n      mstore\n      swap1\n      dup4\n      mstore\n      dup2\n      dup5\n      keccak256\n        /* \"frax/Frax.sol\":7239:7272  allowances[msg.sender][usr] = wad */\n      dup7\n      swap1\n      sstore\n        /* \"frax/Frax.sol\":7288:7318  Approval(msg.sender, usr, wad) */\n      dup2\n      mload\n      dup7\n      dup2\n      mstore\n      swap2\n      mload\n        /* \"frax/Frax.sol\":7223:7227  bool */\n      swap4\n      swap5\n        /* \"frax/Frax.sol\":7239:7266  allowances[msg.sender][usr] */\n      swap1\n      swap4\n        /* \"frax/Frax.sol\":7250:7260  msg.sender */\n      swap1\n      swap3\n        /* \"frax/Frax.sol\":7288:7318  Approval(msg.sender, usr, wad) */\n      0x8c5be1e5ebec7d5bd14f71427d1e84f3dd0314c0f7b2291e5b200ac8c7c3b925\n      swap3\n      dup3\n      swap1\n      sub\n      add\n      swap1\n      log3\n      pop\n        /* \"frax/Frax.sol\":7335:7339  true */\n      0x01\n        /* \"frax/Frax.sol\":7161:7346  function _approve(address usr, uint256 wad) internal returns (bool) {... */\n      swap3\n      swap2\n      pop\n      pop\n      jump\t// out\n        /* \"frax/Frax.sol\":4718:4858  function _allowance(address account_, address sender_) internal view returns (uint256) {... */\n    tag_128:\n      sub(shl(0xa0, 0x01), 0x01)\n        /* \"frax/Frax.sol\":4822:4842  allowances[account_] */\n      swap2\n      dup3\n      and\n        /* \"frax/Frax.sol\":4796:4803  uint256 */\n      0x00\n        /* \"frax/Frax.sol\":4822:4842  allowances[account_] */\n      swap1\n      dup2\n      mstore\n        /* \"frax/Frax.sol\":4822:4832  allowances */\n      0x04\n        /* \"frax/Frax.sol\":4822:4842  allowances[account_] */\n      0x20\n      swap1\n      dup2\n      mstore\n      0x40\n      dup1\n      dup4\n      keccak256\n        /* \"frax/Frax.sol\":4822:4851  allowances[account_][sender_] */\n      swap4\n      swap1\n      swap5\n      and\n      dup3\n      mstore\n      swap2\n      swap1\n      swap2\n      mstore\n      keccak256\n      sload\n      swap1\n        /* \"frax/Frax.sol\":4718:4858  function _allowance(address account_, address sender_) internal view returns (uint256) {... */\n      jump\t// out\n        /* \"frax/Frax.sol\":3666:3777  function sub(uint256 x, uint256 y) internal pure returns (uint256 z) {... */\n    tag_134:\n        /* \"frax/Frax.sol\":3758:3763  x - y */\n      dup1\n      dup3\n      sub\n        /* \"frax/Frax.sol\":3753:3769  (z = x - y) <= x */\n      dup3\n      dup2\n      gt\n      iszero\n        /* \"frax/Frax.sol\":3745:3770  require((z = x - y) <= x) */\n      tag_121\n      jumpi\n      0x00\n      dup1\n      revert\n        /* \"frax/Frax.sol\":3549:3660  function add(uint256 x, uint256 y) internal pure returns (uint256 z) {... */\n    tag_137:\n        /* \"frax/Frax.sol\":3641:3646  x + y */\n      dup1\n      dup3\n      add\n        /* \"frax/Frax.sol\":3636:3652  (z = x + y) >= x */\n      dup3\n      dup2\n      lt\n      iszero\n        /* \"frax/Frax.sol\":3628:3653  require((z = x + y) >= x) */\n      tag_121\n      jumpi\n      0x00\n      dup1\n      revert\n\n    auxdata: 0xa26469706673582212207fa7ee403c62a577f017f805fb12e951ea23b35413022bbbb97e57dc193dcbe064736f6c63430007050033\n}\n",
				"bytecode": {
					"linkReferences": {},
					"object": "608060405234801561001057600080fd5b506040516112c63803806112c68339818101604052602081101561003357600080fd5b5051336000908152602081815260409182902060019081905582518084018452600a815269232920ac102a27a5a2a760b11b9083015282518084018452908152603160f81b9082015281517f8b73c3c69bb8fe3d512ecc4cf759cc79239f7b179b0ffacaa9a75d522b39400f818301527f0b5e63856806857c7af67a3841d8148fce118228c7167c9e8705ab68578b5d9f818401527fc89efdaa54c0f20c7adf612882df0950f5a951637e0307cdcb4c672f298b8bc6606082015260808101939093523060a0808501919091528251808503909101815260c0909301909152815191012060085569021e19e0c9bab240000060025561118f806101376000396000f3fe608060405234801561001057600080fd5b50600436106101a95760003560e01c80637ecebe00116100f9578063b753a98c11610097578063d3fd35ec11610071578063d3fd35ec14610545578063d7f1bf1214610562578063dd62ed3e1461056a578063f2d5d56b14610598576101a9565b8063b753a98c146104bd578063bb35783b146104e9578063bf353dbb1461051f576101a9565b80639c52a7f1116100d35780639c52a7f1146104195780639dc29fac1461043f5780639e16de341461046b578063a9059cbb14610491576101a9565b80637ecebe00146103915780638fcbaf0c146103b757806395d89b4114610411576101a9565b80633644e5151161016657806354fd4d501161014057806354fd4d501461033d57806365fae35e1461031757806370a0823114610345578063798247ae1461036b576101a9565b80633644e515146102e157806340c10f19146102e95780635422224e14610317576101a9565b806306fdde03146101ae578063095ea7b31461022b57806318160ddd1461026b57806323b872dd1461028557806330adf81f146102bb578063313ce567146102c3575b600080fd5b6101b66105c4565b6040805160208082528351818301528351919283929083019185019080838360005b838110156101f05781810151838201526020016101d8565b50505050905090810190601f16801561021d5780820380516001836020036101000a031916815260200191505b509250505060405180910390f35b6102576004803603604081101561024157600080fd5b506001600160a01b0381351690602001356105ea565b604080519115158252519081900360200190f35b6102736105ff565b60408051918252519081900360200190f35b6102576004803603606081101561029b57600080fd5b506001600160a01b03813581169160208101359091169060400135610605565b6102736107e0565b6102cb610804565b6040805160ff9092168252519081900360200190f35b610273610809565b610315600480360360408110156102ff57600080fd5b506001600160a01b03813516906020013561080f565b005b6103156004803603602081101561032d57600080fd5b50356001600160a01b03166109c5565b6101b6610a3c565b6102736004803603602081101561035b57600080fd5b50356001600160a01b0316610a59565b6102736004803603602081101561038157600080fd5b50356001600160a01b0316610a6b565b610273600480360360208110156103a757600080fd5b50356001600160a01b0316610a7d565b61031560048036036101008110156103ce57600080fd5b506001600160a01b038135811691602081013590911690604081013590606081013590608081013515159060ff60a0820135169060c08101359060e00135610a8f565b6101b6610d8d565b6103156004803603602081101561042f57600080fd5b50356001600160a01b0316610dad565b6103156004803603604081101561045557600080fd5b506001600160a01b038135169060200135610e21565b6102736004803603602081101561048157600080fd5b50356001600160a01b0316610fda565b610257600480360360408110156104a757600080fd5b506001600160a01b038135169060200135610fec565b610315600480360360408110156104d357600080fd5b506001600160a01b038135169060200135610ff9565b610315600480360360608110156104ff57600080fd5b506001600160a01b03813581169160208101359091169060400135611009565b6102736004803603602081101561053557600080fd5b50356001600160a01b031661101a565b6103156004803603602081101561055b57600080fd5b503561102c565b61027361108b565b6102736004803603604081101561058057600080fd5b506001600160a01b0381358116916020013516611091565b610315600480360360408110156105ae57600080fd5b506001600160a01b03813516906020013561109d565b6040518060400160405280600a815260200169232920ac102a27a5a2a760b11b81525081565b60006105f683836110a8565b90505b92915050565b60015481565b6001600160a01b03831660009081526003602052604081205482111561066e576040805162461bcd60e51b8152602060048201526019602482015278467261782f696e73756666696369656e742d62616c616e636560381b604482015290519081900360640190fd5b6001600160a01b0384163314801590610692575060001961068f853361110e565b14155b1561072d57816106a2853361110e565b10156106f5576040805162461bcd60e51b815260206004820152601b60248201527f467261782f696e73756666696369656e742d616c6c6f77616e63650000000000604482015290519081900360640190fd5b610708610702853361110e565b83611139565b6001600160a01b03851660009081526004602090815260408083203384529091529020555b6001600160a01b0384166000908152600360205260409020546107509083611139565b6001600160a01b03808616600090815260036020526040808220939093559085168152205461077f9083611149565b6001600160a01b0380851660008181526003602090815260409182902094909455805186815290519193928816927fddf252ad1be2c89b69c2b068fc378daa952ba7f163c4a11628f55a4df523b3ef92918290030190a35060019392505050565b7fea2aa0a1be11a07ed86d755c93467f4f82362b452371d1ba94d1715123511acb81565b601281565b60085481565b336000908152602081905260409020546109345760025433600090815260076020526040902054610841908390611149565b11158061087857503360009081526006602052604090205461196490610868904390611139565b1015801561087857506002548111155b6108c1576040805162461bcd60e51b815260206004820152601560248201527413dd995c8819185a5b1e48119c985e08131a5b5a5d605a1b604482015290519081900360640190fd5b33600090815260066020526040902054611964906108e0904390611139565b106109095733600090815260076020908152604080832084905560069091529020439055610934565b336000908152600760205260409020546109239082611149565b336000908152600760205260409020555b6001600160a01b0382166000908152600360205260409020546109579082611149565b6001600160a01b03831660009081526003602052604090205560015461097d9082611149565b6001556040805182815290516001600160a01b038416916000917fddf252ad1be2c89b69c2b068fc378daa952ba7f163c4a11628f55a4df523b3ef9181900360200190a35050565b33600090815260208190526040902054600114610a1f576040805162461bcd60e51b8152602060048201526013602482015272119c985e0bdb9bdd0b585d5d1a1bdc9a5e9959606a1b604482015290519081900360640190fd5b6001600160a01b0316600090815260208190526040902060019055565b604051806040016040528060018152602001603160f81b81525081565b60036020526000908152604090205481565b60066020526000908152604090205481565b60056020526000908152604090205481565b600854604080517fea2aa0a1be11a07ed86d755c93467f4f82362b452371d1ba94d1715123511acb6020808301919091526001600160a01b03808d16838501819052908c166060840152608083018b905260a083018a905288151560c0808501919091528451808503909101815260e08401855280519083012061190160f01b61010085015261010284019590955261012280840195909552835180840390950185526101429092019092528251929091019190912090610b90576040805162461bcd60e51b81526020600482015260166024820152750467261782f696e76616c69642d616464726573732d360541b604482015290519081900360640190fd5b60018185858560405160008152602001604052604051808581526020018460ff1681526020018381526020018281526020019450505050506020604051602081039080840390855afa158015610bea573d6000803e3d6000fd5b505050602060405103516001600160a01b0316896001600160a01b031614610c4f576040805162461bcd60e51b8152602060048201526013602482015272119c985e0bda5b9d985b1a590b5c195c9b5a5d606a1b604482015290519081900360640190fd5b851580610c5c5750854211155b610ca3576040805162461bcd60e51b8152602060048201526013602482015272119c985e0bdc195c9b5a5d0b595e1c1a5c9959606a1b604482015290519081900360640190fd5b6001600160a01b03891660009081526005602052604090208054600181019091558714610d0c576040805162461bcd60e51b8152602060048201526012602482015271467261782f696e76616c69642d6e6f6e636560701b604482015290519081900360640190fd5b600085610d1a576000610d1e565b6000195b6001600160a01b03808c166000818152600460209081526040808320948f168084529482529182902085905581518581529151949550929391927f8c5be1e5ebec7d5bd14f71427d1e84f3dd0314c0f7b2291e5b200ac8c7c3b92592918290030190a350505050505050505050565b6040518060400160405280600481526020016308ca482b60e31b81525081565b33600090815260208190526040902054600114610e07576040805162461bcd60e51b8152602060048201526013602482015272119c985e0bdb9bdd0b585d5d1a1bdc9a5e9959606a1b604482015290519081900360640190fd5b6001600160a01b0316600090815260208190526040812055565b6001600160a01b038216600090815260036020526040902054811115610e8a576040805162461bcd60e51b8152602060048201526019602482015278467261782f696e73756666696369656e742d62616c616e636560381b604482015290519081900360640190fd5b6001600160a01b0382163314801590610eae5750600019610eab833361110e565b14155b15610f495780610ebe833361110e565b1015610f11576040805162461bcd60e51b815260206004820152601b60248201527f467261782f696e73756666696369656e742d616c6c6f77616e63650000000000604482015290519081900360640190fd5b610f24610f1e833361110e565b82611139565b6001600160a01b03831660009081526004602090815260408083203384529091529020555b6001600160a01b038216600090815260036020526040902054610f6c9082611139565b6001600160a01b038316600090815260036020526040902055600154610f929082611139565b6001556040805182815290516000916001600160a01b038516917fddf252ad1be2c89b69c2b068fc378daa952ba7f163c4a11628f55a4df523b3ef9181900360200190a35050565b60076020526000908152604090205481565b60006105f6338484610605565b611004338383610605565b505050565b611014838383610605565b50505050565b60006020819052908152604090205481565b33600090815260208190526040902054600114611086576040805162461bcd60e51b8152602060048201526013602482015272119c985e0bdb9bdd0b585d5d1a1bdc9a5e9959606a1b604482015290519081900360640190fd5b600255565b60025481565b60006105f6838361110e565b611004823383610605565b3360008181526004602090815260408083206001600160a01b038716808552908352818420869055815186815291519394909390927f8c5be1e5ebec7d5bd14f71427d1e84f3dd0314c0f7b2291e5b200ac8c7c3b925928290030190a350600192915050565b6001600160a01b03918216600090815260046020908152604080832093909416825291909152205490565b808203828111156105f957600080fd5b808201828110156105f957600080fdfea26469706673582212207fa7ee403c62a577f017f805fb12e951ea23b35413022bbbb97e57dc193dcbe064736f6c63430007050033",
					"opcodes": "PUSH1 0x80 PUSH1 0x40 MSTORE CALLVALUE DUP1 ISZERO PUSH2 0x10 JUMPI PUSH1 0x0 DUP1 REVERT JUMPDEST POP PUSH1 0x40 MLOAD PUSH2 0x12C6 CODESIZE SUB DUP1 PUSH2 0x12C6 DUP4 CODECOPY DUP2 DUP2 ADD PUSH1 0x40 MSTORE PUSH1 0x20 DUP2 LT ISZERO PUSH2 0x33 JUMPI PUSH1 0x0 DUP1 REVERT JUMPDEST POP MLOAD CALLER PUSH1 0x0 SWAP1 DUP2 MSTORE PUSH1 0x20 DUP2 DUP2 MSTORE PUSH1 0x40 SWAP2 DUP3 SWAP1 KECCAK256 PUSH1 0x1 SWAP1 DUP2 SWAP1 SSTORE DUP3 MLOAD DUP1 DUP5 ADD DUP5 MSTORE PUSH1 0xA DUP2 MSTORE PUSH10 0x232920AC102A27A5A2A7 PUSH1 0xB1 SHL SWAP1 DUP4 ADD MSTORE DUP3 MLOAD DUP1 DUP5 ADD DUP5 MSTORE SWAP1 DUP2 MSTORE PUSH1 0x31 PUSH1 0xF8 SHL SWAP1 DUP3 ADD MSTORE DUP2 MLOAD PUSH32 0x8B73C3C69BB8FE3D512ECC4CF759CC79239F7B179B0FFACAA9A75D522B39400F DUP2 DUP4 ADD MSTORE PUSH32 0xB5E63856806857C7AF67A3841D8148FCE118228C7167C9E8705AB68578B5D9F DUP2 DUP5 ADD MSTORE PUSH32 0xC89EFDAA54C0F20C7ADF612882DF0950F5A951637E0307CDCB4C672F298B8BC6 PUSH1 0x60 DUP3 ADD MSTORE PUSH1 0x80 DUP2 ADD SWAP4 SWAP1 SWAP4 MSTORE ADDRESS PUSH1 0xA0 DUP1 DUP6 ADD SWAP2 SWAP1 SWAP2 MSTORE DUP3 MLOAD DUP1 DUP6 SUB SWAP1 SWAP2 ADD DUP2 MSTORE PUSH1 0xC0 SWAP1 SWAP4 ADD SWAP1 SWAP2 MSTORE DUP2 MLOAD SWAP2 ADD KECCAK256 PUSH1 0x8 SSTORE PUSH10 0x21E19E0C9BAB2400000 PUSH1 0x2 SSTORE PUSH2 0x118F DUP1 PUSH2 0x137 PUSH1 0x0 CODECOPY PUSH1 0x0 RETURN INVALID PUSH1 0x80 PUSH1 0x40 MSTORE CALLVALUE DUP1 ISZERO PUSH2 0x10 JUMPI PUSH1 0x0 DUP1 REVERT JUMPDEST POP PUSH1 0x4 CALLDATASIZE LT PUSH2 0x1A9 JUMPI PUSH1 0x0 CALLDATALOAD PUSH1 0xE0 SHR DUP1 PUSH4 0x7ECEBE00 GT PUSH2 0xF9 JUMPI DUP1 PUSH4 0xB753A98C GT PUSH2 0x97 JUMPI DUP1 PUSH4 0xD3FD35EC GT PUSH2 0x71 JUMPI DUP1 PUSH4 0xD3FD35EC EQ PUSH2 0x545 JUMPI DUP1 PUSH4 0xD7F1BF12 EQ PUSH2 0x562 JUMPI DUP1 PUSH4 0xDD62ED3E EQ PUSH2 0x56A JUMPI DUP1 PUSH4 0xF2D5D56B EQ PUSH2 0x598 JUMPI PUSH2 0x1A9 JUMP JUMPDEST DUP1 PUSH4 0xB753A98C EQ PUSH2 0x4BD JUMPI DUP1 PUSH4 0xBB35783B EQ PUSH2 0x4E9 JUMPI DUP1 PUSH4 0xBF353DBB EQ PUSH2 0x51F JUMPI PUSH2 0x1A9 JUMP JUMPDEST DUP1 PUSH4 0x9C52A7F1 GT PUSH2 0xD3 JUMPI DUP1 PUSH4 0x9C52A7F1 EQ PUSH2 0x419 JUMPI DUP1 PUSH4 0x9DC29FAC EQ PUSH2 0x43F JUMPI DUP1 PUSH4 0x9E16DE34 EQ PUSH2 0x46B JUMPI DUP1 PUSH4 0xA9059CBB EQ PUSH2 0x491 JUMPI PUSH2 0x1A9 JUMP JUMPDEST DUP1 PUSH4 0x7ECEBE00 EQ PUSH2 0x391 JUMPI DUP1 PUSH4 0x8FCBAF0C EQ PUSH2 0x3B7 JUMPI DUP1 PUSH4 0x95D89B41 EQ PUSH2 0x411 JUMPI PUSH2 0x1A9 JUMP JUMPDEST DUP1 PUSH4 0x3644E515 GT PUSH2 0x166 JUMPI DUP1 PUSH4 0x54FD4D50 GT PUSH2 0x140 JUMPI DUP1 PUSH4 0x54FD4D50 EQ PUSH2 0x33D JUMPI DUP1 PUSH4 0x65FAE35E EQ PUSH2 0x317 JUMPI DUP1 PUSH4 0x70A08231 EQ PUSH2 0x345 JUMPI DUP1 PUSH4 0x798247AE EQ PUSH2 0x36B JUMPI PUSH2 0x1A9 JUMP JUMPDEST DUP1 PUSH4 0x3644E515 EQ PUSH2 0x2E1 JUMPI DUP1 PUSH4 0x40C10F19 EQ PUSH2 0x2E9 JUMPI DUP1 PUSH4 0x5422224E EQ PUSH2 0x317 JUMPI PUSH2 0x1A9 JUMP JUMPDEST DUP1 PUSH4 0x6FDDE03 EQ PUSH2 0x1AE JUMPI DUP1 PUSH4 0x95EA7B3 EQ PUSH2 0x22B JUMPI DUP1 PUSH4 0x18160DDD EQ PUSH2 0x26B JUMPI DUP1 PUSH4 0x23B872DD EQ PUSH2 0x285 JUMPI DUP1 PUSH4 0x30ADF81F EQ PUSH2 0x2BB JUMPI DUP1 PUSH4 0x313CE567 EQ PUSH2 0x2C3 JUMPI JUMPDEST PUSH1 0x0 DUP1 REVERT JUMPDEST PUSH2 0x1B6 PUSH2 0x5C4 JUMP JUMPDEST PUSH1 0x40 DUP1 MLOAD PUSH1 0x20 DUP1 DUP3 MSTORE DUP4 MLOAD DUP2 DUP4 ADD MSTORE DUP4 MLOAD SWAP2 SWAP3 DUP4 SWAP3 SWAP1 DUP4 ADD SWAP2 DUP6 ADD SWAP1 DUP1 DUP4 DUP4 PUSH1 0x0 JUMPDEST DUP4 DUP2 LT ISZERO PUSH2 0x1F0 JUMPI DUP2 DUP2 ADD MLOAD DUP4 DUP3 ADD MSTORE PUSH1 0x20 ADD PUSH2 0x1D8 JUMP JUMPDEST POP POP POP POP SWAP1 POP SWAP1 DUP2 ADD SWAP1 PUSH1 0x1F AND DUP1 ISZERO PUSH2 0x21D JUMPI DUP1 DUP3 SUB DUP1 MLOAD PUSH1 0x1 DUP4 PUSH1 0x20 SUB PUSH2 0x100 EXP SUB NOT AND DUP2 MSTORE PUSH1 0x20 ADD SWAP2 POP JUMPDEST POP SWAP3 POP POP POP PUSH1 0x40 MLOAD DUP1 SWAP2 SUB SWAP1 RETURN JUMPDEST PUSH2 0x257 PUSH1 0x4 DUP1 CALLDATASIZE SUB PUSH1 0x40 DUP2 LT ISZERO PUSH2 0x241 JUMPI PUSH1 0x0 DUP1 REVERT JUMPDEST POP PUSH1 0x1 PUSH1 0x1 PUSH1 0xA0 SHL SUB DUP2 CALLDATALOAD AND SWAP1 PUSH1 0x20 ADD CALLDATALOAD PUSH2 0x5EA JUMP JUMPDEST PUSH1 0x40 DUP1 MLOAD SWAP2 ISZERO ISZERO DUP3 MSTORE MLOAD SWAP1 DUP2 SWAP1 SUB PUSH1 0x20 ADD SWAP1 RETURN JUMPDEST PUSH2 0x273 PUSH2 0x5FF JUMP JUMPDEST PUSH1 0x40 DUP1 MLOAD SWAP2 DUP3 MSTORE MLOAD SWAP1 DUP2 SWAP1 SUB PUSH1 0x20 ADD SWAP1 RETURN JUMPDEST PUSH2 0x257 PUSH1 0x4 DUP1 CALLDATASIZE SUB PUSH1 0x60 DUP2 LT ISZERO PUSH2 0x29B JUMPI PUSH1 0x0 DUP1 REVERT JUMPDEST POP PUSH1 0x1 PUSH1 0x1 PUSH1 0xA0 SHL SUB DUP2 CALLDATALOAD DUP2 AND SWAP2 PUSH1 0x20 DUP2 ADD CALLDATALOAD SWAP1 SWAP2 AND SWAP1 PUSH1 0x40 ADD CALLDATALOAD PUSH2 0x605 JUMP JUMPDEST PUSH2 0x273 PUSH2 0x7E0 JUMP JUMPDEST PUSH2 0x2CB PUSH2 0x804 JUMP JUMPDEST PUSH1 0x40 DUP1 MLOAD PUSH1 0xFF SWAP1 SWAP3 AND DUP3 MSTORE MLOAD SWAP1 DUP2 SWAP1 SUB PUSH1 0x20 ADD SWAP1 RETURN JUMPDEST PUSH2 0x273 PUSH2 0x809 JUMP JUMPDEST PUSH2 0x315 PUSH1 0x4 DUP1 CALLDATASIZE SUB PUSH1 0x40 DUP2 LT ISZERO PUSH2 0x2FF JUMPI PUSH1 0x0 DUP1 REVERT JUMPDEST POP PUSH1 0x1 PUSH1 0x1 PUSH1 0xA0 SHL SUB DUP2 CALLDATALOAD AND SWAP1 PUSH1 0x20 ADD CALLDATALOAD PUSH2 0x80F JUMP JUMPDEST STOP JUMPDEST PUSH2 0x315 PUSH1 0x4 DUP1 CALLDATASIZE SUB PUSH1 0x20 DUP2 LT ISZERO PUSH2 0x32D JUMPI PUSH1 0x0 DUP1 REVERT JUMPDEST POP CALLDATALOAD PUSH1 0x1 PUSH1 0x1 PUSH1 0xA0 SHL SUB AND PUSH2 0x9C5 JUMP JUMPDEST PUSH2 0x1B6 PUSH2 0xA3C JUMP JUMPDEST PUSH2 0x273 PUSH1 0x4 DUP1 CALLDATASIZE SUB PUSH1 0x20 DUP2 LT ISZERO PUSH2 0x35B JUMPI PUSH1 0x0 DUP1 REVERT JUMPDEST POP CALLDATALOAD PUSH1 0x1 PUSH1 0x1 PUSH1 0xA0 SHL SUB AND PUSH2 0xA59 JUMP JUMPDEST PUSH2 0x273 PUSH1 0x4 DUP1 CALLDATASIZE SUB PUSH1 0x20 DUP2 LT ISZERO PUSH2 0x381 JUMPI PUSH1 0x0 DUP1 REVERT JUMPDEST POP CALLDATALOAD PUSH1 0x1 PUSH1 0x1 PUSH1 0xA0 SHL SUB AND PUSH2 0xA6B JUMP JUMPDEST PUSH2 0x273 PUSH1 0x4 DUP1 CALLDATASIZE SUB PUSH1 0x20 DUP2 LT ISZERO PUSH2 0x3A7 JUMPI PUSH1 0x0 DUP1 REVERT JUMPDEST POP CALLDATALOAD PUSH1 0x1 PUSH1 0x1 PUSH1 0xA0 SHL SUB AND PUSH2 0xA7D JUMP JUMPDEST PUSH2 0x315 PUSH1 0x4 DUP1 CALLDATASIZE SUB PUSH2 0x100 DUP2 LT ISZERO PUSH2 0x3CE JUMPI PUSH1 0x0 DUP1 REVERT JUMPDEST POP PUSH1 0x1 PUSH1 0x1 PUSH1 0xA0 SHL SUB DUP2 CALLDATALOAD DUP2 AND SWAP2 PUSH1 0x20 DUP2 ADD CALLDATALOAD SWAP1 SWAP2 AND SWAP1 PUSH1 0x40 DUP2 ADD CALLDATALOAD SWAP1 PUSH1 0x60 DUP2 ADD CALLDATALOAD SWAP1 PUSH1 0x80 DUP2 ADD CALLDATALOAD ISZERO ISZERO SWAP1 PUSH1 0xFF PUSH1 0xA0 DUP3 ADD CALLDATALOAD AND SWAP1 PUSH1 0xC0 DUP2 ADD CALLDATALOAD SWAP1 PUSH1 0xE0 ADD CALLDATALOAD PUSH2 0xA8F JUMP JUMPDEST PUSH2 0x1B6 PUSH2 0xD8D JUMP JUMPDEST PUSH2 0x315 PUSH1 0x4 DUP1 CALLDATASIZE SUB PUSH1 0x20 DUP2 LT ISZERO PUSH2 0x42F JUMPI PUSH1 0x0 DUP1 REVERT JUMPDEST POP CALLDATALOAD PUSH1 0x1 PUSH1 0x1 PUSH1 0xA0 SHL SUB AND PUSH2 0xDAD JUMP JUMPDEST PUSH2 0x315 PUSH1 0x4 DUP1 CALLDATASIZE SUB PUSH1 0x40 DUP2 LT ISZERO PUSH2 0x455 JUMPI PUSH1 0x0 DUP1 REVERT JUMPDEST POP PUSH1 0x1 PUSH1 0x1 PUSH1 0xA0 SHL SUB DUP2 CALLDATALOAD AND SWAP1 PUSH1 0x20 ADD CALLDATALOAD PUSH2 0xE21 JUMP JUMPDEST PUSH2 0x273 PUSH1 0x4 DUP1 CALLDATASIZE SUB PUSH1 0x20 DUP2 LT ISZERO PUSH2 0x481 JUMPI PUSH1 0x0 DUP1 REVERT JUMPDEST POP CALLDATALOAD PUSH1 0x1 PUSH1 0x1 PUSH1 0xA0 SHL SUB AND PUSH2 0xFDA JUMP JUMPDEST PUSH2 0x257 PUSH1 0x4 DUP1 CALLDATASIZE SUB PUSH1 0x40 DUP2 LT ISZERO PUSH2 0x4A7 JUMPI PUSH1 0x0 DUP1 REVERT JUMPDEST POP PUSH1 0x1 PUSH1 0x1 PUSH1 0xA0 SHL SUB DUP2 CALLDATALOAD AND SWAP1 PUSH1 0x20 ADD CALLDATALOAD PUSH2 0xFEC JUMP JUMPDEST PUSH2 0x315 PUSH1 0x4 DUP1 CALLDATASIZE SUB PUSH1 0x40 DUP2 LT ISZERO PUSH2 0x4D3 JUMPI PUSH1 0x0 DUP1 REVERT JUMPDEST POP PUSH1 0x1 PUSH1 0x1 PUSH1 0xA0 SHL SUB DUP2 CALLDATALOAD AND SWAP1 PUSH1 0x20 ADD CALLDATALOAD PUSH2 0xFF9 JUMP JUMPDEST PUSH2 0x315 PUSH1 0x4 DUP1 CALLDATASIZE SUB PUSH1 0x60 DUP2 LT ISZERO PUSH2 0x4FF JUMPI PUSH1 0x0 DUP1 REVERT JUMPDEST POP PUSH1 0x1 PUSH1 0x1 PUSH1 0xA0 SHL SUB DUP2 CALLDATALOAD DUP2 AND SWAP2 PUSH1 0x20 DUP2 ADD CALLDATALOAD SWAP1 SWAP2 AND SWAP1 PUSH1 0x40 ADD CALLDATALOAD PUSH2 0x1009 JUMP JUMPDEST PUSH2 0x273 PUSH1 0x4 DUP1 CALLDATASIZE SUB PUSH1 0x20 DUP2 LT ISZERO PUSH2 0x535 JUMPI PUSH1 0x0 DUP1 REVERT JUMPDEST POP CALLDATALOAD PUSH1 0x1 PUSH1 0x1 PUSH1 0xA0 SHL SUB AND PUSH2 0x101A JUMP JUMPDEST PUSH2 0x315 PUSH1 0x4 DUP1 CALLDATASIZE SUB PUSH1 0x20 DUP2 LT ISZERO PUSH2 0x55B JUMPI PUSH1 0x0 DUP1 REVERT JUMPDEST POP CALLDATALOAD PUSH2 0x102C JUMP JUMPDEST PUSH2 0x273 PUSH2 0x108B JUMP JUMPDEST PUSH2 0x273 PUSH1 0x4 DUP1 CALLDATASIZE SUB PUSH1 0x40 DUP2 LT ISZERO PUSH2 0x580 JUMPI PUSH1 0x0 DUP1 REVERT JUMPDEST POP PUSH1 0x1 PUSH1 0x1 PUSH1 0xA0 SHL SUB DUP2 CALLDATALOAD DUP2 AND SWAP2 PUSH1 0x20 ADD CALLDATALOAD AND PUSH2 0x1091 JUMP JUMPDEST PUSH2 0x315 PUSH1 0x4 DUP1 CALLDATASIZE SUB PUSH1 0x40 DUP2 LT ISZERO PUSH2 0x5AE JUMPI PUSH1 0x0 DUP1 REVERT JUMPDEST POP PUSH1 0x1 PUSH1 0x1 PUSH1 0xA0 SHL SUB DUP2 CALLDATALOAD AND SWAP1 PUSH1 0x20 ADD CALLDATALOAD PUSH2 0x109D JUMP JUMPDEST PUSH1 0x40 MLOAD DUP1 PUSH1 0x40 ADD PUSH1 0x40 MSTORE DUP1 PUSH1 0xA DUP2 MSTORE PUSH1 0x20 ADD PUSH10 0x232920AC102A27A5A2A7 PUSH1 0xB1 SHL DUP2 MSTORE POP DUP2 JUMP JUMPDEST PUSH1 0x0 PUSH2 0x5F6 DUP4 DUP4 PUSH2 0x10A8 JUMP JUMPDEST SWAP1 POP JUMPDEST SWAP3 SWAP2 POP POP JUMP JUMPDEST PUSH1 0x1 SLOAD DUP2 JUMP JUMPDEST PUSH1 0x1 PUSH1 0x1 PUSH1 0xA0 SHL SUB DUP4 AND PUSH1 0x0 SWAP1 DUP2 MSTORE PUSH1 0x3 PUSH1 0x20 MSTORE PUSH1 0x40 DUP2 KECCAK256 SLOAD DUP3 GT ISZERO PUSH2 0x66E JUMPI PUSH1 0x40 DUP1 MLOAD PUSH3 0x461BCD PUSH1 0xE5 SHL DUP2 MSTORE PUSH1 0x20 PUSH1 0x4 DUP3 ADD MSTORE PUSH1 0x19 PUSH1 0x24 DUP3 ADD MSTORE PUSH25 0x467261782F696E73756666696369656E742D62616C616E6365 PUSH1 0x38 SHL PUSH1 0x44 DUP3 ADD MSTORE SWAP1 MLOAD SWAP1 DUP2 SWAP1 SUB PUSH1 0x64 ADD SWAP1 REVERT JUMPDEST PUSH1 0x1 PUSH1 0x1 PUSH1 0xA0 SHL SUB DUP5 AND CALLER EQ DUP1 ISZERO SWAP1 PUSH2 0x692 JUMPI POP PUSH1 0x0 NOT PUSH2 0x68F DUP6 CALLER PUSH2 0x110E JUMP JUMPDEST EQ ISZERO JUMPDEST ISZERO PUSH2 0x72D JUMPI DUP2 PUSH2 0x6A2 DUP6 CALLER PUSH2 0x110E JUMP JUMPDEST LT ISZERO PUSH2 0x6F5 JUMPI PUSH1 0x40 DUP1 MLOAD PUSH3 0x461BCD PUSH1 0xE5 SHL DUP2 MSTORE PUSH1 0x20 PUSH1 0x4 DUP3 ADD MSTORE PUSH1 0x1B PUSH1 0x24 DUP3 ADD MSTORE PUSH32 0x467261782F696E73756666696369656E742D616C6C6F77616E63650000000000 PUSH1 0x44 DUP3 ADD MSTORE SWAP1 MLOAD SWAP1 DUP2 SWAP1 SUB PUSH1 0x64 ADD SWAP1 REVERT JUMPDEST PUSH2 0x708 PUSH2 0x702 DUP6 CALLER PUSH2 0x110E JUMP JUMPDEST DUP4 PUSH2 0x1139 JUMP JUMPDEST PUSH1 0x1 PUSH1 0x1 PUSH1 0xA0 SHL SUB DUP6 AND PUSH1 0x0 SWAP1 DUP2 MSTORE PUSH1 0x4 PUSH1 0x20 SWAP1 DUP2 MSTORE PUSH1 0x40 DUP1 DUP4 KECCAK256 CALLER DUP5 MSTORE SWAP1 SWAP2 MSTORE SWAP1 KECCAK256 SSTORE JUMPDEST PUSH1 0x1 PUSH1 0x1 PUSH1 0xA0 SHL SUB DUP5 AND PUSH1 0x0 SWAP1 DUP2 MSTORE PUSH1 0x3 PUSH1 0x20 MSTORE PUSH1 0x40 SWAP1 KECCAK256 SLOAD PUSH2 0x750 SWAP1 DUP4 PUSH2 0x1139 JUMP JUMPDEST PUSH1 0x1 PUSH1 0x1 PUSH1 0xA0 SHL SUB DUP1 DUP7 AND PUSH1 0x0 SWAP1 DUP2 MSTORE PUSH1 0x3 PUSH1 0x20 MSTORE PUSH1 0x40 DUP1 DUP3 KECCAK256 SWAP4 SWAP1 SWAP4 SSTORE SWAP1 DUP6 AND DUP2 MSTORE KECCAK256 SLOAD PUSH2 0x77F SWAP1 DUP4 PUSH2 0x1149 JUMP JUMPDEST PUSH1 0x1 PUSH1 0x1 PUSH1 0xA0 SHL SUB DUP1 DUP6 AND PUSH1 0x0 DUP2 DUP2 MSTORE PUSH1 0x3 PUSH1 0x20 SWAP1 DUP2 MSTORE PUSH1 0x40 SWAP2 DUP3 SWAP1 KECCAK256 SWAP5 SWAP1 SWAP5 SSTORE DUP1 MLOAD DUP7 DUP2 MSTORE SWAP1 MLOAD SWAP2 SWAP4 SWAP3 DUP9 AND SWAP3 PUSH32 0xDDF252AD1BE2C89B69C2B068FC378DAA952BA7F163C4A11628F55A4DF523B3EF SWAP3 SWAP2 DUP3 SWAP1 SUB ADD SWAP1 LOG3 POP PUSH1 0x1 SWAP4 SWAP3 POP POP POP JUMP JUMPDEST PUSH32 0xEA2AA0A1BE11A07ED86D755C93467F4F82362B452371D1BA94D1715123511ACB DUP2 JUMP JUMPDEST PUSH1 0x12 DUP2 JUMP JUMPDEST PUSH1 0x8 SLOAD DUP2 JUMP JUMPDEST CALLER PUSH1 0x0 SWAP1 DUP2 MSTORE PUSH1 0x20 DUP2 SWAP1 MSTORE PUSH1 0x40 SWAP1 KECCAK256 SLOAD PUSH2 0x934 JUMPI PUSH1 0x2 SLOAD CALLER PUSH1 0x0 SWAP1 DUP2 MSTORE PUSH1 0x7 PUSH1 0x20 MSTORE PUSH1 0x40 SWAP1 KECCAK256 SLOAD PUSH2 0x841 SWAP1 DUP4 SWAP1 PUSH2 0x1149 JUMP JUMPDEST GT ISZERO DUP1 PUSH2 0x878 JUMPI POP CALLER PUSH1 0x0 SWAP1 DUP2 MSTORE PUSH1 0x6 PUSH1 0x20 MSTORE PUSH1 0x40 SWAP1 KECCAK256 SLOAD PUSH2 0x1964 SWAP1 PUSH2 0x868 SWAP1 NUMBER SWAP1 PUSH2 0x1139 JUMP JUMPDEST LT ISZERO DUP1 ISZERO PUSH2 0x878 JUMPI POP PUSH1 0x2 SLOAD DUP2 GT ISZERO JUMPDEST PUSH2 0x8C1 JUMPI PUSH1 0x40 DUP1 MLOAD PUSH3 0x461BCD PUSH1 0xE5 SHL DUP2 MSTORE PUSH1 0x20 PUSH1 0x4 DUP3 ADD MSTORE PUSH1 0x15 PUSH1 0x24 DUP3 ADD MSTORE PUSH21 0x13DD995C8819185A5B1E48119C985E08131A5B5A5D PUSH1 0x5A SHL PUSH1 0x44 DUP3 ADD MSTORE SWAP1 MLOAD SWAP1 DUP2 SWAP1 SUB PUSH1 0x64 ADD SWAP1 REVERT JUMPDEST CALLER PUSH1 0x0 SWAP1 DUP2 MSTORE PUSH1 0x6 PUSH1 0x20 MSTORE PUSH1 0x40 SWAP1 KECCAK256 SLOAD PUSH2 0x1964 SWAP1 PUSH2 0x8E0 SWAP1 NUMBER SWAP1 PUSH2 0x1139 JUMP JUMPDEST LT PUSH2 0x909 JUMPI CALLER PUSH1 0x0 SWAP1 DUP2 MSTORE PUSH1 0x7 PUSH1 0x20 SWAP1 DUP2 MSTORE PUSH1 0x40 DUP1 DUP4 KECCAK256 DUP5 SWAP1 SSTORE PUSH1 0x6 SWAP1 SWAP2 MSTORE SWAP1 KECCAK256 NUMBER SWAP1 SSTORE PUSH2 0x934 JUMP JUMPDEST CALLER PUSH1 0x0 SWAP1 DUP2 MSTORE PUSH1 0x7 PUSH1 0x20 MSTORE PUSH1 0x40 SWAP1 KECCAK256 SLOAD PUSH2 0x923 SWAP1 DUP3 PUSH2 0x1149 JUMP JUMPDEST CALLER PUSH1 0x0 SWAP1 DUP2 MSTORE PUSH1 0x7 PUSH1 0x20 MSTORE PUSH1 0x40 SWAP1 KECCAK256 SSTORE JUMPDEST PUSH1 0x1 PUSH1 0x1 PUSH1 0xA0 SHL SUB DUP3 AND PUSH1 0x0 SWAP1 DUP2 MSTORE PUSH1 0x3 PUSH1 0x20 MSTORE PUSH1 0x40 SWAP1 KECCAK256 SLOAD PUSH2 0x957 SWAP1 DUP3 PUSH2 0x1149 JUMP JUMPDEST PUSH1 0x1 PUSH1 0x1 PUSH1 0xA0 SHL SUB DUP4 AND PUSH1 0x0 SWAP1 DUP2 MSTORE PUSH1 0x3 PUSH1 0x20 MSTORE PUSH1 0x40 SWAP1 KECCAK256 SSTORE PUSH1 0x1 SLOAD PUSH2 0x97D SWAP1 DUP3 PUSH2 0x1149 JUMP JUMPDEST PUSH1 0x1 SSTORE PUSH1 0x40 DUP1 MLOAD DUP3 DUP2 MSTORE SWAP1 MLOAD PUSH1 0x1 PUSH1 0x1 PUSH1 0xA0 SHL SUB DUP5 AND SWAP2 PUSH1 0x0 SWAP2 PUSH32 0xDDF252AD1BE2C89B69C2B068FC378DAA952BA7F163C4A11628F55A4DF523B3EF SWAP2 DUP2 SWAP1 SUB PUSH1 0x20 ADD SWAP1 LOG3 POP POP JUMP JUMPDEST CALLER PUSH1 0x0 SWAP1 DUP2 MSTORE PUSH1 0x20 DUP2 SWAP1 MSTORE PUSH1 0x40 SWAP1 KECCAK256 SLOAD PUSH1 0x1 EQ PUSH2 0xA1F JUMPI PUSH1 0x40 DUP1 MLOAD PUSH3 0x461BCD PUSH1 0xE5 SHL DUP2 MSTORE PUSH1 0x20 PUSH1 0x4 DUP3 ADD MSTORE PUSH1 0x13 PUSH1 0x24 DUP3 ADD MSTORE PUSH19 0x119C985E0BDB9BDD0B585D5D1A1BDC9A5E9959 PUSH1 0x6A SHL PUSH1 0x44 DUP3 ADD MSTORE SWAP1 MLOAD SWAP1 DUP2 SWAP1 SUB PUSH1 0x64 ADD SWAP1 REVERT JUMPDEST PUSH1 0x1 PUSH1 0x1 PUSH1 0xA0 SHL SUB AND PUSH1 0x0 SWAP1 DUP2 MSTORE PUSH1 0x20 DUP2 SWAP1 MSTORE PUSH1 0x40 SWAP1 KECCAK256 PUSH1 0x1 SWAP1 SSTORE JUMP JUMPDEST PUSH1 0x40 MLOAD DUP1 PUSH1 0x40 ADD PUSH1 0x40 MSTORE DUP1 PUSH1 0x1 DUP2 MSTORE PUSH1 0x20 ADD PUSH1 0x31 PUSH1 0xF8 SHL DUP2 MSTORE POP DUP2 JUMP JUMPDEST PUSH1 0x3 PUSH1 0x20 MSTORE PUSH1 0x0 SWAP1 DUP2 MSTORE PUSH1 0x40 SWAP1 KECCAK256 SLOAD DUP2 JUMP JUMPDEST PUSH1 0x6 PUSH1 0x20 MSTORE PUSH1 0x0 SWAP1 DUP2 MSTORE PUSH1 0x40 SWAP1 KECCAK256 SLOAD DUP2 JUMP JUMPDEST PUSH1 0x5 PUSH1 0x20 MSTORE PUSH1 0x0 SWAP1 DUP2 MSTORE PUSH1 0x40 SWAP1 KECCAK256 SLOAD DUP2 JUMP JUMPDEST PUSH1 0x8 SLOAD PUSH1 0x40 DUP1 MLOAD PUSH32 0xEA2AA0A1BE11A07ED86D755C93467F4F82362B452371D1BA94D1715123511ACB PUSH1 0x20 DUP1 DUP4 ADD SWAP2 SWAP1 SWAP2 MSTORE PUSH1 0x1 PUSH1 0x1 PUSH1 0xA0 SHL SUB DUP1 DUP14 AND DUP4 DUP6 ADD DUP2 SWAP1 MSTORE SWAP1 DUP13 AND PUSH1 0x60 DUP5 ADD MSTORE PUSH1 0x80 DUP4 ADD DUP12 SWAP1 MSTORE PUSH1 0xA0 DUP4 ADD DUP11 SWAP1 MSTORE DUP9 ISZERO ISZERO PUSH1 0xC0 DUP1 DUP6 ADD SWAP2 SWAP1 SWAP2 MSTORE DUP5 MLOAD DUP1 DUP6 SUB SWAP1 SWAP2 ADD DUP2 MSTORE PUSH1 0xE0 DUP5 ADD DUP6 MSTORE DUP1 MLOAD SWAP1 DUP4 ADD KECCAK256 PUSH2 0x1901 PUSH1 0xF0 SHL PUSH2 0x100 DUP6 ADD MSTORE PUSH2 0x102 DUP5 ADD SWAP6 SWAP1 SWAP6 MSTORE PUSH2 0x122 DUP1 DUP5 ADD SWAP6 SWAP1 SWAP6 MSTORE DUP4 MLOAD DUP1 DUP5 SUB SWAP1 SWAP6 ADD DUP6 MSTORE PUSH2 0x142 SWAP1 SWAP3 ADD SWAP1 SWAP3 MSTORE DUP3 MLOAD SWAP3 SWAP1 SWAP2 ADD SWAP2 SWAP1 SWAP2 KECCAK256 SWAP1 PUSH2 0xB90 JUMPI PUSH1 0x40 DUP1 MLOAD PUSH3 0x461BCD PUSH1 0xE5 SHL DUP2 MSTORE PUSH1 0x20 PUSH1 0x4 DUP3 ADD MSTORE PUSH1 0x16 PUSH1 0x24 DUP3 ADD MSTORE PUSH22 0x467261782F696E76616C69642D616464726573732D3 PUSH1 0x54 SHL PUSH1 0x44 DUP3 ADD MSTORE SWAP1 MLOAD SWAP1 DUP2 SWAP1 SUB PUSH1 0x64 ADD SWAP1 REVERT JUMPDEST PUSH1 0x1 DUP2 DUP6 DUP6 DUP6 PUSH1 0x40 MLOAD PUSH1 0x0 DUP2 MSTORE PUSH1 0x20 ADD PUSH1 0x40 MSTORE PUSH1 0x40 MLOAD DUP1 DUP6 DUP2 MSTORE PUSH1 0x20 ADD DUP5 PUSH1 0xFF AND DUP2 MSTORE PUSH1 0x20 ADD DUP4 DUP2 MSTORE PUSH1 0x20 ADD DUP3 DUP2 MSTORE PUSH1 0x20 ADD SWAP5 POP POP POP POP POP PUSH1 0x20 PUSH1 0x40 MLOAD PUSH1 0x20 DUP2 SUB SWAP1 DUP1 DUP5 SUB SWAP1 DUP6 GAS STATICCALL ISZERO DUP1 ISZERO PUSH2 0xBEA JUMPI RETURNDATASIZE PUSH1 0x0 DUP1 RETURNDATACOPY RETURNDATASIZE PUSH1 0x0 REVERT JUMPDEST POP POP POP PUSH1 0x20 PUSH1 0x40 MLOAD SUB MLOAD PUSH1 0x1 PUSH1 0x1 PUSH1 0xA0 SHL SUB AND DUP10 PUSH1 0x1 PUSH1 0x1 PUSH1 0xA0 SHL SUB AND EQ PUSH2 0xC4F JUMPI PUSH1 0x40 DUP1 MLOAD PUSH3 0x461BCD PUSH1 0xE5 SHL DUP2 MSTORE PUSH1 0x20 PUSH1 0x4 DUP3 ADD MSTORE PUSH1 0x13 PUSH1 0x24 DUP3 ADD MSTORE PUSH19 0x119C985E0BDA5B9D985B1A590B5C195C9B5A5D PUSH1 0x6A SHL PUSH1 0x44 DUP3 ADD MSTORE SWAP1 MLOAD SWAP1 DUP2 SWAP1 SUB PUSH1 0x64 ADD SWAP1 REVERT JUMPDEST DUP6 ISZERO DUP1 PUSH2 0xC5C JUMPI POP DUP6 TIMESTAMP GT ISZERO JUMPDEST PUSH2 0xCA3 JUMPI PUSH1 0x40 DUP1 MLOAD PUSH3 0x461BCD PUSH1 0xE5 SHL DUP2 MSTORE PUSH1 0x20 PUSH1 0x4 DUP3 ADD MSTORE PUSH1 0x13 PUSH1 0x24 DUP3 ADD MSTORE PUSH19 0x119C985E0BDC195C9B5A5D0B595E1C1A5C9959 PUSH1 0x6A SHL PUSH1 0x44 DUP3 ADD MSTORE SWAP1 MLOAD SWAP1 DUP2 SWAP1 SUB PUSH1 0x64 ADD SWAP1 REVERT JUMPDEST PUSH1 0x1 PUSH1 0x1 PUSH1 0xA0 SHL SUB DUP10 AND PUSH1 0x0 SWAP1 DUP2 MSTORE PUSH1 0x5 PUSH1 0x20 MSTORE PUSH1 0x40 SWAP1 KECCAK256 DUP1 SLOAD PUSH1 0x1 DUP2 ADD SWAP1 SWAP2 SSTORE DUP8 EQ PUSH2 0xD0C JUMPI PUSH1 0x40 DUP1 MLOAD PUSH3 0x461BCD PUSH1 0xE5 SHL DUP2 MSTORE PUSH1 0x20 PUSH1 0x4 DUP3 ADD MSTORE PUSH1 0x12 PUSH1 0x24 DUP3 ADD MSTORE PUSH18 0x467261782F696E76616C69642D6E6F6E6365 PUSH1 0x70 SHL PUSH1 0x44 DUP3 ADD MSTORE SWAP1 MLOAD SWAP1 DUP2 SWAP1 SUB PUSH1 0x64 ADD SWAP1 REVERT JUMPDEST PUSH1 0x0 DUP6 PUSH2 0xD1A JUMPI PUSH1 0x0 PUSH2 0xD1E JUMP JUMPDEST PUSH1 0x0 NOT JUMPDEST PUSH1 0x1 PUSH1 0x1 PUSH1 0xA0 SHL SUB DUP1 DUP13 AND PUSH1 0x0 DUP2 DUP2 MSTORE PUSH1 0x4 PUSH1 0x20 SWAP1 DUP2 MSTORE PUSH1 0x40 DUP1 DUP4 KECCAK256 SWAP5 DUP16 AND DUP1 DUP5 MSTORE SWAP5 DUP3 MSTORE SWAP2 DUP3 SWAP1 KECCAK256 DUP6 SWAP1 SSTORE DUP2 MLOAD DUP6 DUP2 MSTORE SWAP2 MLOAD SWAP5 SWAP6 POP SWAP3 SWAP4 SWAP2 SWAP3 PUSH32 0x8C5BE1E5EBEC7D5BD14F71427D1E84F3DD0314C0F7B2291E5B200AC8C7C3B925 SWAP3 SWAP2 DUP3 SWAP1 SUB ADD SWAP1 LOG3 POP POP POP POP POP POP POP POP POP POP JUMP JUMPDEST PUSH1 0x40 MLOAD DUP1 PUSH1 0x40 ADD PUSH1 0x40 MSTORE DUP1 PUSH1 0x4 DUP2 MSTORE PUSH1 0x20 ADD PUSH4 0x8CA482B PUSH1 0xE3 SHL DUP2 MSTORE POP DUP2 JUMP JUMPDEST CALLER PUSH1 0x0 SWAP1 DUP2 MSTORE PUSH1 0x20 DUP2 SWAP1 MSTORE PUSH1 0x40 SWAP1 KECCAK256 SLOAD PUSH1 0x1 EQ PUSH2 0xE07 JUMPI PUSH1 0x40 DUP1 MLOAD PUSH3 0x461BCD PUSH1 0xE5 SHL DUP2 MSTORE PUSH1 0x20 PUSH1 0x4 DUP3 ADD MSTORE PUSH1 0x13 PUSH1 0x24 DUP3 ADD MSTORE PUSH19 0x119C985E0BDB9BDD0B585D5D1A1BDC9A5E9959 PUSH1 0x6A SHL PUSH1 0x44 DUP3 ADD MSTORE SWAP1 MLOAD SWAP1 DUP2 SWAP1 SUB PUSH1 0x64 ADD SWAP1 REVERT JUMPDEST PUSH1 0x1 PUSH1 0x1 PUSH1 0xA0 SHL SUB AND PUSH1 0x0 SWAP1 DUP2 MSTORE PUSH1 0x20 DUP2 SWAP1 MSTORE PUSH1 0x40 DUP2 KECCAK256 SSTORE JUMP JUMPDEST PUSH1 0x1 PUSH1 0x1 PUSH1 0xA0 SHL SUB DUP3 AND PUSH1 0x0 SWAP1 DUP2 MSTORE PUSH1 0x3 PUSH1 0x20 MSTORE PUSH1 0x40 SWAP1 KECCAK256 SLOAD DUP2 GT ISZERO PUSH2 0xE8A JUMPI PUSH1 0x40 DUP1 MLOAD PUSH3 0x461BCD PUSH1 0xE5 SHL DUP2 MSTORE PUSH1 0x20 PUSH1 0x4 DUP3 ADD MSTORE PUSH1 0x19 PUSH1 0x24 DUP3 ADD MSTORE PUSH25 0x467261782F696E73756666696369656E742D62616C616E6365 PUSH1 0x38 SHL PUSH1 0x44 DUP3 ADD MSTORE SWAP1 MLOAD SWAP1 DUP2 SWAP1 SUB PUSH1 0x64 ADD SWAP1 REVERT JUMPDEST PUSH1 0x1 PUSH1 0x1 PUSH1 0xA0 SHL SUB DUP3 AND CALLER EQ DUP1 ISZERO SWAP1 PUSH2 0xEAE JUMPI POP PUSH1 0x0 NOT PUSH2 0xEAB DUP4 CALLER PUSH2 0x110E JUMP JUMPDEST EQ ISZERO JUMPDEST ISZERO PUSH2 0xF49 JUMPI DUP1 PUSH2 0xEBE DUP4 CALLER PUSH2 0x110E JUMP JUMPDEST LT ISZERO PUSH2 0xF11 JUMPI PUSH1 0x40 DUP1 MLOAD PUSH3 0x461BCD PUSH1 0xE5 SHL DUP2 MSTORE PUSH1 0x20 PUSH1 0x4 DUP3 ADD MSTORE PUSH1 0x1B PUSH1 0x24 DUP3 ADD MSTORE PUSH32 0x467261782F696E73756666696369656E742D616C6C6F77616E63650000000000 PUSH1 0x44 DUP3 ADD MSTORE SWAP1 MLOAD SWAP1 DUP2 SWAP1 SUB PUSH1 0x64 ADD SWAP1 REVERT JUMPDEST PUSH2 0xF24 PUSH2 0xF1E DUP4 CALLER PUSH2 0x110E JUMP JUMPDEST DUP3 PUSH2 0x1139 JUMP JUMPDEST PUSH1 0x1 PUSH1 0x1 PUSH1 0xA0 SHL SUB DUP4 AND PUSH1 0x0 SWAP1 DUP2 MSTORE PUSH1 0x4 PUSH1 0x20 SWAP1 DUP2 MSTORE PUSH1 0x40 DUP1 DUP4 KECCAK256 CALLER DUP5 MSTORE SWAP1 SWAP2 MSTORE SWAP1 KECCAK256 SSTORE JUMPDEST PUSH1 0x1 PUSH1 0x1 PUSH1 0xA0 SHL SUB DUP3 AND PUSH1 0x0 SWAP1 DUP2 MSTORE PUSH1 0x3 PUSH1 0x20 MSTORE PUSH1 0x40 SWAP1 KECCAK256 SLOAD PUSH2 0xF6C SWAP1 DUP3 PUSH2 0x1139 JUMP JUMPDEST PUSH1 0x1 PUSH1 0x1 PUSH1 0xA0 SHL SUB DUP4 AND PUSH1 0x0 SWAP1 DUP2 MSTORE PUSH1 0x3 PUSH1 0x20 MSTORE PUSH1 0x40 SWAP1 KECCAK256 SSTORE PUSH1 0x1 SLOAD PUSH2 0xF92 SWAP1 DUP3 PUSH2 0x1139 JUMP JUMPDEST PUSH1 0x1 SSTORE PUSH1 0x40 DUP1 MLOAD DUP3 DUP2 MSTORE SWAP1 MLOAD PUSH1 0x0 SWAP2 PUSH1 0x1 PUSH1 0x1 PUSH1 0xA0 SHL SUB DUP6 AND SWAP2 PUSH32 0xDDF252AD1BE2C89B69C2B068FC378DAA952BA7F163C4A11628F55A4DF523B3EF SWAP2 DUP2 SWAP1 SUB PUSH1 0x20 ADD SWAP1 LOG3 POP POP JUMP JUMPDEST PUSH1 0x7 PUSH1 0x20 MSTORE PUSH1 0x0 SWAP1 DUP2 MSTORE PUSH1 0x40 SWAP1 KECCAK256 SLOAD DUP2 JUMP JUMPDEST PUSH1 0x0 PUSH2 0x5F6 CALLER DUP5 DUP5 PUSH2 0x605 JUMP JUMPDEST PUSH2 0x1004 CALLER DUP4 DUP4 PUSH2 0x605 JUMP JUMPDEST POP POP POP JUMP JUMPDEST PUSH2 0x1014 DUP4 DUP4 DUP4 PUSH2 0x605 JUMP JUMPDEST POP POP POP POP JUMP JUMPDEST PUSH1 0x0 PUSH1 0x20 DUP2 SWAP1 MSTORE SWAP1 DUP2 MSTORE PUSH1 0x40 SWAP1 KECCAK256 SLOAD DUP2 JUMP JUMPDEST CALLER PUSH1 0x0 SWAP1 DUP2 MSTORE PUSH1 0x20 DUP2 SWAP1 MSTORE PUSH1 0x40 SWAP1 KECCAK256 SLOAD PUSH1 0x1 EQ PUSH2 0x1086 JUMPI PUSH1 0x40 DUP1 MLOAD PUSH3 0x461BCD PUSH1 0xE5 SHL DUP2 MSTORE PUSH1 0x20 PUSH1 0x4 DUP3 ADD MSTORE PUSH1 0x13 PUSH1 0x24 DUP3 ADD MSTORE PUSH19 0x119C985E0BDB9BDD0B585D5D1A1BDC9A5E9959 PUSH1 0x6A SHL PUSH1 0x44 DUP3 ADD MSTORE SWAP1 MLOAD SWAP1 DUP2 SWAP1 SUB PUSH1 0x64 ADD SWAP1 REVERT JUMPDEST PUSH1 0x2 SSTORE JUMP JUMPDEST PUSH1 0x2 SLOAD DUP2 JUMP JUMPDEST PUSH1 0x0 PUSH2 0x5F6 DUP4 DUP4 PUSH2 0x110E JUMP JUMPDEST PUSH2 0x1004 DUP3 CALLER DUP4 PUSH2 0x605 JUMP JUMPDEST CALLER PUSH1 0x0 DUP2 DUP2 MSTORE PUSH1 0x4 PUSH1 0x20 SWAP1 DUP2 MSTORE PUSH1 0x40 DUP1 DUP4 KECCAK256 PUSH1 0x1 PUSH1 0x1 PUSH1 0xA0 SHL SUB DUP8 AND DUP1 DUP6 MSTORE SWAP1 DUP4 MSTORE DUP2 DUP5 KECCAK256 DUP7 SWAP1 SSTORE DUP2 MLOAD DUP7 DUP2 MSTORE SWAP2 MLOAD SWAP4 SWAP5 SWAP1 SWAP4 SWAP1 SWAP3 PUSH32 0x8C5BE1E5EBEC7D5BD14F71427D1E84F3DD0314C0F7B2291E5B200AC8C7C3B925 SWAP3 DUP3 SWAP1 SUB ADD SWAP1 LOG3 POP PUSH1 0x1 SWAP3 SWAP2 POP POP JUMP JUMPDEST PUSH1 0x1 PUSH1 0x1 PUSH1 0xA0 SHL SUB SWAP2 DUP3 AND PUSH1 0x0 SWAP1 DUP2 MSTORE PUSH1 0x4 PUSH1 0x20 SWAP1 DUP2 MSTORE PUSH1 0x40 DUP1 DUP4 KECCAK256 SWAP4 SWAP1 SWAP5 AND DUP3 MSTORE SWAP2 SWAP1 SWAP2 MSTORE KECCAK256 SLOAD SWAP1 JUMP JUMPDEST DUP1 DUP3 SUB DUP3 DUP2 GT ISZERO PUSH2 0x5F9 JUMPI PUSH1 0x0 DUP1 REVERT JUMPDEST DUP1 DUP3 ADD DUP3 DUP2 LT ISZERO PUSH2 0x5F9 JUMPI PUSH1 0x0 DUP1 REVERT INVALID LOG2 PUSH5 0x6970667358 0x22 SLT KECCAK256 PUSH32 0xA7EE403C62A577F017F805FB12E951EA23B35413022BBBB97E57DC193DCBE064 PUSH20 0x6F6C634300070500330000000000000000000000 "
				},
				"gasEstimates": {
					"creation": {
						"codeDepositCost": "899000",
						"executionCost": "infinite",
						"totalCost": "infinite"
					},
					"external": {
						"DOMAIN_SEPARATOR()": "1044",
						"PERMIT_TYPEHASH()": "310",
						"addAuth(address)": "21284",
						"adjustDailyFraxLimit(uint256)": "21127",
						"allowance(address,address)": "1387",
						"approve(address,uint256)": "22372",
						"balanceOf(address)": "1213",
						"burn(address,uint256)": "infinite",
						"dailyFraxLimit()": "1064",
						"decimals()": "341",
						"deny(address)": "6233",
						"fraxMintedToday(address)": "1213",
						"lastMintRestart(address)": "1235",
						"mint(address,uint256)": "infinite",
						"move(address,address,uint256)": "infinite",
						"name()": "infinite",
						"nonces(address)": "1170",
						"permit(address,address,uint256,uint256,bool,uint8,bytes32,bytes32)": "infinite",
						"pull(address,uint256)": "infinite",
						"push(address,uint256)": "infinite",
						"rely(address)": "21261",
						"symbol()": "infinite",
						"totalSupply()": "1066",
						"transfer(address,uint256)": "infinite",
						"transferFrom(address,address,uint256)": "infinite",
						"version()": "infinite",
						"wards(address)": "1216"
					},
					"internal": {
						"_allowance(address,address)": "992",
						"_approve(address,uint256)": "infinite",
						"add(uint256,uint256)": "54",
						"sub(uint256,uint256)": "54"
					}
				},
				"methodIdentifiers": {
					"DOMAIN_SEPARATOR()": "3644e515",
					"PERMIT_TYPEHASH()": "30adf81f",
					"addAuth(address)": "5422224e",
					"adjustDailyFraxLimit(uint256)": "d3fd35ec",
					"allowance(address,address)": "dd62ed3e",
					"approve(address,uint256)": "095ea7b3",
					"balanceOf(address)": "70a08231",
					"burn(address,uint256)": "9dc29fac",
					"dailyFraxLimit()": "d7f1bf12",
					"decimals()": "313ce567",
					"deny(address)": "9c52a7f1",
					"fraxMintedToday(address)": "9e16de34",
					"lastMintRestart(address)": "798247ae",
					"mint(address,uint256)": "40c10f19",
					"move(address,address,uint256)": "bb35783b",
					"name()": "06fdde03",
					"nonces(address)": "7ecebe00",
					"permit(address,address,uint256,uint256,bool,uint8,bytes32,bytes32)": "8fcbaf0c",
					"pull(address,uint256)": "f2d5d56b",
					"push(address,uint256)": "b753a98c",
					"rely(address)": "65fae35e",
					"symbol()": "95d89b41",
					"totalSupply()": "18160ddd",
					"transfer(address,uint256)": "a9059cbb",
					"transferFrom(address,address,uint256)": "23b872dd",
					"version()": "54fd4d50",
					"wards(address)": "bf353dbb"
				}
			},
			"storageLayout": {
				"storage": [
					{
						"astId": 141,
						"contract": "frax/Frax.sol:FRAX",
						"label": "wards",
						"offset": 0,
						"slot": "0",
						"type": "t_mapping(t_address,t_uint256)"
					},
					{
						"astId": 201,
						"contract": "frax/Frax.sol:FRAX",
						"label": "totalSupply",
						"offset": 0,
						"slot": "1",
						"type": "t_uint256"
					},
					{
						"astId": 203,
						"contract": "frax/Frax.sol:FRAX",
						"label": "dailyFraxLimit",
						"offset": 0,
						"slot": "2",
						"type": "t_uint256"
					},
					{
						"astId": 207,
						"contract": "frax/Frax.sol:FRAX",
						"label": "balanceOf",
						"offset": 0,
						"slot": "3",
						"type": "t_mapping(t_address,t_uint256)"
					},
					{
						"astId": 213,
						"contract": "frax/Frax.sol:FRAX",
						"label": "allowances",
						"offset": 0,
						"slot": "4",
						"type": "t_mapping(t_address,t_mapping(t_address,t_uint256))"
					},
					{
						"astId": 217,
						"contract": "frax/Frax.sol:FRAX",
						"label": "nonces",
						"offset": 0,
						"slot": "5",
						"type": "t_mapping(t_address,t_uint256)"
					},
					{
						"astId": 221,
						"contract": "frax/Frax.sol:FRAX",
						"label": "lastMintRestart",
						"offset": 0,
						"slot": "6",
						"type": "t_mapping(t_address,t_uint256)"
					},
					{
						"astId": 225,
						"contract": "frax/Frax.sol:FRAX",
						"label": "fraxMintedToday",
						"offset": 0,
						"slot": "7",
						"type": "t_mapping(t_address,t_uint256)"
					},
					{
						"astId": 269,
						"contract": "frax/Frax.sol:FRAX",
						"label": "DOMAIN_SEPARATOR",
						"offset": 0,
						"slot": "8",
						"type": "t_bytes32"
					}
				],
				"types": {
					"t_address": {
						"encoding": "inplace",
						"label": "address",
						"numberOfBytes": "20"
					},
					"t_bytes32": {
						"encoding": "inplace",
						"label": "bytes32",
						"numberOfBytes": "32"
					},
					"t_mapping(t_address,t_mapping(t_address,t_uint256))": {
						"encoding": "mapping",
						"key": "t_address",
						"label": "mapping(address => mapping(address => uint256))",
						"numberOfBytes": "32",
						"value": "t_mapping(t_address,t_uint256)"
					},
					"t_mapping(t_address,t_uint256)": {
						"encoding": "mapping",
						"key": "t_address",
						"label": "mapping(address => uint256)",
						"numberOfBytes": "32",
						"value": "t_uint256"
					},
					"t_uint256": {
						"encoding": "inplace",
						"label": "uint256",
						"numberOfBytes": "32"
					}
				}
			},
			"userdoc": {
				"kind": "user",
				"methods": {},
				"version": 1
			}
		}
	}
}