{
	"daibond/BondDepository.sol": {
		"Ownable": {
			"abi": [
				{
					"inputs": [],
					"stateMutability": "nonpayable",
					"type": "constructor"
				},
				{
					"anonymous": false,
					"inputs": [
						{
							"indexed": true,
							"internalType": "address",
							"name": "previousOwner",
							"type": "address"
						},
						{
							"indexed": true,
							"internalType": "address",
							"name": "newOwner",
							"type": "address"
						}
					],
					"name": "OwnershipPulled",
					"type": "event"
				},
				{
					"anonymous": false,
					"inputs": [
						{
							"indexed": true,
							"internalType": "address",
							"name": "previousOwner",
							"type": "address"
						},
						{
							"indexed": true,
							"internalType": "address",
							"name": "newOwner",
							"type": "address"
						}
					],
					"name": "OwnershipPushed",
					"type": "event"
				},
				{
					"inputs": [],
					"name": "policy",
					"outputs": [
						{
							"internalType": "address",
							"name": "",
							"type": "address"
						}
					],
					"stateMutability": "view",
					"type": "function"
				},
				{
					"inputs": [],
					"name": "pullManagement",
					"outputs": [],
					"stateMutability": "nonpayable",
					"type": "function"
				},
				{
					"inputs": [
						{
							"internalType": "address",
							"name": "newOwner_",
							"type": "address"
						}
					],
					"name": "pushManagement",
					"outputs": [],
					"stateMutability": "nonpayable",
					"type": "function"
				},
				{
					"inputs": [],
					"name": "renounceManagement",
					"outputs": [],
					"stateMutability": "nonpayable",
					"type": "function"
				}
			],
			"devdoc": {
				"kind": "dev",
				"methods": {},
				"version": 1
			},
			"evm": {
				"assembly": "    /* \"daibond/BondDepository.sol\":339:1667  contract Ownable is IOwnable {... */\n  mstore(0x40, 0x80)\n    /* \"daibond/BondDepository.sol\":649:749  constructor() {... */\n  callvalue\n  dup1\n  iszero\n  tag_1\n  jumpi\n  0x00\n  dup1\n  revert\ntag_1:\n  pop\n    /* \"daibond/BondDepository.sol\":673:679  _owner */\n  0x00\n    /* \"daibond/BondDepository.sol\":673:692  _owner = msg.sender */\n  dup1\n  sload\n  not(sub(shl(0xa0, 0x01), 0x01))\n  and\n    /* \"daibond/BondDepository.sol\":682:692  msg.sender */\n  caller\n    /* \"daibond/BondDepository.sol\":673:692  _owner = msg.sender */\n  or\n  dup1\n  dup3\n  sstore\n    /* \"daibond/BondDepository.sol\":707:742  OwnershipPushed(address(0), _owner) */\n  mload(0x40)\n  sub(shl(0xa0, 0x01), 0x01)\n    /* \"daibond/BondDepository.sol\":735:741  _owner */\n  swap2\n  swap1\n  swap2\n  and\n  swap2\n    /* \"daibond/BondDepository.sol\":673:679  _owner */\n  swap1\n    /* \"daibond/BondDepository.sol\":707:742  OwnershipPushed(address(0), _owner) */\n  0xea8258f2d9ddb679928cf34b78cf645b7feda9acc828e4dd82d014eaae270eba\n  swap1\n    /* \"daibond/BondDepository.sol\":673:679  _owner */\n  dup3\n  swap1\n    /* \"daibond/BondDepository.sol\":707:742  OwnershipPushed(address(0), _owner) */\n  log3\n    /* \"daibond/BondDepository.sol\":339:1667  contract Ownable is IOwnable {... */\n  dataSize(sub_0)\n  dup1\n  dataOffset(sub_0)\n  0x00\n  codecopy\n  0x00\n  return\nstop\n\nsub_0: assembly {\n        /* \"daibond/BondDepository.sol\":339:1667  contract Ownable is IOwnable {... */\n      mstore(0x40, 0x80)\n      callvalue\n      dup1\n      iszero\n      tag_1\n      jumpi\n      0x00\n      dup1\n      revert\n    tag_1:\n      pop\n      jumpi(tag_2, lt(calldatasize, 0x04))\n      shr(0xe0, calldataload(0x00))\n      dup1\n      0x0505c8c9\n      eq\n      tag_3\n      jumpi\n      dup1\n      0x089208d8\n      eq\n      tag_4\n      jumpi\n      dup1\n      0x46f68ee9\n      eq\n      tag_5\n      jumpi\n      dup1\n      0x5a96ac0a\n      eq\n      tag_6\n      jumpi\n    tag_2:\n      0x00\n      dup1\n      revert\n        /* \"daibond/BondDepository.sol\":755:842  function policy() public view override returns (address) {... */\n    tag_3:\n      tag_7\n      tag_8\n      jump\t// in\n    tag_7:\n      0x40\n      dup1\n      mload\n      sub(shl(0xa0, 0x01), 0x01)\n      swap1\n      swap3\n      and\n      dup3\n      mstore\n      mload\n      swap1\n      dup2\n      swap1\n      sub\n      0x20\n      add\n      swap1\n      return\n        /* \"daibond/BondDepository.sol\":969:1120  function renounceManagement() public virtual override onlyPolicy {... */\n    tag_4:\n      tag_9\n      tag_10\n      jump\t// in\n    tag_9:\n      stop\n        /* \"daibond/BondDepository.sol\":1126:1445  function pushManagement(address newOwner_)... */\n    tag_5:\n      tag_9\n      0x04\n      dup1\n      calldatasize\n      sub\n      0x20\n      dup2\n      lt\n      iszero\n      tag_12\n      jumpi\n      0x00\n      dup1\n      revert\n    tag_12:\n      pop\n      calldataload\n      sub(shl(0xa0, 0x01), 0x01)\n      and\n      tag_13\n      jump\t// in\n        /* \"daibond/BondDepository.sol\":1451:1665  function pullManagement() public virtual override {... */\n    tag_6:\n      tag_9\n      tag_15\n      jump\t// in\n        /* \"daibond/BondDepository.sol\":755:842  function policy() public view override returns (address) {... */\n    tag_8:\n        /* \"daibond/BondDepository.sol\":803:810  address */\n      0x00\n        /* \"daibond/BondDepository.sol\":829:835  _owner */\n      sload\n      sub(shl(0xa0, 0x01), 0x01)\n      and\n        /* \"daibond/BondDepository.sol\":755:842  function policy() public view override returns (address) {... */\n      swap1\n      jump\t// out\n        /* \"daibond/BondDepository.sol\":969:1120  function renounceManagement() public virtual override onlyPolicy {... */\n    tag_10:\n        /* \"daibond/BondDepository.sol\":888:894  _owner */\n      and(sub(shl(0xa0, 0x01), 0x01), sload(0x00))\n        /* \"daibond/BondDepository.sol\":898:908  msg.sender */\n      caller\n        /* \"daibond/BondDepository.sol\":888:908  _owner == msg.sender */\n      eq\n        /* \"daibond/BondDepository.sol\":880:945  require(_owner == msg.sender, \"Ownable: caller is not the owner\") */\n      tag_18\n      jumpi\n      0x40\n      dup1\n      mload\n      shl(0xe5, 0x461bcd)\n      dup2\n      mstore\n      0x20\n      0x04\n      dup3\n      add\n      dup2\n      swap1\n      mstore\n      0x24\n      dup3\n      add\n      mstore\n      0x4f776e61626c653a2063616c6c6572206973206e6f7420746865206f776e6572\n      0x44\n      dup3\n      add\n      mstore\n      swap1\n      mload\n      swap1\n      dup2\n      swap1\n      sub\n      0x64\n      add\n      swap1\n      revert\n    tag_18:\n        /* \"daibond/BondDepository.sol\":1081:1082  0 */\n      0x00\n        /* \"daibond/BondDepository.sol\":1065:1071  _owner */\n      dup1\n      sload\n        /* \"daibond/BondDepository.sol\":1049:1084  OwnershipPushed(_owner, address(0)) */\n      mload(0x40)\n      sub(shl(0xa0, 0x01), 0x01)\n        /* \"daibond/BondDepository.sol\":1065:1071  _owner */\n      swap1\n      swap2\n      and\n      swap1\n        /* \"daibond/BondDepository.sol\":1049:1084  OwnershipPushed(_owner, address(0)) */\n      0xea8258f2d9ddb679928cf34b78cf645b7feda9acc828e4dd82d014eaae270eba\n      swap1\n        /* \"daibond/BondDepository.sol\":1081:1082  0 */\n      dup4\n      swap1\n        /* \"daibond/BondDepository.sol\":1049:1084  OwnershipPushed(_owner, address(0)) */\n      log3\n        /* \"daibond/BondDepository.sol\":1111:1112  0 */\n      0x00\n        /* \"daibond/BondDepository.sol\":1094:1113  _owner = address(0) */\n      dup1\n      sload\n      not(0xffffffffffffffffffffffffffffffffffffffff)\n      and\n      swap1\n      sstore\n        /* \"daibond/BondDepository.sol\":969:1120  function renounceManagement() public virtual override onlyPolicy {... */\n      jump\t// out\n        /* \"daibond/BondDepository.sol\":1126:1445  function pushManagement(address newOwner_)... */\n    tag_13:\n        /* \"daibond/BondDepository.sol\":888:894  _owner */\n      and(sub(shl(0xa0, 0x01), 0x01), sload(0x00))\n        /* \"daibond/BondDepository.sol\":898:908  msg.sender */\n      caller\n        /* \"daibond/BondDepository.sol\":888:908  _owner == msg.sender */\n      eq\n        /* \"daibond/BondDepository.sol\":880:945  require(_owner == msg.sender, \"Ownable: caller is not the owner\") */\n      tag_21\n      jumpi\n      0x40\n      dup1\n      mload\n      shl(0xe5, 0x461bcd)\n      dup2\n      mstore\n      0x20\n      0x04\n      dup3\n      add\n      dup2\n      swap1\n      mstore\n      0x24\n      dup3\n      add\n      mstore\n      0x4f776e61626c653a2063616c6c6572206973206e6f7420746865206f776e6572\n      0x44\n      dup3\n      add\n      mstore\n      swap1\n      mload\n      swap1\n      dup2\n      swap1\n      sub\n      0x64\n      add\n      swap1\n      revert\n    tag_21:\n      sub(shl(0xa0, 0x01), 0x01)\n        /* \"daibond/BondDepository.sol\":1271:1294  newOwner_ != address(0) */\n      dup2\n      and\n        /* \"daibond/BondDepository.sol\":1250:1358  require(... */\n      tag_23\n      jumpi\n      mload(0x40)\n      shl(0xe5, 0x461bcd)\n      dup2\n      mstore\n      0x04\n      add\n      dup1\n      dup1\n      0x20\n      add\n      dup3\n      dup2\n      sub\n      dup3\n      mstore\n      0x26\n      dup2\n      mstore\n      0x20\n      add\n      dup1\n      data_245f15ff17f551913a7a18385165551503906a406f905ac1c2437281a7cd0cfe\n      0x26\n      swap2\n      codecopy\n      0x40\n      add\n      swap2\n      pop\n      pop\n      mload(0x40)\n      dup1\n      swap2\n      sub\n      swap1\n      revert\n    tag_23:\n        /* \"daibond/BondDepository.sol\":1389:1395  _owner */\n      0x00\n      dup1\n      sload\n        /* \"daibond/BondDepository.sol\":1373:1407  OwnershipPushed(_owner, newOwner_) */\n      mload(0x40)\n      sub(shl(0xa0, 0x01), 0x01)\n      dup1\n      dup6\n      and\n      swap4\n        /* \"daibond/BondDepository.sol\":1389:1395  _owner */\n      swap3\n      and\n      swap2\n        /* \"daibond/BondDepository.sol\":1373:1407  OwnershipPushed(_owner, newOwner_) */\n      0xea8258f2d9ddb679928cf34b78cf645b7feda9acc828e4dd82d014eaae270eba\n      swap2\n      log3\n        /* \"daibond/BondDepository.sol\":1417:1426  _newOwner */\n      0x01\n        /* \"daibond/BondDepository.sol\":1417:1438  _newOwner = newOwner_ */\n      dup1\n      sload\n      not(0xffffffffffffffffffffffffffffffffffffffff)\n      and\n      sub(shl(0xa0, 0x01), 0x01)\n      swap3\n      swap1\n      swap3\n      and\n      swap2\n      swap1\n      swap2\n      or\n      swap1\n      sstore\n        /* \"daibond/BondDepository.sol\":1126:1445  function pushManagement(address newOwner_)... */\n      jump\t// out\n        /* \"daibond/BondDepository.sol\":1451:1665  function pullManagement() public virtual override {... */\n    tag_15:\n        /* \"daibond/BondDepository.sol\":1533:1542  _newOwner */\n      and(sub(shl(0xa0, 0x01), 0x01), sload(0x01))\n        /* \"daibond/BondDepository.sol\":1519:1529  msg.sender */\n      caller\n        /* \"daibond/BondDepository.sol\":1519:1542  msg.sender == _newOwner */\n      eq\n        /* \"daibond/BondDepository.sol\":1511:1581  require(msg.sender == _newOwner, \"Ownable: must be new owner to pull\") */\n      tag_25\n      jumpi\n      mload(0x40)\n      shl(0xe5, 0x461bcd)\n      dup2\n      mstore\n      0x04\n      add\n      dup1\n      dup1\n      0x20\n      add\n      dup3\n      dup2\n      sub\n      dup3\n      mstore\n      0x22\n      dup2\n      mstore\n      0x20\n      add\n      dup1\n      data_4de71fbd3469e1b7fc89a70805ae86972c680281e629f271ab7471fd6321445c\n      0x22\n      swap2\n      codecopy\n      0x40\n      add\n      swap2\n      pop\n      pop\n      mload(0x40)\n      dup1\n      swap2\n      sub\n      swap1\n      revert\n    tag_25:\n        /* \"daibond/BondDepository.sol\":1620:1629  _newOwner */\n      sload(0x01)\n      0x00\n        /* \"daibond/BondDepository.sol\":1612:1618  _owner */\n      dup1\n      sload\n        /* \"daibond/BondDepository.sol\":1596:1630  OwnershipPulled(_owner, _newOwner) */\n      mload(0x40)\n      sub(shl(0xa0, 0x01), 0x01)\n        /* \"daibond/BondDepository.sol\":1620:1629  _newOwner */\n      swap4\n      dup5\n      and\n      swap4\n        /* \"daibond/BondDepository.sol\":1612:1618  _owner */\n      swap1\n      swap2\n      and\n      swap2\n        /* \"daibond/BondDepository.sol\":1596:1630  OwnershipPulled(_owner, _newOwner) */\n      0xaa151555690c956fc3ea32f106bb9f119b5237a061eaa8557cff3e51e3792c8d\n      swap2\n      log3\n        /* \"daibond/BondDepository.sol\":1649:1658  _newOwner */\n      sload(0x01)\n      0x00\n        /* \"daibond/BondDepository.sol\":1640:1658  _owner = _newOwner */\n      dup1\n      sload\n      not(0xffffffffffffffffffffffffffffffffffffffff)\n      and\n      sub(shl(0xa0, 0x01), 0x01)\n        /* \"daibond/BondDepository.sol\":1649:1658  _newOwner */\n      swap1\n      swap3\n      and\n        /* \"daibond/BondDepository.sol\":1640:1658  _owner = _newOwner */\n      swap2\n      swap1\n      swap2\n      or\n      swap1\n      sstore\n        /* \"daibond/BondDepository.sol\":1451:1665  function pullManagement() public virtual override {... */\n      jump\t// out\n    stop\n    data_245f15ff17f551913a7a18385165551503906a406f905ac1c2437281a7cd0cfe 4f776e61626c653a206e6577206f776e657220697320746865207a65726f2061646472657373\n    data_4de71fbd3469e1b7fc89a70805ae86972c680281e629f271ab7471fd6321445c 4f776e61626c653a206d757374206265206e6577206f776e657220746f2070756c6c\n\n    auxdata: 0xa2646970667358221220383ec522607ba19234b96861403503db094e2a219c0934c2d6e7395d6e9d5ec064736f6c63430007050033\n}\n",
				"bytecode": {
					"linkReferences": {},
					"object": "608060405234801561001057600080fd5b50600080546001600160a01b03191633178082556040516001600160a01b039190911691907fea8258f2d9ddb679928cf34b78cf645b7feda9acc828e4dd82d014eaae270eba908290a36103b3806100696000396000f3fe608060405234801561001057600080fd5b506004361061004c5760003560e01c80630505c8c914610051578063089208d81461007557806346f68ee91461007f5780635a96ac0a146100a5575b600080fd5b6100596100ad565b604080516001600160a01b039092168252519081900360200190f35b61007d6100bc565b005b61007d6004803603602081101561009557600080fd5b50356001600160a01b0316610172565b61007d61027e565b6000546001600160a01b031690565b6000546001600160a01b0316331461011b576040805162461bcd60e51b815260206004820181905260248201527f4f776e61626c653a2063616c6c6572206973206e6f7420746865206f776e6572604482015290519081900360640190fd5b600080546040516001600160a01b03909116907fea8258f2d9ddb679928cf34b78cf645b7feda9acc828e4dd82d014eaae270eba908390a36000805473ffffffffffffffffffffffffffffffffffffffff19169055565b6000546001600160a01b031633146101d1576040805162461bcd60e51b815260206004820181905260248201527f4f776e61626c653a2063616c6c6572206973206e6f7420746865206f776e6572604482015290519081900360640190fd5b6001600160a01b0381166102165760405162461bcd60e51b81526004018080602001828103825260268152602001806103366026913960400191505060405180910390fd5b600080546040516001600160a01b03808516939216917fea8258f2d9ddb679928cf34b78cf645b7feda9acc828e4dd82d014eaae270eba91a36001805473ffffffffffffffffffffffffffffffffffffffff19166001600160a01b0392909216919091179055565b6001546001600160a01b031633146102c75760405162461bcd60e51b815260040180806020018281038252602281526020018061035c6022913960400191505060405180910390fd5b600154600080546040516001600160a01b0393841693909116917faa151555690c956fc3ea32f106bb9f119b5237a061eaa8557cff3e51e3792c8d91a36001546000805473ffffffffffffffffffffffffffffffffffffffff19166001600160a01b0390921691909117905556fe4f776e61626c653a206e6577206f776e657220697320746865207a65726f20616464726573734f776e61626c653a206d757374206265206e6577206f776e657220746f2070756c6ca2646970667358221220383ec522607ba19234b96861403503db094e2a219c0934c2d6e7395d6e9d5ec064736f6c63430007050033",
					"opcodes": "PUSH1 0x80 PUSH1 0x40 MSTORE CALLVALUE DUP1 ISZERO PUSH2 0x10 JUMPI PUSH1 0x0 DUP1 REVERT JUMPDEST POP PUSH1 0x0 DUP1 SLOAD PUSH1 0x1 PUSH1 0x1 PUSH1 0xA0 SHL SUB NOT AND CALLER OR DUP1 DUP3 SSTORE PUSH1 0x40 MLOAD PUSH1 0x1 PUSH1 0x1 PUSH1 0xA0 SHL SUB SWAP2 SWAP1 SWAP2 AND SWAP2 SWAP1 PUSH32 0xEA8258F2D9DDB679928CF34B78CF645B7FEDA9ACC828E4DD82D014EAAE270EBA SWAP1 DUP3 SWAP1 LOG3 PUSH2 0x3B3 DUP1 PUSH2 0x69 PUSH1 0x0 CODECOPY PUSH1 0x0 RETURN INVALID PUSH1 0x80 PUSH1 0x40 MSTORE CALLVALUE DUP1 ISZERO PUSH2 0x10 JUMPI PUSH1 0x0 DUP1 REVERT JUMPDEST POP PUSH1 0x4 CALLDATASIZE LT PUSH2 0x4C JUMPI PUSH1 0x0 CALLDATALOAD PUSH1 0xE0 SHR DUP1 PUSH4 0x505C8C9 EQ PUSH2 0x51 JUMPI DUP1 PUSH4 0x89208D8 EQ PUSH2 0x75 JUMPI DUP1 PUSH4 0x46F68EE9 EQ PUSH2 0x7F JUMPI DUP1 PUSH4 0x5A96AC0A EQ PUSH2 0xA5 JUMPI JUMPDEST PUSH1 0x0 DUP1 REVERT JUMPDEST PUSH2 0x59 PUSH2 0xAD JUMP JUMPDEST PUSH1 0x40 DUP1 MLOAD PUSH1 0x1 PUSH1 0x1 PUSH1 0xA0 SHL SUB SWAP1 SWAP3 AND DUP3 MSTORE MLOAD SWAP1 DUP2 SWAP1 SUB PUSH1 0x20 ADD SWAP1 RETURN JUMPDEST PUSH2 0x7D PUSH2 0xBC JUMP JUMPDEST STOP JUMPDEST PUSH2 0x7D PUSH1 0x4 DUP1 CALLDATASIZE SUB PUSH1 0x20 DUP2 LT ISZERO PUSH2 0x95 JUMPI PUSH1 0x0 DUP1 REVERT JUMPDEST POP CALLDATALOAD PUSH1 0x1 PUSH1 0x1 PUSH1 0xA0 SHL SUB AND PUSH2 0x172 JUMP JUMPDEST PUSH2 0x7D PUSH2 0x27E JUMP JUMPDEST PUSH1 0x0 SLOAD PUSH1 0x1 PUSH1 0x1 PUSH1 0xA0 SHL SUB AND SWAP1 JUMP JUMPDEST PUSH1 0x0 SLOAD PUSH1 0x1 PUSH1 0x1 PUSH1 0xA0 SHL SUB AND CALLER EQ PUSH2 0x11B JUMPI PUSH1 0x40 DUP1 MLOAD PUSH3 0x461BCD PUSH1 0xE5 SHL DUP2 MSTORE PUSH1 0x20 PUSH1 0x4 DUP3 ADD DUP2 SWAP1 MSTORE PUSH1 0x24 DUP3 ADD MSTORE PUSH32 0x4F776E61626C653A2063616C6C6572206973206E6F7420746865206F776E6572 PUSH1 0x44 DUP3 ADD MSTORE SWAP1 MLOAD SWAP1 DUP2 SWAP1 SUB PUSH1 0x64 ADD SWAP1 REVERT JUMPDEST PUSH1 0x0 DUP1 SLOAD PUSH1 0x40 MLOAD PUSH1 0x1 PUSH1 0x1 PUSH1 0xA0 SHL SUB SWAP1 SWAP2 AND SWAP1 PUSH32 0xEA8258F2D9DDB679928CF34B78CF645B7FEDA9ACC828E4DD82D014EAAE270EBA SWAP1 DUP4 SWAP1 LOG3 PUSH1 0x0 DUP1 SLOAD PUSH20 0xFFFFFFFFFFFFFFFFFFFFFFFFFFFFFFFFFFFFFFFF NOT AND SWAP1 SSTORE JUMP JUMPDEST PUSH1 0x0 SLOAD PUSH1 0x1 PUSH1 0x1 PUSH1 0xA0 SHL SUB AND CALLER EQ PUSH2 0x1D1 JUMPI PUSH1 0x40 DUP1 MLOAD PUSH3 0x461BCD PUSH1 0xE5 SHL DUP2 MSTORE PUSH1 0x20 PUSH1 0x4 DUP3 ADD DUP2 SWAP1 MSTORE PUSH1 0x24 DUP3 ADD MSTORE PUSH32 0x4F776E61626C653A2063616C6C6572206973206E6F7420746865206F776E6572 PUSH1 0x44 DUP3 ADD MSTORE SWAP1 MLOAD SWAP1 DUP2 SWAP1 SUB PUSH1 0x64 ADD SWAP1 REVERT JUMPDEST PUSH1 0x1 PUSH1 0x1 PUSH1 0xA0 SHL SUB DUP2 AND PUSH2 0x216 JUMPI PUSH1 0x40 MLOAD PUSH3 0x461BCD PUSH1 0xE5 SHL DUP2 MSTORE PUSH1 0x4 ADD DUP1 DUP1 PUSH1 0x20 ADD DUP3 DUP2 SUB DUP3 MSTORE PUSH1 0x26 DUP2 MSTORE PUSH1 0x20 ADD DUP1 PUSH2 0x336 PUSH1 0x26 SWAP2 CODECOPY PUSH1 0x40 ADD SWAP2 POP POP PUSH1 0x40 MLOAD DUP1 SWAP2 SUB SWAP1 REVERT JUMPDEST PUSH1 0x0 DUP1 SLOAD PUSH1 0x40 MLOAD PUSH1 0x1 PUSH1 0x1 PUSH1 0xA0 SHL SUB DUP1 DUP6 AND SWAP4 SWAP3 AND SWAP2 PUSH32 0xEA8258F2D9DDB679928CF34B78CF645B7FEDA9ACC828E4DD82D014EAAE270EBA SWAP2 LOG3 PUSH1 0x1 DUP1 SLOAD PUSH20 0xFFFFFFFFFFFFFFFFFFFFFFFFFFFFFFFFFFFFFFFF NOT AND PUSH1 0x1 PUSH1 0x1 PUSH1 0xA0 SHL SUB SWAP3 SWAP1 SWAP3 AND SWAP2 SWAP1 SWAP2 OR SWAP1 SSTORE JUMP JUMPDEST PUSH1 0x1 SLOAD PUSH1 0x1 PUSH1 0x1 PUSH1 0xA0 SHL SUB AND CALLER EQ PUSH2 0x2C7 JUMPI PUSH1 0x40 MLOAD PUSH3 0x461BCD PUSH1 0xE5 SHL DUP2 MSTORE PUSH1 0x4 ADD DUP1 DUP1 PUSH1 0x20 ADD DUP3 DUP2 SUB DUP3 MSTORE PUSH1 0x22 DUP2 MSTORE PUSH1 0x20 ADD DUP1 PUSH2 0x35C PUSH1 0x22 SWAP2 CODECOPY PUSH1 0x40 ADD SWAP2 POP POP PUSH1 0x40 MLOAD DUP1 SWAP2 SUB SWAP1 REVERT JUMPDEST PUSH1 0x1 SLOAD PUSH1 0x0 DUP1 SLOAD PUSH1 0x40 MLOAD PUSH1 0x1 PUSH1 0x1 PUSH1 0xA0 SHL SUB SWAP4 DUP5 AND SWAP4 SWAP1 SWAP2 AND SWAP2 PUSH32 0xAA151555690C956FC3EA32F106BB9F119B5237A061EAA8557CFF3E51E3792C8D SWAP2 LOG3 PUSH1 0x1 SLOAD PUSH1 0x0 DUP1 SLOAD PUSH20 0xFFFFFFFFFFFFFFFFFFFFFFFFFFFFFFFFFFFFFFFF NOT AND PUSH1 0x1 PUSH1 0x1 PUSH1 0xA0 SHL SUB SWAP1 SWAP3 AND SWAP2 SWAP1 SWAP2 OR SWAP1 SSTORE JUMP INVALID 0x4F PUSH24 0x6E61626C653A206E6577206F776E65722069732074686520 PUSH27 0x65726F20616464726573734F776E61626C653A206D757374206265 KECCAK256 PUSH15 0x6577206F776E657220746F2070756C PUSH13 0xA2646970667358221220383EC5 0x22 PUSH1 0x7B LOG1 SWAP3 CALLVALUE 0xB9 PUSH9 0x61403503DB094E2A21 SWAP13 MULMOD CALLVALUE 0xC2 0xD6 0xE7 CODECOPY 0x5D PUSH15 0x9D5EC064736F6C6343000705003300 "
				},
				"gasEstimates": {
					"creation": {
						"codeDepositCost": "189400",
						"executionCost": "22621",
						"totalCost": "212021"
					},
					"external": {
						"policy()": "1015",
						"pullManagement()": "infinite",
						"pushManagement(address)": "infinite",
						"renounceManagement()": "24153"
					}
				},
				"methodIdentifiers": {
					"policy()": "0505c8c9",
					"pullManagement()": "5a96ac0a",
					"pushManagement(address)": "46f68ee9",
					"renounceManagement()": "089208d8"
				}
			},
			"storageLayout": {
				"storage": [
					{
						"astId": 24,
						"contract": "daibond/BondDepository.sol:Ownable",
						"label": "_owner",
						"offset": 0,
						"slot": "0",
						"type": "t_address"
					},
					{
						"astId": 26,
						"contract": "daibond/BondDepository.sol:Ownable",
						"label": "_newOwner",
						"offset": 0,
						"slot": "1",
						"type": "t_address"
					}
				],
				"types": {
					"t_address": {
						"encoding": "inplace",
						"label": "address",
						"numberOfBytes": "20"
					}
				}
			},
			"userdoc": {
				"kind": "user",
				"methods": {},
				"version": 1
			}
		}
	}
}