{
	"daibond/BondDepository.sol": {
		"ExodBondDepository": {
			"abi": [
				{
					"inputs": [
						{
							"internalType": "address",
							"name": "_bash",
							"type": "address"
						},
						{
							"internalType": "address",
							"name": "_principle",
							"type": "address"
						},
						{
							"internalType": "address",
							"name": "_treasury",
							"type": "address"
						},
						{
							"internalType": "address",
							"name": "_DAO",
							"type": "address"
						},
						{
							"internalType": "address",
							"name": "_bondCalculator",
							"type": "address"
						}
					],
					"stateMutability": "nonpayable",
					"type": "constructor"
				},
				{
					"anonymous": false,
					"inputs": [
						{
							"indexed": false,
							"internalType": "uint256",
							"name": "deposit",
							"type": "uint256"
						},
						{
							"indexed": true,
							"internalType": "uint256",
							"name": "payout",
							"type": "uint256"
						},
						{
							"indexed": true,
							"internalType": "uint256",
							"name": "expires",
							"type": "uint256"
						},
						{
							"indexed": true,
							"internalType": "uint256",
							"name": "priceInUSD",
							"type": "uint256"
						}
					],
					"name": "BondCreated",
					"type": "event"
				},
				{
					"anonymous": false,
					"inputs": [
						{
							"indexed": true,
							"internalType": "uint256",
							"name": "priceInUSD",
							"type": "uint256"
						},
						{
							"indexed": true,
							"internalType": "uint256",
							"name": "internalPrice",
							"type": "uint256"
						},
						{
							"indexed": true,
							"internalType": "uint256",
							"name": "debtRatio",
							"type": "uint256"
						}
					],
					"name": "BondPriceChanged",
					"type": "event"
				},
				{
					"anonymous": false,
					"inputs": [
						{
							"indexed": true,
							"internalType": "address",
							"name": "recipient",
							"type": "address"
						},
						{
							"indexed": false,
							"internalType": "uint256",
							"name": "payout",
							"type": "uint256"
						},
						{
							"indexed": false,
							"internalType": "uint256",
							"name": "remaining",
							"type": "uint256"
						}
					],
					"name": "BondRedeemed",
					"type": "event"
				},
				{
					"anonymous": false,
					"inputs": [
						{
							"indexed": false,
							"internalType": "uint256",
							"name": "initialBCV",
							"type": "uint256"
						},
						{
							"indexed": false,
							"internalType": "uint256",
							"name": "newBCV",
							"type": "uint256"
						},
						{
							"indexed": false,
							"internalType": "uint256",
							"name": "adjustment",
							"type": "uint256"
						},
						{
							"indexed": false,
							"internalType": "bool",
							"name": "addition",
							"type": "bool"
						}
					],
					"name": "ControlVariableAdjustment",
					"type": "event"
				},
				{
					"anonymous": false,
					"inputs": [
						{
							"indexed": true,
							"internalType": "address",
							"name": "previousOwner",
							"type": "address"
						},
						{
							"indexed": true,
							"internalType": "address",
							"name": "newOwner",
							"type": "address"
						}
					],
					"name": "OwnershipPulled",
					"type": "event"
				},
				{
					"anonymous": false,
					"inputs": [
						{
							"indexed": true,
							"internalType": "address",
							"name": "previousOwner",
							"type": "address"
						},
						{
							"indexed": true,
							"internalType": "address",
							"name": "newOwner",
							"type": "address"
						}
					],
					"name": "OwnershipPushed",
					"type": "event"
				},
				{
					"inputs": [],
					"name": "Bash",
					"outputs": [
						{
							"internalType": "address",
							"name": "",
							"type": "address"
						}
					],
					"stateMutability": "view",
					"type": "function"
				},
				{
					"inputs": [],
					"name": "DAO",
					"outputs": [
						{
							"internalType": "address",
							"name": "",
							"type": "address"
						}
					],
					"stateMutability": "view",
					"type": "function"
				},
				{
					"inputs": [],
					"name": "adjustment",
					"outputs": [
						{
							"internalType": "bool",
							"name": "add",
							"type": "bool"
						},
						{
							"internalType": "uint256",
							"name": "rate",
							"type": "uint256"
						},
						{
							"internalType": "uint256",
							"name": "target",
							"type": "uint256"
						},
						{
							"internalType": "uint32",
							"name": "buffer",
							"type": "uint32"
						},
						{
							"internalType": "uint32",
							"name": "lastTime",
							"type": "uint32"
						}
					],
					"stateMutability": "view",
					"type": "function"
				},
				{
					"inputs": [],
					"name": "bondCalculator",
					"outputs": [
						{
							"internalType": "address",
							"name": "",
							"type": "address"
						}
					],
					"stateMutability": "view",
					"type": "function"
				},
				{
					"inputs": [
						{
							"internalType": "address",
							"name": "",
							"type": "address"
						}
					],
					"name": "bondInfo",
					"outputs": [
						{
							"internalType": "uint256",
							"name": "payout",
							"type": "uint256"
						},
						{
							"internalType": "uint256",
							"name": "pricePaid",
							"type": "uint256"
						},
						{
							"internalType": "uint32",
							"name": "lastTime",
							"type": "uint32"
						},
						{
							"internalType": "uint32",
							"name": "vesting",
							"type": "uint32"
						}
					],
					"stateMutability": "view",
					"type": "function"
				},
				{
					"inputs": [],
					"name": "bondPrice",
					"outputs": [
						{
							"internalType": "uint256",
							"name": "price_",
							"type": "uint256"
						}
					],
					"stateMutability": "view",
					"type": "function"
				},
				{
					"inputs": [],
					"name": "bondPriceInUSD",
					"outputs": [
						{
							"internalType": "uint256",
							"name": "price_",
							"type": "uint256"
						}
					],
					"stateMutability": "view",
					"type": "function"
				},
				{
					"inputs": [],
					"name": "currentDebt",
					"outputs": [
						{
							"internalType": "uint256",
							"name": "",
							"type": "uint256"
						}
					],
					"stateMutability": "view",
					"type": "function"
				},
				{
					"inputs": [],
					"name": "debtDecay",
					"outputs": [
						{
							"internalType": "uint256",
							"name": "decay_",
							"type": "uint256"
						}
					],
					"stateMutability": "view",
					"type": "function"
				},
				{
					"inputs": [],
					"name": "debtRatio",
					"outputs": [
						{
							"internalType": "uint256",
							"name": "debtRatio_",
							"type": "uint256"
						}
					],
					"stateMutability": "view",
					"type": "function"
				},
				{
					"inputs": [
						{
							"internalType": "uint256",
							"name": "_amount",
							"type": "uint256"
						},
						{
							"internalType": "uint256",
							"name": "_maxPrice",
							"type": "uint256"
						},
						{
							"internalType": "address",
							"name": "_depositor",
							"type": "address"
						}
					],
					"name": "deposit",
					"outputs": [
						{
							"internalType": "uint256",
							"name": "",
							"type": "uint256"
						}
					],
					"stateMutability": "nonpayable",
					"type": "function"
				},
				{
					"inputs": [
						{
							"internalType": "uint256",
							"name": "_controlVariable",
							"type": "uint256"
						},
						{
							"internalType": "uint256",
							"name": "_minimumPrice",
							"type": "uint256"
						},
						{
							"internalType": "uint256",
							"name": "_maxPayout",
							"type": "uint256"
						},
						{
							"internalType": "uint256",
							"name": "_fee",
							"type": "uint256"
						},
						{
							"internalType": "uint256",
							"name": "_maxDebt",
							"type": "uint256"
						},
						{
							"internalType": "uint256",
							"name": "_initialDebt",
							"type": "uint256"
						},
						{
							"internalType": "uint32",
							"name": "_vestingTerm",
							"type": "uint32"
						}
					],
					"name": "initializeBondTerms",
					"outputs": [],
					"stateMutability": "nonpayable",
					"type": "function"
				},
				{
					"inputs": [],
					"name": "isLiquidityBond",
					"outputs": [
						{
							"internalType": "bool",
							"name": "",
							"type": "bool"
						}
					],
					"stateMutability": "view",
					"type": "function"
				},
				{
					"inputs": [],
					"name": "lastDecay",
					"outputs": [
						{
							"internalType": "uint32",
							"name": "",
							"type": "uint32"
						}
					],
					"stateMutability": "view",
					"type": "function"
				},
				{
					"inputs": [],
					"name": "maxPayout",
					"outputs": [
						{
							"internalType": "uint256",
							"name": "",
							"type": "uint256"
						}
					],
					"stateMutability": "view",
					"type": "function"
				},
				{
					"inputs": [
						{
							"internalType": "uint256",
							"name": "_value",
							"type": "uint256"
						}
					],
					"name": "payoutFor",
					"outputs": [
						{
							"internalType": "uint256",
							"name": "",
							"type": "uint256"
						}
					],
					"stateMutability": "view",
					"type": "function"
				},
				{
					"inputs": [
						{
							"internalType": "address",
							"name": "_depositor",
							"type": "address"
						}
					],
					"name": "pendingPayoutFor",
					"outputs": [
						{
							"internalType": "uint256",
							"name": "pendingPayout_",
							"type": "uint256"
						}
					],
					"stateMutability": "view",
					"type": "function"
				},
				{
					"inputs": [
						{
							"internalType": "address",
							"name": "_depositor",
							"type": "address"
						}
					],
					"name": "percentVestedFor",
					"outputs": [
						{
							"internalType": "uint256",
							"name": "percentVested_",
							"type": "uint256"
						}
					],
					"stateMutability": "view",
					"type": "function"
				},
				{
					"inputs": [],
					"name": "policy",
					"outputs": [
						{
							"internalType": "address",
							"name": "",
							"type": "address"
						}
					],
					"stateMutability": "view",
					"type": "function"
				},
				{
					"inputs": [],
					"name": "principle",
					"outputs": [
						{
							"internalType": "address",
							"name": "",
							"type": "address"
						}
					],
					"stateMutability": "view",
					"type": "function"
				},
				{
					"inputs": [],
					"name": "pullManagement",
					"outputs": [],
					"stateMutability": "nonpayable",
					"type": "function"
				},
				{
					"inputs": [
						{
							"internalType": "address",
							"name": "newOwner_",
							"type": "address"
						}
					],
					"name": "pushManagement",
					"outputs": [],
					"stateMutability": "nonpayable",
					"type": "function"
				},
				{
					"inputs": [
						{
							"internalType": "address",
							"name": "_token",
							"type": "address"
						}
					],
					"name": "recoverLostToken",
					"outputs": [
						{
							"internalType": "bool",
							"name": "",
							"type": "bool"
						}
					],
					"stateMutability": "nonpayable",
					"type": "function"
				},
				{
					"inputs": [
						{
							"internalType": "address",
							"name": "_recipient",
							"type": "address"
						},
						{
							"internalType": "bool",
							"name": "_stake",
							"type": "bool"
						}
					],
					"name": "redeem",
					"outputs": [
						{
							"internalType": "uint256",
							"name": "",
							"type": "uint256"
						}
					],
					"stateMutability": "nonpayable",
					"type": "function"
				},
				{
					"inputs": [],
					"name": "renounceManagement",
					"outputs": [],
					"stateMutability": "nonpayable",
					"type": "function"
				},
				{
					"inputs": [
						{
							"internalType": "bool",
							"name": "_addition",
							"type": "bool"
						},
						{
							"internalType": "uint256",
							"name": "_increment",
							"type": "uint256"
						},
						{
							"internalType": "uint256",
							"name": "_target",
							"type": "uint256"
						},
						{
							"internalType": "uint32",
							"name": "_buffer",
							"type": "uint32"
						}
					],
					"name": "setAdjustment",
					"outputs": [],
					"stateMutability": "nonpayable",
					"type": "function"
				},
				{
					"inputs": [
						{
							"internalType": "enum ExodBondDepository.PARAMETER",
							"name": "_parameter",
							"type": "uint8"
						},
						{
							"internalType": "uint256",
							"name": "_input",
							"type": "uint256"
						}
					],
					"name": "setBondTerms",
					"outputs": [],
					"stateMutability": "nonpayable",
					"type": "function"
				},
				{
					"inputs": [
						{
							"internalType": "address",
							"name": "_staking",
							"type": "address"
						},
						{
							"internalType": "bool",
							"name": "_helper",
							"type": "bool"
						}
					],
					"name": "setStaking",
					"outputs": [],
					"stateMutability": "nonpayable",
					"type": "function"
				},
				{
					"inputs": [],
					"name": "staking",
					"outputs": [
						{
							"internalType": "address",
							"name": "",
							"type": "address"
						}
					],
					"stateMutability": "view",
					"type": "function"
				},
				{
					"inputs": [],
					"name": "stakingHelper",
					"outputs": [
						{
							"internalType": "address",
							"name": "",
							"type": "address"
						}
					],
					"stateMutability": "view",
					"type": "function"
				},
				{
					"inputs": [],
					"name": "standardizedDebtRatio",
					"outputs": [
						{
							"internalType": "uint256",
							"name": "",
							"type": "uint256"
						}
					],
					"stateMutability": "view",
					"type": "function"
				},
				{
					"inputs": [],
					"name": "terms",
					"outputs": [
						{
							"internalType": "uint256",
							"name": "controlVariable",
							"type": "uint256"
						},
						{
							"internalType": "uint256",
							"name": "minimumPrice",
							"type": "uint256"
						},
						{
							"internalType": "uint256",
							"name": "maxPayout",
							"type": "uint256"
						},
						{
							"internalType": "uint256",
							"name": "fee",
							"type": "uint256"
						},
						{
							"internalType": "uint256",
							"name": "maxDebt",
							"type": "uint256"
						},
						{
							"internalType": "uint32",
							"name": "vestingTerm",
							"type": "uint32"
						}
					],
					"stateMutability": "view",
					"type": "function"
				},
				{
					"inputs": [],
					"name": "totalDebt",
					"outputs": [
						{
							"internalType": "uint256",
							"name": "",
							"type": "uint256"
						}
					],
					"stateMutability": "view",
					"type": "function"
				},
				{
					"inputs": [],
					"name": "treasury",
					"outputs": [
						{
							"internalType": "address",
							"name": "",
							"type": "address"
						}
					],
					"stateMutability": "view",
					"type": "function"
				},
				{
					"inputs": [],
					"name": "useHelper",
					"outputs": [
						{
							"internalType": "bool",
							"name": "",
							"type": "bool"
						}
					],
					"stateMutability": "view",
					"type": "function"
				}
			],
			"devdoc": {
				"kind": "dev",
				"methods": {
					"bondPrice()": {
						"returns": {
							"price_": "uint"
						}
					},
					"bondPriceInUSD()": {
						"returns": {
							"price_": "uint"
						}
					},
					"currentDebt()": {
						"returns": {
							"_0": "uint"
						}
					},
					"debtDecay()": {
						"returns": {
							"decay_": "uint"
						}
					},
					"debtRatio()": {
						"returns": {
							"debtRatio_": "uint"
						}
					},
					"deposit(uint256,uint256,address)": {
						"params": {
							"_amount": "uint",
							"_depositor": "address",
							"_maxPrice": "uint"
						},
						"returns": {
							"_0": "uint"
						}
					},
					"initializeBondTerms(uint256,uint256,uint256,uint256,uint256,uint256,uint32)": {
						"params": {
							"_controlVariable": "uint",
							"_fee": "uint",
							"_initialDebt": "uint",
							"_maxDebt": "uint",
							"_maxPayout": "uint",
							"_minimumPrice": "uint",
							"_vestingTerm": "uint32"
						}
					},
					"maxPayout()": {
						"returns": {
							"_0": "uint"
						}
					},
					"payoutFor(uint256)": {
						"params": {
							"_value": "uint"
						},
						"returns": {
							"_0": "uint"
						}
					},
					"pendingPayoutFor(address)": {
						"params": {
							"_depositor": "address"
						},
						"returns": {
							"pendingPayout_": "uint"
						}
					},
					"percentVestedFor(address)": {
						"params": {
							"_depositor": "address"
						},
						"returns": {
							"percentVested_": "uint"
						}
					},
					"recoverLostToken(address)": {
						"returns": {
							"_0": "bool"
						}
					},
					"redeem(address,bool)": {
						"params": {
							"_recipient": "address",
							"_stake": "bool"
						},
						"returns": {
							"_0": "uint"
						}
					},
					"setAdjustment(bool,uint256,uint256,uint32)": {
						"params": {
							"_addition": "bool",
							"_buffer": "uint",
							"_increment": "uint",
							"_target": "uint"
						}
					},
					"setBondTerms(uint8,uint256)": {
						"params": {
							"_input": "uint",
							"_parameter": "PARAMETER"
						}
					},
					"setStaking(address,bool)": {
						"params": {
							"_helper": "bool",
							"_staking": "address"
						}
					},
					"standardizedDebtRatio()": {
						"returns": {
							"_0": "uint"
						}
					}
				},
				"version": 1
			},
			"evm": {
				"assembly": "    /* \"daibond/BondDepository.sol\":23498:41344  contract ExodBondDepository is Ownable {... */\n  mstore(0x40, 0x0140)\n    /* \"daibond/BondDepository.sol\":26445:27046  constructor(... */\n  callvalue\n  dup1\n  iszero\n  tag_1\n  jumpi\n  0x00\n  dup1\n  revert\ntag_1:\n  pop\n  mload(0x40)\n  sub(codesize, bytecodeSize)\n  dup1\n  bytecodeSize\n  dup4\n  codecopy\n  dup2\n  dup2\n  add\n  0x40\n  mstore\n  0xa0\n  dup2\n  lt\n  iszero\n  tag_2\n  jumpi\n  0x00\n  dup1\n  revert\ntag_2:\n  pop\n  dup1\n  mload\n  0x20\n  dup3\n  add\n  mload\n  0x40\n  dup1\n  dup5\n  add\n  mload\n  0x60\n  dup6\n  add\n  mload\n  0x80\n  swap1\n  swap6\n  add\n  mload\n    /* \"daibond/BondDepository.sol\":673:679  _owner */\n  0x00\n    /* \"daibond/BondDepository.sol\":673:692  _owner = msg.sender */\n  dup1\n  sload\n  not(sub(shl(0xa0, 0x01), 0x01))\n  and\n    /* \"daibond/BondDepository.sol\":682:692  msg.sender */\n  caller\n    /* \"daibond/BondDepository.sol\":673:692  _owner = msg.sender */\n  or\n  dup1\n  dup3\n  sstore\n    /* \"daibond/BondDepository.sol\":707:742  OwnershipPushed(address(0), _owner) */\n  swap4\n  mload\n    /* \"daibond/BondDepository.sol\":26445:27046  constructor(... */\n  swap6\n  swap7\n  swap5\n  swap6\n  swap3\n  swap5\n  swap4\n  swap2\n  swap3\n  sub(shl(0xa0, 0x01), 0x01)\n    /* \"daibond/BondDepository.sol\":735:741  _owner */\n  swap3\n  swap1\n  swap3\n  and\n  swap2\n    /* \"daibond/BondDepository.sol\":707:742  OwnershipPushed(address(0), _owner) */\n  0xea8258f2d9ddb679928cf34b78cf645b7feda9acc828e4dd82d014eaae270eba\n  swap1\n    /* \"daibond/BondDepository.sol\":673:679  _owner */\n  dup3\n  swap1\n    /* \"daibond/BondDepository.sol\":707:742  OwnershipPushed(address(0), _owner) */\n  log3\n  sub(shl(0xa0, 0x01), 0x01)\n    /* \"daibond/BondDepository.sol\":26630:26649  _bash != address(0) */\n  dup6\n  and\n    /* \"daibond/BondDepository.sol\":26622:26650  require(_bash != address(0)) */\n  tag_7\n  jumpi\n  0x00\n  dup1\n  revert\ntag_7:\n  not(sub(shl(0x60, 0x01), 0x01))\n    /* \"daibond/BondDepository.sol\":26660:26672  Bash = _bash */\n  0x60\n  dup7\n  swap1\n  shl\n  and\n  0x80\n  mstore\n  sub(shl(0xa0, 0x01), 0x01)\n    /* \"daibond/BondDepository.sol\":26690:26714  _principle != address(0) */\n  dup5\n  and\n    /* \"daibond/BondDepository.sol\":26682:26715  require(_principle != address(0)) */\n  tag_8\n  jumpi\n  0x00\n  dup1\n  revert\ntag_8:\n  not(sub(shl(0x60, 0x01), 0x01))\n    /* \"daibond/BondDepository.sol\":26725:26747  principle = _principle */\n  0x60\n  dup6\n  swap1\n  shl\n  and\n  0xa0\n  mstore\n  sub(shl(0xa0, 0x01), 0x01)\n    /* \"daibond/BondDepository.sol\":26765:26788  _treasury != address(0) */\n  dup4\n  and\n    /* \"daibond/BondDepository.sol\":26757:26789  require(_treasury != address(0)) */\n  tag_9\n  jumpi\n  0x00\n  dup1\n  revert\ntag_9:\n  not(sub(shl(0x60, 0x01), 0x01))\n    /* \"daibond/BondDepository.sol\":26799:26819  treasury = _treasury */\n  0x60\n  dup5\n  swap1\n  shl\n  and\n  0xc0\n  mstore\n  sub(shl(0xa0, 0x01), 0x01)\n    /* \"daibond/BondDepository.sol\":26837:26855  _DAO != address(0) */\n  dup3\n  and\n    /* \"daibond/BondDepository.sol\":26829:26856  require(_DAO != address(0)) */\n  tag_10\n  jumpi\n  0x00\n  dup1\n  revert\ntag_10:\n  not(sub(shl(0x60, 0x01), 0x01))\n    /* \"daibond/BondDepository.sol\":26866:26876  DAO = _DAO */\n  0x60\n  swap3\n  dup4\n  shl\n  dup2\n  and\n  0xe0\n  mstore\n    /* \"daibond/BondDepository.sol\":26948:26980  bondCalculator = _bondCalculator */\n  swap2\n  dup2\n  swap1\n  shl\n  swap1\n  swap2\n  and\n  0x0120\n  mstore\n  sub(shl(0xa0, 0x01), 0x01)\n  and\n    /* \"daibond/BondDepository.sol\":27009:27038  _bondCalculator != address(0) */\n  iszero\n  iszero\n    /* \"daibond/BondDepository.sol\":26990:27039  isLiquidityBond = (_bondCalculator != address(0)) */\n  0xf8\n  shl\n  0x0100\n  mstore\n  pop\n  pop\n  pop\n    /* \"daibond/BondDepository.sol\":23498:41344  contract ExodBondDepository is Ownable {... */\n  shr(0x60, mload(0x80))\n  shr(0x60, mload(0xa0))\n  shr(0x60, mload(0xc0))\n  shr(0x60, mload(0xe0))\n  shr(0xf8, mload(0x0100))\n  shr(0x60, mload(0x0120))\n  codecopy(0x00, dataOffset(sub_0), dataSize(sub_0))\n  assignImmutable(\"0xd23e9efc23800776cf8d3669751fafa9f7c61baf4abbaf310045071b5e6148b9\")\n  assignImmutable(\"0x128221face7165ac636c79241bcc071c00b651aee12c4977c3e09ba4d7241443\")\n  assignImmutable(\"0x38b7b61f58f14f07450f1658d7697d2ffee5c2ae614c4752fc225c9ab3f7e9c4\")\n  assignImmutable(\"0x449e2f5e7508d34c0e3e5104a521c043ba399204576497db1b3567c8a164bdfc\")\n  assignImmutable(\"0xa07c19efc73020733d74df24211ba72aa9c07ba4a2ae13ac79a338a4d8b59fe5\")\n  assignImmutable(\"0x666acd29a495e0c7469bb9337e279878b45aede98d38c74aa47b4fc55f5ff1aa\")\n  return(0x00, dataSize(sub_0))\nstop\n\nsub_0: assembly {\n        /* \"daibond/BondDepository.sol\":23498:41344  contract ExodBondDepository is Ownable {... */\n      mstore(0x40, 0x80)\n      callvalue\n      dup1\n      iszero\n      tag_1\n      jumpi\n      0x00\n      dup1\n      revert\n    tag_1:\n      pop\n      jumpi(tag_2, lt(calldatasize, 0x04))\n      shr(0xe0, calldataload(0x00))\n      dup1\n      0x844b5c7c\n      gt\n      tag_38\n      jumpi\n      dup1\n      0xcf37a891\n      gt\n      tag_39\n      jumpi\n      dup1\n      0xd7ccfb0b\n      gt\n      tag_40\n      jumpi\n      dup1\n      0xe392a262\n      gt\n      tag_41\n      jumpi\n      dup1\n      0xe392a262\n      eq\n      tag_35\n      jumpi\n      dup1\n      0xf5c2ab5b\n      eq\n      tag_36\n      jumpi\n      dup1\n      0xfc7b9c18\n      eq\n      tag_37\n      jumpi\n      jump(tag_2)\n    tag_41:\n      dup1\n      0xd7ccfb0b\n      eq\n      tag_33\n      jumpi\n      dup1\n      0xe0176de8\n      eq\n      tag_34\n      jumpi\n      jump(tag_2)\n    tag_40:\n      dup1\n      0xcf37a891\n      eq\n      tag_29\n      jumpi\n      dup1\n      0xd4d863ce\n      eq\n      tag_30\n      jumpi\n      dup1\n      0xd5025625\n      eq\n      tag_31\n      jumpi\n      dup1\n      0xd7969060\n      eq\n      tag_32\n      jumpi\n      jump(tag_2)\n    tag_39:\n      dup1\n      0xae9832cf\n      gt\n      tag_42\n      jumpi\n      dup1\n      0xc5332b7c\n      gt\n      tag_43\n      jumpi\n      dup1\n      0xc5332b7c\n      eq\n      tag_26\n      jumpi\n      dup1\n      0xcd1234b3\n      eq\n      tag_27\n      jumpi\n      dup1\n      0xcea55f57\n      eq\n      tag_28\n      jumpi\n      jump(tag_2)\n    tag_43:\n      dup1\n      0xae9832cf\n      eq\n      tag_24\n      jumpi\n      dup1\n      0xb4abccba\n      eq\n      tag_25\n      jumpi\n      jump(tag_2)\n    tag_42:\n      dup1\n      0x844b5c7c\n      eq\n      tag_20\n      jumpi\n      dup1\n      0x8dbdbe6d\n      eq\n      tag_21\n      jumpi\n      dup1\n      0x904b3ece\n      eq\n      tag_22\n      jumpi\n      dup1\n      0x98fabd3a\n      eq\n      tag_23\n      jumpi\n      jump(tag_2)\n    tag_38:\n      dup1\n      0x451ee4a1\n      gt\n      tag_44\n      jumpi\n      dup1\n      0x5a96ac0a\n      gt\n      tag_45\n      jumpi\n      dup1\n      0x759076e5\n      gt\n      tag_46\n      jumpi\n      dup1\n      0x759076e5\n      eq\n      tag_17\n      jumpi\n      dup1\n      0x77b81895\n      eq\n      tag_18\n      jumpi\n      dup1\n      0x7927ebf8\n      eq\n      tag_19\n      jumpi\n      jump(tag_2)\n    tag_46:\n      dup1\n      0x5a96ac0a\n      eq\n      tag_15\n      jumpi\n      dup1\n      0x61d027b3\n      eq\n      tag_16\n      jumpi\n      jump(tag_2)\n    tag_45:\n      dup1\n      0x451ee4a1\n      eq\n      tag_11\n      jumpi\n      dup1\n      0x46f68ee9\n      eq\n      tag_12\n      jumpi\n      dup1\n      0x4cf088d9\n      eq\n      tag_13\n      jumpi\n      dup1\n      0x507930ec\n      eq\n      tag_14\n      jumpi\n      jump(tag_2)\n    tag_44:\n      dup1\n      0x1e321a0f\n      gt\n      tag_47\n      jumpi\n      dup1\n      0x1e321a0f\n      eq\n      tag_7\n      jumpi\n      dup1\n      0x1feed31f\n      eq\n      tag_8\n      jumpi\n      dup1\n      0x2f3f470a\n      eq\n      tag_9\n      jumpi\n      dup1\n      0x3c4e6da7\n      eq\n      tag_10\n      jumpi\n      jump(tag_2)\n    tag_47:\n      dup1\n      0x016a4284\n      eq\n      tag_3\n      jumpi\n      dup1\n      0x01b88ee8\n      eq\n      tag_4\n      jumpi\n      dup1\n      0x0505c8c9\n      eq\n      tag_5\n      jumpi\n      dup1\n      0x089208d8\n      eq\n      tag_6\n      jumpi\n    tag_2:\n      0x00\n      dup1\n      revert\n        /* \"daibond/BondDepository.sol\":24380:24414  address public immutable principle */\n    tag_3:\n      tag_48\n      tag_49\n      jump\t// in\n    tag_48:\n      0x40\n      dup1\n      mload\n      sub(shl(0xa0, 0x01), 0x01)\n      swap1\n      swap3\n      and\n      dup3\n      mstore\n      mload\n      swap1\n      dup2\n      swap1\n      sub\n      0x20\n      add\n      swap1\n      return\n        /* \"daibond/BondDepository.sol\":40476:40890  function pendingPayoutFor(address _depositor)... */\n    tag_4:\n      tag_50\n      0x04\n      dup1\n      calldatasize\n      sub\n      0x20\n      dup2\n      lt\n      iszero\n      tag_51\n      jumpi\n      0x00\n      dup1\n      revert\n    tag_51:\n      pop\n      calldataload\n      sub(shl(0xa0, 0x01), 0x01)\n      and\n      tag_52\n      jump\t// in\n    tag_50:\n      0x40\n      dup1\n      mload\n      swap2\n      dup3\n      mstore\n      mload\n      swap1\n      dup2\n      swap1\n      sub\n      0x20\n      add\n      swap1\n      return\n        /* \"daibond/BondDepository.sol\":755:842  function policy() public view override returns (address) {... */\n    tag_5:\n      tag_48\n      tag_54\n      jump\t// in\n        /* \"daibond/BondDepository.sol\":969:1120  function renounceManagement() public virtual override onlyPolicy {... */\n    tag_6:\n      tag_55\n      tag_56\n      jump\t// in\n    tag_55:\n      stop\n        /* \"daibond/BondDepository.sol\":28290:29165  function setBondTerms(PARAMETER _parameter, uint256 _input)... */\n    tag_7:\n      tag_55\n      0x04\n      dup1\n      calldatasize\n      sub\n      0x40\n      dup2\n      lt\n      iszero\n      tag_58\n      jumpi\n      0x00\n      dup1\n      revert\n    tag_58:\n      pop\n      0xff\n      dup2\n      calldataload\n      and\n      swap1\n      0x20\n      add\n      calldataload\n      tag_59\n      jump\t// in\n        /* \"daibond/BondDepository.sol\":32836:34098  function redeem(address _recipient, bool _stake)... */\n    tag_8:\n      tag_50\n      0x04\n      dup1\n      calldatasize\n      sub\n      0x40\n      dup2\n      lt\n      iszero\n      tag_61\n      jumpi\n      0x00\n      dup1\n      revert\n    tag_61:\n      pop\n      sub(shl(0xa0, 0x01), 0x01)\n      dup2\n      calldataload\n      and\n      swap1\n      0x20\n      add\n      calldataload\n      iszero\n      iszero\n      tag_62\n      jump\t// in\n        /* \"daibond/BondDepository.sol\":24901:24922  bool public useHelper */\n    tag_9:\n      tag_63\n      tag_64\n      jump\t// in\n    tag_63:\n      0x40\n      dup1\n      mload\n      swap2\n      iszero\n      iszero\n      dup3\n      mstore\n      mload\n      swap1\n      dup2\n      swap1\n      sub\n      0x20\n      add\n      swap1\n      return\n        /* \"daibond/BondDepository.sol\":24310:24339  address public immutable Bash */\n    tag_10:\n      tag_48\n      tag_66\n      jump\t// in\n        /* \"daibond/BondDepository.sol\":24983:25007  Adjust public adjustment */\n    tag_11:\n      tag_67\n      tag_68\n      jump\t// in\n    tag_67:\n      0x40\n      dup1\n      mload\n      swap6\n      iszero\n      iszero\n      dup7\n      mstore\n      0x20\n      dup7\n      add\n      swap5\n      swap1\n      swap5\n      mstore\n      dup5\n      dup5\n      add\n      swap3\n      swap1\n      swap3\n      mstore\n      0xffffffff\n      swap1\n      dup2\n      and\n      0x60\n      dup6\n      add\n      mstore\n      and\n      0x80\n      dup4\n      add\n      mstore\n      mload\n      swap1\n      dup2\n      swap1\n      sub\n      0xa0\n      add\n      swap1\n      return\n        /* \"daibond/BondDepository.sol\":1126:1445  function pushManagement(address newOwner_)... */\n    tag_12:\n      tag_55\n      0x04\n      dup1\n      calldatasize\n      sub\n      0x20\n      dup2\n      lt\n      iszero\n      tag_70\n      jumpi\n      0x00\n      dup1\n      revert\n    tag_70:\n      pop\n      calldataload\n      sub(shl(0xa0, 0x01), 0x01)\n      and\n      tag_71\n      jump\t// in\n        /* \"daibond/BondDepository.sol\":24772:24794  address public staking */\n    tag_13:\n      tag_48\n      tag_73\n      jump\t// in\n        /* \"daibond/BondDepository.sol\":39859:40311  function percentVestedFor(address _depositor)... */\n    tag_14:\n      tag_50\n      0x04\n      dup1\n      calldatasize\n      sub\n      0x20\n      dup2\n      lt\n      iszero\n      tag_75\n      jumpi\n      0x00\n      dup1\n      revert\n    tag_75:\n      pop\n      calldataload\n      sub(shl(0xa0, 0x01), 0x01)\n      and\n      tag_76\n      jump\t// in\n        /* \"daibond/BondDepository.sol\":1451:1665  function pullManagement() public virtual override {... */\n    tag_15:\n      tag_55\n      tag_78\n      jump\t// in\n        /* \"daibond/BondDepository.sol\":24449:24482  address public immutable treasury */\n    tag_16:\n      tag_48\n      tag_80\n      jump\t// in\n        /* \"daibond/BondDepository.sol\":39222:39325  function currentDebt() public view returns (uint256) {... */\n    tag_17:\n      tag_50\n      tag_82\n      jump\t// in\n        /* \"daibond/BondDepository.sol\":24824:24852  address public stakingHelper */\n    tag_18:\n      tag_48\n      tag_84\n      jump\t// in\n        /* \"daibond/BondDepository.sol\":36750:37050  function payoutFor(uint256 _value) public view returns (uint256) {... */\n    tag_19:\n      tag_50\n      0x04\n      dup1\n      calldatasize\n      sub\n      0x20\n      dup2\n      lt\n      iszero\n      tag_86\n      jumpi\n      0x00\n      dup1\n      revert\n    tag_86:\n      pop\n      calldataload\n      tag_87\n      jump\t// in\n        /* \"daibond/BondDepository.sol\":37973:38316  function bondPriceInUSD() public view returns (uint256 price_) {... */\n    tag_20:\n      tag_50\n      tag_89\n      jump\t// in\n        /* \"daibond/BondDepository.sol\":30348:32695  function deposit(... */\n    tag_21:\n      tag_50\n      0x04\n      dup1\n      calldatasize\n      sub\n      0x60\n      dup2\n      lt\n      iszero\n      tag_91\n      jumpi\n      0x00\n      dup1\n      revert\n    tag_91:\n      pop\n      dup1\n      calldataload\n      swap1\n      0x20\n      dup2\n      add\n      calldataload\n      swap1\n      0x40\n      add\n      calldataload\n      sub(shl(0xa0, 0x01), 0x01)\n      and\n      tag_92\n      jump\t// in\n        /* \"daibond/BondDepository.sol\":38811:39129  function standardizedDebtRatio() external view returns (uint256) {... */\n    tag_22:\n      tag_50\n      tag_94\n      jump\t// in\n        /* \"daibond/BondDepository.sol\":24525:24553  address public immutable DAO */\n    tag_23:\n      tag_48\n      tag_96\n      jump\t// in\n        /* \"daibond/BondDepository.sol\":29352:29713  function setAdjustment(... */\n    tag_24:\n      tag_55\n      0x04\n      dup1\n      calldatasize\n      sub\n      0x80\n      dup2\n      lt\n      iszero\n      tag_98\n      jumpi\n      0x00\n      dup1\n      revert\n    tag_98:\n      pop\n      dup1\n      calldataload\n      iszero\n      iszero\n      swap1\n      0x20\n      dup2\n      add\n      calldataload\n      swap1\n      0x40\n      dup2\n      add\n      calldataload\n      swap1\n      0x60\n      add\n      calldataload\n      0xffffffff\n      and\n      tag_99\n      jump\t// in\n        /* \"daibond/BondDepository.sol\":41060:41342  function recoverLostToken(address _token) external returns (bool) {... */\n    tag_25:\n      tag_63\n      0x04\n      dup1\n      calldatasize\n      sub\n      0x20\n      dup2\n      lt\n      iszero\n      tag_101\n      jumpi\n      0x00\n      dup1\n      revert\n    tag_101:\n      pop\n      calldataload\n      sub(shl(0xa0, 0x01), 0x01)\n      and\n      tag_102\n      jump\t// in\n        /* \"daibond/BondDepository.sol\":24693:24732  address public immutable bondCalculator */\n    tag_26:\n      tag_48\n      tag_104\n      jump\t// in\n        /* \"daibond/BondDepository.sol\":25047:25087  mapping(address => Bond) public bondInfo */\n    tag_27:\n      tag_105\n      0x04\n      dup1\n      calldatasize\n      sub\n      0x20\n      dup2\n      lt\n      iszero\n      tag_106\n      jumpi\n      0x00\n      dup1\n      revert\n    tag_106:\n      pop\n      calldataload\n      sub(shl(0xa0, 0x01), 0x01)\n      and\n      tag_107\n      jump\t// in\n    tag_105:\n      0x40\n      dup1\n      mload\n      swap5\n      dup6\n      mstore\n      0x20\n      dup6\n      add\n      swap4\n      swap1\n      swap4\n      mstore\n      0xffffffff\n      swap2\n      dup3\n      and\n      dup5\n      dup5\n      add\n      mstore\n      and\n      0x60\n      dup4\n      add\n      mstore\n      mload\n      swap1\n      dup2\n      swap1\n      sub\n      0x80\n      add\n      swap1\n      return\n        /* \"daibond/BondDepository.sol\":38433:38696  function debtRatio() public view returns (uint256 debtRatio_) {... */\n    tag_28:\n      tag_50\n      tag_109\n      jump\t// in\n        /* \"daibond/BondDepository.sol\":27336:28009  function initializeBondTerms(... */\n    tag_29:\n      tag_55\n      0x04\n      dup1\n      calldatasize\n      sub\n      0xe0\n      dup2\n      lt\n      iszero\n      tag_111\n      jumpi\n      0x00\n      dup1\n      revert\n    tag_111:\n      pop\n      dup1\n      calldataload\n      swap1\n      0x20\n      dup2\n      add\n      calldataload\n      swap1\n      0x40\n      dup2\n      add\n      calldataload\n      swap1\n      0x60\n      dup2\n      add\n      calldataload\n      swap1\n      0x80\n      dup2\n      add\n      calldataload\n      swap1\n      0xa0\n      dup2\n      add\n      calldataload\n      swap1\n      0xc0\n      add\n      calldataload\n      0xffffffff\n      and\n      tag_112\n      jump\t// in\n        /* \"daibond/BondDepository.sol\":29839:30140  function setStaking(address _staking, bool _helper) external onlyPolicy {... */\n    tag_30:\n      tag_55\n      0x04\n      dup1\n      calldatasize\n      sub\n      0x40\n      dup2\n      lt\n      iszero\n      tag_114\n      jumpi\n      0x00\n      dup1\n      revert\n    tag_114:\n      pop\n      sub(shl(0xa0, 0x01), 0x01)\n      dup2\n      calldataload\n      and\n      swap1\n      0x20\n      add\n      calldataload\n      iszero\n      iszero\n      tag_115\n      jump\t// in\n        /* \"daibond/BondDepository.sol\":24929:24947  Terms public terms */\n    tag_31:\n      tag_116\n      tag_117\n      jump\t// in\n    tag_116:\n      0x40\n      dup1\n      mload\n      swap7\n      dup8\n      mstore\n      0x20\n      dup8\n      add\n      swap6\n      swap1\n      swap6\n      mstore\n      dup6\n      dup6\n      add\n      swap4\n      swap1\n      swap4\n      mstore\n      0x60\n      dup6\n      add\n      swap2\n      swap1\n      swap2\n      mstore\n      0x80\n      dup5\n      add\n      mstore\n      0xffffffff\n      and\n      0xa0\n      dup4\n      add\n      mstore\n      mload\n      swap1\n      dup2\n      swap1\n      sub\n      0xc0\n      add\n      swap1\n      return\n        /* \"daibond/BondDepository.sol\":24595:24632  bool public immutable isLiquidityBond */\n    tag_32:\n      tag_63\n      tag_119\n      jump\t// in\n        /* \"daibond/BondDepository.sol\":37147:37410  function bondPrice() public view returns (uint256 price_) {... */\n    tag_33:\n      tag_50\n      tag_121\n      jump\t// in\n        /* \"daibond/BondDepository.sol\":36494:36628  function maxPayout() public view returns (uint256) {... */\n    tag_34:\n      tag_50\n      tag_123\n      jump\t// in\n        /* \"daibond/BondDepository.sol\":39421:39705  function debtDecay() public view returns (uint256 decay_) {... */\n    tag_35:\n      tag_50\n      tag_125\n      jump\t// in\n        /* \"daibond/BondDepository.sol\":25220:25243  uint32 public lastDecay */\n    tag_36:\n      tag_126\n      tag_127\n      jump\t// in\n    tag_126:\n      0x40\n      dup1\n      mload\n      0xffffffff\n      swap1\n      swap3\n      and\n      dup3\n      mstore\n      mload\n      swap1\n      dup2\n      swap1\n      sub\n      0x20\n      add\n      swap1\n      return\n        /* \"daibond/BondDepository.sol\":25136:25160  uint256 public totalDebt */\n    tag_37:\n      tag_50\n      tag_129\n      jump\t// in\n        /* \"daibond/BondDepository.sol\":24380:24414  address public immutable principle */\n    tag_49:\n      immutable(\"0xa07c19efc73020733d74df24211ba72aa9c07ba4a2ae13ac79a338a4d8b59fe5\")\n      dup2\n      jump\t// out\n        /* \"daibond/BondDepository.sol\":40476:40890  function pendingPayoutFor(address _depositor)... */\n    tag_52:\n        /* \"daibond/BondDepository.sol\":40569:40591  uint256 pendingPayout_ */\n      0x00\n        /* \"daibond/BondDepository.sol\":40607:40628  uint256 percentVested */\n      dup1\n        /* \"daibond/BondDepository.sol\":40631:40659  percentVestedFor(_depositor) */\n      tag_131\n        /* \"daibond/BondDepository.sol\":40648:40658  _depositor */\n      dup4\n        /* \"daibond/BondDepository.sol\":40631:40647  percentVestedFor */\n      tag_76\n        /* \"daibond/BondDepository.sol\":40631:40659  percentVestedFor(_depositor) */\n      jump\t// in\n    tag_131:\n      sub(shl(0xa0, 0x01), 0x01)\n        /* \"daibond/BondDepository.sol\":40686:40706  bondInfo[_depositor] */\n      dup5\n      and\n        /* \"daibond/BondDepository.sol\":40669:40683  uint256 payout */\n      0x00\n        /* \"daibond/BondDepository.sol\":40686:40706  bondInfo[_depositor] */\n      swap1\n      dup2\n      mstore\n        /* \"daibond/BondDepository.sol\":40686:40694  bondInfo */\n      0x0e\n        /* \"daibond/BondDepository.sol\":40686:40706  bondInfo[_depositor] */\n      0x20\n      mstore\n      0x40\n      swap1\n      keccak256\n        /* \"daibond/BondDepository.sol\":40686:40713  bondInfo[_depositor].payout */\n      sload\n        /* \"daibond/BondDepository.sol\":40607:40659  uint256 percentVested = percentVestedFor(_depositor) */\n      swap1\n      swap2\n      pop\n        /* \"daibond/BondDepository.sol\":40745:40750  10000 */\n      0x2710\n        /* \"daibond/BondDepository.sol\":40728:40750  percentVested >= 10000 */\n      dup3\n      lt\n        /* \"daibond/BondDepository.sol\":40724:40884  if (percentVested >= 10000) {... */\n      tag_132\n      jumpi\n        /* \"daibond/BondDepository.sol\":40783:40789  payout */\n      dup1\n        /* \"daibond/BondDepository.sol\":40766:40789  pendingPayout_ = payout */\n      swap3\n      pop\n        /* \"daibond/BondDepository.sol\":40724:40884  if (percentVested >= 10000) {... */\n      jump(tag_133)\n    tag_132:\n        /* \"daibond/BondDepository.sol\":40837:40873  payout.mul(percentVested).div(10000) */\n      tag_134\n        /* \"daibond/BondDepository.sol\":40867:40872  10000 */\n      0x2710\n        /* \"daibond/BondDepository.sol\":40837:40862  payout.mul(percentVested) */\n      tag_135\n        /* \"daibond/BondDepository.sol\":40837:40843  payout */\n      dup4\n        /* \"daibond/BondDepository.sol\":40848:40861  percentVested */\n      dup6\n        /* \"daibond/BondDepository.sol\":40837:40847  payout.mul */\n      tag_136\n        /* \"daibond/BondDepository.sol\":40837:40862  payout.mul(percentVested) */\n      jump\t// in\n    tag_135:\n        /* \"daibond/BondDepository.sol\":40837:40866  payout.mul(percentVested).div */\n      swap1\n      tag_137\n        /* \"daibond/BondDepository.sol\":40837:40873  payout.mul(percentVested).div(10000) */\n      jump\t// in\n    tag_134:\n        /* \"daibond/BondDepository.sol\":40820:40873  pendingPayout_ = payout.mul(percentVested).div(10000) */\n      swap3\n      pop\n        /* \"daibond/BondDepository.sol\":40724:40884  if (percentVested >= 10000) {... */\n    tag_133:\n        /* \"daibond/BondDepository.sol\":40476:40890  function pendingPayoutFor(address _depositor)... */\n      pop\n      pop\n      swap2\n      swap1\n      pop\n      jump\t// out\n        /* \"daibond/BondDepository.sol\":755:842  function policy() public view override returns (address) {... */\n    tag_54:\n        /* \"daibond/BondDepository.sol\":803:810  address */\n      0x00\n        /* \"daibond/BondDepository.sol\":829:835  _owner */\n      sload\n      sub(shl(0xa0, 0x01), 0x01)\n      and\n        /* \"daibond/BondDepository.sol\":755:842  function policy() public view override returns (address) {... */\n    tag_138:\n      swap1\n      jump\t// out\n        /* \"daibond/BondDepository.sol\":969:1120  function renounceManagement() public virtual override onlyPolicy {... */\n    tag_56:\n        /* \"daibond/BondDepository.sol\":888:894  _owner */\n      and(sub(shl(0xa0, 0x01), 0x01), sload(0x00))\n        /* \"daibond/BondDepository.sol\":898:908  msg.sender */\n      caller\n        /* \"daibond/BondDepository.sol\":888:908  _owner == msg.sender */\n      eq\n        /* \"daibond/BondDepository.sol\":880:945  require(_owner == msg.sender, \"Ownable: caller is not the owner\") */\n      tag_140\n      jumpi\n      0x40\n      dup1\n      mload\n      shl(0xe5, 0x461bcd)\n      dup2\n      mstore\n      0x20\n      0x04\n      dup3\n      add\n      dup2\n      swap1\n      mstore\n      0x24\n      dup3\n      add\n      mstore\n      0x4f776e61626c653a2063616c6c6572206973206e6f7420746865206f776e6572\n      0x44\n      dup3\n      add\n      mstore\n      swap1\n      mload\n      swap1\n      dup2\n      swap1\n      sub\n      0x64\n      add\n      swap1\n      revert\n    tag_140:\n        /* \"daibond/BondDepository.sol\":1081:1082  0 */\n      0x00\n        /* \"daibond/BondDepository.sol\":1065:1071  _owner */\n      dup1\n      sload\n        /* \"daibond/BondDepository.sol\":1049:1084  OwnershipPushed(_owner, address(0)) */\n      mload(0x40)\n      sub(shl(0xa0, 0x01), 0x01)\n        /* \"daibond/BondDepository.sol\":1065:1071  _owner */\n      swap1\n      swap2\n      and\n      swap1\n        /* \"daibond/BondDepository.sol\":1049:1084  OwnershipPushed(_owner, address(0)) */\n      0xea8258f2d9ddb679928cf34b78cf645b7feda9acc828e4dd82d014eaae270eba\n      swap1\n        /* \"daibond/BondDepository.sol\":1081:1082  0 */\n      dup4\n      swap1\n        /* \"daibond/BondDepository.sol\":1049:1084  OwnershipPushed(_owner, address(0)) */\n      log3\n        /* \"daibond/BondDepository.sol\":1111:1112  0 */\n      0x00\n        /* \"daibond/BondDepository.sol\":1094:1113  _owner = address(0) */\n      dup1\n      sload\n      not(sub(shl(0xa0, 0x01), 0x01))\n      and\n      swap1\n      sstore\n        /* \"daibond/BondDepository.sol\":969:1120  function renounceManagement() public virtual override onlyPolicy {... */\n      jump\t// out\n        /* \"daibond/BondDepository.sol\":28290:29165  function setBondTerms(PARAMETER _parameter, uint256 _input)... */\n    tag_59:\n        /* \"daibond/BondDepository.sol\":888:894  _owner */\n      and(sub(shl(0xa0, 0x01), 0x01), sload(0x00))\n        /* \"daibond/BondDepository.sol\":898:908  msg.sender */\n      caller\n        /* \"daibond/BondDepository.sol\":888:908  _owner == msg.sender */\n      eq\n        /* \"daibond/BondDepository.sol\":880:945  require(_owner == msg.sender, \"Ownable: caller is not the owner\") */\n      tag_143\n      jumpi\n      0x40\n      dup1\n      mload\n      shl(0xe5, 0x461bcd)\n      dup2\n      mstore\n      0x20\n      0x04\n      dup3\n      add\n      dup2\n      swap1\n      mstore\n      0x24\n      dup3\n      add\n      mstore\n      0x4f776e61626c653a2063616c6c6572206973206e6f7420746865206f776e6572\n      0x44\n      dup3\n      add\n      mstore\n      swap1\n      mload\n      swap1\n      dup2\n      swap1\n      sub\n      0x64\n      add\n      swap1\n      revert\n    tag_143:\n        /* \"daibond/BondDepository.sol\":28418:28435  PARAMETER.VESTING */\n      0x00\n        /* \"daibond/BondDepository.sol\":28404:28414  _parameter */\n      dup3\n        /* \"daibond/BondDepository.sol\":28404:28435  _parameter == PARAMETER.VESTING */\n      0x04\n      dup2\n      gt\n      iszero\n      tag_146\n      jumpi\n      invalid\n    tag_146:\n      eq\n        /* \"daibond/BondDepository.sol\":28400:29159  if (_parameter == PARAMETER.VESTING) {... */\n      iszero\n      tag_147\n      jumpi\n        /* \"daibond/BondDepository.sol\":28486:28492  129600 */\n      0x01fa40\n        /* \"daibond/BondDepository.sol\":28476:28482  _input */\n      dup2\n        /* \"daibond/BondDepository.sol\":28476:28492  _input >= 129600 */\n      lt\n      iszero\n        /* \"daibond/BondDepository.sol\":28468:28533  require(_input >= 129600, \"Vesting must be longer than 36 hours\") */\n      tag_148\n      jumpi\n      mload(0x40)\n      shl(0xe5, 0x461bcd)\n      dup2\n      mstore\n      0x04\n      add\n      dup1\n      dup1\n      0x20\n      add\n      dup3\n      dup2\n      sub\n      dup3\n      mstore\n      0x24\n      dup2\n      mstore\n      0x20\n      add\n      dup1\n      data_9bf0496b18f4db662847e65668d0ae3d4d7f5ebc115d137b3b0990ae2896f44e\n      0x24\n      swap2\n      codecopy\n      0x40\n      add\n      swap2\n      pop\n      pop\n      mload(0x40)\n      dup1\n      swap2\n      sub\n      swap1\n      revert\n    tag_148:\n        /* \"daibond/BondDepository.sol\":28547:28564  terms.vestingTerm */\n      0x09\n        /* \"daibond/BondDepository.sol\":28547:28581  terms.vestingTerm = uint32(_input) */\n      dup1\n      sload\n      not(0xffffffff)\n      and\n      0xffffffff\n      dup4\n      and\n      or\n      swap1\n      sstore\n        /* \"daibond/BondDepository.sol\":28400:29159  if (_parameter == PARAMETER.VESTING) {... */\n      jump(tag_166)\n    tag_147:\n        /* \"daibond/BondDepository.sol\":28616:28632  PARAMETER.PAYOUT */\n      0x01\n        /* \"daibond/BondDepository.sol\":28602:28612  _parameter */\n      dup3\n        /* \"daibond/BondDepository.sol\":28602:28632  _parameter == PARAMETER.PAYOUT */\n      0x04\n      dup2\n      gt\n      iszero\n      tag_151\n      jumpi\n      invalid\n    tag_151:\n      eq\n        /* \"daibond/BondDepository.sol\":28598:29159  if (_parameter == PARAMETER.PAYOUT) {... */\n      iszero\n      tag_152\n      jumpi\n        /* \"daibond/BondDepository.sol\":28683:28687  1000 */\n      0x03e8\n        /* \"daibond/BondDepository.sol\":28673:28679  _input */\n      dup2\n        /* \"daibond/BondDepository.sol\":28673:28687  _input <= 1000 */\n      gt\n      iszero\n        /* \"daibond/BondDepository.sol\":28665:28724  require(_input <= 1000, \"Payout cannot be above 1 percent\") */\n      tag_153\n      jumpi\n      0x40\n      dup1\n      mload\n      shl(0xe5, 0x461bcd)\n      dup2\n      mstore\n      0x20\n      0x04\n      dup3\n      add\n      dup2\n      swap1\n      mstore\n      0x24\n      dup3\n      add\n      mstore\n      0x5061796f75742063616e6e6f742062652061626f766520312070657263656e74\n      0x44\n      dup3\n      add\n      mstore\n      swap1\n      mload\n      swap1\n      dup2\n      swap1\n      sub\n      0x64\n      add\n      swap1\n      revert\n    tag_153:\n        /* \"daibond/BondDepository.sol\":28738:28753  terms.maxPayout */\n      0x06\n        /* \"daibond/BondDepository.sol\":28738:28762  terms.maxPayout = _input */\n      dup2\n      swap1\n      sstore\n        /* \"daibond/BondDepository.sol\":28598:29159  if (_parameter == PARAMETER.PAYOUT) {... */\n      jump(tag_166)\n    tag_152:\n        /* \"daibond/BondDepository.sol\":28797:28810  PARAMETER.FEE */\n      0x02\n        /* \"daibond/BondDepository.sol\":28783:28793  _parameter */\n      dup3\n        /* \"daibond/BondDepository.sol\":28783:28810  _parameter == PARAMETER.FEE */\n      0x04\n      dup2\n      gt\n      iszero\n      tag_156\n      jumpi\n      invalid\n    tag_156:\n      eq\n        /* \"daibond/BondDepository.sol\":28779:29159  if (_parameter == PARAMETER.FEE) {... */\n      iszero\n      tag_157\n      jumpi\n        /* \"daibond/BondDepository.sol\":28861:28866  10000 */\n      0x2710\n        /* \"daibond/BondDepository.sol\":28851:28857  _input */\n      dup2\n        /* \"daibond/BondDepository.sol\":28851:28866  _input <= 10000 */\n      gt\n      iszero\n        /* \"daibond/BondDepository.sol\":28843:28899  require(_input <= 10000, \"DAO fee cannot exceed payout\") */\n      tag_158\n      jumpi\n      0x40\n      dup1\n      mload\n      shl(0xe5, 0x461bcd)\n      dup2\n      mstore\n      0x20\n      0x04\n      dup3\n      add\n      mstore\n      0x1c\n      0x24\n      dup3\n      add\n      mstore\n      0x44414f206665652063616e6e6f7420657863656564207061796f757400000000\n      0x44\n      dup3\n      add\n      mstore\n      swap1\n      mload\n      swap1\n      dup2\n      swap1\n      sub\n      0x64\n      add\n      swap1\n      revert\n    tag_158:\n        /* \"daibond/BondDepository.sol\":28913:28922  terms.fee */\n      0x07\n        /* \"daibond/BondDepository.sol\":28913:28931  terms.fee = _input */\n      dup2\n      swap1\n      sstore\n        /* \"daibond/BondDepository.sol\":28779:29159  if (_parameter == PARAMETER.FEE) {... */\n      jump(tag_166)\n    tag_157:\n        /* \"daibond/BondDepository.sol\":28966:28980  PARAMETER.DEBT */\n      0x03\n        /* \"daibond/BondDepository.sol\":28952:28962  _parameter */\n      dup3\n        /* \"daibond/BondDepository.sol\":28952:28980  _parameter == PARAMETER.DEBT */\n      0x04\n      dup2\n      gt\n      iszero\n      tag_161\n      jumpi\n      invalid\n    tag_161:\n      eq\n        /* \"daibond/BondDepository.sol\":28948:29159  if (_parameter == PARAMETER.DEBT) {... */\n      iszero\n      tag_162\n      jumpi\n        /* \"daibond/BondDepository.sol\":29013:29026  terms.maxDebt */\n      0x08\n        /* \"daibond/BondDepository.sol\":29013:29035  terms.maxDebt = _input */\n      dup2\n      swap1\n      sstore\n        /* \"daibond/BondDepository.sol\":28948:29159  if (_parameter == PARAMETER.DEBT) {... */\n      jump(tag_166)\n    tag_162:\n        /* \"daibond/BondDepository.sol\":29070:29088  PARAMETER.MINPRICE */\n      0x04\n        /* \"daibond/BondDepository.sol\":29056:29066  _parameter */\n      dup3\n        /* \"daibond/BondDepository.sol\":29056:29088  _parameter == PARAMETER.MINPRICE */\n      0x04\n      dup2\n      gt\n      iszero\n      tag_165\n      jumpi\n      invalid\n    tag_165:\n      eq\n        /* \"daibond/BondDepository.sol\":29052:29159  if (_parameter == PARAMETER.MINPRICE) {... */\n      iszero\n      tag_166\n      jumpi\n        /* \"daibond/BondDepository.sol\":29121:29139  terms.minimumPrice */\n      0x05\n        /* \"daibond/BondDepository.sol\":29121:29148  terms.minimumPrice = _input */\n      dup2\n      swap1\n      sstore\n        /* \"daibond/BondDepository.sol\":29052:29159  if (_parameter == PARAMETER.MINPRICE) {... */\n    tag_166:\n        /* \"daibond/BondDepository.sol\":28290:29165  function setBondTerms(PARAMETER _parameter, uint256 _input)... */\n      pop\n      pop\n      jump\t// out\n        /* \"daibond/BondDepository.sol\":32836:34098  function redeem(address _recipient, bool _stake)... */\n    tag_62:\n        /* \"daibond/BondDepository.sol\":32919:32926  uint256 */\n      0x00\n        /* \"daibond/BondDepository.sol\":32942:32958  Bond memory info */\n      tag_168\n      tag_169\n      jump\t// in\n    tag_168:\n      pop\n      sub(shl(0xa0, 0x01), 0x01)\n        /* \"daibond/BondDepository.sol\":32961:32981  bondInfo[_recipient] */\n      dup4\n      and\n      0x00\n      swap1\n      dup2\n      mstore\n        /* \"daibond/BondDepository.sol\":32961:32969  bondInfo */\n      0x0e\n        /* \"daibond/BondDepository.sol\":32961:32981  bondInfo[_recipient] */\n      0x20\n      swap1\n      dup2\n      mstore\n      0x40\n      dup1\n      dup4\n      keccak256\n        /* \"daibond/BondDepository.sol\":32942:32981  Bond memory info = bondInfo[_recipient] */\n      dup2\n      mload\n      0x80\n      dup2\n      add\n      dup4\n      mstore\n      dup2\n      sload\n      dup2\n      mstore\n      0x01\n      dup3\n      add\n      sload\n      swap4\n      dup2\n      add\n      swap4\n      swap1\n      swap4\n      mstore\n      0x02\n      add\n      sload\n      0xffffffff\n      dup1\n      dup3\n      and\n      swap3\n      dup5\n      add\n      swap3\n      swap1\n      swap3\n      mstore\n      0x0100000000\n      swap1\n      div\n      and\n      0x60\n      dup3\n      add\n      mstore\n      swap1\n        /* \"daibond/BondDepository.sol\":33084:33112  percentVestedFor(_recipient) */\n      tag_170\n        /* \"daibond/BondDepository.sol\":32970:32980  _recipient */\n      dup6\n        /* \"daibond/BondDepository.sol\":33084:33100  percentVestedFor */\n      tag_76\n        /* \"daibond/BondDepository.sol\":33084:33112  percentVestedFor(_recipient) */\n      jump\t// in\n    tag_170:\n        /* \"daibond/BondDepository.sol\":33060:33112  uint256 percentVested = percentVestedFor(_recipient) */\n      swap1\n      pop\n        /* \"daibond/BondDepository.sol\":33144:33149  10000 */\n      0x2710\n        /* \"daibond/BondDepository.sol\":33127:33140  percentVested */\n      dup2\n        /* \"daibond/BondDepository.sol\":33127:33149  percentVested >= 10000 */\n      lt\n        /* \"daibond/BondDepository.sol\":33123:34092  if (percentVested >= 10000) {... */\n      tag_171\n      jumpi\n      sub(shl(0xa0, 0x01), 0x01)\n        /* \"daibond/BondDepository.sol\":33203:33223  bondInfo[_recipient] */\n      dup6\n      and\n      0x00\n      dup2\n      dup2\n      mstore\n        /* \"daibond/BondDepository.sol\":33203:33211  bondInfo */\n      0x0e\n        /* \"daibond/BondDepository.sol\":33203:33223  bondInfo[_recipient] */\n      0x20\n      swap1\n      dup2\n      mstore\n      0x40\n      dup1\n      dup4\n      keccak256\n        /* \"daibond/BondDepository.sol\":33196:33223  delete bondInfo[_recipient] */\n      dup4\n      dup2\n      sstore\n      0x01\n      dup2\n      add\n      dup5\n      swap1\n      sstore\n      0x02\n      add\n      dup1\n      sload\n      not(0xffffffffffffffff)\n      and\n      swap1\n      sstore\n        /* \"daibond/BondDepository.sol\":33287:33298  info.payout */\n      dup6\n      mload\n        /* \"daibond/BondDepository.sol\":33262:33302  BondRedeemed(_recipient, info.payout, 0) */\n      dup2\n      mload\n      swap1\n      dup2\n      mstore\n      swap2\n      dup3\n      add\n      swap3\n      swap1\n      swap3\n      mstore\n      dup2\n      mload\n      0x51c99f515c87b0d95ba97f616edd182e8f161c4932eac17c6fefe9dab58b77b1\n      swap3\n      swap2\n      dup2\n      swap1\n      sub\n      swap1\n      swap2\n      add\n      swap1\n      log2\n        /* \"daibond/BondDepository.sol\":33341:33385  stakeOrSend(_recipient, _stake, info.payout) */\n      tag_172\n        /* \"daibond/BondDepository.sol\":33353:33363  _recipient */\n      dup6\n        /* \"daibond/BondDepository.sol\":33365:33371  _stake */\n      dup6\n        /* \"daibond/BondDepository.sol\":33373:33377  info */\n      dup5\n        /* \"daibond/BondDepository.sol\":33373:33384  info.payout */\n      0x00\n      add\n      mload\n        /* \"daibond/BondDepository.sol\":33341:33352  stakeOrSend */\n      tag_173\n        /* \"daibond/BondDepository.sol\":33341:33385  stakeOrSend(_recipient, _stake, info.payout) */\n      jump\t// in\n    tag_172:\n        /* \"daibond/BondDepository.sol\":33334:33385  return stakeOrSend(_recipient, _stake, info.payout) */\n      swap3\n      pop\n      pop\n      pop\n      jump(tag_167)\n        /* \"daibond/BondDepository.sol\":33123:34092  if (percentVested >= 10000) {... */\n    tag_171:\n        /* \"daibond/BondDepository.sol\":33528:33539  info.payout */\n      dup2\n      mload\n        /* \"daibond/BondDepository.sol\":33511:33525  uint256 payout */\n      0x00\n      swap1\n        /* \"daibond/BondDepository.sol\":33528:33569  info.payout.mul(percentVested).div(10000) */\n      tag_175\n      swap1\n        /* \"daibond/BondDepository.sol\":33563:33568  10000 */\n      0x2710\n      swap1\n        /* \"daibond/BondDepository.sol\":33528:33558  info.payout.mul(percentVested) */\n      tag_135\n      swap1\n        /* \"daibond/BondDepository.sol\":33544:33557  percentVested */\n      dup6\n        /* \"daibond/BondDepository.sol\":33528:33543  info.payout.mul */\n      tag_136\n        /* \"daibond/BondDepository.sol\":33528:33558  info.payout.mul(percentVested) */\n      jump\t// in\n        /* \"daibond/BondDepository.sol\":33528:33569  info.payout.mul(percentVested).div(10000) */\n    tag_175:\n        /* \"daibond/BondDepository.sol\":33511:33569  uint256 payout = info.payout.mul(percentVested).div(10000) */\n      swap1\n      pop\n        /* \"daibond/BondDepository.sol\":33648:33940  Bond({... */\n      mload(0x40)\n      dup1\n      0x80\n      add\n      0x40\n      mstore\n      dup1\n        /* \"daibond/BondDepository.sol\":33679:33702  info.payout.sub(payout) */\n      tag_177\n        /* \"daibond/BondDepository.sol\":33695:33701  payout */\n      dup4\n        /* \"daibond/BondDepository.sol\":33679:33683  info */\n      dup7\n        /* \"daibond/BondDepository.sol\":33679:33690  info.payout */\n      0x00\n      add\n      mload\n        /* \"daibond/BondDepository.sol\":33679:33694  info.payout.sub */\n      tag_178\n      swap1\n        /* \"daibond/BondDepository.sol\":33679:33702  info.payout.sub(payout) */\n      swap2\n      swap1\n      0xffffffff\n      and\n      jump\t// in\n    tag_177:\n        /* \"daibond/BondDepository.sol\":33648:33940  Bond({... */\n      dup2\n      mstore\n      0x20\n      add\n        /* \"daibond/BondDepository.sol\":33911:33915  info */\n      dup5\n        /* \"daibond/BondDepository.sol\":33911:33925  info.pricePaid */\n      0x20\n      add\n      mload\n        /* \"daibond/BondDepository.sol\":33648:33940  Bond({... */\n      dup2\n      mstore\n      0x20\n      add\n        /* \"daibond/BondDepository.sol\":33866:33881  block.timestamp */\n      timestamp\n        /* \"daibond/BondDepository.sol\":33648:33940  Bond({... */\n      0xffffffff\n      and\n      dup2\n      mstore\n      0x20\n      add\n        /* \"daibond/BondDepository.sol\":33729:33831  info.vesting.sub32(... */\n      tag_179\n        /* \"daibond/BondDepository.sol\":33769:33813  uint32(block.timestamp).sub32(info.lastTime) */\n      tag_180\n        /* \"daibond/BondDepository.sol\":33799:33803  info */\n      dup7\n        /* \"daibond/BondDepository.sol\":33799:33812  info.lastTime */\n      0x40\n      add\n      mload\n        /* \"daibond/BondDepository.sol\":33776:33791  block.timestamp */\n      timestamp\n        /* \"daibond/BondDepository.sol\":33769:33798  uint32(block.timestamp).sub32 */\n      0xffffffff\n      and\n      tag_181\n      swap1\n        /* \"daibond/BondDepository.sol\":33769:33813  uint32(block.timestamp).sub32(info.lastTime) */\n      swap2\n      swap1\n      0xffffffff\n      and\n      jump\t// in\n    tag_180:\n        /* \"daibond/BondDepository.sol\":33729:33733  info */\n      dup7\n        /* \"daibond/BondDepository.sol\":33729:33741  info.vesting */\n      0x60\n      add\n      mload\n        /* \"daibond/BondDepository.sol\":33729:33747  info.vesting.sub32 */\n      0xffffffff\n      and\n      tag_181\n      swap1\n        /* \"daibond/BondDepository.sol\":33729:33831  info.vesting.sub32(... */\n      swap2\n      swap1\n      0xffffffff\n      and\n      jump\t// in\n    tag_179:\n        /* \"daibond/BondDepository.sol\":33648:33940  Bond({... */\n      0xffffffff\n      swap1\n      dup2\n      and\n      swap1\n      swap2\n      mstore\n      sub(shl(0xa0, 0x01), 0x01)\n        /* \"daibond/BondDepository.sol\":33625:33645  bondInfo[_recipient] */\n      dup9\n      and\n      0x00\n      dup2\n      dup2\n      mstore\n        /* \"daibond/BondDepository.sol\":33625:33633  bondInfo */\n      0x0e\n        /* \"daibond/BondDepository.sol\":33625:33645  bondInfo[_recipient] */\n      0x20\n      swap1\n      dup2\n      mstore\n      0x40\n      swap2\n      dup3\n      swap1\n      keccak256\n        /* \"daibond/BondDepository.sol\":33625:33940  bondInfo[_recipient] = Bond({... */\n      dup6\n      mload\n      dup1\n      dup3\n      sstore\n      dup7\n      dup4\n      add\n      mload\n      0x01\n      dup4\n      add\n      sstore\n      dup7\n      dup5\n      add\n      mload\n      0x02\n      swap1\n      swap3\n      add\n      dup1\n      sload\n      0x60\n      swap1\n      swap9\n      add\n      mload\n      dup8\n      and\n      0x0100000000\n      mul\n      not(0xffffffff00000000)\n      swap4\n      swap1\n      swap8\n      and\n      not(0xffffffff)\n      swap1\n      swap9\n      and\n      swap8\n      swap1\n      swap8\n      or\n      swap2\n      swap1\n      swap2\n      and\n      swap5\n      swap1\n      swap5\n      or\n      swap1\n      swap5\n      sstore\n        /* \"daibond/BondDepository.sol\":33960:34021  BondRedeemed(_recipient, payout, bondInfo[_recipient].payout) */\n      dup1\n      mload\n      dup6\n      dup2\n      mstore\n      swap4\n      dup5\n      add\n      swap3\n      swap1\n      swap3\n      mstore\n      dup2\n      mload\n        /* \"daibond/BondDepository.sol\":33625:33645  bondInfo[_recipient] */\n      swap1\n      swap3\n        /* \"daibond/BondDepository.sol\":33960:34021  BondRedeemed(_recipient, payout, bondInfo[_recipient].payout) */\n      0x51c99f515c87b0d95ba97f616edd182e8f161c4932eac17c6fefe9dab58b77b1\n      swap3\n      swap1\n      dup3\n      swap1\n      sub\n      add\n      swap1\n      log2\n        /* \"daibond/BondDepository.sol\":34042:34081  stakeOrSend(_recipient, _stake, payout) */\n      tag_182\n        /* \"daibond/BondDepository.sol\":34054:34064  _recipient */\n      dup7\n        /* \"daibond/BondDepository.sol\":34066:34072  _stake */\n      dup7\n        /* \"daibond/BondDepository.sol\":34074:34080  payout */\n      dup4\n        /* \"daibond/BondDepository.sol\":34042:34053  stakeOrSend */\n      tag_173\n        /* \"daibond/BondDepository.sol\":34042:34081  stakeOrSend(_recipient, _stake, payout) */\n      jump\t// in\n    tag_182:\n        /* \"daibond/BondDepository.sol\":34035:34081  return stakeOrSend(_recipient, _stake, payout) */\n      swap4\n      pop\n      pop\n      pop\n      pop\n        /* \"daibond/BondDepository.sol\":32836:34098  function redeem(address _recipient, bool _stake)... */\n    tag_167:\n      swap3\n      swap2\n      pop\n      pop\n      jump\t// out\n        /* \"daibond/BondDepository.sol\":24901:24922  bool public useHelper */\n    tag_64:\n      sload(0x03)\n      shl(0xa0, 0x01)\n      swap1\n      div\n      0xff\n      and\n      dup2\n      jump\t// out\n        /* \"daibond/BondDepository.sol\":24310:24339  address public immutable Bash */\n    tag_66:\n      immutable(\"0x666acd29a495e0c7469bb9337e279878b45aede98d38c74aa47b4fc55f5ff1aa\")\n      dup2\n      jump\t// out\n        /* \"daibond/BondDepository.sol\":24983:25007  Adjust public adjustment */\n    tag_68:\n      sload(0x0a)\n      sload(0x0b)\n      sload(0x0c)\n      sload(0x0d)\n      0xff\n      swap1\n      swap4\n      and\n      swap3\n      0xffffffff\n      dup1\n      dup3\n      and\n      swap2\n      0x0100000000\n      swap1\n      div\n      and\n      dup6\n      jump\t// out\n        /* \"daibond/BondDepository.sol\":1126:1445  function pushManagement(address newOwner_)... */\n    tag_71:\n        /* \"daibond/BondDepository.sol\":888:894  _owner */\n      and(sub(shl(0xa0, 0x01), 0x01), sload(0x00))\n        /* \"daibond/BondDepository.sol\":898:908  msg.sender */\n      caller\n        /* \"daibond/BondDepository.sol\":888:908  _owner == msg.sender */\n      eq\n        /* \"daibond/BondDepository.sol\":880:945  require(_owner == msg.sender, \"Ownable: caller is not the owner\") */\n      tag_184\n      jumpi\n      0x40\n      dup1\n      mload\n      shl(0xe5, 0x461bcd)\n      dup2\n      mstore\n      0x20\n      0x04\n      dup3\n      add\n      dup2\n      swap1\n      mstore\n      0x24\n      dup3\n      add\n      mstore\n      0x4f776e61626c653a2063616c6c6572206973206e6f7420746865206f776e6572\n      0x44\n      dup3\n      add\n      mstore\n      swap1\n      mload\n      swap1\n      dup2\n      swap1\n      sub\n      0x64\n      add\n      swap1\n      revert\n    tag_184:\n      sub(shl(0xa0, 0x01), 0x01)\n        /* \"daibond/BondDepository.sol\":1271:1294  newOwner_ != address(0) */\n      dup2\n      and\n        /* \"daibond/BondDepository.sol\":1250:1358  require(... */\n      tag_186\n      jumpi\n      mload(0x40)\n      shl(0xe5, 0x461bcd)\n      dup2\n      mstore\n      0x04\n      add\n      dup1\n      dup1\n      0x20\n      add\n      dup3\n      dup2\n      sub\n      dup3\n      mstore\n      0x26\n      dup2\n      mstore\n      0x20\n      add\n      dup1\n      data_245f15ff17f551913a7a18385165551503906a406f905ac1c2437281a7cd0cfe\n      0x26\n      swap2\n      codecopy\n      0x40\n      add\n      swap2\n      pop\n      pop\n      mload(0x40)\n      dup1\n      swap2\n      sub\n      swap1\n      revert\n    tag_186:\n        /* \"daibond/BondDepository.sol\":1389:1395  _owner */\n      0x00\n      dup1\n      sload\n        /* \"daibond/BondDepository.sol\":1373:1407  OwnershipPushed(_owner, newOwner_) */\n      mload(0x40)\n      sub(shl(0xa0, 0x01), 0x01)\n      dup1\n      dup6\n      and\n      swap4\n        /* \"daibond/BondDepository.sol\":1389:1395  _owner */\n      swap3\n      and\n      swap2\n        /* \"daibond/BondDepository.sol\":1373:1407  OwnershipPushed(_owner, newOwner_) */\n      0xea8258f2d9ddb679928cf34b78cf645b7feda9acc828e4dd82d014eaae270eba\n      swap2\n      log3\n        /* \"daibond/BondDepository.sol\":1417:1426  _newOwner */\n      0x01\n        /* \"daibond/BondDepository.sol\":1417:1438  _newOwner = newOwner_ */\n      dup1\n      sload\n      not(sub(shl(0xa0, 0x01), 0x01))\n      and\n      sub(shl(0xa0, 0x01), 0x01)\n      swap3\n      swap1\n      swap3\n      and\n      swap2\n      swap1\n      swap2\n      or\n      swap1\n      sstore\n        /* \"daibond/BondDepository.sol\":1126:1445  function pushManagement(address newOwner_)... */\n      jump\t// out\n        /* \"daibond/BondDepository.sol\":24772:24794  address public staking */\n    tag_73:\n      and(sub(shl(0xa0, 0x01), 0x01), sload(0x02))\n      dup2\n      jump\t// out\n        /* \"daibond/BondDepository.sol\":39859:40311  function percentVestedFor(address _depositor)... */\n    tag_76:\n        /* \"daibond/BondDepository.sol\":39950:39972  uint256 percentVested_ */\n      0x00\n        /* \"daibond/BondDepository.sol\":39988:40004  Bond memory bond */\n      tag_188\n      tag_169\n      jump\t// in\n    tag_188:\n      pop\n      sub(shl(0xa0, 0x01), 0x01)\n        /* \"daibond/BondDepository.sol\":40007:40027  bondInfo[_depositor] */\n      dup3\n      and\n      0x00\n      swap1\n      dup2\n      mstore\n        /* \"daibond/BondDepository.sol\":40007:40015  bondInfo */\n      0x0e\n        /* \"daibond/BondDepository.sol\":40007:40027  bondInfo[_depositor] */\n      0x20\n      swap1\n      dup2\n      mstore\n      0x40\n      dup1\n      dup4\n      keccak256\n        /* \"daibond/BondDepository.sol\":39988:40027  Bond memory bond = bondInfo[_depositor] */\n      dup2\n      mload\n      0x80\n      dup2\n      add\n      dup4\n      mstore\n      dup2\n      sload\n      dup2\n      mstore\n      0x01\n      dup3\n      add\n      sload\n      swap4\n      dup2\n      add\n      swap4\n      swap1\n      swap4\n      mstore\n      0x02\n      add\n      sload\n      0xffffffff\n      dup1\n      dup3\n      and\n      swap3\n      dup5\n      add\n      dup4\n      swap1\n      mstore\n      0x0100000000\n      swap1\n      swap2\n      div\n      dup2\n      and\n      0x60\n      dup5\n      add\n      mstore\n      swap2\n      swap3\n        /* \"daibond/BondDepository.sol\":40007:40027  bondInfo[_depositor] */\n      swap2\n        /* \"daibond/BondDepository.sol\":40064:40106  uint32(block.timestamp).sub(bond.lastTime) */\n      tag_189\n      swap2\n        /* \"daibond/BondDepository.sol\":40071:40086  block.timestamp */\n      timestamp\n        /* \"daibond/BondDepository.sol\":40064:40091  uint32(block.timestamp).sub */\n      dup3\n      and\n      swap2\n      tag_178\n        /* \"daibond/BondDepository.sol\":40064:40106  uint32(block.timestamp).sub(bond.lastTime) */\n      and\n      jump\t// in\n    tag_189:\n        /* \"daibond/BondDepository.sol\":40134:40146  bond.vesting */\n      0x60\n      dup4\n      add\n      mload\n        /* \"daibond/BondDepository.sol\":40037:40106  uint256 secondsSinceLast = uint32(block.timestamp).sub(bond.lastTime) */\n      swap1\n      swap2\n      pop\n        /* \"daibond/BondDepository.sol\":40116:40146  uint256 vesting = bond.vesting */\n      0xffffffff\n      and\n        /* \"daibond/BondDepository.sol\":40161:40172  vesting > 0 */\n      dup1\n      iszero\n        /* \"daibond/BondDepository.sol\":40157:40305  if (vesting > 0) {... */\n      tag_190\n      jumpi\n        /* \"daibond/BondDepository.sol\":40205:40245  secondsSinceLast.mul(10000).div(vesting) */\n      tag_191\n        /* \"daibond/BondDepository.sol\":40237:40244  vesting */\n      dup2\n        /* \"daibond/BondDepository.sol\":40205:40232  secondsSinceLast.mul(10000) */\n      tag_135\n        /* \"daibond/BondDepository.sol\":40205:40221  secondsSinceLast */\n      dup5\n        /* \"daibond/BondDepository.sol\":40226:40231  10000 */\n      0x2710\n        /* \"daibond/BondDepository.sol\":40205:40225  secondsSinceLast.mul */\n      tag_136\n        /* \"daibond/BondDepository.sol\":40205:40232  secondsSinceLast.mul(10000) */\n      jump\t// in\n        /* \"daibond/BondDepository.sol\":40205:40245  secondsSinceLast.mul(10000).div(vesting) */\n    tag_191:\n        /* \"daibond/BondDepository.sol\":40188:40245  percentVested_ = secondsSinceLast.mul(10000).div(vesting) */\n      swap4\n      pop\n        /* \"daibond/BondDepository.sol\":40157:40305  if (vesting > 0) {... */\n      jump(tag_193)\n    tag_190:\n        /* \"daibond/BondDepository.sol\":40293:40294  0 */\n      0x00\n        /* \"daibond/BondDepository.sol\":40276:40294  percentVested_ = 0 */\n      swap4\n      pop\n        /* \"daibond/BondDepository.sol\":40157:40305  if (vesting > 0) {... */\n    tag_193:\n        /* \"daibond/BondDepository.sol\":39859:40311  function percentVestedFor(address _depositor)... */\n      pop\n      pop\n      pop\n      swap2\n      swap1\n      pop\n      jump\t// out\n        /* \"daibond/BondDepository.sol\":1451:1665  function pullManagement() public virtual override {... */\n    tag_78:\n        /* \"daibond/BondDepository.sol\":1533:1542  _newOwner */\n      and(sub(shl(0xa0, 0x01), 0x01), sload(0x01))\n        /* \"daibond/BondDepository.sol\":1519:1529  msg.sender */\n      caller\n        /* \"daibond/BondDepository.sol\":1519:1542  msg.sender == _newOwner */\n      eq\n        /* \"daibond/BondDepository.sol\":1511:1581  require(msg.sender == _newOwner, \"Ownable: must be new owner to pull\") */\n      tag_195\n      jumpi\n      mload(0x40)\n      shl(0xe5, 0x461bcd)\n      dup2\n      mstore\n      0x04\n      add\n      dup1\n      dup1\n      0x20\n      add\n      dup3\n      dup2\n      sub\n      dup3\n      mstore\n      0x22\n      dup2\n      mstore\n      0x20\n      add\n      dup1\n      data_4de71fbd3469e1b7fc89a70805ae86972c680281e629f271ab7471fd6321445c\n      0x22\n      swap2\n      codecopy\n      0x40\n      add\n      swap2\n      pop\n      pop\n      mload(0x40)\n      dup1\n      swap2\n      sub\n      swap1\n      revert\n    tag_195:\n        /* \"daibond/BondDepository.sol\":1620:1629  _newOwner */\n      sload(0x01)\n      0x00\n        /* \"daibond/BondDepository.sol\":1612:1618  _owner */\n      dup1\n      sload\n        /* \"daibond/BondDepository.sol\":1596:1630  OwnershipPulled(_owner, _newOwner) */\n      mload(0x40)\n      sub(shl(0xa0, 0x01), 0x01)\n        /* \"daibond/BondDepository.sol\":1620:1629  _newOwner */\n      swap4\n      dup5\n      and\n      swap4\n        /* \"daibond/BondDepository.sol\":1612:1618  _owner */\n      swap1\n      swap2\n      and\n      swap2\n        /* \"daibond/BondDepository.sol\":1596:1630  OwnershipPulled(_owner, _newOwner) */\n      0xaa151555690c956fc3ea32f106bb9f119b5237a061eaa8557cff3e51e3792c8d\n      swap2\n      log3\n        /* \"daibond/BondDepository.sol\":1649:1658  _newOwner */\n      sload(0x01)\n      0x00\n        /* \"daibond/BondDepository.sol\":1640:1658  _owner = _newOwner */\n      dup1\n      sload\n      not(sub(shl(0xa0, 0x01), 0x01))\n      and\n      sub(shl(0xa0, 0x01), 0x01)\n        /* \"daibond/BondDepository.sol\":1649:1658  _newOwner */\n      swap1\n      swap3\n      and\n        /* \"daibond/BondDepository.sol\":1640:1658  _owner = _newOwner */\n      swap2\n      swap1\n      swap2\n      or\n      swap1\n      sstore\n        /* \"daibond/BondDepository.sol\":1451:1665  function pullManagement() public virtual override {... */\n      jump\t// out\n        /* \"daibond/BondDepository.sol\":24449:24482  address public immutable treasury */\n    tag_80:\n      immutable(\"0x449e2f5e7508d34c0e3e5104a521c043ba399204576497db1b3567c8a164bdfc\")\n      dup2\n      jump\t// out\n        /* \"daibond/BondDepository.sol\":39222:39325  function currentDebt() public view returns (uint256) {... */\n    tag_82:\n        /* \"daibond/BondDepository.sol\":39266:39273  uint256 */\n      0x00\n        /* \"daibond/BondDepository.sol\":39292:39318  totalDebt.sub(debtDecay()) */\n      tag_197\n        /* \"daibond/BondDepository.sol\":39306:39317  debtDecay() */\n      tag_198\n        /* \"daibond/BondDepository.sol\":39306:39315  debtDecay */\n      tag_125\n        /* \"daibond/BondDepository.sol\":39306:39317  debtDecay() */\n      jump\t// in\n    tag_198:\n        /* \"daibond/BondDepository.sol\":39292:39301  totalDebt */\n      sload(0x0f)\n      swap1\n        /* \"daibond/BondDepository.sol\":39292:39305  totalDebt.sub */\n      tag_178\n        /* \"daibond/BondDepository.sol\":39292:39318  totalDebt.sub(debtDecay()) */\n      jump\t// in\n    tag_197:\n        /* \"daibond/BondDepository.sol\":39285:39318  return totalDebt.sub(debtDecay()) */\n      swap1\n      pop\n        /* \"daibond/BondDepository.sol\":39222:39325  function currentDebt() public view returns (uint256) {... */\n      swap1\n      jump\t// out\n        /* \"daibond/BondDepository.sol\":24824:24852  address public stakingHelper */\n    tag_84:\n      and(sub(shl(0xa0, 0x01), 0x01), sload(0x03))\n      dup2\n      jump\t// out\n        /* \"daibond/BondDepository.sol\":36750:37050  function payoutFor(uint256 _value) public view returns (uint256) {... */\n    tag_87:\n        /* \"daibond/BondDepository.sol\":36806:36813  uint256 */\n      0x00\n        /* \"daibond/BondDepository.sol\":36945:37043  FixedPoint.fraction(_value, bondPrice()).decode112with18().div(... */\n      tag_167\n        /* \"daibond/BondDepository.sol\":37025:37029  1e16 */\n      0x2386f26fc10000\n        /* \"daibond/BondDepository.sol\":36945:37003  FixedPoint.fraction(_value, bondPrice()).decode112with18() */\n      tag_135\n        /* \"daibond/BondDepository.sol\":36945:36985  FixedPoint.fraction(_value, bondPrice()) */\n      tag_202\n        /* \"daibond/BondDepository.sol\":36965:36971  _value */\n      dup6\n        /* \"daibond/BondDepository.sol\":36973:36984  bondPrice() */\n      tag_203\n        /* \"daibond/BondDepository.sol\":36973:36982  bondPrice */\n      tag_121\n        /* \"daibond/BondDepository.sol\":36973:36984  bondPrice() */\n      jump\t// in\n    tag_203:\n        /* \"daibond/BondDepository.sol\":36945:36964  FixedPoint.fraction */\n      tag_204\n        /* \"daibond/BondDepository.sol\":36945:36985  FixedPoint.fraction(_value, bondPrice()) */\n      jump\t// in\n    tag_202:\n        /* \"daibond/BondDepository.sol\":36945:37001  FixedPoint.fraction(_value, bondPrice()).decode112with18 */\n      tag_205\n        /* \"daibond/BondDepository.sol\":36945:37003  FixedPoint.fraction(_value, bondPrice()).decode112with18() */\n      jump\t// in\n        /* \"daibond/BondDepository.sol\":37973:38316  function bondPriceInUSD() public view returns (uint256 price_) {... */\n    tag_89:\n        /* \"daibond/BondDepository.sol\":38020:38034  uint256 price_ */\n      0x00\n        /* \"daibond/BondDepository.sol\":38050:38065  isLiquidityBond */\n      immutable(\"0x128221face7165ac636c79241bcc071c00b651aee12c4977c3e09ba4d7241443\")\n        /* \"daibond/BondDepository.sol\":38046:38310  if (isLiquidityBond) {... */\n      iszero\n      tag_207\n      jumpi\n        /* \"daibond/BondDepository.sol\":38090:38201  bondPrice()... */\n      tag_208\n        /* \"daibond/BondDepository.sol\":38197:38200  100 */\n      0x64\n        /* \"daibond/BondDepository.sol\":38090:38175  bondPrice()... */\n      tag_135\n        /* \"daibond/BondDepository.sol\":38139:38153  bondCalculator */\n      immutable(\"0xd23e9efc23800776cf8d3669751fafa9f7c61baf4abbaf310045071b5e6148b9\")\n      sub(shl(0xa0, 0x01), 0x01)\n        /* \"daibond/BondDepository.sol\":38123:38163  IBondCalculator(bondCalculator).markdown */\n      and\n      0x32da80a3\n        /* \"daibond/BondDepository.sol\":38164:38173  principle */\n      immutable(\"0xa07c19efc73020733d74df24211ba72aa9c07ba4a2ae13ac79a338a4d8b59fe5\")\n        /* \"daibond/BondDepository.sol\":38123:38174  IBondCalculator(bondCalculator).markdown(principle) */\n      mload(0x40)\n      dup3\n      0xffffffff\n      and\n      0xe0\n      shl\n      dup2\n      mstore\n      0x04\n      add\n      dup1\n      dup3\n      sub(shl(0xa0, 0x01), 0x01)\n      and\n      dup2\n      mstore\n      0x20\n      add\n      swap2\n      pop\n      pop\n      0x20\n      mload(0x40)\n      dup1\n      dup4\n      sub\n      dup2\n      dup7\n      dup1\n      extcodesize\n      iszero\n      dup1\n      iszero\n      tag_210\n      jumpi\n      0x00\n      dup1\n      revert\n    tag_210:\n      pop\n      gas\n      staticcall\n      iszero\n      dup1\n      iszero\n      tag_212\n      jumpi\n      returndatasize\n      0x00\n      dup1\n      returndatacopy\n      revert(0x00, returndatasize)\n    tag_212:\n      pop\n      pop\n      pop\n      pop\n      mload(0x40)\n      returndatasize\n      0x20\n      dup2\n      lt\n      iszero\n      tag_213\n      jumpi\n      0x00\n      dup1\n      revert\n    tag_213:\n      pop\n      mload\n        /* \"daibond/BondDepository.sol\":38090:38101  bondPrice() */\n      tag_214\n        /* \"daibond/BondDepository.sol\":38090:38099  bondPrice */\n      tag_121\n        /* \"daibond/BondDepository.sol\":38090:38101  bondPrice() */\n      jump\t// in\n    tag_214:\n        /* \"daibond/BondDepository.sol\":38090:38122  bondPrice()... */\n      swap1\n      tag_136\n        /* \"daibond/BondDepository.sol\":38090:38175  bondPrice()... */\n      jump\t// in\n        /* \"daibond/BondDepository.sol\":38090:38201  bondPrice()... */\n    tag_208:\n        /* \"daibond/BondDepository.sol\":38081:38201  price_ = bondPrice()... */\n      swap1\n      pop\n        /* \"daibond/BondDepository.sol\":38046:38310  if (isLiquidityBond) {... */\n      jump(tag_138)\n    tag_207:\n        /* \"daibond/BondDepository.sol\":38241:38299  bondPrice().mul(10**IERC20(principle).decimals()).div(100) */\n      tag_197\n        /* \"daibond/BondDepository.sol\":38295:38298  100 */\n      0x64\n        /* \"daibond/BondDepository.sol\":38241:38290  bondPrice().mul(10**IERC20(principle).decimals()) */\n      tag_135\n        /* \"daibond/BondDepository.sol\":38268:38277  principle */\n      immutable(\"0xa07c19efc73020733d74df24211ba72aa9c07ba4a2ae13ac79a338a4d8b59fe5\")\n      sub(shl(0xa0, 0x01), 0x01)\n        /* \"daibond/BondDepository.sol\":38261:38287  IERC20(principle).decimals */\n      and\n      0x313ce567\n        /* \"daibond/BondDepository.sol\":38261:38289  IERC20(principle).decimals() */\n      mload(0x40)\n      dup2\n      0xffffffff\n      and\n      0xe0\n      shl\n      dup2\n      mstore\n      0x04\n      add\n      0x20\n      mload(0x40)\n      dup1\n      dup4\n      sub\n      dup2\n      dup7\n      dup1\n      extcodesize\n      iszero\n      dup1\n      iszero\n      tag_218\n      jumpi\n      0x00\n      dup1\n      revert\n    tag_218:\n      pop\n      gas\n      staticcall\n      iszero\n      dup1\n      iszero\n      tag_220\n      jumpi\n      returndatasize\n      0x00\n      dup1\n      returndatacopy\n      revert(0x00, returndatasize)\n    tag_220:\n      pop\n      pop\n      pop\n      pop\n      mload(0x40)\n      returndatasize\n      0x20\n      dup2\n      lt\n      iszero\n      tag_221\n      jumpi\n      0x00\n      dup1\n      revert\n    tag_221:\n      pop\n      mload\n        /* \"daibond/BondDepository.sol\":38257:38289  10**IERC20(principle).decimals() */\n      0xff\n      and\n        /* \"daibond/BondDepository.sol\":38257:38259  10 */\n      0x0a\n        /* \"daibond/BondDepository.sol\":38257:38289  10**IERC20(principle).decimals() */\n      exp\n        /* \"daibond/BondDepository.sol\":38241:38252  bondPrice() */\n      tag_214\n        /* \"daibond/BondDepository.sol\":38241:38250  bondPrice */\n      tag_121\n        /* \"daibond/BondDepository.sol\":38241:38252  bondPrice() */\n      jump\t// in\n        /* \"daibond/BondDepository.sol\":30348:32695  function deposit(... */\n    tag_92:\n        /* \"daibond/BondDepository.sol\":30469:30476  uint256 */\n      0x00\n      sub(shl(0xa0, 0x01), 0x01)\n        /* \"daibond/BondDepository.sol\":30496:30520  _depositor != address(0) */\n      dup3\n      and\n        /* \"daibond/BondDepository.sol\":30488:30540  require(_depositor != address(0), \"Invalid address\") */\n      tag_224\n      jumpi\n      0x40\n      dup1\n      mload\n      shl(0xe5, 0x461bcd)\n      dup2\n      mstore\n      0x20\n      0x04\n      dup3\n      add\n      mstore\n      0x0f\n      0x24\n      dup3\n      add\n      mstore\n      0x496e76616c696420616464726573730000000000000000000000000000000000\n      0x44\n      dup3\n      add\n      mstore\n      swap1\n      mload\n      swap1\n      dup2\n      swap1\n      sub\n      0x64\n      add\n      swap1\n      revert\n    tag_224:\n        /* \"daibond/BondDepository.sol\":30551:30562  decayDebt() */\n      tag_225\n        /* \"daibond/BondDepository.sol\":30551:30560  decayDebt */\n      tag_226\n        /* \"daibond/BondDepository.sol\":30551:30562  decayDebt() */\n      jump\t// in\n    tag_225:\n        /* \"daibond/BondDepository.sol\":30593:30606  terms.maxDebt */\n      sload(0x08)\n        /* \"daibond/BondDepository.sol\":30580:30589  totalDebt */\n      sload(0x0f)\n        /* \"daibond/BondDepository.sol\":30580:30606  totalDebt <= terms.maxDebt */\n      gt\n      iszero\n        /* \"daibond/BondDepository.sol\":30572:30631  require(totalDebt <= terms.maxDebt, \"Max capacity reached\") */\n      tag_227\n      jumpi\n      0x40\n      dup1\n      mload\n      shl(0xe5, 0x461bcd)\n      dup2\n      mstore\n      0x20\n      0x04\n      dup3\n      add\n      mstore\n      0x14\n      0x24\n      dup3\n      add\n      mstore\n      0x4d61782063617061636974792072656163686564000000000000000000000000\n      0x44\n      dup3\n      add\n      mstore\n      swap1\n      mload\n      swap1\n      dup2\n      swap1\n      sub\n      0x64\n      add\n      swap1\n      revert\n    tag_227:\n        /* \"daibond/BondDepository.sol\":30642:30660  uint256 priceInUSD */\n      0x00\n        /* \"daibond/BondDepository.sol\":30663:30679  bondPriceInUSD() */\n      tag_228\n        /* \"daibond/BondDepository.sol\":30663:30677  bondPriceInUSD */\n      tag_89\n        /* \"daibond/BondDepository.sol\":30663:30679  bondPriceInUSD() */\n      jump\t// in\n    tag_228:\n        /* \"daibond/BondDepository.sol\":30642:30679  uint256 priceInUSD = bondPriceInUSD() */\n      swap1\n      pop\n        /* \"daibond/BondDepository.sol\":30712:30731  uint256 nativePrice */\n      0x00\n        /* \"daibond/BondDepository.sol\":30734:30746  _bondPrice() */\n      tag_229\n        /* \"daibond/BondDepository.sol\":30734:30744  _bondPrice */\n      tag_230\n        /* \"daibond/BondDepository.sol\":30734:30746  _bondPrice() */\n      jump\t// in\n    tag_229:\n        /* \"daibond/BondDepository.sol\":30712:30746  uint256 nativePrice = _bondPrice() */\n      swap1\n      pop\n        /* \"daibond/BondDepository.sol\":30791:30802  nativePrice */\n      dup1\n        /* \"daibond/BondDepository.sol\":30778:30787  _maxPrice */\n      dup6\n        /* \"daibond/BondDepository.sol\":30778:30802  _maxPrice >= nativePrice */\n      lt\n      iszero\n        /* \"daibond/BondDepository.sol\":30757:30863  require(... */\n      tag_231\n      jumpi\n      mload(0x40)\n      shl(0xe5, 0x461bcd)\n      dup2\n      mstore\n      0x04\n      add\n      dup1\n      dup1\n      0x20\n      add\n      dup3\n      dup2\n      sub\n      dup3\n      mstore\n      0x23\n      dup2\n      mstore\n      0x20\n      add\n      dup1\n      data_9b1eacaf7b3b2d412df286fef87f078c0c28d492dea75275391ee8422db5360c\n      0x23\n      swap2\n      codecopy\n      0x40\n      add\n      swap2\n      pop\n      pop\n      mload(0x40)\n      dup1\n      swap2\n      sub\n      swap1\n      revert\n    tag_231:\n        /* \"daibond/BondDepository.sol\":30897:30910  uint256 value */\n      0x00\n        /* \"daibond/BondDepository.sol\":30923:30931  treasury */\n      immutable(\"0x449e2f5e7508d34c0e3e5104a521c043ba399204576497db1b3567c8a164bdfc\")\n      sub(shl(0xa0, 0x01), 0x01)\n        /* \"daibond/BondDepository.sol\":30913:30943  ITreasury(treasury).tokenValue */\n      and\n      0xf1821783\n        /* \"daibond/BondDepository.sol\":30944:30953  principle */\n      immutable(\"0xa07c19efc73020733d74df24211ba72aa9c07ba4a2ae13ac79a338a4d8b59fe5\")\n        /* \"daibond/BondDepository.sol\":30955:30962  _amount */\n      dup10\n        /* \"daibond/BondDepository.sol\":30913:30963  ITreasury(treasury).tokenValue(principle, _amount) */\n      mload(0x40)\n      dup4\n      0xffffffff\n      and\n      0xe0\n      shl\n      dup2\n      mstore\n      0x04\n      add\n      dup1\n      dup4\n      sub(shl(0xa0, 0x01), 0x01)\n      and\n      dup2\n      mstore\n      0x20\n      add\n      dup3\n      dup2\n      mstore\n      0x20\n      add\n      swap3\n      pop\n      pop\n      pop\n      0x20\n      mload(0x40)\n      dup1\n      dup4\n      sub\n      dup2\n      dup7\n      dup1\n      extcodesize\n      iszero\n      dup1\n      iszero\n      tag_232\n      jumpi\n      0x00\n      dup1\n      revert\n    tag_232:\n      pop\n      gas\n      staticcall\n      iszero\n      dup1\n      iszero\n      tag_234\n      jumpi\n      returndatasize\n      0x00\n      dup1\n      returndatacopy\n      revert(0x00, returndatasize)\n    tag_234:\n      pop\n      pop\n      pop\n      pop\n      mload(0x40)\n      returndatasize\n      0x20\n      dup2\n      lt\n      iszero\n      tag_235\n      jumpi\n      0x00\n      dup1\n      revert\n    tag_235:\n      pop\n      mload\n      swap1\n      pop\n        /* \"daibond/BondDepository.sol\":31003:31017  uint256 payout */\n      0x00\n        /* \"daibond/BondDepository.sol\":31020:31036  payoutFor(value) */\n      tag_236\n        /* \"daibond/BondDepository.sol\":30913:30963  ITreasury(treasury).tokenValue(principle, _amount) */\n      dup3\n        /* \"daibond/BondDepository.sol\":31020:31029  payoutFor */\n      tag_87\n        /* \"daibond/BondDepository.sol\":31020:31036  payoutFor(value) */\n      jump\t// in\n    tag_236:\n        /* \"daibond/BondDepository.sol\":31003:31036  uint256 payout = payoutFor(value) */\n      swap1\n      pop\n        /* \"daibond/BondDepository.sol\":31097:31105  10000000 */\n      0x989680\n        /* \"daibond/BondDepository.sol\":31087:31093  payout */\n      dup2\n        /* \"daibond/BondDepository.sol\":31087:31105  payout >= 10000000 */\n      lt\n      iszero\n        /* \"daibond/BondDepository.sol\":31079:31124  require(payout >= 10000000, \"Bond too small\") */\n      tag_237\n      jumpi\n      0x40\n      dup1\n      mload\n      shl(0xe5, 0x461bcd)\n      dup2\n      mstore\n      0x20\n      0x04\n      dup3\n      add\n      mstore\n      0x0e\n      0x24\n      dup3\n      add\n      mstore\n      0x426f6e6420746f6f20736d616c6c000000000000000000000000000000000000\n      0x44\n      dup3\n      add\n      mstore\n      swap1\n      mload\n      swap1\n      dup2\n      swap1\n      sub\n      0x64\n      add\n      swap1\n      revert\n    tag_237:\n        /* \"daibond/BondDepository.sol\":31200:31211  maxPayout() */\n      tag_238\n        /* \"daibond/BondDepository.sol\":31200:31209  maxPayout */\n      tag_123\n        /* \"daibond/BondDepository.sol\":31200:31211  maxPayout() */\n      jump\t// in\n    tag_238:\n        /* \"daibond/BondDepository.sol\":31190:31196  payout */\n      dup2\n        /* \"daibond/BondDepository.sol\":31190:31211  payout <= maxPayout() */\n      gt\n      iszero\n        /* \"daibond/BondDepository.sol\":31182:31230  require(payout <= maxPayout(), \"Bond too large\") */\n      tag_239\n      jumpi\n      0x40\n      dup1\n      mload\n      shl(0xe5, 0x461bcd)\n      dup2\n      mstore\n      0x20\n      0x04\n      dup3\n      add\n      mstore\n      0x0e\n      0x24\n      dup3\n      add\n      mstore\n      0x426f6e6420746f6f206c61726765000000000000000000000000000000000000\n      0x44\n      dup3\n      add\n      mstore\n      swap1\n      mload\n      swap1\n      dup2\n      swap1\n      sub\n      0x64\n      add\n      swap1\n      revert\n    tag_239:\n        /* \"daibond/BondDepository.sol\":31323:31334  uint256 fee */\n      0x00\n        /* \"daibond/BondDepository.sol\":31337:31369  payout.mul(terms.fee).div(10000) */\n      tag_240\n        /* \"daibond/BondDepository.sol\":31363:31368  10000 */\n      0x2710\n        /* \"daibond/BondDepository.sol\":31337:31358  payout.mul(terms.fee) */\n      tag_135\n        /* \"daibond/BondDepository.sol\":31348:31353  terms */\n      0x04\n        /* \"daibond/BondDepository.sol\":31348:31357  terms.fee */\n      0x03\n      add\n      sload\n        /* \"daibond/BondDepository.sol\":31337:31343  payout */\n      dup6\n        /* \"daibond/BondDepository.sol\":31337:31347  payout.mul */\n      tag_136\n      swap1\n        /* \"daibond/BondDepository.sol\":31337:31358  payout.mul(terms.fee) */\n      swap2\n      swap1\n      0xffffffff\n      and\n      jump\t// in\n        /* \"daibond/BondDepository.sol\":31337:31369  payout.mul(terms.fee).div(10000) */\n    tag_240:\n        /* \"daibond/BondDepository.sol\":31323:31369  uint256 fee = payout.mul(terms.fee).div(10000) */\n      swap1\n      pop\n        /* \"daibond/BondDepository.sol\":31379:31393  uint256 profit */\n      0x00\n        /* \"daibond/BondDepository.sol\":31396:31422  value.sub(payout).sub(fee) */\n      tag_242\n        /* \"daibond/BondDepository.sol\":31323:31369  uint256 fee = payout.mul(terms.fee).div(10000) */\n      dup3\n        /* \"daibond/BondDepository.sol\":31396:31413  value.sub(payout) */\n      tag_243\n        /* \"daibond/BondDepository.sol\":31396:31401  value */\n      dup7\n        /* \"daibond/BondDepository.sol\":31406:31412  payout */\n      dup7\n        /* \"daibond/BondDepository.sol\":31396:31405  value.sub */\n      tag_178\n        /* \"daibond/BondDepository.sol\":31396:31413  value.sub(payout) */\n      jump\t// in\n    tag_243:\n        /* \"daibond/BondDepository.sol\":31396:31417  value.sub(payout).sub */\n      swap1\n      tag_178\n        /* \"daibond/BondDepository.sol\":31396:31422  value.sub(payout).sub(fee) */\n      jump\t// in\n    tag_242:\n        /* \"daibond/BondDepository.sol\":31379:31422  uint256 profit = value.sub(payout).sub(fee) */\n      swap1\n      pop\n        /* \"daibond/BondDepository.sol\":31597:31667  IERC20(principle).safeTransferFrom(msg.sender, address(this), _amount) */\n      tag_244\n      sub(shl(0xa0, 0x01), 0x01)\n        /* \"daibond/BondDepository.sol\":31604:31613  principle */\n      immutable(\"0xa07c19efc73020733d74df24211ba72aa9c07ba4a2ae13ac79a338a4d8b59fe5\")\n        /* \"daibond/BondDepository.sol\":31597:31631  IERC20(principle).safeTransferFrom */\n      and\n        /* \"daibond/BondDepository.sol\":31632:31642  msg.sender */\n      caller\n        /* \"daibond/BondDepository.sol\":31652:31656  this */\n      address\n        /* \"daibond/BondDepository.sol\":31659:31666  _amount */\n      dup14\n        /* \"daibond/BondDepository.sol\":31597:31631  IERC20(principle).safeTransferFrom */\n      tag_245\n        /* \"daibond/BondDepository.sol\":31597:31667  IERC20(principle).safeTransferFrom(msg.sender, address(this), _amount) */\n      jump\t// in\n    tag_244:\n        /* \"daibond/BondDepository.sol\":31684:31693  principle */\n      immutable(\"0xa07c19efc73020733d74df24211ba72aa9c07ba4a2ae13ac79a338a4d8b59fe5\")\n      sub(shl(0xa0, 0x01), 0x01)\n        /* \"daibond/BondDepository.sol\":31677:31702  IERC20(principle).approve */\n      and\n      0x095ea7b3\n        /* \"daibond/BondDepository.sol\":31711:31719  treasury */\n      immutable(\"0x449e2f5e7508d34c0e3e5104a521c043ba399204576497db1b3567c8a164bdfc\")\n        /* \"daibond/BondDepository.sol\":31722:31729  _amount */\n      dup13\n        /* \"daibond/BondDepository.sol\":31677:31730  IERC20(principle).approve(address(treasury), _amount) */\n      mload(0x40)\n      dup4\n      0xffffffff\n      and\n      0xe0\n      shl\n      dup2\n      mstore\n      0x04\n      add\n      dup1\n      dup4\n      sub(shl(0xa0, 0x01), 0x01)\n      and\n      dup2\n      mstore\n      0x20\n      add\n      dup3\n      dup2\n      mstore\n      0x20\n      add\n      swap3\n      pop\n      pop\n      pop\n      0x20\n      mload(0x40)\n      dup1\n      dup4\n      sub\n      dup2\n      0x00\n      dup8\n      dup1\n      extcodesize\n      iszero\n      dup1\n      iszero\n      tag_246\n      jumpi\n      0x00\n      dup1\n      revert\n    tag_246:\n      pop\n      gas\n      call\n      iszero\n      dup1\n      iszero\n      tag_248\n      jumpi\n      returndatasize\n      0x00\n      dup1\n      returndatacopy\n      revert(0x00, returndatasize)\n    tag_248:\n      pop\n      pop\n      pop\n      pop\n      mload(0x40)\n      returndatasize\n      0x20\n      dup2\n      lt\n      iszero\n      tag_249\n      jumpi\n      0x00\n      dup1\n      revert\n    tag_249:\n      pop\n      pop\n        /* \"daibond/BondDepository.sol\":31740:31795  ITreasury(treasury).deposit(_amount, principle, profit) */\n      0x40\n      dup1\n      mload\n      0xbc157ac100000000000000000000000000000000000000000000000000000000\n      dup2\n      mstore\n      0x04\n      dup2\n      add\n      dup13\n      swap1\n      mstore\n      sub(shl(0xa0, 0x01), 0x01)\n        /* \"daibond/BondDepository.sol\":31777:31786  principle */\n      immutable(\"0xa07c19efc73020733d74df24211ba72aa9c07ba4a2ae13ac79a338a4d8b59fe5\")\n        /* \"daibond/BondDepository.sol\":31740:31795  ITreasury(treasury).deposit(_amount, principle, profit) */\n      dup2\n      and\n      0x24\n      dup4\n      add\n      mstore\n      0x44\n      dup3\n      add\n      dup5\n      swap1\n      mstore\n      swap2\n      mload\n        /* \"daibond/BondDepository.sol\":31750:31758  treasury */\n      immutable(\"0x449e2f5e7508d34c0e3e5104a521c043ba399204576497db1b3567c8a164bdfc\")\n        /* \"daibond/BondDepository.sol\":31740:31767  ITreasury(treasury).deposit */\n      swap1\n      swap3\n      and\n      swap2\n      0xbc157ac1\n      swap2\n        /* \"daibond/BondDepository.sol\":31740:31795  ITreasury(treasury).deposit(_amount, principle, profit) */\n      0x64\n      dup1\n      dup3\n      add\n      swap3\n        /* \"daibond/BondDepository.sol\":31677:31730  IERC20(principle).approve(address(treasury), _amount) */\n      0x20\n      swap3\n        /* \"daibond/BondDepository.sol\":31740:31795  ITreasury(treasury).deposit(_amount, principle, profit) */\n      swap1\n      swap2\n      swap1\n      dup3\n      swap1\n      sub\n      add\n      dup2\n      0x00\n        /* \"daibond/BondDepository.sol\":31740:31767  ITreasury(treasury).deposit */\n      dup8\n        /* \"daibond/BondDepository.sol\":31740:31795  ITreasury(treasury).deposit(_amount, principle, profit) */\n      dup1\n      extcodesize\n      iszero\n      dup1\n      iszero\n      tag_250\n      jumpi\n      0x00\n      dup1\n      revert\n    tag_250:\n      pop\n      gas\n      call\n      iszero\n      dup1\n      iszero\n      tag_252\n      jumpi\n      returndatasize\n      0x00\n      dup1\n      returndatacopy\n      revert(0x00, returndatasize)\n    tag_252:\n      pop\n      pop\n      pop\n      pop\n      mload(0x40)\n      returndatasize\n      0x20\n      dup2\n      lt\n      iszero\n      tag_253\n      jumpi\n      0x00\n      dup1\n      revert\n    tag_253:\n      pop\n      pop\n        /* \"daibond/BondDepository.sol\":31810:31818  fee != 0 */\n      dup2\n      iszero\n        /* \"daibond/BondDepository.sol\":31806:31921  if (fee != 0) {... */\n      tag_255\n      jumpi\n        /* \"daibond/BondDepository.sol\":31875:31910  IERC20(Bash).safeTransfer(DAO, fee) */\n      tag_255\n      sub(shl(0xa0, 0x01), 0x01)\n        /* \"daibond/BondDepository.sol\":31882:31886  Bash */\n      immutable(\"0x666acd29a495e0c7469bb9337e279878b45aede98d38c74aa47b4fc55f5ff1aa\")\n        /* \"daibond/BondDepository.sol\":31875:31900  IERC20(Bash).safeTransfer */\n      and\n        /* \"daibond/BondDepository.sol\":31901:31904  DAO */\n      immutable(\"0x38b7b61f58f14f07450f1658d7697d2ffee5c2ae614c4752fc225c9ab3f7e9c4\")\n        /* \"daibond/BondDepository.sol\":31906:31909  fee */\n      dup5\n        /* \"daibond/BondDepository.sol\":31875:31900  IERC20(Bash).safeTransfer */\n      tag_256\n        /* \"daibond/BondDepository.sol\":31875:31910  IERC20(Bash).safeTransfer(DAO, fee) */\n      jump\t// in\n    tag_255:\n        /* \"daibond/BondDepository.sol\":31978:31987  totalDebt */\n      sload(0x0f)\n        /* \"daibond/BondDepository.sol\":31978:31998  totalDebt.add(value) */\n      tag_257\n      swap1\n        /* \"daibond/BondDepository.sol\":31992:31997  value */\n      dup6\n        /* \"daibond/BondDepository.sol\":31978:31991  totalDebt.add */\n      tag_258\n        /* \"daibond/BondDepository.sol\":31978:31998  totalDebt.add(value) */\n      jump\t// in\n    tag_257:\n        /* \"daibond/BondDepository.sol\":31966:31975  totalDebt */\n      0x0f\n        /* \"daibond/BondDepository.sol\":31966:31998  totalDebt = totalDebt.add(value) */\n      sstore\n        /* \"daibond/BondDepository.sol\":32147:32346  Bond({... */\n      0x40\n      dup1\n      mload\n      0x80\n      dup2\n      add\n      dup3\n      mstore\n      sub(shl(0xa0, 0x01), 0x01)\n        /* \"daibond/BondDepository.sol\":32174:32194  bondInfo[_depositor] */\n      dup11\n      and\n      0x00\n      swap1\n      dup2\n      mstore\n        /* \"daibond/BondDepository.sol\":32174:32182  bondInfo */\n      0x0e\n        /* \"daibond/BondDepository.sol\":32174:32194  bondInfo[_depositor] */\n      0x20\n      mstore\n      swap2\n      swap1\n      swap2\n      keccak256\n        /* \"daibond/BondDepository.sol\":32174:32201  bondInfo[_depositor].payout */\n      sload\n        /* \"daibond/BondDepository.sol\":32147:32346  Bond({... */\n      dup2\n      swap1\n        /* \"daibond/BondDepository.sol\":32174:32213  bondInfo[_depositor].payout.add(payout) */\n      tag_259\n      swap1\n        /* \"daibond/BondDepository.sol\":32206:32212  payout */\n      dup7\n        /* \"daibond/BondDepository.sol\":32174:32205  bondInfo[_depositor].payout.add */\n      tag_258\n        /* \"daibond/BondDepository.sol\":32174:32213  bondInfo[_depositor].payout.add(payout) */\n      jump\t// in\n    tag_259:\n        /* \"daibond/BondDepository.sol\":32147:32346  Bond({... */\n      dup2\n      mstore\n      0x20\n      dup1\n      dup3\n      add\n      dup10\n      swap1\n      mstore\n      0xffffffff\n        /* \"daibond/BondDepository.sol\":32284:32299  block.timestamp */\n      timestamp\n        /* \"daibond/BondDepository.sol\":32147:32346  Bond({... */\n      dup2\n      dup2\n      and\n      0x40\n      dup1\n      dup7\n      add\n      swap2\n      swap1\n      swap2\n      mstore\n        /* \"daibond/BondDepository.sol\":32236:32253  terms.vestingTerm */\n      0x09\n      dup1\n      sload\n      dup5\n      and\n        /* \"daibond/BondDepository.sol\":32147:32346  Bond({... */\n      0x60\n      swap7\n      dup8\n      add\n      mstore\n      sub(shl(0xa0, 0x01), 0x01)\n        /* \"daibond/BondDepository.sol\":32124:32144  bondInfo[_depositor] */\n      dup16\n      and\n      0x00\n      swap1\n      dup2\n      mstore\n        /* \"daibond/BondDepository.sol\":32124:32132  bondInfo */\n      0x0e\n        /* \"daibond/BondDepository.sol\":32124:32144  bondInfo[_depositor] */\n      dup7\n      mstore\n      dup3\n      swap1\n      keccak256\n        /* \"daibond/BondDepository.sol\":32124:32346  bondInfo[_depositor] = Bond({... */\n      dup8\n      mload\n      dup2\n      sstore\n      swap5\n      dup8\n      add\n      mload\n        /* \"daibond/BondDepository.sol\":32236:32253  terms.vestingTerm */\n      0x01\n        /* \"daibond/BondDepository.sol\":32124:32346  bondInfo[_depositor] = Bond({... */\n      dup7\n      add\n      sstore\n      swap1\n      dup7\n      add\n      mload\n      0x02\n      swap1\n      swap5\n      add\n      dup1\n      sload\n      swap7\n      swap1\n      swap6\n      add\n      mload\n      dup4\n      and\n      0x0100000000\n      mul\n      not(0xffffffff00000000)\n      swap5\n      dup5\n      and\n      not(0xffffffff)\n      swap1\n      swap8\n      and\n      swap7\n      swap1\n      swap7\n      or\n      swap4\n      swap1\n      swap4\n      and\n      swap5\n      swap1\n      swap5\n      or\n      swap1\n      swap3\n      sstore\n        /* \"daibond/BondDepository.sol\":32486:32503  terms.vestingTerm */\n      sload\n        /* \"daibond/BondDepository.sol\":32325:32335  priceInUSD */\n      dup9\n      swap3\n        /* \"daibond/BondDepository.sol\":32466:32504  block.timestamp.add(terms.vestingTerm) */\n      tag_260\n      swap3\n        /* \"daibond/BondDepository.sol\":32284:32299  block.timestamp */\n      swap1\n      swap2\n        /* \"daibond/BondDepository.sol\":32486:32503  terms.vestingTerm */\n      dup2\n      and\n      swap1\n        /* \"daibond/BondDepository.sol\":32466:32485  block.timestamp.add */\n      tag_258\n        /* \"daibond/BondDepository.sol\":32466:32504  block.timestamp.add(terms.vestingTerm) */\n      and\n      jump\t// in\n    tag_260:\n        /* \"daibond/BondDepository.sol\":32400:32538  BondCreated(... */\n      0x40\n      dup1\n      mload\n      dup14\n      dup2\n      mstore\n      swap1\n      mload\n        /* \"daibond/BondDepository.sol\":32446:32452  payout */\n      dup7\n      swap2\n        /* \"daibond/BondDepository.sol\":32400:32538  BondCreated(... */\n      0x1fec6dc81f140574bf43f6b1e420ae1dd47928b9d57db8cbd7b8611063b85ae5\n      swap2\n      swap1\n      dup2\n      swap1\n      sub\n      0x20\n      add\n      swap1\n      log4\n        /* \"daibond/BondDepository.sol\":32602:32613  debtRatio() */\n      tag_261\n        /* \"daibond/BondDepository.sol\":32602:32611  debtRatio */\n      tag_109\n        /* \"daibond/BondDepository.sol\":32602:32613  debtRatio() */\n      jump\t// in\n    tag_261:\n        /* \"daibond/BondDepository.sol\":32588:32600  _bondPrice() */\n      tag_262\n        /* \"daibond/BondDepository.sol\":32588:32598  _bondPrice */\n      tag_230\n        /* \"daibond/BondDepository.sol\":32588:32600  _bondPrice() */\n      jump\t// in\n    tag_262:\n        /* \"daibond/BondDepository.sol\":32570:32586  bondPriceInUSD() */\n      tag_263\n        /* \"daibond/BondDepository.sol\":32570:32584  bondPriceInUSD */\n      tag_89\n        /* \"daibond/BondDepository.sol\":32570:32586  bondPriceInUSD() */\n      jump\t// in\n    tag_263:\n        /* \"daibond/BondDepository.sol\":32553:32614  BondPriceChanged(bondPriceInUSD(), _bondPrice(), debtRatio()) */\n      mload(0x40)\n      0x375b221f40939bfd8f49723a17cf7bc6d576ebf72efe2cc3e991826f5b3f390a\n      swap1\n      0x00\n      swap1\n      log4\n        /* \"daibond/BondDepository.sol\":32625:32633  adjust() */\n      tag_264\n        /* \"daibond/BondDepository.sol\":32625:32631  adjust */\n      tag_265\n        /* \"daibond/BondDepository.sol\":32625:32633  adjust() */\n      jump\t// in\n    tag_264:\n      pop\n        /* \"daibond/BondDepository.sol\":32682:32688  payout */\n      swap1\n      swap9\n        /* \"daibond/BondDepository.sol\":30348:32695  function deposit(... */\n      swap8\n      pop\n      pop\n      pop\n      pop\n      pop\n      pop\n      pop\n      pop\n      jump\t// out\n        /* \"daibond/BondDepository.sol\":38811:39129  function standardizedDebtRatio() external view returns (uint256) {... */\n    tag_94:\n        /* \"daibond/BondDepository.sol\":38867:38874  uint256 */\n      0x00\n        /* \"daibond/BondDepository.sol\":38890:38905  isLiquidityBond */\n      immutable(\"0x128221face7165ac636c79241bcc071c00b651aee12c4977c3e09ba4d7241443\")\n        /* \"daibond/BondDepository.sol\":38886:39123  if (isLiquidityBond) {... */\n      iszero\n      tag_267\n      jumpi\n        /* \"daibond/BondDepository.sol\":38944:39063  debtRatio()... */\n      tag_208\n        /* \"daibond/BondDepository.sol\":39059:39062  1e9 */\n      0x3b9aca00\n        /* \"daibond/BondDepository.sol\":38944:39033  debtRatio()... */\n      tag_135\n        /* \"daibond/BondDepository.sol\":38997:39011  bondCalculator */\n      immutable(\"0xd23e9efc23800776cf8d3669751fafa9f7c61baf4abbaf310045071b5e6148b9\")\n      sub(shl(0xa0, 0x01), 0x01)\n        /* \"daibond/BondDepository.sol\":38981:39021  IBondCalculator(bondCalculator).markdown */\n      and\n      0x32da80a3\n        /* \"daibond/BondDepository.sol\":39022:39031  principle */\n      immutable(\"0xa07c19efc73020733d74df24211ba72aa9c07ba4a2ae13ac79a338a4d8b59fe5\")\n        /* \"daibond/BondDepository.sol\":38981:39032  IBondCalculator(bondCalculator).markdown(principle) */\n      mload(0x40)\n      dup3\n      0xffffffff\n      and\n      0xe0\n      shl\n      dup2\n      mstore\n      0x04\n      add\n      dup1\n      dup3\n      sub(shl(0xa0, 0x01), 0x01)\n      and\n      dup2\n      mstore\n      0x20\n      add\n      swap2\n      pop\n      pop\n      0x20\n      mload(0x40)\n      dup1\n      dup4\n      sub\n      dup2\n      dup7\n      dup1\n      extcodesize\n      iszero\n      dup1\n      iszero\n      tag_270\n      jumpi\n      0x00\n      dup1\n      revert\n    tag_270:\n      pop\n      gas\n      staticcall\n      iszero\n      dup1\n      iszero\n      tag_272\n      jumpi\n      returndatasize\n      0x00\n      dup1\n      returndatacopy\n      revert(0x00, returndatasize)\n    tag_272:\n      pop\n      pop\n      pop\n      pop\n      mload(0x40)\n      returndatasize\n      0x20\n      dup2\n      lt\n      iszero\n      tag_273\n      jumpi\n      0x00\n      dup1\n      revert\n    tag_273:\n      pop\n      mload\n        /* \"daibond/BondDepository.sol\":38944:38955  debtRatio() */\n      tag_214\n        /* \"daibond/BondDepository.sol\":38944:38953  debtRatio */\n      tag_109\n        /* \"daibond/BondDepository.sol\":38944:38955  debtRatio() */\n      jump\t// in\n        /* \"daibond/BondDepository.sol\":38886:39123  if (isLiquidityBond) {... */\n    tag_267:\n        /* \"daibond/BondDepository.sol\":39101:39112  debtRatio() */\n      tag_208\n        /* \"daibond/BondDepository.sol\":39101:39110  debtRatio */\n      tag_109\n        /* \"daibond/BondDepository.sol\":39101:39112  debtRatio() */\n      jump\t// in\n        /* \"daibond/BondDepository.sol\":24525:24553  address public immutable DAO */\n    tag_96:\n      immutable(\"0x38b7b61f58f14f07450f1658d7697d2ffee5c2ae614c4752fc225c9ab3f7e9c4\")\n      dup2\n      jump\t// out\n        /* \"daibond/BondDepository.sol\":29352:29713  function setAdjustment(... */\n    tag_99:\n        /* \"daibond/BondDepository.sol\":888:894  _owner */\n      and(sub(shl(0xa0, 0x01), 0x01), sload(0x00))\n        /* \"daibond/BondDepository.sol\":898:908  msg.sender */\n      caller\n        /* \"daibond/BondDepository.sol\":888:908  _owner == msg.sender */\n      eq\n        /* \"daibond/BondDepository.sol\":880:945  require(_owner == msg.sender, \"Ownable: caller is not the owner\") */\n      tag_278\n      jumpi\n      0x40\n      dup1\n      mload\n      shl(0xe5, 0x461bcd)\n      dup2\n      mstore\n      0x20\n      0x04\n      dup3\n      add\n      dup2\n      swap1\n      mstore\n      0x24\n      dup3\n      add\n      mstore\n      0x4f776e61626c653a2063616c6c6572206973206e6f7420746865206f776e6572\n      0x44\n      dup3\n      add\n      mstore\n      swap1\n      mload\n      swap1\n      dup2\n      swap1\n      sub\n      0x64\n      add\n      swap1\n      revert\n    tag_278:\n        /* \"daibond/BondDepository.sol\":29525:29706  Adjust({... */\n      0x40\n      dup1\n      mload\n      0xa0\n      dup2\n      add\n      dup3\n      mstore\n      swap5\n      iszero\n      iszero\n      dup1\n      dup7\n      mstore\n      0x20\n      dup7\n      add\n      dup6\n      swap1\n      mstore\n      swap1\n      dup6\n      add\n      dup4\n      swap1\n      mstore\n      0xffffffff\n      swap2\n      dup3\n      and\n      0x60\n      dup7\n      add\n      dup2\n      swap1\n      mstore\n        /* \"daibond/BondDepository.sol\":29679:29694  block.timestamp */\n      timestamp\n        /* \"daibond/BondDepository.sol\":29525:29706  Adjust({... */\n      swap1\n      swap3\n      and\n      0x80\n      swap1\n      swap6\n      add\n      dup6\n      swap1\n      mstore\n        /* \"daibond/BondDepository.sol\":29512:29522  adjustment */\n      0x0a\n        /* \"daibond/BondDepository.sol\":29512:29706  adjustment = Adjust({... */\n      dup1\n      sload\n      not(0xff)\n      and\n      swap1\n      swap2\n      or\n      swap1\n      sstore\n      0x0b\n      swap3\n      swap1\n      swap3\n      sstore\n      0x0c\n      sstore\n      0x0d\n      dup1\n      sload\n      not(0xffffffff)\n      and\n      swap1\n      swap2\n      or\n      not(0xffffffff00000000)\n      and\n      0x0100000000\n      swap1\n      swap3\n      mul\n      swap2\n      swap1\n      swap2\n      or\n      swap1\n      sstore\n        /* \"daibond/BondDepository.sol\":29352:29713  function setAdjustment(... */\n      jump\t// out\n        /* \"daibond/BondDepository.sol\":41060:41342  function recoverLostToken(address _token) external returns (bool) {... */\n    tag_102:\n        /* \"daibond/BondDepository.sol\":41120:41124  bool */\n      0x00\n        /* \"daibond/BondDepository.sol\":41154:41158  Bash */\n      immutable(\"0x666acd29a495e0c7469bb9337e279878b45aede98d38c74aa47b4fc55f5ff1aa\")\n      sub(shl(0xa0, 0x01), 0x01)\n        /* \"daibond/BondDepository.sol\":41144:41158  _token != Bash */\n      and\n        /* \"daibond/BondDepository.sol\":41144:41150  _token */\n      dup3\n      sub(shl(0xa0, 0x01), 0x01)\n        /* \"daibond/BondDepository.sol\":41144:41158  _token != Bash */\n      and\n      eq\n      iszero\n        /* \"daibond/BondDepository.sol\":41136:41159  require(_token != Bash) */\n      tag_281\n      jumpi\n      0x00\n      dup1\n      revert\n    tag_281:\n        /* \"daibond/BondDepository.sol\":41187:41196  principle */\n      immutable(\"0xa07c19efc73020733d74df24211ba72aa9c07ba4a2ae13ac79a338a4d8b59fe5\")\n      sub(shl(0xa0, 0x01), 0x01)\n        /* \"daibond/BondDepository.sol\":41177:41196  _token != principle */\n      and\n        /* \"daibond/BondDepository.sol\":41177:41183  _token */\n      dup3\n      sub(shl(0xa0, 0x01), 0x01)\n        /* \"daibond/BondDepository.sol\":41177:41196  _token != principle */\n      and\n      eq\n      iszero\n        /* \"daibond/BondDepository.sol\":41169:41197  require(_token != principle) */\n      tag_282\n      jumpi\n      0x00\n      dup1\n      revert\n    tag_282:\n        /* \"daibond/BondDepository.sol\":41207:41314  IERC20(_token).safeTransfer(... */\n      tag_283\n        /* \"daibond/BondDepository.sol\":41248:41251  DAO */\n      immutable(\"0x38b7b61f58f14f07450f1658d7697d2ffee5c2ae614c4752fc225c9ab3f7e9c4\")\n        /* \"daibond/BondDepository.sol\":41272:41278  _token */\n      dup4\n      sub(shl(0xa0, 0x01), 0x01)\n        /* \"daibond/BondDepository.sol\":41265:41289  IERC20(_token).balanceOf */\n      and\n      0x70a08231\n        /* \"daibond/BondDepository.sol\":41298:41302  this */\n      address\n        /* \"daibond/BondDepository.sol\":41265:41304  IERC20(_token).balanceOf(address(this)) */\n      mload(0x40)\n      dup3\n      0xffffffff\n      and\n      0xe0\n      shl\n      dup2\n      mstore\n      0x04\n      add\n      dup1\n      dup3\n      sub(shl(0xa0, 0x01), 0x01)\n      and\n      dup2\n      mstore\n      0x20\n      add\n      swap2\n      pop\n      pop\n      0x20\n      mload(0x40)\n      dup1\n      dup4\n      sub\n      dup2\n      dup7\n      dup1\n      extcodesize\n      iszero\n      dup1\n      iszero\n      tag_284\n      jumpi\n      0x00\n      dup1\n      revert\n    tag_284:\n      pop\n      gas\n      staticcall\n      iszero\n      dup1\n      iszero\n      tag_286\n      jumpi\n      returndatasize\n      0x00\n      dup1\n      returndatacopy\n      revert(0x00, returndatasize)\n    tag_286:\n      pop\n      pop\n      pop\n      pop\n      mload(0x40)\n      returndatasize\n      0x20\n      dup2\n      lt\n      iszero\n      tag_287\n      jumpi\n      0x00\n      dup1\n      revert\n    tag_287:\n      pop\n      mload\n      sub(shl(0xa0, 0x01), 0x01)\n        /* \"daibond/BondDepository.sol\":41207:41234  IERC20(_token).safeTransfer */\n      dup6\n      and\n      swap2\n        /* \"daibond/BondDepository.sol\":41207:41314  IERC20(_token).safeTransfer(... */\n      swap1\n        /* \"daibond/BondDepository.sol\":41207:41234  IERC20(_token).safeTransfer */\n      tag_256\n        /* \"daibond/BondDepository.sol\":41207:41314  IERC20(_token).safeTransfer(... */\n      jump\t// in\n    tag_283:\n      pop\n        /* \"daibond/BondDepository.sol\":41331:41335  true */\n      0x01\n        /* \"daibond/BondDepository.sol\":41060:41342  function recoverLostToken(address _token) external returns (bool) {... */\n      swap2\n      swap1\n      pop\n      jump\t// out\n        /* \"daibond/BondDepository.sol\":24693:24732  address public immutable bondCalculator */\n    tag_104:\n      immutable(\"0xd23e9efc23800776cf8d3669751fafa9f7c61baf4abbaf310045071b5e6148b9\")\n      dup2\n      jump\t// out\n        /* \"daibond/BondDepository.sol\":25047:25087  mapping(address => Bond) public bondInfo */\n    tag_107:\n      mstore(0x20, 0x0e)\n      0x00\n      swap1\n      dup2\n      mstore\n      0x40\n      swap1\n      keccak256\n      dup1\n      sload\n      0x01\n      dup3\n      add\n      sload\n      0x02\n      swap1\n      swap3\n      add\n      sload\n      swap1\n      swap2\n      swap1\n      0xffffffff\n      dup1\n      dup3\n      and\n      swap2\n      0x0100000000\n      swap1\n      div\n      and\n      dup5\n      jump\t// out\n        /* \"daibond/BondDepository.sol\":38433:38696  function debtRatio() public view returns (uint256 debtRatio_) {... */\n    tag_109:\n        /* \"daibond/BondDepository.sol\":38475:38493  uint256 debtRatio_ */\n      0x00\n        /* \"daibond/BondDepository.sol\":38505:38519  uint256 supply */\n      dup1\n        /* \"daibond/BondDepository.sol\":38529:38533  Bash */\n      immutable(\"0x666acd29a495e0c7469bb9337e279878b45aede98d38c74aa47b4fc55f5ff1aa\")\n      sub(shl(0xa0, 0x01), 0x01)\n        /* \"daibond/BondDepository.sol\":38522:38546  IERC20(Bash).totalSupply */\n      and\n      0x18160ddd\n        /* \"daibond/BondDepository.sol\":38522:38548  IERC20(Bash).totalSupply() */\n      mload(0x40)\n      dup2\n      0xffffffff\n      and\n      0xe0\n      shl\n      dup2\n      mstore\n      0x04\n      add\n      0x20\n      mload(0x40)\n      dup1\n      dup4\n      sub\n      dup2\n      dup7\n      dup1\n      extcodesize\n      iszero\n      dup1\n      iszero\n      tag_289\n      jumpi\n      0x00\n      dup1\n      revert\n    tag_289:\n      pop\n      gas\n      staticcall\n      iszero\n      dup1\n      iszero\n      tag_291\n      jumpi\n      returndatasize\n      0x00\n      dup1\n      returndatacopy\n      revert(0x00, returndatasize)\n    tag_291:\n      pop\n      pop\n      pop\n      pop\n      mload(0x40)\n      returndatasize\n      0x20\n      dup2\n      lt\n      iszero\n      tag_292\n      jumpi\n      0x00\n      dup1\n      revert\n    tag_292:\n      pop\n      mload\n      swap1\n      pop\n        /* \"daibond/BondDepository.sol\":38571:38689  FixedPoint... */\n      tag_293\n        /* \"daibond/BondDepository.sol\":38684:38688  1e18 */\n      0x0de0b6b3a7640000\n        /* \"daibond/BondDepository.sol\":38571:38666  FixedPoint... */\n      tag_135\n        /* \"daibond/BondDepository.sol\":38571:38635  FixedPoint... */\n      tag_202\n        /* \"daibond/BondDepository.sol\":38604:38626  currentDebt().mul(1e9) */\n      tag_296\n        /* \"daibond/BondDepository.sol\":38622:38625  1e9 */\n      0x3b9aca00\n        /* \"daibond/BondDepository.sol\":38604:38617  currentDebt() */\n      tag_214\n        /* \"daibond/BondDepository.sol\":38604:38615  currentDebt */\n      tag_82\n        /* \"daibond/BondDepository.sol\":38604:38617  currentDebt() */\n      jump\t// in\n        /* \"daibond/BondDepository.sol\":38604:38626  currentDebt().mul(1e9) */\n    tag_296:\n        /* \"daibond/BondDepository.sol\":38628:38634  supply */\n      dup6\n        /* \"daibond/BondDepository.sol\":38571:38603  FixedPoint... */\n      tag_204\n        /* \"daibond/BondDepository.sol\":38571:38635  FixedPoint... */\n      jump\t// in\n        /* \"daibond/BondDepository.sol\":38571:38689  FixedPoint... */\n    tag_293:\n        /* \"daibond/BondDepository.sol\":38558:38689  debtRatio_ = FixedPoint... */\n      swap2\n      pop\n        /* \"daibond/BondDepository.sol\":38433:38696  function debtRatio() public view returns (uint256 debtRatio_) {... */\n      pop\n      swap1\n      jump\t// out\n        /* \"daibond/BondDepository.sol\":27336:28009  function initializeBondTerms(... */\n    tag_112:\n        /* \"daibond/BondDepository.sol\":888:894  _owner */\n      and(sub(shl(0xa0, 0x01), 0x01), sload(0x00))\n        /* \"daibond/BondDepository.sol\":898:908  msg.sender */\n      caller\n        /* \"daibond/BondDepository.sol\":888:908  _owner == msg.sender */\n      eq\n        /* \"daibond/BondDepository.sol\":880:945  require(_owner == msg.sender, \"Ownable: caller is not the owner\") */\n      tag_299\n      jumpi\n      0x40\n      dup1\n      mload\n      shl(0xe5, 0x461bcd)\n      dup2\n      mstore\n      0x20\n      0x04\n      dup3\n      add\n      dup2\n      swap1\n      mstore\n      0x24\n      dup3\n      add\n      mstore\n      0x4f776e61626c653a2063616c6c6572206973206e6f7420746865206f776e6572\n      0x44\n      dup3\n      add\n      mstore\n      swap1\n      mload\n      swap1\n      dup2\n      swap1\n      sub\n      0x64\n      add\n      swap1\n      revert\n    tag_299:\n        /* \"daibond/BondDepository.sol\":27609:27614  terms */\n      0x04\n        /* \"daibond/BondDepository.sol\":27609:27630  terms.controlVariable */\n      sload\n        /* \"daibond/BondDepository.sol\":27609:27635  terms.controlVariable == 0 */\n      iszero\n        /* \"daibond/BondDepository.sol\":27601:27672  require(terms.controlVariable == 0, \"Bonds must be initialized from 0\") */\n      tag_301\n      jumpi\n      0x40\n      dup1\n      mload\n      shl(0xe5, 0x461bcd)\n      dup2\n      mstore\n      0x20\n      0x04\n      dup3\n      add\n      dup2\n      swap1\n      mstore\n      0x24\n      dup3\n      add\n      mstore\n      0x426f6e6473206d75737420626520696e697469616c697a65642066726f6d2030\n      0x44\n      dup3\n      add\n      mstore\n      swap1\n      mload\n      swap1\n      dup2\n      swap1\n      sub\n      0x64\n      add\n      swap1\n      revert\n    tag_301:\n        /* \"daibond/BondDepository.sol\":27690:27923  Terms({... */\n      0x40\n      dup1\n      mload\n      0xc0\n      dup2\n      add\n      dup3\n      mstore\n      dup9\n      dup2\n      mstore\n      0x20\n      dup2\n      add\n      dup9\n      swap1\n      mstore\n      swap1\n      dup2\n      add\n      dup7\n      swap1\n      mstore\n      0x60\n      dup2\n      add\n      dup6\n      swap1\n      mstore\n      0x80\n      dup2\n      add\n      dup5\n      swap1\n      mstore\n      0xffffffff\n      swap2\n      dup3\n      and\n      0xa0\n      swap1\n      swap2\n      add\n      dup2\n      swap1\n      mstore\n        /* \"daibond/BondDepository.sol\":27682:27687  terms */\n      0x04\n        /* \"daibond/BondDepository.sol\":27682:27923  terms = Terms({... */\n      swap8\n      swap1\n      swap8\n      sstore\n      0x05\n      swap6\n      swap1\n      swap6\n      sstore\n      0x06\n      swap4\n      swap1\n      swap4\n      sstore\n      0x07\n      swap2\n      swap1\n      swap2\n      sstore\n      0x08\n      sstore\n      0x09\n      dup1\n      sload\n      not(0xffffffff)\n      swap1\n      dup2\n      and\n      swap1\n      swap5\n      or\n      swap1\n      sstore\n        /* \"daibond/BondDepository.sol\":27933:27942  totalDebt */\n      0x0f\n        /* \"daibond/BondDepository.sol\":27933:27957  totalDebt = _initialDebt */\n      sstore\n        /* \"daibond/BondDepository.sol\":27967:27976  lastDecay */\n      0x10\n        /* \"daibond/BondDepository.sol\":27967:28002  lastDecay = uint32(block.timestamp) */\n      dup1\n      sload\n      swap1\n      swap3\n      and\n        /* \"daibond/BondDepository.sol\":27986:28001  block.timestamp */\n      timestamp\n        /* \"daibond/BondDepository.sol\":27967:28002  lastDecay = uint32(block.timestamp) */\n      swap1\n      swap2\n      and\n      or\n      swap1\n      sstore\n        /* \"daibond/BondDepository.sol\":27336:28009  function initializeBondTerms(... */\n      jump\t// out\n        /* \"daibond/BondDepository.sol\":29839:30140  function setStaking(address _staking, bool _helper) external onlyPolicy {... */\n    tag_115:\n        /* \"daibond/BondDepository.sol\":888:894  _owner */\n      and(sub(shl(0xa0, 0x01), 0x01), sload(0x00))\n        /* \"daibond/BondDepository.sol\":898:908  msg.sender */\n      caller\n        /* \"daibond/BondDepository.sol\":888:908  _owner == msg.sender */\n      eq\n        /* \"daibond/BondDepository.sol\":880:945  require(_owner == msg.sender, \"Ownable: caller is not the owner\") */\n      tag_303\n      jumpi\n      0x40\n      dup1\n      mload\n      shl(0xe5, 0x461bcd)\n      dup2\n      mstore\n      0x20\n      0x04\n      dup3\n      add\n      dup2\n      swap1\n      mstore\n      0x24\n      dup3\n      add\n      mstore\n      0x4f776e61626c653a2063616c6c6572206973206e6f7420746865206f776e6572\n      0x44\n      dup3\n      add\n      mstore\n      swap1\n      mload\n      swap1\n      dup2\n      swap1\n      sub\n      0x64\n      add\n      swap1\n      revert\n    tag_303:\n      sub(shl(0xa0, 0x01), 0x01)\n        /* \"daibond/BondDepository.sol\":29929:29951  _staking != address(0) */\n      dup3\n      and\n        /* \"daibond/BondDepository.sol\":29921:29952  require(_staking != address(0)) */\n      tag_305\n      jumpi\n      0x00\n      dup1\n      revert\n    tag_305:\n        /* \"daibond/BondDepository.sol\":29966:29973  _helper */\n      dup1\n        /* \"daibond/BondDepository.sol\":29962:30134  if (_helper) {... */\n      iszero\n      tag_306\n      jumpi\n        /* \"daibond/BondDepository.sol\":29989:29998  useHelper */\n      0x03\n        /* \"daibond/BondDepository.sol\":29989:30005  useHelper = true */\n      dup1\n      sload\n      shl(0xa0, 0x01)\n      not(shl(0xa0, 0xff))\n      swap1\n      swap2\n      and\n      or\n      not(sub(shl(0xa0, 0x01), 0x01))\n        /* \"daibond/BondDepository.sol\":30019:30043  stakingHelper = _staking */\n      and\n      sub(shl(0xa0, 0x01), 0x01)\n      dup5\n      and\n      or\n      swap1\n      sstore\n        /* \"daibond/BondDepository.sol\":29962:30134  if (_helper) {... */\n      jump(tag_166)\n    tag_306:\n        /* \"daibond/BondDepository.sol\":30074:30083  useHelper */\n      0x03\n        /* \"daibond/BondDepository.sol\":30074:30091  useHelper = false */\n      dup1\n      sload\n      not(shl(0xa0, 0xff))\n      and\n      swap1\n      sstore\n        /* \"daibond/BondDepository.sol\":30105:30112  staking */\n      0x02\n        /* \"daibond/BondDepository.sol\":30105:30123  staking = _staking */\n      dup1\n      sload\n      sub(shl(0xa0, 0x01), 0x01)\n      dup5\n      and\n      not(sub(shl(0xa0, 0x01), 0x01))\n      swap1\n      swap2\n      and\n      or\n      swap1\n      sstore\n        /* \"daibond/BondDepository.sol\":29839:30140  function setStaking(address _staking, bool _helper) external onlyPolicy {... */\n      pop\n      pop\n      jump\t// out\n        /* \"daibond/BondDepository.sol\":24929:24947  Terms public terms */\n    tag_117:\n      sload(0x04)\n      sload(0x05)\n      sload(0x06)\n      sload(0x07)\n      sload(0x08)\n      and(0xffffffff, sload(0x09))\n      dup7\n      jump\t// out\n        /* \"daibond/BondDepository.sol\":24595:24632  bool public immutable isLiquidityBond */\n    tag_119:\n      immutable(\"0x128221face7165ac636c79241bcc071c00b651aee12c4977c3e09ba4d7241443\")\n      dup2\n      jump\t// out\n        /* \"daibond/BondDepository.sol\":37147:37410  function bondPrice() public view returns (uint256 price_) {... */\n    tag_121:\n        /* \"daibond/BondDepository.sol\":37189:37203  uint256 price_ */\n      0x00\n        /* \"daibond/BondDepository.sol\":37224:37309  terms.controlVariable.mul(debtRatio()).add(1000000000).div(... */\n      tag_309\n        /* \"daibond/BondDepository.sol\":37296:37299  1e7 */\n      0x989680\n        /* \"daibond/BondDepository.sol\":37224:37278  terms.controlVariable.mul(debtRatio()).add(1000000000) */\n      tag_135\n        /* \"daibond/BondDepository.sol\":37267:37277  1000000000 */\n      0x3b9aca00\n        /* \"daibond/BondDepository.sol\":37224:37262  terms.controlVariable.mul(debtRatio()) */\n      tag_311\n        /* \"daibond/BondDepository.sol\":37250:37261  debtRatio() */\n      tag_312\n        /* \"daibond/BondDepository.sol\":37250:37259  debtRatio */\n      tag_109\n        /* \"daibond/BondDepository.sol\":37250:37261  debtRatio() */\n      jump\t// in\n    tag_312:\n        /* \"daibond/BondDepository.sol\":37224:37229  terms */\n      0x04\n        /* \"daibond/BondDepository.sol\":37224:37245  terms.controlVariable */\n      sload\n      swap1\n        /* \"daibond/BondDepository.sol\":37224:37249  terms.controlVariable.mul */\n      tag_136\n        /* \"daibond/BondDepository.sol\":37224:37262  terms.controlVariable.mul(debtRatio()) */\n      jump\t// in\n    tag_311:\n        /* \"daibond/BondDepository.sol\":37224:37266  terms.controlVariable.mul(debtRatio()).add */\n      swap1\n      tag_258\n        /* \"daibond/BondDepository.sol\":37224:37278  terms.controlVariable.mul(debtRatio()).add(1000000000) */\n      jump\t// in\n        /* \"daibond/BondDepository.sol\":37224:37309  terms.controlVariable.mul(debtRatio()).add(1000000000).div(... */\n    tag_309:\n        /* \"daibond/BondDepository.sol\":37332:37350  terms.minimumPrice */\n      sload(0x05)\n        /* \"daibond/BondDepository.sol\":37215:37309  price_ = terms.controlVariable.mul(debtRatio()).add(1000000000).div(... */\n      swap1\n      swap2\n      pop\n        /* \"daibond/BondDepository.sol\":37323:37350  price_ < terms.minimumPrice */\n      dup2\n      lt\n        /* \"daibond/BondDepository.sol\":37319:37404  if (price_ < terms.minimumPrice) {... */\n      iszero\n      tag_138\n      jumpi\n      pop\n        /* \"daibond/BondDepository.sol\":37375:37393  terms.minimumPrice */\n      sload(0x05)\n        /* \"daibond/BondDepository.sol\":37147:37410  function bondPrice() public view returns (uint256 price_) {... */\n      swap1\n      jump\t// out\n        /* \"daibond/BondDepository.sol\":36494:36628  function maxPayout() public view returns (uint256) {... */\n    tag_123:\n        /* \"daibond/BondDepository.sol\":36536:36543  uint256 */\n      0x00\n        /* \"daibond/BondDepository.sol\":36562:36621  IERC20(Bash).totalSupply().mul(terms.maxPayout).div(100000) */\n      tag_197\n        /* \"daibond/BondDepository.sol\":36614:36620  100000 */\n      0x0186a0\n        /* \"daibond/BondDepository.sol\":36562:36609  IERC20(Bash).totalSupply().mul(terms.maxPayout) */\n      tag_135\n        /* \"daibond/BondDepository.sol\":36593:36598  terms */\n      0x04\n        /* \"daibond/BondDepository.sol\":36593:36608  terms.maxPayout */\n      0x02\n      add\n      sload\n        /* \"daibond/BondDepository.sol\":36569:36573  Bash */\n      immutable(\"0x666acd29a495e0c7469bb9337e279878b45aede98d38c74aa47b4fc55f5ff1aa\")\n      sub(shl(0xa0, 0x01), 0x01)\n        /* \"daibond/BondDepository.sol\":36562:36586  IERC20(Bash).totalSupply */\n      and\n      0x18160ddd\n        /* \"daibond/BondDepository.sol\":36562:36588  IERC20(Bash).totalSupply() */\n      mload(0x40)\n      dup2\n      0xffffffff\n      and\n      0xe0\n      shl\n      dup2\n      mstore\n      0x04\n      add\n      0x20\n      mload(0x40)\n      dup1\n      dup4\n      sub\n      dup2\n      dup7\n      dup1\n      extcodesize\n      iszero\n      dup1\n      iszero\n      tag_317\n      jumpi\n      0x00\n      dup1\n      revert\n    tag_317:\n      pop\n      gas\n      staticcall\n      iszero\n      dup1\n      iszero\n      tag_319\n      jumpi\n      returndatasize\n      0x00\n      dup1\n      returndatacopy\n      revert(0x00, returndatasize)\n    tag_319:\n      pop\n      pop\n      pop\n      pop\n      mload(0x40)\n      returndatasize\n      0x20\n      dup2\n      lt\n      iszero\n      tag_320\n      jumpi\n      0x00\n      dup1\n      revert\n    tag_320:\n      pop\n      mload\n      swap1\n        /* \"daibond/BondDepository.sol\":36562:36592  IERC20(Bash).totalSupply().mul */\n      tag_136\n        /* \"daibond/BondDepository.sol\":36562:36609  IERC20(Bash).totalSupply().mul(terms.maxPayout) */\n      jump\t// in\n        /* \"daibond/BondDepository.sol\":39421:39705  function debtDecay() public view returns (uint256 decay_) {... */\n    tag_125:\n        /* \"daibond/BondDepository.sol\":39542:39551  lastDecay */\n      sload(0x10)\n        /* \"daibond/BondDepository.sol\":39463:39477  uint256 decay_ */\n      0x00\n      swap1\n      dup2\n      swap1\n        /* \"daibond/BondDepository.sol\":39512:39552  uint32(block.timestamp).sub32(lastDecay) */\n      tag_322\n      swap1\n        /* \"daibond/BondDepository.sol\":39542:39551  lastDecay */\n      0xffffffff\n        /* \"daibond/BondDepository.sol\":39519:39534  block.timestamp */\n      timestamp\n        /* \"daibond/BondDepository.sol\":39512:39541  uint32(block.timestamp).sub32 */\n      dup2\n      and\n      swap2\n        /* \"daibond/BondDepository.sol\":39542:39551  lastDecay */\n      dup2\n      and\n      swap1\n        /* \"daibond/BondDepository.sol\":39512:39541  uint32(block.timestamp).sub32 */\n      tag_181\n        /* \"daibond/BondDepository.sol\":39512:39552  uint32(block.timestamp).sub32(lastDecay) */\n      and\n      jump\t// in\n    tag_322:\n        /* \"daibond/BondDepository.sol\":39604:39621  terms.vestingTerm */\n      sload(0x09)\n        /* \"daibond/BondDepository.sol\":39571:39580  totalDebt */\n      sload(0x0f)\n        /* \"daibond/BondDepository.sol\":39489:39552  uint32 timeSinceLast = uint32(block.timestamp).sub32(lastDecay) */\n      swap2\n      swap3\n      pop\n        /* \"daibond/BondDepository.sol\":39571:39622  totalDebt.mul(timeSinceLast).div(terms.vestingTerm) */\n      tag_323\n      swap2\n        /* \"daibond/BondDepository.sol\":39604:39621  terms.vestingTerm */\n      0xffffffff\n      swap2\n      dup3\n      and\n      swap2\n        /* \"daibond/BondDepository.sol\":39571:39599  totalDebt.mul(timeSinceLast) */\n      tag_135\n      swap2\n        /* \"daibond/BondDepository.sol\":39571:39580  totalDebt */\n      swap1\n        /* \"daibond/BondDepository.sol\":39571:39599  totalDebt.mul(timeSinceLast) */\n      dup1\n      dup7\n      and\n      swap1\n        /* \"daibond/BondDepository.sol\":39571:39584  totalDebt.mul */\n      tag_136\n        /* \"daibond/BondDepository.sol\":39571:39599  totalDebt.mul(timeSinceLast) */\n      and\n      jump\t// in\n        /* \"daibond/BondDepository.sol\":39571:39622  totalDebt.mul(timeSinceLast).div(terms.vestingTerm) */\n    tag_323:\n        /* \"daibond/BondDepository.sol\":39562:39622  decay_ = totalDebt.mul(timeSinceLast).div(terms.vestingTerm) */\n      swap2\n      pop\n        /* \"daibond/BondDepository.sol\":39645:39654  totalDebt */\n      sload(0x0f)\n        /* \"daibond/BondDepository.sol\":39636:39642  decay_ */\n      dup3\n        /* \"daibond/BondDepository.sol\":39636:39654  decay_ > totalDebt */\n      gt\n        /* \"daibond/BondDepository.sol\":39632:39699  if (decay_ > totalDebt) {... */\n      iszero\n      tag_325\n      jumpi\n        /* \"daibond/BondDepository.sol\":39679:39688  totalDebt */\n      sload(0x0f)\n        /* \"daibond/BondDepository.sol\":39670:39688  decay_ = totalDebt */\n      swap2\n      pop\n        /* \"daibond/BondDepository.sol\":39632:39699  if (decay_ > totalDebt) {... */\n    tag_325:\n        /* \"daibond/BondDepository.sol\":39421:39705  function debtDecay() public view returns (uint256 decay_) {... */\n      pop\n      swap1\n      jump\t// out\n        /* \"daibond/BondDepository.sol\":25220:25243  uint32 public lastDecay */\n    tag_127:\n      and(0xffffffff, sload(0x10))\n      dup2\n      jump\t// out\n        /* \"daibond/BondDepository.sol\":25136:25160  uint256 public totalDebt */\n    tag_129:\n      sload(0x0f)\n      dup2\n      jump\t// out\n        /* \"daibond/BondDepository.sol\":2599:2840  function mul(uint256 a, uint256 b) internal pure returns (uint256) {... */\n    tag_136:\n        /* \"daibond/BondDepository.sol\":2657:2664  uint256 */\n      0x00\n        /* \"daibond/BondDepository.sol\":2680:2686  a == 0 */\n      dup3\n        /* \"daibond/BondDepository.sol\":2676:2721  if (a == 0) {... */\n      tag_327\n      jumpi\n      pop\n        /* \"daibond/BondDepository.sol\":2709:2710  0 */\n      0x00\n        /* \"daibond/BondDepository.sol\":2702:2710  return 0 */\n      jump(tag_167)\n        /* \"daibond/BondDepository.sol\":2676:2721  if (a == 0) {... */\n    tag_327:\n        /* \"daibond/BondDepository.sol\":2743:2748  a * b */\n      dup3\n      dup3\n      mul\n        /* \"daibond/BondDepository.sol\":2747:2748  b */\n      dup3\n        /* \"daibond/BondDepository.sol\":2743:2744  a */\n      dup5\n        /* \"daibond/BondDepository.sol\":2743:2748  a * b */\n      dup3\n        /* \"daibond/BondDepository.sol\":2743:2744  a */\n      dup2\n        /* \"daibond/BondDepository.sol\":2766:2771  c / a */\n      tag_328\n      jumpi\n      invalid\n    tag_328:\n      div\n        /* \"daibond/BondDepository.sol\":2766:2776  c / a == b */\n      eq\n        /* \"daibond/BondDepository.sol\":2758:2814  require(c / a == b, \"SafeMath: multiplication overflow\") */\n      tag_329\n      jumpi\n      mload(0x40)\n      shl(0xe5, 0x461bcd)\n      dup2\n      mstore\n      0x04\n      add\n      dup1\n      dup1\n      0x20\n      add\n      dup3\n      dup2\n      sub\n      dup3\n      mstore\n      0x21\n      dup2\n      mstore\n      0x20\n      add\n      dup1\n      data_9113bb53c2876a3805b2c9242029423fc540a728243ce887ab24c82cf119fba3\n      0x21\n      swap2\n      codecopy\n      0x40\n      add\n      swap2\n      pop\n      pop\n      mload(0x40)\n      dup1\n      swap2\n      sub\n      swap1\n      revert\n    tag_329:\n        /* \"daibond/BondDepository.sol\":2832:2833  c */\n      swap4\n        /* \"daibond/BondDepository.sol\":2599:2840  function mul(uint256 a, uint256 b) internal pure returns (uint256) {... */\n      swap3\n      pop\n      pop\n      pop\n      jump\t// out\n        /* \"daibond/BondDepository.sol\":2846:2976  function div(uint256 a, uint256 b) internal pure returns (uint256) {... */\n    tag_137:\n        /* \"daibond/BondDepository.sol\":2904:2911  uint256 */\n      0x00\n        /* \"daibond/BondDepository.sol\":2930:2969  div(a, b, \"SafeMath: division by zero\") */\n      tag_329\n        /* \"daibond/BondDepository.sol\":2934:2935  a */\n      dup4\n        /* \"daibond/BondDepository.sol\":2937:2938  b */\n      dup4\n        /* \"daibond/BondDepository.sol\":2930:2969  div(a, b, \"SafeMath: division by zero\") */\n      mload(0x40)\n      dup1\n      0x40\n      add\n      0x40\n      mstore\n      dup1\n      0x1a\n      dup2\n      mstore\n      0x20\n      add\n      0x536166654d6174683a206469766973696f6e206279207a65726f000000000000\n      dup2\n      mstore\n      pop\n        /* \"daibond/BondDepository.sol\":2930:2933  div */\n      tag_332\n        /* \"daibond/BondDepository.sol\":2930:2969  div(a, b, \"SafeMath: division by zero\") */\n      jump\t// in\n        /* \"daibond/BondDepository.sol\":34308:35036  function stakeOrSend(... */\n    tag_173:\n        /* \"daibond/BondDepository.sol\":34427:34434  uint256 */\n      0x00\n        /* \"daibond/BondDepository.sol\":34451:34457  _stake */\n      dup3\n        /* \"daibond/BondDepository.sol\":34446:35006  if (!_stake) {... */\n      tag_334\n      jumpi\n        /* \"daibond/BondDepository.sol\":34526:34530  Bash */\n      immutable(\"0x666acd29a495e0c7469bb9337e279878b45aede98d38c74aa47b4fc55f5ff1aa\")\n      sub(shl(0xa0, 0x01), 0x01)\n        /* \"daibond/BondDepository.sol\":34519:34540  IERC20(Bash).transfer */\n      and\n      0xa9059cbb\n        /* \"daibond/BondDepository.sol\":34541:34551  _recipient */\n      dup6\n        /* \"daibond/BondDepository.sol\":34553:34560  _amount */\n      dup5\n        /* \"daibond/BondDepository.sol\":34519:34561  IERC20(Bash).transfer(_recipient, _amount) */\n      mload(0x40)\n      dup4\n      0xffffffff\n      and\n      0xe0\n      shl\n      dup2\n      mstore\n      0x04\n      add\n      dup1\n      dup4\n      sub(shl(0xa0, 0x01), 0x01)\n      and\n      dup2\n      mstore\n      0x20\n      add\n      dup3\n      dup2\n      mstore\n      0x20\n      add\n      swap3\n      pop\n      pop\n      pop\n      0x20\n      mload(0x40)\n      dup1\n      dup4\n      sub\n      dup2\n      0x00\n      dup8\n      dup1\n      extcodesize\n      iszero\n      dup1\n      iszero\n      tag_335\n      jumpi\n      0x00\n      dup1\n      revert\n    tag_335:\n      pop\n      gas\n      call\n      iszero\n      dup1\n      iszero\n      tag_337\n      jumpi\n      returndatasize\n      0x00\n      dup1\n      returndatacopy\n      revert(0x00, returndatasize)\n    tag_337:\n      pop\n      pop\n      pop\n      pop\n      mload(0x40)\n      returndatasize\n      0x20\n      dup2\n      lt\n      iszero\n      tag_338\n      jumpi\n      0x00\n      dup1\n      revert\n    tag_338:\n      pop\n        /* \"daibond/BondDepository.sol\":34446:35006  if (!_stake) {... */\n      tag_348\n      swap1\n      pop\n      jump\n    tag_334:\n        /* \"daibond/BondDepository.sol\":34649:34658  useHelper */\n      sload(0x03)\n      shl(0xa0, 0x01)\n      swap1\n      div\n      0xff\n      and\n        /* \"daibond/BondDepository.sol\":34645:34996  if (useHelper) {... */\n      iszero\n      tag_340\n      jumpi\n        /* \"daibond/BondDepository.sol\":34745:34758  stakingHelper */\n      sload(0x03)\n        /* \"daibond/BondDepository.sol\":34724:34768  IERC20(Bash).approve(stakingHelper, _amount) */\n      0x40\n      dup1\n      mload\n      shl(0xe0, 0x095ea7b3)\n      dup2\n      mstore\n      sub(shl(0xa0, 0x01), 0x01)\n        /* \"daibond/BondDepository.sol\":34745:34758  stakingHelper */\n      swap3\n      dup4\n      and\n        /* \"daibond/BondDepository.sol\":34724:34768  IERC20(Bash).approve(stakingHelper, _amount) */\n      0x04\n      dup3\n      add\n      mstore\n      0x24\n      dup2\n      add\n      dup6\n      swap1\n      mstore\n      swap1\n      mload\n        /* \"daibond/BondDepository.sol\":34731:34735  Bash */\n      immutable(\"0x666acd29a495e0c7469bb9337e279878b45aede98d38c74aa47b4fc55f5ff1aa\")\n        /* \"daibond/BondDepository.sol\":34724:34744  IERC20(Bash).approve */\n      swap1\n      swap3\n      and\n      swap2\n      0x095ea7b3\n      swap2\n        /* \"daibond/BondDepository.sol\":34724:34768  IERC20(Bash).approve(stakingHelper, _amount) */\n      0x44\n      dup1\n      dup3\n      add\n      swap3\n      0x20\n      swap3\n      swap1\n      swap2\n      swap1\n      dup3\n      swap1\n      sub\n      add\n      dup2\n      0x00\n        /* \"daibond/BondDepository.sol\":34724:34744  IERC20(Bash).approve */\n      dup8\n        /* \"daibond/BondDepository.sol\":34724:34768  IERC20(Bash).approve(stakingHelper, _amount) */\n      dup1\n      extcodesize\n      iszero\n      dup1\n      iszero\n      tag_341\n      jumpi\n      0x00\n      dup1\n      revert\n    tag_341:\n      pop\n      gas\n      call\n      iszero\n      dup1\n      iszero\n      tag_343\n      jumpi\n      returndatasize\n      0x00\n      dup1\n      returndatacopy\n      revert(0x00, returndatasize)\n    tag_343:\n      pop\n      pop\n      pop\n      pop\n      mload(0x40)\n      returndatasize\n      0x20\n      dup2\n      lt\n      iszero\n      tag_344\n      jumpi\n      0x00\n      dup1\n      revert\n    tag_344:\n      pop\n      pop\n        /* \"daibond/BondDepository.sol\":34801:34814  stakingHelper */\n      sload(0x03)\n        /* \"daibond/BondDepository.sol\":34786:34842  IStakingHelper(stakingHelper).stake(_amount, _recipient) */\n      0x40\n      dup1\n      mload\n      shl(0xe0, 0x7acb7757)\n      dup2\n      mstore\n      0x04\n      dup2\n      add\n      dup6\n      swap1\n      mstore\n      sub(shl(0xa0, 0x01), 0x01)\n      dup8\n      dup2\n      and\n      0x24\n      dup4\n      add\n      mstore\n      swap2\n      mload\n        /* \"daibond/BondDepository.sol\":34801:34814  stakingHelper */\n      swap2\n      swap1\n      swap3\n      and\n      swap2\n        /* \"daibond/BondDepository.sol\":34786:34821  IStakingHelper(stakingHelper).stake */\n      0x7acb7757\n      swap2\n        /* \"daibond/BondDepository.sol\":34786:34842  IStakingHelper(stakingHelper).stake(_amount, _recipient) */\n      0x44\n      dup1\n      dup4\n      add\n      swap3\n        /* \"daibond/BondDepository.sol\":34801:34814  stakingHelper */\n      0x00\n      swap3\n        /* \"daibond/BondDepository.sol\":34786:34842  IStakingHelper(stakingHelper).stake(_amount, _recipient) */\n      swap2\n      swap1\n      dup3\n      swap1\n      sub\n      add\n      dup2\n        /* \"daibond/BondDepository.sol\":34801:34814  stakingHelper */\n      dup4\n      dup8\n        /* \"daibond/BondDepository.sol\":34786:34842  IStakingHelper(stakingHelper).stake(_amount, _recipient) */\n      dup1\n      extcodesize\n      iszero\n      dup1\n      iszero\n      tag_345\n      jumpi\n      0x00\n      dup1\n      revert\n    tag_345:\n      pop\n      gas\n      call\n      iszero\n      dup1\n      iszero\n      tag_347\n      jumpi\n      returndatasize\n      0x00\n      dup1\n      returndatacopy\n      revert(0x00, returndatasize)\n    tag_347:\n      pop\n      pop\n      pop\n      pop\n        /* \"daibond/BondDepository.sol\":34645:34996  if (useHelper) {... */\n      jump(tag_348)\n    tag_340:\n        /* \"daibond/BondDepository.sol\":34902:34909  staking */\n      sload(0x02)\n        /* \"daibond/BondDepository.sol\":34881:34919  IERC20(Bash).approve(staking, _amount) */\n      0x40\n      dup1\n      mload\n      shl(0xe0, 0x095ea7b3)\n      dup2\n      mstore\n      sub(shl(0xa0, 0x01), 0x01)\n        /* \"daibond/BondDepository.sol\":34902:34909  staking */\n      swap3\n      dup4\n      and\n        /* \"daibond/BondDepository.sol\":34881:34919  IERC20(Bash).approve(staking, _amount) */\n      0x04\n      dup3\n      add\n      mstore\n      0x24\n      dup2\n      add\n      dup6\n      swap1\n      mstore\n      swap1\n      mload\n        /* \"daibond/BondDepository.sol\":34888:34892  Bash */\n      immutable(\"0x666acd29a495e0c7469bb9337e279878b45aede98d38c74aa47b4fc55f5ff1aa\")\n        /* \"daibond/BondDepository.sol\":34881:34901  IERC20(Bash).approve */\n      swap1\n      swap3\n      and\n      swap2\n      0x095ea7b3\n      swap2\n        /* \"daibond/BondDepository.sol\":34881:34919  IERC20(Bash).approve(staking, _amount) */\n      0x44\n      dup1\n      dup3\n      add\n      swap3\n      0x20\n      swap3\n      swap1\n      swap2\n      swap1\n      dup3\n      swap1\n      sub\n      add\n      dup2\n      0x00\n        /* \"daibond/BondDepository.sol\":34881:34901  IERC20(Bash).approve */\n      dup8\n        /* \"daibond/BondDepository.sol\":34881:34919  IERC20(Bash).approve(staking, _amount) */\n      dup1\n      extcodesize\n      iszero\n      dup1\n      iszero\n      tag_349\n      jumpi\n      0x00\n      dup1\n      revert\n    tag_349:\n      pop\n      gas\n      call\n      iszero\n      dup1\n      iszero\n      tag_351\n      jumpi\n      returndatasize\n      0x00\n      dup1\n      returndatacopy\n      revert(0x00, returndatasize)\n    tag_351:\n      pop\n      pop\n      pop\n      pop\n      mload(0x40)\n      returndatasize\n      0x20\n      dup2\n      lt\n      iszero\n      tag_352\n      jumpi\n      0x00\n      dup1\n      revert\n    tag_352:\n      pop\n      pop\n        /* \"daibond/BondDepository.sol\":34946:34953  staking */\n      sload(0x02)\n        /* \"daibond/BondDepository.sol\":34937:34981  IStaking(staking).stake(_amount, _recipient) */\n      0x40\n      dup1\n      mload\n      shl(0xe0, 0x7acb7757)\n      dup2\n      mstore\n      0x04\n      dup2\n      add\n      dup6\n      swap1\n      mstore\n      sub(shl(0xa0, 0x01), 0x01)\n      dup8\n      dup2\n      and\n      0x24\n      dup4\n      add\n      mstore\n      swap2\n      mload\n        /* \"daibond/BondDepository.sol\":34946:34953  staking */\n      swap2\n      swap1\n      swap3\n      and\n      swap2\n        /* \"daibond/BondDepository.sol\":34937:34960  IStaking(staking).stake */\n      0x7acb7757\n      swap2\n        /* \"daibond/BondDepository.sol\":34937:34981  IStaking(staking).stake(_amount, _recipient) */\n      0x44\n      dup1\n      dup4\n      add\n      swap3\n        /* \"daibond/BondDepository.sol\":34881:34919  IERC20(Bash).approve(staking, _amount) */\n      0x20\n      swap3\n        /* \"daibond/BondDepository.sol\":34937:34981  IStaking(staking).stake(_amount, _recipient) */\n      swap2\n      swap1\n      dup3\n      swap1\n      sub\n      add\n      dup2\n        /* \"daibond/BondDepository.sol\":34946:34953  staking */\n      0x00\n      dup8\n        /* \"daibond/BondDepository.sol\":34937:34981  IStaking(staking).stake(_amount, _recipient) */\n      dup1\n      extcodesize\n      iszero\n      dup1\n      iszero\n      tag_353\n      jumpi\n      0x00\n      dup1\n      revert\n    tag_353:\n      pop\n      gas\n      call\n      iszero\n      dup1\n      iszero\n      tag_355\n      jumpi\n      returndatasize\n      0x00\n      dup1\n      returndatacopy\n      revert(0x00, returndatasize)\n    tag_355:\n      pop\n      pop\n      pop\n      pop\n      mload(0x40)\n      returndatasize\n      0x20\n      dup2\n      lt\n      iszero\n      tag_356\n      jumpi\n      0x00\n      dup1\n      revert\n    tag_356:\n      pop\n      pop\n        /* \"daibond/BondDepository.sol\":34645:34996  if (useHelper) {... */\n    tag_348:\n      pop\n        /* \"daibond/BondDepository.sol\":35022:35029  _amount */\n      swap3\n        /* \"daibond/BondDepository.sol\":34308:35036  function stakeOrSend(... */\n      swap2\n      pop\n      pop\n      jump\t// out\n        /* \"daibond/BondDepository.sol\":1874:2008  function sub(uint256 a, uint256 b) internal pure returns (uint256) {... */\n    tag_178:\n        /* \"daibond/BondDepository.sol\":1932:1939  uint256 */\n      0x00\n        /* \"daibond/BondDepository.sol\":1958:2001  sub(a, b, \"SafeMath: subtraction overflow\") */\n      tag_329\n        /* \"daibond/BondDepository.sol\":1962:1963  a */\n      dup4\n        /* \"daibond/BondDepository.sol\":1965:1966  b */\n      dup4\n        /* \"daibond/BondDepository.sol\":1958:2001  sub(a, b, \"SafeMath: subtraction overflow\") */\n      mload(0x40)\n      dup1\n      0x40\n      add\n      0x40\n      mstore\n      dup1\n      0x1e\n      dup2\n      mstore\n      0x20\n      add\n      0x536166654d6174683a207375627472616374696f6e206f766572666c6f770000\n      dup2\n      mstore\n      pop\n        /* \"daibond/BondDepository.sol\":1958:1961  sub */\n      tag_359\n        /* \"daibond/BondDepository.sol\":1958:2001  sub(a, b, \"SafeMath: subtraction overflow\") */\n      jump\t// in\n        /* \"daibond/BondDepository.sol\":2237:2372  function sub32(uint32 a, uint32 b) internal pure returns (uint32) {... */\n    tag_181:\n        /* \"daibond/BondDepository.sol\":2295:2301  uint32 */\n      0x00\n        /* \"daibond/BondDepository.sol\":2320:2365  sub32(a, b, \"SafeMath: subtraction overflow\") */\n      tag_329\n        /* \"daibond/BondDepository.sol\":2326:2327  a */\n      dup4\n        /* \"daibond/BondDepository.sol\":2329:2330  b */\n      dup4\n        /* \"daibond/BondDepository.sol\":2320:2365  sub32(a, b, \"SafeMath: subtraction overflow\") */\n      mload(0x40)\n      dup1\n      0x40\n      add\n      0x40\n      mstore\n      dup1\n      0x1e\n      dup2\n      mstore\n      0x20\n      add\n      0x536166654d6174683a207375627472616374696f6e206f766572666c6f770000\n      dup2\n      mstore\n      pop\n        /* \"daibond/BondDepository.sol\":2320:2325  sub32 */\n      tag_362\n        /* \"daibond/BondDepository.sol\":2320:2365  sub32(a, b, \"SafeMath: subtraction overflow\") */\n      jump\t// in\n        /* \"daibond/BondDepository.sol\":22349:23083  function fraction(uint256 numerator, uint256 denominator)... */\n    tag_204:\n        /* \"daibond/BondDepository.sol\":22454:22470  uq112x112 memory */\n      tag_363\n      tag_364\n      jump\t// in\n    tag_363:\n        /* \"daibond/BondDepository.sol\":22508:22509  0 */\n      0x00\n        /* \"daibond/BondDepository.sol\":22494:22505  denominator */\n      dup3\n        /* \"daibond/BondDepository.sol\":22494:22509  denominator > 0 */\n      gt\n        /* \"daibond/BondDepository.sol\":22486:22552  require(denominator > 0, \"FixedPoint::fraction: division by zero\") */\n      tag_366\n      jumpi\n      mload(0x40)\n      shl(0xe5, 0x461bcd)\n      dup2\n      mstore\n      0x04\n      add\n      dup1\n      dup1\n      0x20\n      add\n      dup3\n      dup2\n      sub\n      dup3\n      mstore\n      0x26\n      dup2\n      mstore\n      0x20\n      add\n      dup1\n      data_5e8a6c8dfacd0a41f2501735d8ee26d996b9e7e81ff5467dfdfd11a3728a15e7\n      0x26\n      swap2\n      codecopy\n      0x40\n      add\n      swap2\n      pop\n      pop\n      mload(0x40)\n      dup1\n      swap2\n      sub\n      swap1\n      revert\n    tag_366:\n        /* \"daibond/BondDepository.sol\":22566:22580  numerator == 0 */\n      dup3\n        /* \"daibond/BondDepository.sol\":22562:22612  if (numerator == 0) return FixedPoint.uq112x112(0) */\n      tag_367\n      jumpi\n      pop\n        /* \"daibond/BondDepository.sol\":22589:22612  FixedPoint.uq112x112(0) */\n      0x40\n      dup1\n      mload\n      0x20\n      dup2\n      add\n      swap1\n      swap2\n      mstore\n      0x00\n      dup2\n      mstore\n        /* \"daibond/BondDepository.sol\":22582:22612  return FixedPoint.uq112x112(0) */\n      jump(tag_167)\n        /* \"daibond/BondDepository.sol\":22562:22612  if (numerator == 0) return FixedPoint.uq112x112(0) */\n    tag_367:\n        /* \"daibond/BondDepository.sol\":22627:22651  numerator <= uint144(-1) */\n      0xffffffffffffffffffffffffffffffffffff\n      dup4\n      gt\n        /* \"daibond/BondDepository.sol\":22623:23077  if (numerator <= uint144(-1)) {... */\n      tag_368\n      jumpi\n        /* \"daibond/BondDepository.sol\":22667:22681  uint256 result */\n      0x00\n        /* \"daibond/BondDepository.sol\":22712:22723  denominator */\n      dup3\n        /* \"daibond/BondDepository.sol\":21748:21751  112 */\n      0x70\n        /* \"daibond/BondDepository.sol\":22685:22708  numerator << RESOLUTION */\n      dup6\n      swap1\n      shl\n        /* \"daibond/BondDepository.sol\":22712:22723  denominator */\n      dup2\n        /* \"daibond/BondDepository.sol\":22684:22723  (numerator << RESOLUTION) / denominator */\n      tag_369\n      jumpi\n      invalid\n    tag_369:\n      div\n      swap1\n      pop\n      sub(shl(0xe0, 0x01), 0x01)\n        /* \"daibond/BondDepository.sol\":22745:22766  result <= uint224(-1) */\n      dup2\n      gt\n      iszero\n        /* \"daibond/BondDepository.sol\":22737:22801  require(result <= uint224(-1), \"FixedPoint::fraction: overflow\") */\n      tag_370\n      jumpi\n      0x40\n      dup1\n      mload\n      shl(0xe5, 0x461bcd)\n      dup2\n      mstore\n      0x20\n      0x04\n      dup3\n      add\n      mstore\n      0x1e\n      0x24\n      dup3\n      add\n      mstore\n      0x4669786564506f696e743a3a6672616374696f6e3a206f766572666c6f770000\n      0x44\n      dup3\n      add\n      mstore\n      swap1\n      mload\n      swap1\n      dup2\n      swap1\n      sub\n      0x64\n      add\n      swap1\n      revert\n    tag_370:\n        /* \"daibond/BondDepository.sol\":22822:22848  uq112x112(uint224(result)) */\n      mload(0x40)\n      dup1\n      0x20\n      add\n      0x40\n      mstore\n      dup1\n        /* \"daibond/BondDepository.sol\":22840:22846  result */\n      dup3\n      sub(shl(0xe0, 0x01), 0x01)\n        /* \"daibond/BondDepository.sol\":22822:22848  uq112x112(uint224(result)) */\n      and\n      dup2\n      mstore\n      pop\n        /* \"daibond/BondDepository.sol\":22815:22848  return uq112x112(uint224(result)) */\n      swap2\n      pop\n      pop\n      jump(tag_167)\n        /* \"daibond/BondDepository.sol\":22623:23077  if (numerator <= uint144(-1)) {... */\n    tag_368:\n        /* \"daibond/BondDepository.sol\":22879:22893  uint256 result */\n      0x00\n        /* \"daibond/BondDepository.sol\":22896:22941  FullMath.mulDiv(numerator, Q112, denominator) */\n      tag_372\n        /* \"daibond/BondDepository.sol\":22912:22921  numerator */\n      dup5\n        /* \"daibond/BondDepository.sol\":21789:21820  0x10000000000000000000000000000 */\n      0x010000000000000000000000000000\n        /* \"daibond/BondDepository.sol\":22929:22940  denominator */\n      dup6\n        /* \"daibond/BondDepository.sol\":22896:22911  FullMath.mulDiv */\n      tag_373\n        /* \"daibond/BondDepository.sol\":22896:22941  FullMath.mulDiv(numerator, Q112, denominator) */\n      jump\t// in\n    tag_372:\n        /* \"daibond/BondDepository.sol\":22879:22941  uint256 result = FullMath.mulDiv(numerator, Q112, denominator) */\n      swap1\n      pop\n      sub(shl(0xe0, 0x01), 0x01)\n        /* \"daibond/BondDepository.sol\":22963:22984  result <= uint224(-1) */\n      dup2\n      gt\n      iszero\n        /* \"daibond/BondDepository.sol\":22955:23019  require(result <= uint224(-1), \"FixedPoint::fraction: overflow\") */\n      tag_370\n      jumpi\n      0x40\n      dup1\n      mload\n      shl(0xe5, 0x461bcd)\n      dup2\n      mstore\n      0x20\n      0x04\n      dup3\n      add\n      mstore\n      0x1e\n      0x24\n      dup3\n      add\n      mstore\n      0x4669786564506f696e743a3a6672616374696f6e3a206f766572666c6f770000\n      0x44\n      dup3\n      add\n      mstore\n      swap1\n      mload\n      swap1\n      dup2\n      swap1\n      sub\n      0x64\n      add\n      swap1\n      revert\n        /* \"daibond/BondDepository.sol\":22176:22343  function decode112with18(uq112x112 memory self)... */\n    tag_205:\n        /* \"daibond/BondDepository.sol\":22309:22316  self._x */\n      mload\n        /* \"daibond/BondDepository.sol\":22320:22336  5192296858534827 */\n      0x12725dd1d243ab\n      sub(shl(0xe0, 0x01), 0x01)\n        /* \"daibond/BondDepository.sol\":22301:22317  uint256(self._x) */\n      swap1\n      swap2\n      and\n        /* \"daibond/BondDepository.sol\":22301:22336  uint256(self._x) / 5192296858534827 */\n      div\n      swap1\n        /* \"daibond/BondDepository.sol\":22176:22343  function decode112with18(uq112x112 memory self)... */\n      jump\t// out\n        /* \"daibond/BondDepository.sol\":36233:36363  function decayDebt() internal {... */\n    tag_226:\n        /* \"daibond/BondDepository.sol\":36285:36311  totalDebt.sub(debtDecay()) */\n      tag_378\n        /* \"daibond/BondDepository.sol\":36299:36310  debtDecay() */\n      tag_198\n        /* \"daibond/BondDepository.sol\":36299:36308  debtDecay */\n      tag_125\n        /* \"daibond/BondDepository.sol\":36299:36310  debtDecay() */\n      jump\t// in\n        /* \"daibond/BondDepository.sol\":36285:36311  totalDebt.sub(debtDecay()) */\n    tag_378:\n        /* \"daibond/BondDepository.sol\":36273:36282  totalDebt */\n      0x0f\n        /* \"daibond/BondDepository.sol\":36273:36311  totalDebt = totalDebt.sub(debtDecay()) */\n      sstore\n        /* \"daibond/BondDepository.sol\":36321:36330  lastDecay */\n      0x10\n        /* \"daibond/BondDepository.sol\":36321:36356  lastDecay = uint32(block.timestamp) */\n      dup1\n      sload\n      not(0xffffffff)\n      and\n        /* \"daibond/BondDepository.sol\":36340:36355  block.timestamp */\n      timestamp\n        /* \"daibond/BondDepository.sol\":36321:36356  lastDecay = uint32(block.timestamp) */\n      0xffffffff\n      and\n      or\n      swap1\n      sstore\n        /* \"daibond/BondDepository.sol\":36233:36363  function decayDebt() internal {... */\n      jump\t// out\n        /* \"daibond/BondDepository.sol\":37531:37874  function _bondPrice() internal returns (uint256 price_) {... */\n    tag_230:\n        /* \"daibond/BondDepository.sol\":37571:37585  uint256 price_ */\n      0x00\n        /* \"daibond/BondDepository.sol\":37606:37691  terms.controlVariable.mul(debtRatio()).add(1000000000).div(... */\n      tag_381\n        /* \"daibond/BondDepository.sol\":37678:37681  1e7 */\n      0x989680\n        /* \"daibond/BondDepository.sol\":37606:37660  terms.controlVariable.mul(debtRatio()).add(1000000000) */\n      tag_135\n        /* \"daibond/BondDepository.sol\":37649:37659  1000000000 */\n      0x3b9aca00\n        /* \"daibond/BondDepository.sol\":37606:37644  terms.controlVariable.mul(debtRatio()) */\n      tag_311\n        /* \"daibond/BondDepository.sol\":37632:37643  debtRatio() */\n      tag_312\n        /* \"daibond/BondDepository.sol\":37632:37641  debtRatio */\n      tag_109\n        /* \"daibond/BondDepository.sol\":37632:37643  debtRatio() */\n      jump\t// in\n        /* \"daibond/BondDepository.sol\":37606:37691  terms.controlVariable.mul(debtRatio()).add(1000000000).div(... */\n    tag_381:\n        /* \"daibond/BondDepository.sol\":37714:37732  terms.minimumPrice */\n      sload(0x05)\n        /* \"daibond/BondDepository.sol\":37597:37691  price_ = terms.controlVariable.mul(debtRatio()).add(1000000000).div(... */\n      swap1\n      swap2\n      pop\n        /* \"daibond/BondDepository.sol\":37705:37732  price_ < terms.minimumPrice */\n      dup2\n      lt\n        /* \"daibond/BondDepository.sol\":37701:37868  if (price_ < terms.minimumPrice) {... */\n      iszero\n      tag_385\n      jumpi\n      pop\n        /* \"daibond/BondDepository.sol\":37757:37775  terms.minimumPrice */\n      sload(0x05)\n        /* \"daibond/BondDepository.sol\":37701:37868  if (price_ < terms.minimumPrice) {... */\n      jump(tag_138)\n    tag_385:\n        /* \"daibond/BondDepository.sol\":37796:37814  terms.minimumPrice */\n      sload(0x05)\n        /* \"daibond/BondDepository.sol\":37796:37819  terms.minimumPrice != 0 */\n      iszero\n        /* \"daibond/BondDepository.sol\":37792:37868  if (terms.minimumPrice != 0) {... */\n      tag_138\n      jumpi\n        /* \"daibond/BondDepository.sol\":37856:37857  0 */\n      0x00\n        /* \"daibond/BondDepository.sol\":37835:37853  terms.minimumPrice */\n      0x05\n        /* \"daibond/BondDepository.sol\":37835:37857  terms.minimumPrice = 0 */\n      sstore\n        /* \"daibond/BondDepository.sol\":37531:37874  function _bondPrice() internal returns (uint256 price_) {... */\n      swap1\n      jump\t// out\n        /* \"daibond/BondDepository.sol\":18370:18645  function safeTransferFrom(... */\n    tag_245:\n        /* \"daibond/BondDepository.sol\":18560:18628  abi.encodeWithSelector(token.transferFrom.selector, from, to, value) */\n      0x40\n      dup1\n      mload\n      sub(shl(0xa0, 0x01), 0x01)\n      dup1\n      dup7\n      and\n      0x24\n      dup4\n      add\n      mstore\n      dup5\n      and\n      0x44\n      dup3\n      add\n      mstore\n      0x64\n      dup1\n      dup3\n      add\n      dup5\n      swap1\n      mstore\n      dup3\n      mload\n      dup1\n      dup4\n      sub\n      swap1\n      swap2\n      add\n      dup2\n      mstore\n      0x84\n      swap1\n      swap2\n      add\n      swap1\n      swap2\n      mstore\n      0x20\n      dup2\n      add\n      dup1\n      mload\n      sub(shl(0xe0, 0x01), 0x01)\n      and\n        /* \"daibond/BondDepository.sol\":18583:18610  token.transferFrom.selector */\n      0x23b872dd00000000000000000000000000000000000000000000000000000000\n        /* \"daibond/BondDepository.sol\":18560:18628  abi.encodeWithSelector(token.transferFrom.selector, from, to, value) */\n      or\n      swap1\n      mstore\n        /* \"daibond/BondDepository.sol\":18508:18638  _callOptionalReturn(... */\n      tag_389\n      swap1\n        /* \"daibond/BondDepository.sol\":18541:18546  token */\n      dup6\n      swap1\n        /* \"daibond/BondDepository.sol\":18508:18527  _callOptionalReturn */\n      tag_390\n        /* \"daibond/BondDepository.sol\":18508:18638  _callOptionalReturn(... */\n      jump\t// in\n    tag_389:\n        /* \"daibond/BondDepository.sol\":18370:18645  function safeTransferFrom(... */\n      pop\n      pop\n      pop\n      pop\n      jump\t// out\n        /* \"daibond/BondDepository.sol\":18125:18364  function safeTransfer(... */\n    tag_256:\n        /* \"daibond/BondDepository.sol\":18289:18347  abi.encodeWithSelector(token.transfer.selector, to, value) */\n      0x40\n      dup1\n      mload\n      sub(shl(0xa0, 0x01), 0x01)\n      dup5\n      and\n      0x24\n      dup3\n      add\n      mstore\n      0x44\n      dup1\n      dup3\n      add\n      dup5\n      swap1\n      mstore\n      dup3\n      mload\n      dup1\n      dup4\n      sub\n      swap1\n      swap2\n      add\n      dup2\n      mstore\n      0x64\n      swap1\n      swap2\n      add\n      swap1\n      swap2\n      mstore\n      0x20\n      dup2\n      add\n      dup1\n      mload\n      sub(shl(0xe0, 0x01), 0x01)\n      and\n        /* \"daibond/BondDepository.sol\":18312:18335  token.transfer.selector */\n      0xa9059cbb00000000000000000000000000000000000000000000000000000000\n        /* \"daibond/BondDepository.sol\":18289:18347  abi.encodeWithSelector(token.transfer.selector, to, value) */\n      or\n      swap1\n      mstore\n        /* \"daibond/BondDepository.sol\":18237:18357  _callOptionalReturn(... */\n      tag_392\n      swap1\n        /* \"daibond/BondDepository.sol\":18270:18275  token */\n      dup5\n      swap1\n        /* \"daibond/BondDepository.sol\":18237:18256  _callOptionalReturn */\n      tag_390\n        /* \"daibond/BondDepository.sol\":18237:18357  _callOptionalReturn(... */\n      jump\t// in\n    tag_392:\n        /* \"daibond/BondDepository.sol\":18125:18364  function safeTransfer(... */\n      pop\n      pop\n      pop\n      jump\t// out\n        /* \"daibond/BondDepository.sol\":1692:1868  function add(uint256 a, uint256 b) internal pure returns (uint256) {... */\n    tag_258:\n        /* \"daibond/BondDepository.sol\":1750:1757  uint256 */\n      0x00\n        /* \"daibond/BondDepository.sol\":1781:1786  a + b */\n      dup3\n      dup3\n      add\n        /* \"daibond/BondDepository.sol\":1804:1810  c >= a */\n      dup4\n      dup2\n      lt\n      iszero\n        /* \"daibond/BondDepository.sol\":1796:1842  require(c >= a, \"SafeMath: addition overflow\") */\n      tag_329\n      jumpi\n      0x40\n      dup1\n      mload\n      shl(0xe5, 0x461bcd)\n      dup2\n      mstore\n      0x20\n      0x04\n      dup3\n      add\n      mstore\n      0x1b\n      0x24\n      dup3\n      add\n      mstore\n      0x536166654d6174683a206164646974696f6e206f766572666c6f770000000000\n      0x44\n      dup3\n      add\n      mstore\n      swap1\n      mload\n      swap1\n      dup2\n      swap1\n      sub\n      0x64\n      add\n      swap1\n      revert\n        /* \"daibond/BondDepository.sol\":35123:36177  function adjust() internal {... */\n    tag_265:\n        /* \"daibond/BondDepository.sol\":35208:35225  adjustment.buffer */\n      sload(0x0d)\n        /* \"daibond/BondDepository.sol\":35160:35181  uint256 timeCanAdjust */\n      0x00\n      swap1\n        /* \"daibond/BondDepository.sol\":35184:35226  adjustment.lastTime.add(adjustment.buffer) */\n      tag_396\n      swap1\n        /* \"daibond/BondDepository.sol\":35208:35225  adjustment.buffer */\n      0xffffffff\n        /* \"daibond/BondDepository.sol\":35184:35203  adjustment.lastTime */\n      0x0100000000\n      dup3\n      div\n      dup2\n      and\n      swap2\n        /* \"daibond/BondDepository.sol\":35208:35225  adjustment.buffer */\n      dup2\n      and\n      swap1\n        /* \"daibond/BondDepository.sol\":35184:35207  adjustment.lastTime.add */\n      tag_258\n        /* \"daibond/BondDepository.sol\":35184:35226  adjustment.lastTime.add(adjustment.buffer) */\n      and\n      jump\t// in\n    tag_396:\n        /* \"daibond/BondDepository.sol\":35240:35255  adjustment.rate */\n      sload(0x0b)\n        /* \"daibond/BondDepository.sol\":35160:35226  uint256 timeCanAdjust = adjustment.lastTime.add(adjustment.buffer) */\n      swap1\n      swap2\n      pop\n        /* \"daibond/BondDepository.sol\":35240:35260  adjustment.rate != 0 */\n      iszero\n      dup1\n      iszero\n      swap1\n        /* \"daibond/BondDepository.sol\":35240:35296  adjustment.rate != 0 && block.timestamp >= timeCanAdjust */\n      tag_397\n      jumpi\n      pop\n        /* \"daibond/BondDepository.sol\":35283:35296  timeCanAdjust */\n      dup1\n        /* \"daibond/BondDepository.sol\":35264:35279  block.timestamp */\n      timestamp\n        /* \"daibond/BondDepository.sol\":35264:35296  block.timestamp >= timeCanAdjust */\n      lt\n      iszero\n        /* \"daibond/BondDepository.sol\":35240:35296  adjustment.rate != 0 && block.timestamp >= timeCanAdjust */\n    tag_397:\n        /* \"daibond/BondDepository.sol\":35236:36171  if (adjustment.rate != 0 && block.timestamp >= timeCanAdjust) {... */\n      iszero\n      tag_398\n      jumpi\n        /* \"daibond/BondDepository.sol\":35330:35335  terms */\n      0x04\n        /* \"daibond/BondDepository.sol\":35330:35351  terms.controlVariable */\n      sload\n        /* \"daibond/BondDepository.sol\":35369:35379  adjustment */\n      0x0a\n        /* \"daibond/BondDepository.sol\":35369:35383  adjustment.add */\n      sload\n      0xff\n      and\n        /* \"daibond/BondDepository.sol\":35365:35915  if (adjustment.add) {... */\n      iszero\n      tag_399\n      jumpi\n        /* \"daibond/BondDepository.sol\":35474:35489  adjustment.rate */\n      sload(0x0b)\n        /* \"daibond/BondDepository.sol\":35427:35432  terms */\n      0x04\n        /* \"daibond/BondDepository.sol\":35427:35448  terms.controlVariable */\n      sload\n        /* \"daibond/BondDepository.sol\":35427:35507  terms.controlVariable.add(... */\n      tag_400\n      swap2\n        /* \"daibond/BondDepository.sol\":35427:35452  terms.controlVariable.add */\n      tag_258\n        /* \"daibond/BondDepository.sol\":35427:35507  terms.controlVariable.add(... */\n      jump\t// in\n    tag_400:\n        /* \"daibond/BondDepository.sol\":35403:35408  terms */\n      0x04\n        /* \"daibond/BondDepository.sol\":35403:35507  terms.controlVariable = terms.controlVariable.add(... */\n      dup2\n      swap1\n      sstore\n        /* \"daibond/BondDepository.sol\":35554:35571  adjustment.target */\n      sload(0x0c)\n      gt\n        /* \"daibond/BondDepository.sol\":35525:35633  if (terms.controlVariable >= adjustment.target) {... */\n      tag_401\n      jumpi\n        /* \"daibond/BondDepository.sol\":35613:35614  0 */\n      0x00\n        /* \"daibond/BondDepository.sol\":35595:35610  adjustment.rate */\n      0x0b\n        /* \"daibond/BondDepository.sol\":35595:35614  adjustment.rate = 0 */\n      sstore\n        /* \"daibond/BondDepository.sol\":35525:35633  if (terms.controlVariable >= adjustment.target) {... */\n    tag_401:\n        /* \"daibond/BondDepository.sol\":35365:35915  if (adjustment.add) {... */\n      jump(tag_404)\n    tag_399:\n        /* \"daibond/BondDepository.sol\":35742:35757  adjustment.rate */\n      sload(0x0b)\n        /* \"daibond/BondDepository.sol\":35695:35700  terms */\n      0x04\n        /* \"daibond/BondDepository.sol\":35695:35716  terms.controlVariable */\n      sload\n        /* \"daibond/BondDepository.sol\":35695:35775  terms.controlVariable.sub(... */\n      tag_403\n      swap2\n        /* \"daibond/BondDepository.sol\":35695:35720  terms.controlVariable.sub */\n      tag_178\n        /* \"daibond/BondDepository.sol\":35695:35775  terms.controlVariable.sub(... */\n      jump\t// in\n    tag_403:\n        /* \"daibond/BondDepository.sol\":35671:35676  terms */\n      0x04\n        /* \"daibond/BondDepository.sol\":35671:35775  terms.controlVariable = terms.controlVariable.sub(... */\n      dup2\n      swap1\n      sstore\n        /* \"daibond/BondDepository.sol\":35822:35839  adjustment.target */\n      sload(0x0c)\n      lt\n        /* \"daibond/BondDepository.sol\":35793:35901  if (terms.controlVariable <= adjustment.target) {... */\n      tag_404\n      jumpi\n        /* \"daibond/BondDepository.sol\":35881:35882  0 */\n      0x00\n        /* \"daibond/BondDepository.sol\":35863:35878  adjustment.rate */\n      0x0b\n        /* \"daibond/BondDepository.sol\":35863:35882  adjustment.rate = 0 */\n      sstore\n        /* \"daibond/BondDepository.sol\":35793:35901  if (terms.controlVariable <= adjustment.target) {... */\n    tag_404:\n        /* \"daibond/BondDepository.sol\":35928:35947  adjustment.lastTime */\n      0x0d\n        /* \"daibond/BondDepository.sol\":35928:35973  adjustment.lastTime = uint32(block.timestamp) */\n      dup1\n      sload\n      not(0xffffffff00000000)\n      and\n      0x0100000000\n        /* \"daibond/BondDepository.sol\":35957:35972  block.timestamp */\n      timestamp\n        /* \"daibond/BondDepository.sol\":35928:35973  adjustment.lastTime = uint32(block.timestamp) */\n      0xffffffff\n      and\n      mul\n      or\n      swap1\n      sstore\n        /* \"daibond/BondDepository.sol\":35928:35947  adjustment.lastTime */\n      0x04\n        /* \"daibond/BondDepository.sol\":36060:36081  terms.controlVariable */\n      sload\n        /* \"daibond/BondDepository.sol\":36099:36114  adjustment.rate */\n      sload(0x0b)\n        /* \"daibond/BondDepository.sol\":35928:35938  adjustment */\n      0x0a\n        /* \"daibond/BondDepository.sol\":36132:36146  adjustment.add */\n      sload\n        /* \"daibond/BondDepository.sol\":35992:36160  ControlVariableAdjustment(... */\n      0x40\n      dup1\n      mload\n      dup6\n      dup2\n      mstore\n      0x20\n      dup2\n      add\n      swap5\n      swap1\n      swap5\n      mstore\n      dup4\n      dup2\n      add\n      swap3\n      swap1\n      swap3\n      mstore\n        /* \"daibond/BondDepository.sol\":36132:36146  adjustment.add */\n      0xff\n      and\n        /* \"daibond/BondDepository.sol\":35992:36160  ControlVariableAdjustment(... */\n      iszero\n      iszero\n      0x60\n      dup4\n      add\n      mstore\n      mload\n      0xb923e581a0f83128e9e1d8297aa52b18d6744310476e0b54509c054cd7a93b2a\n      swap2\n      0x80\n      swap1\n      dup3\n      swap1\n      sub\n      add\n      swap1\n      log1\n        /* \"daibond/BondDepository.sol\":35236:36171  if (adjustment.rate != 0 && block.timestamp >= timeCanAdjust) {... */\n      pop\n    tag_398:\n        /* \"daibond/BondDepository.sol\":35123:36177  function adjust() internal {... */\n      pop\n      jump\t// out\n        /* \"daibond/BondDepository.sol\":2982:3197  function div(... */\n    tag_332:\n        /* \"daibond/BondDepository.sol\":3098:3105  uint256 */\n      0x00\n        /* \"daibond/BondDepository.sol\":3132:3144  errorMessage */\n      dup2\n        /* \"daibond/BondDepository.sol\":3125:3130  b > 0 */\n      dup4\n        /* \"daibond/BondDepository.sol\":3117:3145  require(b > 0, errorMessage) */\n      tag_406\n      jumpi\n      mload(0x40)\n      shl(0xe5, 0x461bcd)\n      dup2\n      mstore\n      0x04\n      add\n      dup1\n      dup1\n      0x20\n      add\n      dup3\n      dup2\n      sub\n      dup3\n      mstore\n      dup4\n      dup2\n      dup2\n      mload\n      dup2\n      mstore\n      0x20\n      add\n      swap2\n      pop\n      dup1\n      mload\n      swap1\n      0x20\n      add\n      swap1\n      dup1\n      dup4\n      dup4\n      0x00\n    tag_407:\n      dup4\n      dup2\n      lt\n      iszero\n      tag_409\n      jumpi\n      dup2\n      dup2\n      add\n      mload\n      dup4\n      dup3\n      add\n      mstore\n      0x20\n      add\n      jump(tag_407)\n    tag_409:\n      pop\n      pop\n      pop\n      pop\n      swap1\n      pop\n      swap1\n      dup2\n      add\n      swap1\n      0x1f\n      and\n      dup1\n      iszero\n      tag_410\n      jumpi\n      dup1\n      dup3\n      sub\n      dup1\n      mload\n      0x01\n      dup4\n      0x20\n      sub\n      0x0100\n      exp\n      sub\n      not\n      and\n      dup2\n      mstore\n      0x20\n      add\n      swap2\n      pop\n    tag_410:\n      pop\n      swap3\n      pop\n      pop\n      pop\n      mload(0x40)\n      dup1\n      swap2\n      sub\n      swap1\n      revert\n    tag_406:\n      pop\n        /* \"daibond/BondDepository.sol\":3155:3164  uint256 c */\n      0x00\n        /* \"daibond/BondDepository.sol\":3171:3172  b */\n      dup4\n        /* \"daibond/BondDepository.sol\":3167:3168  a */\n      dup6\n        /* \"daibond/BondDepository.sol\":3167:3172  a / b */\n      dup2\n      tag_411\n      jumpi\n      invalid\n    tag_411:\n      div\n      swap6\n        /* \"daibond/BondDepository.sol\":2982:3197  function div(... */\n      swap5\n      pop\n      pop\n      pop\n      pop\n      pop\n      jump\t// out\n        /* \"daibond/BondDepository.sol\":2014:2231  function sub(... */\n    tag_359:\n        /* \"daibond/BondDepository.sol\":2130:2137  uint256 */\n      0x00\n        /* \"daibond/BondDepository.sol\":2165:2177  errorMessage */\n      dup2\n        /* \"daibond/BondDepository.sol\":2157:2163  b <= a */\n      dup5\n      dup5\n      gt\n      iszero\n        /* \"daibond/BondDepository.sol\":2149:2178  require(b <= a, errorMessage) */\n      tag_413\n      jumpi\n      mload(0x40)\n      shl(0xe5, 0x461bcd)\n      dup2\n      mstore\n      0x20\n      0x04\n      dup3\n      add\n      dup2\n      dup2\n      mstore\n      dup4\n      mload\n      0x24\n      dup5\n      add\n      mstore\n      dup4\n      mload\n      swap1\n      swap3\n      dup4\n      swap3\n      0x44\n      swap1\n      swap2\n      add\n      swap2\n      swap1\n      dup6\n      add\n      swap1\n      dup1\n      dup4\n      dup4\n      0x00\n      dup4\n      iszero\n      tag_409\n      jumpi\n      dup2\n      dup2\n      add\n      mload\n      dup4\n      dup3\n      add\n      mstore\n      0x20\n      add\n      jump(tag_407)\n    tag_413:\n      pop\n      pop\n      pop\n        /* \"daibond/BondDepository.sol\":2200:2205  a - b */\n      swap1\n      sub\n      swap1\n        /* \"daibond/BondDepository.sol\":2014:2231  function sub(... */\n      jump\t// out\n        /* \"daibond/BondDepository.sol\":2378:2593  function sub32(... */\n    tag_362:\n        /* \"daibond/BondDepository.sol\":2494:2500  uint32 */\n      0x00\n        /* \"daibond/BondDepository.sol\":2525:2526  a */\n      dup4\n        /* \"daibond/BondDepository.sol\":2520:2526  b <= a */\n      0xffffffff\n      and\n        /* \"daibond/BondDepository.sol\":2520:2521  b */\n      dup4\n        /* \"daibond/BondDepository.sol\":2520:2526  b <= a */\n      0xffffffff\n      and\n      gt\n      iszero\n        /* \"daibond/BondDepository.sol\":2528:2540  errorMessage */\n      dup3\n        /* \"daibond/BondDepository.sol\":2512:2541  require(b <= a, errorMessage) */\n      swap1\n      tag_413\n      jumpi\n      mload(0x40)\n      shl(0xe5, 0x461bcd)\n      dup2\n      mstore\n      0x20\n      0x04\n      dup3\n      add\n      dup2\n      dup2\n      mstore\n      dup4\n      mload\n      0x24\n      dup5\n      add\n      mstore\n      dup4\n      mload\n      swap1\n      swap3\n      dup4\n      swap3\n      0x44\n      swap1\n      swap2\n      add\n      swap2\n      swap1\n      dup6\n      add\n      swap1\n      dup1\n      dup4\n      dup4\n      0x00\n      dup4\n      iszero\n      tag_409\n      jumpi\n      dup2\n      dup2\n      add\n      mload\n      dup4\n      dup3\n      add\n      mstore\n      0x20\n      add\n      jump(tag_407)\n        /* \"daibond/BondDepository.sol\":21247:21583  function mulDiv(... */\n    tag_373:\n        /* \"daibond/BondDepository.sol\":21349:21356  uint256 */\n      0x00\n        /* \"daibond/BondDepository.sol\":21369:21378  uint256 l */\n      dup1\n        /* \"daibond/BondDepository.sol\":21380:21389  uint256 h */\n      0x00\n        /* \"daibond/BondDepository.sol\":21393:21406  fullMul(x, y) */\n      tag_425\n        /* \"daibond/BondDepository.sol\":21401:21402  x */\n      dup7\n        /* \"daibond/BondDepository.sol\":21404:21405  y */\n      dup7\n        /* \"daibond/BondDepository.sol\":21393:21400  fullMul */\n      tag_426\n        /* \"daibond/BondDepository.sol\":21393:21406  fullMul(x, y) */\n      jump\t// in\n    tag_425:\n        /* \"daibond/BondDepository.sol\":21368:21406  (uint256 l, uint256 h) = fullMul(x, y) */\n      swap2\n      pop\n      swap2\n      pop\n        /* \"daibond/BondDepository.sol\":21416:21426  uint256 mm */\n      0x00\n        /* \"daibond/BondDepository.sol\":21442:21443  d */\n      dup5\n        /* \"daibond/BondDepository.sol\":21429:21444  mulmod(x, y, d) */\n      dup1\n      tag_427\n      jumpi\n      invalid\n    tag_427:\n        /* \"daibond/BondDepository.sol\":21439:21440  y */\n      dup7\n        /* \"daibond/BondDepository.sol\":21436:21437  x */\n      dup9\n        /* \"daibond/BondDepository.sol\":21429:21444  mulmod(x, y, d) */\n      mulmod\n        /* \"daibond/BondDepository.sol\":21416:21444  uint256 mm = mulmod(x, y, d) */\n      swap1\n      pop\n        /* \"daibond/BondDepository.sol\":21463:21464  l */\n      dup3\n        /* \"daibond/BondDepository.sol\":21458:21460  mm */\n      dup2\n        /* \"daibond/BondDepository.sol\":21458:21464  mm > l */\n      gt\n        /* \"daibond/BondDepository.sol\":21454:21472  if (mm > l) h -= 1 */\n      iszero\n      tag_428\n      jumpi\n        /* \"daibond/BondDepository.sol\":21471:21472  1 */\n      0x01\n        /* \"daibond/BondDepository.sol\":21466:21472  h -= 1 */\n      dup3\n      sub\n      swap2\n      pop\n        /* \"daibond/BondDepository.sol\":21454:21472  if (mm > l) h -= 1 */\n    tag_428:\n        /* \"daibond/BondDepository.sol\":21487:21489  mm */\n      dup1\n        /* \"daibond/BondDepository.sol\":21482:21489  l -= mm */\n      dup4\n      sub\n      swap3\n      pop\n        /* \"daibond/BondDepository.sol\":21511:21512  d */\n      dup5\n        /* \"daibond/BondDepository.sol\":21507:21508  h */\n      dup3\n        /* \"daibond/BondDepository.sol\":21507:21512  h < d */\n      lt\n        /* \"daibond/BondDepository.sol\":21499:21543  require(h < d, \"FullMath::mulDiv: overflow\") */\n      tag_429\n      jumpi\n      0x40\n      dup1\n      mload\n      shl(0xe5, 0x461bcd)\n      dup2\n      mstore\n      0x20\n      0x04\n      dup3\n      add\n      mstore\n      0x1a\n      0x24\n      dup3\n      add\n      mstore\n      0x46756c6c4d6174683a3a6d756c4469763a206f766572666c6f77000000000000\n      0x44\n      dup3\n      add\n      mstore\n      swap1\n      mload\n      swap1\n      dup2\n      swap1\n      sub\n      0x64\n      add\n      swap1\n      revert\n    tag_429:\n        /* \"daibond/BondDepository.sol\":21560:21576  fullDiv(l, h, d) */\n      tag_430\n        /* \"daibond/BondDepository.sol\":21568:21569  l */\n      dup4\n        /* \"daibond/BondDepository.sol\":21571:21572  h */\n      dup4\n        /* \"daibond/BondDepository.sol\":21574:21575  d */\n      dup8\n        /* \"daibond/BondDepository.sol\":21560:21567  fullDiv */\n      tag_431\n        /* \"daibond/BondDepository.sol\":21560:21576  fullDiv(l, h, d) */\n      jump\t// in\n    tag_430:\n        /* \"daibond/BondDepository.sol\":21553:21576  return fullDiv(l, h, d) */\n      swap8\n        /* \"daibond/BondDepository.sol\":21247:21583  function mulDiv(... */\n      swap7\n      pop\n      pop\n      pop\n      pop\n      pop\n      pop\n      pop\n      jump\t// out\n        /* \"daibond/BondDepository.sol\":20008:20512  function _callOptionalReturn(IERC20 token, bytes memory data) private {... */\n    tag_390:\n        /* \"daibond/BondDepository.sol\":20088:20111  bytes memory returndata */\n      0x60\n        /* \"daibond/BondDepository.sol\":20114:20217  address(token).functionCall(... */\n      tag_433\n        /* \"daibond/BondDepository.sol\":20155:20159  data */\n      dup3\n        /* \"daibond/BondDepository.sol\":20114:20217  address(token).functionCall(... */\n      mload(0x40)\n      dup1\n      0x40\n      add\n      0x40\n      mstore\n      dup1\n      0x20\n      dup2\n      mstore\n      0x20\n      add\n      0x5361666545524332303a206c6f772d6c6576656c2063616c6c206661696c6564\n      dup2\n      mstore\n      pop\n        /* \"daibond/BondDepository.sol\":20122:20127  token */\n      dup6\n      sub(shl(0xa0, 0x01), 0x01)\n        /* \"daibond/BondDepository.sol\":20114:20141  address(token).functionCall */\n      and\n      tag_434\n      swap1\n        /* \"daibond/BondDepository.sol\":20114:20217  address(token).functionCall(... */\n      swap3\n      swap2\n      swap1\n      0xffffffff\n      and\n      jump\t// in\n    tag_433:\n        /* \"daibond/BondDepository.sol\":20231:20248  returndata.length */\n      dup1\n      mload\n        /* \"daibond/BondDepository.sol\":20088:20217  bytes memory returndata = address(token).functionCall(... */\n      swap1\n      swap2\n      pop\n        /* \"daibond/BondDepository.sol\":20231:20252  returndata.length > 0 */\n      iszero\n        /* \"daibond/BondDepository.sol\":20227:20506  if (returndata.length > 0) {... */\n      tag_392\n      jumpi\n        /* \"daibond/BondDepository.sol\":20400:20410  returndata */\n      dup1\n        /* \"daibond/BondDepository.sol\":20389:20419  abi.decode(returndata, (bool)) */\n      dup1\n      0x20\n      add\n      swap1\n      mload\n      0x20\n      dup2\n      lt\n      iszero\n      tag_436\n      jumpi\n      0x00\n      dup1\n      revert\n    tag_436:\n      pop\n      mload\n        /* \"daibond/BondDepository.sol\":20364:20495  require(... */\n      tag_392\n      jumpi\n      mload(0x40)\n      shl(0xe5, 0x461bcd)\n      dup2\n      mstore\n      0x04\n      add\n      dup1\n      dup1\n      0x20\n      add\n      dup3\n      dup2\n      sub\n      dup3\n      mstore\n      0x2a\n      dup2\n      mstore\n      0x20\n      add\n      dup1\n      data_e11ad79d1e4a7f2e5f376964cb99e8e8f7904e3fc16a109f7a7ecb9aa7956dcd\n      0x2a\n      swap2\n      codecopy\n      0x40\n      add\n      swap2\n      pop\n      pop\n      mload(0x40)\n      dup1\n      swap2\n      sub\n      swap1\n      revert\n        /* \"daibond/BondDepository.sol\":20539:20772  function fullMul(uint256 x, uint256 y)... */\n    tag_426:\n        /* \"daibond/BondDepository.sol\":20624:20633  uint256 l */\n      0x00\n      dup1\n      dup1\n      not(0x00)\n        /* \"daibond/BondDepository.sol\":20683:20684  y */\n      dup5\n        /* \"daibond/BondDepository.sol\":20680:20681  x */\n      dup7\n        /* \"daibond/BondDepository.sol\":20673:20698  mulmod(x, y, uint256(-1)) */\n      mulmod\n        /* \"daibond/BondDepository.sol\":20660:20698  uint256 mm = mulmod(x, y, uint256(-1)) */\n      swap1\n      pop\n        /* \"daibond/BondDepository.sol\":20716:20717  y */\n      dup4\n        /* \"daibond/BondDepository.sol\":20712:20713  x */\n      dup6\n        /* \"daibond/BondDepository.sol\":20712:20717  x * y */\n      mul\n        /* \"daibond/BondDepository.sol\":20708:20717  l = x * y */\n      swap3\n      pop\n        /* \"daibond/BondDepository.sol\":20736:20737  l */\n      dup3\n        /* \"daibond/BondDepository.sol\":20731:20733  mm */\n      dup2\n        /* \"daibond/BondDepository.sol\":20731:20737  mm - l */\n      sub\n        /* \"daibond/BondDepository.sol\":20727:20737  h = mm - l */\n      swap2\n      pop\n        /* \"daibond/BondDepository.sol\":20756:20757  l */\n      dup3\n        /* \"daibond/BondDepository.sol\":20751:20753  mm */\n      dup2\n        /* \"daibond/BondDepository.sol\":20751:20757  mm < l */\n      lt\n        /* \"daibond/BondDepository.sol\":20747:20765  if (mm < l) h -= 1 */\n      iszero\n      tag_440\n      jumpi\n        /* \"daibond/BondDepository.sol\":20764:20765  1 */\n      0x01\n        /* \"daibond/BondDepository.sol\":20759:20765  h -= 1 */\n      dup3\n      sub\n      swap2\n      pop\n        /* \"daibond/BondDepository.sol\":20747:20765  if (mm < l) h -= 1 */\n    tag_440:\n        /* \"daibond/BondDepository.sol\":20539:20772  function fullMul(uint256 x, uint256 y)... */\n      pop\n      swap3\n      pop\n      swap3\n      swap1\n      pop\n      jump\t// out\n        /* \"daibond/BondDepository.sol\":20778:21241  function fullDiv(... */\n    tag_431:\n        /* \"daibond/BondDepository.sol\":20880:20887  uint256 */\n      0x00\n        /* \"daibond/BondDepository.sol\":20918:20920  -d */\n      dup2\n      dup2\n      sub\n        /* \"daibond/BondDepository.sol\":20914:20920  d & -d */\n      dup3\n      and\n      dup1\n        /* \"daibond/BondDepository.sol\":20919:20920  d */\n      dup4\n        /* \"daibond/BondDepository.sol\":20914:20920  d & -d */\n      dup2\n        /* \"daibond/BondDepository.sol\":20930:20939  d /= pow2 */\n      tag_442\n      jumpi\n      invalid\n    tag_442:\n      div\n      swap3\n      pop\n        /* \"daibond/BondDepository.sol\":20954:20958  pow2 */\n      dup1\n        /* \"daibond/BondDepository.sol\":20949:20958  l /= pow2 */\n      dup6\n      dup2\n      tag_443\n      jumpi\n      invalid\n    tag_443:\n      div\n      swap5\n      pop\n        /* \"daibond/BondDepository.sol\":20988:20992  pow2 */\n      dup1\n        /* \"daibond/BondDepository.sol\":20980:20984  pow2 */\n      dup2\n        /* \"daibond/BondDepository.sol\":20979:20984  -pow2 */\n      0x00\n      sub\n        /* \"daibond/BondDepository.sol\":20978:20992  (-pow2) / pow2 */\n      dup2\n      tag_444\n      jumpi\n      invalid\n    tag_444:\n        /* \"daibond/BondDepository.sol\":21035:21036  2 */\n      0x02\n        /* \"daibond/BondDepository.sol\":21035:21044  2 - d * r */\n      dup6\n      dup2\n      sub\n        /* \"daibond/BondDepository.sol\":21063:21068  d * r */\n      dup1\n      dup8\n      mul\n        /* \"daibond/BondDepository.sol\":21059:21068  2 - d * r */\n      dup3\n      sub\n        /* \"daibond/BondDepository.sol\":21054:21068  r *= 2 - d * r */\n      mul\n        /* \"daibond/BondDepository.sol\":21087:21092  d * r */\n      dup1\n      dup8\n      mul\n        /* \"daibond/BondDepository.sol\":21083:21092  2 - d * r */\n      dup3\n      sub\n        /* \"daibond/BondDepository.sol\":21078:21092  r *= 2 - d * r */\n      mul\n        /* \"daibond/BondDepository.sol\":21111:21116  d * r */\n      dup1\n      dup8\n      mul\n        /* \"daibond/BondDepository.sol\":21107:21116  2 - d * r */\n      dup3\n      sub\n        /* \"daibond/BondDepository.sol\":21102:21116  r *= 2 - d * r */\n      mul\n        /* \"daibond/BondDepository.sol\":21135:21140  d * r */\n      dup1\n      dup8\n      mul\n        /* \"daibond/BondDepository.sol\":21131:21140  2 - d * r */\n      dup3\n      sub\n        /* \"daibond/BondDepository.sol\":21126:21140  r *= 2 - d * r */\n      mul\n        /* \"daibond/BondDepository.sol\":21159:21164  d * r */\n      dup1\n      dup8\n      mul\n        /* \"daibond/BondDepository.sol\":21155:21164  2 - d * r */\n      dup3\n      sub\n        /* \"daibond/BondDepository.sol\":21150:21164  r *= 2 - d * r */\n      mul\n        /* \"daibond/BondDepository.sol\":21183:21188  d * r */\n      dup1\n      dup8\n      mul\n        /* \"daibond/BondDepository.sol\":21179:21188  2 - d * r */\n      dup3\n      sub\n        /* \"daibond/BondDepository.sol\":21174:21188  r *= 2 - d * r */\n      mul\n        /* \"daibond/BondDepository.sol\":21207:21212  d * r */\n      swap6\n      dup7\n      mul\n        /* \"daibond/BondDepository.sol\":21203:21212  2 - d * r */\n      swap1\n      sub\n        /* \"daibond/BondDepository.sol\":21198:21212  r *= 2 - d * r */\n      swap1\n      swap5\n      mul\n        /* \"daibond/BondDepository.sol\":20978:20992  (-pow2) / pow2 */\n      swap4\n      div\n        /* \"daibond/BondDepository.sol\":20995:20996  1 */\n      0x01\n        /* \"daibond/BondDepository.sol\":20978:20996  (-pow2) / pow2 + 1 */\n      add\n        /* \"daibond/BondDepository.sol\":20973:20997  h * ((-pow2) / pow2 + 1) */\n      swap4\n      swap1\n      swap4\n      mul\n        /* \"daibond/BondDepository.sol\":20968:20997  l += h * ((-pow2) / pow2 + 1) */\n      swap4\n      swap1\n      swap4\n      add\n        /* \"daibond/BondDepository.sol\":21229:21234  l * r */\n      mul\n      swap3\n        /* \"daibond/BondDepository.sol\":20778:21241  function fullDiv(... */\n      swap2\n      pop\n      pop\n      jump\t// out\n        /* \"daibond/BondDepository.sol\":4796:5020  function functionCall(... */\n    tag_434:\n        /* \"daibond/BondDepository.sol\":4929:4941  bytes memory */\n      0x60\n        /* \"daibond/BondDepository.sol\":4960:5013  _functionCallWithValue(target, data, 0, errorMessage) */\n      tag_446\n        /* \"daibond/BondDepository.sol\":4983:4989  target */\n      dup5\n        /* \"daibond/BondDepository.sol\":4991:4995  data */\n      dup5\n        /* \"daibond/BondDepository.sol\":4997:4998  0 */\n      0x00\n        /* \"daibond/BondDepository.sol\":5000:5012  errorMessage */\n      dup6\n        /* \"daibond/BondDepository.sol\":4960:4982  _functionCallWithValue */\n      tag_447\n        /* \"daibond/BondDepository.sol\":4960:5013  _functionCallWithValue(target, data, 0, errorMessage) */\n      jump\t// in\n    tag_446:\n        /* \"daibond/BondDepository.sol\":4953:5013  return _functionCallWithValue(target, data, 0, errorMessage) */\n      swap5\n        /* \"daibond/BondDepository.sol\":4796:5020  function functionCall(... */\n      swap4\n      pop\n      pop\n      pop\n      pop\n      jump\t// out\n        /* \"daibond/BondDepository.sol\":5997:7013  function _functionCallWithValue(... */\n    tag_447:\n        /* \"daibond/BondDepository.sol\":6165:6177  bytes memory */\n      0x60\n        /* \"daibond/BondDepository.sol\":6197:6215  isContract(target) */\n      tag_449\n        /* \"daibond/BondDepository.sol\":6208:6214  target */\n      dup6\n        /* \"daibond/BondDepository.sol\":6197:6207  isContract */\n      tag_450\n        /* \"daibond/BondDepository.sol\":6197:6215  isContract(target) */\n      jump\t// in\n    tag_449:\n        /* \"daibond/BondDepository.sol\":6189:6249  require(isContract(target), \"Address: call to non-contract\") */\n      tag_451\n      jumpi\n      0x40\n      dup1\n      mload\n      shl(0xe5, 0x461bcd)\n      dup2\n      mstore\n      0x20\n      0x04\n      dup3\n      add\n      mstore\n      0x1d\n      0x24\n      dup3\n      add\n      mstore\n      0x416464726573733a2063616c6c20746f206e6f6e2d636f6e7472616374000000\n      0x44\n      dup3\n      add\n      mstore\n      swap1\n      mload\n      swap1\n      dup2\n      swap1\n      sub\n      0x64\n      add\n      swap1\n      revert\n    tag_451:\n        /* \"daibond/BondDepository.sol\":6320:6332  bool success */\n      0x00\n        /* \"daibond/BondDepository.sol\":6334:6357  bytes memory returndata */\n      0x60\n        /* \"daibond/BondDepository.sol\":6361:6367  target */\n      dup7\n      sub(shl(0xa0, 0x01), 0x01)\n        /* \"daibond/BondDepository.sol\":6361:6372  target.call */\n      and\n        /* \"daibond/BondDepository.sol\":6380:6388  weiValue */\n      dup6\n        /* \"daibond/BondDepository.sol\":6403:6407  data */\n      dup8\n        /* \"daibond/BondDepository.sol\":6361:6417  target.call{value: weiValue}(... */\n      mload(0x40)\n      dup1\n      dup3\n      dup1\n      mload\n      swap1\n      0x20\n      add\n      swap1\n      dup1\n      dup4\n      dup4\n    tag_452:\n      0x20\n      dup4\n      lt\n      tag_454\n      jumpi\n      dup1\n      mload\n      dup3\n      mstore\n      not(0x1f)\n      swap1\n      swap3\n      add\n      swap2\n      0x20\n      swap2\n      dup3\n      add\n      swap2\n      add\n      jump(tag_452)\n    tag_454:\n      0x01\n      dup4\n      0x20\n      sub\n      0x0100\n      exp\n      sub\n      dup1\n      not\n      dup3\n      mload\n      and\n      dup2\n      dup5\n      mload\n      and\n      dup1\n      dup3\n      or\n      dup6\n      mstore\n      pop\n      pop\n      pop\n      pop\n      pop\n      pop\n      swap1\n      pop\n      add\n      swap2\n      pop\n      pop\n      0x00\n      mload(0x40)\n      dup1\n      dup4\n      sub\n      dup2\n      dup6\n      dup8\n      gas\n      call\n      swap3\n      pop\n      pop\n      pop\n      returndatasize\n      dup1\n      0x00\n      dup2\n      eq\n      tag_457\n      jumpi\n      mload(0x40)\n      swap2\n      pop\n      and(add(returndatasize, 0x3f), not(0x1f))\n      dup3\n      add\n      0x40\n      mstore\n      returndatasize\n      dup3\n      mstore\n      returndatasize\n      0x00\n      0x20\n      dup5\n      add\n      returndatacopy\n      jump(tag_456)\n    tag_457:\n      0x60\n      swap2\n      pop\n    tag_456:\n      pop\n        /* \"daibond/BondDepository.sol\":6319:6417  (bool success, bytes memory returndata) = target.call{value: weiValue}(... */\n      swap2\n      pop\n      swap2\n      pop\n        /* \"daibond/BondDepository.sol\":6431:6438  success */\n      dup2\n        /* \"daibond/BondDepository.sol\":6427:7007  if (success) {... */\n      iszero\n      tag_458\n      jumpi\n        /* \"daibond/BondDepository.sol\":6461:6471  returndata */\n      swap2\n      pop\n        /* \"daibond/BondDepository.sol\":6454:6471  return returndata */\n      tag_446\n      swap1\n      pop\n      jump\n        /* \"daibond/BondDepository.sol\":6427:7007  if (success) {... */\n    tag_458:\n        /* \"daibond/BondDepository.sol\":6572:6589  returndata.length */\n      dup1\n      mload\n        /* \"daibond/BondDepository.sol\":6572:6593  returndata.length > 0 */\n      iszero\n        /* \"daibond/BondDepository.sol\":6568:6997  if (returndata.length > 0) {... */\n      tag_460\n      jumpi\n        /* \"daibond/BondDepository.sol\":6830:6840  returndata */\n      dup1\n        /* \"daibond/BondDepository.sol\":6824:6841  mload(returndata) */\n      mload\n        /* \"daibond/BondDepository.sol\":6890:6905  returndata_size */\n      dup1\n        /* \"daibond/BondDepository.sol\":6877:6887  returndata */\n      dup3\n        /* \"daibond/BondDepository.sol\":6873:6875  32 */\n      0x20\n        /* \"daibond/BondDepository.sol\":6869:6888  add(32, returndata) */\n      add\n        /* \"daibond/BondDepository.sol\":6862:6906  revert(add(32, returndata), returndata_size) */\n      revert\n        /* \"daibond/BondDepository.sol\":6779:6924  {... */\n    tag_460:\n        /* \"daibond/BondDepository.sol\":6962:6982  revert(errorMessage) */\n      mload(0x40)\n      shl(0xe5, 0x461bcd)\n      dup2\n      mstore\n      0x20\n      0x04\n      dup3\n      add\n      dup2\n      dup2\n      mstore\n      dup7\n      mload\n      0x24\n      dup5\n      add\n      mstore\n      dup7\n      mload\n        /* \"daibond/BondDepository.sol\":6969:6981  errorMessage */\n      dup8\n      swap4\n        /* \"daibond/BondDepository.sol\":6962:6982  revert(errorMessage) */\n      swap2\n      swap3\n      dup4\n      swap3\n      0x44\n      add\n      swap2\n      swap1\n      dup6\n      add\n      swap1\n      dup1\n      dup4\n      dup4\n      0x00\n      dup4\n      iszero\n      tag_409\n      jumpi\n      dup2\n      dup2\n      add\n      mload\n      dup4\n      dup3\n      add\n      mstore\n      0x20\n      add\n      jump(tag_407)\n        /* \"daibond/BondDepository.sol\":3882:4128  function isContract(address account) internal view returns (bool) {... */\n    tag_450:\n        /* \"daibond/BondDepository.sol\":4067:4087  extcodesize(account) */\n      extcodesize\n        /* \"daibond/BondDepository.sol\":4113:4121  size > 0 */\n      iszero\n      iszero\n      swap1\n        /* \"daibond/BondDepository.sol\":3882:4128  function isContract(address account) internal view returns (bool) {... */\n      jump\t// out\n    tag_169:\n      mload(0x40)\n      dup1\n      0x80\n      add\n      0x40\n      mstore\n      dup1\n      0x00\n      dup2\n      mstore\n      0x20\n      add\n      0x00\n      dup2\n      mstore\n      0x20\n      add\n      and(0xffffffff, 0x00)\n      dup2\n      mstore\n      0x20\n      add\n      and(0xffffffff, 0x00)\n      dup2\n      mstore\n      pop\n      swap1\n      jump\t// out\n    tag_364:\n      0x40\n      dup1\n      mload\n      0x20\n      dup2\n      add\n      swap1\n      swap2\n      mstore\n      0x00\n      dup2\n      mstore\n      swap1\n      jump\t// out\n    stop\n    data_245f15ff17f551913a7a18385165551503906a406f905ac1c2437281a7cd0cfe 4f776e61626c653a206e6577206f776e657220697320746865207a65726f2061646472657373\n    data_4de71fbd3469e1b7fc89a70805ae86972c680281e629f271ab7471fd6321445c 4f776e61626c653a206d757374206265206e6577206f776e657220746f2070756c6c\n    data_5e8a6c8dfacd0a41f2501735d8ee26d996b9e7e81ff5467dfdfd11a3728a15e7 4669786564506f696e743a3a6672616374696f6e3a206469766973696f6e206279207a65726f\n    data_9113bb53c2876a3805b2c9242029423fc540a728243ce887ab24c82cf119fba3 536166654d6174683a206d756c7469706c69636174696f6e206f766572666c6f77\n    data_9b1eacaf7b3b2d412df286fef87f078c0c28d492dea75275391ee8422db5360c 536c697070616765206c696d69743a206d6f7265207468616e206d6178207072696365\n    data_9bf0496b18f4db662847e65668d0ae3d4d7f5ebc115d137b3b0990ae2896f44e 56657374696e67206d757374206265206c6f6e676572207468616e20333620686f757273\n    data_e11ad79d1e4a7f2e5f376964cb99e8e8f7904e3fc16a109f7a7ecb9aa7956dcd 5361666545524332303a204552433230206f7065726174696f6e20646964206e6f742073756363656564\n\n    auxdata: 0xa2646970667358221220c9606f4c8f0dd3e89297afae927f6c090a15d5aaceabfb74f24787b3a0ffb23e64736f6c63430007050033\n}\n",
				"bytecode": {
					"linkReferences": {},
					"object": "6101406040523480156200001257600080fd5b5060405162002f7238038062002f72833981810160405260a08110156200003857600080fd5b50805160208201516040808401516060850151608090950151600080546001600160a01b031916331780825593519596949592949391926001600160a01b0392909216917fea8258f2d9ddb679928cf34b78cf645b7feda9acc828e4dd82d014eaae270eba908290a36001600160a01b038516620000b557600080fd5b6001600160601b0319606086901b166080526001600160a01b038416620000db57600080fd5b6001600160601b0319606085901b1660a0526001600160a01b0383166200010157600080fd5b6001600160601b0319606084901b1660c0526001600160a01b0382166200012757600080fd5b6001600160601b0319606092831b811660e0529181901b909116610120526001600160a01b0316151560f81b6101005250505060805160601c60a05160601c60c05160601c60e05160601c6101005160f81c6101205160601c612d446200022e60003980610ee252806116ec52806119e6525080610eb452806116bb5280611d1152508061152b52806117b55280611933525080610e3e52806111625280611384528061147f5250806106055280610f115280610fb85280611191528061132b5280611355528061144e528061171b52806118f1525080610b92528061150952806118b25280611a405280611d865280611f25528061200a528061211f5250612d446000f3fe608060405234801561001057600080fd5b50600436106102415760003560e01c8063844b5c7c11610145578063cf37a891116100bd578063d7ccfb0b1161008c578063e392a26211610071578063e392a262146105d2578063f5c2ab5b146105da578063fc7b9c18146105fb57610241565b8063d7ccfb0b146105c2578063e0176de8146105ca57610241565b8063cf37a89114610504578063d4d863ce1461054b578063d502562514610579578063d7969060146105ba57610241565b8063ae9832cf11610114578063c5332b7c116100f9578063c5332b7c146104a2578063cd1234b3146104aa578063cea55f57146104fc57610241565b8063ae9832cf14610445578063b4abccba1461047c57610241565b8063844b5c7c146103fb5780638dbdbe6d14610403578063904b3ece1461043557806398fabd3a1461043d57610241565b8063451ee4a1116101d85780635a96ac0a116101a7578063759076e51161018c578063759076e5146103ce57806377b81895146103d65780637927ebf8146103de57610241565b80635a96ac0a146103be57806361d027b3146103c657610241565b8063451ee4a11461032c57806346f68ee91461036a5780634cf088d914610390578063507930ec1461039857610241565b80631e321a0f116102145780631e321a0f146102b45780631feed31f146102da5780632f3f470a146103085780633c4e6da71461032457610241565b8063016a42841461024657806301b88ee81461026a5780630505c8c9146102a2578063089208d8146102aa575b600080fd5b61024e610603565b604080516001600160a01b039092168252519081900360200190f35b6102906004803603602081101561028057600080fd5b50356001600160a01b0316610627565b60408051918252519081900360200190f35b61024e610680565b6102b2610690565b005b6102b2600480360360408110156102ca57600080fd5b5060ff8135169060200135610739565b610290600480360360408110156102f057600080fd5b506001600160a01b038135169060200135151561092e565b610310610b80565b604080519115158252519081900360200190f35b61024e610b90565b610334610bb4565b60408051951515865260208601949094528484019290925263ffffffff9081166060850152166080830152519081900360a00190f35b6102b26004803603602081101561038057600080fd5b50356001600160a01b0316610bdb565b61024e610cda565b610290600480360360208110156103ae57600080fd5b50356001600160a01b0316610ce9565b6102b2610d92565b61024e610e3c565b610290610e60565b61024e610e7b565b610290600480360360208110156103f457600080fd5b5035610e8a565b610290610eb0565b6102906004803603606081101561041957600080fd5b50803590602081013590604001356001600160a01b0316611049565b6102906116b7565b61024e6117b3565b6102b26004803603608081101561045b57600080fd5b5080351515906020810135906040810135906060013563ffffffff166117d7565b6103106004803603602081101561049257600080fd5b50356001600160a01b03166118ae565b61024e6119e4565b6104d0600480360360208110156104c057600080fd5b50356001600160a01b0316611a08565b60408051948552602085019390935263ffffffff91821684840152166060830152519081900360800190f35b610290611a3b565b6102b2600480360360e081101561051a57600080fd5b5080359060208101359060408101359060608101359060808101359060a08101359060c0013563ffffffff16611af3565b6102b26004803603604081101561056157600080fd5b506001600160a01b0381351690602001351515611c1f565b610581611cf4565b604080519687526020870195909552858501939093526060850191909152608084015263ffffffff1660a0830152519081900360c00190f35b610310611d0f565b610290611d33565b610290611d72565b610290611e0f565b6105e2611e68565b6040805163ffffffff9092168252519081900360200190f35b610290611e74565b7f000000000000000000000000000000000000000000000000000000000000000081565b60008061063383610ce9565b6001600160a01b0384166000908152600e6020526040902054909150612710821061066057809250610679565b6106766127106106708385611e7a565b90611eda565b92505b5050919050565b6000546001600160a01b03165b90565b6000546001600160a01b031633146106ef576040805162461bcd60e51b815260206004820181905260248201527f4f776e61626c653a2063616c6c6572206973206e6f7420746865206f776e6572604482015290519081900360640190fd5b600080546040516001600160a01b03909116907fea8258f2d9ddb679928cf34b78cf645b7feda9acc828e4dd82d014eaae270eba908390a3600080546001600160a01b0319169055565b6000546001600160a01b03163314610798576040805162461bcd60e51b815260206004820181905260248201527f4f776e61626c653a2063616c6c6572206973206e6f7420746865206f776e6572604482015290519081900360640190fd5b60008260048111156107a657fe5b1415610808576201fa408110156107ee5760405162461bcd60e51b8152600401808060200182810382526024815260200180612cc16024913960400191505060405180910390fd5b6009805463ffffffff191663ffffffff831617905561092a565b600182600481111561081657fe5b141561087d576103e8811115610873576040805162461bcd60e51b815260206004820181905260248201527f5061796f75742063616e6e6f742062652061626f766520312070657263656e74604482015290519081900360640190fd5b600681905561092a565b600282600481111561088b57fe5b14156108f2576127108111156108e8576040805162461bcd60e51b815260206004820152601c60248201527f44414f206665652063616e6e6f7420657863656564207061796f757400000000604482015290519081900360640190fd5b600781905561092a565b600382600481111561090057fe5b141561091057600881905561092a565b600482600481111561091e57fe5b141561092a5760058190555b5050565b6000610938612bc8565b506001600160a01b0383166000908152600e602090815260408083208151608081018352815481526001820154938101939093526002015463ffffffff8082169284019290925264010000000090041660608201529061099785610ce9565b90506127108110610a2c576001600160a01b0385166000818152600e6020908152604080832083815560018101849055600201805467ffffffffffffffff19169055855181519081529182019290925281517f51c99f515c87b0d95ba97f616edd182e8f161c4932eac17c6fefe9dab58b77b1929181900390910190a2610a2385858460000151611f1c565b92505050610b7a565b8151600090610a4390612710906106709085611e7a565b90506040518060800160405280610a6783866000015161222090919063ffffffff16565b8152602001846020015181526020014263ffffffff168152602001610abb610aa286604001514263ffffffff1661226290919063ffffffff16565b866060015163ffffffff1661226290919063ffffffff16565b63ffffffff9081169091526001600160a01b0388166000818152600e60209081526040918290208551808255868301516001830155868401516002909201805460609098015187166401000000000267ffffffff00000000199390971663ffffffff19909816979097179190911694909417909455805185815293840192909252815190927f51c99f515c87b0d95ba97f616edd182e8f161c4932eac17c6fefe9dab58b77b192908290030190a2610b74868683611f1c565b93505050505b92915050565b600354600160a01b900460ff1681565b7f000000000000000000000000000000000000000000000000000000000000000081565b600a54600b54600c54600d5460ff9093169263ffffffff8082169164010000000090041685565b6000546001600160a01b03163314610c3a576040805162461bcd60e51b815260206004820181905260248201527f4f776e61626c653a2063616c6c6572206973206e6f7420746865206f776e6572604482015290519081900360640190fd5b6001600160a01b038116610c7f5760405162461bcd60e51b8152600401808060200182810382526026815260200180612c0f6026913960400191505060405180910390fd5b600080546040516001600160a01b03808516939216917fea8258f2d9ddb679928cf34b78cf645b7feda9acc828e4dd82d014eaae270eba91a3600180546001600160a01b0319166001600160a01b0392909216919091179055565b6002546001600160a01b031681565b6000610cf3612bc8565b506001600160a01b0382166000908152600e602090815260408083208151608081018352815481526001820154938101939093526002015463ffffffff80821692840183905264010000000090910481166060840152919291610d5a914282169161222016565b606083015190915063ffffffff168015610d8557610d7e8161067084612710611e7a565b9350610d8a565b600093505b505050919050565b6001546001600160a01b03163314610ddb5760405162461bcd60e51b8152600401808060200182810382526022815260200180612c356022913960400191505060405180910390fd5b600154600080546040516001600160a01b0393841693909116917faa151555690c956fc3ea32f106bb9f119b5237a061eaa8557cff3e51e3792c8d91a3600154600080546001600160a01b0319166001600160a01b03909216919091179055565b7f000000000000000000000000000000000000000000000000000000000000000081565b6000610e76610e6d611e0f565b600f5490612220565b905090565b6003546001600160a01b031681565b6000610b7a662386f26fc10000610670610eab85610ea6611d33565b6122a4565b612426565b60007f000000000000000000000000000000000000000000000000000000000000000015610fae57610fa760646106707f00000000000000000000000000000000000000000000000000000000000000006001600160a01b03166332da80a37f00000000000000000000000000000000000000000000000000000000000000006040518263ffffffff1660e01b815260040180826001600160a01b0316815260200191505060206040518083038186803b158015610f6d57600080fd5b505afa158015610f81573d6000803e3d6000fd5b505050506040513d6020811015610f9757600080fd5b5051610fa1611d33565b90611e7a565b905061068d565b610e7660646106707f00000000000000000000000000000000000000000000000000000000000000006001600160a01b031663313ce5676040518163ffffffff1660e01b815260040160206040518083038186803b15801561100f57600080fd5b505afa158015611023573d6000803e3d6000fd5b505050506040513d602081101561103957600080fd5b505160ff16600a0a610fa1611d33565b60006001600160a01b0382166110a6576040805162461bcd60e51b815260206004820152600f60248201527f496e76616c696420616464726573730000000000000000000000000000000000604482015290519081900360640190fd5b6110ae61243e565b600854600f541115611107576040805162461bcd60e51b815260206004820152601460248201527f4d61782063617061636974792072656163686564000000000000000000000000604482015290519081900360640190fd5b6000611111610eb0565b9050600061111d612463565b90508085101561115e5760405162461bcd60e51b8152600401808060200182810382526023815260200180612c9e6023913960400191505060405180910390fd5b60007f00000000000000000000000000000000000000000000000000000000000000006001600160a01b031663f18217837f0000000000000000000000000000000000000000000000000000000000000000896040518363ffffffff1660e01b815260040180836001600160a01b031681526020018281526020019250505060206040518083038186803b1580156111f557600080fd5b505afa158015611209573d6000803e3d6000fd5b505050506040513d602081101561121f57600080fd5b50519050600061122e82610e8a565b905062989680811015611288576040805162461bcd60e51b815260206004820152600e60248201527f426f6e6420746f6f20736d616c6c000000000000000000000000000000000000604482015290519081900360640190fd5b611290611d72565b8111156112e4576040805162461bcd60e51b815260206004820152600e60248201527f426f6e6420746f6f206c61726765000000000000000000000000000000000000604482015290519081900360640190fd5b600061130461271061067060046003015485611e7a90919063ffffffff16565b9050600061131c826113168686612220565b90612220565b90506113536001600160a01b037f00000000000000000000000000000000000000000000000000000000000000001633308d6124a5565b7f00000000000000000000000000000000000000000000000000000000000000006001600160a01b031663095ea7b37f00000000000000000000000000000000000000000000000000000000000000008c6040518363ffffffff1660e01b815260040180836001600160a01b0316815260200182815260200192505050602060405180830381600087803b1580156113ea57600080fd5b505af11580156113fe573d6000803e3d6000fd5b505050506040513d602081101561141457600080fd5b5050604080517fbc157ac1000000000000000000000000000000000000000000000000000000008152600481018c90526001600160a01b037f0000000000000000000000000000000000000000000000000000000000000000811660248301526044820184905291517f00000000000000000000000000000000000000000000000000000000000000009092169163bc157ac1916064808201926020929091908290030181600087803b1580156114ca57600080fd5b505af11580156114de573d6000803e3d6000fd5b505050506040513d60208110156114f457600080fd5b50508115611550576115506001600160a01b037f0000000000000000000000000000000000000000000000000000000000000000167f00000000000000000000000000000000000000000000000000000000000000008461251e565b600f5461155d908561258e565b600f55604080516080810182526001600160a01b038a166000908152600e6020529190912054819061158f908661258e565b8152602080820189905263ffffffff428181166040808601919091526009805484166060968701526001600160a01b038f166000908152600e8652829020875181559487015160018601559086015160029094018054969095015183166401000000000267ffffffff000000001994841663ffffffff1990971696909617939093169490941790925554889261162a92909181169061258e16565b604080518d8152905186917f1fec6dc81f140574bf43f6b1e420ae1dd47928b9d57db8cbd7b8611063b85ae5919081900360200190a4611668611a3b565b611670612463565b611678610eb0565b6040517f375b221f40939bfd8f49723a17cf7bc6d576ebf72efe2cc3e991826f5b3f390a90600090a46116a96125e8565b509098975050505050505050565b60007f0000000000000000000000000000000000000000000000000000000000000000156117ab57610fa7633b9aca006106707f00000000000000000000000000000000000000000000000000000000000000006001600160a01b03166332da80a37f00000000000000000000000000000000000000000000000000000000000000006040518263ffffffff1660e01b815260040180826001600160a01b0316815260200191505060206040518083038186803b15801561177757600080fd5b505afa15801561178b573d6000803e3d6000fd5b505050506040513d60208110156117a157600080fd5b5051610fa1611a3b565b610fa7611a3b565b7f000000000000000000000000000000000000000000000000000000000000000081565b6000546001600160a01b03163314611836576040805162461bcd60e51b815260206004820181905260248201527f4f776e61626c653a2063616c6c6572206973206e6f7420746865206f776e6572604482015290519081900360640190fd5b6040805160a0810182529415158086526020860185905290850183905263ffffffff91821660608601819052429092166080909501859052600a805460ff19169091179055600b92909255600c55600d805463ffffffff191690911767ffffffff000000001916640100000000909202919091179055565b60007f00000000000000000000000000000000000000000000000000000000000000006001600160a01b0316826001600160a01b031614156118ef57600080fd5b7f00000000000000000000000000000000000000000000000000000000000000006001600160a01b0316826001600160a01b0316141561192e57600080fd5b6119dc7f0000000000000000000000000000000000000000000000000000000000000000836001600160a01b03166370a08231306040518263ffffffff1660e01b815260040180826001600160a01b0316815260200191505060206040518083038186803b15801561199f57600080fd5b505afa1580156119b3573d6000803e3d6000fd5b505050506040513d60208110156119c957600080fd5b50516001600160a01b038516919061251e565b506001919050565b7f000000000000000000000000000000000000000000000000000000000000000081565b600e6020526000908152604090208054600182015460029092015490919063ffffffff8082169164010000000090041684565b6000807f00000000000000000000000000000000000000000000000000000000000000006001600160a01b03166318160ddd6040518163ffffffff1660e01b815260040160206040518083038186803b158015611a9757600080fd5b505afa158015611aab573d6000803e3d6000fd5b505050506040513d6020811015611ac157600080fd5b50519050611aed670de0b6b3a7640000610670610eab611ae7633b9aca00610fa1610e60565b856122a4565b91505090565b6000546001600160a01b03163314611b52576040805162461bcd60e51b815260206004820181905260248201527f4f776e61626c653a2063616c6c6572206973206e6f7420746865206f776e6572604482015290519081900360640190fd5b60045415611ba7576040805162461bcd60e51b815260206004820181905260248201527f426f6e6473206d75737420626520696e697469616c697a65642066726f6d2030604482015290519081900360640190fd5b6040805160c08101825288815260208101889052908101869052606081018590526080810184905263ffffffff91821660a09091018190526004979097556005959095556006939093556007919091556008556009805463ffffffff199081169094179055600f556010805490921642909116179055565b6000546001600160a01b03163314611c7e576040805162461bcd60e51b815260206004820181905260248201527f4f776e61626c653a2063616c6c6572206973206e6f7420746865206f776e6572604482015290519081900360640190fd5b6001600160a01b038216611c9157600080fd5b8015611cc65760038054600160a01b60ff60a01b19909116176001600160a01b0319166001600160a01b03841617905561092a565b6003805460ff60a01b19169055600280546001600160a01b0384166001600160a01b03199091161790555050565b60045460055460065460075460085460095463ffffffff1686565b7f000000000000000000000000000000000000000000000000000000000000000081565b6000611d5e62989680610670633b9aca00611d58611d4f611a3b565b60045490611e7a565b9061258e565b60055490915081101561068d575060055490565b6000610e76620186a06106706004600201547f00000000000000000000000000000000000000000000000000000000000000006001600160a01b03166318160ddd6040518163ffffffff1660e01b815260040160206040518083038186803b158015611ddd57600080fd5b505afa158015611df1573d6000803e3d6000fd5b505050506040513d6020811015611e0757600080fd5b505190611e7a565b6010546000908190611e2d9063ffffffff4281169181169061226216565b600954600f54919250611e529163ffffffff91821691610670919080861690611e7a16565b9150600f54821115611e6457600f5491505b5090565b60105463ffffffff1681565b600f5481565b600082611e8957506000610b7a565b82820282848281611e9657fe5b0414611ed35760405162461bcd60e51b8152600401808060200182810382526021815260200180612c7d6021913960400191505060405180910390fd5b9392505050565b6000611ed383836040518060400160405280601a81526020017f536166654d6174683a206469766973696f6e206279207a65726f0000000000008152506126f5565b600082611fcc577f00000000000000000000000000000000000000000000000000000000000000006001600160a01b031663a9059cbb85846040518363ffffffff1660e01b815260040180836001600160a01b0316815260200182815260200192505050602060405180830381600087803b158015611f9a57600080fd5b505af1158015611fae573d6000803e3d6000fd5b505050506040513d6020811015611fc457600080fd5b506122199050565b600354600160a01b900460ff16156120f3576003546040805163095ea7b360e01b81526001600160a01b0392831660048201526024810185905290517f00000000000000000000000000000000000000000000000000000000000000009092169163095ea7b3916044808201926020929091908290030181600087803b15801561205557600080fd5b505af1158015612069573d6000803e3d6000fd5b505050506040513d602081101561207f57600080fd5b505060035460408051637acb775760e01b8152600481018590526001600160a01b03878116602483015291519190921691637acb775791604480830192600092919082900301818387803b1580156120d657600080fd5b505af11580156120ea573d6000803e3d6000fd5b50505050612219565b6002546040805163095ea7b360e01b81526001600160a01b0392831660048201526024810185905290517f00000000000000000000000000000000000000000000000000000000000000009092169163095ea7b3916044808201926020929091908290030181600087803b15801561216a57600080fd5b505af115801561217e573d6000803e3d6000fd5b505050506040513d602081101561219457600080fd5b505060025460408051637acb775760e01b8152600481018590526001600160a01b03878116602483015291519190921691637acb77579160448083019260209291908290030181600087803b1580156121ec57600080fd5b505af1158015612200573d6000803e3d6000fd5b505050506040513d602081101561221657600080fd5b50505b5092915050565b6000611ed383836040518060400160405280601e81526020017f536166654d6174683a207375627472616374696f6e206f766572666c6f770000815250612797565b6000611ed383836040518060400160405280601e81526020017f536166654d6174683a207375627472616374696f6e206f766572666c6f7700008152506127f1565b6122ac612bfc565b600082116122eb5760405162461bcd60e51b8152600401808060200182810382526026815260200180612c576026913960400191505060405180910390fd5b826123055750604080516020810190915260008152610b7a565b71ffffffffffffffffffffffffffffffffffff83116123ac57600082607085901b8161232d57fe5b0490506001600160e01b0381111561238c576040805162461bcd60e51b815260206004820152601e60248201527f4669786564506f696e743a3a6672616374696f6e3a206f766572666c6f770000604482015290519081900360640190fd5b6040518060200160405280826001600160e01b0316815250915050610b7a565b60006123c8846e01000000000000000000000000000085612850565b90506001600160e01b0381111561238c576040805162461bcd60e51b815260206004820152601e60248201527f4669786564506f696e743a3a6672616374696f6e3a206f766572666c6f770000604482015290519081900360640190fd5b516612725dd1d243ab6001600160e01b039091160490565b612449610e6d611e0f565b600f556010805463ffffffff19164263ffffffff16179055565b600061247f62989680610670633b9aca00611d58611d4f611a3b565b600554909150811015612495575060055461068d565b6005541561068d57600060055590565b604080516001600160a01b0380861660248301528416604482015260648082018490528251808303909101815260849091019091526020810180516001600160e01b03167f23b872dd000000000000000000000000000000000000000000000000000000001790526125189085906128f0565b50505050565b604080516001600160a01b038416602482015260448082018490528251808303909101815260649091019091526020810180516001600160e01b03167fa9059cbb000000000000000000000000000000000000000000000000000000001790526125899084906128f0565b505050565b600082820183811015611ed3576040805162461bcd60e51b815260206004820152601b60248201527f536166654d6174683a206164646974696f6e206f766572666c6f770000000000604482015290519081900360640190fd5b600d5460009061260b9063ffffffff640100000000820481169181169061258e16565b600b549091501580159061261f5750804210155b156126f257600454600a5460ff161561265957600b546004546126419161258e565b6004819055600c5411612654576000600b555b61267b565b600b5460045461266891612220565b6004819055600c541061267b576000600b555b600d805467ffffffff0000000019166401000000004263ffffffff1602179055600454600b54600a546040805185815260208101949094528381019290925260ff1615156060830152517fb923e581a0f83128e9e1d8297aa52b18d6744310476e0b54509c054cd7a93b2a916080908290030190a1505b50565b600081836127815760405162461bcd60e51b81526004018080602001828103825283818151815260200191508051906020019080838360005b8381101561274657818101518382015260200161272e565b50505050905090810190601f1680156127735780820380516001836020036101000a031916815260200191505b509250505060405180910390fd5b50600083858161278d57fe5b0495945050505050565b600081848411156127e95760405162461bcd60e51b815260206004820181815283516024840152835190928392604490910191908501908083836000831561274657818101518382015260200161272e565b505050900390565b60008363ffffffff168363ffffffff16111582906127e95760405162461bcd60e51b815260206004820181815283516024840152835190928392604490910191908501908083836000831561274657818101518382015260200161272e565b600080600061285f86866129a1565b915091506000848061286d57fe5b868809905082811115612881576001820391505b80830392508482106128da576040805162461bcd60e51b815260206004820152601a60248201527f46756c6c4d6174683a3a6d756c4469763a206f766572666c6f77000000000000604482015290519081900360640190fd5b6128e58383876129ce565b979650505050505050565b6060612945826040518060400160405280602081526020017f5361666545524332303a206c6f772d6c6576656c2063616c6c206661696c6564815250856001600160a01b0316612a3e9092919063ffffffff16565b8051909150156125895780806020019051602081101561296457600080fd5b50516125895760405162461bcd60e51b815260040180806020018281038252602a815260200180612ce5602a913960400191505060405180910390fd5b60008080600019848609905083850292508281039150828110156129c6576001820391505b509250929050565b600081810382168083816129de57fe5b0492508085816129ea57fe5b0494508081600003816129f957fe5b60028581038087028203028087028203028087028203028087028203028087028203028087028203029586029003909402930460010193909302939093010292915050565b6060612a4d8484600085612a55565b949350505050565b6060612a6085612bc2565b612ab1576040805162461bcd60e51b815260206004820152601d60248201527f416464726573733a2063616c6c20746f206e6f6e2d636f6e7472616374000000604482015290519081900360640190fd5b60006060866001600160a01b031685876040518082805190602001908083835b60208310612af05780518252601f199092019160209182019101612ad1565b6001836020036101000a03801982511681845116808217855250505050505090500191505060006040518083038185875af1925050503d8060008114612b52576040519150601f19603f3d011682016040523d82523d6000602084013e612b57565b606091505b50915091508115612b6b579150612a4d9050565b805115612b7b5780518082602001fd5b60405162461bcd60e51b815260206004820181815286516024840152865187939192839260440191908501908083836000831561274657818101518382015260200161272e565b3b151590565b60405180608001604052806000815260200160008152602001600063ffffffff168152602001600063ffffffff1681525090565b6040805160208101909152600081529056fe4f776e61626c653a206e6577206f776e657220697320746865207a65726f20616464726573734f776e61626c653a206d757374206265206e6577206f776e657220746f2070756c6c4669786564506f696e743a3a6672616374696f6e3a206469766973696f6e206279207a65726f536166654d6174683a206d756c7469706c69636174696f6e206f766572666c6f77536c697070616765206c696d69743a206d6f7265207468616e206d617820707269636556657374696e67206d757374206265206c6f6e676572207468616e20333620686f7572735361666545524332303a204552433230206f7065726174696f6e20646964206e6f742073756363656564a2646970667358221220c9606f4c8f0dd3e89297afae927f6c090a15d5aaceabfb74f24787b3a0ffb23e64736f6c63430007050033",
					"opcodes": "PUSH2 0x140 PUSH1 0x40 MSTORE CALLVALUE DUP1 ISZERO PUSH3 0x12 JUMPI PUSH1 0x0 DUP1 REVERT JUMPDEST POP PUSH1 0x40 MLOAD PUSH3 0x2F72 CODESIZE SUB DUP1 PUSH3 0x2F72 DUP4 CODECOPY DUP2 DUP2 ADD PUSH1 0x40 MSTORE PUSH1 0xA0 DUP2 LT ISZERO PUSH3 0x38 JUMPI PUSH1 0x0 DUP1 REVERT JUMPDEST POP DUP1 MLOAD PUSH1 0x20 DUP3 ADD MLOAD PUSH1 0x40 DUP1 DUP5 ADD MLOAD PUSH1 0x60 DUP6 ADD MLOAD PUSH1 0x80 SWAP1 SWAP6 ADD MLOAD PUSH1 0x0 DUP1 SLOAD PUSH1 0x1 PUSH1 0x1 PUSH1 0xA0 SHL SUB NOT AND CALLER OR DUP1 DUP3 SSTORE SWAP4 MLOAD SWAP6 SWAP7 SWAP5 SWAP6 SWAP3 SWAP5 SWAP4 SWAP2 SWAP3 PUSH1 0x1 PUSH1 0x1 PUSH1 0xA0 SHL SUB SWAP3 SWAP1 SWAP3 AND SWAP2 PUSH32 0xEA8258F2D9DDB679928CF34B78CF645B7FEDA9ACC828E4DD82D014EAAE270EBA SWAP1 DUP3 SWAP1 LOG3 PUSH1 0x1 PUSH1 0x1 PUSH1 0xA0 SHL SUB DUP6 AND PUSH3 0xB5 JUMPI PUSH1 0x0 DUP1 REVERT JUMPDEST PUSH1 0x1 PUSH1 0x1 PUSH1 0x60 SHL SUB NOT PUSH1 0x60 DUP7 SWAP1 SHL AND PUSH1 0x80 MSTORE PUSH1 0x1 PUSH1 0x1 PUSH1 0xA0 SHL SUB DUP5 AND PUSH3 0xDB JUMPI PUSH1 0x0 DUP1 REVERT JUMPDEST PUSH1 0x1 PUSH1 0x1 PUSH1 0x60 SHL SUB NOT PUSH1 0x60 DUP6 SWAP1 SHL AND PUSH1 0xA0 MSTORE PUSH1 0x1 PUSH1 0x1 PUSH1 0xA0 SHL SUB DUP4 AND PUSH3 0x101 JUMPI PUSH1 0x0 DUP1 REVERT JUMPDEST PUSH1 0x1 PUSH1 0x1 PUSH1 0x60 SHL SUB NOT PUSH1 0x60 DUP5 SWAP1 SHL AND PUSH1 0xC0 MSTORE PUSH1 0x1 PUSH1 0x1 PUSH1 0xA0 SHL SUB DUP3 AND PUSH3 0x127 JUMPI PUSH1 0x0 DUP1 REVERT JUMPDEST PUSH1 0x1 PUSH1 0x1 PUSH1 0x60 SHL SUB NOT PUSH1 0x60 SWAP3 DUP4 SHL DUP2 AND PUSH1 0xE0 MSTORE SWAP2 DUP2 SWAP1 SHL SWAP1 SWAP2 AND PUSH2 0x120 MSTORE PUSH1 0x1 PUSH1 0x1 PUSH1 0xA0 SHL SUB AND ISZERO ISZERO PUSH1 0xF8 SHL PUSH2 0x100 MSTORE POP POP POP PUSH1 0x80 MLOAD PUSH1 0x60 SHR PUSH1 0xA0 MLOAD PUSH1 0x60 SHR PUSH1 0xC0 MLOAD PUSH1 0x60 SHR PUSH1 0xE0 MLOAD PUSH1 0x60 SHR PUSH2 0x100 MLOAD PUSH1 0xF8 SHR PUSH2 0x120 MLOAD PUSH1 0x60 SHR PUSH2 0x2D44 PUSH3 0x22E PUSH1 0x0 CODECOPY DUP1 PUSH2 0xEE2 MSTORE DUP1 PUSH2 0x16EC MSTORE DUP1 PUSH2 0x19E6 MSTORE POP DUP1 PUSH2 0xEB4 MSTORE DUP1 PUSH2 0x16BB MSTORE DUP1 PUSH2 0x1D11 MSTORE POP DUP1 PUSH2 0x152B MSTORE DUP1 PUSH2 0x17B5 MSTORE DUP1 PUSH2 0x1933 MSTORE POP DUP1 PUSH2 0xE3E MSTORE DUP1 PUSH2 0x1162 MSTORE DUP1 PUSH2 0x1384 MSTORE DUP1 PUSH2 0x147F MSTORE POP DUP1 PUSH2 0x605 MSTORE DUP1 PUSH2 0xF11 MSTORE DUP1 PUSH2 0xFB8 MSTORE DUP1 PUSH2 0x1191 MSTORE DUP1 PUSH2 0x132B MSTORE DUP1 PUSH2 0x1355 MSTORE DUP1 PUSH2 0x144E MSTORE DUP1 PUSH2 0x171B MSTORE DUP1 PUSH2 0x18F1 MSTORE POP DUP1 PUSH2 0xB92 MSTORE DUP1 PUSH2 0x1509 MSTORE DUP1 PUSH2 0x18B2 MSTORE DUP1 PUSH2 0x1A40 MSTORE DUP1 PUSH2 0x1D86 MSTORE DUP1 PUSH2 0x1F25 MSTORE DUP1 PUSH2 0x200A MSTORE DUP1 PUSH2 0x211F MSTORE POP PUSH2 0x2D44 PUSH1 0x0 RETURN INVALID PUSH1 0x80 PUSH1 0x40 MSTORE CALLVALUE DUP1 ISZERO PUSH2 0x10 JUMPI PUSH1 0x0 DUP1 REVERT JUMPDEST POP PUSH1 0x4 CALLDATASIZE LT PUSH2 0x241 JUMPI PUSH1 0x0 CALLDATALOAD PUSH1 0xE0 SHR DUP1 PUSH4 0x844B5C7C GT PUSH2 0x145 JUMPI DUP1 PUSH4 0xCF37A891 GT PUSH2 0xBD JUMPI DUP1 PUSH4 0xD7CCFB0B GT PUSH2 0x8C JUMPI DUP1 PUSH4 0xE392A262 GT PUSH2 0x71 JUMPI DUP1 PUSH4 0xE392A262 EQ PUSH2 0x5D2 JUMPI DUP1 PUSH4 0xF5C2AB5B EQ PUSH2 0x5DA JUMPI DUP1 PUSH4 0xFC7B9C18 EQ PUSH2 0x5FB JUMPI PUSH2 0x241 JUMP JUMPDEST DUP1 PUSH4 0xD7CCFB0B EQ PUSH2 0x5C2 JUMPI DUP1 PUSH4 0xE0176DE8 EQ PUSH2 0x5CA JUMPI PUSH2 0x241 JUMP JUMPDEST DUP1 PUSH4 0xCF37A891 EQ PUSH2 0x504 JUMPI DUP1 PUSH4 0xD4D863CE EQ PUSH2 0x54B JUMPI DUP1 PUSH4 0xD5025625 EQ PUSH2 0x579 JUMPI DUP1 PUSH4 0xD7969060 EQ PUSH2 0x5BA JUMPI PUSH2 0x241 JUMP JUMPDEST DUP1 PUSH4 0xAE9832CF GT PUSH2 0x114 JUMPI DUP1 PUSH4 0xC5332B7C GT PUSH2 0xF9 JUMPI DUP1 PUSH4 0xC5332B7C EQ PUSH2 0x4A2 JUMPI DUP1 PUSH4 0xCD1234B3 EQ PUSH2 0x4AA JUMPI DUP1 PUSH4 0xCEA55F57 EQ PUSH2 0x4FC JUMPI PUSH2 0x241 JUMP JUMPDEST DUP1 PUSH4 0xAE9832CF EQ PUSH2 0x445 JUMPI DUP1 PUSH4 0xB4ABCCBA EQ PUSH2 0x47C JUMPI PUSH2 0x241 JUMP JUMPDEST DUP1 PUSH4 0x844B5C7C EQ PUSH2 0x3FB JUMPI DUP1 PUSH4 0x8DBDBE6D EQ PUSH2 0x403 JUMPI DUP1 PUSH4 0x904B3ECE EQ PUSH2 0x435 JUMPI DUP1 PUSH4 0x98FABD3A EQ PUSH2 0x43D JUMPI PUSH2 0x241 JUMP JUMPDEST DUP1 PUSH4 0x451EE4A1 GT PUSH2 0x1D8 JUMPI DUP1 PUSH4 0x5A96AC0A GT PUSH2 0x1A7 JUMPI DUP1 PUSH4 0x759076E5 GT PUSH2 0x18C JUMPI DUP1 PUSH4 0x759076E5 EQ PUSH2 0x3CE JUMPI DUP1 PUSH4 0x77B81895 EQ PUSH2 0x3D6 JUMPI DUP1 PUSH4 0x7927EBF8 EQ PUSH2 0x3DE JUMPI PUSH2 0x241 JUMP JUMPDEST DUP1 PUSH4 0x5A96AC0A EQ PUSH2 0x3BE JUMPI DUP1 PUSH4 0x61D027B3 EQ PUSH2 0x3C6 JUMPI PUSH2 0x241 JUMP JUMPDEST DUP1 PUSH4 0x451EE4A1 EQ PUSH2 0x32C JUMPI DUP1 PUSH4 0x46F68EE9 EQ PUSH2 0x36A JUMPI DUP1 PUSH4 0x4CF088D9 EQ PUSH2 0x390 JUMPI DUP1 PUSH4 0x507930EC EQ PUSH2 0x398 JUMPI PUSH2 0x241 JUMP JUMPDEST DUP1 PUSH4 0x1E321A0F GT PUSH2 0x214 JUMPI DUP1 PUSH4 0x1E321A0F EQ PUSH2 0x2B4 JUMPI DUP1 PUSH4 0x1FEED31F EQ PUSH2 0x2DA JUMPI DUP1 PUSH4 0x2F3F470A EQ PUSH2 0x308 JUMPI DUP1 PUSH4 0x3C4E6DA7 EQ PUSH2 0x324 JUMPI PUSH2 0x241 JUMP JUMPDEST DUP1 PUSH4 0x16A4284 EQ PUSH2 0x246 JUMPI DUP1 PUSH4 0x1B88EE8 EQ PUSH2 0x26A JUMPI DUP1 PUSH4 0x505C8C9 EQ PUSH2 0x2A2 JUMPI DUP1 PUSH4 0x89208D8 EQ PUSH2 0x2AA JUMPI JUMPDEST PUSH1 0x0 DUP1 REVERT JUMPDEST PUSH2 0x24E PUSH2 0x603 JUMP JUMPDEST PUSH1 0x40 DUP1 MLOAD PUSH1 0x1 PUSH1 0x1 PUSH1 0xA0 SHL SUB SWAP1 SWAP3 AND DUP3 MSTORE MLOAD SWAP1 DUP2 SWAP1 SUB PUSH1 0x20 ADD SWAP1 RETURN JUMPDEST PUSH2 0x290 PUSH1 0x4 DUP1 CALLDATASIZE SUB PUSH1 0x20 DUP2 LT ISZERO PUSH2 0x280 JUMPI PUSH1 0x0 DUP1 REVERT JUMPDEST POP CALLDATALOAD PUSH1 0x1 PUSH1 0x1 PUSH1 0xA0 SHL SUB AND PUSH2 0x627 JUMP JUMPDEST PUSH1 0x40 DUP1 MLOAD SWAP2 DUP3 MSTORE MLOAD SWAP1 DUP2 SWAP1 SUB PUSH1 0x20 ADD SWAP1 RETURN JUMPDEST PUSH2 0x24E PUSH2 0x680 JUMP JUMPDEST PUSH2 0x2B2 PUSH2 0x690 JUMP JUMPDEST STOP JUMPDEST PUSH2 0x2B2 PUSH1 0x4 DUP1 CALLDATASIZE SUB PUSH1 0x40 DUP2 LT ISZERO PUSH2 0x2CA JUMPI PUSH1 0x0 DUP1 REVERT JUMPDEST POP PUSH1 0xFF DUP2 CALLDATALOAD AND SWAP1 PUSH1 0x20 ADD CALLDATALOAD PUSH2 0x739 JUMP JUMPDEST PUSH2 0x290 PUSH1 0x4 DUP1 CALLDATASIZE SUB PUSH1 0x40 DUP2 LT ISZERO PUSH2 0x2F0 JUMPI PUSH1 0x0 DUP1 REVERT JUMPDEST POP PUSH1 0x1 PUSH1 0x1 PUSH1 0xA0 SHL SUB DUP2 CALLDATALOAD AND SWAP1 PUSH1 0x20 ADD CALLDATALOAD ISZERO ISZERO PUSH2 0x92E JUMP JUMPDEST PUSH2 0x310 PUSH2 0xB80 JUMP JUMPDEST PUSH1 0x40 DUP1 MLOAD SWAP2 ISZERO ISZERO DUP3 MSTORE MLOAD SWAP1 DUP2 SWAP1 SUB PUSH1 0x20 ADD SWAP1 RETURN JUMPDEST PUSH2 0x24E PUSH2 0xB90 JUMP JUMPDEST PUSH2 0x334 PUSH2 0xBB4 JUMP JUMPDEST PUSH1 0x40 DUP1 MLOAD SWAP6 ISZERO ISZERO DUP7 MSTORE PUSH1 0x20 DUP7 ADD SWAP5 SWAP1 SWAP5 MSTORE DUP5 DUP5 ADD SWAP3 SWAP1 SWAP3 MSTORE PUSH4 0xFFFFFFFF SWAP1 DUP2 AND PUSH1 0x60 DUP6 ADD MSTORE AND PUSH1 0x80 DUP4 ADD MSTORE MLOAD SWAP1 DUP2 SWAP1 SUB PUSH1 0xA0 ADD SWAP1 RETURN JUMPDEST PUSH2 0x2B2 PUSH1 0x4 DUP1 CALLDATASIZE SUB PUSH1 0x20 DUP2 LT ISZERO PUSH2 0x380 JUMPI PUSH1 0x0 DUP1 REVERT JUMPDEST POP CALLDATALOAD PUSH1 0x1 PUSH1 0x1 PUSH1 0xA0 SHL SUB AND PUSH2 0xBDB JUMP JUMPDEST PUSH2 0x24E PUSH2 0xCDA JUMP JUMPDEST PUSH2 0x290 PUSH1 0x4 DUP1 CALLDATASIZE SUB PUSH1 0x20 DUP2 LT ISZERO PUSH2 0x3AE JUMPI PUSH1 0x0 DUP1 REVERT JUMPDEST POP CALLDATALOAD PUSH1 0x1 PUSH1 0x1 PUSH1 0xA0 SHL SUB AND PUSH2 0xCE9 JUMP JUMPDEST PUSH2 0x2B2 PUSH2 0xD92 JUMP JUMPDEST PUSH2 0x24E PUSH2 0xE3C JUMP JUMPDEST PUSH2 0x290 PUSH2 0xE60 JUMP JUMPDEST PUSH2 0x24E PUSH2 0xE7B JUMP JUMPDEST PUSH2 0x290 PUSH1 0x4 DUP1 CALLDATASIZE SUB PUSH1 0x20 DUP2 LT ISZERO PUSH2 0x3F4 JUMPI PUSH1 0x0 DUP1 REVERT JUMPDEST POP CALLDATALOAD PUSH2 0xE8A JUMP JUMPDEST PUSH2 0x290 PUSH2 0xEB0 JUMP JUMPDEST PUSH2 0x290 PUSH1 0x4 DUP1 CALLDATASIZE SUB PUSH1 0x60 DUP2 LT ISZERO PUSH2 0x419 JUMPI PUSH1 0x0 DUP1 REVERT JUMPDEST POP DUP1 CALLDATALOAD SWAP1 PUSH1 0x20 DUP2 ADD CALLDATALOAD SWAP1 PUSH1 0x40 ADD CALLDATALOAD PUSH1 0x1 PUSH1 0x1 PUSH1 0xA0 SHL SUB AND PUSH2 0x1049 JUMP JUMPDEST PUSH2 0x290 PUSH2 0x16B7 JUMP JUMPDEST PUSH2 0x24E PUSH2 0x17B3 JUMP JUMPDEST PUSH2 0x2B2 PUSH1 0x4 DUP1 CALLDATASIZE SUB PUSH1 0x80 DUP2 LT ISZERO PUSH2 0x45B JUMPI PUSH1 0x0 DUP1 REVERT JUMPDEST POP DUP1 CALLDATALOAD ISZERO ISZERO SWAP1 PUSH1 0x20 DUP2 ADD CALLDATALOAD SWAP1 PUSH1 0x40 DUP2 ADD CALLDATALOAD SWAP1 PUSH1 0x60 ADD CALLDATALOAD PUSH4 0xFFFFFFFF AND PUSH2 0x17D7 JUMP JUMPDEST PUSH2 0x310 PUSH1 0x4 DUP1 CALLDATASIZE SUB PUSH1 0x20 DUP2 LT ISZERO PUSH2 0x492 JUMPI PUSH1 0x0 DUP1 REVERT JUMPDEST POP CALLDATALOAD PUSH1 0x1 PUSH1 0x1 PUSH1 0xA0 SHL SUB AND PUSH2 0x18AE JUMP JUMPDEST PUSH2 0x24E PUSH2 0x19E4 JUMP JUMPDEST PUSH2 0x4D0 PUSH1 0x4 DUP1 CALLDATASIZE SUB PUSH1 0x20 DUP2 LT ISZERO PUSH2 0x4C0 JUMPI PUSH1 0x0 DUP1 REVERT JUMPDEST POP CALLDATALOAD PUSH1 0x1 PUSH1 0x1 PUSH1 0xA0 SHL SUB AND PUSH2 0x1A08 JUMP JUMPDEST PUSH1 0x40 DUP1 MLOAD SWAP5 DUP6 MSTORE PUSH1 0x20 DUP6 ADD SWAP4 SWAP1 SWAP4 MSTORE PUSH4 0xFFFFFFFF SWAP2 DUP3 AND DUP5 DUP5 ADD MSTORE AND PUSH1 0x60 DUP4 ADD MSTORE MLOAD SWAP1 DUP2 SWAP1 SUB PUSH1 0x80 ADD SWAP1 RETURN JUMPDEST PUSH2 0x290 PUSH2 0x1A3B JUMP JUMPDEST PUSH2 0x2B2 PUSH1 0x4 DUP1 CALLDATASIZE SUB PUSH1 0xE0 DUP2 LT ISZERO PUSH2 0x51A JUMPI PUSH1 0x0 DUP1 REVERT JUMPDEST POP DUP1 CALLDATALOAD SWAP1 PUSH1 0x20 DUP2 ADD CALLDATALOAD SWAP1 PUSH1 0x40 DUP2 ADD CALLDATALOAD SWAP1 PUSH1 0x60 DUP2 ADD CALLDATALOAD SWAP1 PUSH1 0x80 DUP2 ADD CALLDATALOAD SWAP1 PUSH1 0xA0 DUP2 ADD CALLDATALOAD SWAP1 PUSH1 0xC0 ADD CALLDATALOAD PUSH4 0xFFFFFFFF AND PUSH2 0x1AF3 JUMP JUMPDEST PUSH2 0x2B2 PUSH1 0x4 DUP1 CALLDATASIZE SUB PUSH1 0x40 DUP2 LT ISZERO PUSH2 0x561 JUMPI PUSH1 0x0 DUP1 REVERT JUMPDEST POP PUSH1 0x1 PUSH1 0x1 PUSH1 0xA0 SHL SUB DUP2 CALLDATALOAD AND SWAP1 PUSH1 0x20 ADD CALLDATALOAD ISZERO ISZERO PUSH2 0x1C1F JUMP JUMPDEST PUSH2 0x581 PUSH2 0x1CF4 JUMP JUMPDEST PUSH1 0x40 DUP1 MLOAD SWAP7 DUP8 MSTORE PUSH1 0x20 DUP8 ADD SWAP6 SWAP1 SWAP6 MSTORE DUP6 DUP6 ADD SWAP4 SWAP1 SWAP4 MSTORE PUSH1 0x60 DUP6 ADD SWAP2 SWAP1 SWAP2 MSTORE PUSH1 0x80 DUP5 ADD MSTORE PUSH4 0xFFFFFFFF AND PUSH1 0xA0 DUP4 ADD MSTORE MLOAD SWAP1 DUP2 SWAP1 SUB PUSH1 0xC0 ADD SWAP1 RETURN JUMPDEST PUSH2 0x310 PUSH2 0x1D0F JUMP JUMPDEST PUSH2 0x290 PUSH2 0x1D33 JUMP JUMPDEST PUSH2 0x290 PUSH2 0x1D72 JUMP JUMPDEST PUSH2 0x290 PUSH2 0x1E0F JUMP JUMPDEST PUSH2 0x5E2 PUSH2 0x1E68 JUMP JUMPDEST PUSH1 0x40 DUP1 MLOAD PUSH4 0xFFFFFFFF SWAP1 SWAP3 AND DUP3 MSTORE MLOAD SWAP1 DUP2 SWAP1 SUB PUSH1 0x20 ADD SWAP1 RETURN JUMPDEST PUSH2 0x290 PUSH2 0x1E74 JUMP JUMPDEST PUSH32 0x0 DUP2 JUMP JUMPDEST PUSH1 0x0 DUP1 PUSH2 0x633 DUP4 PUSH2 0xCE9 JUMP JUMPDEST PUSH1 0x1 PUSH1 0x1 PUSH1 0xA0 SHL SUB DUP5 AND PUSH1 0x0 SWAP1 DUP2 MSTORE PUSH1 0xE PUSH1 0x20 MSTORE PUSH1 0x40 SWAP1 KECCAK256 SLOAD SWAP1 SWAP2 POP PUSH2 0x2710 DUP3 LT PUSH2 0x660 JUMPI DUP1 SWAP3 POP PUSH2 0x679 JUMP JUMPDEST PUSH2 0x676 PUSH2 0x2710 PUSH2 0x670 DUP4 DUP6 PUSH2 0x1E7A JUMP JUMPDEST SWAP1 PUSH2 0x1EDA JUMP JUMPDEST SWAP3 POP JUMPDEST POP POP SWAP2 SWAP1 POP JUMP JUMPDEST PUSH1 0x0 SLOAD PUSH1 0x1 PUSH1 0x1 PUSH1 0xA0 SHL SUB AND JUMPDEST SWAP1 JUMP JUMPDEST PUSH1 0x0 SLOAD PUSH1 0x1 PUSH1 0x1 PUSH1 0xA0 SHL SUB AND CALLER EQ PUSH2 0x6EF JUMPI PUSH1 0x40 DUP1 MLOAD PUSH3 0x461BCD PUSH1 0xE5 SHL DUP2 MSTORE PUSH1 0x20 PUSH1 0x4 DUP3 ADD DUP2 SWAP1 MSTORE PUSH1 0x24 DUP3 ADD MSTORE PUSH32 0x4F776E61626C653A2063616C6C6572206973206E6F7420746865206F776E6572 PUSH1 0x44 DUP3 ADD MSTORE SWAP1 MLOAD SWAP1 DUP2 SWAP1 SUB PUSH1 0x64 ADD SWAP1 REVERT JUMPDEST PUSH1 0x0 DUP1 SLOAD PUSH1 0x40 MLOAD PUSH1 0x1 PUSH1 0x1 PUSH1 0xA0 SHL SUB SWAP1 SWAP2 AND SWAP1 PUSH32 0xEA8258F2D9DDB679928CF34B78CF645B7FEDA9ACC828E4DD82D014EAAE270EBA SWAP1 DUP4 SWAP1 LOG3 PUSH1 0x0 DUP1 SLOAD PUSH1 0x1 PUSH1 0x1 PUSH1 0xA0 SHL SUB NOT AND SWAP1 SSTORE JUMP JUMPDEST PUSH1 0x0 SLOAD PUSH1 0x1 PUSH1 0x1 PUSH1 0xA0 SHL SUB AND CALLER EQ PUSH2 0x798 JUMPI PUSH1 0x40 DUP1 MLOAD PUSH3 0x461BCD PUSH1 0xE5 SHL DUP2 MSTORE PUSH1 0x20 PUSH1 0x4 DUP3 ADD DUP2 SWAP1 MSTORE PUSH1 0x24 DUP3 ADD MSTORE PUSH32 0x4F776E61626C653A2063616C6C6572206973206E6F7420746865206F776E6572 PUSH1 0x44 DUP3 ADD MSTORE SWAP1 MLOAD SWAP1 DUP2 SWAP1 SUB PUSH1 0x64 ADD SWAP1 REVERT JUMPDEST PUSH1 0x0 DUP3 PUSH1 0x4 DUP2 GT ISZERO PUSH2 0x7A6 JUMPI INVALID JUMPDEST EQ ISZERO PUSH2 0x808 JUMPI PUSH3 0x1FA40 DUP2 LT ISZERO PUSH2 0x7EE JUMPI PUSH1 0x40 MLOAD PUSH3 0x461BCD PUSH1 0xE5 SHL DUP2 MSTORE PUSH1 0x4 ADD DUP1 DUP1 PUSH1 0x20 ADD DUP3 DUP2 SUB DUP3 MSTORE PUSH1 0x24 DUP2 MSTORE PUSH1 0x20 ADD DUP1 PUSH2 0x2CC1 PUSH1 0x24 SWAP2 CODECOPY PUSH1 0x40 ADD SWAP2 POP POP PUSH1 0x40 MLOAD DUP1 SWAP2 SUB SWAP1 REVERT JUMPDEST PUSH1 0x9 DUP1 SLOAD PUSH4 0xFFFFFFFF NOT AND PUSH4 0xFFFFFFFF DUP4 AND OR SWAP1 SSTORE PUSH2 0x92A JUMP JUMPDEST PUSH1 0x1 DUP3 PUSH1 0x4 DUP2 GT ISZERO PUSH2 0x816 JUMPI INVALID JUMPDEST EQ ISZERO PUSH2 0x87D JUMPI PUSH2 0x3E8 DUP2 GT ISZERO PUSH2 0x873 JUMPI PUSH1 0x40 DUP1 MLOAD PUSH3 0x461BCD PUSH1 0xE5 SHL DUP2 MSTORE PUSH1 0x20 PUSH1 0x4 DUP3 ADD DUP2 SWAP1 MSTORE PUSH1 0x24 DUP3 ADD MSTORE PUSH32 0x5061796F75742063616E6E6F742062652061626F766520312070657263656E74 PUSH1 0x44 DUP3 ADD MSTORE SWAP1 MLOAD SWAP1 DUP2 SWAP1 SUB PUSH1 0x64 ADD SWAP1 REVERT JUMPDEST PUSH1 0x6 DUP2 SWAP1 SSTORE PUSH2 0x92A JUMP JUMPDEST PUSH1 0x2 DUP3 PUSH1 0x4 DUP2 GT ISZERO PUSH2 0x88B JUMPI INVALID JUMPDEST EQ ISZERO PUSH2 0x8F2 JUMPI PUSH2 0x2710 DUP2 GT ISZERO PUSH2 0x8E8 JUMPI PUSH1 0x40 DUP1 MLOAD PUSH3 0x461BCD PUSH1 0xE5 SHL DUP2 MSTORE PUSH1 0x20 PUSH1 0x4 DUP3 ADD MSTORE PUSH1 0x1C PUSH1 0x24 DUP3 ADD MSTORE PUSH32 0x44414F206665652063616E6E6F7420657863656564207061796F757400000000 PUSH1 0x44 DUP3 ADD MSTORE SWAP1 MLOAD SWAP1 DUP2 SWAP1 SUB PUSH1 0x64 ADD SWAP1 REVERT JUMPDEST PUSH1 0x7 DUP2 SWAP1 SSTORE PUSH2 0x92A JUMP JUMPDEST PUSH1 0x3 DUP3 PUSH1 0x4 DUP2 GT ISZERO PUSH2 0x900 JUMPI INVALID JUMPDEST EQ ISZERO PUSH2 0x910 JUMPI PUSH1 0x8 DUP2 SWAP1 SSTORE PUSH2 0x92A JUMP JUMPDEST PUSH1 0x4 DUP3 PUSH1 0x4 DUP2 GT ISZERO PUSH2 0x91E JUMPI INVALID JUMPDEST EQ ISZERO PUSH2 0x92A JUMPI PUSH1 0x5 DUP2 SWAP1 SSTORE JUMPDEST POP POP JUMP JUMPDEST PUSH1 0x0 PUSH2 0x938 PUSH2 0x2BC8 JUMP JUMPDEST POP PUSH1 0x1 PUSH1 0x1 PUSH1 0xA0 SHL SUB DUP4 AND PUSH1 0x0 SWAP1 DUP2 MSTORE PUSH1 0xE PUSH1 0x20 SWAP1 DUP2 MSTORE PUSH1 0x40 DUP1 DUP4 KECCAK256 DUP2 MLOAD PUSH1 0x80 DUP2 ADD DUP4 MSTORE DUP2 SLOAD DUP2 MSTORE PUSH1 0x1 DUP3 ADD SLOAD SWAP4 DUP2 ADD SWAP4 SWAP1 SWAP4 MSTORE PUSH1 0x2 ADD SLOAD PUSH4 0xFFFFFFFF DUP1 DUP3 AND SWAP3 DUP5 ADD SWAP3 SWAP1 SWAP3 MSTORE PUSH5 0x100000000 SWAP1 DIV AND PUSH1 0x60 DUP3 ADD MSTORE SWAP1 PUSH2 0x997 DUP6 PUSH2 0xCE9 JUMP JUMPDEST SWAP1 POP PUSH2 0x2710 DUP2 LT PUSH2 0xA2C JUMPI PUSH1 0x1 PUSH1 0x1 PUSH1 0xA0 SHL SUB DUP6 AND PUSH1 0x0 DUP2 DUP2 MSTORE PUSH1 0xE PUSH1 0x20 SWAP1 DUP2 MSTORE PUSH1 0x40 DUP1 DUP4 KECCAK256 DUP4 DUP2 SSTORE PUSH1 0x1 DUP2 ADD DUP5 SWAP1 SSTORE PUSH1 0x2 ADD DUP1 SLOAD PUSH8 0xFFFFFFFFFFFFFFFF NOT AND SWAP1 SSTORE DUP6 MLOAD DUP2 MLOAD SWAP1 DUP2 MSTORE SWAP2 DUP3 ADD SWAP3 SWAP1 SWAP3 MSTORE DUP2 MLOAD PUSH32 0x51C99F515C87B0D95BA97F616EDD182E8F161C4932EAC17C6FEFE9DAB58B77B1 SWAP3 SWAP2 DUP2 SWAP1 SUB SWAP1 SWAP2 ADD SWAP1 LOG2 PUSH2 0xA23 DUP6 DUP6 DUP5 PUSH1 0x0 ADD MLOAD PUSH2 0x1F1C JUMP JUMPDEST SWAP3 POP POP POP PUSH2 0xB7A JUMP JUMPDEST DUP2 MLOAD PUSH1 0x0 SWAP1 PUSH2 0xA43 SWAP1 PUSH2 0x2710 SWAP1 PUSH2 0x670 SWAP1 DUP6 PUSH2 0x1E7A JUMP JUMPDEST SWAP1 POP PUSH1 0x40 MLOAD DUP1 PUSH1 0x80 ADD PUSH1 0x40 MSTORE DUP1 PUSH2 0xA67 DUP4 DUP7 PUSH1 0x0 ADD MLOAD PUSH2 0x2220 SWAP1 SWAP2 SWAP1 PUSH4 0xFFFFFFFF AND JUMP JUMPDEST DUP2 MSTORE PUSH1 0x20 ADD DUP5 PUSH1 0x20 ADD MLOAD DUP2 MSTORE PUSH1 0x20 ADD TIMESTAMP PUSH4 0xFFFFFFFF AND DUP2 MSTORE PUSH1 0x20 ADD PUSH2 0xABB PUSH2 0xAA2 DUP7 PUSH1 0x40 ADD MLOAD TIMESTAMP PUSH4 0xFFFFFFFF AND PUSH2 0x2262 SWAP1 SWAP2 SWAP1 PUSH4 0xFFFFFFFF AND JUMP JUMPDEST DUP7 PUSH1 0x60 ADD MLOAD PUSH4 0xFFFFFFFF AND PUSH2 0x2262 SWAP1 SWAP2 SWAP1 PUSH4 0xFFFFFFFF AND JUMP JUMPDEST PUSH4 0xFFFFFFFF SWAP1 DUP2 AND SWAP1 SWAP2 MSTORE PUSH1 0x1 PUSH1 0x1 PUSH1 0xA0 SHL SUB DUP9 AND PUSH1 0x0 DUP2 DUP2 MSTORE PUSH1 0xE PUSH1 0x20 SWAP1 DUP2 MSTORE PUSH1 0x40 SWAP2 DUP3 SWAP1 KECCAK256 DUP6 MLOAD DUP1 DUP3 SSTORE DUP7 DUP4 ADD MLOAD PUSH1 0x1 DUP4 ADD SSTORE DUP7 DUP5 ADD MLOAD PUSH1 0x2 SWAP1 SWAP3 ADD DUP1 SLOAD PUSH1 0x60 SWAP1 SWAP9 ADD MLOAD DUP8 AND PUSH5 0x100000000 MUL PUSH8 0xFFFFFFFF00000000 NOT SWAP4 SWAP1 SWAP8 AND PUSH4 0xFFFFFFFF NOT SWAP1 SWAP9 AND SWAP8 SWAP1 SWAP8 OR SWAP2 SWAP1 SWAP2 AND SWAP5 SWAP1 SWAP5 OR SWAP1 SWAP5 SSTORE DUP1 MLOAD DUP6 DUP2 MSTORE SWAP4 DUP5 ADD SWAP3 SWAP1 SWAP3 MSTORE DUP2 MLOAD SWAP1 SWAP3 PUSH32 0x51C99F515C87B0D95BA97F616EDD182E8F161C4932EAC17C6FEFE9DAB58B77B1 SWAP3 SWAP1 DUP3 SWAP1 SUB ADD SWAP1 LOG2 PUSH2 0xB74 DUP7 DUP7 DUP4 PUSH2 0x1F1C JUMP JUMPDEST SWAP4 POP POP POP POP JUMPDEST SWAP3 SWAP2 POP POP JUMP JUMPDEST PUSH1 0x3 SLOAD PUSH1 0x1 PUSH1 0xA0 SHL SWAP1 DIV PUSH1 0xFF AND DUP2 JUMP JUMPDEST PUSH32 0x0 DUP2 JUMP JUMPDEST PUSH1 0xA SLOAD PUSH1 0xB SLOAD PUSH1 0xC SLOAD PUSH1 0xD SLOAD PUSH1 0xFF SWAP1 SWAP4 AND SWAP3 PUSH4 0xFFFFFFFF DUP1 DUP3 AND SWAP2 PUSH5 0x100000000 SWAP1 DIV AND DUP6 JUMP JUMPDEST PUSH1 0x0 SLOAD PUSH1 0x1 PUSH1 0x1 PUSH1 0xA0 SHL SUB AND CALLER EQ PUSH2 0xC3A JUMPI PUSH1 0x40 DUP1 MLOAD PUSH3 0x461BCD PUSH1 0xE5 SHL DUP2 MSTORE PUSH1 0x20 PUSH1 0x4 DUP3 ADD DUP2 SWAP1 MSTORE PUSH1 0x24 DUP3 ADD MSTORE PUSH32 0x4F776E61626C653A2063616C6C6572206973206E6F7420746865206F776E6572 PUSH1 0x44 DUP3 ADD MSTORE SWAP1 MLOAD SWAP1 DUP2 SWAP1 SUB PUSH1 0x64 ADD SWAP1 REVERT JUMPDEST PUSH1 0x1 PUSH1 0x1 PUSH1 0xA0 SHL SUB DUP2 AND PUSH2 0xC7F JUMPI PUSH1 0x40 MLOAD PUSH3 0x461BCD PUSH1 0xE5 SHL DUP2 MSTORE PUSH1 0x4 ADD DUP1 DUP1 PUSH1 0x20 ADD DUP3 DUP2 SUB DUP3 MSTORE PUSH1 0x26 DUP2 MSTORE PUSH1 0x20 ADD DUP1 PUSH2 0x2C0F PUSH1 0x26 SWAP2 CODECOPY PUSH1 0x40 ADD SWAP2 POP POP PUSH1 0x40 MLOAD DUP1 SWAP2 SUB SWAP1 REVERT JUMPDEST PUSH1 0x0 DUP1 SLOAD PUSH1 0x40 MLOAD PUSH1 0x1 PUSH1 0x1 PUSH1 0xA0 SHL SUB DUP1 DUP6 AND SWAP4 SWAP3 AND SWAP2 PUSH32 0xEA8258F2D9DDB679928CF34B78CF645B7FEDA9ACC828E4DD82D014EAAE270EBA SWAP2 LOG3 PUSH1 0x1 DUP1 SLOAD PUSH1 0x1 PUSH1 0x1 PUSH1 0xA0 SHL SUB NOT AND PUSH1 0x1 PUSH1 0x1 PUSH1 0xA0 SHL SUB SWAP3 SWAP1 SWAP3 AND SWAP2 SWAP1 SWAP2 OR SWAP1 SSTORE JUMP JUMPDEST PUSH1 0x2 SLOAD PUSH1 0x1 PUSH1 0x1 PUSH1 0xA0 SHL SUB AND DUP2 JUMP JUMPDEST PUSH1 0x0 PUSH2 0xCF3 PUSH2 0x2BC8 JUMP JUMPDEST POP PUSH1 0x1 PUSH1 0x1 PUSH1 0xA0 SHL SUB DUP3 AND PUSH1 0x0 SWAP1 DUP2 MSTORE PUSH1 0xE PUSH1 0x20 SWAP1 DUP2 MSTORE PUSH1 0x40 DUP1 DUP4 KECCAK256 DUP2 MLOAD PUSH1 0x80 DUP2 ADD DUP4 MSTORE DUP2 SLOAD DUP2 MSTORE PUSH1 0x1 DUP3 ADD SLOAD SWAP4 DUP2 ADD SWAP4 SWAP1 SWAP4 MSTORE PUSH1 0x2 ADD SLOAD PUSH4 0xFFFFFFFF DUP1 DUP3 AND SWAP3 DUP5 ADD DUP4 SWAP1 MSTORE PUSH5 0x100000000 SWAP1 SWAP2 DIV DUP2 AND PUSH1 0x60 DUP5 ADD MSTORE SWAP2 SWAP3 SWAP2 PUSH2 0xD5A SWAP2 TIMESTAMP DUP3 AND SWAP2 PUSH2 0x2220 AND JUMP JUMPDEST PUSH1 0x60 DUP4 ADD MLOAD SWAP1 SWAP2 POP PUSH4 0xFFFFFFFF AND DUP1 ISZERO PUSH2 0xD85 JUMPI PUSH2 0xD7E DUP2 PUSH2 0x670 DUP5 PUSH2 0x2710 PUSH2 0x1E7A JUMP JUMPDEST SWAP4 POP PUSH2 0xD8A JUMP JUMPDEST PUSH1 0x0 SWAP4 POP JUMPDEST POP POP POP SWAP2 SWAP1 POP JUMP JUMPDEST PUSH1 0x1 SLOAD PUSH1 0x1 PUSH1 0x1 PUSH1 0xA0 SHL SUB AND CALLER EQ PUSH2 0xDDB JUMPI PUSH1 0x40 MLOAD PUSH3 0x461BCD PUSH1 0xE5 SHL DUP2 MSTORE PUSH1 0x4 ADD DUP1 DUP1 PUSH1 0x20 ADD DUP3 DUP2 SUB DUP3 MSTORE PUSH1 0x22 DUP2 MSTORE PUSH1 0x20 ADD DUP1 PUSH2 0x2C35 PUSH1 0x22 SWAP2 CODECOPY PUSH1 0x40 ADD SWAP2 POP POP PUSH1 0x40 MLOAD DUP1 SWAP2 SUB SWAP1 REVERT JUMPDEST PUSH1 0x1 SLOAD PUSH1 0x0 DUP1 SLOAD PUSH1 0x40 MLOAD PUSH1 0x1 PUSH1 0x1 PUSH1 0xA0 SHL SUB SWAP4 DUP5 AND SWAP4 SWAP1 SWAP2 AND SWAP2 PUSH32 0xAA151555690C956FC3EA32F106BB9F119B5237A061EAA8557CFF3E51E3792C8D SWAP2 LOG3 PUSH1 0x1 SLOAD PUSH1 0x0 DUP1 SLOAD PUSH1 0x1 PUSH1 0x1 PUSH1 0xA0 SHL SUB NOT AND PUSH1 0x1 PUSH1 0x1 PUSH1 0xA0 SHL SUB SWAP1 SWAP3 AND SWAP2 SWAP1 SWAP2 OR SWAP1 SSTORE JUMP JUMPDEST PUSH32 0x0 DUP2 JUMP JUMPDEST PUSH1 0x0 PUSH2 0xE76 PUSH2 0xE6D PUSH2 0x1E0F JUMP JUMPDEST PUSH1 0xF SLOAD SWAP1 PUSH2 0x2220 JUMP JUMPDEST SWAP1 POP SWAP1 JUMP JUMPDEST PUSH1 0x3 SLOAD PUSH1 0x1 PUSH1 0x1 PUSH1 0xA0 SHL SUB AND DUP2 JUMP JUMPDEST PUSH1 0x0 PUSH2 0xB7A PUSH7 0x2386F26FC10000 PUSH2 0x670 PUSH2 0xEAB DUP6 PUSH2 0xEA6 PUSH2 0x1D33 JUMP JUMPDEST PUSH2 0x22A4 JUMP JUMPDEST PUSH2 0x2426 JUMP JUMPDEST PUSH1 0x0 PUSH32 0x0 ISZERO PUSH2 0xFAE JUMPI PUSH2 0xFA7 PUSH1 0x64 PUSH2 0x670 PUSH32 0x0 PUSH1 0x1 PUSH1 0x1 PUSH1 0xA0 SHL SUB AND PUSH4 0x32DA80A3 PUSH32 0x0 PUSH1 0x40 MLOAD DUP3 PUSH4 0xFFFFFFFF AND PUSH1 0xE0 SHL DUP2 MSTORE PUSH1 0x4 ADD DUP1 DUP3 PUSH1 0x1 PUSH1 0x1 PUSH1 0xA0 SHL SUB AND DUP2 MSTORE PUSH1 0x20 ADD SWAP2 POP POP PUSH1 0x20 PUSH1 0x40 MLOAD DUP1 DUP4 SUB DUP2 DUP7 DUP1 EXTCODESIZE ISZERO DUP1 ISZERO PUSH2 0xF6D JUMPI PUSH1 0x0 DUP1 REVERT JUMPDEST POP GAS STATICCALL ISZERO DUP1 ISZERO PUSH2 0xF81 JUMPI RETURNDATASIZE PUSH1 0x0 DUP1 RETURNDATACOPY RETURNDATASIZE PUSH1 0x0 REVERT JUMPDEST POP POP POP POP PUSH1 0x40 MLOAD RETURNDATASIZE PUSH1 0x20 DUP2 LT ISZERO PUSH2 0xF97 JUMPI PUSH1 0x0 DUP1 REVERT JUMPDEST POP MLOAD PUSH2 0xFA1 PUSH2 0x1D33 JUMP JUMPDEST SWAP1 PUSH2 0x1E7A JUMP JUMPDEST SWAP1 POP PUSH2 0x68D JUMP JUMPDEST PUSH2 0xE76 PUSH1 0x64 PUSH2 0x670 PUSH32 0x0 PUSH1 0x1 PUSH1 0x1 PUSH1 0xA0 SHL SUB AND PUSH4 0x313CE567 PUSH1 0x40 MLOAD DUP2 PUSH4 0xFFFFFFFF AND PUSH1 0xE0 SHL DUP2 MSTORE PUSH1 0x4 ADD PUSH1 0x20 PUSH1 0x40 MLOAD DUP1 DUP4 SUB DUP2 DUP7 DUP1 EXTCODESIZE ISZERO DUP1 ISZERO PUSH2 0x100F JUMPI PUSH1 0x0 DUP1 REVERT JUMPDEST POP GAS STATICCALL ISZERO DUP1 ISZERO PUSH2 0x1023 JUMPI RETURNDATASIZE PUSH1 0x0 DUP1 RETURNDATACOPY RETURNDATASIZE PUSH1 0x0 REVERT JUMPDEST POP POP POP POP PUSH1 0x40 MLOAD RETURNDATASIZE PUSH1 0x20 DUP2 LT ISZERO PUSH2 0x1039 JUMPI PUSH1 0x0 DUP1 REVERT JUMPDEST POP MLOAD PUSH1 0xFF AND PUSH1 0xA EXP PUSH2 0xFA1 PUSH2 0x1D33 JUMP JUMPDEST PUSH1 0x0 PUSH1 0x1 PUSH1 0x1 PUSH1 0xA0 SHL SUB DUP3 AND PUSH2 0x10A6 JUMPI PUSH1 0x40 DUP1 MLOAD PUSH3 0x461BCD PUSH1 0xE5 SHL DUP2 MSTORE PUSH1 0x20 PUSH1 0x4 DUP3 ADD MSTORE PUSH1 0xF PUSH1 0x24 DUP3 ADD MSTORE PUSH32 0x496E76616C696420616464726573730000000000000000000000000000000000 PUSH1 0x44 DUP3 ADD MSTORE SWAP1 MLOAD SWAP1 DUP2 SWAP1 SUB PUSH1 0x64 ADD SWAP1 REVERT JUMPDEST PUSH2 0x10AE PUSH2 0x243E JUMP JUMPDEST PUSH1 0x8 SLOAD PUSH1 0xF SLOAD GT ISZERO PUSH2 0x1107 JUMPI PUSH1 0x40 DUP1 MLOAD PUSH3 0x461BCD PUSH1 0xE5 SHL DUP2 MSTORE PUSH1 0x20 PUSH1 0x4 DUP3 ADD MSTORE PUSH1 0x14 PUSH1 0x24 DUP3 ADD MSTORE PUSH32 0x4D61782063617061636974792072656163686564000000000000000000000000 PUSH1 0x44 DUP3 ADD MSTORE SWAP1 MLOAD SWAP1 DUP2 SWAP1 SUB PUSH1 0x64 ADD SWAP1 REVERT JUMPDEST PUSH1 0x0 PUSH2 0x1111 PUSH2 0xEB0 JUMP JUMPDEST SWAP1 POP PUSH1 0x0 PUSH2 0x111D PUSH2 0x2463 JUMP JUMPDEST SWAP1 POP DUP1 DUP6 LT ISZERO PUSH2 0x115E JUMPI PUSH1 0x40 MLOAD PUSH3 0x461BCD PUSH1 0xE5 SHL DUP2 MSTORE PUSH1 0x4 ADD DUP1 DUP1 PUSH1 0x20 ADD DUP3 DUP2 SUB DUP3 MSTORE PUSH1 0x23 DUP2 MSTORE PUSH1 0x20 ADD DUP1 PUSH2 0x2C9E PUSH1 0x23 SWAP2 CODECOPY PUSH1 0x40 ADD SWAP2 POP POP PUSH1 0x40 MLOAD DUP1 SWAP2 SUB SWAP1 REVERT JUMPDEST PUSH1 0x0 PUSH32 0x0 PUSH1 0x1 PUSH1 0x1 PUSH1 0xA0 SHL SUB AND PUSH4 0xF1821783 PUSH32 0x0 DUP10 PUSH1 0x40 MLOAD DUP4 PUSH4 0xFFFFFFFF AND PUSH1 0xE0 SHL DUP2 MSTORE PUSH1 0x4 ADD DUP1 DUP4 PUSH1 0x1 PUSH1 0x1 PUSH1 0xA0 SHL SUB AND DUP2 MSTORE PUSH1 0x20 ADD DUP3 DUP2 MSTORE PUSH1 0x20 ADD SWAP3 POP POP POP PUSH1 0x20 PUSH1 0x40 MLOAD DUP1 DUP4 SUB DUP2 DUP7 DUP1 EXTCODESIZE ISZERO DUP1 ISZERO PUSH2 0x11F5 JUMPI PUSH1 0x0 DUP1 REVERT JUMPDEST POP GAS STATICCALL ISZERO DUP1 ISZERO PUSH2 0x1209 JUMPI RETURNDATASIZE PUSH1 0x0 DUP1 RETURNDATACOPY RETURNDATASIZE PUSH1 0x0 REVERT JUMPDEST POP POP POP POP PUSH1 0x40 MLOAD RETURNDATASIZE PUSH1 0x20 DUP2 LT ISZERO PUSH2 0x121F JUMPI PUSH1 0x0 DUP1 REVERT JUMPDEST POP MLOAD SWAP1 POP PUSH1 0x0 PUSH2 0x122E DUP3 PUSH2 0xE8A JUMP JUMPDEST SWAP1 POP PUSH3 0x989680 DUP2 LT ISZERO PUSH2 0x1288 JUMPI PUSH1 0x40 DUP1 MLOAD PUSH3 0x461BCD PUSH1 0xE5 SHL DUP2 MSTORE PUSH1 0x20 PUSH1 0x4 DUP3 ADD MSTORE PUSH1 0xE PUSH1 0x24 DUP3 ADD MSTORE PUSH32 0x426F6E6420746F6F20736D616C6C000000000000000000000000000000000000 PUSH1 0x44 DUP3 ADD MSTORE SWAP1 MLOAD SWAP1 DUP2 SWAP1 SUB PUSH1 0x64 ADD SWAP1 REVERT JUMPDEST PUSH2 0x1290 PUSH2 0x1D72 JUMP JUMPDEST DUP2 GT ISZERO PUSH2 0x12E4 JUMPI PUSH1 0x40 DUP1 MLOAD PUSH3 0x461BCD PUSH1 0xE5 SHL DUP2 MSTORE PUSH1 0x20 PUSH1 0x4 DUP3 ADD MSTORE PUSH1 0xE PUSH1 0x24 DUP3 ADD MSTORE PUSH32 0x426F6E6420746F6F206C61726765000000000000000000000000000000000000 PUSH1 0x44 DUP3 ADD MSTORE SWAP1 MLOAD SWAP1 DUP2 SWAP1 SUB PUSH1 0x64 ADD SWAP1 REVERT JUMPDEST PUSH1 0x0 PUSH2 0x1304 PUSH2 0x2710 PUSH2 0x670 PUSH1 0x4 PUSH1 0x3 ADD SLOAD DUP6 PUSH2 0x1E7A SWAP1 SWAP2 SWAP1 PUSH4 0xFFFFFFFF AND JUMP JUMPDEST SWAP1 POP PUSH1 0x0 PUSH2 0x131C DUP3 PUSH2 0x1316 DUP7 DUP7 PUSH2 0x2220 JUMP JUMPDEST SWAP1 PUSH2 0x2220 JUMP JUMPDEST SWAP1 POP PUSH2 0x1353 PUSH1 0x1 PUSH1 0x1 PUSH1 0xA0 SHL SUB PUSH32 0x0 AND CALLER ADDRESS DUP14 PUSH2 0x24A5 JUMP JUMPDEST PUSH32 0x0 PUSH1 0x1 PUSH1 0x1 PUSH1 0xA0 SHL SUB AND PUSH4 0x95EA7B3 PUSH32 0x0 DUP13 PUSH1 0x40 MLOAD DUP4 PUSH4 0xFFFFFFFF AND PUSH1 0xE0 SHL DUP2 MSTORE PUSH1 0x4 ADD DUP1 DUP4 PUSH1 0x1 PUSH1 0x1 PUSH1 0xA0 SHL SUB AND DUP2 MSTORE PUSH1 0x20 ADD DUP3 DUP2 MSTORE PUSH1 0x20 ADD SWAP3 POP POP POP PUSH1 0x20 PUSH1 0x40 MLOAD DUP1 DUP4 SUB DUP2 PUSH1 0x0 DUP8 DUP1 EXTCODESIZE ISZERO DUP1 ISZERO PUSH2 0x13EA JUMPI PUSH1 0x0 DUP1 REVERT JUMPDEST POP GAS CALL ISZERO DUP1 ISZERO PUSH2 0x13FE JUMPI RETURNDATASIZE PUSH1 0x0 DUP1 RETURNDATACOPY RETURNDATASIZE PUSH1 0x0 REVERT JUMPDEST POP POP POP POP PUSH1 0x40 MLOAD RETURNDATASIZE PUSH1 0x20 DUP2 LT ISZERO PUSH2 0x1414 JUMPI PUSH1 0x0 DUP1 REVERT JUMPDEST POP POP PUSH1 0x40 DUP1 MLOAD PUSH32 0xBC157AC100000000000000000000000000000000000000000000000000000000 DUP2 MSTORE PUSH1 0x4 DUP2 ADD DUP13 SWAP1 MSTORE PUSH1 0x1 PUSH1 0x1 PUSH1 0xA0 SHL SUB PUSH32 0x0 DUP2 AND PUSH1 0x24 DUP4 ADD MSTORE PUSH1 0x44 DUP3 ADD DUP5 SWAP1 MSTORE SWAP2 MLOAD PUSH32 0x0 SWAP1 SWAP3 AND SWAP2 PUSH4 0xBC157AC1 SWAP2 PUSH1 0x64 DUP1 DUP3 ADD SWAP3 PUSH1 0x20 SWAP3 SWAP1 SWAP2 SWAP1 DUP3 SWAP1 SUB ADD DUP2 PUSH1 0x0 DUP8 DUP1 EXTCODESIZE ISZERO DUP1 ISZERO PUSH2 0x14CA JUMPI PUSH1 0x0 DUP1 REVERT JUMPDEST POP GAS CALL ISZERO DUP1 ISZERO PUSH2 0x14DE JUMPI RETURNDATASIZE PUSH1 0x0 DUP1 RETURNDATACOPY RETURNDATASIZE PUSH1 0x0 REVERT JUMPDEST POP POP POP POP PUSH1 0x40 MLOAD RETURNDATASIZE PUSH1 0x20 DUP2 LT ISZERO PUSH2 0x14F4 JUMPI PUSH1 0x0 DUP1 REVERT JUMPDEST POP POP DUP2 ISZERO PUSH2 0x1550 JUMPI PUSH2 0x1550 PUSH1 0x1 PUSH1 0x1 PUSH1 0xA0 SHL SUB PUSH32 0x0 AND PUSH32 0x0 DUP5 PUSH2 0x251E JUMP JUMPDEST PUSH1 0xF SLOAD PUSH2 0x155D SWAP1 DUP6 PUSH2 0x258E JUMP JUMPDEST PUSH1 0xF SSTORE PUSH1 0x40 DUP1 MLOAD PUSH1 0x80 DUP2 ADD DUP3 MSTORE PUSH1 0x1 PUSH1 0x1 PUSH1 0xA0 SHL SUB DUP11 AND PUSH1 0x0 SWAP1 DUP2 MSTORE PUSH1 0xE PUSH1 0x20 MSTORE SWAP2 SWAP1 SWAP2 KECCAK256 SLOAD DUP2 SWAP1 PUSH2 0x158F SWAP1 DUP7 PUSH2 0x258E JUMP JUMPDEST DUP2 MSTORE PUSH1 0x20 DUP1 DUP3 ADD DUP10 SWAP1 MSTORE PUSH4 0xFFFFFFFF TIMESTAMP DUP2 DUP2 AND PUSH1 0x40 DUP1 DUP7 ADD SWAP2 SWAP1 SWAP2 MSTORE PUSH1 0x9 DUP1 SLOAD DUP5 AND PUSH1 0x60 SWAP7 DUP8 ADD MSTORE PUSH1 0x1 PUSH1 0x1 PUSH1 0xA0 SHL SUB DUP16 AND PUSH1 0x0 SWAP1 DUP2 MSTORE PUSH1 0xE DUP7 MSTORE DUP3 SWAP1 KECCAK256 DUP8 MLOAD DUP2 SSTORE SWAP5 DUP8 ADD MLOAD PUSH1 0x1 DUP7 ADD SSTORE SWAP1 DUP7 ADD MLOAD PUSH1 0x2 SWAP1 SWAP5 ADD DUP1 SLOAD SWAP7 SWAP1 SWAP6 ADD MLOAD DUP4 AND PUSH5 0x100000000 MUL PUSH8 0xFFFFFFFF00000000 NOT SWAP5 DUP5 AND PUSH4 0xFFFFFFFF NOT SWAP1 SWAP8 AND SWAP7 SWAP1 SWAP7 OR SWAP4 SWAP1 SWAP4 AND SWAP5 SWAP1 SWAP5 OR SWAP1 SWAP3 SSTORE SLOAD DUP9 SWAP3 PUSH2 0x162A SWAP3 SWAP1 SWAP2 DUP2 AND SWAP1 PUSH2 0x258E AND JUMP JUMPDEST PUSH1 0x40 DUP1 MLOAD DUP14 DUP2 MSTORE SWAP1 MLOAD DUP7 SWAP2 PUSH32 0x1FEC6DC81F140574BF43F6B1E420AE1DD47928B9D57DB8CBD7B8611063B85AE5 SWAP2 SWAP1 DUP2 SWAP1 SUB PUSH1 0x20 ADD SWAP1 LOG4 PUSH2 0x1668 PUSH2 0x1A3B JUMP JUMPDEST PUSH2 0x1670 PUSH2 0x2463 JUMP JUMPDEST PUSH2 0x1678 PUSH2 0xEB0 JUMP JUMPDEST PUSH1 0x40 MLOAD PUSH32 0x375B221F40939BFD8F49723A17CF7BC6D576EBF72EFE2CC3E991826F5B3F390A SWAP1 PUSH1 0x0 SWAP1 LOG4 PUSH2 0x16A9 PUSH2 0x25E8 JUMP JUMPDEST POP SWAP1 SWAP9 SWAP8 POP POP POP POP POP POP POP POP JUMP JUMPDEST PUSH1 0x0 PUSH32 0x0 ISZERO PUSH2 0x17AB JUMPI PUSH2 0xFA7 PUSH4 0x3B9ACA00 PUSH2 0x670 PUSH32 0x0 PUSH1 0x1 PUSH1 0x1 PUSH1 0xA0 SHL SUB AND PUSH4 0x32DA80A3 PUSH32 0x0 PUSH1 0x40 MLOAD DUP3 PUSH4 0xFFFFFFFF AND PUSH1 0xE0 SHL DUP2 MSTORE PUSH1 0x4 ADD DUP1 DUP3 PUSH1 0x1 PUSH1 0x1 PUSH1 0xA0 SHL SUB AND DUP2 MSTORE PUSH1 0x20 ADD SWAP2 POP POP PUSH1 0x20 PUSH1 0x40 MLOAD DUP1 DUP4 SUB DUP2 DUP7 DUP1 EXTCODESIZE ISZERO DUP1 ISZERO PUSH2 0x1777 JUMPI PUSH1 0x0 DUP1 REVERT JUMPDEST POP GAS STATICCALL ISZERO DUP1 ISZERO PUSH2 0x178B JUMPI RETURNDATASIZE PUSH1 0x0 DUP1 RETURNDATACOPY RETURNDATASIZE PUSH1 0x0 REVERT JUMPDEST POP POP POP POP PUSH1 0x40 MLOAD RETURNDATASIZE PUSH1 0x20 DUP2 LT ISZERO PUSH2 0x17A1 JUMPI PUSH1 0x0 DUP1 REVERT JUMPDEST POP MLOAD PUSH2 0xFA1 PUSH2 0x1A3B JUMP JUMPDEST PUSH2 0xFA7 PUSH2 0x1A3B JUMP JUMPDEST PUSH32 0x0 DUP2 JUMP JUMPDEST PUSH1 0x0 SLOAD PUSH1 0x1 PUSH1 0x1 PUSH1 0xA0 SHL SUB AND CALLER EQ PUSH2 0x1836 JUMPI PUSH1 0x40 DUP1 MLOAD PUSH3 0x461BCD PUSH1 0xE5 SHL DUP2 MSTORE PUSH1 0x20 PUSH1 0x4 DUP3 ADD DUP2 SWAP1 MSTORE PUSH1 0x24 DUP3 ADD MSTORE PUSH32 0x4F776E61626C653A2063616C6C6572206973206E6F7420746865206F776E6572 PUSH1 0x44 DUP3 ADD MSTORE SWAP1 MLOAD SWAP1 DUP2 SWAP1 SUB PUSH1 0x64 ADD SWAP1 REVERT JUMPDEST PUSH1 0x40 DUP1 MLOAD PUSH1 0xA0 DUP2 ADD DUP3 MSTORE SWAP5 ISZERO ISZERO DUP1 DUP7 MSTORE PUSH1 0x20 DUP7 ADD DUP6 SWAP1 MSTORE SWAP1 DUP6 ADD DUP4 SWAP1 MSTORE PUSH4 0xFFFFFFFF SWAP2 DUP3 AND PUSH1 0x60 DUP7 ADD DUP2 SWAP1 MSTORE TIMESTAMP SWAP1 SWAP3 AND PUSH1 0x80 SWAP1 SWAP6 ADD DUP6 SWAP1 MSTORE PUSH1 0xA DUP1 SLOAD PUSH1 0xFF NOT AND SWAP1 SWAP2 OR SWAP1 SSTORE PUSH1 0xB SWAP3 SWAP1 SWAP3 SSTORE PUSH1 0xC SSTORE PUSH1 0xD DUP1 SLOAD PUSH4 0xFFFFFFFF NOT AND SWAP1 SWAP2 OR PUSH8 0xFFFFFFFF00000000 NOT AND PUSH5 0x100000000 SWAP1 SWAP3 MUL SWAP2 SWAP1 SWAP2 OR SWAP1 SSTORE JUMP JUMPDEST PUSH1 0x0 PUSH32 0x0 PUSH1 0x1 PUSH1 0x1 PUSH1 0xA0 SHL SUB AND DUP3 PUSH1 0x1 PUSH1 0x1 PUSH1 0xA0 SHL SUB AND EQ ISZERO PUSH2 0x18EF JUMPI PUSH1 0x0 DUP1 REVERT JUMPDEST PUSH32 0x0 PUSH1 0x1 PUSH1 0x1 PUSH1 0xA0 SHL SUB AND DUP3 PUSH1 0x1 PUSH1 0x1 PUSH1 0xA0 SHL SUB AND EQ ISZERO PUSH2 0x192E JUMPI PUSH1 0x0 DUP1 REVERT JUMPDEST PUSH2 0x19DC PUSH32 0x0 DUP4 PUSH1 0x1 PUSH1 0x1 PUSH1 0xA0 SHL SUB AND PUSH4 0x70A08231 ADDRESS PUSH1 0x40 MLOAD DUP3 PUSH4 0xFFFFFFFF AND PUSH1 0xE0 SHL DUP2 MSTORE PUSH1 0x4 ADD DUP1 DUP3 PUSH1 0x1 PUSH1 0x1 PUSH1 0xA0 SHL SUB AND DUP2 MSTORE PUSH1 0x20 ADD SWAP2 POP POP PUSH1 0x20 PUSH1 0x40 MLOAD DUP1 DUP4 SUB DUP2 DUP7 DUP1 EXTCODESIZE ISZERO DUP1 ISZERO PUSH2 0x199F JUMPI PUSH1 0x0 DUP1 REVERT JUMPDEST POP GAS STATICCALL ISZERO DUP1 ISZERO PUSH2 0x19B3 JUMPI RETURNDATASIZE PUSH1 0x0 DUP1 RETURNDATACOPY RETURNDATASIZE PUSH1 0x0 REVERT JUMPDEST POP POP POP POP PUSH1 0x40 MLOAD RETURNDATASIZE PUSH1 0x20 DUP2 LT ISZERO PUSH2 0x19C9 JUMPI PUSH1 0x0 DUP1 REVERT JUMPDEST POP MLOAD PUSH1 0x1 PUSH1 0x1 PUSH1 0xA0 SHL SUB DUP6 AND SWAP2 SWAP1 PUSH2 0x251E JUMP JUMPDEST POP PUSH1 0x1 SWAP2 SWAP1 POP JUMP JUMPDEST PUSH32 0x0 DUP2 JUMP JUMPDEST PUSH1 0xE PUSH1 0x20 MSTORE PUSH1 0x0 SWAP1 DUP2 MSTORE PUSH1 0x40 SWAP1 KECCAK256 DUP1 SLOAD PUSH1 0x1 DUP3 ADD SLOAD PUSH1 0x2 SWAP1 SWAP3 ADD SLOAD SWAP1 SWAP2 SWAP1 PUSH4 0xFFFFFFFF DUP1 DUP3 AND SWAP2 PUSH5 0x100000000 SWAP1 DIV AND DUP5 JUMP JUMPDEST PUSH1 0x0 DUP1 PUSH32 0x0 PUSH1 0x1 PUSH1 0x1 PUSH1 0xA0 SHL SUB AND PUSH4 0x18160DDD PUSH1 0x40 MLOAD DUP2 PUSH4 0xFFFFFFFF AND PUSH1 0xE0 SHL DUP2 MSTORE PUSH1 0x4 ADD PUSH1 0x20 PUSH1 0x40 MLOAD DUP1 DUP4 SUB DUP2 DUP7 DUP1 EXTCODESIZE ISZERO DUP1 ISZERO PUSH2 0x1A97 JUMPI PUSH1 0x0 DUP1 REVERT JUMPDEST POP GAS STATICCALL ISZERO DUP1 ISZERO PUSH2 0x1AAB JUMPI RETURNDATASIZE PUSH1 0x0 DUP1 RETURNDATACOPY RETURNDATASIZE PUSH1 0x0 REVERT JUMPDEST POP POP POP POP PUSH1 0x40 MLOAD RETURNDATASIZE PUSH1 0x20 DUP2 LT ISZERO PUSH2 0x1AC1 JUMPI PUSH1 0x0 DUP1 REVERT JUMPDEST POP MLOAD SWAP1 POP PUSH2 0x1AED PUSH8 0xDE0B6B3A7640000 PUSH2 0x670 PUSH2 0xEAB PUSH2 0x1AE7 PUSH4 0x3B9ACA00 PUSH2 0xFA1 PUSH2 0xE60 JUMP JUMPDEST DUP6 PUSH2 0x22A4 JUMP JUMPDEST SWAP2 POP POP SWAP1 JUMP JUMPDEST PUSH1 0x0 SLOAD PUSH1 0x1 PUSH1 0x1 PUSH1 0xA0 SHL SUB AND CALLER EQ PUSH2 0x1B52 JUMPI PUSH1 0x40 DUP1 MLOAD PUSH3 0x461BCD PUSH1 0xE5 SHL DUP2 MSTORE PUSH1 0x20 PUSH1 0x4 DUP3 ADD DUP2 SWAP1 MSTORE PUSH1 0x24 DUP3 ADD MSTORE PUSH32 0x4F776E61626C653A2063616C6C6572206973206E6F7420746865206F776E6572 PUSH1 0x44 DUP3 ADD MSTORE SWAP1 MLOAD SWAP1 DUP2 SWAP1 SUB PUSH1 0x64 ADD SWAP1 REVERT JUMPDEST PUSH1 0x4 SLOAD ISZERO PUSH2 0x1BA7 JUMPI PUSH1 0x40 DUP1 MLOAD PUSH3 0x461BCD PUSH1 0xE5 SHL DUP2 MSTORE PUSH1 0x20 PUSH1 0x4 DUP3 ADD DUP2 SWAP1 MSTORE PUSH1 0x24 DUP3 ADD MSTORE PUSH32 0x426F6E6473206D75737420626520696E697469616C697A65642066726F6D2030 PUSH1 0x44 DUP3 ADD MSTORE SWAP1 MLOAD SWAP1 DUP2 SWAP1 SUB PUSH1 0x64 ADD SWAP1 REVERT JUMPDEST PUSH1 0x40 DUP1 MLOAD PUSH1 0xC0 DUP2 ADD DUP3 MSTORE DUP9 DUP2 MSTORE PUSH1 0x20 DUP2 ADD DUP9 SWAP1 MSTORE SWAP1 DUP2 ADD DUP7 SWAP1 MSTORE PUSH1 0x60 DUP2 ADD DUP6 SWAP1 MSTORE PUSH1 0x80 DUP2 ADD DUP5 SWAP1 MSTORE PUSH4 0xFFFFFFFF SWAP2 DUP3 AND PUSH1 0xA0 SWAP1 SWAP2 ADD DUP2 SWAP1 MSTORE PUSH1 0x4 SWAP8 SWAP1 SWAP8 SSTORE PUSH1 0x5 SWAP6 SWAP1 SWAP6 SSTORE PUSH1 0x6 SWAP4 SWAP1 SWAP4 SSTORE PUSH1 0x7 SWAP2 SWAP1 SWAP2 SSTORE PUSH1 0x8 SSTORE PUSH1 0x9 DUP1 SLOAD PUSH4 0xFFFFFFFF NOT SWAP1 DUP2 AND SWAP1 SWAP5 OR SWAP1 SSTORE PUSH1 0xF SSTORE PUSH1 0x10 DUP1 SLOAD SWAP1 SWAP3 AND TIMESTAMP SWAP1 SWAP2 AND OR SWAP1 SSTORE JUMP JUMPDEST PUSH1 0x0 SLOAD PUSH1 0x1 PUSH1 0x1 PUSH1 0xA0 SHL SUB AND CALLER EQ PUSH2 0x1C7E JUMPI PUSH1 0x40 DUP1 MLOAD PUSH3 0x461BCD PUSH1 0xE5 SHL DUP2 MSTORE PUSH1 0x20 PUSH1 0x4 DUP3 ADD DUP2 SWAP1 MSTORE PUSH1 0x24 DUP3 ADD MSTORE PUSH32 0x4F776E61626C653A2063616C6C6572206973206E6F7420746865206F776E6572 PUSH1 0x44 DUP3 ADD MSTORE SWAP1 MLOAD SWAP1 DUP2 SWAP1 SUB PUSH1 0x64 ADD SWAP1 REVERT JUMPDEST PUSH1 0x1 PUSH1 0x1 PUSH1 0xA0 SHL SUB DUP3 AND PUSH2 0x1C91 JUMPI PUSH1 0x0 DUP1 REVERT JUMPDEST DUP1 ISZERO PUSH2 0x1CC6 JUMPI PUSH1 0x3 DUP1 SLOAD PUSH1 0x1 PUSH1 0xA0 SHL PUSH1 0xFF PUSH1 0xA0 SHL NOT SWAP1 SWAP2 AND OR PUSH1 0x1 PUSH1 0x1 PUSH1 0xA0 SHL SUB NOT AND PUSH1 0x1 PUSH1 0x1 PUSH1 0xA0 SHL SUB DUP5 AND OR SWAP1 SSTORE PUSH2 0x92A JUMP JUMPDEST PUSH1 0x3 DUP1 SLOAD PUSH1 0xFF PUSH1 0xA0 SHL NOT AND SWAP1 SSTORE PUSH1 0x2 DUP1 SLOAD PUSH1 0x1 PUSH1 0x1 PUSH1 0xA0 SHL SUB DUP5 AND PUSH1 0x1 PUSH1 0x1 PUSH1 0xA0 SHL SUB NOT SWAP1 SWAP2 AND OR SWAP1 SSTORE POP POP JUMP JUMPDEST PUSH1 0x4 SLOAD PUSH1 0x5 SLOAD PUSH1 0x6 SLOAD PUSH1 0x7 SLOAD PUSH1 0x8 SLOAD PUSH1 0x9 SLOAD PUSH4 0xFFFFFFFF AND DUP7 JUMP JUMPDEST PUSH32 0x0 DUP2 JUMP JUMPDEST PUSH1 0x0 PUSH2 0x1D5E PUSH3 0x989680 PUSH2 0x670 PUSH4 0x3B9ACA00 PUSH2 0x1D58 PUSH2 0x1D4F PUSH2 0x1A3B JUMP JUMPDEST PUSH1 0x4 SLOAD SWAP1 PUSH2 0x1E7A JUMP JUMPDEST SWAP1 PUSH2 0x258E JUMP JUMPDEST PUSH1 0x5 SLOAD SWAP1 SWAP2 POP DUP2 LT ISZERO PUSH2 0x68D JUMPI POP PUSH1 0x5 SLOAD SWAP1 JUMP JUMPDEST PUSH1 0x0 PUSH2 0xE76 PUSH3 0x186A0 PUSH2 0x670 PUSH1 0x4 PUSH1 0x2 ADD SLOAD PUSH32 0x0 PUSH1 0x1 PUSH1 0x1 PUSH1 0xA0 SHL SUB AND PUSH4 0x18160DDD PUSH1 0x40 MLOAD DUP2 PUSH4 0xFFFFFFFF AND PUSH1 0xE0 SHL DUP2 MSTORE PUSH1 0x4 ADD PUSH1 0x20 PUSH1 0x40 MLOAD DUP1 DUP4 SUB DUP2 DUP7 DUP1 EXTCODESIZE ISZERO DUP1 ISZERO PUSH2 0x1DDD JUMPI PUSH1 0x0 DUP1 REVERT JUMPDEST POP GAS STATICCALL ISZERO DUP1 ISZERO PUSH2 0x1DF1 JUMPI RETURNDATASIZE PUSH1 0x0 DUP1 RETURNDATACOPY RETURNDATASIZE PUSH1 0x0 REVERT JUMPDEST POP POP POP POP PUSH1 0x40 MLOAD RETURNDATASIZE PUSH1 0x20 DUP2 LT ISZERO PUSH2 0x1E07 JUMPI PUSH1 0x0 DUP1 REVERT JUMPDEST POP MLOAD SWAP1 PUSH2 0x1E7A JUMP JUMPDEST PUSH1 0x10 SLOAD PUSH1 0x0 SWAP1 DUP2 SWAP1 PUSH2 0x1E2D SWAP1 PUSH4 0xFFFFFFFF TIMESTAMP DUP2 AND SWAP2 DUP2 AND SWAP1 PUSH2 0x2262 AND JUMP JUMPDEST PUSH1 0x9 SLOAD PUSH1 0xF SLOAD SWAP2 SWAP3 POP PUSH2 0x1E52 SWAP2 PUSH4 0xFFFFFFFF SWAP2 DUP3 AND SWAP2 PUSH2 0x670 SWAP2 SWAP1 DUP1 DUP7 AND SWAP1 PUSH2 0x1E7A AND JUMP JUMPDEST SWAP2 POP PUSH1 0xF SLOAD DUP3 GT ISZERO PUSH2 0x1E64 JUMPI PUSH1 0xF SLOAD SWAP2 POP JUMPDEST POP SWAP1 JUMP JUMPDEST PUSH1 0x10 SLOAD PUSH4 0xFFFFFFFF AND DUP2 JUMP JUMPDEST PUSH1 0xF SLOAD DUP2 JUMP JUMPDEST PUSH1 0x0 DUP3 PUSH2 0x1E89 JUMPI POP PUSH1 0x0 PUSH2 0xB7A JUMP JUMPDEST DUP3 DUP3 MUL DUP3 DUP5 DUP3 DUP2 PUSH2 0x1E96 JUMPI INVALID JUMPDEST DIV EQ PUSH2 0x1ED3 JUMPI PUSH1 0x40 MLOAD PUSH3 0x461BCD PUSH1 0xE5 SHL DUP2 MSTORE PUSH1 0x4 ADD DUP1 DUP1 PUSH1 0x20 ADD DUP3 DUP2 SUB DUP3 MSTORE PUSH1 0x21 DUP2 MSTORE PUSH1 0x20 ADD DUP1 PUSH2 0x2C7D PUSH1 0x21 SWAP2 CODECOPY PUSH1 0x40 ADD SWAP2 POP POP PUSH1 0x40 MLOAD DUP1 SWAP2 SUB SWAP1 REVERT JUMPDEST SWAP4 SWAP3 POP POP POP JUMP JUMPDEST PUSH1 0x0 PUSH2 0x1ED3 DUP4 DUP4 PUSH1 0x40 MLOAD DUP1 PUSH1 0x40 ADD PUSH1 0x40 MSTORE DUP1 PUSH1 0x1A DUP2 MSTORE PUSH1 0x20 ADD PUSH32 0x536166654D6174683A206469766973696F6E206279207A65726F000000000000 DUP2 MSTORE POP PUSH2 0x26F5 JUMP JUMPDEST PUSH1 0x0 DUP3 PUSH2 0x1FCC JUMPI PUSH32 0x0 PUSH1 0x1 PUSH1 0x1 PUSH1 0xA0 SHL SUB AND PUSH4 0xA9059CBB DUP6 DUP5 PUSH1 0x40 MLOAD DUP4 PUSH4 0xFFFFFFFF AND PUSH1 0xE0 SHL DUP2 MSTORE PUSH1 0x4 ADD DUP1 DUP4 PUSH1 0x1 PUSH1 0x1 PUSH1 0xA0 SHL SUB AND DUP2 MSTORE PUSH1 0x20 ADD DUP3 DUP2 MSTORE PUSH1 0x20 ADD SWAP3 POP POP POP PUSH1 0x20 PUSH1 0x40 MLOAD DUP1 DUP4 SUB DUP2 PUSH1 0x0 DUP8 DUP1 EXTCODESIZE ISZERO DUP1 ISZERO PUSH2 0x1F9A JUMPI PUSH1 0x0 DUP1 REVERT JUMPDEST POP GAS CALL ISZERO DUP1 ISZERO PUSH2 0x1FAE JUMPI RETURNDATASIZE PUSH1 0x0 DUP1 RETURNDATACOPY RETURNDATASIZE PUSH1 0x0 REVERT JUMPDEST POP POP POP POP PUSH1 0x40 MLOAD RETURNDATASIZE PUSH1 0x20 DUP2 LT ISZERO PUSH2 0x1FC4 JUMPI PUSH1 0x0 DUP1 REVERT JUMPDEST POP PUSH2 0x2219 SWAP1 POP JUMP JUMPDEST PUSH1 0x3 SLOAD PUSH1 0x1 PUSH1 0xA0 SHL SWAP1 DIV PUSH1 0xFF AND ISZERO PUSH2 0x20F3 JUMPI PUSH1 0x3 SLOAD PUSH1 0x40 DUP1 MLOAD PUSH4 0x95EA7B3 PUSH1 0xE0 SHL DUP2 MSTORE PUSH1 0x1 PUSH1 0x1 PUSH1 0xA0 SHL SUB SWAP3 DUP4 AND PUSH1 0x4 DUP3 ADD MSTORE PUSH1 0x24 DUP2 ADD DUP6 SWAP1 MSTORE SWAP1 MLOAD PUSH32 0x0 SWAP1 SWAP3 AND SWAP2 PUSH4 0x95EA7B3 SWAP2 PUSH1 0x44 DUP1 DUP3 ADD SWAP3 PUSH1 0x20 SWAP3 SWAP1 SWAP2 SWAP1 DUP3 SWAP1 SUB ADD DUP2 PUSH1 0x0 DUP8 DUP1 EXTCODESIZE ISZERO DUP1 ISZERO PUSH2 0x2055 JUMPI PUSH1 0x0 DUP1 REVERT JUMPDEST POP GAS CALL ISZERO DUP1 ISZERO PUSH2 0x2069 JUMPI RETURNDATASIZE PUSH1 0x0 DUP1 RETURNDATACOPY RETURNDATASIZE PUSH1 0x0 REVERT JUMPDEST POP POP POP POP PUSH1 0x40 MLOAD RETURNDATASIZE PUSH1 0x20 DUP2 LT ISZERO PUSH2 0x207F JUMPI PUSH1 0x0 DUP1 REVERT JUMPDEST POP POP PUSH1 0x3 SLOAD PUSH1 0x40 DUP1 MLOAD PUSH4 0x7ACB7757 PUSH1 0xE0 SHL DUP2 MSTORE PUSH1 0x4 DUP2 ADD DUP6 SWAP1 MSTORE PUSH1 0x1 PUSH1 0x1 PUSH1 0xA0 SHL SUB DUP8 DUP2 AND PUSH1 0x24 DUP4 ADD MSTORE SWAP2 MLOAD SWAP2 SWAP1 SWAP3 AND SWAP2 PUSH4 0x7ACB7757 SWAP2 PUSH1 0x44 DUP1 DUP4 ADD SWAP3 PUSH1 0x0 SWAP3 SWAP2 SWAP1 DUP3 SWAP1 SUB ADD DUP2 DUP4 DUP8 DUP1 EXTCODESIZE ISZERO DUP1 ISZERO PUSH2 0x20D6 JUMPI PUSH1 0x0 DUP1 REVERT JUMPDEST POP GAS CALL ISZERO DUP1 ISZERO PUSH2 0x20EA JUMPI RETURNDATASIZE PUSH1 0x0 DUP1 RETURNDATACOPY RETURNDATASIZE PUSH1 0x0 REVERT JUMPDEST POP POP POP POP PUSH2 0x2219 JUMP JUMPDEST PUSH1 0x2 SLOAD PUSH1 0x40 DUP1 MLOAD PUSH4 0x95EA7B3 PUSH1 0xE0 SHL DUP2 MSTORE PUSH1 0x1 PUSH1 0x1 PUSH1 0xA0 SHL SUB SWAP3 DUP4 AND PUSH1 0x4 DUP3 ADD MSTORE PUSH1 0x24 DUP2 ADD DUP6 SWAP1 MSTORE SWAP1 MLOAD PUSH32 0x0 SWAP1 SWAP3 AND SWAP2 PUSH4 0x95EA7B3 SWAP2 PUSH1 0x44 DUP1 DUP3 ADD SWAP3 PUSH1 0x20 SWAP3 SWAP1 SWAP2 SWAP1 DUP3 SWAP1 SUB ADD DUP2 PUSH1 0x0 DUP8 DUP1 EXTCODESIZE ISZERO DUP1 ISZERO PUSH2 0x216A JUMPI PUSH1 0x0 DUP1 REVERT JUMPDEST POP GAS CALL ISZERO DUP1 ISZERO PUSH2 0x217E JUMPI RETURNDATASIZE PUSH1 0x0 DUP1 RETURNDATACOPY RETURNDATASIZE PUSH1 0x0 REVERT JUMPDEST POP POP POP POP PUSH1 0x40 MLOAD RETURNDATASIZE PUSH1 0x20 DUP2 LT ISZERO PUSH2 0x2194 JUMPI PUSH1 0x0 DUP1 REVERT JUMPDEST POP POP PUSH1 0x2 SLOAD PUSH1 0x40 DUP1 MLOAD PUSH4 0x7ACB7757 PUSH1 0xE0 SHL DUP2 MSTORE PUSH1 0x4 DUP2 ADD DUP6 SWAP1 MSTORE PUSH1 0x1 PUSH1 0x1 PUSH1 0xA0 SHL SUB DUP8 DUP2 AND PUSH1 0x24 DUP4 ADD MSTORE SWAP2 MLOAD SWAP2 SWAP1 SWAP3 AND SWAP2 PUSH4 0x7ACB7757 SWAP2 PUSH1 0x44 DUP1 DUP4 ADD SWAP3 PUSH1 0x20 SWAP3 SWAP2 SWAP1 DUP3 SWAP1 SUB ADD DUP2 PUSH1 0x0 DUP8 DUP1 EXTCODESIZE ISZERO DUP1 ISZERO PUSH2 0x21EC JUMPI PUSH1 0x0 DUP1 REVERT JUMPDEST POP GAS CALL ISZERO DUP1 ISZERO PUSH2 0x2200 JUMPI RETURNDATASIZE PUSH1 0x0 DUP1 RETURNDATACOPY RETURNDATASIZE PUSH1 0x0 REVERT JUMPDEST POP POP POP POP PUSH1 0x40 MLOAD RETURNDATASIZE PUSH1 0x20 DUP2 LT ISZERO PUSH2 0x2216 JUMPI PUSH1 0x0 DUP1 REVERT JUMPDEST POP POP JUMPDEST POP SWAP3 SWAP2 POP POP JUMP JUMPDEST PUSH1 0x0 PUSH2 0x1ED3 DUP4 DUP4 PUSH1 0x40 MLOAD DUP1 PUSH1 0x40 ADD PUSH1 0x40 MSTORE DUP1 PUSH1 0x1E DUP2 MSTORE PUSH1 0x20 ADD PUSH32 0x536166654D6174683A207375627472616374696F6E206F766572666C6F770000 DUP2 MSTORE POP PUSH2 0x2797 JUMP JUMPDEST PUSH1 0x0 PUSH2 0x1ED3 DUP4 DUP4 PUSH1 0x40 MLOAD DUP1 PUSH1 0x40 ADD PUSH1 0x40 MSTORE DUP1 PUSH1 0x1E DUP2 MSTORE PUSH1 0x20 ADD PUSH32 0x536166654D6174683A207375627472616374696F6E206F766572666C6F770000 DUP2 MSTORE POP PUSH2 0x27F1 JUMP JUMPDEST PUSH2 0x22AC PUSH2 0x2BFC JUMP JUMPDEST PUSH1 0x0 DUP3 GT PUSH2 0x22EB JUMPI PUSH1 0x40 MLOAD PUSH3 0x461BCD PUSH1 0xE5 SHL DUP2 MSTORE PUSH1 0x4 ADD DUP1 DUP1 PUSH1 0x20 ADD DUP3 DUP2 SUB DUP3 MSTORE PUSH1 0x26 DUP2 MSTORE PUSH1 0x20 ADD DUP1 PUSH2 0x2C57 PUSH1 0x26 SWAP2 CODECOPY PUSH1 0x40 ADD SWAP2 POP POP PUSH1 0x40 MLOAD DUP1 SWAP2 SUB SWAP1 REVERT JUMPDEST DUP3 PUSH2 0x2305 JUMPI POP PUSH1 0x40 DUP1 MLOAD PUSH1 0x20 DUP2 ADD SWAP1 SWAP2 MSTORE PUSH1 0x0 DUP2 MSTORE PUSH2 0xB7A JUMP JUMPDEST PUSH18 0xFFFFFFFFFFFFFFFFFFFFFFFFFFFFFFFFFFFF DUP4 GT PUSH2 0x23AC JUMPI PUSH1 0x0 DUP3 PUSH1 0x70 DUP6 SWAP1 SHL DUP2 PUSH2 0x232D JUMPI INVALID JUMPDEST DIV SWAP1 POP PUSH1 0x1 PUSH1 0x1 PUSH1 0xE0 SHL SUB DUP2 GT ISZERO PUSH2 0x238C JUMPI PUSH1 0x40 DUP1 MLOAD PUSH3 0x461BCD PUSH1 0xE5 SHL DUP2 MSTORE PUSH1 0x20 PUSH1 0x4 DUP3 ADD MSTORE PUSH1 0x1E PUSH1 0x24 DUP3 ADD MSTORE PUSH32 0x4669786564506F696E743A3A6672616374696F6E3A206F766572666C6F770000 PUSH1 0x44 DUP3 ADD MSTORE SWAP1 MLOAD SWAP1 DUP2 SWAP1 SUB PUSH1 0x64 ADD SWAP1 REVERT JUMPDEST PUSH1 0x40 MLOAD DUP1 PUSH1 0x20 ADD PUSH1 0x40 MSTORE DUP1 DUP3 PUSH1 0x1 PUSH1 0x1 PUSH1 0xE0 SHL SUB AND DUP2 MSTORE POP SWAP2 POP POP PUSH2 0xB7A JUMP JUMPDEST PUSH1 0x0 PUSH2 0x23C8 DUP5 PUSH15 0x10000000000000000000000000000 DUP6 PUSH2 0x2850 JUMP JUMPDEST SWAP1 POP PUSH1 0x1 PUSH1 0x1 PUSH1 0xE0 SHL SUB DUP2 GT ISZERO PUSH2 0x238C JUMPI PUSH1 0x40 DUP1 MLOAD PUSH3 0x461BCD PUSH1 0xE5 SHL DUP2 MSTORE PUSH1 0x20 PUSH1 0x4 DUP3 ADD MSTORE PUSH1 0x1E PUSH1 0x24 DUP3 ADD MSTORE PUSH32 0x4669786564506F696E743A3A6672616374696F6E3A206F766572666C6F770000 PUSH1 0x44 DUP3 ADD MSTORE SWAP1 MLOAD SWAP1 DUP2 SWAP1 SUB PUSH1 0x64 ADD SWAP1 REVERT JUMPDEST MLOAD PUSH7 0x12725DD1D243AB PUSH1 0x1 PUSH1 0x1 PUSH1 0xE0 SHL SUB SWAP1 SWAP2 AND DIV SWAP1 JUMP JUMPDEST PUSH2 0x2449 PUSH2 0xE6D PUSH2 0x1E0F JUMP JUMPDEST PUSH1 0xF SSTORE PUSH1 0x10 DUP1 SLOAD PUSH4 0xFFFFFFFF NOT AND TIMESTAMP PUSH4 0xFFFFFFFF AND OR SWAP1 SSTORE JUMP JUMPDEST PUSH1 0x0 PUSH2 0x247F PUSH3 0x989680 PUSH2 0x670 PUSH4 0x3B9ACA00 PUSH2 0x1D58 PUSH2 0x1D4F PUSH2 0x1A3B JUMP JUMPDEST PUSH1 0x5 SLOAD SWAP1 SWAP2 POP DUP2 LT ISZERO PUSH2 0x2495 JUMPI POP PUSH1 0x5 SLOAD PUSH2 0x68D JUMP JUMPDEST PUSH1 0x5 SLOAD ISZERO PUSH2 0x68D JUMPI PUSH1 0x0 PUSH1 0x5 SSTORE SWAP1 JUMP JUMPDEST PUSH1 0x40 DUP1 MLOAD PUSH1 0x1 PUSH1 0x1 PUSH1 0xA0 SHL SUB DUP1 DUP7 AND PUSH1 0x24 DUP4 ADD MSTORE DUP5 AND PUSH1 0x44 DUP3 ADD MSTORE PUSH1 0x64 DUP1 DUP3 ADD DUP5 SWAP1 MSTORE DUP3 MLOAD DUP1 DUP4 SUB SWAP1 SWAP2 ADD DUP2 MSTORE PUSH1 0x84 SWAP1 SWAP2 ADD SWAP1 SWAP2 MSTORE PUSH1 0x20 DUP2 ADD DUP1 MLOAD PUSH1 0x1 PUSH1 0x1 PUSH1 0xE0 SHL SUB AND PUSH32 0x23B872DD00000000000000000000000000000000000000000000000000000000 OR SWAP1 MSTORE PUSH2 0x2518 SWAP1 DUP6 SWAP1 PUSH2 0x28F0 JUMP JUMPDEST POP POP POP POP JUMP JUMPDEST PUSH1 0x40 DUP1 MLOAD PUSH1 0x1 PUSH1 0x1 PUSH1 0xA0 SHL SUB DUP5 AND PUSH1 0x24 DUP3 ADD MSTORE PUSH1 0x44 DUP1 DUP3 ADD DUP5 SWAP1 MSTORE DUP3 MLOAD DUP1 DUP4 SUB SWAP1 SWAP2 ADD DUP2 MSTORE PUSH1 0x64 SWAP1 SWAP2 ADD SWAP1 SWAP2 MSTORE PUSH1 0x20 DUP2 ADD DUP1 MLOAD PUSH1 0x1 PUSH1 0x1 PUSH1 0xE0 SHL SUB AND PUSH32 0xA9059CBB00000000000000000000000000000000000000000000000000000000 OR SWAP1 MSTORE PUSH2 0x2589 SWAP1 DUP5 SWAP1 PUSH2 0x28F0 JUMP JUMPDEST POP POP POP JUMP JUMPDEST PUSH1 0x0 DUP3 DUP3 ADD DUP4 DUP2 LT ISZERO PUSH2 0x1ED3 JUMPI PUSH1 0x40 DUP1 MLOAD PUSH3 0x461BCD PUSH1 0xE5 SHL DUP2 MSTORE PUSH1 0x20 PUSH1 0x4 DUP3 ADD MSTORE PUSH1 0x1B PUSH1 0x24 DUP3 ADD MSTORE PUSH32 0x536166654D6174683A206164646974696F6E206F766572666C6F770000000000 PUSH1 0x44 DUP3 ADD MSTORE SWAP1 MLOAD SWAP1 DUP2 SWAP1 SUB PUSH1 0x64 ADD SWAP1 REVERT JUMPDEST PUSH1 0xD SLOAD PUSH1 0x0 SWAP1 PUSH2 0x260B SWAP1 PUSH4 0xFFFFFFFF PUSH5 0x100000000 DUP3 DIV DUP2 AND SWAP2 DUP2 AND SWAP1 PUSH2 0x258E AND JUMP JUMPDEST PUSH1 0xB SLOAD SWAP1 SWAP2 POP ISZERO DUP1 ISZERO SWAP1 PUSH2 0x261F JUMPI POP DUP1 TIMESTAMP LT ISZERO JUMPDEST ISZERO PUSH2 0x26F2 JUMPI PUSH1 0x4 SLOAD PUSH1 0xA SLOAD PUSH1 0xFF AND ISZERO PUSH2 0x2659 JUMPI PUSH1 0xB SLOAD PUSH1 0x4 SLOAD PUSH2 0x2641 SWAP2 PUSH2 0x258E JUMP JUMPDEST PUSH1 0x4 DUP2 SWAP1 SSTORE PUSH1 0xC SLOAD GT PUSH2 0x2654 JUMPI PUSH1 0x0 PUSH1 0xB SSTORE JUMPDEST PUSH2 0x267B JUMP JUMPDEST PUSH1 0xB SLOAD PUSH1 0x4 SLOAD PUSH2 0x2668 SWAP2 PUSH2 0x2220 JUMP JUMPDEST PUSH1 0x4 DUP2 SWAP1 SSTORE PUSH1 0xC SLOAD LT PUSH2 0x267B JUMPI PUSH1 0x0 PUSH1 0xB SSTORE JUMPDEST PUSH1 0xD DUP1 SLOAD PUSH8 0xFFFFFFFF00000000 NOT AND PUSH5 0x100000000 TIMESTAMP PUSH4 0xFFFFFFFF AND MUL OR SWAP1 SSTORE PUSH1 0x4 SLOAD PUSH1 0xB SLOAD PUSH1 0xA SLOAD PUSH1 0x40 DUP1 MLOAD DUP6 DUP2 MSTORE PUSH1 0x20 DUP2 ADD SWAP5 SWAP1 SWAP5 MSTORE DUP4 DUP2 ADD SWAP3 SWAP1 SWAP3 MSTORE PUSH1 0xFF AND ISZERO ISZERO PUSH1 0x60 DUP4 ADD MSTORE MLOAD PUSH32 0xB923E581A0F83128E9E1D8297AA52B18D6744310476E0B54509C054CD7A93B2A SWAP2 PUSH1 0x80 SWAP1 DUP3 SWAP1 SUB ADD SWAP1 LOG1 POP JUMPDEST POP JUMP JUMPDEST PUSH1 0x0 DUP2 DUP4 PUSH2 0x2781 JUMPI PUSH1 0x40 MLOAD PUSH3 0x461BCD PUSH1 0xE5 SHL DUP2 MSTORE PUSH1 0x4 ADD DUP1 DUP1 PUSH1 0x20 ADD DUP3 DUP2 SUB DUP3 MSTORE DUP4 DUP2 DUP2 MLOAD DUP2 MSTORE PUSH1 0x20 ADD SWAP2 POP DUP1 MLOAD SWAP1 PUSH1 0x20 ADD SWAP1 DUP1 DUP4 DUP4 PUSH1 0x0 JUMPDEST DUP4 DUP2 LT ISZERO PUSH2 0x2746 JUMPI DUP2 DUP2 ADD MLOAD DUP4 DUP3 ADD MSTORE PUSH1 0x20 ADD PUSH2 0x272E JUMP JUMPDEST POP POP POP POP SWAP1 POP SWAP1 DUP2 ADD SWAP1 PUSH1 0x1F AND DUP1 ISZERO PUSH2 0x2773 JUMPI DUP1 DUP3 SUB DUP1 MLOAD PUSH1 0x1 DUP4 PUSH1 0x20 SUB PUSH2 0x100 EXP SUB NOT AND DUP2 MSTORE PUSH1 0x20 ADD SWAP2 POP JUMPDEST POP SWAP3 POP POP POP PUSH1 0x40 MLOAD DUP1 SWAP2 SUB SWAP1 REVERT JUMPDEST POP PUSH1 0x0 DUP4 DUP6 DUP2 PUSH2 0x278D JUMPI INVALID JUMPDEST DIV SWAP6 SWAP5 POP POP POP POP POP JUMP JUMPDEST PUSH1 0x0 DUP2 DUP5 DUP5 GT ISZERO PUSH2 0x27E9 JUMPI PUSH1 0x40 MLOAD PUSH3 0x461BCD PUSH1 0xE5 SHL DUP2 MSTORE PUSH1 0x20 PUSH1 0x4 DUP3 ADD DUP2 DUP2 MSTORE DUP4 MLOAD PUSH1 0x24 DUP5 ADD MSTORE DUP4 MLOAD SWAP1 SWAP3 DUP4 SWAP3 PUSH1 0x44 SWAP1 SWAP2 ADD SWAP2 SWAP1 DUP6 ADD SWAP1 DUP1 DUP4 DUP4 PUSH1 0x0 DUP4 ISZERO PUSH2 0x2746 JUMPI DUP2 DUP2 ADD MLOAD DUP4 DUP3 ADD MSTORE PUSH1 0x20 ADD PUSH2 0x272E JUMP JUMPDEST POP POP POP SWAP1 SUB SWAP1 JUMP JUMPDEST PUSH1 0x0 DUP4 PUSH4 0xFFFFFFFF AND DUP4 PUSH4 0xFFFFFFFF AND GT ISZERO DUP3 SWAP1 PUSH2 0x27E9 JUMPI PUSH1 0x40 MLOAD PUSH3 0x461BCD PUSH1 0xE5 SHL DUP2 MSTORE PUSH1 0x20 PUSH1 0x4 DUP3 ADD DUP2 DUP2 MSTORE DUP4 MLOAD PUSH1 0x24 DUP5 ADD MSTORE DUP4 MLOAD SWAP1 SWAP3 DUP4 SWAP3 PUSH1 0x44 SWAP1 SWAP2 ADD SWAP2 SWAP1 DUP6 ADD SWAP1 DUP1 DUP4 DUP4 PUSH1 0x0 DUP4 ISZERO PUSH2 0x2746 JUMPI DUP2 DUP2 ADD MLOAD DUP4 DUP3 ADD MSTORE PUSH1 0x20 ADD PUSH2 0x272E JUMP JUMPDEST PUSH1 0x0 DUP1 PUSH1 0x0 PUSH2 0x285F DUP7 DUP7 PUSH2 0x29A1 JUMP JUMPDEST SWAP2 POP SWAP2 POP PUSH1 0x0 DUP5 DUP1 PUSH2 0x286D JUMPI INVALID JUMPDEST DUP7 DUP9 MULMOD SWAP1 POP DUP3 DUP2 GT ISZERO PUSH2 0x2881 JUMPI PUSH1 0x1 DUP3 SUB SWAP2 POP JUMPDEST DUP1 DUP4 SUB SWAP3 POP DUP5 DUP3 LT PUSH2 0x28DA JUMPI PUSH1 0x40 DUP1 MLOAD PUSH3 0x461BCD PUSH1 0xE5 SHL DUP2 MSTORE PUSH1 0x20 PUSH1 0x4 DUP3 ADD MSTORE PUSH1 0x1A PUSH1 0x24 DUP3 ADD MSTORE PUSH32 0x46756C6C4D6174683A3A6D756C4469763A206F766572666C6F77000000000000 PUSH1 0x44 DUP3 ADD MSTORE SWAP1 MLOAD SWAP1 DUP2 SWAP1 SUB PUSH1 0x64 ADD SWAP1 REVERT JUMPDEST PUSH2 0x28E5 DUP4 DUP4 DUP8 PUSH2 0x29CE JUMP JUMPDEST SWAP8 SWAP7 POP POP POP POP POP POP POP JUMP JUMPDEST PUSH1 0x60 PUSH2 0x2945 DUP3 PUSH1 0x40 MLOAD DUP1 PUSH1 0x40 ADD PUSH1 0x40 MSTORE DUP1 PUSH1 0x20 DUP2 MSTORE PUSH1 0x20 ADD PUSH32 0x5361666545524332303A206C6F772D6C6576656C2063616C6C206661696C6564 DUP2 MSTORE POP DUP6 PUSH1 0x1 PUSH1 0x1 PUSH1 0xA0 SHL SUB AND PUSH2 0x2A3E SWAP1 SWAP3 SWAP2 SWAP1 PUSH4 0xFFFFFFFF AND JUMP JUMPDEST DUP1 MLOAD SWAP1 SWAP2 POP ISZERO PUSH2 0x2589 JUMPI DUP1 DUP1 PUSH1 0x20 ADD SWAP1 MLOAD PUSH1 0x20 DUP2 LT ISZERO PUSH2 0x2964 JUMPI PUSH1 0x0 DUP1 REVERT JUMPDEST POP MLOAD PUSH2 0x2589 JUMPI PUSH1 0x40 MLOAD PUSH3 0x461BCD PUSH1 0xE5 SHL DUP2 MSTORE PUSH1 0x4 ADD DUP1 DUP1 PUSH1 0x20 ADD DUP3 DUP2 SUB DUP3 MSTORE PUSH1 0x2A DUP2 MSTORE PUSH1 0x20 ADD DUP1 PUSH2 0x2CE5 PUSH1 0x2A SWAP2 CODECOPY PUSH1 0x40 ADD SWAP2 POP POP PUSH1 0x40 MLOAD DUP1 SWAP2 SUB SWAP1 REVERT JUMPDEST PUSH1 0x0 DUP1 DUP1 PUSH1 0x0 NOT DUP5 DUP7 MULMOD SWAP1 POP DUP4 DUP6 MUL SWAP3 POP DUP3 DUP2 SUB SWAP2 POP DUP3 DUP2 LT ISZERO PUSH2 0x29C6 JUMPI PUSH1 0x1 DUP3 SUB SWAP2 POP JUMPDEST POP SWAP3 POP SWAP3 SWAP1 POP JUMP JUMPDEST PUSH1 0x0 DUP2 DUP2 SUB DUP3 AND DUP1 DUP4 DUP2 PUSH2 0x29DE JUMPI INVALID JUMPDEST DIV SWAP3 POP DUP1 DUP6 DUP2 PUSH2 0x29EA JUMPI INVALID JUMPDEST DIV SWAP5 POP DUP1 DUP2 PUSH1 0x0 SUB DUP2 PUSH2 0x29F9 JUMPI INVALID JUMPDEST PUSH1 0x2 DUP6 DUP2 SUB DUP1 DUP8 MUL DUP3 SUB MUL DUP1 DUP8 MUL DUP3 SUB MUL DUP1 DUP8 MUL DUP3 SUB MUL DUP1 DUP8 MUL DUP3 SUB MUL DUP1 DUP8 MUL DUP3 SUB MUL DUP1 DUP8 MUL DUP3 SUB MUL SWAP6 DUP7 MUL SWAP1 SUB SWAP1 SWAP5 MUL SWAP4 DIV PUSH1 0x1 ADD SWAP4 SWAP1 SWAP4 MUL SWAP4 SWAP1 SWAP4 ADD MUL SWAP3 SWAP2 POP POP JUMP JUMPDEST PUSH1 0x60 PUSH2 0x2A4D DUP5 DUP5 PUSH1 0x0 DUP6 PUSH2 0x2A55 JUMP JUMPDEST SWAP5 SWAP4 POP POP POP POP JUMP JUMPDEST PUSH1 0x60 PUSH2 0x2A60 DUP6 PUSH2 0x2BC2 JUMP JUMPDEST PUSH2 0x2AB1 JUMPI PUSH1 0x40 DUP1 MLOAD PUSH3 0x461BCD PUSH1 0xE5 SHL DUP2 MSTORE PUSH1 0x20 PUSH1 0x4 DUP3 ADD MSTORE PUSH1 0x1D PUSH1 0x24 DUP3 ADD MSTORE PUSH32 0x416464726573733A2063616C6C20746F206E6F6E2D636F6E7472616374000000 PUSH1 0x44 DUP3 ADD MSTORE SWAP1 MLOAD SWAP1 DUP2 SWAP1 SUB PUSH1 0x64 ADD SWAP1 REVERT JUMPDEST PUSH1 0x0 PUSH1 0x60 DUP7 PUSH1 0x1 PUSH1 0x1 PUSH1 0xA0 SHL SUB AND DUP6 DUP8 PUSH1 0x40 MLOAD DUP1 DUP3 DUP1 MLOAD SWAP1 PUSH1 0x20 ADD SWAP1 DUP1 DUP4 DUP4 JUMPDEST PUSH1 0x20 DUP4 LT PUSH2 0x2AF0 JUMPI DUP1 MLOAD DUP3 MSTORE PUSH1 0x1F NOT SWAP1 SWAP3 ADD SWAP2 PUSH1 0x20 SWAP2 DUP3 ADD SWAP2 ADD PUSH2 0x2AD1 JUMP JUMPDEST PUSH1 0x1 DUP4 PUSH1 0x20 SUB PUSH2 0x100 EXP SUB DUP1 NOT DUP3 MLOAD AND DUP2 DUP5 MLOAD AND DUP1 DUP3 OR DUP6 MSTORE POP POP POP POP POP POP SWAP1 POP ADD SWAP2 POP POP PUSH1 0x0 PUSH1 0x40 MLOAD DUP1 DUP4 SUB DUP2 DUP6 DUP8 GAS CALL SWAP3 POP POP POP RETURNDATASIZE DUP1 PUSH1 0x0 DUP2 EQ PUSH2 0x2B52 JUMPI PUSH1 0x40 MLOAD SWAP2 POP PUSH1 0x1F NOT PUSH1 0x3F RETURNDATASIZE ADD AND DUP3 ADD PUSH1 0x40 MSTORE RETURNDATASIZE DUP3 MSTORE RETURNDATASIZE PUSH1 0x0 PUSH1 0x20 DUP5 ADD RETURNDATACOPY PUSH2 0x2B57 JUMP JUMPDEST PUSH1 0x60 SWAP2 POP JUMPDEST POP SWAP2 POP SWAP2 POP DUP2 ISZERO PUSH2 0x2B6B JUMPI SWAP2 POP PUSH2 0x2A4D SWAP1 POP JUMP JUMPDEST DUP1 MLOAD ISZERO PUSH2 0x2B7B JUMPI DUP1 MLOAD DUP1 DUP3 PUSH1 0x20 ADD REVERT JUMPDEST PUSH1 0x40 MLOAD PUSH3 0x461BCD PUSH1 0xE5 SHL DUP2 MSTORE PUSH1 0x20 PUSH1 0x4 DUP3 ADD DUP2 DUP2 MSTORE DUP7 MLOAD PUSH1 0x24 DUP5 ADD MSTORE DUP7 MLOAD DUP8 SWAP4 SWAP2 SWAP3 DUP4 SWAP3 PUSH1 0x44 ADD SWAP2 SWAP1 DUP6 ADD SWAP1 DUP1 DUP4 DUP4 PUSH1 0x0 DUP4 ISZERO PUSH2 0x2746 JUMPI DUP2 DUP2 ADD MLOAD DUP4 DUP3 ADD MSTORE PUSH1 0x20 ADD PUSH2 0x272E JUMP JUMPDEST EXTCODESIZE ISZERO ISZERO SWAP1 JUMP JUMPDEST PUSH1 0x40 MLOAD DUP1 PUSH1 0x80 ADD PUSH1 0x40 MSTORE DUP1 PUSH1 0x0 DUP2 MSTORE PUSH1 0x20 ADD PUSH1 0x0 DUP2 MSTORE PUSH1 0x20 ADD PUSH1 0x0 PUSH4 0xFFFFFFFF AND DUP2 MSTORE PUSH1 0x20 ADD PUSH1 0x0 PUSH4 0xFFFFFFFF AND DUP2 MSTORE POP SWAP1 JUMP JUMPDEST PUSH1 0x40 DUP1 MLOAD PUSH1 0x20 DUP2 ADD SWAP1 SWAP2 MSTORE PUSH1 0x0 DUP2 MSTORE SWAP1 JUMP INVALID 0x4F PUSH24 0x6E61626C653A206E6577206F776E65722069732074686520 PUSH27 0x65726F20616464726573734F776E61626C653A206D757374206265 KECCAK256 PUSH15 0x6577206F776E657220746F2070756C PUSH13 0x4669786564506F696E743A3A66 PUSH19 0x616374696F6E3A206469766973696F6E206279 KECCAK256 PUSH27 0x65726F536166654D6174683A206D756C7469706C69636174696F6E KECCAK256 PUSH16 0x766572666C6F77536C69707061676520 PUSH13 0x696D69743A206D6F7265207468 PUSH2 0x6E20 PUSH14 0x617820707269636556657374696E PUSH8 0x206D757374206265 KECCAK256 PUSH13 0x6F6E676572207468616E203336 KECCAK256 PUSH9 0x6F7572735361666545 MSTORE NUMBER ORIGIN ADDRESS GASPRICE KECCAK256 GASLIMIT MSTORE NUMBER ORIGIN ADDRESS KECCAK256 PUSH16 0x7065726174696F6E20646964206E6F74 KECCAK256 PUSH20 0x756363656564A2646970667358221220C9606F4C DUP16 0xD 0xD3 0xE8 SWAP3 SWAP8 0xAF 0xAE SWAP3 PUSH32 0x6C090A15D5AACEABFB74F24787B3A0FFB23E64736F6C63430007050033000000 "
				},
				"gasEstimates": {
					"creation": {
						"codeDepositCost": "2317600",
						"executionCost": "infinite",
						"totalCost": "infinite"
					},
					"external": {
						"Bash()": "infinite",
						"DAO()": "infinite",
						"adjustment()": "3596",
						"bondCalculator()": "infinite",
						"bondInfo(address)": "2944",
						"bondPrice()": "infinite",
						"bondPriceInUSD()": "infinite",
						"currentDebt()": "infinite",
						"debtDecay()": "infinite",
						"debtRatio()": "infinite",
						"deposit(uint256,uint256,address)": "infinite",
						"initializeBondTerms(uint256,uint256,uint256,uint256,uint256,uint256,uint32)": "163865",
						"isLiquidityBond()": "infinite",
						"lastDecay()": "1101",
						"maxPayout()": "infinite",
						"payoutFor(uint256)": "infinite",
						"pendingPayoutFor(address)": "infinite",
						"percentVestedFor(address)": "infinite",
						"policy()": "1129",
						"principle()": "infinite",
						"pullManagement()": "infinite",
						"pushManagement(address)": "infinite",
						"recoverLostToken(address)": "infinite",
						"redeem(address,bool)": "infinite",
						"renounceManagement()": "24278",
						"setAdjustment(bool,uint256,uint256,uint32)": "83013",
						"setBondTerms(uint8,uint256)": "infinite",
						"setStaking(address,bool)": "42875",
						"staking()": "1127",
						"stakingHelper()": "1126",
						"standardizedDebtRatio()": "infinite",
						"terms()": "5216",
						"totalDebt()": "1108",
						"treasury()": "infinite",
						"useHelper()": "1117"
					},
					"internal": {
						"_bondPrice()": "infinite",
						"adjust()": "infinite",
						"decayDebt()": "infinite",
						"stakeOrSend(address,bool,uint256)": "infinite"
					}
				},
				"methodIdentifiers": {
					"Bash()": "3c4e6da7",
					"DAO()": "98fabd3a",
					"adjustment()": "451ee4a1",
					"bondCalculator()": "c5332b7c",
					"bondInfo(address)": "cd1234b3",
					"bondPrice()": "d7ccfb0b",
					"bondPriceInUSD()": "844b5c7c",
					"currentDebt()": "759076e5",
					"debtDecay()": "e392a262",
					"debtRatio()": "cea55f57",
					"deposit(uint256,uint256,address)": "8dbdbe6d",
					"initializeBondTerms(uint256,uint256,uint256,uint256,uint256,uint256,uint32)": "cf37a891",
					"isLiquidityBond()": "d7969060",
					"lastDecay()": "f5c2ab5b",
					"maxPayout()": "e0176de8",
					"payoutFor(uint256)": "7927ebf8",
					"pendingPayoutFor(address)": "01b88ee8",
					"percentVestedFor(address)": "507930ec",
					"policy()": "0505c8c9",
					"principle()": "016a4284",
					"pullManagement()": "5a96ac0a",
					"pushManagement(address)": "46f68ee9",
					"recoverLostToken(address)": "b4abccba",
					"redeem(address,bool)": "1feed31f",
					"renounceManagement()": "089208d8",
					"setAdjustment(bool,uint256,uint256,uint32)": "ae9832cf",
					"setBondTerms(uint8,uint256)": "1e321a0f",
					"setStaking(address,bool)": "d4d863ce",
					"staking()": "4cf088d9",
					"stakingHelper()": "77b81895",
					"standardizedDebtRatio()": "904b3ece",
					"terms()": "d5025625",
					"totalDebt()": "fc7b9c18",
					"treasury()": "61d027b3",
					"useHelper()": "2f3f470a"
				}
			},
			"storageLayout": {
				"storage": [
					{
						"astId": 24,
						"contract": "daibond/BondDepository.sol:ExodBondDepository",
						"label": "_owner",
						"offset": 0,
						"slot": "0",
						"type": "t_address"
					},
					{
						"astId": 26,
						"contract": "daibond/BondDepository.sol:ExodBondDepository",
						"label": "_newOwner",
						"offset": 0,
						"slot": "1",
						"type": "t_address"
					},
					{
						"astId": 2304,
						"contract": "daibond/BondDepository.sol:ExodBondDepository",
						"label": "staking",
						"offset": 0,
						"slot": "2",
						"type": "t_address"
					},
					{
						"astId": 2306,
						"contract": "daibond/BondDepository.sol:ExodBondDepository",
						"label": "stakingHelper",
						"offset": 0,
						"slot": "3",
						"type": "t_address"
					},
					{
						"astId": 2308,
						"contract": "daibond/BondDepository.sol:ExodBondDepository",
						"label": "useHelper",
						"offset": 20,
						"slot": "3",
						"type": "t_bool"
					},
					{
						"astId": 2310,
						"contract": "daibond/BondDepository.sol:ExodBondDepository",
						"label": "terms",
						"offset": 0,
						"slot": "4",
						"type": "t_struct(Terms)2333_storage"
					},
					{
						"astId": 2312,
						"contract": "daibond/BondDepository.sol:ExodBondDepository",
						"label": "adjustment",
						"offset": 0,
						"slot": "10",
						"type": "t_struct(Adjust)2353_storage"
					},
					{
						"astId": 2316,
						"contract": "daibond/BondDepository.sol:ExodBondDepository",
						"label": "bondInfo",
						"offset": 0,
						"slot": "14",
						"type": "t_mapping(t_address,t_struct(Bond)2342_storage)"
					},
					{
						"astId": 2318,
						"contract": "daibond/BondDepository.sol:ExodBondDepository",
						"label": "totalDebt",
						"offset": 0,
						"slot": "15",
						"type": "t_uint256"
					},
					{
						"astId": 2320,
						"contract": "daibond/BondDepository.sol:ExodBondDepository",
						"label": "lastDecay",
						"offset": 0,
						"slot": "16",
						"type": "t_uint32"
					}
				],
				"types": {
					"t_address": {
						"encoding": "inplace",
						"label": "address",
						"numberOfBytes": "20"
					},
					"t_bool": {
						"encoding": "inplace",
						"label": "bool",
						"numberOfBytes": "1"
					},
					"t_mapping(t_address,t_struct(Bond)2342_storage)": {
						"encoding": "mapping",
						"key": "t_address",
						"label": "mapping(address => struct ExodBondDepository.Bond)",
						"numberOfBytes": "32",
						"value": "t_struct(Bond)2342_storage"
					},
					"t_struct(Adjust)2353_storage": {
						"encoding": "inplace",
						"label": "struct ExodBondDepository.Adjust",
						"members": [
							{
								"astId": 2344,
								"contract": "daibond/BondDepository.sol:ExodBondDepository",
								"label": "add",
								"offset": 0,
								"slot": "0",
								"type": "t_bool"
							},
							{
								"astId": 2346,
								"contract": "daibond/BondDepository.sol:ExodBondDepository",
								"label": "rate",
								"offset": 0,
								"slot": "1",
								"type": "t_uint256"
							},
							{
								"astId": 2348,
								"contract": "daibond/BondDepository.sol:ExodBondDepository",
								"label": "target",
								"offset": 0,
								"slot": "2",
								"type": "t_uint256"
							},
							{
								"astId": 2350,
								"contract": "daibond/BondDepository.sol:ExodBondDepository",
								"label": "buffer",
								"offset": 0,
								"slot": "3",
								"type": "t_uint32"
							},
							{
								"astId": 2352,
								"contract": "daibond/BondDepository.sol:ExodBondDepository",
								"label": "lastTime",
								"offset": 4,
								"slot": "3",
								"type": "t_uint32"
							}
						],
						"numberOfBytes": "128"
					},
					"t_struct(Bond)2342_storage": {
						"encoding": "inplace",
						"label": "struct ExodBondDepository.Bond",
						"members": [
							{
								"astId": 2335,
								"contract": "daibond/BondDepository.sol:ExodBondDepository",
								"label": "payout",
								"offset": 0,
								"slot": "0",
								"type": "t_uint256"
							},
							{
								"astId": 2337,
								"contract": "daibond/BondDepository.sol:ExodBondDepository",
								"label": "pricePaid",
								"offset": 0,
								"slot": "1",
								"type": "t_uint256"
							},
							{
								"astId": 2339,
								"contract": "daibond/BondDepository.sol:ExodBondDepository",
								"label": "lastTime",
								"offset": 0,
								"slot": "2",
								"type": "t_uint32"
							},
							{
								"astId": 2341,
								"contract": "daibond/BondDepository.sol:ExodBondDepository",
								"label": "vesting",
								"offset": 4,
								"slot": "2",
								"type": "t_uint32"
							}
						],
						"numberOfBytes": "96"
					},
					"t_struct(Terms)2333_storage": {
						"encoding": "inplace",
						"label": "struct ExodBondDepository.Terms",
						"members": [
							{
								"astId": 2322,
								"contract": "daibond/BondDepository.sol:ExodBondDepository",
								"label": "controlVariable",
								"offset": 0,
								"slot": "0",
								"type": "t_uint256"
							},
							{
								"astId": 2324,
								"contract": "daibond/BondDepository.sol:ExodBondDepository",
								"label": "minimumPrice",
								"offset": 0,
								"slot": "1",
								"type": "t_uint256"
							},
							{
								"astId": 2326,
								"contract": "daibond/BondDepository.sol:ExodBondDepository",
								"label": "maxPayout",
								"offset": 0,
								"slot": "2",
								"type": "t_uint256"
							},
							{
								"astId": 2328,
								"contract": "daibond/BondDepository.sol:ExodBondDepository",
								"label": "fee",
								"offset": 0,
								"slot": "3",
								"type": "t_uint256"
							},
							{
								"astId": 2330,
								"contract": "daibond/BondDepository.sol:ExodBondDepository",
								"label": "maxDebt",
								"offset": 0,
								"slot": "4",
								"type": "t_uint256"
							},
							{
								"astId": 2332,
								"contract": "daibond/BondDepository.sol:ExodBondDepository",
								"label": "vestingTerm",
								"offset": 0,
								"slot": "5",
								"type": "t_uint32"
							}
						],
						"numberOfBytes": "192"
					},
					"t_uint256": {
						"encoding": "inplace",
						"label": "uint256",
						"numberOfBytes": "32"
					},
					"t_uint32": {
						"encoding": "inplace",
						"label": "uint32",
						"numberOfBytes": "4"
					}
				}
			},
			"userdoc": {
				"kind": "user",
				"methods": {
					"bondPrice()": {
						"notice": "calculate current bond premium"
					},
					"bondPriceInUSD()": {
						"notice": "converts bond price to DAI value"
					},
					"currentDebt()": {
						"notice": "calculate debt factoring in decay"
					},
					"debtDecay()": {
						"notice": "amount to decay total debt by"
					},
					"debtRatio()": {
						"notice": "calculate current ratio of debt to BASH supply"
					},
					"deposit(uint256,uint256,address)": {
						"notice": "deposit bond"
					},
					"initializeBondTerms(uint256,uint256,uint256,uint256,uint256,uint256,uint32)": {
						"notice": "initializes bond parameters"
					},
					"maxPayout()": {
						"notice": "determine maximum bond size"
					},
					"payoutFor(uint256)": {
						"notice": "calculate interest due for new bond"
					},
					"pendingPayoutFor(address)": {
						"notice": "calculate amount of OHM available for claim by depositor"
					},
					"percentVestedFor(address)": {
						"notice": "calculate how far into vesting a depositor is"
					},
					"recoverLostToken(address)": {
						"notice": "allow anyone to send lost tokens (excluding principle or OHM) to the DAO"
					},
					"redeem(address,bool)": {
						"notice": "redeem bond for user"
					},
					"setAdjustment(bool,uint256,uint256,uint32)": {
						"notice": "set control variable adjustment"
					},
					"setBondTerms(uint8,uint256)": {
						"notice": "set parameters for new bonds"
					},
					"setStaking(address,bool)": {
						"notice": "set contract for auto stake"
					},
					"standardizedDebtRatio()": {
						"notice": "debt ratio in same terms for reserve or liquidity bonds"
					}
				},
				"version": 1
			}
		}
	}
}