{
	"ExodusStaking/Staking.sol": {
		"ExodusStaking": {
			"abi": [
				{
					"inputs": [
						{
							"internalType": "address",
							"name": "_exo",
							"type": "address"
						},
						{
							"internalType": "address",
							"name": "_sEXO",
							"type": "address"
						},
						{
							"internalType": "address",
							"name": "_gEXO",
							"type": "address"
						},
						{
							"internalType": "uint256",
							"name": "_epochLength",
							"type": "uint256"
						},
						{
							"internalType": "uint256",
							"name": "_firstEpochNumber",
							"type": "uint256"
						},
						{
							"internalType": "uint256",
							"name": "_firstEpochTime",
							"type": "uint256"
						},
						{
							"internalType": "address",
							"name": "_authority",
							"type": "address"
						}
					],
					"stateMutability": "nonpayable",
					"type": "constructor"
				},
				{
					"anonymous": false,
					"inputs": [
						{
							"indexed": true,
							"internalType": "contract IExodusAuthority",
							"name": "authority",
							"type": "address"
						}
					],
					"name": "AuthorityUpdated",
					"type": "event"
				},
				{
					"anonymous": false,
					"inputs": [
						{
							"indexed": false,
							"internalType": "address",
							"name": "distributor",
							"type": "address"
						}
					],
					"name": "DistributorSet",
					"type": "event"
				},
				{
					"anonymous": false,
					"inputs": [
						{
							"indexed": false,
							"internalType": "uint256",
							"name": "warmup",
							"type": "uint256"
						}
					],
					"name": "WarmupSet",
					"type": "event"
				},
				{
					"inputs": [],
					"name": "EXO",
					"outputs": [
						{
							"internalType": "contract IERC20",
							"name": "",
							"type": "address"
						}
					],
					"stateMutability": "view",
					"type": "function"
				},
				{
					"inputs": [],
					"name": "authority",
					"outputs": [
						{
							"internalType": "contract IExodusAuthority",
							"name": "",
							"type": "address"
						}
					],
					"stateMutability": "view",
					"type": "function"
				},
				{
					"inputs": [
						{
							"internalType": "address",
							"name": "_to",
							"type": "address"
						},
						{
							"internalType": "bool",
							"name": "_rebasing",
							"type": "bool"
						}
					],
					"name": "claim",
					"outputs": [
						{
							"internalType": "uint256",
							"name": "",
							"type": "uint256"
						}
					],
					"stateMutability": "nonpayable",
					"type": "function"
				},
				{
					"inputs": [],
					"name": "distributor",
					"outputs": [
						{
							"internalType": "contract IDistributor",
							"name": "",
							"type": "address"
						}
					],
					"stateMutability": "view",
					"type": "function"
				},
				{
					"inputs": [],
					"name": "epoch",
					"outputs": [
						{
							"internalType": "uint256",
							"name": "length",
							"type": "uint256"
						},
						{
							"internalType": "uint256",
							"name": "number",
							"type": "uint256"
						},
						{
							"internalType": "uint256",
							"name": "end",
							"type": "uint256"
						},
						{
							"internalType": "uint256",
							"name": "distribute",
							"type": "uint256"
						}
					],
					"stateMutability": "view",
					"type": "function"
				},
				{
					"inputs": [],
					"name": "forfeit",
					"outputs": [
						{
							"internalType": "uint256",
							"name": "",
							"type": "uint256"
						}
					],
					"stateMutability": "nonpayable",
					"type": "function"
				},
				{
					"inputs": [],
					"name": "gEXO",
					"outputs": [
						{
							"internalType": "contract IgEXO",
							"name": "",
							"type": "address"
						}
					],
					"stateMutability": "view",
					"type": "function"
				},
				{
					"inputs": [],
					"name": "index",
					"outputs": [
						{
							"internalType": "uint256",
							"name": "",
							"type": "uint256"
						}
					],
					"stateMutability": "view",
					"type": "function"
				},
				{
					"inputs": [],
					"name": "rebase",
					"outputs": [
						{
							"internalType": "uint256",
							"name": "",
							"type": "uint256"
						}
					],
					"stateMutability": "nonpayable",
					"type": "function"
				},
				{
					"inputs": [],
					"name": "sEXO",
					"outputs": [
						{
							"internalType": "contract IsEXO",
							"name": "",
							"type": "address"
						}
					],
					"stateMutability": "view",
					"type": "function"
				},
				{
					"inputs": [],
					"name": "secondsToNextEpoch",
					"outputs": [
						{
							"internalType": "uint256",
							"name": "",
							"type": "uint256"
						}
					],
					"stateMutability": "view",
					"type": "function"
				},
				{
					"inputs": [
						{
							"internalType": "contract IExodusAuthority",
							"name": "_newAuthority",
							"type": "address"
						}
					],
					"name": "setAuthority",
					"outputs": [],
					"stateMutability": "nonpayable",
					"type": "function"
				},
				{
					"inputs": [
						{
							"internalType": "address",
							"name": "_distributor",
							"type": "address"
						}
					],
					"name": "setDistributor",
					"outputs": [],
					"stateMutability": "nonpayable",
					"type": "function"
				},
				{
					"inputs": [
						{
							"internalType": "uint256",
							"name": "_warmupPeriod",
							"type": "uint256"
						}
					],
					"name": "setWarmupLength",
					"outputs": [],
					"stateMutability": "nonpayable",
					"type": "function"
				},
				{
					"inputs": [
						{
							"internalType": "address",
							"name": "_to",
							"type": "address"
						},
						{
							"internalType": "uint256",
							"name": "_amount",
							"type": "uint256"
						},
						{
							"internalType": "bool",
							"name": "_rebasing",
							"type": "bool"
						},
						{
							"internalType": "bool",
							"name": "_claim",
							"type": "bool"
						}
					],
					"name": "stake",
					"outputs": [
						{
							"internalType": "uint256",
							"name": "",
							"type": "uint256"
						}
					],
					"stateMutability": "nonpayable",
					"type": "function"
				},
				{
					"inputs": [],
					"name": "supplyInWarmup",
					"outputs": [
						{
							"internalType": "uint256",
							"name": "",
							"type": "uint256"
						}
					],
					"stateMutability": "view",
					"type": "function"
				},
				{
					"inputs": [],
					"name": "toggleLock",
					"outputs": [],
					"stateMutability": "nonpayable",
					"type": "function"
				},
				{
					"inputs": [
						{
							"internalType": "address",
							"name": "_to",
							"type": "address"
						},
						{
							"internalType": "uint256",
							"name": "_amount",
							"type": "uint256"
						},
						{
							"internalType": "bool",
							"name": "_trigger",
							"type": "bool"
						},
						{
							"internalType": "bool",
							"name": "_rebasing",
							"type": "bool"
						}
					],
					"name": "unstake",
					"outputs": [
						{
							"internalType": "uint256",
							"name": "amount_",
							"type": "uint256"
						}
					],
					"stateMutability": "nonpayable",
					"type": "function"
				},
				{
					"inputs": [
						{
							"internalType": "address",
							"name": "_to",
							"type": "address"
						},
						{
							"internalType": "uint256",
							"name": "_amount",
							"type": "uint256"
						}
					],
					"name": "unwrap",
					"outputs": [
						{
							"internalType": "uint256",
							"name": "sBalance_",
							"type": "uint256"
						}
					],
					"stateMutability": "nonpayable",
					"type": "function"
				},
				{
					"inputs": [
						{
							"internalType": "address",
							"name": "",
							"type": "address"
						}
					],
					"name": "warmupInfo",
					"outputs": [
						{
							"internalType": "uint256",
							"name": "deposit",
							"type": "uint256"
						},
						{
							"internalType": "uint256",
							"name": "gons",
							"type": "uint256"
						},
						{
							"internalType": "uint256",
							"name": "expiry",
							"type": "uint256"
						},
						{
							"internalType": "bool",
							"name": "lock",
							"type": "bool"
						}
					],
					"stateMutability": "view",
					"type": "function"
				},
				{
					"inputs": [],
					"name": "warmupPeriod",
					"outputs": [
						{
							"internalType": "uint256",
							"name": "",
							"type": "uint256"
						}
					],
					"stateMutability": "view",
					"type": "function"
				},
				{
					"inputs": [
						{
							"internalType": "address",
							"name": "_to",
							"type": "address"
						},
						{
							"internalType": "uint256",
							"name": "_amount",
							"type": "uint256"
						}
					],
					"name": "wrap",
					"outputs": [
						{
							"internalType": "uint256",
							"name": "gBalance_",
							"type": "uint256"
						}
					],
					"stateMutability": "nonpayable",
					"type": "function"
				}
			],
			"devdoc": {
				"kind": "dev",
				"methods": {
					"claim(address,bool)": {
						"params": {
							"_rebasing": "bool",
							"_to": "address"
						},
						"returns": {
							"_0": "uint"
						}
					},
					"forfeit()": {
						"returns": {
							"_0": "uint"
						}
					},
					"index()": {
						"returns": {
							"_0": "uint"
						}
					},
					"rebase()": {
						"returns": {
							"_0": "uint256"
						}
					},
					"setDistributor(address)": {
						"params": {
							"_distributor": "address"
						}
					},
					"setWarmupLength(uint256)": {
						"params": {
							"_warmupPeriod": "uint"
						}
					},
					"stake(address,uint256,bool,bool)": {
						"params": {
							"_amount": "uint",
							"_claim": "bool",
							"_rebasing": "bool",
							"_to": "address"
						},
						"returns": {
							"_0": "uint"
						}
					},
					"unstake(address,uint256,bool,bool)": {
						"params": {
							"_amount": "uint",
							"_rebasing": "bool",
							"_to": "address",
							"_trigger": "bool"
						},
						"returns": {
							"amount_": "uint"
						}
					},
					"unwrap(address,uint256)": {
						"params": {
							"_amount": "uint",
							"_to": "address"
						},
						"returns": {
							"sBalance_": "uint"
						}
					},
					"wrap(address,uint256)": {
						"params": {
							"_amount": "uint",
							"_to": "address"
						},
						"returns": {
							"gBalance_": "uint"
						}
					}
				},
				"version": 1
			},
			"evm": {
				"assembly": "    /* \"ExodusStaking/OlympusAccessControlled.sol\":255:291  string UNAUTHORIZED = \"UNAUTHORIZED\" */\n  0x0120\n    /* \"ExodusStaking/Staking.sol\":252:8980  contract ExodusStaking is ExodusAccessControlled {... */\n  0x40\n    /* \"ExodusStaking/OlympusAccessControlled.sol\":255:291  string UNAUTHORIZED = \"UNAUTHORIZED\" */\n  mstore\n  0x0c\n    /* \"ExodusStaking/Staking.sol\":252:8980  contract ExodusStaking is ExodusAccessControlled {... */\n  0xe0\n    /* \"ExodusStaking/OlympusAccessControlled.sol\":255:291  string UNAUTHORIZED = \"UNAUTHORIZED\" */\n  dup2\n  swap1\n  mstore\n  shl(0xa2, 0x15539055551213d492569151)\n  0x0100\n  swap1\n  dup2\n  mstore\n  tag_1\n  swap2\n  0x00\n  swap2\n  swap1\n  tag_2\n  jump\t// in\ntag_1:\n  pop\n    /* \"ExodusStaking/Staking.sol\":1421:2069  constructor(... */\n  callvalue\n  dup1\n  iszero\n  tag_3\n  jumpi\n  0x00\n  dup1\n  revert\ntag_3:\n  pop\n  mload(0x40)\n  sub(codesize, bytecodeSize)\n  dup1\n  bytecodeSize\n  dup4\n  codecopy\n  dup2\n  dup2\n  add\n  0x40\n  mstore\n  0xe0\n  dup2\n  lt\n  iszero\n  tag_4\n  jumpi\n  0x00\n  dup1\n  revert\ntag_4:\n  pop\n  dup1\n  mload\n  0x20\n  dup3\n  add\n  mload\n  0x40\n  dup1\n  dup5\n  add\n  mload\n  0x60\n  dup6\n  add\n  mload\n  0x80\n  dup7\n  add\n  mload\n  0xa0\n  dup8\n  add\n  mload\n  0xc0\n  swap1\n  swap8\n  add\n  mload\n    /* \"ExodusStaking/OlympusAccessControlled.sol\":495:504  authority */\n  0x01\n    /* \"ExodusStaking/OlympusAccessControlled.sol\":495:517  authority = _authority */\n  dup1\n  sload\n  not(sub(shl(0xa0, 0x01), 0x01))\n  and\n  sub(shl(0xa0, 0x01), 0x01)\n  dup4\n  and\n  swap1\n  dup2\n  or\n  swap1\n  swap2\n  sstore\n    /* \"ExodusStaking/OlympusAccessControlled.sol\":532:560  AuthorityUpdated(_authority) */\n  swap5\n  mload\n    /* \"ExodusStaking/Staking.sol\":1421:2069  constructor(... */\n  swap7\n  swap8\n  swap6\n  swap7\n  swap4\n  swap6\n  swap3\n  swap5\n  swap2\n  swap4\n  swap1\n  swap2\n  dup3\n  swap2\n    /* \"ExodusStaking/OlympusAccessControlled.sol\":532:560  AuthorityUpdated(_authority) */\n  0x2f658b440c35314f52658ea8a740e05b284cdc84dc9ae01e891f21b8933e7cad\n  swap1\n  0x00\n  swap1\n  log2\n  pop\n  sub(shl(0xa0, 0x01), 0x01)\n    /* \"ExodusStaking/Staking.sol\":1704:1722  _exo != address(0) */\n  dup8\n  and\n    /* \"ExodusStaking/Staking.sol\":1696:1744  require(_exo != address(0), \"Zero address: EXO\") */\n  tag_9\n  jumpi\n  0x40\n  dup1\n  mload\n  shl(0xe5, 0x461bcd)\n  dup2\n  mstore\n  0x20\n  0x04\n  dup3\n  add\n  mstore\n  0x11\n  0x24\n  dup3\n  add\n  mstore\n  shl(0x78, 0x5a65726f20616464726573733a2045584f)\n  0x44\n  dup3\n  add\n  mstore\n  swap1\n  mload\n  swap1\n  dup2\n  swap1\n  sub\n  0x64\n  add\n  swap1\n  revert\ntag_9:\n  not(sub(shl(0x60, 0x01), 0x01))\n    /* \"ExodusStaking/Staking.sol\":1754:1772  EXO = IERC20(_exo) */\n  0x60\n  dup9\n  swap1\n  shl\n  and\n  0x80\n  mstore\n  sub(shl(0xa0, 0x01), 0x01)\n    /* \"ExodusStaking/Staking.sol\":1790:1809  _sEXO != address(0) */\n  dup7\n  and\n    /* \"ExodusStaking/Staking.sol\":1782:1832  require(_sEXO != address(0), \"Zero address: sEXO\") */\n  tag_10\n  jumpi\n  0x40\n  dup1\n  mload\n  shl(0xe5, 0x461bcd)\n  dup2\n  mstore\n  0x20\n  0x04\n  dup3\n  add\n  mstore\n  0x12\n  0x24\n  dup3\n  add\n  mstore\n  shl(0x70, 0x5a65726f20616464726573733a207345584f)\n  0x44\n  dup3\n  add\n  mstore\n  swap1\n  mload\n  swap1\n  dup2\n  swap1\n  sub\n  0x64\n  add\n  swap1\n  revert\ntag_10:\n  not(sub(shl(0x60, 0x01), 0x01))\n    /* \"ExodusStaking/Staking.sol\":1842:1861  sEXO = IsEXO(_sEXO) */\n  0x60\n  dup8\n  swap1\n  shl\n  and\n  0xa0\n  mstore\n  sub(shl(0xa0, 0x01), 0x01)\n    /* \"ExodusStaking/Staking.sol\":1879:1898  _gEXO != address(0) */\n  dup6\n  and\n    /* \"ExodusStaking/Staking.sol\":1871:1921  require(_gEXO != address(0), \"Zero address: gEXO\") */\n  tag_11\n  jumpi\n  0x40\n  dup1\n  mload\n  shl(0xe5, 0x461bcd)\n  dup2\n  mstore\n  0x20\n  0x04\n  dup3\n  add\n  mstore\n  0x12\n  0x24\n  dup3\n  add\n  mstore\n  shl(0x70, 0x5a65726f20616464726573733a206745584f)\n  0x44\n  dup3\n  add\n  mstore\n  swap1\n  mload\n  swap1\n  dup2\n  swap1\n  sub\n  0x64\n  add\n  swap1\n  revert\ntag_11:\n  pop\n  not(sub(shl(0x60, 0x01), 0x01))\n    /* \"ExodusStaking/Staking.sol\":1931:1950  gEXO = IgEXO(_gEXO) */\n  0x60\n  swap5\n  dup6\n  shl\n  and\n  0xc0\n  mstore\n    /* \"ExodusStaking/Staking.sol\":1969:2062  Epoch({length: _epochLength, number: _firstEpochNumber, end: _firstEpochTime, distribute: 0}) */\n  0x40\n  dup1\n  mload\n  0x80\n  dup2\n  add\n  dup3\n  mstore\n  dup5\n  dup2\n  mstore\n  0x20\n  dup2\n  add\n  dup5\n  swap1\n  mstore\n  swap1\n  dup2\n  add\n  dup3\n  swap1\n  mstore\n  0x00\n  swap5\n  add\n  dup5\n  swap1\n  mstore\n    /* \"ExodusStaking/Staking.sol\":1961:1966  epoch */\n  0x02\n    /* \"ExodusStaking/Staking.sol\":1961:2062  epoch = Epoch({length: _epochLength, number: _firstEpochNumber, end: _firstEpochTime, distribute: 0}) */\n  swap3\n  swap1\n  swap3\n  sstore\n  0x03\n  sstore\n  0x04\n  sstore\n  0x05\n  sstore\n  pop\n    /* \"ExodusStaking/Staking.sol\":252:8980  contract ExodusStaking is ExodusAccessControlled {... */\n  tag_12\n  swap1\n  pop\n  jump\ntag_2:\n  dup3\n  dup1\n  sload\n  0x01\n  dup2\n  0x01\n  and\n  iszero\n  0x0100\n  mul\n  sub\n  and\n  0x02\n  swap1\n  div\n  swap1\n  0x00\n  mstore\n  keccak256(0x00, 0x20)\n  swap1\n  0x1f\n  add\n  0x20\n  swap1\n  div\n  dup2\n  add\n  swap3\n  dup3\n  tag_14\n  jumpi\n  0x00\n  dup6\n  sstore\n  jump(tag_17)\ntag_14:\n  dup3\n  0x1f\n  lt\n  tag_15\n  jumpi\n  dup1\n  mload\n  not(0xff)\n  and\n  dup4\n  dup1\n  add\n  or\n  dup6\n  sstore\n  jump(tag_17)\ntag_15:\n  dup3\n  dup1\n  add\n  0x01\n  add\n  dup6\n  sstore\n  dup3\n  iszero\n  tag_17\n  jumpi\n  swap2\n  dup3\n  add\ntag_16:\n  dup3\n  dup2\n  gt\n  iszero\n  tag_17\n  jumpi\n  dup3\n  mload\n  dup3\n  sstore\n  swap2\n  0x20\n  add\n  swap2\n  swap1\n  0x01\n  add\n  swap1\n  jump(tag_16)\ntag_17:\n  pop\n  tag_18\n  swap3\n  swap2\n  pop\n  tag_19\n  jump\t// in\ntag_18:\n  pop\n  swap1\n  jump\t// out\ntag_19:\ntag_20:\n  dup1\n  dup3\n  gt\n  iszero\n  tag_18\n  jumpi\n  0x00\n  dup2\n  sstore\n  0x01\n  add\n  jump(tag_20)\ntag_12:\n  shr(0x60, mload(0x80))\n  shr(0x60, mload(0xa0))\n  shr(0x60, mload(0xc0))\n  codecopy(0x00, dataOffset(sub_0), dataSize(sub_0))\n  assignImmutable(\"0xa9903e230a4a4f2af602b37c0f984d2b43537f89ce9d4cfbf1232e27c498bd38\")\n  assignImmutable(\"0x02f6903e55725b8fb1e67e68fc4dfbf8e90ced5ec278dfd2021debfe4c69d139\")\n  assignImmutable(\"0x2d33c78d31145fca68253afe9b24c771b7d614064b9f8dc2c55b30419d3466f1\")\n  return(0x00, dataSize(sub_0))\nstop\n\nsub_0: assembly {\n        /* \"ExodusStaking/Staking.sol\":252:8980  contract ExodusStaking is ExodusAccessControlled {... */\n      mstore(0x40, 0x80)\n      callvalue\n      dup1\n      iszero\n      tag_1\n      jumpi\n      0x00\n      dup1\n      revert\n    tag_1:\n      pop\n      jumpi(tag_2, lt(calldatasize, 0x04))\n      shr(0xe0, calldataload(0x00))\n      dup1\n      0x9483c1d7\n      gt\n      tag_25\n      jumpi\n      dup1\n      0xbf7e214f\n      gt\n      tag_26\n      jumpi\n      dup1\n      0xdeac361a\n      gt\n      tag_27\n      jumpi\n      dup1\n      0xdeac361a\n      eq\n      tag_22\n      jumpi\n      dup1\n      0xf3d86e4a\n      eq\n      tag_23\n      jumpi\n      dup1\n      0xff9413d8\n      eq\n      tag_24\n      jumpi\n      jump(tag_2)\n    tag_27:\n      dup1\n      0xbf7e214f\n      eq\n      tag_19\n      jumpi\n      dup1\n      0xbfe10928\n      eq\n      tag_20\n      jumpi\n      dup1\n      0xd866c9d8\n      eq\n      tag_21\n      jumpi\n      jump(tag_2)\n    tag_26:\n      dup1\n      0xaf14052c\n      gt\n      tag_28\n      jumpi\n      dup1\n      0xaf14052c\n      eq\n      tag_16\n      jumpi\n      dup1\n      0xb383daf2\n      eq\n      tag_17\n      jumpi\n      dup1\n      0xbf376c7a\n      eq\n      tag_18\n      jumpi\n      jump(tag_2)\n    tag_28:\n      dup1\n      0x9483c1d7\n      eq\n      tag_14\n      jumpi\n      dup1\n      0x990966d5\n      eq\n      tag_15\n      jumpi\n      jump(tag_2)\n    tag_25:\n      dup1\n      0x6746f4c2\n      gt\n      tag_29\n      jumpi\n      dup1\n      0x900cf0cf\n      gt\n      tag_30\n      jumpi\n      dup1\n      0x900cf0cf\n      eq\n      tag_11\n      jumpi\n      dup1\n      0x9238d592\n      eq\n      tag_12\n      jumpi\n      dup1\n      0x92fd2daf\n      eq\n      tag_13\n      jumpi\n      jump(tag_2)\n    tag_30:\n      dup1\n      0x6746f4c2\n      eq\n      tag_8\n      jumpi\n      dup1\n      0x75619ab5\n      eq\n      tag_9\n      jumpi\n      dup1\n      0x7a9e5e4b\n      eq\n      tag_10\n      jumpi\n      jump(tag_2)\n    tag_29:\n      dup1\n      0x2986c0e5\n      gt\n      tag_31\n      jumpi\n      dup1\n      0x2986c0e5\n      eq\n      tag_5\n      jumpi\n      dup1\n      0x2af36b43\n      eq\n      tag_6\n      jumpi\n      dup1\n      0x39f47693\n      eq\n      tag_7\n      jumpi\n      jump(tag_2)\n    tag_31:\n      dup1\n      0x06d9cea8\n      eq\n      tag_3\n      jumpi\n      dup1\n      0x20138641\n      eq\n      tag_4\n      jumpi\n    tag_2:\n      0x00\n      dup1\n      revert\n        /* \"ExodusStaking/Staking.sol\":1129:1156  IsEXO public immutable sEXO */\n    tag_3:\n      tag_32\n      tag_33\n      jump\t// in\n    tag_32:\n      0x40\n      dup1\n      mload\n      sub(shl(0xa0, 0x01), 0x01)\n      swap1\n      swap3\n      and\n      dup3\n      mstore\n      mload\n      swap1\n      dup2\n      swap1\n      sub\n      0x20\n      add\n      swap1\n      return\n        /* \"ExodusStaking/Staking.sol\":8083:8196  function supplyInWarmup() public view returns (uint256) {... */\n    tag_4:\n      tag_34\n      tag_35\n      jump\t// in\n    tag_34:\n      0x40\n      dup1\n      mload\n      swap2\n      dup3\n      mstore\n      mload\n      swap1\n      dup2\n      swap1\n      sub\n      0x20\n      add\n      swap1\n      return\n        /* \"ExodusStaking/Staking.sol\":7940:8023  function index() public view returns (uint256) {... */\n    tag_5:\n      tag_34\n      tag_37\n      jump\t// in\n        /* \"ExodusStaking/Staking.sol\":1162:1189  IgEXO public immutable gEXO */\n    tag_6:\n      tag_32\n      tag_39\n      jump\t// in\n        /* \"ExodusStaking/Staking.sol\":6018:6238  function unwrap(address _to, uint256 _amount) external returns (uint256 sBalance_) {... */\n    tag_7:\n      tag_34\n      0x04\n      dup1\n      calldatasize\n      sub\n      0x40\n      dup2\n      lt\n      iszero\n      tag_41\n      jumpi\n      0x00\n      dup1\n      revert\n    tag_41:\n      pop\n      sub(shl(0xa0, 0x01), 0x01)\n      dup2\n      calldataload\n      and\n      swap1\n      0x20\n      add\n      calldataload\n      tag_42\n      jump\t// in\n        /* \"ExodusStaking/Staking.sol\":1259:1302  mapping(address => Claim) public warmupInfo */\n    tag_8:\n      tag_43\n      0x04\n      dup1\n      calldatasize\n      sub\n      0x20\n      dup2\n      lt\n      iszero\n      tag_44\n      jumpi\n      0x00\n      dup1\n      revert\n    tag_44:\n      pop\n      calldataload\n      sub(shl(0xa0, 0x01), 0x01)\n      and\n      tag_45\n      jump\t// in\n    tag_43:\n      0x40\n      dup1\n      mload\n      swap5\n      dup6\n      mstore\n      0x20\n      dup6\n      add\n      swap4\n      swap1\n      swap4\n      mstore\n      dup4\n      dup4\n      add\n      swap2\n      swap1\n      swap2\n      mstore\n      iszero\n      iszero\n      0x60\n      dup4\n      add\n      mstore\n      mload\n      swap1\n      dup2\n      swap1\n      sub\n      0x80\n      add\n      swap1\n      return\n        /* \"ExodusStaking/Staking.sol\":8552:8720  function setDistributor(address _distributor) external onlyGovernor {... */\n    tag_9:\n      tag_46\n      0x04\n      dup1\n      calldatasize\n      sub\n      0x20\n      dup2\n      lt\n      iszero\n      tag_47\n      jumpi\n      0x00\n      dup1\n      revert\n    tag_47:\n      pop\n      calldataload\n      sub(shl(0xa0, 0x01), 0x01)\n      and\n      tag_48\n      jump\t// in\n    tag_46:\n      stop\n        /* \"ExodusStaking/OlympusAccessControlled.sol\":1108:1272  function setAuthority(IExodusAuthority _newAuthority) external onlyGovernor {... */\n    tag_10:\n      tag_46\n      0x04\n      dup1\n      calldatasize\n      sub\n      0x20\n      dup2\n      lt\n      iszero\n      tag_50\n      jumpi\n      0x00\n      dup1\n      revert\n    tag_50:\n      pop\n      calldataload\n      sub(shl(0xa0, 0x01), 0x01)\n      and\n      tag_51\n      jump\t// in\n        /* \"ExodusStaking/Staking.sol\":1196:1214  Epoch public epoch */\n    tag_11:\n      tag_52\n      tag_53\n      jump\t// in\n    tag_52:\n      0x40\n      dup1\n      mload\n      swap5\n      dup6\n      mstore\n      0x20\n      dup6\n      add\n      swap4\n      swap1\n      swap4\n      mstore\n      dup4\n      dup4\n      add\n      swap2\n      swap1\n      swap2\n      mstore\n      0x60\n      dup4\n      add\n      mstore\n      mload\n      swap1\n      dup2\n      swap1\n      sub\n      0x80\n      add\n      swap1\n      return\n        /* \"ExodusStaking/Staking.sol\":8824:8978  function setWarmupLength(uint256 _warmupPeriod) external onlyGovernor {... */\n    tag_12:\n      tag_46\n      0x04\n      dup1\n      calldatasize\n      sub\n      0x20\n      dup2\n      lt\n      iszero\n      tag_55\n      jumpi\n      0x00\n      dup1\n      revert\n    tag_55:\n      pop\n      calldataload\n      tag_56\n      jump\t// in\n        /* \"ExodusStaking/Staking.sol\":3406:3906  function claim(address _to, bool _rebasing) public returns (uint256) {... */\n    tag_13:\n      tag_34\n      0x04\n      dup1\n      calldatasize\n      sub\n      0x40\n      dup2\n      lt\n      iszero\n      tag_58\n      jumpi\n      0x00\n      dup1\n      revert\n    tag_58:\n      pop\n      sub(shl(0xa0, 0x01), 0x01)\n      dup2\n      calldataload\n      and\n      swap1\n      0x20\n      add\n      calldataload\n      iszero\n      iszero\n      tag_59\n      jump\t// in\n        /* \"ExodusStaking/Staking.sol\":8269:8385  function secondsToNextEpoch() external view returns (uint256) {... */\n    tag_14:\n      tag_34\n      tag_61\n      jump\t// in\n        /* \"ExodusStaking/Staking.sol\":4699:5461  function unstake(... */\n    tag_15:\n      tag_34\n      0x04\n      dup1\n      calldatasize\n      sub\n      0x80\n      dup2\n      lt\n      iszero\n      tag_63\n      jumpi\n      0x00\n      dup1\n      revert\n    tag_63:\n      pop\n      sub(shl(0xa0, 0x01), 0x01)\n      dup2\n      calldataload\n      and\n      swap1\n      0x20\n      dup2\n      add\n      calldataload\n      swap1\n      0x40\n      dup2\n      add\n      calldataload\n      iszero\n      iszero\n      swap1\n      0x60\n      add\n      calldataload\n      iszero\n      iszero\n      tag_64\n      jump\t// in\n        /* \"ExodusStaking/Staking.sol\":6327:7148  function rebase() public returns (uint256) {... */\n    tag_16:\n      tag_34\n      tag_66\n      jump\t// in\n        /* \"ExodusStaking/Staking.sol\":1096:1123  IERC20 public immutable EXO */\n    tag_17:\n      tag_32\n      tag_68\n      jump\t// in\n        /* \"ExodusStaking/Staking.sol\":5622:5857  function wrap(address _to, uint256 _amount) external returns (uint256 gBalance_) {... */\n    tag_18:\n      tag_34\n      0x04\n      dup1\n      calldatasize\n      sub\n      0x40\n      dup2\n      lt\n      iszero\n      tag_70\n      jumpi\n      0x00\n      dup1\n      revert\n    tag_70:\n      pop\n      sub(shl(0xa0, 0x01), 0x01)\n      dup2\n      calldataload\n      and\n      swap1\n      0x20\n      add\n      calldataload\n      tag_71\n      jump\t// in\n        /* \"ExodusStaking/OlympusAccessControlled.sol\":359:392  IExodusAuthority public authority */\n    tag_19:\n      tag_32\n      tag_73\n      jump\t// in\n        /* \"ExodusStaking/Staking.sol\":1221:1252  IDistributor public distributor */\n    tag_20:\n      tag_32\n      tag_75\n      jump\t// in\n        /* \"ExodusStaking/Staking.sol\":2312:3267  function stake(... */\n    tag_21:\n      tag_34\n      0x04\n      dup1\n      calldatasize\n      sub\n      0x80\n      dup2\n      lt\n      iszero\n      tag_77\n      jumpi\n      0x00\n      dup1\n      revert\n    tag_77:\n      pop\n      sub(shl(0xa0, 0x01), 0x01)\n      dup2\n      calldataload\n      and\n      swap1\n      0x20\n      dup2\n      add\n      calldataload\n      swap1\n      0x40\n      dup2\n      add\n      calldataload\n      iszero\n      iszero\n      swap1\n      0x60\n      add\n      calldataload\n      iszero\n      iszero\n      tag_78\n      jump\t// in\n        /* \"ExodusStaking/Staking.sol\":1308:1335  uint256 public warmupPeriod */\n    tag_22:\n      tag_34\n      tag_80\n      jump\t// in\n        /* \"ExodusStaking/Staking.sol\":3994:4274  function forfeit() external returns (uint256) {... */\n    tag_23:\n      tag_34\n      tag_82\n      jump\t// in\n        /* \"ExodusStaking/Staking.sol\":4397:4503  function toggleLock() external {... */\n    tag_24:\n      tag_46\n      tag_84\n      jump\t// in\n        /* \"ExodusStaking/Staking.sol\":1129:1156  IsEXO public immutable sEXO */\n    tag_33:\n      immutable(\"0x02f6903e55725b8fb1e67e68fc4dfbf8e90ced5ec278dfd2021debfe4c69d139\")\n      dup2\n      jump\t// out\n        /* \"ExodusStaking/Staking.sol\":8083:8196  function supplyInWarmup() public view returns (uint256) {... */\n    tag_35:\n        /* \"ExodusStaking/Staking.sol\":8130:8137  uint256 */\n      0x00\n        /* \"ExodusStaking/Staking.sol\":8156:8160  sEXO */\n      immutable(\"0x02f6903e55725b8fb1e67e68fc4dfbf8e90ced5ec278dfd2021debfe4c69d139\")\n      sub(shl(0xa0, 0x01), 0x01)\n        /* \"ExodusStaking/Staking.sol\":8156:8175  sEXO.balanceForGons */\n      and\n      0x7965d56d\n        /* \"ExodusStaking/Staking.sol\":8176:8188  gonsInWarmup */\n      sload(0x09)\n        /* \"ExodusStaking/Staking.sol\":8156:8189  sEXO.balanceForGons(gonsInWarmup) */\n      mload(0x40)\n      dup3\n      0xffffffff\n      and\n      0xe0\n      shl\n      dup2\n      mstore\n      0x04\n      add\n      dup1\n      dup3\n      dup2\n      mstore\n      0x20\n      add\n      swap2\n      pop\n      pop\n      0x20\n      mload(0x40)\n      dup1\n      dup4\n      sub\n      dup2\n      dup7\n      dup1\n      extcodesize\n      iszero\n      dup1\n      iszero\n      tag_86\n      jumpi\n      0x00\n      dup1\n      revert\n    tag_86:\n      pop\n      gas\n      staticcall\n      iszero\n      dup1\n      iszero\n      tag_88\n      jumpi\n      returndatasize\n      0x00\n      dup1\n      returndatacopy\n      revert(0x00, returndatasize)\n    tag_88:\n      pop\n      pop\n      pop\n      pop\n      mload(0x40)\n      returndatasize\n      0x20\n      dup2\n      lt\n      iszero\n      tag_89\n      jumpi\n      0x00\n      dup1\n      revert\n    tag_89:\n      pop\n      mload\n      swap1\n      pop\n        /* \"ExodusStaking/Staking.sol\":8083:8196  function supplyInWarmup() public view returns (uint256) {... */\n      swap1\n      jump\t// out\n        /* \"ExodusStaking/Staking.sol\":7940:8023  function index() public view returns (uint256) {... */\n    tag_37:\n        /* \"ExodusStaking/Staking.sol\":7978:7985  uint256 */\n      0x00\n        /* \"ExodusStaking/Staking.sol\":8004:8008  sEXO */\n      immutable(\"0x02f6903e55725b8fb1e67e68fc4dfbf8e90ced5ec278dfd2021debfe4c69d139\")\n      sub(shl(0xa0, 0x01), 0x01)\n        /* \"ExodusStaking/Staking.sol\":8004:8014  sEXO.index */\n      and\n      0x2986c0e5\n        /* \"ExodusStaking/Staking.sol\":8004:8016  sEXO.index() */\n      mload(0x40)\n      dup2\n      0xffffffff\n      and\n      0xe0\n      shl\n      dup2\n      mstore\n      0x04\n      add\n      0x20\n      mload(0x40)\n      dup1\n      dup4\n      sub\n      dup2\n      dup7\n      dup1\n      extcodesize\n      iszero\n      dup1\n      iszero\n      tag_86\n      jumpi\n      0x00\n      dup1\n      revert\n        /* \"ExodusStaking/Staking.sol\":1162:1189  IgEXO public immutable gEXO */\n    tag_39:\n      immutable(\"0xa9903e230a4a4f2af602b37c0f984d2b43537f89ce9d4cfbf1232e27c498bd38\")\n      dup2\n      jump\t// out\n        /* \"ExodusStaking/Staking.sol\":6018:6238  function unwrap(address _to, uint256 _amount) external returns (uint256 sBalance_) {... */\n    tag_42:\n        /* \"ExodusStaking/Staking.sol\":6082:6099  uint256 sBalance_ */\n      0x00\n        /* \"ExodusStaking/Staking.sol\":6111:6115  gEXO */\n      immutable(\"0xa9903e230a4a4f2af602b37c0f984d2b43537f89ce9d4cfbf1232e27c498bd38\")\n      sub(shl(0xa0, 0x01), 0x01)\n        /* \"ExodusStaking/Staking.sol\":6111:6120  gEXO.burn */\n      and\n      0x9dc29fac\n        /* \"ExodusStaking/Staking.sol\":6121:6131  msg.sender */\n      caller\n        /* \"ExodusStaking/Staking.sol\":6133:6140  _amount */\n      dup5\n        /* \"ExodusStaking/Staking.sol\":6111:6141  gEXO.burn(msg.sender, _amount) */\n      mload(0x40)\n      dup4\n      0xffffffff\n      and\n      0xe0\n      shl\n      dup2\n      mstore\n      0x04\n      add\n      dup1\n      dup4\n      sub(shl(0xa0, 0x01), 0x01)\n      and\n      dup2\n      mstore\n      0x20\n      add\n      dup3\n      dup2\n      mstore\n      0x20\n      add\n      swap3\n      pop\n      pop\n      pop\n      0x00\n      mload(0x40)\n      dup1\n      dup4\n      sub\n      dup2\n      0x00\n      dup8\n      dup1\n      extcodesize\n      iszero\n      dup1\n      iszero\n      tag_96\n      jumpi\n      0x00\n      dup1\n      revert\n    tag_96:\n      pop\n      gas\n      call\n      iszero\n      dup1\n      iszero\n      tag_98\n      jumpi\n      returndatasize\n      0x00\n      dup1\n      returndatacopy\n      revert(0x00, returndatasize)\n    tag_98:\n      pop\n      pop\n      pop\n      pop\n        /* \"ExodusStaking/Staking.sol\":6163:6167  gEXO */\n      immutable(\"0xa9903e230a4a4f2af602b37c0f984d2b43537f89ce9d4cfbf1232e27c498bd38\")\n      sub(shl(0xa0, 0x01), 0x01)\n        /* \"ExodusStaking/Staking.sol\":6163:6179  gEXO.balanceFrom */\n      and\n      0xa8248768\n        /* \"ExodusStaking/Staking.sol\":6180:6187  _amount */\n      dup4\n        /* \"ExodusStaking/Staking.sol\":6163:6188  gEXO.balanceFrom(_amount) */\n      mload(0x40)\n      dup3\n      0xffffffff\n      and\n      0xe0\n      shl\n      dup2\n      mstore\n      0x04\n      add\n      dup1\n      dup3\n      dup2\n      mstore\n      0x20\n      add\n      swap2\n      pop\n      pop\n      0x20\n      mload(0x40)\n      dup1\n      dup4\n      sub\n      dup2\n      dup7\n      dup1\n      extcodesize\n      iszero\n      dup1\n      iszero\n      tag_99\n      jumpi\n      0x00\n      dup1\n      revert\n    tag_99:\n      pop\n      gas\n      staticcall\n      iszero\n      dup1\n      iszero\n      tag_101\n      jumpi\n      returndatasize\n      0x00\n      dup1\n      returndatacopy\n      revert(0x00, returndatasize)\n    tag_101:\n      pop\n      pop\n      pop\n      pop\n      mload(0x40)\n      returndatasize\n      0x20\n      dup2\n      lt\n      iszero\n      tag_102\n      jumpi\n      0x00\n      dup1\n      revert\n    tag_102:\n      pop\n      mload\n      swap1\n      pop\n        /* \"ExodusStaking/Staking.sol\":6198:6231  sEXO.safeTransfer(_to, sBalance_) */\n      tag_103\n      sub(shl(0xa0, 0x01), 0x01)\n        /* \"ExodusStaking/Staking.sol\":6198:6202  sEXO */\n      immutable(\"0x02f6903e55725b8fb1e67e68fc4dfbf8e90ced5ec278dfd2021debfe4c69d139\")\n        /* \"ExodusStaking/Staking.sol\":6198:6215  sEXO.safeTransfer */\n      and\n        /* \"ExodusStaking/Staking.sol\":6216:6219  _to */\n      dup5\n        /* \"ExodusStaking/Staking.sol\":6163:6188  gEXO.balanceFrom(_amount) */\n      dup4\n        /* \"ExodusStaking/Staking.sol\":6198:6215  sEXO.safeTransfer */\n      tag_104\n        /* \"ExodusStaking/Staking.sol\":6198:6231  sEXO.safeTransfer(_to, sBalance_) */\n      jump\t// in\n    tag_103:\n        /* \"ExodusStaking/Staking.sol\":6018:6238  function unwrap(address _to, uint256 _amount) external returns (uint256 sBalance_) {... */\n      swap3\n      swap2\n      pop\n      pop\n      jump\t// out\n        /* \"ExodusStaking/Staking.sol\":1259:1302  mapping(address => Claim) public warmupInfo */\n    tag_45:\n      mstore(0x20, 0x07)\n      0x00\n      swap1\n      dup2\n      mstore\n      0x40\n      swap1\n      keccak256\n      dup1\n      sload\n      0x01\n      dup3\n      add\n      sload\n      0x02\n      dup4\n      add\n      sload\n      0x03\n      swap1\n      swap4\n      add\n      sload\n      swap2\n      swap3\n      swap1\n      swap2\n      0xff\n      and\n      dup5\n      jump\t// out\n        /* \"ExodusStaking/Staking.sol\":8552:8720  function setDistributor(address _distributor) external onlyGovernor {... */\n    tag_48:\n        /* \"ExodusStaking/OlympusAccessControlled.sol\":672:681  authority */\n      0x01\n      0x00\n      swap1\n      sload\n      swap1\n      0x0100\n      exp\n      swap1\n      div\n      sub(shl(0xa0, 0x01), 0x01)\n      and\n      sub(shl(0xa0, 0x01), 0x01)\n        /* \"ExodusStaking/OlympusAccessControlled.sol\":672:690  authority.governor */\n      and\n      0x0c340a24\n        /* \"ExodusStaking/OlympusAccessControlled.sol\":672:692  authority.governor() */\n      mload(0x40)\n      dup2\n      0xffffffff\n      and\n      0xe0\n      shl\n      dup2\n      mstore\n      0x04\n      add\n      0x20\n      mload(0x40)\n      dup1\n      dup4\n      sub\n      dup2\n      dup7\n      dup1\n      extcodesize\n      iszero\n      dup1\n      iszero\n      tag_106\n      jumpi\n      0x00\n      dup1\n      revert\n    tag_106:\n      pop\n      gas\n      staticcall\n      iszero\n      dup1\n      iszero\n      tag_108\n      jumpi\n      returndatasize\n      0x00\n      dup1\n      returndatacopy\n      revert(0x00, returndatasize)\n    tag_108:\n      pop\n      pop\n      pop\n      pop\n      mload(0x40)\n      returndatasize\n      0x20\n      dup2\n      lt\n      iszero\n      tag_109\n      jumpi\n      0x00\n      dup1\n      revert\n    tag_109:\n      pop\n      mload\n        /* \"ExodusStaking/OlympusAccessControlled.sol\":694:706  UNAUTHORIZED */\n      0x00\n      swap1\n      sub(shl(0xa0, 0x01), 0x01)\n        /* \"ExodusStaking/OlympusAccessControlled.sol\":658:692  msg.sender == authority.governor() */\n      and\n        /* \"ExodusStaking/OlympusAccessControlled.sol\":658:668  msg.sender */\n      caller\n        /* \"ExodusStaking/OlympusAccessControlled.sol\":658:692  msg.sender == authority.governor() */\n      eq\n        /* \"ExodusStaking/OlympusAccessControlled.sol\":650:707  require(msg.sender == authority.governor(), UNAUTHORIZED) */\n      tag_110\n      jumpi\n      mload(0x40)\n      shl(0xe5, 0x461bcd)\n      dup2\n      mstore\n      0x20\n      0x04\n      dup3\n      add\n      swap1\n      dup2\n      mstore\n      dup3\n      sload\n      0x02\n      not(0x00)\n      0x0100\n      0x01\n      dup5\n      and\n      iszero\n      mul\n      add\n      swap1\n      swap2\n      and\n      div\n      0x24\n      dup4\n      add\n      dup2\n      swap1\n      mstore\n      swap1\n      swap2\n      dup3\n      swap2\n      0x44\n      swap1\n      swap2\n      add\n      swap1\n      dup5\n      swap1\n      dup1\n      iszero\n      tag_111\n      jumpi\n      dup1\n      0x1f\n      lt\n      tag_112\n      jumpi\n      0x0100\n      dup1\n      dup4\n      sload\n      div\n      mul\n      dup4\n      mstore\n      swap2\n      0x20\n      add\n      swap2\n      jump(tag_111)\n    tag_112:\n      dup3\n      add\n      swap2\n      swap1\n      0x00\n      mstore\n      keccak256(0x00, 0x20)\n      swap1\n    tag_113:\n      dup2\n      sload\n      dup2\n      mstore\n      swap1\n      0x01\n      add\n      swap1\n      0x20\n      add\n      dup1\n      dup4\n      gt\n      tag_113\n      jumpi\n      dup3\n      swap1\n      sub\n      0x1f\n      and\n      dup3\n      add\n      swap2\n    tag_111:\n      pop\n      pop\n      swap3\n      pop\n      pop\n      pop\n      mload(0x40)\n      dup1\n      swap2\n      sub\n      swap1\n      revert\n    tag_110:\n      pop\n        /* \"ExodusStaking/Staking.sol\":8630:8641  distributor */\n      0x06\n        /* \"ExodusStaking/Staking.sol\":8630:8670  distributor = IDistributor(_distributor) */\n      dup1\n      sload\n      sub(shl(0xa0, 0x01), 0x01)\n      dup4\n      and\n      not(0xffffffffffffffffffffffffffffffffffffffff)\n      swap1\n      swap2\n      and\n      dup2\n      or\n      swap1\n      swap2\n      sstore\n        /* \"ExodusStaking/Staking.sol\":8685:8713  DistributorSet(_distributor) */\n      0x40\n      dup1\n      mload\n      swap2\n      dup3\n      mstore\n      mload\n      0x86719c518c7d99ac94b3d405d462ea876ba5cd0a978461dc9a7c9862a9485886\n      swap2\n      dup2\n      swap1\n      sub\n      0x20\n      add\n      swap1\n      log1\n        /* \"ExodusStaking/Staking.sol\":8552:8720  function setDistributor(address _distributor) external onlyGovernor {... */\n      pop\n      jump\t// out\n        /* \"ExodusStaking/OlympusAccessControlled.sol\":1108:1272  function setAuthority(IExodusAuthority _newAuthority) external onlyGovernor {... */\n    tag_51:\n        /* \"ExodusStaking/OlympusAccessControlled.sol\":672:681  authority */\n      0x01\n      0x00\n      swap1\n      sload\n      swap1\n      0x0100\n      exp\n      swap1\n      div\n      sub(shl(0xa0, 0x01), 0x01)\n      and\n      sub(shl(0xa0, 0x01), 0x01)\n        /* \"ExodusStaking/OlympusAccessControlled.sol\":672:690  authority.governor */\n      and\n      0x0c340a24\n        /* \"ExodusStaking/OlympusAccessControlled.sol\":672:692  authority.governor() */\n      mload(0x40)\n      dup2\n      0xffffffff\n      and\n      0xe0\n      shl\n      dup2\n      mstore\n      0x04\n      add\n      0x20\n      mload(0x40)\n      dup1\n      dup4\n      sub\n      dup2\n      dup7\n      dup1\n      extcodesize\n      iszero\n      dup1\n      iszero\n      tag_116\n      jumpi\n      0x00\n      dup1\n      revert\n    tag_116:\n      pop\n      gas\n      staticcall\n      iszero\n      dup1\n      iszero\n      tag_118\n      jumpi\n      returndatasize\n      0x00\n      dup1\n      returndatacopy\n      revert(0x00, returndatasize)\n    tag_118:\n      pop\n      pop\n      pop\n      pop\n      mload(0x40)\n      returndatasize\n      0x20\n      dup2\n      lt\n      iszero\n      tag_119\n      jumpi\n      0x00\n      dup1\n      revert\n    tag_119:\n      pop\n      mload\n        /* \"ExodusStaking/OlympusAccessControlled.sol\":694:706  UNAUTHORIZED */\n      0x00\n      swap1\n      sub(shl(0xa0, 0x01), 0x01)\n        /* \"ExodusStaking/OlympusAccessControlled.sol\":658:692  msg.sender == authority.governor() */\n      and\n        /* \"ExodusStaking/OlympusAccessControlled.sol\":658:668  msg.sender */\n      caller\n        /* \"ExodusStaking/OlympusAccessControlled.sol\":658:692  msg.sender == authority.governor() */\n      eq\n        /* \"ExodusStaking/OlympusAccessControlled.sol\":650:707  require(msg.sender == authority.governor(), UNAUTHORIZED) */\n      tag_120\n      jumpi\n      mload(0x40)\n      shl(0xe5, 0x461bcd)\n      dup2\n      mstore\n      0x20\n      0x04\n      dup3\n      add\n      swap1\n      dup2\n      mstore\n      dup3\n      sload\n      0x02\n      not(0x00)\n      0x0100\n      0x01\n      dup5\n      and\n      iszero\n      mul\n      add\n      swap1\n      swap2\n      and\n      div\n      0x24\n      dup4\n      add\n      dup2\n      swap1\n      mstore\n      swap1\n      swap2\n      dup3\n      swap2\n      0x44\n      swap1\n      swap2\n      add\n      swap1\n      dup5\n      swap1\n      dup1\n      iszero\n      tag_111\n      jumpi\n      dup1\n      0x1f\n      lt\n      tag_112\n      jumpi\n      0x0100\n      dup1\n      dup4\n      sload\n      div\n      mul\n      dup4\n      mstore\n      swap2\n      0x20\n      add\n      swap2\n      jump(tag_111)\n    tag_120:\n      pop\n        /* \"ExodusStaking/OlympusAccessControlled.sol\":1194:1203  authority */\n      0x01\n        /* \"ExodusStaking/OlympusAccessControlled.sol\":1194:1219  authority = _newAuthority */\n      dup1\n      sload\n      not(0xffffffffffffffffffffffffffffffffffffffff)\n      and\n      sub(shl(0xa0, 0x01), 0x01)\n      dup4\n      and\n      swap1\n      dup2\n      or\n      swap1\n      swap2\n      sstore\n        /* \"ExodusStaking/OlympusAccessControlled.sol\":1234:1265  AuthorityUpdated(_newAuthority) */\n      mload(0x40)\n      0x2f658b440c35314f52658ea8a740e05b284cdc84dc9ae01e891f21b8933e7cad\n      swap1\n      0x00\n      swap1\n      log2\n        /* \"ExodusStaking/OlympusAccessControlled.sol\":1108:1272  function setAuthority(IExodusAuthority _newAuthority) external onlyGovernor {... */\n      pop\n      jump\t// out\n        /* \"ExodusStaking/Staking.sol\":1196:1214  Epoch public epoch */\n    tag_53:\n      sload(0x02)\n      sload(0x03)\n      sload(0x04)\n      sload(0x05)\n      dup5\n      jump\t// out\n        /* \"ExodusStaking/Staking.sol\":8824:8978  function setWarmupLength(uint256 _warmupPeriod) external onlyGovernor {... */\n    tag_56:\n        /* \"ExodusStaking/OlympusAccessControlled.sol\":672:681  authority */\n      0x01\n      0x00\n      swap1\n      sload\n      swap1\n      0x0100\n      exp\n      swap1\n      div\n      sub(shl(0xa0, 0x01), 0x01)\n      and\n      sub(shl(0xa0, 0x01), 0x01)\n        /* \"ExodusStaking/OlympusAccessControlled.sol\":672:690  authority.governor */\n      and\n      0x0c340a24\n        /* \"ExodusStaking/OlympusAccessControlled.sol\":672:692  authority.governor() */\n      mload(0x40)\n      dup2\n      0xffffffff\n      and\n      0xe0\n      shl\n      dup2\n      mstore\n      0x04\n      add\n      0x20\n      mload(0x40)\n      dup1\n      dup4\n      sub\n      dup2\n      dup7\n      dup1\n      extcodesize\n      iszero\n      dup1\n      iszero\n      tag_126\n      jumpi\n      0x00\n      dup1\n      revert\n    tag_126:\n      pop\n      gas\n      staticcall\n      iszero\n      dup1\n      iszero\n      tag_128\n      jumpi\n      returndatasize\n      0x00\n      dup1\n      returndatacopy\n      revert(0x00, returndatasize)\n    tag_128:\n      pop\n      pop\n      pop\n      pop\n      mload(0x40)\n      returndatasize\n      0x20\n      dup2\n      lt\n      iszero\n      tag_129\n      jumpi\n      0x00\n      dup1\n      revert\n    tag_129:\n      pop\n      mload\n        /* \"ExodusStaking/OlympusAccessControlled.sol\":694:706  UNAUTHORIZED */\n      0x00\n      swap1\n      sub(shl(0xa0, 0x01), 0x01)\n        /* \"ExodusStaking/OlympusAccessControlled.sol\":658:692  msg.sender == authority.governor() */\n      and\n        /* \"ExodusStaking/OlympusAccessControlled.sol\":658:668  msg.sender */\n      caller\n        /* \"ExodusStaking/OlympusAccessControlled.sol\":658:692  msg.sender == authority.governor() */\n      eq\n        /* \"ExodusStaking/OlympusAccessControlled.sol\":650:707  require(msg.sender == authority.governor(), UNAUTHORIZED) */\n      tag_130\n      jumpi\n      mload(0x40)\n      shl(0xe5, 0x461bcd)\n      dup2\n      mstore\n      0x20\n      0x04\n      dup3\n      add\n      swap1\n      dup2\n      mstore\n      dup3\n      sload\n      0x02\n      not(0x00)\n      0x0100\n      0x01\n      dup5\n      and\n      iszero\n      mul\n      add\n      swap1\n      swap2\n      and\n      div\n      0x24\n      dup4\n      add\n      dup2\n      swap1\n      mstore\n      swap1\n      swap2\n      dup3\n      swap2\n      0x44\n      swap1\n      swap2\n      add\n      swap1\n      dup5\n      swap1\n      dup1\n      iszero\n      tag_111\n      jumpi\n      dup1\n      0x1f\n      lt\n      tag_112\n      jumpi\n      0x0100\n      dup1\n      dup4\n      sload\n      div\n      mul\n      dup4\n      mstore\n      swap2\n      0x20\n      add\n      swap2\n      jump(tag_111)\n    tag_130:\n      pop\n        /* \"ExodusStaking/Staking.sol\":8904:8916  warmupPeriod */\n      0x08\n        /* \"ExodusStaking/Staking.sol\":8904:8932  warmupPeriod = _warmupPeriod */\n      dup2\n      swap1\n      sstore\n        /* \"ExodusStaking/Staking.sol\":8947:8971  WarmupSet(_warmupPeriod) */\n      0x40\n      dup1\n      mload\n      dup3\n      dup2\n      mstore\n      swap1\n      mload\n      0xac17d51c35ac71d3eddc155985908430e88946d51e2f6093e93c1c0aba08f6c4\n      swap2\n      dup2\n      swap1\n      sub\n      0x20\n      add\n      swap1\n      log1\n        /* \"ExodusStaking/Staking.sol\":8824:8978  function setWarmupLength(uint256 _warmupPeriod) external onlyGovernor {... */\n      pop\n      jump\t// out\n        /* \"ExodusStaking/Staking.sol\":3406:3906  function claim(address _to, bool _rebasing) public returns (uint256) {... */\n    tag_59:\n        /* \"ExodusStaking/Staking.sol\":3466:3473  uint256 */\n      0x00\n        /* \"ExodusStaking/Staking.sol\":3485:3502  Claim memory info */\n      tag_136\n      tag_137\n      jump\t// in\n    tag_136:\n      pop\n      sub(shl(0xa0, 0x01), 0x01)\n        /* \"ExodusStaking/Staking.sol\":3505:3520  warmupInfo[_to] */\n      dup4\n      and\n      0x00\n      swap1\n      dup2\n      mstore\n        /* \"ExodusStaking/Staking.sol\":3505:3515  warmupInfo */\n      0x07\n        /* \"ExodusStaking/Staking.sol\":3505:3520  warmupInfo[_to] */\n      0x20\n      swap1\n      dup2\n      mstore\n      0x40\n      swap2\n      dup3\n      swap1\n      keccak256\n        /* \"ExodusStaking/Staking.sol\":3485:3520  Claim memory info = warmupInfo[_to] */\n      dup3\n      mload\n      0x80\n      dup2\n      add\n      dup5\n      mstore\n      dup2\n      sload\n      dup2\n      mstore\n      0x01\n      dup3\n      add\n      sload\n      swap3\n      dup2\n      add\n      swap3\n      swap1\n      swap3\n      mstore\n      0x02\n      dup2\n      add\n      sload\n      swap3\n      dup3\n      add\n      swap3\n      swap1\n      swap3\n      mstore\n      0x03\n      swap1\n      swap2\n      add\n      sload\n      0xff\n      and\n      iszero\n      iszero\n      0x60\n      dup3\n      add\n      dup2\n      swap1\n      mstore\n        /* \"ExodusStaking/Staking.sol\":3531:3640  if (!info.lock) {... */\n      tag_139\n      jumpi\n      sub(shl(0xa0, 0x01), 0x01)\n        /* \"ExodusStaking/Staking.sol\":3569:3586  _to == msg.sender */\n      dup5\n      and\n        /* \"ExodusStaking/Staking.sol\":3576:3586  msg.sender */\n      caller\n        /* \"ExodusStaking/Staking.sol\":3569:3586  _to == msg.sender */\n      eq\n        /* \"ExodusStaking/Staking.sol\":3561:3629  require(_to == msg.sender, \"External claims for account are locked\") */\n      tag_139\n      jumpi\n      mload(0x40)\n      shl(0xe5, 0x461bcd)\n      dup2\n      mstore\n      0x04\n      add\n      dup1\n      dup1\n      0x20\n      add\n      dup3\n      dup2\n      sub\n      dup3\n      mstore\n      0x26\n      dup2\n      mstore\n      0x20\n      add\n      dup1\n      data_43aa02ab5eea52fb44fc938d9019bb1bb55aee488e80887fd4a80b880f5e0725\n      0x26\n      swap2\n      codecopy\n      0x40\n      add\n      swap2\n      pop\n      pop\n      mload(0x40)\n      dup1\n      swap2\n      sub\n      swap1\n      revert\n    tag_139:\n        /* \"ExodusStaking/Staking.sol\":3670:3681  info.expiry */\n      0x40\n      dup2\n      add\n      mload\n        /* \"ExodusStaking/Staking.sol\":3654:3666  epoch.number */\n      sload(0x03)\n        /* \"ExodusStaking/Staking.sol\":3654:3681  epoch.number >= info.expiry */\n      lt\n      dup1\n      iszero\n      swap1\n        /* \"ExodusStaking/Staking.sol\":3654:3701  epoch.number >= info.expiry && info.expiry != 0 */\n      tag_140\n      jumpi\n      pop\n        /* \"ExodusStaking/Staking.sol\":3685:3696  info.expiry */\n      0x40\n      dup2\n      add\n      mload\n        /* \"ExodusStaking/Staking.sol\":3685:3701  info.expiry != 0 */\n      iszero\n      iszero\n        /* \"ExodusStaking/Staking.sol\":3654:3701  epoch.number >= info.expiry && info.expiry != 0 */\n    tag_140:\n        /* \"ExodusStaking/Staking.sol\":3650:3882  if (epoch.number >= info.expiry && info.expiry != 0) {... */\n      iszero\n      tag_141\n      jumpi\n      sub(shl(0xa0, 0x01), 0x01)\n        /* \"ExodusStaking/Staking.sol\":3724:3739  warmupInfo[_to] */\n      dup5\n      and\n      0x00\n      swap1\n      dup2\n      mstore\n        /* \"ExodusStaking/Staking.sol\":3724:3734  warmupInfo */\n      0x07\n        /* \"ExodusStaking/Staking.sol\":3724:3739  warmupInfo[_to] */\n      0x20\n      swap1\n      dup2\n      mstore\n      0x40\n      dup3\n      keccak256\n        /* \"ExodusStaking/Staking.sol\":3717:3739  delete warmupInfo[_to] */\n      dup3\n      dup2\n      sstore\n      0x01\n      dup2\n      add\n      dup4\n      swap1\n      sstore\n      0x02\n      dup2\n      add\n      swap3\n      swap1\n      swap3\n      sstore\n      0x03\n      swap1\n      swap2\n      add\n      dup1\n      sload\n      not(0xff)\n      and\n      swap1\n      sstore\n        /* \"ExodusStaking/Staking.sol\":3786:3795  info.gons */\n      dup2\n      add\n      mload\n        /* \"ExodusStaking/Staking.sol\":3769:3781  gonsInWarmup */\n      sload(0x09)\n        /* \"ExodusStaking/Staking.sol\":3769:3796  gonsInWarmup.sub(info.gons) */\n      tag_142\n      swap2\n        /* \"ExodusStaking/Staking.sol\":3769:3785  gonsInWarmup.sub */\n      tag_143\n        /* \"ExodusStaking/Staking.sol\":3769:3796  gonsInWarmup.sub(info.gons) */\n      jump\t// in\n    tag_142:\n        /* \"ExodusStaking/Staking.sol\":3754:3766  gonsInWarmup */\n      0x09\n        /* \"ExodusStaking/Staking.sol\":3754:3796  gonsInWarmup = gonsInWarmup.sub(info.gons) */\n      dup2\n      swap1\n      sstore\n      pop\n        /* \"ExodusStaking/Staking.sol\":3818:3871  _send(_to, sEXO.balanceForGons(info.gons), _rebasing) */\n      tag_144\n        /* \"ExodusStaking/Staking.sol\":3824:3827  _to */\n      dup5\n        /* \"ExodusStaking/Staking.sol\":3829:3833  sEXO */\n      immutable(\"0x02f6903e55725b8fb1e67e68fc4dfbf8e90ced5ec278dfd2021debfe4c69d139\")\n      sub(shl(0xa0, 0x01), 0x01)\n        /* \"ExodusStaking/Staking.sol\":3829:3848  sEXO.balanceForGons */\n      and\n      0x7965d56d\n        /* \"ExodusStaking/Staking.sol\":3849:3853  info */\n      dup5\n        /* \"ExodusStaking/Staking.sol\":3849:3858  info.gons */\n      0x20\n      add\n      mload\n        /* \"ExodusStaking/Staking.sol\":3829:3859  sEXO.balanceForGons(info.gons) */\n      mload(0x40)\n      dup3\n      0xffffffff\n      and\n      0xe0\n      shl\n      dup2\n      mstore\n      0x04\n      add\n      dup1\n      dup3\n      dup2\n      mstore\n      0x20\n      add\n      swap2\n      pop\n      pop\n      0x20\n      mload(0x40)\n      dup1\n      dup4\n      sub\n      dup2\n      dup7\n      dup1\n      extcodesize\n      iszero\n      dup1\n      iszero\n      tag_145\n      jumpi\n      0x00\n      dup1\n      revert\n    tag_145:\n      pop\n      gas\n      staticcall\n      iszero\n      dup1\n      iszero\n      tag_147\n      jumpi\n      returndatasize\n      0x00\n      dup1\n      returndatacopy\n      revert(0x00, returndatasize)\n    tag_147:\n      pop\n      pop\n      pop\n      pop\n      mload(0x40)\n      returndatasize\n      0x20\n      dup2\n      lt\n      iszero\n      tag_148\n      jumpi\n      0x00\n      dup1\n      revert\n    tag_148:\n      pop\n      mload\n        /* \"ExodusStaking/Staking.sol\":3861:3870  _rebasing */\n      dup6\n        /* \"ExodusStaking/Staking.sol\":3818:3823  _send */\n      tag_149\n        /* \"ExodusStaking/Staking.sol\":3818:3871  _send(_to, sEXO.balanceForGons(info.gons), _rebasing) */\n      jump\t// in\n    tag_144:\n        /* \"ExodusStaking/Staking.sol\":3811:3871  return _send(_to, sEXO.balanceForGons(info.gons), _rebasing) */\n      swap2\n      pop\n      pop\n      jump(tag_103)\n        /* \"ExodusStaking/Staking.sol\":3650:3882  if (epoch.number >= info.expiry && info.expiry != 0) {... */\n    tag_141:\n      pop\n        /* \"ExodusStaking/Staking.sol\":3898:3899  0 */\n      0x00\n      swap4\n        /* \"ExodusStaking/Staking.sol\":3406:3906  function claim(address _to, bool _rebasing) public returns (uint256) {... */\n      swap3\n      pop\n      pop\n      pop\n      jump\t// out\n        /* \"ExodusStaking/Staking.sol\":8269:8385  function secondsToNextEpoch() external view returns (uint256) {... */\n    tag_61:\n        /* \"ExodusStaking/Staking.sol\":8348:8357  epoch.end */\n      sload(0x04)\n        /* \"ExodusStaking/Staking.sol\":8322:8329  uint256 */\n      0x00\n      swap1\n        /* \"ExodusStaking/Staking.sol\":8348:8378  epoch.end.sub(block.timestamp) */\n      tag_151\n      swap1\n        /* \"ExodusStaking/Staking.sol\":8362:8377  block.timestamp */\n      timestamp\n        /* \"ExodusStaking/Staking.sol\":8348:8361  epoch.end.sub */\n      tag_143\n        /* \"ExodusStaking/Staking.sol\":8348:8378  epoch.end.sub(block.timestamp) */\n      jump\t// in\n    tag_151:\n        /* \"ExodusStaking/Staking.sol\":8341:8378  return epoch.end.sub(block.timestamp) */\n      swap1\n      pop\n        /* \"ExodusStaking/Staking.sol\":8269:8385  function secondsToNextEpoch() external view returns (uint256) {... */\n      swap1\n      jump\t// out\n        /* \"ExodusStaking/Staking.sol\":4699:5461  function unstake(... */\n    tag_64:\n        /* \"ExodusStaking/Staking.sol\":4870:4877  _amount */\n      dup3\n        /* \"ExodusStaking/Staking.sol\":4833:4848  uint256 amount_ */\n      0x00\n        /* \"ExodusStaking/Staking.sol\":4911:4967  if (_trigger) {... */\n      dup4\n      iszero\n      tag_153\n      jumpi\n        /* \"ExodusStaking/Staking.sol\":4948:4956  rebase() */\n      tag_154\n        /* \"ExodusStaking/Staking.sol\":4948:4954  rebase */\n      tag_66\n        /* \"ExodusStaking/Staking.sol\":4948:4956  rebase() */\n      jump\t// in\n    tag_154:\n        /* \"ExodusStaking/Staking.sol\":4939:4956  bounty = rebase() */\n      swap1\n      pop\n        /* \"ExodusStaking/Staking.sol\":4911:4967  if (_trigger) {... */\n    tag_153:\n        /* \"ExodusStaking/Staking.sol\":4980:4989  _rebasing */\n      dup3\n        /* \"ExodusStaking/Staking.sol\":4976:5316  if (_rebasing) {... */\n      iszero\n      tag_155\n      jumpi\n        /* \"ExodusStaking/Staking.sol\":5005:5062  sEXO.safeTransferFrom(msg.sender, address(this), _amount) */\n      tag_156\n      sub(shl(0xa0, 0x01), 0x01)\n        /* \"ExodusStaking/Staking.sol\":5005:5009  sEXO */\n      immutable(\"0x02f6903e55725b8fb1e67e68fc4dfbf8e90ced5ec278dfd2021debfe4c69d139\")\n        /* \"ExodusStaking/Staking.sol\":5005:5026  sEXO.safeTransferFrom */\n      and\n        /* \"ExodusStaking/Staking.sol\":5027:5037  msg.sender */\n      caller\n        /* \"ExodusStaking/Staking.sol\":5047:5051  this */\n      address\n        /* \"ExodusStaking/Staking.sol\":5054:5061  _amount */\n      dup9\n        /* \"ExodusStaking/Staking.sol\":5005:5026  sEXO.safeTransferFrom */\n      tag_157\n        /* \"ExodusStaking/Staking.sol\":5005:5062  sEXO.safeTransferFrom(msg.sender, address(this), _amount) */\n      jump\t// in\n    tag_156:\n        /* \"ExodusStaking/Staking.sol\":5086:5105  amount_.add(bounty) */\n      tag_158\n        /* \"ExodusStaking/Staking.sol\":5086:5093  amount_ */\n      dup3\n        /* \"ExodusStaking/Staking.sol\":5098:5104  bounty */\n      dup3\n        /* \"ExodusStaking/Staking.sol\":5086:5097  amount_.add */\n      tag_159\n        /* \"ExodusStaking/Staking.sol\":5086:5105  amount_.add(bounty) */\n      jump\t// in\n    tag_158:\n        /* \"ExodusStaking/Staking.sol\":5076:5105  amount_ = amount_.add(bounty) */\n      swap2\n      pop\n        /* \"ExodusStaking/Staking.sol\":4976:5316  if (_rebasing) {... */\n      jump(tag_160)\n    tag_155:\n        /* \"ExodusStaking/Staking.sol\":5136:5166  gEXO.burn(msg.sender, _amount) */\n      0x40\n      dup1\n      mload\n      0x9dc29fac00000000000000000000000000000000000000000000000000000000\n      dup2\n      mstore\n        /* \"ExodusStaking/Staking.sol\":5146:5156  msg.sender */\n      caller\n        /* \"ExodusStaking/Staking.sol\":5136:5166  gEXO.burn(msg.sender, _amount) */\n      0x04\n      dup3\n      add\n      mstore\n      0x24\n      dup2\n      add\n      dup8\n      swap1\n      mstore\n      swap1\n      mload\n      sub(shl(0xa0, 0x01), 0x01)\n        /* \"ExodusStaking/Staking.sol\":5136:5140  gEXO */\n      immutable(\"0xa9903e230a4a4f2af602b37c0f984d2b43537f89ce9d4cfbf1232e27c498bd38\")\n        /* \"ExodusStaking/Staking.sol\":5136:5145  gEXO.burn */\n      and\n      swap2\n      0x9dc29fac\n      swap2\n        /* \"ExodusStaking/Staking.sol\":5136:5166  gEXO.burn(msg.sender, _amount) */\n      0x44\n      dup1\n      dup4\n      add\n      swap3\n      0x00\n      swap3\n      swap2\n      swap1\n      dup3\n      swap1\n      sub\n      add\n      dup2\n      dup4\n        /* \"ExodusStaking/Staking.sol\":5136:5145  gEXO.burn */\n      dup8\n        /* \"ExodusStaking/Staking.sol\":5136:5166  gEXO.burn(msg.sender, _amount) */\n      dup1\n      extcodesize\n      iszero\n      dup1\n      iszero\n      tag_161\n      jumpi\n      0x00\n      dup1\n      revert\n    tag_161:\n      pop\n      gas\n      call\n      iszero\n      dup1\n      iszero\n      tag_163\n      jumpi\n      returndatasize\n      0x00\n      dup1\n      returndatacopy\n      revert(0x00, returndatasize)\n    tag_163:\n      pop\n      pop\n      pop\n      pop\n        /* \"ExodusStaking/Staking.sol\":5224:5261  gEXO.balanceFrom(amount_).add(bounty) */\n      tag_164\n        /* \"ExodusStaking/Staking.sol\":5254:5260  bounty */\n      dup2\n        /* \"ExodusStaking/Staking.sol\":5224:5228  gEXO */\n      immutable(\"0xa9903e230a4a4f2af602b37c0f984d2b43537f89ce9d4cfbf1232e27c498bd38\")\n      sub(shl(0xa0, 0x01), 0x01)\n        /* \"ExodusStaking/Staking.sol\":5224:5240  gEXO.balanceFrom */\n      and\n      0xa8248768\n        /* \"ExodusStaking/Staking.sol\":5241:5248  amount_ */\n      dup6\n        /* \"ExodusStaking/Staking.sol\":5224:5249  gEXO.balanceFrom(amount_) */\n      mload(0x40)\n      dup3\n      0xffffffff\n      and\n      0xe0\n      shl\n      dup2\n      mstore\n      0x04\n      add\n      dup1\n      dup3\n      dup2\n      mstore\n      0x20\n      add\n      swap2\n      pop\n      pop\n      0x20\n      mload(0x40)\n      dup1\n      dup4\n      sub\n      dup2\n      dup7\n      dup1\n      extcodesize\n      iszero\n      dup1\n      iszero\n      tag_165\n      jumpi\n      0x00\n      dup1\n      revert\n    tag_165:\n      pop\n      gas\n      staticcall\n      iszero\n      dup1\n      iszero\n      tag_167\n      jumpi\n      returndatasize\n      0x00\n      dup1\n      returndatacopy\n      revert(0x00, returndatasize)\n    tag_167:\n      pop\n      pop\n      pop\n      pop\n      mload(0x40)\n      returndatasize\n      0x20\n      dup2\n      lt\n      iszero\n      tag_168\n      jumpi\n      0x00\n      dup1\n      revert\n    tag_168:\n      pop\n      mload\n      swap1\n        /* \"ExodusStaking/Staking.sol\":5224:5253  gEXO.balanceFrom(amount_).add */\n      tag_159\n        /* \"ExodusStaking/Staking.sol\":5224:5261  gEXO.balanceFrom(amount_).add(bounty) */\n      jump\t// in\n    tag_164:\n        /* \"ExodusStaking/Staking.sol\":5214:5261  amount_ = gEXO.balanceFrom(amount_).add(bounty) */\n      swap2\n      pop\n        /* \"ExodusStaking/Staking.sol\":4976:5316  if (_rebasing) {... */\n    tag_160:\n        /* \"ExodusStaking/Staking.sol\":5345:5373  EXO.balanceOf(address(this)) */\n      0x40\n      dup1\n      mload\n      0x70a0823100000000000000000000000000000000000000000000000000000000\n      dup2\n      mstore\n        /* \"ExodusStaking/Staking.sol\":5367:5371  this */\n      address\n        /* \"ExodusStaking/Staking.sol\":5345:5373  EXO.balanceOf(address(this)) */\n      0x04\n      dup3\n      add\n      mstore\n      swap1\n      mload\n      sub(shl(0xa0, 0x01), 0x01)\n        /* \"ExodusStaking/Staking.sol\":5345:5348  EXO */\n      immutable(\"0x2d33c78d31145fca68253afe9b24c771b7d614064b9f8dc2c55b30419d3466f1\")\n        /* \"ExodusStaking/Staking.sol\":5345:5358  EXO.balanceOf */\n      and\n      swap2\n      0x70a08231\n      swap2\n        /* \"ExodusStaking/Staking.sol\":5345:5373  EXO.balanceOf(address(this)) */\n      0x24\n      dup1\n      dup4\n      add\n      swap3\n      0x20\n      swap3\n      swap2\n      swap1\n      dup3\n      swap1\n      sub\n      add\n      dup2\n        /* \"ExodusStaking/Staking.sol\":5345:5358  EXO.balanceOf */\n      dup7\n        /* \"ExodusStaking/Staking.sol\":5345:5373  EXO.balanceOf(address(this)) */\n      dup1\n      extcodesize\n      iszero\n      dup1\n      iszero\n      tag_169\n      jumpi\n      0x00\n      dup1\n      revert\n    tag_169:\n      pop\n      gas\n      staticcall\n      iszero\n      dup1\n      iszero\n      tag_171\n      jumpi\n      returndatasize\n      0x00\n      dup1\n      returndatacopy\n      revert(0x00, returndatasize)\n    tag_171:\n      pop\n      pop\n      pop\n      pop\n      mload(0x40)\n      returndatasize\n      0x20\n      dup2\n      lt\n      iszero\n      tag_172\n      jumpi\n      0x00\n      dup1\n      revert\n    tag_172:\n      pop\n      mload\n        /* \"ExodusStaking/Staking.sol\":5334:5373  amount_ <= EXO.balanceOf(address(this)) */\n      dup3\n      gt\n      iszero\n        /* \"ExodusStaking/Staking.sol\":5326:5414  require(amount_ <= EXO.balanceOf(address(this)), \"Insufficient OHM balance in contract\") */\n      tag_173\n      jumpi\n      mload(0x40)\n      shl(0xe5, 0x461bcd)\n      dup2\n      mstore\n      0x04\n      add\n      dup1\n      dup1\n      0x20\n      add\n      dup3\n      dup2\n      sub\n      dup3\n      mstore\n      0x24\n      dup2\n      mstore\n      0x20\n      add\n      dup1\n      data_564ce9fad3eed3b50e27949033ab6c26680c5d0faf1deb6d574a44cb3005eeba\n      0x24\n      swap2\n      codecopy\n      0x40\n      add\n      swap2\n      pop\n      pop\n      mload(0x40)\n      dup1\n      swap2\n      sub\n      swap1\n      revert\n    tag_173:\n        /* \"ExodusStaking/Staking.sol\":5424:5454  EXO.safeTransfer(_to, amount_) */\n      tag_174\n      sub(shl(0xa0, 0x01), 0x01)\n        /* \"ExodusStaking/Staking.sol\":5424:5427  EXO */\n      immutable(\"0x2d33c78d31145fca68253afe9b24c771b7d614064b9f8dc2c55b30419d3466f1\")\n        /* \"ExodusStaking/Staking.sol\":5424:5440  EXO.safeTransfer */\n      and\n        /* \"ExodusStaking/Staking.sol\":5441:5444  _to */\n      dup8\n        /* \"ExodusStaking/Staking.sol\":5446:5453  amount_ */\n      dup5\n        /* \"ExodusStaking/Staking.sol\":5424:5440  EXO.safeTransfer */\n      tag_104\n        /* \"ExodusStaking/Staking.sol\":5424:5454  EXO.safeTransfer(_to, amount_) */\n      jump\t// in\n    tag_174:\n        /* \"ExodusStaking/Staking.sol\":4699:5461  function unstake(... */\n      pop\n      swap5\n      swap4\n      pop\n      pop\n      pop\n      pop\n      jump\t// out\n        /* \"ExodusStaking/Staking.sol\":6327:7148  function rebase() public returns (uint256) {... */\n    tag_66:\n        /* \"ExodusStaking/Staking.sol\":6361:6368  uint256 */\n      0x00\n        /* \"ExodusStaking/Staking.sol\":6380:6394  uint256 bounty */\n      dup1\n        /* \"ExodusStaking/Staking.sol\":6421:6436  block.timestamp */\n      timestamp\n        /* \"ExodusStaking/Staking.sol\":6408:6413  epoch */\n      0x02\n        /* \"ExodusStaking/Staking.sol\":6408:6417  epoch.end */\n      dup1\n      add\n      sload\n        /* \"ExodusStaking/Staking.sol\":6408:6436  epoch.end <= block.timestamp */\n      gt\n        /* \"ExodusStaking/Staking.sol\":6404:7119  if (epoch.end <= block.timestamp) {... */\n      tag_151\n      jumpi\n        /* \"ExodusStaking/Staking.sol\":6452:6456  sEXO */\n      immutable(\"0x02f6903e55725b8fb1e67e68fc4dfbf8e90ced5ec278dfd2021debfe4c69d139\")\n      sub(shl(0xa0, 0x01), 0x01)\n        /* \"ExodusStaking/Staking.sol\":6452:6463  sEXO.rebase */\n      and\n      0x058ecdb4\n        /* \"ExodusStaking/Staking.sol\":6464:6469  epoch */\n      0x02\n        /* \"ExodusStaking/Staking.sol\":6464:6480  epoch.distribute */\n      0x03\n      add\n      sload\n        /* \"ExodusStaking/Staking.sol\":6482:6487  epoch */\n      0x02\n        /* \"ExodusStaking/Staking.sol\":6482:6494  epoch.number */\n      0x01\n      add\n      sload\n        /* \"ExodusStaking/Staking.sol\":6452:6495  sEXO.rebase(epoch.distribute, epoch.number) */\n      mload(0x40)\n      dup4\n      0xffffffff\n      and\n      0xe0\n      shl\n      dup2\n      mstore\n      0x04\n      add\n      dup1\n      dup4\n      dup2\n      mstore\n      0x20\n      add\n      dup3\n      dup2\n      mstore\n      0x20\n      add\n      swap3\n      pop\n      pop\n      pop\n      0x20\n      mload(0x40)\n      dup1\n      dup4\n      sub\n      dup2\n      0x00\n      dup8\n      dup1\n      extcodesize\n      iszero\n      dup1\n      iszero\n      tag_177\n      jumpi\n      0x00\n      dup1\n      revert\n    tag_177:\n      pop\n      gas\n      call\n      iszero\n      dup1\n      iszero\n      tag_179\n      jumpi\n      returndatasize\n      0x00\n      dup1\n      returndatacopy\n      revert(0x00, returndatasize)\n    tag_179:\n      pop\n      pop\n      pop\n      pop\n      mload(0x40)\n      returndatasize\n      0x20\n      dup2\n      lt\n      iszero\n      tag_180\n      jumpi\n      0x00\n      dup1\n      revert\n    tag_180:\n      pop\n      pop\n        /* \"ExodusStaking/Staking.sol\":6536:6541  epoch */\n      0x02\n        /* \"ExodusStaking/Staking.sol\":6536:6548  epoch.length */\n      sload\n        /* \"ExodusStaking/Staking.sol\":6522:6531  epoch.end */\n      sload(0x04)\n        /* \"ExodusStaking/Staking.sol\":6522:6549  epoch.end.add(epoch.length) */\n      tag_181\n      swap2\n        /* \"ExodusStaking/Staking.sol\":6522:6535  epoch.end.add */\n      tag_159\n        /* \"ExodusStaking/Staking.sol\":6522:6549  epoch.end.add(epoch.length) */\n      jump\t// in\n    tag_181:\n        /* \"ExodusStaking/Staking.sol\":6510:6519  epoch.end */\n      0x04\n        /* \"ExodusStaking/Staking.sol\":6510:6549  epoch.end = epoch.end.add(epoch.length) */\n      sstore\n        /* \"ExodusStaking/Staking.sol\":6563:6575  epoch.number */\n      0x03\n        /* \"ExodusStaking/Staking.sol\":6563:6577  epoch.number++ */\n      dup1\n      sload\n        /* \"ExodusStaking/Staking.sol\":6563:6575  epoch.number */\n      0x01\n        /* \"ExodusStaking/Staking.sol\":6563:6577  epoch.number++ */\n      add\n      swap1\n      sstore\n        /* \"ExodusStaking/Staking.sol\":6604:6615  distributor */\n      and(sub(shl(0xa0, 0x01), 0x01), sload(0x06))\n        /* \"ExodusStaking/Staking.sol\":6596:6630  address(distributor) != address(0) */\n      iszero\n        /* \"ExodusStaking/Staking.sol\":6592:6804  if (address(distributor) != address(0)) {... */\n      tag_182\n      jumpi\n        /* \"ExodusStaking/Staking.sol\":6650:6661  distributor */\n      0x06\n      0x00\n      swap1\n      sload\n      swap1\n      0x0100\n      exp\n      swap1\n      div\n      sub(shl(0xa0, 0x01), 0x01)\n      and\n      sub(shl(0xa0, 0x01), 0x01)\n        /* \"ExodusStaking/Staking.sol\":6650:6672  distributor.distribute */\n      and\n      0xe4fc6b6d\n        /* \"ExodusStaking/Staking.sol\":6650:6674  distributor.distribute() */\n      mload(0x40)\n      dup2\n      0xffffffff\n      and\n      0xe0\n      shl\n      dup2\n      mstore\n      0x04\n      add\n      0x00\n      mload(0x40)\n      dup1\n      dup4\n      sub\n      dup2\n      0x00\n      dup8\n      dup1\n      extcodesize\n      iszero\n      dup1\n      iszero\n      tag_183\n      jumpi\n      0x00\n      dup1\n      revert\n    tag_183:\n      pop\n      gas\n      call\n      iszero\n      dup1\n      iszero\n      tag_185\n      jumpi\n      returndatasize\n      0x00\n      dup1\n      returndatacopy\n      revert(0x00, returndatasize)\n    tag_185:\n      pop\n      pop\n      pop\n      pop\n        /* \"ExodusStaking/Staking.sol\":6701:6712  distributor */\n      0x06\n      0x00\n      swap1\n      sload\n      swap1\n      0x0100\n      exp\n      swap1\n      div\n      sub(shl(0xa0, 0x01), 0x01)\n      and\n      sub(shl(0xa0, 0x01), 0x01)\n        /* \"ExodusStaking/Staking.sol\":6701:6727  distributor.retrieveBounty */\n      and\n      0xe7187e8a\n        /* \"ExodusStaking/Staking.sol\":6701:6729  distributor.retrieveBounty() */\n      mload(0x40)\n      dup2\n      0xffffffff\n      and\n      0xe0\n      shl\n      dup2\n      mstore\n      0x04\n      add\n      0x20\n      mload(0x40)\n      dup1\n      dup4\n      sub\n      dup2\n      0x00\n      dup8\n      dup1\n      extcodesize\n      iszero\n      dup1\n      iszero\n      tag_186\n      jumpi\n      0x00\n      dup1\n      revert\n    tag_186:\n      pop\n      gas\n      call\n      iszero\n      dup1\n      iszero\n      tag_188\n      jumpi\n      returndatasize\n      0x00\n      dup1\n      returndatacopy\n      revert(0x00, returndatasize)\n    tag_188:\n      pop\n      pop\n      pop\n      pop\n      mload(0x40)\n      returndatasize\n      0x20\n      dup2\n      lt\n      iszero\n      tag_189\n      jumpi\n      0x00\n      dup1\n      revert\n    tag_189:\n      pop\n      mload\n      swap1\n      pop\n        /* \"ExodusStaking/Staking.sol\":6592:6804  if (address(distributor) != address(0)) {... */\n    tag_182:\n        /* \"ExodusStaking/Staking.sol\":6817:6832  uint256 balance */\n      0x00\n        /* \"ExodusStaking/Staking.sol\":6835:6838  EXO */\n      immutable(\"0x2d33c78d31145fca68253afe9b24c771b7d614064b9f8dc2c55b30419d3466f1\")\n      sub(shl(0xa0, 0x01), 0x01)\n        /* \"ExodusStaking/Staking.sol\":6835:6848  EXO.balanceOf */\n      and\n      0x70a08231\n        /* \"ExodusStaking/Staking.sol\":6857:6861  this */\n      address\n        /* \"ExodusStaking/Staking.sol\":6835:6863  EXO.balanceOf(address(this)) */\n      mload(0x40)\n      dup3\n      0xffffffff\n      and\n      0xe0\n      shl\n      dup2\n      mstore\n      0x04\n      add\n      dup1\n      dup3\n      sub(shl(0xa0, 0x01), 0x01)\n      and\n      dup2\n      mstore\n      0x20\n      add\n      swap2\n      pop\n      pop\n      0x20\n      mload(0x40)\n      dup1\n      dup4\n      sub\n      dup2\n      dup7\n      dup1\n      extcodesize\n      iszero\n      dup1\n      iszero\n      tag_190\n      jumpi\n      0x00\n      dup1\n      revert\n    tag_190:\n      pop\n      gas\n      staticcall\n      iszero\n      dup1\n      iszero\n      tag_192\n      jumpi\n      returndatasize\n      0x00\n      dup1\n      returndatacopy\n      revert(0x00, returndatasize)\n    tag_192:\n      pop\n      pop\n      pop\n      pop\n      mload(0x40)\n      returndatasize\n      0x20\n      dup2\n      lt\n      iszero\n      tag_193\n      jumpi\n      0x00\n      dup1\n      revert\n    tag_193:\n      pop\n      mload\n        /* \"ExodusStaking/Staking.sol\":6894:6918  sEXO.circulatingSupply() */\n      0x40\n      dup1\n      mload\n      0x9358928b00000000000000000000000000000000000000000000000000000000\n      dup2\n      mstore\n      swap1\n      mload\n        /* \"ExodusStaking/Staking.sol\":6835:6863  EXO.balanceOf(address(this)) */\n      swap2\n      swap3\n      pop\n        /* \"ExodusStaking/Staking.sol\":6877:6891  uint256 staked */\n      0x00\n      swap2\n      sub(shl(0xa0, 0x01), 0x01)\n        /* \"ExodusStaking/Staking.sol\":6894:6898  sEXO */\n      immutable(\"0x02f6903e55725b8fb1e67e68fc4dfbf8e90ced5ec278dfd2021debfe4c69d139\")\n        /* \"ExodusStaking/Staking.sol\":6894:6916  sEXO.circulatingSupply */\n      and\n      swap2\n      0x9358928b\n      swap2\n        /* \"ExodusStaking/Staking.sol\":6894:6918  sEXO.circulatingSupply() */\n      0x04\n      dup1\n      dup4\n      add\n      swap3\n        /* \"ExodusStaking/Staking.sol\":6835:6863  EXO.balanceOf(address(this)) */\n      0x20\n      swap3\n        /* \"ExodusStaking/Staking.sol\":6894:6918  sEXO.circulatingSupply() */\n      swap2\n      swap1\n      dup3\n      swap1\n      sub\n      add\n      dup2\n        /* \"ExodusStaking/Staking.sol\":6894:6916  sEXO.circulatingSupply */\n      dup7\n        /* \"ExodusStaking/Staking.sol\":6894:6918  sEXO.circulatingSupply() */\n      dup1\n      extcodesize\n      iszero\n      dup1\n      iszero\n      tag_194\n      jumpi\n      0x00\n      dup1\n      revert\n    tag_194:\n      pop\n      gas\n      staticcall\n      iszero\n      dup1\n      iszero\n      tag_196\n      jumpi\n      returndatasize\n      0x00\n      dup1\n      returndatacopy\n      revert(0x00, returndatasize)\n    tag_196:\n      pop\n      pop\n      pop\n      pop\n      mload(0x40)\n      returndatasize\n      0x20\n      dup2\n      lt\n      iszero\n      tag_197\n      jumpi\n      0x00\n      dup1\n      revert\n    tag_197:\n      pop\n      mload\n      swap1\n      pop\n        /* \"ExodusStaking/Staking.sol\":6947:6965  staked.add(bounty) */\n      tag_198\n        /* \"ExodusStaking/Staking.sol\":6894:6918  sEXO.circulatingSupply() */\n      dup2\n        /* \"ExodusStaking/Staking.sol\":6958:6964  bounty */\n      dup5\n        /* \"ExodusStaking/Staking.sol\":6947:6957  staked.add */\n      tag_159\n        /* \"ExodusStaking/Staking.sol\":6947:6965  staked.add(bounty) */\n      jump\t// in\n    tag_198:\n        /* \"ExodusStaking/Staking.sol\":6936:6943  balance */\n      dup3\n        /* \"ExodusStaking/Staking.sol\":6936:6965  balance <= staked.add(bounty) */\n      gt\n        /* \"ExodusStaking/Staking.sol\":6932:7109  if (balance <= staked.add(bounty)) {... */\n      tag_199\n      jumpi\n        /* \"ExodusStaking/Staking.sol\":7004:7005  0 */\n      0x00\n        /* \"ExodusStaking/Staking.sol\":6985:7001  epoch.distribute */\n      0x05\n        /* \"ExodusStaking/Staking.sol\":6985:7005  epoch.distribute = 0 */\n      sstore\n        /* \"ExodusStaking/Staking.sol\":6932:7109  if (balance <= staked.add(bounty)) {... */\n      jump(tag_200)\n    tag_199:\n        /* \"ExodusStaking/Staking.sol\":7063:7094  balance.sub(staked).sub(bounty) */\n      tag_201\n        /* \"ExodusStaking/Staking.sol\":7087:7093  bounty */\n      dup4\n        /* \"ExodusStaking/Staking.sol\":7063:7082  balance.sub(staked) */\n      tag_202\n        /* \"ExodusStaking/Staking.sol\":7063:7070  balance */\n      dup5\n        /* \"ExodusStaking/Staking.sol\":7075:7081  staked */\n      dup5\n        /* \"ExodusStaking/Staking.sol\":7063:7074  balance.sub */\n      tag_143\n        /* \"ExodusStaking/Staking.sol\":7063:7082  balance.sub(staked) */\n      jump\t// in\n    tag_202:\n        /* \"ExodusStaking/Staking.sol\":7063:7086  balance.sub(staked).sub */\n      swap1\n      tag_143\n        /* \"ExodusStaking/Staking.sol\":7063:7094  balance.sub(staked).sub(bounty) */\n      jump\t// in\n    tag_201:\n        /* \"ExodusStaking/Staking.sol\":7044:7060  epoch.distribute */\n      0x05\n        /* \"ExodusStaking/Staking.sol\":7044:7094  epoch.distribute = balance.sub(staked).sub(bounty) */\n      sstore\n        /* \"ExodusStaking/Staking.sol\":6932:7109  if (balance <= staked.add(bounty)) {... */\n    tag_200:\n        /* \"ExodusStaking/Staking.sol\":6404:7119  if (epoch.end <= block.timestamp) {... */\n      pop\n      pop\n        /* \"ExodusStaking/Staking.sol\":7135:7141  bounty */\n      swap1\n      pop\n        /* \"ExodusStaking/Staking.sol\":6327:7148  function rebase() public returns (uint256) {... */\n      swap1\n      jump\t// out\n        /* \"ExodusStaking/Staking.sol\":1096:1123  IERC20 public immutable EXO */\n    tag_68:\n      immutable(\"0x2d33c78d31145fca68253afe9b24c771b7d614064b9f8dc2c55b30419d3466f1\")\n      dup2\n      jump\t// out\n        /* \"ExodusStaking/Staking.sol\":5622:5857  function wrap(address _to, uint256 _amount) external returns (uint256 gBalance_) {... */\n    tag_71:\n        /* \"ExodusStaking/Staking.sol\":5684:5701  uint256 gBalance_ */\n      0x00\n        /* \"ExodusStaking/Staking.sol\":5713:5770  sEXO.safeTransferFrom(msg.sender, address(this), _amount) */\n      tag_204\n      sub(shl(0xa0, 0x01), 0x01)\n        /* \"ExodusStaking/Staking.sol\":5713:5717  sEXO */\n      immutable(\"0x02f6903e55725b8fb1e67e68fc4dfbf8e90ced5ec278dfd2021debfe4c69d139\")\n        /* \"ExodusStaking/Staking.sol\":5713:5734  sEXO.safeTransferFrom */\n      and\n        /* \"ExodusStaking/Staking.sol\":5735:5745  msg.sender */\n      caller\n        /* \"ExodusStaking/Staking.sol\":5755:5759  this */\n      address\n        /* \"ExodusStaking/Staking.sol\":5762:5769  _amount */\n      dup6\n        /* \"ExodusStaking/Staking.sol\":5713:5734  sEXO.safeTransferFrom */\n      tag_157\n        /* \"ExodusStaking/Staking.sol\":5713:5770  sEXO.safeTransferFrom(msg.sender, address(this), _amount) */\n      jump\t// in\n    tag_204:\n        /* \"ExodusStaking/Staking.sol\":5792:5796  gEXO */\n      immutable(\"0xa9903e230a4a4f2af602b37c0f984d2b43537f89ce9d4cfbf1232e27c498bd38\")\n      sub(shl(0xa0, 0x01), 0x01)\n        /* \"ExodusStaking/Staking.sol\":5792:5806  gEXO.balanceTo */\n      and\n      0x66a5236c\n        /* \"ExodusStaking/Staking.sol\":5807:5814  _amount */\n      dup4\n        /* \"ExodusStaking/Staking.sol\":5792:5815  gEXO.balanceTo(_amount) */\n      mload(0x40)\n      dup3\n      0xffffffff\n      and\n      0xe0\n      shl\n      dup2\n      mstore\n      0x04\n      add\n      dup1\n      dup3\n      dup2\n      mstore\n      0x20\n      add\n      swap2\n      pop\n      pop\n      0x20\n      mload(0x40)\n      dup1\n      dup4\n      sub\n      dup2\n      dup7\n      dup1\n      extcodesize\n      iszero\n      dup1\n      iszero\n      tag_205\n      jumpi\n      0x00\n      dup1\n      revert\n    tag_205:\n      pop\n      gas\n      staticcall\n      iszero\n      dup1\n      iszero\n      tag_207\n      jumpi\n      returndatasize\n      0x00\n      dup1\n      returndatacopy\n      revert(0x00, returndatasize)\n    tag_207:\n      pop\n      pop\n      pop\n      pop\n      mload(0x40)\n      returndatasize\n      0x20\n      dup2\n      lt\n      iszero\n      tag_208\n      jumpi\n      0x00\n      dup1\n      revert\n    tag_208:\n      pop\n      mload\n        /* \"ExodusStaking/Staking.sol\":5825:5850  gEXO.mint(_to, gBalance_) */\n      0x40\n      dup1\n      mload\n      0x40c10f1900000000000000000000000000000000000000000000000000000000\n      dup2\n      mstore\n      sub(shl(0xa0, 0x01), 0x01)\n      dup7\n      dup2\n      and\n      0x04\n      dup4\n      add\n      mstore\n      0x24\n      dup3\n      add\n      dup5\n      swap1\n      mstore\n      swap2\n      mload\n        /* \"ExodusStaking/Staking.sol\":5792:5815  gEXO.balanceTo(_amount) */\n      swap3\n      swap4\n      pop\n        /* \"ExodusStaking/Staking.sol\":5825:5829  gEXO */\n      immutable(\"0xa9903e230a4a4f2af602b37c0f984d2b43537f89ce9d4cfbf1232e27c498bd38\")\n        /* \"ExodusStaking/Staking.sol\":5825:5834  gEXO.mint */\n      swap1\n      swap2\n      and\n      swap2\n      0x40c10f19\n      swap2\n        /* \"ExodusStaking/Staking.sol\":5825:5850  gEXO.mint(_to, gBalance_) */\n      0x44\n      dup1\n      dup3\n      add\n      swap3\n      0x00\n      swap3\n      swap1\n      swap2\n      swap1\n      dup3\n      swap1\n      sub\n      add\n      dup2\n      dup4\n        /* \"ExodusStaking/Staking.sol\":5825:5834  gEXO.mint */\n      dup8\n        /* \"ExodusStaking/Staking.sol\":5825:5850  gEXO.mint(_to, gBalance_) */\n      dup1\n      extcodesize\n      iszero\n      dup1\n      iszero\n      tag_209\n      jumpi\n      0x00\n      dup1\n      revert\n    tag_209:\n      pop\n      gas\n      call\n      iszero\n      dup1\n      iszero\n      tag_211\n      jumpi\n      returndatasize\n      0x00\n      dup1\n      returndatacopy\n      revert(0x00, returndatasize)\n    tag_211:\n      pop\n      pop\n      pop\n      pop\n        /* \"ExodusStaking/Staking.sol\":5622:5857  function wrap(address _to, uint256 _amount) external returns (uint256 gBalance_) {... */\n      swap3\n      swap2\n      pop\n      pop\n      jump\t// out\n        /* \"ExodusStaking/OlympusAccessControlled.sol\":359:392  IExodusAuthority public authority */\n    tag_73:\n      and(sub(shl(0xa0, 0x01), 0x01), sload(0x01))\n      dup2\n      jump\t// out\n        /* \"ExodusStaking/Staking.sol\":1221:1252  IDistributor public distributor */\n    tag_75:\n      and(sub(shl(0xa0, 0x01), 0x01), sload(0x06))\n      dup2\n      jump\t// out\n        /* \"ExodusStaking/Staking.sol\":2312:3267  function stake(... */\n    tag_78:\n        /* \"ExodusStaking/Staking.sol\":2442:2449  uint256 */\n      0x00\n        /* \"ExodusStaking/Staking.sol\":2461:2517  EXO.safeTransferFrom(msg.sender, address(this), _amount) */\n      tag_213\n      sub(shl(0xa0, 0x01), 0x01)\n        /* \"ExodusStaking/Staking.sol\":2461:2464  EXO */\n      immutable(\"0x2d33c78d31145fca68253afe9b24c771b7d614064b9f8dc2c55b30419d3466f1\")\n        /* \"ExodusStaking/Staking.sol\":2461:2481  EXO.safeTransferFrom */\n      and\n        /* \"ExodusStaking/Staking.sol\":2482:2492  msg.sender */\n      caller\n        /* \"ExodusStaking/Staking.sol\":2502:2506  this */\n      address\n        /* \"ExodusStaking/Staking.sol\":2509:2516  _amount */\n      dup8\n        /* \"ExodusStaking/Staking.sol\":2461:2481  EXO.safeTransferFrom */\n      tag_157\n        /* \"ExodusStaking/Staking.sol\":2461:2517  EXO.safeTransferFrom(msg.sender, address(this), _amount) */\n      jump\t// in\n    tag_213:\n        /* \"ExodusStaking/Staking.sol\":2537:2558  _amount.add(rebase()) */\n      tag_214\n        /* \"ExodusStaking/Staking.sol\":2549:2557  rebase() */\n      tag_215\n        /* \"ExodusStaking/Staking.sol\":2549:2555  rebase */\n      tag_66\n        /* \"ExodusStaking/Staking.sol\":2549:2557  rebase() */\n      jump\t// in\n    tag_215:\n        /* \"ExodusStaking/Staking.sol\":2537:2544  _amount */\n      dup6\n      swap1\n        /* \"ExodusStaking/Staking.sol\":2537:2548  _amount.add */\n      tag_159\n        /* \"ExodusStaking/Staking.sol\":2537:2558  _amount.add(rebase()) */\n      jump\t// in\n    tag_214:\n        /* \"ExodusStaking/Staking.sol\":2527:2558  _amount = _amount.add(rebase()) */\n      swap4\n      pop\n        /* \"ExodusStaking/Staking.sol\":2605:2611  _claim */\n      dup2\n        /* \"ExodusStaking/Staking.sol\":2605:2632  _claim && warmupPeriod == 0 */\n      dup1\n      iszero\n      tag_216\n      jumpi\n      pop\n        /* \"ExodusStaking/Staking.sol\":2615:2627  warmupPeriod */\n      sload(0x08)\n        /* \"ExodusStaking/Staking.sol\":2615:2632  warmupPeriod == 0 */\n      iszero\n        /* \"ExodusStaking/Staking.sol\":2605:2632  _claim && warmupPeriod == 0 */\n    tag_216:\n        /* \"ExodusStaking/Staking.sol\":2601:3261  if (_claim && warmupPeriod == 0) {... */\n      iszero\n      tag_217\n      jumpi\n        /* \"ExodusStaking/Staking.sol\":2655:2685  _send(_to, _amount, _rebasing) */\n      tag_218\n        /* \"ExodusStaking/Staking.sol\":2661:2664  _to */\n      dup6\n        /* \"ExodusStaking/Staking.sol\":2666:2673  _amount */\n      dup6\n        /* \"ExodusStaking/Staking.sol\":2675:2684  _rebasing */\n      dup6\n        /* \"ExodusStaking/Staking.sol\":2655:2660  _send */\n      tag_149\n        /* \"ExodusStaking/Staking.sol\":2655:2685  _send(_to, _amount, _rebasing) */\n      jump\t// in\n    tag_218:\n        /* \"ExodusStaking/Staking.sol\":2648:2685  return _send(_to, _amount, _rebasing) */\n      swap1\n      pop\n      jump(tag_219)\n        /* \"ExodusStaking/Staking.sol\":2601:3261  if (_claim && warmupPeriod == 0) {... */\n    tag_217:\n        /* \"ExodusStaking/Staking.sol\":2716:2733  Claim memory info */\n      tag_220\n      tag_137\n      jump\t// in\n    tag_220:\n      pop\n      sub(shl(0xa0, 0x01), 0x01)\n        /* \"ExodusStaking/Staking.sol\":2736:2751  warmupInfo[_to] */\n      dup6\n      and\n      0x00\n      swap1\n      dup2\n      mstore\n        /* \"ExodusStaking/Staking.sol\":2736:2746  warmupInfo */\n      0x07\n        /* \"ExodusStaking/Staking.sol\":2736:2751  warmupInfo[_to] */\n      0x20\n      swap1\n      dup2\n      mstore\n      0x40\n      swap2\n      dup3\n      swap1\n      keccak256\n        /* \"ExodusStaking/Staking.sol\":2716:2751  Claim memory info = warmupInfo[_to] */\n      dup3\n      mload\n      0x80\n      dup2\n      add\n      dup5\n      mstore\n      dup2\n      sload\n      dup2\n      mstore\n      0x01\n      dup3\n      add\n      sload\n      swap3\n      dup2\n      add\n      swap3\n      swap1\n      swap3\n      mstore\n      0x02\n      dup2\n      add\n      sload\n      swap3\n      dup3\n      add\n      swap3\n      swap1\n      swap3\n      mstore\n      0x03\n      swap1\n      swap2\n      add\n      sload\n      0xff\n      and\n      iszero\n      iszero\n      0x60\n      dup3\n      add\n      dup2\n      swap1\n      mstore\n        /* \"ExodusStaking/Staking.sol\":2765:2884  if (!info.lock) {... */\n      tag_222\n      jumpi\n      sub(shl(0xa0, 0x01), 0x01)\n        /* \"ExodusStaking/Staking.sol\":2807:2824  _to == msg.sender */\n      dup7\n      and\n        /* \"ExodusStaking/Staking.sol\":2814:2824  msg.sender */\n      caller\n        /* \"ExodusStaking/Staking.sol\":2807:2824  _to == msg.sender */\n      eq\n        /* \"ExodusStaking/Staking.sol\":2799:2869  require(_to == msg.sender, \"External deposits for account are locked\") */\n      tag_222\n      jumpi\n      mload(0x40)\n      shl(0xe5, 0x461bcd)\n      dup2\n      mstore\n      0x04\n      add\n      dup1\n      dup1\n      0x20\n      add\n      dup3\n      dup2\n      sub\n      dup3\n      mstore\n      0x28\n      dup2\n      mstore\n      0x20\n      add\n      dup1\n      data_3b2c45525d9071d6791c69aceb8f8c1f47104235dfc434676585f01b27a5323d\n      0x28\n      swap2\n      codecopy\n      0x40\n      add\n      swap2\n      pop\n      pop\n      mload(0x40)\n      dup1\n      swap2\n      sub\n      swap1\n      revert\n    tag_222:\n        /* \"ExodusStaking/Staking.sol\":2916:3145  Claim({... */\n      0x40\n      dup1\n      mload\n      0x80\n      dup2\n      add\n      swap1\n      swap2\n      mstore\n        /* \"ExodusStaking/Staking.sol\":2949:2961  info.deposit */\n      dup2\n      mload\n        /* \"ExodusStaking/Staking.sol\":2916:3145  Claim({... */\n      dup2\n      swap1\n        /* \"ExodusStaking/Staking.sol\":2949:2974  info.deposit.add(_amount) */\n      tag_223\n      swap1\n        /* \"ExodusStaking/Staking.sol\":2966:2973  _amount */\n      dup9\n        /* \"ExodusStaking/Staking.sol\":2949:2965  info.deposit.add */\n      tag_159\n        /* \"ExodusStaking/Staking.sol\":2949:2974  info.deposit.add(_amount) */\n      jump\t// in\n    tag_223:\n        /* \"ExodusStaking/Staking.sol\":2916:3145  Claim({... */\n      dup2\n      mstore\n      0x20\n      add\n        /* \"ExodusStaking/Staking.sol\":2998:3041  info.gons.add(sEXO.gonsForBalance(_amount)) */\n      tag_224\n        /* \"ExodusStaking/Staking.sol\":3012:3016  sEXO */\n      immutable(\"0x02f6903e55725b8fb1e67e68fc4dfbf8e90ced5ec278dfd2021debfe4c69d139\")\n      sub(shl(0xa0, 0x01), 0x01)\n        /* \"ExodusStaking/Staking.sol\":3012:3031  sEXO.gonsForBalance */\n      and\n      0x1bd39674\n        /* \"ExodusStaking/Staking.sol\":3032:3039  _amount */\n      dup10\n        /* \"ExodusStaking/Staking.sol\":3012:3040  sEXO.gonsForBalance(_amount) */\n      mload(0x40)\n      dup3\n      0xffffffff\n      and\n      0xe0\n      shl\n      dup2\n      mstore\n      0x04\n      add\n      dup1\n      dup3\n      dup2\n      mstore\n      0x20\n      add\n      swap2\n      pop\n      pop\n      0x20\n      mload(0x40)\n      dup1\n      dup4\n      sub\n      dup2\n      dup7\n      dup1\n      extcodesize\n      iszero\n      dup1\n      iszero\n      tag_225\n      jumpi\n      0x00\n      dup1\n      revert\n    tag_225:\n      pop\n      gas\n      staticcall\n      iszero\n      dup1\n      iszero\n      tag_227\n      jumpi\n      returndatasize\n      0x00\n      dup1\n      returndatacopy\n      revert(0x00, returndatasize)\n    tag_227:\n      pop\n      pop\n      pop\n      pop\n      mload(0x40)\n      returndatasize\n      0x20\n      dup2\n      lt\n      iszero\n      tag_228\n      jumpi\n      0x00\n      dup1\n      revert\n    tag_228:\n      pop\n      mload\n      0x20\n        /* \"ExodusStaking/Staking.sol\":2998:3007  info.gons */\n      dup6\n      add\n      mload\n      swap1\n        /* \"ExodusStaking/Staking.sol\":2998:3011  info.gons.add */\n      tag_159\n        /* \"ExodusStaking/Staking.sol\":2998:3041  info.gons.add(sEXO.gonsForBalance(_amount)) */\n      jump\t// in\n    tag_224:\n        /* \"ExodusStaking/Staking.sol\":2916:3145  Claim({... */\n      dup2\n      mstore\n        /* \"ExodusStaking/Staking.sol\":3084:3096  warmupPeriod */\n      sload(0x08)\n        /* \"ExodusStaking/Staking.sol\":3067:3079  epoch.number */\n      sload(0x03)\n        /* \"ExodusStaking/Staking.sol\":2916:3145  Claim({... */\n      0x20\n      swap1\n      swap3\n      add\n      swap2\n        /* \"ExodusStaking/Staking.sol\":3067:3097  epoch.number.add(warmupPeriod) */\n      tag_229\n      swap2\n        /* \"ExodusStaking/Staking.sol\":3067:3083  epoch.number.add */\n      tag_159\n        /* \"ExodusStaking/Staking.sol\":3067:3097  epoch.number.add(warmupPeriod) */\n      jump\t// in\n    tag_229:\n        /* \"ExodusStaking/Staking.sol\":2916:3145  Claim({... */\n      dup2\n      mstore\n        /* \"ExodusStaking/Staking.sol\":3121:3130  info.lock */\n      0x60\n      dup4\n      dup2\n      add\n      mload\n        /* \"ExodusStaking/Staking.sol\":2916:3145  Claim({... */\n      iszero\n      iszero\n      0x20\n      swap3\n      dup4\n      add\n      mstore\n      sub(shl(0xa0, 0x01), 0x01)\n        /* \"ExodusStaking/Staking.sol\":2898:2913  warmupInfo[_to] */\n      dup10\n      dup2\n      and\n      0x00\n      swap1\n      dup2\n      mstore\n        /* \"ExodusStaking/Staking.sol\":2898:2908  warmupInfo */\n      0x07\n        /* \"ExodusStaking/Staking.sol\":2898:2913  warmupInfo[_to] */\n      dup5\n      mstore\n      0x40\n      swap1\n      dup2\n      swap1\n      keccak256\n        /* \"ExodusStaking/Staking.sol\":2898:3145  warmupInfo[_to] = Claim({... */\n      dup6\n      mload\n      dup2\n      sstore\n      dup6\n      dup6\n      add\n      mload\n      0x01\n      dup3\n      add\n      sstore\n      dup6\n      dup3\n      add\n      mload\n      0x02\n      dup3\n      add\n      sstore\n      swap5\n      swap1\n      swap3\n      add\n      mload\n      0x03\n      swap1\n      swap5\n      add\n      dup1\n      sload\n      not(0xff)\n      and\n      swap5\n      iszero\n      iszero\n      swap5\n      swap1\n      swap5\n      or\n      swap1\n      swap4\n      sstore\n        /* \"ExodusStaking/Staking.sol\":3192:3220  sEXO.gonsForBalance(_amount) */\n      dup1\n      mload\n      0x1bd3967400000000000000000000000000000000000000000000000000000000\n      dup2\n      mstore\n      0x04\n      dup2\n      add\n      dup10\n      swap1\n      mstore\n      swap1\n      mload\n        /* \"ExodusStaking/Staking.sol\":3175:3221  gonsInWarmup.add(sEXO.gonsForBalance(_amount)) */\n      tag_230\n      swap4\n        /* \"ExodusStaking/Staking.sol\":3192:3196  sEXO */\n      immutable(\"0x02f6903e55725b8fb1e67e68fc4dfbf8e90ced5ec278dfd2021debfe4c69d139\")\n        /* \"ExodusStaking/Staking.sol\":3192:3211  sEXO.gonsForBalance */\n      and\n      swap3\n      0x1bd39674\n      swap3\n        /* \"ExodusStaking/Staking.sol\":3192:3220  sEXO.gonsForBalance(_amount) */\n      0x24\n      dup1\n      dup3\n      add\n      swap4\n      swap2\n      dup3\n      swap1\n      sub\n      add\n      dup2\n        /* \"ExodusStaking/Staking.sol\":3192:3211  sEXO.gonsForBalance */\n      dup7\n        /* \"ExodusStaking/Staking.sol\":3192:3220  sEXO.gonsForBalance(_amount) */\n      dup1\n      extcodesize\n      iszero\n      dup1\n      iszero\n      tag_231\n      jumpi\n      0x00\n      dup1\n      revert\n    tag_231:\n      pop\n      gas\n      staticcall\n      iszero\n      dup1\n      iszero\n      tag_233\n      jumpi\n      returndatasize\n      0x00\n      dup1\n      returndatacopy\n      revert(0x00, returndatasize)\n    tag_233:\n      pop\n      pop\n      pop\n      pop\n      mload(0x40)\n      returndatasize\n      0x20\n      dup2\n      lt\n      iszero\n      tag_234\n      jumpi\n      0x00\n      dup1\n      revert\n    tag_234:\n      pop\n      mload\n        /* \"ExodusStaking/Staking.sol\":3175:3187  gonsInWarmup */\n      sload(0x09)\n      swap1\n        /* \"ExodusStaking/Staking.sol\":3175:3191  gonsInWarmup.add */\n      tag_159\n        /* \"ExodusStaking/Staking.sol\":3175:3221  gonsInWarmup.add(sEXO.gonsForBalance(_amount)) */\n      jump\t// in\n    tag_230:\n        /* \"ExodusStaking/Staking.sol\":3160:3172  gonsInWarmup */\n      0x09\n        /* \"ExodusStaking/Staking.sol\":3160:3221  gonsInWarmup = gonsInWarmup.add(sEXO.gonsForBalance(_amount)) */\n      sstore\n      pop\n        /* \"ExodusStaking/Staking.sol\":3243:3250  _amount */\n      dup4\n      swap1\n      pop\n        /* \"ExodusStaking/Staking.sol\":2601:3261  if (_claim && warmupPeriod == 0) {... */\n    tag_219:\n        /* \"ExodusStaking/Staking.sol\":2312:3267  function stake(... */\n      swap5\n      swap4\n      pop\n      pop\n      pop\n      pop\n      jump\t// out\n        /* \"ExodusStaking/Staking.sol\":1308:1335  uint256 public warmupPeriod */\n    tag_80:\n      sload(0x08)\n      dup2\n      jump\t// out\n        /* \"ExodusStaking/Staking.sol\":3994:4274  function forfeit() external returns (uint256) {... */\n    tag_82:\n        /* \"ExodusStaking/Staking.sol\":4031:4038  uint256 */\n      0x00\n        /* \"ExodusStaking/Staking.sol\":4050:4067  Claim memory info */\n      tag_236\n      tag_137\n      jump\t// in\n    tag_236:\n      pop\n        /* \"ExodusStaking/Staking.sol\":4081:4091  msg.sender */\n      caller\n        /* \"ExodusStaking/Staking.sol\":4070:4092  warmupInfo[msg.sender] */\n      0x00\n      dup2\n      dup2\n      mstore\n        /* \"ExodusStaking/Staking.sol\":4070:4080  warmupInfo */\n      0x07\n        /* \"ExodusStaking/Staking.sol\":4070:4092  warmupInfo[msg.sender] */\n      0x20\n      dup2\n      dup2\n      mstore\n      0x40\n      dup1\n      dup5\n      keccak256\n        /* \"ExodusStaking/Staking.sol\":4050:4092  Claim memory info = warmupInfo[msg.sender] */\n      dup2\n      mload\n      0x80\n      dup2\n      add\n      dup4\n      mstore\n      dup2\n      sload\n      dup2\n      mstore\n      0x01\n      dup3\n      add\n      dup1\n      sload\n      dup3\n      dup7\n      add\n      swap1\n      dup2\n      mstore\n      0x02\n      dup5\n      add\n      dup1\n      sload\n      swap6\n      dup5\n      add\n      swap6\n      swap1\n      swap6\n      mstore\n      0x03\n      dup5\n      add\n      dup1\n      sload\n      0xff\n      dup2\n      and\n      iszero\n      iszero\n      0x60\n      dup7\n      add\n      mstore\n        /* \"ExodusStaking/Staking.sol\":4109:4131  warmupInfo[msg.sender] */\n      swap10\n      dup10\n      mstore\n      swap7\n      swap1\n      swap6\n      mstore\n        /* \"ExodusStaking/Staking.sol\":4102:4131  delete warmupInfo[msg.sender] */\n      swap2\n      dup7\n      swap1\n      sstore\n      swap1\n      dup6\n      swap1\n      sstore\n      swap4\n      swap1\n      sstore\n      not(0xff)\n      swap1\n      swap4\n      and\n      swap1\n      sstore\n        /* \"ExodusStaking/Staking.sol\":4174:4183  info.gons */\n      swap1\n      mload\n        /* \"ExodusStaking/Staking.sol\":4157:4169  gonsInWarmup */\n      sload(0x09)\n        /* \"ExodusStaking/Staking.sol\":4157:4184  gonsInWarmup.sub(info.gons) */\n      tag_237\n      swap2\n        /* \"ExodusStaking/Staking.sol\":4157:4173  gonsInWarmup.sub */\n      tag_143\n        /* \"ExodusStaking/Staking.sol\":4157:4184  gonsInWarmup.sub(info.gons) */\n      jump\t// in\n    tag_237:\n        /* \"ExodusStaking/Staking.sol\":4142:4154  gonsInWarmup */\n      0x09\n        /* \"ExodusStaking/Staking.sol\":4142:4184  gonsInWarmup = gonsInWarmup.sub(info.gons) */\n      sstore\n        /* \"ExodusStaking/Staking.sol\":4224:4236  info.deposit */\n      dup1\n      mload\n        /* \"ExodusStaking/Staking.sol\":4195:4237  EXO.safeTransfer(msg.sender, info.deposit) */\n      tag_238\n      swap1\n      sub(shl(0xa0, 0x01), 0x01)\n        /* \"ExodusStaking/Staking.sol\":4195:4198  EXO */\n      immutable(\"0x2d33c78d31145fca68253afe9b24c771b7d614064b9f8dc2c55b30419d3466f1\")\n        /* \"ExodusStaking/Staking.sol\":4195:4211  EXO.safeTransfer */\n      and\n      swap1\n        /* \"ExodusStaking/Staking.sol\":4212:4222  msg.sender */\n      caller\n      swap1\n        /* \"ExodusStaking/Staking.sol\":4195:4211  EXO.safeTransfer */\n      tag_104\n        /* \"ExodusStaking/Staking.sol\":4195:4237  EXO.safeTransfer(msg.sender, info.deposit) */\n      jump\t// in\n    tag_238:\n        /* \"ExodusStaking/Staking.sol\":4255:4267  info.deposit */\n      mload\n      swap1\n      pop\n        /* \"ExodusStaking/Staking.sol\":3994:4274  function forfeit() external returns (uint256) {... */\n      swap1\n      jump\t// out\n        /* \"ExodusStaking/Staking.sol\":4397:4503  function toggleLock() external {... */\n    tag_84:\n        /* \"ExodusStaking/Staking.sol\":4480:4490  msg.sender */\n      caller\n        /* \"ExodusStaking/Staking.sol\":4469:4491  warmupInfo[msg.sender] */\n      0x00\n      swap1\n      dup2\n      mstore\n        /* \"ExodusStaking/Staking.sol\":4469:4479  warmupInfo */\n      0x07\n        /* \"ExodusStaking/Staking.sol\":4469:4491  warmupInfo[msg.sender] */\n      0x20\n      mstore\n      0x40\n      swap1\n      keccak256\n        /* \"ExodusStaking/Staking.sol\":4469:4496  warmupInfo[msg.sender].lock */\n      0x03\n      add\n      dup1\n      sload\n      not(0xff)\n        /* \"ExodusStaking/Staking.sol\":4438:4496  warmupInfo[msg.sender].lock = !warmupInfo[msg.sender].lock */\n      dup2\n      and\n        /* \"ExodusStaking/Staking.sol\":4469:4496  warmupInfo[msg.sender].lock */\n      0xff\n      swap1\n      swap2\n      and\n        /* \"ExodusStaking/Staking.sol\":4468:4496  !warmupInfo[msg.sender].lock */\n      iszero\n        /* \"ExodusStaking/Staking.sol\":4438:4496  warmupInfo[msg.sender].lock = !warmupInfo[msg.sender].lock */\n      or\n      swap1\n      sstore\n        /* \"ExodusStaking/Staking.sol\":4397:4503  function toggleLock() external {... */\n      jump\t// out\n        /* \"ExodusStaking/SafeERC20.sol\":780:1135  function safeTransfer(... */\n    tag_104:\n        /* \"ExodusStaking/SafeERC20.sol\":962:1022  abi.encodeWithSelector(IERC20.transfer.selector, to, amount) */\n      0x40\n      dup1\n      mload\n      sub(shl(0xa0, 0x01), 0x01)\n      dup5\n      dup2\n      and\n      0x24\n      dup4\n      add\n      mstore\n      0x44\n      dup1\n      dup4\n      add\n      dup6\n      swap1\n      mstore\n      dup4\n      mload\n      dup1\n      dup5\n      sub\n      swap1\n      swap2\n      add\n      dup2\n      mstore\n      0x64\n      swap1\n      swap3\n      add\n      dup4\n      mstore\n      0x20\n      dup3\n      add\n      dup1\n      mload\n      0xffffffffffffffffffffffffffffffffffffffffffffffffffffffff\n      and\n        /* \"ExodusStaking/SafeERC20.sol\":985:1009  IERC20.transfer.selector */\n      0xa9059cbb00000000000000000000000000000000000000000000000000000000\n        /* \"ExodusStaking/SafeERC20.sol\":962:1022  abi.encodeWithSelector(IERC20.transfer.selector, to, amount) */\n      or\n      dup2\n      mstore\n        /* \"ExodusStaking/SafeERC20.sol\":929:1032  address(token).call(... */\n      swap3\n      mload\n      dup3\n      mload\n        /* \"ExodusStaking/SafeERC20.sol\":894:906  bool success */\n      0x00\n      swap5\n        /* \"ExodusStaking/SafeERC20.sol\":908:925  bytes memory data */\n      0x60\n      swap5\n        /* \"ExodusStaking/SafeERC20.sol\":929:948  address(token).call */\n      swap4\n      dup10\n      and\n      swap4\n        /* \"ExodusStaking/SafeERC20.sol\":962:1022  abi.encodeWithSelector(IERC20.transfer.selector, to, amount) */\n      swap3\n        /* \"ExodusStaking/SafeERC20.sol\":929:1032  address(token).call(... */\n      swap2\n      dup3\n      swap2\n        /* \"ExodusStaking/SafeERC20.sol\":962:1022  abi.encodeWithSelector(IERC20.transfer.selector, to, amount) */\n      swap1\n        /* \"ExodusStaking/SafeERC20.sol\":929:1032  address(token).call(... */\n      dup1\n      dup4\n        /* \"ExodusStaking/SafeERC20.sol\":962:1022  abi.encodeWithSelector(IERC20.transfer.selector, to, amount) */\n      dup4\n        /* \"ExodusStaking/SafeERC20.sol\":929:1032  address(token).call(... */\n    tag_241:\n      0x20\n      dup4\n      lt\n      tag_243\n      jumpi\n      dup1\n      mload\n      dup3\n      mstore\n      not(0x1f)\n      swap1\n      swap3\n      add\n      swap2\n      0x20\n      swap2\n      dup3\n      add\n      swap2\n      add\n      jump(tag_241)\n    tag_243:\n      0x01\n      dup4\n      0x20\n      sub\n      0x0100\n      exp\n      sub\n      dup1\n      not\n      dup3\n      mload\n      and\n      dup2\n      dup5\n      mload\n      and\n      dup1\n      dup3\n      or\n      dup6\n      mstore\n      pop\n      pop\n      pop\n      pop\n      pop\n      pop\n      swap1\n      pop\n      add\n      swap2\n      pop\n      pop\n      0x00\n      mload(0x40)\n      dup1\n      dup4\n      sub\n      dup2\n      0x00\n      dup7\n      gas\n      call\n      swap2\n      pop\n      pop\n      returndatasize\n      dup1\n      0x00\n      dup2\n      eq\n      tag_246\n      jumpi\n      mload(0x40)\n      swap2\n      pop\n      and(add(returndatasize, 0x3f), not(0x1f))\n      dup3\n      add\n      0x40\n      mstore\n      returndatasize\n      dup3\n      mstore\n      returndatasize\n      0x00\n      0x20\n      dup5\n      add\n      returndatacopy\n      jump(tag_245)\n    tag_246:\n      0x60\n      swap2\n      pop\n    tag_245:\n      pop\n        /* \"ExodusStaking/SafeERC20.sol\":893:1032  (bool success, bytes memory data) = address(token).call(... */\n      swap2\n      pop\n      swap2\n      pop\n        /* \"ExodusStaking/SafeERC20.sol\":1051:1058  success */\n      dup2\n        /* \"ExodusStaking/SafeERC20.sol\":1051:1108  success && (data.length == 0 || abi.decode(data, (bool))) */\n      dup1\n      iszero\n      tag_248\n      jumpi\n      pop\n        /* \"ExodusStaking/SafeERC20.sol\":1063:1074  data.length */\n      dup1\n      mload\n        /* \"ExodusStaking/SafeERC20.sol\":1063:1079  data.length == 0 */\n      iszero\n      dup1\n        /* \"ExodusStaking/SafeERC20.sol\":1063:1107  data.length == 0 || abi.decode(data, (bool)) */\n      tag_248\n      jumpi\n      pop\n        /* \"ExodusStaking/SafeERC20.sol\":1094:1098  data */\n      dup1\n        /* \"ExodusStaking/SafeERC20.sol\":1083:1107  abi.decode(data, (bool)) */\n      dup1\n      0x20\n      add\n      swap1\n      mload\n      0x20\n      dup2\n      lt\n      iszero\n      tag_249\n      jumpi\n      0x00\n      dup1\n      revert\n    tag_249:\n      pop\n      mload\n        /* \"ExodusStaking/SafeERC20.sol\":1063:1107  data.length == 0 || abi.decode(data, (bool)) */\n    tag_248:\n        /* \"ExodusStaking/SafeERC20.sol\":1043:1128  require(success && (data.length == 0 || abi.decode(data, (bool))), \"TRANSFER_FAILED\") */\n      tag_250\n      jumpi\n      0x40\n      dup1\n      mload\n      shl(0xe5, 0x461bcd)\n      dup2\n      mstore\n      0x20\n      0x04\n      dup3\n      add\n      mstore\n      0x0f\n      0x24\n      dup3\n      add\n      mstore\n      0x5452414e534645525f4641494c45440000000000000000000000000000000000\n      0x44\n      dup3\n      add\n      mstore\n      swap1\n      mload\n      swap1\n      dup2\n      swap1\n      sub\n      0x64\n      add\n      swap1\n      revert\n    tag_250:\n        /* \"ExodusStaking/SafeERC20.sol\":780:1135  function safeTransfer(... */\n      pop\n      pop\n      pop\n      pop\n      pop\n      jump\t// out\n        /* \"ExodusStaking/SafeMath.sol\":337:471  function sub(uint256 a, uint256 b) internal pure returns (uint256) {... */\n    tag_143:\n        /* \"ExodusStaking/SafeMath.sol\":395:402  uint256 */\n      0x00\n        /* \"ExodusStaking/SafeMath.sol\":421:464  sub(a, b, \"SafeMath: subtraction overflow\") */\n      tag_252\n        /* \"ExodusStaking/SafeMath.sol\":425:426  a */\n      dup4\n        /* \"ExodusStaking/SafeMath.sol\":428:429  b */\n      dup4\n        /* \"ExodusStaking/SafeMath.sol\":421:464  sub(a, b, \"SafeMath: subtraction overflow\") */\n      mload(0x40)\n      dup1\n      0x40\n      add\n      0x40\n      mstore\n      dup1\n      0x1e\n      dup2\n      mstore\n      0x20\n      add\n      0x536166654d6174683a207375627472616374696f6e206f766572666c6f770000\n      dup2\n      mstore\n      pop\n        /* \"ExodusStaking/SafeMath.sol\":421:424  sub */\n      tag_253\n        /* \"ExodusStaking/SafeMath.sol\":421:464  sub(a, b, \"SafeMath: subtraction overflow\") */\n      jump\t// in\n    tag_252:\n        /* \"ExodusStaking/SafeMath.sol\":414:464  return sub(a, b, \"SafeMath: subtraction overflow\") */\n      swap4\n        /* \"ExodusStaking/SafeMath.sol\":337:471  function sub(uint256 a, uint256 b) internal pure returns (uint256) {... */\n      swap3\n      pop\n      pop\n      pop\n      jump\t// out\n        /* \"ExodusStaking/Staking.sol\":7360:7784  function _send(... */\n    tag_149:\n        /* \"ExodusStaking/Staking.sol\":7469:7476  uint256 */\n      0x00\n        /* \"ExodusStaking/Staking.sol\":7492:7501  _rebasing */\n      dup2\n        /* \"ExodusStaking/Staking.sol\":7488:7778  if (_rebasing) {... */\n      iszero\n      tag_255\n      jumpi\n        /* \"ExodusStaking/Staking.sol\":7517:7548  sEXO.safeTransfer(_to, _amount) */\n      tag_256\n      sub(shl(0xa0, 0x01), 0x01)\n        /* \"ExodusStaking/Staking.sol\":7517:7521  sEXO */\n      immutable(\"0x02f6903e55725b8fb1e67e68fc4dfbf8e90ced5ec278dfd2021debfe4c69d139\")\n        /* \"ExodusStaking/Staking.sol\":7517:7534  sEXO.safeTransfer */\n      and\n        /* \"ExodusStaking/Staking.sol\":7535:7538  _to */\n      dup6\n        /* \"ExodusStaking/Staking.sol\":7540:7547  _amount */\n      dup6\n        /* \"ExodusStaking/Staking.sol\":7517:7534  sEXO.safeTransfer */\n      tag_104\n        /* \"ExodusStaking/Staking.sol\":7517:7548  sEXO.safeTransfer(_to, _amount) */\n      jump\t// in\n    tag_256:\n      pop\n        /* \"ExodusStaking/Staking.sol\":7605:7612  _amount */\n      dup2\n        /* \"ExodusStaking/Staking.sol\":7598:7612  return _amount */\n      jump(tag_252)\n        /* \"ExodusStaking/Staking.sol\":7488:7778  if (_rebasing) {... */\n    tag_255:\n        /* \"ExodusStaking/Staking.sol\":7643:7647  gEXO */\n      immutable(\"0xa9903e230a4a4f2af602b37c0f984d2b43537f89ce9d4cfbf1232e27c498bd38\")\n      sub(shl(0xa0, 0x01), 0x01)\n        /* \"ExodusStaking/Staking.sol\":7643:7652  gEXO.mint */\n      and\n      0x40c10f19\n        /* \"ExodusStaking/Staking.sol\":7653:7656  _to */\n      dup6\n        /* \"ExodusStaking/Staking.sol\":7658:7662  gEXO */\n      immutable(\"0xa9903e230a4a4f2af602b37c0f984d2b43537f89ce9d4cfbf1232e27c498bd38\")\n      sub(shl(0xa0, 0x01), 0x01)\n        /* \"ExodusStaking/Staking.sol\":7658:7672  gEXO.balanceTo */\n      and\n      0x66a5236c\n        /* \"ExodusStaking/Staking.sol\":7673:7680  _amount */\n      dup8\n        /* \"ExodusStaking/Staking.sol\":7658:7681  gEXO.balanceTo(_amount) */\n      mload(0x40)\n      dup3\n      0xffffffff\n      and\n      0xe0\n      shl\n      dup2\n      mstore\n      0x04\n      add\n      dup1\n      dup3\n      dup2\n      mstore\n      0x20\n      add\n      swap2\n      pop\n      pop\n      0x20\n      mload(0x40)\n      dup1\n      dup4\n      sub\n      dup2\n      dup7\n      dup1\n      extcodesize\n      iszero\n      dup1\n      iszero\n      tag_258\n      jumpi\n      0x00\n      dup1\n      revert\n    tag_258:\n      pop\n      gas\n      staticcall\n      iszero\n      dup1\n      iszero\n      tag_260\n      jumpi\n      returndatasize\n      0x00\n      dup1\n      returndatacopy\n      revert(0x00, returndatasize)\n    tag_260:\n      pop\n      pop\n      pop\n      pop\n      mload(0x40)\n      returndatasize\n      0x20\n      dup2\n      lt\n      iszero\n      tag_261\n      jumpi\n      0x00\n      dup1\n      revert\n    tag_261:\n      pop\n      mload\n        /* \"ExodusStaking/Staking.sol\":7643:7682  gEXO.mint(_to, gEXO.balanceTo(_amount)) */\n      0x40\n      dup1\n      mload\n      0xffffffff00000000000000000000000000000000000000000000000000000000\n      0xe0\n      dup7\n      swap1\n      shl\n      and\n      dup2\n      mstore\n      sub(shl(0xa0, 0x01), 0x01)\n      swap1\n      swap4\n      and\n      0x04\n      dup5\n      add\n      mstore\n      0x24\n      dup4\n      add\n      swap2\n      swap1\n      swap2\n      mstore\n      mload\n      0x44\n      dup1\n      dup4\n      add\n      swap3\n      0x00\n      swap3\n      swap2\n      swap1\n      dup3\n      swap1\n      sub\n      add\n      dup2\n      dup4\n      dup8\n      dup1\n      extcodesize\n      iszero\n      dup1\n      iszero\n      tag_262\n      jumpi\n      0x00\n      dup1\n      revert\n    tag_262:\n      pop\n      gas\n      call\n      iszero\n      dup1\n      iszero\n      tag_264\n      jumpi\n      returndatasize\n      0x00\n      dup1\n      returndatacopy\n      revert(0x00, returndatasize)\n    tag_264:\n      pop\n      pop\n      pop\n      pop\n        /* \"ExodusStaking/Staking.sol\":7744:7748  gEXO */\n      immutable(\"0xa9903e230a4a4f2af602b37c0f984d2b43537f89ce9d4cfbf1232e27c498bd38\")\n      sub(shl(0xa0, 0x01), 0x01)\n        /* \"ExodusStaking/Staking.sol\":7744:7758  gEXO.balanceTo */\n      and\n      0x66a5236c\n        /* \"ExodusStaking/Staking.sol\":7759:7766  _amount */\n      dup5\n        /* \"ExodusStaking/Staking.sol\":7744:7767  gEXO.balanceTo(_amount) */\n      mload(0x40)\n      dup3\n      0xffffffff\n      and\n      0xe0\n      shl\n      dup2\n      mstore\n      0x04\n      add\n      dup1\n      dup3\n      dup2\n      mstore\n      0x20\n      add\n      swap2\n      pop\n      pop\n      0x20\n      mload(0x40)\n      dup1\n      dup4\n      sub\n      dup2\n      dup7\n      dup1\n      extcodesize\n      iszero\n      dup1\n      iszero\n      tag_265\n      jumpi\n      0x00\n      dup1\n      revert\n    tag_265:\n      pop\n      gas\n      staticcall\n      iszero\n      dup1\n      iszero\n      tag_267\n      jumpi\n      returndatasize\n      0x00\n      dup1\n      returndatacopy\n      revert(0x00, returndatasize)\n    tag_267:\n      pop\n      pop\n      pop\n      pop\n      mload(0x40)\n      returndatasize\n      0x20\n      dup2\n      lt\n      iszero\n      tag_268\n      jumpi\n      0x00\n      dup1\n      revert\n    tag_268:\n      pop\n      mload\n      swap5\n        /* \"ExodusStaking/Staking.sol\":7360:7784  function _send(... */\n      swap4\n      pop\n      pop\n      pop\n      pop\n      jump\t// out\n        /* \"ExodusStaking/SafeERC20.sol\":378:774  function safeTransferFrom(... */\n    tag_157:\n        /* \"ExodusStaking/SafeERC20.sol\":586:656  abi.encodeWithSelector(IERC20.transferFrom.selector, from, to, amount) */\n      0x40\n      dup1\n      mload\n      sub(shl(0xa0, 0x01), 0x01)\n      dup6\n      dup2\n      and\n      0x24\n      dup4\n      add\n      mstore\n      dup5\n      dup2\n      and\n      0x44\n      dup4\n      add\n      mstore\n      0x64\n      dup1\n      dup4\n      add\n      dup6\n      swap1\n      mstore\n      dup4\n      mload\n      dup1\n      dup5\n      sub\n      swap1\n      swap2\n      add\n      dup2\n      mstore\n      0x84\n      swap1\n      swap3\n      add\n      dup4\n      mstore\n      0x20\n      dup3\n      add\n      dup1\n      mload\n      0xffffffffffffffffffffffffffffffffffffffffffffffffffffffff\n      and\n        /* \"ExodusStaking/SafeERC20.sol\":609:637  IERC20.transferFrom.selector */\n      0x23b872dd00000000000000000000000000000000000000000000000000000000\n        /* \"ExodusStaking/SafeERC20.sol\":586:656  abi.encodeWithSelector(IERC20.transferFrom.selector, from, to, amount) */\n      or\n      dup2\n      mstore\n        /* \"ExodusStaking/SafeERC20.sol\":553:666  address(token).call(... */\n      swap3\n      mload\n      dup3\n      mload\n        /* \"ExodusStaking/SafeERC20.sol\":518:530  bool success */\n      0x00\n      swap5\n        /* \"ExodusStaking/SafeERC20.sol\":532:549  bytes memory data */\n      0x60\n      swap5\n        /* \"ExodusStaking/SafeERC20.sol\":553:572  address(token).call */\n      swap4\n      dup11\n      and\n      swap4\n        /* \"ExodusStaking/SafeERC20.sol\":586:656  abi.encodeWithSelector(IERC20.transferFrom.selector, from, to, amount) */\n      swap3\n        /* \"ExodusStaking/SafeERC20.sol\":553:666  address(token).call(... */\n      swap2\n      dup3\n      swap2\n        /* \"ExodusStaking/SafeERC20.sol\":586:656  abi.encodeWithSelector(IERC20.transferFrom.selector, from, to, amount) */\n      swap1\n        /* \"ExodusStaking/SafeERC20.sol\":553:666  address(token).call(... */\n      dup1\n      dup4\n        /* \"ExodusStaking/SafeERC20.sol\":586:656  abi.encodeWithSelector(IERC20.transferFrom.selector, from, to, amount) */\n      dup4\n        /* \"ExodusStaking/SafeERC20.sol\":553:666  address(token).call(... */\n    tag_270:\n      0x20\n      dup4\n      lt\n      tag_272\n      jumpi\n      dup1\n      mload\n      dup3\n      mstore\n      not(0x1f)\n      swap1\n      swap3\n      add\n      swap2\n      0x20\n      swap2\n      dup3\n      add\n      swap2\n      add\n      jump(tag_270)\n    tag_272:\n      0x01\n      dup4\n      0x20\n      sub\n      0x0100\n      exp\n      sub\n      dup1\n      not\n      dup3\n      mload\n      and\n      dup2\n      dup5\n      mload\n      and\n      dup1\n      dup3\n      or\n      dup6\n      mstore\n      pop\n      pop\n      pop\n      pop\n      pop\n      pop\n      swap1\n      pop\n      add\n      swap2\n      pop\n      pop\n      0x00\n      mload(0x40)\n      dup1\n      dup4\n      sub\n      dup2\n      0x00\n      dup7\n      gas\n      call\n      swap2\n      pop\n      pop\n      returndatasize\n      dup1\n      0x00\n      dup2\n      eq\n      tag_275\n      jumpi\n      mload(0x40)\n      swap2\n      pop\n      and(add(returndatasize, 0x3f), not(0x1f))\n      dup3\n      add\n      0x40\n      mstore\n      returndatasize\n      dup3\n      mstore\n      returndatasize\n      0x00\n      0x20\n      dup5\n      add\n      returndatacopy\n      jump(tag_274)\n    tag_275:\n      0x60\n      swap2\n      pop\n    tag_274:\n      pop\n        /* \"ExodusStaking/SafeERC20.sol\":517:666  (bool success, bytes memory data) = address(token).call(... */\n      swap2\n      pop\n      swap2\n      pop\n        /* \"ExodusStaking/SafeERC20.sol\":685:692  success */\n      dup2\n        /* \"ExodusStaking/SafeERC20.sol\":685:742  success && (data.length == 0 || abi.decode(data, (bool))) */\n      dup1\n      iszero\n      tag_277\n      jumpi\n      pop\n        /* \"ExodusStaking/SafeERC20.sol\":697:708  data.length */\n      dup1\n      mload\n        /* \"ExodusStaking/SafeERC20.sol\":697:713  data.length == 0 */\n      iszero\n      dup1\n        /* \"ExodusStaking/SafeERC20.sol\":697:741  data.length == 0 || abi.decode(data, (bool)) */\n      tag_277\n      jumpi\n      pop\n        /* \"ExodusStaking/SafeERC20.sol\":728:732  data */\n      dup1\n        /* \"ExodusStaking/SafeERC20.sol\":717:741  abi.decode(data, (bool)) */\n      dup1\n      0x20\n      add\n      swap1\n      mload\n      0x20\n      dup2\n      lt\n      iszero\n      tag_278\n      jumpi\n      0x00\n      dup1\n      revert\n    tag_278:\n      pop\n      mload\n        /* \"ExodusStaking/SafeERC20.sol\":697:741  data.length == 0 || abi.decode(data, (bool)) */\n    tag_277:\n        /* \"ExodusStaking/SafeERC20.sol\":677:767  require(success && (data.length == 0 || abi.decode(data, (bool))), \"TRANSFER_FROM_FAILED\") */\n      tag_279\n      jumpi\n      0x40\n      dup1\n      mload\n      shl(0xe5, 0x461bcd)\n      dup2\n      mstore\n      0x20\n      0x04\n      dup3\n      add\n      mstore\n      0x14\n      0x24\n      dup3\n      add\n      mstore\n      0x5452414e534645525f46524f4d5f4641494c4544000000000000000000000000\n      0x44\n      dup3\n      add\n      mstore\n      swap1\n      mload\n      swap1\n      dup2\n      swap1\n      sub\n      0x64\n      add\n      swap1\n      revert\n    tag_279:\n        /* \"ExodusStaking/SafeERC20.sol\":378:774  function safeTransferFrom(... */\n      pop\n      pop\n      pop\n      pop\n      pop\n      pop\n      jump\t// out\n        /* \"ExodusStaking/SafeMath.sol\":155:331  function add(uint256 a, uint256 b) internal pure returns (uint256) {... */\n    tag_159:\n        /* \"ExodusStaking/SafeMath.sol\":213:220  uint256 */\n      0x00\n        /* \"ExodusStaking/SafeMath.sol\":244:249  a + b */\n      dup3\n      dup3\n      add\n        /* \"ExodusStaking/SafeMath.sol\":267:273  c >= a */\n      dup4\n      dup2\n      lt\n      iszero\n        /* \"ExodusStaking/SafeMath.sol\":259:305  require(c >= a, \"SafeMath: addition overflow\") */\n      tag_252\n      jumpi\n      0x40\n      dup1\n      mload\n      shl(0xe5, 0x461bcd)\n      dup2\n      mstore\n      0x20\n      0x04\n      dup3\n      add\n      mstore\n      0x1b\n      0x24\n      dup3\n      add\n      mstore\n      0x536166654d6174683a206164646974696f6e206f766572666c6f770000000000\n      0x44\n      dup3\n      add\n      mstore\n      swap1\n      mload\n      swap1\n      dup2\n      swap1\n      sub\n      0x64\n      add\n      swap1\n      revert\n        /* \"ExodusStaking/SafeMath.sol\":477:694  function sub(... */\n    tag_253:\n        /* \"ExodusStaking/SafeMath.sol\":593:600  uint256 */\n      0x00\n        /* \"ExodusStaking/SafeMath.sol\":628:640  errorMessage */\n      dup2\n        /* \"ExodusStaking/SafeMath.sol\":620:626  b <= a */\n      dup5\n      dup5\n      gt\n      iszero\n        /* \"ExodusStaking/SafeMath.sol\":612:641  require(b <= a, errorMessage) */\n      tag_283\n      jumpi\n      mload(0x40)\n      shl(0xe5, 0x461bcd)\n      dup2\n      mstore\n      0x04\n      add\n      dup1\n      dup1\n      0x20\n      add\n      dup3\n      dup2\n      sub\n      dup3\n      mstore\n      dup4\n      dup2\n      dup2\n      mload\n      dup2\n      mstore\n      0x20\n      add\n      swap2\n      pop\n      dup1\n      mload\n      swap1\n      0x20\n      add\n      swap1\n      dup1\n      dup4\n      dup4\n      0x00\n    tag_284:\n      dup4\n      dup2\n      lt\n      iszero\n      tag_286\n      jumpi\n      dup2\n      dup2\n      add\n      mload\n      dup4\n      dup3\n      add\n      mstore\n      0x20\n      add\n      jump(tag_284)\n    tag_286:\n      pop\n      pop\n      pop\n      pop\n      swap1\n      pop\n      swap1\n      dup2\n      add\n      swap1\n      0x1f\n      and\n      dup1\n      iszero\n      tag_287\n      jumpi\n      dup1\n      dup3\n      sub\n      dup1\n      mload\n      0x01\n      dup4\n      0x20\n      sub\n      0x0100\n      exp\n      sub\n      not\n      and\n      dup2\n      mstore\n      0x20\n      add\n      swap2\n      pop\n    tag_287:\n      pop\n      swap3\n      pop\n      pop\n      pop\n      mload(0x40)\n      dup1\n      swap2\n      sub\n      swap1\n      revert\n    tag_283:\n      pop\n      pop\n      pop\n        /* \"ExodusStaking/SafeMath.sol\":663:668  a - b */\n      swap1\n      sub\n      swap1\n        /* \"ExodusStaking/SafeMath.sol\":477:694  function sub(... */\n      jump\t// out\n    tag_137:\n      mload(0x40)\n      dup1\n      0x80\n      add\n      0x40\n      mstore\n      dup1\n      0x00\n      dup2\n      mstore\n      0x20\n      add\n      0x00\n      dup2\n      mstore\n      0x20\n      add\n      0x00\n      dup2\n      mstore\n      0x20\n      add\n      iszero(iszero(0x00))\n      dup2\n      mstore\n      pop\n      swap1\n      jump\t// out\n    stop\n    data_3b2c45525d9071d6791c69aceb8f8c1f47104235dfc434676585f01b27a5323d 45787465726e616c206465706f7369747320666f72206163636f756e7420617265206c6f636b6564\n    data_43aa02ab5eea52fb44fc938d9019bb1bb55aee488e80887fd4a80b880f5e0725 45787465726e616c20636c61696d7320666f72206163636f756e7420617265206c6f636b6564\n    data_564ce9fad3eed3b50e27949033ab6c26680c5d0faf1deb6d574a44cb3005eeba 496e73756666696369656e74204f484d2062616c616e636520696e20636f6e7472616374\n\n    auxdata: 0xa264697066735822122015d7219093de8b10803d0cfc5f276e10a9730ad87661075cdda32f540546047e64736f6c63430007050033\n}\n",
				"bytecode": {
					"linkReferences": {},
					"object": "610120604052600c60e08190526b15539055551213d49256915160a21b6101009081526200003191600091906200023f565b503480156200003f57600080fd5b506040516200233338038062002333833981810160405260e08110156200006557600080fd5b50805160208201516040808401516060850151608086015160a087015160c090970151600180546001600160a01b0319166001600160a01b038316908117909155945196979596939592949193909182917f2f658b440c35314f52658ea8a740e05b284cdc84dc9ae01e891f21b8933e7cad90600090a2506001600160a01b0387166200012d576040805162461bcd60e51b81526020600482015260116024820152705a65726f20616464726573733a2045584f60781b604482015290519081900360640190fd5b6001600160601b0319606088901b166080526001600160a01b03861662000190576040805162461bcd60e51b81526020600482015260126024820152715a65726f20616464726573733a207345584f60701b604482015290519081900360640190fd5b6001600160601b0319606087901b1660a0526001600160a01b038516620001f3576040805162461bcd60e51b81526020600482015260126024820152715a65726f20616464726573733a206745584f60701b604482015290519081900360640190fd5b506001600160601b0319606094851b1660c05260408051608081018252848152602081018490529081018290526000940184905260029290925560035560045560055550620002eb9050565b828054600181600116156101000203166002900490600052602060002090601f016020900481019282620002775760008555620002c2565b82601f106200029257805160ff1916838001178555620002c2565b82800160010185558215620002c2579182015b82811115620002c2578251825591602001919060010190620002a5565b50620002d0929150620002d4565b5090565b5b80821115620002d05760008155600101620002d5565b60805160601c60a05160601c60c05160601c611f956200039e60003980610514528061053a52806105c95280610d365280610d9b52806112fb52806113ce5280611a5d5280611a8d5280611b9b5250806103fc528061042252806104bb52806106665280610bd75280610cbd5280610f6852806111f152806112d1528061158c52806116ca5280611a2d525080610e6b5280610f28528061112152806112a0528061146352806117e55250611f956000f3fe608060405234801561001057600080fd5b50600436106101825760003560e01c80639483c1d7116100d8578063bf7e214f1161008c578063deac361a11610066578063deac361a146103e2578063f3d86e4a146103ea578063ff9413d8146103f257610182565b8063bf7e214f14610396578063bfe109281461039e578063d866c9d8146103a657610182565b8063af14052c116100bd578063af14052c1461035a578063b383daf214610362578063bf376c7a1461036a57610182565b80639483c1d714610316578063990966d51461031e57610182565b80636746f4c21161013a578063900cf0cf11610114578063900cf0cf1461029d5780639238d592146102cb57806392fd2daf146102e857610182565b80636746f4c21461020157806375619ab51461024f5780637a9e5e4b1461027757610182565b80632986c0e51161016b5780632986c0e5146101c55780632af36b43146101cd57806339f47693146101d557610182565b806306d9cea81461018757806320138641146101ab575b600080fd5b61018f6103fa565b604080516001600160a01b039092168252519081900360200190f35b6101b361041e565b60408051918252519081900360200190f35b6101b36104b7565b61018f610512565b6101b3600480360360408110156101eb57600080fd5b506001600160a01b038135169060200135610536565b6102276004803603602081101561021757600080fd5b50356001600160a01b0316610693565b6040805194855260208501939093528383019190915215156060830152519081900360800190f35b6102756004803603602081101561026557600080fd5b50356001600160a01b03166106bd565b005b6102756004803603602081101561028d57600080fd5b50356001600160a01b0316610844565b6102a5610987565b604080519485526020850193909352838301919091526060830152519081900360800190f35b610275600480360360208110156102e157600080fd5b5035610996565b6101b3600480360360408110156102fe57600080fd5b506001600160a01b0381351690602001351515610abd565b6101b3610c81565b6101b36004803603608081101561033457600080fd5b506001600160a01b03813516906020810135906040810135151590606001351515610c96565b6101b3610f58565b61018f61129e565b6101b36004803603604081101561038057600080fd5b506001600160a01b0381351690602001356112c2565b61018f611436565b61018f611445565b6101b3600480360360808110156103bc57600080fd5b506001600160a01b03813516906020810135906040810135151590606001351515611454565b6101b3611751565b6101b3611757565b610275611813565b7f000000000000000000000000000000000000000000000000000000000000000081565b60007f00000000000000000000000000000000000000000000000000000000000000006001600160a01b0316637965d56d6009546040518263ffffffff1660e01b81526004018082815260200191505060206040518083038186803b15801561048657600080fd5b505afa15801561049a573d6000803e3d6000fd5b505050506040513d60208110156104b057600080fd5b5051905090565b60007f00000000000000000000000000000000000000000000000000000000000000006001600160a01b0316632986c0e56040518163ffffffff1660e01b815260040160206040518083038186803b15801561048657600080fd5b7f000000000000000000000000000000000000000000000000000000000000000081565b60007f00000000000000000000000000000000000000000000000000000000000000006001600160a01b0316639dc29fac33846040518363ffffffff1660e01b815260040180836001600160a01b0316815260200182815260200192505050600060405180830381600087803b1580156105af57600080fd5b505af11580156105c3573d6000803e3d6000fd5b505050507f00000000000000000000000000000000000000000000000000000000000000006001600160a01b031663a8248768836040518263ffffffff1660e01b81526004018082815260200191505060206040518083038186803b15801561062b57600080fd5b505afa15801561063f573d6000803e3d6000fd5b505050506040513d602081101561065557600080fd5b5051905061068d6001600160a01b037f0000000000000000000000000000000000000000000000000000000000000000168483611837565b92915050565b60076020526000908152604090208054600182015460028301546003909301549192909160ff1684565b600160009054906101000a90046001600160a01b03166001600160a01b0316630c340a246040518163ffffffff1660e01b815260040160206040518083038186803b15801561070b57600080fd5b505afa15801561071f573d6000803e3d6000fd5b505050506040513d602081101561073557600080fd5b50516000906001600160a01b031633146107e25760405162461bcd60e51b81526020600482019081528254600260001961010060018416150201909116046024830181905290918291604490910190849080156107d35780601f106107a8576101008083540402835291602001916107d3565b820191906000526020600020905b8154815290600101906020018083116107b657829003601f168201915b50509250505060405180910390fd5b50600680546001600160a01b03831673ffffffffffffffffffffffffffffffffffffffff19909116811790915560408051918252517f86719c518c7d99ac94b3d405d462ea876ba5cd0a978461dc9a7c9862a94858869181900360200190a150565b600160009054906101000a90046001600160a01b03166001600160a01b0316630c340a246040518163ffffffff1660e01b815260040160206040518083038186803b15801561089257600080fd5b505afa1580156108a6573d6000803e3d6000fd5b505050506040513d60208110156108bc57600080fd5b50516000906001600160a01b0316331461092f5760405162461bcd60e51b81526020600482019081528254600260001961010060018416150201909116046024830181905290918291604490910190849080156107d35780601f106107a8576101008083540402835291602001916107d3565b506001805473ffffffffffffffffffffffffffffffffffffffff19166001600160a01b0383169081179091556040517f2f658b440c35314f52658ea8a740e05b284cdc84dc9ae01e891f21b8933e7cad90600090a250565b60025460035460045460055484565b600160009054906101000a90046001600160a01b03166001600160a01b0316630c340a246040518163ffffffff1660e01b815260040160206040518083038186803b1580156109e457600080fd5b505afa1580156109f8573d6000803e3d6000fd5b505050506040513d6020811015610a0e57600080fd5b50516000906001600160a01b03163314610a815760405162461bcd60e51b81526020600482019081528254600260001961010060018416150201909116046024830181905290918291604490910190849080156107d35780601f106107a8576101008083540402835291602001916107d3565b5060088190556040805182815290517fac17d51c35ac71d3eddc155985908430e88946d51e2f6093e93c1c0aba08f6c49181900360200190a150565b6000610ac7611ec3565b506001600160a01b03831660009081526007602090815260409182902082516080810184528154815260018201549281019290925260028101549282019290925260039091015460ff16151560608201819052610b65576001600160a01b0384163314610b655760405162461bcd60e51b8152600401808060200182810382526026815260200180611f166026913960400191505060405180910390fd5b604081015160035410801590610b7e5750604081015115155b15610c77576001600160a01b038416600090815260076020908152604082208281556001810183905560028101929092556003909101805460ff19169055810151600954610bcb916119cf565b600981905550610c6f847f00000000000000000000000000000000000000000000000000000000000000006001600160a01b0316637965d56d84602001516040518263ffffffff1660e01b81526004018082815260200191505060206040518083038186803b158015610c3d57600080fd5b505afa158015610c51573d6000803e3d6000fd5b505050506040513d6020811015610c6757600080fd5b505185611a18565b91505061068d565b5060009392505050565b600454600090610c9190426119cf565b905090565b8260008315610caa57610ca7610f58565b90505b8215610cf657610ce56001600160a01b037f000000000000000000000000000000000000000000000000000000000000000016333088611c31565b610cef8282611dd2565b9150610e32565b604080517f9dc29fac0000000000000000000000000000000000000000000000000000000081523360048201526024810187905290516001600160a01b037f00000000000000000000000000000000000000000000000000000000000000001691639dc29fac91604480830192600092919082900301818387803b158015610d7d57600080fd5b505af1158015610d91573d6000803e3d6000fd5b50505050610e2f817f00000000000000000000000000000000000000000000000000000000000000006001600160a01b031663a8248768856040518263ffffffff1660e01b81526004018082815260200191505060206040518083038186803b158015610dfd57600080fd5b505afa158015610e11573d6000803e3d6000fd5b505050506040513d6020811015610e2757600080fd5b505190611dd2565b91505b604080517f70a0823100000000000000000000000000000000000000000000000000000000815230600482015290516001600160a01b037f000000000000000000000000000000000000000000000000000000000000000016916370a08231916024808301926020929190829003018186803b158015610eb157600080fd5b505afa158015610ec5573d6000803e3d6000fd5b505050506040513d6020811015610edb57600080fd5b5051821115610f1b5760405162461bcd60e51b8152600401808060200182810382526024815260200180611f3c6024913960400191505060405180910390fd5b610f4f6001600160a01b037f0000000000000000000000000000000000000000000000000000000000000000168784611837565b50949350505050565b60008042600280015411610c91577f00000000000000000000000000000000000000000000000000000000000000006001600160a01b031663058ecdb46002600301546002600101546040518363ffffffff1660e01b81526004018083815260200182815260200192505050602060405180830381600087803b158015610fde57600080fd5b505af1158015610ff2573d6000803e3d6000fd5b505050506040513d602081101561100857600080fd5b505060025460045461101991611dd2565b6004556003805460010190556006546001600160a01b03161561111d57600660009054906101000a90046001600160a01b03166001600160a01b031663e4fc6b6d6040518163ffffffff1660e01b8152600401600060405180830381600087803b15801561108657600080fd5b505af115801561109a573d6000803e3d6000fd5b50505050600660009054906101000a90046001600160a01b03166001600160a01b031663e7187e8a6040518163ffffffff1660e01b8152600401602060405180830381600087803b1580156110ee57600080fd5b505af1158015611102573d6000803e3d6000fd5b505050506040513d602081101561111857600080fd5b505190505b60007f00000000000000000000000000000000000000000000000000000000000000006001600160a01b03166370a08231306040518263ffffffff1660e01b815260040180826001600160a01b0316815260200191505060206040518083038186803b15801561118c57600080fd5b505afa1580156111a0573d6000803e3d6000fd5b505050506040513d60208110156111b657600080fd5b5051604080517f9358928b00000000000000000000000000000000000000000000000000000000815290519192506000916001600160a01b037f00000000000000000000000000000000000000000000000000000000000000001691639358928b916004808301926020929190829003018186803b15801561123757600080fd5b505afa15801561124b573d6000803e3d6000fd5b505050506040513d602081101561126157600080fd5b5051905061126f8184611dd2565b821161127f576000600555611297565b6112938361128d84846119cf565b906119cf565b6005555b5050905090565b7f000000000000000000000000000000000000000000000000000000000000000081565b60006112f96001600160a01b037f000000000000000000000000000000000000000000000000000000000000000016333085611c31565b7f00000000000000000000000000000000000000000000000000000000000000006001600160a01b03166366a5236c836040518263ffffffff1660e01b81526004018082815260200191505060206040518083038186803b15801561135d57600080fd5b505afa158015611371573d6000803e3d6000fd5b505050506040513d602081101561138757600080fd5b5051604080517f40c10f190000000000000000000000000000000000000000000000000000000081526001600160a01b0386811660048301526024820184905291519293507f0000000000000000000000000000000000000000000000000000000000000000909116916340c10f199160448082019260009290919082900301818387803b15801561141857600080fd5b505af115801561142c573d6000803e3d6000fd5b5050505092915050565b6001546001600160a01b031681565b6006546001600160a01b031681565b600061148b6001600160a01b037f000000000000000000000000000000000000000000000000000000000000000016333087611c31565b61149d611496610f58565b8590611dd2565b93508180156114ac5750600854155b156114c3576114bc858585611a18565b9050611749565b6114cb611ec3565b506001600160a01b03851660009081526007602090815260409182902082516080810184528154815260018201549281019290925260028101549282019290925260039091015460ff16151560608201819052611569576001600160a01b03861633146115695760405162461bcd60e51b8152600401808060200182810382526028815260200180611eee6028913960400191505060405180910390fd5b6040805160808101909152815181906115829088611dd2565b81526020016116257f00000000000000000000000000000000000000000000000000000000000000006001600160a01b0316631bd39674896040518263ffffffff1660e01b81526004018082815260200191505060206040518083038186803b1580156115ee57600080fd5b505afa158015611602573d6000803e3d6000fd5b505050506040513d602081101561161857600080fd5b5051602085015190611dd2565b815260085460035460209092019161163c91611dd2565b815260608381015115156020928301526001600160a01b038981166000908152600784526040908190208551815585850151600182015585820151600282015594909201516003909401805460ff19169415159490941790935580517f1bd39674000000000000000000000000000000000000000000000000000000008152600481018990529051611741937f00000000000000000000000000000000000000000000000000000000000000001692631bd396749260248082019391829003018186803b15801561170c57600080fd5b505afa158015611720573d6000803e3d6000fd5b505050506040513d602081101561173657600080fd5b505160095490611dd2565b600955508390505b949350505050565b60085481565b6000611761611ec3565b503360008181526007602081815260408084208151608081018352815481526001820180548286019081526002840180549584019590955260038401805460ff81161515606086015299895296909552918690559085905593905560ff19909316905590516009546117d2916119cf565b600955805161180d906001600160a01b037f000000000000000000000000000000000000000000000000000000000000000016903390611837565b51905090565b336000908152600760205260409020600301805460ff19811660ff90911615179055565b604080516001600160a01b038481166024830152604480830185905283518084039091018152606490920183526020820180517bffffffffffffffffffffffffffffffffffffffffffffffffffffffff167fa9059cbb00000000000000000000000000000000000000000000000000000000178152925182516000946060949389169392918291908083835b602083106118e25780518252601f1990920191602091820191016118c3565b6001836020036101000a0380198251168184511680821785525050505050509050019150506000604051808303816000865af19150503d8060008114611944576040519150601f19603f3d011682016040523d82523d6000602084013e611949565b606091505b5091509150818015611977575080511580611977575080806020019051602081101561197457600080fd5b50515b6119c8576040805162461bcd60e51b815260206004820152600f60248201527f5452414e534645525f4641494c45440000000000000000000000000000000000604482015290519081900360640190fd5b5050505050565b6000611a1183836040518060400160405280601e81526020017f536166654d6174683a207375627472616374696f6e206f766572666c6f770000815250611e2c565b9392505050565b60008115611a5b57611a546001600160a01b037f0000000000000000000000000000000000000000000000000000000000000000168585611837565b5081611a11565b7f00000000000000000000000000000000000000000000000000000000000000006001600160a01b03166340c10f19857f00000000000000000000000000000000000000000000000000000000000000006001600160a01b03166366a5236c876040518263ffffffff1660e01b81526004018082815260200191505060206040518083038186803b158015611aef57600080fd5b505afa158015611b03573d6000803e3d6000fd5b505050506040513d6020811015611b1957600080fd5b5051604080517fffffffff0000000000000000000000000000000000000000000000000000000060e086901b1681526001600160a01b039093166004840152602483019190915251604480830192600092919082900301818387803b158015611b8157600080fd5b505af1158015611b95573d6000803e3d6000fd5b505050507f00000000000000000000000000000000000000000000000000000000000000006001600160a01b03166366a5236c846040518263ffffffff1660e01b81526004018082815260200191505060206040518083038186803b158015611bfd57600080fd5b505afa158015611c11573d6000803e3d6000fd5b505050506040513d6020811015611c2757600080fd5b5051949350505050565b604080516001600160a01b0385811660248301528481166044830152606480830185905283518084039091018152608490920183526020820180517bffffffffffffffffffffffffffffffffffffffffffffffffffffffff167f23b872dd0000000000000000000000000000000000000000000000000000000017815292518251600094606094938a169392918291908083835b60208310611ce45780518252601f199092019160209182019101611cc5565b6001836020036101000a0380198251168184511680821785525050505050509050019150506000604051808303816000865af19150503d8060008114611d46576040519150601f19603f3d011682016040523d82523d6000602084013e611d4b565b606091505b5091509150818015611d79575080511580611d795750808060200190516020811015611d7657600080fd5b50515b611dca576040805162461bcd60e51b815260206004820152601460248201527f5452414e534645525f46524f4d5f4641494c4544000000000000000000000000604482015290519081900360640190fd5b505050505050565b600082820183811015611a11576040805162461bcd60e51b815260206004820152601b60248201527f536166654d6174683a206164646974696f6e206f766572666c6f770000000000604482015290519081900360640190fd5b60008184841115611ebb5760405162461bcd60e51b81526004018080602001828103825283818151815260200191508051906020019080838360005b83811015611e80578181015183820152602001611e68565b50505050905090810190601f168015611ead5780820380516001836020036101000a031916815260200191505b509250505060405180910390fd5b505050900390565b6040518060800160405280600081526020016000815260200160008152602001600015158152509056fe45787465726e616c206465706f7369747320666f72206163636f756e7420617265206c6f636b656445787465726e616c20636c61696d7320666f72206163636f756e7420617265206c6f636b6564496e73756666696369656e74204f484d2062616c616e636520696e20636f6e7472616374a264697066735822122015d7219093de8b10803d0cfc5f276e10a9730ad87661075cdda32f540546047e64736f6c63430007050033",
					"opcodes": "PUSH2 0x120 PUSH1 0x40 MSTORE PUSH1 0xC PUSH1 0xE0 DUP2 SWAP1 MSTORE PUSH12 0x15539055551213D492569151 PUSH1 0xA2 SHL PUSH2 0x100 SWAP1 DUP2 MSTORE PUSH3 0x31 SWAP2 PUSH1 0x0 SWAP2 SWAP1 PUSH3 0x23F JUMP JUMPDEST POP CALLVALUE DUP1 ISZERO PUSH3 0x3F JUMPI PUSH1 0x0 DUP1 REVERT JUMPDEST POP PUSH1 0x40 MLOAD PUSH3 0x2333 CODESIZE SUB DUP1 PUSH3 0x2333 DUP4 CODECOPY DUP2 DUP2 ADD PUSH1 0x40 MSTORE PUSH1 0xE0 DUP2 LT ISZERO PUSH3 0x65 JUMPI PUSH1 0x0 DUP1 REVERT JUMPDEST POP DUP1 MLOAD PUSH1 0x20 DUP3 ADD MLOAD PUSH1 0x40 DUP1 DUP5 ADD MLOAD PUSH1 0x60 DUP6 ADD MLOAD PUSH1 0x80 DUP7 ADD MLOAD PUSH1 0xA0 DUP8 ADD MLOAD PUSH1 0xC0 SWAP1 SWAP8 ADD MLOAD PUSH1 0x1 DUP1 SLOAD PUSH1 0x1 PUSH1 0x1 PUSH1 0xA0 SHL SUB NOT AND PUSH1 0x1 PUSH1 0x1 PUSH1 0xA0 SHL SUB DUP4 AND SWAP1 DUP2 OR SWAP1 SWAP2 SSTORE SWAP5 MLOAD SWAP7 SWAP8 SWAP6 SWAP7 SWAP4 SWAP6 SWAP3 SWAP5 SWAP2 SWAP4 SWAP1 SWAP2 DUP3 SWAP2 PUSH32 0x2F658B440C35314F52658EA8A740E05B284CDC84DC9AE01E891F21B8933E7CAD SWAP1 PUSH1 0x0 SWAP1 LOG2 POP PUSH1 0x1 PUSH1 0x1 PUSH1 0xA0 SHL SUB DUP8 AND PUSH3 0x12D JUMPI PUSH1 0x40 DUP1 MLOAD PUSH3 0x461BCD PUSH1 0xE5 SHL DUP2 MSTORE PUSH1 0x20 PUSH1 0x4 DUP3 ADD MSTORE PUSH1 0x11 PUSH1 0x24 DUP3 ADD MSTORE PUSH17 0x5A65726F20616464726573733A2045584F PUSH1 0x78 SHL PUSH1 0x44 DUP3 ADD MSTORE SWAP1 MLOAD SWAP1 DUP2 SWAP1 SUB PUSH1 0x64 ADD SWAP1 REVERT JUMPDEST PUSH1 0x1 PUSH1 0x1 PUSH1 0x60 SHL SUB NOT PUSH1 0x60 DUP9 SWAP1 SHL AND PUSH1 0x80 MSTORE PUSH1 0x1 PUSH1 0x1 PUSH1 0xA0 SHL SUB DUP7 AND PUSH3 0x190 JUMPI PUSH1 0x40 DUP1 MLOAD PUSH3 0x461BCD PUSH1 0xE5 SHL DUP2 MSTORE PUSH1 0x20 PUSH1 0x4 DUP3 ADD MSTORE PUSH1 0x12 PUSH1 0x24 DUP3 ADD MSTORE PUSH18 0x5A65726F20616464726573733A207345584F PUSH1 0x70 SHL PUSH1 0x44 DUP3 ADD MSTORE SWAP1 MLOAD SWAP1 DUP2 SWAP1 SUB PUSH1 0x64 ADD SWAP1 REVERT JUMPDEST PUSH1 0x1 PUSH1 0x1 PUSH1 0x60 SHL SUB NOT PUSH1 0x60 DUP8 SWAP1 SHL AND PUSH1 0xA0 MSTORE PUSH1 0x1 PUSH1 0x1 PUSH1 0xA0 SHL SUB DUP6 AND PUSH3 0x1F3 JUMPI PUSH1 0x40 DUP1 MLOAD PUSH3 0x461BCD PUSH1 0xE5 SHL DUP2 MSTORE PUSH1 0x20 PUSH1 0x4 DUP3 ADD MSTORE PUSH1 0x12 PUSH1 0x24 DUP3 ADD MSTORE PUSH18 0x5A65726F20616464726573733A206745584F PUSH1 0x70 SHL PUSH1 0x44 DUP3 ADD MSTORE SWAP1 MLOAD SWAP1 DUP2 SWAP1 SUB PUSH1 0x64 ADD SWAP1 REVERT JUMPDEST POP PUSH1 0x1 PUSH1 0x1 PUSH1 0x60 SHL SUB NOT PUSH1 0x60 SWAP5 DUP6 SHL AND PUSH1 0xC0 MSTORE PUSH1 0x40 DUP1 MLOAD PUSH1 0x80 DUP2 ADD DUP3 MSTORE DUP5 DUP2 MSTORE PUSH1 0x20 DUP2 ADD DUP5 SWAP1 MSTORE SWAP1 DUP2 ADD DUP3 SWAP1 MSTORE PUSH1 0x0 SWAP5 ADD DUP5 SWAP1 MSTORE PUSH1 0x2 SWAP3 SWAP1 SWAP3 SSTORE PUSH1 0x3 SSTORE PUSH1 0x4 SSTORE PUSH1 0x5 SSTORE POP PUSH3 0x2EB SWAP1 POP JUMP JUMPDEST DUP3 DUP1 SLOAD PUSH1 0x1 DUP2 PUSH1 0x1 AND ISZERO PUSH2 0x100 MUL SUB AND PUSH1 0x2 SWAP1 DIV SWAP1 PUSH1 0x0 MSTORE PUSH1 0x20 PUSH1 0x0 KECCAK256 SWAP1 PUSH1 0x1F ADD PUSH1 0x20 SWAP1 DIV DUP2 ADD SWAP3 DUP3 PUSH3 0x277 JUMPI PUSH1 0x0 DUP6 SSTORE PUSH3 0x2C2 JUMP JUMPDEST DUP3 PUSH1 0x1F LT PUSH3 0x292 JUMPI DUP1 MLOAD PUSH1 0xFF NOT AND DUP4 DUP1 ADD OR DUP6 SSTORE PUSH3 0x2C2 JUMP JUMPDEST DUP3 DUP1 ADD PUSH1 0x1 ADD DUP6 SSTORE DUP3 ISZERO PUSH3 0x2C2 JUMPI SWAP2 DUP3 ADD JUMPDEST DUP3 DUP2 GT ISZERO PUSH3 0x2C2 JUMPI DUP3 MLOAD DUP3 SSTORE SWAP2 PUSH1 0x20 ADD SWAP2 SWAP1 PUSH1 0x1 ADD SWAP1 PUSH3 0x2A5 JUMP JUMPDEST POP PUSH3 0x2D0 SWAP3 SWAP2 POP PUSH3 0x2D4 JUMP JUMPDEST POP SWAP1 JUMP JUMPDEST JUMPDEST DUP1 DUP3 GT ISZERO PUSH3 0x2D0 JUMPI PUSH1 0x0 DUP2 SSTORE PUSH1 0x1 ADD PUSH3 0x2D5 JUMP JUMPDEST PUSH1 0x80 MLOAD PUSH1 0x60 SHR PUSH1 0xA0 MLOAD PUSH1 0x60 SHR PUSH1 0xC0 MLOAD PUSH1 0x60 SHR PUSH2 0x1F95 PUSH3 0x39E PUSH1 0x0 CODECOPY DUP1 PUSH2 0x514 MSTORE DUP1 PUSH2 0x53A MSTORE DUP1 PUSH2 0x5C9 MSTORE DUP1 PUSH2 0xD36 MSTORE DUP1 PUSH2 0xD9B MSTORE DUP1 PUSH2 0x12FB MSTORE DUP1 PUSH2 0x13CE MSTORE DUP1 PUSH2 0x1A5D MSTORE DUP1 PUSH2 0x1A8D MSTORE DUP1 PUSH2 0x1B9B MSTORE POP DUP1 PUSH2 0x3FC MSTORE DUP1 PUSH2 0x422 MSTORE DUP1 PUSH2 0x4BB MSTORE DUP1 PUSH2 0x666 MSTORE DUP1 PUSH2 0xBD7 MSTORE DUP1 PUSH2 0xCBD MSTORE DUP1 PUSH2 0xF68 MSTORE DUP1 PUSH2 0x11F1 MSTORE DUP1 PUSH2 0x12D1 MSTORE DUP1 PUSH2 0x158C MSTORE DUP1 PUSH2 0x16CA MSTORE DUP1 PUSH2 0x1A2D MSTORE POP DUP1 PUSH2 0xE6B MSTORE DUP1 PUSH2 0xF28 MSTORE DUP1 PUSH2 0x1121 MSTORE DUP1 PUSH2 0x12A0 MSTORE DUP1 PUSH2 0x1463 MSTORE DUP1 PUSH2 0x17E5 MSTORE POP PUSH2 0x1F95 PUSH1 0x0 RETURN INVALID PUSH1 0x80 PUSH1 0x40 MSTORE CALLVALUE DUP1 ISZERO PUSH2 0x10 JUMPI PUSH1 0x0 DUP1 REVERT JUMPDEST POP PUSH1 0x4 CALLDATASIZE LT PUSH2 0x182 JUMPI PUSH1 0x0 CALLDATALOAD PUSH1 0xE0 SHR DUP1 PUSH4 0x9483C1D7 GT PUSH2 0xD8 JUMPI DUP1 PUSH4 0xBF7E214F GT PUSH2 0x8C JUMPI DUP1 PUSH4 0xDEAC361A GT PUSH2 0x66 JUMPI DUP1 PUSH4 0xDEAC361A EQ PUSH2 0x3E2 JUMPI DUP1 PUSH4 0xF3D86E4A EQ PUSH2 0x3EA JUMPI DUP1 PUSH4 0xFF9413D8 EQ PUSH2 0x3F2 JUMPI PUSH2 0x182 JUMP JUMPDEST DUP1 PUSH4 0xBF7E214F EQ PUSH2 0x396 JUMPI DUP1 PUSH4 0xBFE10928 EQ PUSH2 0x39E JUMPI DUP1 PUSH4 0xD866C9D8 EQ PUSH2 0x3A6 JUMPI PUSH2 0x182 JUMP JUMPDEST DUP1 PUSH4 0xAF14052C GT PUSH2 0xBD JUMPI DUP1 PUSH4 0xAF14052C EQ PUSH2 0x35A JUMPI DUP1 PUSH4 0xB383DAF2 EQ PUSH2 0x362 JUMPI DUP1 PUSH4 0xBF376C7A EQ PUSH2 0x36A JUMPI PUSH2 0x182 JUMP JUMPDEST DUP1 PUSH4 0x9483C1D7 EQ PUSH2 0x316 JUMPI DUP1 PUSH4 0x990966D5 EQ PUSH2 0x31E JUMPI PUSH2 0x182 JUMP JUMPDEST DUP1 PUSH4 0x6746F4C2 GT PUSH2 0x13A JUMPI DUP1 PUSH4 0x900CF0CF GT PUSH2 0x114 JUMPI DUP1 PUSH4 0x900CF0CF EQ PUSH2 0x29D JUMPI DUP1 PUSH4 0x9238D592 EQ PUSH2 0x2CB JUMPI DUP1 PUSH4 0x92FD2DAF EQ PUSH2 0x2E8 JUMPI PUSH2 0x182 JUMP JUMPDEST DUP1 PUSH4 0x6746F4C2 EQ PUSH2 0x201 JUMPI DUP1 PUSH4 0x75619AB5 EQ PUSH2 0x24F JUMPI DUP1 PUSH4 0x7A9E5E4B EQ PUSH2 0x277 JUMPI PUSH2 0x182 JUMP JUMPDEST DUP1 PUSH4 0x2986C0E5 GT PUSH2 0x16B JUMPI DUP1 PUSH4 0x2986C0E5 EQ PUSH2 0x1C5 JUMPI DUP1 PUSH4 0x2AF36B43 EQ PUSH2 0x1CD JUMPI DUP1 PUSH4 0x39F47693 EQ PUSH2 0x1D5 JUMPI PUSH2 0x182 JUMP JUMPDEST DUP1 PUSH4 0x6D9CEA8 EQ PUSH2 0x187 JUMPI DUP1 PUSH4 0x20138641 EQ PUSH2 0x1AB JUMPI JUMPDEST PUSH1 0x0 DUP1 REVERT JUMPDEST PUSH2 0x18F PUSH2 0x3FA JUMP JUMPDEST PUSH1 0x40 DUP1 MLOAD PUSH1 0x1 PUSH1 0x1 PUSH1 0xA0 SHL SUB SWAP1 SWAP3 AND DUP3 MSTORE MLOAD SWAP1 DUP2 SWAP1 SUB PUSH1 0x20 ADD SWAP1 RETURN JUMPDEST PUSH2 0x1B3 PUSH2 0x41E JUMP JUMPDEST PUSH1 0x40 DUP1 MLOAD SWAP2 DUP3 MSTORE MLOAD SWAP1 DUP2 SWAP1 SUB PUSH1 0x20 ADD SWAP1 RETURN JUMPDEST PUSH2 0x1B3 PUSH2 0x4B7 JUMP JUMPDEST PUSH2 0x18F PUSH2 0x512 JUMP JUMPDEST PUSH2 0x1B3 PUSH1 0x4 DUP1 CALLDATASIZE SUB PUSH1 0x40 DUP2 LT ISZERO PUSH2 0x1EB JUMPI PUSH1 0x0 DUP1 REVERT JUMPDEST POP PUSH1 0x1 PUSH1 0x1 PUSH1 0xA0 SHL SUB DUP2 CALLDATALOAD AND SWAP1 PUSH1 0x20 ADD CALLDATALOAD PUSH2 0x536 JUMP JUMPDEST PUSH2 0x227 PUSH1 0x4 DUP1 CALLDATASIZE SUB PUSH1 0x20 DUP2 LT ISZERO PUSH2 0x217 JUMPI PUSH1 0x0 DUP1 REVERT JUMPDEST POP CALLDATALOAD PUSH1 0x1 PUSH1 0x1 PUSH1 0xA0 SHL SUB AND PUSH2 0x693 JUMP JUMPDEST PUSH1 0x40 DUP1 MLOAD SWAP5 DUP6 MSTORE PUSH1 0x20 DUP6 ADD SWAP4 SWAP1 SWAP4 MSTORE DUP4 DUP4 ADD SWAP2 SWAP1 SWAP2 MSTORE ISZERO ISZERO PUSH1 0x60 DUP4 ADD MSTORE MLOAD SWAP1 DUP2 SWAP1 SUB PUSH1 0x80 ADD SWAP1 RETURN JUMPDEST PUSH2 0x275 PUSH1 0x4 DUP1 CALLDATASIZE SUB PUSH1 0x20 DUP2 LT ISZERO PUSH2 0x265 JUMPI PUSH1 0x0 DUP1 REVERT JUMPDEST POP CALLDATALOAD PUSH1 0x1 PUSH1 0x1 PUSH1 0xA0 SHL SUB AND PUSH2 0x6BD JUMP JUMPDEST STOP JUMPDEST PUSH2 0x275 PUSH1 0x4 DUP1 CALLDATASIZE SUB PUSH1 0x20 DUP2 LT ISZERO PUSH2 0x28D JUMPI PUSH1 0x0 DUP1 REVERT JUMPDEST POP CALLDATALOAD PUSH1 0x1 PUSH1 0x1 PUSH1 0xA0 SHL SUB AND PUSH2 0x844 JUMP JUMPDEST PUSH2 0x2A5 PUSH2 0x987 JUMP JUMPDEST PUSH1 0x40 DUP1 MLOAD SWAP5 DUP6 MSTORE PUSH1 0x20 DUP6 ADD SWAP4 SWAP1 SWAP4 MSTORE DUP4 DUP4 ADD SWAP2 SWAP1 SWAP2 MSTORE PUSH1 0x60 DUP4 ADD MSTORE MLOAD SWAP1 DUP2 SWAP1 SUB PUSH1 0x80 ADD SWAP1 RETURN JUMPDEST PUSH2 0x275 PUSH1 0x4 DUP1 CALLDATASIZE SUB PUSH1 0x20 DUP2 LT ISZERO PUSH2 0x2E1 JUMPI PUSH1 0x0 DUP1 REVERT JUMPDEST POP CALLDATALOAD PUSH2 0x996 JUMP JUMPDEST PUSH2 0x1B3 PUSH1 0x4 DUP1 CALLDATASIZE SUB PUSH1 0x40 DUP2 LT ISZERO PUSH2 0x2FE JUMPI PUSH1 0x0 DUP1 REVERT JUMPDEST POP PUSH1 0x1 PUSH1 0x1 PUSH1 0xA0 SHL SUB DUP2 CALLDATALOAD AND SWAP1 PUSH1 0x20 ADD CALLDATALOAD ISZERO ISZERO PUSH2 0xABD JUMP JUMPDEST PUSH2 0x1B3 PUSH2 0xC81 JUMP JUMPDEST PUSH2 0x1B3 PUSH1 0x4 DUP1 CALLDATASIZE SUB PUSH1 0x80 DUP2 LT ISZERO PUSH2 0x334 JUMPI PUSH1 0x0 DUP1 REVERT JUMPDEST POP PUSH1 0x1 PUSH1 0x1 PUSH1 0xA0 SHL SUB DUP2 CALLDATALOAD AND SWAP1 PUSH1 0x20 DUP2 ADD CALLDATALOAD SWAP1 PUSH1 0x40 DUP2 ADD CALLDATALOAD ISZERO ISZERO SWAP1 PUSH1 0x60 ADD CALLDATALOAD ISZERO ISZERO PUSH2 0xC96 JUMP JUMPDEST PUSH2 0x1B3 PUSH2 0xF58 JUMP JUMPDEST PUSH2 0x18F PUSH2 0x129E JUMP JUMPDEST PUSH2 0x1B3 PUSH1 0x4 DUP1 CALLDATASIZE SUB PUSH1 0x40 DUP2 LT ISZERO PUSH2 0x380 JUMPI PUSH1 0x0 DUP1 REVERT JUMPDEST POP PUSH1 0x1 PUSH1 0x1 PUSH1 0xA0 SHL SUB DUP2 CALLDATALOAD AND SWAP1 PUSH1 0x20 ADD CALLDATALOAD PUSH2 0x12C2 JUMP JUMPDEST PUSH2 0x18F PUSH2 0x1436 JUMP JUMPDEST PUSH2 0x18F PUSH2 0x1445 JUMP JUMPDEST PUSH2 0x1B3 PUSH1 0x4 DUP1 CALLDATASIZE SUB PUSH1 0x80 DUP2 LT ISZERO PUSH2 0x3BC JUMPI PUSH1 0x0 DUP1 REVERT JUMPDEST POP PUSH1 0x1 PUSH1 0x1 PUSH1 0xA0 SHL SUB DUP2 CALLDATALOAD AND SWAP1 PUSH1 0x20 DUP2 ADD CALLDATALOAD SWAP1 PUSH1 0x40 DUP2 ADD CALLDATALOAD ISZERO ISZERO SWAP1 PUSH1 0x60 ADD CALLDATALOAD ISZERO ISZERO PUSH2 0x1454 JUMP JUMPDEST PUSH2 0x1B3 PUSH2 0x1751 JUMP JUMPDEST PUSH2 0x1B3 PUSH2 0x1757 JUMP JUMPDEST PUSH2 0x275 PUSH2 0x1813 JUMP JUMPDEST PUSH32 0x0 DUP2 JUMP JUMPDEST PUSH1 0x0 PUSH32 0x0 PUSH1 0x1 PUSH1 0x1 PUSH1 0xA0 SHL SUB AND PUSH4 0x7965D56D PUSH1 0x9 SLOAD PUSH1 0x40 MLOAD DUP3 PUSH4 0xFFFFFFFF AND PUSH1 0xE0 SHL DUP2 MSTORE PUSH1 0x4 ADD DUP1 DUP3 DUP2 MSTORE PUSH1 0x20 ADD SWAP2 POP POP PUSH1 0x20 PUSH1 0x40 MLOAD DUP1 DUP4 SUB DUP2 DUP7 DUP1 EXTCODESIZE ISZERO DUP1 ISZERO PUSH2 0x486 JUMPI PUSH1 0x0 DUP1 REVERT JUMPDEST POP GAS STATICCALL ISZERO DUP1 ISZERO PUSH2 0x49A JUMPI RETURNDATASIZE PUSH1 0x0 DUP1 RETURNDATACOPY RETURNDATASIZE PUSH1 0x0 REVERT JUMPDEST POP POP POP POP PUSH1 0x40 MLOAD RETURNDATASIZE PUSH1 0x20 DUP2 LT ISZERO PUSH2 0x4B0 JUMPI PUSH1 0x0 DUP1 REVERT JUMPDEST POP MLOAD SWAP1 POP SWAP1 JUMP JUMPDEST PUSH1 0x0 PUSH32 0x0 PUSH1 0x1 PUSH1 0x1 PUSH1 0xA0 SHL SUB AND PUSH4 0x2986C0E5 PUSH1 0x40 MLOAD DUP2 PUSH4 0xFFFFFFFF AND PUSH1 0xE0 SHL DUP2 MSTORE PUSH1 0x4 ADD PUSH1 0x20 PUSH1 0x40 MLOAD DUP1 DUP4 SUB DUP2 DUP7 DUP1 EXTCODESIZE ISZERO DUP1 ISZERO PUSH2 0x486 JUMPI PUSH1 0x0 DUP1 REVERT JUMPDEST PUSH32 0x0 DUP2 JUMP JUMPDEST PUSH1 0x0 PUSH32 0x0 PUSH1 0x1 PUSH1 0x1 PUSH1 0xA0 SHL SUB AND PUSH4 0x9DC29FAC CALLER DUP5 PUSH1 0x40 MLOAD DUP4 PUSH4 0xFFFFFFFF AND PUSH1 0xE0 SHL DUP2 MSTORE PUSH1 0x4 ADD DUP1 DUP4 PUSH1 0x1 PUSH1 0x1 PUSH1 0xA0 SHL SUB AND DUP2 MSTORE PUSH1 0x20 ADD DUP3 DUP2 MSTORE PUSH1 0x20 ADD SWAP3 POP POP POP PUSH1 0x0 PUSH1 0x40 MLOAD DUP1 DUP4 SUB DUP2 PUSH1 0x0 DUP8 DUP1 EXTCODESIZE ISZERO DUP1 ISZERO PUSH2 0x5AF JUMPI PUSH1 0x0 DUP1 REVERT JUMPDEST POP GAS CALL ISZERO DUP1 ISZERO PUSH2 0x5C3 JUMPI RETURNDATASIZE PUSH1 0x0 DUP1 RETURNDATACOPY RETURNDATASIZE PUSH1 0x0 REVERT JUMPDEST POP POP POP POP PUSH32 0x0 PUSH1 0x1 PUSH1 0x1 PUSH1 0xA0 SHL SUB AND PUSH4 0xA8248768 DUP4 PUSH1 0x40 MLOAD DUP3 PUSH4 0xFFFFFFFF AND PUSH1 0xE0 SHL DUP2 MSTORE PUSH1 0x4 ADD DUP1 DUP3 DUP2 MSTORE PUSH1 0x20 ADD SWAP2 POP POP PUSH1 0x20 PUSH1 0x40 MLOAD DUP1 DUP4 SUB DUP2 DUP7 DUP1 EXTCODESIZE ISZERO DUP1 ISZERO PUSH2 0x62B JUMPI PUSH1 0x0 DUP1 REVERT JUMPDEST POP GAS STATICCALL ISZERO DUP1 ISZERO PUSH2 0x63F JUMPI RETURNDATASIZE PUSH1 0x0 DUP1 RETURNDATACOPY RETURNDATASIZE PUSH1 0x0 REVERT JUMPDEST POP POP POP POP PUSH1 0x40 MLOAD RETURNDATASIZE PUSH1 0x20 DUP2 LT ISZERO PUSH2 0x655 JUMPI PUSH1 0x0 DUP1 REVERT JUMPDEST POP MLOAD SWAP1 POP PUSH2 0x68D PUSH1 0x1 PUSH1 0x1 PUSH1 0xA0 SHL SUB PUSH32 0x0 AND DUP5 DUP4 PUSH2 0x1837 JUMP JUMPDEST SWAP3 SWAP2 POP POP JUMP JUMPDEST PUSH1 0x7 PUSH1 0x20 MSTORE PUSH1 0x0 SWAP1 DUP2 MSTORE PUSH1 0x40 SWAP1 KECCAK256 DUP1 SLOAD PUSH1 0x1 DUP3 ADD SLOAD PUSH1 0x2 DUP4 ADD SLOAD PUSH1 0x3 SWAP1 SWAP4 ADD SLOAD SWAP2 SWAP3 SWAP1 SWAP2 PUSH1 0xFF AND DUP5 JUMP JUMPDEST PUSH1 0x1 PUSH1 0x0 SWAP1 SLOAD SWAP1 PUSH2 0x100 EXP SWAP1 DIV PUSH1 0x1 PUSH1 0x1 PUSH1 0xA0 SHL SUB AND PUSH1 0x1 PUSH1 0x1 PUSH1 0xA0 SHL SUB AND PUSH4 0xC340A24 PUSH1 0x40 MLOAD DUP2 PUSH4 0xFFFFFFFF AND PUSH1 0xE0 SHL DUP2 MSTORE PUSH1 0x4 ADD PUSH1 0x20 PUSH1 0x40 MLOAD DUP1 DUP4 SUB DUP2 DUP7 DUP1 EXTCODESIZE ISZERO DUP1 ISZERO PUSH2 0x70B JUMPI PUSH1 0x0 DUP1 REVERT JUMPDEST POP GAS STATICCALL ISZERO DUP1 ISZERO PUSH2 0x71F JUMPI RETURNDATASIZE PUSH1 0x0 DUP1 RETURNDATACOPY RETURNDATASIZE PUSH1 0x0 REVERT JUMPDEST POP POP POP POP PUSH1 0x40 MLOAD RETURNDATASIZE PUSH1 0x20 DUP2 LT ISZERO PUSH2 0x735 JUMPI PUSH1 0x0 DUP1 REVERT JUMPDEST POP MLOAD PUSH1 0x0 SWAP1 PUSH1 0x1 PUSH1 0x1 PUSH1 0xA0 SHL SUB AND CALLER EQ PUSH2 0x7E2 JUMPI PUSH1 0x40 MLOAD PUSH3 0x461BCD PUSH1 0xE5 SHL DUP2 MSTORE PUSH1 0x20 PUSH1 0x4 DUP3 ADD SWAP1 DUP2 MSTORE DUP3 SLOAD PUSH1 0x2 PUSH1 0x0 NOT PUSH2 0x100 PUSH1 0x1 DUP5 AND ISZERO MUL ADD SWAP1 SWAP2 AND DIV PUSH1 0x24 DUP4 ADD DUP2 SWAP1 MSTORE SWAP1 SWAP2 DUP3 SWAP2 PUSH1 0x44 SWAP1 SWAP2 ADD SWAP1 DUP5 SWAP1 DUP1 ISZERO PUSH2 0x7D3 JUMPI DUP1 PUSH1 0x1F LT PUSH2 0x7A8 JUMPI PUSH2 0x100 DUP1 DUP4 SLOAD DIV MUL DUP4 MSTORE SWAP2 PUSH1 0x20 ADD SWAP2 PUSH2 0x7D3 JUMP JUMPDEST DUP3 ADD SWAP2 SWAP1 PUSH1 0x0 MSTORE PUSH1 0x20 PUSH1 0x0 KECCAK256 SWAP1 JUMPDEST DUP2 SLOAD DUP2 MSTORE SWAP1 PUSH1 0x1 ADD SWAP1 PUSH1 0x20 ADD DUP1 DUP4 GT PUSH2 0x7B6 JUMPI DUP3 SWAP1 SUB PUSH1 0x1F AND DUP3 ADD SWAP2 JUMPDEST POP POP SWAP3 POP POP POP PUSH1 0x40 MLOAD DUP1 SWAP2 SUB SWAP1 REVERT JUMPDEST POP PUSH1 0x6 DUP1 SLOAD PUSH1 0x1 PUSH1 0x1 PUSH1 0xA0 SHL SUB DUP4 AND PUSH20 0xFFFFFFFFFFFFFFFFFFFFFFFFFFFFFFFFFFFFFFFF NOT SWAP1 SWAP2 AND DUP2 OR SWAP1 SWAP2 SSTORE PUSH1 0x40 DUP1 MLOAD SWAP2 DUP3 MSTORE MLOAD PUSH32 0x86719C518C7D99AC94B3D405D462EA876BA5CD0A978461DC9A7C9862A9485886 SWAP2 DUP2 SWAP1 SUB PUSH1 0x20 ADD SWAP1 LOG1 POP JUMP JUMPDEST PUSH1 0x1 PUSH1 0x0 SWAP1 SLOAD SWAP1 PUSH2 0x100 EXP SWAP1 DIV PUSH1 0x1 PUSH1 0x1 PUSH1 0xA0 SHL SUB AND PUSH1 0x1 PUSH1 0x1 PUSH1 0xA0 SHL SUB AND PUSH4 0xC340A24 PUSH1 0x40 MLOAD DUP2 PUSH4 0xFFFFFFFF AND PUSH1 0xE0 SHL DUP2 MSTORE PUSH1 0x4 ADD PUSH1 0x20 PUSH1 0x40 MLOAD DUP1 DUP4 SUB DUP2 DUP7 DUP1 EXTCODESIZE ISZERO DUP1 ISZERO PUSH2 0x892 JUMPI PUSH1 0x0 DUP1 REVERT JUMPDEST POP GAS STATICCALL ISZERO DUP1 ISZERO PUSH2 0x8A6 JUMPI RETURNDATASIZE PUSH1 0x0 DUP1 RETURNDATACOPY RETURNDATASIZE PUSH1 0x0 REVERT JUMPDEST POP POP POP POP PUSH1 0x40 MLOAD RETURNDATASIZE PUSH1 0x20 DUP2 LT ISZERO PUSH2 0x8BC JUMPI PUSH1 0x0 DUP1 REVERT JUMPDEST POP MLOAD PUSH1 0x0 SWAP1 PUSH1 0x1 PUSH1 0x1 PUSH1 0xA0 SHL SUB AND CALLER EQ PUSH2 0x92F JUMPI PUSH1 0x40 MLOAD PUSH3 0x461BCD PUSH1 0xE5 SHL DUP2 MSTORE PUSH1 0x20 PUSH1 0x4 DUP3 ADD SWAP1 DUP2 MSTORE DUP3 SLOAD PUSH1 0x2 PUSH1 0x0 NOT PUSH2 0x100 PUSH1 0x1 DUP5 AND ISZERO MUL ADD SWAP1 SWAP2 AND DIV PUSH1 0x24 DUP4 ADD DUP2 SWAP1 MSTORE SWAP1 SWAP2 DUP3 SWAP2 PUSH1 0x44 SWAP1 SWAP2 ADD SWAP1 DUP5 SWAP1 DUP1 ISZERO PUSH2 0x7D3 JUMPI DUP1 PUSH1 0x1F LT PUSH2 0x7A8 JUMPI PUSH2 0x100 DUP1 DUP4 SLOAD DIV MUL DUP4 MSTORE SWAP2 PUSH1 0x20 ADD SWAP2 PUSH2 0x7D3 JUMP JUMPDEST POP PUSH1 0x1 DUP1 SLOAD PUSH20 0xFFFFFFFFFFFFFFFFFFFFFFFFFFFFFFFFFFFFFFFF NOT AND PUSH1 0x1 PUSH1 0x1 PUSH1 0xA0 SHL SUB DUP4 AND SWAP1 DUP2 OR SWAP1 SWAP2 SSTORE PUSH1 0x40 MLOAD PUSH32 0x2F658B440C35314F52658EA8A740E05B284CDC84DC9AE01E891F21B8933E7CAD SWAP1 PUSH1 0x0 SWAP1 LOG2 POP JUMP JUMPDEST PUSH1 0x2 SLOAD PUSH1 0x3 SLOAD PUSH1 0x4 SLOAD PUSH1 0x5 SLOAD DUP5 JUMP JUMPDEST PUSH1 0x1 PUSH1 0x0 SWAP1 SLOAD SWAP1 PUSH2 0x100 EXP SWAP1 DIV PUSH1 0x1 PUSH1 0x1 PUSH1 0xA0 SHL SUB AND PUSH1 0x1 PUSH1 0x1 PUSH1 0xA0 SHL SUB AND PUSH4 0xC340A24 PUSH1 0x40 MLOAD DUP2 PUSH4 0xFFFFFFFF AND PUSH1 0xE0 SHL DUP2 MSTORE PUSH1 0x4 ADD PUSH1 0x20 PUSH1 0x40 MLOAD DUP1 DUP4 SUB DUP2 DUP7 DUP1 EXTCODESIZE ISZERO DUP1 ISZERO PUSH2 0x9E4 JUMPI PUSH1 0x0 DUP1 REVERT JUMPDEST POP GAS STATICCALL ISZERO DUP1 ISZERO PUSH2 0x9F8 JUMPI RETURNDATASIZE PUSH1 0x0 DUP1 RETURNDATACOPY RETURNDATASIZE PUSH1 0x0 REVERT JUMPDEST POP POP POP POP PUSH1 0x40 MLOAD RETURNDATASIZE PUSH1 0x20 DUP2 LT ISZERO PUSH2 0xA0E JUMPI PUSH1 0x0 DUP1 REVERT JUMPDEST POP MLOAD PUSH1 0x0 SWAP1 PUSH1 0x1 PUSH1 0x1 PUSH1 0xA0 SHL SUB AND CALLER EQ PUSH2 0xA81 JUMPI PUSH1 0x40 MLOAD PUSH3 0x461BCD PUSH1 0xE5 SHL DUP2 MSTORE PUSH1 0x20 PUSH1 0x4 DUP3 ADD SWAP1 DUP2 MSTORE DUP3 SLOAD PUSH1 0x2 PUSH1 0x0 NOT PUSH2 0x100 PUSH1 0x1 DUP5 AND ISZERO MUL ADD SWAP1 SWAP2 AND DIV PUSH1 0x24 DUP4 ADD DUP2 SWAP1 MSTORE SWAP1 SWAP2 DUP3 SWAP2 PUSH1 0x44 SWAP1 SWAP2 ADD SWAP1 DUP5 SWAP1 DUP1 ISZERO PUSH2 0x7D3 JUMPI DUP1 PUSH1 0x1F LT PUSH2 0x7A8 JUMPI PUSH2 0x100 DUP1 DUP4 SLOAD DIV MUL DUP4 MSTORE SWAP2 PUSH1 0x20 ADD SWAP2 PUSH2 0x7D3 JUMP JUMPDEST POP PUSH1 0x8 DUP2 SWAP1 SSTORE PUSH1 0x40 DUP1 MLOAD DUP3 DUP2 MSTORE SWAP1 MLOAD PUSH32 0xAC17D51C35AC71D3EDDC155985908430E88946D51E2F6093E93C1C0ABA08F6C4 SWAP2 DUP2 SWAP1 SUB PUSH1 0x20 ADD SWAP1 LOG1 POP JUMP JUMPDEST PUSH1 0x0 PUSH2 0xAC7 PUSH2 0x1EC3 JUMP JUMPDEST POP PUSH1 0x1 PUSH1 0x1 PUSH1 0xA0 SHL SUB DUP4 AND PUSH1 0x0 SWAP1 DUP2 MSTORE PUSH1 0x7 PUSH1 0x20 SWAP1 DUP2 MSTORE PUSH1 0x40 SWAP2 DUP3 SWAP1 KECCAK256 DUP3 MLOAD PUSH1 0x80 DUP2 ADD DUP5 MSTORE DUP2 SLOAD DUP2 MSTORE PUSH1 0x1 DUP3 ADD SLOAD SWAP3 DUP2 ADD SWAP3 SWAP1 SWAP3 MSTORE PUSH1 0x2 DUP2 ADD SLOAD SWAP3 DUP3 ADD SWAP3 SWAP1 SWAP3 MSTORE PUSH1 0x3 SWAP1 SWAP2 ADD SLOAD PUSH1 0xFF AND ISZERO ISZERO PUSH1 0x60 DUP3 ADD DUP2 SWAP1 MSTORE PUSH2 0xB65 JUMPI PUSH1 0x1 PUSH1 0x1 PUSH1 0xA0 SHL SUB DUP5 AND CALLER EQ PUSH2 0xB65 JUMPI PUSH1 0x40 MLOAD PUSH3 0x461BCD PUSH1 0xE5 SHL DUP2 MSTORE PUSH1 0x4 ADD DUP1 DUP1 PUSH1 0x20 ADD DUP3 DUP2 SUB DUP3 MSTORE PUSH1 0x26 DUP2 MSTORE PUSH1 0x20 ADD DUP1 PUSH2 0x1F16 PUSH1 0x26 SWAP2 CODECOPY PUSH1 0x40 ADD SWAP2 POP POP PUSH1 0x40 MLOAD DUP1 SWAP2 SUB SWAP1 REVERT JUMPDEST PUSH1 0x40 DUP2 ADD MLOAD PUSH1 0x3 SLOAD LT DUP1 ISZERO SWAP1 PUSH2 0xB7E JUMPI POP PUSH1 0x40 DUP2 ADD MLOAD ISZERO ISZERO JUMPDEST ISZERO PUSH2 0xC77 JUMPI PUSH1 0x1 PUSH1 0x1 PUSH1 0xA0 SHL SUB DUP5 AND PUSH1 0x0 SWAP1 DUP2 MSTORE PUSH1 0x7 PUSH1 0x20 SWAP1 DUP2 MSTORE PUSH1 0x40 DUP3 KECCAK256 DUP3 DUP2 SSTORE PUSH1 0x1 DUP2 ADD DUP4 SWAP1 SSTORE PUSH1 0x2 DUP2 ADD SWAP3 SWAP1 SWAP3 SSTORE PUSH1 0x3 SWAP1 SWAP2 ADD DUP1 SLOAD PUSH1 0xFF NOT AND SWAP1 SSTORE DUP2 ADD MLOAD PUSH1 0x9 SLOAD PUSH2 0xBCB SWAP2 PUSH2 0x19CF JUMP JUMPDEST PUSH1 0x9 DUP2 SWAP1 SSTORE POP PUSH2 0xC6F DUP5 PUSH32 0x0 PUSH1 0x1 PUSH1 0x1 PUSH1 0xA0 SHL SUB AND PUSH4 0x7965D56D DUP5 PUSH1 0x20 ADD MLOAD PUSH1 0x40 MLOAD DUP3 PUSH4 0xFFFFFFFF AND PUSH1 0xE0 SHL DUP2 MSTORE PUSH1 0x4 ADD DUP1 DUP3 DUP2 MSTORE PUSH1 0x20 ADD SWAP2 POP POP PUSH1 0x20 PUSH1 0x40 MLOAD DUP1 DUP4 SUB DUP2 DUP7 DUP1 EXTCODESIZE ISZERO DUP1 ISZERO PUSH2 0xC3D JUMPI PUSH1 0x0 DUP1 REVERT JUMPDEST POP GAS STATICCALL ISZERO DUP1 ISZERO PUSH2 0xC51 JUMPI RETURNDATASIZE PUSH1 0x0 DUP1 RETURNDATACOPY RETURNDATASIZE PUSH1 0x0 REVERT JUMPDEST POP POP POP POP PUSH1 0x40 MLOAD RETURNDATASIZE PUSH1 0x20 DUP2 LT ISZERO PUSH2 0xC67 JUMPI PUSH1 0x0 DUP1 REVERT JUMPDEST POP MLOAD DUP6 PUSH2 0x1A18 JUMP JUMPDEST SWAP2 POP POP PUSH2 0x68D JUMP JUMPDEST POP PUSH1 0x0 SWAP4 SWAP3 POP POP POP JUMP JUMPDEST PUSH1 0x4 SLOAD PUSH1 0x0 SWAP1 PUSH2 0xC91 SWAP1 TIMESTAMP PUSH2 0x19CF JUMP JUMPDEST SWAP1 POP SWAP1 JUMP JUMPDEST DUP3 PUSH1 0x0 DUP4 ISZERO PUSH2 0xCAA JUMPI PUSH2 0xCA7 PUSH2 0xF58 JUMP JUMPDEST SWAP1 POP JUMPDEST DUP3 ISZERO PUSH2 0xCF6 JUMPI PUSH2 0xCE5 PUSH1 0x1 PUSH1 0x1 PUSH1 0xA0 SHL SUB PUSH32 0x0 AND CALLER ADDRESS DUP9 PUSH2 0x1C31 JUMP JUMPDEST PUSH2 0xCEF DUP3 DUP3 PUSH2 0x1DD2 JUMP JUMPDEST SWAP2 POP PUSH2 0xE32 JUMP JUMPDEST PUSH1 0x40 DUP1 MLOAD PUSH32 0x9DC29FAC00000000000000000000000000000000000000000000000000000000 DUP2 MSTORE CALLER PUSH1 0x4 DUP3 ADD MSTORE PUSH1 0x24 DUP2 ADD DUP8 SWAP1 MSTORE SWAP1 MLOAD PUSH1 0x1 PUSH1 0x1 PUSH1 0xA0 SHL SUB PUSH32 0x0 AND SWAP2 PUSH4 0x9DC29FAC SWAP2 PUSH1 0x44 DUP1 DUP4 ADD SWAP3 PUSH1 0x0 SWAP3 SWAP2 SWAP1 DUP3 SWAP1 SUB ADD DUP2 DUP4 DUP8 DUP1 EXTCODESIZE ISZERO DUP1 ISZERO PUSH2 0xD7D JUMPI PUSH1 0x0 DUP1 REVERT JUMPDEST POP GAS CALL ISZERO DUP1 ISZERO PUSH2 0xD91 JUMPI RETURNDATASIZE PUSH1 0x0 DUP1 RETURNDATACOPY RETURNDATASIZE PUSH1 0x0 REVERT JUMPDEST POP POP POP POP PUSH2 0xE2F DUP2 PUSH32 0x0 PUSH1 0x1 PUSH1 0x1 PUSH1 0xA0 SHL SUB AND PUSH4 0xA8248768 DUP6 PUSH1 0x40 MLOAD DUP3 PUSH4 0xFFFFFFFF AND PUSH1 0xE0 SHL DUP2 MSTORE PUSH1 0x4 ADD DUP1 DUP3 DUP2 MSTORE PUSH1 0x20 ADD SWAP2 POP POP PUSH1 0x20 PUSH1 0x40 MLOAD DUP1 DUP4 SUB DUP2 DUP7 DUP1 EXTCODESIZE ISZERO DUP1 ISZERO PUSH2 0xDFD JUMPI PUSH1 0x0 DUP1 REVERT JUMPDEST POP GAS STATICCALL ISZERO DUP1 ISZERO PUSH2 0xE11 JUMPI RETURNDATASIZE PUSH1 0x0 DUP1 RETURNDATACOPY RETURNDATASIZE PUSH1 0x0 REVERT JUMPDEST POP POP POP POP PUSH1 0x40 MLOAD RETURNDATASIZE PUSH1 0x20 DUP2 LT ISZERO PUSH2 0xE27 JUMPI PUSH1 0x0 DUP1 REVERT JUMPDEST POP MLOAD SWAP1 PUSH2 0x1DD2 JUMP JUMPDEST SWAP2 POP JUMPDEST PUSH1 0x40 DUP1 MLOAD PUSH32 0x70A0823100000000000000000000000000000000000000000000000000000000 DUP2 MSTORE ADDRESS PUSH1 0x4 DUP3 ADD MSTORE SWAP1 MLOAD PUSH1 0x1 PUSH1 0x1 PUSH1 0xA0 SHL SUB PUSH32 0x0 AND SWAP2 PUSH4 0x70A08231 SWAP2 PUSH1 0x24 DUP1 DUP4 ADD SWAP3 PUSH1 0x20 SWAP3 SWAP2 SWAP1 DUP3 SWAP1 SUB ADD DUP2 DUP7 DUP1 EXTCODESIZE ISZERO DUP1 ISZERO PUSH2 0xEB1 JUMPI PUSH1 0x0 DUP1 REVERT JUMPDEST POP GAS STATICCALL ISZERO DUP1 ISZERO PUSH2 0xEC5 JUMPI RETURNDATASIZE PUSH1 0x0 DUP1 RETURNDATACOPY RETURNDATASIZE PUSH1 0x0 REVERT JUMPDEST POP POP POP POP PUSH1 0x40 MLOAD RETURNDATASIZE PUSH1 0x20 DUP2 LT ISZERO PUSH2 0xEDB JUMPI PUSH1 0x0 DUP1 REVERT JUMPDEST POP MLOAD DUP3 GT ISZERO PUSH2 0xF1B JUMPI PUSH1 0x40 MLOAD PUSH3 0x461BCD PUSH1 0xE5 SHL DUP2 MSTORE PUSH1 0x4 ADD DUP1 DUP1 PUSH1 0x20 ADD DUP3 DUP2 SUB DUP3 MSTORE PUSH1 0x24 DUP2 MSTORE PUSH1 0x20 ADD DUP1 PUSH2 0x1F3C PUSH1 0x24 SWAP2 CODECOPY PUSH1 0x40 ADD SWAP2 POP POP PUSH1 0x40 MLOAD DUP1 SWAP2 SUB SWAP1 REVERT JUMPDEST PUSH2 0xF4F PUSH1 0x1 PUSH1 0x1 PUSH1 0xA0 SHL SUB PUSH32 0x0 AND DUP8 DUP5 PUSH2 0x1837 JUMP JUMPDEST POP SWAP5 SWAP4 POP POP POP POP JUMP JUMPDEST PUSH1 0x0 DUP1 TIMESTAMP PUSH1 0x2 DUP1 ADD SLOAD GT PUSH2 0xC91 JUMPI PUSH32 0x0 PUSH1 0x1 PUSH1 0x1 PUSH1 0xA0 SHL SUB AND PUSH4 0x58ECDB4 PUSH1 0x2 PUSH1 0x3 ADD SLOAD PUSH1 0x2 PUSH1 0x1 ADD SLOAD PUSH1 0x40 MLOAD DUP4 PUSH4 0xFFFFFFFF AND PUSH1 0xE0 SHL DUP2 MSTORE PUSH1 0x4 ADD DUP1 DUP4 DUP2 MSTORE PUSH1 0x20 ADD DUP3 DUP2 MSTORE PUSH1 0x20 ADD SWAP3 POP POP POP PUSH1 0x20 PUSH1 0x40 MLOAD DUP1 DUP4 SUB DUP2 PUSH1 0x0 DUP8 DUP1 EXTCODESIZE ISZERO DUP1 ISZERO PUSH2 0xFDE JUMPI PUSH1 0x0 DUP1 REVERT JUMPDEST POP GAS CALL ISZERO DUP1 ISZERO PUSH2 0xFF2 JUMPI RETURNDATASIZE PUSH1 0x0 DUP1 RETURNDATACOPY RETURNDATASIZE PUSH1 0x0 REVERT JUMPDEST POP POP POP POP PUSH1 0x40 MLOAD RETURNDATASIZE PUSH1 0x20 DUP2 LT ISZERO PUSH2 0x1008 JUMPI PUSH1 0x0 DUP1 REVERT JUMPDEST POP POP PUSH1 0x2 SLOAD PUSH1 0x4 SLOAD PUSH2 0x1019 SWAP2 PUSH2 0x1DD2 JUMP JUMPDEST PUSH1 0x4 SSTORE PUSH1 0x3 DUP1 SLOAD PUSH1 0x1 ADD SWAP1 SSTORE PUSH1 0x6 SLOAD PUSH1 0x1 PUSH1 0x1 PUSH1 0xA0 SHL SUB AND ISZERO PUSH2 0x111D JUMPI PUSH1 0x6 PUSH1 0x0 SWAP1 SLOAD SWAP1 PUSH2 0x100 EXP SWAP1 DIV PUSH1 0x1 PUSH1 0x1 PUSH1 0xA0 SHL SUB AND PUSH1 0x1 PUSH1 0x1 PUSH1 0xA0 SHL SUB AND PUSH4 0xE4FC6B6D PUSH1 0x40 MLOAD DUP2 PUSH4 0xFFFFFFFF AND PUSH1 0xE0 SHL DUP2 MSTORE PUSH1 0x4 ADD PUSH1 0x0 PUSH1 0x40 MLOAD DUP1 DUP4 SUB DUP2 PUSH1 0x0 DUP8 DUP1 EXTCODESIZE ISZERO DUP1 ISZERO PUSH2 0x1086 JUMPI PUSH1 0x0 DUP1 REVERT JUMPDEST POP GAS CALL ISZERO DUP1 ISZERO PUSH2 0x109A JUMPI RETURNDATASIZE PUSH1 0x0 DUP1 RETURNDATACOPY RETURNDATASIZE PUSH1 0x0 REVERT JUMPDEST POP POP POP POP PUSH1 0x6 PUSH1 0x0 SWAP1 SLOAD SWAP1 PUSH2 0x100 EXP SWAP1 DIV PUSH1 0x1 PUSH1 0x1 PUSH1 0xA0 SHL SUB AND PUSH1 0x1 PUSH1 0x1 PUSH1 0xA0 SHL SUB AND PUSH4 0xE7187E8A PUSH1 0x40 MLOAD DUP2 PUSH4 0xFFFFFFFF AND PUSH1 0xE0 SHL DUP2 MSTORE PUSH1 0x4 ADD PUSH1 0x20 PUSH1 0x40 MLOAD DUP1 DUP4 SUB DUP2 PUSH1 0x0 DUP8 DUP1 EXTCODESIZE ISZERO DUP1 ISZERO PUSH2 0x10EE JUMPI PUSH1 0x0 DUP1 REVERT JUMPDEST POP GAS CALL ISZERO DUP1 ISZERO PUSH2 0x1102 JUMPI RETURNDATASIZE PUSH1 0x0 DUP1 RETURNDATACOPY RETURNDATASIZE PUSH1 0x0 REVERT JUMPDEST POP POP POP POP PUSH1 0x40 MLOAD RETURNDATASIZE PUSH1 0x20 DUP2 LT ISZERO PUSH2 0x1118 JUMPI PUSH1 0x0 DUP1 REVERT JUMPDEST POP MLOAD SWAP1 POP JUMPDEST PUSH1 0x0 PUSH32 0x0 PUSH1 0x1 PUSH1 0x1 PUSH1 0xA0 SHL SUB AND PUSH4 0x70A08231 ADDRESS PUSH1 0x40 MLOAD DUP3 PUSH4 0xFFFFFFFF AND PUSH1 0xE0 SHL DUP2 MSTORE PUSH1 0x4 ADD DUP1 DUP3 PUSH1 0x1 PUSH1 0x1 PUSH1 0xA0 SHL SUB AND DUP2 MSTORE PUSH1 0x20 ADD SWAP2 POP POP PUSH1 0x20 PUSH1 0x40 MLOAD DUP1 DUP4 SUB DUP2 DUP7 DUP1 EXTCODESIZE ISZERO DUP1 ISZERO PUSH2 0x118C JUMPI PUSH1 0x0 DUP1 REVERT JUMPDEST POP GAS STATICCALL ISZERO DUP1 ISZERO PUSH2 0x11A0 JUMPI RETURNDATASIZE PUSH1 0x0 DUP1 RETURNDATACOPY RETURNDATASIZE PUSH1 0x0 REVERT JUMPDEST POP POP POP POP PUSH1 0x40 MLOAD RETURNDATASIZE PUSH1 0x20 DUP2 LT ISZERO PUSH2 0x11B6 JUMPI PUSH1 0x0 DUP1 REVERT JUMPDEST POP MLOAD PUSH1 0x40 DUP1 MLOAD PUSH32 0x9358928B00000000000000000000000000000000000000000000000000000000 DUP2 MSTORE SWAP1 MLOAD SWAP2 SWAP3 POP PUSH1 0x0 SWAP2 PUSH1 0x1 PUSH1 0x1 PUSH1 0xA0 SHL SUB PUSH32 0x0 AND SWAP2 PUSH4 0x9358928B SWAP2 PUSH1 0x4 DUP1 DUP4 ADD SWAP3 PUSH1 0x20 SWAP3 SWAP2 SWAP1 DUP3 SWAP1 SUB ADD DUP2 DUP7 DUP1 EXTCODESIZE ISZERO DUP1 ISZERO PUSH2 0x1237 JUMPI PUSH1 0x0 DUP1 REVERT JUMPDEST POP GAS STATICCALL ISZERO DUP1 ISZERO PUSH2 0x124B JUMPI RETURNDATASIZE PUSH1 0x0 DUP1 RETURNDATACOPY RETURNDATASIZE PUSH1 0x0 REVERT JUMPDEST POP POP POP POP PUSH1 0x40 MLOAD RETURNDATASIZE PUSH1 0x20 DUP2 LT ISZERO PUSH2 0x1261 JUMPI PUSH1 0x0 DUP1 REVERT JUMPDEST POP MLOAD SWAP1 POP PUSH2 0x126F DUP2 DUP5 PUSH2 0x1DD2 JUMP JUMPDEST DUP3 GT PUSH2 0x127F JUMPI PUSH1 0x0 PUSH1 0x5 SSTORE PUSH2 0x1297 JUMP JUMPDEST PUSH2 0x1293 DUP4 PUSH2 0x128D DUP5 DUP5 PUSH2 0x19CF JUMP JUMPDEST SWAP1 PUSH2 0x19CF JUMP JUMPDEST PUSH1 0x5 SSTORE JUMPDEST POP POP SWAP1 POP SWAP1 JUMP JUMPDEST PUSH32 0x0 DUP2 JUMP JUMPDEST PUSH1 0x0 PUSH2 0x12F9 PUSH1 0x1 PUSH1 0x1 PUSH1 0xA0 SHL SUB PUSH32 0x0 AND CALLER ADDRESS DUP6 PUSH2 0x1C31 JUMP JUMPDEST PUSH32 0x0 PUSH1 0x1 PUSH1 0x1 PUSH1 0xA0 SHL SUB AND PUSH4 0x66A5236C DUP4 PUSH1 0x40 MLOAD DUP3 PUSH4 0xFFFFFFFF AND PUSH1 0xE0 SHL DUP2 MSTORE PUSH1 0x4 ADD DUP1 DUP3 DUP2 MSTORE PUSH1 0x20 ADD SWAP2 POP POP PUSH1 0x20 PUSH1 0x40 MLOAD DUP1 DUP4 SUB DUP2 DUP7 DUP1 EXTCODESIZE ISZERO DUP1 ISZERO PUSH2 0x135D JUMPI PUSH1 0x0 DUP1 REVERT JUMPDEST POP GAS STATICCALL ISZERO DUP1 ISZERO PUSH2 0x1371 JUMPI RETURNDATASIZE PUSH1 0x0 DUP1 RETURNDATACOPY RETURNDATASIZE PUSH1 0x0 REVERT JUMPDEST POP POP POP POP PUSH1 0x40 MLOAD RETURNDATASIZE PUSH1 0x20 DUP2 LT ISZERO PUSH2 0x1387 JUMPI PUSH1 0x0 DUP1 REVERT JUMPDEST POP MLOAD PUSH1 0x40 DUP1 MLOAD PUSH32 0x40C10F1900000000000000000000000000000000000000000000000000000000 DUP2 MSTORE PUSH1 0x1 PUSH1 0x1 PUSH1 0xA0 SHL SUB DUP7 DUP2 AND PUSH1 0x4 DUP4 ADD MSTORE PUSH1 0x24 DUP3 ADD DUP5 SWAP1 MSTORE SWAP2 MLOAD SWAP3 SWAP4 POP PUSH32 0x0 SWAP1 SWAP2 AND SWAP2 PUSH4 0x40C10F19 SWAP2 PUSH1 0x44 DUP1 DUP3 ADD SWAP3 PUSH1 0x0 SWAP3 SWAP1 SWAP2 SWAP1 DUP3 SWAP1 SUB ADD DUP2 DUP4 DUP8 DUP1 EXTCODESIZE ISZERO DUP1 ISZERO PUSH2 0x1418 JUMPI PUSH1 0x0 DUP1 REVERT JUMPDEST POP GAS CALL ISZERO DUP1 ISZERO PUSH2 0x142C JUMPI RETURNDATASIZE PUSH1 0x0 DUP1 RETURNDATACOPY RETURNDATASIZE PUSH1 0x0 REVERT JUMPDEST POP POP POP POP SWAP3 SWAP2 POP POP JUMP JUMPDEST PUSH1 0x1 SLOAD PUSH1 0x1 PUSH1 0x1 PUSH1 0xA0 SHL SUB AND DUP2 JUMP JUMPDEST PUSH1 0x6 SLOAD PUSH1 0x1 PUSH1 0x1 PUSH1 0xA0 SHL SUB AND DUP2 JUMP JUMPDEST PUSH1 0x0 PUSH2 0x148B PUSH1 0x1 PUSH1 0x1 PUSH1 0xA0 SHL SUB PUSH32 0x0 AND CALLER ADDRESS DUP8 PUSH2 0x1C31 JUMP JUMPDEST PUSH2 0x149D PUSH2 0x1496 PUSH2 0xF58 JUMP JUMPDEST DUP6 SWAP1 PUSH2 0x1DD2 JUMP JUMPDEST SWAP4 POP DUP2 DUP1 ISZERO PUSH2 0x14AC JUMPI POP PUSH1 0x8 SLOAD ISZERO JUMPDEST ISZERO PUSH2 0x14C3 JUMPI PUSH2 0x14BC DUP6 DUP6 DUP6 PUSH2 0x1A18 JUMP JUMPDEST SWAP1 POP PUSH2 0x1749 JUMP JUMPDEST PUSH2 0x14CB PUSH2 0x1EC3 JUMP JUMPDEST POP PUSH1 0x1 PUSH1 0x1 PUSH1 0xA0 SHL SUB DUP6 AND PUSH1 0x0 SWAP1 DUP2 MSTORE PUSH1 0x7 PUSH1 0x20 SWAP1 DUP2 MSTORE PUSH1 0x40 SWAP2 DUP3 SWAP1 KECCAK256 DUP3 MLOAD PUSH1 0x80 DUP2 ADD DUP5 MSTORE DUP2 SLOAD DUP2 MSTORE PUSH1 0x1 DUP3 ADD SLOAD SWAP3 DUP2 ADD SWAP3 SWAP1 SWAP3 MSTORE PUSH1 0x2 DUP2 ADD SLOAD SWAP3 DUP3 ADD SWAP3 SWAP1 SWAP3 MSTORE PUSH1 0x3 SWAP1 SWAP2 ADD SLOAD PUSH1 0xFF AND ISZERO ISZERO PUSH1 0x60 DUP3 ADD DUP2 SWAP1 MSTORE PUSH2 0x1569 JUMPI PUSH1 0x1 PUSH1 0x1 PUSH1 0xA0 SHL SUB DUP7 AND CALLER EQ PUSH2 0x1569 JUMPI PUSH1 0x40 MLOAD PUSH3 0x461BCD PUSH1 0xE5 SHL DUP2 MSTORE PUSH1 0x4 ADD DUP1 DUP1 PUSH1 0x20 ADD DUP3 DUP2 SUB DUP3 MSTORE PUSH1 0x28 DUP2 MSTORE PUSH1 0x20 ADD DUP1 PUSH2 0x1EEE PUSH1 0x28 SWAP2 CODECOPY PUSH1 0x40 ADD SWAP2 POP POP PUSH1 0x40 MLOAD DUP1 SWAP2 SUB SWAP1 REVERT JUMPDEST PUSH1 0x40 DUP1 MLOAD PUSH1 0x80 DUP2 ADD SWAP1 SWAP2 MSTORE DUP2 MLOAD DUP2 SWAP1 PUSH2 0x1582 SWAP1 DUP9 PUSH2 0x1DD2 JUMP JUMPDEST DUP2 MSTORE PUSH1 0x20 ADD PUSH2 0x1625 PUSH32 0x0 PUSH1 0x1 PUSH1 0x1 PUSH1 0xA0 SHL SUB AND PUSH4 0x1BD39674 DUP10 PUSH1 0x40 MLOAD DUP3 PUSH4 0xFFFFFFFF AND PUSH1 0xE0 SHL DUP2 MSTORE PUSH1 0x4 ADD DUP1 DUP3 DUP2 MSTORE PUSH1 0x20 ADD SWAP2 POP POP PUSH1 0x20 PUSH1 0x40 MLOAD DUP1 DUP4 SUB DUP2 DUP7 DUP1 EXTCODESIZE ISZERO DUP1 ISZERO PUSH2 0x15EE JUMPI PUSH1 0x0 DUP1 REVERT JUMPDEST POP GAS STATICCALL ISZERO DUP1 ISZERO PUSH2 0x1602 JUMPI RETURNDATASIZE PUSH1 0x0 DUP1 RETURNDATACOPY RETURNDATASIZE PUSH1 0x0 REVERT JUMPDEST POP POP POP POP PUSH1 0x40 MLOAD RETURNDATASIZE PUSH1 0x20 DUP2 LT ISZERO PUSH2 0x1618 JUMPI PUSH1 0x0 DUP1 REVERT JUMPDEST POP MLOAD PUSH1 0x20 DUP6 ADD MLOAD SWAP1 PUSH2 0x1DD2 JUMP JUMPDEST DUP2 MSTORE PUSH1 0x8 SLOAD PUSH1 0x3 SLOAD PUSH1 0x20 SWAP1 SWAP3 ADD SWAP2 PUSH2 0x163C SWAP2 PUSH2 0x1DD2 JUMP JUMPDEST DUP2 MSTORE PUSH1 0x60 DUP4 DUP2 ADD MLOAD ISZERO ISZERO PUSH1 0x20 SWAP3 DUP4 ADD MSTORE PUSH1 0x1 PUSH1 0x1 PUSH1 0xA0 SHL SUB DUP10 DUP2 AND PUSH1 0x0 SWAP1 DUP2 MSTORE PUSH1 0x7 DUP5 MSTORE PUSH1 0x40 SWAP1 DUP2 SWAP1 KECCAK256 DUP6 MLOAD DUP2 SSTORE DUP6 DUP6 ADD MLOAD PUSH1 0x1 DUP3 ADD SSTORE DUP6 DUP3 ADD MLOAD PUSH1 0x2 DUP3 ADD SSTORE SWAP5 SWAP1 SWAP3 ADD MLOAD PUSH1 0x3 SWAP1 SWAP5 ADD DUP1 SLOAD PUSH1 0xFF NOT AND SWAP5 ISZERO ISZERO SWAP5 SWAP1 SWAP5 OR SWAP1 SWAP4 SSTORE DUP1 MLOAD PUSH32 0x1BD3967400000000000000000000000000000000000000000000000000000000 DUP2 MSTORE PUSH1 0x4 DUP2 ADD DUP10 SWAP1 MSTORE SWAP1 MLOAD PUSH2 0x1741 SWAP4 PUSH32 0x0 AND SWAP3 PUSH4 0x1BD39674 SWAP3 PUSH1 0x24 DUP1 DUP3 ADD SWAP4 SWAP2 DUP3 SWAP1 SUB ADD DUP2 DUP7 DUP1 EXTCODESIZE ISZERO DUP1 ISZERO PUSH2 0x170C JUMPI PUSH1 0x0 DUP1 REVERT JUMPDEST POP GAS STATICCALL ISZERO DUP1 ISZERO PUSH2 0x1720 JUMPI RETURNDATASIZE PUSH1 0x0 DUP1 RETURNDATACOPY RETURNDATASIZE PUSH1 0x0 REVERT JUMPDEST POP POP POP POP PUSH1 0x40 MLOAD RETURNDATASIZE PUSH1 0x20 DUP2 LT ISZERO PUSH2 0x1736 JUMPI PUSH1 0x0 DUP1 REVERT JUMPDEST POP MLOAD PUSH1 0x9 SLOAD SWAP1 PUSH2 0x1DD2 JUMP JUMPDEST PUSH1 0x9 SSTORE POP DUP4 SWAP1 POP JUMPDEST SWAP5 SWAP4 POP POP POP POP JUMP JUMPDEST PUSH1 0x8 SLOAD DUP2 JUMP JUMPDEST PUSH1 0x0 PUSH2 0x1761 PUSH2 0x1EC3 JUMP JUMPDEST POP CALLER PUSH1 0x0 DUP2 DUP2 MSTORE PUSH1 0x7 PUSH1 0x20 DUP2 DUP2 MSTORE PUSH1 0x40 DUP1 DUP5 KECCAK256 DUP2 MLOAD PUSH1 0x80 DUP2 ADD DUP4 MSTORE DUP2 SLOAD DUP2 MSTORE PUSH1 0x1 DUP3 ADD DUP1 SLOAD DUP3 DUP7 ADD SWAP1 DUP2 MSTORE PUSH1 0x2 DUP5 ADD DUP1 SLOAD SWAP6 DUP5 ADD SWAP6 SWAP1 SWAP6 MSTORE PUSH1 0x3 DUP5 ADD DUP1 SLOAD PUSH1 0xFF DUP2 AND ISZERO ISZERO PUSH1 0x60 DUP7 ADD MSTORE SWAP10 DUP10 MSTORE SWAP7 SWAP1 SWAP6 MSTORE SWAP2 DUP7 SWAP1 SSTORE SWAP1 DUP6 SWAP1 SSTORE SWAP4 SWAP1 SSTORE PUSH1 0xFF NOT SWAP1 SWAP4 AND SWAP1 SSTORE SWAP1 MLOAD PUSH1 0x9 SLOAD PUSH2 0x17D2 SWAP2 PUSH2 0x19CF JUMP JUMPDEST PUSH1 0x9 SSTORE DUP1 MLOAD PUSH2 0x180D SWAP1 PUSH1 0x1 PUSH1 0x1 PUSH1 0xA0 SHL SUB PUSH32 0x0 AND SWAP1 CALLER SWAP1 PUSH2 0x1837 JUMP JUMPDEST MLOAD SWAP1 POP SWAP1 JUMP JUMPDEST CALLER PUSH1 0x0 SWAP1 DUP2 MSTORE PUSH1 0x7 PUSH1 0x20 MSTORE PUSH1 0x40 SWAP1 KECCAK256 PUSH1 0x3 ADD DUP1 SLOAD PUSH1 0xFF NOT DUP2 AND PUSH1 0xFF SWAP1 SWAP2 AND ISZERO OR SWAP1 SSTORE JUMP JUMPDEST PUSH1 0x40 DUP1 MLOAD PUSH1 0x1 PUSH1 0x1 PUSH1 0xA0 SHL SUB DUP5 DUP2 AND PUSH1 0x24 DUP4 ADD MSTORE PUSH1 0x44 DUP1 DUP4 ADD DUP6 SWAP1 MSTORE DUP4 MLOAD DUP1 DUP5 SUB SWAP1 SWAP2 ADD DUP2 MSTORE PUSH1 0x64 SWAP1 SWAP3 ADD DUP4 MSTORE PUSH1 0x20 DUP3 ADD DUP1 MLOAD PUSH28 0xFFFFFFFFFFFFFFFFFFFFFFFFFFFFFFFFFFFFFFFFFFFFFFFFFFFFFFFF AND PUSH32 0xA9059CBB00000000000000000000000000000000000000000000000000000000 OR DUP2 MSTORE SWAP3 MLOAD DUP3 MLOAD PUSH1 0x0 SWAP5 PUSH1 0x60 SWAP5 SWAP4 DUP10 AND SWAP4 SWAP3 SWAP2 DUP3 SWAP2 SWAP1 DUP1 DUP4 DUP4 JUMPDEST PUSH1 0x20 DUP4 LT PUSH2 0x18E2 JUMPI DUP1 MLOAD DUP3 MSTORE PUSH1 0x1F NOT SWAP1 SWAP3 ADD SWAP2 PUSH1 0x20 SWAP2 DUP3 ADD SWAP2 ADD PUSH2 0x18C3 JUMP JUMPDEST PUSH1 0x1 DUP4 PUSH1 0x20 SUB PUSH2 0x100 EXP SUB DUP1 NOT DUP3 MLOAD AND DUP2 DUP5 MLOAD AND DUP1 DUP3 OR DUP6 MSTORE POP POP POP POP POP POP SWAP1 POP ADD SWAP2 POP POP PUSH1 0x0 PUSH1 0x40 MLOAD DUP1 DUP4 SUB DUP2 PUSH1 0x0 DUP7 GAS CALL SWAP2 POP POP RETURNDATASIZE DUP1 PUSH1 0x0 DUP2 EQ PUSH2 0x1944 JUMPI PUSH1 0x40 MLOAD SWAP2 POP PUSH1 0x1F NOT PUSH1 0x3F RETURNDATASIZE ADD AND DUP3 ADD PUSH1 0x40 MSTORE RETURNDATASIZE DUP3 MSTORE RETURNDATASIZE PUSH1 0x0 PUSH1 0x20 DUP5 ADD RETURNDATACOPY PUSH2 0x1949 JUMP JUMPDEST PUSH1 0x60 SWAP2 POP JUMPDEST POP SWAP2 POP SWAP2 POP DUP2 DUP1 ISZERO PUSH2 0x1977 JUMPI POP DUP1 MLOAD ISZERO DUP1 PUSH2 0x1977 JUMPI POP DUP1 DUP1 PUSH1 0x20 ADD SWAP1 MLOAD PUSH1 0x20 DUP2 LT ISZERO PUSH2 0x1974 JUMPI PUSH1 0x0 DUP1 REVERT JUMPDEST POP MLOAD JUMPDEST PUSH2 0x19C8 JUMPI PUSH1 0x40 DUP1 MLOAD PUSH3 0x461BCD PUSH1 0xE5 SHL DUP2 MSTORE PUSH1 0x20 PUSH1 0x4 DUP3 ADD MSTORE PUSH1 0xF PUSH1 0x24 DUP3 ADD MSTORE PUSH32 0x5452414E534645525F4641494C45440000000000000000000000000000000000 PUSH1 0x44 DUP3 ADD MSTORE SWAP1 MLOAD SWAP1 DUP2 SWAP1 SUB PUSH1 0x64 ADD SWAP1 REVERT JUMPDEST POP POP POP POP POP JUMP JUMPDEST PUSH1 0x0 PUSH2 0x1A11 DUP4 DUP4 PUSH1 0x40 MLOAD DUP1 PUSH1 0x40 ADD PUSH1 0x40 MSTORE DUP1 PUSH1 0x1E DUP2 MSTORE PUSH1 0x20 ADD PUSH32 0x536166654D6174683A207375627472616374696F6E206F766572666C6F770000 DUP2 MSTORE POP PUSH2 0x1E2C JUMP JUMPDEST SWAP4 SWAP3 POP POP POP JUMP JUMPDEST PUSH1 0x0 DUP2 ISZERO PUSH2 0x1A5B JUMPI PUSH2 0x1A54 PUSH1 0x1 PUSH1 0x1 PUSH1 0xA0 SHL SUB PUSH32 0x0 AND DUP6 DUP6 PUSH2 0x1837 JUMP JUMPDEST POP DUP2 PUSH2 0x1A11 JUMP JUMPDEST PUSH32 0x0 PUSH1 0x1 PUSH1 0x1 PUSH1 0xA0 SHL SUB AND PUSH4 0x40C10F19 DUP6 PUSH32 0x0 PUSH1 0x1 PUSH1 0x1 PUSH1 0xA0 SHL SUB AND PUSH4 0x66A5236C DUP8 PUSH1 0x40 MLOAD DUP3 PUSH4 0xFFFFFFFF AND PUSH1 0xE0 SHL DUP2 MSTORE PUSH1 0x4 ADD DUP1 DUP3 DUP2 MSTORE PUSH1 0x20 ADD SWAP2 POP POP PUSH1 0x20 PUSH1 0x40 MLOAD DUP1 DUP4 SUB DUP2 DUP7 DUP1 EXTCODESIZE ISZERO DUP1 ISZERO PUSH2 0x1AEF JUMPI PUSH1 0x0 DUP1 REVERT JUMPDEST POP GAS STATICCALL ISZERO DUP1 ISZERO PUSH2 0x1B03 JUMPI RETURNDATASIZE PUSH1 0x0 DUP1 RETURNDATACOPY RETURNDATASIZE PUSH1 0x0 REVERT JUMPDEST POP POP POP POP PUSH1 0x40 MLOAD RETURNDATASIZE PUSH1 0x20 DUP2 LT ISZERO PUSH2 0x1B19 JUMPI PUSH1 0x0 DUP1 REVERT JUMPDEST POP MLOAD PUSH1 0x40 DUP1 MLOAD PUSH32 0xFFFFFFFF00000000000000000000000000000000000000000000000000000000 PUSH1 0xE0 DUP7 SWAP1 SHL AND DUP2 MSTORE PUSH1 0x1 PUSH1 0x1 PUSH1 0xA0 SHL SUB SWAP1 SWAP4 AND PUSH1 0x4 DUP5 ADD MSTORE PUSH1 0x24 DUP4 ADD SWAP2 SWAP1 SWAP2 MSTORE MLOAD PUSH1 0x44 DUP1 DUP4 ADD SWAP3 PUSH1 0x0 SWAP3 SWAP2 SWAP1 DUP3 SWAP1 SUB ADD DUP2 DUP4 DUP8 DUP1 EXTCODESIZE ISZERO DUP1 ISZERO PUSH2 0x1B81 JUMPI PUSH1 0x0 DUP1 REVERT JUMPDEST POP GAS CALL ISZERO DUP1 ISZERO PUSH2 0x1B95 JUMPI RETURNDATASIZE PUSH1 0x0 DUP1 RETURNDATACOPY RETURNDATASIZE PUSH1 0x0 REVERT JUMPDEST POP POP POP POP PUSH32 0x0 PUSH1 0x1 PUSH1 0x1 PUSH1 0xA0 SHL SUB AND PUSH4 0x66A5236C DUP5 PUSH1 0x40 MLOAD DUP3 PUSH4 0xFFFFFFFF AND PUSH1 0xE0 SHL DUP2 MSTORE PUSH1 0x4 ADD DUP1 DUP3 DUP2 MSTORE PUSH1 0x20 ADD SWAP2 POP POP PUSH1 0x20 PUSH1 0x40 MLOAD DUP1 DUP4 SUB DUP2 DUP7 DUP1 EXTCODESIZE ISZERO DUP1 ISZERO PUSH2 0x1BFD JUMPI PUSH1 0x0 DUP1 REVERT JUMPDEST POP GAS STATICCALL ISZERO DUP1 ISZERO PUSH2 0x1C11 JUMPI RETURNDATASIZE PUSH1 0x0 DUP1 RETURNDATACOPY RETURNDATASIZE PUSH1 0x0 REVERT JUMPDEST POP POP POP POP PUSH1 0x40 MLOAD RETURNDATASIZE PUSH1 0x20 DUP2 LT ISZERO PUSH2 0x1C27 JUMPI PUSH1 0x0 DUP1 REVERT JUMPDEST POP MLOAD SWAP5 SWAP4 POP POP POP POP JUMP JUMPDEST PUSH1 0x40 DUP1 MLOAD PUSH1 0x1 PUSH1 0x1 PUSH1 0xA0 SHL SUB DUP6 DUP2 AND PUSH1 0x24 DUP4 ADD MSTORE DUP5 DUP2 AND PUSH1 0x44 DUP4 ADD MSTORE PUSH1 0x64 DUP1 DUP4 ADD DUP6 SWAP1 MSTORE DUP4 MLOAD DUP1 DUP5 SUB SWAP1 SWAP2 ADD DUP2 MSTORE PUSH1 0x84 SWAP1 SWAP3 ADD DUP4 MSTORE PUSH1 0x20 DUP3 ADD DUP1 MLOAD PUSH28 0xFFFFFFFFFFFFFFFFFFFFFFFFFFFFFFFFFFFFFFFFFFFFFFFFFFFFFFFF AND PUSH32 0x23B872DD00000000000000000000000000000000000000000000000000000000 OR DUP2 MSTORE SWAP3 MLOAD DUP3 MLOAD PUSH1 0x0 SWAP5 PUSH1 0x60 SWAP5 SWAP4 DUP11 AND SWAP4 SWAP3 SWAP2 DUP3 SWAP2 SWAP1 DUP1 DUP4 DUP4 JUMPDEST PUSH1 0x20 DUP4 LT PUSH2 0x1CE4 JUMPI DUP1 MLOAD DUP3 MSTORE PUSH1 0x1F NOT SWAP1 SWAP3 ADD SWAP2 PUSH1 0x20 SWAP2 DUP3 ADD SWAP2 ADD PUSH2 0x1CC5 JUMP JUMPDEST PUSH1 0x1 DUP4 PUSH1 0x20 SUB PUSH2 0x100 EXP SUB DUP1 NOT DUP3 MLOAD AND DUP2 DUP5 MLOAD AND DUP1 DUP3 OR DUP6 MSTORE POP POP POP POP POP POP SWAP1 POP ADD SWAP2 POP POP PUSH1 0x0 PUSH1 0x40 MLOAD DUP1 DUP4 SUB DUP2 PUSH1 0x0 DUP7 GAS CALL SWAP2 POP POP RETURNDATASIZE DUP1 PUSH1 0x0 DUP2 EQ PUSH2 0x1D46 JUMPI PUSH1 0x40 MLOAD SWAP2 POP PUSH1 0x1F NOT PUSH1 0x3F RETURNDATASIZE ADD AND DUP3 ADD PUSH1 0x40 MSTORE RETURNDATASIZE DUP3 MSTORE RETURNDATASIZE PUSH1 0x0 PUSH1 0x20 DUP5 ADD RETURNDATACOPY PUSH2 0x1D4B JUMP JUMPDEST PUSH1 0x60 SWAP2 POP JUMPDEST POP SWAP2 POP SWAP2 POP DUP2 DUP1 ISZERO PUSH2 0x1D79 JUMPI POP DUP1 MLOAD ISZERO DUP1 PUSH2 0x1D79 JUMPI POP DUP1 DUP1 PUSH1 0x20 ADD SWAP1 MLOAD PUSH1 0x20 DUP2 LT ISZERO PUSH2 0x1D76 JUMPI PUSH1 0x0 DUP1 REVERT JUMPDEST POP MLOAD JUMPDEST PUSH2 0x1DCA JUMPI PUSH1 0x40 DUP1 MLOAD PUSH3 0x461BCD PUSH1 0xE5 SHL DUP2 MSTORE PUSH1 0x20 PUSH1 0x4 DUP3 ADD MSTORE PUSH1 0x14 PUSH1 0x24 DUP3 ADD MSTORE PUSH32 0x5452414E534645525F46524F4D5F4641494C4544000000000000000000000000 PUSH1 0x44 DUP3 ADD MSTORE SWAP1 MLOAD SWAP1 DUP2 SWAP1 SUB PUSH1 0x64 ADD SWAP1 REVERT JUMPDEST POP POP POP POP POP POP JUMP JUMPDEST PUSH1 0x0 DUP3 DUP3 ADD DUP4 DUP2 LT ISZERO PUSH2 0x1A11 JUMPI PUSH1 0x40 DUP1 MLOAD PUSH3 0x461BCD PUSH1 0xE5 SHL DUP2 MSTORE PUSH1 0x20 PUSH1 0x4 DUP3 ADD MSTORE PUSH1 0x1B PUSH1 0x24 DUP3 ADD MSTORE PUSH32 0x536166654D6174683A206164646974696F6E206F766572666C6F770000000000 PUSH1 0x44 DUP3 ADD MSTORE SWAP1 MLOAD SWAP1 DUP2 SWAP1 SUB PUSH1 0x64 ADD SWAP1 REVERT JUMPDEST PUSH1 0x0 DUP2 DUP5 DUP5 GT ISZERO PUSH2 0x1EBB JUMPI PUSH1 0x40 MLOAD PUSH3 0x461BCD PUSH1 0xE5 SHL DUP2 MSTORE PUSH1 0x4 ADD DUP1 DUP1 PUSH1 0x20 ADD DUP3 DUP2 SUB DUP3 MSTORE DUP4 DUP2 DUP2 MLOAD DUP2 MSTORE PUSH1 0x20 ADD SWAP2 POP DUP1 MLOAD SWAP1 PUSH1 0x20 ADD SWAP1 DUP1 DUP4 DUP4 PUSH1 0x0 JUMPDEST DUP4 DUP2 LT ISZERO PUSH2 0x1E80 JUMPI DUP2 DUP2 ADD MLOAD DUP4 DUP3 ADD MSTORE PUSH1 0x20 ADD PUSH2 0x1E68 JUMP JUMPDEST POP POP POP POP SWAP1 POP SWAP1 DUP2 ADD SWAP1 PUSH1 0x1F AND DUP1 ISZERO PUSH2 0x1EAD JUMPI DUP1 DUP3 SUB DUP1 MLOAD PUSH1 0x1 DUP4 PUSH1 0x20 SUB PUSH2 0x100 EXP SUB NOT AND DUP2 MSTORE PUSH1 0x20 ADD SWAP2 POP JUMPDEST POP SWAP3 POP POP POP PUSH1 0x40 MLOAD DUP1 SWAP2 SUB SWAP1 REVERT JUMPDEST POP POP POP SWAP1 SUB SWAP1 JUMP JUMPDEST PUSH1 0x40 MLOAD DUP1 PUSH1 0x80 ADD PUSH1 0x40 MSTORE DUP1 PUSH1 0x0 DUP2 MSTORE PUSH1 0x20 ADD PUSH1 0x0 DUP2 MSTORE PUSH1 0x20 ADD PUSH1 0x0 DUP2 MSTORE PUSH1 0x20 ADD PUSH1 0x0 ISZERO ISZERO DUP2 MSTORE POP SWAP1 JUMP INVALID GASLIMIT PUSH25 0x7465726E616C206465706F7369747320666F72206163636F75 PUSH15 0x7420617265206C6F636B6564457874 PUSH6 0x726E616C2063 PUSH13 0x61696D7320666F72206163636F PUSH22 0x6E7420617265206C6F636B6564496E73756666696369 PUSH6 0x6E74204F484D KECCAK256 PUSH3 0x616C61 PUSH15 0x636520696E20636F6E7472616374A2 PUSH5 0x6970667358 0x22 SLT KECCAK256 ISZERO 0xD7 0x21 SWAP1 SWAP4 0xDE DUP12 LT DUP1 RETURNDATASIZE 0xC 0xFC 0x5F 0x27 PUSH15 0x10A9730AD87661075CDDA32F540546 DIV PUSH31 0x64736F6C634300070500330000000000000000000000000000000000000000 "
				},
				"gasEstimates": {
					"creation": {
						"codeDepositCost": "1617000",
						"executionCost": "infinite",
						"totalCost": "infinite"
					},
					"external": {
						"EXO()": "infinite",
						"authority()": "1082",
						"claim(address,bool)": "infinite",
						"distributor()": "1104",
						"epoch()": "3515",
						"forfeit()": "infinite",
						"gEXO()": "infinite",
						"index()": "infinite",
						"rebase()": "infinite",
						"sEXO()": "infinite",
						"secondsToNextEpoch()": "infinite",
						"setAuthority(address)": "infinite",
						"setDistributor(address)": "infinite",
						"setWarmupLength(uint256)": "infinite",
						"stake(address,uint256,bool,bool)": "infinite",
						"supplyInWarmup()": "infinite",
						"toggleLock()": "21145",
						"unstake(address,uint256,bool,bool)": "infinite",
						"unwrap(address,uint256)": "infinite",
						"warmupInfo(address)": "3690",
						"warmupPeriod()": "1042",
						"wrap(address,uint256)": "infinite"
					},
					"internal": {
						"_send(address,uint256,bool)": "infinite"
					}
				},
				"methodIdentifiers": {
					"EXO()": "b383daf2",
					"authority()": "bf7e214f",
					"claim(address,bool)": "92fd2daf",
					"distributor()": "bfe10928",
					"epoch()": "900cf0cf",
					"forfeit()": "f3d86e4a",
					"gEXO()": "2af36b43",
					"index()": "2986c0e5",
					"rebase()": "af14052c",
					"sEXO()": "06d9cea8",
					"secondsToNextEpoch()": "9483c1d7",
					"setAuthority(address)": "7a9e5e4b",
					"setDistributor(address)": "75619ab5",
					"setWarmupLength(uint256)": "9238d592",
					"stake(address,uint256,bool,bool)": "d866c9d8",
					"supplyInWarmup()": "20138641",
					"toggleLock()": "ff9413d8",
					"unstake(address,uint256,bool,bool)": "990966d5",
					"unwrap(address,uint256)": "39f47693",
					"warmupInfo(address)": "6746f4c2",
					"warmupPeriod()": "deac361a",
					"wrap(address,uint256)": "bf376c7a"
				}
			},
			"storageLayout": {
				"storage": [
					{
						"astId": 330,
						"contract": "ExodusStaking/Staking.sol:ExodusStaking",
						"label": "UNAUTHORIZED",
						"offset": 0,
						"slot": "0",
						"type": "t_string_storage"
					},
					{
						"astId": 332,
						"contract": "ExodusStaking/Staking.sol:ExodusStaking",
						"label": "authority",
						"offset": 0,
						"slot": "1",
						"type": "t_contract(IExodusAuthority)205"
					},
					{
						"astId": 873,
						"contract": "ExodusStaking/Staking.sol:ExodusStaking",
						"label": "epoch",
						"offset": 0,
						"slot": "2",
						"type": "t_struct(Epoch)856_storage"
					},
					{
						"astId": 875,
						"contract": "ExodusStaking/Staking.sol:ExodusStaking",
						"label": "distributor",
						"offset": 0,
						"slot": "6",
						"type": "t_contract(IDistributor)57"
					},
					{
						"astId": 879,
						"contract": "ExodusStaking/Staking.sol:ExodusStaking",
						"label": "warmupInfo",
						"offset": 0,
						"slot": "7",
						"type": "t_mapping(t_address,t_struct(Claim)865_storage)"
					},
					{
						"astId": 881,
						"contract": "ExodusStaking/Staking.sol:ExodusStaking",
						"label": "warmupPeriod",
						"offset": 0,
						"slot": "8",
						"type": "t_uint256"
					},
					{
						"astId": 883,
						"contract": "ExodusStaking/Staking.sol:ExodusStaking",
						"label": "gonsInWarmup",
						"offset": 0,
						"slot": "9",
						"type": "t_uint256"
					}
				],
				"types": {
					"t_address": {
						"encoding": "inplace",
						"label": "address",
						"numberOfBytes": "20"
					},
					"t_bool": {
						"encoding": "inplace",
						"label": "bool",
						"numberOfBytes": "1"
					},
					"t_contract(IDistributor)57": {
						"encoding": "inplace",
						"label": "contract IDistributor",
						"numberOfBytes": "20"
					},
					"t_contract(IExodusAuthority)205": {
						"encoding": "inplace",
						"label": "contract IExodusAuthority",
						"numberOfBytes": "20"
					},
					"t_mapping(t_address,t_struct(Claim)865_storage)": {
						"encoding": "mapping",
						"key": "t_address",
						"label": "mapping(address => struct ExodusStaking.Claim)",
						"numberOfBytes": "32",
						"value": "t_struct(Claim)865_storage"
					},
					"t_string_storage": {
						"encoding": "bytes",
						"label": "string",
						"numberOfBytes": "32"
					},
					"t_struct(Claim)865_storage": {
						"encoding": "inplace",
						"label": "struct ExodusStaking.Claim",
						"members": [
							{
								"astId": 858,
								"contract": "ExodusStaking/Staking.sol:ExodusStaking",
								"label": "deposit",
								"offset": 0,
								"slot": "0",
								"type": "t_uint256"
							},
							{
								"astId": 860,
								"contract": "ExodusStaking/Staking.sol:ExodusStaking",
								"label": "gons",
								"offset": 0,
								"slot": "1",
								"type": "t_uint256"
							},
							{
								"astId": 862,
								"contract": "ExodusStaking/Staking.sol:ExodusStaking",
								"label": "expiry",
								"offset": 0,
								"slot": "2",
								"type": "t_uint256"
							},
							{
								"astId": 864,
								"contract": "ExodusStaking/Staking.sol:ExodusStaking",
								"label": "lock",
								"offset": 0,
								"slot": "3",
								"type": "t_bool"
							}
						],
						"numberOfBytes": "128"
					},
					"t_struct(Epoch)856_storage": {
						"encoding": "inplace",
						"label": "struct ExodusStaking.Epoch",
						"members": [
							{
								"astId": 849,
								"contract": "ExodusStaking/Staking.sol:ExodusStaking",
								"label": "length",
								"offset": 0,
								"slot": "0",
								"type": "t_uint256"
							},
							{
								"astId": 851,
								"contract": "ExodusStaking/Staking.sol:ExodusStaking",
								"label": "number",
								"offset": 0,
								"slot": "1",
								"type": "t_uint256"
							},
							{
								"astId": 853,
								"contract": "ExodusStaking/Staking.sol:ExodusStaking",
								"label": "end",
								"offset": 0,
								"slot": "2",
								"type": "t_uint256"
							},
							{
								"astId": 855,
								"contract": "ExodusStaking/Staking.sol:ExodusStaking",
								"label": "distribute",
								"offset": 0,
								"slot": "3",
								"type": "t_uint256"
							}
						],
						"numberOfBytes": "128"
					},
					"t_uint256": {
						"encoding": "inplace",
						"label": "uint256",
						"numberOfBytes": "32"
					}
				}
			},
			"userdoc": {
				"kind": "user",
				"methods": {
					"claim(address,bool)": {
						"notice": "retrieve stake from warmup"
					},
					"forfeit()": {
						"notice": "forfeit stake and retrieve OHM"
					},
					"index()": {
						"notice": "returns the sOHM index, which tracks rebase growth"
					},
					"rebase()": {
						"notice": "trigger rebase if epoch over"
					},
					"secondsToNextEpoch()": {
						"notice": "seconds until the next epoch begins"
					},
					"setDistributor(address)": {
						"notice": "sets the contract address for LP staking"
					},
					"setWarmupLength(uint256)": {
						"notice": "set warmup period for new stakers"
					},
					"stake(address,uint256,bool,bool)": {
						"notice": "stake OHM to enter warmup"
					},
					"supplyInWarmup()": {
						"notice": "total supply in warmup"
					},
					"toggleLock()": {
						"notice": "prevent new deposits or claims from ext. address (protection from malicious activity)"
					},
					"unstake(address,uint256,bool,bool)": {
						"notice": "redeem sOHM for OHMs"
					},
					"unwrap(address,uint256)": {
						"notice": "convert _amount gOHM into sBalance_ sOHM"
					},
					"wrap(address,uint256)": {
						"notice": "convert _amount sOHM into gBalance_ gOHM"
					}
				},
				"version": 1
			}
		}
	}
}